{
  "_format": "hh-sol-artifact-1",
  "contractName": "GluwaAccountModel",
  "sourceName": "contracts/libs/GluwaAccountModel.sol",
  "abi": [
    {
      "constant": true,
      "inputs": [
        {
          "name": "c__0xb681a30d",
          "type": "bytes32"
        }
      ],
      "name": "c_0xb681a30d",
      "outputs": [],
      "payable": false,
      "stateMutability": "pure",
      "type": "function"
    },
    {
      "constant": true,
      "inputs": [
        {
          "name": "startDate",
          "type": "uint256"
        },
        {
          "name": "contractAddress",
          "type": "address"
        },
        {
          "name": "owner",
          "type": "address"
        }
      ],
      "name": "generateAccountHash",
      "outputs": [
        {
          "name": "",
          "type": "bytes32"
        }
      ],
      "payable": false,
      "stateMutability": "pure",
      "type": "function"
    },
    {
      "constant": true,
      "inputs": [
        {
          "name": "id",
          "type": "uint256"
        },
        {
          "name": "deposit",
          "type": "uint256"
        },
        {
          "name": "contractAddress",
          "type": "address"
        },
        {
          "name": "owner",
          "type": "address"
        }
      ],
      "name": "generateDepositHash",
      "outputs": [
        {
          "name": "",
          "type": "bytes32"
        }
      ],
      "payable": false,
      "stateMutability": "pure",
      "type": "function"
    }
  ],
  "bytecode": "0x610487610030600b82828239805160001a6073146000811461002057610022565bfe5b5030600052607381538281f3fe730000000000000000000000000000000000000000301460806040526004361061006e576000357c0100000000000000000000000000000000000000000000000000000000900463ffffffff1680636a66fb5f1461007357806384cefce0146100a1578063fd96809e14610123575b600080fd5b61009f6004803603602081101561008957600080fd5b81019080803590602001909291905050506101af565b005b61010d600480360360608110156100b757600080fd5b8101908080359060200190929190803573ffffffffffffffffffffffffffffffffffffffff169060200190929190803573ffffffffffffffffffffffffffffffffffffffff1690602001909291905050506101b2565b6040518082815260200191505060405180910390f35b6101996004803603608081101561013957600080fd5b810190808035906020019092919080359060200190929190803573ffffffffffffffffffffffffffffffffffffffff169060200190929190803573ffffffffffffffffffffffffffffffffffffffff169060200190929190505050610316565b6040518082815260200191505060405180910390f35b50565b60006101e07ff19eb6c47d8639dd068b5c3408c37c617862e0a5d7a8b14a1eefb0613ce750116001026101af565b61020c7fde7d26ea171e8abf88c99c3eb3c37cead827646c96e1a065148bca58134600cb6001026101af565b6102387f524769f1dfaba27919d84a8a0c1a7236a24aa6907c23c9c199c64074e2bbc2196001026101af565b83838360405160200180848152602001807f536176696e674163636f756e7400000000000000000000000000000000000000815250600d018373ffffffffffffffffffffffffffffffffffffffff1673ffffffffffffffffffffffffffffffffffffffff166c010000000000000000000000000281526014018273ffffffffffffffffffffffffffffffffffffffff1673ffffffffffffffffffffffffffffffffffffffff166c0100000000000000000000000002815260140193505050506040516020818303038152906040528051906020012090509392505050565b60006103447f8752441369afbb3d86a6fdd6d19b3b21a55d8c3d24d1e12936561a58d9c6ae3a6001026101af565b6103707ff0bb744d3355e82068d3926dbc7c8016b0ffab594c1b776d1e660af35ed360d06001026101af565b61039c7fbc6a428510b615d2878357b3e19ea948ed2d3867cfeda968305bd5287bbb88736001026101af565b84848484604051602001808581526020018481526020018373ffffffffffffffffffffffffffffffffffffffff1673ffffffffffffffffffffffffffffffffffffffff166c010000000000000000000000000281526014018273ffffffffffffffffffffffffffffffffffffffff1673ffffffffffffffffffffffffffffffffffffffff166c0100000000000000000000000002815260140194505050505060405160208183030381529060405280519060200120905094935050505056fea165627a7a7230582045aa59ecf9c2c87114a71003f0347731803aa71dac09f0176e5d5a4e7051afe80029",
  "linkReferences": {},
  "deployedLinkReferences": {}
}