{
  "_format": "hh-sol-artifact-1",
  "contractName": "GluwaAccountModel",
  "sourceName": "contracts/libs/GluwaAccountModel.sol",
  "abi": [
    {
      "constant": true,
      "inputs": [
        {
          "name": "startDate",
          "type": "uint256"
        },
        {
          "name": "contractAddress",
          "type": "address"
        },
        {
          "name": "owner",
          "type": "address"
        }
      ],
      "name": "generateAccountHash",
      "outputs": [
        {
          "name": "",
          "type": "bytes32"
        }
      ],
      "payable": false,
      "stateMutability": "pure",
      "type": "function"
    },
    {
      "constant": true,
      "inputs": [
        {
          "name": "id",
          "type": "uint256"
        },
        {
          "name": "deposit",
          "type": "uint256"
        },
        {
          "name": "contractAddress",
          "type": "address"
        },
        {
          "name": "owner",
          "type": "address"
        }
      ],
      "name": "generateDepositHash",
      "outputs": [
        {
          "name": "",
          "type": "bytes32"
        }
      ],
      "payable": false,
      "stateMutability": "pure",
      "type": "function"
    }
  ],
  "bytecode": "0x610215610030600b82828239805160001a6073146000811461002057610022565bfe5b5030600052607381538281f3fe73000000000000000000000000000000000000000030146080604052600436106100625763ffffffff7c010000000000000000000000000000000000000000000000000000000060003504166384cefce08114610067578063fd96809e146100ba575b600080fd5b6100a86004803603606081101561007d57600080fd5b5080359073ffffffffffffffffffffffffffffffffffffffff60208201358116916040013516610101565b60408051918252519081900360200190f35b6100a8600480360360808110156100d057600080fd5b5080359060208101359073ffffffffffffffffffffffffffffffffffffffff60408201358116916060013516610185565b6040805160208082018690527f536176696e674163636f756e7400000000000000000000000000000000000000828401526c0100000000000000000000000073ffffffffffffffffffffffffffffffffffffffff8087168202604d850152851602606183015282516055818403018152607590920190925280519101209392505050565b60408051602080820196909652808201949094526c0100000000000000000000000073ffffffffffffffffffffffffffffffffffffffff9384168102606086015291909216026074830152805160688184030181526088909201905280519101209056fea165627a7a723058203ba771b5399ce335123a347ba7abb3dfa3e7f904715a0f2b1cc463b6d68bf6db0029",
  "linkReferences": {},
  "deployedLinkReferences": {}
}