{
  "_format": "hh-sol-artifact-1",
  "contractName": "AccessControlUpgradeSafe",
  "sourceName": "contracts/libs/AccessControl.sol",
  "abi": [
    {
      "constant": true,
      "inputs": [
        {
          "name": "role",
          "type": "bytes32"
        }
      ],
      "name": "getRoleAdmin",
      "outputs": [
        {
          "name": "",
          "type": "bytes32"
        }
      ],
      "payable": false,
      "stateMutability": "view",
      "type": "function"
    },
    {
      "constant": false,
      "inputs": [
        {
          "name": "role",
          "type": "bytes32"
        },
        {
          "name": "account",
          "type": "address"
        }
      ],
      "name": "grantRole",
      "outputs": [],
      "payable": false,
      "stateMutability": "nonpayable",
      "type": "function"
    },
    {
      "constant": false,
      "inputs": [
        {
          "name": "role",
          "type": "bytes32"
        },
        {
          "name": "account",
          "type": "address"
        }
      ],
      "name": "renounceRole",
      "outputs": [],
      "payable": false,
      "stateMutability": "nonpayable",
      "type": "function"
    },
    {
      "constant": true,
      "inputs": [
        {
          "name": "c__0xfd3e751c",
          "type": "bytes32"
        }
      ],
      "name": "c_0xfd3e751c",
      "outputs": [],
      "payable": false,
      "stateMutability": "pure",
      "type": "function"
    },
    {
      "constant": true,
      "inputs": [
        {
          "name": "role",
          "type": "bytes32"
        },
        {
          "name": "index",
          "type": "uint256"
        }
      ],
      "name": "getRoleMember",
      "outputs": [
        {
          "name": "",
          "type": "address"
        }
      ],
      "payable": false,
      "stateMutability": "view",
      "type": "function"
    },
    {
      "constant": true,
      "inputs": [
        {
          "name": "role",
          "type": "bytes32"
        },
        {
          "name": "account",
          "type": "address"
        }
      ],
      "name": "hasRole",
      "outputs": [
        {
          "name": "",
          "type": "bool"
        }
      ],
      "payable": false,
      "stateMutability": "view",
      "type": "function"
    },
    {
      "constant": true,
      "inputs": [],
      "name": "DEFAULT_ADMIN_ROLE",
      "outputs": [
        {
          "name": "",
          "type": "bytes32"
        }
      ],
      "payable": false,
      "stateMutability": "view",
      "type": "function"
    },
    {
      "constant": true,
      "inputs": [
        {
          "name": "role",
          "type": "bytes32"
        }
      ],
      "name": "getRoleMemberCount",
      "outputs": [
        {
          "name": "",
          "type": "uint256"
        }
      ],
      "payable": false,
      "stateMutability": "view",
      "type": "function"
    },
    {
      "constant": false,
      "inputs": [
        {
          "name": "role",
          "type": "bytes32"
        },
        {
          "name": "account",
          "type": "address"
        }
      ],
      "name": "revokeRole",
      "outputs": [],
      "payable": false,
      "stateMutability": "nonpayable",
      "type": "function"
    },
    {
      "anonymous": false,
      "inputs": [
        {
          "indexed": true,
          "name": "role",
          "type": "bytes32"
        },
        {
          "indexed": true,
          "name": "account",
          "type": "address"
        },
        {
          "indexed": true,
          "name": "sender",
          "type": "address"
        }
      ],
      "name": "RoleGranted",
      "type": "event"
    },
    {
      "anonymous": false,
      "inputs": [
        {
          "indexed": true,
          "name": "role",
          "type": "bytes32"
        },
        {
          "indexed": true,
          "name": "account",
          "type": "address"
        },
        {
          "indexed": true,
          "name": "sender",
          "type": "address"
        }
      ],
      "name": "RoleRevoked",
      "type": "event"
    }
  ],
  "bytecode": "0x6080604052611eab806100136000396000f3fe608060405260043610610099576000357c0100000000000000000000000000000000000000000000000000000000900463ffffffff168063248a9ca31461009e5780632f2ff15d146100ed57806336568abe1461014857806386f8474c146101a35780639010d07c146101de57806391d1485414610263578063a217fddf146102d6578063ca15c87314610301578063d547741f14610350575b600080fd5b3480156100aa57600080fd5b506100d7600480360360208110156100c157600080fd5b81019080803590602001909291905050506103ab565b6040518082815260200191505060405180910390f35b3480156100f957600080fd5b506101466004803603604081101561011057600080fd5b8101908080359060200190929190803573ffffffffffffffffffffffffffffffffffffffff16906020019092919050505061044f565b005b34801561015457600080fd5b506101a16004803603604081101561016b57600080fd5b8101908080359060200190929190803573ffffffffffffffffffffffffffffffffffffffff169060200190929190505050610652565b005b3480156101af57600080fd5b506101dc600480360360208110156101c657600080fd5b8101908080359060200190929190505050610864565b005b3480156101ea57600080fd5b506102216004803603604081101561020157600080fd5b810190808035906020019092919080359060200190929190505050610867565b604051808273ffffffffffffffffffffffffffffffffffffffff1673ffffffffffffffffffffffffffffffffffffffff16815260200191505060405180910390f35b34801561026f57600080fd5b506102bc6004803603604081101561028657600080fd5b8101908080359060200190929190803573ffffffffffffffffffffffffffffffffffffffff16906020019092919050505061091d565b604051808215151515815260200191505060405180910390f35b3480156102e257600080fd5b506102eb6109d3565b6040518082815260200191505060405180910390f35b34801561030d57600080fd5b5061033a6004803603602081101561032457600080fd5b81019080803590602001909291905050506109db565b6040518082815260200191505060405180910390f35b34801561035c57600080fd5b506103a96004803603604081101561037357600080fd5b8101908080359060200190929190803573ffffffffffffffffffffffffffffffffffffffff169060200190929190505050610a86565b005b60006103d97f050340438b0b1f0f74eb1ff71edc211936f7fbfc40a7bf8e9ffa724dc49364f4600102610864565b6104057fb74ad924ba00500175ccb9c922e90ece5516bede925bc063783bc6086080a705600102610864565b6104317fc538a949ad73d85fa871d4fe7b7caf55c98db10decb79e8201e5b229bf49f8d9600102610864565b60336000838152602001908152602001600020600201549050919050565b61047b7f35ef7fe8d6d02844d6863bb6c55f0d1e296384393834f2824348a5a3fe583ff9600102610864565b6104a77fe3926445fba9229f612ea4ab3450183300047551d9413fe24bf861e541ee22b4600102610864565b6104d37f178ba80f02f74abd0ff251d2ea78ec810b40bec9630b6a70cdfbec8d0795e142600102610864565b6104ff7fec551c3ea353e36cbba2586629cb6098113180911ee1a321937b05ae2a2752b6600102610864565b6105266033600084815260200190815260200160002060020154610521610c89565b61091d565b15156105c0576040517f08c379a000000000000000000000000000000000000000000000000000000000815260040180806020018281038252602f8152602001807f416363657373436f6e74726f6c3a2073656e646572206d75737420626520616e81526020017f2061646d696e20746f206772616e74000000000000000000000000000000000081525060400191505060405180910390fd5b6105ec7f84fcfc621d3e05319f4172e0bac43d08f99c5f386a82d921c479c6bf1caa5b9e600102610864565b6106187f97749d5907af942f23e24dab2e4d9d9f86169e20828b78fbb02c7397aba20dec600102610864565b6106447f6071ae2abfff4312103bd8739211263b643becbb57462f9074353c4b638bc8fb600102610864565b61064e8282610c91565b5050565b61067e7f4de32a619436a15decb84a173b4469efaa235be2016b7657229d7bb4d915f167600102610864565b6106aa7fd8479504df472c40b9d2d46578fc0bad271dba561f3c3bfae8432ee4398cd9a8600102610864565b6106d67f056ca1d611325f492ec9a258615105c0c61c1935da3efbb61fbb153378d318dd600102610864565b6107027fb300cb213a808a8d25947dc127c3188ce2125091b485b407bb84a476fe38d0dc600102610864565b61070a610c89565b73ffffffffffffffffffffffffffffffffffffffff168173ffffffffffffffffffffffffffffffffffffffff161415156107d2576040517f08c379a000000000000000000000000000000000000000000000000000000000815260040180806020018281038252602f8152602001807f416363657373436f6e74726f6c3a2063616e206f6e6c792072656e6f756e636581526020017f20726f6c657320666f722073656c66000000000000000000000000000000000081525060400191505060405180910390fd5b6107fe7f7b5ca71ff0c3170626af9f1558f947e9704f6758fabb43f6074fe812966bce56600102610864565b61082a7f811d9b367083ade010308c3df46e6c1a758d0a4e066263174dfb6043b644e173600102610864565b6108567fdb6ee36fa74bfce73b4d7febf4feaf4bdebc1210aab6f5b8693bd4a1f8853a26600102610864565b6108608282610e5e565b5050565b50565b60006108957fd64e96f3e91efc239c01bf30d1d8ff0775b4d6b65061ba43ed41ed007d276239600102610864565b6108c17f8ef3a2c3240e4fed75685458a30e1852c1e366c8a3b897910fa24f0e9c12a393600102610864565b6108ed7f9b2d7cec472af26dd1bd892afafe2be066b09e44a7474e6389d058285c4b9598600102610864565b610915826033600086815260200190815260200160002060000161102b90919063ffffffff16565b905092915050565b600061094b7f9890401fd59cad5dec194d56f8e1f971f8f878bef0e4ff70e116fd19483f5662600102610864565b6109777f66ef1e06f668d8e0c0d4f82edeefadbe8c80204e2512f9d3541f84665b1015fa600102610864565b6109a37fea6f68aaa4e23e70c3a5d466be2b66373b71c8e3a915c17e44d497696e9a338e600102610864565b6109cb82603360008681526020019081526020016000206000016110ca90919063ffffffff16565b905092915050565b600060010281565b6000610a097f7c8a75d871e37bb3adbbbea0732c29f9ce19596157638c44ae73c5d9909177a4600102610864565b610a357f5c8f19add2d84aca7a8087815504b380c1919c10d917dfe0e6f3426480626925600102610864565b610a617ffc62441d050a63d198d2f97f5a25bb420519fd407e5d50f08312815303d5dd21600102610864565b610a7f6033600084815260200190815260200160002060000161117e565b9050919050565b610ab27f78c9d2effdd2cf4ffcfc49a15eb93d30fb2345626d55331fafe2577c45492945600102610864565b610ade7f0f8d5525ab20fc25e211108856f9e9c2d7686d4bca86323a95f73b4befbd1905600102610864565b610b0a7f552f1538fdf5aa57eed1a65a84465e26b2dee3a349b98af5bdc70923de8885ca600102610864565b610b367f903d39f78d0f26f99c6bc1e1496c2b3cde0bbb39f25ad445a102acb1d1decd81600102610864565b610b5d6033600084815260200190815260200160002060020154610b58610c89565b61091d565b1515610bf7576040517f08c379a00000000000000000000000000000000000000000000000000000000081526004018080602001828103825260308152602001807f416363657373436f6e74726f6c3a2073656e646572206d75737420626520616e81526020017f2061646d696e20746f207265766f6b650000000000000000000000000000000081525060400191505060405180910390fd5b610c237f76891968bc09ecbef03a36911e5ee6272955d16b1c067ee7f7047de6127eb41c600102610864565b610c4f7fd93c5a94a5b1886c0bb5575c3cca63b6410bf5cc633908251d561210acc14eaa600102610864565b610c7b7f52b73aa8f50ab99b6810012a79aa4f25995f134e8c54dbcb5d80e568f5fdfbe7600102610864565b610c858282610e5e565b5050565b600033905090565b610cbd7f431977193dba4d85d3d1072d0ba5e1cdccca8cddfd8c4aff4d7ac2ea98d3d4ee600102610864565b610ce97f28a965b98d8b942f56696427d3c721e5310563fbc5164dca87cf5cf13ea2a9ed600102610864565b610d157ff646bf7a647c7eede6638809cfb9c3301764e40ef49c153dd68e18ef90812a40600102610864565b610d3d816033600085815260200190815260200160002060000161121790919063ffffffff16565b15610e2d57610d6e7f6fa7faf9721d6feef12eef2be7cb46f54c37eb46b0da7acac7b4fe0f1b3f5442600102610864565b610d9a7f8151549efc9ed0302e535d39e83479798ffab5156bdffc64026f549fa008bc6d600102610864565b610dc67fe61146cafdbd435fd1a44f216470c1c771b447cea185fd63a791eedb5de9a633600102610864565b610dce610c89565b73ffffffffffffffffffffffffffffffffffffffff168173ffffffffffffffffffffffffffffffffffffffff16837f2f8788117e7eff1d82e926ec794901d17c78024a50270940304540a733656f0d60405160405180910390a4610e5a565b610e597f5574652d96785064c2df2826f0e7f7e329e984e6292358773864c6cc71ea7a07600102610864565b5b5050565b610e8a7f89299f8a83d41798f187ab3c16a70e02bdf5aa620db00df7f88c09b4627ffa55600102610864565b610eb67fbfdadd76f305d8adf092ee65907cc86e4f224d2c66f9af5c0b3cdfcc1f3e8fc2600102610864565b610ee27fcedeb60ed9b0b45ad4375b68166468c8488c71bf3878d408ea58b70a4df19c82600102610864565b610f0a81603360008581526020019081526020016000206000016112cb90919063ffffffff16565b15610ffa57610f3b7f1ec6cce1ca0f17106fd0dac964533ee10f89f102e5bae6dbc54b66910cc69190600102610864565b610f677fa423d3155a2779de3b70eb057d48003daeb03c8d3bb306efff5033bc719fc2fc600102610864565b610f937f45d238e764e3ea305d63d3fecf831285bf4eeaa1602f8de3df539857efac6c6e600102610864565b610f9b610c89565b73ffffffffffffffffffffffffffffffffffffffff168173ffffffffffffffffffffffffffffffffffffffff16837ff6391f5c32d9c69d2a47ea670b442974b53935d1edc7fd64eb21e047a839171b60405160405180910390a4611027565b6110267fd00292ef3da039d8d5902c68958a6f7752a2ffe2226bd360d69710be605255e6600102610864565b5b5050565b60006110597fd863485f4fc7f6d5d8aa55308bee6b8486345b0154e2c013f988cdd9179492f760010261137f565b6110857f73150ee5ee22f81cc4cbb0207d32b0cf721faf35271afc42fb2a2f9de941f52160010261137f565b6110b17f5fd0ab04ce135edde569c47a2d29797cbed89dc380006990af6c8eae49d7a9f460010261137f565b6110be8360000183611382565b60019004905092915050565b60006110f87f2d10932486833c7b94206e0ae6f4a561123119dc1d8256f3e1dffa1f2098284160010261137f565b6111247f3fbb6c237d91889d2b85197067a6867564519756a4b142dce99503390a61e0da60010261137f565b6111507ff0ca5118ce57dbc469380946ed7733bfee6956d8894b68924b77265267d985a860010261137f565b611176836000018373ffffffffffffffffffffffffffffffffffffffff16600102611580565b905092915050565b60006111ac7f4e24753963ccd879d590789fd3106e2074905aede5539b4162644af54b7f58fe60010261137f565b6111d87f459e278c0a981f356992f93db68199e1525e444b60a1aa9f415242edaa90bbd360010261137f565b6112047f676774ccb1be05ce8a1fe3012d02b51ed6e18267ffa29aa002ff672c33d32ee960010261137f565b61121082600001611628565b9050919050565b60006112457fed54bc75583d419ab275e8111912b68693321933fc327bb4bcf80928ad8b8b4960010261137f565b6112717f3daffd0a9dce28b482d01a551215671bf4393bb2c14e29701cf4960e2f2b129260010261137f565b61129d7f40aa26a0e9be8d065cf56c5a97ee7ecf2d6f7f27a85e81ebb85bf92a3fb598c860010261137f565b6112c3836000018373ffffffffffffffffffffffffffffffffffffffff166001026116bd565b905092915050565b60006112f97fe7416d2a3843e619b1224850d86b591b72a1e287cf0e1b4b38a8e263ea53269760010261137f565b6113257f3f6e9522e1ea2955cabc1c679f64bf976068c841a9611123dcede6de73ec4fcd60010261137f565b6113517f8b9337500c7386ca8a4084f42b2d40b9be1af142fb7b663118e6df4ae84c617a60010261137f565b611377836000018373ffffffffffffffffffffffffffffffffffffffff1660010261196e565b905092915050565b50565b60006113b07f4106100c6ddc9e9685bfafb2331061f66fe0bdf557d61e86d3a9e77f415df1c060010261137f565b6113dc7f74042fd2ce01d2d4e5b83168db3daaa0ada16dcc55033ff01c774f8d3b09d26b60010261137f565b6114087ff5b89a497746cc14694c9f1ed1aeaef6a21f81b1a91b334ac822cb679c327c5460010261137f565b6114347f3d2a328b4224524dd5bf276581f8c7e30b93161a3146a223de54a8178318570d60010261137f565b8183600001805490501115156114d8576040517f08c379a00000000000000000000000000000000000000000000000000000000081526004018080602001828103825260228152602001807f456e756d657261626c655365743a20696e646578206f7574206f6620626f756e81526020017f647300000000000000000000000000000000000000000000000000000000000081525060400191505060405180910390fd5b6115047fa53b31889d5006b4901ceb793559ba11b86794ec37414fd5e2572de69058b50b60010261137f565b6115307f1e389c3a59451a90cc38a462ab78e585703d049faa682b547afe962dd782d9fb60010261137f565b61155c7f91294d2a3cd14ca48c2829d94278cbbc8da604b303f69291b78cc7a96433fb6b60010261137f565b826000018281548110151561156d57fe5b9060005260206000200154905092915050565b60006115ae7f2d7ec9f89494f43c00f58c9ac42d6c4126f5ad30efc6a67b48204435b90bdbe160010261137f565b6115da7f808fe5bd45f46ab8ff1cb9aa9c9a30377ea23be0941c4795446d41d254aae5c460010261137f565b6116067f556bfe46c39f16f279635b09a7f3e6cb0df504be781b0931db8a40bab702a79760010261137f565b6000836001016000848152602001908152602001600020541415905092915050565b60006116567f5852ae1c75c424755782c3fdffd26401e1354b9b177513f37690d594b1ebc8ac60010261137f565b6116827ff852b790830032d89971e2c521d42063f93f9915f774b150a71f19bed01505fa60010261137f565b6116ae7f02a432993c4332c426e42b943b3b019f4f8176664138a13b7aefd4766c87794260010261137f565b81600001805490509050919050565b60006116eb7fea4ca516a6106cab84a6a4e89be0f7002b5d6eb029ffab4c054b7ee765fc3c2e60010261137f565b6117177fb46577be114288cc2048caa1c7c40b09dc718696d9a09f0499a1547eb16451a960010261137f565b6117437f699f127f4fce6e368acc157cac121779c534d2aa962d0533bfdaaae1d69ca05f60010261137f565b61174d8383611580565b15156118df5761177f7f521bb0fe62e6b7fd3853af763e653963a8408ffb348ef253e2d2f6e4ce4cd22160010261137f565b6117ab7f9b482a5f51b8ea016ff5ab73974f6b85a6fd2a1eb01a8ee81de32df7a2a8da3560010261137f565b6117d77fce3c0267f6afecccc16fb1df160b30bad8dd9e6470f2c250c65f5d16f559538360010261137f565b826000018290806001815401808255809150509060018203906000526020600020016000909192909190915055506118317f1428e26d804ec500abd0e9390b2940e16e23c588838979a643dc197ecc45d31460010261137f565b61185d7f0b321acd305614c64bd3b03df9b54fda13512f699793d352dda406f5377d654a60010261137f565b8260000180549050836001016000848152602001908152602001600020819055506118aa7f7a5ecc9f91718277f21ffe36d4008cfb52c45cb4a3d02c8d3ad7b368266b527d60010261137f565b6118d67f594e731be2305a9bbd344870cf0633f896cf7c8a552149ac8c3887f5939fa2cc60010261137f565b60019050611968565b61190b7fce845126564f88320d57ac15815dc9da8f604bbea797690ee5dd29256f4490ef60010261137f565b6119377f8de4d4b62709fb9aa3764ecad70f3f67ded177953e8d0b3fa69eb7270f7a72b860010261137f565b6119637feef1a22ab497f0a0b5773c261963d43f0abced69475a8f361c4c09940a2e0f1160010261137f565b600090505b92915050565b600061199c7fd3ffd1de8410e1a5342524eadcc24cec3d13da46f520a8ff3842159d8ac5138160010261137f565b6119c87fd29f0954420e0dacdaf662725b7670ca376b5ecb1467eea88f3ed07b3cef9b2b60010261137f565b6119f47f416543475b2a4ac207e92b54c5a89b0283eb8a6898f17e8a422c8a2b3bdfe4dd60010261137f565b6000836001016000848152602001908152602001600020549050611a3a7f53e6da82d3cb4b8c67410d9eef4d4d2578dc84336caa8505c50feddb82e7c74e60010261137f565b611a667f9985aa50040fc25f597dd3c0a0ef9e1794881ab1e07bd05e1686a5c77312771860010261137f565b600081141515611def57611a9c7f924e66bc6d3998d3584ee5dec8380db18c7801386c9813e9c519c714f9cf05b460010261137f565b611ac87f0464100dfed97956c95ac0853f67804ec637520949c0ddf43963e7218712c4ee60010261137f565b611af47f31239a0e5e1877005aeaa2cf67ecd4f26333ff91ac415b7b58467f96b928e47060010261137f565b6000600182039050611b287f0e8690e5eba3bc911cbe19ecc595ae9d5a7041f8b723ff9c12a4707e72d1d70960010261137f565b611b547f187fa4fe781f8142b1e1da8868034ad381d767259bb390adb2ffa112cc52f27260010261137f565b600060018660000180549050039050611b8f7f9edf3971b67091da233f4cee6fc830f48fc8dae83e1acedbee273f8618720ca860010261137f565b611bbb7faa77a760e845cf44dffa170ad08e7782cf1bbc412ad237c88b0c772676e9150860010261137f565b60008660000182815481101515611bce57fe5b90600052602060002001549050611c077f91a387f2c534fe2d9593060ddb58e0e80cbd7962a699db2183f7fd9ac7bf071e60010261137f565b611c337f5273e3157ed309e995284bc9a0977b5e190f596e6d0a7d6a98f63c6c2e9d2cf560010261137f565b808760000184815481101515611c4557fe5b9060005260206000200181905550611c7f7f6d6ed45f9faffdfa6efb315d613b5cf6f6203c948a1d42a6be8e892393847bf560010261137f565b611cab7f9c908650b18c4d06afe6e22d13e282f9f484d9b002a6121d345881d9d8d8309260010261137f565b6001830187600101600083815260200190815260200160002081905550611cf47fd1882d1c724fb038c1a118718cfe41c240fcbb742f29604cb573449c428371b760010261137f565b611d207fc7f15540aa2b0ce236d481f7560d15ffafee2f2e30cac9beab7e15a266dfe9a760010261137f565b866000018054801515611d2f57fe5b60019003818190600052602060002001600090559055611d717fd59aa80060ea20a1bee9535659b672619a59eb9abf365dafefcb942c2613c7f260010261137f565b86600101600087815260200190815260200160002060009055611db67f510cdbe5cda3c6cfdb8e3b071d5f7c35ea460dd72c7be1c916a1934f864dea1460010261137f565b611de27f69556792cf99684702e25e6dffc56bf298f3be73f828931c796488097d672b3c60010261137f565b6001945050505050611e79565b611e1b7fe7dbbe65769452c853cae620146590604b6b716ac01fb8b203f1ba9fc91fc22460010261137f565b611e477f0210cac0db58119dced257e99daceaaac77667d292149865bf117b7ca9eb4bce60010261137f565b611e737fbb32f6a0da519ded942950a6895a2c4b30863d395a47575812ea09df9c76aeef60010261137f565b60009150505b9291505056fea165627a7a72305820e0186d9dfe522b4ff2c0cb7a77598e33243d9f36795e88ea8510180f2828e3080029",
  "linkReferences": {},
  "deployedLinkReferences": {}
}