{
  "_format": "hh-sol-artifact-1",
  "contractName": "AccessControlUpgradeSafe",
  "sourceName": "contracts/libs/AccessControl.sol",
  "abi": [
    {
      "constant": true,
      "inputs": [
        {
          "name": "role",
          "type": "bytes32"
        }
      ],
      "name": "getRoleAdmin",
      "outputs": [
        {
          "name": "",
          "type": "bytes32"
        }
      ],
      "payable": false,
      "stateMutability": "view",
      "type": "function"
    },
    {
      "constant": false,
      "inputs": [
        {
          "name": "role",
          "type": "bytes32"
        },
        {
          "name": "account",
          "type": "address"
        }
      ],
      "name": "grantRole",
      "outputs": [],
      "payable": false,
      "stateMutability": "nonpayable",
      "type": "function"
    },
    {
      "constant": false,
      "inputs": [
        {
          "name": "role",
          "type": "bytes32"
        },
        {
          "name": "account",
          "type": "address"
        }
      ],
      "name": "renounceRole",
      "outputs": [],
      "payable": false,
      "stateMutability": "nonpayable",
      "type": "function"
    },
    {
      "constant": true,
      "inputs": [
        {
          "name": "role",
          "type": "bytes32"
        },
        {
          "name": "index",
          "type": "uint256"
        }
      ],
      "name": "getRoleMember",
      "outputs": [
        {
          "name": "",
          "type": "address"
        }
      ],
      "payable": false,
      "stateMutability": "view",
      "type": "function"
    },
    {
      "constant": true,
      "inputs": [
        {
          "name": "role",
          "type": "bytes32"
        },
        {
          "name": "account",
          "type": "address"
        }
      ],
      "name": "hasRole",
      "outputs": [
        {
          "name": "",
          "type": "bool"
        }
      ],
      "payable": false,
      "stateMutability": "view",
      "type": "function"
    },
    {
      "constant": true,
      "inputs": [],
      "name": "DEFAULT_ADMIN_ROLE",
      "outputs": [
        {
          "name": "",
          "type": "bytes32"
        }
      ],
      "payable": false,
      "stateMutability": "view",
      "type": "function"
    },
    {
      "constant": true,
      "inputs": [
        {
          "name": "role",
          "type": "bytes32"
        }
      ],
      "name": "getRoleMemberCount",
      "outputs": [
        {
          "name": "",
          "type": "uint256"
        }
      ],
      "payable": false,
      "stateMutability": "view",
      "type": "function"
    },
    {
      "constant": false,
      "inputs": [
        {
          "name": "role",
          "type": "bytes32"
        },
        {
          "name": "account",
          "type": "address"
        }
      ],
      "name": "revokeRole",
      "outputs": [],
      "payable": false,
      "stateMutability": "nonpayable",
      "type": "function"
    },
    {
      "anonymous": false,
      "inputs": [
        {
          "indexed": true,
          "name": "role",
          "type": "bytes32"
        },
        {
          "indexed": true,
          "name": "account",
          "type": "address"
        },
        {
          "indexed": true,
          "name": "sender",
          "type": "address"
        }
      ],
      "name": "RoleGranted",
      "type": "event"
    },
    {
      "anonymous": false,
      "inputs": [
        {
          "indexed": true,
          "name": "role",
          "type": "bytes32"
        },
        {
          "indexed": true,
          "name": "account",
          "type": "address"
        },
        {
          "indexed": true,
          "name": "sender",
          "type": "address"
        }
      ],
      "name": "RoleRevoked",
      "type": "event"
    }
  ],
  "bytecode": "0x60806040526107e2806100136000396000f3fe60806040526004361061008d5763ffffffff7c0100000000000000000000000000000000000000000000000000000000600035041663248a9ca381146100925780632f2ff15d146100ce57806336568abe146101095780639010d07c1461014257806391d148541461018e578063a217fddf146101db578063ca15c873146101f0578063d547741f1461021a575b600080fd5b34801561009e57600080fd5b506100bc600480360360208110156100b557600080fd5b5035610253565b60408051918252519081900360200190f35b3480156100da57600080fd5b50610107600480360360408110156100f157600080fd5b5080359060200135600160a060020a0316610268565b005b34801561011557600080fd5b506101076004803603604081101561012c57600080fd5b5080359060200135600160a060020a0316610315565b34801561014e57600080fd5b506101726004803603604081101561016557600080fd5b50803590602001356103af565b60408051600160a060020a039092168252519081900360200190f35b34801561019a57600080fd5b506101c7600480360360408110156101b157600080fd5b5080359060200135600160a060020a03166103d6565b604080519115158252519081900360200190f35b3480156101e757600080fd5b506100bc6103f4565b3480156101fc57600080fd5b506100bc6004803603602081101561021357600080fd5b50356103f9565b34801561022657600080fd5b506101076004803603604081101561023d57600080fd5b5080359060200135600160a060020a0316610410565b60009081526033602052604090206002015490565b60008281526033602052604090206002015461028b906102866104aa565b6103d6565b1515610307576040805160e560020a62461bcd02815260206004820152602f60248201527f416363657373436f6e74726f6c3a2073656e646572206d75737420626520616e60448201527f2061646d696e20746f206772616e740000000000000000000000000000000000606482015290519081900360840190fd5b61031182826104ae565b5050565b61031d6104aa565b600160a060020a038281169116146103a5576040805160e560020a62461bcd02815260206004820152602f60248201527f416363657373436f6e74726f6c3a2063616e206f6e6c792072656e6f756e636560448201527f20726f6c657320666f722073656c660000000000000000000000000000000000606482015290519081900360840190fd5b610311828261051d565b60008281526033602052604081206103cd908363ffffffff61058c16565b90505b92915050565b60008281526033602052604081206103cd908363ffffffff61059816565b600081565b60008181526033602052604081206103d0906105ad565b60008281526033602052604090206002015461042e906102866104aa565b15156103a5576040805160e560020a62461bcd02815260206004820152603060248201527f416363657373436f6e74726f6c3a2073656e646572206d75737420626520616e60448201527f2061646d696e20746f207265766f6b6500000000000000000000000000000000606482015290519081900360840190fd5b3390565b60008281526033602052604090206104cc908263ffffffff6105b816565b15610311576104d96104aa565b600160a060020a031681600160a060020a0316837f2f8788117e7eff1d82e926ec794901d17c78024a50270940304540a733656f0d60405160405180910390a45050565b600082815260336020526040902061053b908263ffffffff6105cd16565b15610311576105486104aa565b600160a060020a031681600160a060020a0316837ff6391f5c32d9c69d2a47ea670b442974b53935d1edc7fd64eb21e047a839171b60405160405180910390a45050565b60006103cd83836105e2565b60006103cd83600160a060020a038416610684565b60006103d08261069c565b60006103cd83600160a060020a0384166106a0565b60006103cd83600160a060020a0384166106ec565b81546000908210610663576040805160e560020a62461bcd02815260206004820152602260248201527f456e756d657261626c655365743a20696e646578206f7574206f6620626f756e60448201527f6473000000000000000000000000000000000000000000000000000000000000606482015290519081900360840190fd5b825483908390811061067157fe5b9060005260206000200154905092915050565b60009081526001919091016020526040902054151590565b5490565b60006106ac8383610684565b15156106e4575081546001818101845560008481526020808220909301849055845484825282860190935260409020919091556103d0565b5060006103d0565b600081815260018301602052604081205480156107ac578354600019808301919081019060009087908390811061071f57fe5b9060005260206000200154905080876000018481548110151561073e57fe5b600091825260208083209091019290925582815260018981019092526040902090840190558654879080151561077057fe5b600190038181906000526020600020016000905590558660010160008781526020019081526020016000206000905560019450505050506103d0565b60009150506103d056fea165627a7a723058204d9c360c7dc33d412cbd63453dbd1c7edb24d73c882ea123a9fc345b6b4568390029",
  "linkReferences": {},
  "deployedLinkReferences": {}
}