{
  "_format": "hh-sol-artifact-1",
  "contractName": "AccessControlUpgradeSafe",
  "sourceName": "contracts/libs/AccessControl.sol",
  "abi": [
    {
      "constant": true,
      "inputs": [
        {
          "name": "role",
          "type": "bytes32"
        }
      ],
      "name": "getRoleAdmin",
      "outputs": [
        {
          "name": "",
          "type": "bytes32"
        }
      ],
      "payable": false,
      "stateMutability": "view",
      "type": "function"
    },
    {
      "constant": false,
      "inputs": [
        {
          "name": "role",
          "type": "bytes32"
        },
        {
          "name": "account",
          "type": "address"
        }
      ],
      "name": "grantRole",
      "outputs": [],
      "payable": false,
      "stateMutability": "nonpayable",
      "type": "function"
    },
    {
      "constant": false,
      "inputs": [
        {
          "name": "role",
          "type": "bytes32"
        },
        {
          "name": "account",
          "type": "address"
        }
      ],
      "name": "renounceRole",
      "outputs": [],
      "payable": false,
      "stateMutability": "nonpayable",
      "type": "function"
    },
    {
      "constant": true,
      "inputs": [
        {
          "name": "c__0xfd3e751c",
          "type": "bytes32"
        }
      ],
      "name": "c_0xfd3e751c",
      "outputs": [],
      "payable": false,
      "stateMutability": "pure",
      "type": "function"
    },
    {
      "constant": true,
      "inputs": [
        {
          "name": "role",
          "type": "bytes32"
        },
        {
          "name": "index",
          "type": "uint256"
        }
      ],
      "name": "getRoleMember",
      "outputs": [
        {
          "name": "",
          "type": "address"
        }
      ],
      "payable": false,
      "stateMutability": "view",
      "type": "function"
    },
    {
      "constant": true,
      "inputs": [
        {
          "name": "role",
          "type": "bytes32"
        },
        {
          "name": "account",
          "type": "address"
        }
      ],
      "name": "hasRole",
      "outputs": [
        {
          "name": "",
          "type": "bool"
        }
      ],
      "payable": false,
      "stateMutability": "view",
      "type": "function"
    },
    {
      "constant": true,
      "inputs": [],
      "name": "DEFAULT_ADMIN_ROLE",
      "outputs": [
        {
          "name": "",
          "type": "bytes32"
        }
      ],
      "payable": false,
      "stateMutability": "view",
      "type": "function"
    },
    {
      "constant": true,
      "inputs": [
        {
          "name": "role",
          "type": "bytes32"
        }
      ],
      "name": "getRoleMemberCount",
      "outputs": [
        {
          "name": "",
          "type": "uint256"
        }
      ],
      "payable": false,
      "stateMutability": "view",
      "type": "function"
    },
    {
      "constant": false,
      "inputs": [
        {
          "name": "role",
          "type": "bytes32"
        },
        {
          "name": "account",
          "type": "address"
        }
      ],
      "name": "revokeRole",
      "outputs": [],
      "payable": false,
      "stateMutability": "nonpayable",
      "type": "function"
    },
    {
      "anonymous": false,
      "inputs": [
        {
          "indexed": true,
          "name": "role",
          "type": "bytes32"
        },
        {
          "indexed": true,
          "name": "account",
          "type": "address"
        },
        {
          "indexed": true,
          "name": "sender",
          "type": "address"
        }
      ],
      "name": "RoleGranted",
      "type": "event"
    },
    {
      "anonymous": false,
      "inputs": [
        {
          "indexed": true,
          "name": "role",
          "type": "bytes32"
        },
        {
          "indexed": true,
          "name": "account",
          "type": "address"
        },
        {
          "indexed": true,
          "name": "sender",
          "type": "address"
        }
      ],
      "name": "RoleRevoked",
      "type": "event"
    }
  ],
  "bytecode": "0x6080604052611eaa806100136000396000f3fe608060405260043610610099576000357c0100000000000000000000000000000000000000000000000000000000900463ffffffff168063248a9ca31461009e5780632f2ff15d146100ed57806336568abe1461014857806386f8474c146101a35780639010d07c146101de57806391d1485414610263578063a217fddf146102d6578063ca15c87314610301578063d547741f14610350575b600080fd5b3480156100aa57600080fd5b506100d7600480360360208110156100c157600080fd5b81019080803590602001909291905050506103ab565b6040518082815260200191505060405180910390f35b3480156100f957600080fd5b506101466004803603604081101561011057600080fd5b8101908080359060200190929190803573ffffffffffffffffffffffffffffffffffffffff16906020019092919050505061044f565b005b34801561015457600080fd5b506101a16004803603604081101561016b57600080fd5b8101908080359060200190929190803573ffffffffffffffffffffffffffffffffffffffff169060200190929190505050610652565b005b3480156101af57600080fd5b506101dc600480360360208110156101c657600080fd5b8101908080359060200190929190505050610864565b005b3480156101ea57600080fd5b506102216004803603604081101561020157600080fd5b810190808035906020019092919080359060200190929190505050610867565b604051808273ffffffffffffffffffffffffffffffffffffffff1673ffffffffffffffffffffffffffffffffffffffff16815260200191505060405180910390f35b34801561026f57600080fd5b506102bc6004803603604081101561028657600080fd5b8101908080359060200190929190803573ffffffffffffffffffffffffffffffffffffffff16906020019092919050505061091d565b604051808215151515815260200191505060405180910390f35b3480156102e257600080fd5b506102eb6109d3565b6040518082815260200191505060405180910390f35b34801561030d57600080fd5b5061033a6004803603602081101561032457600080fd5b81019080803590602001909291905050506109db565b6040518082815260200191505060405180910390f35b34801561035c57600080fd5b506103a96004803603604081101561037357600080fd5b8101908080359060200190929190803573ffffffffffffffffffffffffffffffffffffffff169060200190929190505050610a86565b005b60006103d97f433294070be26091e7d86a9df5bd4244f369eb92740f08f2b9f5dee15dae218c600102610864565b6104057f9907d011a40ed9cb525bc9703c302f3d71ee5b67daac1b37a8ef10b968f4f268600102610864565b6104317f986fc817075028f0f7a6cb089481ce6acf40cfa9302d016869b03d52c9d08c88600102610864565b60336000838152602001908152602001600020600201549050919050565b61047b7f9890401fd59cad5dec194d56f8e1f971f8f878bef0e4ff70e116fd19483f5662600102610864565b6104a77f66ef1e06f668d8e0c0d4f82edeefadbe8c80204e2512f9d3541f84665b1015fa600102610864565b6104d37fea6f68aaa4e23e70c3a5d466be2b66373b71c8e3a915c17e44d497696e9a338e600102610864565b6104ff7f7c8a75d871e37bb3adbbbea0732c29f9ce19596157638c44ae73c5d9909177a4600102610864565b6105266033600084815260200190815260200160002060020154610521610c89565b61091d565b15156105c0576040517f08c379a000000000000000000000000000000000000000000000000000000000815260040180806020018281038252602f8152602001807f416363657373436f6e74726f6c3a2073656e646572206d75737420626520616e81526020017f2061646d696e20746f206772616e74000000000000000000000000000000000081525060400191505060405180910390fd5b6105ec7f5c8f19add2d84aca7a8087815504b380c1919c10d917dfe0e6f3426480626925600102610864565b6106187ffc62441d050a63d198d2f97f5a25bb420519fd407e5d50f08312815303d5dd21600102610864565b6106447fd64e96f3e91efc239c01bf30d1d8ff0775b4d6b65061ba43ed41ed007d276239600102610864565b61064e8282610c91565b5050565b61067e7f178ba80f02f74abd0ff251d2ea78ec810b40bec9630b6a70cdfbec8d0795e142600102610864565b6106aa7fec551c3ea353e36cbba2586629cb6098113180911ee1a321937b05ae2a2752b6600102610864565b6106d67f84fcfc621d3e05319f4172e0bac43d08f99c5f386a82d921c479c6bf1caa5b9e600102610864565b6107027f97749d5907af942f23e24dab2e4d9d9f86169e20828b78fbb02c7397aba20dec600102610864565b61070a610c89565b73ffffffffffffffffffffffffffffffffffffffff168173ffffffffffffffffffffffffffffffffffffffff161415156107d2576040517f08c379a000000000000000000000000000000000000000000000000000000000815260040180806020018281038252602f8152602001807f416363657373436f6e74726f6c3a2063616e206f6e6c792072656e6f756e636581526020017f20726f6c657320666f722073656c66000000000000000000000000000000000081525060400191505060405180910390fd5b6107fe7f6071ae2abfff4312103bd8739211263b643becbb57462f9074353c4b638bc8fb600102610864565b61082a7f78c9d2effdd2cf4ffcfc49a15eb93d30fb2345626d55331fafe2577c45492945600102610864565b6108567f0f8d5525ab20fc25e211108856f9e9c2d7686d4bca86323a95f73b4befbd1905600102610864565b6108608282610e5e565b5050565b50565b60006108957f44f06d40964298ea22079cda36046dcfd121686bb49a0c1b80a0eae08ce55945600102610864565b6108c17f72cd481b3bb07d020fc3b7cda33c4c2d3e2e7f9553bac348bcde8f231dc4fc18600102610864565b6108ed7f6eb98de5cc4982251f208140de22f6b8311bb14ab13aced174eddba3a1a904be600102610864565b610915826033600086815260200190815260200160002060000161102a90919063ffffffff16565b905092915050565b600061094b7f9717c4659c97c82d0096590103bcc8cb92264aea4c03f43c92846d88fbb924e7600102610864565b6109777f493b91d2b4dd206a7a59c3d8d086e86b331838ea0c36abafcec14df2cc77f5ed600102610864565b6109a37f86c119a49118cfc851222c11f3f46a758076da295127c8733cff5a8388ef1ffb600102610864565b6109cb82603360008681526020019081526020016000206000016110c990919063ffffffff16565b905092915050565b600060010281565b6000610a097fc5051e054086deec6c7ce99762d4f39637ad216385e8d81a88af053129a5dead600102610864565b610a357f9bca38d46f8380efa4a25230fbef4066e19ab09fe512066359f31c8e5016dd9f600102610864565b610a617f305a98b4dcb9deaeb4ad6d585a3ddd50284c504959838879128fb9d44da89a4f600102610864565b610a7f6033600084815260200190815260200160002060000161117d565b9050919050565b610ab27f8ef3a2c3240e4fed75685458a30e1852c1e366c8a3b897910fa24f0e9c12a393600102610864565b610ade7f9b2d7cec472af26dd1bd892afafe2be066b09e44a7474e6389d058285c4b9598600102610864565b610b0a7f050340438b0b1f0f74eb1ff71edc211936f7fbfc40a7bf8e9ffa724dc49364f4600102610864565b610b367fb74ad924ba00500175ccb9c922e90ece5516bede925bc063783bc6086080a705600102610864565b610b5d6033600084815260200190815260200160002060020154610b58610c89565b61091d565b1515610bf7576040517f08c379a00000000000000000000000000000000000000000000000000000000081526004018080602001828103825260308152602001807f416363657373436f6e74726f6c3a2073656e646572206d75737420626520616e81526020017f2061646d696e20746f207265766f6b650000000000000000000000000000000081525060400191505060405180910390fd5b610c237fc538a949ad73d85fa871d4fe7b7caf55c98db10decb79e8201e5b229bf49f8d9600102610864565b610c4f7f35ef7fe8d6d02844d6863bb6c55f0d1e296384393834f2824348a5a3fe583ff9600102610864565b610c7b7fe3926445fba9229f612ea4ab3450183300047551d9413fe24bf861e541ee22b4600102610864565b610c858282610e5e565b5050565b600033905090565b610cbd7fd8479504df472c40b9d2d46578fc0bad271dba561f3c3bfae8432ee4398cd9a8600102610864565b610ce97f056ca1d611325f492ec9a258615105c0c61c1935da3efbb61fbb153378d318dd600102610864565b610d157fb300cb213a808a8d25947dc127c3188ce2125091b485b407bb84a476fe38d0dc600102610864565b610d3d816033600085815260200190815260200160002060000161121690919063ffffffff16565b15610e2d57610d6e7f7b5ca71ff0c3170626af9f1558f947e9704f6758fabb43f6074fe812966bce56600102610864565b610d9a7f811d9b367083ade010308c3df46e6c1a758d0a4e066263174dfb6043b644e173600102610864565b610dc67fdb6ee36fa74bfce73b4d7febf4feaf4bdebc1210aab6f5b8693bd4a1f8853a26600102610864565b610dce610c89565b73ffffffffffffffffffffffffffffffffffffffff168173ffffffffffffffffffffffffffffffffffffffff16837f2f8788117e7eff1d82e926ec794901d17c78024a50270940304540a733656f0d60405160405180910390a4610e5a565b610e597f85d239db3b4d1b9cced29486f7c80ccb652aafd8e8eae3f7452473f2cc89b51a600102610864565b5b5050565b610e8a7fedea06ed59008997c5743a16db8568bab5dd9f9c34ed04b0f769daf451feb479600102610864565b610eb67fef1f4435b8ae57ba06f31930b3fb8c9cc004c60b2991c9854f356fda1be49d1b600102610864565b610ee17e8e26e72734111ca057d72127912f0212f88739a7285da44b27658c44d821cd600102610864565b610f0981603360008581526020019081526020016000206000016112ca90919063ffffffff16565b15610ff957610f3a7f84b91bc6cd4d63b8761ad13257c7207720ef3cd77d61117e543c387736916e5e600102610864565b610f667f9dccac468e58953be22b97f316f61593d0626c019b44f72d0fae41962f2372db600102610864565b610f927f431977193dba4d85d3d1072d0ba5e1cdccca8cddfd8c4aff4d7ac2ea98d3d4ee600102610864565b610f9a610c89565b73ffffffffffffffffffffffffffffffffffffffff168173ffffffffffffffffffffffffffffffffffffffff16837ff6391f5c32d9c69d2a47ea670b442974b53935d1edc7fd64eb21e047a839171b60405160405180910390a4611026565b6110257f28a965b98d8b942f56696427d3c721e5310563fbc5164dca87cf5cf13ea2a9ed600102610864565b5b5050565b60006110587fed54bc75583d419ab275e8111912b68693321933fc327bb4bcf80928ad8b8b4960010261137e565b6110847f3daffd0a9dce28b482d01a551215671bf4393bb2c14e29701cf4960e2f2b129260010261137e565b6110b07f40aa26a0e9be8d065cf56c5a97ee7ecf2d6f7f27a85e81ebb85bf92a3fb598c860010261137e565b6110bd8360000183611381565b60019004905092915050565b60006110f77f74042fd2ce01d2d4e5b83168db3daaa0ada16dcc55033ff01c774f8d3b09d26b60010261137e565b6111237ff5b89a497746cc14694c9f1ed1aeaef6a21f81b1a91b334ac822cb679c327c5460010261137e565b61114f7f3d2a328b4224524dd5bf276581f8c7e30b93161a3146a223de54a8178318570d60010261137e565b611175836000018373ffffffffffffffffffffffffffffffffffffffff1660010261157f565b905092915050565b60006111ab7fa53b31889d5006b4901ceb793559ba11b86794ec37414fd5e2572de69058b50b60010261137e565b6111d77f1e389c3a59451a90cc38a462ab78e585703d049faa682b547afe962dd782d9fb60010261137e565b6112037f91294d2a3cd14ca48c2829d94278cbbc8da604b303f69291b78cc7a96433fb6b60010261137e565b61120f82600001611627565b9050919050565b60006112447f808fe5bd45f46ab8ff1cb9aa9c9a30377ea23be0941c4795446d41d254aae5c460010261137e565b6112707f556bfe46c39f16f279635b09a7f3e6cb0df504be781b0931db8a40bab702a79760010261137e565b61129c7f5852ae1c75c424755782c3fdffd26401e1354b9b177513f37690d594b1ebc8ac60010261137e565b6112c2836000018373ffffffffffffffffffffffffffffffffffffffff166001026116bc565b905092915050565b60006112f87ff852b790830032d89971e2c521d42063f93f9915f774b150a71f19bed01505fa60010261137e565b6113247f02a432993c4332c426e42b943b3b019f4f8176664138a13b7aefd4766c87794260010261137e565b6113507f4106100c6ddc9e9685bfafb2331061f66fe0bdf557d61e86d3a9e77f415df1c060010261137e565b611376836000018373ffffffffffffffffffffffffffffffffffffffff1660010261196d565b905092915050565b50565b60006113af7fd59aa80060ea20a1bee9535659b672619a59eb9abf365dafefcb942c2613c7f260010261137e565b6113db7f510cdbe5cda3c6cfdb8e3b071d5f7c35ea460dd72c7be1c916a1934f864dea1460010261137e565b6114077f69556792cf99684702e25e6dffc56bf298f3be73f828931c796488097d672b3c60010261137e565b6114337fe7dbbe65769452c853cae620146590604b6b716ac01fb8b203f1ba9fc91fc22460010261137e565b8183600001805490501115156114d7576040517f08c379a00000000000000000000000000000000000000000000000000000000081526004018080602001828103825260228152602001807f456e756d657261626c655365743a20696e646578206f7574206f6620626f756e81526020017f647300000000000000000000000000000000000000000000000000000000000081525060400191505060405180910390fd5b6115037f0210cac0db58119dced257e99daceaaac77667d292149865bf117b7ca9eb4bce60010261137e565b61152f7fbb32f6a0da519ded942950a6895a2c4b30863d395a47575812ea09df9c76aeef60010261137e565b61155b7f2d7ec9f89494f43c00f58c9ac42d6c4126f5ad30efc6a67b48204435b90bdbe160010261137e565b826000018281548110151561156c57fe5b9060005260206000200154905092915050565b60006115ad7f91a387f2c534fe2d9593060ddb58e0e80cbd7962a699db2183f7fd9ac7bf071e60010261137e565b6115d97f5273e3157ed309e995284bc9a0977b5e190f596e6d0a7d6a98f63c6c2e9d2cf560010261137e565b6116057f6d6ed45f9faffdfa6efb315d613b5cf6f6203c948a1d42a6be8e892393847bf560010261137e565b6000836001016000848152602001908152602001600020541415905092915050565b60006116557f9c908650b18c4d06afe6e22d13e282f9f484d9b002a6121d345881d9d8d8309260010261137e565b6116817fd1882d1c724fb038c1a118718cfe41c240fcbb742f29604cb573449c428371b760010261137e565b6116ad7fc7f15540aa2b0ce236d481f7560d15ffafee2f2e30cac9beab7e15a266dfe9a760010261137e565b81600001805490509050919050565b60006116ea7fdc98283814e79bb677e4533518e3c2f53f8e4c59687397a7b78347c960536cc160010261137e565b6117167f08f983703f49cdc3c560deac1d568c63bbb53744daf6748f954f4abb25f1d3e360010261137e565b6117427f0766c4b69595c539a4a199f3f3455d725841af480d0c969d04e041bda8fd9e3860010261137e565b61174c838361157f565b15156118de5761177e7f8202084254906f7199aff05a1e12a8bc5defcb3bd0dd0722312d025f1cdf925260010261137e565b6117aa7fb1802c0bd1c50eb7a5ea2c418efaeada5280ab5a1302759ddbec40a8207c23e460010261137e565b6117d67fe8b3e427236d7f428acc3936ce49ad58e9149853bdab6138eb2c98e2af6cb86960010261137e565b826000018290806001815401808255809150509060018203906000526020600020016000909192909190915055506118307f404abcfd453eafceb908f0c5b1ee91f99c24e35dcdaf36ffd32647ed81f4a0b760010261137e565b61185c7f662751195cdb0b90cb1e17966da929da7653f6859a1b7a31c850c33339479f0360010261137e565b8260000180549050836001016000848152602001908152602001600020819055506118a97f8f5f086f1efcb1d2f720c6fc80a66f22d2d0a09419c86a81cbda07ae56d460e760010261137e565b6118d57ff12fe73b3f923129741602084dd63137d28cd61a51b82df1b5afc7fe5713cac560010261137e565b60019050611967565b61190a7f411725b9e6b16644ba52449ec4d36b92dea2b1bd54b0f03c783a20b7890d00eb60010261137e565b6119367f9bd634b5b92fd3e06f26a52ec2939a4a0a84952a011ea5514bc62a4c5373a55c60010261137e565b6119627fea4ca516a6106cab84a6a4e89be0f7002b5d6eb029ffab4c054b7ee765fc3c2e60010261137e565b600090505b92915050565b600061199b7fb46577be114288cc2048caa1c7c40b09dc718696d9a09f0499a1547eb16451a960010261137e565b6119c77f699f127f4fce6e368acc157cac121779c534d2aa962d0533bfdaaae1d69ca05f60010261137e565b6119f37f521bb0fe62e6b7fd3853af763e653963a8408ffb348ef253e2d2f6e4ce4cd22160010261137e565b6000836001016000848152602001908152602001600020549050611a397f9b482a5f51b8ea016ff5ab73974f6b85a6fd2a1eb01a8ee81de32df7a2a8da3560010261137e565b611a657fce3c0267f6afecccc16fb1df160b30bad8dd9e6470f2c250c65f5d16f559538360010261137e565b600081141515611dee57611a9b7f1428e26d804ec500abd0e9390b2940e16e23c588838979a643dc197ecc45d31460010261137e565b611ac77f0b321acd305614c64bd3b03df9b54fda13512f699793d352dda406f5377d654a60010261137e565b611af37f7a5ecc9f91718277f21ffe36d4008cfb52c45cb4a3d02c8d3ad7b368266b527d60010261137e565b6000600182039050611b277f594e731be2305a9bbd344870cf0633f896cf7c8a552149ac8c3887f5939fa2cc60010261137e565b611b537fce845126564f88320d57ac15815dc9da8f604bbea797690ee5dd29256f4490ef60010261137e565b600060018660000180549050039050611b8e7f8de4d4b62709fb9aa3764ecad70f3f67ded177953e8d0b3fa69eb7270f7a72b860010261137e565b611bba7feef1a22ab497f0a0b5773c261963d43f0abced69475a8f361c4c09940a2e0f1160010261137e565b60008660000182815481101515611bcd57fe5b90600052602060002001549050611c067fd3ffd1de8410e1a5342524eadcc24cec3d13da46f520a8ff3842159d8ac5138160010261137e565b611c327fd29f0954420e0dacdaf662725b7670ca376b5ecb1467eea88f3ed07b3cef9b2b60010261137e565b808760000184815481101515611c4457fe5b9060005260206000200181905550611c7e7f416543475b2a4ac207e92b54c5a89b0283eb8a6898f17e8a422c8a2b3bdfe4dd60010261137e565b611caa7f53e6da82d3cb4b8c67410d9eef4d4d2578dc84336caa8505c50feddb82e7c74e60010261137e565b6001830187600101600083815260200190815260200160002081905550611cf37f9985aa50040fc25f597dd3c0a0ef9e1794881ab1e07bd05e1686a5c77312771860010261137e565b611d1f7f924e66bc6d3998d3584ee5dec8380db18c7801386c9813e9c519c714f9cf05b460010261137e565b866000018054801515611d2e57fe5b60019003818190600052602060002001600090559055611d707f0464100dfed97956c95ac0853f67804ec637520949c0ddf43963e7218712c4ee60010261137e565b86600101600087815260200190815260200160002060009055611db57f31239a0e5e1877005aeaa2cf67ecd4f26333ff91ac415b7b58467f96b928e47060010261137e565b611de17f0e8690e5eba3bc911cbe19ecc595ae9d5a7041f8b723ff9c12a4707e72d1d70960010261137e565b6001945050505050611e78565b611e1a7f187fa4fe781f8142b1e1da8868034ad381d767259bb390adb2ffa112cc52f27260010261137e565b611e467f9edf3971b67091da233f4cee6fc830f48fc8dae83e1acedbee273f8618720ca860010261137e565b611e727faa77a760e845cf44dffa170ad08e7782cf1bbc412ad237c88b0c772676e9150860010261137e565b60009150505b9291505056fea165627a7a723058203a87857d4b2e2b2289e3a97595654ea21dd0c65109e1d92f4c9dffa72a4958b60029",
  "linkReferences": {},
  "deployedLinkReferences": {}
}