{
  "contracts/libs/DateTimeModel.sol": {
    "DateTimeModel": {
      "abi": [
        {
          "constant": true,
          "inputs": [
            {
              "name": "year",
              "type": "uint16"
            },
            {
              "name": "month",
              "type": "uint8"
            },
            {
              "name": "day",
              "type": "uint8"
            },
            {
              "name": "hour",
              "type": "uint8"
            },
            {
              "name": "minute",
              "type": "uint8"
            },
            {
              "name": "second",
              "type": "uint8"
            }
          ],
          "name": "toTimeStamp",
          "outputs": [
            {
              "name": "timeStamp",
              "type": "uint256"
            }
          ],
          "payable": false,
          "stateMutability": "pure",
          "type": "function"
        },
        {
          "constant": true,
          "inputs": [
            {
              "name": "timeStamp",
              "type": "uint256"
            }
          ],
          "name": "getHour",
          "outputs": [
            {
              "name": "",
              "type": "uint8"
            }
          ],
          "payable": false,
          "stateMutability": "pure",
          "type": "function"
        },
        {
          "constant": true,
          "inputs": [],
          "name": "YEAR_IN_SECOND",
          "outputs": [
            {
              "name": "",
              "type": "uint256"
            }
          ],
          "payable": false,
          "stateMutability": "view",
          "type": "function"
        },
        {
          "constant": true,
          "inputs": [
            {
              "name": "month",
              "type": "uint8"
            },
            {
              "name": "year",
              "type": "uint256"
            }
          ],
          "name": "getDaysInMonth",
          "outputs": [
            {
              "name": "",
              "type": "uint8"
            }
          ],
          "payable": false,
          "stateMutability": "pure",
          "type": "function"
        },
        {
          "constant": true,
          "inputs": [
            {
              "name": "timeStamp",
              "type": "uint256"
            }
          ],
          "name": "getSecond",
          "outputs": [
            {
              "name": "",
              "type": "uint8"
            }
          ],
          "payable": false,
          "stateMutability": "pure",
          "type": "function"
        },
        {
          "constant": true,
          "inputs": [
            {
              "name": "year",
              "type": "uint256"
            }
          ],
          "name": "getTotalLeapYearBefore",
          "outputs": [
            {
              "name": "",
              "type": "uint16"
            }
          ],
          "payable": false,
          "stateMutability": "pure",
          "type": "function"
        },
        {
          "constant": true,
          "inputs": [
            {
              "name": "timeStamp",
              "type": "uint256"
            }
          ],
          "name": "getYear",
          "outputs": [
            {
              "name": "",
              "type": "uint16"
            }
          ],
          "payable": false,
          "stateMutability": "pure",
          "type": "function"
        },
        {
          "constant": true,
          "inputs": [],
          "name": "START_YEAR",
          "outputs": [
            {
              "name": "",
              "type": "uint16"
            }
          ],
          "payable": false,
          "stateMutability": "view",
          "type": "function"
        },
        {
          "constant": true,
          "inputs": [
            {
              "name": "year",
              "type": "uint256"
            }
          ],
          "name": "isLeapYear",
          "outputs": [
            {
              "name": "",
              "type": "bool"
            }
          ],
          "payable": false,
          "stateMutability": "pure",
          "type": "function"
        },
        {
          "constant": true,
          "inputs": [],
          "name": "DAY_IN_SECOND",
          "outputs": [
            {
              "name": "",
              "type": "uint256"
            }
          ],
          "payable": false,
          "stateMutability": "view",
          "type": "function"
        },
        {
          "constant": true,
          "inputs": [],
          "name": "LEAP_YEAR_IN_SECOND",
          "outputs": [
            {
              "name": "",
              "type": "uint256"
            }
          ],
          "payable": false,
          "stateMutability": "view",
          "type": "function"
        },
        {
          "constant": true,
          "inputs": [],
          "name": "HOUR_IN_SECOND",
          "outputs": [
            {
              "name": "",
              "type": "uint256"
            }
          ],
          "payable": false,
          "stateMutability": "view",
          "type": "function"
        },
        {
          "constant": true,
          "inputs": [],
          "name": "MINUTE_IN_SECOND",
          "outputs": [
            {
              "name": "",
              "type": "uint256"
            }
          ],
          "payable": false,
          "stateMutability": "view",
          "type": "function"
        },
        {
          "constant": true,
          "inputs": [
            {
              "name": "timeStamp",
              "type": "uint256"
            }
          ],
          "name": "getMinute",
          "outputs": [
            {
              "name": "",
              "type": "uint8"
            }
          ],
          "payable": false,
          "stateMutability": "pure",
          "type": "function"
        }
      ],
      "evm": {
        "bytecode": {
          "linkReferences": {},
          "object": "610599610030600b82828239805160001a6073146000811461002057610022565bfe5b5030600052607381538281f3fe73000000000000000000000000000000000000000030146080604052600436106100e65763ffffffff7c01000000000000000000000000000000000000000000000000000000006000350416630a37f14b81146100eb5780633e239e1a146101495780637e8bcedc1461017c57806389807474146101845780638aa001fc146101aa578063901200a1146101c757806392d66313146101fb578063b3b4cde114610218578063b8d16dbc14610220578063c235a7cf14610251578063d661a2dd14610259578063db87549b14610261578063ddb1299e14610269578063fa93f88314610271575b600080fd5b610137600480360360c081101561010157600080fd5b5061ffff8135169060ff602082013581169160408101358216916060820135811691608081013582169160a0909101351661028e565b60408051918252519081900360200190f35b6101666004803603602081101561015f57600080fd5b50356103c1565b6040805160ff9092168252519081900360200190f35b6101376103db565b6101666004803603604081101561019a57600080fd5b5060ff81351690602001356103e3565b610166600480360360208110156101c057600080fd5b5035610457565b6101e4600480360360208110156101dd57600080fd5b5035610461565b6040805161ffff9092168252519081900360200190f35b6101e46004803603602081101561021157600080fd5b503561047c565b6101e46104fe565b61023d6004803603602081101561023657600080fd5b5035610504565b604080519115158252519081900360200190f35b610137610528565b61013761052f565b610137610537565b61013761053d565b6101666004803603602081101561028757600080fd5b5035610542565b60ff818116838216603c0201848216610e1002016000198601919091166201518002016107b25b8761ffff168161ffff1610156102f7576102d28161ffff16610504565b156102e5576301e28500820191506102ef565b6301e13380820191505b6001016102b5565b6102ff61054d565b601f815261031061ffff8a16610504565b1561032157601d6020820152610329565b601c60208201525b601f60408201819052601e606083018190526080830182905260a0830181905260c0830182905260e0830182905261010083018190526101208301829052610140830152610160820152600091505b8760ff168261ffff1610156103b5578061ffff8316600c811061039757fe5b602002015160ff166201518002830192508180600101925050610378565b50509695505050505050565b60006018610e10835b048115156103d457fe5b0692915050565b6301e1338081565b60008260ff166002141561040f576103fa82610504565b156104075750601d610451565b50601c610451565b8260ff166004148061042457508260ff166006145b8061043257508260ff166009145b8061044057508260ff16600b145b1561044d5750601e610451565b50601f5b92915050565b6000603c826103d4565b60001901600060648204610190830460048404010392915050565b60006107b26301e133808304810190829061049690610461565b61049f83610461565b0361ffff1690506301e2850081026107b119828403016301e1338002015b848111156104f5576104d160018403610504565b156104e2576301e284ff19016104ea565b6301e1337f19015b6001830392506104bd565b50909392505050565b6107b281565b60006101908206158061045157506004820615801561045157505060649006151590565b6201518081565b6301e2850081565b610e1081565b603c81565b6000603c80836103ca565b61018060405190810160405280600c90602082028038833950919291505056fea165627a7a723058208096b4d97a0af13aa53b25edbc567a4d7176ef6141fcc3905162b1ee461d15690029",
          "opcodes": "PUSH2 0x599 PUSH2 0x30 PUSH1 0xB DUP3 DUP3 DUP3 CODECOPY DUP1 MLOAD PUSH1 0x0 BYTE PUSH1 0x73 EQ PUSH1 0x0 DUP2 EQ PUSH2 0x20 JUMPI PUSH2 0x22 JUMP JUMPDEST INVALID JUMPDEST POP ADDRESS PUSH1 0x0 MSTORE PUSH1 0x73 DUP2 MSTORE8 DUP3 DUP2 RETURN INVALID PUSH20 0x0 ADDRESS EQ PUSH1 0x80 PUSH1 0x40 MSTORE PUSH1 0x4 CALLDATASIZE LT PUSH2 0xE6 JUMPI PUSH4 0xFFFFFFFF PUSH29 0x100000000000000000000000000000000000000000000000000000000 PUSH1 0x0 CALLDATALOAD DIV AND PUSH4 0xA37F14B DUP2 EQ PUSH2 0xEB JUMPI DUP1 PUSH4 0x3E239E1A EQ PUSH2 0x149 JUMPI DUP1 PUSH4 0x7E8BCEDC EQ PUSH2 0x17C JUMPI DUP1 PUSH4 0x89807474 EQ PUSH2 0x184 JUMPI DUP1 PUSH4 0x8AA001FC EQ PUSH2 0x1AA JUMPI DUP1 PUSH4 0x901200A1 EQ PUSH2 0x1C7 JUMPI DUP1 PUSH4 0x92D66313 EQ PUSH2 0x1FB JUMPI DUP1 PUSH4 0xB3B4CDE1 EQ PUSH2 0x218 JUMPI DUP1 PUSH4 0xB8D16DBC EQ PUSH2 0x220 JUMPI DUP1 PUSH4 0xC235A7CF EQ PUSH2 0x251 JUMPI DUP1 PUSH4 0xD661A2DD EQ PUSH2 0x259 JUMPI DUP1 PUSH4 0xDB87549B EQ PUSH2 0x261 JUMPI DUP1 PUSH4 0xDDB1299E EQ PUSH2 0x269 JUMPI DUP1 PUSH4 0xFA93F883 EQ PUSH2 0x271 JUMPI JUMPDEST PUSH1 0x0 DUP1 REVERT JUMPDEST PUSH2 0x137 PUSH1 0x4 DUP1 CALLDATASIZE SUB PUSH1 0xC0 DUP2 LT ISZERO PUSH2 0x101 JUMPI PUSH1 0x0 DUP1 REVERT JUMPDEST POP PUSH2 0xFFFF DUP2 CALLDATALOAD AND SWAP1 PUSH1 0xFF PUSH1 0x20 DUP3 ADD CALLDATALOAD DUP2 AND SWAP2 PUSH1 0x40 DUP2 ADD CALLDATALOAD DUP3 AND SWAP2 PUSH1 0x60 DUP3 ADD CALLDATALOAD DUP2 AND SWAP2 PUSH1 0x80 DUP2 ADD CALLDATALOAD DUP3 AND SWAP2 PUSH1 0xA0 SWAP1 SWAP2 ADD CALLDATALOAD AND PUSH2 0x28E JUMP JUMPDEST PUSH1 0x40 DUP1 MLOAD SWAP2 DUP3 MSTORE MLOAD SWAP1 DUP2 SWAP1 SUB PUSH1 0x20 ADD SWAP1 RETURN JUMPDEST PUSH2 0x166 PUSH1 0x4 DUP1 CALLDATASIZE SUB PUSH1 0x20 DUP2 LT ISZERO PUSH2 0x15F JUMPI PUSH1 0x0 DUP1 REVERT JUMPDEST POP CALLDATALOAD PUSH2 0x3C1 JUMP JUMPDEST PUSH1 0x40 DUP1 MLOAD PUSH1 0xFF SWAP1 SWAP3 AND DUP3 MSTORE MLOAD SWAP1 DUP2 SWAP1 SUB PUSH1 0x20 ADD SWAP1 RETURN JUMPDEST PUSH2 0x137 PUSH2 0x3DB JUMP JUMPDEST PUSH2 0x166 PUSH1 0x4 DUP1 CALLDATASIZE SUB PUSH1 0x40 DUP2 LT ISZERO PUSH2 0x19A JUMPI PUSH1 0x0 DUP1 REVERT JUMPDEST POP PUSH1 0xFF DUP2 CALLDATALOAD AND SWAP1 PUSH1 0x20 ADD CALLDATALOAD PUSH2 0x3E3 JUMP JUMPDEST PUSH2 0x166 PUSH1 0x4 DUP1 CALLDATASIZE SUB PUSH1 0x20 DUP2 LT ISZERO PUSH2 0x1C0 JUMPI PUSH1 0x0 DUP1 REVERT JUMPDEST POP CALLDATALOAD PUSH2 0x457 JUMP JUMPDEST PUSH2 0x1E4 PUSH1 0x4 DUP1 CALLDATASIZE SUB PUSH1 0x20 DUP2 LT ISZERO PUSH2 0x1DD JUMPI PUSH1 0x0 DUP1 REVERT JUMPDEST POP CALLDATALOAD PUSH2 0x461 JUMP JUMPDEST PUSH1 0x40 DUP1 MLOAD PUSH2 0xFFFF SWAP1 SWAP3 AND DUP3 MSTORE MLOAD SWAP1 DUP2 SWAP1 SUB PUSH1 0x20 ADD SWAP1 RETURN JUMPDEST PUSH2 0x1E4 PUSH1 0x4 DUP1 CALLDATASIZE SUB PUSH1 0x20 DUP2 LT ISZERO PUSH2 0x211 JUMPI PUSH1 0x0 DUP1 REVERT JUMPDEST POP CALLDATALOAD PUSH2 0x47C JUMP JUMPDEST PUSH2 0x1E4 PUSH2 0x4FE JUMP JUMPDEST PUSH2 0x23D PUSH1 0x4 DUP1 CALLDATASIZE SUB PUSH1 0x20 DUP2 LT ISZERO PUSH2 0x236 JUMPI PUSH1 0x0 DUP1 REVERT JUMPDEST POP CALLDATALOAD PUSH2 0x504 JUMP JUMPDEST PUSH1 0x40 DUP1 MLOAD SWAP2 ISZERO ISZERO DUP3 MSTORE MLOAD SWAP1 DUP2 SWAP1 SUB PUSH1 0x20 ADD SWAP1 RETURN JUMPDEST PUSH2 0x137 PUSH2 0x528 JUMP JUMPDEST PUSH2 0x137 PUSH2 0x52F JUMP JUMPDEST PUSH2 0x137 PUSH2 0x537 JUMP JUMPDEST PUSH2 0x137 PUSH2 0x53D JUMP JUMPDEST PUSH2 0x166 PUSH1 0x4 DUP1 CALLDATASIZE SUB PUSH1 0x20 DUP2 LT ISZERO PUSH2 0x287 JUMPI PUSH1 0x0 DUP1 REVERT JUMPDEST POP CALLDATALOAD PUSH2 0x542 JUMP JUMPDEST PUSH1 0xFF DUP2 DUP2 AND DUP4 DUP3 AND PUSH1 0x3C MUL ADD DUP5 DUP3 AND PUSH2 0xE10 MUL ADD PUSH1 0x0 NOT DUP7 ADD SWAP2 SWAP1 SWAP2 AND PUSH3 0x15180 MUL ADD PUSH2 0x7B2 JUMPDEST DUP8 PUSH2 0xFFFF AND DUP2 PUSH2 0xFFFF AND LT ISZERO PUSH2 0x2F7 JUMPI PUSH2 0x2D2 DUP2 PUSH2 0xFFFF AND PUSH2 0x504 JUMP JUMPDEST ISZERO PUSH2 0x2E5 JUMPI PUSH4 0x1E28500 DUP3 ADD SWAP2 POP PUSH2 0x2EF JUMP JUMPDEST PUSH4 0x1E13380 DUP3 ADD SWAP2 POP JUMPDEST PUSH1 0x1 ADD PUSH2 0x2B5 JUMP JUMPDEST PUSH2 0x2FF PUSH2 0x54D JUMP JUMPDEST PUSH1 0x1F DUP2 MSTORE PUSH2 0x310 PUSH2 0xFFFF DUP11 AND PUSH2 0x504 JUMP JUMPDEST ISZERO PUSH2 0x321 JUMPI PUSH1 0x1D PUSH1 0x20 DUP3 ADD MSTORE PUSH2 0x329 JUMP JUMPDEST PUSH1 0x1C PUSH1 0x20 DUP3 ADD MSTORE JUMPDEST PUSH1 0x1F PUSH1 0x40 DUP3 ADD DUP2 SWAP1 MSTORE PUSH1 0x1E PUSH1 0x60 DUP4 ADD DUP2 SWAP1 MSTORE PUSH1 0x80 DUP4 ADD DUP3 SWAP1 MSTORE PUSH1 0xA0 DUP4 ADD DUP2 SWAP1 MSTORE PUSH1 0xC0 DUP4 ADD DUP3 SWAP1 MSTORE PUSH1 0xE0 DUP4 ADD DUP3 SWAP1 MSTORE PUSH2 0x100 DUP4 ADD DUP2 SWAP1 MSTORE PUSH2 0x120 DUP4 ADD DUP3 SWAP1 MSTORE PUSH2 0x140 DUP4 ADD MSTORE PUSH2 0x160 DUP3 ADD MSTORE PUSH1 0x0 SWAP2 POP JUMPDEST DUP8 PUSH1 0xFF AND DUP3 PUSH2 0xFFFF AND LT ISZERO PUSH2 0x3B5 JUMPI DUP1 PUSH2 0xFFFF DUP4 AND PUSH1 0xC DUP2 LT PUSH2 0x397 JUMPI INVALID JUMPDEST PUSH1 0x20 MUL ADD MLOAD PUSH1 0xFF AND PUSH3 0x15180 MUL DUP4 ADD SWAP3 POP DUP2 DUP1 PUSH1 0x1 ADD SWAP3 POP POP PUSH2 0x378 JUMP JUMPDEST POP POP SWAP7 SWAP6 POP POP POP POP POP POP JUMP JUMPDEST PUSH1 0x0 PUSH1 0x18 PUSH2 0xE10 DUP4 JUMPDEST DIV DUP2 ISZERO ISZERO PUSH2 0x3D4 JUMPI INVALID JUMPDEST MOD SWAP3 SWAP2 POP POP JUMP JUMPDEST PUSH4 0x1E13380 DUP2 JUMP JUMPDEST PUSH1 0x0 DUP3 PUSH1 0xFF AND PUSH1 0x2 EQ ISZERO PUSH2 0x40F JUMPI PUSH2 0x3FA DUP3 PUSH2 0x504 JUMP JUMPDEST ISZERO PUSH2 0x407 JUMPI POP PUSH1 0x1D PUSH2 0x451 JUMP JUMPDEST POP PUSH1 0x1C PUSH2 0x451 JUMP JUMPDEST DUP3 PUSH1 0xFF AND PUSH1 0x4 EQ DUP1 PUSH2 0x424 JUMPI POP DUP3 PUSH1 0xFF AND PUSH1 0x6 EQ JUMPDEST DUP1 PUSH2 0x432 JUMPI POP DUP3 PUSH1 0xFF AND PUSH1 0x9 EQ JUMPDEST DUP1 PUSH2 0x440 JUMPI POP DUP3 PUSH1 0xFF AND PUSH1 0xB EQ JUMPDEST ISZERO PUSH2 0x44D JUMPI POP PUSH1 0x1E PUSH2 0x451 JUMP JUMPDEST POP PUSH1 0x1F JUMPDEST SWAP3 SWAP2 POP POP JUMP JUMPDEST PUSH1 0x0 PUSH1 0x3C DUP3 PUSH2 0x3D4 JUMP JUMPDEST PUSH1 0x0 NOT ADD PUSH1 0x0 PUSH1 0x64 DUP3 DIV PUSH2 0x190 DUP4 DIV PUSH1 0x4 DUP5 DIV ADD SUB SWAP3 SWAP2 POP POP JUMP JUMPDEST PUSH1 0x0 PUSH2 0x7B2 PUSH4 0x1E13380 DUP4 DIV DUP2 ADD SWAP1 DUP3 SWAP1 PUSH2 0x496 SWAP1 PUSH2 0x461 JUMP JUMPDEST PUSH2 0x49F DUP4 PUSH2 0x461 JUMP JUMPDEST SUB PUSH2 0xFFFF AND SWAP1 POP PUSH4 0x1E28500 DUP2 MUL PUSH2 0x7B1 NOT DUP3 DUP5 SUB ADD PUSH4 0x1E13380 MUL ADD JUMPDEST DUP5 DUP2 GT ISZERO PUSH2 0x4F5 JUMPI PUSH2 0x4D1 PUSH1 0x1 DUP5 SUB PUSH2 0x504 JUMP JUMPDEST ISZERO PUSH2 0x4E2 JUMPI PUSH4 0x1E284FF NOT ADD PUSH2 0x4EA JUMP JUMPDEST PUSH4 0x1E1337F NOT ADD JUMPDEST PUSH1 0x1 DUP4 SUB SWAP3 POP PUSH2 0x4BD JUMP JUMPDEST POP SWAP1 SWAP4 SWAP3 POP POP POP JUMP JUMPDEST PUSH2 0x7B2 DUP2 JUMP JUMPDEST PUSH1 0x0 PUSH2 0x190 DUP3 MOD ISZERO DUP1 PUSH2 0x451 JUMPI POP PUSH1 0x4 DUP3 MOD ISZERO DUP1 ISZERO PUSH2 0x451 JUMPI POP POP PUSH1 0x64 SWAP1 MOD ISZERO ISZERO SWAP1 JUMP JUMPDEST PUSH3 0x15180 DUP2 JUMP JUMPDEST PUSH4 0x1E28500 DUP2 JUMP JUMPDEST PUSH2 0xE10 DUP2 JUMP JUMPDEST PUSH1 0x3C DUP2 JUMP JUMPDEST PUSH1 0x0 PUSH1 0x3C DUP1 DUP4 PUSH2 0x3CA JUMP JUMPDEST PUSH2 0x180 PUSH1 0x40 MLOAD SWAP1 DUP2 ADD PUSH1 0x40 MSTORE DUP1 PUSH1 0xC SWAP1 PUSH1 0x20 DUP3 MUL DUP1 CODESIZE DUP4 CODECOPY POP SWAP2 SWAP3 SWAP2 POP POP JUMP INVALID LOG1 PUSH6 0x627A7A723058 KECCAK256 DUP1 SWAP7 0xb4 0xd9 PUSH27 0xAF13AA53B25EDBC567A4D7176EF6141FCC3905162B1EE461D1569 STOP 0x29 "
        },
        "methodIdentifiers": {
          "DAY_IN_SECOND()": "c235a7cf",
          "HOUR_IN_SECOND()": "db87549b",
          "LEAP_YEAR_IN_SECOND()": "d661a2dd",
          "MINUTE_IN_SECOND()": "ddb1299e",
          "START_YEAR()": "b3b4cde1",
          "YEAR_IN_SECOND()": "7e8bcedc",
          "getDaysInMonth(uint8,uint256)": "89807474",
          "getHour(uint256)": "3e239e1a",
          "getMinute(uint256)": "fa93f883",
          "getSecond(uint256)": "8aa001fc",
          "getTotalLeapYearBefore(uint256)": "901200a1",
          "getYear(uint256)": "92d66313",
          "isLeapYear(uint256)": "b8d16dbc",
          "toTimeStamp(uint16,uint8,uint8,uint8,uint8,uint8)": "0a37f14b"
        }
      }
    }
  }
}