{
  "contracts/PrizeLinkedAccountVault.sol": {
    "PrizeLinkedAccountVault": {
      "abi": [
        {
          "constant": false,
          "inputs": [
            {
              "name": "owner",
              "type": "address"
            },
            {
              "name": "amount",
              "type": "uint256"
            }
          ],
          "name": "depositPrizedLinkAccount",
          "outputs": [
            {
              "name": "",
              "type": "bool"
            }
          ],
          "payable": false,
          "stateMutability": "nonpayable",
          "type": "function"
        },
        {
          "constant": false,
          "inputs": [
            {
              "name": "admin",
              "type": "address"
            },
            {
              "name": "tokenAddress",
              "type": "address"
            },
            {
              "name": "standardInterestRate",
              "type": "uint32"
            },
            {
              "name": "standardInterestRatePercentageBase",
              "type": "uint32"
            },
            {
              "name": "standardMaturityTerm",
              "type": "uint64"
            },
            {
              "name": "budget",
              "type": "uint256"
            },
            {
              "name": "tokenPerTicket",
              "type": "uint16"
            },
            {
              "name": "ticketValidityTargetBlock",
              "type": "uint16"
            },
            {
              "name": "totalTicketPerBatch",
              "type": "uint32"
            }
          ],
          "name": "initialize",
          "outputs": [],
          "payable": false,
          "stateMutability": "nonpayable",
          "type": "function"
        },
        {
          "constant": true,
          "inputs": [
            {
              "name": "owner",
              "type": "address"
            }
          ],
          "name": "getValidTicketIdFor",
          "outputs": [
            {
              "name": "",
              "type": "uint256[]"
            }
          ],
          "payable": false,
          "stateMutability": "view",
          "type": "function"
        },
        {
          "constant": true,
          "inputs": [
            {
              "name": "idx",
              "type": "uint256"
            }
          ],
          "name": "getTicketById",
          "outputs": [
            {
              "name": "",
              "type": "uint256"
            },
            {
              "name": "",
              "type": "address"
            },
            {
              "name": "",
              "type": "uint256"
            },
            {
              "name": "",
              "type": "uint256"
            },
            {
              "name": "",
              "type": "uint256"
            },
            {
              "name": "",
              "type": "uint8"
            }
          ],
          "payable": false,
          "stateMutability": "view",
          "type": "function"
        },
        {
          "constant": false,
          "inputs": [],
          "name": "getCurrentWinner",
          "outputs": [
            {
              "name": "",
              "type": "uint256"
            }
          ],
          "payable": false,
          "stateMutability": "nonpayable",
          "type": "function"
        },
        {
          "constant": true,
          "inputs": [],
          "name": "getCurrentTotalDeposit",
          "outputs": [
            {
              "name": "",
              "type": "uint256"
            }
          ],
          "payable": false,
          "stateMutability": "view",
          "type": "function"
        },
        {
          "constant": true,
          "inputs": [],
          "name": "getSavingSettings",
          "outputs": [
            {
              "name": "",
              "type": "uint64"
            },
            {
              "name": "",
              "type": "uint32"
            },
            {
              "name": "",
              "type": "uint32"
            },
            {
              "name": "",
              "type": "uint256"
            },
            {
              "name": "",
              "type": "uint256"
            },
            {
              "name": "",
              "type": "address"
            }
          ],
          "payable": false,
          "stateMutability": "view",
          "type": "function"
        },
        {
          "constant": true,
          "inputs": [
            {
              "name": "depositHash",
              "type": "bytes32"
            }
          ],
          "name": "getDeposit",
          "outputs": [
            {
              "name": "",
              "type": "uint256"
            },
            {
              "name": "",
              "type": "uint256"
            },
            {
              "name": "",
              "type": "address"
            },
            {
              "name": "",
              "type": "uint256"
            },
            {
              "name": "",
              "type": "uint256"
            }
          ],
          "payable": false,
          "stateMutability": "view",
          "type": "function"
        },
        {
          "constant": true,
          "inputs": [
            {
              "name": "owner",
              "type": "address"
            }
          ],
          "name": "getSavingAcountFor",
          "outputs": [
            {
              "name": "",
              "type": "uint256"
            },
            {
              "name": "",
              "type": "bytes32"
            },
            {
              "name": "",
              "type": "address"
            },
            {
              "name": "",
              "type": "uint32"
            },
            {
              "name": "",
              "type": "uint32"
            },
            {
              "name": "",
              "type": "uint256"
            },
            {
              "name": "",
              "type": "uint256"
            },
            {
              "name": "",
              "type": "uint256"
            },
            {
              "name": "",
              "type": "uint8"
            },
            {
              "name": "",
              "type": "bytes"
            }
          ],
          "payable": false,
          "stateMutability": "view",
          "type": "function"
        },
        {
          "constant": false,
          "inputs": [
            {
              "name": "drawDateTime",
              "type": "uint256"
            }
          ],
          "name": "prizeDraw",
          "outputs": [
            {
              "name": "",
              "type": "uint256"
            },
            {
              "name": "",
              "type": "address"
            },
            {
              "name": "",
              "type": "uint256"
            },
            {
              "name": "",
              "type": "uint256"
            },
            {
              "name": "",
              "type": "uint256"
            },
            {
              "name": "state",
              "type": "uint8"
            }
          ],
          "payable": false,
          "stateMutability": "nonpayable",
          "type": "function"
        },
        {
          "constant": true,
          "inputs": [],
          "name": "getSavingAcount",
          "outputs": [
            {
              "name": "",
              "type": "uint256"
            },
            {
              "name": "",
              "type": "bytes32"
            },
            {
              "name": "",
              "type": "address"
            },
            {
              "name": "",
              "type": "uint32"
            },
            {
              "name": "",
              "type": "uint32"
            },
            {
              "name": "",
              "type": "uint256"
            },
            {
              "name": "",
              "type": "uint256"
            },
            {
              "name": "",
              "type": "uint256"
            },
            {
              "name": "",
              "type": "uint8"
            },
            {
              "name": "",
              "type": "bytes"
            }
          ],
          "payable": false,
          "stateMutability": "view",
          "type": "function"
        },
        {
          "constant": false,
          "inputs": [
            {
              "name": "owner",
              "type": "address"
            },
            {
              "name": "amount",
              "type": "uint256"
            },
            {
              "name": "securityHash",
              "type": "bytes"
            }
          ],
          "name": "createPrizedLinkAccount",
          "outputs": [
            {
              "name": "",
              "type": "bool"
            }
          ],
          "payable": false,
          "stateMutability": "nonpayable",
          "type": "function"
        },
        {
          "constant": false,
          "inputs": [
            {
              "name": "referenceHash",
              "type": "bytes32"
            }
          ],
          "name": "createPrizedLinkTickets",
          "outputs": [
            {
              "name": "",
              "type": "bool"
            }
          ],
          "payable": false,
          "stateMutability": "nonpayable",
          "type": "function"
        },
        {
          "anonymous": false,
          "inputs": [
            {
              "indexed": false,
              "name": "winner",
              "type": "address"
            },
            {
              "indexed": false,
              "name": "ticket",
              "type": "uint256"
            },
            {
              "indexed": false,
              "name": "reward",
              "type": "uint256"
            }
          ],
          "name": "Winner",
          "type": "event"
        },
        {
          "anonymous": false,
          "inputs": [
            {
              "indexed": true,
              "name": "accountHash",
              "type": "bytes32"
            },
            {
              "indexed": true,
              "name": "owner",
              "type": "address"
            }
          ],
          "name": "CreateAccount",
          "type": "event"
        },
        {
          "anonymous": false,
          "inputs": [
            {
              "indexed": true,
              "name": "depositHash",
              "type": "bytes32"
            },
            {
              "indexed": true,
              "name": "owner",
              "type": "address"
            },
            {
              "indexed": false,
              "name": "deposit",
              "type": "uint256"
            }
          ],
          "name": "CreateDeposit",
          "type": "event"
        },
        {
          "anonymous": false,
          "inputs": [
            {
              "indexed": true,
              "name": "owner",
              "type": "address"
            },
            {
              "indexed": false,
              "name": "amount",
              "type": "uint256"
            }
          ],
          "name": "WithdrawSavingAccount",
          "type": "event"
        }
      ],
      "evm": {
        "bytecode": {
          "linkReferences": {
            "contracts/libs/DateTimeModel.sol": {
              "DateTimeModel": [
                {
                  "length": 20,
                  "start": 7701
                },
                {
                  "length": 20,
                  "start": 8044
                }
              ]
            },
            "contracts/libs/GluwaAccountModel.sol": {
              "GluwaAccountModel": [
                {
                  "length": 20,
                  "start": 3199
                },
                {
                  "length": 20,
                  "start": 6213
                },
                {
                  "length": 20,
                  "start": 6402
                }
              ]
            }
          },
          "object": "60806040526126c7806100136000396000f3fe6080604052600436106100c45763ffffffff7c0100000000000000000000000000000000000000000000000000000000600035041663033d086d81146100c95780630af4ad1b146101165780631112f0f71461019f57806327b7aabc14610222578063329bfc33146102a55780633a990db0146102cc578063529298b8146102e15780637a86983f1461034557806382133e38146103a257806383f9f4d2146104c45780639964476f146104ee578063cf123e3014610503578063efb41d6b14610595575b600080fd5b3480156100d557600080fd5b50610102600480360360408110156100ec57600080fd5b50600160a060020a0381351690602001356105bf565b604080519115158252519081900360200190f35b34801561012257600080fd5b5061019d600480360361012081101561013a57600080fd5b50600160a060020a03813581169160208101359091169063ffffffff6040820135811691606081013582169167ffffffffffffffff6080830135169160a08101359161ffff60c083013581169260e081013590911691610100909101351661061d565b005b3480156101ab57600080fd5b506101d2600480360360208110156101c257600080fd5b5035600160a060020a03166107b7565b60408051602080825283518183015283519192839290830191858101910280838360005b8381101561020e5781810151838201526020016101f6565b505050509050019250505060405180910390f35b34801561022e57600080fd5b5061024c6004803603602081101561024557600080fd5b5035610818565b6040518087815260200186600160a060020a0316600160a060020a0316815260200185815260200184815260200183815260200182600481111561028c57fe5b60ff168152602001965050505050505060405180910390f35b3480156102b157600080fd5b506102ba61083e565b60408051918252519081900360200190f35b3480156102d857600080fd5b506102ba610845565b3480156102ed57600080fd5b506102f661084b565b6040805167ffffffffffffffff909716875263ffffffff9586166020880152939094168584015260608501919091526080840152600160a060020a0390911660a0830152519081900360c00190f35b34801561035157600080fd5b5061036f6004803603602081101561036857600080fd5b503561088f565b604080519586526020860194909452600160a060020a039092168484015260608401526080830152519081900360a00190f35b3480156103ae57600080fd5b506103d5600480360360208110156103c557600080fd5b5035600160a060020a031661089d565b604051808b81526020018a815260200189600160a060020a0316600160a060020a031681526020018863ffffffff1663ffffffff1681526020018763ffffffff1663ffffffff16815260200186815260200185815260200184815260200183600481111561043f57fe5b60ff16815260200180602001828103825283818151815260200191508051906020019080838360005b83811015610480578181015183820152602001610468565b50505050905090810190601f1680156104ad5780820380516001836020036101000a031916815260200191505b509b50505050505050505050505060405180910390f35b3480156104d057600080fd5b5061024c600480360360208110156104e757600080fd5b50356108d7565b3480156104fa57600080fd5b506103d5610929565b34801561050f57600080fd5b506101026004803603606081101561052657600080fd5b600160a060020a038235169160208101359181019060608101604082013564010000000081111561055657600080fd5b82018360208201111561056857600080fd5b8035906020019184600183028401116401000000008311171561058a57600080fd5b509092509050610969565b3480156105a157600080fd5b50610102600480360360208110156105b857600080fd5b50356109f5565b6000806105cc8484610a2b565b6048549091506106039061ffff610100820416906105f790869060ff16600a0a63ffffffff610dae16565b9063ffffffff610dae16565b6000918252604e6020526040909120555060015b92915050565b600054610100900460ff16806106365750610636610df7565b80610644575060005460ff16155b15156106c0576040805160e560020a62461bcd02815260206004820152602e60248201527f436f6e747261637420696e7374616e63652068617320616c726561647920626560448201527f656e20696e697469616c697a6564000000000000000000000000000000000000606482015290519081900360840190fd5b600054610100900460ff161580156106eb576000805460ff1961ff0019909116610100171660011790555b6106f88989898989610dfd565b610799604060009054906101000a9004600160a060020a0316600160a060020a031663313ce5676040518163ffffffff167c010000000000000000000000000000000000000000000000000000000002815260040160206040518083038186803b15801561076557600080fd5b505afa158015610779573d6000803e3d6000fd5b505050506040513d602081101561078f57600080fd5b5051858585610fbd565b80156107ab576000805461ff00191690555b50505050505050505050565b60606107c282611121565b80548060200260200160405190810160405280929190818152602001828054801561080c57602002820191906000526020600020905b8154815260200190600101908083116107f8575b50505050509050919050565b60008060008060008061082a8761113b565b949c939b5091995097509550909350915050565b604a545b90565b603f5490565b60335460345460355460405468010000000000000000840467ffffffffffffffff169463ffffffff80861695640100000000900416939291600160a060020a031690565b506000908190819081908190565b600080600080600080600080600060606108b68b61117f565b99509950995099509950995099509950995099509193959799509193959799565b60008060008060008060006108eb886112d5565b80546001820154600283015460038401546004850154600590950154939d600160a060020a039093169c50909a50985091965060ff16945092505050565b6000806000806000806000806000606061094961094461147b565b61117f565b995099509950995099509950995099509950995090919293949596979899565b6000806109ae86864287878080601f01602080910402602001604051908101604052809392919081815260200183838082843760009201919091525061147f92505050565b6048549092506109da915061ffff610100820416906105f790889060ff16600a0a63ffffffff610dae16565b6000918252604e602052604090912055506001949350505050565b600081815260426020526040812060028101546003820154610a2191600160a060020a03169085611cb5565b5060019392505050565b600160a060020a038216600090815260416020526040812060038101548210610ac4576040805160e560020a62461bcd02815260206004820152602560248201527f476c757761536176696e674163636f756e743a204163636f756e74206e6f742060448201527f666f756e64000000000000000000000000000000000000000000000000000000606482015290519081900360840190fd5b6040805481517f23b872dd000000000000000000000000000000000000000000000000000000008152600160a060020a03878116600483015230602483015260448201879052925192909116916323b872dd916064808201926020929091908290030181600087803b158015610b3957600080fd5b505af1158015610b4d573d6000803e3d6000fd5b505050506040513d6020811015610b6357600080fd5b50511515610c07576040805160e560020a62461bcd02815260206004820152604860248201527f476c757761536176696e674163636f756e743a20556e61626c6520746f20736560448201527f6e6420616d6f756e7420746f206465706f73697420746f206120536176696e6760648201527f204163636f756e74000000000000000000000000000000000000000000000000608482015290519081900360a40190fd5b6004808201805485019055603f8054850190558154604080517ffd96809e0000000000000000000000000000000000000000000000000000000081529283019190915260248201859052306044830152600160a060020a03861660648301525160009173__$8ad4cadfbfab443c6ed09b45690dcdfb0d$__9163fd96809e91608480820192602092909190829003018186803b158015610ca657600080fd5b505af4158015610cba573d6000803e3d6000fd5b505050506040513d6020811015610cd057600080fd5b50516040805160a081018252603d54815284546020808301918252600160a060020a038a81168486019081524260608601908152608086018c815260008981526042909552969093209451855592516001850155915160028401805473ffffffffffffffffffffffffffffffffffffffff1916919093161790915551600382015590516004909101559050610d66603b826121ac565b604080518581529051600160a060020a0387169183917f2e2791fe9306933f4d6468aab16a0195b3ab2b342887b2e1be4aa35f568322979181900360200190a3949350505050565b6000610df083836040805190810160405280601a81526020017f536166654d6174683a206469766973696f6e206279207a65726f0000000000008152506121dc565b9392505050565b303b1590565b600054610100900460ff1680610e165750610e16610df7565b80610e24575060005460ff16155b1515610ea0576040805160e560020a62461bcd02815260206004820152602e60248201527f436f6e747261637420696e7374616e63652068617320616c726561647920626560448201527f656e20696e697469616c697a6564000000000000000000000000000000000000606482015290519081900360840190fd5b600054610100900460ff16158015610ecb576000805460ff1961ff0019909116610100171660011790555b6040805473ffffffffffffffffffffffffffffffffffffffff1916600160a060020a0388161781556033805463ffffffff191663ffffffff8881169190911767ffffffff00000000191664010000000091881691909102176fffffffffffffffff000000000000000019166801000000000000000067ffffffffffffffff871602179055603483905580516060808201835260018083526020808401829052600093850184905260388290556039829055603a8490558451928301855281835282018190529201819052603c829055603d91909155603e558015610fb5576000805461ff00191690555b505050505050565b600054610100900460ff1680610fd65750610fd6610df7565b80610fe4575060005460ff16155b1515611060576040805160e560020a62461bcd02815260206004820152602e60248201527f436f6e747261637420696e7374616e63652068617320616c726561647920626560448201527f656e20696e697469616c697a6564000000000000000000000000000000000000606482015290519081900360840190fd5b600054610100900460ff1615801561108b576000805460ff1961ff0019909116610100171660011790555b6048805460ff191660ff87161762ffff00191661010061ffff878116919091029190911764ffff0000001916630100000091861691909102179055604b805463ffffffff191663ffffffff8416179055604080516060810182526001808252602082018190526000919092018190526045829055604691909155604755801561111a576000805461ff00191690555b5050505050565b600160a060020a0316600090815260506020526040902090565b6000908152604c60205260409020805460018201546002830154600384015460048501546005909501549395600160a060020a03909316949193909260ff90911690565b600160a060020a0380821660009081526041602090815260408083208054600180830154600280850154600386015460048701546005880154600689015460078a0180548c51601f6000199b831615610100029b909b01909116979097049889018d90048d0287018d01909b528786529b9c8d9c8d9c8d9c8d9c8d9c8d9c8d9c8d9c60609c949b939a91999885169863ffffffff7401000000000000000000000000000000000000000087048116997801000000000000000000000000000000000000000000000000909704169794969295909460ff9091169383918301828280156112ac5780601f10611281576101008083540402835291602001916112ac565b820191906000526020600020905b81548152906001019060200180831161128f57829003601f168201915b505050505090509a509a509a509a509a509a509a509a509a509a50509193959799509193959799565b60008181526051602090815260408220828052604c9091527f551595b9d59b165bf9ad72f0480c55576c5dae704d350b901d5e76a5a3a448d3547f551595b9d59b165bf9ad72f0480c55576c5dae704d350b901d5e76a5a3a448cf80547f551595b9d59b165bf9ad72f0480c55576c5dae704d350b901d5e76a5a3a448d0549192859261136b9290600160a060020a0316612285565b82546049805460009081526052602090815260408083208684529091529020919091558690559050808060015b8554811015611438576000604c600088848154811015156113b557fe5b6000918252602080832090910154835282019290925260400181206004810154815460018301549294506113f192600160a060020a0316612285565b9050848111156114035780945061140f565b8381101561140f578093505b905460495460009081526052602090815260408083209483529390529190912055600101611398565b50600061144582846122b6565b604a8190556049546000908152605260209081526040808320938352928152828220548252604c90522098975050505050505050565b3390565b600080600160a060020a0386161515611508576040805160e560020a62461bcd02815260206004820152603860248201527f476c757761536176696e674163636f756e743a20536176696e67206f776e657260448201527f2061646472657373206d75737420626520646566696e65640000000000000000606482015290519081900360840190fd5b600160a060020a038616600090815260416020526040902060030154156115c5576040805160e560020a62461bcd02815260206004820152604760248201527f476c757761536176696e674163636f756e743a2045616368206164647265737360448201527f2073686f756c642068617665206f6e6c79203120536176696e67206163636f7560648201527f6e74206f6e6c7900000000000000000000000000000000000000000000000000608482015290519081900360a40190fd5b6043836040518082805190602001908083835b602083106115f75780518252601f1990920191602091820191016115d8565b51815160209384036101000a600019018019909216911617905292019485525060405193849003019092205460ff161591506116a59050576040805160e560020a62461bcd02815260206004820152603160248201527f476c757761536176696e674163636f756e743a204964656e746974792068617360448201527f6820697320616c72656164792075736564000000000000000000000000000000606482015290519081900360840190fd5b6040805481517f23b872dd000000000000000000000000000000000000000000000000000000008152600160a060020a03898116600483015230602483015260448201899052925192909116916323b872dd916064808201926020929091908290030181600087803b15801561171a57600080fd5b505af115801561172e573d6000803e3d6000fd5b505050506040513d602081101561174457600080fd5b505115156117e8576040805160e560020a62461bcd02815260206004820152604860248201527f476c757761536176696e674163636f756e743a20556e61626c6520746f20736560448201527f6e6420616d6f756e7420746f206465706f73697420746f206120536176696e6760648201527f204163636f756e74000000000000000000000000000000000000000000000000608482015290519081900360a40190fd5b604080517f84cefce000000000000000000000000000000000000000000000000000000000815260048101869052306024820152600160a060020a0388166044820152905160009173__$8ad4cadfbfab443c6ed09b45690dcdfb0d$__916384cefce091606480820192602092909190829003018186803b15801561186c57600080fd5b505af4158015611880573d6000803e3d6000fd5b505050506040513d602081101561189657600080fd5b5051603954604080517ffd96809e000000000000000000000000000000000000000000000000000000008152600481019290925260248201899052306044830152600160a060020a038a1660648301525191925060009173__$8ad4cadfbfab443c6ed09b45690dcdfb0d$__9163fd96809e916084808301926020929190829003018186803b15801561192857600080fd5b505af415801561193c573d6000803e3d6000fd5b505050506040513d602081101561195257600080fd5b50516040805161014081018252603954815260208101859052600160a060020a038b169181019190915260335463ffffffff808216606084015264010000000090910416608082015260a0810188905260c08101899052600060e08201529091506101008101600181526020908101879052600160a060020a038a81166000908152604183526040908190208451815592840151600180850191909155908401516002840180546060870151608088015173ffffffffffffffffffffffffffffffffffffffff19909216939095169290921777ffffffff000000000000000000000000000000000000000019167401000000000000000000000000000000000000000063ffffffff95861602177fffffffff00000000ffffffffffffffffffffffffffffffffffffffffffffffff16780100000000000000000000000000000000000000000000000094909216939093021790915560a0830151600383015560c083015160048084019190915560e084015160058401556101008401516006840180549193909260ff19909216918490811115611aeb57fe5b02179055506101208201518051611b0c9160078401916020909101906125ce565b50506040805160a081018252603d5481526039546020808301918252600160a060020a038d8116848601908152606085018d8152608086018f815260008a815260428652889020965187559451600180880191909155915160028701805473ffffffffffffffffffffffffffffffffffffffff191691909416179092559051600385015591516004909301929092559151885192935060439289928291908401908083835b60208310611bd05780518252601f199092019160209182019101611bb1565b51815160209384036101000a60001901801990921691161790529201948552506040519384900301909220805460ff19169315159390931790925550611c1990506037836121ac565b611c2a603b8263ffffffff6121ac16565b603f805488019055604051600160a060020a0389169083907fae420988b408fa1c16c342c73f56ece9307da09db1ac6b36fc8d9ff61acaa9a290600090a3604080518881529051600160a060020a038a169183917f2e2791fe9306933f4d6468aab16a0195b3ab2b342887b2e1be4aa35f568322979181900360200190a39097909650945050505050565b6000818152604d6020908152604080832054604e909252822054606092919003908111611d52576040805160e560020a62461bcd02815260206004820152603f60248201527f476c7577615072697a65447261773a206e6f206d6f7265207469636b6574732060448201527f63616e206265206372656174656420666f722074686973206465706f73697400606482015290519081900360840190fd5b604b5463ffffffff1680821015611d665750805b611d6e61264c565b611d778661231e565b90506000600290506010826060015160ff161080611daf5750816060015160ff166010148015611daf5750603b826080015160ff1611155b15611db8575060015b6020808301518351604080517f8980747400000000000000000000000000000000000000000000000000000000815260ff909316600484015261ffff90911660248301525160009273__$05084330c9bf728fdd5577c5afe72a471f$__9263898074749260448083019392829003018186803b158015611e3757600080fd5b505af4158015611e4b573d6000803e3d6000fd5b505050506040513d6020811015611e6157600080fd5b5051604084015190915060ff808316918401161115611ec657826020015160ff16600c141515611e9e5760208301805160010160ff169052611eb1565b825161ffff600191820116845260208401525b604083018051830182900360ff169052611ed4565b604083018051830160ff1690525b60116060840181905260006080850181905260a08501819052845160208087015160408089015181517f0a37f14b00000000000000000000000000000000000000000000000000000000815261ffff909516600486015260ff9283166024860152909116604484015260648301949094526084820183905260a482018390529251919273__$05084330c9bf728fdd5577c5afe72a471f$__92630a37f14b9260c4808201939291829003018186803b158015611f8f57600080fd5b505af4158015611fa3573d6000803e3d6000fd5b505050506040513d6020811015611fb957600080fd5b5051905060005b8563ffffffff168163ffffffff16101561219e576048546040805160e0810182526046548152600160a060020a038e1660208201529081018c905260608101849052630100000090910461ffff164301608082018190529060a081016001815260209081018c90526046546000908152604c825260409081902083518155918301516001808401805473ffffffffffffffffffffffffffffffffffffffff1916600160a060020a039093169290921790915590830151600283015560608301516003830155608083015160048084019190915560a08401516005840180549193909260ff199092169184908111156120b457fe5b021790555060c09190910151600690910155604654600160a060020a038d1660009081526050602052604090206120f09163ffffffff61244c16565b60465460008481526051602052604090206121109163ffffffff61244c16565b60465460008b8152604d602052604090206121309163ffffffff61244c16565b604080516c01000000000000000000000000600160a060020a038f1602602080830191909152603482018e905260548201869052607480830185905283518084039091018152609490920190925280519101206121959060449063ffffffff6121ac16565b50600101611fc0565b505050505050509392505050565b60028201805460009081526020849052604090209190915580546001908101909155600390910180549091019055565b60008181841161226d5760405160e560020a62461bcd0281526004018080602001828103825283818151815260200191508051906020019080838360005b8381101561223257818101518382015260200161221a565b50505050905090810190601f16801561225f5780820380516001836020036101000a031916815260200191505b509250505060405180910390fd5b506000838581151561227b57fe5b0495945050505050565b60006c01000000000000000000000000600160a060020a038316026122a984612464565b8540181890509392505050565b60408051426020808301829052434083850152606083019190915244608083015260a0820184905260c08083018690528351808403909101815260e09092019092528051910120600090819084906001828603019081151561231457fe5b0601949350505050565b61232661264c565b61232f8261246c565b61ffff16815260006123426107b26124ee565b82516123519061ffff166124ee565b0361ffff1690506000816301e2850002826107b285600001510361ffff16036301e13380020190506000806000600190505b600c60ff8216116123d1576123a081876000015161ffff16612509565b91508160ff16620151800292508684840111156123c55760ff811660208701526123d1565b92820192600101612383565b5060015b60ff8083169082161161240e578684620151800111156123fd5760ff8116604087015261240e565b6201518093909301926001016123d5565b6124178761257b565b60ff16606087015261242887612595565b60ff166080870152612439876125a0565b60ff1660a0870152509395945050505050565b81546001810183556000928352602090922090910155565b602052600090565b60006107b26301e1338083048101908290612486906124ee565b61248f836124ee565b0361ffff1690506301e2850081026107b119828403016301e1338002015b848111156124e5576124c1600184036125aa565b156124d2576301e284ff19016124da565b6301e1337f19015b6001830392506124ad565b50909392505050565b60001901600060648204610190830460048404010392915050565b60008260ff166002141561253557612520826125aa565b1561252d5750601d610617565b50601c610617565b8260ff166004148061254a57508260ff166006145b8061255857508260ff166009145b8061256657508260ff16600b145b156125735750601e610617565b50601f610617565b60006018610e10835b0481151561258e57fe5b0692915050565b6000603c8083612584565b6000603c8261258e565b60006101908206158061061757506004820615801561061757505060649006151590565b828054600181600116156101000203166002900490600052602060002090601f016020900481019282601f1061260f57805160ff191683800117855561263c565b8280016001018555821561263c579182015b8281111561263c578251825591602001919060010190612621565b50612648929150612681565b5090565b6040805160c081018252600080825260208201819052918101829052606081018290526080810182905260a081019190915290565b61084291905b80821115612648576000815560010161268756fea165627a7a723058203c5940f33032289c659e8c15d46005fb33a28d045ed36170eff6277f9c54d69b0029",
          "opcodes": "PUSH1 0x80 PUSH1 0x40 MSTORE PUSH2 0x26C7 DUP1 PUSH2 0x13 PUSH1 0x0 CODECOPY PUSH1 0x0 RETURN INVALID PUSH1 0x80 PUSH1 0x40 MSTORE PUSH1 0x4 CALLDATASIZE LT PUSH2 0xC4 JUMPI PUSH4 0xFFFFFFFF PUSH29 0x100000000000000000000000000000000000000000000000000000000 PUSH1 0x0 CALLDATALOAD DIV AND PUSH4 0x33D086D DUP2 EQ PUSH2 0xC9 JUMPI DUP1 PUSH4 0xAF4AD1B EQ PUSH2 0x116 JUMPI DUP1 PUSH4 0x1112F0F7 EQ PUSH2 0x19F JUMPI DUP1 PUSH4 0x27B7AABC EQ PUSH2 0x222 JUMPI DUP1 PUSH4 0x329BFC33 EQ PUSH2 0x2A5 JUMPI DUP1 PUSH4 0x3A990DB0 EQ PUSH2 0x2CC JUMPI DUP1 PUSH4 0x529298B8 EQ PUSH2 0x2E1 JUMPI DUP1 PUSH4 0x7A86983F EQ PUSH2 0x345 JUMPI DUP1 PUSH4 0x82133E38 EQ PUSH2 0x3A2 JUMPI DUP1 PUSH4 0x83F9F4D2 EQ PUSH2 0x4C4 JUMPI DUP1 PUSH4 0x9964476F EQ PUSH2 0x4EE JUMPI DUP1 PUSH4 0xCF123E30 EQ PUSH2 0x503 JUMPI DUP1 PUSH4 0xEFB41D6B EQ PUSH2 0x595 JUMPI JUMPDEST PUSH1 0x0 DUP1 REVERT JUMPDEST CALLVALUE DUP1 ISZERO PUSH2 0xD5 JUMPI PUSH1 0x0 DUP1 REVERT JUMPDEST POP PUSH2 0x102 PUSH1 0x4 DUP1 CALLDATASIZE SUB PUSH1 0x40 DUP2 LT ISZERO PUSH2 0xEC JUMPI PUSH1 0x0 DUP1 REVERT JUMPDEST POP PUSH1 0x1 PUSH1 0xA0 PUSH1 0x2 EXP SUB DUP2 CALLDATALOAD AND SWAP1 PUSH1 0x20 ADD CALLDATALOAD PUSH2 0x5BF JUMP JUMPDEST PUSH1 0x40 DUP1 MLOAD SWAP2 ISZERO ISZERO DUP3 MSTORE MLOAD SWAP1 DUP2 SWAP1 SUB PUSH1 0x20 ADD SWAP1 RETURN JUMPDEST CALLVALUE DUP1 ISZERO PUSH2 0x122 JUMPI PUSH1 0x0 DUP1 REVERT JUMPDEST POP PUSH2 0x19D PUSH1 0x4 DUP1 CALLDATASIZE SUB PUSH2 0x120 DUP2 LT ISZERO PUSH2 0x13A JUMPI PUSH1 0x0 DUP1 REVERT JUMPDEST POP PUSH1 0x1 PUSH1 0xA0 PUSH1 0x2 EXP SUB DUP2 CALLDATALOAD DUP2 AND SWAP2 PUSH1 0x20 DUP2 ADD CALLDATALOAD SWAP1 SWAP2 AND SWAP1 PUSH4 0xFFFFFFFF PUSH1 0x40 DUP3 ADD CALLDATALOAD DUP2 AND SWAP2 PUSH1 0x60 DUP2 ADD CALLDATALOAD DUP3 AND SWAP2 PUSH8 0xFFFFFFFFFFFFFFFF PUSH1 0x80 DUP4 ADD CALLDATALOAD AND SWAP2 PUSH1 0xA0 DUP2 ADD CALLDATALOAD SWAP2 PUSH2 0xFFFF PUSH1 0xC0 DUP4 ADD CALLDATALOAD DUP2 AND SWAP3 PUSH1 0xE0 DUP2 ADD CALLDATALOAD SWAP1 SWAP2 AND SWAP2 PUSH2 0x100 SWAP1 SWAP2 ADD CALLDATALOAD AND PUSH2 0x61D JUMP JUMPDEST STOP JUMPDEST CALLVALUE DUP1 ISZERO PUSH2 0x1AB JUMPI PUSH1 0x0 DUP1 REVERT JUMPDEST POP PUSH2 0x1D2 PUSH1 0x4 DUP1 CALLDATASIZE SUB PUSH1 0x20 DUP2 LT ISZERO PUSH2 0x1C2 JUMPI PUSH1 0x0 DUP1 REVERT JUMPDEST POP CALLDATALOAD PUSH1 0x1 PUSH1 0xA0 PUSH1 0x2 EXP SUB AND PUSH2 0x7B7 JUMP JUMPDEST PUSH1 0x40 DUP1 MLOAD PUSH1 0x20 DUP1 DUP3 MSTORE DUP4 MLOAD DUP2 DUP4 ADD MSTORE DUP4 MLOAD SWAP2 SWAP3 DUP4 SWAP3 SWAP1 DUP4 ADD SWAP2 DUP6 DUP2 ADD SWAP2 MUL DUP1 DUP4 DUP4 PUSH1 0x0 JUMPDEST DUP4 DUP2 LT ISZERO PUSH2 0x20E JUMPI DUP2 DUP2 ADD MLOAD DUP4 DUP3 ADD MSTORE PUSH1 0x20 ADD PUSH2 0x1F6 JUMP JUMPDEST POP POP POP POP SWAP1 POP ADD SWAP3 POP POP POP PUSH1 0x40 MLOAD DUP1 SWAP2 SUB SWAP1 RETURN JUMPDEST CALLVALUE DUP1 ISZERO PUSH2 0x22E JUMPI PUSH1 0x0 DUP1 REVERT JUMPDEST POP PUSH2 0x24C PUSH1 0x4 DUP1 CALLDATASIZE SUB PUSH1 0x20 DUP2 LT ISZERO PUSH2 0x245 JUMPI PUSH1 0x0 DUP1 REVERT JUMPDEST POP CALLDATALOAD PUSH2 0x818 JUMP JUMPDEST PUSH1 0x40 MLOAD DUP1 DUP8 DUP2 MSTORE PUSH1 0x20 ADD DUP7 PUSH1 0x1 PUSH1 0xA0 PUSH1 0x2 EXP SUB AND PUSH1 0x1 PUSH1 0xA0 PUSH1 0x2 EXP SUB AND DUP2 MSTORE PUSH1 0x20 ADD DUP6 DUP2 MSTORE PUSH1 0x20 ADD DUP5 DUP2 MSTORE PUSH1 0x20 ADD DUP4 DUP2 MSTORE PUSH1 0x20 ADD DUP3 PUSH1 0x4 DUP2 GT ISZERO PUSH2 0x28C JUMPI INVALID JUMPDEST PUSH1 0xFF AND DUP2 MSTORE PUSH1 0x20 ADD SWAP7 POP POP POP POP POP POP POP PUSH1 0x40 MLOAD DUP1 SWAP2 SUB SWAP1 RETURN JUMPDEST CALLVALUE DUP1 ISZERO PUSH2 0x2B1 JUMPI PUSH1 0x0 DUP1 REVERT JUMPDEST POP PUSH2 0x2BA PUSH2 0x83E JUMP JUMPDEST PUSH1 0x40 DUP1 MLOAD SWAP2 DUP3 MSTORE MLOAD SWAP1 DUP2 SWAP1 SUB PUSH1 0x20 ADD SWAP1 RETURN JUMPDEST CALLVALUE DUP1 ISZERO PUSH2 0x2D8 JUMPI PUSH1 0x0 DUP1 REVERT JUMPDEST POP PUSH2 0x2BA PUSH2 0x845 JUMP JUMPDEST CALLVALUE DUP1 ISZERO PUSH2 0x2ED JUMPI PUSH1 0x0 DUP1 REVERT JUMPDEST POP PUSH2 0x2F6 PUSH2 0x84B JUMP JUMPDEST PUSH1 0x40 DUP1 MLOAD PUSH8 0xFFFFFFFFFFFFFFFF SWAP1 SWAP8 AND DUP8 MSTORE PUSH4 0xFFFFFFFF SWAP6 DUP7 AND PUSH1 0x20 DUP9 ADD MSTORE SWAP4 SWAP1 SWAP5 AND DUP6 DUP5 ADD MSTORE PUSH1 0x60 DUP6 ADD SWAP2 SWAP1 SWAP2 MSTORE PUSH1 0x80 DUP5 ADD MSTORE PUSH1 0x1 PUSH1 0xA0 PUSH1 0x2 EXP SUB SWAP1 SWAP2 AND PUSH1 0xA0 DUP4 ADD MSTORE MLOAD SWAP1 DUP2 SWAP1 SUB PUSH1 0xC0 ADD SWAP1 RETURN JUMPDEST CALLVALUE DUP1 ISZERO PUSH2 0x351 JUMPI PUSH1 0x0 DUP1 REVERT JUMPDEST POP PUSH2 0x36F PUSH1 0x4 DUP1 CALLDATASIZE SUB PUSH1 0x20 DUP2 LT ISZERO PUSH2 0x368 JUMPI PUSH1 0x0 DUP1 REVERT JUMPDEST POP CALLDATALOAD PUSH2 0x88F JUMP JUMPDEST PUSH1 0x40 DUP1 MLOAD SWAP6 DUP7 MSTORE PUSH1 0x20 DUP7 ADD SWAP5 SWAP1 SWAP5 MSTORE PUSH1 0x1 PUSH1 0xA0 PUSH1 0x2 EXP SUB SWAP1 SWAP3 AND DUP5 DUP5 ADD MSTORE PUSH1 0x60 DUP5 ADD MSTORE PUSH1 0x80 DUP4 ADD MSTORE MLOAD SWAP1 DUP2 SWAP1 SUB PUSH1 0xA0 ADD SWAP1 RETURN JUMPDEST CALLVALUE DUP1 ISZERO PUSH2 0x3AE JUMPI PUSH1 0x0 DUP1 REVERT JUMPDEST POP PUSH2 0x3D5 PUSH1 0x4 DUP1 CALLDATASIZE SUB PUSH1 0x20 DUP2 LT ISZERO PUSH2 0x3C5 JUMPI PUSH1 0x0 DUP1 REVERT JUMPDEST POP CALLDATALOAD PUSH1 0x1 PUSH1 0xA0 PUSH1 0x2 EXP SUB AND PUSH2 0x89D JUMP JUMPDEST PUSH1 0x40 MLOAD DUP1 DUP12 DUP2 MSTORE PUSH1 0x20 ADD DUP11 DUP2 MSTORE PUSH1 0x20 ADD DUP10 PUSH1 0x1 PUSH1 0xA0 PUSH1 0x2 EXP SUB AND PUSH1 0x1 PUSH1 0xA0 PUSH1 0x2 EXP SUB AND DUP2 MSTORE PUSH1 0x20 ADD DUP9 PUSH4 0xFFFFFFFF AND PUSH4 0xFFFFFFFF AND DUP2 MSTORE PUSH1 0x20 ADD DUP8 PUSH4 0xFFFFFFFF AND PUSH4 0xFFFFFFFF AND DUP2 MSTORE PUSH1 0x20 ADD DUP7 DUP2 MSTORE PUSH1 0x20 ADD DUP6 DUP2 MSTORE PUSH1 0x20 ADD DUP5 DUP2 MSTORE PUSH1 0x20 ADD DUP4 PUSH1 0x4 DUP2 GT ISZERO PUSH2 0x43F JUMPI INVALID JUMPDEST PUSH1 0xFF AND DUP2 MSTORE PUSH1 0x20 ADD DUP1 PUSH1 0x20 ADD DUP3 DUP2 SUB DUP3 MSTORE DUP4 DUP2 DUP2 MLOAD DUP2 MSTORE PUSH1 0x20 ADD SWAP2 POP DUP1 MLOAD SWAP1 PUSH1 0x20 ADD SWAP1 DUP1 DUP4 DUP4 PUSH1 0x0 JUMPDEST DUP4 DUP2 LT ISZERO PUSH2 0x480 JUMPI DUP2 DUP2 ADD MLOAD DUP4 DUP3 ADD MSTORE PUSH1 0x20 ADD PUSH2 0x468 JUMP JUMPDEST POP POP POP POP SWAP1 POP SWAP1 DUP2 ADD SWAP1 PUSH1 0x1F AND DUP1 ISZERO PUSH2 0x4AD JUMPI DUP1 DUP3 SUB DUP1 MLOAD PUSH1 0x1 DUP4 PUSH1 0x20 SUB PUSH2 0x100 EXP SUB NOT AND DUP2 MSTORE PUSH1 0x20 ADD SWAP2 POP JUMPDEST POP SWAP12 POP POP POP POP POP POP POP POP POP POP POP POP PUSH1 0x40 MLOAD DUP1 SWAP2 SUB SWAP1 RETURN JUMPDEST CALLVALUE DUP1 ISZERO PUSH2 0x4D0 JUMPI PUSH1 0x0 DUP1 REVERT JUMPDEST POP PUSH2 0x24C PUSH1 0x4 DUP1 CALLDATASIZE SUB PUSH1 0x20 DUP2 LT ISZERO PUSH2 0x4E7 JUMPI PUSH1 0x0 DUP1 REVERT JUMPDEST POP CALLDATALOAD PUSH2 0x8D7 JUMP JUMPDEST CALLVALUE DUP1 ISZERO PUSH2 0x4FA JUMPI PUSH1 0x0 DUP1 REVERT JUMPDEST POP PUSH2 0x3D5 PUSH2 0x929 JUMP JUMPDEST CALLVALUE DUP1 ISZERO PUSH2 0x50F JUMPI PUSH1 0x0 DUP1 REVERT JUMPDEST POP PUSH2 0x102 PUSH1 0x4 DUP1 CALLDATASIZE SUB PUSH1 0x60 DUP2 LT ISZERO PUSH2 0x526 JUMPI PUSH1 0x0 DUP1 REVERT JUMPDEST PUSH1 0x1 PUSH1 0xA0 PUSH1 0x2 EXP SUB DUP3 CALLDATALOAD AND SWAP2 PUSH1 0x20 DUP2 ADD CALLDATALOAD SWAP2 DUP2 ADD SWAP1 PUSH1 0x60 DUP2 ADD PUSH1 0x40 DUP3 ADD CALLDATALOAD PUSH5 0x100000000 DUP2 GT ISZERO PUSH2 0x556 JUMPI PUSH1 0x0 DUP1 REVERT JUMPDEST DUP3 ADD DUP4 PUSH1 0x20 DUP3 ADD GT ISZERO PUSH2 0x568 JUMPI PUSH1 0x0 DUP1 REVERT JUMPDEST DUP1 CALLDATALOAD SWAP1 PUSH1 0x20 ADD SWAP2 DUP5 PUSH1 0x1 DUP4 MUL DUP5 ADD GT PUSH5 0x100000000 DUP4 GT OR ISZERO PUSH2 0x58A JUMPI PUSH1 0x0 DUP1 REVERT JUMPDEST POP SWAP1 SWAP3 POP SWAP1 POP PUSH2 0x969 JUMP JUMPDEST CALLVALUE DUP1 ISZERO PUSH2 0x5A1 JUMPI PUSH1 0x0 DUP1 REVERT JUMPDEST POP PUSH2 0x102 PUSH1 0x4 DUP1 CALLDATASIZE SUB PUSH1 0x20 DUP2 LT ISZERO PUSH2 0x5B8 JUMPI PUSH1 0x0 DUP1 REVERT JUMPDEST POP CALLDATALOAD PUSH2 0x9F5 JUMP JUMPDEST PUSH1 0x0 DUP1 PUSH2 0x5CC DUP5 DUP5 PUSH2 0xA2B JUMP JUMPDEST PUSH1 0x48 SLOAD SWAP1 SWAP2 POP PUSH2 0x603 SWAP1 PUSH2 0xFFFF PUSH2 0x100 DUP3 DIV AND SWAP1 PUSH2 0x5F7 SWAP1 DUP7 SWAP1 PUSH1 0xFF AND PUSH1 0xA EXP PUSH4 0xFFFFFFFF PUSH2 0xDAE AND JUMP JUMPDEST SWAP1 PUSH4 0xFFFFFFFF PUSH2 0xDAE AND JUMP JUMPDEST PUSH1 0x0 SWAP2 DUP3 MSTORE PUSH1 0x4E PUSH1 0x20 MSTORE PUSH1 0x40 SWAP1 SWAP2 KECCAK256 SSTORE POP PUSH1 0x1 JUMPDEST SWAP3 SWAP2 POP POP JUMP JUMPDEST PUSH1 0x0 SLOAD PUSH2 0x100 SWAP1 DIV PUSH1 0xFF AND DUP1 PUSH2 0x636 JUMPI POP PUSH2 0x636 PUSH2 0xDF7 JUMP JUMPDEST DUP1 PUSH2 0x644 JUMPI POP PUSH1 0x0 SLOAD PUSH1 0xFF AND ISZERO JUMPDEST ISZERO ISZERO PUSH2 0x6C0 JUMPI PUSH1 0x40 DUP1 MLOAD PUSH1 0xE5 PUSH1 0x2 EXP PUSH3 0x461BCD MUL DUP2 MSTORE PUSH1 0x20 PUSH1 0x4 DUP3 ADD MSTORE PUSH1 0x2E PUSH1 0x24 DUP3 ADD MSTORE PUSH32 0x436F6E747261637420696E7374616E63652068617320616C7265616479206265 PUSH1 0x44 DUP3 ADD MSTORE PUSH32 0x656E20696E697469616C697A6564000000000000000000000000000000000000 PUSH1 0x64 DUP3 ADD MSTORE SWAP1 MLOAD SWAP1 DUP2 SWAP1 SUB PUSH1 0x84 ADD SWAP1 REVERT JUMPDEST PUSH1 0x0 SLOAD PUSH2 0x100 SWAP1 DIV PUSH1 0xFF AND ISZERO DUP1 ISZERO PUSH2 0x6EB JUMPI PUSH1 0x0 DUP1 SLOAD PUSH1 0xFF NOT PUSH2 0xFF00 NOT SWAP1 SWAP2 AND PUSH2 0x100 OR AND PUSH1 0x1 OR SWAP1 SSTORE JUMPDEST PUSH2 0x6F8 DUP10 DUP10 DUP10 DUP10 DUP10 PUSH2 0xDFD JUMP JUMPDEST PUSH2 0x799 PUSH1 0x40 PUSH1 0x0 SWAP1 SLOAD SWAP1 PUSH2 0x100 EXP SWAP1 DIV PUSH1 0x1 PUSH1 0xA0 PUSH1 0x2 EXP SUB AND PUSH1 0x1 PUSH1 0xA0 PUSH1 0x2 EXP SUB AND PUSH4 0x313CE567 PUSH1 0x40 MLOAD DUP2 PUSH4 0xFFFFFFFF AND PUSH29 0x100000000000000000000000000000000000000000000000000000000 MUL DUP2 MSTORE PUSH1 0x4 ADD PUSH1 0x20 PUSH1 0x40 MLOAD DUP1 DUP4 SUB DUP2 DUP7 DUP1 EXTCODESIZE ISZERO DUP1 ISZERO PUSH2 0x765 JUMPI PUSH1 0x0 DUP1 REVERT JUMPDEST POP GAS STATICCALL ISZERO DUP1 ISZERO PUSH2 0x779 JUMPI RETURNDATASIZE PUSH1 0x0 DUP1 RETURNDATACOPY RETURNDATASIZE PUSH1 0x0 REVERT JUMPDEST POP POP POP POP PUSH1 0x40 MLOAD RETURNDATASIZE PUSH1 0x20 DUP2 LT ISZERO PUSH2 0x78F JUMPI PUSH1 0x0 DUP1 REVERT JUMPDEST POP MLOAD DUP6 DUP6 DUP6 PUSH2 0xFBD JUMP JUMPDEST DUP1 ISZERO PUSH2 0x7AB JUMPI PUSH1 0x0 DUP1 SLOAD PUSH2 0xFF00 NOT AND SWAP1 SSTORE JUMPDEST POP POP POP POP POP POP POP POP POP POP JUMP JUMPDEST PUSH1 0x60 PUSH2 0x7C2 DUP3 PUSH2 0x1121 JUMP JUMPDEST DUP1 SLOAD DUP1 PUSH1 0x20 MUL PUSH1 0x20 ADD PUSH1 0x40 MLOAD SWAP1 DUP2 ADD PUSH1 0x40 MSTORE DUP1 SWAP3 SWAP2 SWAP1 DUP2 DUP2 MSTORE PUSH1 0x20 ADD DUP3 DUP1 SLOAD DUP1 ISZERO PUSH2 0x80C JUMPI PUSH1 0x20 MUL DUP3 ADD SWAP2 SWAP1 PUSH1 0x0 MSTORE PUSH1 0x20 PUSH1 0x0 KECCAK256 SWAP1 JUMPDEST DUP2 SLOAD DUP2 MSTORE PUSH1 0x20 ADD SWAP1 PUSH1 0x1 ADD SWAP1 DUP1 DUP4 GT PUSH2 0x7F8 JUMPI JUMPDEST POP POP POP POP POP SWAP1 POP SWAP2 SWAP1 POP JUMP JUMPDEST PUSH1 0x0 DUP1 PUSH1 0x0 DUP1 PUSH1 0x0 DUP1 PUSH2 0x82A DUP8 PUSH2 0x113B JUMP JUMPDEST SWAP5 SWAP13 SWAP4 SWAP12 POP SWAP2 SWAP10 POP SWAP8 POP SWAP6 POP SWAP1 SWAP4 POP SWAP2 POP POP JUMP JUMPDEST PUSH1 0x4A SLOAD JUMPDEST SWAP1 JUMP JUMPDEST PUSH1 0x3F SLOAD SWAP1 JUMP JUMPDEST PUSH1 0x33 SLOAD PUSH1 0x34 SLOAD PUSH1 0x35 SLOAD PUSH1 0x40 SLOAD PUSH9 0x10000000000000000 DUP5 DIV PUSH8 0xFFFFFFFFFFFFFFFF AND SWAP5 PUSH4 0xFFFFFFFF DUP1 DUP7 AND SWAP6 PUSH5 0x100000000 SWAP1 DIV AND SWAP4 SWAP3 SWAP2 PUSH1 0x1 PUSH1 0xA0 PUSH1 0x2 EXP SUB AND SWAP1 JUMP JUMPDEST POP PUSH1 0x0 SWAP1 DUP2 SWAP1 DUP2 SWAP1 DUP2 SWAP1 DUP2 SWAP1 JUMP JUMPDEST PUSH1 0x0 DUP1 PUSH1 0x0 DUP1 PUSH1 0x0 DUP1 PUSH1 0x0 DUP1 PUSH1 0x0 PUSH1 0x60 PUSH2 0x8B6 DUP12 PUSH2 0x117F JUMP JUMPDEST SWAP10 POP SWAP10 POP SWAP10 POP SWAP10 POP SWAP10 POP SWAP10 POP SWAP10 POP SWAP10 POP SWAP10 POP SWAP10 POP SWAP2 SWAP4 SWAP6 SWAP8 SWAP10 POP SWAP2 SWAP4 SWAP6 SWAP8 SWAP10 JUMP JUMPDEST PUSH1 0x0 DUP1 PUSH1 0x0 DUP1 PUSH1 0x0 DUP1 PUSH1 0x0 PUSH2 0x8EB DUP9 PUSH2 0x12D5 JUMP JUMPDEST DUP1 SLOAD PUSH1 0x1 DUP3 ADD SLOAD PUSH1 0x2 DUP4 ADD SLOAD PUSH1 0x3 DUP5 ADD SLOAD PUSH1 0x4 DUP6 ADD SLOAD PUSH1 0x5 SWAP1 SWAP6 ADD SLOAD SWAP4 SWAP14 PUSH1 0x1 PUSH1 0xA0 PUSH1 0x2 EXP SUB SWAP1 SWAP4 AND SWAP13 POP SWAP1 SWAP11 POP SWAP9 POP SWAP2 SWAP7 POP PUSH1 0xFF AND SWAP5 POP SWAP3 POP POP POP JUMP JUMPDEST PUSH1 0x0 DUP1 PUSH1 0x0 DUP1 PUSH1 0x0 DUP1 PUSH1 0x0 DUP1 PUSH1 0x0 PUSH1 0x60 PUSH2 0x949 PUSH2 0x944 PUSH2 0x147B JUMP JUMPDEST PUSH2 0x117F JUMP JUMPDEST SWAP10 POP SWAP10 POP SWAP10 POP SWAP10 POP SWAP10 POP SWAP10 POP SWAP10 POP SWAP10 POP SWAP10 POP SWAP10 POP SWAP1 SWAP2 SWAP3 SWAP4 SWAP5 SWAP6 SWAP7 SWAP8 SWAP9 SWAP10 JUMP JUMPDEST PUSH1 0x0 DUP1 PUSH2 0x9AE DUP7 DUP7 TIMESTAMP DUP8 DUP8 DUP1 DUP1 PUSH1 0x1F ADD PUSH1 0x20 DUP1 SWAP2 DIV MUL PUSH1 0x20 ADD PUSH1 0x40 MLOAD SWAP1 DUP2 ADD PUSH1 0x40 MSTORE DUP1 SWAP4 SWAP3 SWAP2 SWAP1 DUP2 DUP2 MSTORE PUSH1 0x20 ADD DUP4 DUP4 DUP1 DUP3 DUP5 CALLDATACOPY PUSH1 0x0 SWAP3 ADD SWAP2 SWAP1 SWAP2 MSTORE POP PUSH2 0x147F SWAP3 POP POP POP JUMP JUMPDEST PUSH1 0x48 SLOAD SWAP1 SWAP3 POP PUSH2 0x9DA SWAP2 POP PUSH2 0xFFFF PUSH2 0x100 DUP3 DIV AND SWAP1 PUSH2 0x5F7 SWAP1 DUP9 SWAP1 PUSH1 0xFF AND PUSH1 0xA EXP PUSH4 0xFFFFFFFF PUSH2 0xDAE AND JUMP JUMPDEST PUSH1 0x0 SWAP2 DUP3 MSTORE PUSH1 0x4E PUSH1 0x20 MSTORE PUSH1 0x40 SWAP1 SWAP2 KECCAK256 SSTORE POP PUSH1 0x1 SWAP5 SWAP4 POP POP POP POP JUMP JUMPDEST PUSH1 0x0 DUP2 DUP2 MSTORE PUSH1 0x42 PUSH1 0x20 MSTORE PUSH1 0x40 DUP2 KECCAK256 PUSH1 0x2 DUP2 ADD SLOAD PUSH1 0x3 DUP3 ADD SLOAD PUSH2 0xA21 SWAP2 PUSH1 0x1 PUSH1 0xA0 PUSH1 0x2 EXP SUB AND SWAP1 DUP6 PUSH2 0x1CB5 JUMP JUMPDEST POP PUSH1 0x1 SWAP4 SWAP3 POP POP POP JUMP JUMPDEST PUSH1 0x1 PUSH1 0xA0 PUSH1 0x2 EXP SUB DUP3 AND PUSH1 0x0 SWAP1 DUP2 MSTORE PUSH1 0x41 PUSH1 0x20 MSTORE PUSH1 0x40 DUP2 KECCAK256 PUSH1 0x3 DUP2 ADD SLOAD DUP3 LT PUSH2 0xAC4 JUMPI PUSH1 0x40 DUP1 MLOAD PUSH1 0xE5 PUSH1 0x2 EXP PUSH3 0x461BCD MUL DUP2 MSTORE PUSH1 0x20 PUSH1 0x4 DUP3 ADD MSTORE PUSH1 0x25 PUSH1 0x24 DUP3 ADD MSTORE PUSH32 0x476C757761536176696E674163636F756E743A204163636F756E74206E6F7420 PUSH1 0x44 DUP3 ADD MSTORE PUSH32 0x666F756E64000000000000000000000000000000000000000000000000000000 PUSH1 0x64 DUP3 ADD MSTORE SWAP1 MLOAD SWAP1 DUP2 SWAP1 SUB PUSH1 0x84 ADD SWAP1 REVERT JUMPDEST PUSH1 0x40 DUP1 SLOAD DUP2 MLOAD PUSH32 0x23B872DD00000000000000000000000000000000000000000000000000000000 DUP2 MSTORE PUSH1 0x1 PUSH1 0xA0 PUSH1 0x2 EXP SUB DUP8 DUP2 AND PUSH1 0x4 DUP4 ADD MSTORE ADDRESS PUSH1 0x24 DUP4 ADD MSTORE PUSH1 0x44 DUP3 ADD DUP8 SWAP1 MSTORE SWAP3 MLOAD SWAP3 SWAP1 SWAP2 AND SWAP2 PUSH4 0x23B872DD SWAP2 PUSH1 0x64 DUP1 DUP3 ADD SWAP3 PUSH1 0x20 SWAP3 SWAP1 SWAP2 SWAP1 DUP3 SWAP1 SUB ADD DUP2 PUSH1 0x0 DUP8 DUP1 EXTCODESIZE ISZERO DUP1 ISZERO PUSH2 0xB39 JUMPI PUSH1 0x0 DUP1 REVERT JUMPDEST POP GAS CALL ISZERO DUP1 ISZERO PUSH2 0xB4D JUMPI RETURNDATASIZE PUSH1 0x0 DUP1 RETURNDATACOPY RETURNDATASIZE PUSH1 0x0 REVERT JUMPDEST POP POP POP POP PUSH1 0x40 MLOAD RETURNDATASIZE PUSH1 0x20 DUP2 LT ISZERO PUSH2 0xB63 JUMPI PUSH1 0x0 DUP1 REVERT JUMPDEST POP MLOAD ISZERO ISZERO PUSH2 0xC07 JUMPI PUSH1 0x40 DUP1 MLOAD PUSH1 0xE5 PUSH1 0x2 EXP PUSH3 0x461BCD MUL DUP2 MSTORE PUSH1 0x20 PUSH1 0x4 DUP3 ADD MSTORE PUSH1 0x48 PUSH1 0x24 DUP3 ADD MSTORE PUSH32 0x476C757761536176696E674163636F756E743A20556E61626C6520746F207365 PUSH1 0x44 DUP3 ADD MSTORE PUSH32 0x6E6420616D6F756E7420746F206465706F73697420746F206120536176696E67 PUSH1 0x64 DUP3 ADD MSTORE PUSH32 0x204163636F756E74000000000000000000000000000000000000000000000000 PUSH1 0x84 DUP3 ADD MSTORE SWAP1 MLOAD SWAP1 DUP2 SWAP1 SUB PUSH1 0xA4 ADD SWAP1 REVERT JUMPDEST PUSH1 0x4 DUP1 DUP3 ADD DUP1 SLOAD DUP6 ADD SWAP1 SSTORE PUSH1 0x3F DUP1 SLOAD DUP6 ADD SWAP1 SSTORE DUP2 SLOAD PUSH1 0x40 DUP1 MLOAD PUSH32 0xFD96809E00000000000000000000000000000000000000000000000000000000 DUP2 MSTORE SWAP3 DUP4 ADD SWAP2 SWAP1 SWAP2 MSTORE PUSH1 0x24 DUP3 ADD DUP6 SWAP1 MSTORE ADDRESS PUSH1 0x44 DUP4 ADD MSTORE PUSH1 0x1 PUSH1 0xA0 PUSH1 0x2 EXP SUB DUP7 AND PUSH1 0x64 DUP4 ADD MSTORE MLOAD PUSH1 0x0 SWAP2 PUSH20 0x0 SWAP2 PUSH4 0xFD96809E SWAP2 PUSH1 0x84 DUP1 DUP3 ADD SWAP3 PUSH1 0x20 SWAP3 SWAP1 SWAP2 SWAP1 DUP3 SWAP1 SUB ADD DUP2 DUP7 DUP1 EXTCODESIZE ISZERO DUP1 ISZERO PUSH2 0xCA6 JUMPI PUSH1 0x0 DUP1 REVERT JUMPDEST POP GAS DELEGATECALL ISZERO DUP1 ISZERO PUSH2 0xCBA JUMPI RETURNDATASIZE PUSH1 0x0 DUP1 RETURNDATACOPY RETURNDATASIZE PUSH1 0x0 REVERT JUMPDEST POP POP POP POP PUSH1 0x40 MLOAD RETURNDATASIZE PUSH1 0x20 DUP2 LT ISZERO PUSH2 0xCD0 JUMPI PUSH1 0x0 DUP1 REVERT JUMPDEST POP MLOAD PUSH1 0x40 DUP1 MLOAD PUSH1 0xA0 DUP2 ADD DUP3 MSTORE PUSH1 0x3D SLOAD DUP2 MSTORE DUP5 SLOAD PUSH1 0x20 DUP1 DUP4 ADD SWAP2 DUP3 MSTORE PUSH1 0x1 PUSH1 0xA0 PUSH1 0x2 EXP SUB DUP11 DUP2 AND DUP5 DUP7 ADD SWAP1 DUP2 MSTORE TIMESTAMP PUSH1 0x60 DUP7 ADD SWAP1 DUP2 MSTORE PUSH1 0x80 DUP7 ADD DUP13 DUP2 MSTORE PUSH1 0x0 DUP10 DUP2 MSTORE PUSH1 0x42 SWAP1 SWAP6 MSTORE SWAP7 SWAP1 SWAP4 KECCAK256 SWAP5 MLOAD DUP6 SSTORE SWAP3 MLOAD PUSH1 0x1 DUP6 ADD SSTORE SWAP2 MLOAD PUSH1 0x2 DUP5 ADD DUP1 SLOAD PUSH20 0xFFFFFFFFFFFFFFFFFFFFFFFFFFFFFFFFFFFFFFFF NOT AND SWAP2 SWAP1 SWAP4 AND OR SWAP1 SWAP2 SSTORE MLOAD PUSH1 0x3 DUP3 ADD SSTORE SWAP1 MLOAD PUSH1 0x4 SWAP1 SWAP2 ADD SSTORE SWAP1 POP PUSH2 0xD66 PUSH1 0x3B DUP3 PUSH2 0x21AC JUMP JUMPDEST PUSH1 0x40 DUP1 MLOAD DUP6 DUP2 MSTORE SWAP1 MLOAD PUSH1 0x1 PUSH1 0xA0 PUSH1 0x2 EXP SUB DUP8 AND SWAP2 DUP4 SWAP2 PUSH32 0x2E2791FE9306933F4D6468AAB16A0195B3AB2B342887B2E1BE4AA35F56832297 SWAP2 DUP2 SWAP1 SUB PUSH1 0x20 ADD SWAP1 LOG3 SWAP5 SWAP4 POP POP POP POP JUMP JUMPDEST PUSH1 0x0 PUSH2 0xDF0 DUP4 DUP4 PUSH1 0x40 DUP1 MLOAD SWAP1 DUP2 ADD PUSH1 0x40 MSTORE DUP1 PUSH1 0x1A DUP2 MSTORE PUSH1 0x20 ADD PUSH32 0x536166654D6174683A206469766973696F6E206279207A65726F000000000000 DUP2 MSTORE POP PUSH2 0x21DC JUMP JUMPDEST SWAP4 SWAP3 POP POP POP JUMP JUMPDEST ADDRESS EXTCODESIZE ISZERO SWAP1 JUMP JUMPDEST PUSH1 0x0 SLOAD PUSH2 0x100 SWAP1 DIV PUSH1 0xFF AND DUP1 PUSH2 0xE16 JUMPI POP PUSH2 0xE16 PUSH2 0xDF7 JUMP JUMPDEST DUP1 PUSH2 0xE24 JUMPI POP PUSH1 0x0 SLOAD PUSH1 0xFF AND ISZERO JUMPDEST ISZERO ISZERO PUSH2 0xEA0 JUMPI PUSH1 0x40 DUP1 MLOAD PUSH1 0xE5 PUSH1 0x2 EXP PUSH3 0x461BCD MUL DUP2 MSTORE PUSH1 0x20 PUSH1 0x4 DUP3 ADD MSTORE PUSH1 0x2E PUSH1 0x24 DUP3 ADD MSTORE PUSH32 0x436F6E747261637420696E7374616E63652068617320616C7265616479206265 PUSH1 0x44 DUP3 ADD MSTORE PUSH32 0x656E20696E697469616C697A6564000000000000000000000000000000000000 PUSH1 0x64 DUP3 ADD MSTORE SWAP1 MLOAD SWAP1 DUP2 SWAP1 SUB PUSH1 0x84 ADD SWAP1 REVERT JUMPDEST PUSH1 0x0 SLOAD PUSH2 0x100 SWAP1 DIV PUSH1 0xFF AND ISZERO DUP1 ISZERO PUSH2 0xECB JUMPI PUSH1 0x0 DUP1 SLOAD PUSH1 0xFF NOT PUSH2 0xFF00 NOT SWAP1 SWAP2 AND PUSH2 0x100 OR AND PUSH1 0x1 OR SWAP1 SSTORE JUMPDEST PUSH1 0x40 DUP1 SLOAD PUSH20 0xFFFFFFFFFFFFFFFFFFFFFFFFFFFFFFFFFFFFFFFF NOT AND PUSH1 0x1 PUSH1 0xA0 PUSH1 0x2 EXP SUB DUP9 AND OR DUP2 SSTORE PUSH1 0x33 DUP1 SLOAD PUSH4 0xFFFFFFFF NOT AND PUSH4 0xFFFFFFFF DUP9 DUP2 AND SWAP2 SWAP1 SWAP2 OR PUSH8 0xFFFFFFFF00000000 NOT AND PUSH5 0x100000000 SWAP2 DUP9 AND SWAP2 SWAP1 SWAP2 MUL OR PUSH16 0xFFFFFFFFFFFFFFFF0000000000000000 NOT AND PUSH9 0x10000000000000000 PUSH8 0xFFFFFFFFFFFFFFFF DUP8 AND MUL OR SWAP1 SSTORE PUSH1 0x34 DUP4 SWAP1 SSTORE DUP1 MLOAD PUSH1 0x60 DUP1 DUP3 ADD DUP4 MSTORE PUSH1 0x1 DUP1 DUP4 MSTORE PUSH1 0x20 DUP1 DUP5 ADD DUP3 SWAP1 MSTORE PUSH1 0x0 SWAP4 DUP6 ADD DUP5 SWAP1 MSTORE PUSH1 0x38 DUP3 SWAP1 SSTORE PUSH1 0x39 DUP3 SWAP1 SSTORE PUSH1 0x3A DUP5 SWAP1 SSTORE DUP5 MLOAD SWAP3 DUP4 ADD DUP6 MSTORE DUP2 DUP4 MSTORE DUP3 ADD DUP2 SWAP1 MSTORE SWAP3 ADD DUP2 SWAP1 MSTORE PUSH1 0x3C DUP3 SWAP1 SSTORE PUSH1 0x3D SWAP2 SWAP1 SWAP2 SSTORE PUSH1 0x3E SSTORE DUP1 ISZERO PUSH2 0xFB5 JUMPI PUSH1 0x0 DUP1 SLOAD PUSH2 0xFF00 NOT AND SWAP1 SSTORE JUMPDEST POP POP POP POP POP POP JUMP JUMPDEST PUSH1 0x0 SLOAD PUSH2 0x100 SWAP1 DIV PUSH1 0xFF AND DUP1 PUSH2 0xFD6 JUMPI POP PUSH2 0xFD6 PUSH2 0xDF7 JUMP JUMPDEST DUP1 PUSH2 0xFE4 JUMPI POP PUSH1 0x0 SLOAD PUSH1 0xFF AND ISZERO JUMPDEST ISZERO ISZERO PUSH2 0x1060 JUMPI PUSH1 0x40 DUP1 MLOAD PUSH1 0xE5 PUSH1 0x2 EXP PUSH3 0x461BCD MUL DUP2 MSTORE PUSH1 0x20 PUSH1 0x4 DUP3 ADD MSTORE PUSH1 0x2E PUSH1 0x24 DUP3 ADD MSTORE PUSH32 0x436F6E747261637420696E7374616E63652068617320616C7265616479206265 PUSH1 0x44 DUP3 ADD MSTORE PUSH32 0x656E20696E697469616C697A6564000000000000000000000000000000000000 PUSH1 0x64 DUP3 ADD MSTORE SWAP1 MLOAD SWAP1 DUP2 SWAP1 SUB PUSH1 0x84 ADD SWAP1 REVERT JUMPDEST PUSH1 0x0 SLOAD PUSH2 0x100 SWAP1 DIV PUSH1 0xFF AND ISZERO DUP1 ISZERO PUSH2 0x108B JUMPI PUSH1 0x0 DUP1 SLOAD PUSH1 0xFF NOT PUSH2 0xFF00 NOT SWAP1 SWAP2 AND PUSH2 0x100 OR AND PUSH1 0x1 OR SWAP1 SSTORE JUMPDEST PUSH1 0x48 DUP1 SLOAD PUSH1 0xFF NOT AND PUSH1 0xFF DUP8 AND OR PUSH3 0xFFFF00 NOT AND PUSH2 0x100 PUSH2 0xFFFF DUP8 DUP2 AND SWAP2 SWAP1 SWAP2 MUL SWAP2 SWAP1 SWAP2 OR PUSH5 0xFFFF000000 NOT AND PUSH4 0x1000000 SWAP2 DUP7 AND SWAP2 SWAP1 SWAP2 MUL OR SWAP1 SSTORE PUSH1 0x4B DUP1 SLOAD PUSH4 0xFFFFFFFF NOT AND PUSH4 0xFFFFFFFF DUP5 AND OR SWAP1 SSTORE PUSH1 0x40 DUP1 MLOAD PUSH1 0x60 DUP2 ADD DUP3 MSTORE PUSH1 0x1 DUP1 DUP3 MSTORE PUSH1 0x20 DUP3 ADD DUP2 SWAP1 MSTORE PUSH1 0x0 SWAP2 SWAP1 SWAP3 ADD DUP2 SWAP1 MSTORE PUSH1 0x45 DUP3 SWAP1 SSTORE PUSH1 0x46 SWAP2 SWAP1 SWAP2 SSTORE PUSH1 0x47 SSTORE DUP1 ISZERO PUSH2 0x111A JUMPI PUSH1 0x0 DUP1 SLOAD PUSH2 0xFF00 NOT AND SWAP1 SSTORE JUMPDEST POP POP POP POP POP JUMP JUMPDEST PUSH1 0x1 PUSH1 0xA0 PUSH1 0x2 EXP SUB AND PUSH1 0x0 SWAP1 DUP2 MSTORE PUSH1 0x50 PUSH1 0x20 MSTORE PUSH1 0x40 SWAP1 KECCAK256 SWAP1 JUMP JUMPDEST PUSH1 0x0 SWAP1 DUP2 MSTORE PUSH1 0x4C PUSH1 0x20 MSTORE PUSH1 0x40 SWAP1 KECCAK256 DUP1 SLOAD PUSH1 0x1 DUP3 ADD SLOAD PUSH1 0x2 DUP4 ADD SLOAD PUSH1 0x3 DUP5 ADD SLOAD PUSH1 0x4 DUP6 ADD SLOAD PUSH1 0x5 SWAP1 SWAP6 ADD SLOAD SWAP4 SWAP6 PUSH1 0x1 PUSH1 0xA0 PUSH1 0x2 EXP SUB SWAP1 SWAP4 AND SWAP5 SWAP2 SWAP4 SWAP1 SWAP3 PUSH1 0xFF SWAP1 SWAP2 AND SWAP1 JUMP JUMPDEST PUSH1 0x1 PUSH1 0xA0 PUSH1 0x2 EXP SUB DUP1 DUP3 AND PUSH1 0x0 SWAP1 DUP2 MSTORE PUSH1 0x41 PUSH1 0x20 SWAP1 DUP2 MSTORE PUSH1 0x40 DUP1 DUP4 KECCAK256 DUP1 SLOAD PUSH1 0x1 DUP1 DUP4 ADD SLOAD PUSH1 0x2 DUP1 DUP6 ADD SLOAD PUSH1 0x3 DUP7 ADD SLOAD PUSH1 0x4 DUP8 ADD SLOAD PUSH1 0x5 DUP9 ADD SLOAD PUSH1 0x6 DUP10 ADD SLOAD PUSH1 0x7 DUP11 ADD DUP1 SLOAD DUP13 MLOAD PUSH1 0x1F PUSH1 0x0 NOT SWAP12 DUP4 AND ISZERO PUSH2 0x100 MUL SWAP12 SWAP1 SWAP12 ADD SWAP1 SWAP2 AND SWAP8 SWAP1 SWAP8 DIV SWAP9 DUP10 ADD DUP14 SWAP1 DIV DUP14 MUL DUP8 ADD DUP14 ADD SWAP1 SWAP12 MSTORE DUP8 DUP7 MSTORE SWAP12 SWAP13 DUP14 SWAP13 DUP14 SWAP13 DUP14 SWAP13 DUP14 SWAP13 DUP14 SWAP13 DUP14 SWAP13 DUP14 SWAP13 DUP14 SWAP13 PUSH1 0x60 SWAP13 SWAP5 SWAP12 SWAP4 SWAP11 SWAP2 SWAP10 SWAP9 DUP6 AND SWAP9 PUSH4 0xFFFFFFFF PUSH21 0x10000000000000000000000000000000000000000 DUP8 DIV DUP2 AND SWAP10 PUSH25 0x1000000000000000000000000000000000000000000000000 SWAP1 SWAP8 DIV AND SWAP8 SWAP5 SWAP7 SWAP3 SWAP6 SWAP1 SWAP5 PUSH1 0xFF SWAP1 SWAP2 AND SWAP4 DUP4 SWAP2 DUP4 ADD DUP3 DUP3 DUP1 ISZERO PUSH2 0x12AC JUMPI DUP1 PUSH1 0x1F LT PUSH2 0x1281 JUMPI PUSH2 0x100 DUP1 DUP4 SLOAD DIV MUL DUP4 MSTORE SWAP2 PUSH1 0x20 ADD SWAP2 PUSH2 0x12AC JUMP JUMPDEST DUP3 ADD SWAP2 SWAP1 PUSH1 0x0 MSTORE PUSH1 0x20 PUSH1 0x0 KECCAK256 SWAP1 JUMPDEST DUP2 SLOAD DUP2 MSTORE SWAP1 PUSH1 0x1 ADD SWAP1 PUSH1 0x20 ADD DUP1 DUP4 GT PUSH2 0x128F JUMPI DUP3 SWAP1 SUB PUSH1 0x1F AND DUP3 ADD SWAP2 JUMPDEST POP POP POP POP POP SWAP1 POP SWAP11 POP SWAP11 POP SWAP11 POP SWAP11 POP SWAP11 POP SWAP11 POP SWAP11 POP SWAP11 POP SWAP11 POP SWAP11 POP POP SWAP2 SWAP4 SWAP6 SWAP8 SWAP10 POP SWAP2 SWAP4 SWAP6 SWAP8 SWAP10 JUMP JUMPDEST PUSH1 0x0 DUP2 DUP2 MSTORE PUSH1 0x51 PUSH1 0x20 SWAP1 DUP2 MSTORE PUSH1 0x40 DUP3 KECCAK256 DUP3 DUP1 MSTORE PUSH1 0x4C SWAP1 SWAP2 MSTORE PUSH32 0x551595B9D59B165BF9AD72F0480C55576C5DAE704D350B901D5E76A5A3A448D3 SLOAD PUSH32 0x551595B9D59B165BF9AD72F0480C55576C5DAE704D350B901D5E76A5A3A448CF DUP1 SLOAD PUSH32 0x551595B9D59B165BF9AD72F0480C55576C5DAE704D350B901D5E76A5A3A448D0 SLOAD SWAP2 SWAP3 DUP6 SWAP3 PUSH2 0x136B SWAP3 SWAP1 PUSH1 0x1 PUSH1 0xA0 PUSH1 0x2 EXP SUB AND PUSH2 0x2285 JUMP JUMPDEST DUP3 SLOAD PUSH1 0x49 DUP1 SLOAD PUSH1 0x0 SWAP1 DUP2 MSTORE PUSH1 0x52 PUSH1 0x20 SWAP1 DUP2 MSTORE PUSH1 0x40 DUP1 DUP4 KECCAK256 DUP7 DUP5 MSTORE SWAP1 SWAP2 MSTORE SWAP1 KECCAK256 SWAP2 SWAP1 SWAP2 SSTORE DUP7 SWAP1 SSTORE SWAP1 POP DUP1 DUP1 PUSH1 0x1 JUMPDEST DUP6 SLOAD DUP2 LT ISZERO PUSH2 0x1438 JUMPI PUSH1 0x0 PUSH1 0x4C PUSH1 0x0 DUP9 DUP5 DUP2 SLOAD DUP2 LT ISZERO ISZERO PUSH2 0x13B5 JUMPI INVALID JUMPDEST PUSH1 0x0 SWAP2 DUP3 MSTORE PUSH1 0x20 DUP1 DUP4 KECCAK256 SWAP1 SWAP2 ADD SLOAD DUP4 MSTORE DUP3 ADD SWAP3 SWAP1 SWAP3 MSTORE PUSH1 0x40 ADD DUP2 KECCAK256 PUSH1 0x4 DUP2 ADD SLOAD DUP2 SLOAD PUSH1 0x1 DUP4 ADD SLOAD SWAP3 SWAP5 POP PUSH2 0x13F1 SWAP3 PUSH1 0x1 PUSH1 0xA0 PUSH1 0x2 EXP SUB AND PUSH2 0x2285 JUMP JUMPDEST SWAP1 POP DUP5 DUP2 GT ISZERO PUSH2 0x1403 JUMPI DUP1 SWAP5 POP PUSH2 0x140F JUMP JUMPDEST DUP4 DUP2 LT ISZERO PUSH2 0x140F JUMPI DUP1 SWAP4 POP JUMPDEST SWAP1 SLOAD PUSH1 0x49 SLOAD PUSH1 0x0 SWAP1 DUP2 MSTORE PUSH1 0x52 PUSH1 0x20 SWAP1 DUP2 MSTORE PUSH1 0x40 DUP1 DUP4 KECCAK256 SWAP5 DUP4 MSTORE SWAP4 SWAP1 MSTORE SWAP2 SWAP1 SWAP2 KECCAK256 SSTORE PUSH1 0x1 ADD PUSH2 0x1398 JUMP JUMPDEST POP PUSH1 0x0 PUSH2 0x1445 DUP3 DUP5 PUSH2 0x22B6 JUMP JUMPDEST PUSH1 0x4A DUP2 SWAP1 SSTORE PUSH1 0x49 SLOAD PUSH1 0x0 SWAP1 DUP2 MSTORE PUSH1 0x52 PUSH1 0x20 SWAP1 DUP2 MSTORE PUSH1 0x40 DUP1 DUP4 KECCAK256 SWAP4 DUP4 MSTORE SWAP3 DUP2 MSTORE DUP3 DUP3 KECCAK256 SLOAD DUP3 MSTORE PUSH1 0x4C SWAP1 MSTORE KECCAK256 SWAP9 SWAP8 POP POP POP POP POP POP POP POP JUMP JUMPDEST CALLER SWAP1 JUMP JUMPDEST PUSH1 0x0 DUP1 PUSH1 0x1 PUSH1 0xA0 PUSH1 0x2 EXP SUB DUP7 AND ISZERO ISZERO PUSH2 0x1508 JUMPI PUSH1 0x40 DUP1 MLOAD PUSH1 0xE5 PUSH1 0x2 EXP PUSH3 0x461BCD MUL DUP2 MSTORE PUSH1 0x20 PUSH1 0x4 DUP3 ADD MSTORE PUSH1 0x38 PUSH1 0x24 DUP3 ADD MSTORE PUSH32 0x476C757761536176696E674163636F756E743A20536176696E67206F776E6572 PUSH1 0x44 DUP3 ADD MSTORE PUSH32 0x2061646472657373206D75737420626520646566696E65640000000000000000 PUSH1 0x64 DUP3 ADD MSTORE SWAP1 MLOAD SWAP1 DUP2 SWAP1 SUB PUSH1 0x84 ADD SWAP1 REVERT JUMPDEST PUSH1 0x1 PUSH1 0xA0 PUSH1 0x2 EXP SUB DUP7 AND PUSH1 0x0 SWAP1 DUP2 MSTORE PUSH1 0x41 PUSH1 0x20 MSTORE PUSH1 0x40 SWAP1 KECCAK256 PUSH1 0x3 ADD SLOAD ISZERO PUSH2 0x15C5 JUMPI PUSH1 0x40 DUP1 MLOAD PUSH1 0xE5 PUSH1 0x2 EXP PUSH3 0x461BCD MUL DUP2 MSTORE PUSH1 0x20 PUSH1 0x4 DUP3 ADD MSTORE PUSH1 0x47 PUSH1 0x24 DUP3 ADD MSTORE PUSH32 0x476C757761536176696E674163636F756E743A20456163682061646472657373 PUSH1 0x44 DUP3 ADD MSTORE PUSH32 0x2073686F756C642068617665206F6E6C79203120536176696E67206163636F75 PUSH1 0x64 DUP3 ADD MSTORE PUSH32 0x6E74206F6E6C7900000000000000000000000000000000000000000000000000 PUSH1 0x84 DUP3 ADD MSTORE SWAP1 MLOAD SWAP1 DUP2 SWAP1 SUB PUSH1 0xA4 ADD SWAP1 REVERT JUMPDEST PUSH1 0x43 DUP4 PUSH1 0x40 MLOAD DUP1 DUP3 DUP1 MLOAD SWAP1 PUSH1 0x20 ADD SWAP1 DUP1 DUP4 DUP4 JUMPDEST PUSH1 0x20 DUP4 LT PUSH2 0x15F7 JUMPI DUP1 MLOAD DUP3 MSTORE PUSH1 0x1F NOT SWAP1 SWAP3 ADD SWAP2 PUSH1 0x20 SWAP2 DUP3 ADD SWAP2 ADD PUSH2 0x15D8 JUMP JUMPDEST MLOAD DUP2 MLOAD PUSH1 0x20 SWAP4 DUP5 SUB PUSH2 0x100 EXP PUSH1 0x0 NOT ADD DUP1 NOT SWAP1 SWAP3 AND SWAP2 AND OR SWAP1 MSTORE SWAP3 ADD SWAP5 DUP6 MSTORE POP PUSH1 0x40 MLOAD SWAP4 DUP5 SWAP1 SUB ADD SWAP1 SWAP3 KECCAK256 SLOAD PUSH1 0xFF AND ISZERO SWAP2 POP PUSH2 0x16A5 SWAP1 POP JUMPI PUSH1 0x40 DUP1 MLOAD PUSH1 0xE5 PUSH1 0x2 EXP PUSH3 0x461BCD MUL DUP2 MSTORE PUSH1 0x20 PUSH1 0x4 DUP3 ADD MSTORE PUSH1 0x31 PUSH1 0x24 DUP3 ADD MSTORE PUSH32 0x476C757761536176696E674163636F756E743A204964656E7469747920686173 PUSH1 0x44 DUP3 ADD MSTORE PUSH32 0x6820697320616C72656164792075736564000000000000000000000000000000 PUSH1 0x64 DUP3 ADD MSTORE SWAP1 MLOAD SWAP1 DUP2 SWAP1 SUB PUSH1 0x84 ADD SWAP1 REVERT JUMPDEST PUSH1 0x40 DUP1 SLOAD DUP2 MLOAD PUSH32 0x23B872DD00000000000000000000000000000000000000000000000000000000 DUP2 MSTORE PUSH1 0x1 PUSH1 0xA0 PUSH1 0x2 EXP SUB DUP10 DUP2 AND PUSH1 0x4 DUP4 ADD MSTORE ADDRESS PUSH1 0x24 DUP4 ADD MSTORE PUSH1 0x44 DUP3 ADD DUP10 SWAP1 MSTORE SWAP3 MLOAD SWAP3 SWAP1 SWAP2 AND SWAP2 PUSH4 0x23B872DD SWAP2 PUSH1 0x64 DUP1 DUP3 ADD SWAP3 PUSH1 0x20 SWAP3 SWAP1 SWAP2 SWAP1 DUP3 SWAP1 SUB ADD DUP2 PUSH1 0x0 DUP8 DUP1 EXTCODESIZE ISZERO DUP1 ISZERO PUSH2 0x171A JUMPI PUSH1 0x0 DUP1 REVERT JUMPDEST POP GAS CALL ISZERO DUP1 ISZERO PUSH2 0x172E JUMPI RETURNDATASIZE PUSH1 0x0 DUP1 RETURNDATACOPY RETURNDATASIZE PUSH1 0x0 REVERT JUMPDEST POP POP POP POP PUSH1 0x40 MLOAD RETURNDATASIZE PUSH1 0x20 DUP2 LT ISZERO PUSH2 0x1744 JUMPI PUSH1 0x0 DUP1 REVERT JUMPDEST POP MLOAD ISZERO ISZERO PUSH2 0x17E8 JUMPI PUSH1 0x40 DUP1 MLOAD PUSH1 0xE5 PUSH1 0x2 EXP PUSH3 0x461BCD MUL DUP2 MSTORE PUSH1 0x20 PUSH1 0x4 DUP3 ADD MSTORE PUSH1 0x48 PUSH1 0x24 DUP3 ADD MSTORE PUSH32 0x476C757761536176696E674163636F756E743A20556E61626C6520746F207365 PUSH1 0x44 DUP3 ADD MSTORE PUSH32 0x6E6420616D6F756E7420746F206465706F73697420746F206120536176696E67 PUSH1 0x64 DUP3 ADD MSTORE PUSH32 0x204163636F756E74000000000000000000000000000000000000000000000000 PUSH1 0x84 DUP3 ADD MSTORE SWAP1 MLOAD SWAP1 DUP2 SWAP1 SUB PUSH1 0xA4 ADD SWAP1 REVERT JUMPDEST PUSH1 0x40 DUP1 MLOAD PUSH32 0x84CEFCE000000000000000000000000000000000000000000000000000000000 DUP2 MSTORE PUSH1 0x4 DUP2 ADD DUP7 SWAP1 MSTORE ADDRESS PUSH1 0x24 DUP3 ADD MSTORE PUSH1 0x1 PUSH1 0xA0 PUSH1 0x2 EXP SUB DUP9 AND PUSH1 0x44 DUP3 ADD MSTORE SWAP1 MLOAD PUSH1 0x0 SWAP2 PUSH20 0x0 SWAP2 PUSH4 0x84CEFCE0 SWAP2 PUSH1 0x64 DUP1 DUP3 ADD SWAP3 PUSH1 0x20 SWAP3 SWAP1 SWAP2 SWAP1 DUP3 SWAP1 SUB ADD DUP2 DUP7 DUP1 EXTCODESIZE ISZERO DUP1 ISZERO PUSH2 0x186C JUMPI PUSH1 0x0 DUP1 REVERT JUMPDEST POP GAS DELEGATECALL ISZERO DUP1 ISZERO PUSH2 0x1880 JUMPI RETURNDATASIZE PUSH1 0x0 DUP1 RETURNDATACOPY RETURNDATASIZE PUSH1 0x0 REVERT JUMPDEST POP POP POP POP PUSH1 0x40 MLOAD RETURNDATASIZE PUSH1 0x20 DUP2 LT ISZERO PUSH2 0x1896 JUMPI PUSH1 0x0 DUP1 REVERT JUMPDEST POP MLOAD PUSH1 0x39 SLOAD PUSH1 0x40 DUP1 MLOAD PUSH32 0xFD96809E00000000000000000000000000000000000000000000000000000000 DUP2 MSTORE PUSH1 0x4 DUP2 ADD SWAP3 SWAP1 SWAP3 MSTORE PUSH1 0x24 DUP3 ADD DUP10 SWAP1 MSTORE ADDRESS PUSH1 0x44 DUP4 ADD MSTORE PUSH1 0x1 PUSH1 0xA0 PUSH1 0x2 EXP SUB DUP11 AND PUSH1 0x64 DUP4 ADD MSTORE MLOAD SWAP2 SWAP3 POP PUSH1 0x0 SWAP2 PUSH20 0x0 SWAP2 PUSH4 0xFD96809E SWAP2 PUSH1 0x84 DUP1 DUP4 ADD SWAP3 PUSH1 0x20 SWAP3 SWAP2 SWAP1 DUP3 SWAP1 SUB ADD DUP2 DUP7 DUP1 EXTCODESIZE ISZERO DUP1 ISZERO PUSH2 0x1928 JUMPI PUSH1 0x0 DUP1 REVERT JUMPDEST POP GAS DELEGATECALL ISZERO DUP1 ISZERO PUSH2 0x193C JUMPI RETURNDATASIZE PUSH1 0x0 DUP1 RETURNDATACOPY RETURNDATASIZE PUSH1 0x0 REVERT JUMPDEST POP POP POP POP PUSH1 0x40 MLOAD RETURNDATASIZE PUSH1 0x20 DUP2 LT ISZERO PUSH2 0x1952 JUMPI PUSH1 0x0 DUP1 REVERT JUMPDEST POP MLOAD PUSH1 0x40 DUP1 MLOAD PUSH2 0x140 DUP2 ADD DUP3 MSTORE PUSH1 0x39 SLOAD DUP2 MSTORE PUSH1 0x20 DUP2 ADD DUP6 SWAP1 MSTORE PUSH1 0x1 PUSH1 0xA0 PUSH1 0x2 EXP SUB DUP12 AND SWAP2 DUP2 ADD SWAP2 SWAP1 SWAP2 MSTORE PUSH1 0x33 SLOAD PUSH4 0xFFFFFFFF DUP1 DUP3 AND PUSH1 0x60 DUP5 ADD MSTORE PUSH5 0x100000000 SWAP1 SWAP2 DIV AND PUSH1 0x80 DUP3 ADD MSTORE PUSH1 0xA0 DUP2 ADD DUP9 SWAP1 MSTORE PUSH1 0xC0 DUP2 ADD DUP10 SWAP1 MSTORE PUSH1 0x0 PUSH1 0xE0 DUP3 ADD MSTORE SWAP1 SWAP2 POP PUSH2 0x100 DUP2 ADD PUSH1 0x1 DUP2 MSTORE PUSH1 0x20 SWAP1 DUP2 ADD DUP8 SWAP1 MSTORE PUSH1 0x1 PUSH1 0xA0 PUSH1 0x2 EXP SUB DUP11 DUP2 AND PUSH1 0x0 SWAP1 DUP2 MSTORE PUSH1 0x41 DUP4 MSTORE PUSH1 0x40 SWAP1 DUP2 SWAP1 KECCAK256 DUP5 MLOAD DUP2 SSTORE SWAP3 DUP5 ADD MLOAD PUSH1 0x1 DUP1 DUP6 ADD SWAP2 SWAP1 SWAP2 SSTORE SWAP1 DUP5 ADD MLOAD PUSH1 0x2 DUP5 ADD DUP1 SLOAD PUSH1 0x60 DUP8 ADD MLOAD PUSH1 0x80 DUP9 ADD MLOAD PUSH20 0xFFFFFFFFFFFFFFFFFFFFFFFFFFFFFFFFFFFFFFFF NOT SWAP1 SWAP3 AND SWAP4 SWAP1 SWAP6 AND SWAP3 SWAP1 SWAP3 OR PUSH24 0xFFFFFFFF0000000000000000000000000000000000000000 NOT AND PUSH21 0x10000000000000000000000000000000000000000 PUSH4 0xFFFFFFFF SWAP6 DUP7 AND MUL OR PUSH32 0xFFFFFFFF00000000FFFFFFFFFFFFFFFFFFFFFFFFFFFFFFFFFFFFFFFFFFFFFFFF AND PUSH25 0x1000000000000000000000000000000000000000000000000 SWAP5 SWAP1 SWAP3 AND SWAP4 SWAP1 SWAP4 MUL OR SWAP1 SWAP2 SSTORE PUSH1 0xA0 DUP4 ADD MLOAD PUSH1 0x3 DUP4 ADD SSTORE PUSH1 0xC0 DUP4 ADD MLOAD PUSH1 0x4 DUP1 DUP5 ADD SWAP2 SWAP1 SWAP2 SSTORE PUSH1 0xE0 DUP5 ADD MLOAD PUSH1 0x5 DUP5 ADD SSTORE PUSH2 0x100 DUP5 ADD MLOAD PUSH1 0x6 DUP5 ADD DUP1 SLOAD SWAP2 SWAP4 SWAP1 SWAP3 PUSH1 0xFF NOT SWAP1 SWAP3 AND SWAP2 DUP5 SWAP1 DUP2 GT ISZERO PUSH2 0x1AEB JUMPI INVALID JUMPDEST MUL OR SWAP1 SSTORE POP PUSH2 0x120 DUP3 ADD MLOAD DUP1 MLOAD PUSH2 0x1B0C SWAP2 PUSH1 0x7 DUP5 ADD SWAP2 PUSH1 0x20 SWAP1 SWAP2 ADD SWAP1 PUSH2 0x25CE JUMP JUMPDEST POP POP PUSH1 0x40 DUP1 MLOAD PUSH1 0xA0 DUP2 ADD DUP3 MSTORE PUSH1 0x3D SLOAD DUP2 MSTORE PUSH1 0x39 SLOAD PUSH1 0x20 DUP1 DUP4 ADD SWAP2 DUP3 MSTORE PUSH1 0x1 PUSH1 0xA0 PUSH1 0x2 EXP SUB DUP14 DUP2 AND DUP5 DUP7 ADD SWAP1 DUP2 MSTORE PUSH1 0x60 DUP6 ADD DUP14 DUP2 MSTORE PUSH1 0x80 DUP7 ADD DUP16 DUP2 MSTORE PUSH1 0x0 DUP11 DUP2 MSTORE PUSH1 0x42 DUP7 MSTORE DUP9 SWAP1 KECCAK256 SWAP7 MLOAD DUP8 SSTORE SWAP5 MLOAD PUSH1 0x1 DUP1 DUP9 ADD SWAP2 SWAP1 SWAP2 SSTORE SWAP2 MLOAD PUSH1 0x2 DUP8 ADD DUP1 SLOAD PUSH20 0xFFFFFFFFFFFFFFFFFFFFFFFFFFFFFFFFFFFFFFFF NOT AND SWAP2 SWAP1 SWAP5 AND OR SWAP1 SWAP3 SSTORE SWAP1 MLOAD PUSH1 0x3 DUP6 ADD SSTORE SWAP2 MLOAD PUSH1 0x4 SWAP1 SWAP4 ADD SWAP3 SWAP1 SWAP3 SSTORE SWAP2 MLOAD DUP9 MLOAD SWAP3 SWAP4 POP PUSH1 0x43 SWAP3 DUP10 SWAP3 DUP3 SWAP2 SWAP1 DUP5 ADD SWAP1 DUP1 DUP4 DUP4 JUMPDEST PUSH1 0x20 DUP4 LT PUSH2 0x1BD0 JUMPI DUP1 MLOAD DUP3 MSTORE PUSH1 0x1F NOT SWAP1 SWAP3 ADD SWAP2 PUSH1 0x20 SWAP2 DUP3 ADD SWAP2 ADD PUSH2 0x1BB1 JUMP JUMPDEST MLOAD DUP2 MLOAD PUSH1 0x20 SWAP4 DUP5 SUB PUSH2 0x100 EXP PUSH1 0x0 NOT ADD DUP1 NOT SWAP1 SWAP3 AND SWAP2 AND OR SWAP1 MSTORE SWAP3 ADD SWAP5 DUP6 MSTORE POP PUSH1 0x40 MLOAD SWAP4 DUP5 SWAP1 SUB ADD SWAP1 SWAP3 KECCAK256 DUP1 SLOAD PUSH1 0xFF NOT AND SWAP4 ISZERO ISZERO SWAP4 SWAP1 SWAP4 OR SWAP1 SWAP3 SSTORE POP PUSH2 0x1C19 SWAP1 POP PUSH1 0x37 DUP4 PUSH2 0x21AC JUMP JUMPDEST PUSH2 0x1C2A PUSH1 0x3B DUP3 PUSH4 0xFFFFFFFF PUSH2 0x21AC AND JUMP JUMPDEST PUSH1 0x3F DUP1 SLOAD DUP9 ADD SWAP1 SSTORE PUSH1 0x40 MLOAD PUSH1 0x1 PUSH1 0xA0 PUSH1 0x2 EXP SUB DUP10 AND SWAP1 DUP4 SWAP1 PUSH32 0xAE420988B408FA1C16C342C73F56ECE9307DA09DB1AC6B36FC8D9FF61ACAA9A2 SWAP1 PUSH1 0x0 SWAP1 LOG3 PUSH1 0x40 DUP1 MLOAD DUP9 DUP2 MSTORE SWAP1 MLOAD PUSH1 0x1 PUSH1 0xA0 PUSH1 0x2 EXP SUB DUP11 AND SWAP2 DUP4 SWAP2 PUSH32 0x2E2791FE9306933F4D6468AAB16A0195B3AB2B342887B2E1BE4AA35F56832297 SWAP2 DUP2 SWAP1 SUB PUSH1 0x20 ADD SWAP1 LOG3 SWAP1 SWAP8 SWAP1 SWAP7 POP SWAP5 POP POP POP POP POP JUMP JUMPDEST PUSH1 0x0 DUP2 DUP2 MSTORE PUSH1 0x4D PUSH1 0x20 SWAP1 DUP2 MSTORE PUSH1 0x40 DUP1 DUP4 KECCAK256 SLOAD PUSH1 0x4E SWAP1 SWAP3 MSTORE DUP3 KECCAK256 SLOAD PUSH1 0x60 SWAP3 SWAP2 SWAP1 SUB SWAP1 DUP2 GT PUSH2 0x1D52 JUMPI PUSH1 0x40 DUP1 MLOAD PUSH1 0xE5 PUSH1 0x2 EXP PUSH3 0x461BCD MUL DUP2 MSTORE PUSH1 0x20 PUSH1 0x4 DUP3 ADD MSTORE PUSH1 0x3F PUSH1 0x24 DUP3 ADD MSTORE PUSH32 0x476C7577615072697A65447261773A206E6F206D6F7265207469636B65747320 PUSH1 0x44 DUP3 ADD MSTORE PUSH32 0x63616E206265206372656174656420666F722074686973206465706F73697400 PUSH1 0x64 DUP3 ADD MSTORE SWAP1 MLOAD SWAP1 DUP2 SWAP1 SUB PUSH1 0x84 ADD SWAP1 REVERT JUMPDEST PUSH1 0x4B SLOAD PUSH4 0xFFFFFFFF AND DUP1 DUP3 LT ISZERO PUSH2 0x1D66 JUMPI POP DUP1 JUMPDEST PUSH2 0x1D6E PUSH2 0x264C JUMP JUMPDEST PUSH2 0x1D77 DUP7 PUSH2 0x231E JUMP JUMPDEST SWAP1 POP PUSH1 0x0 PUSH1 0x2 SWAP1 POP PUSH1 0x10 DUP3 PUSH1 0x60 ADD MLOAD PUSH1 0xFF AND LT DUP1 PUSH2 0x1DAF JUMPI POP DUP2 PUSH1 0x60 ADD MLOAD PUSH1 0xFF AND PUSH1 0x10 EQ DUP1 ISZERO PUSH2 0x1DAF JUMPI POP PUSH1 0x3B DUP3 PUSH1 0x80 ADD MLOAD PUSH1 0xFF AND GT ISZERO JUMPDEST ISZERO PUSH2 0x1DB8 JUMPI POP PUSH1 0x1 JUMPDEST PUSH1 0x20 DUP1 DUP4 ADD MLOAD DUP4 MLOAD PUSH1 0x40 DUP1 MLOAD PUSH32 0x8980747400000000000000000000000000000000000000000000000000000000 DUP2 MSTORE PUSH1 0xFF SWAP1 SWAP4 AND PUSH1 0x4 DUP5 ADD MSTORE PUSH2 0xFFFF SWAP1 SWAP2 AND PUSH1 0x24 DUP4 ADD MSTORE MLOAD PUSH1 0x0 SWAP3 PUSH20 0x0 SWAP3 PUSH4 0x89807474 SWAP3 PUSH1 0x44 DUP1 DUP4 ADD SWAP4 SWAP3 DUP3 SWAP1 SUB ADD DUP2 DUP7 DUP1 EXTCODESIZE ISZERO DUP1 ISZERO PUSH2 0x1E37 JUMPI PUSH1 0x0 DUP1 REVERT JUMPDEST POP GAS DELEGATECALL ISZERO DUP1 ISZERO PUSH2 0x1E4B JUMPI RETURNDATASIZE PUSH1 0x0 DUP1 RETURNDATACOPY RETURNDATASIZE PUSH1 0x0 REVERT JUMPDEST POP POP POP POP PUSH1 0x40 MLOAD RETURNDATASIZE PUSH1 0x20 DUP2 LT ISZERO PUSH2 0x1E61 JUMPI PUSH1 0x0 DUP1 REVERT JUMPDEST POP MLOAD PUSH1 0x40 DUP5 ADD MLOAD SWAP1 SWAP2 POP PUSH1 0xFF DUP1 DUP4 AND SWAP2 DUP5 ADD AND GT ISZERO PUSH2 0x1EC6 JUMPI DUP3 PUSH1 0x20 ADD MLOAD PUSH1 0xFF AND PUSH1 0xC EQ ISZERO ISZERO PUSH2 0x1E9E JUMPI PUSH1 0x20 DUP4 ADD DUP1 MLOAD PUSH1 0x1 ADD PUSH1 0xFF AND SWAP1 MSTORE PUSH2 0x1EB1 JUMP JUMPDEST DUP3 MLOAD PUSH2 0xFFFF PUSH1 0x1 SWAP2 DUP3 ADD AND DUP5 MSTORE PUSH1 0x20 DUP5 ADD MSTORE JUMPDEST PUSH1 0x40 DUP4 ADD DUP1 MLOAD DUP4 ADD DUP3 SWAP1 SUB PUSH1 0xFF AND SWAP1 MSTORE PUSH2 0x1ED4 JUMP JUMPDEST PUSH1 0x40 DUP4 ADD DUP1 MLOAD DUP4 ADD PUSH1 0xFF AND SWAP1 MSTORE JUMPDEST PUSH1 0x11 PUSH1 0x60 DUP5 ADD DUP2 SWAP1 MSTORE PUSH1 0x0 PUSH1 0x80 DUP6 ADD DUP2 SWAP1 MSTORE PUSH1 0xA0 DUP6 ADD DUP2 SWAP1 MSTORE DUP5 MLOAD PUSH1 0x20 DUP1 DUP8 ADD MLOAD PUSH1 0x40 DUP1 DUP10 ADD MLOAD DUP2 MLOAD PUSH32 0xA37F14B00000000000000000000000000000000000000000000000000000000 DUP2 MSTORE PUSH2 0xFFFF SWAP1 SWAP6 AND PUSH1 0x4 DUP7 ADD MSTORE PUSH1 0xFF SWAP3 DUP4 AND PUSH1 0x24 DUP7 ADD MSTORE SWAP1 SWAP2 AND PUSH1 0x44 DUP5 ADD MSTORE PUSH1 0x64 DUP4 ADD SWAP5 SWAP1 SWAP5 MSTORE PUSH1 0x84 DUP3 ADD DUP4 SWAP1 MSTORE PUSH1 0xA4 DUP3 ADD DUP4 SWAP1 MSTORE SWAP3 MLOAD SWAP2 SWAP3 PUSH20 0x0 SWAP3 PUSH4 0xA37F14B SWAP3 PUSH1 0xC4 DUP1 DUP3 ADD SWAP4 SWAP3 SWAP2 DUP3 SWAP1 SUB ADD DUP2 DUP7 DUP1 EXTCODESIZE ISZERO DUP1 ISZERO PUSH2 0x1F8F JUMPI PUSH1 0x0 DUP1 REVERT JUMPDEST POP GAS DELEGATECALL ISZERO DUP1 ISZERO PUSH2 0x1FA3 JUMPI RETURNDATASIZE PUSH1 0x0 DUP1 RETURNDATACOPY RETURNDATASIZE PUSH1 0x0 REVERT JUMPDEST POP POP POP POP PUSH1 0x40 MLOAD RETURNDATASIZE PUSH1 0x20 DUP2 LT ISZERO PUSH2 0x1FB9 JUMPI PUSH1 0x0 DUP1 REVERT JUMPDEST POP MLOAD SWAP1 POP PUSH1 0x0 JUMPDEST DUP6 PUSH4 0xFFFFFFFF AND DUP2 PUSH4 0xFFFFFFFF AND LT ISZERO PUSH2 0x219E JUMPI PUSH1 0x48 SLOAD PUSH1 0x40 DUP1 MLOAD PUSH1 0xE0 DUP2 ADD DUP3 MSTORE PUSH1 0x46 SLOAD DUP2 MSTORE PUSH1 0x1 PUSH1 0xA0 PUSH1 0x2 EXP SUB DUP15 AND PUSH1 0x20 DUP3 ADD MSTORE SWAP1 DUP2 ADD DUP13 SWAP1 MSTORE PUSH1 0x60 DUP2 ADD DUP5 SWAP1 MSTORE PUSH4 0x1000000 SWAP1 SWAP2 DIV PUSH2 0xFFFF AND NUMBER ADD PUSH1 0x80 DUP3 ADD DUP2 SWAP1 MSTORE SWAP1 PUSH1 0xA0 DUP2 ADD PUSH1 0x1 DUP2 MSTORE PUSH1 0x20 SWAP1 DUP2 ADD DUP13 SWAP1 MSTORE PUSH1 0x46 SLOAD PUSH1 0x0 SWAP1 DUP2 MSTORE PUSH1 0x4C DUP3 MSTORE PUSH1 0x40 SWAP1 DUP2 SWAP1 KECCAK256 DUP4 MLOAD DUP2 SSTORE SWAP2 DUP4 ADD MLOAD PUSH1 0x1 DUP1 DUP5 ADD DUP1 SLOAD PUSH20 0xFFFFFFFFFFFFFFFFFFFFFFFFFFFFFFFFFFFFFFFF NOT AND PUSH1 0x1 PUSH1 0xA0 PUSH1 0x2 EXP SUB SWAP1 SWAP4 AND SWAP3 SWAP1 SWAP3 OR SWAP1 SWAP2 SSTORE SWAP1 DUP4 ADD MLOAD PUSH1 0x2 DUP4 ADD SSTORE PUSH1 0x60 DUP4 ADD MLOAD PUSH1 0x3 DUP4 ADD SSTORE PUSH1 0x80 DUP4 ADD MLOAD PUSH1 0x4 DUP1 DUP5 ADD SWAP2 SWAP1 SWAP2 SSTORE PUSH1 0xA0 DUP5 ADD MLOAD PUSH1 0x5 DUP5 ADD DUP1 SLOAD SWAP2 SWAP4 SWAP1 SWAP3 PUSH1 0xFF NOT SWAP1 SWAP3 AND SWAP2 DUP5 SWAP1 DUP2 GT ISZERO PUSH2 0x20B4 JUMPI INVALID JUMPDEST MUL OR SWAP1 SSTORE POP PUSH1 0xC0 SWAP2 SWAP1 SWAP2 ADD MLOAD PUSH1 0x6 SWAP1 SWAP2 ADD SSTORE PUSH1 0x46 SLOAD PUSH1 0x1 PUSH1 0xA0 PUSH1 0x2 EXP SUB DUP14 AND PUSH1 0x0 SWAP1 DUP2 MSTORE PUSH1 0x50 PUSH1 0x20 MSTORE PUSH1 0x40 SWAP1 KECCAK256 PUSH2 0x20F0 SWAP2 PUSH4 0xFFFFFFFF PUSH2 0x244C AND JUMP JUMPDEST PUSH1 0x46 SLOAD PUSH1 0x0 DUP5 DUP2 MSTORE PUSH1 0x51 PUSH1 0x20 MSTORE PUSH1 0x40 SWAP1 KECCAK256 PUSH2 0x2110 SWAP2 PUSH4 0xFFFFFFFF PUSH2 0x244C AND JUMP JUMPDEST PUSH1 0x46 SLOAD PUSH1 0x0 DUP12 DUP2 MSTORE PUSH1 0x4D PUSH1 0x20 MSTORE PUSH1 0x40 SWAP1 KECCAK256 PUSH2 0x2130 SWAP2 PUSH4 0xFFFFFFFF PUSH2 0x244C AND JUMP JUMPDEST PUSH1 0x40 DUP1 MLOAD PUSH13 0x1000000000000000000000000 PUSH1 0x1 PUSH1 0xA0 PUSH1 0x2 EXP SUB DUP16 AND MUL PUSH1 0x20 DUP1 DUP4 ADD SWAP2 SWAP1 SWAP2 MSTORE PUSH1 0x34 DUP3 ADD DUP15 SWAP1 MSTORE PUSH1 0x54 DUP3 ADD DUP7 SWAP1 MSTORE PUSH1 0x74 DUP1 DUP4 ADD DUP6 SWAP1 MSTORE DUP4 MLOAD DUP1 DUP5 SUB SWAP1 SWAP2 ADD DUP2 MSTORE PUSH1 0x94 SWAP1 SWAP3 ADD SWAP1 SWAP3 MSTORE DUP1 MLOAD SWAP2 ADD KECCAK256 PUSH2 0x2195 SWAP1 PUSH1 0x44 SWAP1 PUSH4 0xFFFFFFFF PUSH2 0x21AC AND JUMP JUMPDEST POP PUSH1 0x1 ADD PUSH2 0x1FC0 JUMP JUMPDEST POP POP POP POP POP POP POP SWAP4 SWAP3 POP POP POP JUMP JUMPDEST PUSH1 0x2 DUP3 ADD DUP1 SLOAD PUSH1 0x0 SWAP1 DUP2 MSTORE PUSH1 0x20 DUP5 SWAP1 MSTORE PUSH1 0x40 SWAP1 KECCAK256 SWAP2 SWAP1 SWAP2 SSTORE DUP1 SLOAD PUSH1 0x1 SWAP1 DUP2 ADD SWAP1 SWAP2 SSTORE PUSH1 0x3 SWAP1 SWAP2 ADD DUP1 SLOAD SWAP1 SWAP2 ADD SWAP1 SSTORE JUMP JUMPDEST PUSH1 0x0 DUP2 DUP2 DUP5 GT PUSH2 0x226D JUMPI PUSH1 0x40 MLOAD PUSH1 0xE5 PUSH1 0x2 EXP PUSH3 0x461BCD MUL DUP2 MSTORE PUSH1 0x4 ADD DUP1 DUP1 PUSH1 0x20 ADD DUP3 DUP2 SUB DUP3 MSTORE DUP4 DUP2 DUP2 MLOAD DUP2 MSTORE PUSH1 0x20 ADD SWAP2 POP DUP1 MLOAD SWAP1 PUSH1 0x20 ADD SWAP1 DUP1 DUP4 DUP4 PUSH1 0x0 JUMPDEST DUP4 DUP2 LT ISZERO PUSH2 0x2232 JUMPI DUP2 DUP2 ADD MLOAD DUP4 DUP3 ADD MSTORE PUSH1 0x20 ADD PUSH2 0x221A JUMP JUMPDEST POP POP POP POP SWAP1 POP SWAP1 DUP2 ADD SWAP1 PUSH1 0x1F AND DUP1 ISZERO PUSH2 0x225F JUMPI DUP1 DUP3 SUB DUP1 MLOAD PUSH1 0x1 DUP4 PUSH1 0x20 SUB PUSH2 0x100 EXP SUB NOT AND DUP2 MSTORE PUSH1 0x20 ADD SWAP2 POP JUMPDEST POP SWAP3 POP POP POP PUSH1 0x40 MLOAD DUP1 SWAP2 SUB SWAP1 REVERT JUMPDEST POP PUSH1 0x0 DUP4 DUP6 DUP2 ISZERO ISZERO PUSH2 0x227B JUMPI INVALID JUMPDEST DIV SWAP6 SWAP5 POP POP POP POP POP JUMP JUMPDEST PUSH1 0x0 PUSH13 0x1000000000000000000000000 PUSH1 0x1 PUSH1 0xA0 PUSH1 0x2 EXP SUB DUP4 AND MUL PUSH2 0x22A9 DUP5 PUSH2 0x2464 JUMP JUMPDEST DUP6 BLOCKHASH XOR XOR SWAP1 POP SWAP4 SWAP3 POP POP POP JUMP JUMPDEST PUSH1 0x40 DUP1 MLOAD TIMESTAMP PUSH1 0x20 DUP1 DUP4 ADD DUP3 SWAP1 MSTORE NUMBER BLOCKHASH DUP4 DUP6 ADD MSTORE PUSH1 0x60 DUP4 ADD SWAP2 SWAP1 SWAP2 MSTORE DIFFICULTY PUSH1 0x80 DUP4 ADD MSTORE PUSH1 0xA0 DUP3 ADD DUP5 SWAP1 MSTORE PUSH1 0xC0 DUP1 DUP4 ADD DUP7 SWAP1 MSTORE DUP4 MLOAD DUP1 DUP5 SUB SWAP1 SWAP2 ADD DUP2 MSTORE PUSH1 0xE0 SWAP1 SWAP3 ADD SWAP1 SWAP3 MSTORE DUP1 MLOAD SWAP2 ADD KECCAK256 PUSH1 0x0 SWAP1 DUP2 SWAP1 DUP5 SWAP1 PUSH1 0x1 DUP3 DUP7 SUB ADD SWAP1 DUP2 ISZERO ISZERO PUSH2 0x2314 JUMPI INVALID JUMPDEST MOD ADD SWAP5 SWAP4 POP POP POP POP JUMP JUMPDEST PUSH2 0x2326 PUSH2 0x264C JUMP JUMPDEST PUSH2 0x232F DUP3 PUSH2 0x246C JUMP JUMPDEST PUSH2 0xFFFF AND DUP2 MSTORE PUSH1 0x0 PUSH2 0x2342 PUSH2 0x7B2 PUSH2 0x24EE JUMP JUMPDEST DUP3 MLOAD PUSH2 0x2351 SWAP1 PUSH2 0xFFFF AND PUSH2 0x24EE JUMP JUMPDEST SUB PUSH2 0xFFFF AND SWAP1 POP PUSH1 0x0 DUP2 PUSH4 0x1E28500 MUL DUP3 PUSH2 0x7B2 DUP6 PUSH1 0x0 ADD MLOAD SUB PUSH2 0xFFFF AND SUB PUSH4 0x1E13380 MUL ADD SWAP1 POP PUSH1 0x0 DUP1 PUSH1 0x0 PUSH1 0x1 SWAP1 POP JUMPDEST PUSH1 0xC PUSH1 0xFF DUP3 AND GT PUSH2 0x23D1 JUMPI PUSH2 0x23A0 DUP2 DUP8 PUSH1 0x0 ADD MLOAD PUSH2 0xFFFF AND PUSH2 0x2509 JUMP JUMPDEST SWAP2 POP DUP2 PUSH1 0xFF AND PUSH3 0x15180 MUL SWAP3 POP DUP7 DUP5 DUP5 ADD GT ISZERO PUSH2 0x23C5 JUMPI PUSH1 0xFF DUP2 AND PUSH1 0x20 DUP8 ADD MSTORE PUSH2 0x23D1 JUMP JUMPDEST SWAP3 DUP3 ADD SWAP3 PUSH1 0x1 ADD PUSH2 0x2383 JUMP JUMPDEST POP PUSH1 0x1 JUMPDEST PUSH1 0xFF DUP1 DUP4 AND SWAP1 DUP3 AND GT PUSH2 0x240E JUMPI DUP7 DUP5 PUSH3 0x15180 ADD GT ISZERO PUSH2 0x23FD JUMPI PUSH1 0xFF DUP2 AND PUSH1 0x40 DUP8 ADD MSTORE PUSH2 0x240E JUMP JUMPDEST PUSH3 0x15180 SWAP4 SWAP1 SWAP4 ADD SWAP3 PUSH1 0x1 ADD PUSH2 0x23D5 JUMP JUMPDEST PUSH2 0x2417 DUP8 PUSH2 0x257B JUMP JUMPDEST PUSH1 0xFF AND PUSH1 0x60 DUP8 ADD MSTORE PUSH2 0x2428 DUP8 PUSH2 0x2595 JUMP JUMPDEST PUSH1 0xFF AND PUSH1 0x80 DUP8 ADD MSTORE PUSH2 0x2439 DUP8 PUSH2 0x25A0 JUMP JUMPDEST PUSH1 0xFF AND PUSH1 0xA0 DUP8 ADD MSTORE POP SWAP4 SWAP6 SWAP5 POP POP POP POP POP JUMP JUMPDEST DUP2 SLOAD PUSH1 0x1 DUP2 ADD DUP4 SSTORE PUSH1 0x0 SWAP3 DUP4 MSTORE PUSH1 0x20 SWAP1 SWAP3 KECCAK256 SWAP1 SWAP2 ADD SSTORE JUMP JUMPDEST PUSH1 0x20 MSTORE PUSH1 0x0 SWAP1 JUMP JUMPDEST PUSH1 0x0 PUSH2 0x7B2 PUSH4 0x1E13380 DUP4 DIV DUP2 ADD SWAP1 DUP3 SWAP1 PUSH2 0x2486 SWAP1 PUSH2 0x24EE JUMP JUMPDEST PUSH2 0x248F DUP4 PUSH2 0x24EE JUMP JUMPDEST SUB PUSH2 0xFFFF AND SWAP1 POP PUSH4 0x1E28500 DUP2 MUL PUSH2 0x7B1 NOT DUP3 DUP5 SUB ADD PUSH4 0x1E13380 MUL ADD JUMPDEST DUP5 DUP2 GT ISZERO PUSH2 0x24E5 JUMPI PUSH2 0x24C1 PUSH1 0x1 DUP5 SUB PUSH2 0x25AA JUMP JUMPDEST ISZERO PUSH2 0x24D2 JUMPI PUSH4 0x1E284FF NOT ADD PUSH2 0x24DA JUMP JUMPDEST PUSH4 0x1E1337F NOT ADD JUMPDEST PUSH1 0x1 DUP4 SUB SWAP3 POP PUSH2 0x24AD JUMP JUMPDEST POP SWAP1 SWAP4 SWAP3 POP POP POP JUMP JUMPDEST PUSH1 0x0 NOT ADD PUSH1 0x0 PUSH1 0x64 DUP3 DIV PUSH2 0x190 DUP4 DIV PUSH1 0x4 DUP5 DIV ADD SUB SWAP3 SWAP2 POP POP JUMP JUMPDEST PUSH1 0x0 DUP3 PUSH1 0xFF AND PUSH1 0x2 EQ ISZERO PUSH2 0x2535 JUMPI PUSH2 0x2520 DUP3 PUSH2 0x25AA JUMP JUMPDEST ISZERO PUSH2 0x252D JUMPI POP PUSH1 0x1D PUSH2 0x617 JUMP JUMPDEST POP PUSH1 0x1C PUSH2 0x617 JUMP JUMPDEST DUP3 PUSH1 0xFF AND PUSH1 0x4 EQ DUP1 PUSH2 0x254A JUMPI POP DUP3 PUSH1 0xFF AND PUSH1 0x6 EQ JUMPDEST DUP1 PUSH2 0x2558 JUMPI POP DUP3 PUSH1 0xFF AND PUSH1 0x9 EQ JUMPDEST DUP1 PUSH2 0x2566 JUMPI POP DUP3 PUSH1 0xFF AND PUSH1 0xB EQ JUMPDEST ISZERO PUSH2 0x2573 JUMPI POP PUSH1 0x1E PUSH2 0x617 JUMP JUMPDEST POP PUSH1 0x1F PUSH2 0x617 JUMP JUMPDEST PUSH1 0x0 PUSH1 0x18 PUSH2 0xE10 DUP4 JUMPDEST DIV DUP2 ISZERO ISZERO PUSH2 0x258E JUMPI INVALID JUMPDEST MOD SWAP3 SWAP2 POP POP JUMP JUMPDEST PUSH1 0x0 PUSH1 0x3C DUP1 DUP4 PUSH2 0x2584 JUMP JUMPDEST PUSH1 0x0 PUSH1 0x3C DUP3 PUSH2 0x258E JUMP JUMPDEST PUSH1 0x0 PUSH2 0x190 DUP3 MOD ISZERO DUP1 PUSH2 0x617 JUMPI POP PUSH1 0x4 DUP3 MOD ISZERO DUP1 ISZERO PUSH2 0x617 JUMPI POP POP PUSH1 0x64 SWAP1 MOD ISZERO ISZERO SWAP1 JUMP JUMPDEST DUP3 DUP1 SLOAD PUSH1 0x1 DUP2 PUSH1 0x1 AND ISZERO PUSH2 0x100 MUL SUB AND PUSH1 0x2 SWAP1 DIV SWAP1 PUSH1 0x0 MSTORE PUSH1 0x20 PUSH1 0x0 KECCAK256 SWAP1 PUSH1 0x1F ADD PUSH1 0x20 SWAP1 DIV DUP2 ADD SWAP3 DUP3 PUSH1 0x1F LT PUSH2 0x260F JUMPI DUP1 MLOAD PUSH1 0xFF NOT AND DUP4 DUP1 ADD OR DUP6 SSTORE PUSH2 0x263C JUMP JUMPDEST DUP3 DUP1 ADD PUSH1 0x1 ADD DUP6 SSTORE DUP3 ISZERO PUSH2 0x263C JUMPI SWAP2 DUP3 ADD JUMPDEST DUP3 DUP2 GT ISZERO PUSH2 0x263C JUMPI DUP3 MLOAD DUP3 SSTORE SWAP2 PUSH1 0x20 ADD SWAP2 SWAP1 PUSH1 0x1 ADD SWAP1 PUSH2 0x2621 JUMP JUMPDEST POP PUSH2 0x2648 SWAP3 SWAP2 POP PUSH2 0x2681 JUMP JUMPDEST POP SWAP1 JUMP JUMPDEST PUSH1 0x40 DUP1 MLOAD PUSH1 0xC0 DUP2 ADD DUP3 MSTORE PUSH1 0x0 DUP1 DUP3 MSTORE PUSH1 0x20 DUP3 ADD DUP2 SWAP1 MSTORE SWAP2 DUP2 ADD DUP3 SWAP1 MSTORE PUSH1 0x60 DUP2 ADD DUP3 SWAP1 MSTORE PUSH1 0x80 DUP2 ADD DUP3 SWAP1 MSTORE PUSH1 0xA0 DUP2 ADD SWAP2 SWAP1 SWAP2 MSTORE SWAP1 JUMP JUMPDEST PUSH2 0x842 SWAP2 SWAP1 JUMPDEST DUP1 DUP3 GT ISZERO PUSH2 0x2648 JUMPI PUSH1 0x0 DUP2 SSTORE PUSH1 0x1 ADD PUSH2 0x2687 JUMP INVALID LOG1 PUSH6 0x627A7A723058 KECCAK256 EXTCODECOPY MSIZE BLOCKHASH RETURN ADDRESS ORIGIN 0x28 SWAP13 PUSH6 0x9E8C15D46005 0xfb CALLER LOG2 DUP14 DIV 0x5e 0xd3 PUSH2 0x70EF 0xf6 0x27 PUSH32 0x9C54D69B00290000000000000000000000000000000000000000000000000000 "
        },
        "methodIdentifiers": {
          "createPrizedLinkAccount(address,uint256,bytes)": "cf123e30",
          "createPrizedLinkTickets(bytes32)": "efb41d6b",
          "depositPrizedLinkAccount(address,uint256)": "033d086d",
          "getCurrentTotalDeposit()": "3a990db0",
          "getCurrentWinner()": "329bfc33",
          "getDeposit(bytes32)": "7a86983f",
          "getSavingAcount()": "9964476f",
          "getSavingAcountFor(address)": "82133e38",
          "getSavingSettings()": "529298b8",
          "getTicketById(uint256)": "27b7aabc",
          "getValidTicketIdFor(address)": "1112f0f7",
          "initialize(address,address,uint32,uint32,uint64,uint256,uint16,uint16,uint32)": "0af4ad1b",
          "prizeDraw(uint256)": "83f9f4d2"
        }
      }
    }
  }
}