{
  "contracts/libs/GluwaAccountModel.sol": {
    "GluwaAccountModel": {
      "abi": [
        {
          "constant": true,
          "inputs": [
            {
              "name": "startDate",
              "type": "uint256"
            },
            {
              "name": "contractAddress",
              "type": "address"
            },
            {
              "name": "owner",
              "type": "address"
            }
          ],
          "name": "generateAccountHash",
          "outputs": [
            {
              "name": "",
              "type": "bytes32"
            }
          ],
          "payable": false,
          "stateMutability": "pure",
          "type": "function"
        },
        {
          "constant": true,
          "inputs": [
            {
              "name": "id",
              "type": "uint256"
            },
            {
              "name": "deposit",
              "type": "uint256"
            },
            {
              "name": "contractAddress",
              "type": "address"
            },
            {
              "name": "owner",
              "type": "address"
            }
          ],
          "name": "generateDepositHash",
          "outputs": [
            {
              "name": "",
              "type": "bytes32"
            }
          ],
          "payable": false,
          "stateMutability": "pure",
          "type": "function"
        }
      ],
      "evm": {
        "bytecode": {
          "linkReferences": {},
          "object": "610215610030600b82828239805160001a6073146000811461002057610022565bfe5b5030600052607381538281f3fe73000000000000000000000000000000000000000030146080604052600436106100625763ffffffff7c010000000000000000000000000000000000000000000000000000000060003504166384cefce08114610067578063fd96809e146100ba575b600080fd5b6100a86004803603606081101561007d57600080fd5b5080359073ffffffffffffffffffffffffffffffffffffffff60208201358116916040013516610101565b60408051918252519081900360200190f35b6100a8600480360360808110156100d057600080fd5b5080359060208101359073ffffffffffffffffffffffffffffffffffffffff60408201358116916060013516610185565b6040805160208082018690527f536176696e674163636f756e7400000000000000000000000000000000000000828401526c0100000000000000000000000073ffffffffffffffffffffffffffffffffffffffff8087168202604d850152851602606183015282516055818403018152607590920190925280519101209392505050565b60408051602080820196909652808201949094526c0100000000000000000000000073ffffffffffffffffffffffffffffffffffffffff9384168102606086015291909216026074830152805160688184030181526088909201905280519101209056fea165627a7a723058203ba771b5399ce335123a347ba7abb3dfa3e7f904715a0f2b1cc463b6d68bf6db0029",
          "opcodes": "PUSH2 0x215 PUSH2 0x30 PUSH1 0xB DUP3 DUP3 DUP3 CODECOPY DUP1 MLOAD PUSH1 0x0 BYTE PUSH1 0x73 EQ PUSH1 0x0 DUP2 EQ PUSH2 0x20 JUMPI PUSH2 0x22 JUMP JUMPDEST INVALID JUMPDEST POP ADDRESS PUSH1 0x0 MSTORE PUSH1 0x73 DUP2 MSTORE8 DUP3 DUP2 RETURN INVALID PUSH20 0x0 ADDRESS EQ PUSH1 0x80 PUSH1 0x40 MSTORE PUSH1 0x4 CALLDATASIZE LT PUSH2 0x62 JUMPI PUSH4 0xFFFFFFFF PUSH29 0x100000000000000000000000000000000000000000000000000000000 PUSH1 0x0 CALLDATALOAD DIV AND PUSH4 0x84CEFCE0 DUP2 EQ PUSH2 0x67 JUMPI DUP1 PUSH4 0xFD96809E EQ PUSH2 0xBA JUMPI JUMPDEST PUSH1 0x0 DUP1 REVERT JUMPDEST PUSH2 0xA8 PUSH1 0x4 DUP1 CALLDATASIZE SUB PUSH1 0x60 DUP2 LT ISZERO PUSH2 0x7D JUMPI PUSH1 0x0 DUP1 REVERT JUMPDEST POP DUP1 CALLDATALOAD SWAP1 PUSH20 0xFFFFFFFFFFFFFFFFFFFFFFFFFFFFFFFFFFFFFFFF PUSH1 0x20 DUP3 ADD CALLDATALOAD DUP2 AND SWAP2 PUSH1 0x40 ADD CALLDATALOAD AND PUSH2 0x101 JUMP JUMPDEST PUSH1 0x40 DUP1 MLOAD SWAP2 DUP3 MSTORE MLOAD SWAP1 DUP2 SWAP1 SUB PUSH1 0x20 ADD SWAP1 RETURN JUMPDEST PUSH2 0xA8 PUSH1 0x4 DUP1 CALLDATASIZE SUB PUSH1 0x80 DUP2 LT ISZERO PUSH2 0xD0 JUMPI PUSH1 0x0 DUP1 REVERT JUMPDEST POP DUP1 CALLDATALOAD SWAP1 PUSH1 0x20 DUP2 ADD CALLDATALOAD SWAP1 PUSH20 0xFFFFFFFFFFFFFFFFFFFFFFFFFFFFFFFFFFFFFFFF PUSH1 0x40 DUP3 ADD CALLDATALOAD DUP2 AND SWAP2 PUSH1 0x60 ADD CALLDATALOAD AND PUSH2 0x185 JUMP JUMPDEST PUSH1 0x40 DUP1 MLOAD PUSH1 0x20 DUP1 DUP3 ADD DUP7 SWAP1 MSTORE PUSH32 0x536176696E674163636F756E7400000000000000000000000000000000000000 DUP3 DUP5 ADD MSTORE PUSH13 0x1000000000000000000000000 PUSH20 0xFFFFFFFFFFFFFFFFFFFFFFFFFFFFFFFFFFFFFFFF DUP1 DUP8 AND DUP3 MUL PUSH1 0x4D DUP6 ADD MSTORE DUP6 AND MUL PUSH1 0x61 DUP4 ADD MSTORE DUP3 MLOAD PUSH1 0x55 DUP2 DUP5 SUB ADD DUP2 MSTORE PUSH1 0x75 SWAP1 SWAP3 ADD SWAP1 SWAP3 MSTORE DUP1 MLOAD SWAP2 ADD KECCAK256 SWAP4 SWAP3 POP POP POP JUMP JUMPDEST PUSH1 0x40 DUP1 MLOAD PUSH1 0x20 DUP1 DUP3 ADD SWAP7 SWAP1 SWAP7 MSTORE DUP1 DUP3 ADD SWAP5 SWAP1 SWAP5 MSTORE PUSH13 0x1000000000000000000000000 PUSH20 0xFFFFFFFFFFFFFFFFFFFFFFFFFFFFFFFFFFFFFFFF SWAP4 DUP5 AND DUP2 MUL PUSH1 0x60 DUP7 ADD MSTORE SWAP2 SWAP1 SWAP3 AND MUL PUSH1 0x74 DUP4 ADD MSTORE DUP1 MLOAD PUSH1 0x68 DUP2 DUP5 SUB ADD DUP2 MSTORE PUSH1 0x88 SWAP1 SWAP3 ADD SWAP1 MSTORE DUP1 MLOAD SWAP2 ADD KECCAK256 SWAP1 JUMP INVALID LOG1 PUSH6 0x627A7A723058 KECCAK256 EXTCODESIZE 0xa7 PUSH18 0xB5399CE335123A347BA7ABB3DFA3E7F90471 GAS 0xf 0x2b SHR 0xc4 PUSH4 0xB6D68BF6 0xdb STOP 0x29 "
        },
        "methodIdentifiers": {
          "generateAccountHash(uint256,address,address)": "84cefce0",
          "generateDepositHash(uint256,uint256,address,address)": "fd96809e"
        }
      }
    }
  }
}