{
  "_format": "hh-sol-artifact-1",
  "contractName": "AccessControlUpgradeSafe",
  "sourceName": "contracts/mocks/SandboxGluwacoin.sol",
  "abi": [
    {
      "constant": true,
      "inputs": [
        {
          "name": "role",
          "type": "bytes32"
        }
      ],
      "name": "getRoleAdmin",
      "outputs": [
        {
          "name": "",
          "type": "bytes32"
        }
      ],
      "payable": false,
      "stateMutability": "view",
      "type": "function"
    },
    {
      "constant": false,
      "inputs": [
        {
          "name": "role",
          "type": "bytes32"
        },
        {
          "name": "account",
          "type": "address"
        }
      ],
      "name": "grantRole",
      "outputs": [],
      "payable": false,
      "stateMutability": "nonpayable",
      "type": "function"
    },
    {
      "constant": false,
      "inputs": [
        {
          "name": "role",
          "type": "bytes32"
        },
        {
          "name": "account",
          "type": "address"
        }
      ],
      "name": "renounceRole",
      "outputs": [],
      "payable": false,
      "stateMutability": "nonpayable",
      "type": "function"
    },
    {
      "constant": true,
      "inputs": [
        {
          "name": "role",
          "type": "bytes32"
        },
        {
          "name": "index",
          "type": "uint256"
        }
      ],
      "name": "getRoleMember",
      "outputs": [
        {
          "name": "",
          "type": "address"
        }
      ],
      "payable": false,
      "stateMutability": "view",
      "type": "function"
    },
    {
      "constant": true,
      "inputs": [
        {
          "name": "role",
          "type": "bytes32"
        },
        {
          "name": "account",
          "type": "address"
        }
      ],
      "name": "hasRole",
      "outputs": [
        {
          "name": "",
          "type": "bool"
        }
      ],
      "payable": false,
      "stateMutability": "view",
      "type": "function"
    },
    {
      "constant": true,
      "inputs": [],
      "name": "DEFAULT_ADMIN_ROLE",
      "outputs": [
        {
          "name": "",
          "type": "bytes32"
        }
      ],
      "payable": false,
      "stateMutability": "view",
      "type": "function"
    },
    {
      "constant": true,
      "inputs": [
        {
          "name": "c__0x9a509a8c",
          "type": "bytes32"
        }
      ],
      "name": "c_0x9a509a8c",
      "outputs": [],
      "payable": false,
      "stateMutability": "pure",
      "type": "function"
    },
    {
      "constant": true,
      "inputs": [
        {
          "name": "role",
          "type": "bytes32"
        }
      ],
      "name": "getRoleMemberCount",
      "outputs": [
        {
          "name": "",
          "type": "uint256"
        }
      ],
      "payable": false,
      "stateMutability": "view",
      "type": "function"
    },
    {
      "constant": true,
      "inputs": [
        {
          "name": "c__0xfa82a88d",
          "type": "bytes32"
        }
      ],
      "name": "c_0xfa82a88d",
      "outputs": [],
      "payable": false,
      "stateMutability": "pure",
      "type": "function"
    },
    {
      "constant": false,
      "inputs": [
        {
          "name": "role",
          "type": "bytes32"
        },
        {
          "name": "account",
          "type": "address"
        }
      ],
      "name": "revokeRole",
      "outputs": [],
      "payable": false,
      "stateMutability": "nonpayable",
      "type": "function"
    },
    {
      "constant": true,
      "inputs": [
        {
          "name": "c__0x1941386a",
          "type": "bytes32"
        }
      ],
      "name": "c_0x1941386a",
      "outputs": [],
      "payable": false,
      "stateMutability": "pure",
      "type": "function"
    },
    {
      "anonymous": false,
      "inputs": [
        {
          "indexed": true,
          "name": "role",
          "type": "bytes32"
        },
        {
          "indexed": true,
          "name": "account",
          "type": "address"
        },
        {
          "indexed": true,
          "name": "sender",
          "type": "address"
        }
      ],
      "name": "RoleGranted",
      "type": "event"
    },
    {
      "anonymous": false,
      "inputs": [
        {
          "indexed": true,
          "name": "role",
          "type": "bytes32"
        },
        {
          "indexed": true,
          "name": "account",
          "type": "address"
        },
        {
          "indexed": true,
          "name": "sender",
          "type": "address"
        }
      ],
      "name": "RoleRevoked",
      "type": "event"
    }
  ],
  "bytecode": "0x608060405234801561001057600080fd5b50611fc0806100206000396000f3fe6080604052600436106100af576000357c0100000000000000000000000000000000000000000000000000000000900463ffffffff168063248a9ca3146100b45780632f2ff15d1461010357806336568abe1461015e5780639010d07c146101b957806391d148541461023e578063a217fddf146102b1578063afd2abaf146102dc578063ca15c87314610317578063ccd7116714610366578063d547741f146103a1578063d71a68fa146103fc575b600080fd5b3480156100c057600080fd5b506100ed600480360360208110156100d757600080fd5b8101908080359060200190929190505050610437565b6040518082815260200191505060405180910390f35b34801561010f57600080fd5b5061015c6004803603604081101561012657600080fd5b8101908080359060200190929190803573ffffffffffffffffffffffffffffffffffffffff1690602001909291905050506104db565b005b34801561016a57600080fd5b506101b76004803603604081101561018157600080fd5b8101908080359060200190929190803573ffffffffffffffffffffffffffffffffffffffff1690602001909291905050506106de565b005b3480156101c557600080fd5b506101fc600480360360408110156101dc57600080fd5b8101908080359060200190929190803590602001909291905050506108f0565b604051808273ffffffffffffffffffffffffffffffffffffffff1673ffffffffffffffffffffffffffffffffffffffff16815260200191505060405180910390f35b34801561024a57600080fd5b506102976004803603604081101561026157600080fd5b8101908080359060200190929190803573ffffffffffffffffffffffffffffffffffffffff1690602001909291905050506109a6565b604051808215151515815260200191505060405180910390f35b3480156102bd57600080fd5b506102c6610a5c565b6040518082815260200191505060405180910390f35b3480156102e857600080fd5b50610315600480360360208110156102ff57600080fd5b8101908080359060200190929190505050610a64565b005b34801561032357600080fd5b506103506004803603602081101561033a57600080fd5b8101908080359060200190929190505050610a67565b6040518082815260200191505060405180910390f35b34801561037257600080fd5b5061039f6004803603602081101561038957600080fd5b8101908080359060200190929190505050610b12565b005b3480156103ad57600080fd5b506103fa600480360360408110156103c457600080fd5b8101908080359060200190929190803573ffffffffffffffffffffffffffffffffffffffff169060200190929190505050610b15565b005b34801561040857600080fd5b506104356004803603602081101561041f57600080fd5b8101908080359060200190929190505050610d18565b005b60006104657f30fc8633ffcb712d9f90a3c85fcd2bc5691b07661b58a2508344557faa83e26e600102610a64565b6104917f8c660f8c1c114e4c692bbcb582c50426bb2fa02b9681b3d8739c42c341cc07a5600102610a64565b6104bd7f16588b723c6c551aa4d9a7d16d8ded134801ef2c2a4ea29021eec661545dab54600102610a64565b60336000838152602001908152602001600020600201549050919050565b6105077fb0149405a9f60d2bdfd1bd098b66738fb6f55213e161f96285a4a1f9faf6aaba600102610a64565b6105337f44333d6ec5f67307e5a2dc9fa0c7904c2af03dd34063ea5bbe6445a5137d86a0600102610a64565b61055f7f2d0bc46d27039ec9b579374f38f591d0e178e4b08ec9caa498c2a9a204f87a47600102610a64565b61058b7f5a0d71d502392a1406245a197847cbeac3c923abb6ddfc2117622e7a9fc1648c600102610a64565b6105b260336000848152602001908152602001600020600201546105ad610d1b565b6109a6565b151561064c576040517f08c379a000000000000000000000000000000000000000000000000000000000815260040180806020018281038252602f8152602001807f416363657373436f6e74726f6c3a2073656e646572206d75737420626520616e81526020017f2061646d696e20746f206772616e74000000000000000000000000000000000081525060400191505060405180910390fd5b6106787f512159bb4f95bdee532e11d28b7d8fa09212b733999599155cbe6283a71e5f47600102610a64565b6106a47fd02ae7c75e20faab380555bc9bbdbb1c135d07c3657893c4da12d87a4e7908ef600102610a64565b6106d07f2d24e275ac373edd22c1fcfa98ddeeebf796b7bcd7928d2e7360d50e7b9e1c38600102610a64565b6106da8282610da7565b5050565b61070a7f5379871e435ccaa81beb471bad2233b0aaf782f4063c7a9569802b5022aca5d0600102610a64565b6107367f2781bdca01716fd8efa0e0aadb34a31cd67a0de455adfe4e7af7a9c21bb06fd9600102610a64565b6107627fa625d535581871c784129f6317d3d41a8bc058b91ef9bbc0a7033205d9929757600102610a64565b61078e7feec8206a084ed655abf3f512f8262bf6675c7f74581f3378649d384cc3011bbc600102610a64565b610796610d1b565b73ffffffffffffffffffffffffffffffffffffffff168173ffffffffffffffffffffffffffffffffffffffff1614151561085e576040517f08c379a000000000000000000000000000000000000000000000000000000000815260040180806020018281038252602f8152602001807f416363657373436f6e74726f6c3a2063616e206f6e6c792072656e6f756e636581526020017f20726f6c657320666f722073656c66000000000000000000000000000000000081525060400191505060405180910390fd5b61088a7fe7230669bca145431fe6ad084a816071976d8f1b02b966fb60171e3dd3946c21600102610a64565b6108b67f06cb25c399916fccfadadb673b08ca92d6cae7475028501ed54922b811a20ad8600102610a64565b6108e27f2fe91ce2b2e888d23d1f3c03036fc6b0b3af764761354c04659e163170ab3ea8600102610a64565b6108ec8282610f74565b5050565b600061091e7fb983b3936f1afababd90dbf660b7005cc01dc807a0812d8d8326405bb8a1cc94600102610a64565b61094a7ff88fd38bc2593942623f52c692c33cb6e8022bf5cb6329a80296c3169516d1df600102610a64565b6109767f54afbc72f972b42502e93ef993bcda0fd22fb9f2fe4da1b4f28b99b9ec9292c8600102610a64565b61099e826033600086815260200190815260200160002060000161114190919063ffffffff16565b905092915050565b60006109d47fb65efe463c25ae82d20e0f7e4c28d7a6351157baffb633a2cbc1bf96aeeb89d3600102610a64565b610a007f7d093c766c1c64310e6fabb3a0e3578715150ad6b1d9270d176172d50d1a01d4600102610a64565b610a2c7f4f50af5c27585fe9c951b0b7a76df5ff42cc47465ed470ec9803fbfe3aaf9527600102610a64565b610a5482603360008681526020019081526020016000206000016111e090919063ffffffff16565b905092915050565b600060010281565b50565b6000610a957f19efaf760aea5e3001510054717488a6dd9b94c9997c65d279e6ceecf8d35bfe600102610a64565b610ac17f6726d6abe671c732875c90b614e28d5ef5c800ca001cf18da5b7d188df8ed44e600102610a64565b610aed7ff785180a1eb1c339890b46941ee7a3e9bb257be311f3eeaae1b7499efe63e648600102610a64565b610b0b60336000848152602001908152602001600020600001611294565b9050919050565b50565b610b417f53e19a5a6929dc1cce85602f5961747bc35791f4c4eb4b4c0279ed9dfa32f800600102610a64565b610b6d7f017a747fafe579fc770ba38d3987f6136841e05cd40090109533e28b7b5eac75600102610a64565b610b997fe4d1ebb24d68c2b54cef4b99be831d6286c04e3691cb9be817d1389fff39b6d5600102610a64565b610bc57fe5230b3666611c4456fd684d1dd9bafd3de7f71fab1ad81537d24de8bd8d59b4600102610a64565b610bec6033600084815260200190815260200160002060020154610be7610d1b565b6109a6565b1515610c86576040517f08c379a00000000000000000000000000000000000000000000000000000000081526004018080602001828103825260308152602001807f416363657373436f6e74726f6c3a2073656e646572206d75737420626520616e81526020017f2061646d696e20746f207265766f6b650000000000000000000000000000000081525060400191505060405180910390fd5b610cb27f33e9334d1d19c53350e32c81f1ff3593459d28f1865430c35a44097d92ee6725600102610a64565b610cde7fb836153154f547e23767d5a388abb05a4c68cd7a8b579e4e91d9f8c638ad46a4600102610a64565b610d0a7f4d62ef917060aa62062746fc6a153722d1dbbdd07889124539fac6b22e215b1f600102610a64565b610d148282610f74565b5050565b50565b6000610d497fd3ec971f1c1cc20d1bc63c03461a6251da98ef03f48f7526c739f9aeb2cdecd7600102610d18565b610d757facc6e0159aaa1aca3862a0d5e1c3f634c70f0c287258dd1b30d9e5cd1694a176600102610d18565b610da17f027cd264501c5511be5a3325ffb3a3f9f642b6590dec255c98dc4dc15696d663600102610d18565b33905090565b610dd37fb30e1dd49160d3c9cf718017b1174b0e6b032ce8d75598dc58033db3f017d4b0600102610a64565b610dff7f8289e920a3991776b700a8d89cd1effd60765d90d879588a159ae631f562a5c4600102610a64565b610e2b7f7ce19d7bde3202b6cb1b4a8e2a61e2a6ca58cb25fc104b87b93b81cf99426e02600102610a64565b610e53816033600085815260200190815260200160002060000161132d90919063ffffffff16565b15610f4357610e847f714883bafe314d2de916b639936598bf90d0b24aa4ead0dda797cdde2ab1095e600102610a64565b610eb07ffe785bb21613e5edd58f766831a67162f10068de53144c8934e429813d9f3bb4600102610a64565b610edc7f028ffb443eeb70c04913e19956cc83f8eb20b32a1b8164ead7c664d3add6cafb600102610a64565b610ee4610d1b565b73ffffffffffffffffffffffffffffffffffffffff168173ffffffffffffffffffffffffffffffffffffffff16837f2f8788117e7eff1d82e926ec794901d17c78024a50270940304540a733656f0d60405160405180910390a4610f70565b610f6f7fc66ae3396d738ede72a8ffe67e903a198805d1e6f6000440d9077a0bad9971ef600102610a64565b5b5050565b610fa07f0e295b4ee4cd5fa7ce91d96214f85629bac3f3296a3b9c7d6721086c173476c0600102610a64565b610fcc7f8554f62565f276297d50cf32fd48eabc620ec20e8bf4867672e16b0a8d1dcde7600102610a64565b610ff87ffaa477ae9eacc8276a3423deb042036251665d4f828753b5f49ccddf2b32c2e0600102610a64565b61102081603360008581526020019081526020016000206000016113e190919063ffffffff16565b15611110576110517fecd3d0a6d175cd3eb30c8160ff8c0a1477a4183c1aeccd0a58dae43a4117657f600102610a64565b61107d7f3e41677f4fc3a9fa2b448e1c18a983ea696ead08a27419e1b43d47673c6b7cf3600102610a64565b6110a97f8c3856901091b54b75f856348c10521f1e0d98d2731d670801d3b8dbcd5539ef600102610a64565b6110b1610d1b565b73ffffffffffffffffffffffffffffffffffffffff168173ffffffffffffffffffffffffffffffffffffffff16837ff6391f5c32d9c69d2a47ea670b442974b53935d1edc7fd64eb21e047a839171b60405160405180910390a461113d565b61113c7f235fb31fd2e74f7e871f6afa40da60526294c79eabe5b1724b43ed9fd52a81a4600102610a64565b5b5050565b600061116f7f7ac66eef1b47a7d2e9b51be8a9b91bba7e2322fc5e1a4f47c0e59dfbe73fe41f600102611495565b61119b7f7e30d9df5fc9d69a068ba9c487e47ac080219eeb6b54d2b4f7a6512cbf9a0d7f600102611495565b6111c77ff7509d05609368274fa8d48d6b73c38533a88d8ab9fe01e0e187e0d04d48a1ae600102611495565b6111d48360000183611498565b60019004905092915050565b600061120e7fabf9e400a4fb441469bdad56dce1ec2ea1cf683fb669e34e66fd2a93a330fd7f600102611495565b61123a7f7de5d45b2a062aaeb10df38ed3ad909919142de9467570126e6be8a31b5c8a0c600102611495565b6112667f55e0428d2da4270a91f2ae6cbbea4712cb440b9e315b9436a21c5ab4b93c4ca9600102611495565b61128c836000018373ffffffffffffffffffffffffffffffffffffffff16600102611696565b905092915050565b60006112c27f28dd0d69d28dd429e8b8997d35815b20a8236b27eb2243c190dcc0ddd793debe600102611495565b6112ee7f1c095d87e330947ce0d63696d16cc772fdf08a3f375c2b508b974a27cd95285e600102611495565b61131a7ffa1d249593efd3baa972f1577920aab0503ea3bb62494b1421edf7be2f43e976600102611495565b6113268260000161173e565b9050919050565b600061135b7fcb8373ef59b53e1f948978b53bf96f27fd2da40f6a45291eca046acdf928581e600102611495565b6113877fae2ff531fec42627690275973b8ad740e08413ee514605a84a317071434797bf600102611495565b6113b37fa39ac82d20ed8aa9796d4645ac77a76d89bdfd3980f310714ba2c9eaa65d6d4b600102611495565b6113d9836000018373ffffffffffffffffffffffffffffffffffffffff166001026117d3565b905092915050565b600061140f7f19e480c4ed5999a0f6c125473f645a0fc117467a8e5703c1b67b87d9c86461a9600102611495565b61143b7f9e5bb5a183d9ed6d7e85b89b671949a7f03f958e68547904975d596441f3ccd7600102611495565b6114677f53062619d8baf53f2756955241d586a55abe1f4fbd570e8271e98e86817436a5600102611495565b61148d836000018373ffffffffffffffffffffffffffffffffffffffff16600102611a84565b905092915050565b50565b60006114c67f9f262375d0ded8d9cd48f21920b2bd6ef0dd9891777a93196d6364a309fe4f5b600102611495565b6114f27f201e51801c4c2aded9373bf92efd8a26cd6e8c3f692c9c9f1756a73e4ef47e27600102611495565b61151e7f6cbcf19836a6a02f92b5874a21f9545ef0b7917fadd84b51148b95ee836e0fe2600102611495565b61154a7fc3eddc064c1f41b10e0e024141a978c7e059c7bf17ac332911a58fcabfe9988a600102611495565b8183600001805490501115156115ee576040517f08c379a00000000000000000000000000000000000000000000000000000000081526004018080602001828103825260228152602001807f456e756d657261626c655365743a20696e646578206f7574206f6620626f756e81526020017f647300000000000000000000000000000000000000000000000000000000000081525060400191505060405180910390fd5b61161a7f1cfffa0ad0c286047eefc7627d5cbb1f30a874ac8429aef1b88c9643defbd812600102611495565b6116467f8c55124a4d31f2b42f355f42eceb7e4c2d8c8855231d8686dd7981f8e666091c600102611495565b6116727fdab134af642e5c2d59fb3ac3cce78ab97b3c5c97d4a35c937883fe9d0d160d27600102611495565b826000018281548110151561168357fe5b9060005260206000200154905092915050565b60006116c47f3037fbb3ab65fd9999096de04310313a1e94eed569ceccfe5b38bb71dd02790e600102611495565b6116f07f545721a78abba8f4dd61dbfb050b7451e9eeb82fcb36ed25619a57f0e77ae9e5600102611495565b61171c7fba70ad9aa9369f46f6beb3f8586e58d68b34c819282dc4aff7f98134959f22da600102611495565b6000836001016000848152602001908152602001600020541415905092915050565b600061176c7f698b3eca7c91c19d38e387219466b03b2821e3849ac684bfd648a36221d09be5600102611495565b6117987fc660b8a113285d18751146259e3349d8648254b44055bf48a0119974d0b5db28600102611495565b6117c47f0e318c50f3f09d86fdb1b65d41d85c6f5b94882583e674aead8d4b23bd91a7b9600102611495565b81600001805490509050919050565b60006118017f40d68215e803cb1717bf4d33c5e09c861554eb92219a19183e4a81a5e4a37ce6600102611495565b61182d7f617dc7e3d2cc32c81c4592cd6d31d1aa401b99588fa715fa7322ee79201a4fca600102611495565b6118597f0638df41745ab78d3d275029a71d6e3610e8359150695a51482e4e6d11f6278a600102611495565b6118638383611696565b15156119f5576118957f1316895c243bc3e2f6a170b2f52934654fca20cd49e0b939406d750df6d8a295600102611495565b6118c17f0422386d1d2a76a969025e42bba5fbdce120264183a3ac5f64881c75dd7679a1600102611495565b6118ed7fa4a4613612050463a1babb6e7d9195586b380f85134ca2588bb5cca9c9bf1681600102611495565b826000018290806001815401808255809150509060018203906000526020600020016000909192909190915055506119477f93b89b5c5517ca841ee24f656f2e858ce09700ae845a16c62a4130e78051b7d5600102611495565b6119737f92c8b4261409bfac7f5115a8081249983ab5e788f101dd4cd66d7c73fc45b4ec600102611495565b8260000180549050836001016000848152602001908152602001600020819055506119c07f84134868669c80f0f9cf10b187ef90beccede6ccb1cc21f613b109fa280f1369600102611495565b6119ec7f37e9ade0fb605d8221f3364f54622e21b6de8f84aa5f538d31fde23234a485a8600102611495565b60019050611a7e565b611a217f0b3a15e5e94cff312610a7834ffdac82d66c3c4d5c8bf8207d819fba9ef82a98600102611495565b611a4d7fe74dc3c6920d1c37ccc9302b4536c6199dac8c0d027e94cf0fd9b348b8b7be42600102611495565b611a797fcc4c3113d119ba5c89d4ed2e4108d90a96197f0174ff462aa54710d2e5b0b381600102611495565b600090505b92915050565b6000611ab27f20dad5a2342a90e578ebbe744026d5c9ca9dc40b068617ab1fa64e8447f6599c600102611495565b611ade7fa993e4ef486a8e5f38433dff9f5a20b46c4c6c4aba0cd6e274e8fc216cc567d4600102611495565b611b0a7f7b76480f98a41a1f9ccb084e0bd41f30f314e3f55d0e9238d4c7ba05b71edf03600102611495565b6000836001016000848152602001908152602001600020549050611b507fbbe167f0062fa036bd1a92f9a002a84eb9d10fb190b5becc032c8222e1e73272600102611495565b611b7c7ff45300f67596189bf78656789b2863a1dfba81c9ab612e75c4cbd870b4184a7b600102611495565b600081141515611f0457611bb27fbebf90f7073c68fdef1dfea1f4470b030c28ac3d59398af26a32bddcd5fcbed9600102611495565b611bde7f118b76cf095562ef5bb45567874ba5b86689b16fd8e7164e151d8795e0a83a3f600102611495565b611c0a7f10ebb6db3bbabc8728503f41d6bf7bc0124f0935ef5e935b0e97a19058166f21600102611495565b6000600182039050611c3e7feca580d0fec2089e2593adaecd68141839ae73b8f8739ca116ab6bab6c38d1fd600102611495565b611c6a7fc5bca0f19e2506355de371bc9ecfdca65e02a231e2a7cc1feb127de959d04beb600102611495565b600060018660000180549050039050611ca57f2e128e5894b228fe43f9b0086798a4c676646be017f098805964086a9f0dd794600102611495565b611cd17f7c20631e7151db252a41f2d8fd8025c73c17d132b6d457ace42c1066a2d333c7600102611495565b60008660000182815481101515611ce457fe5b90600052602060002001549050611d1c7e24599a621ec0dcf856f9b5a5219e821f395976552025bb3b28e9876cfbdf46600102611495565b611d487f5d93efee7be5cccb3e6c33544c2199b0989ef80b403df2acb2eb473144d4210a600102611495565b808760000184815481101515611d5a57fe5b9060005260206000200181905550611d947f6ca15e35f854a5046a8a8a6b6bf793e5c8be06eb758bb2719c9ea008a40371f1600102611495565b611dc07f11e0892029851baa859ec511a61a65ce908ce79afea2da3e356a4cddd5b97db8600102611495565b6001830187600101600083815260200190815260200160002081905550611e097f6fe244da47ce47d92ee4953567c99cbbfbc9f35fd6241bfec43def00649a29f4600102611495565b611e357fc18afb152696bf0bfc4b32d782b3ecbd4c4c6704f06d579c2a2189321893b14e600102611495565b866000018054801515611e4457fe5b60019003818190600052602060002001600090559055611e867f264c9531d3d9873a17dc9cc6c6ab7c894273d25a9cbb9051a90e13b7913e1921600102611495565b86600101600087815260200190815260200160002060009055611ecb7fdd31c6008c9124c88b250c3d61672e2be9a3ce5edb6ff7d838cd8c0ae83820d3600102611495565b611ef77f69dbfd48f3664958e9d89346c21bd6d0b81c73a17b36891a1cdb5dc6edc82736600102611495565b6001945050505050611f8e565b611f307fb541cd7e25de5407251760a153d2c97a490a4d54b15e0c71ad4d702b05bca3a6600102611495565b611f5c7ff7b4c61f90944e257a7b6d5b308ca2842497a1045e0c16ade06d1e15bf02ae4a600102611495565b611f887fb4e9303fef2744c105921491c78b454f9b0dd552b8a1fd930cbb55dd6ca1ef08600102611495565b60009150505b9291505056fea165627a7a72305820fc8480cb496c92be0c8af93f91d79bb9ade17ccc9f31085c3bd7af83faf1589a0029",
  "linkReferences": {},
  "deployedLinkReferences": {}
}