{
  "_format": "hh-sol-artifact-1",
  "contractName": "Address",
  "sourceName": "contracts/mocks/SandboxGluwacoin.sol",
  "abi": [
    {
      "constant": true,
      "inputs": [
        {
          "name": "c__0x0cdfe5da",
          "type": "bytes32"
        }
      ],
      "name": "c_0x0cdfe5da",
      "outputs": [],
      "payable": false,
      "stateMutability": "pure",
      "type": "function"
    }
  ],
  "bytecode": "0x60b561002f600b82828239805160001a6073146000811461001f57610021565bfe5b5030600052607381538281f3fe73000000000000000000000000000000000000000030146080604052600436106056576000357c0100000000000000000000000000000000000000000000000000000000900463ffffffff168063d61edbbf14605b575b600080fd5b608460048036036020811015606f57600080fd5b81019080803590602001909291905050506086565b005b5056fea165627a7a723058205e5b3663953955f29c4f44a31e1d9db433029f1f9c4152e0287c0f2476fba3250029",
  "linkReferences": {},
  "deployedLinkReferences": {}
}