{
  "_format": "hh-sol-artifact-1",
  "contractName": "Context",
  "sourceName": "contracts/mocks/SandboxGluwacoin.sol",
  "abi": [
    {
      "constant": true,
      "inputs": [
        {
          "name": "c__0x1941386a",
          "type": "bytes32"
        }
      ],
      "name": "c_0x1941386a",
      "outputs": [],
      "payable": false,
      "stateMutability": "pure",
      "type": "function"
    }
  ],
  "bytecode": "0x608060405234801561001057600080fd5b5060aa8061001f6000396000f3fe608060405260043610603f576000357c0100000000000000000000000000000000000000000000000000000000900463ffffffff168063d71a68fa146044575b600080fd5b348015604f57600080fd5b50607960048036036020811015606457600080fd5b8101908080359060200190929190505050607b565b005b5056fea165627a7a72305820c6ed5a65d2971ff7f355bc1f45f62aef6c9a73558043addab61d84a5ecdbcba20029",
  "linkReferences": {},
  "deployedLinkReferences": {}
}