{
  "_format": "hh-sol-artifact-1",
  "contractName": "ECDSA",
  "sourceName": "contracts/mocks/SandboxGluwacoin.sol",
  "abi": [
    {
      "constant": true,
      "inputs": [
        {
          "name": "c__0x7e01b040",
          "type": "bytes32"
        }
      ],
      "name": "c_0x7e01b040",
      "outputs": [],
      "payable": false,
      "stateMutability": "pure",
      "type": "function"
    }
  ],
  "bytecode": "0x60b561002f600b82828239805160001a6073146000811461001f57610021565bfe5b5030600052607381538281f3fe73000000000000000000000000000000000000000030146080604052600436106056576000357c0100000000000000000000000000000000000000000000000000000000900463ffffffff168063d5e5a54e14605b575b600080fd5b608460048036036020811015606f57600080fd5b81019080803590602001909291905050506086565b005b5056fea165627a7a72305820a8acd72cd5fabe7a3238b33ad5b3d8f987999d8fbfa86bbc9be7ce8647a207dd0029",
  "linkReferences": {},
  "deployedLinkReferences": {}
}