{
  "_format": "hh-sol-artifact-1",
  "contractName": "ETHlessTransfer",
  "sourceName": "contracts/mocks/SandboxGluwacoin.sol",
  "abi": [
    {
      "constant": true,
      "inputs": [
        {
          "name": "c__0x62075a9f",
          "type": "bytes32"
        }
      ],
      "name": "c_0x62075a9f",
      "outputs": [],
      "payable": false,
      "stateMutability": "pure",
      "type": "function"
    }
  ],
  "bytecode": "0x608060405234801561001057600080fd5b5060aa8061001f6000396000f3fe608060405260043610603f576000357c0100000000000000000000000000000000000000000000000000000000900463ffffffff168063b3caa4e0146044575b600080fd5b348015604f57600080fd5b50607960048036036020811015606457600080fd5b8101908080359060200190929190505050607b565b005b5056fea165627a7a72305820fd54d89af67a321df91666b0ad5def4f034719c30d0f6edbc8867d0a9cf3b0790029",
  "linkReferences": {},
  "deployedLinkReferences": {}
}