{
  "_format": "hh-sol-artifact-1",
  "contractName": "ExtendedERC20",
  "sourceName": "contracts/mocks/SandboxGluwacoin.sol",
  "abi": [
    {
      "constant": true,
      "inputs": [],
      "name": "name",
      "outputs": [
        {
          "name": "",
          "type": "string"
        }
      ],
      "payable": false,
      "stateMutability": "view",
      "type": "function"
    },
    {
      "constant": false,
      "inputs": [
        {
          "name": "spender",
          "type": "address"
        },
        {
          "name": "amount",
          "type": "uint256"
        }
      ],
      "name": "approve",
      "outputs": [
        {
          "name": "",
          "type": "bool"
        }
      ],
      "payable": false,
      "stateMutability": "nonpayable",
      "type": "function"
    },
    {
      "constant": true,
      "inputs": [],
      "name": "totalSupply",
      "outputs": [
        {
          "name": "",
          "type": "uint256"
        }
      ],
      "payable": false,
      "stateMutability": "view",
      "type": "function"
    },
    {
      "constant": false,
      "inputs": [
        {
          "name": "sender",
          "type": "address"
        },
        {
          "name": "recipient",
          "type": "address"
        },
        {
          "name": "amount",
          "type": "uint256"
        }
      ],
      "name": "transferFrom",
      "outputs": [
        {
          "name": "",
          "type": "bool"
        }
      ],
      "payable": false,
      "stateMutability": "nonpayable",
      "type": "function"
    },
    {
      "constant": true,
      "inputs": [],
      "name": "decimals",
      "outputs": [
        {
          "name": "",
          "type": "uint8"
        }
      ],
      "payable": false,
      "stateMutability": "view",
      "type": "function"
    },
    {
      "constant": false,
      "inputs": [
        {
          "name": "spender",
          "type": "address"
        },
        {
          "name": "addedValue",
          "type": "uint256"
        }
      ],
      "name": "increaseAllowance",
      "outputs": [
        {
          "name": "",
          "type": "bool"
        }
      ],
      "payable": false,
      "stateMutability": "nonpayable",
      "type": "function"
    },
    {
      "constant": true,
      "inputs": [
        {
          "name": "account",
          "type": "address"
        }
      ],
      "name": "balanceOf",
      "outputs": [
        {
          "name": "",
          "type": "uint256"
        }
      ],
      "payable": false,
      "stateMutability": "view",
      "type": "function"
    },
    {
      "constant": true,
      "inputs": [],
      "name": "symbol",
      "outputs": [
        {
          "name": "",
          "type": "string"
        }
      ],
      "payable": false,
      "stateMutability": "view",
      "type": "function"
    },
    {
      "constant": false,
      "inputs": [
        {
          "name": "spender",
          "type": "address"
        },
        {
          "name": "subtractedValue",
          "type": "uint256"
        }
      ],
      "name": "decreaseAllowance",
      "outputs": [
        {
          "name": "",
          "type": "bool"
        }
      ],
      "payable": false,
      "stateMutability": "nonpayable",
      "type": "function"
    },
    {
      "constant": false,
      "inputs": [
        {
          "name": "recipient",
          "type": "address"
        },
        {
          "name": "amount",
          "type": "uint256"
        }
      ],
      "name": "transfer",
      "outputs": [
        {
          "name": "",
          "type": "bool"
        }
      ],
      "payable": false,
      "stateMutability": "nonpayable",
      "type": "function"
    },
    {
      "constant": true,
      "inputs": [
        {
          "name": "c__0xc2817dd9",
          "type": "bytes32"
        }
      ],
      "name": "c_0xc2817dd9",
      "outputs": [],
      "payable": false,
      "stateMutability": "pure",
      "type": "function"
    },
    {
      "constant": true,
      "inputs": [
        {
          "name": "c__0x1941386a",
          "type": "bytes32"
        }
      ],
      "name": "c_0x1941386a",
      "outputs": [],
      "payable": false,
      "stateMutability": "pure",
      "type": "function"
    },
    {
      "constant": true,
      "inputs": [
        {
          "name": "owner",
          "type": "address"
        },
        {
          "name": "spender",
          "type": "address"
        }
      ],
      "name": "allowance",
      "outputs": [
        {
          "name": "",
          "type": "uint256"
        }
      ],
      "payable": false,
      "stateMutability": "view",
      "type": "function"
    },
    {
      "inputs": [
        {
          "name": "name",
          "type": "string"
        },
        {
          "name": "symbol",
          "type": "string"
        },
        {
          "name": "decimals",
          "type": "uint8"
        }
      ],
      "payable": false,
      "stateMutability": "nonpayable",
      "type": "constructor"
    },
    {
      "anonymous": false,
      "inputs": [
        {
          "indexed": true,
          "name": "minter",
          "type": "address"
        },
        {
          "indexed": true,
          "name": "_mintTo",
          "type": "address"
        },
        {
          "indexed": false,
          "name": "_value",
          "type": "uint256"
        }
      ],
      "name": "Mint",
      "type": "event"
    },
    {
      "anonymous": false,
      "inputs": [
        {
          "indexed": true,
          "name": "burner",
          "type": "address"
        },
        {
          "indexed": true,
          "name": "_burnFrom",
          "type": "address"
        },
        {
          "indexed": false,
          "name": "_value",
          "type": "uint256"
        }
      ],
      "name": "Burnt",
      "type": "event"
    },
    {
      "anonymous": false,
      "inputs": [
        {
          "indexed": true,
          "name": "from",
          "type": "address"
        },
        {
          "indexed": true,
          "name": "to",
          "type": "address"
        },
        {
          "indexed": false,
          "name": "value",
          "type": "uint256"
        }
      ],
      "name": "Transfer",
      "type": "event"
    },
    {
      "anonymous": false,
      "inputs": [
        {
          "indexed": true,
          "name": "owner",
          "type": "address"
        },
        {
          "indexed": true,
          "name": "spender",
          "type": "address"
        },
        {
          "indexed": false,
          "name": "value",
          "type": "uint256"
        }
      ],
      "name": "Approval",
      "type": "event"
    }
  ],
  "bytecode": "0x60806040523480156200001157600080fd5b50604051620028ab380380620028ab833981018060405260608110156200003757600080fd5b8101908080516401000000008111156200005057600080fd5b828101905060208101848111156200006757600080fd5b81518560018202830111640100000000821117156200008557600080fd5b50509291906020018051640100000000811115620000a257600080fd5b82810190506020810184811115620000b957600080fd5b8151856001820283011164010000000082111715620000d757600080fd5b505092919060200180519060200190929190505050620001287ea73a43ab3e0f89f967cf0582bcb4281929fbb64d690883b7a99b36b54752d5600102620002ec640100000000026401000000009004565b620001657f960b254ce6680daa7ca27d9035821ce51d8d53cb9951090718eeadb727002626600102620002ec640100000000026401000000009004565b620001a27ffa2cd76d39e8572f447d5282e39133e047c0357aabfff54ccb3b5e7c6f0cf003600102620002ec640100000000026401000000009004565b8260039080519060200190620001ba929190620002ef565b50620001f87f607efdcf51c7e2651792ea88ef8f3181d07c6f87c31cf4eca699f1401b00f110600102620002ec640100000000026401000000009004565b620002357fedf0773b1fb21deb7ff0aabd7c99d24bcf01235ffecdc8a8b44118989fb9993a600102620002ec640100000000026401000000009004565b81600490805190602001906200024d929190620002ef565b506200028b7f0627b2e5f1d0950474f3c07f863678694f6ba75f4342a40499e3d2125e2860e0600102620002ec640100000000026401000000009004565b620002c87fcc2e4435c2c6d5db407ced0ce78064f0086ea15efbe6ccd4365e748a9851b2d2600102620002ec640100000000026401000000009004565b80600560006101000a81548160ff021916908360ff1602179055505050506200039e565b50565b828054600181600116156101000203166002900490600052602060002090601f016020900481019282601f106200033257805160ff191683800117855562000363565b8280016001018555821562000363579182015b828111156200036257825182559160200191906001019062000345565b5b50905062000372919062000376565b5090565b6200039b91905b80821115620003975760008160009055506001016200037d565b5090565b90565b6124fd80620003ae6000396000f3fe6080604052600436106100c5576000357c0100000000000000000000000000000000000000000000000000000000900463ffffffff16806306fdde03146100ca578063095ea7b31461015a57806318160ddd146101cd57806323b872dd146101f8578063313ce5671461028b57806339509351146102bc57806370a082311461032f57806395d89b4114610394578063a457c2d714610424578063a9059cbb14610497578063be59ca121461050a578063d71a68fa14610545578063dd62ed3e14610580575b600080fd5b3480156100d657600080fd5b506100df610605565b6040518080602001828103825283818151815260200191508051906020019080838360005b8381101561011f578082015181840152602081019050610104565b50505050905090810190601f16801561014c5780820380516001836020036101000a031916815260200191505b509250505060405180910390f35b34801561016657600080fd5b506101b36004803603604081101561017d57600080fd5b81019080803573ffffffffffffffffffffffffffffffffffffffff1690602001909291908035906020019092919050505061072b565b604051808215151515815260200191505060405180910390f35b3480156101d957600080fd5b506101e2610825565b6040518082815260200191505060405180910390f35b34801561020457600080fd5b506102716004803603606081101561021b57600080fd5b81019080803573ffffffffffffffffffffffffffffffffffffffff169060200190929190803573ffffffffffffffffffffffffffffffffffffffff169060200190929190803590602001909291905050506108b3565b604051808215151515815260200191505060405180910390f35b34801561029757600080fd5b506102a0610c42565b604051808260ff1660ff16815260200191505060405180910390f35b3480156102c857600080fd5b50610315600480360360408110156102df57600080fd5b81019080803573ffffffffffffffffffffffffffffffffffffffff16906020019092919080359060200190929190505050610cdd565b604051808215151515815260200191505060405180910390f35b34801561033b57600080fd5b5061037e6004803603602081101561035257600080fd5b81019080803573ffffffffffffffffffffffffffffffffffffffff169060200190929190505050610e5c565b6040518082815260200191505060405180910390f35b3480156103a057600080fd5b506103a9610f28565b6040518080602001828103825283818151815260200191508051906020019080838360005b838110156103e95780820151818401526020810190506103ce565b50505050905090810190601f1680156104165780820380516001836020036101000a031916815260200191505b509250505060405180910390f35b34801561043057600080fd5b5061047d6004803603604081101561044757600080fd5b81019080803573ffffffffffffffffffffffffffffffffffffffff1690602001909291908035906020019092919050505061104e565b604051808215151515815260200191505060405180910390f35b3480156104a357600080fd5b506104f0600480360360408110156104ba57600080fd5b81019080803573ffffffffffffffffffffffffffffffffffffffff16906020019092919080359060200190929190505050611379565b604051808215151515815260200191505060405180910390f35b34801561051657600080fd5b506105436004803603602081101561052d57600080fd5b8101908080359060200190929190505050611473565b005b34801561055157600080fd5b5061057e6004803603602081101561056857600080fd5b8101908080359060200190929190505050611476565b005b34801561058c57600080fd5b506105ef600480360360408110156105a357600080fd5b81019080803573ffffffffffffffffffffffffffffffffffffffff169060200190929190803573ffffffffffffffffffffffffffffffffffffffff169060200190929190505050611479565b6040518082815260200191505060405180910390f35b60606106337f0835806103caf86ec620d3c3cb2169f4238d515e03ba1546071fd384fd8b6b5e600102611473565b61065f7fb5d7e5eb85918dd62dc86d7613d07ccc8dca3be0ddc937a86480268404d29e1c600102611473565b61068b7f25a94c8cba39ca040bab72af162df2859785272e3c5147f48fea7d83d1a987d6600102611473565b60038054600181600116156101000203166002900480601f0160208091040260200160405190810160405280929190818152602001828054600181600116156101000203166002900480156107215780601f106106f657610100808354040283529160200191610721565b820191906000526020600020905b81548152906001019060200180831161070457829003601f168201915b5050505050905090565b60006107597f5abd7b47e395e807afcf899785b8292daf2481f88b84fc2fb2dc0c36c6d9523c600102611473565b6107857fe4d04e306ad6b76eae33b4ea4f02c875079c166e8cc97732181ffdf9c56781d6600102611473565b6107b17f4f6c73199001240c68c9cf836d941641c4c4fb5134cd0aca89ab08b0cfc4d7ba600102611473565b6107c36107bc611584565b8484611610565b6107ef7f48d2260bd10b1326940368f14190c2b9704a6a50e3a27aa405e765ab3e27e262600102611473565b61081b7f1b72fb6402bb78de54bfb03bcffce6e964d2ce38da5ac9058632d8339ea72f82600102611473565b6001905092915050565b60006108537f9d21ebca89f5bc5971e77dec6e2d841090e883dbcb3dd949d11baa05c9fefc93600102611473565b61087f7fd5edf3c2ee5960a17d4c7a7348228881063e4cd23583c645e962f11e2f4b6c05600102611473565b6108ab7fb62d66ff0c9dfc33243484d04121e05f1811a9aff6fce4a92cd8fbf68a8041ae600102611473565b600254905090565b60006108e17fb8777a386a03f4b9a8a85e9367d612a31f8831025b40b08b99cb8e467c16ff22600102611473565b61090d7f3ab8351ccb07ab0dc632142ea8929da1d861951c2747f829bad2ccf9de654f39600102611473565b6109397f53afdedc99990ca7c223a1fcd45289c1e1beac86f84e4c833aada695554951dd600102611473565b610944848484611acd565b6109707f03f0d679e2fa11a00b79c248524297f40707f037076b07a318e4beae64f9da7b600102611473565b61099c7f4c2cd6e3a7090f6a201fc1431cc11247a7a64553b220b9768b987e680a319c92600102611473565b6000600160008673ffffffffffffffffffffffffffffffffffffffff1673ffffffffffffffffffffffffffffffffffffffff16815260200190815260200160002060006109e7611584565b73ffffffffffffffffffffffffffffffffffffffff1673ffffffffffffffffffffffffffffffffffffffff168152602001908152602001600020549050610a507f36d289b74ac78bd02d02432d6a0edebd845d7b7c4cf7533c91c5ca1e715b0a93600102611473565b610a7c7f4ea4096557afd4947cec194c4196861bc6316990e7eb10ab513ab7e81ca91aee600102611473565b610aa87fed9b2ef481d97eaecbb8321242c09e25c8cee08baae350a9837735b7f0d4ce9d600102611473565b828110151515610b46576040517f08c379a00000000000000000000000000000000000000000000000000000000081526004018080602001828103825260288152602001807f45524332303a207472616e7366657220616d6f756e742065786365656473206181526020017f6c6c6f77616e636500000000000000000000000000000000000000000000000081525060400191505060405180910390fd5b610b727ffdfd2bef691949c5f7b60df67f5f64cd5029bd61ddd7222611afc31737935dc6600102611473565b610b9e7fc483a363115000d9926e38d755e65dd02154f5b38259fb715c4222c46f876ae4600102611473565b610bca7fb3b84297711476ed86a984901d42765f5e2ab855014727e1e846b764df9ba681600102611473565b610bde85610bd6611584565b858403611610565b610c0a7f4324612166dbc92c00d103a2c7ba0fcd98043ed880dfde98df1155a5356f9518600102611473565b610c367f93340a407ea5cc65ce8d9a27aa5012b92377d58bd5e86c76f3d400c96dfba642600102611473565b60019150509392505050565b6000610c707fa048f6b611a32a77d144a13c43486f5b7ca13c37d7325c7cf2c40797a8151c91600102611473565b610c9c7f086a1cdf24acca2d750d523325ab6bd77830d480dcbdba6518623efa7815ad61600102611473565b610cc87f085ba11ead0484f5a2a0851775b40ea9063eab6065078542a236e37348dffda7600102611473565b600560009054906101000a900460ff16905090565b6000610d0b7fa8038523ca1235031c375524d7fa687bd326b4743d5ada13cf7fcb9a0514d498600102611473565b610d377fe9d7f6e594846fbb162b6c8bc74cf64dd0c8cb1ce131d56323a5bd81ccd87a7b600102611473565b610d637fb6e23d2cf4f7506391d52fb40277acfa76905ce6712bcef8834d091890577523600102611473565b610dfa610d6e611584565b848460016000610d7c611584565b73ffffffffffffffffffffffffffffffffffffffff1673ffffffffffffffffffffffffffffffffffffffff16815260200190815260200160002060008873ffffffffffffffffffffffffffffffffffffffff1673ffffffffffffffffffffffffffffffffffffffff1681526020019081526020016000205401611610565b610e267fcff61656a23115258b861863f2602880c879158b31586c4a7f7462aa4f6551f4600102611473565b610e527f0ec93bdc85120e1c346084539a41b6c8f72fa2cd0ade4176128662b8da9e90fb600102611473565b6001905092915050565b6000610e8a7f8c824bfaa5af39c368e3e9a4ea24186b6c6b48a8c6fe96fe6cd0aa04b1e0a397600102611473565b610eb67ffa2170c6871598607d246696244c7e096bcbbb41e34802dc15b23b73e0a80fd4600102611473565b610ee27f06cab822d30e02e0460e10de52f8fc504d553408100d19f0b6d0e2c4bde54e1a600102611473565b6000808373ffffffffffffffffffffffffffffffffffffffff1673ffffffffffffffffffffffffffffffffffffffff168152602001908152602001600020549050919050565b6060610f567f5bda7a03de43698715a467dadfc5c30616e07a32384a1ceae4e8eb34f9b33d6a600102611473565b610f827f5726944ccdd50ffc14a2359a2c89366c12cada5cacc1c450eff39c18e40d7c24600102611473565b610fae7fc531a3df7593ef29a4d263dfc7ea91a224217eb8f5fe4e37028b838f2c857266600102611473565b60048054600181600116156101000203166002900480601f0160208091040260200160405190810160405280929190818152602001828054600181600116156101000203166002900480156110445780601f1061101957610100808354040283529160200191611044565b820191906000526020600020905b81548152906001019060200180831161102757829003601f168201915b5050505050905090565b600061107c7fa03d6c312db4650341b39870d73cbe78c64a82e8f35e53015c04eed246e9cf25600102611473565b6110a87f4daaf5834d58fd76f445e5583e159ff60aeb74d604555c754d01f75178c2d903600102611473565b6110d47fbdae4f154bf5d2a972502f3656508192614652baf912a09cfceba1c246757a65600102611473565b6000600160006110e2611584565b73ffffffffffffffffffffffffffffffffffffffff1673ffffffffffffffffffffffffffffffffffffffff16815260200190815260200160002060008573ffffffffffffffffffffffffffffffffffffffff1673ffffffffffffffffffffffffffffffffffffffff1681526020019081526020016000205490506111887fee57427ff2c9f3e9d1a0017a1e123db16e2ecf4681114d417cd8425bc6871282600102611473565b6111b47f73b8af77d0ec296c7ccda9b616d11e99e578621af70bdecc2c3a7bec2df8273e600102611473565b6111e07f9b4ba1873f4d4a2a6a9c406449f003884f59188d855e46b0eb93648554f0daf8600102611473565b82811015151561127e576040517f08c379a00000000000000000000000000000000000000000000000000000000081526004018080602001828103825260258152602001807f45524332303a2064656372656173656420616c6c6f77616e63652062656c6f7781526020017f207a65726f00000000000000000000000000000000000000000000000000000081525060400191505060405180910390fd5b6112aa7f8edd4e310f06e9fa36b857af9b7bc40d63b74b77e243c0772205db6b7287b200600102611473565b6112d67fd68241b2a94a0bdd7d10083fb48453ae6d3f41334da521e75042fa8696ff748b600102611473565b6113027f10afb27f8b40c84004a2ffed8b79d549370fc2dabcb1ad9a2bfa309871f52a6f600102611473565b61131661130d611584565b85858403611610565b6113427ff276829b1cbacdbfa226dec0587a08edb35828c8e50d2b0fc1ebcb19b71b2078600102611473565b61136e7f2e16fc3e80893c07b3721e17ca29a05c174ade79e1c0fbe51fd390d4bd7df692600102611473565b600191505092915050565b60006113a77fe8ae19a0853f7cc4a88623297bfd501a5b8835d8379f044ebc6d808f3bb361c8600102611473565b6113d37f3e0e48195757d4c2fa3d79fc4e7eca38763cf7e0d21c9c7eb2b946c9f8f46ba8600102611473565b6113ff7fd8654f229e047b8e2f23d493e8eac4795176c0cc875598c1c31c0a84414058a7600102611473565b61141161140a611584565b8484611acd565b61143d7fff62a98b0bd475b79da0aced490f47be8facc581d2a903581007daf61f1ef3e0600102611473565b6114697fd56f9865ed4ce6f70e8383901466661edd1051b397a5925799acb65b27f178db600102611473565b6001905092915050565b50565b50565b60006114a77fd89ef16f17ad30542dbb80bcb58d7473b4c584fdbf489ab25228e1152873b529600102611473565b6114d37fb8299b0abc7ffcda333d573b76990b81c1b132ca8b5ada0f8ad7750147d40e04600102611473565b6114ff7f22afad94c95d5c64123d6d957e6c4a23ea48d4d8a2aafd1d5c9940a1016083e9600102611473565b600160008473ffffffffffffffffffffffffffffffffffffffff1673ffffffffffffffffffffffffffffffffffffffff16815260200190815260200160002060008373ffffffffffffffffffffffffffffffffffffffff1673ffffffffffffffffffffffffffffffffffffffff16815260200190815260200160002054905092915050565b60006115b27fd3ec971f1c1cc20d1bc63c03461a6251da98ef03f48f7526c739f9aeb2cdecd7600102611476565b6115de7facc6e0159aaa1aca3862a0d5e1c3f634c70f0c287258dd1b30d9e5cd1694a176600102611476565b61160a7f027cd264501c5511be5a3325ffb3a3f9f642b6590dec255c98dc4dc15696d663600102611476565b33905090565b61163c7fb0fc811327a5ddee14ad90ce6046c83cf1d75a821bf90072dec7b5f8d8cd4f97600102611473565b6116687f06b566407872bf2ed66c2664eb14fc418781610f72dda32168c127b4f316c86c600102611473565b6116947fba77304c37401db54be773e302f81e8b26bd344f365cce048428ee8fd63e61e6600102611473565b6116c07fc4945a0fa1af1c492d779921fcbdb321166d8346ca55c264a183d6c9247dec83600102611473565b600073ffffffffffffffffffffffffffffffffffffffff168373ffffffffffffffffffffffffffffffffffffffff161415151561178b576040517f08c379a00000000000000000000000000000000000000000000000000000000081526004018080602001828103825260248152602001807f45524332303a20617070726f76652066726f6d20746865207a65726f2061646481526020017f726573730000000000000000000000000000000000000000000000000000000081525060400191505060405180910390fd5b6117b77f11288c9e33b1fb41ba44d404ded56b28cd084c7c0b88028fd5903c1756eb3bda600102611473565b6117e37f7c3277df26d05402efca677f23c1af634f2f5435cd760e529a705c8c01b1ed7b600102611473565b61180f7fa974e3e162460af8a5fc17fb06b9eb5fe6e4fe641e9bd9f84d04b6b18c3fa41b600102611473565b61183b7f94f2e6ca8cd960023c695944924d84740a5a8eb4dfa5adbbcd7506dfb93279ec600102611473565b600073ffffffffffffffffffffffffffffffffffffffff168273ffffffffffffffffffffffffffffffffffffffff1614151515611906576040517f08c379a00000000000000000000000000000000000000000000000000000000081526004018080602001828103825260228152602001807f45524332303a20617070726f766520746f20746865207a65726f20616464726581526020017f737300000000000000000000000000000000000000000000000000000000000081525060400191505060405180910390fd5b6119327f2fcf171388402b5c55f72c2f0f52679643730ca8a0f004b871ca16a7238f60c6600102611473565b61195e7f088da333c75b87cf5d99428cc0a735866c1d391eb46909d767c15226ad434c85600102611473565b61198a7fa2331179e4478056127cee50f66954c12747c0f35361624e1110754cfae8f51b600102611473565b80600160008573ffffffffffffffffffffffffffffffffffffffff1673ffffffffffffffffffffffffffffffffffffffff16815260200190815260200160002060008473ffffffffffffffffffffffffffffffffffffffff1673ffffffffffffffffffffffffffffffffffffffff16815260200190815260200160002081905550611a377f78343885fa2c3f5fdd53dafcc286ef1602ecfd9a5d415591167dcfb23e7177fe600102611473565b611a637f02a4b02e5131a4b7385cc6420564ae69e02c8e753d590502056627c10b0e273f600102611473565b8173ffffffffffffffffffffffffffffffffffffffff168373ffffffffffffffffffffffffffffffffffffffff167f8c5be1e5ebec7d5bd14f71427d1e84f3dd0314c0f7b2291e5b200ac8c7c3b925836040518082815260200191505060405180910390a3505050565b611af97f55b5c5007606d62405887f114413aa53804a1a0e7b4e775b274bc551cd9a7b46600102611473565b611b257fe2d0c43b17ae83c99975e3dce5d8546fe39bc79362075bc328816a6a47be6fdc600102611473565b611b517fbede0f7d56ca92e0485989ddae1cd96c583f2ce54ee1f6f71f087dd2350b6ef9600102611473565b611b7d7f56d21b4ce3549f141b6645ca5280ea1cb11e21d899465ab0c7d52b8b9ac72597600102611473565b600073ffffffffffffffffffffffffffffffffffffffff168373ffffffffffffffffffffffffffffffffffffffff1614151515611c48576040517f08c379a00000000000000000000000000000000000000000000000000000000081526004018080602001828103825260258152602001807f45524332303a207472616e736665722066726f6d20746865207a65726f20616481526020017f647265737300000000000000000000000000000000000000000000000000000081525060400191505060405180910390fd5b611c747f03217d590139fc42fbd564498044885564aaaf5196a217d288be0e645b0eaf40600102611473565b611ca07f0b5da7b2e0e5b1c844514106fcff9d729802fa6c78116a792bf73eab8dac1509600102611473565b611ccc7fc8069e76f9649e9a14bb376026b3eb33c355f217c2c0ea13f9b1c03192764065600102611473565b611cf87f7ee6c715e9eaa9d867c360a6fc736b9feab7ff56b2ce4bd20f88a84fd46e54cc600102611473565b600073ffffffffffffffffffffffffffffffffffffffff168273ffffffffffffffffffffffffffffffffffffffff1614151515611dc3576040517f08c379a00000000000000000000000000000000000000000000000000000000081526004018080602001828103825260238152602001807f45524332303a207472616e7366657220746f20746865207a65726f206164647281526020017f657373000000000000000000000000000000000000000000000000000000000081525060400191505060405180910390fd5b611def7f69f1ca78594dde743036a18c814533a4e03d09dfd9d021db95cbc7be4cad5ec6600102611473565b611e1b7f0917047f2cc7b73773478a679354e0901328949c4b905452b2dd1225c165740b600102611473565b611e477ff13f1e52504ee0294b4874a566a87d2e045c50e8613ade78676a4f860950a9fb600102611473565b611e52838383612286565b611e7e7f441bbb20125f59f458e0f319646b118fcdedda2d15629100d1ca4ab4f9e041b6600102611473565b611eaa7f3d405e62da2329232cb77a82fa02c54f061008cffb34757949d64e6935f44db1600102611473565b60008060008573ffffffffffffffffffffffffffffffffffffffff1673ffffffffffffffffffffffffffffffffffffffff168152602001908152602001600020549050611f197fa8af672d06dc4c009c5ff914ca39e23d25f1d8d85dde0c68d3817c019cfe6a19600102611473565b611f457fd2713d4e08343b4889b274e3965a21e1a6712084966afa7d81d7f515f5a4c936600102611473565b611f717fa8bfee9b877f5cbcca8f43000f506557286e20b13f0b6f49138a9e9b51a2e16c600102611473565b81811015151561200f576040517f08c379a00000000000000000000000000000000000000000000000000000000081526004018080602001828103825260268152602001807f45524332303a207472616e7366657220616d6f756e742065786365656473206281526020017f616c616e6365000000000000000000000000000000000000000000000000000081525060400191505060405180910390fd5b61203b7f5a27e95454ba8b8e8d21136f11f84a870ee911620bbb7710763794d370c0e3e3600102611473565b6120677f9980e0148fcb300e1054a8a13a70048f42efc278debff1b3b5a5d02c17151e26600102611473565b6120937fd754f40ead314ae0dc6d92999204818f272eb887553d46613a71f297561e76e3600102611473565b8181036000808673ffffffffffffffffffffffffffffffffffffffff1673ffffffffffffffffffffffffffffffffffffffff168152602001908152602001600020819055506121047f1879041d205e3bf26109a267351e5ba26cdaa7d1e08178c2e2ac5b6fefe7592a600102611473565b6121307fbfaf46d11e61c04ffae9471e9aa8da78f76a8eccc609b0b6cb21e3bdb3fd6b25600102611473565b612181826000808673ffffffffffffffffffffffffffffffffffffffff1673ffffffffffffffffffffffffffffffffffffffff168152602001908152602001600020546122b790919063ffffffff16565b6000808573ffffffffffffffffffffffffffffffffffffffff1673ffffffffffffffffffffffffffffffffffffffff168152602001908152602001600020819055506121ef7f370b9f541581c077603c81521305f16b2a309070b6179c7a9659a74f1e3c3103600102611473565b61221b7f0da5063ccf5002eb408e9f65446201ab5b897852fb396dfbc7a9cf14c040d444600102611473565b8273ffffffffffffffffffffffffffffffffffffffff168473ffffffffffffffffffffffffffffffffffffffff167fddf252ad1be2c89b69c2b068fc378daa952ba7f163c4a11628f55a4df523b3ef846040518082815260200191505060405180910390a350505050565b6122b27fba31d5e1f02b5f684d85720a265f64a2846271af52b9e7c1f02e33e7ec9315c7600102611473565b505050565b60006122e57f4e4b331a07a5b18e4204034f512449ebfd0f3771140e77170292fc0bad9a82736001026124ce565b6123117f6340bde9a8bb597ee50164e2db96ec539eaad7f8dc000f163c3a000933d6f6146001026124ce565b61233d7fd93e2fe1c92887232e21002093094e1a084a0cdce256d2dadb9b515a8bb1598e6001026124ce565b600082840190506123707f2c50ea4ed9655d3e9867563b11c4e81543b364b7335375ecffb8d48e643886d66001026124ce565b61239c7ffaba2a709aecc739dcb15f6b9b3ed193c03db0cc938b1ac0c8788d028882a18f6001026124ce565b6123c87f0a3b6be11958592c48c73b043decbd242862e716d17fa741327750d855cbaaca6001026124ce565b838110151515612440576040517f08c379a000000000000000000000000000000000000000000000000000000000815260040180806020018281038252601b8152602001807f536166654d6174683a206164646974696f6e206f766572666c6f77000000000081525060200191505060405180910390fd5b61246c7f01d2c1ce8ae0613fed70ff394712d9d07c696f4f00a945716153d869819c68656001026124ce565b6124987fcdbe1c925e18e47d7b97acdd5e47af595c80a5d8a7da5cdb46142fb9dffd53796001026124ce565b6124c47f4e4f119bcc730f1c472d9e3d55e16e62db756da6a75171b02a1c1171dc8d70886001026124ce565b8091505092915050565b5056fea165627a7a72305820613945d4ad19d0c2e8c587b458109f45ec771263b92fe0d001cc358a88712b300029",
  "linkReferences": {},
  "deployedLinkReferences": {}
}