{
  "_format": "hh-sol-artifact-1",
  "contractName": "Initializable",
  "sourceName": "contracts/mocks/SandboxGluwacoin.sol",
  "abi": [
    {
      "constant": true,
      "inputs": [
        {
          "name": "c__0xfa82a88d",
          "type": "bytes32"
        }
      ],
      "name": "c_0xfa82a88d",
      "outputs": [],
      "payable": false,
      "stateMutability": "pure",
      "type": "function"
    }
  ],
  "bytecode": "0x608060405234801561001057600080fd5b5060aa8061001f6000396000f3fe608060405260043610603f576000357c0100000000000000000000000000000000000000000000000000000000900463ffffffff168063ccd71167146044575b600080fd5b348015604f57600080fd5b50607960048036036020811015606457600080fd5b8101908080359060200190929190505050607b565b005b5056fea165627a7a72305820f2c02a1ca78ccb66a396a22b85c64b04bed3018d01422718a10937ca705a6f070029",
  "linkReferences": {},
  "deployedLinkReferences": {}
}