{
  "_format": "hh-sol-artifact-1",
  "contractName": "SandboxGluwacoin",
  "sourceName": "contracts/mocks/SandboxGluwacoin.sol",
  "abi": [
    {
      "constant": true,
      "inputs": [],
      "name": "name",
      "outputs": [
        {
          "name": "",
          "type": "string"
        }
      ],
      "payable": false,
      "stateMutability": "view",
      "type": "function"
    },
    {
      "constant": false,
      "inputs": [
        {
          "name": "spender",
          "type": "address"
        },
        {
          "name": "amount",
          "type": "uint256"
        }
      ],
      "name": "approve",
      "outputs": [
        {
          "name": "",
          "type": "bool"
        }
      ],
      "payable": false,
      "stateMutability": "nonpayable",
      "type": "function"
    },
    {
      "constant": false,
      "inputs": [
        {
          "name": "sender",
          "type": "address"
        },
        {
          "name": "recipient",
          "type": "address"
        },
        {
          "name": "amount",
          "type": "uint256"
        },
        {
          "name": "fee",
          "type": "uint256"
        },
        {
          "name": "nonce",
          "type": "uint256"
        },
        {
          "name": "sig",
          "type": "bytes"
        }
      ],
      "name": "transfer",
      "outputs": [
        {
          "name": "success",
          "type": "bool"
        }
      ],
      "payable": false,
      "stateMutability": "nonpayable",
      "type": "function"
    },
    {
      "constant": true,
      "inputs": [],
      "name": "totalSupply",
      "outputs": [
        {
          "name": "",
          "type": "uint256"
        }
      ],
      "payable": false,
      "stateMutability": "view",
      "type": "function"
    },
    {
      "constant": false,
      "inputs": [
        {
          "name": "sender",
          "type": "address"
        },
        {
          "name": "recipient",
          "type": "address"
        },
        {
          "name": "amount",
          "type": "uint256"
        }
      ],
      "name": "transferFrom",
      "outputs": [
        {
          "name": "",
          "type": "bool"
        }
      ],
      "payable": false,
      "stateMutability": "nonpayable",
      "type": "function"
    },
    {
      "constant": true,
      "inputs": [
        {
          "name": "role",
          "type": "bytes32"
        }
      ],
      "name": "getRoleAdmin",
      "outputs": [
        {
          "name": "",
          "type": "bytes32"
        }
      ],
      "payable": false,
      "stateMutability": "view",
      "type": "function"
    },
    {
      "constant": false,
      "inputs": [
        {
          "name": "role",
          "type": "bytes32"
        },
        {
          "name": "account",
          "type": "address"
        }
      ],
      "name": "grantRole",
      "outputs": [],
      "payable": false,
      "stateMutability": "nonpayable",
      "type": "function"
    },
    {
      "constant": true,
      "inputs": [],
      "name": "decimals",
      "outputs": [
        {
          "name": "",
          "type": "uint8"
        }
      ],
      "payable": false,
      "stateMutability": "view",
      "type": "function"
    },
    {
      "constant": false,
      "inputs": [
        {
          "name": "role",
          "type": "bytes32"
        },
        {
          "name": "account",
          "type": "address"
        }
      ],
      "name": "renounceRole",
      "outputs": [],
      "payable": false,
      "stateMutability": "nonpayable",
      "type": "function"
    },
    {
      "constant": false,
      "inputs": [
        {
          "name": "spender",
          "type": "address"
        },
        {
          "name": "addedValue",
          "type": "uint256"
        }
      ],
      "name": "increaseAllowance",
      "outputs": [
        {
          "name": "",
          "type": "bool"
        }
      ],
      "payable": false,
      "stateMutability": "nonpayable",
      "type": "function"
    },
    {
      "constant": false,
      "inputs": [],
      "name": "unpause",
      "outputs": [
        {
          "name": "",
          "type": "bool"
        }
      ],
      "payable": false,
      "stateMutability": "nonpayable",
      "type": "function"
    },
    {
      "constant": false,
      "inputs": [
        {
          "name": "account",
          "type": "address"
        },
        {
          "name": "amount",
          "type": "uint256"
        }
      ],
      "name": "mint",
      "outputs": [
        {
          "name": "",
          "type": "bool"
        }
      ],
      "payable": false,
      "stateMutability": "nonpayable",
      "type": "function"
    },
    {
      "constant": false,
      "inputs": [
        {
          "name": "amount",
          "type": "uint256"
        }
      ],
      "name": "burn",
      "outputs": [
        {
          "name": "",
          "type": "bool"
        }
      ],
      "payable": false,
      "stateMutability": "nonpayable",
      "type": "function"
    },
    {
      "constant": true,
      "inputs": [],
      "name": "paused",
      "outputs": [
        {
          "name": "",
          "type": "bool"
        }
      ],
      "payable": false,
      "stateMutability": "view",
      "type": "function"
    },
    {
      "constant": true,
      "inputs": [
        {
          "name": "c__0x76b4d34b",
          "type": "bytes32"
        }
      ],
      "name": "c_0x76b4d34b",
      "outputs": [],
      "payable": false,
      "stateMutability": "pure",
      "type": "function"
    },
    {
      "constant": true,
      "inputs": [
        {
          "name": "account",
          "type": "address"
        }
      ],
      "name": "balanceOf",
      "outputs": [
        {
          "name": "",
          "type": "uint256"
        }
      ],
      "payable": false,
      "stateMutability": "view",
      "type": "function"
    },
    {
      "constant": false,
      "inputs": [],
      "name": "pause",
      "outputs": [
        {
          "name": "",
          "type": "bool"
        }
      ],
      "payable": false,
      "stateMutability": "nonpayable",
      "type": "function"
    },
    {
      "constant": true,
      "inputs": [
        {
          "name": "role",
          "type": "bytes32"
        },
        {
          "name": "index",
          "type": "uint256"
        }
      ],
      "name": "getRoleMember",
      "outputs": [
        {
          "name": "",
          "type": "address"
        }
      ],
      "payable": false,
      "stateMutability": "view",
      "type": "function"
    },
    {
      "constant": true,
      "inputs": [
        {
          "name": "role",
          "type": "bytes32"
        },
        {
          "name": "account",
          "type": "address"
        }
      ],
      "name": "hasRole",
      "outputs": [
        {
          "name": "",
          "type": "bool"
        }
      ],
      "payable": false,
      "stateMutability": "view",
      "type": "function"
    },
    {
      "constant": true,
      "inputs": [],
      "name": "symbol",
      "outputs": [
        {
          "name": "",
          "type": "string"
        }
      ],
      "payable": false,
      "stateMutability": "view",
      "type": "function"
    },
    {
      "constant": true,
      "inputs": [],
      "name": "DEFAULT_ADMIN_ROLE",
      "outputs": [
        {
          "name": "",
          "type": "bytes32"
        }
      ],
      "payable": false,
      "stateMutability": "view",
      "type": "function"
    },
    {
      "constant": false,
      "inputs": [
        {
          "name": "spender",
          "type": "address"
        },
        {
          "name": "subtractedValue",
          "type": "uint256"
        }
      ],
      "name": "decreaseAllowance",
      "outputs": [
        {
          "name": "",
          "type": "bool"
        }
      ],
      "payable": false,
      "stateMutability": "nonpayable",
      "type": "function"
    },
    {
      "constant": false,
      "inputs": [
        {
          "name": "recipient",
          "type": "address"
        },
        {
          "name": "amount",
          "type": "uint256"
        }
      ],
      "name": "transfer",
      "outputs": [
        {
          "name": "",
          "type": "bool"
        }
      ],
      "payable": false,
      "stateMutability": "nonpayable",
      "type": "function"
    },
    {
      "constant": true,
      "inputs": [
        {
          "name": "c__0x5d36101f",
          "type": "bytes32"
        }
      ],
      "name": "c_0x5d36101f",
      "outputs": [],
      "payable": false,
      "stateMutability": "pure",
      "type": "function"
    },
    {
      "constant": true,
      "inputs": [
        {
          "name": "c__0x9a509a8c",
          "type": "bytes32"
        }
      ],
      "name": "c_0x9a509a8c",
      "outputs": [],
      "payable": false,
      "stateMutability": "pure",
      "type": "function"
    },
    {
      "constant": true,
      "inputs": [
        {
          "name": "c__0x62075a9f",
          "type": "bytes32"
        }
      ],
      "name": "c_0x62075a9f",
      "outputs": [],
      "payable": false,
      "stateMutability": "pure",
      "type": "function"
    },
    {
      "constant": true,
      "inputs": [
        {
          "name": "c__0xc2817dd9",
          "type": "bytes32"
        }
      ],
      "name": "c_0xc2817dd9",
      "outputs": [],
      "payable": false,
      "stateMutability": "pure",
      "type": "function"
    },
    {
      "constant": true,
      "inputs": [
        {
          "name": "role",
          "type": "bytes32"
        }
      ],
      "name": "getRoleMemberCount",
      "outputs": [
        {
          "name": "",
          "type": "uint256"
        }
      ],
      "payable": false,
      "stateMutability": "view",
      "type": "function"
    },
    {
      "constant": true,
      "inputs": [
        {
          "name": "c__0xfa82a88d",
          "type": "bytes32"
        }
      ],
      "name": "c_0xfa82a88d",
      "outputs": [],
      "payable": false,
      "stateMutability": "pure",
      "type": "function"
    },
    {
      "constant": false,
      "inputs": [
        {
          "name": "role",
          "type": "bytes32"
        },
        {
          "name": "account",
          "type": "address"
        }
      ],
      "name": "revokeRole",
      "outputs": [],
      "payable": false,
      "stateMutability": "nonpayable",
      "type": "function"
    },
    {
      "constant": true,
      "inputs": [
        {
          "name": "c__0x1941386a",
          "type": "bytes32"
        }
      ],
      "name": "c_0x1941386a",
      "outputs": [],
      "payable": false,
      "stateMutability": "pure",
      "type": "function"
    },
    {
      "constant": true,
      "inputs": [
        {
          "name": "owner",
          "type": "address"
        },
        {
          "name": "spender",
          "type": "address"
        }
      ],
      "name": "allowance",
      "outputs": [
        {
          "name": "",
          "type": "uint256"
        }
      ],
      "payable": false,
      "stateMutability": "view",
      "type": "function"
    },
    {
      "inputs": [
        {
          "name": "name",
          "type": "string"
        },
        {
          "name": "symbol",
          "type": "string"
        },
        {
          "name": "decimals",
          "type": "uint8"
        }
      ],
      "payable": false,
      "stateMutability": "nonpayable",
      "type": "constructor"
    },
    {
      "anonymous": false,
      "inputs": [
        {
          "indexed": false,
          "name": "account",
          "type": "address"
        }
      ],
      "name": "Paused",
      "type": "event"
    },
    {
      "anonymous": false,
      "inputs": [
        {
          "indexed": false,
          "name": "account",
          "type": "address"
        }
      ],
      "name": "Unpaused",
      "type": "event"
    },
    {
      "anonymous": false,
      "inputs": [
        {
          "indexed": true,
          "name": "minter",
          "type": "address"
        },
        {
          "indexed": true,
          "name": "_mintTo",
          "type": "address"
        },
        {
          "indexed": false,
          "name": "_value",
          "type": "uint256"
        }
      ],
      "name": "Mint",
      "type": "event"
    },
    {
      "anonymous": false,
      "inputs": [
        {
          "indexed": true,
          "name": "burner",
          "type": "address"
        },
        {
          "indexed": true,
          "name": "_burnFrom",
          "type": "address"
        },
        {
          "indexed": false,
          "name": "_value",
          "type": "uint256"
        }
      ],
      "name": "Burnt",
      "type": "event"
    },
    {
      "anonymous": false,
      "inputs": [
        {
          "indexed": true,
          "name": "from",
          "type": "address"
        },
        {
          "indexed": true,
          "name": "to",
          "type": "address"
        },
        {
          "indexed": false,
          "name": "value",
          "type": "uint256"
        }
      ],
      "name": "Transfer",
      "type": "event"
    },
    {
      "anonymous": false,
      "inputs": [
        {
          "indexed": true,
          "name": "owner",
          "type": "address"
        },
        {
          "indexed": true,
          "name": "spender",
          "type": "address"
        },
        {
          "indexed": false,
          "name": "value",
          "type": "uint256"
        }
      ],
      "name": "Approval",
      "type": "event"
    },
    {
      "anonymous": false,
      "inputs": [
        {
          "indexed": true,
          "name": "role",
          "type": "bytes32"
        },
        {
          "indexed": true,
          "name": "account",
          "type": "address"
        },
        {
          "indexed": true,
          "name": "sender",
          "type": "address"
        }
      ],
      "name": "RoleGranted",
      "type": "event"
    },
    {
      "anonymous": false,
      "inputs": [
        {
          "indexed": true,
          "name": "role",
          "type": "bytes32"
        },
        {
          "indexed": true,
          "name": "account",
          "type": "address"
        },
        {
          "indexed": true,
          "name": "sender",
          "type": "address"
        }
      ],
      "name": "RoleRevoked",
      "type": "event"
    }
  ],
  "bytecode": "0x60806040523480156200001157600080fd5b5060405162008ba438038062008ba4833981018060405260608110156200003757600080fd5b8101908080516401000000008111156200005057600080fd5b828101905060208101848111156200006757600080fd5b81518560018202830111640100000000821117156200008557600080fd5b50509291906020018051640100000000811115620000a257600080fd5b82810190506020810184811115620000b957600080fd5b8151856001820283011164010000000082111715620000d757600080fd5b5050929190602001805190602001909291905050508282826200012b7ea73a43ab3e0f89f967cf0582bcb4281929fbb64d690883b7a99b36b54752d560010262000585640100000000026401000000009004565b620001687f960b254ce6680daa7ca27d9035821ce51d8d53cb9951090718eeadb72700262660010262000585640100000000026401000000009004565b620001a57ffa2cd76d39e8572f447d5282e39133e047c0357aabfff54ccb3b5e7c6f0cf00360010262000585640100000000026401000000009004565b8260379080519060200190620001bd92919062000f07565b50620001fb7f607efdcf51c7e2651792ea88ef8f3181d07c6f87c31cf4eca699f1401b00f11060010262000585640100000000026401000000009004565b620002387fedf0773b1fb21deb7ff0aabd7c99d24bcf01235ffecdc8a8b44118989fb9993a60010262000585640100000000026401000000009004565b81603890805190602001906200025092919062000f07565b506200028e7f0627b2e5f1d0950474f3c07f863678694f6ba75f4342a40499e3d2125e2860e060010262000585640100000000026401000000009004565b620002cb7fcc2e4435c2c6d5db407ced0ce78064f0086ea15efbe6ccd4365e748a9851b2d260010262000585640100000000026401000000009004565b80603960006101000a81548160ff021916908360ff160217905550505050620003267ff0ca417f5c83f4a30dd3b5685b947b3513ec0c5ea7b12491dddcc39884da508d60010262000588640100000000026401000000009004565b620003637f3395151ae457957d4e65b4025cabaeef3b21d54812d640c763130cac9c1edfbb60010262000588640100000000026401000000009004565b620003a07fe3c4067abdfdf2fb2fec5540396012e3ed277e913c17afc356b05d0863f5df1c60010262000588640100000000026401000000009004565b6000603960016101000a81548160ff021916908315150217905550620003f87fca3f49e46b2b4e6cd5a237a36192a7659a753a5e5e7e2eef993d7d50e17ddea36001026200058b640100000000026401000000009004565b620004357fcddb468787a3c392ef0ca7c5a1843ee2d2bb9fd4f8c0cd63a782e78a7a4c9b406001026200058b640100000000026401000000009004565b620004727f4c3e4dc0212c8ae6a651f87fabc209b7b8b3a86f64419cdf8971d6e5adc3f1bd6001026200058b640100000000026401000000009004565b6200048b6200058e640100000000026401000000009004565b603b60006101000a81548173ffffffffffffffffffffffffffffffffffffffff021916908373ffffffffffffffffffffffffffffffffffffffff160217905550620005087f1ac0986e23e7d68f5290e5f7b6ce4ee719aea8bcb33c0563d2a934fc965ffab66001026200058b640100000000026401000000009004565b620005457fd286bd5696ed66940a3fd16d3d9b628f3b2bb52e021ef2e7e554faafaca03c396001026200058b640100000000026401000000009004565b6200057c6000600102620005676200058e640100000000026401000000009004565b6200064d640100000000026401000000009004565b50505062000fb6565b50565b50565b50565b6000620005cd7fd3ec971f1c1cc20d1bc63c03461a6251da98ef03f48f7526c739f9aeb2cdecd760010262000723640100000000026401000000009004565b6200060a7facc6e0159aaa1aca3862a0d5e1c3f634c70f0c287258dd1b30d9e5cd1694a17660010262000723640100000000026401000000009004565b620006477f027cd264501c5511be5a3325ffb3a3f9f642b6590dec255c98dc4dc15696d66360010262000723640100000000026401000000009004565b33905090565b6200068a7f213a826cb49a517cb35332bf3a66f34c336d8e8a5b799e5a90bfbbfd2f59cbb660010262000726640100000000026401000000009004565b620006c77fdd3ff820ac0c75eed9eabb0ac4a1774ed1564d868706ffcb8488967ad133dcb260010262000726640100000000026401000000009004565b620007047f9aa92d0fa46a8a0c064baaa60d4ad44d4ad5cbefc7ca723eff6c6c76c0060d1c60010262000726640100000000026401000000009004565b6200071f828262000729640100000000026401000000009004565b5050565b50565b50565b620007667fb30e1dd49160d3c9cf718017b1174b0e6b032ce8d75598dc58033db3f017d4b060010262000726640100000000026401000000009004565b620007a37f8289e920a3991776b700a8d89cd1effd60765d90d879588a159ae631f562a5c460010262000726640100000000026401000000009004565b620007e07f7ce19d7bde3202b6cb1b4a8e2a61e2a6ca58cb25fc104b87b93b81cf99426e0260010262000726640100000000026401000000009004565b62000818816033600085815260200190815260200160002060000162000990640100000000026200688e179091906401000000009004565b156200094e576200085b7f714883bafe314d2de916b639936598bf90d0b24aa4ead0dda797cdde2ab1095e60010262000726640100000000026401000000009004565b620008987ffe785bb21613e5edd58f766831a67162f10068de53144c8934e429813d9f3bb460010262000726640100000000026401000000009004565b620008d57f028ffb443eeb70c04913e19956cc83f8eb20b32a1b8164ead7c664d3add6cafb60010262000726640100000000026401000000009004565b620008ee6200058e640100000000026401000000009004565b73ffffffffffffffffffffffffffffffffffffffff168173ffffffffffffffffffffffffffffffffffffffff16837f2f8788117e7eff1d82e926ec794901d17c78024a50270940304540a733656f0d60405160405180910390a46200098c565b6200098b7fc66ae3396d738ede72a8ffe67e903a198805d1e6f6000440d9077a0bad9971ef60010262000726640100000000026401000000009004565b5b5050565b6000620009cf7fcb8373ef59b53e1f948978b53bf96f27fd2da40f6a45291eca046acdf928581e60010262000a88640100000000026401000000009004565b62000a0c7fae2ff531fec42627690275973b8ad740e08413ee514605a84a317071434797bf60010262000a88640100000000026401000000009004565b62000a497fa39ac82d20ed8aa9796d4645ac77a76d89bdfd3980f310714ba2c9eaa65d6d4b60010262000a88640100000000026401000000009004565b62000a80836000018373ffffffffffffffffffffffffffffffffffffffff1660010262000a8b640100000000026401000000009004565b905092915050565b50565b600062000aca7f40d68215e803cb1717bf4d33c5e09c861554eb92219a19183e4a81a5e4a37ce660010262000a88640100000000026401000000009004565b62000b077f617dc7e3d2cc32c81c4592cd6d31d1aa401b99588fa715fa7322ee79201a4fca60010262000a88640100000000026401000000009004565b62000b447f0638df41745ab78d3d275029a71d6e3610e8359150695a51482e4e6d11f6278a60010262000a88640100000000026401000000009004565b62000b5f838362000e2c640100000000026401000000009004565b151562000d6a5762000ba37f1316895c243bc3e2f6a170b2f52934654fca20cd49e0b939406d750df6d8a29560010262000a88640100000000026401000000009004565b62000be07f0422386d1d2a76a969025e42bba5fbdce120264183a3ac5f64881c75dd7679a160010262000a88640100000000026401000000009004565b62000c1d7fa4a4613612050463a1babb6e7d9195586b380f85134ca2588bb5cca9c9bf168160010262000a88640100000000026401000000009004565b8260000182908060018154018082558091505090600182039060005260206000200160009091929091909150555062000c887f93b89b5c5517ca841ee24f656f2e858ce09700ae845a16c62a4130e78051b7d560010262000a88640100000000026401000000009004565b62000cc57f92c8b4261409bfac7f5115a8081249983ab5e788f101dd4cd66d7c73fc45b4ec60010262000a88640100000000026401000000009004565b82600001805490508360010160008481526020019081526020016000208190555062000d237f84134868669c80f0f9cf10b187ef90beccede6ccb1cc21f613b109fa280f136960010262000a88640100000000026401000000009004565b62000d607f37e9ade0fb605d8221f3364f54622e21b6de8f84aa5f538d31fde23234a485a860010262000a88640100000000026401000000009004565b6001905062000e26565b62000da77f0b3a15e5e94cff312610a7834ffdac82d66c3c4d5c8bf8207d819fba9ef82a9860010262000a88640100000000026401000000009004565b62000de47fe74dc3c6920d1c37ccc9302b4536c6199dac8c0d027e94cf0fd9b348b8b7be4260010262000a88640100000000026401000000009004565b62000e217fcc4c3113d119ba5c89d4ed2e4108d90a96197f0174ff462aa54710d2e5b0b38160010262000a88640100000000026401000000009004565b600090505b92915050565b600062000e6b7f3037fbb3ab65fd9999096de04310313a1e94eed569ceccfe5b38bb71dd02790e60010262000a88640100000000026401000000009004565b62000ea87f545721a78abba8f4dd61dbfb050b7451e9eeb82fcb36ed25619a57f0e77ae9e560010262000a88640100000000026401000000009004565b62000ee57fba70ad9aa9369f46f6beb3f8586e58d68b34c819282dc4aff7f98134959f22da60010262000a88640100000000026401000000009004565b6000836001016000848152602001908152602001600020541415905092915050565b828054600181600116156101000203166002900490600052602060002090601f016020900481019282601f1062000f4a57805160ff191683800117855562000f7b565b8280016001018555821562000f7b579182015b8281111562000f7a57825182559160200191906001019062000f5d565b5b50905062000f8a919062000f8e565b5090565b62000fb391905b8082111562000faf57600081600090555060010162000f95565b5090565b90565b617bde8062000fc66000396000f3fe608060405260043610610196576000357c0100000000000000000000000000000000000000000000000000000000900463ffffffff16806306fdde031461019b578063095ea7b31461022b5780630982d5b01461029e57806318160ddd146103dc57806323b872dd14610407578063248a9ca31461049a5780632f2ff15d146104e9578063313ce5671461054457806336568abe1461057557806339509351146105d05780633f4ba83a1461064357806340c10f191461067257806342966c68146106e55780635c975abb146107385780635e659e8c1461076757806370a08231146107a25780638456cb59146108075780639010d07c1461083657806391d14854146108bb57806395d89b411461092e578063a217fddf146109be578063a457c2d7146109e9578063a9059cbb14610a5c578063abe6398a14610acf578063afd2abaf14610b0a578063b3caa4e014610b45578063be59ca1214610b80578063ca15c87314610bbb578063ccd7116714610c0a578063d547741f14610c45578063d71a68fa14610ca0578063dd62ed3e14610cdb575b600080fd5b3480156101a757600080fd5b506101b0610d60565b6040518080602001828103825283818151815260200191508051906020019080838360005b838110156101f05780820151818401526020810190506101d5565b50505050905090810190601f16801561021d5780820380516001836020036101000a031916815260200191505b509250505060405180910390f35b34801561023757600080fd5b506102846004803603604081101561024e57600080fd5b81019080803573ffffffffffffffffffffffffffffffffffffffff16906020019092919080359060200190929190505050610e86565b604051808215151515815260200191505060405180910390f35b3480156102aa57600080fd5b506103c2600480360360c08110156102c157600080fd5b81019080803573ffffffffffffffffffffffffffffffffffffffff169060200190929190803573ffffffffffffffffffffffffffffffffffffffff1690602001909291908035906020019092919080359060200190929190803590602001909291908035906020019064010000000081111561033c57600080fd5b82018360208201111561034e57600080fd5b8035906020019184600183028401116401000000008311171561037057600080fd5b91908080601f016020809104026020016040519081016040528093929190818152602001838380828437600081840152601f19601f820116905080830192505050505050509192919290505050610f80565b604051808215151515815260200191505060405180910390f35b3480156103e857600080fd5b506103f16113f1565b6040518082815260200191505060405180910390f35b34801561041357600080fd5b506104806004803603606081101561042a57600080fd5b81019080803573ffffffffffffffffffffffffffffffffffffffff169060200190929190803573ffffffffffffffffffffffffffffffffffffffff1690602001909291908035906020019092919050505061147f565b604051808215151515815260200191505060405180910390f35b3480156104a657600080fd5b506104d3600480360360208110156104bd57600080fd5b81019080803590602001909291905050506117ce565b6040518082815260200191505060405180910390f35b3480156104f557600080fd5b506105426004803603604081101561050c57600080fd5b8101908080359060200190929190803573ffffffffffffffffffffffffffffffffffffffff169060200190929190505050611872565b005b34801561055057600080fd5b50610559611a75565b604051808260ff1660ff16815260200191505060405180910390f35b34801561058157600080fd5b506105ce6004803603604081101561059857600080fd5b8101908080359060200190929190803573ffffffffffffffffffffffffffffffffffffffff169060200190929190505050611b10565b005b3480156105dc57600080fd5b50610629600480360360408110156105f357600080fd5b81019080803573ffffffffffffffffffffffffffffffffffffffff16906020019092919080359060200190929190505050611d22565b604051808215151515815260200191505060405180910390f35b34801561064f57600080fd5b50610658611ea1565b604051808215151515815260200191505060405180910390f35b34801561067e57600080fd5b506106cb6004803603604081101561069557600080fd5b81019080803573ffffffffffffffffffffffffffffffffffffffff16906020019092919080359060200190929190505050612100565b604051808215151515815260200191505060405180910390f35b3480156106f157600080fd5b5061071e6004803603602081101561070857600080fd5b81019080803590602001909291905050506123bd565b604051808215151515815260200191505060405180910390f35b34801561074457600080fd5b5061074d6124b5565b604051808215151515815260200191505060405180910390f35b34801561077357600080fd5b506107a06004803603602081101561078a57600080fd5b8101908080359060200190929190505050612550565b005b3480156107ae57600080fd5b506107f1600480360360208110156107c557600080fd5b81019080803573ffffffffffffffffffffffffffffffffffffffff169060200190929190505050612553565b6040518082815260200191505060405180910390f35b34801561081357600080fd5b5061081c612620565b604051808215151515815260200191505060405180910390f35b34801561084257600080fd5b506108796004803603604081101561085957600080fd5b81019080803590602001909291908035906020019092919050505061287f565b604051808273ffffffffffffffffffffffffffffffffffffffff1673ffffffffffffffffffffffffffffffffffffffff16815260200191505060405180910390f35b3480156108c757600080fd5b50610914600480360360408110156108de57600080fd5b8101908080359060200190929190803573ffffffffffffffffffffffffffffffffffffffff169060200190929190505050612935565b604051808215151515815260200191505060405180910390f35b34801561093a57600080fd5b506109436129eb565b6040518080602001828103825283818151815260200191508051906020019080838360005b83811015610983578082015181840152602081019050610968565b50505050905090810190601f1680156109b05780820380516001836020036101000a031916815260200191505b509250505060405180910390f35b3480156109ca57600080fd5b506109d3612b11565b6040518082815260200191505060405180910390f35b3480156109f557600080fd5b50610a4260048036036040811015610a0c57600080fd5b81019080803573ffffffffffffffffffffffffffffffffffffffff16906020019092919080359060200190929190505050612b19565b604051808215151515815260200191505060405180910390f35b348015610a6857600080fd5b50610ab560048036036040811015610a7f57600080fd5b81019080803573ffffffffffffffffffffffffffffffffffffffff16906020019092919080359060200190929190505050612e44565b604051808215151515815260200191505060405180910390f35b348015610adb57600080fd5b50610b0860048036036020811015610af257600080fd5b8101908080359060200190929190505050613251565b005b348015610b1657600080fd5b50610b4360048036036020811015610b2d57600080fd5b8101908080359060200190929190505050613254565b005b348015610b5157600080fd5b50610b7e60048036036020811015610b6857600080fd5b8101908080359060200190929190505050613257565b005b348015610b8c57600080fd5b50610bb960048036036020811015610ba357600080fd5b810190808035906020019092919050505061325a565b005b348015610bc757600080fd5b50610bf460048036036020811015610bde57600080fd5b810190808035906020019092919050505061325d565b6040518082815260200191505060405180910390f35b348015610c1657600080fd5b50610c4360048036036020811015610c2d57600080fd5b8101908080359060200190929190505050613308565b005b348015610c5157600080fd5b50610c9e60048036036040811015610c6857600080fd5b8101908080359060200190929190803573ffffffffffffffffffffffffffffffffffffffff16906020019092919050505061330b565b005b348015610cac57600080fd5b50610cd960048036036020811015610cc357600080fd5b810190808035906020019092919050505061350e565b005b348015610ce757600080fd5b50610d4a60048036036040811015610cfe57600080fd5b81019080803573ffffffffffffffffffffffffffffffffffffffff169060200190929190803573ffffffffffffffffffffffffffffffffffffffff169060200190929190505050613511565b6040518082815260200191505060405180910390f35b6060610d8e7f0835806103caf86ec620d3c3cb2169f4238d515e03ba1546071fd384fd8b6b5e60010261325a565b610dba7fb5d7e5eb85918dd62dc86d7613d07ccc8dca3be0ddc937a86480268404d29e1c60010261325a565b610de67f25a94c8cba39ca040bab72af162df2859785272e3c5147f48fea7d83d1a987d660010261325a565b60378054600181600116156101000203166002900480601f016020809104026020016040519081016040528092919081815260200182805460018160011615610100020316600290048015610e7c5780601f10610e5157610100808354040283529160200191610e7c565b820191906000526020600020905b815481529060010190602001808311610e5f57829003601f168201915b5050505050905090565b6000610eb47f5abd7b47e395e807afcf899785b8292daf2481f88b84fc2fb2dc0c36c6d9523c60010261325a565b610ee07fe4d04e306ad6b76eae33b4ea4f02c875079c166e8cc97732181ffdf9c56781d660010261325a565b610f0c7f4f6c73199001240c68c9cf836d941641c4c4fb5134cd0aca89ab08b0cfc4d7ba60010261325a565b610f1e610f1761361c565b84846136a8565b610f4a7f48d2260bd10b1326940368f14190c2b9704a6a50e3a27aa405e765ab3e27e26260010261325a565b610f767f1b72fb6402bb78de54bfb03bcffce6e964d2ce38da5ac9058632d8339ea72f8260010261325a565b6001905092915050565b6000610fae7f6aadb471497bf879f4dc6cb1c4101d7785c3f568da50e58619461d3713e2a6ec600102613251565b610fda7f9b6520773937a54f6f0f5e2713b4ba508c3a4e04f7430bfa6eb20b4a9e13a329600102613251565b6110067f04f741957659a81de5467b3d045f1ffbfec756a01a9ddaeda33188449ffc1b19600102613251565b6110327fa2beb1db0c577b16cafee083294f1da22d948c9d3ddad2fc759e44ed91c31217600102613251565b603960019054906101000a900460ff161515156110b7576040517f08c379a00000000000000000000000000000000000000000000000000000000081526004018080602001828103825260108152602001807f5061757361626c653a207061757365640000000000000000000000000000000081525060200191505060405180910390fd5b6110e37f9d4763ee954f1458538c5b3b7434616210d91e72f1a6aa403dd26aa75d6f339d600102613251565b61110f7f346b15beaae09025c818abf92356d9f67254168cd1af842fee38447f35246837600102613251565b61113b7f06217faca628d17f513268a92fb411ec434f92dcd9713b6fe88ceab54ca0b169600102612550565b6111677fc83ebb2f10b50f3bd608d783a72af353aa7b9385b2f29105b9bc889738039709600102612550565b6111937f40db8edae33f8a5024c1bbb1c3874393593f86b391aa2027bc0dbbf8280b01a0600102612550565b61119d8784613b65565b6111c97f1cd0177e871468a96125104b4e7d142994abbcf9ce51dfc6319d20afcdb3d4b9600102612550565b6111f57f9c711da1692aa90e46c07454eba2681bc64eb4627cdb5b4bb561178af38b91d4600102612550565b600084860190506112287f599defe1eeace348b94b643673b7a0fb71a13f01b991d42694db270d3908f857600102612550565b6112547f88298c69698df8955fc4a7dc91f74422697a556d7044b1ed9d20d50eb92bb87b600102612550565b61125e8882613dff565b61128a7f9a9c654511e281b880daaefede3c337a411fe124af9911d6f4388674204c453c600102612550565b6112b67fa43caa4b453f7d7d39de38eea0d01d4590f47ffee939cac6d5d826a72e19f15c600102612550565b6112c530898989898989613f85565b6112f17f82bc7b82c0a9e7deb51c030f063b23aa6bc5971da1498f0e9493d305e529fd25600102612550565b61131d7f5a1c58d9ca4098d903b07ff4cc96dd88870a484ce030ac521d34d9ca942c22ad600102612550565b611327888661417b565b6113537fd6b6689ecba5420ca06e61abf700b0cb5ddc4f695bdb6799f58c7945ba51a042600102612550565b61137f7f7da86fb1d1c31c68867039827a8d8f35dda69ca2c1c2864003f21efa3eba4ff8600102612550565b61138a888888614230565b6113b67fae97ef52685f8488df7de8b5f42b42307afb7dbc5ef48d6b0ac04a20c5416ea0600102612550565b6113e27f1fed8bb7ac42179655294c4edea09471472ab4d73b9ef2bda6e0ed249e346894600102612550565b60019150509695505050505050565b600061141f7f9d21ebca89f5bc5971e77dec6e2d841090e883dbcb3dd949d11baa05c9fefc9360010261325a565b61144b7fd5edf3c2ee5960a17d4c7a7348228881063e4cd23583c645e962f11e2f4b6c0560010261325a565b6114777fb62d66ff0c9dfc33243484d04121e05f1811a9aff6fce4a92cd8fbf68a8041ae60010261325a565b603654905090565b60006114ad7f6aadb471497bf879f4dc6cb1c4101d7785c3f568da50e58619461d3713e2a6ec600102613251565b6114d97f9b6520773937a54f6f0f5e2713b4ba508c3a4e04f7430bfa6eb20b4a9e13a329600102613251565b6115057f04f741957659a81de5467b3d045f1ffbfec756a01a9ddaeda33188449ffc1b19600102613251565b6115317fa2beb1db0c577b16cafee083294f1da22d948c9d3ddad2fc759e44ed91c31217600102613251565b603960019054906101000a900460ff161515156115b6576040517f08c379a00000000000000000000000000000000000000000000000000000000081526004018080602001828103825260108152602001807f5061757361626c653a207061757365640000000000000000000000000000000081525060200191505060405180910390fd5b6115e27f9d4763ee954f1458538c5b3b7434616210d91e72f1a6aa403dd26aa75d6f339d600102613251565b61160e7f346b15beaae09025c818abf92356d9f67254168cd1af842fee38447f35246837600102613251565b61163a7ffb4600a6d4af4db0128df1c484b45c28cfe8eddb54592577803671cbaab72b06600102612550565b6116667f02206d652741e5fcb92ff69a5d1a660069a66562896d55987c62224b29c05dac600102612550565b6116927f1553f9dadb0c1759bbf901b6e1976238f358275eb6c2fb0fc2b87ea2df9b07b9600102612550565b6000603c54830190506116c77fb77ea0cb61fc87378dd274f57df20a1acfc498f7c8c8d3046f290c70b0982c61600102612550565b6116f37fefa77a0c41c070296049eef4a2954730034a10c8c7c6e7089a48fe4fd2162a06600102612550565b6116fd8582613dff565b6117297fa60c11dafa6e1931f054fb2947dc027c17273e23267a126673fa846a13d5c0af600102612550565b6117557f4758b2c11171a9b6de37bd76ed84def05b43e0477f3055137e59e442b5e79c4c600102612550565b61176185603c5461417b565b61178d7f231d6937f0116b2abee29be526b1ed56bd76c02db7172fedb87778067f1d50dd600102612550565b6117b97fd388814123a0547d22c06795f8a999880af1a7fb8503dc014cc0bcfed61bb823600102612550565b6117c48585856149ed565b9150509392505050565b60006117fc7f30fc8633ffcb712d9f90a3c85fcd2bc5691b07661b58a2508344557faa83e26e600102613254565b6118287f8c660f8c1c114e4c692bbcb582c50426bb2fa02b9681b3d8739c42c341cc07a5600102613254565b6118547f16588b723c6c551aa4d9a7d16d8ded134801ef2c2a4ea29021eec661545dab54600102613254565b60336000838152602001908152602001600020600201549050919050565b61189e7fb0149405a9f60d2bdfd1bd098b66738fb6f55213e161f96285a4a1f9faf6aaba600102613254565b6118ca7f44333d6ec5f67307e5a2dc9fa0c7904c2af03dd34063ea5bbe6445a5137d86a0600102613254565b6118f67f2d0bc46d27039ec9b579374f38f591d0e178e4b08ec9caa498c2a9a204f87a47600102613254565b6119227f5a0d71d502392a1406245a197847cbeac3c923abb6ddfc2117622e7a9fc1648c600102613254565b611949603360008481526020019081526020016000206002015461194461361c565b612935565b15156119e3576040517f08c379a000000000000000000000000000000000000000000000000000000000815260040180806020018281038252602f8152602001807f416363657373436f6e74726f6c3a2073656e646572206d75737420626520616e81526020017f2061646d696e20746f206772616e74000000000000000000000000000000000081525060400191505060405180910390fd5b611a0f7f512159bb4f95bdee532e11d28b7d8fa09212b733999599155cbe6283a71e5f47600102613254565b611a3b7fd02ae7c75e20faab380555bc9bbdbb1c135d07c3657893c4da12d87a4e7908ef600102613254565b611a677f2d24e275ac373edd22c1fcfa98ddeeebf796b7bcd7928d2e7360d50e7b9e1c38600102613254565b611a718282614d7c565b5050565b6000611aa37fa048f6b611a32a77d144a13c43486f5b7ca13c37d7325c7cf2c40797a8151c9160010261325a565b611acf7f086a1cdf24acca2d750d523325ab6bd77830d480dcbdba6518623efa7815ad6160010261325a565b611afb7f085ba11ead0484f5a2a0851775b40ea9063eab6065078542a236e37348dffda760010261325a565b603960009054906101000a900460ff16905090565b611b3c7f5379871e435ccaa81beb471bad2233b0aaf782f4063c7a9569802b5022aca5d0600102613254565b611b687f2781bdca01716fd8efa0e0aadb34a31cd67a0de455adfe4e7af7a9c21bb06fd9600102613254565b611b947fa625d535581871c784129f6317d3d41a8bc058b91ef9bbc0a7033205d9929757600102613254565b611bc07feec8206a084ed655abf3f512f8262bf6675c7f74581f3378649d384cc3011bbc600102613254565b611bc861361c565b73ffffffffffffffffffffffffffffffffffffffff168173ffffffffffffffffffffffffffffffffffffffff16141515611c90576040517f08c379a000000000000000000000000000000000000000000000000000000000815260040180806020018281038252602f8152602001807f416363657373436f6e74726f6c3a2063616e206f6e6c792072656e6f756e636581526020017f20726f6c657320666f722073656c66000000000000000000000000000000000081525060400191505060405180910390fd5b611cbc7fe7230669bca145431fe6ad084a816071976d8f1b02b966fb60171e3dd3946c21600102613254565b611ce87f06cb25c399916fccfadadb673b08ca92d6cae7475028501ed54922b811a20ad8600102613254565b611d147f2fe91ce2b2e888d23d1f3c03036fc6b0b3af764761354c04659e163170ab3ea8600102613254565b611d1e8282614f49565b5050565b6000611d507fa8038523ca1235031c375524d7fa687bd326b4743d5ada13cf7fcb9a0514d49860010261325a565b611d7c7fe9d7f6e594846fbb162b6c8bc74cf64dd0c8cb1ce131d56323a5bd81ccd87a7b60010261325a565b611da87fb6e23d2cf4f7506391d52fb40277acfa76905ce6712bcef8834d09189057752360010261325a565b611e3f611db361361c565b848460356000611dc161361c565b73ffffffffffffffffffffffffffffffffffffffff1673ffffffffffffffffffffffffffffffffffffffff16815260200190815260200160002060008873ffffffffffffffffffffffffffffffffffffffff1673ffffffffffffffffffffffffffffffffffffffff16815260200190815260200160002054016136a8565b611e6b7fcff61656a23115258b861863f2602880c879158b31586c4a7f7462aa4f6551f460010261325a565b611e977f0ec93bdc85120e1c346084539a41b6c8f72fa2cd0ade4176128662b8da9e90fb60010261325a565b6001905092915050565b6000611ecf7f69e0670b5e94bfae00bdd6fa8126f76fe82c1b26c2319af9130e763737851633600102613254565b611efb7fe67c95fbdc14e20449bff2c5f693e6838085791dc2bdb9fa5bc7363fb9f242fd600102613254565b611f277f0ad6a77e809a8988d113ffd61911ed3928854313072d868f339cc625d33ff93f600102613254565b611f537f0652cc954f9a327135870de3f12aa2576255f57f0161d44bfc2becdaa8fd4845600102613254565b611f7d6033600080600102815260200190815260200160002060020154611f7861361c565b612935565b1515612017576040517f08c379a000000000000000000000000000000000000000000000000000000000815260040180806020018281038252602d8152602001807f416363657373436f6e74726f6c3a2053656e64657220646f206e6f742068617681526020017f652061646d696e2072696768740000000000000000000000000000000000000081525060400191505060405180910390fd5b6120437fde9032b37712dcf83d23ad0fd37c6a83b219b433a7b8ce1f42ceeb7b47a979ca600102613254565b61206f7f0f74c4650d79193b9416c2ccc6a0e95f664bb5cb51a61af3dbfd5ef2e7b139ad600102613254565b61209b7f0201d6724e26ac72cdd41e401bb95eeab8d82d4e714ad224a0f8f9109a58f2b9600102612550565b6120c77f8348e740de46b7cf693471de4345ce2acc53a8c5fdf685f132b88431b6b347e7600102612550565b6120f37f2eb4c69e0369ff43fbbd363b872e180674f97aac281d882dcfa025c5051c2e6a600102612550565b6120fb615116565b905090565b600061212e7f69e0670b5e94bfae00bdd6fa8126f76fe82c1b26c2319af9130e763737851633600102613254565b61215a7fe67c95fbdc14e20449bff2c5f693e6838085791dc2bdb9fa5bc7363fb9f242fd600102613254565b6121867f0ad6a77e809a8988d113ffd61911ed3928854313072d868f339cc625d33ff93f600102613254565b6121b27f0652cc954f9a327135870de3f12aa2576255f57f0161d44bfc2becdaa8fd4845600102613254565b6121dc60336000806001028152602001908152602001600020600201546121d761361c565b612935565b1515612276576040517f08c379a000000000000000000000000000000000000000000000000000000000815260040180806020018281038252602d8152602001807f416363657373436f6e74726f6c3a2053656e64657220646f206e6f742068617681526020017f652061646d696e2072696768740000000000000000000000000000000000000081525060400191505060405180910390fd5b6122a27fde9032b37712dcf83d23ad0fd37c6a83b219b433a7b8ce1f42ceeb7b47a979ca600102613254565b6122ce7f0f74c4650d79193b9416c2ccc6a0e95f664bb5cb51a61af3dbfd5ef2e7b139ad600102613254565b6122f97e2545847848dfb442471795428371191add6d249eee5a3611c8553a1ab699c6600102612550565b6123257fb5d16d3d155e35eecc600b1750e80f2473e4f959f1773e6365f0dc50d537f07f600102612550565b6123517f702f7b52af98426aa1ef8ad5f9256d7b3fc42093a601c995ccde43325e2a5836600102612550565b61235b8383615472565b6123877feb2ec463c87161c9aae6fdc985e293ce5b50a5a5dd186f8503b2f7cf7d8c53c3600102612550565b6123b37fb2b0b8313b83e8749505c10da5e38a5797432a128af9939d9b2c03d95dd8a73e600102612550565b6001905092915050565b60006123eb7f37b603fddfebaf736f1b4a660189a8e93fee739bf5e02161b3612630cc2e0ae5600102612550565b6124177f81ddea45a8197ff884b9c5fbc7591e48dbcedc9993b35a79469b556e8e1cfa7d600102612550565b6124437f9311059dfb02954bf5e93b596e485351a69c95a7f7b57cd77ca176a3dde34818600102612550565b61245461244e61361c565b8361587f565b6124807ff1885d15678c07e2ca8ab202f72a0dfbf9fd810fe14f1d68e71055f8d620ac24600102612550565b6124ac7f25f5410c83dd48c8625203b9dbb1c4170112f8d17d4b4463e44c34a4317679db600102612550565b60019050919050565b60006124e37fbf931dcabdb54f9cf6131fb9a33aa90a9381b063b050d9b1051d6b01312e7935600102613251565b61250f7fe9d6c8ed527f170a7c24779f500a202c469342e57f3009b47f6c93a884fd3083600102613251565b61253b7fb978e62fa33d3783669099bbb58db7dd24483f032ed3e77f8fce1846f11b4e8a600102613251565b603960019054906101000a900460ff16905090565b50565b60006125817f8c824bfaa5af39c368e3e9a4ea24186b6c6b48a8c6fe96fe6cd0aa04b1e0a39760010261325a565b6125ad7ffa2170c6871598607d246696244c7e096bcbbb41e34802dc15b23b73e0a80fd460010261325a565b6125d97f06cab822d30e02e0460e10de52f8fc504d553408100d19f0b6d0e2c4bde54e1a60010261325a565b603460008373ffffffffffffffffffffffffffffffffffffffff1673ffffffffffffffffffffffffffffffffffffffff168152602001908152602001600020549050919050565b600061264e7f69e0670b5e94bfae00bdd6fa8126f76fe82c1b26c2319af9130e763737851633600102613254565b61267a7fe67c95fbdc14e20449bff2c5f693e6838085791dc2bdb9fa5bc7363fb9f242fd600102613254565b6126a67f0ad6a77e809a8988d113ffd61911ed3928854313072d868f339cc625d33ff93f600102613254565b6126d27f0652cc954f9a327135870de3f12aa2576255f57f0161d44bfc2becdaa8fd4845600102613254565b6126fc60336000806001028152602001908152602001600020600201546126f761361c565b612935565b1515612796576040517f08c379a000000000000000000000000000000000000000000000000000000000815260040180806020018281038252602d8152602001807f416363657373436f6e74726f6c3a2053656e64657220646f206e6f742068617681526020017f652061646d696e2072696768740000000000000000000000000000000000000081525060400191505060405180910390fd5b6127c27fde9032b37712dcf83d23ad0fd37c6a83b219b433a7b8ce1f42ceeb7b47a979ca600102613254565b6127ee7f0f74c4650d79193b9416c2ccc6a0e95f664bb5cb51a61af3dbfd5ef2e7b139ad600102613254565b61281a7f492776d47cc6d637c240dadeab3658b478e00d3fe21b6d4166ae59ea133f7280600102612550565b6128467f8bc6e71d9741a05ff05ff8e92d917242510f55a549c341df5f31be7ea83518e4600102612550565b6128727fb7e89e67c27acf37ecdd29374e5979f6e4d272265838d1f50a03a2014bd77449600102612550565b61287a615e43565b905090565b60006128ad7fb983b3936f1afababd90dbf660b7005cc01dc807a0812d8d8326405bb8a1cc94600102613254565b6128d97ff88fd38bc2593942623f52c692c33cb6e8022bf5cb6329a80296c3169516d1df600102613254565b6129057f54afbc72f972b42502e93ef993bcda0fd22fb9f2fe4da1b4f28b99b9ec9292c8600102613254565b61292d82603360008681526020019081526020016000206000016161a090919063ffffffff16565b905092915050565b60006129637fb65efe463c25ae82d20e0f7e4c28d7a6351157baffb633a2cbc1bf96aeeb89d3600102613254565b61298f7f7d093c766c1c64310e6fabb3a0e3578715150ad6b1d9270d176172d50d1a01d4600102613254565b6129bb7f4f50af5c27585fe9c951b0b7a76df5ff42cc47465ed470ec9803fbfe3aaf9527600102613254565b6129e3826033600086815260200190815260200160002060000161623f90919063ffffffff16565b905092915050565b6060612a197f5bda7a03de43698715a467dadfc5c30616e07a32384a1ceae4e8eb34f9b33d6a60010261325a565b612a457f5726944ccdd50ffc14a2359a2c89366c12cada5cacc1c450eff39c18e40d7c2460010261325a565b612a717fc531a3df7593ef29a4d263dfc7ea91a224217eb8f5fe4e37028b838f2c85726660010261325a565b60388054600181600116156101000203166002900480601f016020809104026020016040519081016040528092919081815260200182805460018160011615610100020316600290048015612b075780601f10612adc57610100808354040283529160200191612b07565b820191906000526020600020905b815481529060010190602001808311612aea57829003601f168201915b5050505050905090565b600060010281565b6000612b477fa03d6c312db4650341b39870d73cbe78c64a82e8f35e53015c04eed246e9cf2560010261325a565b612b737f4daaf5834d58fd76f445e5583e159ff60aeb74d604555c754d01f75178c2d90360010261325a565b612b9f7fbdae4f154bf5d2a972502f3656508192614652baf912a09cfceba1c246757a6560010261325a565b600060356000612bad61361c565b73ffffffffffffffffffffffffffffffffffffffff1673ffffffffffffffffffffffffffffffffffffffff16815260200190815260200160002060008573ffffffffffffffffffffffffffffffffffffffff1673ffffffffffffffffffffffffffffffffffffffff168152602001908152602001600020549050612c537fee57427ff2c9f3e9d1a0017a1e123db16e2ecf4681114d417cd8425bc687128260010261325a565b612c7f7f73b8af77d0ec296c7ccda9b616d11e99e578621af70bdecc2c3a7bec2df8273e60010261325a565b612cab7f9b4ba1873f4d4a2a6a9c406449f003884f59188d855e46b0eb93648554f0daf860010261325a565b828110151515612d49576040517f08c379a00000000000000000000000000000000000000000000000000000000081526004018080602001828103825260258152602001807f45524332303a2064656372656173656420616c6c6f77616e63652062656c6f7781526020017f207a65726f00000000000000000000000000000000000000000000000000000081525060400191505060405180910390fd5b612d757f8edd4e310f06e9fa36b857af9b7bc40d63b74b77e243c0772205db6b7287b20060010261325a565b612da17fd68241b2a94a0bdd7d10083fb48453ae6d3f41334da521e75042fa8696ff748b60010261325a565b612dcd7f10afb27f8b40c84004a2ffed8b79d549370fc2dabcb1ad9a2bfa309871f52a6f60010261325a565b612de1612dd861361c565b858584036136a8565b612e0d7ff276829b1cbacdbfa226dec0587a08edb35828c8e50d2b0fc1ebcb19b71b207860010261325a565b612e397f2e16fc3e80893c07b3721e17ca29a05c174ade79e1c0fbe51fd390d4bd7df69260010261325a565b600191505092915050565b6000612e727f6aadb471497bf879f4dc6cb1c4101d7785c3f568da50e58619461d3713e2a6ec600102613251565b612e9e7f9b6520773937a54f6f0f5e2713b4ba508c3a4e04f7430bfa6eb20b4a9e13a329600102613251565b612eca7f04f741957659a81de5467b3d045f1ffbfec756a01a9ddaeda33188449ffc1b19600102613251565b612ef67fa2beb1db0c577b16cafee083294f1da22d948c9d3ddad2fc759e44ed91c31217600102613251565b603960019054906101000a900460ff16151515612f7b576040517f08c379a00000000000000000000000000000000000000000000000000000000081526004018080602001828103825260108152602001807f5061757361626c653a207061757365640000000000000000000000000000000081525060200191505060405180910390fd5b612fa77f9d4763ee954f1458538c5b3b7434616210d91e72f1a6aa403dd26aa75d6f339d600102613251565b612fd37f346b15beaae09025c818abf92356d9f67254168cd1af842fee38447f35246837600102613251565b612fff7f7112cc4991d6b359aadb91b0e1c80631c2c5b597a9587d6696be322589036ea1600102612550565b61302b7f27a600b973b3307e9333a581a1e796d0f288c929d79a55a54e8d9c0dc6e24196600102612550565b6130577f6f2d968f17d2a4905b112d88142a54f30a52cc8030b04caf9ba63ee851d1bf6f600102612550565b6000603c548301905061308c7f0b3212f6ca73789afbcc62e49a3f4dd15457c6403b2a520e89ad54a3bda81b7c600102612550565b6130b87fef0aa9ac6106e5b09f11bcbb290338c46863e3fe56e513ea89a530d3f12d54f5600102612550565b60006130c261361c565b90506130f07fe4f8a7e779ccf0606d3879f205c4f6b34e1593e3fa01ae5906d1c098d01e532f600102612550565b61311c7f32fc1992e2da9b664d2ab0fff5333610e414e8cffd02e2a04da8144dff19f7c8600102612550565b6131268183613dff565b6131527f6f221dbff7b2b0b41121548fe19873fee4fe76fe259bc1f9fb7d112fbe2e1bfc600102612550565b61317e7f3e2a702479198a9b05ef04c68f16dc68fa682fedfa82275493a47eeee44e7d4b600102612550565b61318a81603c5461417b565b6131b67fa6ec409c092117842b8bfe0ff92ed9e8c390c45cf60df7d77197348ad7d13a9a600102612550565b6131e27f8f2826d25f5bb0da6d21bcd299df42962950b8f73f77dea97bf6743ec4607919600102612550565b6131ed818686614230565b6132197f04f595df2e51040e91db21a354f3ee430d9c23b0d2d762436728fd9551c75f93600102612550565b6132457f5c52883fa9abc263ec2be37d1ba31c60b18f32ec11d921159e710d3a8e844f69600102612550565b60019250505092915050565b50565b50565b50565b50565b600061328b7f19efaf760aea5e3001510054717488a6dd9b94c9997c65d279e6ceecf8d35bfe600102613254565b6132b77f6726d6abe671c732875c90b614e28d5ef5c800ca001cf18da5b7d188df8ed44e600102613254565b6132e37ff785180a1eb1c339890b46941ee7a3e9bb257be311f3eeaae1b7499efe63e648600102613254565b613301603360008481526020019081526020016000206000016162f3565b9050919050565b50565b6133377f53e19a5a6929dc1cce85602f5961747bc35791f4c4eb4b4c0279ed9dfa32f800600102613254565b6133637f017a747fafe579fc770ba38d3987f6136841e05cd40090109533e28b7b5eac75600102613254565b61338f7fe4d1ebb24d68c2b54cef4b99be831d6286c04e3691cb9be817d1389fff39b6d5600102613254565b6133bb7fe5230b3666611c4456fd684d1dd9bafd3de7f71fab1ad81537d24de8bd8d59b4600102613254565b6133e260336000848152602001908152602001600020600201546133dd61361c565b612935565b151561347c576040517f08c379a00000000000000000000000000000000000000000000000000000000081526004018080602001828103825260308152602001807f416363657373436f6e74726f6c3a2073656e646572206d75737420626520616e81526020017f2061646d696e20746f207265766f6b650000000000000000000000000000000081525060400191505060405180910390fd5b6134a87f33e9334d1d19c53350e32c81f1ff3593459d28f1865430c35a44097d92ee6725600102613254565b6134d47fb836153154f547e23767d5a388abb05a4c68cd7a8b579e4e91d9f8c638ad46a4600102613254565b6135007f4d62ef917060aa62062746fc6a153722d1dbbdd07889124539fac6b22e215b1f600102613254565b61350a8282614f49565b5050565b50565b600061353f7fd89ef16f17ad30542dbb80bcb58d7473b4c584fdbf489ab25228e1152873b52960010261325a565b61356b7fb8299b0abc7ffcda333d573b76990b81c1b132ca8b5ada0f8ad7750147d40e0460010261325a565b6135977f22afad94c95d5c64123d6d957e6c4a23ea48d4d8a2aafd1d5c9940a1016083e960010261325a565b603560008473ffffffffffffffffffffffffffffffffffffffff1673ffffffffffffffffffffffffffffffffffffffff16815260200190815260200160002060008373ffffffffffffffffffffffffffffffffffffffff1673ffffffffffffffffffffffffffffffffffffffff16815260200190815260200160002054905092915050565b600061364a7fd3ec971f1c1cc20d1bc63c03461a6251da98ef03f48f7526c739f9aeb2cdecd760010261350e565b6136767facc6e0159aaa1aca3862a0d5e1c3f634c70f0c287258dd1b30d9e5cd1694a17660010261350e565b6136a27f027cd264501c5511be5a3325ffb3a3f9f642b6590dec255c98dc4dc15696d66360010261350e565b33905090565b6136d47fb0fc811327a5ddee14ad90ce6046c83cf1d75a821bf90072dec7b5f8d8cd4f9760010261325a565b6137007f06b566407872bf2ed66c2664eb14fc418781610f72dda32168c127b4f316c86c60010261325a565b61372c7fba77304c37401db54be773e302f81e8b26bd344f365cce048428ee8fd63e61e660010261325a565b6137587fc4945a0fa1af1c492d779921fcbdb321166d8346ca55c264a183d6c9247dec8360010261325a565b600073ffffffffffffffffffffffffffffffffffffffff168373ffffffffffffffffffffffffffffffffffffffff1614151515613823576040517f08c379a00000000000000000000000000000000000000000000000000000000081526004018080602001828103825260248152602001807f45524332303a20617070726f76652066726f6d20746865207a65726f2061646481526020017f726573730000000000000000000000000000000000000000000000000000000081525060400191505060405180910390fd5b61384f7f11288c9e33b1fb41ba44d404ded56b28cd084c7c0b88028fd5903c1756eb3bda60010261325a565b61387b7f7c3277df26d05402efca677f23c1af634f2f5435cd760e529a705c8c01b1ed7b60010261325a565b6138a77fa974e3e162460af8a5fc17fb06b9eb5fe6e4fe641e9bd9f84d04b6b18c3fa41b60010261325a565b6138d37f94f2e6ca8cd960023c695944924d84740a5a8eb4dfa5adbbcd7506dfb93279ec60010261325a565b600073ffffffffffffffffffffffffffffffffffffffff168273ffffffffffffffffffffffffffffffffffffffff161415151561399e576040517f08c379a00000000000000000000000000000000000000000000000000000000081526004018080602001828103825260228152602001807f45524332303a20617070726f766520746f20746865207a65726f20616464726581526020017f737300000000000000000000000000000000000000000000000000000000000081525060400191505060405180910390fd5b6139ca7f2fcf171388402b5c55f72c2f0f52679643730ca8a0f004b871ca16a7238f60c660010261325a565b6139f67f088da333c75b87cf5d99428cc0a735866c1d391eb46909d767c15226ad434c8560010261325a565b613a227fa2331179e4478056127cee50f66954c12747c0f35361624e1110754cfae8f51b60010261325a565b80603560008573ffffffffffffffffffffffffffffffffffffffff1673ffffffffffffffffffffffffffffffffffffffff16815260200190815260200160002060008473ffffffffffffffffffffffffffffffffffffffff1673ffffffffffffffffffffffffffffffffffffffff16815260200190815260200160002081905550613acf7f78343885fa2c3f5fdd53dafcc286ef1602ecfd9a5d415591167dcfb23e7177fe60010261325a565b613afb7f02a4b02e5131a4b7385cc6420564ae69e02c8e753d590502056627c10b0e273f60010261325a565b8173ffffffffffffffffffffffffffffffffffffffff168373ffffffffffffffffffffffffffffffffffffffff167f8c5be1e5ebec7d5bd14f71427d1e84f3dd0314c0f7b2291e5b200ac8c7c3b925836040518082815260200191505060405180910390a3505050565b613b917f0dc6e1455f8e874e47e007e62ef7795f6eb315e8719d2a7d4aa11e6302bd8368600102613257565b613bbd7f375653df0dacc7a185d749c93077e6445d65f7d40bb39039795fb4846f1f37d6600102613257565b613be97ff9c3b19403a58878bac5b6927619092d5b0e940984c0783a378e3ef8d01b73a1600102613257565b613c157f7e99fd62cf24f9c0772dc84dd6fb70b1153e75039d0e4c96d0ea2c75a621e98c600102613257565b603a60008373ffffffffffffffffffffffffffffffffffffffff1673ffffffffffffffffffffffffffffffffffffffff168152602001908152602001600020600082815260200190815260200160002060009054906101000a900460ff16151515613d0e576040517f08c379a00000000000000000000000000000000000000000000000000000000081526004018080602001828103825260398152602001807f4554486c6573733a20746865206e6f6e63652068617320616c7265616479206281526020017f65656e207573656420666f72207468697320616464726573730000000000000081525060400191505060405180910390fd5b613d3a7f697ae0a10a55d7211e6b6e760c61899aba8afd6a19e99a14fe3ad6c6b18cb55e600102613257565b613d667f4a5d6448f18751ef60d3d40acd6be1731f792905d48da5cc35f1a00488513baa600102613257565b613d927fe0678843be403bb58d00afa1e48e9b279af45ef103261feb102a470677308a9f600102613257565b6001603a60008473ffffffffffffffffffffffffffffffffffffffff1673ffffffffffffffffffffffffffffffffffffffff168152602001908152602001600020600083815260200190815260200160002060006101000a81548160ff0219169083151502179055505050565b613e2b7fde10704a5f026a6fe5e54844c3f8c807acd871e48e8505434f4372a7dc7b2e9a600102612550565b613e577f252345876fe7c6929207bf1f74ae901087b6d6bfc9b56c978bd010315d760b2c600102612550565b613e837f57eade0d084f6a6c7fe49abf8cccff1e3c0d345b4eee8e0204bbc2cf5026535c600102612550565b613eaf7f813298f566d40bfa4b18e1e609cd800b3424c61ca8509202bc6b4ca41414fe48600102612550565b80613eb983612553565b10151515613f55576040517f08c379a000000000000000000000000000000000000000000000000000000000815260040180806020018281038252602b8152602001807f455243323057697468536166655472616e736665723a20696e7375666669636981526020017f656e742062616c616e636500000000000000000000000000000000000000000081525060400191505060405180910390fd5b613f817f547e0c1ea98098b1bb68138a61d37f34aafad8237a125f2841fbcc52858adb04600102612550565b5050565b613fb17f6946bdd5f035815558b85fb56f00e313048e933e1918b1246a6dbe645fd8ab60600102613257565b613fdd7fe375b99f0a9174f4a7fe658d5c026674eae10c6183b0efc245401c3ef9418365600102613257565b6140097f619a6dee90d8cd16bf45b4281a1a54a61e51ff7ce0cb4d9c5617d24d06e177ab600102613257565b6000878787878787604051602001808773ffffffffffffffffffffffffffffffffffffffff1673ffffffffffffffffffffffffffffffffffffffff166c010000000000000000000000000281526014018673ffffffffffffffffffffffffffffffffffffffff1673ffffffffffffffffffffffffffffffffffffffff166c010000000000000000000000000281526014018573ffffffffffffffffffffffffffffffffffffffff1673ffffffffffffffffffffffffffffffffffffffff166c0100000000000000000000000002815260140184815260200183815260200182815260200196505050505050506040516020818303038152906040528051906020012090506141397f7bcbf77d7ce71e4fb7f52131d5e3aa62bf1625157e196c968b015f6f80e03fef600102613257565b6141657f2dcf9e5d42b8bfe83243c34703cc3d2d0651e193f6d47bbe855634fb0f179f66600102613257565b61417081888461638c565b505050505050505050565b6141a77febcf12750e604a31be6753fb61f69081afc11f2229fe6d67636f0928456a1e6a600102612550565b6141d37f196b40f6f0c00bfb47bec47ff94492f0d1f50aa184ed3b82673d2c0e4633c802600102612550565b6141ff7f789b1b196a643cb50a58b54ce1c81a26c4f012c2a3ba06ee226a1d6cf040c7e1600102612550565b61422c82603b60009054906101000a900473ffffffffffffffffffffffffffffffffffffffff1683614230565b5050565b61425c7f55b5c5007606d62405887f114413aa53804a1a0e7b4e775b274bc551cd9a7b4660010261325a565b6142887fe2d0c43b17ae83c99975e3dce5d8546fe39bc79362075bc328816a6a47be6fdc60010261325a565b6142b47fbede0f7d56ca92e0485989ddae1cd96c583f2ce54ee1f6f71f087dd2350b6ef960010261325a565b6142e07f56d21b4ce3549f141b6645ca5280ea1cb11e21d899465ab0c7d52b8b9ac7259760010261325a565b600073ffffffffffffffffffffffffffffffffffffffff168373ffffffffffffffffffffffffffffffffffffffff16141515156143ab576040517f08c379a00000000000000000000000000000000000000000000000000000000081526004018080602001828103825260258152602001807f45524332303a207472616e736665722066726f6d20746865207a65726f20616481526020017f647265737300000000000000000000000000000000000000000000000000000081525060400191505060405180910390fd5b6143d77f03217d590139fc42fbd564498044885564aaaf5196a217d288be0e645b0eaf4060010261325a565b6144037f0b5da7b2e0e5b1c844514106fcff9d729802fa6c78116a792bf73eab8dac150960010261325a565b61442f7fc8069e76f9649e9a14bb376026b3eb33c355f217c2c0ea13f9b1c0319276406560010261325a565b61445b7f7ee6c715e9eaa9d867c360a6fc736b9feab7ff56b2ce4bd20f88a84fd46e54cc60010261325a565b600073ffffffffffffffffffffffffffffffffffffffff168273ffffffffffffffffffffffffffffffffffffffff1614151515614526576040517f08c379a00000000000000000000000000000000000000000000000000000000081526004018080602001828103825260238152602001807f45524332303a207472616e7366657220746f20746865207a65726f206164647281526020017f657373000000000000000000000000000000000000000000000000000000000081525060400191505060405180910390fd5b6145527f69f1ca78594dde743036a18c814533a4e03d09dfd9d021db95cbc7be4cad5ec660010261325a565b61457e7f0917047f2cc7b73773478a679354e0901328949c4b905452b2dd1225c165740b60010261325a565b6145aa7ff13f1e52504ee0294b4874a566a87d2e045c50e8613ade78676a4f860950a9fb60010261325a565b6145b5838383616646565b6145e17f441bbb20125f59f458e0f319646b118fcdedda2d15629100d1ca4ab4f9e041b660010261325a565b61460d7f3d405e62da2329232cb77a82fa02c54f061008cffb34757949d64e6935f44db160010261325a565b6000603460008573ffffffffffffffffffffffffffffffffffffffff1673ffffffffffffffffffffffffffffffffffffffff16815260200190815260200160002054905061467d7fa8af672d06dc4c009c5ff914ca39e23d25f1d8d85dde0c68d3817c019cfe6a1960010261325a565b6146a97fd2713d4e08343b4889b274e3965a21e1a6712084966afa7d81d7f515f5a4c93660010261325a565b6146d57fa8bfee9b877f5cbcca8f43000f506557286e20b13f0b6f49138a9e9b51a2e16c60010261325a565b818110151515614773576040517f08c379a00000000000000000000000000000000000000000000000000000000081526004018080602001828103825260268152602001807f45524332303a207472616e7366657220616d6f756e742065786365656473206281526020017f616c616e6365000000000000000000000000000000000000000000000000000081525060400191505060405180910390fd5b61479f7f5a27e95454ba8b8e8d21136f11f84a870ee911620bbb7710763794d370c0e3e360010261325a565b6147cb7f9980e0148fcb300e1054a8a13a70048f42efc278debff1b3b5a5d02c17151e2660010261325a565b6147f77fd754f40ead314ae0dc6d92999204818f272eb887553d46613a71f297561e76e360010261325a565b818103603460008673ffffffffffffffffffffffffffffffffffffffff1673ffffffffffffffffffffffffffffffffffffffff168152602001908152602001600020819055506148697f1879041d205e3bf26109a267351e5ba26cdaa7d1e08178c2e2ac5b6fefe7592a60010261325a565b6148957fbfaf46d11e61c04ffae9471e9aa8da78f76a8eccc609b0b6cb21e3bdb3fd6b2560010261325a565b6148e782603460008673ffffffffffffffffffffffffffffffffffffffff1673ffffffffffffffffffffffffffffffffffffffff1681526020019081526020016000205461667790919063ffffffff16565b603460008573ffffffffffffffffffffffffffffffffffffffff1673ffffffffffffffffffffffffffffffffffffffff168152602001908152602001600020819055506149567f370b9f541581c077603c81521305f16b2a309070b6179c7a9659a74f1e3c310360010261325a565b6149827f0da5063ccf5002eb408e9f65446201ab5b897852fb396dfbc7a9cf14c040d44460010261325a565b8273ffffffffffffffffffffffffffffffffffffffff168473ffffffffffffffffffffffffffffffffffffffff167fddf252ad1be2c89b69c2b068fc378daa952ba7f163c4a11628f55a4df523b3ef846040518082815260200191505060405180910390a350505050565b6000614a1b7fb8777a386a03f4b9a8a85e9367d612a31f8831025b40b08b99cb8e467c16ff2260010261325a565b614a477f3ab8351ccb07ab0dc632142ea8929da1d861951c2747f829bad2ccf9de654f3960010261325a565b614a737f53afdedc99990ca7c223a1fcd45289c1e1beac86f84e4c833aada695554951dd60010261325a565b614a7e848484614230565b614aaa7f03f0d679e2fa11a00b79c248524297f40707f037076b07a318e4beae64f9da7b60010261325a565b614ad67f4c2cd6e3a7090f6a201fc1431cc11247a7a64553b220b9768b987e680a319c9260010261325a565b6000603560008673ffffffffffffffffffffffffffffffffffffffff1673ffffffffffffffffffffffffffffffffffffffff1681526020019081526020016000206000614b2161361c565b73ffffffffffffffffffffffffffffffffffffffff1673ffffffffffffffffffffffffffffffffffffffff168152602001908152602001600020549050614b8a7f36d289b74ac78bd02d02432d6a0edebd845d7b7c4cf7533c91c5ca1e715b0a9360010261325a565b614bb67f4ea4096557afd4947cec194c4196861bc6316990e7eb10ab513ab7e81ca91aee60010261325a565b614be27fed9b2ef481d97eaecbb8321242c09e25c8cee08baae350a9837735b7f0d4ce9d60010261325a565b828110151515614c80576040517f08c379a00000000000000000000000000000000000000000000000000000000081526004018080602001828103825260288152602001807f45524332303a207472616e7366657220616d6f756e742065786365656473206181526020017f6c6c6f77616e636500000000000000000000000000000000000000000000000081525060400191505060405180910390fd5b614cac7ffdfd2bef691949c5f7b60df67f5f64cd5029bd61ddd7222611afc31737935dc660010261325a565b614cd87fc483a363115000d9926e38d755e65dd02154f5b38259fb715c4222c46f876ae460010261325a565b614d047fb3b84297711476ed86a984901d42765f5e2ab855014727e1e846b764df9ba68160010261325a565b614d1885614d1061361c565b8584036136a8565b614d447f4324612166dbc92c00d103a2c7ba0fcd98043ed880dfde98df1155a5356f951860010261325a565b614d707f93340a407ea5cc65ce8d9a27aa5012b92377d58bd5e86c76f3d400c96dfba64260010261325a565b60019150509392505050565b614da87fb30e1dd49160d3c9cf718017b1174b0e6b032ce8d75598dc58033db3f017d4b0600102613254565b614dd47f8289e920a3991776b700a8d89cd1effd60765d90d879588a159ae631f562a5c4600102613254565b614e007f7ce19d7bde3202b6cb1b4a8e2a61e2a6ca58cb25fc104b87b93b81cf99426e02600102613254565b614e28816033600085815260200190815260200160002060000161688e90919063ffffffff16565b15614f1857614e597f714883bafe314d2de916b639936598bf90d0b24aa4ead0dda797cdde2ab1095e600102613254565b614e857ffe785bb21613e5edd58f766831a67162f10068de53144c8934e429813d9f3bb4600102613254565b614eb17f028ffb443eeb70c04913e19956cc83f8eb20b32a1b8164ead7c664d3add6cafb600102613254565b614eb961361c565b73ffffffffffffffffffffffffffffffffffffffff168173ffffffffffffffffffffffffffffffffffffffff16837f2f8788117e7eff1d82e926ec794901d17c78024a50270940304540a733656f0d60405160405180910390a4614f45565b614f447fc66ae3396d738ede72a8ffe67e903a198805d1e6f6000440d9077a0bad9971ef600102613254565b5b5050565b614f757f0e295b4ee4cd5fa7ce91d96214f85629bac3f3296a3b9c7d6721086c173476c0600102613254565b614fa17f8554f62565f276297d50cf32fd48eabc620ec20e8bf4867672e16b0a8d1dcde7600102613254565b614fcd7ffaa477ae9eacc8276a3423deb042036251665d4f828753b5f49ccddf2b32c2e0600102613254565b614ff5816033600085815260200190815260200160002060000161694290919063ffffffff16565b156150e5576150267fecd3d0a6d175cd3eb30c8160ff8c0a1477a4183c1aeccd0a58dae43a4117657f600102613254565b6150527f3e41677f4fc3a9fa2b448e1c18a983ea696ead08a27419e1b43d47673c6b7cf3600102613254565b61507e7f8c3856901091b54b75f856348c10521f1e0d98d2731d670801d3b8dbcd5539ef600102613254565b61508661361c565b73ffffffffffffffffffffffffffffffffffffffff168173ffffffffffffffffffffffffffffffffffffffff16837ff6391f5c32d9c69d2a47ea670b442974b53935d1edc7fd64eb21e047a839171b60405160405180910390a4615112565b6151117f235fb31fd2e74f7e871f6afa40da60526294c79eabe5b1724b43ed9fd52a81a4600102613254565b5b5050565b60006151447fbd1f061a19edd261866e529a0220d30ee08a214b3be1f22fc72c8dbfd7f3f69c600102613251565b6151707f5ac438f97c6ca50852c9af55c0f9a785e442e58173a25e1f67a72586541dc8f3600102613251565b61519c7f880a9f09c8c49fea211aee3d1edba2c1783ec860e04509b940c2d59300329424600102613251565b6151c87fbd2c9d09e8f39f22b3313aec9ce2cd07555be44156492ae6e28f21725e0655b5600102613251565b603960019054906101000a900460ff16151561524c576040517f08c379a00000000000000000000000000000000000000000000000000000000081526004018080602001828103825260148152602001807f5061757361626c653a206e6f742070617573656400000000000000000000000081525060200191505060405180910390fd5b6152787f58f21caa5cc1e88ae6affdc7e3a39505a5fbd81333f9a03fb0f0f57cd00a6a26600102613251565b6152a47ff9f37506c69b69e91166fb9c226a5f2f3b1ab7db64e05966f2370f193a332315600102613251565b6152d07fe95cf0730da4b9570289397fd87c496039c9a2073696fe43e5f5f4cb1f99a00a600102613251565b6152fc7f6ec9bca07fbdecf7ac4f976936b5ff892cc815529c6b6b4f26012522edcfcac4600102613251565b6153287fad635d938f816a840e3396eb71fe7e97d7a459584907c62c5daf03016668b5ee600102613251565b6000603960016101000a81548160ff02191690831515021790555061536f7fb0f8796a95d2d525618a5392ced2f62df782c454bc5acaeb2ed5332da37c9100600102613251565b61539b7ff1bdf10071897e641cf57e4c9bb1762f36f709f2595125d3383fb121891204eb600102613251565b7f5db9ee0a495bf2e6ff9c91a7834c1ba4fdd244a5e8aa4e537bd38aeae4b073aa6153c461361c565b604051808273ffffffffffffffffffffffffffffffffffffffff1673ffffffffffffffffffffffffffffffffffffffff16815260200191505060405180910390a16154317fb1fc2176b5f76edf307c49b45afa87cc98a105affbe4055e98225abc908e738a600102613251565b61545d7f6c59648d6051f1a4a00a9ab771b8111ec818815c94f51016ddcceba9f69bdec4600102613251565b603960019054906101000a900460ff16905090565b61549e7fec606195f946d9370399103a899591b10d584dff8e5b99797d85ac596339af6c60010261325a565b6154ca7fd729e93bb5a83d8ea9e62472c97fe441cbe1852c5a08eea95861b89a5ec0791c60010261325a565b6154f67f16ba861a4081f62d9c1a1a4b8f6771ae41800dcecbb0051bc01e9eca5adbb50b60010261325a565b6155227f1f2a651014b2f5a033ab65d258c7d1a7e2c03437a30b6567c0615cbb6282ae0360010261325a565b600073ffffffffffffffffffffffffffffffffffffffff168273ffffffffffffffffffffffffffffffffffffffff16141515156155c7576040517f08c379a000000000000000000000000000000000000000000000000000000000815260040180806020018281038252601f8152602001807f45524332303a206d696e7420746f20746865207a65726f20616464726573730081525060200191505060405180910390fd5b6155f37fe8d41bf399ae67332e7d6e43f18e3b031082a7ce476f91689457882070b6ace660010261325a565b61561f7fea4e4cfbba9cc66286a463df07e8101433a5ed3017227191c63d229669d9745b60010261325a565b61564b7ffa90b98c72284083e86f822fb2523ce5be047dd7055289a7b5eca85446ce29a360010261325a565b61565760008383616646565b6156837f97d236dd961c9326eda9af0499f6a577553f196e8638f0a0b21eb2f8af24722560010261325a565b6156af7fd73f8764d428528b82ab3cc4d3f32317b4b396cd66bd4df16eb6bd74e53943b660010261325a565b6156c48160365461667790919063ffffffff16565b6036819055506156f67f41c421b9f74123cc473021d394fed852eed725643eb9f23d85a7beab16e4be5d60010261325a565b6157227f9ae42273b566cfab7b49baa2a8d3a93dba97486b8b54e77c536c35fdfab872af60010261325a565b61577481603460008573ffffffffffffffffffffffffffffffffffffffff1673ffffffffffffffffffffffffffffffffffffffff1681526020019081526020016000205461667790919063ffffffff16565b603460008473ffffffffffffffffffffffffffffffffffffffff1673ffffffffffffffffffffffffffffffffffffffff168152602001908152602001600020819055506157e37fe2dc3cb55454a7b656bb4c19f3ee89e35d9f86b529b4a796f4965b918655f8ef60010261325a565b61580f7f0d0a79ddb405d88fecd0e5153eec67f7f6763715e2a57ec55b25791f759021ce60010261325a565b8173ffffffffffffffffffffffffffffffffffffffff1661582e61361c565b73ffffffffffffffffffffffffffffffffffffffff167fab8530f87dc9b59234c4623bf917212bb2536d647574c8e7e5da92c2ede0c9f8836040518082815260200191505060405180910390a35050565b6158ab7fdda20bcfe13ad0d9d48269f664e68fa4873b568b675329f5d5eb4ccd071501e760010261325a565b6158d77fb55f3e98ca3b21432bb35b1a4dcc581bf1b1b04b73b40ffc5c67ee0461e67d8160010261325a565b6159037fdfadc7136cf498bc1a460e8845ddccf1a1511959dfd7bc9fe8be79e631e1cc2160010261325a565b61592f7f35633bdbd985a38b596f69b8a3f0734a9bea40f35a2ec33184e20db1a665418760010261325a565b600073ffffffffffffffffffffffffffffffffffffffff168273ffffffffffffffffffffffffffffffffffffffff16141515156159fa576040517f08c379a00000000000000000000000000000000000000000000000000000000081526004018080602001828103825260218152602001807f45524332303a206275726e2066726f6d20746865207a65726f2061646472657381526020017f730000000000000000000000000000000000000000000000000000000000000081525060400191505060405180910390fd5b615a267faee8d64e891dcfa468e98372e65c26192765c499e335424e44963011a3584d2860010261325a565b615a527f19bb82e6acd6158143809c49089a7b3a6a2966f701b52f5ee0f28b9bedb7b2fb60010261325a565b615a7e7f7a273f794d51c0e369d81c0e3f25c76af7091a726d4a1f0449e81c9ed821317f60010261325a565b615a8a82600083616646565b615ab67f0e5b7a27e15b13d63e0cf4e0304556840276df96eb3f16351c4429cac6f56cdf60010261325a565b615ae27f2aafc038c3e852ef8fa61e798ed7c7644b501ebce1407439e195d53c34aead2260010261325a565b6000603460008473ffffffffffffffffffffffffffffffffffffffff1673ffffffffffffffffffffffffffffffffffffffff168152602001908152602001600020549050615b527fc50af0f7bc0cacdbb7b0d8617d45b1fc24c41e6d5c2d348c0fc3f8351000289e60010261325a565b615b7e7f4a0cd30b5d19c5ec50e5946a0c5e73509460ac864a4eac4844163f61c270a19360010261325a565b615baa7ff3100a30e8ed704e5b2067f4593cf7ed17b2ddc5c2385040cb2f194468203c0660010261325a565b818110151515615c48576040517f08c379a00000000000000000000000000000000000000000000000000000000081526004018080602001828103825260228152602001807f45524332303a206275726e20616d6f756e7420657863656564732062616c616e81526020017f636500000000000000000000000000000000000000000000000000000000000081525060400191505060405180910390fd5b615c747f43663853fa1ff95e0e3401aa22d50c8591eef577649b224d08f6fadcfd44aef460010261325a565b615ca07f59af99a467dcfcabb8235bb2b3ff5239c1221e3f33c9d7b36149ac82670a4b4f60010261325a565b615ccc7f2363c3ccbc47fd6f68c1724ab2cc1b4a80900457599fe300ad78f866ec32012d60010261325a565b818103603460008573ffffffffffffffffffffffffffffffffffffffff1673ffffffffffffffffffffffffffffffffffffffff16815260200190815260200160002081905550615d3e7f5fdc613455abfc5d6285e1c34f0bd7713d1bd8be2e6e464bc85e601fb02352d960010261325a565b615d6a7fcf1396911f1514903046f72968bae76ccf3b04fe7f6da448adc9809798b08f7460010261325a565b81603660008282540392505081905550615da67f0cf4163efaf5e6095b4beeedcaaafa8b054ddf8cfd8e77aa5d38491d5a80322660010261325a565b615dd27f55fdfaf1b08056b9a374370d2510ec8edf868b58af37bcd50c0bdcac5ad9460c60010261325a565b8273ffffffffffffffffffffffffffffffffffffffff16615df161361c565b73ffffffffffffffffffffffffffffffffffffffff167fe8a89cc6e5096f9d9f43de82c077c1f4cfe707c0e0c2032176c68813b9ae6a5c846040518082815260200191505060405180910390a3505050565b6000615e717f6aadb471497bf879f4dc6cb1c4101d7785c3f568da50e58619461d3713e2a6ec600102613251565b615e9d7f9b6520773937a54f6f0f5e2713b4ba508c3a4e04f7430bfa6eb20b4a9e13a329600102613251565b615ec97f04f741957659a81de5467b3d045f1ffbfec756a01a9ddaeda33188449ffc1b19600102613251565b615ef57fa2beb1db0c577b16cafee083294f1da22d948c9d3ddad2fc759e44ed91c31217600102613251565b603960019054906101000a900460ff16151515615f7a576040517f08c379a00000000000000000000000000000000000000000000000000000000081526004018080602001828103825260108152602001807f5061757361626c653a207061757365640000000000000000000000000000000081525060200191505060405180910390fd5b615fa67f9d4763ee954f1458538c5b3b7434616210d91e72f1a6aa403dd26aa75d6f339d600102613251565b615fd27f346b15beaae09025c818abf92356d9f67254168cd1af842fee38447f35246837600102613251565b615ffe7f71912775ca7f051c0ec45ef6996d46ed13f7928bf9cd55c809e7624d8e038359600102613251565b61602a7f91d15bf7dd2092f49c61cef90e5f4173ca484579ea87730942f79b9484d12c73600102613251565b6160567fbb07ebfa82a0a7793c03bd1029effb94679f64a393995afcb2f7f5249e06058f600102613251565b6001603960016101000a81548160ff02191690831515021790555061609d7f1264308de817ee7c22b3355e02ffa305d32d5fd8e31e52cbabd46782bb0e0c4f600102613251565b6160c97fc38e700c158565cc1ab9afd9aec22d4dd5f99472ce17e5088679adefa3e7dc7c600102613251565b7f62e78cea01bee320cd4e420270b5ea74000d11b0c9f74754ebdbfc544b05a2586160f261361c565b604051808273ffffffffffffffffffffffffffffffffffffffff1673ffffffffffffffffffffffffffffffffffffffff16815260200191505060405180910390a161615f7f76f82dbc22b71253b4dd3cb18b886b1fa4ddf72ece94f62357a88839358591f4600102613251565b61618b7f51b9da4c0096e9eda923c606962fa14e98ce380dbc04727fb68dfc94f4c83051600102613251565b603960019054906101000a900460ff16905090565b60006161ce7f7ac66eef1b47a7d2e9b51be8a9b91bba7e2322fc5e1a4f47c0e59dfbe73fe41f6001026169f6565b6161fa7f7e30d9df5fc9d69a068ba9c487e47ac080219eeb6b54d2b4f7a6512cbf9a0d7f6001026169f6565b6162267ff7509d05609368274fa8d48d6b73c38533a88d8ab9fe01e0e187e0d04d48a1ae6001026169f6565b61623383600001836169f9565b60019004905092915050565b600061626d7fabf9e400a4fb441469bdad56dce1ec2ea1cf683fb669e34e66fd2a93a330fd7f6001026169f6565b6162997f7de5d45b2a062aaeb10df38ed3ad909919142de9467570126e6be8a31b5c8a0c6001026169f6565b6162c57f55e0428d2da4270a91f2ae6cbbea4712cb440b9e315b9436a21c5ab4b93c4ca96001026169f6565b6162eb836000018373ffffffffffffffffffffffffffffffffffffffff16600102616bf7565b905092915050565b60006163217f28dd0d69d28dd429e8b8997d35815b20a8236b27eb2243c190dcc0ddd793debe6001026169f6565b61634d7f1c095d87e330947ce0d63696d16cc772fdf08a3f375c2b508b974a27cd95285e6001026169f6565b6163797ffa1d249593efd3baa972f1577920aab0503ea3bb62494b1421edf7be2f43e9766001026169f6565b61638582600001616c9f565b9050919050565b60006163ba7fdf8d5c24e398bd8b9816ca19a20bd60b34f90570414c039025af672518eac377600102616d34565b6163e67f8c1b70c5066bbf8424346a9ad6dea1141ae9fb7bf08c6eb75d93370b1aa15713600102616d34565b6164127fae8125e06a4cff5e188019b6e4d3594a1c7291d92e10bc33b6a99d4a1f82c033600102616d34565b600061641d85616d37565b905061644b7f51c5c36aff4e3604780d8a3e91761dd8057b8ba7cf19261a2b37d4c64450add2600102616d34565b6164777fe0aa6eb61027cdbb4fec25804f768aeeb3eb7045c8dcc3eff0e01b0192a0de9f600102616d34565b600061648c8483616e1390919063ffffffff16565b90506164ba7f114e417fb5c5a2240982e68292f8aa20591835c7402e21aa1ca8a27c275f37cd600102616d34565b6164e67f1255c2d69fa3c66a3db97c874c31eb24c541aa45998e006e549b4f08657b5680600102616d34565b6165127f1b04c884245d39204006b91305edcfaba2b766ed8600fb559728a50a08bf33ae600102616d34565b8473ffffffffffffffffffffffffffffffffffffffff168173ffffffffffffffffffffffffffffffffffffffff161415156165b5576040517f08c379a000000000000000000000000000000000000000000000000000000000815260040180806020018281038252601b8152602001807f56616c69646174653a20696e76616c6964207369676e6174757265000000000081525060200191505060405180910390fd5b6165e17f50c609f575ce3af88b55543946eeff5155ff555f48d644308d9d93ca07dd7674600102616d34565b61660d7fa068c14ef15871fbf1fccedafe01b84dcd12d6246875d76cbf0f7e5b2aa97a3e600102616d34565b6166397f733ac49b417141d51a4da301e2959a935c48ccb6b36b6482a8efeb25066a7d78600102616d34565b6001925050509392505050565b6166727fba31d5e1f02b5f684d85720a265f64a2846271af52b9e7c1f02e33e7ec9315c760010261325a565b505050565b60006166a57f4e4b331a07a5b18e4204034f512449ebfd0f3771140e77170292fc0bad9a82736001026173eb565b6166d17f6340bde9a8bb597ee50164e2db96ec539eaad7f8dc000f163c3a000933d6f6146001026173eb565b6166fd7fd93e2fe1c92887232e21002093094e1a084a0cdce256d2dadb9b515a8bb1598e6001026173eb565b600082840190506167307f2c50ea4ed9655d3e9867563b11c4e81543b364b7335375ecffb8d48e643886d66001026173eb565b61675c7ffaba2a709aecc739dcb15f6b9b3ed193c03db0cc938b1ac0c8788d028882a18f6001026173eb565b6167887f0a3b6be11958592c48c73b043decbd242862e716d17fa741327750d855cbaaca6001026173eb565b838110151515616800576040517f08c379a000000000000000000000000000000000000000000000000000000000815260040180806020018281038252601b8152602001807f536166654d6174683a206164646974696f6e206f766572666c6f77000000000081525060200191505060405180910390fd5b61682c7f01d2c1ce8ae0613fed70ff394712d9d07c696f4f00a945716153d869819c68656001026173eb565b6168587fcdbe1c925e18e47d7b97acdd5e47af595c80a5d8a7da5cdb46142fb9dffd53796001026173eb565b6168847f4e4f119bcc730f1c472d9e3d55e16e62db756da6a75171b02a1c1171dc8d70886001026173eb565b8091505092915050565b60006168bc7fcb8373ef59b53e1f948978b53bf96f27fd2da40f6a45291eca046acdf928581e6001026169f6565b6168e87fae2ff531fec42627690275973b8ad740e08413ee514605a84a317071434797bf6001026169f6565b6169147fa39ac82d20ed8aa9796d4645ac77a76d89bdfd3980f310714ba2c9eaa65d6d4b6001026169f6565b61693a836000018373ffffffffffffffffffffffffffffffffffffffff166001026173ee565b905092915050565b60006169707f19e480c4ed5999a0f6c125473f645a0fc117467a8e5703c1b67b87d9c86461a96001026169f6565b61699c7f9e5bb5a183d9ed6d7e85b89b671949a7f03f958e68547904975d596441f3ccd76001026169f6565b6169c87f53062619d8baf53f2756955241d586a55abe1f4fbd570e8271e98e86817436a56001026169f6565b6169ee836000018373ffffffffffffffffffffffffffffffffffffffff1660010261769f565b905092915050565b50565b6000616a277f9f262375d0ded8d9cd48f21920b2bd6ef0dd9891777a93196d6364a309fe4f5b6001026169f6565b616a537f201e51801c4c2aded9373bf92efd8a26cd6e8c3f692c9c9f1756a73e4ef47e276001026169f6565b616a7f7f6cbcf19836a6a02f92b5874a21f9545ef0b7917fadd84b51148b95ee836e0fe26001026169f6565b616aab7fc3eddc064c1f41b10e0e024141a978c7e059c7bf17ac332911a58fcabfe9988a6001026169f6565b818360000180549050111515616b4f576040517f08c379a00000000000000000000000000000000000000000000000000000000081526004018080602001828103825260228152602001807f456e756d657261626c655365743a20696e646578206f7574206f6620626f756e81526020017f647300000000000000000000000000000000000000000000000000000000000081525060400191505060405180910390fd5b616b7b7f1cfffa0ad0c286047eefc7627d5cbb1f30a874ac8429aef1b88c9643defbd8126001026169f6565b616ba77f8c55124a4d31f2b42f355f42eceb7e4c2d8c8855231d8686dd7981f8e666091c6001026169f6565b616bd37fdab134af642e5c2d59fb3ac3cce78ab97b3c5c97d4a35c937883fe9d0d160d276001026169f6565b8260000182815481101515616be457fe5b9060005260206000200154905092915050565b6000616c257f3037fbb3ab65fd9999096de04310313a1e94eed569ceccfe5b38bb71dd02790e6001026169f6565b616c517f545721a78abba8f4dd61dbfb050b7451e9eeb82fcb36ed25619a57f0e77ae9e56001026169f6565b616c7d7fba70ad9aa9369f46f6beb3f8586e58d68b34c819282dc4aff7f98134959f22da6001026169f6565b6000836001016000848152602001908152602001600020541415905092915050565b6000616ccd7f698b3eca7c91c19d38e387219466b03b2821e3849ac684bfd648a36221d09be56001026169f6565b616cf97fc660b8a113285d18751146259e3349d8648254b44055bf48a0119974d0b5db286001026169f6565b616d257f0e318c50f3f09d86fdb1b65d41d85c6f5b94882583e674aead8d4b23bd91a7b96001026169f6565b81600001805490509050919050565b50565b6000616d657fbc58f8001a4c39b944cc908d4d2faa84f59b32ad513561e92ce265b7a1d4ee50600102617baf565b616d917ffe680ea5eca210fce52fb4b91956f556f38c45959815ff5ae5e126c80326f533600102617baf565b616dbd7f2969933aac69d860a4df01e9580bd5096830ae91fb5ee7948307ad99f38bfe3b600102617baf565b8160405160200180807f19457468657265756d205369676e6564204d6573736167653a0a333200000000815250601c01828152602001915050604051602081830303815290604052805190602001209050919050565b6000616e417fd568f002a1deb5073994564720558f362a6f75b3e87213deeb43c73f70dbc74a600102617baf565b616e6d7fc6a8cf748ce87b93db526e02eaa34f12726f553a2710e7fd4a574b4cc68ef4f3600102617baf565b616e997f7e41e8e5b98f35b7dec0e4e22e5959700bf369c8fb96377507be14a39d5256f0600102617baf565b60418251141515616f3157616ed07ff7c9359366755014c4b21c6eb095b674890fa2aa3ae8571f1b07b95460389340600102617baf565b616efc7fa59c63e014ec0ce93acd5176a4891f2cd2ce55432a5f0cf586fecb392498f40b600102617baf565b616f287f9f51449666e4c658ac1f2a80a017a3ed126ff8fe6c3cee16f2a3fef64e5c2239600102617baf565b600090506173e5565b616f5d7fb5853f91ed3f2b155d287f1fa8e82fdd73f291bf85d8abdf225b6564a045e9d2600102617baf565b616f897f5fe4335a06637ba1a30ccc59c9a15e24074cbc5c2ee0b7f668dd93d555bb0113600102617baf565b616fb57f895f3dd791b6bf25ebf684d65ca555b980026ab94d717424d7fa031603190ea7600102617baf565b6000616fe37fdd5b1e71249b40f8e10a204f40eb347a4d50c1d957221b9dcdb1acd20544fb53600102617baf565b61700f7fef000fbdb68974125e66223960700883bdd8727d20c6efa482ea707eddddaa48600102617baf565b600061703d7facd493782e34bd0293598cebf9b94fbaca3245d172238d1cc3706133f5b5c8fd600102617baf565b6170697fd23ade5c38d7d7109d4db3a4d4ef677bfae7d89512d0bbd496529a2de1156eed600102617baf565b60006170977f27913d32538778187f7f2ae0a162bd4940db7e5d8bbae43ef83334cd1c1410ab600102617baf565b6020850151925060408501519150606085015160001a90506170db7f6643aa8c6ebcd5819fd0e03a3e341add5ee4c94a7621faeed4d9ad7fcf623fd4600102617baf565b6171077f5deca4420c1bd83f713d58dbacd6ea6eb9f89ba6cbd981f795def46500092cf2600102617baf565b7f7fffffffffffffffffffffffffffffff5d576e7357a4501ddfe92f46681b20a0826001900411156171c35761715f7f119cc64b217a8339f82316a70ef63646ace9276a97b1774325e1c1ff5338e751600102617baf565b61718b7fe327597fe9fb45d5729d360ad5057c2e7ecf89d02c70ee15bf1a7b143bcd4444600102617baf565b6171b77f3f6dfeb90924cde358144de36aef298fc21e1ecd7e4cebcd32e604d715e8ed22600102617baf565b600093505050506173e5565b6171ef7fae3bf229956a7ba67a2faf4197dc22acc3ea3d6e4317a63c908745d9afb33e93600102617baf565b61721b7f4fc44a1a2a75f1eb6183c56bdc895fdaadb94963088ac0cf26fe66d07d32615f600102617baf565b6172477fdd9b37fc7e0431bf696ed1e6c26fd1a5ab2da857800a923a27dddfb8c9c1c6b9600102617baf565b601b8160ff161415801561725f5750601c8160ff1614155b156172f4576172907f6ff526afc5f20061fd1a8e7565a9bcbdac0c15eeff3088b7e8593206249ff146600102617baf565b6172bc7ff42a19e64122620113f35a44522293480bb31f9f3269277bf4fc6059b10a043e600102617baf565b6172e87faeef116a83f62dc61ee8b147719adac74b0d4bdd06cbdff0992e001090cb83cf600102617baf565b600093505050506173e5565b6173207fa9220bb0643eb34f140ebaa36a1a822aa564b71e34b32ff1dcf2469ba2b5c1e4600102617baf565b61734c7f1692eb12f369d511cbdfa4c843b4d1be8e827bafcf174a3a81e4a18c8cfed433600102617baf565b6173787f6d7ec83f6cca180162afd968886fb7add474b27158e64ef0b14f71ac14c5f52e600102617baf565b60018682858560405160008152602001604052604051808581526020018460ff1660ff1681526020018381526020018281526020019450505050506020604051602081039080840390855afa1580156173d5573d6000803e3d6000fd5b5050506020604051035193505050505b92915050565b50565b600061741c7f40d68215e803cb1717bf4d33c5e09c861554eb92219a19183e4a81a5e4a37ce66001026169f6565b6174487f617dc7e3d2cc32c81c4592cd6d31d1aa401b99588fa715fa7322ee79201a4fca6001026169f6565b6174747f0638df41745ab78d3d275029a71d6e3610e8359150695a51482e4e6d11f6278a6001026169f6565b61747e8383616bf7565b1515617610576174b07f1316895c243bc3e2f6a170b2f52934654fca20cd49e0b939406d750df6d8a2956001026169f6565b6174dc7f0422386d1d2a76a969025e42bba5fbdce120264183a3ac5f64881c75dd7679a16001026169f6565b6175087fa4a4613612050463a1babb6e7d9195586b380f85134ca2588bb5cca9c9bf16816001026169f6565b826000018290806001815401808255809150509060018203906000526020600020016000909192909190915055506175627f93b89b5c5517ca841ee24f656f2e858ce09700ae845a16c62a4130e78051b7d56001026169f6565b61758e7f92c8b4261409bfac7f5115a8081249983ab5e788f101dd4cd66d7c73fc45b4ec6001026169f6565b8260000180549050836001016000848152602001908152602001600020819055506175db7f84134868669c80f0f9cf10b187ef90beccede6ccb1cc21f613b109fa280f13696001026169f6565b6176077f37e9ade0fb605d8221f3364f54622e21b6de8f84aa5f538d31fde23234a485a86001026169f6565b60019050617699565b61763c7f0b3a15e5e94cff312610a7834ffdac82d66c3c4d5c8bf8207d819fba9ef82a986001026169f6565b6176687fe74dc3c6920d1c37ccc9302b4536c6199dac8c0d027e94cf0fd9b348b8b7be426001026169f6565b6176947fcc4c3113d119ba5c89d4ed2e4108d90a96197f0174ff462aa54710d2e5b0b3816001026169f6565b600090505b92915050565b60006176cd7f20dad5a2342a90e578ebbe744026d5c9ca9dc40b068617ab1fa64e8447f6599c6001026169f6565b6176f97fa993e4ef486a8e5f38433dff9f5a20b46c4c6c4aba0cd6e274e8fc216cc567d46001026169f6565b6177257f7b76480f98a41a1f9ccb084e0bd41f30f314e3f55d0e9238d4c7ba05b71edf036001026169f6565b600083600101600084815260200190815260200160002054905061776b7fbbe167f0062fa036bd1a92f9a002a84eb9d10fb190b5becc032c8222e1e732726001026169f6565b6177977ff45300f67596189bf78656789b2863a1dfba81c9ab612e75c4cbd870b4184a7b6001026169f6565b600081141515617b1f576177cd7fbebf90f7073c68fdef1dfea1f4470b030c28ac3d59398af26a32bddcd5fcbed96001026169f6565b6177f97f118b76cf095562ef5bb45567874ba5b86689b16fd8e7164e151d8795e0a83a3f6001026169f6565b6178257f10ebb6db3bbabc8728503f41d6bf7bc0124f0935ef5e935b0e97a19058166f216001026169f6565b60006001820390506178597feca580d0fec2089e2593adaecd68141839ae73b8f8739ca116ab6bab6c38d1fd6001026169f6565b6178857fc5bca0f19e2506355de371bc9ecfdca65e02a231e2a7cc1feb127de959d04beb6001026169f6565b6000600186600001805490500390506178c07f2e128e5894b228fe43f9b0086798a4c676646be017f098805964086a9f0dd7946001026169f6565b6178ec7f7c20631e7151db252a41f2d8fd8025c73c17d132b6d457ace42c1066a2d333c76001026169f6565b600086600001828154811015156178ff57fe5b906000526020600020015490506179377e24599a621ec0dcf856f9b5a5219e821f395976552025bb3b28e9876cfbdf466001026169f6565b6179637f5d93efee7be5cccb3e6c33544c2199b0989ef80b403df2acb2eb473144d4210a6001026169f6565b80876000018481548110151561797557fe5b90600052602060002001819055506179af7f6ca15e35f854a5046a8a8a6b6bf793e5c8be06eb758bb2719c9ea008a40371f16001026169f6565b6179db7f11e0892029851baa859ec511a61a65ce908ce79afea2da3e356a4cddd5b97db86001026169f6565b6001830187600101600083815260200190815260200160002081905550617a247f6fe244da47ce47d92ee4953567c99cbbfbc9f35fd6241bfec43def00649a29f46001026169f6565b617a507fc18afb152696bf0bfc4b32d782b3ecbd4c4c6704f06d579c2a2189321893b14e6001026169f6565b866000018054801515617a5f57fe5b60019003818190600052602060002001600090559055617aa17f264c9531d3d9873a17dc9cc6c6ab7c894273d25a9cbb9051a90e13b7913e19216001026169f6565b86600101600087815260200190815260200160002060009055617ae67fdd31c6008c9124c88b250c3d61672e2be9a3ce5edb6ff7d838cd8c0ae83820d36001026169f6565b617b127f69dbfd48f3664958e9d89346c21bd6d0b81c73a17b36891a1cdb5dc6edc827366001026169f6565b6001945050505050617ba9565b617b4b7fb541cd7e25de5407251760a153d2c97a490a4d54b15e0c71ad4d702b05bca3a66001026169f6565b617b777ff7b4c61f90944e257a7b6d5b308ca2842497a1045e0c16ade06d1e15bf02ae4a6001026169f6565b617ba37fb4e9303fef2744c105921491c78b454f9b0dd552b8a1fd930cbb55dd6ca1ef086001026169f6565b60009150505b92915050565b5056fea165627a7a723058208c5772f4211ea6da3228ab04d58fb7ecd0fc0309a0526213110b1e8028f2f0da0029",
  "linkReferences": {},
  "deployedLinkReferences": {}
}