{
  "_format": "hh-sol-artifact-1",
  "contractName": "SandboxGluwacoin",
  "sourceName": "contracts/mocks/SandboxGluwacoin.sol",
  "abi": [
    {
      "constant": true,
      "inputs": [],
      "name": "name",
      "outputs": [
        {
          "name": "",
          "type": "string"
        }
      ],
      "payable": false,
      "stateMutability": "view",
      "type": "function"
    },
    {
      "constant": false,
      "inputs": [
        {
          "name": "spender",
          "type": "address"
        },
        {
          "name": "amount",
          "type": "uint256"
        }
      ],
      "name": "approve",
      "outputs": [
        {
          "name": "",
          "type": "bool"
        }
      ],
      "payable": false,
      "stateMutability": "nonpayable",
      "type": "function"
    },
    {
      "constant": false,
      "inputs": [
        {
          "name": "sender",
          "type": "address"
        },
        {
          "name": "recipient",
          "type": "address"
        },
        {
          "name": "amount",
          "type": "uint256"
        },
        {
          "name": "fee",
          "type": "uint256"
        },
        {
          "name": "nonce",
          "type": "uint256"
        },
        {
          "name": "sig",
          "type": "bytes"
        }
      ],
      "name": "transfer",
      "outputs": [
        {
          "name": "success",
          "type": "bool"
        }
      ],
      "payable": false,
      "stateMutability": "nonpayable",
      "type": "function"
    },
    {
      "constant": true,
      "inputs": [],
      "name": "totalSupply",
      "outputs": [
        {
          "name": "",
          "type": "uint256"
        }
      ],
      "payable": false,
      "stateMutability": "view",
      "type": "function"
    },
    {
      "constant": false,
      "inputs": [
        {
          "name": "sender",
          "type": "address"
        },
        {
          "name": "recipient",
          "type": "address"
        },
        {
          "name": "amount",
          "type": "uint256"
        }
      ],
      "name": "transferFrom",
      "outputs": [
        {
          "name": "",
          "type": "bool"
        }
      ],
      "payable": false,
      "stateMutability": "nonpayable",
      "type": "function"
    },
    {
      "constant": true,
      "inputs": [
        {
          "name": "role",
          "type": "bytes32"
        }
      ],
      "name": "getRoleAdmin",
      "outputs": [
        {
          "name": "",
          "type": "bytes32"
        }
      ],
      "payable": false,
      "stateMutability": "view",
      "type": "function"
    },
    {
      "constant": false,
      "inputs": [
        {
          "name": "role",
          "type": "bytes32"
        },
        {
          "name": "account",
          "type": "address"
        }
      ],
      "name": "grantRole",
      "outputs": [],
      "payable": false,
      "stateMutability": "nonpayable",
      "type": "function"
    },
    {
      "constant": true,
      "inputs": [],
      "name": "decimals",
      "outputs": [
        {
          "name": "",
          "type": "uint8"
        }
      ],
      "payable": false,
      "stateMutability": "view",
      "type": "function"
    },
    {
      "constant": false,
      "inputs": [
        {
          "name": "role",
          "type": "bytes32"
        },
        {
          "name": "account",
          "type": "address"
        }
      ],
      "name": "renounceRole",
      "outputs": [],
      "payable": false,
      "stateMutability": "nonpayable",
      "type": "function"
    },
    {
      "constant": false,
      "inputs": [
        {
          "name": "spender",
          "type": "address"
        },
        {
          "name": "addedValue",
          "type": "uint256"
        }
      ],
      "name": "increaseAllowance",
      "outputs": [
        {
          "name": "",
          "type": "bool"
        }
      ],
      "payable": false,
      "stateMutability": "nonpayable",
      "type": "function"
    },
    {
      "constant": false,
      "inputs": [],
      "name": "unpause",
      "outputs": [
        {
          "name": "",
          "type": "bool"
        }
      ],
      "payable": false,
      "stateMutability": "nonpayable",
      "type": "function"
    },
    {
      "constant": false,
      "inputs": [
        {
          "name": "account",
          "type": "address"
        },
        {
          "name": "amount",
          "type": "uint256"
        }
      ],
      "name": "mint",
      "outputs": [
        {
          "name": "",
          "type": "bool"
        }
      ],
      "payable": false,
      "stateMutability": "nonpayable",
      "type": "function"
    },
    {
      "constant": false,
      "inputs": [
        {
          "name": "amount",
          "type": "uint256"
        }
      ],
      "name": "burn",
      "outputs": [
        {
          "name": "",
          "type": "bool"
        }
      ],
      "payable": false,
      "stateMutability": "nonpayable",
      "type": "function"
    },
    {
      "constant": true,
      "inputs": [],
      "name": "paused",
      "outputs": [
        {
          "name": "",
          "type": "bool"
        }
      ],
      "payable": false,
      "stateMutability": "view",
      "type": "function"
    },
    {
      "constant": true,
      "inputs": [
        {
          "name": "account",
          "type": "address"
        }
      ],
      "name": "balanceOf",
      "outputs": [
        {
          "name": "",
          "type": "uint256"
        }
      ],
      "payable": false,
      "stateMutability": "view",
      "type": "function"
    },
    {
      "constant": false,
      "inputs": [],
      "name": "pause",
      "outputs": [
        {
          "name": "",
          "type": "bool"
        }
      ],
      "payable": false,
      "stateMutability": "nonpayable",
      "type": "function"
    },
    {
      "constant": true,
      "inputs": [
        {
          "name": "role",
          "type": "bytes32"
        },
        {
          "name": "index",
          "type": "uint256"
        }
      ],
      "name": "getRoleMember",
      "outputs": [
        {
          "name": "",
          "type": "address"
        }
      ],
      "payable": false,
      "stateMutability": "view",
      "type": "function"
    },
    {
      "constant": true,
      "inputs": [
        {
          "name": "role",
          "type": "bytes32"
        },
        {
          "name": "account",
          "type": "address"
        }
      ],
      "name": "hasRole",
      "outputs": [
        {
          "name": "",
          "type": "bool"
        }
      ],
      "payable": false,
      "stateMutability": "view",
      "type": "function"
    },
    {
      "constant": true,
      "inputs": [],
      "name": "symbol",
      "outputs": [
        {
          "name": "",
          "type": "string"
        }
      ],
      "payable": false,
      "stateMutability": "view",
      "type": "function"
    },
    {
      "constant": true,
      "inputs": [],
      "name": "DEFAULT_ADMIN_ROLE",
      "outputs": [
        {
          "name": "",
          "type": "bytes32"
        }
      ],
      "payable": false,
      "stateMutability": "view",
      "type": "function"
    },
    {
      "constant": false,
      "inputs": [
        {
          "name": "spender",
          "type": "address"
        },
        {
          "name": "subtractedValue",
          "type": "uint256"
        }
      ],
      "name": "decreaseAllowance",
      "outputs": [
        {
          "name": "",
          "type": "bool"
        }
      ],
      "payable": false,
      "stateMutability": "nonpayable",
      "type": "function"
    },
    {
      "constant": false,
      "inputs": [
        {
          "name": "recipient",
          "type": "address"
        },
        {
          "name": "amount",
          "type": "uint256"
        }
      ],
      "name": "transfer",
      "outputs": [
        {
          "name": "",
          "type": "bool"
        }
      ],
      "payable": false,
      "stateMutability": "nonpayable",
      "type": "function"
    },
    {
      "constant": true,
      "inputs": [
        {
          "name": "role",
          "type": "bytes32"
        }
      ],
      "name": "getRoleMemberCount",
      "outputs": [
        {
          "name": "",
          "type": "uint256"
        }
      ],
      "payable": false,
      "stateMutability": "view",
      "type": "function"
    },
    {
      "constant": false,
      "inputs": [
        {
          "name": "role",
          "type": "bytes32"
        },
        {
          "name": "account",
          "type": "address"
        }
      ],
      "name": "revokeRole",
      "outputs": [],
      "payable": false,
      "stateMutability": "nonpayable",
      "type": "function"
    },
    {
      "constant": true,
      "inputs": [
        {
          "name": "owner",
          "type": "address"
        },
        {
          "name": "spender",
          "type": "address"
        }
      ],
      "name": "allowance",
      "outputs": [
        {
          "name": "",
          "type": "uint256"
        }
      ],
      "payable": false,
      "stateMutability": "view",
      "type": "function"
    },
    {
      "inputs": [
        {
          "name": "name",
          "type": "string"
        },
        {
          "name": "symbol",
          "type": "string"
        },
        {
          "name": "decimals",
          "type": "uint8"
        }
      ],
      "payable": false,
      "stateMutability": "nonpayable",
      "type": "constructor"
    },
    {
      "anonymous": false,
      "inputs": [
        {
          "indexed": false,
          "name": "account",
          "type": "address"
        }
      ],
      "name": "Paused",
      "type": "event"
    },
    {
      "anonymous": false,
      "inputs": [
        {
          "indexed": false,
          "name": "account",
          "type": "address"
        }
      ],
      "name": "Unpaused",
      "type": "event"
    },
    {
      "anonymous": false,
      "inputs": [
        {
          "indexed": true,
          "name": "minter",
          "type": "address"
        },
        {
          "indexed": true,
          "name": "_mintTo",
          "type": "address"
        },
        {
          "indexed": false,
          "name": "_value",
          "type": "uint256"
        }
      ],
      "name": "Mint",
      "type": "event"
    },
    {
      "anonymous": false,
      "inputs": [
        {
          "indexed": true,
          "name": "burner",
          "type": "address"
        },
        {
          "indexed": true,
          "name": "_burnFrom",
          "type": "address"
        },
        {
          "indexed": false,
          "name": "_value",
          "type": "uint256"
        }
      ],
      "name": "Burnt",
      "type": "event"
    },
    {
      "anonymous": false,
      "inputs": [
        {
          "indexed": true,
          "name": "from",
          "type": "address"
        },
        {
          "indexed": true,
          "name": "to",
          "type": "address"
        },
        {
          "indexed": false,
          "name": "value",
          "type": "uint256"
        }
      ],
      "name": "Transfer",
      "type": "event"
    },
    {
      "anonymous": false,
      "inputs": [
        {
          "indexed": true,
          "name": "owner",
          "type": "address"
        },
        {
          "indexed": true,
          "name": "spender",
          "type": "address"
        },
        {
          "indexed": false,
          "name": "value",
          "type": "uint256"
        }
      ],
      "name": "Approval",
      "type": "event"
    },
    {
      "anonymous": false,
      "inputs": [
        {
          "indexed": true,
          "name": "role",
          "type": "bytes32"
        },
        {
          "indexed": true,
          "name": "account",
          "type": "address"
        },
        {
          "indexed": true,
          "name": "sender",
          "type": "address"
        }
      ],
      "name": "RoleGranted",
      "type": "event"
    },
    {
      "anonymous": false,
      "inputs": [
        {
          "indexed": true,
          "name": "role",
          "type": "bytes32"
        },
        {
          "indexed": true,
          "name": "account",
          "type": "address"
        },
        {
          "indexed": true,
          "name": "sender",
          "type": "address"
        }
      ],
      "name": "RoleRevoked",
      "type": "event"
    }
  ],
  "bytecode": "0x60806040523480156200001157600080fd5b506040516200236238038062002362833981018060405260608110156200003757600080fd5b8101908080516401000000008111156200005057600080fd5b820160208101848111156200006457600080fd5b81516401000000008111828201871017156200007f57600080fd5b505092919060200180516401000000008111156200009c57600080fd5b82016020810184811115620000b057600080fd5b8151640100000000811182820187101715620000cb57600080fd5b505060209182015185519194509250849184918491620000f191603791860190620002c6565b50815162000107906038906020850190620002c6565b506039805460ff191660ff929092169190911761ff00191690555062000137905064010000000062000188810204565b603b8054600160a060020a031916600160a060020a03929092169190911790556200017f60006200017064010000000062000188810204565b6401000000006200018d810204565b50505062000368565b335b90565b620001a28282640100000000620001a6810204565b5050565b6000828152603360205260409020620001ce908264010000000062001c606200022b82021704565b15620001a257620001e764010000000062000188810204565b600160a060020a031681600160a060020a0316837f2f8788117e7eff1d82e926ec794901d17c78024a50270940304540a733656f0d60405160405180910390a45050565b60006200024b83600160a060020a03841664010000000062000254810204565b90505b92915050565b60006200026b8383640100000000620002ae810204565b1515620002a5575081546001818101845560008481526020808220909301849055845484825282860190935260409020919091556200024e565b5060006200024e565b60009081526001919091016020526040902054151590565b828054600181600116156101000203166002900490600052602060002090601f016020900481019282601f106200030957805160ff191683800117855562000339565b8280016001018555821562000339579182015b82811115620003395782518255916020019190600101906200031c565b50620003479291506200034b565b5090565b6200018a91905b8082111562000347576000815560010162000352565b611fea80620003786000396000f3fe6080604052600436106101485763ffffffff7c010000000000000000000000000000000000000000000000000000000060003504166306fdde03811461014d578063095ea7b3146101d75780630982d5b01461022457806318160ddd1461030357806323b872dd1461032a578063248a9ca31461036d5780632f2ff15d14610397578063313ce567146103d257806336568abe146103fd57806339509351146104365780633f4ba83a1461046f57806340c10f191461048457806342966c68146104bd5780635c975abb146104e757806370a08231146104fc5780638456cb591461052f5780639010d07c1461054457806391d148541461059057806395d89b41146105c9578063a217fddf146105de578063a457c2d7146105f3578063a9059cbb1461062c578063ca15c87314610665578063d547741f1461068f578063dd62ed3e146106c8575b600080fd5b34801561015957600080fd5b50610162610703565b6040805160208082528351818301528351919283929083019185019080838360005b8381101561019c578181015183820152602001610184565b50505050905090810190601f1680156101c95780820380516001836020036101000a031916815260200191505b509250505060405180910390f35b3480156101e357600080fd5b50610210600480360360408110156101fa57600080fd5b50600160a060020a038135169060200135610799565b604080519115158252519081900360200190f35b34801561023057600080fd5b50610210600480360360c081101561024757600080fd5b600160a060020a0382358116926020810135909116916040820135916060810135916080820135919081019060c0810160a082013564010000000081111561028e57600080fd5b8201836020820111156102a057600080fd5b803590602001918460018302840111640100000000831117156102c257600080fd5b91908080601f0160208091040260200160405190810160405280939291908181526020018383808284376000920191909152509295506107b7945050505050565b34801561030f57600080fd5b50610318610851565b60408051918252519081900360200190f35b34801561033657600080fd5b506102106004803603606081101561034d57600080fd5b50600160a060020a03813581169160208101359091169060400135610857565b34801561037957600080fd5b506103186004803603602081101561039057600080fd5b50356108d7565b3480156103a357600080fd5b506103d0600480360360408110156103ba57600080fd5b5080359060200135600160a060020a03166108ec565b005b3480156103de57600080fd5b506103e7610999565b6040805160ff9092168252519081900360200190f35b34801561040957600080fd5b506103d06004803603604081101561042057600080fd5b5080359060200135600160a060020a03166109a2565b34801561044257600080fd5b506102106004803603604081101561045957600080fd5b50600160a060020a038135169060200135610a3c565b34801561047b57600080fd5b50610210610a87565b34801561049057600080fd5b50610210600480360360408110156104a757600080fd5b50600160a060020a038135169060200135610b48565b3480156104c957600080fd5b50610210600480360360208110156104e057600080fd5b5035610c06565b3480156104f357600080fd5b50610210610c21565b34801561050857600080fd5b506103186004803603602081101561051f57600080fd5b5035600160a060020a0316610c2f565b34801561053b57600080fd5b50610210610c4a565b34801561055057600080fd5b506105746004803603604081101561056757600080fd5b5080359060200135610d06565b60408051600160a060020a039092168252519081900360200190f35b34801561059c57600080fd5b50610210600480360360408110156105b357600080fd5b5080359060200135600160a060020a0316610d2b565b3480156105d557600080fd5b50610162610d49565b3480156105ea57600080fd5b50610318610daa565b3480156105ff57600080fd5b506102106004803603604081101561061657600080fd5b50600160a060020a038135169060200135610daf565b34801561063857600080fd5b506102106004803603604081101561064f57600080fd5b50600160a060020a038135169060200135610e86565b34801561067157600080fd5b506103186004803603602081101561068857600080fd5b5035610f14565b34801561069b57600080fd5b506103d0600480360360408110156106b257600080fd5b5080359060200135600160a060020a0316610f2b565b3480156106d457600080fd5b50610318600480360360408110156106eb57600080fd5b50600160a060020a0381358116916020013516610fc5565b60378054604080516020601f600260001961010060018816150201909516949094049384018190048102820181019092528281526060939092909183018282801561078f5780601f106107645761010080835404028352916020019161078f565b820191906000526020600020905b81548152906001019060200180831161077257829003601f168201915b5050505050905090565b60006107ad6107a6610ff0565b8484610ff4565b5060015b92915050565b603954600090610100900460ff1615610808576040805160e560020a62461bcd0281526020600482015260106024820152600080516020611f9f833981519152604482015290519081900360640190fd5b6108128784611161565b84840161081f8882611233565b61082e308989898989896112b9565b6108388886611338565b61084388888861134c565b506001979650505050505050565b60365490565b603954600090610100900460ff16156108a8576040805160e560020a62461bcd0281526020600482015260106024820152600080516020611f9f833981519152604482015290519081900360640190fd5b603c5482016108b78582611233565b6108c385603c54611338565b6108ce85858561158d565b95945050505050565b60009081526033602052604090206002015490565b60008281526033602052604090206002015461090f9061090a610ff0565b610d2b565b151561098b576040805160e560020a62461bcd02815260206004820152602f60248201527f416363657373436f6e74726f6c3a2073656e646572206d75737420626520616e60448201527f2061646d696e20746f206772616e740000000000000000000000000000000000606482015290519081900360840190fd5b6109958282611669565b5050565b60395460ff1690565b6109aa610ff0565b600160a060020a03828116911614610a32576040805160e560020a62461bcd02815260206004820152602f60248201527f416363657373436f6e74726f6c3a2063616e206f6e6c792072656e6f756e636560448201527f20726f6c657320666f722073656c660000000000000000000000000000000000606482015290519081900360840190fd5b61099582826116d8565b60006107ad610a49610ff0565b848460356000610a57610ff0565b600160a060020a03908116825260208083019390935260409182016000908120918b168152925290205401610ff4565b600080805260336020527f44496df070da3f045064f6d6f394484a8de10d5710290d619b67d975ec89321154610abf9061090a610ff0565b1515610b3b576040805160e560020a62461bcd02815260206004820152602d60248201527f416363657373436f6e74726f6c3a2053656e64657220646f206e6f742068617660448201527f652061646d696e20726967687400000000000000000000000000000000000000606482015290519081900360840190fd5b610b43611747565b905090565b600080805260336020527f44496df070da3f045064f6d6f394484a8de10d5710290d619b67d975ec89321154610b809061090a610ff0565b1515610bfc576040805160e560020a62461bcd02815260206004820152602d60248201527f416363657373436f6e74726f6c3a2053656e64657220646f206e6f742068617660448201527f652061646d696e20726967687400000000000000000000000000000000000000606482015290519081900360840190fd5b6107ad8383611809565b6000610c19610c13610ff0565b8361191c565b506001919050565b603954610100900460ff1690565b600160a060020a031660009081526034602052604090205490565b600080805260336020527f44496df070da3f045064f6d6f394484a8de10d5710290d619b67d975ec89321154610c829061090a610ff0565b1515610cfe576040805160e560020a62461bcd02815260206004820152602d60248201527f416363657373436f6e74726f6c3a2053656e64657220646f206e6f742068617660448201527f652061646d696e20726967687400000000000000000000000000000000000000606482015290519081900360840190fd5b610b43611ab8565b6000828152603360205260408120610d24908363ffffffff611b4116565b9392505050565b6000828152603360205260408120610d24908363ffffffff611b4d16565b60388054604080516020601f600260001961010060018816150201909516949094049384018190048102820181019092528281526060939092909183018282801561078f5780601f106107645761010080835404028352916020019161078f565b600081565b60008060356000610dbe610ff0565b600160a060020a0390811682526020808301939093526040918201600090812091881681529252902054905082811015610e68576040805160e560020a62461bcd02815260206004820152602560248201527f45524332303a2064656372656173656420616c6c6f77616e63652062656c6f7760448201527f207a65726f000000000000000000000000000000000000000000000000000000606482015290519081900360840190fd5b610e7c610e73610ff0565b85858403610ff4565b5060019392505050565b603954600090610100900460ff1615610ed7576040805160e560020a62461bcd0281526020600482015260106024820152600080516020611f9f833981519152604482015290519081900360640190fd5b603c5482016000610ee6610ff0565b9050610ef28183611233565b610efe81603c54611338565b610f0981868661134c565b506001949350505050565b60008181526033602052604081206107b190611b62565b600082815260336020526040902060020154610f499061090a610ff0565b1515610a32576040805160e560020a62461bcd02815260206004820152603060248201527f416363657373436f6e74726f6c3a2073656e646572206d75737420626520616e60448201527f2061646d696e20746f207265766f6b6500000000000000000000000000000000606482015290519081900360840190fd5b600160a060020a03918216600090815260356020908152604080832093909416825291909152205490565b3390565b600160a060020a0383161515611079576040805160e560020a62461bcd028152602060048201526024808201527f45524332303a20617070726f76652066726f6d20746865207a65726f2061646460448201527f7265737300000000000000000000000000000000000000000000000000000000606482015290519081900360840190fd5b600160a060020a03821615156110ff576040805160e560020a62461bcd02815260206004820152602260248201527f45524332303a20617070726f766520746f20746865207a65726f20616464726560448201527f7373000000000000000000000000000000000000000000000000000000000000606482015290519081900360840190fd5b600160a060020a03808416600081815260356020908152604080832094871680845294825291829020859055815185815291517f8c5be1e5ebec7d5bd14f71427d1e84f3dd0314c0f7b2291e5b200ac8c7c3b9259281900390910190a3505050565b600160a060020a0382166000908152603a6020908152604080832084845290915290205460ff1615611203576040805160e560020a62461bcd02815260206004820152603960248201527f4554486c6573733a20746865206e6f6e63652068617320616c7265616479206260448201527f65656e207573656420666f722074686973206164647265737300000000000000606482015290519081900360840190fd5b600160a060020a039091166000908152603a6020908152604080832093835292905220805460ff19166001179055565b8061123d83610c2f565b1015610995576040805160e560020a62461bcd02815260206004820152602b60248201527f455243323057697468536166655472616e736665723a20696e7375666669636960448201527f656e742062616c616e6365000000000000000000000000000000000000000000606482015290519081900360840190fd5b60408051600160a060020a038981166c010000000000000000000000009081026020808501919091528a831682026034850152918916026048830152605c8201879052607c8201869052609c8083018690528351808403909101815260bc909201909252805191012061132d818884611b6d565b505050505050505050565b603b54610995908390600160a060020a0316835b600160a060020a03831615156113d2576040805160e560020a62461bcd02815260206004820152602560248201527f45524332303a207472616e736665722066726f6d20746865207a65726f20616460448201527f6472657373000000000000000000000000000000000000000000000000000000606482015290519081900360840190fd5b600160a060020a0382161515611458576040805160e560020a62461bcd02815260206004820152602360248201527f45524332303a207472616e7366657220746f20746865207a65726f206164647260448201527f6573730000000000000000000000000000000000000000000000000000000000606482015290519081900360840190fd5b611463838383611bfe565b600160a060020a038316600090815260346020526040902054818110156114fa576040805160e560020a62461bcd02815260206004820152602660248201527f45524332303a207472616e7366657220616d6f756e742065786365656473206260448201527f616c616e63650000000000000000000000000000000000000000000000000000606482015290519081900360840190fd5b600160a060020a03808516600090815260346020526040808220858503905591851681522054611530908363ffffffff611c0316565b600160a060020a0380851660008181526034602090815260409182902094909455805186815290519193928816927fddf252ad1be2c89b69c2b068fc378daa952ba7f163c4a11628f55a4df523b3ef92918290030190a350505050565b600061159a84848461134c565b600160a060020a0384166000908152603560205260408120816115bb610ff0565b600160a060020a03168152602081019190915260400160002054905082811015611655576040805160e560020a62461bcd02815260206004820152602860248201527f45524332303a207472616e7366657220616d6f756e742065786365656473206160448201527f6c6c6f77616e6365000000000000000000000000000000000000000000000000606482015290519081900360840190fd5b610f0985611661610ff0565b858403610ff4565b6000828152603360205260409020611687908263ffffffff611c6016565b1561099557611694610ff0565b600160a060020a031681600160a060020a0316837f2f8788117e7eff1d82e926ec794901d17c78024a50270940304540a733656f0d60405160405180910390a45050565b60008281526033602052604090206116f6908263ffffffff611c7516565b1561099557611703610ff0565b600160a060020a031681600160a060020a0316837ff6391f5c32d9c69d2a47ea670b442974b53935d1edc7fd64eb21e047a839171b60405160405180910390a45050565b603954600090610100900460ff1615156117ab576040805160e560020a62461bcd02815260206004820152601460248201527f5061757361626c653a206e6f7420706175736564000000000000000000000000604482015290519081900360640190fd5b6039805461ff00191690557f5db9ee0a495bf2e6ff9c91a7834c1ba4fdd244a5e8aa4e537bd38aeae4b073aa6117df610ff0565b60408051600160a060020a039092168252519081900360200190a150603954610100900460ff1690565b600160a060020a0382161515611869576040805160e560020a62461bcd02815260206004820152601f60248201527f45524332303a206d696e7420746f20746865207a65726f206164647265737300604482015290519081900360640190fd5b61187560008383611bfe565b603654611888908263ffffffff611c0316565b603655600160a060020a0382166000908152603460205260409020546118b4908263ffffffff611c0316565b600160a060020a0383166000818152603460205260409020919091556118d8610ff0565b600160a060020a03167fab8530f87dc9b59234c4623bf917212bb2536d647574c8e7e5da92c2ede0c9f8836040518082815260200191505060405180910390a35050565b600160a060020a03821615156119a2576040805160e560020a62461bcd02815260206004820152602160248201527f45524332303a206275726e2066726f6d20746865207a65726f2061646472657360448201527f7300000000000000000000000000000000000000000000000000000000000000606482015290519081900360840190fd5b6119ae82600083611bfe565b600160a060020a03821660009081526034602052604090205481811015611a45576040805160e560020a62461bcd02815260206004820152602260248201527f45524332303a206275726e20616d6f756e7420657863656564732062616c616e60448201527f6365000000000000000000000000000000000000000000000000000000000000606482015290519081900360840190fd5b600160a060020a03831660008181526034602052604090208383039055603680548490039055611a73610ff0565b600160a060020a03167fe8a89cc6e5096f9d9f43de82c077c1f4cfe707c0e0c2032176c68813b9ae6a5c846040518082815260200191505060405180910390a3505050565b603954600090610100900460ff1615611b09576040805160e560020a62461bcd0281526020600482015260106024820152600080516020611f9f833981519152604482015290519081900360640190fd5b6039805461ff0019166101001790557f62e78cea01bee320cd4e420270b5ea74000d11b0c9f74754ebdbfc544b05a2586117df610ff0565b6000610d248383611c8a565b6000610d2483600160a060020a038416611d2c565b60006107b182611d44565b600080611b7985611d48565b90506000611b8d828563ffffffff611d9916565b9050600160a060020a0380821690861614611bf2576040805160e560020a62461bcd02815260206004820152601b60248201527f56616c69646174653a20696e76616c6964207369676e61747572650000000000604482015290519081900360640190fd5b50600195945050505050565b505050565b600082820183811015610d24576040805160e560020a62461bcd02815260206004820152601b60248201527f536166654d6174683a206164646974696f6e206f766572666c6f770000000000604482015290519081900360640190fd5b6000610d2483600160a060020a038416611e88565b6000610d2483600160a060020a038416611ed4565b81546000908210611d0b576040805160e560020a62461bcd02815260206004820152602260248201527f456e756d657261626c655365743a20696e646578206f7574206f6620626f756e60448201527f6473000000000000000000000000000000000000000000000000000000000000606482015290519081900360840190fd5b8254839083908110611d1957fe5b9060005260206000200154905092915050565b60009081526001919091016020526040902054151590565b5490565b604080517f19457468657265756d205369676e6564204d6573736167653a0a333200000000602080830191909152603c8083019490945282518083039094018452605c909101909152815191012090565b8051600090604114611dad575060006107b1565b60208201516040830151606084015160001a7f7fffffffffffffffffffffffffffffff5d576e7357a4501ddfe92f46681b20a0821115611df357600093505050506107b1565b8060ff16601b14158015611e0b57508060ff16601c14155b15611e1c57600093505050506107b1565b6040805160008152602080820180845289905260ff8416828401526060820186905260808201859052915160019260a0808401939192601f1981019281900390910190855afa158015611e73573d6000803e3d6000fd5b5050604051601f190151979650505050505050565b6000611e948383611d2c565b1515611ecc575081546001818101845560008481526020808220909301849055845484825282860190935260409020919091556107b1565b5060006107b1565b60008181526001830160205260408120548015611f945783546000198083019190810190600090879083908110611f0757fe5b90600052602060002001549050808760000184815481101515611f2657fe5b6000918252602080832090910192909255828152600189810190925260409020908401905586548790801515611f5857fe5b600190038181906000526020600020016000905590558660010160008781526020019081526020016000206000905560019450505050506107b1565b60009150506107b156fe5061757361626c653a2070617573656400000000000000000000000000000000a165627a7a72305820f29f817e579d2d8e09cc3599843cdc349e0fd6a1a6d347a19231986429e592360029",
  "linkReferences": {},
  "deployedLinkReferences": {}
}