{
  "_format": "hh-sol-artifact-1",
  "contractName": "Validate",
  "sourceName": "contracts/mocks/SandboxGluwacoin.sol",
  "abi": [
    {
      "constant": true,
      "inputs": [
        {
          "name": "c__0xc747b691",
          "type": "bytes32"
        }
      ],
      "name": "c_0xc747b691",
      "outputs": [],
      "payable": false,
      "stateMutability": "pure",
      "type": "function"
    }
  ],
  "bytecode": "0x60b561002f600b82828239805160001a6073146000811461001f57610021565bfe5b5030600052607381538281f3fe73000000000000000000000000000000000000000030146080604052600436106056576000357c0100000000000000000000000000000000000000000000000000000000900463ffffffff1680638395b43214605b575b600080fd5b608460048036036020811015606f57600080fd5b81019080803590602001909291905050506086565b005b5056fea165627a7a7230582020763d28c751e5aeddd33654107af98b86c0090760581f6a4fa8a01102fe9f8b0029",
  "linkReferences": {},
  "deployedLinkReferences": {}
}