{
  "_format": "hh-sol-artifact-1",
  "contractName": "ExtendedERC20",
  "sourceName": "contracts/mocks/ExtendedERC20.sol",
  "abi": [
    {
      "constant": true,
      "inputs": [],
      "name": "name",
      "outputs": [
        {
          "name": "",
          "type": "string"
        }
      ],
      "payable": false,
      "stateMutability": "view",
      "type": "function"
    },
    {
      "constant": false,
      "inputs": [
        {
          "name": "spender",
          "type": "address"
        },
        {
          "name": "amount",
          "type": "uint256"
        }
      ],
      "name": "approve",
      "outputs": [
        {
          "name": "",
          "type": "bool"
        }
      ],
      "payable": false,
      "stateMutability": "nonpayable",
      "type": "function"
    },
    {
      "constant": true,
      "inputs": [],
      "name": "totalSupply",
      "outputs": [
        {
          "name": "",
          "type": "uint256"
        }
      ],
      "payable": false,
      "stateMutability": "view",
      "type": "function"
    },
    {
      "constant": false,
      "inputs": [
        {
          "name": "sender",
          "type": "address"
        },
        {
          "name": "recipient",
          "type": "address"
        },
        {
          "name": "amount",
          "type": "uint256"
        }
      ],
      "name": "transferFrom",
      "outputs": [
        {
          "name": "",
          "type": "bool"
        }
      ],
      "payable": false,
      "stateMutability": "nonpayable",
      "type": "function"
    },
    {
      "constant": true,
      "inputs": [],
      "name": "decimals",
      "outputs": [
        {
          "name": "",
          "type": "uint8"
        }
      ],
      "payable": false,
      "stateMutability": "view",
      "type": "function"
    },
    {
      "constant": false,
      "inputs": [
        {
          "name": "spender",
          "type": "address"
        },
        {
          "name": "addedValue",
          "type": "uint256"
        }
      ],
      "name": "increaseAllowance",
      "outputs": [
        {
          "name": "",
          "type": "bool"
        }
      ],
      "payable": false,
      "stateMutability": "nonpayable",
      "type": "function"
    },
    {
      "constant": true,
      "inputs": [
        {
          "name": "account",
          "type": "address"
        }
      ],
      "name": "balanceOf",
      "outputs": [
        {
          "name": "",
          "type": "uint256"
        }
      ],
      "payable": false,
      "stateMutability": "view",
      "type": "function"
    },
    {
      "constant": true,
      "inputs": [
        {
          "name": "c__0x662f1d03",
          "type": "bytes32"
        }
      ],
      "name": "c_0x662f1d03",
      "outputs": [],
      "payable": false,
      "stateMutability": "pure",
      "type": "function"
    },
    {
      "constant": true,
      "inputs": [],
      "name": "symbol",
      "outputs": [
        {
          "name": "",
          "type": "string"
        }
      ],
      "payable": false,
      "stateMutability": "view",
      "type": "function"
    },
    {
      "constant": false,
      "inputs": [
        {
          "name": "spender",
          "type": "address"
        },
        {
          "name": "subtractedValue",
          "type": "uint256"
        }
      ],
      "name": "decreaseAllowance",
      "outputs": [
        {
          "name": "",
          "type": "bool"
        }
      ],
      "payable": false,
      "stateMutability": "nonpayable",
      "type": "function"
    },
    {
      "constant": false,
      "inputs": [
        {
          "name": "recipient",
          "type": "address"
        },
        {
          "name": "amount",
          "type": "uint256"
        }
      ],
      "name": "transfer",
      "outputs": [
        {
          "name": "",
          "type": "bool"
        }
      ],
      "payable": false,
      "stateMutability": "nonpayable",
      "type": "function"
    },
    {
      "constant": true,
      "inputs": [
        {
          "name": "owner",
          "type": "address"
        },
        {
          "name": "spender",
          "type": "address"
        }
      ],
      "name": "allowance",
      "outputs": [
        {
          "name": "",
          "type": "uint256"
        }
      ],
      "payable": false,
      "stateMutability": "view",
      "type": "function"
    },
    {
      "anonymous": false,
      "inputs": [
        {
          "indexed": true,
          "name": "minter",
          "type": "address"
        },
        {
          "indexed": true,
          "name": "_mintTo",
          "type": "address"
        },
        {
          "indexed": false,
          "name": "_value",
          "type": "uint256"
        }
      ],
      "name": "Mint",
      "type": "event"
    },
    {
      "anonymous": false,
      "inputs": [
        {
          "indexed": true,
          "name": "burner",
          "type": "address"
        },
        {
          "indexed": true,
          "name": "_burnFrom",
          "type": "address"
        },
        {
          "indexed": false,
          "name": "_value",
          "type": "uint256"
        }
      ],
      "name": "Burnt",
      "type": "event"
    },
    {
      "anonymous": false,
      "inputs": [
        {
          "indexed": true,
          "name": "from",
          "type": "address"
        },
        {
          "indexed": true,
          "name": "to",
          "type": "address"
        },
        {
          "indexed": false,
          "name": "value",
          "type": "uint256"
        }
      ],
      "name": "Transfer",
      "type": "event"
    },
    {
      "anonymous": false,
      "inputs": [
        {
          "indexed": true,
          "name": "owner",
          "type": "address"
        },
        {
          "indexed": true,
          "name": "spender",
          "type": "address"
        },
        {
          "indexed": false,
          "name": "value",
          "type": "uint256"
        }
      ],
      "name": "Approval",
      "type": "event"
    }
  ],
  "bytecode": "0x60806040526122a5806100136000396000f3fe6080604052600436106100ba576000357c0100000000000000000000000000000000000000000000000000000000900463ffffffff16806306fdde03146100bf578063095ea7b31461014f57806318160ddd146101c257806323b872dd146101ed578063313ce5671461028057806339509351146102b157806370a0823114610324578063869d23fc1461038957806395d89b41146103c4578063a457c2d714610454578063a9059cbb146104c7578063dd62ed3e1461053a575b600080fd5b3480156100cb57600080fd5b506100d46105bf565b6040518080602001828103825283818151815260200191508051906020019080838360005b838110156101145780820151818401526020810190506100f9565b50505050905090810190601f1680156101415780820380516001836020036101000a031916815260200191505b509250505060405180910390f35b34801561015b57600080fd5b506101a86004803603604081101561017257600080fd5b81019080803573ffffffffffffffffffffffffffffffffffffffff169060200190929190803590602001909291905050506106e5565b604051808215151515815260200191505060405180910390f35b3480156101ce57600080fd5b506101d76107df565b6040518082815260200191505060405180910390f35b3480156101f957600080fd5b506102666004803603606081101561021057600080fd5b81019080803573ffffffffffffffffffffffffffffffffffffffff169060200190929190803573ffffffffffffffffffffffffffffffffffffffff1690602001909291908035906020019092919050505061086d565b604051808215151515815260200191505060405180910390f35b34801561028c57600080fd5b50610295610bfc565b604051808260ff1660ff16815260200191505060405180910390f35b3480156102bd57600080fd5b5061030a600480360360408110156102d457600080fd5b81019080803573ffffffffffffffffffffffffffffffffffffffff16906020019092919080359060200190929190505050610c97565b604051808215151515815260200191505060405180910390f35b34801561033057600080fd5b506103736004803603602081101561034757600080fd5b81019080803573ffffffffffffffffffffffffffffffffffffffff169060200190929190505050610e16565b6040518082815260200191505060405180910390f35b34801561039557600080fd5b506103c2600480360360208110156103ac57600080fd5b8101908080359060200190929190505050610ee3565b005b3480156103d057600080fd5b506103d9610ee6565b6040518080602001828103825283818151815260200191508051906020019080838360005b838110156104195780820151818401526020810190506103fe565b50505050905090810190601f1680156104465780820380516001836020036101000a031916815260200191505b509250505060405180910390f35b34801561046057600080fd5b506104ad6004803603604081101561047757600080fd5b81019080803573ffffffffffffffffffffffffffffffffffffffff1690602001909291908035906020019092919050505061100c565b604051808215151515815260200191505060405180910390f35b3480156104d357600080fd5b50610520600480360360408110156104ea57600080fd5b81019080803573ffffffffffffffffffffffffffffffffffffffff16906020019092919080359060200190929190505050611337565b604051808215151515815260200191505060405180910390f35b34801561054657600080fd5b506105a96004803603604081101561055d57600080fd5b81019080803573ffffffffffffffffffffffffffffffffffffffff169060200190929190803573ffffffffffffffffffffffffffffffffffffffff169060200190929190505050611431565b6040518082815260200191505060405180910390f35b60606105ed7f5320115265f2741b38bffc37b9a4818df7dc62f92da11259a2da120e6320c831600102610ee3565b6106197f2f42d31dd95748fbc6b65884ea702394993887f6679884ec16941f1c66c9b29d600102610ee3565b6106457f7e56dcb05f77e26168f02ae2149aff25c3b83b8c08fb718bd81396f8d7503589600102610ee3565b60368054600181600116156101000203166002900480601f0160208091040260200160405190810160405280929190818152602001828054600181600116156101000203166002900480156106db5780601f106106b0576101008083540402835291602001916106db565b820191906000526020600020905b8154815290600101906020018083116106be57829003601f168201915b5050505050905090565b60006107137f956f93cb8bacc8da86f72aafeea1d84783c3a94c9bfcd81c0331f5d2818e6141600102610ee3565b61073f7f2f40cbf723755c1fadc206a401fc7d4894e7b11c8afc35448ba295b908b5c141600102610ee3565b61076b7f5089e4b2ba6e93b77dc5444c44fb8d8783b6418783892bbeaf32268542e47e9a600102610ee3565b61077d61077661153c565b8484611544565b6107a97fe0d1f93222f4a8e006cd56781e639ba8ef7619778fc6698b578b17f947757784600102610ee3565b6107d57f9701761043c9bc48eb439f3ccff580fe53a7bf3eddcb8a32457a4bb76c05eb37600102610ee3565b6001905092915050565b600061080d7f1c8aceb8088cb2e966b5122d69bb66b6b974e56b3d2b449b4ddc6b38f852adb3600102610ee3565b6108397f50629683ec85ac493bc04205854fcba4c920e02852cdf18eab32dfd71d419897600102610ee3565b6108657f76032372e78e802cc8710672e50d0846090033577e209f59c515dd3ecce56639600102610ee3565b603554905090565b600061089b7f2dd0f8c60ccbbdca5290e8204e178b6e21c0aa6e11030cc9ed880b83a7d97d7e600102610ee3565b6108c77ffac573cb4a14f72a9e64b048d5877cdcd73576fe8265091c7542d91ffc635caf600102610ee3565b6108f37fe4792723e1a06320b546d400207aabd9baec6277f6368c33bb75700ffe8adb3e600102610ee3565b6108fe848484611a01565b61092a7f2b1f1752641775ac3101e496575213233b24ef77fccf47b6167c17d0affac4d6600102610ee3565b6109567fdf5d0683d09174a1bbb63f6d12f76be15f2cf28e311082b3e09d8241714de8d8600102610ee3565b6000603460008673ffffffffffffffffffffffffffffffffffffffff1673ffffffffffffffffffffffffffffffffffffffff16815260200190815260200160002060006109a161153c565b73ffffffffffffffffffffffffffffffffffffffff1673ffffffffffffffffffffffffffffffffffffffff168152602001908152602001600020549050610a0a7f6562a488675a190e8badc523f4b04749c200673963068672b435456a1b90e5a1600102610ee3565b610a367f05fd6a12972d92e2bab674e6c158daad3eae414839c9b55275897733ce343286600102610ee3565b610a627f2bf5712b3166e2abb5501f91bd813f7cede2809ff99096ddc4cea084e8738c70600102610ee3565b828110151515610b00576040517f08c379a00000000000000000000000000000000000000000000000000000000081526004018080602001828103825260288152602001807f45524332303a207472616e7366657220616d6f756e742065786365656473206181526020017f6c6c6f77616e636500000000000000000000000000000000000000000000000081525060400191505060405180910390fd5b610b2c7f0ce43ada2701615f201475ef15b8f2a810714d9be31f901818a2cf0f41f76047600102610ee3565b610b587f172500fc12495808ab9c05d6a4adf2f9739323983590e2c70e8ba3df4ec9c02f600102610ee3565b610b847fa5cc8dfbabf53c7519b6f7d9869438a5bd42469e8b4c2ecb2798afb8dae62a34600102610ee3565b610b9885610b9061153c565b858403611544565b610bc47fe43782a1068681b9bbd3985bd892e53e5685f8798ba1abc8114aabaa45fc3fce600102610ee3565b610bf07f4cc9ea6b88bf58cfa68bdd5da6eccc85025dc0249011239fadf14b96d3970021600102610ee3565b60019150509392505050565b6000610c2a7f5063b2daef47617cb3d19d83616180ea68724e282c6686a46c1a4e5d5ccb2e01600102610ee3565b610c567ff71a1dea4ba419104f072e8c36ed26243b5ef472aa49a51e010ad3e343c70b94600102610ee3565b610c827ff538258212bbe0927322c0a6bf81387773e8b207ff16deae8d6d8c89209ef41c600102610ee3565b603860009054906101000a900460ff16905090565b6000610cc57fa05a970556edb5f7f5e9163b2db52a85eca9e2236d6523c2ad4585da6e48426b600102610ee3565b610cf17fb7a5206bf0e776ddc57f61218e035bc6509190a06f325c18752dbb7194b040fb600102610ee3565b610d1d7f3b70f0adfa01d9aeea1a770419a2ae0a94e4c1a6d8bc1daf3977da942f48326b600102610ee3565b610db4610d2861153c565b848460346000610d3661153c565b73ffffffffffffffffffffffffffffffffffffffff1673ffffffffffffffffffffffffffffffffffffffff16815260200190815260200160002060008873ffffffffffffffffffffffffffffffffffffffff1673ffffffffffffffffffffffffffffffffffffffff1681526020019081526020016000205401611544565b610de07ff60b7a6fe1caaaa0598187ccd3f74e245dd8ba577f8cabceb9fa726f4d0bffa6600102610ee3565b610e0c7f38355b1061d0e121db97dba08b51b0ac66bb15eeb906b06edbdd8501bbc9f01b600102610ee3565b6001905092915050565b6000610e447f5e2a377376bd5ae62208d91a5516e97a3d04305360e9136a2860e3a3d5a4ac28600102610ee3565b610e707f950528e9081027373416b61765d238b9cd7afcacec1e4ef1c1fa7a4b6eed2139600102610ee3565b610e9c7fd4c1d4c945e5c53046aac8e5dc3e96a3342e46c2e8280856495ec62002ab106c600102610ee3565b603360008373ffffffffffffffffffffffffffffffffffffffff1673ffffffffffffffffffffffffffffffffffffffff168152602001908152602001600020549050919050565b50565b6060610f147f83579c2a03b8382327a5ab527671be92e46c8322a1d9f347d53137a61a2200cc600102610ee3565b610f407f8749f1e8cc0429a61ea7ab4c300eee685679d3d9a5ed0db19cf126f47d3631b7600102610ee3565b610f6c7faf254a260f54d5d355e3d1c0db4b235fa04dce989ab2d9ae78f5561aa5b012e4600102610ee3565b60378054600181600116156101000203166002900480601f0160208091040260200160405190810160405280929190818152602001828054600181600116156101000203166002900480156110025780601f10610fd757610100808354040283529160200191611002565b820191906000526020600020905b815481529060010190602001808311610fe557829003601f168201915b5050505050905090565b600061103a7fba95c5939f0b7d4b384bd88aee49bb54fa3c23a382b28d66a60e6988d97d58c3600102610ee3565b6110667f4abc63c7712ac019d074929499146073e8dcae44c921ddb53306b49491a314d5600102610ee3565b6110927fd2f5a7998c97d6b0fcd07ecbf129cb9756bb8adb465f972c331dd45f9061ce66600102610ee3565b6000603460006110a061153c565b73ffffffffffffffffffffffffffffffffffffffff1673ffffffffffffffffffffffffffffffffffffffff16815260200190815260200160002060008573ffffffffffffffffffffffffffffffffffffffff1673ffffffffffffffffffffffffffffffffffffffff1681526020019081526020016000205490506111467fe08144c87d8a77dd6642d8d9a0a1a6f42b00293fdb4a44c538b2f58a4126bb06600102610ee3565b6111727f2327bd24d950553f411e7a8802e42da6c3e000b72456760874de756c0f6c39f0600102610ee3565b61119e7f6aa529d281d33a164a9e65e8ee7948b653ae74c0dc569c36a9ab42f1cd6020b7600102610ee3565b82811015151561123c576040517f08c379a00000000000000000000000000000000000000000000000000000000081526004018080602001828103825260258152602001807f45524332303a2064656372656173656420616c6c6f77616e63652062656c6f7781526020017f207a65726f00000000000000000000000000000000000000000000000000000081525060400191505060405180910390fd5b6112687f3945c95539364724a320173579b4ef30100e6bb33cca6265292cbe4665308652600102610ee3565b6112947fc6ae1164e2afbfd9c484430d0429ba33add0d5709767d2c77d2a6301fbbaff81600102610ee3565b6112c07fb64020dfcdd5266bbff47247ccf264db01afbe218557c48d62e26f62998d8c98600102610ee3565b6112d46112cb61153c565b85858403611544565b6113007fdf3c259247761eac0aef472835513a2a948278450cbbe1d94964c98a2671421d600102610ee3565b61132c7f544d5c4e1b493f42d4ea28130b60f2714bbf37233b40a97e5260ba379e4a7fd5600102610ee3565b600191505092915050565b60006113657f2db301d7d5d04adad4e2438736f8bb983e03ae4210b241be62116ca1d9f7c552600102610ee3565b6113917fe112efcfeedc8e6b406a6fea09076d77c86efd3b57aeaa6429844eb07405a3c5600102610ee3565b6113bd7f65ba146f2501b52d2fdb208c927e97b08f104b228db55f7d0de1b6f4a62dcf79600102610ee3565b6113cf6113c861153c565b8484611a01565b6113fb7f4593ff7f8b0b96361a85c7a044fad427b9b97da84ff32bf4b02ef52c8401a0ba600102610ee3565b6114277f8eb784e99e15041294822c187d8340d1671a453b1abde4f1104ffb3ba876bba8600102610ee3565b6001905092915050565b600061145f7fa2cb16a259f2561f42bf5af9137da00ebbe5ddb55eeaaa11f8632a61e4d231e2600102610ee3565b61148b7fbdb39248d0197e33bc60d3c3f0840caf1a66d903a46935ccb552921a37bf44cf600102610ee3565b6114b77f5c341bee01ac719723939d52f83440619e70f22be627fa5c284f86cb436d16f3600102610ee3565b603460008473ffffffffffffffffffffffffffffffffffffffff1673ffffffffffffffffffffffffffffffffffffffff16815260200190815260200160002060008373ffffffffffffffffffffffffffffffffffffffff1673ffffffffffffffffffffffffffffffffffffffff16815260200190815260200160002054905092915050565b600033905090565b6115707f545de00bb3175844364b9de7d635dcaa3873e5210516e32d717774153b936470600102610ee3565b61159c7f6104b65d592661653e14037c23a52f47bcf70706443feb889cd065efce2e1564600102610ee3565b6115c87f590a59de4c80e9f2e779b2ede18ced40fbb8b904426f41dceeb5e381dafceab7600102610ee3565b6115f47f7f9323f23aedde996640313c36922848c72df1d52fe565d7af87c7ce4f5e3ee6600102610ee3565b600073ffffffffffffffffffffffffffffffffffffffff168373ffffffffffffffffffffffffffffffffffffffff16141515156116bf576040517f08c379a00000000000000000000000000000000000000000000000000000000081526004018080602001828103825260248152602001807f45524332303a20617070726f76652066726f6d20746865207a65726f2061646481526020017f726573730000000000000000000000000000000000000000000000000000000081525060400191505060405180910390fd5b6116eb7f12aeb0a06b86075ca18da9f28f6fd096fca5356335c65afe1f0e255dbe8ba254600102610ee3565b6117177fbc7061c311304600530d03be5aead6007b6e8d46e21659d660ee4da2050507ea600102610ee3565b6117437fd4c2245fd12bf9778fc28e58e44a79304dcd52d825a29faf828e0c0dbd9a6607600102610ee3565b61176f7f048a5259106f5847a9b73f1ad4adf5fd527ff91356b91db32c22268018eec09c600102610ee3565b600073ffffffffffffffffffffffffffffffffffffffff168273ffffffffffffffffffffffffffffffffffffffff161415151561183a576040517f08c379a00000000000000000000000000000000000000000000000000000000081526004018080602001828103825260228152602001807f45524332303a20617070726f766520746f20746865207a65726f20616464726581526020017f737300000000000000000000000000000000000000000000000000000000000081525060400191505060405180910390fd5b6118667f3b9185bbdc19255a5700888378bb297be9edc43cc52e918e856f82fc0a5dbdc5600102610ee3565b6118927faaebe10c1ca081662faac7c9309d30e2b2e73c2f7acc8f5d052619cbd715b610600102610ee3565b6118be7face96eaacc2d9f973713fed02bd4d404fa6a4ab4cef45470b978cef1b9f92c37600102610ee3565b80603460008573ffffffffffffffffffffffffffffffffffffffff1673ffffffffffffffffffffffffffffffffffffffff16815260200190815260200160002060008473ffffffffffffffffffffffffffffffffffffffff1673ffffffffffffffffffffffffffffffffffffffff1681526020019081526020016000208190555061196b7f13f9ef1dd2a3c4bc2e81753f1c362b0c9ec27e7e3edcb45b8a81481325308fd8600102610ee3565b6119977f3ee424e19773c6647a8c5a3be026e87a85a49b9de1639568de8811d787eb1b7e600102610ee3565b8173ffffffffffffffffffffffffffffffffffffffff168373ffffffffffffffffffffffffffffffffffffffff167f8c5be1e5ebec7d5bd14f71427d1e84f3dd0314c0f7b2291e5b200ac8c7c3b925836040518082815260200191505060405180910390a3505050565b611a2d7f176ec04f64f64ed38664e54dedc650ceb9a06447aca14a91bf02e4e4d9d05f09600102610ee3565b611a597f9f47a359af86d9784891a39bb54929d2856b88ee02c889852ce10e1c1d72b4c6600102610ee3565b611a857fcd7635be7992cb45a7194a494842e23c6e38be544a747d3ec6d17b478a2d437d600102610ee3565b611ab17fa1c0298099490665adf01a880d22a0f5ca3597e9f6eef897a219ebcc31722b97600102610ee3565b600073ffffffffffffffffffffffffffffffffffffffff168373ffffffffffffffffffffffffffffffffffffffff1614151515611b7c576040517f08c379a00000000000000000000000000000000000000000000000000000000081526004018080602001828103825260258152602001807f45524332303a207472616e736665722066726f6d20746865207a65726f20616481526020017f647265737300000000000000000000000000000000000000000000000000000081525060400191505060405180910390fd5b611ba87f88817e0cfb6d1558222787ba5ae71808041a83f467008d3dbace81ef989ccb6d600102610ee3565b611bd47ffd7d36a9387b42adbb2b5dcaa1d51e815726dc86a21052fceac60bf4e4a45294600102610ee3565b611c007fed171745975d30332adf09cc4572624d8082e26d96830781e72bcd142011106a600102610ee3565b611c2c7f0813ef7003f8ad3dff551e46ad5c73691979362048eecc547976ebc6527c9612600102610ee3565b600073ffffffffffffffffffffffffffffffffffffffff168273ffffffffffffffffffffffffffffffffffffffff1614151515611cf7576040517f08c379a00000000000000000000000000000000000000000000000000000000081526004018080602001828103825260238152602001807f45524332303a207472616e7366657220746f20746865207a65726f206164647281526020017f657373000000000000000000000000000000000000000000000000000000000081525060400191505060405180910390fd5b611d237fb7d7c16f5b6c7a951ed6d2a7bbae8dc7548a03c2d6952184cd2c5b7bef41aa19600102610ee3565b611d4f7f21db45b087e490b57bf16443d751868fab2fb5a0ed412d49ad398bcda0fc7a9d600102610ee3565b611d7b7f6f59315302ebb27f83e910b12f56b0ad8e0883884b47b2b3c2c88492ad6850c9600102610ee3565b611d868383836121be565b611db27f75f3689357821ad40c5ecd2b4911355ef34017867eea055336dc68894f36f4e0600102610ee3565b611dde7f6b22a0f1ef637fbcfd8d6fe76e90b0a6a85e7268e54ff5e83f0fd73c50394191600102610ee3565b6000603360008573ffffffffffffffffffffffffffffffffffffffff1673ffffffffffffffffffffffffffffffffffffffff168152602001908152602001600020549050611e4e7f9f0dfc21188610d98750a83238ffc9d74f0aeadcb5f24ad8d09302981cac5779600102610ee3565b611e7a7f6c4213093cec1509e285f7aaafb51994723b197cdbe0f4e55222c9513c33eb3c600102610ee3565b611ea67f15cf87be3e171ea09c092f2f9d93328181697b11b21afeb016168b38b963bd1c600102610ee3565b818110151515611f44576040517f08c379a00000000000000000000000000000000000000000000000000000000081526004018080602001828103825260268152602001807f45524332303a207472616e7366657220616d6f756e742065786365656473206281526020017f616c616e6365000000000000000000000000000000000000000000000000000081525060400191505060405180910390fd5b611f707f72fc22b753d78fcc0f5a28017d87beb869edd220e5ef77afb8386f33c1880f56600102610ee3565b611f9c7fd6d42f41a4dca058fb0fd024a57ea85d03e9ae66324f59fd4cdbbfc3b42ff8f0600102610ee3565b611fc87f24247a6872ad8a0d7303ffbdb107cfa916bc50ad76700058c118ec49145a7cbe600102610ee3565b818103603360008673ffffffffffffffffffffffffffffffffffffffff1673ffffffffffffffffffffffffffffffffffffffff1681526020019081526020016000208190555061203a7fa4da681649364814cee93303e88453aff2615341e1300ad2e3aa8d016b1bb02d600102610ee3565b6120667fdca7b26fa5a15f490478e7c456e150bb5b77aa33edf778a1b57ddcbe2a47f982600102610ee3565b6120b882603360008673ffffffffffffffffffffffffffffffffffffffff1673ffffffffffffffffffffffffffffffffffffffff168152602001908152602001600020546121ef90919063ffffffff16565b603360008573ffffffffffffffffffffffffffffffffffffffff1673ffffffffffffffffffffffffffffffffffffffff168152602001908152602001600020819055506121277f36ece8e2981bff2e5b11d4f036e62ca4bca339d2334645e7d85ce40731d9b28b600102610ee3565b6121537f2b00e27ee294418792d2e8d5c3b522c71dc76c5ff022f53d363d05f67a5a9a1f600102610ee3565b8273ffffffffffffffffffffffffffffffffffffffff168473ffffffffffffffffffffffffffffffffffffffff167fddf252ad1be2c89b69c2b068fc378daa952ba7f163c4a11628f55a4df523b3ef846040518082815260200191505060405180910390a350505050565b6121ea7fbe07d4b8ed77b89283aec2bb60280a169b9d7adc424ff7670091c2f49dc91689600102610ee3565b505050565b600080828401905083811015151561226f576040517f08c379a000000000000000000000000000000000000000000000000000000000815260040180806020018281038252601b8152602001807f536166654d6174683a206164646974696f6e206f766572666c6f77000000000081525060200191505060405180910390fd5b809150509291505056fea165627a7a723058208e32cb0cb65e3dc8c57b57459c9a71e0aa50c0d7587c5ace280d51a1671384660029",
  "linkReferences": {},
  "deployedLinkReferences": {}
}