{
  "_format": "hh-sol-artifact-1",
  "contractName": "PrizeLinkedAccountVault",
  "sourceName": "contracts/PrizeLinkedAccountVault.sol",
  "abi": [
    {
      "constant": false,
      "inputs": [
        {
          "name": "owner",
          "type": "address"
        },
        {
          "name": "amount",
          "type": "uint256"
        }
      ],
      "name": "depositPrizedLinkAccount",
      "outputs": [
        {
          "name": "",
          "type": "bool"
        }
      ],
      "payable": false,
      "stateMutability": "nonpayable",
      "type": "function"
    },
    {
      "constant": true,
      "inputs": [
        {
          "name": "role",
          "type": "bytes32"
        }
      ],
      "name": "getRoleAdmin",
      "outputs": [
        {
          "name": "",
          "type": "bytes32"
        }
      ],
      "payable": false,
      "stateMutability": "view",
      "type": "function"
    },
    {
      "constant": true,
      "inputs": [
        {
          "name": "account",
          "type": "address"
        }
      ],
      "name": "isAdmin",
      "outputs": [
        {
          "name": "",
          "type": "bool"
        }
      ],
      "payable": false,
      "stateMutability": "view",
      "type": "function"
    },
    {
      "constant": false,
      "inputs": [],
      "name": "renounceOperator",
      "outputs": [],
      "payable": false,
      "stateMutability": "nonpayable",
      "type": "function"
    },
    {
      "constant": false,
      "inputs": [
        {
          "name": "amount",
          "type": "uint256"
        }
      ],
      "name": "withdraw",
      "outputs": [
        {
          "name": "",
          "type": "bool"
        }
      ],
      "payable": false,
      "stateMutability": "nonpayable",
      "type": "function"
    },
    {
      "constant": true,
      "inputs": [
        {
          "name": "c__0x42d91d40",
          "type": "bytes32"
        }
      ],
      "name": "c_0x42d91d40",
      "outputs": [],
      "payable": false,
      "stateMutability": "pure",
      "type": "function"
    },
    {
      "constant": false,
      "inputs": [
        {
          "name": "role",
          "type": "bytes32"
        },
        {
          "name": "account",
          "type": "address"
        }
      ],
      "name": "grantRole",
      "outputs": [],
      "payable": false,
      "stateMutability": "nonpayable",
      "type": "function"
    },
    {
      "constant": false,
      "inputs": [
        {
          "name": "role",
          "type": "bytes32"
        },
        {
          "name": "account",
          "type": "address"
        }
      ],
      "name": "renounceRole",
      "outputs": [],
      "payable": false,
      "stateMutability": "nonpayable",
      "type": "function"
    },
    {
      "constant": true,
      "inputs": [
        {
          "name": "drawTimeStamp",
          "type": "uint256"
        }
      ],
      "name": "getEligibleAddressPendingAddedToDraw",
      "outputs": [
        {
          "name": "result",
          "type": "address[]"
        }
      ],
      "payable": false,
      "stateMutability": "view",
      "type": "function"
    },
    {
      "constant": true,
      "inputs": [],
      "name": "getCurrentbalance",
      "outputs": [
        {
          "name": "",
          "type": "uint256"
        }
      ],
      "payable": false,
      "stateMutability": "view",
      "type": "function"
    },
    {
      "constant": true,
      "inputs": [],
      "name": "getSavingSettings",
      "outputs": [
        {
          "name": "",
          "type": "uint64"
        },
        {
          "name": "",
          "type": "uint32"
        },
        {
          "name": "",
          "type": "uint32"
        },
        {
          "name": "",
          "type": "uint256"
        },
        {
          "name": "",
          "type": "uint256"
        },
        {
          "name": "",
          "type": "address"
        }
      ],
      "payable": false,
      "stateMutability": "view",
      "type": "function"
    },
    {
      "constant": true,
      "inputs": [
        {
          "name": "c__0x48731749",
          "type": "bytes32"
        }
      ],
      "name": "c_0x48731749",
      "outputs": [],
      "payable": false,
      "stateMutability": "pure",
      "type": "function"
    },
    {
      "constant": true,
      "inputs": [
        {
          "name": "account",
          "type": "address"
        }
      ],
      "name": "isOperator",
      "outputs": [
        {
          "name": "",
          "type": "bool"
        }
      ],
      "payable": false,
      "stateMutability": "view",
      "type": "function"
    },
    {
      "constant": false,
      "inputs": [
        {
          "name": "account",
          "type": "address"
        }
      ],
      "name": "addAdmin",
      "outputs": [],
      "payable": false,
      "stateMutability": "nonpayable",
      "type": "function"
    },
    {
      "constant": true,
      "inputs": [
        {
          "name": "depositHash",
          "type": "bytes32"
        }
      ],
      "name": "getDeposit",
      "outputs": [
        {
          "name": "",
          "type": "uint256"
        },
        {
          "name": "",
          "type": "uint256"
        },
        {
          "name": "",
          "type": "address"
        },
        {
          "name": "",
          "type": "uint256"
        },
        {
          "name": "",
          "type": "uint256"
        }
      ],
      "payable": false,
      "stateMutability": "view",
      "type": "function"
    },
    {
      "constant": true,
      "inputs": [
        {
          "name": "drawTimeStamp",
          "type": "uint256"
        }
      ],
      "name": "findMinMaxForDraw",
      "outputs": [
        {
          "name": "min",
          "type": "uint256"
        },
        {
          "name": "max",
          "type": "uint256"
        }
      ],
      "payable": false,
      "stateMutability": "view",
      "type": "function"
    },
    {
      "constant": true,
      "inputs": [
        {
          "name": "owner",
          "type": "address"
        }
      ],
      "name": "getSavingAcountFor",
      "outputs": [
        {
          "name": "",
          "type": "uint256"
        },
        {
          "name": "",
          "type": "bytes32"
        },
        {
          "name": "",
          "type": "address"
        },
        {
          "name": "",
          "type": "uint256"
        },
        {
          "name": "",
          "type": "uint256"
        },
        {
          "name": "",
          "type": "uint256"
        },
        {
          "name": "",
          "type": "uint8"
        },
        {
          "name": "",
          "type": "bytes"
        }
      ],
      "payable": false,
      "stateMutability": "view",
      "type": "function"
    },
    {
      "constant": true,
      "inputs": [
        {
          "name": "c__0xfd3e751c",
          "type": "bytes32"
        }
      ],
      "name": "c_0xfd3e751c",
      "outputs": [],
      "payable": false,
      "stateMutability": "pure",
      "type": "function"
    },
    {
      "constant": false,
      "inputs": [],
      "name": "renounceAdmin",
      "outputs": [],
      "payable": false,
      "stateMutability": "nonpayable",
      "type": "function"
    },
    {
      "constant": false,
      "inputs": [
        {
          "name": "drawTimeStamp",
          "type": "uint256"
        }
      ],
      "name": "awardWinnerV1",
      "outputs": [
        {
          "name": "",
          "type": "bool"
        }
      ],
      "payable": false,
      "stateMutability": "nonpayable",
      "type": "function"
    },
    {
      "constant": true,
      "inputs": [
        {
          "name": "role",
          "type": "bytes32"
        },
        {
          "name": "index",
          "type": "uint256"
        }
      ],
      "name": "getRoleMember",
      "outputs": [
        {
          "name": "",
          "type": "address"
        }
      ],
      "payable": false,
      "stateMutability": "view",
      "type": "function"
    },
    {
      "constant": true,
      "inputs": [
        {
          "name": "role",
          "type": "bytes32"
        },
        {
          "name": "account",
          "type": "address"
        }
      ],
      "name": "hasRole",
      "outputs": [
        {
          "name": "",
          "type": "bool"
        }
      ],
      "payable": false,
      "stateMutability": "view",
      "type": "function"
    },
    {
      "constant": false,
      "inputs": [
        {
          "name": "account",
          "type": "address"
        }
      ],
      "name": "addOperator",
      "outputs": [],
      "payable": false,
      "stateMutability": "nonpayable",
      "type": "function"
    },
    {
      "constant": true,
      "inputs": [],
      "name": "getSavingAcount",
      "outputs": [
        {
          "name": "",
          "type": "uint256"
        },
        {
          "name": "",
          "type": "bytes32"
        },
        {
          "name": "",
          "type": "address"
        },
        {
          "name": "",
          "type": "uint256"
        },
        {
          "name": "",
          "type": "uint256"
        },
        {
          "name": "",
          "type": "uint256"
        },
        {
          "name": "",
          "type": "uint8"
        },
        {
          "name": "",
          "type": "bytes"
        }
      ],
      "payable": false,
      "stateMutability": "view",
      "type": "function"
    },
    {
      "constant": true,
      "inputs": [],
      "name": "DEFAULT_ADMIN_ROLE",
      "outputs": [
        {
          "name": "",
          "type": "bytes32"
        }
      ],
      "payable": false,
      "stateMutability": "view",
      "type": "function"
    },
    {
      "constant": false,
      "inputs": [
        {
          "name": "account",
          "type": "address"
        }
      ],
      "name": "removeOperator",
      "outputs": [],
      "payable": false,
      "stateMutability": "nonpayable",
      "type": "function"
    },
    {
      "constant": false,
      "inputs": [
        {
          "name": "drawTimeStamp",
          "type": "uint256"
        }
      ],
      "name": "regenerateTicketForNextDraw",
      "outputs": [
        {
          "name": "",
          "type": "uint256"
        }
      ],
      "payable": false,
      "stateMutability": "nonpayable",
      "type": "function"
    },
    {
      "constant": true,
      "inputs": [
        {
          "name": "role",
          "type": "bytes32"
        }
      ],
      "name": "getRoleMemberCount",
      "outputs": [
        {
          "name": "",
          "type": "uint256"
        }
      ],
      "payable": false,
      "stateMutability": "view",
      "type": "function"
    },
    {
      "constant": true,
      "inputs": [
        {
          "name": "c__0x90feacde",
          "type": "bytes32"
        }
      ],
      "name": "c_0x90feacde",
      "outputs": [],
      "payable": false,
      "stateMutability": "pure",
      "type": "function"
    },
    {
      "constant": false,
      "inputs": [
        {
          "name": "owner",
          "type": "address"
        },
        {
          "name": "amount",
          "type": "uint256"
        },
        {
          "name": "securityHash",
          "type": "bytes"
        }
      ],
      "name": "createPrizedLinkAccount",
      "outputs": [
        {
          "name": "",
          "type": "bool"
        }
      ],
      "payable": false,
      "stateMutability": "nonpayable",
      "type": "function"
    },
    {
      "constant": false,
      "inputs": [
        {
          "name": "role",
          "type": "bytes32"
        },
        {
          "name": "account",
          "type": "address"
        }
      ],
      "name": "revokeRole",
      "outputs": [],
      "payable": false,
      "stateMutability": "nonpayable",
      "type": "function"
    },
    {
      "constant": true,
      "inputs": [
        {
          "name": "drawTimeStamp",
          "type": "uint256"
        }
      ],
      "name": "getDrawDetails",
      "outputs": [
        {
          "name": "participants",
          "type": "address[]"
        },
        {
          "name": "ticketIds",
          "type": "uint96[]"
        },
        {
          "name": "winningTicket",
          "type": "uint256"
        },
        {
          "name": "balanceEachDraw",
          "type": "uint256"
        }
      ],
      "payable": false,
      "stateMutability": "view",
      "type": "function"
    },
    {
      "constant": true,
      "inputs": [
        {
          "name": "idx",
          "type": "uint256"
        }
      ],
      "name": "getTicketRangeById",
      "outputs": [
        {
          "name": "",
          "type": "uint96"
        },
        {
          "name": "",
          "type": "address"
        },
        {
          "name": "",
          "type": "uint256"
        },
        {
          "name": "",
          "type": "uint256"
        }
      ],
      "payable": false,
      "stateMutability": "view",
      "type": "function"
    },
    {
      "constant": false,
      "inputs": [
        {
          "name": "owner",
          "type": "address"
        },
        {
          "name": "amount",
          "type": "uint256"
        }
      ],
      "name": "withdrawFor",
      "outputs": [
        {
          "name": "",
          "type": "bool"
        }
      ],
      "payable": false,
      "stateMutability": "nonpayable",
      "type": "function"
    },
    {
      "constant": false,
      "inputs": [
        {
          "name": "admin",
          "type": "address"
        },
        {
          "name": "tokenAddress",
          "type": "address"
        },
        {
          "name": "standardInterestRate",
          "type": "uint32"
        },
        {
          "name": "standardInterestRatePercentageBase",
          "type": "uint32"
        },
        {
          "name": "standardMaturityTerm",
          "type": "uint64"
        },
        {
          "name": "budget",
          "type": "uint256"
        },
        {
          "name": "tokenPerTicket",
          "type": "uint16"
        },
        {
          "name": "cutOffHour",
          "type": "uint8"
        },
        {
          "name": "cutOffMinute",
          "type": "uint8"
        },
        {
          "name": "processingCap",
          "type": "uint32"
        },
        {
          "name": "ticketRangeFactor",
          "type": "uint128"
        }
      ],
      "name": "initialize",
      "outputs": [],
      "payable": false,
      "stateMutability": "nonpayable",
      "type": "function"
    },
    {
      "constant": true,
      "inputs": [
        {
          "name": "c__0x3cfa3e8e",
          "type": "bytes32"
        }
      ],
      "name": "c_0x3cfa3e8e",
      "outputs": [],
      "payable": false,
      "stateMutability": "pure",
      "type": "function"
    },
    {
      "constant": true,
      "inputs": [
        {
          "name": "drawTimeStamp",
          "type": "uint256"
        }
      ],
      "name": "getDrawWinner",
      "outputs": [
        {
          "name": "result",
          "type": "address"
        }
      ],
      "payable": false,
      "stateMutability": "view",
      "type": "function"
    },
    {
      "constant": false,
      "inputs": [
        {
          "name": "drawTimeStamp",
          "type": "uint256"
        },
        {
          "name": "seed",
          "type": "uint256"
        }
      ],
      "name": "makeDrawV1",
      "outputs": [
        {
          "name": "",
          "type": "uint256"
        }
      ],
      "payable": false,
      "stateMutability": "nonpayable",
      "type": "function"
    },
    {
      "constant": true,
      "inputs": [],
      "name": "OPERATOR_ROLE",
      "outputs": [
        {
          "name": "",
          "type": "bytes32"
        }
      ],
      "payable": false,
      "stateMutability": "view",
      "type": "function"
    },
    {
      "anonymous": false,
      "inputs": [
        {
          "indexed": false,
          "name": "winner",
          "type": "address"
        },
        {
          "indexed": false,
          "name": "ticket",
          "type": "uint256"
        },
        {
          "indexed": false,
          "name": "reward",
          "type": "uint256"
        }
      ],
      "name": "Winner",
      "type": "event"
    },
    {
      "anonymous": false,
      "inputs": [
        {
          "indexed": true,
          "name": "drawTimeStamp",
          "type": "uint256"
        },
        {
          "indexed": true,
          "name": "ticketId",
          "type": "uint256"
        },
        {
          "indexed": true,
          "name": "owner",
          "type": "address"
        },
        {
          "indexed": false,
          "name": "upper",
          "type": "uint256"
        },
        {
          "indexed": false,
          "name": "lower",
          "type": "uint256"
        }
      ],
      "name": "CreateTicket",
      "type": "event"
    },
    {
      "anonymous": false,
      "inputs": [
        {
          "indexed": true,
          "name": "accountHash",
          "type": "bytes32"
        },
        {
          "indexed": true,
          "name": "owner",
          "type": "address"
        }
      ],
      "name": "CreateAccount",
      "type": "event"
    },
    {
      "anonymous": false,
      "inputs": [
        {
          "indexed": true,
          "name": "depositHash",
          "type": "bytes32"
        },
        {
          "indexed": true,
          "name": "owner",
          "type": "address"
        },
        {
          "indexed": false,
          "name": "deposit",
          "type": "uint256"
        }
      ],
      "name": "CreateDeposit",
      "type": "event"
    },
    {
      "anonymous": false,
      "inputs": [
        {
          "indexed": true,
          "name": "owner",
          "type": "address"
        },
        {
          "indexed": false,
          "name": "amount",
          "type": "uint256"
        }
      ],
      "name": "Withdraw",
      "type": "event"
    },
    {
      "anonymous": false,
      "inputs": [
        {
          "indexed": true,
          "name": "role",
          "type": "bytes32"
        },
        {
          "indexed": true,
          "name": "account",
          "type": "address"
        },
        {
          "indexed": true,
          "name": "sender",
          "type": "address"
        }
      ],
      "name": "RoleGranted",
      "type": "event"
    },
    {
      "anonymous": false,
      "inputs": [
        {
          "indexed": true,
          "name": "role",
          "type": "bytes32"
        },
        {
          "indexed": true,
          "name": "account",
          "type": "address"
        },
        {
          "indexed": true,
          "name": "sender",
          "type": "address"
        }
      ],
      "name": "RoleRevoked",
      "type": "event"
    }
  ],
  "bytecode": "0x608060405261f19d80620000146000396000f3fe6080604052600436106101e3576000357c0100000000000000000000000000000000000000000000000000000000900463ffffffff168063033d086d146101e8578063248a9ca31461025b57806324d7806c146102aa5780632ab6f8db146103135780632e1a7d4d1461032a5780632eda6f871461037d5780632f2ff15d146103b857806336568abe146104135780634218774b1461046e578063515336c7146104fe578063529298b814610529578063669ec8b7146105cf5780636d70f7ae1461060a57806370480275146106735780637a86983f146106c45780638067e0021461075b57806382133e38146107b157806386f8474c146108e65780638bad0c0a146109215780638be30657146109385780639010d07c1461098b57806391d1485414610a105780639870d7fe14610a835780639964476f14610ad4578063a217fddf14610bcf578063ac8a584a14610bfa578063b58d3ff314610c4b578063ca15c87314610c9a578063cc26450214610ce9578063cf123e3014610d24578063d547741f14610dec578063d5a962e414610e47578063d93e81a714610f2d578063db518db214610fd9578063e8b95f751461104c578063ed5c049114611150578063ee37fb4c1461118b578063ee5bf65f14611206578063f5b541a61461125f575b600080fd5b3480156101f457600080fd5b506102416004803603604081101561020b57600080fd5b81019080803573ffffffffffffffffffffffffffffffffffffffff1690602001909291908035906020019092919050505061128a565b604051808215151515815260200191505060405180910390f35b34801561026757600080fd5b506102946004803603602081101561027e57600080fd5b8101908080359060200190929190505050611752565b6040518082815260200191505060405180910390f35b3480156102b657600080fd5b506102f9600480360360208110156102cd57600080fd5b81019080803573ffffffffffffffffffffffffffffffffffffffff1690602001909291905050506117f6565b604051808215151515815260200191505060405180910390f35b34801561031f57600080fd5b50610328611891565b005b34801561033657600080fd5b506103636004803603602081101561034d57600080fd5b810190808035906020019092919050505061195d565b604051808215151515815260200191505060405180910390f35b34801561038957600080fd5b506103b6600480360360208110156103a057600080fd5b81019080803590602001909291905050506119fb565b005b3480156103c457600080fd5b50610411600480360360408110156103db57600080fd5b8101908080359060200190929190803573ffffffffffffffffffffffffffffffffffffffff1690602001909291905050506119fe565b005b34801561041f57600080fd5b5061046c6004803603604081101561043657600080fd5b8101908080359060200190929190803573ffffffffffffffffffffffffffffffffffffffff169060200190929190505050611c01565b005b34801561047a57600080fd5b506104a76004803603602081101561049157600080fd5b8101908080359060200190929190505050611e13565b6040518080602001828103825283818151815260200191508051906020019060200280838360005b838110156104ea5780820151818401526020810190506104cf565b505050509050019250505060405180910390f35b34801561050a57600080fd5b506105136122a6565b6040518082815260200191505060405180910390f35b34801561053557600080fd5b5061053e612334565b604051808767ffffffffffffffff1667ffffffffffffffff1681526020018663ffffffff1663ffffffff1681526020018563ffffffff1663ffffffff1681526020018481526020018381526020018273ffffffffffffffffffffffffffffffffffffffff1673ffffffffffffffffffffffffffffffffffffffff168152602001965050505050505060405180910390f35b3480156105db57600080fd5b50610608600480360360208110156105f257600080fd5b810190808035906020019092919050505061243b565b005b34801561061657600080fd5b506106596004803603602081101561062d57600080fd5b81019080803573ffffffffffffffffffffffffffffffffffffffff16906020019092919050505061243e565b604051808215151515815260200191505060405180910390f35b34801561067f57600080fd5b506106c26004803603602081101561069657600080fd5b81019080803573ffffffffffffffffffffffffffffffffffffffff16906020019092919050505061250a565b005b3480156106d057600080fd5b506106fd600480360360208110156106e757600080fd5b810190808035906020019092919050505061272b565b604051808681526020018581526020018473ffffffffffffffffffffffffffffffffffffffff1673ffffffffffffffffffffffffffffffffffffffff1681526020018381526020018281526020019550505050505060405180910390f35b34801561076757600080fd5b506107946004803603602081101561077e57600080fd5b8101908080359060200190929190505050612873565b604051808381526020018281526020019250505060405180910390f35b3480156107bd57600080fd5b50610800600480360360208110156107d457600080fd5b81019080803573ffffffffffffffffffffffffffffffffffffffff169060200190929190505050612eb4565b604051808981526020018881526020018773ffffffffffffffffffffffffffffffffffffffff1673ffffffffffffffffffffffffffffffffffffffff16815260200186815260200185815260200184815260200183600481111561086057fe5b60ff16815260200180602001828103825283818151815260200191508051906020019080838360005b838110156108a4578082015181840152602081019050610889565b50505050905090810190601f1680156108d15780820380516001836020036101000a031916815260200191505b50995050505050505050505060405180910390f35b3480156108f257600080fd5b5061091f6004803603602081101561090957600080fd5b81019080803590602001909291905050506130f5565b005b34801561092d57600080fd5b506109366130f8565b005b34801561094457600080fd5b506109716004803603602081101561095b57600080fd5b8101908080359060200190929190505050613288565b604051808215151515815260200191505060405180910390f35b34801561099757600080fd5b506109ce600480360360408110156109ae57600080fd5b8101908080359060200190929190803590602001909291905050506139e9565b604051808273ffffffffffffffffffffffffffffffffffffffff1673ffffffffffffffffffffffffffffffffffffffff16815260200191505060405180910390f35b348015610a1c57600080fd5b50610a6960048036036040811015610a3357600080fd5b8101908080359060200190929190803573ffffffffffffffffffffffffffffffffffffffff169060200190929190505050613a9f565b604051808215151515815260200191505060405180910390f35b348015610a8f57600080fd5b50610ad260048036036020811015610aa657600080fd5b81019080803573ffffffffffffffffffffffffffffffffffffffff169060200190929190505050613b55565b005b348015610ae057600080fd5b50610ae9613da7565b604051808981526020018881526020018773ffffffffffffffffffffffffffffffffffffffff1673ffffffffffffffffffffffffffffffffffffffff168152602001868152602001858152602001848152602001836004811115610b4957fe5b60ff16815260200180602001828103825283818151815260200191508051906020019080838360005b83811015610b8d578082015181840152602081019050610b72565b50505050905090810190601f168015610bba5780820380516001836020036101000a031916815260200191505b50995050505050505050505060405180910390f35b348015610bdb57600080fd5b50610be4613e62565b6040518082815260200191505060405180910390f35b348015610c0657600080fd5b50610c4960048036036020811015610c1d57600080fd5b81019080803573ffffffffffffffffffffffffffffffffffffffff169060200190929190505050613e6a565b005b348015610c5757600080fd5b50610c8460048036036020811015610c6e57600080fd5b81019080803590602001909291905050506140bc565b6040518082815260200191505060405180910390f35b348015610ca657600080fd5b50610cd360048036036020811015610cbd57600080fd5b810190808035906020019092919050505061474a565b6040518082815260200191505060405180910390f35b348015610cf557600080fd5b50610d2260048036036020811015610d0c57600080fd5b81019080803590602001909291905050506147f5565b005b348015610d3057600080fd5b50610dd260048036036060811015610d4757600080fd5b81019080803573ffffffffffffffffffffffffffffffffffffffff1690602001909291908035906020019092919080359060200190640100000000811115610d8e57600080fd5b820183602082011115610da057600080fd5b80359060200191846001830284011164010000000083111715610dc257600080fd5b90919293919293905050506147f8565b604051808215151515815260200191505060405180910390f35b348015610df857600080fd5b50610e4560048036036040811015610e0f57600080fd5b8101908080359060200190929190803573ffffffffffffffffffffffffffffffffffffffff169060200190929190505050614d6f565b005b348015610e5357600080fd5b50610e8060048036036020811015610e6a57600080fd5b8101908080359060200190929190505050614f72565b604051808060200180602001858152602001848152602001838103835287818151815260200191508051906020019060200280838360005b83811015610ed3578082015181840152602081019050610eb8565b50505050905001838103825286818151815260200191508051906020019060200280838360005b83811015610f15578082015181840152602081019050610efa565b50505050905001965050505050505060405180910390f35b348015610f3957600080fd5b50610f6660048036036020811015610f5057600080fd5b8101908080359060200190929190505050615270565b60405180856bffffffffffffffffffffffff166bffffffffffffffffffffffff1681526020018473ffffffffffffffffffffffffffffffffffffffff1673ffffffffffffffffffffffffffffffffffffffff16815260200183815260200182815260200194505050505060405180910390f35b348015610fe557600080fd5b5061103260048036036040811015610ffc57600080fd5b81019080803573ffffffffffffffffffffffffffffffffffffffff16906020019092919080359060200190929190505050615312565b604051808215151515815260200191505060405180910390f35b34801561105857600080fd5b5061114e600480360361016081101561107057600080fd5b81019080803573ffffffffffffffffffffffffffffffffffffffff169060200190929190803573ffffffffffffffffffffffffffffffffffffffff169060200190929190803563ffffffff169060200190929190803563ffffffff169060200190929190803567ffffffffffffffff16906020019092919080359060200190929190803561ffff169060200190929190803560ff169060200190929190803560ff169060200190929190803563ffffffff16906020019092919080356fffffffffffffffffffffffffffffffff169060200190929190505050615536565b005b34801561115c57600080fd5b506111896004803603602081101561117357600080fd5b81019080803590602001909291905050506159f9565b005b34801561119757600080fd5b506111c4600480360360208110156111ae57600080fd5b81019080803590602001909291905050506159fc565b604051808273ffffffffffffffffffffffffffffffffffffffff1673ffffffffffffffffffffffffffffffffffffffff16815260200191505060405180910390f35b34801561121257600080fd5b506112496004803603604081101561122957600080fd5b810190808035906020019092919080359060200190929190505050615fdd565b6040518082815260200191505060405180910390f35b34801561126b57600080fd5b50611274616325565b6040518082815260200191505060405180910390f35b60006112b87faaf351134d2239ae83e11d26c9067378253c609eb570f8ae74c28ed36c050dbc6001026159f9565b6112e47f6c875126be1726ab2fc657648964c34d167c9eea09e982826bf5fe2b9ca2d3246001026159f9565b6113107f62099aa8d5be0c25cfa94c8b816435976ac44df70e57c0cd61c9aa5a6e8ea5076001026159f9565b61133c7f453557595d5569438781ff2bffda3521e47a9e00825bc9def362d351cf3e1c746001026159f9565b61134c61134761635e565b61243e565b15156113c0576040517f08c379a00000000000000000000000000000000000000000000000000000000081526004018080602001828103825260188152602001807f5265737472696374656420746f204f70657261746f72732e000000000000000081525060200191505060405180910390fd5b6113ec7f36164c6dee9768d45bd325d105734bbcb52f53401478cd02c4ecad63c18b8e686001026159f9565b6114187fc2ac55851c10e49d80d29047d52eddd577a7571d2b2f4dad9e5fcaa5c07a9bb26001026159f9565b6114447f8b5e26a03f614d839bdc62629e23f3c30eba9ca7b6ad37da29bef6d8a8e7771d60010261243b565b6114707fb49c4d7fb7335fbab90abc81be91735bfbe8f5f537a47adb184cb91ddcb7da7060010261243b565b61149c7f4814b78bb01bb05a028be0034e2074d2ba2cb9eed22d35e3b0cf009bca8e249960010261243b565b6114c87fb0e66bbb244f9bc55435dead616fe6369d956e1056c2551f375c7ac583dad7d460010261243b565b607560009054906101000a900473ffffffffffffffffffffffffffffffffffffffff1673ffffffffffffffffffffffffffffffffffffffff166323b872dd8430856040518463ffffffff167c0100000000000000000000000000000000000000000000000000000000028152600401808473ffffffffffffffffffffffffffffffffffffffff1673ffffffffffffffffffffffffffffffffffffffff1681526020018373ffffffffffffffffffffffffffffffffffffffff1673ffffffffffffffffffffffffffffffffffffffff1681526020018281526020019350505050602060405180830381600087803b1580156115c157600080fd5b505af11580156115d5573d6000803e3d6000fd5b505050506040513d60208110156115eb57600080fd5b810190808051906020019092919050505015156116bc576040517f08c379a000000000000000000000000000000000000000000000000000000000815260040180806020018281038252604d8152602001807f476c7577615072697a654c696e6b65644163636f756e743a20556e61626c652081526020017f746f2073656e6420616d6f756e7420746f206465706f73697420746f2061205381526020017f6176696e67204163636f756e740000000000000000000000000000000000000081525060600191505060405180910390fd5b6116e87fecc66ef73617483bf11170cfc64ebf960a85e9f36829325d0d9826e0192e1f7960010261243b565b6117147f75b90450686dc5909ec7bd91f9d9039a8235470207c73cf2577011bfeb11df5360010261243b565b6117407f5c3662514b5af44deb909ab72f898700a46799266c1d08e11f48e236aed8a64160010261243b565b61174a8383616366565b905092915050565b60006117807f9890401fd59cad5dec194d56f8e1f971f8f878bef0e4ff70e116fd19483f56626001026130f5565b6117ac7f66ef1e06f668d8e0c0d4f82edeefadbe8c80204e2512f9d3541f84665b1015fa6001026130f5565b6117d87fea6f68aaa4e23e70c3a5d466be2b66373b71c8e3a915c17e44d497696e9a338e6001026130f5565b60336000838152602001908152602001600020600201549050919050565b60006118247fb725922c818f0782603dba098ae6ebcd63326dfb07c08fa6ef52bb86e381fb366001026159f9565b6118507f269b98238e7be55b5d7a3db79f2a96a0e9fa4e47593a6bb52d82c25d08facd7e6001026159f9565b61187c7fa0a2fde32d4e52005b78eac14a1ab6ae68b38ec56c08824fdb8abe489653882d6001026159f9565b61188a600060010283613a9f565b9050919050565b6118bd7f5303ee691770746a94c441c3c1db6f6814117793a7840e90eb05ab2e649310636001026159f9565b6118e97ff44ed11abb9d946c2a432fbe662d20f04907a2376ad219db63c38ca689de88f66001026159f9565b6119157fa3b8cd17878a18b96beb23c675e90566c628339c690cc02fef2e6714e599336b6001026159f9565b61195b60405180807f4f50455241544f520000000000000000000000000000000000000000000000008152506008019050604051809103902061195661635e565b611c01565b565b600061198b7f055d1a4cac8420fe2f0ef9125ad984bd62db843ef1bb2ac099b5cd8c7c7cda1660010261243b565b6119b77fa6fcc05efcef1c8d7f5e40a4ec55c6223d0dc4681bd293e43bbec8c230464e4a60010261243b565b6119e37ff5f75558e4fc864ab2178ef2f497edd527acad1bff1060fefc6dd41afbcea26b60010261243b565b6119f46119ee61635e565b83616465565b9050919050565b50565b611a2a7f7c8a75d871e37bb3adbbbea0732c29f9ce19596157638c44ae73c5d9909177a46001026130f5565b611a567f5c8f19add2d84aca7a8087815504b380c1919c10d917dfe0e6f34264806269256001026130f5565b611a827ffc62441d050a63d198d2f97f5a25bb420519fd407e5d50f08312815303d5dd216001026130f5565b611aae7fd64e96f3e91efc239c01bf30d1d8ff0775b4d6b65061ba43ed41ed007d2762396001026130f5565b611ad56033600084815260200190815260200160002060020154611ad061635e565b613a9f565b1515611b6f576040517f08c379a000000000000000000000000000000000000000000000000000000000815260040180806020018281038252602f8152602001807f416363657373436f6e74726f6c3a2073656e646572206d75737420626520616e81526020017f2061646d696e20746f206772616e74000000000000000000000000000000000081525060400191505060405180910390fd5b611b9b7f8ef3a2c3240e4fed75685458a30e1852c1e366c8a3b897910fa24f0e9c12a3936001026130f5565b611bc77f9b2d7cec472af26dd1bd892afafe2be066b09e44a7474e6389d058285c4b95986001026130f5565b611bf37f050340438b0b1f0f74eb1ff71edc211936f7fbfc40a7bf8e9ffa724dc49364f46001026130f5565b611bfd8282616867565b5050565b611c2d7f97749d5907af942f23e24dab2e4d9d9f86169e20828b78fbb02c7397aba20dec6001026130f5565b611c597f6071ae2abfff4312103bd8739211263b643becbb57462f9074353c4b638bc8fb6001026130f5565b611c857f78c9d2effdd2cf4ffcfc49a15eb93d30fb2345626d55331fafe2577c454929456001026130f5565b611cb17f0f8d5525ab20fc25e211108856f9e9c2d7686d4bca86323a95f73b4befbd19056001026130f5565b611cb961635e565b73ffffffffffffffffffffffffffffffffffffffff168173ffffffffffffffffffffffffffffffffffffffff16141515611d81576040517f08c379a000000000000000000000000000000000000000000000000000000000815260040180806020018281038252602f8152602001807f416363657373436f6e74726f6c3a2063616e206f6e6c792072656e6f756e636581526020017f20726f6c657320666f722073656c66000000000000000000000000000000000081525060400191505060405180910390fd5b611dad7f552f1538fdf5aa57eed1a65a84465e26b2dee3a349b98af5bdc70923de8885ca6001026130f5565b611dd97f903d39f78d0f26f99c6bc1e1496c2b3cde0bbb39f25ad445a102acb1d1decd816001026130f5565b611e057f76891968bc09ecbef03a36911e5ee6272955d16b1c067ee7f7047de6127eb41c6001026130f5565b611e0f8282616a33565b5050565b6060611e417f87ab8e0fce645dd5495297a7416c7077ce2f4d6c38f22b9b86c55bc45215999360010261243b565b611e6d7f3016d6c65356c6bd6072f49bf42e8a5a55948337998dc23426da3360cf2578ed60010261243b565b611e997f63690ab96e941ffb1f96dfb7a8fcf5c5b8710583e7cb9e1cc190cc5a7dee657860010261243b565b6000611ec77f5a6933ab24684a28b8245d9e8f5de430c12f8739fc19593243d1dcfbd07f32aa60010261243b565b611ef37f20cca562ee167233012a43d4054b1386074f09acb3ca01b39fb39ef8615d4a9d60010261243b565b60008090505b60698054905081101561229f57611f327f1d5c2fc305a56d3933adc82453ebbf4709053dacad61e77b46885b557845fdb260010261243b565b611f5e7f97967807be6d59c3069d8adefa9d23201decd26da8cb1b79524f45d5e766e33c60010261243b565b6000607f60008681526020019081526020016000206000606984815481101515611f8457fe5b9060005260206000200160009054906101000a900473ffffffffffffffffffffffffffffffffffffffff1673ffffffffffffffffffffffffffffffffffffffff1673ffffffffffffffffffffffffffffffffffffffff16815260200190815260200160002080549050148015612075575060006076600060698481548110151561200a57fe5b9060005260206000200160009054906101000a900473ffffffffffffffffffffffffffffffffffffffff1673ffffffffffffffffffffffffffffffffffffffff1673ffffffffffffffffffffffffffffffffffffffff16815260200190815260200160002060040154115b801561211f57506001600481111561208957fe5b6076600060698481548110151561209c57fe5b9060005260206000200160009054906101000a900473ffffffffffffffffffffffffffffffffffffffff1673ffffffffffffffffffffffffffffffffffffffff1673ffffffffffffffffffffffffffffffffffffffff16815260200190815260200160002060060160009054906101000a900460ff16600481111561211d57fe5b145b15612265576121507fb42a73083c1befee3c06cea8ca58d55bf5f0c4fe40bbdf9e078a6c1cafcfc00260010261243b565b61217c7f86da3b46068b1b4eef8dae5b202d50a68d300e07f61dd1cdd8d8938a9638e69260010261243b565b6121a87f13ea2cdaa440f6fff8cadc87063b2dd45cf0519f18e3ebc8c0ffe1715d6db4bd60010261243b565b6069818154811015156121b757fe5b9060005260206000200160009054906101000a900473ffffffffffffffffffffffffffffffffffffffff1683838151811015156121f057fe5b9060200190602002019073ffffffffffffffffffffffffffffffffffffffff16908173ffffffffffffffffffffffffffffffffffffffff16815250506122587f656401ae8e12b08b6194a3767491f65e90ce406531175a631237523fb0536f0a60010261243b565b8180600101925050612292565b6122917f0d0494f3813a25cd964f7c272cdf7778e5ebe34f82c85fa900174a4ec414bb7960010261243b565b5b8080600101915050611ef9565b5050919050565b60006122d47f1e48659a37d90012034ce0504abf94c687d1cde48eae1d34c8ecf6f1da685f726001026147f5565b6123007f970ea2430ac8c7129fc8eaf4f7c2f09dc3460b605ba5397bea49e71e9b74f9136001026147f5565b61232c7f32ff90641404ad09eea1cd00e3bb039b4789c6b58017ea094d7e1750d00e945d6001026147f5565b607354905090565b6000806000806000806123697f3fd7aa65e03ed2344eb3fa764176d1b28a4ca40d8010176ce7b36e7532250c6e6001026147f5565b6123957f17b6405cea1f8b1c87f130fefc195e5fa52bc3b4580a0f3bba8cc7fda02750146001026147f5565b6123c17fb8d6fe4d206a56650f24d72f070f71bdbd4efc05528abdcbdf6afc84c501f49f6001026147f5565b606560009054906101000a900467ffffffffffffffff16607260009054906101000a900463ffffffff16607260049054906101000a900463ffffffff16606654606754607560009054906101000a900473ffffffffffffffffffffffffffffffffffffffff16955095509550955095509550909192939495565b50565b600061246c7f02ecd88ec5aa7f79e1b04fa2d5196f70633b82efea766ec554a5367eb186c0ed6001026159f9565b6124987ffd7e2637835a60722c80d268652d57225b15dde47b888629fcd49b6f443284bc6001026159f9565b6124c47fef0ee839a87e09beff700b1545467b1e7edec5145e69a952185625b7febbbeaf6001026159f9565b61250360405180807f4f50455241544f520000000000000000000000000000000000000000000000008152506008019050604051809103902083613a9f565b9050919050565b6125367f150c1f904fe0c1d2f7a31162f5217d4d07c87854ee9f1013b84b4a0201d3e1fb6001026159f9565b6125627f3a927a1908dff92aaf343f9a9dfd70ce943abc4aa14bc384662aea3b37a017f06001026159f9565b61258e7f2269e0bd13e5cbaefe2045e6d1c22c909b9219f2bd4b7672480604fb38c98aff6001026159f9565b6125ba7fa6df09688a4556c7d0ddda638cdc6c4be3f54a1562b6556c704a1151a59f51b36001026159f9565b6125ca6125c561635e565b6117f6565b151561263e576040517f08c379a00000000000000000000000000000000000000000000000000000000081526004018080602001828103825260158152602001807f5265737472696374656420746f2041646d696e732e000000000000000000000081525060200191505060405180910390fd5b61266a7f9c9fbfd717d8dd01b6f6d343c06d5831407925d9079391b9c4b46f28be3049a76001026159f9565b6126967fab54a3e2ff4e656505e71fbbf5f7f72002a6ea83477a899d8ce6e776e67501976001026159f9565b6126c27f1879b1107adb408f8af76f8f45ac4e99c6f1bcc9102431bca363de52c073b1dd6001026159f9565b6126ee7fd7067e1fc31ce2497d1aad67288494aad7eff15e9ad64f38f62ac1f1944306916001026159f9565b61271a7f789ba8c5ad5c32a80dfff31774c44fcc100d45bdb016459c014ebdcb9ac242226001026159f9565b6127286000600102826119fe565b50565b600080600080600061275f7f15c6a063f9b01120a1bdb44338ffe9ad683bb9e5d0841ad21e8a6a1706a630496001026147f5565b61278b7fa8ad17f714c474602870daac8b065e6e20d7dd6bc40d773bba4a1d9820c4c3c16001026147f5565b6127b77f9a41d87efab0cc27782b615da93830a718cef13deaef96d471626a31bc8fd1c56001026147f5565b60006077600088815260200190815260200160002090506127fa7f83728831cbe135a745eed85073fc558befbea13a19d4b9770fbee58287534bdd6001026147f5565b6128267fc3e2b999117295b9bea137cbb921b04192f0066fbf1fd2c9d79ed9b0727eb5776001026147f5565b806000015481600101548260020160009054906101000a900473ffffffffffffffffffffffffffffffffffffffff1683600301548460040154955095509550955095505091939590929450565b6000806128a27f5f0265a64dc0d1e44ed8fcf4b17443ea6b2dfbc5a7483c9de2803bd47128c3e76001026119fb565b6128ce7f1e90f0808128ed6295f3929f0c3e9b6d2fefbfab02b0616f39d405a446233e586001026119fb565b6128fa7f8d364e20c86888a49fb0a5c225316faafc62d30ef272ae7d5e4e91bf193c157b6001026119fb565b6000607d6000858152602001908152602001600020905061293d7f443a104b7a2abc0ce9ff9d40bb5aba80939c9751fe15f5117433748460aac9f56001026119fb565b6129697f4e4eb1fb865a8202c21707fc5704c30fe63e71ebc3d363465a5f1fe4c0072f226001026119fb565b607c600082600081548110151561297c57fe5b9060005260206000209060029182820401919006600c029054906101000a90046bffffffffffffffffffffffff166bffffffffffffffffffffffff1681526020019081526020016000206002015491506129f87f761edc98fee140249b69aba460e9f328cc70c96d2a0b4b079d086b41598494bb6001026119fb565b612a247fab52b31eb252d025a5c78869fd14218565b055d33d0c368e86f259e860b3e8766001026119fb565b607c6000826000815481101515612a3757fe5b9060005260206000209060029182820401919006600c029054906101000a90046bffffffffffffffffffffffff166bffffffffffffffffffffffff168152602001908152602001600020600101549250612ab37fa1cbe202d4979dbc1803e8224f63637cd8300a19910f5d37c061af72d6ac1aca6001026119fb565b612adf7fe5af1bfd7fbbbe21eb81a7414fd0a0a8c4e360a1323ff7e51ab859bddb66973d6001026119fb565b6000600190505b8180549050811015612ead57612b1e7f1c29f5bfdefb542bb506b84b7c74430c6e9f3a3bb9e2a8ae6c272fff65c56e206001026119fb565b612b4a7fe170a50cf1cc82b7a8b8b710d9580fc7fe6191971a8675a4910011b44b0e7eb66001026119fb565b82607c60008484815481101515612b5d57fe5b9060005260206000209060029182820401919006600c029054906101000a90046bffffffffffffffffffffffff166bffffffffffffffffffffffff168152602001908152602001600020600201541115612c9c57612bdd7f203a00e7114c711bf1e80ab3dbf084357a497ed70ca3424640b7d1488ff6950a6001026119fb565b612c097fa303f98cc6ce1685bf6e989f8a0f8f49483b345121b408ad42b01dd5afb232136001026119fb565b612c357f26467551d1eb7046f688248f652d228c1bf6806be3899b7f4e90791b2a6d1a706001026119fb565b607c60008383815481101515612c4757fe5b9060005260206000209060029182820401919006600c029054906101000a90046bffffffffffffffffffffffff166bffffffffffffffffffffffff168152602001908152602001600020600201549250612cc9565b612cc87f11d8ce75fe5c00ee2f34c37514086193c9a3600f53beb978aa57bb82141627cc6001026119fb565b5b612cf57fdae38433414487548a7bda5d73b7548dbd3ad7cd576556c1d1a83b89af7f04b86001026119fb565b612d217f1a7558312e1162d125dc230586cf1dd39edfac64ccc12c9ea8747bb6ba6c73426001026119fb565b83607c60008484815481101515612d3457fe5b9060005260206000209060029182820401919006600c029054906101000a90046bffffffffffffffffffffffff166bffffffffffffffffffffffff168152602001908152602001600020600101541015612e7357612db47f2b0227bd0ac303a265db3d5d5aed277f7958ad37889d78eb0fbc207f7ef072a36001026119fb565b612de07f2459bffe89119e7f765dba0c69d9f56e9c5a84cf114d713c55cc1d6103944cad6001026119fb565b612e0c7f6a1eba7c98dedf3c83fbdd13f534dfae6e1555b1abc3827f08a9dc7d0bcb4a6d6001026119fb565b607c60008383815481101515612e1e57fe5b9060005260206000209060029182820401919006600c029054906101000a90046bffffffffffffffffffffffff166bffffffffffffffffffffffff168152602001908152602001600020600101549350612ea0565b612e9f7fedbf2e8ec86acd3317cbe2e59954608482107869daad39317d29bb832ec566b56001026119fb565b5b8080600101915050612ae6565b5050915091565b60008060008060008060006060612eed7faaf351134d2239ae83e11d26c9067378253c609eb570f8ae74c28ed36c050dbc6001026159f9565b612f197f6c875126be1726ab2fc657648964c34d167c9eea09e982826bf5fe2b9ca2d3246001026159f9565b612f457f62099aa8d5be0c25cfa94c8b816435976ac44df70e57c0cd61c9aa5a6e8ea5076001026159f9565b612f717f453557595d5569438781ff2bffda3521e47a9e00825bc9def362d351cf3e1c746001026159f9565b612f81612f7c61635e565b61243e565b1515612ff5576040517f08c379a00000000000000000000000000000000000000000000000000000000081526004018080602001828103825260188152602001807f5265737472696374656420746f204f70657261746f72732e000000000000000081525060200191505060405180910390fd5b6130217f36164c6dee9768d45bd325d105734bbcb52f53401478cd02c4ecad63c18b8e686001026159f9565b61304d7fc2ac55851c10e49d80d29047d52eddd577a7571d2b2f4dad9e5fcaa5c07a9bb26001026159f9565b6130797fa41caa0bd5533d31a05edfc35789e455b9408d5dab9281a02839d594556a7f9760010261243b565b6130a57f9dcd3ebaba0908df6d509a8936302919db871e4c97aa6312946dc657a9c8905460010261243b565b6130d17fd57f88ee5146d6830a52ac20e721981b7fbb0e436ec5bb53169956ce95d623ea60010261243b565b6130da89616c00565b97509750975097509750975097509750919395975091939597565b50565b6131247f34882e832c710efee608a8c31c6b4f81a2882df9495d9d914960835bc5ed3a6f6001026159f9565b6131507fab863da377c52c8f6067472a5ca8df2a2ce6a6f299e205cd7a166b6a8ee319166001026159f9565b61317c7fc04152ee14431e8518d6e1e3408bae4047950f36986878ba23f2b59e8842f0de6001026159f9565b600061318661635e565b90506131b47f601f3a50cc2b63877d5d7c9ae87face277a00a3ba6a3868f835b1048a156698f6001026159f9565b6131e07f6b6789300eb743a8447edde74dfce42f76d507d74fabf8555209106a6cf6835d6001026159f9565b6131ee600060010282611c01565b61321a7fe963ba32f3b2b2511f3b61c6a1cf8ec3b8865be585223e913dad37234ec3dba76001026159f9565b6132467f4b1da260cff4143833d6e35ffde5e36b26a94146d2f068d1b4ae37ca6d0e94406001026159f9565b61328560405180807f4f50455241544f520000000000000000000000000000000000000000000000008152506008019050604051809103902082611c01565b50565b60006132b67faaf351134d2239ae83e11d26c9067378253c609eb570f8ae74c28ed36c050dbc6001026159f9565b6132e27f6c875126be1726ab2fc657648964c34d167c9eea09e982826bf5fe2b9ca2d3246001026159f9565b61330e7f62099aa8d5be0c25cfa94c8b816435976ac44df70e57c0cd61c9aa5a6e8ea5076001026159f9565b61333a7f453557595d5569438781ff2bffda3521e47a9e00825bc9def362d351cf3e1c746001026159f9565b61334a61334561635e565b61243e565b15156133be576040517f08c379a00000000000000000000000000000000000000000000000000000000081526004018080602001828103825260188152602001807f5265737472696374656420746f204f70657261746f72732e000000000000000081525060200191505060405180910390fd5b6133ea7f36164c6dee9768d45bd325d105734bbcb52f53401478cd02c4ecad63c18b8e686001026159f9565b6134167fc2ac55851c10e49d80d29047d52eddd577a7571d2b2f4dad9e5fcaa5c07a9bb26001026159f9565b6134427f5e8f52e2588f032fb0401ec72f140df28676aa3e443604207fb07411f497048560010261243b565b61346e7f756d4697b99f9470f2788e3d48f1981b182d2f71a8abffb308cfa8bc5140abc960010261243b565b61349a7f27fd17f8241eb741602bcbf29405d1096a5a1e5ba53cb986b997c65dfbce6bac60010261243b565b6134c67f2b542bfe75d9773d4aa5b87ce095933ae3dae71347b73449f5da958e6aa9c6e660010261243b565b6085600083815260200190815260200160002060009054906101000a900460ff16151515613582576040517f08c379a00000000000000000000000000000000000000000000000000000000081526004018080602001828103825260308152602001807f476c7577615072697a654c696e6b65644163636f756e743a205072697a65206881526020017f6173206265656e2070616964206f75740000000000000000000000000000000081525060400191505060405180910390fd5b6135ae7f4e5d758321caddaa3eccdfa5f9696124b9bca2a340cc5db0b7f8832cc8528a3a60010261243b565b6135da7f4363280b0a384857f09298a15e7386e37bdd16a30ec1ad29a81042957a4eacc360010261243b565b6136067f2241b8f0ff18451fb7bff58b2e558fb4fdca50e58953697a16cf8228d0443a2d60010261243b565b6000613611836159fc565b905061363f7ffcc889693a5b83904f5d13ea2ed7fa6f4b4f84378fd6722ecb979cb08ea76a1460010261243b565b61366b7f3b312b1c0f831ff0c7d73ce9e3e66bbc18a2348cc21dfc1cecf5b9f1c5511bf460010261243b565b60006136e9607260049054906101000a900463ffffffff1663ffffffff166136db607260009054906101000a900463ffffffff1663ffffffff166136cd608360008a815260200190815260200160002054607b54616e3890919063ffffffff16565b616ec290919063ffffffff16565b616f8f90919063ffffffff16565b90506137177f436deb28efa5fffefaca023fe9a7e1ffd1c16c71b96713096f781c8587eba6ac60010261243b565b6137437fa91511c6d9e8e969329fbc5d9c4a649bb0f904837aeaaeb24c88c91f5783268d60010261243b565b60016085600086815260200190815260200160002060006101000a81548160ff02191690831515021790555061379b7f0281ff50570d64fcc22a7cffad36a108b8a0f25c30b76aebcca33bfaabe1587160010261243b565b6137c77fcebb769236023ea5c6071130f4c3794bdf788492b01addde15682ebb38f7638860010261243b565b600073ffffffffffffffffffffffffffffffffffffffff168273ffffffffffffffffffffffffffffffffffffffff161415156138f1576138297fc1fa9d0fd449d79b354856f4dc1acc6425102fd39cb1c92cab69582c5337b55f60010261243b565b6138557f7bb0efe6dc690972b240a85d6d69cf1dbabd00dbc9c4d1a2e642bd830853645a60010261243b565b6138817f4e3531303908a3189c7f0c3bbc5878a0da9aa30e41e04bc676e1bda022c0119160010261243b565b6000607b819055506138b57ff57a04441cd24e12f268de4011c4d0e7188523cd33e0f5997a4f057a72665cc760010261243b565b6138e17f5f4824ce5e5993ca3f8fea6cdb43a0953dc1a377f6a582625aa6c84529c7284960010261243b565b6138eb8282616366565b50613986565b61391d7fd7d8455cb9b21ba155eab791736846eef2bfa1af713b85b64f3f879e266a13d660010261243b565b6139497fa885dbad3c273ca78cd1b5c51dfaf16f58ff56e3f355f4bc00906de13d98fc4060010261243b565b6139757fa6e2e0fac632267809c1730876d0dd4dcb34e78490ca525e7fb6b8dfebf51e7560010261243b565b80607b600082825401925050819055505b6139b27f2e791255a86b134d317ce1fd6d8593fc0619586385cc0169603ffb6e216963b160010261243b565b6139de7f1c18fbe36c0bf21be8d23b67c95aa51d2dbeab294df7b1c0881a159f1af3ecff60010261243b565b600192505050919050565b6000613a177f433294070be26091e7d86a9df5bd4244f369eb92740f08f2b9f5dee15dae218c6001026130f5565b613a437f9907d011a40ed9cb525bc9703c302f3d71ee5b67daac1b37a8ef10b968f4f2686001026130f5565b613a6f7f986fc817075028f0f7a6cb089481ce6acf40cfa9302d016869b03d52c9d08c886001026130f5565b613a978260336000868152602001908152602001600020600001616fd990919063ffffffff16565b905092915050565b6000613acd7fc5051e054086deec6c7ce99762d4f39637ad216385e8d81a88af053129a5dead6001026130f5565b613af97f9bca38d46f8380efa4a25230fbef4066e19ab09fe512066359f31c8e5016dd9f6001026130f5565b613b257f305a98b4dcb9deaeb4ad6d585a3ddd50284c504959838879128fb9d44da89a4f6001026130f5565b613b4d826033600086815260200190815260200160002060000161707890919063ffffffff16565b905092915050565b613b817f150c1f904fe0c1d2f7a31162f5217d4d07c87854ee9f1013b84b4a0201d3e1fb6001026159f9565b613bad7f3a927a1908dff92aaf343f9a9dfd70ce943abc4aa14bc384662aea3b37a017f06001026159f9565b613bd97f2269e0bd13e5cbaefe2045e6d1c22c909b9219f2bd4b7672480604fb38c98aff6001026159f9565b613c057fa6df09688a4556c7d0ddda638cdc6c4be3f54a1562b6556c704a1151a59f51b36001026159f9565b613c15613c1061635e565b6117f6565b1515613c89576040517f08c379a00000000000000000000000000000000000000000000000000000000081526004018080602001828103825260158152602001807f5265737472696374656420746f2041646d696e732e000000000000000000000081525060200191505060405180910390fd5b613cb57f9c9fbfd717d8dd01b6f6d343c06d5831407925d9079391b9c4b46f28be3049a76001026159f9565b613ce17fab54a3e2ff4e656505e71fbbf5f7f72002a6ea83477a899d8ce6e776e67501976001026159f9565b613d0d7fbdf835ee0fe59519e68e959a2766d368864459c142b651dc6d6cc62e98a492876001026159f9565b613d397fd14e8c1d0c70855f3f901075500965984cbea219b1fa4a42db605c475f4bbee46001026159f9565b613d657fbe47793fa43a6c9d58b424bbf96d50fa4160ae78cfe3c5dd4bc34ba1ea7213866001026159f9565b613da460405180807f4f50455241544f5200000000000000000000000000000000000000000000000081525060080190506040518091039020826119fe565b50565b60008060008060008060006060613de07f4e2b16b1b0644f6bc3a47b05ab1e8597b115c2a72699bdc20fad556b9cccc4fe6001026147f5565b613e0c7fb166f02045665ffa2ad499d796c42e71b1b8174bac0c60c1db73500d1a05cce16001026147f5565b613e387f041147629463f6e0c13e8ca4166a2b5a8b446ac5719c470051757b4feb502f1f6001026147f5565b613e48613e4361635e565b616c00565b975097509750975097509750975097509091929394959697565b600060010281565b613e967f150c1f904fe0c1d2f7a31162f5217d4d07c87854ee9f1013b84b4a0201d3e1fb6001026159f9565b613ec27f3a927a1908dff92aaf343f9a9dfd70ce943abc4aa14bc384662aea3b37a017f06001026159f9565b613eee7f2269e0bd13e5cbaefe2045e6d1c22c909b9219f2bd4b7672480604fb38c98aff6001026159f9565b613f1a7fa6df09688a4556c7d0ddda638cdc6c4be3f54a1562b6556c704a1151a59f51b36001026159f9565b613f2a613f2561635e565b6117f6565b1515613f9e576040517f08c379a00000000000000000000000000000000000000000000000000000000081526004018080602001828103825260158152602001807f5265737472696374656420746f2041646d696e732e000000000000000000000081525060200191505060405180910390fd5b613fca7f9c9fbfd717d8dd01b6f6d343c06d5831407925d9079391b9c4b46f28be3049a76001026159f9565b613ff67fab54a3e2ff4e656505e71fbbf5f7f72002a6ea83477a899d8ce6e776e67501976001026159f9565b6140227f241ba548cc8253817305eb6cbd99b145edfcecbfaeaba1576d256fce484d5ab26001026159f9565b61404e7fc0aad2c1f4c71d0d45099bfc691c3cd5b001f96af75e9e3b342f389f86c261476001026159f9565b61407a7f86524858a643a3d44641956918739c1a8adbfa262f51365867258a74777ab6e86001026159f9565b6140b960405180807f4f50455241544f520000000000000000000000000000000000000000000000008152506008019050604051809103902082614d6f565b50565b60006140ea7f20c8a1a4e166c098a418f14ca157f928aa778528e3a57712569ec38b5249043e60010261243b565b6141157e15b3931a5cbcfdb94468d8463d57e10b927ff3f5dec27f29fed6582db4612360010261243b565b6141417f9f47ee9737d89ff0242a68b7cfa5ae2dd49bb41a6f3a6ca42c5abffd6dbe641860010261243b565b600061416f7f7f59b1297d5b740655dc346f6341fdbc5ee407f25bbc5b9059255776fafc833c60010261243b565b61419b7f539ea9aec3adda5610bcee799e95f29b7a763087820d1100cbecea8a188275ea60010261243b565b60008090505b6069805490508110156146e2576141da7f66b25eafbb57a9ed591bc2b2c8e13aaacb06ebb42cfa37a2944522c8bb08f13260010261243b565b6142067fcfec50d7da70a40a1c7bfad3aca4f1c73301a21d76f6921425ed20df12b1582260010261243b565b6000607f6000868152602001908152602001600020600060698481548110151561422c57fe5b9060005260206000200160009054906101000a900473ffffffffffffffffffffffffffffffffffffffff1673ffffffffffffffffffffffffffffffffffffffff1673ffffffffffffffffffffffffffffffffffffffff1681526020019081526020016000208054905014801561431d57506000607660006069848154811015156142b257fe5b9060005260206000200160009054906101000a900473ffffffffffffffffffffffffffffffffffffffff1673ffffffffffffffffffffffffffffffffffffffff1673ffffffffffffffffffffffffffffffffffffffff16815260200190815260200160002060040154115b80156143c757506001600481111561433157fe5b6076600060698481548110151561434457fe5b9060005260206000200160009054906101000a900473ffffffffffffffffffffffffffffffffffffffff1673ffffffffffffffffffffffffffffffffffffffff1673ffffffffffffffffffffffffffffffffffffffff16815260200190815260200160002060060160009054906101000a900460ff1660048111156143c557fe5b145b156146a8576143f87f04b0fe784a4f0f8284cbbb6b00b8736fad4b5e4b08045485932d0cdb6f64a3c660010261243b565b6144247fecd17d05735ae2a73f9b454e17709beb8e565eb859b471feea1e44f760f48fcc60010261243b565b6144507f295c46218e620c5daa8d5dbdf215266d8734914a6e39fd167b64877d28d6e93a60010261243b565b61459360698281548110151561446257fe5b9060005260206000200160009054906101000a900473ffffffffffffffffffffffffffffffffffffffff1685607660006069868154811015156144a157fe5b9060005260206000200160009054906101000a900473ffffffffffffffffffffffffffffffffffffffff1673ffffffffffffffffffffffffffffffffffffffff1673ffffffffffffffffffffffffffffffffffffffff1681526020019081526020016000206004015461458e6076600060698881548110151561452057fe5b9060005260206000200160009054906101000a900473ffffffffffffffffffffffffffffffffffffffff1673ffffffffffffffffffffffffffffffffffffffff1673ffffffffffffffffffffffffffffffffffffffff1681526020019081526020016000206004015461712c565b6171f0565b506145c07fd1cabf672aa44b4f1e7cf44aeae91874a3a9e3f430a0cb08ae7f562aace9debe60010261243b565b81806001019250506145f47f9e71d6f95db452fd7ef52a04a444dbe6e7214372dc13c9c9d1e3f328ee6e4c4f60010261243b565b6146207f291f76be806fc84ecd30794a1607931972db0f478acbf3f21afa996ee913648d60010261243b565b608660039054906101000a900463ffffffff1663ffffffff168263ffffffff161115614677576146727fd9cbf58cab23258ee4b30affef65e399568676bfcab6fcde67983f7592df679f60010261243b565b6146e2565b6146a37f5bd917ccd4c942e0ae31ef82a31d9df1ddbdb554dfde2f720cff995c4ae17b2660010261243b565b6146d5565b6146d47fb9985cae29f5fb206a28fec9e4ddbd970bbb961cedcb0547cd4abe5fa8a7c87f60010261243b565b5b80806001019150506141a1565b5061470f7f41e3925319947507f9485fc0981244fae56b0ab33235976fb8700db2e33706dc60010261243b565b61473b7f89c9a80d067154a3dd9ba8d2b69aeb97535b9b1a5331f955574ee713f8831ac760010261243b565b8063ffffffff16915050919050565b60006147787f44f06d40964298ea22079cda36046dcfd121686bb49a0c1b80a0eae08ce559456001026130f5565b6147a47f72cd481b3bb07d020fc3b7cda33c4c2d3e2e7f9553bac348bcde8f231dc4fc186001026130f5565b6147d07f6eb98de5cc4982251f208140de22f6b8311bb14ab13aced174eddba3a1a904be6001026130f5565b6147ee60336000848152602001908152602001600020600001617b20565b9050919050565b50565b60006148267faaf351134d2239ae83e11d26c9067378253c609eb570f8ae74c28ed36c050dbc6001026159f9565b6148527f6c875126be1726ab2fc657648964c34d167c9eea09e982826bf5fe2b9ca2d3246001026159f9565b61487e7f62099aa8d5be0c25cfa94c8b816435976ac44df70e57c0cd61c9aa5a6e8ea5076001026159f9565b6148aa7f453557595d5569438781ff2bffda3521e47a9e00825bc9def362d351cf3e1c746001026159f9565b6148ba6148b561635e565b61243e565b151561492e576040517f08c379a00000000000000000000000000000000000000000000000000000000081526004018080602001828103825260188152602001807f5265737472696374656420746f204f70657261746f72732e000000000000000081525060200191505060405180910390fd5b61495a7f36164c6dee9768d45bd325d105734bbcb52f53401478cd02c4ecad63c18b8e686001026159f9565b6149867fc2ac55851c10e49d80d29047d52eddd577a7571d2b2f4dad9e5fcaa5c07a9bb26001026159f9565b6149b27fc06f9ab0a42067a3032004a1a614e8eb2400747d61d289999b531b49d72db4b260010261243b565b6149de7ffc1a22c806fb858100e543a0113f5030549cf1d5e9914e9ff96548df4958770260010261243b565b614a0a7f652e117f8199b91a755823b95c9a7ccbe183fafb662283f460b330e5ba66a30a60010261243b565b614a367f04ac96bf3f7bedf438d92468329e5048138da52c598656dd27de0b9a9767588660010261243b565b607560009054906101000a900473ffffffffffffffffffffffffffffffffffffffff1673ffffffffffffffffffffffffffffffffffffffff166323b872dd8630876040518463ffffffff167c0100000000000000000000000000000000000000000000000000000000028152600401808473ffffffffffffffffffffffffffffffffffffffff1673ffffffffffffffffffffffffffffffffffffffff1681526020018373ffffffffffffffffffffffffffffffffffffffff1673ffffffffffffffffffffffffffffffffffffffff1681526020018281526020019350505050602060405180830381600087803b158015614b2f57600080fd5b505af1158015614b43573d6000803e3d6000fd5b505050506040513d6020811015614b5957600080fd5b81019080805190602001909291905050501515614c2a576040517f08c379a000000000000000000000000000000000000000000000000000000000815260040180806020018281038252604d8152602001807f476c7577615072697a654c696e6b65644163636f756e743a20556e61626c652081526020017f746f2073656e6420616d6f756e7420746f206465706f73697420746f2061205381526020017f6176696e67204163636f756e740000000000000000000000000000000000000081525060600191505060405180910390fd5b614c567fb92dbc1cac19b913178a237a11f0087dfc4f8ddcb0b81ce1296c9792a388d4fb60010261243b565b614c827f833f3b4341ff58a0e7be1edbb5dfc0dc374fc9896a676dbbe733866d03cf74d560010261243b565b614cae7f3a04ad7e9e78a5c1fc6cff605b009e257dee910e66faa994e8afe9c7316045a260010261243b565b6000614d0086864287878080601f016020809104026020016040519081016040528093929190818152602001838380828437600081840152601f19601f82011690508083019250505050505050617bb9565b915050614d2f7fccce1dbaba59abcf83396e478aed4d6e0fcfd31a26264a2061cb7b2ad61cb5f260010261243b565b614d5b7f512a38d588d989eed3acc08f88955428d188aadc8593fb741862cf90b8356c8560010261243b565b614d6481618ce7565b915050949350505050565b614d9b7fb74ad924ba00500175ccb9c922e90ece5516bede925bc063783bc6086080a7056001026130f5565b614dc77fc538a949ad73d85fa871d4fe7b7caf55c98db10decb79e8201e5b229bf49f8d96001026130f5565b614df37f35ef7fe8d6d02844d6863bb6c55f0d1e296384393834f2824348a5a3fe583ff96001026130f5565b614e1f7fe3926445fba9229f612ea4ab3450183300047551d9413fe24bf861e541ee22b46001026130f5565b614e466033600084815260200190815260200160002060020154614e4161635e565b613a9f565b1515614ee0576040517f08c379a00000000000000000000000000000000000000000000000000000000081526004018080602001828103825260308152602001807f416363657373436f6e74726f6c3a2073656e646572206d75737420626520616e81526020017f2061646d696e20746f207265766f6b650000000000000000000000000000000081525060400191505060405180910390fd5b614f0c7f178ba80f02f74abd0ff251d2ea78ec810b40bec9630b6a70cdfbec8d0795e1426001026130f5565b614f387fec551c3ea353e36cbba2586629cb6098113180911ee1a321937b05ae2a2752b66001026130f5565b614f647f84fcfc621d3e05319f4172e0bac43d08f99c5f386a82d921c479c6bf1caa5b9e6001026130f5565b614f6e8282616a33565b5050565b606080600080614fa47f7c36b0bd26f5b34abdc80b983f14a3b49aea03dfb469ac6617f36f32147160116001026119fb565b614fd07f57992dc55ae2bd2bc00a1edba37970d7078af38a12bfd8216fe95a828d3371e56001026119fb565b614ffc7f73cdd953316863f7c9f49d53db46b3f0c6b3b6a056ca2661cef2136875064a916001026119fb565b6081600086815260200190815260200160002080548060200260200160405190810160405280929190818152602001828054801561508f57602002820191906000526020600020905b8160009054906101000a900473ffffffffffffffffffffffffffffffffffffffff1673ffffffffffffffffffffffffffffffffffffffff1681526020019060010190808311615045575b505050505093506150c27f9ba21e4aec720ae0cdb3661d106d7b3c28070fbb50cb84e88bd961d62b076fd06001026119fb565b6150ee7f30d70e9297c991dbec33d213f5b005ad6b02e6fd0a439021e89f50f6d8c11d4d6001026119fb565b607d600086815260200190815260200160002080548060200260200160405190810160405280929190818152602001828054801561518757602002820191906000526020600020906000905b82829054906101000a90046bffffffffffffffffffffffff166bffffffffffffffffffffffff16815260200190600c0190602082600b0104928301926001038202915080841161513a5790505b505050505092506151ba7f48774ebfebefa3ea0f6e15f3f370e30b2f771d11102a8f636cd63f58a7f7f87e6001026119fb565b6151e57e7ada6c75b75c88ab670ea9835039b78d0bc9aceda545dd93c6b6fb7c68a5566001026119fb565b608260008681526020019081526020016000205491506152277f051748605349ac2a39b449d75ef8bb2cecc1e3a5e450552dc6cd33208527e6f66001026119fb565b6152537f4dce12d33aa2e960503b93d9fc9657890c5f4c093cec9eb9b025f54b6c2dfab06001026119fb565b608360008681526020019081526020016000205490509193509193565b6000806000806152a27fb30f1aac961533c92f334952ad3dccdf2b7404ab6092303bb4ff696323eee4d760010261243b565b6152ce7fb186dff979fb354ec642140fe42b22543fe813bc664637b7332104df9357586a60010261243b565b6152fa7fe33882350298b6bc21fd5ea0c72c79c7e8f19b7c967fd373451dd5da795b7e6a60010261243b565b61530385619161565b93509350935093509193509193565b60006153407faaf351134d2239ae83e11d26c9067378253c609eb570f8ae74c28ed36c050dbc6001026159f9565b61536c7f6c875126be1726ab2fc657648964c34d167c9eea09e982826bf5fe2b9ca2d3246001026159f9565b6153987f62099aa8d5be0c25cfa94c8b816435976ac44df70e57c0cd61c9aa5a6e8ea5076001026159f9565b6153c47f453557595d5569438781ff2bffda3521e47a9e00825bc9def362d351cf3e1c746001026159f9565b6153d46153cf61635e565b61243e565b1515615448576040517f08c379a00000000000000000000000000000000000000000000000000000000081526004018080602001828103825260188152602001807f5265737472696374656420746f204f70657261746f72732e000000000000000081525060200191505060405180910390fd5b6154747f36164c6dee9768d45bd325d105734bbcb52f53401478cd02c4ecad63c18b8e686001026159f9565b6154a07fc2ac55851c10e49d80d29047d52eddd577a7571d2b2f4dad9e5fcaa5c07a9bb26001026159f9565b6154cc7fbe6762beacc210dc33f9fc38f75c42cb5d2fdbddd15b058626d0defde3c9dc1460010261243b565b6154f87fc06cdeb9de0bdff0bc7beaa12503083930fc0ea7ad5e61a11b9b24bca695cbd260010261243b565b6155247fbc4d0e511e71c00c44404d1e70c6cffe8be46b17fdc24ef16897be388119923660010261243b565b61552e8383616465565b905092915050565b600060019054906101000a900460ff16806155555750615554619335565b5b8061556c57506000809054906101000a900460ff16155b1515615606576040517f08c379a000000000000000000000000000000000000000000000000000000000815260040180806020018281038252602e8152602001807f436f6e747261637420696e7374616e63652068617320616c726561647920626581526020017f656e20696e697469616c697a656400000000000000000000000000000000000081525060400191505060405180910390fd5b60008060019054906101000a900460ff161590508015615656576001600060016101000a81548160ff02191690831515021790555060016000806101000a81548160ff0219169083151502179055505b6156827fa31b1a46fe654b8214ce8780cb04e88051018ff49ed0d929639c54af16d37a0360010261243b565b6156ae7f6b1d3517277c6dae7c17baff232a77586dc13e733d24d39144b09aff7ecff63060010261243b565b6156da7fb55f637aec5ea17df8d730c46751dbfa10f5154ff466b43dac3263305759673660010261243b565b6156e38c61934c565b61570f7f8f43cc292f22eccf19fb0e91fd36c4e31d3a3ea377ca734b6268c612006c6c0c60010261243b565b61573b7f1699edaedc9a0279b78810e72027cdfd7548ce0ba68adcab7134bc7a2924de7160010261243b565b6157488b8b8b8b8b619655565b6157747ffbb2231a60b23c47f6efeb95679d935eb66f00ee07b920f2b12efafb0b77bfcc60010261243b565b6157a07fc99db7348e08c2dce72ee319f4479aa75684efefd9d0d1b65a7c7624a979a7a860010261243b565b6157ab858584619b69565b6157d77fdffdb994ba241c0319ac950942effbd59462326ed703faabd0e960b73b1a4c3d60010261243b565b6158037fa337749e228df36ace39ec8cca41156db675ecdaa278a7102af22533d9cead6560010261243b565b82608660036101000a81548163ffffffff021916908363ffffffff1602179055506158507f773ce85b7115cef543d21a7e35b7e56f5bfeb18b7606af9f40cf94f7e5a004f460010261243b565b61587c7f8086c418f96dadbd3afe651200481727a02fee8e48a091362c121f36917961b360010261243b565b607560009054906101000a900473ffffffffffffffffffffffffffffffffffffffff1673ffffffffffffffffffffffffffffffffffffffff1663313ce5676040518163ffffffff167c010000000000000000000000000000000000000000000000000000000002815260040160206040518083038186803b15801561590057600080fd5b505afa158015615914573d6000803e3d6000fd5b505050506040513d602081101561592a57600080fd5b8101908080519060200190929190505050608660006101000a81548160ff021916908360ff1602179055506159817f64c8445c55b7a04f7a329da3dfe0bdf4e69bccdcf81f17eea6cbc1cdb115666160010261243b565b6159ad7f5ebd6d88fb36938184f1410d949c16a4bc91cb13d0f07cb98645fab8352643c860010261243b565b85608660016101000a81548161ffff021916908361ffff16021790555080156159eb5760008060016101000a81548160ff0219169083151502179055505b505050505050505050505050565b50565b6000615a2a7fc9cb45d0bf10e6af1b5b19854bc22abb12a6ce6d2f3d6d17a3458b6e3007cfb16001026119fb565b615a567f64ae18e454d090e2f0263f7cbb36a4aa2890c5c054c6af5cc79042ee0d3cd4b16001026119fb565b615a827f48fd48f1275171a2aaecc142b245052ba266fe62db5c3296f7d23ce69b3c4b786001026119fb565b615aae7f2ccee3d41399f5665297836297dc0c1d8362ffe4dd10655e490f0f49cb4fb40d6001026119fb565b60006082600084815260200190815260200160002054111515615b5f576040517f08c379a000000000000000000000000000000000000000000000000000000000815260040180806020018281038252602a8152602001807f476c7577615072697a65447261773a20746865206472617720686173206e6f7481526020017f206265656e206d6164650000000000000000000000000000000000000000000081525060400191505060405180910390fd5b615b8b7fe754df3550e5545428fc407a1853bad83cca4e56618ac32c7055a60c6127cf5c6001026119fb565b615bb77f1bbbeb94f2a61126e73393d5f85f8485bc8d3b5853c466de733c3c6036d1e7136001026119fb565b615be37ffc04913b10b04ac933a570b99d226578fe349719e87f25cde948923a84202b976001026119fb565b60008090505b607d600084815260200190815260200160002080549050811015615fd757615c337ff97f446a33eadc03c55b69b1b4fa0a437c7a0c3130507ba6398bf6630cd70c5d6001026119fb565b615c5f7f632148f02c13fd87a4a30c099eb3e7a00d553aa4d23bcdd382b1a08ad0daa4066001026119fb565b607c6000607d600086815260200190815260200160002083815481101515615c8357fe5b9060005260206000209060029182820401919006600c029054906101000a90046bffffffffffffffffffffffff166bffffffffffffffffffffffff16815260200190815260200160002060010154607c6000607d600087815260200190815260200160002084815481101515615cf557fe5b9060005260206000209060029182820401919006600c029054906101000a90046bffffffffffffffffffffffff166bffffffffffffffffffffffff16815260200190815260200160002060020154118015615dd457506082600084815260200190815260200160002054607c6000607d600087815260200190815260200160002084815481101515615d8357fe5b9060005260206000209060029182820401919006600c029054906101000a90046bffffffffffffffffffffffff166bffffffffffffffffffffffff1681526020019081526020016000206002015410155b8015615e6457506082600084815260200190815260200160002054607c6000607d600087815260200190815260200160002084815481101515615e1357fe5b9060005260206000209060029182820401919006600c029054906101000a90046bffffffffffffffffffffffff166bffffffffffffffffffffffff1681526020019081526020016000206001015411155b15615f9e57615e957fde18cf5ff95ccd1fd548003d8652c920736f51b1ef72a3544b6c54e1967e87f06001026119fb565b615ec17fd0a5d6fb8d3ba4582907d740423226a5ac609292ed08b7d22ddcd50ed81ba4276001026119fb565b615eed7f737c0350da452b140ec187f625132fc2adc8b4e7ac5f772b090ed53242722a306001026119fb565b615f67607c6000607d600087815260200190815260200160002084815481101515615f1457fe5b9060005260206000209060029182820401919006600c029054906101000a90046bffffffffffffffffffffffff166bffffffffffffffffffffffff16815260200190815260200160002060000154619ef7565b905080925050615f997f3db1f9df08495ff9779dcadf3469052982dee809a63210fc0a11af1ba6ab17e46001026119fb565b615fd7565b615fca7f4cd22882db7ad884c875dd9d60e1b0768bbbf57983d0393f2325021caf2130936001026119fb565b8080600101915050615be9565b50919050565b600061600b7faaf351134d2239ae83e11d26c9067378253c609eb570f8ae74c28ed36c050dbc6001026159f9565b6160377f6c875126be1726ab2fc657648964c34d167c9eea09e982826bf5fe2b9ca2d3246001026159f9565b6160637f62099aa8d5be0c25cfa94c8b816435976ac44df70e57c0cd61c9aa5a6e8ea5076001026159f9565b61608f7f453557595d5569438781ff2bffda3521e47a9e00825bc9def362d351cf3e1c746001026159f9565b61609f61609a61635e565b61243e565b1515616113576040517f08c379a00000000000000000000000000000000000000000000000000000000081526004018080602001828103825260188152602001807f5265737472696374656420746f204f70657261746f72732e000000000000000081525060200191505060405180910390fd5b61613f7f36164c6dee9768d45bd325d105734bbcb52f53401478cd02c4ecad63c18b8e686001026159f9565b61616b7fc2ac55851c10e49d80d29047d52eddd577a7571d2b2f4dad9e5fcaa5c07a9bb26001026159f9565b6161977f01f98095bdb4871bd3cd472191fd2a3fffdc20a06d2c780c8e6682291d94446760010261243b565b6161c37fee0809b58aeeed26c30fc6ba6d875b96116194bedc82363fc1cff54182bdce1260010261243b565b6161ef7f0c3e9f168ebfb4977cf472feeaa28e1f043f0a2f2b7739c3a79275d5177cb43c60010261243b565b606060206040519080825280601f01601f1916602001820160405280156162255781602001600182028038833980820191505090505b5090506162547fcf946496a68af8ab72dc0833344b0ca929f3401b5463d4651add61d4a119b11e60010261243b565b6162807f4055094ee938ac478c67721fa04da3c5e6130172fcf7895af3203ad5d703240560010261243b565b60003090506162b17f55fb64c4d4d6cf94ce8a413d66cc411b6dca416c50fa2be261047c4c5e507a7f60010261243b565b80841860208301526162e57fd436c8654e955acd1211f29a5aa18846bedb3f78d5ce3cc2fa9636ad9194a72e60010261243b565b6163117fa1ce5180c6ab847e296c90ab909d21b74a90bd346200740c09675152f17d324f60010261243b565b61631b8583619fed565b9250505092915050565b60405180807f4f50455241544f520000000000000000000000000000000000000000000000008152506008019050604051809103902081565b600033905090565b60006163947f3a61ce631acefc061885100fa00827cc97b5c93817dbb40c3c277a766f34cf7160010261243b565b6163c07f04d34a11a149fd12dcc7da00db4db2c6c5b46f8d538990fe8181738b95ade60e60010261243b565b6163ec7f6f2a40a642b8505b64d55c106502289b831617a327f48a5304fbf5ac6ecb206860010261243b565b60006163f984844261a2d4565b90506164277f8500a9e4fc4b9b3b89306ac2352ef2e779b3117b09ed076a56e5023356ba26fb60010261243b565b6164537f8d699fbb555089289b574a77f3e959dac58459f1256ce603371095a6431dea2c60010261243b565b61645c81618ce7565b91505092915050565b60006164937fc5a5b2fe6449602cfdfd593c921b094a06d3e15840ad3f2d5dbb67794b38cc5460010261243b565b6164bf7f27709734daa1fa3965ca025f974860583ff8fed1c0cb907f6f902bc60c3904cf60010261243b565b6164eb7ffe87d3712ed22cc2ee45b38688206d2f3f0caec5b6c6d55e1840b6e5161ec99560010261243b565b60006164f7848461ab8e565b90506165257f06da2979439f848af7278d004f2f6f3c78aa696877984cdbbbba4a7bc489a53160010261243b565b6165517f591bba838a957c9eae52cd278289638b1cbaffb28d4f0e2e3f02906ff6d1452960010261243b565b600061655c8261712c565b905061658a7f548ad73e78a72a1f172ccc5cb47debddfb89542ec1a61a821db15afd182a9fd260010261243b565b6165b67f3bfca3da8a738e97b8d886da18a71c0cf0181e5451dd251db086ded623a858c360010261243b565b60006165c14261b0e0565b90506165ef7f87c7f9574e9f862bb7bf3b9ab9305e831b38f1da0ed3d427966be43fa0f4b2f460010261243b565b61661b7f293cc16895c033ce2f757f7593eac138ff75c77899c8072dab9b48949ff7809c60010261243b565b600062015180820390506166517feadf27bffebf2c2d2002a7d7539979d6420915a24d053060d9f36bba807057ac60010261243b565b61667d7fb35829b702072203f709e0748491c3f1b289b2aae4713cfc8360dbe699b8a96460010261243b565b6166898783888661bcb6565b506166b67f635141b229dc79ffa55ded2a64ea2b76683daa859141926eb8f581ca170114e160010261243b565b6166e27fb196c774e48dbc0b072c431372a3db70bdaf6e5afd2490fd4ba147326996465060010261243b565b6000607f600083815260200190815260200160002060008973ffffffffffffffffffffffffffffffffffffffff1673ffffffffffffffffffffffffffffffffffffffff1681526020019081526020016000208054905011156167d45761676a7fc67660cf410419900083eb1200a11fb544ab29325f82f01a3cbdb8b6ddf7116c60010261243b565b6167967fda196891401d4a117d4158caba9e18b0eb05950b8249b583e45ea05c3681bacf60010261243b565b6167c27fc062c3862d8b40cba4e6844b040853a31c3eb30841289529fa726d8c6956cebe60010261243b565b6167ce8782888661bcb6565b50616801565b6168007f25c9d0ffdc168da5ca5a9edfe4529e7b902a78a5f6c9647ce9cb177f02a8ac3e60010261243b565b5b61682d7f30be0bc5f9b6350dfe8facb2ea36a5912023737f69cd70a479e75f62f925141760010261243b565b6168597f79c71ca22ffb61c2c72e4170a9b068447cbcb91e3747b1e362391715cd8d94cb60010261243b565b600194505050505092915050565b6168937f7b5ca71ff0c3170626af9f1558f947e9704f6758fabb43f6074fe812966bce566001026130f5565b6168bf7f811d9b367083ade010308c3df46e6c1a758d0a4e066263174dfb6043b644e1736001026130f5565b6168eb7fdb6ee36fa74bfce73b4d7febf4feaf4bdebc1210aab6f5b8693bd4a1f8853a266001026130f5565b616913816033600085815260200190815260200160002060000161c90190919063ffffffff16565b15616a03576169447f85d239db3b4d1b9cced29486f7c80ccb652aafd8e8eae3f7452473f2cc89b51a6001026130f5565b6169707fedea06ed59008997c5743a16db8568bab5dd9f9c34ed04b0f769daf451feb4796001026130f5565b61699c7fef1f4435b8ae57ba06f31930b3fb8c9cc004c60b2991c9854f356fda1be49d1b6001026130f5565b6169a461635e565b73ffffffffffffffffffffffffffffffffffffffff168173ffffffffffffffffffffffffffffffffffffffff16837f2f8788117e7eff1d82e926ec794901d17c78024a50270940304540a733656f0d60405160405180910390a4616a2f565b616a2e7e8e26e72734111ca057d72127912f0212f88739a7285da44b27658c44d821cd6001026130f5565b5b5050565b616a5f7f84b91bc6cd4d63b8761ad13257c7207720ef3cd77d61117e543c387736916e5e6001026130f5565b616a8b7f9dccac468e58953be22b97f316f61593d0626c019b44f72d0fae41962f2372db6001026130f5565b616ab77f431977193dba4d85d3d1072d0ba5e1cdccca8cddfd8c4aff4d7ac2ea98d3d4ee6001026130f5565b616adf816033600085815260200190815260200160002060000161c9b590919063ffffffff16565b15616bcf57616b107f28a965b98d8b942f56696427d3c721e5310563fbc5164dca87cf5cf13ea2a9ed6001026130f5565b616b3c7ff646bf7a647c7eede6638809cfb9c3301764e40ef49c153dd68e18ef90812a406001026130f5565b616b687f6fa7faf9721d6feef12eef2be7cb46f54c37eb46b0da7acac7b4fe0f1b3f54426001026130f5565b616b7061635e565b73ffffffffffffffffffffffffffffffffffffffff168173ffffffffffffffffffffffffffffffffffffffff16837ff6391f5c32d9c69d2a47ea670b442974b53935d1edc7fd64eb21e047a839171b60405160405180910390a4616bfc565b616bfb7f8151549efc9ed0302e535d39e83479798ffab5156bdffc64026f549fa008bc6d6001026130f5565b5b5050565b60008060008060008060006060616c397f96b7243fbf7e39b4dbafba3bea40cf65b2a8a2981e4d691f45fbe8051b4c17686001026147f5565b616c657f3d79eb7efb2ac22f905fa98d8077cf7a5288b224bce8b661262d0341c1c021576001026147f5565b616c917f9d61ecf923815bcd30b35fff050fb785d71a81e57129e1e62a28b4d244cfe30f6001026147f5565b6000607660008b73ffffffffffffffffffffffffffffffffffffffff1673ffffffffffffffffffffffffffffffffffffffff1681526020019081526020016000209050616d007f4d1da28b6ff493badbc82631932ee6faaa25c42646bf1875efa2b7b47d4eb2ae6001026147f5565b616d2c7f77bc20e82f623d7791695aa51b5575507239779965e590de6f295de80778e8a06001026147f5565b806000015481600101548260020160009054906101000a900473ffffffffffffffffffffffffffffffffffffffff168360030154846004015485600501548660060160009054906101000a900460ff1687600701808054600181600116156101000203166002900480601f016020809104026020016040519081016040528092919081815260200182805460018160011615610100020316600290048015616e155780601f10616dea57610100808354040283529160200191616e15565b820191906000526020600020905b815481529060010190602001808311616df857829003601f168201915b505050505090509850985098509850985098509850985050919395975091939597565b6000808284019050838110151515616eb8576040517f08c379a000000000000000000000000000000000000000000000000000000000815260040180806020018281038252601b8152602001807f536166654d6174683a206164646974696f6e206f766572666c6f77000000000081525060200191505060405180910390fd5b8091505092915050565b600080831415616ed55760009050616f89565b60008284029050828482811515616ee857fe5b04141515616f84576040517f08c379a00000000000000000000000000000000000000000000000000000000081526004018080602001828103825260218152602001807f536166654d6174683a206d756c7469706c69636174696f6e206f766572666c6f81526020017f770000000000000000000000000000000000000000000000000000000000000081525060400191505060405180910390fd5b809150505b92915050565b6000616fd183836040805190810160405280601a81526020017f536166654d6174683a206469766973696f6e206279207a65726f00000000000081525061ca69565b905092915050565b60006170077fe7416d2a3843e619b1224850d86b591b72a1e287cf0e1b4b38a8e263ea53269760010261cb33565b6170337f3f6e9522e1ea2955cabc1c679f64bf976068c841a9611123dcede6de73ec4fcd60010261cb33565b61705f7f8b9337500c7386ca8a4084f42b2d40b9be1af142fb7b663118e6df4ae84c617a60010261cb33565b61706c836000018361cb36565b60019004905092915050565b60006170a67fa53b31889d5006b4901ceb793559ba11b86794ec37414fd5e2572de69058b50b60010261cb33565b6170d27f1e389c3a59451a90cc38a462ab78e585703d049faa682b547afe962dd782d9fb60010261cb33565b6170fe7f91294d2a3cd14ca48c2829d94278cbbc8da604b303f69291b78cc7a96433fb6b60010261cb33565b617124836000018373ffffffffffffffffffffffffffffffffffffffff1660010261cd34565b905092915050565b600061715a7f8a16c72f3d08964d4b71e36810ab99653e2f46d2a9bf826bd1cd8478aba4ccdf60010261243b565b6171867f4c5a6d99af1d45b4628e99e4b269c0176ad4768b1613c46f64919d4f12c5b50060010261243b565b6171b27f9abe30724f1c1e411ce654e9058954211a49ab0e32f5e13424885f989705421060010261243b565b608660009054906101000a900460ff1660ff16600a0a608660019054906101000a900461ffff1661ffff1683028115156171e857fe5b049050919050565b600061721e7ffdd89320185995bfc90bd2f435a9e7d12cff2e212aae18da6f0c108a2fefca4f6001026119fb565b61724a7fdbc8a71c599f71825cdc422cf59f398f8a51348d18be2d4257eab9c208d7587b6001026119fb565b6172767fc5b503a3cde8ae5bf7e248fa24ec9a90f4b2c81090d36d4d2aca1fbc4bc22b926001026119fb565b6000607960000160009054906101000a900466ffffffffffffff1666ffffffffffffff1690506172c87fef3003f0129bbc70afd32f619ac0b9e9e53ed070a15d073afbfeca0f18b09bad6001026119fb565b6172f47fe9ccc8f3b1a0e88304e9986a4a95212986391b5760dbfd02de12dc7a06c04b526001026119fb565b60008673ffffffffffffffffffffffffffffffffffffffff16905061733b7f9320883c9245d2acdf532a3a29eb3ddefbac50f535da86ece2d53fd81c7aedfa6001026119fb565b6173677ff89fb822d335b9dc601a9556cc5e96ac1e4c2e7dc0e0ae35cbb7a4b8810f116a6001026119fb565b60a0826bffffffffffffffffffffffff169060020a02811790506173ad7f537eb45c1ef919b66c047975f45174e60e410ff842f4d66c056e79d83dfe664c6001026119fb565b6173d97f656ad3b4f3c2a307d171ab15abb22494d1c9c629f1eb6f2d37f3dd5b1ee247136001026119fb565b6000607e600088815260200190815260200160002054607a60039054906101000a90046fffffffffffffffffffffffffffffffff166fffffffffffffffffffffffffffffffff1601905061744f7f073e147acc3d18fc219e164c20766a065a5acad263b4651f7781989ce23575966001026119fb565b61747b7f78090439c7bf2e1293da69fc94da1fc52cf54f5f72aa4760cc25bf22de1118536001026119fb565b600085820190506174ae7f53d430737d556e4e55940f9eed7c24e195849be34835807006033710075070406001026119fb565b6174da7f5da47253ec3c3274e2ab7298d503a555d02c7232c501dcd08134ad2771f8ba106001026119fb565b60606040519081016040528084815260200183815260200182815250607c6000866bffffffffffffffffffffffff1681526020019081526020016000206000820151816000015560208201518160010155604082015181600201559050506175647f5439116f482646a7d52d71066ec257f2baab37e8cb33e66e4f9bc70682cce0376001026119fb565b6175907f13f6c725b8f9eebc3e3b1f11af3f6436381c10d460a256e370a0097ffc234d046001026119fb565b86608360008a8152602001908152602001600020600082825401925050819055506175dd7fc4c96cf46eeba2873e9ca10840c8f682bf3cf4105689f517332f6e5d1d8040a66001026119fb565b6176097f7d1abfce3f4cdd03f44ae6cf0f8b5ddb772995bd692bb263f3c23339b515135c6001026119fb565b86608060008a815260200190815260200160002060008b73ffffffffffffffffffffffffffffffffffffffff1673ffffffffffffffffffffffffffffffffffffffff168152602001908152602001600020600082825401925050819055506176937f081b29c9b5d9e4920545d94197af44ad21881b03f6f5e10e461d18cb9fd078dc6001026119fb565b6176bf7f0969465ef6c5ea50e8d3fd9a540cc241fb18b46edf5daab89808dff32f5201e16001026119fb565b608160008981526020019081526020016000208990806001815401808255809150509060018203906000526020600020016000909192909190916101000a81548173ffffffffffffffffffffffffffffffffffffffff021916908373ffffffffffffffffffffffffffffffffffffffff160217905550506177627f0671443b48b8db258579dcba632918e8affbd05437db35fe8da4eae40266f0ed6001026119fb565b61778e7f76e9c5df0eb03553c01aa0bc5b1875e59946e72a4831e122dd929fa71e53b1886001026119fb565b607f600089815260200190815260200160002060008a73ffffffffffffffffffffffffffffffffffffffff1673ffffffffffffffffffffffffffffffffffffffff168152602001908152602001600020607960000160009054906101000a900466ffffffffffffff16908060018154018082558091505090600182039060005260206000209060029182820401919006600c0290919266ffffffffffffff16909190916101000a8154816bffffffffffffffffffffffff02191690836bffffffffffffffffffffffff1602179055505061788a7fd78789dcc5df825e09b94ecb8425a5c8355ac6677c2b5a6e7a6652342d1c11886001026119fb565b6178b67fa14fcbcab4a892575ad23caa397f375fff3d33ee46c48ea6c92114c7c9ce5e636001026119fb565b607d600089815260200190815260200160002084908060018154018082558091505090600182039060005260206000209060029182820401919006600c02909192909190916101000a8154816bffffffffffffffffffffffff02191690836bffffffffffffffffffffffff160217905550506179547fc035af89a7a7fdab8d5b2c3923781b6f849dc4b22ec49186aeab341196e0ade36001026119fb565b6179807f0c9b38d7c3a65c3cc43fd5ad7ae3993a6d93fd697e31957f51397f60e47de3626001026119fb565b80607e60008a8152602001908152602001600020819055506179c47f381080a9f8721aa0664b32dddbd723e4c698f38e9df2cbc323c6ccbdf1c53cea6001026119fb565b6179f07fc80f4cece3c2167176cd3daee7a2b9c69961deb2c488b1339fb5808b0c50ac846001026119fb565b8873ffffffffffffffffffffffffffffffffffffffff16846bffffffffffffffffffffffff16897f7ef38c92f7959fa67fe5cd29a3986c48d410d61218c99b6901c9cc81d246cfec8585604051808381526020018281526020019250505060405180910390a4617a827f62084f7b105f12b0759924635bb5bfbf4b8f468bf9e9602362155b83464846556001026119fb565b617aae7fc6b5058ad1548c6ca49bb1d28ecae089997f2bece577e784c81db0684e31d9506001026119fb565b617ab8607961cddc565b617ae47fa17398b5bd6815cbf87da4f9a9c0705dfd0842fa79935314fcc95cf49a7181b46001026119fb565b617b107fb814d31f5d4c16fb9afbfdd58f41820fd86d8a1f15872a35ece725947e6bf4d06001026119fb565b6001945050505050949350505050565b6000617b4e7fed54bc75583d419ab275e8111912b68693321933fc327bb4bcf80928ad8b8b4960010261cb33565b617b7a7f3daffd0a9dce28b482d01a551215671bf4393bb2c14e29701cf4960e2f2b129260010261cb33565b617ba67f40aa26a0e9be8d065cf56c5a97ee7ecf2d6f7f27a85e81ebb85bf92a3fb598c860010261cb33565b617bb28260000161ce7d565b9050919050565b600080617be87f56ca7feaf246e3771784b54fb54b9b6ee10514bd64de526aa51dbeefc9deb4396001026147f5565b617c147f2a0d22da8e991b89711d6308a38079ef47c8c8603cf616f9dca6f6b10f70d7456001026147f5565b617c407fba7a3f687c5ae1aaa5f691e8acfcb9803f3ef694369f5a01311767eee489b3d16001026147f5565b617c6c7fbbe611060714f972353adf43ebc7841f7c51d4d2e87b95822fa5e43804fdf49b6001026147f5565b606654856074540111151515617d10576040517f08c379a00000000000000000000000000000000000000000000000000000000081526004018080602001828103825260268152602001807f476c757761536176696e674163636f756e743a2042756467657420697320657881526020017f636565646564000000000000000000000000000000000000000000000000000081525060400191505060405180910390fd5b617d3c7fd9aa07dc2fdf21ff6d9dc6035d294b67f7ea05f7a7dd392f0abfa9f67bb0707e6001026147f5565b617d687fe6d8e582b5ccead73f67eb90099d5f256656f549eea1c09bc3c6a7e73e07cc746001026147f5565b617d947f75916e65316b56c0aa0ba683d2eeb9ff63a9874c7c81211acbef5d5a044724666001026147f5565b617dc07ff4b56094aaf5ac2cb270e6c04b80589fb528196f00ddb9d25f4bea209e89cd1d6001026147f5565b600073ffffffffffffffffffffffffffffffffffffffff168673ffffffffffffffffffffffffffffffffffffffff1614151515617e8b576040517f08c379a00000000000000000000000000000000000000000000000000000000081526004018080602001828103825260388152602001807f476c757761536176696e674163636f756e743a20536176696e67206f776e657281526020017f2061646472657373206d75737420626520646566696e6564000000000000000081525060400191505060405180910390fd5b617eb77fe2064ecda43658bce43fbf2e4a4650e0b2419dd87d1c429c69e406fa1d96cb226001026147f5565b617ee37f47037449925b55103db30c98d27d8ca0b7885ab667b5b16d296ae241e8ac9ff16001026147f5565b617f0f7fb1984e31da7081381a9af027766a1299f9dd9601711d4803eda543fe2a4b9c176001026147f5565b617f3b7f8520bbdc1065c48f0f20efc1f79dd197d8ca4e1eccca4a47e190ce4a84b9b1896001026147f5565b6000607660008873ffffffffffffffffffffffffffffffffffffffff1673ffffffffffffffffffffffffffffffffffffffff16815260200190815260200160002060030154141515618041576040517f08c379a00000000000000000000000000000000000000000000000000000000081526004018080602001828103825260478152602001807f476c757761536176696e674163636f756e743a2045616368206164647265737381526020017f2073686f756c642068617665206f6e6c79203120536176696e67206163636f7581526020017f6e74206f6e6c790000000000000000000000000000000000000000000000000081525060600191505060405180910390fd5b61806d7fda5a49efd6a9275f6de973b1973d9652d06f46ebce2a10ac9f6b0d32187fd8966001026147f5565b6180997f6311c1acba6ba6a0ac8ef65fbb928cf10b9a8c602290410b2b2f9a2732c6f9906001026147f5565b6180c57f29f579870e139648b7a4dab6da4a649a60074ddd1a90f31bc8e9755a0207163a6001026147f5565b6180f17f4eb49c94e8eb0a6e62e632a2704874592daa97ddf77837ff3be43f1d3863c1e46001026147f5565b600015156078846040518082805190602001908083835b60208310151561812d5780518252602082019150602081019050602083039250618108565b6001836020036101000a038019825116818451168082178552505050505050905001915050908152602001604051809103902060009054906101000a900460ff16151514151561820b576040517f08c379a00000000000000000000000000000000000000000000000000000000081526004018080602001828103825260318152602001807f476c757761536176696e674163636f756e743a204964656e746974792068617381526020017f6820697320616c7265616479207573656400000000000000000000000000000081525060400191505060405180910390fd5b6182377f0a44630ebdb1427c3229ac6c5f57a4a4edafdceea23d811259a9fb17c8b92b1b6001026147f5565b6182637ffb2ef150308673efcfec895ad27adddb42399e62d460c309faf8660c51aed8a56001026147f5565b61828f7f678cbef0a8f5b00b9167a77b638210e4263a477281a3bfb60be794624493b7a66001026147f5565b600073__$8ad4cadfbfab443c6ed09b45690dcdfb0d$__6384cefce086308a6040518463ffffffff167c0100000000000000000000000000000000000000000000000000000000028152600401808481526020018373ffffffffffffffffffffffffffffffffffffffff1673ffffffffffffffffffffffffffffffffffffffff1681526020018273ffffffffffffffffffffffffffffffffffffffff1673ffffffffffffffffffffffffffffffffffffffff168152602001935050505060206040518083038186803b15801561836457600080fd5b505af4158015618378573d6000803e3d6000fd5b505050506040513d602081101561838e57600080fd5b810190808051906020019092919050505090506183cd7fd4db1d6afaad34c1c6f662aac9db2390c4631d478c522cf973cff17a04eb80516001026147f5565b6183f97fdd87886c8f8c5b4a561f66f9ec48c4acb3f5e7b3c02ae5a1bd4ede447edb2fd86001026147f5565b600073__$8ad4cadfbfab443c6ed09b45690dcdfb0d$__63fd96809e606a6002015489308c6040518563ffffffff167c0100000000000000000000000000000000000000000000000000000000028152600401808581526020018481526020018373ffffffffffffffffffffffffffffffffffffffff1673ffffffffffffffffffffffffffffffffffffffff1681526020018273ffffffffffffffffffffffffffffffffffffffff1673ffffffffffffffffffffffffffffffffffffffff16815260200194505050505060206040518083038186803b1580156184db57600080fd5b505af41580156184ef573d6000803e3d6000fd5b505050506040513d602081101561850557600080fd5b810190808051906020019092919050505090506185447f1bec6e70f80774a59e8920f85e6096fee2a3ccc9c1479adbee383a62e8bf40e66001026147f5565b6185707f09ff8cc7c7ada2ed620b18b5faa8174ed9e7f22bb687c70c5d5e5b6dabe461dc6001026147f5565b61010060405190810160405280606a6002015481526020018381526020018973ffffffffffffffffffffffffffffffffffffffff16815260200187815260200188815260200160008152602001600160048111156185ca57fe5b815260200186815250607660008a73ffffffffffffffffffffffffffffffffffffffff1673ffffffffffffffffffffffffffffffffffffffff168152602001908152602001600020600082015181600001556020820151816001015560408201518160020160006101000a81548173ffffffffffffffffffffffffffffffffffffffff021916908373ffffffffffffffffffffffffffffffffffffffff160217905550606082015181600301556080820151816004015560a0820151816005015560c08201518160060160006101000a81548160ff021916908360048111156186af57fe5b021790555060e08201518160070190805190602001906186d092919061f082565b509050506187007f97cd7f30a09b43cd7d7a9f14aee34c151599c75b5144e6d674cb460f544680116001026147f5565b61872c7fffce348fe537e0cd9e0b52731bef05907ec42731a536db750a3c4f13c7e3b4726001026147f5565b60a060405190810160405280606e600201548152602001606a6002015481526020018973ffffffffffffffffffffffffffffffffffffffff1681526020018781526020018881525060776000838152602001908152602001600020600082015181600001556020820151816001015560408201518160020160006101000a81548173ffffffffffffffffffffffffffffffffffffffff021916908373ffffffffffffffffffffffffffffffffffffffff16021790555060608201518160030155608082015181600401559050506188257fdb06ad4b8d8a2c29c57272e7083b68d2a85839309e07e256c76b304dea8a29076001026147f5565b6188517f226a159d817af4cb8d5037d5500dc8941f5825535dc69bcd5223303a2c4627c06001026147f5565b60016078866040518082805190602001908083835b60208310151561888b5780518252602082019150602081019050602083039250618866565b6001836020036101000a038019825116818451168082178552505050505050905001915050908152602001604051809103902060006101000a81548160ff0219169083151502179055506189017f39f16de9bebcb6aa77e1655e284a5b56ac70a2fcee02d102fd7f1edd63b7c7086001026147f5565b61892d7f5e764c4e90e7ed8761088ee9d398f4ea3c6625b44e345ffcdc2d294c29b15eaa6001026147f5565b61894182606a61cf1290919063ffffffff16565b61896d7fadd59be1989bbc100ed9d826c4fb988b57613ef4a2cfcf4d6866da76fadb43816001026147f5565b6189997f97f860c0d84a24afae27959165d108e05ce63a833dfaab91558b0840a03689c26001026147f5565b6189ad81606e61cf1290919063ffffffff16565b6189d97fdc23ffba0b8755c6d937af1ab11038c9c4a0fb577c7fdd698a90779864ffa2646001026147f5565b618a057fc8b09d5f08318382233330a17c6e8f45168ffb1c2ec23b8d892a7949cf706ef86001026147f5565b60698890806001815401808255809150509060018203906000526020600020016000909192909190916101000a81548173ffffffffffffffffffffffffffffffffffffffff021916908373ffffffffffffffffffffffffffffffffffffffff16021790555050618a977ffbd63849cd7cdbabcaf8c5c58488d84a00e9d9ce6a392a18547fc854301f1a6c6001026147f5565b618ac37fec86d0b9e3adb27e547bfe6982a49162382f32d9e0a321f344a5cd9e58a47b876001026147f5565b86607360008282540192505081905550618aff7f407cf8a87c8b060d5069571ffb92713debcd25c6fff93e020e7cce034cc460906001026147f5565b618b2b7f890a96b98cc050681de7722af516aa2ed7b59f86d1b4523d26e5dfd288f6840d6001026147f5565b86607460008282540192505081905550618b677ff26286e08f13ffacf5d0b8945f5ad8ee66623b92e91e9b9e6e2ae2685174bf2d6001026147f5565b618b937f7bb9c928c3ead4140e18eeda64293a79758d0c6862d6d2bb7fbb9163369bca9e6001026147f5565b8773ffffffffffffffffffffffffffffffffffffffff16827fae420988b408fa1c16c342c73f56ece9307da09db1ac6b36fc8d9ff61acaa9a260405160405180910390a3618c037ff6789f38822f0f7709e73fe18d4d4a826de151b932f5e3121a7a2526895b9a9e6001026147f5565b618c2f7f9a31c02245f9b13d91f0a10f92916673be02a3e9f06985c3d3060627f1e7b5166001026147f5565b8773ffffffffffffffffffffffffffffffffffffffff16817f2e2791fe9306933f4d6468aab16a0195b3ab2b342887b2e1be4aa35f56832297896040518082815260200191505060405180910390a3618caa7f0dbb3f1c1696d9e69fee9d2bfab3db72a558cb6b5bd131112970592f1124772c6001026147f5565b618cd67f5123be82fcef626c66b2d27c4912c3197183b004d83422a5bdf859b93b1ee81a6001026147f5565b818193509350505094509492505050565b6000618d157faaf351134d2239ae83e11d26c9067378253c609eb570f8ae74c28ed36c050dbc6001026159f9565b618d417f6c875126be1726ab2fc657648964c34d167c9eea09e982826bf5fe2b9ca2d3246001026159f9565b618d6d7f62099aa8d5be0c25cfa94c8b816435976ac44df70e57c0cd61c9aa5a6e8ea5076001026159f9565b618d997f453557595d5569438781ff2bffda3521e47a9e00825bc9def362d351cf3e1c746001026159f9565b618da9618da461635e565b61243e565b1515618e1d576040517f08c379a00000000000000000000000000000000000000000000000000000000081526004018080602001828103825260188152602001807f5265737472696374656420746f204f70657261746f72732e000000000000000081525060200191505060405180910390fd5b618e497f36164c6dee9768d45bd325d105734bbcb52f53401478cd02c4ecad63c18b8e686001026159f9565b618e757fc2ac55851c10e49d80d29047d52eddd577a7571d2b2f4dad9e5fcaa5c07a9bb26001026159f9565b618ea17f43a6edab168f6163758215350d38ecba2318dc3dfe37f21554317bc9fde29c6360010261243b565b618ecd7f1c936b58a780d6df8d6a36740e9567a53ef3006cd36cc151c47b660b9dec576960010261243b565b618ef97f8b0fb230919a0097f501a69a260dc5174fa7a8fe3cdc0b0132d393f7d63f610e60010261243b565b6000607760008481526020019081526020016000209050618f3c7fe840861fbc2f535c5b7cc529c24d08ec62f6c96e1fa479ba6e3b0be1ec59e4cf60010261243b565b618f687fb3d658da1354ab726d481db487cfbb93449a1e4a1ac798753b6dc10dbf7f2c8260010261243b565b618f947fb295d8042ea636432b0d6b8fae098d9e074905ab5e0ffb12bdf403f66f09851360010261243b565b60008160030154111515619036576040517f08c379a00000000000000000000000000000000000000000000000000000000081526004018080602001828103825260318152602001807f476c7577615072697a654c696e6b65644163636f756e743a205468652064657081526020017f6f736974206973206e6f7420666f756e6400000000000000000000000000000081525060400191505060405180910390fd5b6190627f37e7a2243cb9b60fae59f298ac5e410b9ee3da01b60e269df0d473f1ade8afee60010261243b565b61908e7fc6480e821c688e22d3e82c2b7b940c0be7c61e0e315527b0e86e1601ca34c8ea60010261243b565b6190ba7ff47c8889674a7e52abd5b06ec4f424727cbd8fd9929afc2a2af32a02cd648aef60010261243b565b6190fe8160020160009054906101000a900473ffffffffffffffffffffffffffffffffffffffff16826003015483600401546190f9856004015461712c565b61d038565b5061912b7ff04088cbabb8d585b26f68b6092b512dca2cb2c5493f12ed2f9fab549554adc860010261243b565b6191577f2890737e77a3cc17df7a02c65a270a3f309255caef5f82ee5dab772d9a1790c860010261243b565b6001915050919050565b6000806000806191937f3155d3f0fbcdb604e7ed1c06c1a6985d70c5b46a107c68f130b32bf58b18d40a6001026119fb565b6191bf7f40a8e73bbcb01d47b5671c52a9b29a286fe71eab24c4e624650536ff645134586001026119fb565b6191eb7f38ff2d211281870e6fb6c4b4f1680b0a20528644ce5b213aae44cdff98eee9666001026119fb565b6000607c6000878152602001908152602001600020905061922e7f67054dac490c85ee27cb348f7947c8206bd638d1118776530f41b8124abd49d76001026119fb565b61925a7f6c9c951c9424fc2ae46c3da0a2da7810a85785eb78ddcce261b4a62598bfce8d6001026119fb565b6192678160000154619ef7565b809550819650505061929b7f2d3b99769cfbf74e4b559baead6ec327f44984377c96a4a7c735877e1751bf306001026119fb565b6192c77f752b614dcd43b64a7299e0f86075c6d21cedbd89eba1631abf2743b7b946af476001026119fb565b806001015492506192fa7fbaa6dad4bf9fc1b0239fa23cbdfb6c0e927c3523ee2275d7b861051d256dfc836001026119fb565b6193267fea25679998979202b0b4b107f89054f2794bb3bdd9a1c4d768a97a844758a7806001026119fb565b80600201549150509193509193565b6000803090506000813b9050600081149250505090565b600060019054906101000a900460ff168061936b575061936a619335565b5b8061938257506000809054906101000a900460ff16155b151561941c576040517f08c379a000000000000000000000000000000000000000000000000000000000815260040180806020018281038252602e8152602001807f436f6e747261637420696e7374616e63652068617320616c726561647920626581526020017f656e20696e697469616c697a656400000000000000000000000000000000000081525060400191505060405180910390fd5b60008060019054906101000a900460ff16159050801561946c576001600060016101000a81548160ff02191690831515021790555060016000806101000a81548160ff0219169083151502179055505b6194987f66c7989d461c7892192c9d43ba8e5c17cf7cdb6479a45459c88b67afa2c3bf156001026159f9565b6194c47fbc1ce8df131d361404ea3515090ceb64893332f100e2a78b56e25ac01e5983866001026159f9565b6194f07fb40052489e624be3584cada070d1288d3b59af32bcb85d79069b199ae0c8ef866001026159f9565b61953360405180807f4f50455241544f5200000000000000000000000000000000000000000000000081525060080190506040518091039020600060010261d0dc565b61955f7f93b13d67ca93e2d6d0e85250e2f37af0ea71414315423037e0f7e98439861d026001026159f9565b61958b7ff7dbf51cbcdfc272109df29ce8ee589e577d32bca64f317f28ffa27f8e2395096001026159f9565b61959960006001028361d17f565b6195c57fb9c4645ec4363ca07ddaefab6c56e3b97595d05b0f9b7b78604b442092cd001b6001026159f9565b6195f17f12e3f6e826708ec13cb8e33d9dfa2eedf412e4d21685208575c9080bbdcdf4746001026159f9565b61963060405180807f4f50455241544f52000000000000000000000000000000000000000000000000815250600801905060405180910390208361d17f565b80156196515760008060016101000a81548160ff0219169083151502179055505b5050565b600060019054906101000a900460ff16806196745750619673619335565b5b8061968b57506000809054906101000a900460ff16155b1515619725576040517f08c379a000000000000000000000000000000000000000000000000000000000815260040180806020018281038252602e8152602001807f436f6e747261637420696e7374616e63652068617320616c726561647920626581526020017f656e20696e697469616c697a656400000000000000000000000000000000000081525060400191505060405180910390fd5b60008060019054906101000a900460ff161590508015619775576001600060016101000a81548160ff02191690831515021790555060016000806101000a81548160ff0219169083151502179055505b6197a17fafd7098ad09f2210cd7a5ae85e81f0bd54af277d7be2bba45f0466aefba833b36001026147f5565b6197cd7f0e3ec2e408e459836d63daab9ac577d2058a0767bc7baf8cd396fad52443e3b06001026147f5565b6197f97f37387acd809d352641b7569dfef82f701acfd5f0d72a16ba1141107c83490eb96001026147f5565b85607560006101000a81548173ffffffffffffffffffffffffffffffffffffffff021916908373ffffffffffffffffffffffffffffffffffffffff1602179055506198667ff68b4c19b4501e8a26375f56e966ffb7df406897060027268132d0e0b44afcf96001026147f5565b6198927fed2d60428ae4063c172f0be69d04d8d995e8d42e9262a17f39b8521592077fdd6001026147f5565b84607260006101000a81548163ffffffff021916908363ffffffff1602179055506198df7fa51966f4ef61298486064feec37b41261c7cde60fbf2a31ed4fc6d6588af4e426001026147f5565b61990b7fff205bcb141cdd325d7b666a79cbd9127daf9157a3cc276e1f5106bb351b8b0b6001026147f5565b83607260046101000a81548163ffffffff021916908363ffffffff1602179055506199587f857e220351d8aa1b0197bfa0267a4faf808a6de710d463f2709778a3b18503876001026147f5565b6199847fa1f109cc1be943e64b1a6e0848a9ac5778d51f2fd66393d5d48e25bf315f7c056001026147f5565b82606560006101000a81548167ffffffffffffffff021916908367ffffffffffffffff1602179055506199d97f17dbf3d109c4f5d7ee89824e05bc22e46bd7f238a4dfc214449033acb896da306001026147f5565b619a057f37a00f29333ede6a62aec24c5b155256e73103af619aa0f5a06132d988720b046001026147f5565b81606681905550619a387f405881ad965423ccb1eb50f817a1127c7bab9d456ab47c5ca3de30284eaaa7a16001026147f5565b619a647f5f3b59e3c916b2543b8fffcf8da92609dd25f2f134ed297e6a84cdfbccce8cb36001026147f5565b60606040519081016040528060018152602001600181526020016000815250606a600082015181600101556020820151816002015560408201518160030155905050619ad27fd49dfa9318ba827faf2d1e1e62ca914df5a65d57a8f0593975e869ed153645da6001026147f5565b619afe7fad03c7523c09ddff4260081fca66e652656eecf7eaa3631f3a87756d6a5185096001026147f5565b60606040519081016040528060018152602001600181526020016000815250606e6000820151816001015560208201518160020155604082015181600301559050508015619b615760008060016101000a81548160ff0219169083151502179055505b505050505050565b600060019054906101000a900460ff1680619b885750619b87619335565b5b80619b9f57506000809054906101000a900460ff16155b1515619c39576040517f08c379a000000000000000000000000000000000000000000000000000000000815260040180806020018281038252602e8152602001807f436f6e747261637420696e7374616e63652068617320616c726561647920626581526020017f656e20696e697469616c697a656400000000000000000000000000000000000081525060400191505060405180910390fd5b60008060019054906101000a900460ff161590508015619c89576001600060016101000a81548160ff02191690831515021790555060016000806101000a81548160ff0219169083151502179055505b619cb57fe6a1d6b495bc012bee9149e848c1849ef375513e748396fed21fd64e834e036a6001026119fb565b619ce17f55b13f8f1b1aa68754a7c043413c84a1b850af16f6172b3f291081105ccb3c836001026119fb565b619d0d7fa9885a6b3e90a9a1714a653ded44880bc78d10ddf2e88d1a1bb8b35dfcad70276001026119fb565b83607a60016101000a81548160ff021916908360ff160217905550619d547fc7ae554b93ac90e901f133990f86ae8233d552ee1a5bec052f5703435a313a266001026119fb565b619d807f63c1755e7549db88526cda16eb8580d55aa2cc44b10d0f803ba36f0b3bb58acf6001026119fb565b82607a60026101000a81548160ff021916908360ff160217905550619dc77f2017fc10d7dc299cfc816e02f729aee770380b9468e264d122778cf99ceef0a36001026119fb565b619df37f159087414106394e32055ef33ac14134ef0c11ae6e385c9c0a8396c2b5475adc6001026119fb565b81607a60036101000a8154816fffffffffffffffffffffffffffffffff02191690836fffffffffffffffffffffffffffffffff160217905550619e587fd3c6c27b56653c691642f8f2003a6939ff6266835992a532b420dc4a769565b86001026119fb565b619e847f7976e804e76d0d9efc3b78fe72fb9e4a8578504d2975157c3250fb603e3ba3816001026119fb565b602060405190810160405280600166ffffffffffffff16815250607960008201518160000160006101000a81548166ffffffffffffff021916908366ffffffffffffff1602179055509050508015619ef15760008060016101000a81548160ff0219169083151502179055505b50505050565b600080619f267fee6f04d8903c6b975227c7950dc7e18945464e5271c84c489f529cf63f2a9b2b6001026119fb565b619f527f5b13ecfe45c00bb754ec25a2fd7654dd81c9999f91657f2e34069d2199ecac4a6001026119fb565b619f7e7f1906b4099c4ff18ae8645fecee6f5c2d21335fb4a8562eee149855221076c7826001026119fb565b829050619fad7f2a6b08f6b3d399cff480c7a89510f70c1886f224a158c7576c1240c9ac2e18a76001026119fb565b619fd97f0ea3092967f864d98a57f68060467397dcc8e36dffa08c8112d09734ca8778076001026119fb565b60a083908060020a82049150509150915091565b600061a01b7f1e4c5363833c25365820aa63a423b8fe47c99d9a4612ad17829d7daf3df887656001026119fb565b61a0477f648787b6c7dff445e5877e30c431ead9dd6aa76466c6f6011f5f0c4c2cdac2b86001026119fb565b61a0737fa2403f20be91a7804397e7ab7bc81e5fc9bc0618a4fcced4ff51fa86c96e97946001026119fb565b61a09f7f01f1db6c9eaeeed975bc08895d49484d16b7fafc9293c2abec87618c7b0847b66001026119fb565b6000608260008581526020019081526020016000205414151561a150576040517f08c379a00000000000000000000000000000000000000000000000000000000081526004018080602001828103825260268152602001807f476c7577615072697a65447261773a207468652064726177206861732062656581526020017f6e206d616465000000000000000000000000000000000000000000000000000081525060400191505060405180910390fd5b61a17c7fb552db9bdb93afb63a00691fb07e94c940edec38a20f346152b9611a90c325e16001026119fb565b61a1a87f9ae4b6334e7aec4e0e41059fc0ac9236c05d76dc68dbd077b1c40d29966471b36001026119fb565b61a1d47fe4e823fd9ceebedc9d0b8b348c80a7414b6f0e165a02fabd9cd5a8e36d4881996001026119fb565b60008061a1e085612873565b9150915061a2107fe252ba52da0f2b20c29f245fb298abc21c8250b67427122e5966ad8a5dbe66fc6001026119fb565b61a23c7fa8ed851e73668854f81601270ea988891ee70db828dc8a984e387c9e57d623406001026119fb565b61a24782828661d211565b608260008781526020019081526020016000208190555061a28a7f95ac37976cf8eea6b2e66f76c444faef359f36c0f00f6451f8ee99c798a037af6001026119fb565b61a2b67f851ad9bd447ea81c76294dcb4633912eacfdcca67053064cc12a711b1de8654c6001026119fb565b60826000868152602001908152602001600020549250505092915050565b600061a3027fc72a0c558a46349161888d2b06fb31e1b14b10bc5f3a8a56cf573c58890fce496001026147f5565b61a32e7f131210454d8d5d25dbea0d2156a9399cd9f367e741b110e1720aad6b95ce11b16001026147f5565b61a35a7f0afb8d2a042420390505ba73febdcad46b51fbc5787f299b0a46383a3b5774216001026147f5565b61a3867f9c8850ecad6c2fa7acfe211222b48237be0d9bcbad3e60452d68d3be6469c6806001026147f5565b60665483607454011115151561a42a576040517f08c379a00000000000000000000000000000000000000000000000000000000081526004018080602001828103825260268152602001807f476c757761536176696e674163636f756e743a2042756467657420697320657881526020017f636565646564000000000000000000000000000000000000000000000000000081525060400191505060405180910390fd5b61a4567f275b31574706d124196f93de6704fb1603f6b53479a24265557836230159acab6001026147f5565b61a4827f4a4b478c226922878711c7d3d5dbba490fcbb641caca51c4fbf828b8c18091696001026147f5565b61a4ae7f12709aa023c7c1437d0f428fb874dd62cfefa6a94160a9856ea7be02ead17d7e6001026147f5565b6000607660008673ffffffffffffffffffffffffffffffffffffffff1673ffffffffffffffffffffffffffffffffffffffff168152602001908152602001600020905061a51d7f78d63f3dc0fcd461746a4538a7215ae972ade77c664b0c370d1c0e5b3e89e9ee6001026147f5565b61a5497f7eef7889d9f5095cb7e9a72d488afd4982f8a107a26a57d4132fc1138564e9a26001026147f5565b61a5757f137d930a46031d795d8f9aa019aecef5a4cf0f4848fefcb283021777f36112e56001026147f5565b6000816003015411151561a617576040517f08c379a00000000000000000000000000000000000000000000000000000000081526004018080602001828103825260258152602001807f476c757761536176696e674163636f756e743a204163636f756e74206e6f742081526020017f666f756e6400000000000000000000000000000000000000000000000000000081525060400191505060405180910390fd5b61a6437f71fe26de4629c37a91f07e0109231e3f5d5f40c733a94ba80f216582feb5f57f6001026147f5565b61a66f7f2be1e9e413be5f87fb4bcd889371137221512ffc62a817e7a77831f7c5e1ef336001026147f5565b61a69b7f039a6ecff32526bdd163d41cb48a1505d8dc141b5e20faaceee4620ecf87ae016001026147f5565b83816004016000828254019250508190555061a6d97fbbe5dde346889c369e578f8cdc186d6f451c6f33b7b578637b6d0f06c78920686001026147f5565b61a7057f66aba0f96d1f6792b608ae8d44fd94aa6faa338f3af52ab1d2e642911c3b3ae36001026147f5565b8360736000828254019250508190555061a7417f9fc883e07a34a6af8ee1d8f10a216208ce6670a8e9c002d2ec0cb85ec87cfc806001026147f5565b61a76d7f8d7b241c685f0f33634fa18a1c4d71dcc2cee767c48cc12540bdb18e9b25fa806001026147f5565b8360746000828254019250508190555061a7a97f1669a514ac2f181652dcef1cb8fca3764afbcfbb250d37d2ad92a5ab5db083626001026147f5565b61a7d57f3aee7774f03b22ab36fa3dd1cc41b17b2017c3bb5f2c3b82dc195c9dd7a317596001026147f5565b600073__$8ad4cadfbfab443c6ed09b45690dcdfb0d$__63fd96809e836000015487308a6040518563ffffffff167c0100000000000000000000000000000000000000000000000000000000028152600401808581526020018481526020018373ffffffffffffffffffffffffffffffffffffffff1673ffffffffffffffffffffffffffffffffffffffff1681526020018273ffffffffffffffffffffffffffffffffffffffff1673ffffffffffffffffffffffffffffffffffffffff16815260200194505050505060206040518083038186803b15801561a8b657600080fd5b505af415801561a8ca573d6000803e3d6000fd5b505050506040513d602081101561a8e057600080fd5b8101908080519060200190929190505050905061a91f7f87a4f3ad8a6c6df74e5096e6ae54b083ea4b142c7efc42d6e46556132a9ecaf56001026147f5565b61a94b7fe6fa6493778d9eb8ac420addc23646359bb9ded8df6dcb8dc545c8ea8f010a276001026147f5565b60a060405190810160405280606e600201548152602001836000015481526020018773ffffffffffffffffffffffffffffffffffffffff1681526020018581526020018681525060776000838152602001908152602001600020600082015181600001556020820151816001015560408201518160020160006101000a81548173ffffffffffffffffffffffffffffffffffffffff021916908373ffffffffffffffffffffffffffffffffffffffff160217905550606082015181600301556080820151816004015590505061aa437f26e1bab5fcfcdb48c3cf3321e63d31a3d0cc71de6dd1d2749d4a5104f09789636001026147f5565b61aa6f7f549678919587eecbb3738c39ce427a024dca603d97dc926e6dae1f5c009a31d16001026147f5565b61aa8381606e61cf1290919063ffffffff16565b61aaaf7f5d96cc8aefe6b902e1213d2fdbe6ce704d6f8f3afaa08ef5a85b5d71b7d329236001026147f5565b61aadb7f29e10f06f32355d2e8b458d3934535f2dc9995b7a5744376568fabc1d34b79536001026147f5565b8573ffffffffffffffffffffffffffffffffffffffff16817f2e2791fe9306933f4d6468aab16a0195b3ab2b342887b2e1be4aa35f56832297876040518082815260200191505060405180910390a361ab567ffe68b720a9443a5a2c983292cc9bbfe8f430da69cca5eb30ab5e4f1014ee97b16001026147f5565b61ab827f6d29a18058793c267023de1e500297a1b49839905f46fd7558628aa161970a6c6001026147f5565b80925050509392505050565b600061abbc7f8e5f5ca891d9b6bcaff16283e9830710c818cea7371a1f9bae8e914c0246cfc26001026147f5565b61abe87f6da6846f465b43ddab256cc640e6369b76ad635e7879878dc95505bcb595b4526001026147f5565b61ac147feec062d9b9710d0d119fdcd231962bd726210ffe0eeb4727b085520f3aca27406001026147f5565b6000607660008573ffffffffffffffffffffffffffffffffffffffff1673ffffffffffffffffffffffffffffffffffffffff168152602001908152602001600020905061ac837f41eee1c77d949007184c46444bc026aebd5dd923f0afcf6514b8d64de14bcb746001026147f5565b61acaf7fc1054bf4c62b8334811e3e63ec2e99f18396684dd6e5256ec1ff73276070659c6001026147f5565b61acdb7fc82241adfb74a23d91a327ab0893a9f1287553d6616b14dd2c828a2c2adfe9ca6001026147f5565b8281600401541015151561ad7d576040517f08c379a000000000000000000000000000000000000000000000000000000000815260040180806020018281038252603c8152602001807f476c757761536176696e674163636f756e743a205769746864726177616c206181526020017f6d6f756e7420697320686967686572207468616e206465706f7369740000000081525060400191505060405180910390fd5b61ada97f30fbc8688988fc240a9fc1c2a1e3c2a43c849c45e86515212e6a5d9bb26a57296001026147f5565b61add57f4e49c2ccbabec259aec2ec8da81945dad6b263a6ece7af5dd40e7a6435a2d5cc6001026147f5565b61ae017ff020a85bf3c444398da3b5e692275b36c2f73df41ee8abb71eb2aa6763e477eb6001026147f5565b82816004016000828254039250508190555061ae3f7f295d7cc9613a35bfc18cd0c00a28b299814364a6d1e975c6d52c9215e6b0dce16001026147f5565b61ae6b7faf646100ef7cea788bc31925539542be76919e1c20b75bee53adda3278c6ab9b6001026147f5565b8260736000828254039250508190555061aea77f4809e4c5bbee64d565bce34b7be27581d0c606f40716a84a2a4d90f079e247886001026147f5565b61aed37f8b177a8c52978e3be2e0c1e866cf5a08705f204fe91c7c0c4ed8cda8f785994a6001026147f5565b607560009054906101000a900473ffffffffffffffffffffffffffffffffffffffff1673ffffffffffffffffffffffffffffffffffffffff1663a9059cbb85856040518363ffffffff167c0100000000000000000000000000000000000000000000000000000000028152600401808373ffffffffffffffffffffffffffffffffffffffff1673ffffffffffffffffffffffffffffffffffffffff16815260200182815260200192505050602060405180830381600087803b15801561af9857600080fd5b505af115801561afac573d6000803e3d6000fd5b505050506040513d602081101561afc257600080fd5b81019080805190602001909291905050505061b0007fe4a5bd5803a029419c876c375b9e5f824f46c7fce5e01c37a0d004a6547762b66001026147f5565b61b02c7fec4ae7188cbd48a81c3ef973adfc3d60726642d39b3f613816c1dbc8438b92fd6001026147f5565b8373ffffffffffffffffffffffffffffffffffffffff167f884edad9ce6fa2440d8a54cc123490eb96d2768479d49ff9c7366125a9424364846040518082815260200191505060405180910390a261b0a67f7d806b11ed7aa8a8004d5bf6069d3c493eb9e5fc0d41b953fcd9ccfe7996a72b6001026147f5565b61b0d27f667bfe2cd3599f95f95acc9b487b7c6bf79d4be81e953aee2a3ef3af81d994c46001026147f5565b806004015491505092915050565b600061b10e7f0c3c84103e404c1b7f6705f0a11716125b0224172505cf4a2d0220b8380c498b6001026119fb565b61b13a7fc1f7c2bc9d20c10a46c0a69b7cc3fca16df0bcc2b0c134a565dd212f0a51de196001026119fb565b61b1667f61598326d5dc820024203b0435f8334bea3a09162570c025950f889074dd31486001026119fb565b61b16e61f102565b61b1778361d3b9565b905061b1a57f1f70bd4cac199a1a80d7f4c6aa9dc4ee340d4363387d17599d0b0b27a260b1816001026119fb565b61b1d17ff5a4c0a6d4a3f9492098267d5e32872c51c79f88fd16476c7295a97c555207586001026119fb565b60006002905061b2037f71b20f107e51adb64d252d185ee8589d53ecca82cf606677146ca03e2cfb996f6001026119fb565b61b22f7f30509abadea3ecbfece548aca0a5db4e1bc9eb408990a38aa30459bda86888bf6001026119fb565b607a60019054906101000a900460ff1660ff16826060015160ff16108061b2935750607a60019054906101000a900460ff1660ff16826060015160ff1614801561b2925750607a60029054906101000a900460ff1660ff16826080015160ff1611155b5b1561b3255761b2c47f13e32c69eefc85a4883862d1a3d2318caeafa040750f19364160931e0456ad896001026119fb565b61b2f07f9dc9f4d4a314cf286c0e776a7a57a05e751e6ec80021ac7d4d064ea41df30bdd6001026119fb565b61b31c7f9e707761d3604260ef6f47581b90d70ce40a92cdbef03b831b3dd9922bc74b906001026119fb565b6001905061b352565b61b3517fc927a18d37dc75cf332c7685e5080ca9ac5a10ac851837688c2d7096876ff8956001026119fb565b5b61b37e7fbb87e89a28a7709f2ab3b65896323c89a208d86ece2f4dec9cc4c1f047a9c49c6001026119fb565b61b3aa7f9d648b024e5e21ebcd30c48ee4a741dae2a0ff26bb7b3c40ea3763758bbc02626001026119fb565b600073__$05084330c9bf728fdd5577c5afe72a471f$__6389807474846020015185600001516040518363ffffffff167c0100000000000000000000000000000000000000000000000000000000028152600401808360ff1660ff1681526020018261ffff1681526020019250505060206040518083038186803b15801561b43157600080fd5b505af415801561b445573d6000803e3d6000fd5b505050506040513d602081101561b45b57600080fd5b8101908080519060200190929190505050905061b49a7fea35e25c4e40db311fadfa03ce797daf24cafaed701ef9945af48107d0fd330d6001026119fb565b61b4c67f4839e995c9a1c145235ebd664f167575798bda02639b8af21cd3c9f826cc6d256001026119fb565b8060ff168360400151830160ff16111561b7935761b5067fc8e0e414452696100803d052a534cec965c83cd24910cd3aa98530910b9c40666001026119fb565b61b5327f189ab8eaa74c2615c2857ac5bb53a506349ed7538b5d79470312a75f13f5074e6001026119fb565b61b55e7f297c5cf319c225c9574e70354f6700d43fb78d2d74a05d3a7b25d0b5cd16a7e06001026119fb565b600c836020015160ff1614151561b6115761b59b7f597e009babec2198b8fb6e057ce187221d0fce8d2df989ee6af50601b0794d466001026119fb565b61b5c77f6961a5cd3fbf3f221c23b06fce2f8c03a5a0699e444c3bb1d6e30ead8031b8d26001026119fb565b61b5f37f8ccc878bf9d982269fa37694a4ff183c7446c1e8265f9ff2511a714e59f34d8a6001026119fb565b6001836020018181510191509060ff16908160ff168152505061b71c565b61b63d7fb63b2007fab96a7f8f7bcd67a8e6209f3a8efd6d255d25d3c2d265a489d8c6166001026119fb565b61b6697f299e8cb5f707bdf46eb37fc86b1fe66ca486f6beb2e6a39d29526ac8116879546001026119fb565b61b6957f4e3526a5ec0d2e2ef17b28b3f7760461efb7c77b5e3dd33f20cabd152109e6196001026119fb565b6001836000018181510191509061ffff16908161ffff168152505061b6dc7fbda5cdd89e443f8c167f2074cb4688f5d8a3f2b7d9e859c46347d960754330db6001026119fb565b61b7087f345c2c9cdd53c54cbe3edfc685d106face6af589b5ab00043fe3c1356e0d821c6001026119fb565b6001836020019060ff16908160ff16815250505b61b7487f6886b35900fd1cf66053283b81765768704b0f280e386ed95023149d8c32b7636001026119fb565b61b7747fc82257c75446b8c65f5bcc626f18f0939ab33ff65a3c14da2a5623e5a053e9f36001026119fb565b808360400151830103836040019060ff16908160ff168152505061b830565b61b7bf7f6fa94063b270e56af575007f5ca76d745f51fac3ad447ab1666fcdeab9604ed96001026119fb565b61b7eb7ff7dafe165a358cf339b6e6d4ab621ba1d958c3447939e7c0c2a125c0a1f2ce366001026119fb565b61b8177ffb63bfece7fe46ba1648904756652835c0b7c283c004b3961e56bc9397ae768e6001026119fb565b82604001518201836040019060ff16908160ff16815250505b61b85c7f37addd99122e5219ab0853ea21d2bb16772d9e2676a0e57a5160a33acf3ddf2a6001026119fb565b61b8887fa64edbafb6923bfbeea1b79e0e0495e0d8ec12b1d59eea08c98663de41db370e6001026119fb565b603b607a60029054906101000a900460ff1660ff16141561b9bb5761b8cf7fa3571bc3c95b7ad0e1d25788496010aa99a5aa662f9009ff66287f75c43c08756001026119fb565b61b8fb7ffa0cc2e526f71ec9e643cf9b66913b3b3d3db9be295e0473fb8a5581bd5692736001026119fb565b61b9277f6b212456cf3c223f60a3b9baa512854625eb50105257f039da3ad0a1c75517e16001026119fb565b6001607a60019054906101000a900460ff1601836060019060ff16908160ff168152505061b9777f1dc42d98ee31a0cca0fbc3396ec55aa52ba0ced40848fc660c278909f19f75ad6001026119fb565b61b9a37f6b773ee8d48c2106f48f9133d52489f779cffa6376fe5390dc17399dda9f84bf6001026119fb565b6000836080019060ff16908160ff168152505061badd565b61b9e77f962d3342e5d109a8ef3fea38bc40c408b4160e40ebf4d076ef5b6e30f2be0cac6001026119fb565b61ba137f69c65038951286b56563e73c06fc646d6a81ca63740333718b0b93568e3eaee86001026119fb565b61ba3f7f4401730427e0bfb946676d7db89eb51003b36e3cbfe4a86f912b9468064d3b5d6001026119fb565b607a60019054906101000a900460ff16836060019060ff16908160ff168152505061ba8c7f402c6890a1d6b644eb43eb24b3fbfa2b79dafc1655cab205fff6a54fe109c2266001026119fb565b61bab87f4b59407c6e37dfc49370a0600e64a796da6ef9935da4843b749b693d284bc1dc6001026119fb565b6001607a60029054906101000a900460ff1601836080019060ff16908160ff16815250505b61bb097f6dbaac72e5931ffc0521e18f413f0560174ef699bf81d9669e6f9eab5e70752d6001026119fb565b61bb357f8a597bfa422359afb7df4b20be57f0f3a7472a72657ffd0543122dfb911713716001026119fb565b60008360a0019060ff16908160ff168152505061bb747fb15d6a0ce916fda79dc96183431d470a90e4c6e1b85b78083a6c4cfa8e8f34ef6001026119fb565b61bba07fece50ea5963433263fa32d9703f6573c3f912ad680c4dfe29f992b69ad42b59b6001026119fb565b73__$05084330c9bf728fdd5577c5afe72a471f$__630a37f14b846000015185602001518660400151876060015188608001518960a001516040518763ffffffff167c0100000000000000000000000000000000000000000000000000000000028152600401808761ffff1661ffff1681526020018660ff1660ff1681526020018560ff1660ff1681526020018460ff1660ff1681526020018360ff1660ff1681526020018260ff1660ff168152602001965050505050505060206040518083038186803b15801561bc7157600080fd5b505af415801561bc85573d6000803e3d6000fd5b505050506040513d602081101561bc9b57600080fd5b81019080805190602001909291905050509350505050919050565b600061bce47fb366b138fa3b2adb812947f61c94100618afa37db197508b8bc40683754cb8966001026119fb565b61bd107f2c41579efb91bede4cde39628a81b8e32f557a06b6a2e1e7e121d84b693550536001026119fb565b61bd3c7f179cb88c29a4b8ef41997ec0d7013f70bf371f9254f4fc8351fc8d98c9695c7d6001026119fb565b6000607f600086815260200190815260200160002060008773ffffffffffffffffffffffffffffffffffffffff1673ffffffffffffffffffffffffffffffffffffffff16815260200190815260200160002080549050111561c8705761bdc47f6c7fc01b48bd284ce0b708c4bb14c0d3ef0955adf8f22f727b72044b96d594406001026119fb565b61bdf07f6a37003f399b3b8ef4dc441edc721a30f889c4fb9c4cbbb411ae1d88df9872156001026119fb565b61be1c7f45641ea4c00559d21e8cdd2ed7525771e18a1aeacc30943b2506118eae0ab9546001026119fb565b600061be4a7f3e03a58b2484027ab7b8b05310478a420c2720e93ea7d5c30abfa77b1113b8376001026119fb565b61be767f5610aad962748451d4f25aded5abd4545aefbdf10ff310b6d2bf9eb0121dfec06001026119fb565b60008090505b607f600087815260200190815260200160002060008873ffffffffffffffffffffffffffffffffffffffff1673ffffffffffffffffffffffffffffffffffffffff1681526020019081526020016000208054905081101561c4b55761bf037f0a21e934f356f99579396bfb18e15bdd9ee136e2bdb0c1588f7ac2d546fe34006001026119fb565b61bf2f7fc6267d462683b71d4858e3ab60fa8ace6c774ae5e50c1d96e7288d2e255484496001026119fb565b607c6000607f600089815260200190815260200160002060008a73ffffffffffffffffffffffffffffffffffffffff1673ffffffffffffffffffffffffffffffffffffffff1681526020019081526020016000208381548110151561bf9057fe5b9060005260206000209060029182820401919006600c029054906101000a90046bffffffffffffffffffffffff166bffffffffffffffffffffffff16815260200190815260200160002060010154607c6000607f60008a815260200190815260200160002060008b73ffffffffffffffffffffffffffffffffffffffff1673ffffffffffffffffffffffffffffffffffffffff1681526020019081526020016000208481548110151561c03f57fe5b9060005260206000209060029182820401919006600c029054906101000a90046bffffffffffffffffffffffff166bffffffffffffffffffffffff1681526020019081526020016000206002015403915061c0bc7f9933d74d097aff5df0d107d697a6911d45cc5277246ed94c4d6d83e1050cf70d6001026119fb565b61c0e87f5475417452ad8c3e75fcd672ba0b0f3721d7d82c4c566c6d66b92c45d227dc546001026119fb565b8184111561c3375761c11c7f5951fe4093bbbc465837b768a2390c8a9fbcb98c3b6805420845158ea62870cd6001026119fb565b61c1487f2c92c6449cfade96ebc3008b98864af7fe05e77faedb12b95eb18ca6d2390aed6001026119fb565b61c1747fa24e08921b6c19c081a279f7fd80a189e7ddfdbc3dde71f091c006e1e40d5e896001026119fb565b818403935061c1a57fb9706918c83c962b761f65db4348f28a1aaa5344e33ce0c8a8dbad711fe303076001026119fb565b61c1d17fb7dbeff4a59c271b7ce0e0f67340b40771e439922a468388c671ac42eb370d836001026119fb565b607c6000607f600089815260200190815260200160002060008a73ffffffffffffffffffffffffffffffffffffffff1673ffffffffffffffffffffffffffffffffffffffff1681526020019081526020016000208381548110151561c23257fe5b9060005260206000209060029182820401919006600c029054906101000a90046bffffffffffffffffffffffff166bffffffffffffffffffffffff16815260200190815260200160002060010154607c6000607f60008a815260200190815260200160002060008b73ffffffffffffffffffffffffffffffffffffffff1673ffffffffffffffffffffffffffffffffffffffff1681526020019081526020016000208481548110151561c2e157fe5b9060005260206000209060029182820401919006600c029054906101000a90046bffffffffffffffffffffffff166bffffffffffffffffffffffff1681526020019081526020016000206002018190555061c4a8565b61c3637fb4180a0cc81b1ba340fab952368844081afdafd580cf128a21e27c3f5809c3366001026119fb565b61c38f7fb2b98fae8a7bade14ba8d9eaa64606b9ab04a73ffad5ddf1f553ba02e96fb12a6001026119fb565b61c3bb7ff5153cdbe8366d96a58b2151ccacdc80510685a5e0f2f031a257580bf654f74a6001026119fb565b83607c6000607f60008a815260200190815260200160002060008b73ffffffffffffffffffffffffffffffffffffffff1673ffffffffffffffffffffffffffffffffffffffff1681526020019081526020016000208481548110151561c41d57fe5b9060005260206000209060029182820401919006600c029054906101000a90046bffffffffffffffffffffffff166bffffffffffffffffffffffff1681526020019081526020016000206002016000828254039250508190555061c4a37fb415912d3fea91b5f4c17ee3a8ac7667da4901e870c5dfb509e141d8342dd6d36001026119fb565b61c4b5565b808060010191505061be7c565b5061c4e27fd3fafa6762968c1bc7df1988142b74a15252d3b157ba4c57dfa893d812e668c86001026119fb565b61c50e7f97367abec8482e9e3592b8ef912f0e5b6d9fbe32ef94d8edfa4adf37aad37efa6001026119fb565b6080600086815260200190815260200160002060008773ffffffffffffffffffffffffffffffffffffffff1673ffffffffffffffffffffffffffffffffffffffff1681526020019081526020016000205484111561c70e5761c5927f5de32c9473ec55f83bf246d78f12fd508ebbac96154f5362de89998f6df41abf6001026119fb565b61c5be7fab6fd99882dc99305c9e7aa3df4bc3415d6278b1209971241c7d679570c5932a6001026119fb565b61c5ea7ff9c6b849998a785aa1b465d2b5bf81a3bc769b62f790010dd5be5685906f16646001026119fb565b60006080600087815260200190815260200160002060008873ffffffffffffffffffffffffffffffffffffffff1673ffffffffffffffffffffffffffffffffffffffff1681526020019081526020016000208190555061c66c7f656925be81ad07f711fb2853f2d96882edd15b630070f5c55b9dfddd111def186001026119fb565b61c6987f3bd8fdbe6606aebfa1a5081203b96bad66837cb3a411f1c5e80eada525d9dcd76001026119fb565b6080600086815260200190815260200160002060008773ffffffffffffffffffffffffffffffffffffffff1673ffffffffffffffffffffffffffffffffffffffff16815260200190815260200160002054608360008781526020019081526020016000206000828254039250508190555061c86a565b61c73a7fdb123ab0412f314d23ae0d9f90f89f2e10a6e41033d4eeb7606482be127dd0d86001026119fb565b61c7667f9f5fe2723276cdcdef377295aec0c8c49e37e9e7bbb68690a4aa2dbebb6cafd76001026119fb565b61c7927f3f5f81676e5f5ee30fcde939ff01b915edc3ea103aa9d270ffb09a2b7784a3be6001026119fb565b836080600087815260200190815260200160002060008873ffffffffffffffffffffffffffffffffffffffff1673ffffffffffffffffffffffffffffffffffffffff1681526020019081526020016000206000828254039250508190555061c81c7fc47483b50fffcdbc077fcfb6da84b9b011b79f95d813fbc6529d027f58dfa5d06001026119fb565b61c8487fcbfc3d9075fed53ed752549af9f9c792cd822a108e157857ad73c097403e24996001026119fb565b8360836000878152602001908152602001600020600082825403925050819055505b5061c89d565b61c89c7f11957a4468cda2850e8275efbbcafec715df25669241cca53d605f7ca52bd2386001026119fb565b5b61c8c97f6d94e0b2ed13a9c52db7bddd9bbd1c479a4ffd01ade8bded8f11991eee5b54656001026119fb565b61c8f57fdede6b286c1629a1780a72f861df93564d8c27f9a5decd928f33b7c1282c0e056001026119fb565b60019050949350505050565b600061c92f7ff852b790830032d89971e2c521d42063f93f9915f774b150a71f19bed01505fa60010261cb33565b61c95b7f02a432993c4332c426e42b943b3b019f4f8176664138a13b7aefd4766c87794260010261cb33565b61c9877f4106100c6ddc9e9685bfafb2331061f66fe0bdf557d61e86d3a9e77f415df1c060010261cb33565b61c9ad836000018373ffffffffffffffffffffffffffffffffffffffff1660010261dcf2565b905092915050565b600061c9e37f74042fd2ce01d2d4e5b83168db3daaa0ada16dcc55033ff01c774f8d3b09d26b60010261cb33565b61ca0f7ff5b89a497746cc14694c9f1ed1aeaef6a21f81b1a91b334ac822cb679c327c5460010261cb33565b61ca3b7f3d2a328b4224524dd5bf276581f8c7e30b93161a3146a223de54a8178318570d60010261cb33565b61ca61836000018373ffffffffffffffffffffffffffffffffffffffff1660010261dfa3565b905092915050565b60008083118290151561cb17576040517f08c379a00000000000000000000000000000000000000000000000000000000081526004018080602001828103825283818151815260200191508051906020019080838360005b8381101561cadc57808201518184015260208101905061cac1565b50505050905090810190601f16801561cb095780820380516001836020036101000a031916815260200191505b509250505060405180910390fd5b506000838581151561cb2557fe5b049050809150509392505050565b50565b600061cb647fe7dbbe65769452c853cae620146590604b6b716ac01fb8b203f1ba9fc91fc22460010261cb33565b61cb907f0210cac0db58119dced257e99daceaaac77667d292149865bf117b7ca9eb4bce60010261cb33565b61cbbc7fbb32f6a0da519ded942950a6895a2c4b30863d395a47575812ea09df9c76aeef60010261cb33565b61cbe87f2d7ec9f89494f43c00f58c9ac42d6c4126f5ad30efc6a67b48204435b90bdbe160010261cb33565b81836000018054905011151561cc8c576040517f08c379a00000000000000000000000000000000000000000000000000000000081526004018080602001828103825260228152602001807f456e756d657261626c655365743a20696e646578206f7574206f6620626f756e81526020017f647300000000000000000000000000000000000000000000000000000000000081525060400191505060405180910390fd5b61ccb87f808fe5bd45f46ab8ff1cb9aa9c9a30377ea23be0941c4795446d41d254aae5c460010261cb33565b61cce47f556bfe46c39f16f279635b09a7f3e6cb0df504be781b0931db8a40bab702a79760010261cb33565b61cd107f5852ae1c75c424755782c3fdffd26401e1354b9b177513f37690d594b1ebc8ac60010261cb33565b826000018281548110151561cd2157fe5b9060005260206000200154905092915050565b600061cd627f9c908650b18c4d06afe6e22d13e282f9f484d9b002a6121d345881d9d8d8309260010261cb33565b61cd8e7fd1882d1c724fb038c1a118718cfe41c240fcbb742f29604cb573449c428371b760010261cb33565b61cdba7fc7f15540aa2b0ce236d481f7560d15ffafee2f2e30cac9beab7e15a266dfe9a760010261cb33565b6000836001016000848152602001908152602001600020541415905092915050565b61ce087fb8febddd1220278487bb7dcb0daf7b78b7fba9088454a2d7f37c40747884b0cb60010261e4b4565b61ce347f73d8330d87f869b8b199d393ae093ac68571cfafdb760e32af59f314d2a2fdba60010261e4b4565b80600001600081819054906101000a900466ffffffffffffff168092919060010191906101000a81548166ffffffffffffff021916908366ffffffffffffff1602179055505050565b600061ceab7fd59aa80060ea20a1bee9535659b672619a59eb9abf365dafefcb942c2613c7f260010261cb33565b61ced77f510cdbe5cda3c6cfdb8e3b071d5f7c35ea460dd72c7be1c916a1934f864dea1460010261cb33565b61cf037f69556792cf99684702e25e6dffc56bf298f3be73f828931c796488097d672b3c60010261cb33565b81600001805490509050919050565b61cf3e7f8802c2e59f387b4c53a4ab996982fc37411153349ff8e02ff10fc302cd49c7de60010261e4b7565b61cf6a7f9828b856885723da47125c444a9aeaa675ab0879f6d3357781bf031ca6a1e80960010261e4b7565b61cf967f4e72e32fa722c881c8899f3ed8cfd7735fa33af120c80aa4c5ec17dfad7aac1c60010261e4b7565b80826000016000846002015481526020019081526020016000208190555061cfe07fbdf6f2958d49981605a7b5c02ffba7f3349abfd1f9936129412c3530fe4d88cb60010261e4b7565b816002016000815480929190600101919050555061d0207f9ebf2a2d138a3c371ecf3ec2ea359fe7db62ff633a2d3e56388591dd95ed9f3a60010261e4b7565b81600301600081548092919060010191905055505050565b600061d0667ff10d90047a04633f36e67fe16e2c916c5446ee5eb946f50eba90d92b09b202586001026119fb565b61d0927fc94dad16fdf5e0f678371132eb140bd47cdb3b925e684c24eaaf282fa64605086001026119fb565b61d0be7fb64d30a2732f86a7fadb7a5ef2b2f4f78625b296d266813d7fd676605077cb406001026119fb565b61d0d28561d0cb8661b0e0565b85856171f0565b9050949350505050565b61d1087fd8479504df472c40b9d2d46578fc0bad271dba561f3c3bfae8432ee4398cd9a86001026130f5565b61d1347f056ca1d611325f492ec9a258615105c0c61c1935da3efbb61fbb153378d318dd6001026130f5565b61d1607fb300cb213a808a8d25947dc127c3188ce2125091b485b407bb84a476fe38d0dc6001026130f5565b8060336000848152602001908152602001600020600201819055505050565b61d1ab7fd93c5a94a5b1886c0bb5575c3cca63b6410bf5cc633908251d561210acc14eaa6001026130f5565b61d1d77f52b73aa8f50ab99b6810012a79aa4f25995f134e8c54dbcb5d80e568f5fdfbe76001026130f5565b61d2037f4de32a619436a15decb84a173b4469efaa235be2016b7657229d7bb4d915f1676001026130f5565b61d20d8282616867565b5050565b600061d23f7f039a8b299bcbe089210efb1b4a0d0e048d33c88b8efd452d6f6e1025a5c947406001026119fb565b61d26b7f0b561b54004f278cce7a6cb4173ee6ab43db623c35fd055bb14dbff80fc019b46001026119fb565b61d2977ffa3f09a7e4593084651f29ea8461b3387030a4159e8a40eef148b8f6e3e09f386001026119fb565b6000846001868603014285434042448a8c6040516020018088815260200187805190602001908083835b60208310151561d2e6578051825260208201915060208101905060208303925061d2c1565b6001836020036101000a038019825116818451168082178552505050505050905001868152602001858152602001848152602001838152602001828152602001975050505050505050604051602081830303815290604052805190602001206001900481151561d35257fe5b0601905061d3827ff089dbfa7364bad466cdb8497bb5a8b5b834c2756a722111d07fcb1ff09e84186001026119fb565b61d3ae7faa964b1b324db9406b36cdf6a982b534d3f86c22a8248271de2c7454cf41e2f56001026119fb565b809150509392505050565b61d3c161f102565b61d3ed7f433cfe3e6dea4586d7a3800408d6f553afa3ec576ddc2aac9b700d04bf2256f460010261e4ba565b61d4197fb90747d0b5406f852ebe8cac9cdd09489b62d563e539ba8eb58008e421402b5c60010261e4ba565b61d4457f65d938d4a7e2e32f175a79b7b358a43f7fc693f7ef766d0575fce72da5b45abd60010261e4ba565b61d44e8261e4bd565b816000019061ffff16908161ffff168152505061d48d7f87586a1933beb38d4cf9d4d4e5c167d394261c4b7da389f1df23e45686ce9a5f60010261e4ba565b61d4b97f348b78a3457a35224f49ce38125bc8793674a3a47de24e81723302728d90f02b60010261e4ba565b600061d4ca6107b261ffff1661e8fd565b61d4db836000015161ffff1661e8fd565b0361ffff16905061d50e7f9f773027feae5c0bf78aaf5f5ddc55f20cf706d28a55dcdfa14c8c3c870b70f860010261e4ba565b61d53a7f54ce18acaf574a16e8c07c87a7ac274ed948f410dea69b17f94ec31b037dbff760010261e4ba565b6000816301e2850002826107b285600001510361ffff16036301e133800201905061d5877fbeb1c88f1ae596c518fecdf2969afbcd18309ab1ba07bdd0515795aa5e5d7bca60010261e4ba565b61d5b37f8207724107452dc74ed129d680b010da484b3250915c6b3b80e39fbd0746732560010261e4ba565b600061d5e17fcee2cb85dacdafd19ff63bbcbd543c631167b6f5b3a5530da0121fdae154ad7360010261e4ba565b61d60d7fa76698c6a56b758a87fc1e9813a5cb387256044cb14c2afadf111db4c9fc0ca660010261e4ba565b600061d63b7f410af78408da8ec31182f9ecd5b8ea2bbb7197ea2216d3259075870623b707ec60010261e4ba565b61d6677f6a01c63fd740b45b38ba38232e43a51e3a35dcf9de0d19fe4b8bfa26b140fa7060010261e4ba565b600061d6957fa189d66169d98e4af2300e21fdad4e0cc9ef8d463eb772d04fc5c981301d755d60010261e4ba565b61d6c17f65c3cf497d2e456bc55bea799cb8dc0d51a2bab00d432c198f7f3f3b0405928960010261e4ba565b600190505b600c8160ff1611151561d9615761d6ff7f6a67a4fb3b94133a63de1451dcd85e5c5cda55768ec0988438d9e929ada6a21760010261e4ba565b61d72b7f9522db35201a625d03047e0a83e405abaf708c2f21c844b40412aab518f9212660010261e4ba565b61d73d81876000015161ffff1661ea12565b915061d76b7fb6f1e4f1ee721eef05777a511afc53d357b3ae4fa3d5ff1f17674b0c1ec0757160010261e4ba565b61d7977f4bc272dac49c832dcb7fb4035ab3b3f110a9f43623381a480a7246bc0bf718f660010261e4ba565b8160ff166201518002925061d7ce7f75fed6daba885d0578445ab7b7a66b57b2282cfc36ec37c07ee2794172677fb560010261e4ba565b61d7fa7fb6f7287c6473a50e1b38b41f83e2246d4e8d12b888c2946ca04ed94d67b8ff6560010261e4ba565b86848401111561d8cb5761d8307fe82fa837660b9fe78ef08c9641a9b9a03fdf575d220322c04f0291003060741460010261e4ba565b61d85c7ff9f7984bfed3c0802cbc69cbea94f0d61a4713b938ef0b6c9636ce0a2b99027b60010261e4ba565b61d8887f806c13d853d4c035d109dc0270a6db1c75bb1568248619867fa569f4f48105e360010261e4ba565b80866020019060ff16908160ff168152505061d8c67fc099bb14d589016a9243cb70c21e09a5618fd9bc114078866329a6321a0008d760010261e4ba565b61d961565b61d8f77fa8c153fbff1e26f9d2c92821d7f6f66b060a48f93beb3714c37b0b54e0c9c30860010261e4ba565b61d9237f3fbd1670a45e3319798a4ccb23b60ed01d05e0eee1957336f68b71104e75fc0360010261e4ba565b61d94f7f9ffe33813370748665e6754a45c7b9a2c8a54ff021bf53c80ae4a141841e704c60010261e4ba565b8284019350808060010191505061d6c6565b61d98d7ff05dc18d17043d62fc1e765561be51de7e18c1c3277872abdcb32fad0cb6632b60010261e4ba565b61d9b97f7c233dad1f6a192553947a6d7ed76b62b4f60d9a4c56eeb17f871d055bb4542f60010261e4ba565b600190505b8160ff168160ff1611151561db925761d9f97fe24e95afe2b1b86be04e04f8936c3d0b17b7e70bddd237271db5c52fbf84e3b760010261e4ba565b61da257fe86a405280771711451be0b334aa76ce095a3ff4971daee704b0207c035f9bf660010261e4ba565b86846201518001111561daf95761da5e7f123af6654288920957bed7acbd33b8c89704966fa0a4ab95492c96874c98b84460010261e4ba565b61da8a7ff82784811d350e107c487ed23190e7f92019191e729a1b53249be70b34fcf9e260010261e4ba565b61dab67fc16afb265ab91b6c1205c88dcc624bf2874ee09e9b66e1a0ba241871fb4d412660010261e4ba565b80866040019060ff16908160ff168152505061daf47f3188a408f43491dd6c23e72f71657348f6e51fb478d0afdba7f562b408e26dfe60010261e4ba565b61db92565b61db257f2a6cdafdb8911e44434b68183eab43752f32c4d2b08120dcb06db38f724dc93460010261e4ba565b61db517f572ea494e893c2dd97e26de0a8cfc31f887d291a8823fb9ec8758a569640103b60010261e4ba565b61db7d7f7e2c8734b00f104076ef6a23c664fb3f90888db583e8096e4cc5c8852d3fd66960010261e4ba565b6201518084019350808060010191505061d9be565b61dbbe7ffeab6427bf51e972eda648d3eb6d482ad5850bcc5655fc88271ec789e10460d360010261e4ba565b61dbea7f46244ec7fa678ed3f30faf4a9033444dc3168e60b98cd680f8dbcaffcd26bf4760010261e4ba565b61dbf38761edce565b866060019060ff16908160ff168152505061dc307f256c99a2fc0f0a860a4330f973fd96bd84da087798a86b746f8d2d86151676bd60010261e4ba565b61dc5c7f5f21e22de5f3f92f2c1d283827b94b347e1098b87b2d012bb7175fdc2668f0f860010261e4ba565b61dc658761ee75565b866080019060ff16908160ff168152505061dca27f50b662ecbc0a369719a389b0d7b8656be8db9487ba4bdb484ee14c780dcf91fd60010261e4ba565b61dcce7f6a5ea1c27edf78adb18ffe7c502c3ea753abac5ada22f584f0ce3774e2ae352560010261e4ba565b61dcd78761ef1a565b8660a0019060ff16908160ff16815250505050505050919050565b600061dd207f8202084254906f7199aff05a1e12a8bc5defcb3bd0dd0722312d025f1cdf925260010261cb33565b61dd4c7fb1802c0bd1c50eb7a5ea2c418efaeada5280ab5a1302759ddbec40a8207c23e460010261cb33565b61dd787fe8b3e427236d7f428acc3936ce49ad58e9149853bdab6138eb2c98e2af6cb86960010261cb33565b61dd82838361cd34565b151561df145761ddb47f404abcfd453eafceb908f0c5b1ee91f99c24e35dcdaf36ffd32647ed81f4a0b760010261cb33565b61dde07f662751195cdb0b90cb1e17966da929da7653f6859a1b7a31c850c33339479f0360010261cb33565b61de0c7f8f5f086f1efcb1d2f720c6fc80a66f22d2d0a09419c86a81cbda07ae56d460e760010261cb33565b8260000182908060018154018082558091505090600182039060005260206000200160009091929091909150555061de667ff12fe73b3f923129741602084dd63137d28cd61a51b82df1b5afc7fe5713cac560010261cb33565b61de927f411725b9e6b16644ba52449ec4d36b92dea2b1bd54b0f03c783a20b7890d00eb60010261cb33565b82600001805490508360010160008481526020019081526020016000208190555061dedf7f9bd634b5b92fd3e06f26a52ec2939a4a0a84952a011ea5514bc62a4c5373a55c60010261cb33565b61df0b7fea4ca516a6106cab84a6a4e89be0f7002b5d6eb029ffab4c054b7ee765fc3c2e60010261cb33565b6001905061df9d565b61df407fb46577be114288cc2048caa1c7c40b09dc718696d9a09f0499a1547eb16451a960010261cb33565b61df6c7f699f127f4fce6e368acc157cac121779c534d2aa962d0533bfdaaae1d69ca05f60010261cb33565b61df987f521bb0fe62e6b7fd3853af763e653963a8408ffb348ef253e2d2f6e4ce4cd22160010261cb33565b600090505b92915050565b600061dfd17f9b482a5f51b8ea016ff5ab73974f6b85a6fd2a1eb01a8ee81de32df7a2a8da3560010261cb33565b61dffd7fce3c0267f6afecccc16fb1df160b30bad8dd9e6470f2c250c65f5d16f559538360010261cb33565b61e0297f1428e26d804ec500abd0e9390b2940e16e23c588838979a643dc197ecc45d31460010261cb33565b600083600101600084815260200190815260200160002054905061e06f7f0b321acd305614c64bd3b03df9b54fda13512f699793d352dda406f5377d654a60010261cb33565b61e09b7f7a5ecc9f91718277f21ffe36d4008cfb52c45cb4a3d02c8d3ad7b368266b527d60010261cb33565b60008114151561e4245761e0d17f594e731be2305a9bbd344870cf0633f896cf7c8a552149ac8c3887f5939fa2cc60010261cb33565b61e0fd7fce845126564f88320d57ac15815dc9da8f604bbea797690ee5dd29256f4490ef60010261cb33565b61e1297f8de4d4b62709fb9aa3764ecad70f3f67ded177953e8d0b3fa69eb7270f7a72b860010261cb33565b600060018203905061e15d7feef1a22ab497f0a0b5773c261963d43f0abced69475a8f361c4c09940a2e0f1160010261cb33565b61e1897fd3ffd1de8410e1a5342524eadcc24cec3d13da46f520a8ff3842159d8ac5138160010261cb33565b60006001866000018054905003905061e1c47fd29f0954420e0dacdaf662725b7670ca376b5ecb1467eea88f3ed07b3cef9b2b60010261cb33565b61e1f07f416543475b2a4ac207e92b54c5a89b0283eb8a6898f17e8a422c8a2b3bdfe4dd60010261cb33565b6000866000018281548110151561e20357fe5b9060005260206000200154905061e23c7f53e6da82d3cb4b8c67410d9eef4d4d2578dc84336caa8505c50feddb82e7c74e60010261cb33565b61e2687f9985aa50040fc25f597dd3c0a0ef9e1794881ab1e07bd05e1686a5c77312771860010261cb33565b80876000018481548110151561e27a57fe5b906000526020600020018190555061e2b47f924e66bc6d3998d3584ee5dec8380db18c7801386c9813e9c519c714f9cf05b460010261cb33565b61e2e07f0464100dfed97956c95ac0853f67804ec637520949c0ddf43963e7218712c4ee60010261cb33565b600183018760010160008381526020019081526020016000208190555061e3297f31239a0e5e1877005aeaa2cf67ecd4f26333ff91ac415b7b58467f96b928e47060010261cb33565b61e3557f0e8690e5eba3bc911cbe19ecc595ae9d5a7041f8b723ff9c12a4707e72d1d70960010261cb33565b86600001805480151561e36457fe5b6001900381819060005260206000200160009055905561e3a67f187fa4fe781f8142b1e1da8868034ad381d767259bb390adb2ffa112cc52f27260010261cb33565b8660010160008781526020019081526020016000206000905561e3eb7f9edf3971b67091da233f4cee6fc830f48fc8dae83e1acedbee273f8618720ca860010261cb33565b61e4177faa77a760e845cf44dffa170ad08e7782cf1bbc412ad237c88b0c772676e9150860010261cb33565b600194505050505061e4ae565b61e4507f91a387f2c534fe2d9593060ddb58e0e80cbd7962a699db2183f7fd9ac7bf071e60010261cb33565b61e47c7f5273e3157ed309e995284bc9a0977b5e190f596e6d0a7d6a98f63c6c2e9d2cf560010261cb33565b61e4a87f6d6ed45f9faffdfa6efb315d613b5cf6f6203c948a1d42a6be8e892393847bf560010261cb33565b60009150505b92915050565b50565b50565b50565b600061e4eb7ff7c4ae06e9c845650bb52508c732a5f72303c3037b635ecc1215a3c2d079039060010261e4ba565b61e5177f89aa6a64363802e5a6464cd1452522ffcf12e9811c943e8178722d312f1dac5660010261e4ba565b61e5437f8fd1d551816c5ce457c6fcb88fe17cfef05bd0ff60b2f921fe4ae5168cbe2e6b60010261e4ba565b60006301e133808381151561e55457fe5b046107b261ffff1601905061e58b7fbed93439f285e4f9ccd9a830a4b1df97cf1548246074aba6d87013d06321877660010261e4ba565b61e5b77fd9f53f917a8b8e0eee460e30756ef4eaff78b0a3b90b4b451feb9e1863390ada60010261e4ba565b600061e5c86107b261ffff1661e8fd565b61e5d18361e8fd565b0361ffff16905061e6047fe952482a9f34e37dcdb0077c226887bf334f24027405859080e4bc049d8b9a9660010261e4ba565b61e6307f6f95896d861a1cf4ef23bc40c92abfbca3affb80257f517f2c007562da81a80260010261e4ba565b6000816301e2850002826107b261ffff168503036301e133800201905061e6797fb12ad78b1876d14abaa37416671bd07bed080a6ce64b371bdfd7e2d69d89da6e60010261e4ba565b61e6a57f6c06717daf4584869deb27237b0c27fb71b4bf54141f6fb6817c9a7083688aba60010261e4ba565b5b8481111561e89a5761e6da7ff007e8ce052e12f2d9bf15fe86b6823999a3c41af914f5f26d038a66674422af60010261e4ba565b61e7067f9f24d204f8e8b55dda232ace5da3fe70f2008525f5cb8e874eb1ea6a4fe7e88260010261e4ba565b61e7126001840361efb4565b1561e7a95761e7437fa8f5f468d40e0ee31e441b11ee194e32890c772b4f58e9af8b5b41d398fe187260010261e4ba565b61e76f7f66affc12d63b8855820aa906e9a4b08c2feb4edb8a116a91f556979f3ab99ced60010261e4ba565b61e79b7f3bb09d0037b739d50b6349daabc35de9ddb93a013c8fcbff0af23e099adcbb0460010261e4ba565b6301e285008103905061e837565b61e7d57f3831d2f46af76e575f65fd9ebffccfe8f17e118a92c6265ff792c3fdcb555a7960010261e4ba565b61e8017f3e93a3758d1da71b45b1a9fc01c8011db23a18c98a24061d6e3aa8602da8247e60010261e4ba565b61e82d7f603f8c0b01d48857d77b539a8e655e56c07b3c48fd7e9ec719459cc8f2dd36cc60010261e4ba565b6301e13380810390505b61e8637f6e46492d3df9309fcb22ad59e97be4a0b069b31f67d27fb48f6a34363dfa162b60010261e4ba565b61e88f7ff155b17cc897643b41df67d3561cc347f9bef4a466b3df72a02f1d326f96e3ec60010261e4ba565b60018303925061e6a6565b61e8c67fbcd6f205b1d394b650b54511aca8b4e9d42ae52409dfae8b84bf10b3ce084a0460010261e4ba565b61e8f27fe0d2cb0b4b54776f7c09b0b36f7ff6de0e2f4385a9cf7c33799b791b5dda635060010261e4ba565b829350505050919050565b600061e92b7f3ce19f0cb55fd9d26a5690034daa5960ec3d70233479e48142b74a81d61a93f260010261e4ba565b61e9577faf4443ae613587d882d11745ab34f55a30281431abaa2dd27b3673a727377c7c60010261e4ba565b61e9837faa9905fa9d8dc7935eec32bbe03cafe873aaf6f15ab453dcd56b2ce57e3eeca460010261e4ba565b60018203915061e9b57f663bf67fa87f2ad913453b848f353b7c87e0bba601f750e90217d95cd184018760010261e4ba565b61e9e17f0d5466fd149bf6f66bf44e1ce69c5b9b646b7858ee530f6fe4b44c1399b130cf60010261e4ba565b60648281151561e9ed57fe5b046101908381151561e9fb57fe5b0460048481151561ea0857fe5b0401039050919050565b600061ea407f1e9259b08c5dc9653126ea6fce79b6f72e0dd454c90c0cbf400d543ae59f7adf60010261e4ba565b61ea6c7f94c55045a4ec3af02cec0a1fb9ea26f4ebd96e1d9fb84bc225c402e0a603af6060010261e4ba565b61ea987fd162d092a0721c0063aa29dd083713e6957b2c87c7b44a0a8ff66cb07fdf303b60010261e4ba565b60028360ff16141561ec245761ead07fcbae63fa06e6039f9c7f4ebaede7eb6aacf5468defd4888d5e8445c1bc9cca5b60010261e4ba565b61eafc7f5144054db1d58dbe626c516d675ab9e9455e65461e6162f87854014dfb8b021760010261e4ba565b61eb287fce34780398d4a6d72cbbbb4d13a62cda7954f54ab95b8b90f1810060679b4e8360010261e4ba565b61eb318261efb4565b1561eb975761eb627f51e4d4712bf2ea774012502a24a8ba7762dd3d4d2b7ae816b41d57aa64e07d5160010261e4ba565b61eb8e7f966599230b2efe1217cf9a88ea1a477ee4707204861232319b6c946d000d830860010261e4ba565b601d905061edc8565b61ebc37f6b283944c5f6af131447249ba3ee43ff2718d04e712b34fd445d2f93045ed4d960010261e4ba565b61ebef7faf744b6260b93deb033e632509d37e335b0846c424a549984680a439b124952a60010261e4ba565b61ec1b7fbbc6e5f05e60723a2fd98775070cdb71d4d05117e72768fc24d09ceb3b54ceee60010261e4ba565b601c905061edc8565b61ec507fbd8714a14ded21c1f0ef248834bf451f5f001d2e258588d47f591017749d7cde60010261e4ba565b61ec7c7f7ff2a0a65e08d801c71d32e5fa6d21c7c14daa7b9b52e6911951e61d2dee5ece60010261e4ba565b60048360ff16148061ec91575060068360ff16145b8061ec9f575060098360ff16145b8061ecad5750600b8360ff16145b1561ed3f5761ecde7fc400fa2f19d96d670b5cd553118c3dcc839d1ca01643f3f2aadbb964e66cd58260010261e4ba565b61ed0a7fb4c0a2f66d83d32038e7162b3ad28e2705331fb983cfb3cb064b37501889ea5360010261e4ba565b61ed367fc5100a56dce49bf964aa99b54f102a3f0a3f6a803d69972b999aee261a9a86da60010261e4ba565b601e905061edc8565b61ed6b7f3940530a99f4099b8f4d07dc32f531b54295567a330c81801a6ef5040028a23c60010261e4ba565b61ed977f69bd8442c820eb767dab3ea1cbde489b75622373364717d027596fcb6b43393760010261e4ba565b61edc37fc1cde02925920c3dd289f9c937a9ce3ae53fce4f82996d43e6461729014076d660010261e4ba565b601f90505b92915050565b600061edfc7f9b897a64bbfff882530d264b969ff02abff2819b3ebd5a7d0ee1d9f5d1a0b19360010261e4ba565b61ee287f1bc45735d4e64373353e1d3b278bd6c7cdd83cf891971c65ff92433c8a9f078560010261e4ba565b61ee547fd907228da083e86c4a94974b84b50f80ed66b5dfb58276fcb209c6cfe56df5b260010261e4ba565b6018610e108381151561ee6357fe5b0481151561ee6d57fe5b069050919050565b600061eea37fb1cb616ec0506f2ecfd084b6e3b54e8a6d2d1bc23112f172081f64ad47bd978e60010261e4ba565b61eecf7fc53b73c047fd53baa01f9f93b941aeb2fed3930f8ccacde5e4b031f6d034a97a60010261e4ba565b61eefb7f44ffb8ba1c424d23b5cf0490a0229b72ced587f226aeb184b14de4140a724b0860010261e4ba565b603c808381151561ef0857fe5b0481151561ef1257fe5b069050919050565b600061ef487f504a8ec7857f77f0f05b9e1fa4ba5073fb694e2771756c23a9c9532dade4d4f860010261e4ba565b61ef747f903e5899356adf169cc3d09a553e3b95613b37b8b2c8192fcec99a21cf72b5fc60010261e4ba565b61efa07fe5b363119b7f9ef45484423cb8ff0353b064ab8ff3ed4ef958fb4e841ec7aa1b60010261e4ba565b603c8281151561efac57fe5b069050919050565b600061efe27feb2c7cdb50b2572a4c5d5569522ab919e041cea5eccc88ecf1546003a2c80d4a60010261e4ba565b61f00e7f574f903a883c79acde209c41bf37780354bcb02dc6063e732eea9b82645d2c0b60010261e4ba565b61f03a7ffffcc7bf361fe5c0588eb02e2e40f85a1074d0ffab37811ee2954c1493445a6860010261e4ba565b60006101908381151561f04957fe5b06148061f07b5750600060048381151561f05f57fe5b0614801561f07a5750600060648381151561f07657fe5b0614155b5b9050919050565b828054600181600116156101000203166002900490600052602060002090601f016020900481019282601f1061f0c357805160ff191683800117855561f0f1565b8280016001018555821561f0f1579182015b8281111561f0f057825182559160200191906001019061f0d5565b5b50905061f0fe919061f14c565b5090565b60c060405190810160405280600061ffff168152602001600060ff168152602001600060ff168152602001600060ff168152602001600060ff168152602001600060ff1681525090565b61f16e91905b8082111561f16a57600081600090555060010161f152565b5090565b9056fea165627a7a72305820469df63b8512c52b74da53e9a75f142799f7e8c849b30f7ceb5d47d2f357d9170029",
  "linkReferences": {
    "contracts/libs/DateTimeModel.sol": {
      "DateTimeModel": [
        {
          "length": 20,
          "start": 46018
        },
        {
          "length": 20,
          "start": 48054
        }
      ]
    },
    "contracts/libs/GluwaAccountModel.sol": {
      "GluwaAccountModel": [
        {
          "length": 20,
          "start": 33447
        },
        {
          "length": 20,
          "start": 33809
        },
        {
          "length": 20,
          "start": 42989
        }
      ]
    }
  },
  "deployedLinkReferences": {
    "contracts/libs/DateTimeModel.sol": {
      "DateTimeModel": [
        {
          "length": 20,
          "start": 45998
        },
        {
          "length": 20,
          "start": 48034
        }
      ]
    },
    "contracts/libs/GluwaAccountModel.sol": {
      "GluwaAccountModel": [
        {
          "length": 20,
          "start": 33427
        },
        {
          "length": 20,
          "start": 33789
        },
        {
          "length": 20,
          "start": 42969
        }
      ]
    }
  }
}