{
  "_format": "hh-sol-artifact-1",
  "contractName": "PrizeLinkedAccountVault",
  "sourceName": "contracts/PrizeLinkedAccountVault.sol",
  "abi": [
    {
      "constant": false,
      "inputs": [
        {
          "name": "owner",
          "type": "address"
        },
        {
          "name": "amount",
          "type": "uint256"
        }
      ],
      "name": "depositPrizedLinkAccount",
      "outputs": [
        {
          "name": "",
          "type": "bool"
        }
      ],
      "payable": false,
      "stateMutability": "nonpayable",
      "type": "function"
    },
    {
      "constant": false,
      "inputs": [
        {
          "name": "admin",
          "type": "address"
        },
        {
          "name": "tokenAddress",
          "type": "address"
        },
        {
          "name": "standardInterestRate",
          "type": "uint32"
        },
        {
          "name": "standardInterestRatePercentageBase",
          "type": "uint32"
        },
        {
          "name": "standardMaturityTerm",
          "type": "uint64"
        },
        {
          "name": "budget",
          "type": "uint256"
        },
        {
          "name": "tokenPerTicket",
          "type": "uint16"
        },
        {
          "name": "ticketValidityTargetBlock",
          "type": "uint16"
        },
        {
          "name": "processingCap",
          "type": "uint32"
        }
      ],
      "name": "initialize",
      "outputs": [],
      "payable": false,
      "stateMutability": "nonpayable",
      "type": "function"
    },
    {
      "constant": true,
      "inputs": [
        {
          "name": "owner",
          "type": "address"
        }
      ],
      "name": "getValidTicketIdFor",
      "outputs": [
        {
          "name": "",
          "type": "uint256[]"
        }
      ],
      "payable": false,
      "stateMutability": "view",
      "type": "function"
    },
    {
      "constant": true,
      "inputs": [
        {
          "name": "role",
          "type": "bytes32"
        }
      ],
      "name": "getRoleAdmin",
      "outputs": [
        {
          "name": "",
          "type": "bytes32"
        }
      ],
      "payable": false,
      "stateMutability": "view",
      "type": "function"
    },
    {
      "constant": true,
      "inputs": [
        {
          "name": "account",
          "type": "address"
        }
      ],
      "name": "isAdmin",
      "outputs": [
        {
          "name": "",
          "type": "bool"
        }
      ],
      "payable": false,
      "stateMutability": "view",
      "type": "function"
    },
    {
      "constant": true,
      "inputs": [
        {
          "name": "idx",
          "type": "uint256"
        }
      ],
      "name": "getTicketById",
      "outputs": [
        {
          "name": "",
          "type": "uint96"
        },
        {
          "name": "",
          "type": "address"
        },
        {
          "name": "",
          "type": "uint256"
        },
        {
          "name": "",
          "type": "uint256"
        }
      ],
      "payable": false,
      "stateMutability": "view",
      "type": "function"
    },
    {
      "constant": false,
      "inputs": [],
      "name": "renounceOperator",
      "outputs": [],
      "payable": false,
      "stateMutability": "nonpayable",
      "type": "function"
    },
    {
      "constant": false,
      "inputs": [
        {
          "name": "role",
          "type": "bytes32"
        },
        {
          "name": "account",
          "type": "address"
        }
      ],
      "name": "grantRole",
      "outputs": [],
      "payable": false,
      "stateMutability": "nonpayable",
      "type": "function"
    },
    {
      "constant": true,
      "inputs": [],
      "name": "getCurrentWinner",
      "outputs": [
        {
          "name": "",
          "type": "uint256"
        }
      ],
      "payable": false,
      "stateMutability": "view",
      "type": "function"
    },
    {
      "constant": false,
      "inputs": [
        {
          "name": "role",
          "type": "bytes32"
        },
        {
          "name": "account",
          "type": "address"
        }
      ],
      "name": "renounceRole",
      "outputs": [],
      "payable": false,
      "stateMutability": "nonpayable",
      "type": "function"
    },
    {
      "constant": true,
      "inputs": [],
      "name": "getCurrentTotalDeposit",
      "outputs": [
        {
          "name": "",
          "type": "uint256"
        }
      ],
      "payable": false,
      "stateMutability": "view",
      "type": "function"
    },
    {
      "constant": true,
      "inputs": [
        {
          "name": "drawTimeStamp",
          "type": "uint256"
        }
      ],
      "name": "getEligibleAddressPendingAddedToDraw",
      "outputs": [
        {
          "name": "result",
          "type": "address[]"
        }
      ],
      "payable": false,
      "stateMutability": "view",
      "type": "function"
    },
    {
      "constant": true,
      "inputs": [],
      "name": "getSavingSettings",
      "outputs": [
        {
          "name": "",
          "type": "uint64"
        },
        {
          "name": "",
          "type": "uint32"
        },
        {
          "name": "",
          "type": "uint32"
        },
        {
          "name": "",
          "type": "uint256"
        },
        {
          "name": "",
          "type": "uint256"
        },
        {
          "name": "",
          "type": "address"
        }
      ],
      "payable": false,
      "stateMutability": "view",
      "type": "function"
    },
    {
      "constant": true,
      "inputs": [
        {
          "name": "account",
          "type": "address"
        }
      ],
      "name": "isOperator",
      "outputs": [
        {
          "name": "",
          "type": "bool"
        }
      ],
      "payable": false,
      "stateMutability": "view",
      "type": "function"
    },
    {
      "constant": false,
      "inputs": [
        {
          "name": "account",
          "type": "address"
        }
      ],
      "name": "addAdmin",
      "outputs": [],
      "payable": false,
      "stateMutability": "nonpayable",
      "type": "function"
    },
    {
      "constant": true,
      "inputs": [
        {
          "name": "depositHash",
          "type": "bytes32"
        }
      ],
      "name": "getDeposit",
      "outputs": [
        {
          "name": "",
          "type": "uint256"
        },
        {
          "name": "",
          "type": "uint256"
        },
        {
          "name": "",
          "type": "address"
        },
        {
          "name": "",
          "type": "uint256"
        },
        {
          "name": "",
          "type": "uint256"
        }
      ],
      "payable": false,
      "stateMutability": "view",
      "type": "function"
    },
    {
      "constant": true,
      "inputs": [
        {
          "name": "owner",
          "type": "address"
        }
      ],
      "name": "getSavingAcountFor",
      "outputs": [
        {
          "name": "",
          "type": "uint256"
        },
        {
          "name": "",
          "type": "bytes32"
        },
        {
          "name": "",
          "type": "address"
        },
        {
          "name": "",
          "type": "uint32"
        },
        {
          "name": "",
          "type": "uint32"
        },
        {
          "name": "",
          "type": "uint256"
        },
        {
          "name": "",
          "type": "uint256"
        },
        {
          "name": "",
          "type": "uint256"
        },
        {
          "name": "",
          "type": "uint8"
        },
        {
          "name": "",
          "type": "bytes"
        }
      ],
      "payable": false,
      "stateMutability": "view",
      "type": "function"
    },
    {
      "constant": false,
      "inputs": [
        {
          "name": "drawTimeStamp",
          "type": "uint256"
        }
      ],
      "name": "prizeDraw",
      "outputs": [
        {
          "name": "",
          "type": "bool"
        }
      ],
      "payable": false,
      "stateMutability": "nonpayable",
      "type": "function"
    },
    {
      "constant": false,
      "inputs": [],
      "name": "renounceAdmin",
      "outputs": [],
      "payable": false,
      "stateMutability": "nonpayable",
      "type": "function"
    },
    {
      "constant": true,
      "inputs": [
        {
          "name": "drawTimeStamp",
          "type": "uint256"
        }
      ],
      "name": "findMaxMinForDraw",
      "outputs": [
        {
          "name": "max",
          "type": "uint256"
        },
        {
          "name": "min",
          "type": "uint256"
        }
      ],
      "payable": false,
      "stateMutability": "view",
      "type": "function"
    },
    {
      "constant": true,
      "inputs": [
        {
          "name": "role",
          "type": "bytes32"
        },
        {
          "name": "index",
          "type": "uint256"
        }
      ],
      "name": "getRoleMember",
      "outputs": [
        {
          "name": "",
          "type": "address"
        }
      ],
      "payable": false,
      "stateMutability": "view",
      "type": "function"
    },
    {
      "constant": true,
      "inputs": [
        {
          "name": "role",
          "type": "bytes32"
        },
        {
          "name": "account",
          "type": "address"
        }
      ],
      "name": "hasRole",
      "outputs": [
        {
          "name": "",
          "type": "bool"
        }
      ],
      "payable": false,
      "stateMutability": "view",
      "type": "function"
    },
    {
      "constant": false,
      "inputs": [
        {
          "name": "account",
          "type": "address"
        }
      ],
      "name": "addOperator",
      "outputs": [],
      "payable": false,
      "stateMutability": "nonpayable",
      "type": "function"
    },
    {
      "constant": true,
      "inputs": [],
      "name": "getSavingAcount",
      "outputs": [
        {
          "name": "",
          "type": "uint256"
        },
        {
          "name": "",
          "type": "bytes32"
        },
        {
          "name": "",
          "type": "address"
        },
        {
          "name": "",
          "type": "uint32"
        },
        {
          "name": "",
          "type": "uint32"
        },
        {
          "name": "",
          "type": "uint256"
        },
        {
          "name": "",
          "type": "uint256"
        },
        {
          "name": "",
          "type": "uint256"
        },
        {
          "name": "",
          "type": "uint8"
        },
        {
          "name": "",
          "type": "bytes"
        }
      ],
      "payable": false,
      "stateMutability": "view",
      "type": "function"
    },
    {
      "constant": true,
      "inputs": [],
      "name": "DEFAULT_ADMIN_ROLE",
      "outputs": [
        {
          "name": "",
          "type": "bytes32"
        }
      ],
      "payable": false,
      "stateMutability": "view",
      "type": "function"
    },
    {
      "constant": false,
      "inputs": [
        {
          "name": "account",
          "type": "address"
        }
      ],
      "name": "removeOperator",
      "outputs": [],
      "payable": false,
      "stateMutability": "nonpayable",
      "type": "function"
    },
    {
      "constant": false,
      "inputs": [
        {
          "name": "drawTimeStamp",
          "type": "uint256"
        }
      ],
      "name": "regenerateTicketForNextDraw",
      "outputs": [
        {
          "name": "",
          "type": "uint256"
        }
      ],
      "payable": false,
      "stateMutability": "nonpayable",
      "type": "function"
    },
    {
      "constant": true,
      "inputs": [
        {
          "name": "role",
          "type": "bytes32"
        }
      ],
      "name": "getRoleMemberCount",
      "outputs": [
        {
          "name": "",
          "type": "uint256"
        }
      ],
      "payable": false,
      "stateMutability": "view",
      "type": "function"
    },
    {
      "constant": false,
      "inputs": [
        {
          "name": "owner",
          "type": "address"
        },
        {
          "name": "amount",
          "type": "uint256"
        },
        {
          "name": "securityHash",
          "type": "bytes"
        }
      ],
      "name": "createPrizedLinkAccount",
      "outputs": [
        {
          "name": "",
          "type": "bool"
        }
      ],
      "payable": false,
      "stateMutability": "nonpayable",
      "type": "function"
    },
    {
      "constant": false,
      "inputs": [
        {
          "name": "role",
          "type": "bytes32"
        },
        {
          "name": "account",
          "type": "address"
        }
      ],
      "name": "revokeRole",
      "outputs": [],
      "payable": false,
      "stateMutability": "nonpayable",
      "type": "function"
    },
    {
      "constant": true,
      "inputs": [],
      "name": "OPERATOR_ROLE",
      "outputs": [
        {
          "name": "",
          "type": "bytes32"
        }
      ],
      "payable": false,
      "stateMutability": "view",
      "type": "function"
    },
    {
      "anonymous": false,
      "inputs": [
        {
          "indexed": false,
          "name": "winner",
          "type": "address"
        },
        {
          "indexed": false,
          "name": "ticket",
          "type": "uint256"
        },
        {
          "indexed": false,
          "name": "reward",
          "type": "uint256"
        }
      ],
      "name": "Winner",
      "type": "event"
    },
    {
      "anonymous": false,
      "inputs": [
        {
          "indexed": true,
          "name": "drawTimeStamp",
          "type": "uint256"
        },
        {
          "indexed": true,
          "name": "ticketId",
          "type": "uint256"
        },
        {
          "indexed": true,
          "name": "owner",
          "type": "address"
        },
        {
          "indexed": false,
          "name": "upper",
          "type": "uint256"
        },
        {
          "indexed": false,
          "name": "lower",
          "type": "uint256"
        }
      ],
      "name": "CreateTicket",
      "type": "event"
    },
    {
      "anonymous": false,
      "inputs": [
        {
          "indexed": true,
          "name": "accountHash",
          "type": "bytes32"
        },
        {
          "indexed": true,
          "name": "owner",
          "type": "address"
        }
      ],
      "name": "CreateAccount",
      "type": "event"
    },
    {
      "anonymous": false,
      "inputs": [
        {
          "indexed": true,
          "name": "depositHash",
          "type": "bytes32"
        },
        {
          "indexed": true,
          "name": "owner",
          "type": "address"
        },
        {
          "indexed": false,
          "name": "deposit",
          "type": "uint256"
        }
      ],
      "name": "CreateDeposit",
      "type": "event"
    },
    {
      "anonymous": false,
      "inputs": [
        {
          "indexed": true,
          "name": "owner",
          "type": "address"
        },
        {
          "indexed": false,
          "name": "amount",
          "type": "uint256"
        }
      ],
      "name": "WithdrawSavingAccount",
      "type": "event"
    },
    {
      "anonymous": false,
      "inputs": [
        {
          "indexed": true,
          "name": "role",
          "type": "bytes32"
        },
        {
          "indexed": true,
          "name": "account",
          "type": "address"
        },
        {
          "indexed": true,
          "name": "sender",
          "type": "address"
        }
      ],
      "name": "RoleGranted",
      "type": "event"
    },
    {
      "anonymous": false,
      "inputs": [
        {
          "indexed": true,
          "name": "role",
          "type": "bytes32"
        },
        {
          "indexed": true,
          "name": "account",
          "type": "address"
        },
        {
          "indexed": true,
          "name": "sender",
          "type": "address"
        }
      ],
      "name": "RoleRevoked",
      "type": "event"
    }
  ],
  "bytecode": "0x6080604052613ce6806100136000396000f3fe60806040526004361061018a5763ffffffff7c0100000000000000000000000000000000000000000000000000000000600035041663033d086d811461018f5780630af4ad1b146101dc5780631112f0f714610265578063248a9ca3146102e857806324d7806c1461032457806327b7aabc146103575780632ab6f8db146103be5780632f2ff15d146103d3578063329bfc331461040c57806336568abe146104215780633a990db01461045a5780634218774b1461046f578063529298b8146104995780636d70f7ae146104fd57806370480275146105305780637a86983f1461056357806382133e38146105c057806383f9f4d2146106e25780638bad0c0a1461070c5780638e201163146107215780639010d07c1461076457806391d14854146107b05780639870d7fe146107e95780639964476f1461081c578063a217fddf14610831578063ac8a584a14610846578063b58d3ff314610879578063ca15c873146108a3578063cf123e30146108cd578063d547741f1461095f578063f5b541a614610998575b600080fd5b34801561019b57600080fd5b506101c8600480360360408110156101b257600080fd5b50600160a060020a0381351690602001356109ad565b604080519115158252519081900360200190f35b3480156101e857600080fd5b50610263600480360361012081101561020057600080fd5b50600160a060020a03813581169160208101359091169063ffffffff6040820135811691606081013582169167ffffffffffffffff6080830135169160a08101359161ffff60c083013581169260e0810135909116916101009091013516610a16565b005b34801561027157600080fd5b506102986004803603602081101561028857600080fd5b5035600160a060020a0316610b90565b60408051602080825283518183015283519192839290830191858101910280838360005b838110156102d45781810151838201526020016102bc565b505050509050019250505060405180910390f35b3480156102f457600080fd5b506103126004803603602081101561030b57600080fd5b5035610c41565b60408051918252519081900360200190f35b34801561033057600080fd5b506101c86004803603602081101561034757600080fd5b5035600160a060020a0316610c56565b34801561036357600080fd5b506103816004803603602081101561037a57600080fd5b5035610c62565b604080516bffffffffffffffffffffffff9095168552600160a060020a039093166020850152838301919091526060830152519081900360800190f35b3480156103ca57600080fd5b50610263610c80565b3480156103df57600080fd5b50610263600480360360408110156103f657600080fd5b5080359060200135600160a060020a0316610cb3565b34801561041857600080fd5b50610312610d60565b34801561042d57600080fd5b506102636004803603604081101561044457600080fd5b5080359060200135600160a060020a0316610d67565b34801561046657600080fd5b50610312610e01565b34801561047b57600080fd5b506102986004803603602081101561049257600080fd5b5035610e07565b3480156104a557600080fd5b506104ae610f5c565b6040805167ffffffffffffffff909716875263ffffffff9586166020880152939094168584015260608501919091526080840152600160a060020a0390911660a0830152519081900360c00190f35b34801561050957600080fd5b506101c86004803603602081101561052057600080fd5b5035600160a060020a0316610f98565b34801561053c57600080fd5b506102636004803603602081101561055357600080fd5b5035600160a060020a0316610fc5565b34801561056f57600080fd5b5061058d6004803603602081101561058657600080fd5b5035611039565b604080519586526020860194909452600160a060020a039092168484015260608401526080830152519081900360a00190f35b3480156105cc57600080fd5b506105f3600480360360208110156105e357600080fd5b5035600160a060020a0316611072565b604051808b81526020018a815260200189600160a060020a0316600160a060020a031681526020018863ffffffff1663ffffffff1681526020018763ffffffff1663ffffffff16815260200186815260200185815260200184815260200183600481111561065d57fe5b60ff16815260200180602001828103825283818151815260200191508051906020019080838360005b8381101561069e578181015183820152602001610686565b50505050905090810190601f1680156106cb5780820380516001836020036101000a031916815260200191505b509b50505050505050505050505060405180910390f35b3480156106ee57600080fd5b506101c86004803603602081101561070557600080fd5b50356110fb565b34801561071857600080fd5b506102636112bf565b34801561072d57600080fd5b5061074b6004803603602081101561074457600080fd5b5035611300565b6040805192835260208301919091528051918290030190f35b34801561077057600080fd5b506107946004803603604081101561078757600080fd5b508035906020013561156f565b60408051600160a060020a039092168252519081900360200190f35b3480156107bc57600080fd5b506101c8600480360360408110156107d357600080fd5b5080359060200135600160a060020a031661158d565b3480156107f557600080fd5b506102636004803603602081101561080c57600080fd5b5035600160a060020a03166115ab565b34801561082857600080fd5b506105f3611636565b34801561083d57600080fd5b50610312611676565b34801561085257600080fd5b506102636004803603602081101561086957600080fd5b5035600160a060020a031661167b565b34801561088557600080fd5b506103126004803603602081101561089c57600080fd5b5035611706565b3480156108af57600080fd5b50610312600480360360208110156108c657600080fd5b5035611904565b3480156108d957600080fd5b506101c8600480360360608110156108f057600080fd5b600160a060020a038235169160208101359181019060608101604082013564010000000081111561092057600080fd5b82018360208201111561093257600080fd5b8035906020019184600183028401116401000000008311171561095457600080fd5b50909250905061191b565b34801561096b57600080fd5b506102636004803603604081101561098257600080fd5b5080359060200135600160a060020a03166119c6565b3480156109a457600080fd5b50610312611a60565b60006109bf6109ba611a83565b610f98565b1515610a03576040805160e560020a62461bcd0281526020600482015260186024820152600080516020613c5b833981519152604482015290519081900360640190fd5b610a0d8383611a87565b90505b92915050565b600054610100900460ff1680610a2f5750610a2f611aa8565b80610a3d575060005460ff16155b1515610a95576040805160e560020a62461bcd02815260206004820152602e6024820152600080516020613c7b8339815191526044820152600080516020613c9b833981519152606482015290519081900360840190fd5b600054610100900460ff16158015610ac0576000805460ff1961ff0019909116610100171660011790555b610ac98a611aae565b610ad68989898989611bcd565b607554604080517f313ce5670000000000000000000000000000000000000000000000000000000081529051610b6892600160a060020a03169163313ce567916004808301926020929190829003018186803b158015610b3557600080fd5b505afa158015610b49573d6000803e3d6000fd5b505050506040513d6020811015610b5f57600080fd5b50518585611d5e565b63ffffffff82166088558015610b84576000805461ff00191690555b50505050505050505050565b6060610b9d6109ba611a83565b1515610be1576040805160e560020a62461bcd0281526020600482015260186024820152600080516020613c5b833981519152604482015290519081900360640190fd5b610bea82611e88565b805480602002602001604051908101604052809291908181526020018280548015610c3457602002820191906000526020600020905b815481526020019060010190808311610c20575b505050505090505b919050565b60009081526033602052604090206002015490565b6000610a10818361158d565b600080600080610c7185611ea2565b93509350935093509193509193565b60408051600080516020613c3b83398151915281529051908190036008019020610cb190610cac611a83565b610d67565b565b600082815260336020526040902060020154610cd690610cd1611a83565b61158d565b1515610d52576040805160e560020a62461bcd02815260206004820152602f60248201527f416363657373436f6e74726f6c3a2073656e646572206d75737420626520616e60448201527f2061646d696e20746f206772616e740000000000000000000000000000000000606482015290519081900360840190fd5b610d5c8282611edc565b5050565b607c545b90565b610d6f611a83565b600160a060020a03828116911614610df7576040805160e560020a62461bcd02815260206004820152602f60248201527f416363657373436f6e74726f6c3a2063616e206f6e6c792072656e6f756e636560448201527f20726f6c657320666f722073656c660000000000000000000000000000000000606482015290519081900360840190fd5b610d5c8282611f4b565b60735490565b60606000805b606954811015610f555760008481526081602052604081206069805491929184908110610e3657fe5b6000918252602080832090910154600160a060020a03168352820192909252604001902054158015610ea25750600060766000606984815481101515610e7857fe5b6000918252602080832090910154600160a060020a03168352820192909252604001902060040154115b8015610ef65750600160766000606984815481101515610ebe57fe5b6000918252602080832090910154600160a060020a0316835282019290925260400190206006015460ff166004811115610ef457fe5b145b15610f4d576069805482908110610f0957fe5b6000918252602090912001548351600160a060020a0390911690849084908110610f2f57fe5b600160a060020a039092166020928302909101909101526001909101905b600101610e0d565b5050919050565b60655460725460665460675460755467ffffffffffffffff9094169463ffffffff808516956401000000009095041693600160a060020a031690565b60408051600080516020613c3b83398151915281529051908190036008019020600090610a10908361158d565b610fd5610fd0611a83565b610c56565b151561102b576040805160e560020a62461bcd02815260206004820152601560248201527f5265737472696374656420746f2041646d696e732e0000000000000000000000604482015290519081900360640190fd5b611036600082610cb3565b50565b6000908152607760205260409020805460018201546002830154600384015460049094015492949193600160a060020a03909116929091565b6000806000806000806000806000606061108d6109ba611a83565b15156110d1576040805160e560020a62461bcd0281526020600482015260186024820152600080516020613c5b833981519152604482015290519081900360640190fd5b6110da8b611fba565b99509950995099509950995099509950995099509193959799509193959799565b60006111086109ba611a83565b151561114c576040805160e560020a62461bcd0281526020600482015260186024820152600080516020613c5b833981519152604482015290519081900360640190fd5b60008281526086602052604090205460ff16156111d9576040805160e560020a62461bcd02815260206004820152602760248201527f476c7577615072697a65447261773a205072697a6520686173206265656e207060448201527f616964206f757400000000000000000000000000000000000000000000000000606482015290519081900360840190fd5b6000828152608560209081526040808320607254608490935290832054607d5491939261123c9263ffffffff6401000000008304811693611230938216926112249290919061211016565b9063ffffffff61216d16565b9063ffffffff61220916565b6000858152608660205260408120805460ff19166001179055835491925010156112ac576000607d81905582548110156112a65761129c838281548110151561128157fe5b600091825260209091200154600160a060020a031683611a87565b9350505050610c3c565b506112b5565b607d8054820190555b5060019392505050565b60006112c9611a83565b90506112d6600082610d67565b60408051600080516020613c3b833981519152815290519081900360080190206110369082610d67565b6000818152608260209081526040808320608190925282208154839291607e91849190829085908290811061133157fe5b6000918252602080832090910154600160a060020a0316835282810193909352604091820181205484528383019490945291820183206002015487845260819091529082208354919550607e9291829085908290811061138d57fe5b6000918252602080832090910154600160a060020a031683528281019390935260409182018120548452918301939093529101902060019081015492505b81548110156115685783607e600060816000898152602001908152602001600020600086868154811015156113fc57fe5b6000918252602080832090910154600160a060020a031683528281019390935260409182018120548452918301939093529101902060020154111561149a5760008581526081602052604081208354607e929190829086908690811061145e57fe5b6000918252602080832090910154600160a060020a03168352828101939093526040918201812054845291830193909352910190206002015493505b82607e600060816000898152602001908152602001600020600086868154811015156114c257fe5b6000918252602080832090910154600160a060020a03168352828101939093526040918201812054845291830193909352910190206001015410156115605760008581526081602052604081208354607e929190829086908690811061152457fe5b6000918252602080832090910154600160a060020a03168352828101939093526040918201812054845291830193909352910190206001015492505b6001016113cb565b5050915091565b6000828152603360205260408120610a0d908363ffffffff61224b16565b6000828152603360205260408120610a0d908363ffffffff61225716565b6115b6610fd0611a83565b151561160c576040805160e560020a62461bcd02815260206004820152601560248201527f5265737472696374656420746f2041646d696e732e0000000000000000000000604482015290519081900360640190fd5b60408051600080516020613c3b833981519152815290519081900360080190206110369082610cb3565b60008060008060008060008060006060611656611651611a83565b611fba565b995099509950995099509950995099509950995090919293949596979899565b600081565b611686610fd0611a83565b15156116dc576040805160e560020a62461bcd02815260206004820152601560248201527f5265737472696374656420746f2041646d696e732e0000000000000000000000604482015290519081900360640190fd5b60408051600080516020613c3b8339815191528152905190819003600801902061103690826119c6565b6000806000607454611716611a83565b600160a060020a031601905060005b6069548110156118fb576000858152608160205260408120606980549192918490811061174e57fe5b6000918252602080832090910154600160a060020a031683528201929092526040019020541580156117ba575060006076600060698481548110151561179057fe5b6000918252602080832090910154600160a060020a03168352820192909252604001902060040154115b801561180e57506001607660006069848154811015156117d657fe5b6000918252602080832090910154600160a060020a0316835282019290925260400190206006015460ff16600481111561180c57fe5b145b156118f3576118dd60698281548110151561182557fe5b600091825260208220015460698054600160a060020a03909216928992607692908790811061185057fe5b6000918252602080832090910154600160a060020a03168352820192909252604001902060040154606980548791908790811061188957fe5b9060005260206000200160009054906101000a9004600160a060020a0316600160a060020a03160101856069868154811015156118c257fe5b600091825260209091200154600160a060020a03160161226c565b506088546001909301928311156118f3576118fb565b600101611725565b50909392505050565b6000818152603360205260408120610a10906124e4565b60006119286109ba611a83565b151561196c576040805160e560020a62461bcd0281526020600482015260186024820152600080516020613c5b833981519152604482015290519081900360640190fd5b60006119b086864287878080601f0160208091040260200160405190810160405280939291908181526020018383808284376000920191909152506124ef92505050565b9150506119bc81612e02565b9695505050505050565b6000828152603360205260409020600201546119e490610cd1611a83565b1515610df7576040805160e560020a62461bcd02815260206004820152603060248201527f416363657373436f6e74726f6c3a2073656e646572206d75737420626520616e60448201527f2061646d696e20746f207265766f6b6500000000000000000000000000000000606482015290519081900360840190fd5b60408051600080516020613c3b8339815191528152905190819003600801902081565b3390565b600080611a95848442612f24565b9050611aa081612e02565b949350505050565b303b1590565b600054610100900460ff1680611ac75750611ac7611aa8565b80611ad5575060005460ff16155b1515611b2d576040805160e560020a62461bcd02815260206004820152602e6024820152600080516020613c7b8339815191526044820152600080516020613c9b833981519152606482015290519081900360840190fd5b600054610100900460ff16158015611b58576000805460ff1961ff0019909116610100171660011790555b60408051600080516020613c3b83398151915281529051908190036008019020611b83906000613338565b611b8e600083610d52565b60408051600080516020613c3b83398151915281529051908190036008019020611bb89083610d52565b8015610d5c576000805461ff00191690555050565b600054610100900460ff1680611be65750611be6611aa8565b80611bf4575060005460ff16155b1515611c4c576040805160e560020a62461bcd02815260206004820152602e6024820152600080516020613c7b8339815191526044820152600080516020613c9b833981519152606482015290519081900360840190fd5b600054610100900460ff16158015611c77576000805460ff1961ff0019909116610100171660011790555b6075805473ffffffffffffffffffffffffffffffffffffffff1916600160a060020a0388161790556072805463ffffffff191663ffffffff8781169190911767ffffffff000000001916640100000000918716919091021790556065805467ffffffffffffffff191667ffffffffffffffff851617905560668290556040805160608082018352600180835260208084018290526000938501849052606b829055606c829055606d8490558451928301855281835282018190529201819052606f8290556070919091556071558015611d56576000805461ff00191690555b505050505050565b600054610100900460ff1680611d775750611d77611aa8565b80611d85575060005460ff16155b1515611ddd576040805160e560020a62461bcd02815260206004820152602e6024820152600080516020613c7b8339815191526044820152600080516020613c9b833981519152606482015290519081900360840190fd5b600054610100900460ff16158015611e08576000805460ff1961ff0019909116610100171660011790555b607a805461ff00191661010060ff8716021763ffff000019166201000061ffff868116919091029190911765ffff0000000019166401000000009185169190910217905560408051602081019091526001908190526079805466ffffffffffffff191690911790558015611e82576000805461ff00191690555b50505050565b600160a060020a03166000908152607f6020526040902090565b6000818152607e60205260408120805482918291829190611ec29061334d565b600183015460029093015491989097509195509350915050565b6000828152603360205260409020611efa908263ffffffff61336816565b15610d5c57611f07611a83565b600160a060020a031681600160a060020a0316837f2f8788117e7eff1d82e926ec794901d17c78024a50270940304540a733656f0d60405160405180910390a45050565b6000828152603360205260409020611f69908263ffffffff61337d16565b15610d5c57611f76611a83565b600160a060020a031681600160a060020a0316837ff6391f5c32d9c69d2a47ea670b442974b53935d1edc7fd64eb21e047a839171b60405160405180910390a45050565b600160a060020a0380821660009081526076602090815260408083208054600180830154600280850154600386015460048701546005880154600689015460078a0180548c51601f6000199b831615610100029b909b01909116979097049889018d90048d0287018d01909b528786529b9c8d9c8d9c8d9c8d9c8d9c8d9c8d9c8d9c60609c949b939a91999885169863ffffffff7401000000000000000000000000000000000000000087048116997801000000000000000000000000000000000000000000000000909704169794969295909460ff9091169383918301828280156120e75780601f106120bc576101008083540402835291602001916120e7565b820191906000526020600020905b8154815290600101906020018083116120ca57829003601f168201915b505050505090509a509a509a509a509a509a509a509a509a509a50509193959799509193959799565b600082820183811015610a0d576040805160e560020a62461bcd02815260206004820152601b60248201527f536166654d6174683a206164646974696f6e206f766572666c6f770000000000604482015290519081900360640190fd5b600082151561217e57506000610a10565b82820282848281151561218d57fe5b0414610a0d576040805160e560020a62461bcd02815260206004820152602160248201527f536166654d6174683a206d756c7469706c69636174696f6e206f766572666c6f60448201527f7700000000000000000000000000000000000000000000000000000000000000606482015290519081900360840190fd5b6000610a0d83836040805190810160405280601a81526020017f536166654d6174683a206469766973696f6e206279207a65726f000000000000815250613392565b6000610a0d838361343b565b6000610a0d83600160a060020a0384166134dd565b6000838152608160209081526040808320600160a060020a0388168452909152812054811015612377576000848152608160209081526040808320600160a060020a0389168452825280832080548452607e8084528285206001808201546002928301548c89526084885286892080548d8d039290920390920101905583548752919094528285200187905580548452818420909201859055905482528120546123159061334d565b506bffffffffffffffffffffffff16905085600160a060020a031681867f7ef38c92f7959fa67fe5cd29a3986c48d410d61218c99b6901c9cc81d246cfec8787604051808381526020018281526020019250505060405180910390a4506124d9565b6079805460408051606081018252600160a060020a03891666ffffffffffffff938416740100000000000000000000000000000000000000008102821780845260208085018b81528587018b81526000948552607e835287852096518755905160018088019190915590516002909601959095558b83526084815285832080548c8c0301905560828152858320805495860181558352808320909401805473ffffffffffffffffffffffffffffffffffffffff19168417905586548b8352608185528583209383529284528482209286169092559454898652608090925291909320909261246592166134f5565b60795460408051868152602081018690528151600160a060020a038a169366ffffffffffffff169289927f7ef38c92f7959fa67fe5cd29a3986c48d410d61218c99b6901c9cc81d246cfec929081900390910190a4607980546124d7919066ffffffffffffff1663ffffffff61350d16565b505b506001949350505050565b6000610a108261352a565b600080606654856074540111151515612578576040805160e560020a62461bcd02815260206004820152602660248201527f476c757761536176696e674163636f756e743a2042756467657420697320657860448201527f6365656465640000000000000000000000000000000000000000000000000000606482015290519081900360840190fd5b600160a060020a03861615156125fe576040805160e560020a62461bcd02815260206004820152603860248201527f476c757761536176696e674163636f756e743a20536176696e67206f776e657260448201527f2061646472657373206d75737420626520646566696e65640000000000000000606482015290519081900360840190fd5b600160a060020a038616600090815260766020526040902060030154156126bb576040805160e560020a62461bcd02815260206004820152604760248201527f476c757761536176696e674163636f756e743a2045616368206164647265737360448201527f2073686f756c642068617665206f6e6c79203120536176696e67206163636f7560648201527f6e74206f6e6c7900000000000000000000000000000000000000000000000000608482015290519081900360a40190fd5b6078836040518082805190602001908083835b602083106126ed5780518252601f1990920191602091820191016126ce565b51815160209384036101000a600019018019909216911617905292019485525060405193849003019092205460ff1615915061279b9050576040805160e560020a62461bcd02815260206004820152603160248201527f476c757761536176696e674163636f756e743a204964656e746974792068617360448201527f6820697320616c72656164792075736564000000000000000000000000000000606482015290519081900360840190fd5b607554604080517f23b872dd000000000000000000000000000000000000000000000000000000008152600160a060020a03898116600483015230602483015260448201899052915191909216916323b872dd9160648083019260209291908290030181600087803b15801561281057600080fd5b505af1158015612824573d6000803e3d6000fd5b505050506040513d602081101561283a57600080fd5b505115156128de576040805160e560020a62461bcd02815260206004820152604860248201527f476c757761536176696e674163636f756e743a20556e61626c6520746f20736560448201527f6e6420616d6f756e7420746f206465706f73697420746f206120536176696e6760648201527f204163636f756e74000000000000000000000000000000000000000000000000608482015290519081900360a40190fd5b604080517f84cefce000000000000000000000000000000000000000000000000000000000815260048101869052306024820152600160a060020a0388166044820152905160009173__$8ad4cadfbfab443c6ed09b45690dcdfb0d$__916384cefce091606480820192602092909190829003018186803b15801561296257600080fd5b505af4158015612976573d6000803e3d6000fd5b505050506040513d602081101561298c57600080fd5b5051606c54604080517ffd96809e000000000000000000000000000000000000000000000000000000008152600481019290925260248201899052306044830152600160a060020a038a1660648301525191925060009173__$8ad4cadfbfab443c6ed09b45690dcdfb0d$__9163fd96809e916084808301926020929190829003018186803b158015612a1e57600080fd5b505af4158015612a32573d6000803e3d6000fd5b505050506040513d6020811015612a4857600080fd5b50516040805161014081018252606c54815260208101859052600160a060020a038b169181019190915260725463ffffffff808216606084015264010000000090910416608082015260a0810188905260c08101899052600060e08201529091506101008101600181526020908101879052600160a060020a038a81166000908152607683526040908190208451815592840151600180850191909155908401516002840180546060870151608088015173ffffffffffffffffffffffffffffffffffffffff19909216939095169290921777ffffffff000000000000000000000000000000000000000019167401000000000000000000000000000000000000000063ffffffff95861602177fffffffff00000000ffffffffffffffffffffffffffffffffffffffffffffffff16780100000000000000000000000000000000000000000000000094909216939093021790915560a0830151600383015560c083015160048084019190915560e084015160058401556101008401516006840180549193909260ff19909216918490811115612be157fe5b02179055506101208201518051612c02916007840191602090910190613b6d565b50506040805160a0810182526070548152606c546020808301918252600160a060020a038d8116848601908152606085018d8152608086018f815260008a815260778652889020965187559451600180880191909155915160028701805473ffffffffffffffffffffffffffffffffffffffff191691909416179092559051600385015591516004909301929092559151885192935060789289928291908401908083835b60208310612cc65780518252601f199092019160209182019101612ca7565b51815160209384036101000a60001901801990921691161790529201948552506040519384900301909220805460ff19169315159390931790925550612d0f9050606a8361352e565b612d20606e8263ffffffff61352e16565b6069805460018101825560009182527f7fb4302e8e91f9110a6554c2c0a24601252c2a42c2220ca988efcfe39991430801805473ffffffffffffffffffffffffffffffffffffffff1916600160a060020a038b16908117909155607380548a019055607480548a019055604051909184917fae420988b408fa1c16c342c73f56ece9307da09db1ac6b36fc8d9ff61acaa9a29190a3604080518881529051600160a060020a038a169183917f2e2791fe9306933f4d6468aab16a0195b3ab2b342887b2e1be4aa35f568322979181900360200190a39097909650945050505050565b6000612e0f6109ba611a83565b1515612e53576040805160e560020a62461bcd0281526020600482015260186024820152600080516020613c5b833981519152604482015290519081900360640190fd5b60008281526077602052604081206003810154909110612ee3576040805160e560020a62461bcd02815260206004820152602860248201527f476c7577615072697a65447261773a20546865206465706f736974206973206e60448201527f6f7420666f756e64000000000000000000000000000000000000000000000000606482015290519081900360840190fd5b6000607454612ef0611a83565b600284015460038501546004860154600160a060020a039283169390921683019390930193506124d992908490810161355e565b6000606654836074540111151515612fac576040805160e560020a62461bcd02815260206004820152602660248201527f476c757761536176696e674163636f756e743a2042756467657420697320657860448201527f6365656465640000000000000000000000000000000000000000000000000000606482015290519081900360840190fd5b600160a060020a03841660009081526076602052604081206003810154909110613046576040805160e560020a62461bcd02815260206004820152602560248201527f476c757761536176696e674163636f756e743a204163636f756e74206e6f742060448201527f666f756e64000000000000000000000000000000000000000000000000000000606482015290519081900360840190fd5b607554604080517f23b872dd000000000000000000000000000000000000000000000000000000008152600160a060020a03888116600483015230602483015260448201889052915191909216916323b872dd9160648083019260209291908290030181600087803b1580156130bb57600080fd5b505af11580156130cf573d6000803e3d6000fd5b505050506040513d60208110156130e557600080fd5b50511515613189576040805160e560020a62461bcd02815260206004820152604860248201527f476c757761536176696e674163636f756e743a20556e61626c6520746f20736560448201527f6e6420616d6f756e7420746f206465706f73697420746f206120536176696e6760648201527f204163636f756e74000000000000000000000000000000000000000000000000608482015290519081900360a40190fd5b6004808201805486019055607380548601905560748054860190558154604080517ffd96809e0000000000000000000000000000000000000000000000000000000081529283019190915260248201869052306044830152600160a060020a03871660648301525160009173__$8ad4cadfbfab443c6ed09b45690dcdfb0d$__9163fd96809e91608480820192602092909190829003018186803b15801561323057600080fd5b505af4158015613244573d6000803e3d6000fd5b505050506040513d602081101561325a57600080fd5b50516040805160a081018252607054815284546020808301918252600160a060020a038b8116848601908152606085018b8152608086018d815260008981526077909552969093209451855592516001850155915160028401805473ffffffffffffffffffffffffffffffffffffffff19169190931617909155516003820155905160049091015590506132ef606e8261352e565b604080518681529051600160a060020a0388169183917f2e2791fe9306933f4d6468aab16a0195b3ab2b342887b2e1be4aa35f568322979181900360200190a395945050505050565b60009182526033602052604090912060020155565b74010000000000000000000000000000000000000000810491565b6000610a0d83600160a060020a0384166137d0565b6000610a0d83600160a060020a03841661381c565b6000818184116134235760405160e560020a62461bcd0281526004018080602001828103825283818151815260200191508051906020019080838360005b838110156133e85781810151838201526020016133d0565b50505050905090810190601f1680156134155780820380516001836020036101000a031916815260200191505b509250505060405180910390fd5b506000838581151561343157fe5b0495945050505050565b815460009082106134bc576040805160e560020a62461bcd02815260206004820152602260248201527f456e756d657261626c655365743a20696e646578206f7574206f6620626f756e60448201527f6473000000000000000000000000000000000000000000000000000000000000606482015290519081900360840190fd5b82548390839081106134ca57fe5b9060005260206000200154905092915050565b60009081526001919091016020526040902054151590565b81546001810183556000928352602090922090910155565b815466ffffffffffffff191666ffffffffffffff91909116179055565b5490565b60028201805460009081526020849052604090209190915580546001908101909155600390910180549091019055565b6000613568613beb565b613571856138e6565b90506000600290506010826060015160ff1610806135a95750816060015160ff1660101480156135a95750603b826080015160ff1611155b156135b2575060015b6020808301518351604080517f8980747400000000000000000000000000000000000000000000000000000000815260ff909316600484015261ffff90911660248301525160009273__$05084330c9bf728fdd5577c5afe72a471f$__9263898074749260448083019392829003018186803b15801561363157600080fd5b505af4158015613645573d6000803e3d6000fd5b505050506040513d602081101561365b57600080fd5b5051604084015190915060ff8083169184011611156136c057826020015160ff16600c1415156136985760208301805160010160ff1690526136ab565b825161ffff600191820116845260208401525b604083018051830182900360ff1690526136ce565b604083018051830160ff1690525b60116060840181905260006080850181905260a08501819052845160208087015160408089015181517f0a37f14b00000000000000000000000000000000000000000000000000000000815261ffff909516600486015260ff9283166024860152909116604484015260648301949094526084820183905260a482018390529251919273__$05084330c9bf728fdd5577c5afe72a471f$__92630a37f14b9260c4808201939291829003018186803b15801561378957600080fd5b505af415801561379d573d6000803e3d6000fd5b505050506040513d60208110156137b357600080fd5b505190506137c38982898961226c565b9998505050505050505050565b60006137dc83836134dd565b151561381457508154600181810184556000848152602080822090930184905584548482528286019093526040902091909155610a10565b506000610a10565b600081815260018301602052604081205480156138dc578354600019808301919081019060009087908390811061384f57fe5b9060005260206000200154905080876000018481548110151561386e57fe5b60009182526020808320909101929092558281526001898101909252604090209084019055865487908015156138a057fe5b60019003818190600052602060002001600090559055866001016000878152602001908152602001600020600090556001945050505050610a10565b6000915050610a10565b6138ee613beb565b6138f782613a14565b61ffff168152600061390a6107b2613a8d565b82516139199061ffff16613a8d565b0361ffff1690506000816301e2850002826107b285600001510361ffff16036301e13380020190506000806000600190505b600c60ff8216116139995761396881876000015161ffff16613aa8565b91508160ff166201518002925086848401111561398d5760ff81166020870152613999565b9282019260010161394b565b5060015b60ff808316908216116139d6578684620151800111156139c55760ff811660408701526139d6565b62015180939093019260010161399d565b6139df87613b1a565b60ff1660608701526139f087613b34565b60ff166080870152613a0187613b3f565b60ff1660a0870152509395945050505050565b60006107b26301e1338083048101908290613a2e90613a8d565b613a3783613a8d565b0361ffff1690506301e2850081026107b119828403016301e1338002015b848111156118fb57613a6960018403613b49565b15613a7a576301e284ff1901613a82565b6301e1337f19015b600183039250613a55565b60001901600060648204610190830460048404010392915050565b60008260ff1660021415613ad457613abf82613b49565b15613acc5750601d610a10565b50601c610a10565b8260ff1660041480613ae957508260ff166006145b80613af757508260ff166009145b80613b0557508260ff16600b145b15613b125750601e610a10565b50601f610a10565b60006018610e10835b04811515613b2d57fe5b0692915050565b6000603c8083613b23565b6000603c82613b2d565b600061019082061580610a10575060048206158015610a1057505060649006151590565b828054600181600116156101000203166002900490600052602060002090601f016020900481019282601f10613bae57805160ff1916838001178555613bdb565b82800160010185558215613bdb579182015b82811115613bdb578251825591602001919060010190613bc0565b50613be7929150613c20565b5090565b6040805160c081018252600080825260208201819052918101829052606081018290526080810182905260a081019190915290565b610d6491905b80821115613be75760008155600101613c2656fe4f50455241544f520000000000000000000000000000000000000000000000005265737472696374656420746f204f70657261746f72732e0000000000000000436f6e747261637420696e7374616e63652068617320616c7265616479206265656e20696e697469616c697a6564000000000000000000000000000000000000a165627a7a7230582031c045d61a701e70d4690083f9a2b65fe09e00f64b89107f6cf5af4f697b1afa0029",
  "linkReferences": {
    "contracts/libs/DateTimeModel.sol": {
      "DateTimeModel": [
        {
          "length": 20,
          "start": 13839
        },
        {
          "length": 20,
          "start": 14182
        }
      ]
    },
    "contracts/libs/GluwaAccountModel.sol": {
      "GluwaAccountModel": [
        {
          "length": 20,
          "start": 10555
        },
        {
          "length": 20,
          "start": 10744
        },
        {
          "length": 20,
          "start": 12809
        }
      ]
    }
  },
  "deployedLinkReferences": {
    "contracts/libs/DateTimeModel.sol": {
      "DateTimeModel": [
        {
          "length": 20,
          "start": 13820
        },
        {
          "length": 20,
          "start": 14163
        }
      ]
    },
    "contracts/libs/GluwaAccountModel.sol": {
      "GluwaAccountModel": [
        {
          "length": 20,
          "start": 10536
        },
        {
          "length": 20,
          "start": 10725
        },
        {
          "length": 20,
          "start": 12790
        }
      ]
    }
  }
}