{
  "_format": "hh-sol-artifact-1",
  "contractName": "PrizeLinkedAccountVault",
  "sourceName": "contracts/PrizeLinkedAccountVault.sol",
  "abi": [
    {
      "constant": false,
      "inputs": [
        {
          "name": "owner",
          "type": "address"
        },
        {
          "name": "amount",
          "type": "uint256"
        }
      ],
      "name": "depositPrizedLinkAccount",
      "outputs": [
        {
          "name": "",
          "type": "bool"
        }
      ],
      "payable": false,
      "stateMutability": "nonpayable",
      "type": "function"
    },
    {
      "constant": true,
      "inputs": [
        {
          "name": "role",
          "type": "bytes32"
        }
      ],
      "name": "getRoleAdmin",
      "outputs": [
        {
          "name": "",
          "type": "bytes32"
        }
      ],
      "payable": false,
      "stateMutability": "view",
      "type": "function"
    },
    {
      "constant": true,
      "inputs": [
        {
          "name": "account",
          "type": "address"
        }
      ],
      "name": "isAdmin",
      "outputs": [
        {
          "name": "",
          "type": "bool"
        }
      ],
      "payable": false,
      "stateMutability": "view",
      "type": "function"
    },
    {
      "constant": true,
      "inputs": [],
      "name": "getPrizeLinkedAccountSettings",
      "outputs": [
        {
          "name": "standardInterestRate",
          "type": "uint32"
        },
        {
          "name": "standardInterestRatePercentageBase",
          "type": "uint32"
        },
        {
          "name": "budget",
          "type": "uint256"
        },
        {
          "name": "minimumDeposit",
          "type": "uint256"
        },
        {
          "name": "token",
          "type": "address"
        },
        {
          "name": "ticketPerToken",
          "type": "uint64"
        },
        {
          "name": "cutOffHour",
          "type": "uint8"
        },
        {
          "name": "cutOffMinute",
          "type": "uint8"
        },
        {
          "name": "processingCap",
          "type": "uint16"
        },
        {
          "name": "ticketRangeFactor",
          "type": "uint128"
        },
        {
          "name": "lowerLimitPercentage",
          "type": "uint8"
        }
      ],
      "payable": false,
      "stateMutability": "view",
      "type": "function"
    },
    {
      "constant": false,
      "inputs": [],
      "name": "renounceOperator",
      "outputs": [],
      "payable": false,
      "stateMutability": "nonpayable",
      "type": "function"
    },
    {
      "constant": false,
      "inputs": [
        {
          "name": "amount",
          "type": "uint256"
        }
      ],
      "name": "withdraw",
      "outputs": [
        {
          "name": "",
          "type": "bool"
        }
      ],
      "payable": false,
      "stateMutability": "nonpayable",
      "type": "function"
    },
    {
      "constant": true,
      "inputs": [
        {
          "name": "c__0x42d91d40",
          "type": "bytes32"
        }
      ],
      "name": "c_0x42d91d40",
      "outputs": [],
      "payable": false,
      "stateMutability": "pure",
      "type": "function"
    },
    {
      "constant": false,
      "inputs": [
        {
          "name": "role",
          "type": "bytes32"
        },
        {
          "name": "account",
          "type": "address"
        }
      ],
      "name": "grantRole",
      "outputs": [],
      "payable": false,
      "stateMutability": "nonpayable",
      "type": "function"
    },
    {
      "constant": false,
      "inputs": [
        {
          "name": "standardInterestRate",
          "type": "uint32"
        },
        {
          "name": "standardInterestRatePercentageBase",
          "type": "uint32"
        },
        {
          "name": "budget",
          "type": "uint256"
        },
        {
          "name": "minimumDeposit",
          "type": "uint256"
        },
        {
          "name": "ticketPerToken",
          "type": "uint64"
        },
        {
          "name": "cutOffHour",
          "type": "uint8"
        },
        {
          "name": "cutOffMinute",
          "type": "uint8"
        },
        {
          "name": "processingCap",
          "type": "uint16"
        },
        {
          "name": "ticketRangeFactor",
          "type": "uint128"
        },
        {
          "name": "lowerLimitPercentage",
          "type": "uint8"
        }
      ],
      "name": "setPrizeLinkedAccountSettings",
      "outputs": [],
      "payable": false,
      "stateMutability": "nonpayable",
      "type": "function"
    },
    {
      "constant": false,
      "inputs": [
        {
          "name": "role",
          "type": "bytes32"
        },
        {
          "name": "account",
          "type": "address"
        }
      ],
      "name": "renounceRole",
      "outputs": [],
      "payable": false,
      "stateMutability": "nonpayable",
      "type": "function"
    },
    {
      "constant": false,
      "inputs": [
        {
          "name": "admin",
          "type": "address"
        },
        {
          "name": "tokenAddress",
          "type": "address"
        },
        {
          "name": "standardInterestRate",
          "type": "uint32"
        },
        {
          "name": "standardInterestRatePercentageBase",
          "type": "uint32"
        },
        {
          "name": "budget",
          "type": "uint256"
        },
        {
          "name": "ticketPerToken",
          "type": "uint64"
        },
        {
          "name": "cutOffHour",
          "type": "uint8"
        },
        {
          "name": "cutOffMinute",
          "type": "uint8"
        },
        {
          "name": "processingCap",
          "type": "uint16"
        },
        {
          "name": "ticketRangeFactor",
          "type": "uint128"
        },
        {
          "name": "lowerLimitPercentage",
          "type": "uint8"
        }
      ],
      "name": "initialize",
      "outputs": [],
      "payable": false,
      "stateMutability": "nonpayable",
      "type": "function"
    },
    {
      "constant": true,
      "inputs": [
        {
          "name": "drawTimeStamp",
          "type": "uint256"
        }
      ],
      "name": "getEligibleAddressPendingAddedToDraw",
      "outputs": [
        {
          "name": "result",
          "type": "address[]"
        }
      ],
      "payable": false,
      "stateMutability": "view",
      "type": "function"
    },
    {
      "constant": true,
      "inputs": [],
      "name": "getSavingSettings",
      "outputs": [
        {
          "name": "",
          "type": "uint32"
        },
        {
          "name": "",
          "type": "uint32"
        },
        {
          "name": "",
          "type": "uint256"
        },
        {
          "name": "",
          "type": "uint256"
        },
        {
          "name": "",
          "type": "address"
        }
      ],
      "payable": false,
      "stateMutability": "view",
      "type": "function"
    },
    {
      "constant": false,
      "inputs": [
        {
          "name": "owner",
          "type": "address"
        },
        {
          "name": "recipient",
          "type": "address"
        }
      ],
      "name": "withdrawUnclaimedAccount",
      "outputs": [
        {
          "name": "",
          "type": "bool"
        }
      ],
      "payable": false,
      "stateMutability": "nonpayable",
      "type": "function"
    },
    {
      "constant": true,
      "inputs": [
        {
          "name": "c__0x48731749",
          "type": "bytes32"
        }
      ],
      "name": "c_0x48731749",
      "outputs": [],
      "payable": false,
      "stateMutability": "pure",
      "type": "function"
    },
    {
      "constant": true,
      "inputs": [
        {
          "name": "drawTimeStamp",
          "type": "uint256"
        }
      ],
      "name": "getTickerIdsByOwnerAndDraw",
      "outputs": [
        {
          "name": "",
          "type": "uint96[]"
        }
      ],
      "payable": false,
      "stateMutability": "view",
      "type": "function"
    },
    {
      "constant": true,
      "inputs": [
        {
          "name": "account",
          "type": "address"
        }
      ],
      "name": "isOperator",
      "outputs": [
        {
          "name": "",
          "type": "bool"
        }
      ],
      "payable": false,
      "stateMutability": "view",
      "type": "function"
    },
    {
      "constant": false,
      "inputs": [
        {
          "name": "account",
          "type": "address"
        }
      ],
      "name": "addAdmin",
      "outputs": [],
      "payable": false,
      "stateMutability": "nonpayable",
      "type": "function"
    },
    {
      "constant": true,
      "inputs": [
        {
          "name": "depositHash",
          "type": "bytes32"
        }
      ],
      "name": "getDeposit",
      "outputs": [
        {
          "name": "",
          "type": "uint256"
        },
        {
          "name": "",
          "type": "uint256"
        },
        {
          "name": "",
          "type": "address"
        },
        {
          "name": "",
          "type": "uint256"
        },
        {
          "name": "",
          "type": "uint256"
        }
      ],
      "payable": false,
      "stateMutability": "view",
      "type": "function"
    },
    {
      "constant": true,
      "inputs": [
        {
          "name": "drawTimeStamp",
          "type": "uint256"
        }
      ],
      "name": "findMinMaxForDraw",
      "outputs": [
        {
          "name": "min",
          "type": "uint256"
        },
        {
          "name": "max",
          "type": "uint256"
        }
      ],
      "payable": false,
      "stateMutability": "view",
      "type": "function"
    },
    {
      "constant": true,
      "inputs": [
        {
          "name": "owner",
          "type": "address"
        }
      ],
      "name": "getSavingAcountFor",
      "outputs": [
        {
          "name": "",
          "type": "uint256"
        },
        {
          "name": "",
          "type": "bytes32"
        },
        {
          "name": "",
          "type": "address"
        },
        {
          "name": "",
          "type": "uint256"
        },
        {
          "name": "",
          "type": "uint256"
        },
        {
          "name": "",
          "type": "uint256"
        },
        {
          "name": "",
          "type": "uint8"
        },
        {
          "name": "",
          "type": "bytes"
        }
      ],
      "payable": false,
      "stateMutability": "view",
      "type": "function"
    },
    {
      "constant": true,
      "inputs": [
        {
          "name": "c__0xfd3e751c",
          "type": "bytes32"
        }
      ],
      "name": "c_0xfd3e751c",
      "outputs": [],
      "payable": false,
      "stateMutability": "pure",
      "type": "function"
    },
    {
      "constant": false,
      "inputs": [],
      "name": "renounceAdmin",
      "outputs": [],
      "payable": false,
      "stateMutability": "nonpayable",
      "type": "function"
    },
    {
      "constant": false,
      "inputs": [
        {
          "name": "drawTimeStamp",
          "type": "uint256"
        }
      ],
      "name": "awardWinnerV1",
      "outputs": [
        {
          "name": "",
          "type": "bool"
        }
      ],
      "payable": false,
      "stateMutability": "nonpayable",
      "type": "function"
    },
    {
      "constant": true,
      "inputs": [
        {
          "name": "role",
          "type": "bytes32"
        },
        {
          "name": "index",
          "type": "uint256"
        }
      ],
      "name": "getRoleMember",
      "outputs": [
        {
          "name": "",
          "type": "address"
        }
      ],
      "payable": false,
      "stateMutability": "view",
      "type": "function"
    },
    {
      "constant": true,
      "inputs": [
        {
          "name": "role",
          "type": "bytes32"
        },
        {
          "name": "account",
          "type": "address"
        }
      ],
      "name": "hasRole",
      "outputs": [
        {
          "name": "",
          "type": "bool"
        }
      ],
      "payable": false,
      "stateMutability": "view",
      "type": "function"
    },
    {
      "constant": false,
      "inputs": [
        {
          "name": "account",
          "type": "address"
        }
      ],
      "name": "addOperator",
      "outputs": [],
      "payable": false,
      "stateMutability": "nonpayable",
      "type": "function"
    },
    {
      "constant": true,
      "inputs": [],
      "name": "getSavingAcount",
      "outputs": [
        {
          "name": "",
          "type": "uint256"
        },
        {
          "name": "",
          "type": "bytes32"
        },
        {
          "name": "",
          "type": "address"
        },
        {
          "name": "",
          "type": "uint256"
        },
        {
          "name": "",
          "type": "uint256"
        },
        {
          "name": "",
          "type": "uint256"
        },
        {
          "name": "",
          "type": "uint8"
        },
        {
          "name": "",
          "type": "bytes"
        }
      ],
      "payable": false,
      "stateMutability": "view",
      "type": "function"
    },
    {
      "constant": true,
      "inputs": [],
      "name": "DEFAULT_ADMIN_ROLE",
      "outputs": [
        {
          "name": "",
          "type": "bytes32"
        }
      ],
      "payable": false,
      "stateMutability": "view",
      "type": "function"
    },
    {
      "constant": true,
      "inputs": [],
      "name": "getAmountBroughtToNextDraw",
      "outputs": [
        {
          "name": "",
          "type": "uint256"
        }
      ],
      "payable": false,
      "stateMutability": "view",
      "type": "function"
    },
    {
      "constant": false,
      "inputs": [
        {
          "name": "account",
          "type": "address"
        }
      ],
      "name": "removeOperator",
      "outputs": [],
      "payable": false,
      "stateMutability": "nonpayable",
      "type": "function"
    },
    {
      "constant": false,
      "inputs": [
        {
          "name": "drawTimeStamp",
          "type": "uint256"
        }
      ],
      "name": "regenerateTicketForNextDraw",
      "outputs": [
        {
          "name": "",
          "type": "uint256"
        }
      ],
      "payable": false,
      "stateMutability": "nonpayable",
      "type": "function"
    },
    {
      "constant": false,
      "inputs": [
        {
          "name": "recipient",
          "type": "address"
        },
        {
          "name": "amount",
          "type": "uint256"
        }
      ],
      "name": "invest",
      "outputs": [
        {
          "name": "",
          "type": "bool"
        }
      ],
      "payable": false,
      "stateMutability": "nonpayable",
      "type": "function"
    },
    {
      "constant": true,
      "inputs": [
        {
          "name": "role",
          "type": "bytes32"
        }
      ],
      "name": "getRoleMemberCount",
      "outputs": [
        {
          "name": "",
          "type": "uint256"
        }
      ],
      "payable": false,
      "stateMutability": "view",
      "type": "function"
    },
    {
      "constant": true,
      "inputs": [
        {
          "name": "c__0x90feacde",
          "type": "bytes32"
        }
      ],
      "name": "c_0x90feacde",
      "outputs": [],
      "payable": false,
      "stateMutability": "pure",
      "type": "function"
    },
    {
      "constant": false,
      "inputs": [
        {
          "name": "owner",
          "type": "address"
        },
        {
          "name": "amount",
          "type": "uint256"
        },
        {
          "name": "securityHash",
          "type": "bytes"
        }
      ],
      "name": "createPrizedLinkAccount",
      "outputs": [
        {
          "name": "",
          "type": "bool"
        }
      ],
      "payable": false,
      "stateMutability": "nonpayable",
      "type": "function"
    },
    {
      "constant": false,
      "inputs": [
        {
          "name": "role",
          "type": "bytes32"
        },
        {
          "name": "account",
          "type": "address"
        }
      ],
      "name": "revokeRole",
      "outputs": [],
      "payable": false,
      "stateMutability": "nonpayable",
      "type": "function"
    },
    {
      "constant": true,
      "inputs": [
        {
          "name": "drawTimeStamp",
          "type": "uint256"
        }
      ],
      "name": "getDrawDetails",
      "outputs": [
        {
          "name": "participants",
          "type": "address[]"
        },
        {
          "name": "ticketIds",
          "type": "uint96[]"
        },
        {
          "name": "winningTicket",
          "type": "uint256"
        },
        {
          "name": "balanceEachDraw",
          "type": "uint256"
        }
      ],
      "payable": false,
      "stateMutability": "view",
      "type": "function"
    },
    {
      "constant": true,
      "inputs": [
        {
          "name": "idx",
          "type": "uint256"
        }
      ],
      "name": "getTicketRangeById",
      "outputs": [
        {
          "name": "",
          "type": "uint96"
        },
        {
          "name": "",
          "type": "address"
        },
        {
          "name": "",
          "type": "uint256"
        },
        {
          "name": "",
          "type": "uint256"
        }
      ],
      "payable": false,
      "stateMutability": "view",
      "type": "function"
    },
    {
      "constant": false,
      "inputs": [
        {
          "name": "owner",
          "type": "address"
        },
        {
          "name": "amount",
          "type": "uint256"
        }
      ],
      "name": "withdrawFor",
      "outputs": [
        {
          "name": "",
          "type": "bool"
        }
      ],
      "payable": false,
      "stateMutability": "nonpayable",
      "type": "function"
    },
    {
      "constant": true,
      "inputs": [
        {
          "name": "drawTimeStamp",
          "type": "uint256"
        },
        {
          "name": "owner",
          "type": "address"
        }
      ],
      "name": "getTickerIdsByOwnerAndDrawFor",
      "outputs": [
        {
          "name": "",
          "type": "uint96[]"
        }
      ],
      "payable": false,
      "stateMutability": "view",
      "type": "function"
    },
    {
      "constant": true,
      "inputs": [
        {
          "name": "c__0x3cfa3e8e",
          "type": "bytes32"
        }
      ],
      "name": "c_0x3cfa3e8e",
      "outputs": [],
      "payable": false,
      "stateMutability": "pure",
      "type": "function"
    },
    {
      "constant": true,
      "inputs": [
        {
          "name": "drawTimeStamp",
          "type": "uint256"
        }
      ],
      "name": "getDrawWinner",
      "outputs": [
        {
          "name": "result",
          "type": "address"
        }
      ],
      "payable": false,
      "stateMutability": "view",
      "type": "function"
    },
    {
      "constant": false,
      "inputs": [
        {
          "name": "drawTimeStamp",
          "type": "uint256"
        },
        {
          "name": "seed",
          "type": "uint256"
        }
      ],
      "name": "makeDrawV1",
      "outputs": [
        {
          "name": "",
          "type": "uint256"
        }
      ],
      "payable": false,
      "stateMutability": "nonpayable",
      "type": "function"
    },
    {
      "constant": true,
      "inputs": [],
      "name": "OPERATOR_ROLE",
      "outputs": [
        {
          "name": "",
          "type": "bytes32"
        }
      ],
      "payable": false,
      "stateMutability": "view",
      "type": "function"
    },
    {
      "anonymous": false,
      "inputs": [
        {
          "indexed": false,
          "name": "winner",
          "type": "address"
        },
        {
          "indexed": false,
          "name": "reward",
          "type": "uint256"
        }
      ],
      "name": "WinnerSelected",
      "type": "event"
    },
    {
      "anonymous": false,
      "inputs": [
        {
          "indexed": true,
          "name": "recipient",
          "type": "address"
        },
        {
          "indexed": false,
          "name": "amount",
          "type": "uint256"
        }
      ],
      "name": "Invested",
      "type": "event"
    },
    {
      "anonymous": false,
      "inputs": [
        {
          "indexed": true,
          "name": "drawTimeStamp",
          "type": "uint256"
        },
        {
          "indexed": true,
          "name": "ticketId",
          "type": "uint256"
        },
        {
          "indexed": true,
          "name": "owner",
          "type": "address"
        },
        {
          "indexed": false,
          "name": "upper",
          "type": "uint256"
        },
        {
          "indexed": false,
          "name": "lower",
          "type": "uint256"
        }
      ],
      "name": "TicketCreated",
      "type": "event"
    },
    {
      "anonymous": false,
      "inputs": [
        {
          "indexed": true,
          "name": "accountHash",
          "type": "bytes32"
        },
        {
          "indexed": true,
          "name": "owner",
          "type": "address"
        }
      ],
      "name": "AccountCreated",
      "type": "event"
    },
    {
      "anonymous": false,
      "inputs": [
        {
          "indexed": true,
          "name": "depositHash",
          "type": "bytes32"
        },
        {
          "indexed": true,
          "name": "owner",
          "type": "address"
        },
        {
          "indexed": false,
          "name": "deposit",
          "type": "uint256"
        }
      ],
      "name": "DepositCreated",
      "type": "event"
    },
    {
      "anonymous": false,
      "inputs": [
        {
          "indexed": true,
          "name": "owner",
          "type": "address"
        },
        {
          "indexed": true,
          "name": "recipient",
          "type": "address"
        },
        {
          "indexed": false,
          "name": "amount",
          "type": "uint256"
        }
      ],
      "name": "Withdrawn",
      "type": "event"
    },
    {
      "anonymous": false,
      "inputs": [
        {
          "indexed": true,
          "name": "role",
          "type": "bytes32"
        },
        {
          "indexed": true,
          "name": "account",
          "type": "address"
        },
        {
          "indexed": true,
          "name": "sender",
          "type": "address"
        }
      ],
      "name": "RoleGranted",
      "type": "event"
    },
    {
      "anonymous": false,
      "inputs": [
        {
          "indexed": true,
          "name": "role",
          "type": "bytes32"
        },
        {
          "indexed": true,
          "name": "account",
          "type": "address"
        },
        {
          "indexed": true,
          "name": "sender",
          "type": "address"
        }
      ],
      "name": "RoleRevoked",
      "type": "event"
    }
  ],
  "bytecode": "0x6080604052620118d280620000156000396000f3fe60806040526004361062000253576000357c0100000000000000000000000000000000000000000000000000000000900463ffffffff168063033d086d1462000258578063248a9ca314620002cf57806324d7806c1462000322578063294eefaa146200038f5780632ab6f8db14620004995780632e1a7d4d14620004b35780632eda6f87146200050a5780632f2ff15d14620005495780632f378e3714620005a857806336568abe14620006775780633e0b962c14620006d65780634218774b14620007db578063529298b81462000871578063560b6ed414620008ff578063669ec8b7146200098c5780636d42555014620009cb5780636d70f7ae1462000a61578063704802751462000ace5780637a86983f1462000b235780638067e0021462000bbe57806382133e381462000c1857806386f8474c1462000d555780638bad0c0a1462000d945780638be306571462000dae5780639010d07c1462000e0557806391d148541462000e8e5780639870d7fe1462000f055780639964476f1462000f5a578063a217fddf146200105c578063a9576694146200108a578063ac8a584a14620010b8578063b58d3ff3146200110d578063b9b8c2461462001160578063ca15c87314620011d7578063cc264502146200122a578063cf123e301462001269578063d547741f1462001338578063d5a962e41462001397578063d93e81a71462001485578063db518db21462001535578063dbd6f1c414620015ac578063ed5c04911462001662578063ee37fb4c14620016a1578063ee5bf65f1462001720578063f5b541a6146200177d575b600080fd5b3480156200026557600080fd5b50620002b5600480360360408110156200027e57600080fd5b81019080803573ffffffffffffffffffffffffffffffffffffffff16906020019092919080359060200190929190505050620017ab565b604051808215151515815260200191505060405180910390f35b348015620002dc57600080fd5b506200030c60048036036020811015620002f557600080fd5b810190808035906020019092919050505062001c9b565b6040518082815260200191505060405180910390f35b3480156200032f57600080fd5b5062000375600480360360208110156200034857600080fd5b81019080803573ffffffffffffffffffffffffffffffffffffffff16906020019092919050505062001d45565b604051808215151515815260200191505060405180910390f35b3480156200039c57600080fd5b50620003a762001de8565b604051808c63ffffffff1663ffffffff1681526020018b63ffffffff1663ffffffff1681526020018a81526020018981526020018873ffffffffffffffffffffffffffffffffffffffff1673ffffffffffffffffffffffffffffffffffffffff1681526020018767ffffffffffffffff1667ffffffffffffffff1681526020018660ff1660ff1681526020018560ff1660ff1681526020018461ffff1661ffff168152602001836fffffffffffffffffffffffffffffffff166fffffffffffffffffffffffffffffffff1681526020018260ff1660ff1681526020019b50505050505050505050505060405180910390f35b348015620004a657600080fd5b50620004b162002075565b005b348015620004c057600080fd5b50620004f060048036036020811015620004d957600080fd5b81019080803590602001909291905050506200214b565b604051808215151515815260200191505060405180910390f35b3480156200051757600080fd5b5062000547600480360360208110156200053057600080fd5b8101908080359060200190929190505050620021fd565b005b3480156200055657600080fd5b50620005a6600480360360408110156200056f57600080fd5b8101908080359060200190929190803573ffffffffffffffffffffffffffffffffffffffff16906020019092919050505062002200565b005b348015620005b557600080fd5b50620006756004803603610140811015620005cf57600080fd5b81019080803563ffffffff169060200190929190803563ffffffff1690602001909291908035906020019092919080359060200190929190803567ffffffffffffffff169060200190929190803560ff169060200190929190803560ff169060200190929190803561ffff16906020019092919080356fffffffffffffffffffffffffffffffff169060200190929190803560ff16906020019092919050505062002418565b005b3480156200068457600080fd5b50620006d4600480360360408110156200069d57600080fd5b8101908080359060200190929190803573ffffffffffffffffffffffffffffffffffffffff1690602001909291905050506200283a565b005b348015620006e357600080fd5b50620007d96004803603610160811015620006fd57600080fd5b81019080803573ffffffffffffffffffffffffffffffffffffffff169060200190929190803573ffffffffffffffffffffffffffffffffffffffff169060200190929190803563ffffffff169060200190929190803563ffffffff16906020019092919080359060200190929190803567ffffffffffffffff169060200190929190803560ff169060200190929190803560ff169060200190929190803561ffff16906020019092919080356fffffffffffffffffffffffffffffffff169060200190929190803560ff16906020019092919050505062002a5f565b005b348015620007e857600080fd5b5062000818600480360360208110156200080157600080fd5b810190808035906020019092919050505062002fce565b6040518080602001828103825283818151815260200191508051906020019060200280838360005b838110156200085d57808201518184015260208101905062000840565b505050509050019250505060405180910390f35b3480156200087e57600080fd5b506200088962003486565b604051808663ffffffff1663ffffffff1681526020018563ffffffff1663ffffffff1681526020018481526020018381526020018273ffffffffffffffffffffffffffffffffffffffff1673ffffffffffffffffffffffffffffffffffffffff1681526020019550505050505060405180910390f35b3480156200090c57600080fd5b5062000972600480360360408110156200092557600080fd5b81019080803573ffffffffffffffffffffffffffffffffffffffff169060200190929190803573ffffffffffffffffffffffffffffffffffffffff16906020019092919050505062003578565b604051808215151515815260200191505060405180910390f35b3480156200099957600080fd5b50620009c960048036036020811015620009b257600080fd5b8101908080359060200190929190505050620037f8565b005b348015620009d857600080fd5b5062000a0860048036036020811015620009f157600080fd5b8101908080359060200190929190505050620037fb565b6040518080602001828103825283818151815260200191508051906020019060200280838360005b8381101562000a4d57808201518184015260208101905062000a30565b505050509050019250505060405180910390f35b34801562000a6e57600080fd5b5062000ab46004803603602081101562000a8757600080fd5b81019080803573ffffffffffffffffffffffffffffffffffffffff169060200190929190505050620038a2565b604051808215151515815260200191505060405180910390f35b34801562000adb57600080fd5b5062000b216004803603602081101562000af457600080fd5b81019080803573ffffffffffffffffffffffffffffffffffffffff16906020019092919050505062003976565b005b34801562000b3057600080fd5b5062000b606004803603602081101562000b4957600080fd5b810190808035906020019092919050505062003bb0565b604051808681526020018581526020018473ffffffffffffffffffffffffffffffffffffffff1673ffffffffffffffffffffffffffffffffffffffff1681526020018381526020018281526020019550505050505060405180910390f35b34801562000bcb57600080fd5b5062000bfb6004803603602081101562000be457600080fd5b810190808035906020019092919050505062003d02565b604051808381526020018281526020019250505060405180910390f35b34801562000c2557600080fd5b5062000c6b6004803603602081101562000c3e57600080fd5b81019080803573ffffffffffffffffffffffffffffffffffffffff16906020019092919050505062003f32565b604051808981526020018881526020018773ffffffffffffffffffffffffffffffffffffffff1673ffffffffffffffffffffffffffffffffffffffff16815260200186815260200185815260200184815260200183600481111562000ccc57fe5b60ff16815260200180602001828103825283818151815260200191508051906020019080838360005b8381101562000d1257808201518184015260208101905062000cf5565b50505050905090810190601f16801562000d405780820380516001836020036101000a031916815260200191505b50995050505050505050505060405180910390f35b34801562000d6257600080fd5b5062000d926004803603602081101562000d7b57600080fd5b81019080803590602001909291905050506200418c565b005b34801562000da157600080fd5b5062000dac6200418f565b005b34801562000dbb57600080fd5b5062000deb6004803603602081101562000dd457600080fd5b810190808035906020019092919050505062004333565b604051808215151515815260200191505060405180910390f35b34801562000e1257600080fd5b5062000e4c6004803603604081101562000e2b57600080fd5b81019080803590602001909291908035906020019092919050505062004baa565b604051808273ffffffffffffffffffffffffffffffffffffffff1673ffffffffffffffffffffffffffffffffffffffff16815260200191505060405180910390f35b34801562000e9b57600080fd5b5062000eeb6004803603604081101562000eb457600080fd5b8101908080359060200190929190803573ffffffffffffffffffffffffffffffffffffffff16906020019092919050505062004c68565b604051808215151515815260200191505060405180910390f35b34801562000f1257600080fd5b5062000f586004803603602081101562000f2b57600080fd5b81019080803573ffffffffffffffffffffffffffffffffffffffff16906020019092919050505062004d26565b005b34801562000f6757600080fd5b5062000f7262004f91565b604051808981526020018881526020018773ffffffffffffffffffffffffffffffffffffffff1673ffffffffffffffffffffffffffffffffffffffff16815260200186815260200185815260200184815260200183600481111562000fd357fe5b60ff16815260200180602001828103825283818151815260200191508051906020019080838360005b838110156200101957808201518184015260208101905062000ffc565b50505050905090810190601f168015620010475780820380516001836020036101000a031916815260200191505b50995050505050505050505060405180910390f35b3480156200106957600080fd5b506200107462005056565b6040518082815260200191505060405180910390f35b3480156200109757600080fd5b50620010a26200505e565b6040518082815260200191505060405180910390f35b348015620010c557600080fd5b506200110b60048036036020811015620010de57600080fd5b81019080803573ffffffffffffffffffffffffffffffffffffffff169060200190929190505050620050f2565b005b3480156200111a57600080fd5b506200114a600480360360208110156200113357600080fd5b81019080803590602001909291905050506200535d565b6040518082815260200191505060405180910390f35b3480156200116d57600080fd5b50620011bd600480360360408110156200118657600080fd5b81019080803573ffffffffffffffffffffffffffffffffffffffff1690602001909291908035906020019092919050505062005a21565b604051808215151515815260200191505060405180910390f35b348015620011e457600080fd5b506200121460048036036020811015620011fd57600080fd5b810190808035906020019092919050505062006343565b6040518082815260200191505060405180910390f35b3480156200123757600080fd5b5062001267600480360360208110156200125057600080fd5b8101908080359060200190929190505050620063f6565b005b3480156200127657600080fd5b506200131e600480360360608110156200128f57600080fd5b81019080803573ffffffffffffffffffffffffffffffffffffffff1690602001909291908035906020019092919080359060200190640100000000811115620012d757600080fd5b820183602082011115620012ea57600080fd5b803590602001918460018302840111640100000000831117156200130d57600080fd5b9091929391929390505050620063f9565b604051808215151515815260200191505060405180910390f35b3480156200134557600080fd5b5062001395600480360360408110156200135e57600080fd5b8101908080359060200190929190803573ffffffffffffffffffffffffffffffffffffffff1690602001909291905050506200699a565b005b348015620013a457600080fd5b50620013d460048036036020811015620013bd57600080fd5b810190808035906020019092919050505062006bb2565b604051808060200180602001858152602001848152602001838103835287818151815260200191508051906020019060200280838360005b83811015620014295780820151818401526020810190506200140c565b50505050905001838103825286818151815260200191508051906020019060200280838360005b838110156200146d57808201518184015260208101905062001450565b50505050905001965050505050505060405180910390f35b3480156200149257600080fd5b50620014c260048036036020811015620014ab57600080fd5b810190808035906020019092919050505062006ec6565b60405180856bffffffffffffffffffffffff166bffffffffffffffffffffffff1681526020018473ffffffffffffffffffffffffffffffffffffffff1673ffffffffffffffffffffffffffffffffffffffff16815260200183815260200182815260200194505050505060405180910390f35b3480156200154257600080fd5b5062001592600480360360408110156200155b57600080fd5b81019080803573ffffffffffffffffffffffffffffffffffffffff1690602001909291908035906020019092919050505062006f70565b604051808215151515815260200191505060405180910390f35b348015620015b957600080fd5b506200160960048036036040811015620015d257600080fd5b8101908080359060200190929190803573ffffffffffffffffffffffffffffffffffffffff169060200190929190505050620071ae565b6040518080602001828103825283818151815260200191508051906020019060200280838360005b838110156200164e57808201518184015260208101905062001631565b505050509050019250505060405180910390f35b3480156200166f57600080fd5b506200169f600480360360208110156200168857600080fd5b8101908080359060200190929190505050620073eb565b005b348015620016ae57600080fd5b50620016de60048036036020811015620016c757600080fd5b8101908080359060200190929190505050620073ee565b604051808273ffffffffffffffffffffffffffffffffffffffff1673ffffffffffffffffffffffffffffffffffffffff16815260200191505060405180910390f35b3480156200172d57600080fd5b5062001767600480360360408110156200174657600080fd5b810190808035906020019092919080359060200190929190505050620079f9565b6040518082815260200191505060405180910390f35b3480156200178a57600080fd5b506200179562007ee2565b6040518082815260200191505060405180910390f35b6000620017db7f269b98238e7be55b5d7a3db79f2a96a0e9fa4e47593a6bb52d82c25d08facd7e600102620073eb565b620018097fa0a2fde32d4e52005b78eac14a1ab6ae68b38ec56c08824fdb8abe489653882d600102620073eb565b620018377f1879b1107adb408f8af76f8f45ac4e99c6f1bcc9102431bca363de52c073b1dd600102620073eb565b620018657fd7067e1fc31ce2497d1aad67288494aad7eff15e9ad64f38f62ac1f194430691600102620073eb565b620018796200187362007f1b565b620038a2565b1515620018ee576040517f08c379a00000000000000000000000000000000000000000000000000000000081526004018080602001828103825260188152602001807f5265737472696374656420746f204f70657261746f72732e000000000000000081525060200191505060405180910390fd5b6200191c7f789ba8c5ad5c32a80dfff31774c44fcc100d45bdb016459c014ebdcb9ac24222600102620073eb565b6200194a7f02ecd88ec5aa7f79e1b04fa2d5196f70633b82efea766ec554a5367eb186c0ed600102620073eb565b620019787f368099d1d25419c5f165811893069d50b1bef4a52e6fb1473e5347f2da054c1b600102620037f8565b620019a67f718e552333072fe9f0e280503446b85db4d397dcbbd7da5534687e68eb4ab046600102620037f8565b620019d47fe567cdfe173eb10f1bee6c3048ad125eea33fb649703b5d955d49a30030c1fda600102620037f8565b62001a027f2b20609d45adc11ac7cc8aede05ca1affe0d5abb1a348923d89737fa82a62666600102620037f8565b60a660009054906101000a900473ffffffffffffffffffffffffffffffffffffffff1673ffffffffffffffffffffffffffffffffffffffff166323b872dd8430856040518463ffffffff167c0100000000000000000000000000000000000000000000000000000000028152600401808473ffffffffffffffffffffffffffffffffffffffff1673ffffffffffffffffffffffffffffffffffffffff1681526020018373ffffffffffffffffffffffffffffffffffffffff1673ffffffffffffffffffffffffffffffffffffffff1681526020018281526020019350505050602060405180830381600087803b15801562001afc57600080fd5b505af115801562001b11573d6000803e3d6000fd5b505050506040513d602081101562001b2857600080fd5b8101908080519060200190929190505050151562001bfa576040517f08c379a000000000000000000000000000000000000000000000000000000000815260040180806020018281038252604d8152602001807f476c7577615072697a654c696e6b65644163636f756e743a20556e61626c652081526020017f746f2073656e6420616d6f756e7420746f206465706f73697420746f2061205381526020017f6176696e67204163636f756e740000000000000000000000000000000000000081525060600191505060405180910390fd5b62001c287f729930684f397b559dde247f5e52caff319c923c621ba0382ade087b79641324600102620037f8565b62001c567f08647ebbc4d563afe348610b41eebd13565e1f301848af7da8ccbeed59ef98bd600102620037f8565b62001c847f87da49d6dbf3dc25f33a5da747ad282ca057a11d49c7125c9b65c311ddbf0761600102620037f8565b62001c93838342600062007f23565b905092915050565b600062001ccb7f8ef3a2c3240e4fed75685458a30e1852c1e366c8a3b897910fa24f0e9c12a3936001026200418c565b62001cf97f9b2d7cec472af26dd1bd892afafe2be066b09e44a7474e6389d058285c4b95986001026200418c565b62001d277f050340438b0b1f0f74eb1ff71edc211936f7fbfc40a7bf8e9ffa724dc49364f46001026200418c565b60336000838152602001908152602001600020600201549050919050565b600062001d757ffd7e2637835a60722c80d268652d57225b15dde47b888629fcd49b6f443284bc600102620073eb565b62001da37fef0ee839a87e09beff700b1545467b1e7edec5145e69a952185625b7febbbeaf600102620073eb565b62001dd17fbdf835ee0fe59519e68e959a2766d368864459c142b651dc6d6cc62e98a49287600102620073eb565b62001de160006001028362004c68565b9050919050565b600080600080600080600080600080600062001e277f25c9d0ffdc168da5ca5a9edfe4529e7b902a78a5f6c9647ce9cb177f02a8ac3e600102620037f8565b62001e557f30be0bc5f9b6350dfe8facb2ea36a5912023737f69cd70a479e75f62f9251417600102620037f8565b62001e837f79c71ca22ffb61c2c72e4170a9b068447cbcb91e3747b1e362391715cd8d94cb600102620037f8565b61011a60049054906101000a900467ffffffffffffffff16955062001ecb7f8a16c72f3d08964d4b71e36810ab99653e2f46d2a9bf826bd1cd8478aba4ccdf600102620037f8565b62001ef97f4c5a6d99af1d45b4628e99e4b269c0176ad4768b1613c46f64919d4f12c5b500600102620037f8565b61011a60029054906101000a900461ffff16925062001f3b7f9abe30724f1c1e411ce654e9058954211a49ab0e32f5e13424885f9897054210600102620037f8565b62001f697f87ab8e0fce645dd5495297a7416c7077ce2f4d6c38f22b9b86c55bc452159993600102620037f8565b61011a60009054906101000a900460ff16905062001faa7f3016d6c65356c6bd6072f49bf42e8a5a55948337998dc23426da3360cf2578ed600102620037f8565b62001fd87f63690ab96e941ffb1f96dfb7a8fcf5c5b8710583e7cb9e1cc190cc5a7dee6578600102620037f8565b62001fe262003486565b809b50819c50829d50839e50849f505050505050620020247f5a6933ab24684a28b8245d9e8f5de430c12f8739fc19593243d1dcfbd07f32aa600102620037f8565b620020527f20cca562ee167233012a43d4054b1386074f09acb3ca01b39fb39ef8615d4a9d600102620037f8565b6200205c62008033565b809450819650829750505050909192939495969798999a565b620020a37fb10bf9abe0342730296765bd2cd0c9a5ea98992024bec04a1e36f58f52126027600102620073eb565b620020d17f13cdd538e624b7d3380c6e79d8ae423ccc25837f48aea5f0afebdca7d08c9e21600102620073eb565b620020ff7feffda485d19a3eece6b6ab860484e848f4781862b85aaf4178964fcf82bb3e1f600102620073eb565b6200214960405180807f4f50455241544f52000000000000000000000000000000000000000000000000815250600801905060405180910390206200214362007f1b565b6200283a565b565b60006200217b7f5ebd6d88fb36938184f1410d949c16a4bc91cb13d0f07cb98645fab8352643c8600102620037f8565b620021a97f5e8f52e2588f032fb0401ec72f140df28676aa3e443604207fb07411f4970485600102620037f8565b620021d77f756d4697b99f9470f2788e3d48f1981b182d2f71a8abffb308cfa8bc5140abc9600102620037f8565b620021f6620021e562007f1b565b620021ef62007f1b565b846200810c565b9050919050565b50565b6200222e7fb74ad924ba00500175ccb9c922e90ece5516bede925bc063783bc6086080a7056001026200418c565b6200225c7fc538a949ad73d85fa871d4fe7b7caf55c98db10decb79e8201e5b229bf49f8d96001026200418c565b6200228a7f35ef7fe8d6d02844d6863bb6c55f0d1e296384393834f2824348a5a3fe583ff96001026200418c565b620022b87fe3926445fba9229f612ea4ab3450183300047551d9413fe24bf861e541ee22b46001026200418c565b620022e36033600084815260200190815260200160002060020154620022dd62007f1b565b62004c68565b15156200237e576040517f08c379a000000000000000000000000000000000000000000000000000000000815260040180806020018281038252602f8152602001807f416363657373436f6e74726f6c3a2073656e646572206d75737420626520616e81526020017f2061646d696e20746f206772616e74000000000000000000000000000000000081525060400191505060405180910390fd5b620023ac7f178ba80f02f74abd0ff251d2ea78ec810b40bec9630b6a70cdfbec8d0795e1426001026200418c565b620023da7fec551c3ea353e36cbba2586629cb6098113180911ee1a321937b05ae2a2752b66001026200418c565b620024087f84fcfc621d3e05319f4172e0bac43d08f99c5f386a82d921c479c6bf1caa5b9e6001026200418c565b62002414828262008542565b5050565b620024467f269b98238e7be55b5d7a3db79f2a96a0e9fa4e47593a6bb52d82c25d08facd7e600102620073eb565b620024747fa0a2fde32d4e52005b78eac14a1ab6ae68b38ec56c08824fdb8abe489653882d600102620073eb565b620024a27f1879b1107adb408f8af76f8f45ac4e99c6f1bcc9102431bca363de52c073b1dd600102620073eb565b620024d07fd7067e1fc31ce2497d1aad67288494aad7eff15e9ad64f38f62ac1f194430691600102620073eb565b620024e4620024de62007f1b565b620038a2565b151562002559576040517f08c379a00000000000000000000000000000000000000000000000000000000081526004018080602001828103825260188152602001807f5265737472696374656420746f204f70657261746f72732e000000000000000081525060200191505060405180910390fd5b620025877f789ba8c5ad5c32a80dfff31774c44fcc100d45bdb016459c014ebdcb9ac24222600102620073eb565b620025b57f02ecd88ec5aa7f79e1b04fa2d5196f70633b82efea766ec554a5367eb186c0ed600102620073eb565b620025e37f548ad73e78a72a1f172ccc5cb47debddfb89542ec1a61a821db15afd182a9fd2600102620037f8565b620026117f3bfca3da8a738e97b8d886da18a71c0cf0181e5451dd251db086ded623a858c3600102620037f8565b6200263f7f87c7f9574e9f862bb7bf3b9ab9305e831b38f1da0ed3d427966be43fa0f4b2f4600102620037f8565b8561011a60046101000a81548167ffffffffffffffff021916908367ffffffffffffffff160217905550620026977f293cc16895c033ce2f757f7593eac138ff75c77899c8072dab9b48949ff7809c600102620037f8565b620026c57feadf27bffebf2c2d2002a7d7539979d6420915a24d053060d9f36bba807057ac600102620037f8565b8261011a60026101000a81548161ffff021916908361ffff160217905550620027117fb35829b702072203f709e0748491c3f1b289b2aae4713cfc8360dbe699b8a964600102620037f8565b6200273f7f635141b229dc79ffa55ded2a64ea2b76683daa859141926eb8f581ca170114e1600102620037f8565b8061011a60006101000a81548160ff021916908360ff160217905550620027897fb196c774e48dbc0b072c431372a3db70bdaf6e5afd2490fd4ba1473269964650600102620037f8565b620027b77fc67660cf410419900083eb1200a11fb544ab29325f82f01a3cbdb8b6ddf7116c600102620037f8565b620027c58a8a8a8a62008723565b620027f37fda196891401d4a117d4158caba9e18b0eb05950b8249b583e45ea05c3681bacf600102620037f8565b620028217fc062c3862d8b40cba4e6844b040853a31c3eb30841289529fa726d8c6956cebe600102620037f8565b6200282e85858462008917565b50505050505050505050565b620028687fd93c5a94a5b1886c0bb5575c3cca63b6410bf5cc633908251d561210acc14eaa6001026200418c565b620028967f52b73aa8f50ab99b6810012a79aa4f25995f134e8c54dbcb5d80e568f5fdfbe76001026200418c565b620028c47f4de32a619436a15decb84a173b4469efaa235be2016b7657229d7bb4d915f1676001026200418c565b620028f27fd8479504df472c40b9d2d46578fc0bad271dba561f3c3bfae8432ee4398cd9a86001026200418c565b620028fc62007f1b565b73ffffffffffffffffffffffffffffffffffffffff168173ffffffffffffffffffffffffffffffffffffffff16141515620029c5576040517f08c379a000000000000000000000000000000000000000000000000000000000815260040180806020018281038252602f8152602001807f416363657373436f6e74726f6c3a2063616e206f6e6c792072656e6f756e636581526020017f20726f6c657320666f722073656c66000000000000000000000000000000000081525060400191505060405180910390fd5b620029f37f056ca1d611325f492ec9a258615105c0c61c1935da3efbb61fbb153378d318dd6001026200418c565b62002a217fb300cb213a808a8d25947dc127c3188ce2125091b485b407bb84a476fe38d0dc6001026200418c565b62002a4f7f7b5ca71ff0c3170626af9f1558f947e9704f6758fabb43f6074fe812966bce566001026200418c565b62002a5b828262008acd565b5050565b600060019054906101000a900460ff168062002a81575062002a8062008cae565b5b8062002a9957506000809054906101000a900460ff16155b151562002b34576040517f08c379a000000000000000000000000000000000000000000000000000000000815260040180806020018281038252602e8152602001807f436f6e747261637420696e7374616e63652068617320616c726561647920626581526020017f656e20696e697469616c697a656400000000000000000000000000000000000081525060400191505060405180910390fd5b60008060019054906101000a900460ff16159050801562002b85576001600060016101000a81548160ff02191690831515021790555060016000806101000a81548160ff0219169083151502179055505b62002bb37f393022c6513958094ae9695f8d67933c6544d29a4ea523a13eba68980c401f7d600102620037f8565b62002be17f76fbf70f9e37cdbf0abbe0b052a8d0212d3d304102429f6acbd2bcd8c5df008f600102620037f8565b62002c0f7fdb8e2acf1312570e3a61227f445eda3c98b271468bb53c9bed0bd65becacf949600102620037f8565b62002c1a8c62008cc5565b62002c487fa1a19fb1247825d95283606016916ec6ec8e37c5f2ad5fdced0750a6cc08e57a600102620037f8565b62002c767f5d5de7d5f9639742fed66be9d198287fa8755b17827142fc3d66ad0bb510bf4e600102620037f8565b62002c848b8b8b8b62008fe9565b62002cb27f194b306f275cb9c1c17191e85ee3ade9928110f6e9bec83c43976ac0c3729ea4600102620037f8565b62002ce07fad845ad02235c3b3e73e0d72bfeebf383f5ac095ee75531788e098c71499d0ee600102620037f8565b62002ced86868562009500565b62002d1b7fc51de4b7ba2151e1aa21273f9b1f3edc5c7a946ce7d9fb6795c0b3003d84108d600102620037f8565b62002d497fd6a9ad90b71477901b771c1f629ad703f4f8f0b1928ab3a32a4dd15a7592dae9600102620037f8565b8361011a60026101000a81548161ffff021916908361ffff16021790555062002d957f8d98dc0f3e19494991d32006e39a7135ac93b681ab5683157918cb6a5928587e600102620037f8565b62002dc37faf13df779c474736e086dfc488ab3b4c502a3579e73f3ae763df86a1ab6a566d600102620037f8565b60a660009054906101000a900473ffffffffffffffffffffffffffffffffffffffff1673ffffffffffffffffffffffffffffffffffffffff1663313ce5676040518163ffffffff167c010000000000000000000000000000000000000000000000000000000002815260040160206040518083038186803b15801562002e4857600080fd5b505afa15801562002e5d573d6000803e3d6000fd5b505050506040513d602081101562002e7457600080fd5b810190808051906020019092919050505061011a60016101000a81548160ff021916908360ff16021790555062002ece7f20078841711e64a5b98ec3944a4bdecdb85ab4ef8e503e6ab6e7173392a3a1c6600102620037f8565b62002efc7f925e994d23ade63b0e96f7965750618c971274254410983cecd8b9e0f98e7597600102620037f8565b8661011a60046101000a81548167ffffffffffffffff021916908367ffffffffffffffff16021790555062002f547f2388c2d1bfe708a9a3af24f79efe0edf00ee584e18ea9e849840429773a48168600102620037f8565b62002f827f77f28736636aaf386597976e1af058e10e5fa7a34ea98cf8a06b1e86c06cb8b7600102620037f8565b8161011a60006101000a81548160ff021916908360ff160217905550801562002fc05760008060016101000a81548160ff0219169083151502179055505b505050505050505050505050565b606062002ffe7f4055094ee938ac478c67721fa04da3c5e6130172fcf7895af3203ad5d7032405600102620037f8565b6200302c7f55fb64c4d4d6cf94ce8a413d66cc411b6dca416c50fa2be261047c4c5e507a7f600102620037f8565b6200305a7fd436c8654e955acd1211f29a5aa18846bedb3f78d5ce3cc2fa9636ad9194a72e600102620037f8565b60006200308a7fa1ce5180c6ab847e296c90ab909d21b74a90bd346200740c09675152f17d324f600102620037f8565b620030b87fc06f9ab0a42067a3032004a1a614e8eb2400747d61d289999b531b49d72db4b2600102620037f8565b60008090505b609b805490508110156200347f57620030fa7ffc1a22c806fb858100e543a0113f5030549cf1d5e9914e9ff96548df49587702600102620037f8565b620031287f652e117f8199b91a755823b95c9a7ccbe183fafb662283f460b330e5ba66a30a600102620037f8565b600060e260008681526020019081526020016000206000609b848154811015156200314f57fe5b9060005260206000200160009054906101000a900473ffffffffffffffffffffffffffffffffffffffff1673ffffffffffffffffffffffffffffffffffffffff1673ffffffffffffffffffffffffffffffffffffffff16815260200190815260200160002080549050148015620032425750600060a76000609b84815481101515620031d757fe5b9060005260206000200160009054906101000a900473ffffffffffffffffffffffffffffffffffffffff1673ffffffffffffffffffffffffffffffffffffffff1673ffffffffffffffffffffffffffffffffffffffff16815260200190815260200160002060040154115b8015620032f05750600160048111156200325857fe5b60a76000609b848154811015156200326c57fe5b9060005260206000200160009054906101000a900473ffffffffffffffffffffffffffffffffffffffff1673ffffffffffffffffffffffffffffffffffffffff1673ffffffffffffffffffffffffffffffffffffffff16815260200190815260200160002060060160009054906101000a900460ff166004811115620032ee57fe5b145b156200344257620033247f04ac96bf3f7bedf438d92468329e5048138da52c598656dd27de0b9a97675886600102620037f8565b620033527fb92dbc1cac19b913178a237a11f0087dfc4f8ddcb0b81ce1296c9792a388d4fb600102620037f8565b620033807f833f3b4341ff58a0e7be1edbb5dfc0dc374fc9896a676dbbe733866d03cf74d5600102620037f8565b609b818154811015156200339057fe5b9060005260206000200160009054906101000a900473ffffffffffffffffffffffffffffffffffffffff168383815181101515620033ca57fe5b9060200190602002019073ffffffffffffffffffffffffffffffffffffffff16908173ffffffffffffffffffffffffffffffffffffffff1681525050620034347f3a04ad7e9e78a5c1fc6cff605b009e257dee910e66faa994e8afe9c7316045a2600102620037f8565b818060010192505062003471565b620034707fccce1dbaba59abcf83396e478aed4d6e0fcfd31a26264a2061cb7b2ad61cb5f2600102620037f8565b5b8080600101915050620030be565b5050919050565b6000806000806000620034bc7fb8d6fe4d206a56650f24d72f070f71bdbd4efc05528abdcbdf6afc84c501f49f600102620063f6565b620034ea7fb99a31350ae3897b0324900b09a8f7d7bb6fa19f90c71b319f378a95557fb7a5600102620063f6565b620035187f4ca501c0cb561651c33ae36670e607a28c9eb1fb76b011947bd0e9074831149b600102620063f6565b60a460009054906101000a900463ffffffff1660a460049054906101000a900463ffffffff1660985460995460a660009054906101000a900473ffffffffffffffffffffffffffffffffffffffff16945094509450945094509091929394565b6000620035a87f6c875126be1726ab2fc657648964c34d167c9eea09e982826bf5fe2b9ca2d324600102620073eb565b620035d67f62099aa8d5be0c25cfa94c8b816435976ac44df70e57c0cd61c9aa5a6e8ea507600102620073eb565b620036047f453557595d5569438781ff2bffda3521e47a9e00825bc9def362d351cf3e1c74600102620073eb565b620036327f36164c6dee9768d45bd325d105734bbcb52f53401478cd02c4ecad63c18b8e68600102620073eb565b620036466200364062007f1b565b62001d45565b1515620036bb576040517f08c379a00000000000000000000000000000000000000000000000000000000081526004018080602001828103825260158152602001807f5265737472696374656420746f2041646d696e732e000000000000000000000081525060200191505060405180910390fd5b620036e97fc2ac55851c10e49d80d29047d52eddd577a7571d2b2f4dad9e5fcaa5c07a9bb2600102620073eb565b620037177fb725922c818f0782603dba098ae6ebcd63326dfb07c08fa6ef52bb86e381fb36600102620073eb565b620037457f27fd17f8241eb741602bcbf29405d1096a5a1e5ba53cb986b997c65dfbce6bac600102620037f8565b620037737f2b542bfe75d9773d4aa5b87ce095933ae3dae71347b73449f5da958e6aa9c6e6600102620037f8565b620037a17f4e5d758321caddaa3eccdfa5f9696124b9bca2a340cc5db0b7f8832cc8528a3a600102620037f8565b620037f0838360a760008773ffffffffffffffffffffffffffffffffffffffff1673ffffffffffffffffffffffffffffffffffffffff168152602001908152602001600020600401546200810c565b905092915050565b50565b60606200382b7f0d0494f3813a25cd964f7c272cdf7778e5ebe34f82c85fa900174a4ec414bb79600102620037f8565b620038597f20c8a1a4e166c098a418f14ca157f928aa778528e3a57712569ec38b5249043e600102620037f8565b620038867e15b3931a5cbcfdb94468d8463d57e10b927ff3f5dec27f29fed6582db46123600102620037f8565b6200389b826200389562007f1b565b620098a7565b9050919050565b6000620038d27fc0aad2c1f4c71d0d45099bfc691c3cd5b001f96af75e9e3b342f389f86c26147600102620073eb565b620039007f86524858a643a3d44641956918739c1a8adbfa262f51365867258a74777ab6e8600102620073eb565b6200392e7f34882e832c710efee608a8c31c6b4f81a2882df9495d9d914960835bc5ed3a6f600102620073eb565b6200396f60405180807f4f50455241544f52000000000000000000000000000000000000000000000000815250600801905060405180910390208362004c68565b9050919050565b620039a47f6c875126be1726ab2fc657648964c34d167c9eea09e982826bf5fe2b9ca2d324600102620073eb565b620039d27f62099aa8d5be0c25cfa94c8b816435976ac44df70e57c0cd61c9aa5a6e8ea507600102620073eb565b62003a007f453557595d5569438781ff2bffda3521e47a9e00825bc9def362d351cf3e1c74600102620073eb565b62003a2e7f36164c6dee9768d45bd325d105734bbcb52f53401478cd02c4ecad63c18b8e68600102620073eb565b62003a4262003a3c62007f1b565b62001d45565b151562003ab7576040517f08c379a00000000000000000000000000000000000000000000000000000000081526004018080602001828103825260158152602001807f5265737472696374656420746f2041646d696e732e000000000000000000000081525060200191505060405180910390fd5b62003ae57fc2ac55851c10e49d80d29047d52eddd577a7571d2b2f4dad9e5fcaa5c07a9bb2600102620073eb565b62003b137fb725922c818f0782603dba098ae6ebcd63326dfb07c08fa6ef52bb86e381fb36600102620073eb565b62003b417fd14e8c1d0c70855f3f901075500965984cbea219b1fa4a42db605c475f4bbee4600102620073eb565b62003b6f7fbe47793fa43a6c9d58b424bbf96d50fa4160ae78cfe3c5dd4bc34ba1ea721386600102620073eb565b62003b9d7f241ba548cc8253817305eb6cbd99b145edfcecbfaeaba1576d256fce484d5ab2600102620073eb565b62003bad60006001028262002200565b50565b600080600080600062003be67f9a41d87efab0cc27782b615da93830a718cef13deaef96d471626a31bc8fd1c5600102620063f6565b62003c147f83728831cbe135a745eed85073fc558befbea13a19d4b9770fbee58287534bdd600102620063f6565b62003c427fc3e2b999117295b9bea137cbb921b04192f0066fbf1fd2c9d79ed9b0727eb577600102620063f6565b600060a86000888152602001908152602001600020905062003c877f4e2b16b1b0644f6bc3a47b05ab1e8597b115c2a72699bdc20fad556b9cccc4fe600102620063f6565b62003cb57fb166f02045665ffa2ad499d796c42e71b1b8174bac0c60c1db73500d1a05cce1600102620063f6565b806000015481600101548260020160009054906101000a900473ffffffffffffffffffffffffffffffffffffffff1683600301548460040154955095509550955095505091939590929450565b60008062003d337f2b0227bd0ac303a265db3d5d5aed277f7958ad37889d78eb0fbc207f7ef072a3600102620021fd565b62003d617f2459bffe89119e7f765dba0c69d9f56e9c5a84cf114d713c55cc1d6103944cad600102620021fd565b62003d8f7f6a1eba7c98dedf3c83fbdd13f534dfae6e1555b1abc3827f08a9dc7d0bcb4a6d600102620021fd565b600060e06000858152602001908152602001600020905062003dd47fedbf2e8ec86acd3317cbe2e59954608482107869daad39317d29bb832ec566b5600102620021fd565b62003e027f1e4c5363833c25365820aa63a423b8fe47c99d9a4612ad17829d7daf3df88765600102620021fd565b60df600082600184805490500381548110151562003e1c57fe5b9060005260206000209060029182820401919006600c029054906101000a90046bffffffffffffffffffffffff166bffffffffffffffffffffffff16815260200190815260200160002060020154915062003e9a7f648787b6c7dff445e5877e30c431ead9dd6aa76466c6f6011f5f0c4c2cdac2b8600102620021fd565b62003ec87fa2403f20be91a7804397e7ab7bc81e5fc9bc0618a4fcced4ff51fa86c96e9794600102620021fd565b60df600082600081548110151562003edc57fe5b9060005260206000209060029182820401919006600c029054906101000a90046bffffffffffffffffffffffff166bffffffffffffffffffffffff16815260200190815260200160002060010154925050915091565b6000806000806000806000606062003f6d7f269b98238e7be55b5d7a3db79f2a96a0e9fa4e47593a6bb52d82c25d08facd7e600102620073eb565b62003f9b7fa0a2fde32d4e52005b78eac14a1ab6ae68b38ec56c08824fdb8abe489653882d600102620073eb565b62003fc97f1879b1107adb408f8af76f8f45ac4e99c6f1bcc9102431bca363de52c073b1dd600102620073eb565b62003ff77fd7067e1fc31ce2497d1aad67288494aad7eff15e9ad64f38f62ac1f194430691600102620073eb565b6200400b6200400562007f1b565b620038a2565b151562004080576040517f08c379a00000000000000000000000000000000000000000000000000000000081526004018080602001828103825260188152602001807f5265737472696374656420746f204f70657261746f72732e000000000000000081525060200191505060405180910390fd5b620040ae7f789ba8c5ad5c32a80dfff31774c44fcc100d45bdb016459c014ebdcb9ac24222600102620073eb565b620040dc7f02ecd88ec5aa7f79e1b04fa2d5196f70633b82efea766ec554a5367eb186c0ed600102620073eb565b6200410a7f1d5c2fc305a56d3933adc82453ebbf4709053dacad61e77b46885b557845fdb2600102620037f8565b620041387f97967807be6d59c3069d8adefa9d23201decd26da8cb1b79524f45d5e766e33c600102620037f8565b620041667fb42a73083c1befee3c06cea8ca58d55bf5f0c4fe40bbdf9e078a6c1cafcfc002600102620037f8565b620041718962009a18565b97509750975097509750975097509750919395975091939597565b50565b620041bd7f5303ee691770746a94c441c3c1db6f6814117793a7840e90eb05ab2e64931063600102620073eb565b620041eb7ff44ed11abb9d946c2a432fbe662d20f04907a2376ad219db63c38ca689de88f6600102620073eb565b620042197fa3b8cd17878a18b96beb23c675e90566c628339c690cc02fef2e6714e599336b600102620073eb565b60006200422562007f1b565b9050620042557fd043dcbf206250dd68a1ab9b20e9de58383ca14921d02cd31d12f14d0bb02831600102620073eb565b620042837f0ccac8621a40ca7b127c6496eeb6b54e74cc4e17a98af94873762388c2e983e6600102620073eb565b620042936000600102826200283a565b620042c17f538432c19549aadca9e46abd21c2247ce49f9f0f49908507b517e89a1ba9fef2600102620073eb565b620042ef7f3bd31538f2a58cfe062227505d07a18feb1647396af308980226ca2806c11fb5600102620073eb565b6200433060405180807f4f50455241544f5200000000000000000000000000000000000000000000000081525060080190506040518091039020826200283a565b50565b6000620043637f269b98238e7be55b5d7a3db79f2a96a0e9fa4e47593a6bb52d82c25d08facd7e600102620073eb565b620043917fa0a2fde32d4e52005b78eac14a1ab6ae68b38ec56c08824fdb8abe489653882d600102620073eb565b620043bf7f1879b1107adb408f8af76f8f45ac4e99c6f1bcc9102431bca363de52c073b1dd600102620073eb565b620043ed7fd7067e1fc31ce2497d1aad67288494aad7eff15e9ad64f38f62ac1f194430691600102620073eb565b62004401620043fb62007f1b565b620038a2565b151562004476576040517f08c379a00000000000000000000000000000000000000000000000000000000081526004018080602001828103825260188152602001807f5265737472696374656420746f204f70657261746f72732e000000000000000081525060200191505060405180910390fd5b620044a47f789ba8c5ad5c32a80dfff31774c44fcc100d45bdb016459c014ebdcb9ac24222600102620073eb565b620044d27f02ecd88ec5aa7f79e1b04fa2d5196f70633b82efea766ec554a5367eb186c0ed600102620073eb565b620045007ffafaffeadd993c648db4b781b053ee5e8ca2f53885373743c8fb971094627ad2600102620037f8565b6200452e7f93584fdf9d5e544d69a8221c69ec482c8c3667b7ae1724010969ba0fdc8d996d600102620037f8565b6200455c7f4a03727d09a1821a501647ddf08dea17ed400d63548ee729a05c9c10dc02d346600102620037f8565b6200458a7f80c23ce64761eed81be3734f6da2c49dc08231268cfa33a7f056f199eb74a516600102620037f8565b60e7600083815260200190815260200160002060009054906101000a900460ff1615151562004647576040517f08c379a00000000000000000000000000000000000000000000000000000000081526004018080602001828103825260308152602001807f476c7577615072697a654c696e6b65644163636f756e743a205072697a65206881526020017f6173206265656e2070616964206f75740000000000000000000000000000000081525060400191505060405180910390fd5b620046757fae31ef27c010bdb7b93eab4adfb0bd419e64933c7b95fc9f2d9c0adc71127d47600102620037f8565b620046a37f0e7d38f1012f17da05ff676dbab6f7f9d6828f3e16662e2a90b67d399284e720600102620037f8565b620046d17f6618da1549452f2429f5049afdcabd953cc8529c07af36c8393904efcd8b02fa600102620037f8565b6000620046de83620073ee565b90506200470e7f3321fcafae141c78c8bb00723976f89387f71987edf018ef8208223d6b110955600102620037f8565b6200473c7f2311c06027e584c9d8cdbe3d329b9d354b9393553854c36848867c306fc8a8fc600102620037f8565b6000620047c060a460049054906101000a900463ffffffff1663ffffffff16620047b160a460009054906101000a900463ffffffff1663ffffffff16620047a260e660008a81526020019081526020016000205460de5462009c5e90919063ffffffff16565b62009ce990919063ffffffff16565b62009dba90919063ffffffff16565b9050620047f07f25902f04a75a5ca4ebb7d349d7127eb9d6859f77a6e94d2a0413914b596df0f1600102620037f8565b6200481e7fe9bf8cfe91b012c845e69a39fcab1cf9b0fb2770489d7f405beb7b8109b98fb5600102620037f8565b600160e7600086815260200190815260200160002060006101000a81548160ff021916908315150217905550620048787f87dbf1010380f7b5d2388eebe2966c0739ebf2aa832718fc7c3a3683bcda9827600102620037f8565b620048a67f763b98737e2bf792ba27dfce63d5d0975a454d5a1c9796e35a680f4b2c3293b4600102620037f8565b600073ffffffffffffffffffffffffffffffffffffffff168273ffffffffffffffffffffffffffffffffffffffff16141515620049e1576200490b7f8315f6f6504d1011564193c317eb313ac9f2f24d44a9e1869f345f6c6049802c600102620037f8565b620049397fbdaf048c4f4e51c8514a5c8018f5d5429d8b7d251fa95a2ad237aeffb72a6919600102620037f8565b620049677f79b17ab831c01453e79aab9b7e1824b33f87227851e40719f6c448349f386c57600102620037f8565b600060de819055506200499d7fdcf861aa81927803f5331de1bbb53778150e98b9a9eb6fe55492298ed1922028600102620037f8565b620049cb7f0d636332acf1d11537a5ee7d7c99a3368bf8edfc1daad2fd0987a5dcce094365600102620037f8565b620049da828242600162007f23565b5062004a7c565b62004a0f7fe5bc9bb8b2a5e1f0c06350d0a202628a44b1d86efa8cab093a1d242485bfc7f0600102620037f8565b62004a3d7f9d10e79755750cd7fd4123974725a16cafda5ec332f217435cb749f4441aac4a600102620037f8565b62004a6b7f1f0e5cfe644d431901b4e062ee04b2372427816318a24e034b53035e98b5176d600102620037f8565b8060de600082825401925050819055505b62004aaa7fa2d9ca12a105c1b9c9f984bd35b67fcd1d8c42191c8d0f49ec7eeacd77a037cf600102620037f8565b62004ad87f85367af417a8f9c4dc00bfa5762d3faf5d344b9145eb9f45e3453645be1893c7600102620037f8565b7f75060f9e79552df167b73353fee6237a75bb5ba8ea022f77224e32f152138bcb8282604051808373ffffffffffffffffffffffffffffffffffffffff1673ffffffffffffffffffffffffffffffffffffffff1681526020018281526020019250505060405180910390a162004b717f2b1b587d61a5f2df047f2a25fbc53db0a1df00fe71f16a632ce69eee7052572c600102620037f8565b62004b9f7f45ceb8a47ea04af4e0ca7cb320450c339331c16832eba036dbddd703621f9d39600102620037f8565b600192505050919050565b600062004bda7f5c8f19add2d84aca7a8087815504b380c1919c10d917dfe0e6f34264806269256001026200418c565b62004c087ffc62441d050a63d198d2f97f5a25bb420519fd407e5d50f08312815303d5dd216001026200418c565b62004c367fd64e96f3e91efc239c01bf30d1d8ff0775b4d6b65061ba43ed41ed007d2762396001026200418c565b62004c60826033600086815260200190815260200160002060000162009e0690919063ffffffff16565b905092915050565b600062004c987f9907d011a40ed9cb525bc9703c302f3d71ee5b67daac1b37a8ef10b968f4f2686001026200418c565b62004cc67f986fc817075028f0f7a6cb089481ce6acf40cfa9302d016869b03d52c9d08c886001026200418c565b62004cf47f9890401fd59cad5dec194d56f8e1f971f8f878bef0e4ff70e116fd19483f56626001026200418c565b62004d1e826033600086815260200190815260200160002060000162009ead90919063ffffffff16565b905092915050565b62004d547f6c875126be1726ab2fc657648964c34d167c9eea09e982826bf5fe2b9ca2d324600102620073eb565b62004d827f62099aa8d5be0c25cfa94c8b816435976ac44df70e57c0cd61c9aa5a6e8ea507600102620073eb565b62004db07f453557595d5569438781ff2bffda3521e47a9e00825bc9def362d351cf3e1c74600102620073eb565b62004dde7f36164c6dee9768d45bd325d105734bbcb52f53401478cd02c4ecad63c18b8e68600102620073eb565b62004df262004dec62007f1b565b62001d45565b151562004e67576040517f08c379a00000000000000000000000000000000000000000000000000000000081526004018080602001828103825260158152602001807f5265737472696374656420746f2041646d696e732e000000000000000000000081525060200191505060405180910390fd5b62004e957fc2ac55851c10e49d80d29047d52eddd577a7571d2b2f4dad9e5fcaa5c07a9bb2600102620073eb565b62004ec37fb725922c818f0782603dba098ae6ebcd63326dfb07c08fa6ef52bb86e381fb36600102620073eb565b62004ef17fab863da377c52c8f6067472a5ca8df2a2ce6a6f299e205cd7a166b6a8ee31916600102620073eb565b62004f1f7fc04152ee14431e8518d6e1e3408bae4047950f36986878ba23f2b59e8842f0de600102620073eb565b62004f4d7f601f3a50cc2b63877d5d7c9ae87face277a00a3ba6a3868f835b1048a156698f600102620073eb565b62004f8e60405180807f4f50455241544f52000000000000000000000000000000000000000000000000815250600801905060405180910390208262002200565b50565b6000806000806000806000606062004fcc7f041147629463f6e0c13e8ca4166a2b5a8b446ac5719c470051757b4feb502f1f600102620063f6565b62004ffa7f3fd7aa65e03ed2344eb3fa764176d1b28a4ca40d8010176ce7b36e7532250c6e600102620063f6565b620050287f17b6405cea1f8b1c87f130fefc195e5fa52bc3b4580a0f3bba8cc7fda0275014600102620063f6565b6200503c6200503662007f1b565b62009a18565b975097509750975097509750975097509091929394959697565b600060010281565b60006200508e7f05d8020ed77dd35974d85bb5dd9b137908a0d9c891535590811ce5a1bbbf3527600102620021fd565b620050bc7f084d64cd933c61699f199bec00ba95f01c2cc72a58c8a946d9bdbbcb90263c40600102620021fd565b620050ea7f7b9e4e2a27fd6da51f60883e7d09f7cf7664306c2c8dbe94b0bbefa3975ff6eb600102620021fd565b60de54905090565b620051207f6c875126be1726ab2fc657648964c34d167c9eea09e982826bf5fe2b9ca2d324600102620073eb565b6200514e7f62099aa8d5be0c25cfa94c8b816435976ac44df70e57c0cd61c9aa5a6e8ea507600102620073eb565b6200517c7f453557595d5569438781ff2bffda3521e47a9e00825bc9def362d351cf3e1c74600102620073eb565b620051aa7f36164c6dee9768d45bd325d105734bbcb52f53401478cd02c4ecad63c18b8e68600102620073eb565b620051be620051b862007f1b565b62001d45565b151562005233576040517f08c379a00000000000000000000000000000000000000000000000000000000081526004018080602001828103825260158152602001807f5265737472696374656420746f2041646d696e732e000000000000000000000081525060200191505060405180910390fd5b620052617fc2ac55851c10e49d80d29047d52eddd577a7571d2b2f4dad9e5fcaa5c07a9bb2600102620073eb565b6200528f7fb725922c818f0782603dba098ae6ebcd63326dfb07c08fa6ef52bb86e381fb36600102620073eb565b620052bd7f6b6789300eb743a8447edde74dfce42f76d507d74fabf8555209106a6cf6835d600102620073eb565b620052eb7fe963ba32f3b2b2511f3b61c6a1cf8ec3b8865be585223e913dad37234ec3dba7600102620073eb565b620053197f4b1da260cff4143833d6e35ffde5e36b26a94146d2f068d1b4ae37ca6d0e9440600102620073eb565b6200535a60405180807f4f50455241544f5200000000000000000000000000000000000000000000000081525060080190506040518091039020826200699a565b50565b60006200538d7f512a38d588d989eed3acc08f88955428d188aadc8593fb741862cf90b8356c85600102620037f8565b620053bb7f8b5e26a03f614d839bdc62629e23f3c30eba9ca7b6ad37da29bef6d8a8e7771d600102620037f8565b620053e97fb49c4d7fb7335fbab90abc81be91735bfbe8f5f537a47adb184cb91ddcb7da70600102620037f8565b6000620054197f4814b78bb01bb05a028be0034e2074d2ba2cb9eed22d35e3b0cf009bca8e2499600102620037f8565b620054477fb0e66bbb244f9bc55435dead616fe6369d956e1056c2551f375c7ac583dad7d4600102620037f8565b60008090505b609b80549050811015620059b557620054897fecc66ef73617483bf11170cfc64ebf960a85e9f36829325d0d9826e0192e1f79600102620037f8565b620054b77f75b90450686dc5909ec7bd91f9d9039a8235470207c73cf2577011bfeb11df53600102620037f8565b600060e260008681526020019081526020016000206000609b84815481101515620054de57fe5b9060005260206000200160009054906101000a900473ffffffffffffffffffffffffffffffffffffffff1673ffffffffffffffffffffffffffffffffffffffff1673ffffffffffffffffffffffffffffffffffffffff16815260200190815260200160002080549050148015620055d15750600060a76000609b848154811015156200556657fe5b9060005260206000200160009054906101000a900473ffffffffffffffffffffffffffffffffffffffff1673ffffffffffffffffffffffffffffffffffffffff1673ffffffffffffffffffffffffffffffffffffffff16815260200190815260200160002060040154115b80156200567f575060016004811115620055e757fe5b60a76000609b84815481101515620055fb57fe5b9060005260206000200160009054906101000a900473ffffffffffffffffffffffffffffffffffffffff1673ffffffffffffffffffffffffffffffffffffffff1673ffffffffffffffffffffffffffffffffffffffff16815260200190815260200160002060060160009054906101000a900460ff1660048111156200567d57fe5b145b156200597857620056b37f5c3662514b5af44deb909ab72f898700a46799266c1d08e11f48e236aed8a641600102620037f8565b620056e17f3a61ce631acefc061885100fa00827cc97b5c93817dbb40c3c277a766f34cf71600102620037f8565b6200570f7f04d34a11a149fd12dcc7da00db4db2c6c5b46f8d538990fe8181738b95ade60e600102620037f8565b62005859609b828154811015156200572357fe5b9060005260206000200160009054906101000a900473ffffffffffffffffffffffffffffffffffffffff168560a76000609b868154811015156200576357fe5b9060005260206000200160009054906101000a900473ffffffffffffffffffffffffffffffffffffffff1673ffffffffffffffffffffffffffffffffffffffff1673ffffffffffffffffffffffffffffffffffffffff168152602001908152602001600020600401546200585360a76000609b88815481101515620057e457fe5b9060005260206000200160009054906101000a900473ffffffffffffffffffffffffffffffffffffffff1673ffffffffffffffffffffffffffffffffffffffff1673ffffffffffffffffffffffffffffffffffffffff1681526020019081526020016000206004015462009f69565b6200a042565b50620058887f6f2a40a642b8505b64d55c106502289b831617a327f48a5304fbf5ac6ecb2068600102620037f8565b8180600101925050620058be7f8500a9e4fc4b9b3b89306ac2352ef2e779b3117b09ed076a56e5023356ba26fb600102620037f8565b620058ec7f8d699fbb555089289b574a77f3e959dac58459f1256ce603371095a6431dea2c600102620037f8565b61011a60029054906101000a900461ffff1661ffff168263ffffffff16111562005944576200593e7f43a6edab168f6163758215350d38ecba2318dc3dfe37f21554317bc9fde29c63600102620037f8565b620059b5565b620059727f1c936b58a780d6df8d6a36740e9567a53ef3006cd36cc151c47b660b9dec5769600102620037f8565b620059a7565b620059a67f8b0fb230919a0097f501a69a260dc5174fa7a8fe3cdc0b0132d393f7d63f610e600102620037f8565b5b80806001019150506200544d565b50620059e47fe840861fbc2f535c5b7cc529c24d08ec62f6c96e1fa479ba6e3b0be1ec59e4cf600102620037f8565b62005a127fb3d658da1354ab726d481db487cfbb93449a1e4a1ac798753b6dc10dbf7f2c82600102620037f8565b8063ffffffff16915050919050565b600062005a517f269b98238e7be55b5d7a3db79f2a96a0e9fa4e47593a6bb52d82c25d08facd7e600102620073eb565b62005a7f7fa0a2fde32d4e52005b78eac14a1ab6ae68b38ec56c08824fdb8abe489653882d600102620073eb565b62005aad7f1879b1107adb408f8af76f8f45ac4e99c6f1bcc9102431bca363de52c073b1dd600102620073eb565b62005adb7fd7067e1fc31ce2497d1aad67288494aad7eff15e9ad64f38f62ac1f194430691600102620073eb565b62005aef62005ae962007f1b565b620038a2565b151562005b64576040517f08c379a00000000000000000000000000000000000000000000000000000000081526004018080602001828103825260188152602001807f5265737472696374656420746f204f70657261746f72732e000000000000000081525060200191505060405180910390fd5b62005b927f789ba8c5ad5c32a80dfff31774c44fcc100d45bdb016459c014ebdcb9ac24222600102620073eb565b62005bc07f02ecd88ec5aa7f79e1b04fa2d5196f70633b82efea766ec554a5367eb186c0ed600102620073eb565b62005bee7fb295d8042ea636432b0d6b8fae098d9e074905ab5e0ffb12bdf403f66f098513600102620037f8565b62005c1c7f37e7a2243cb9b60fae59f298ac5e410b9ee3da01b60e269df0d473f1ade8afee600102620037f8565b62005c4a7fc6480e821c688e22d3e82c2b7b940c0be7c61e0e315527b0e86e1601ca34c8ea600102620037f8565b62005c787ff47c8889674a7e52abd5b06ec4f424727cbd8fd9929afc2a2af32a02cd648aef600102620037f8565b600073ffffffffffffffffffffffffffffffffffffffff168373ffffffffffffffffffffffffffffffffffffffff161415151562005d6a576040517f08c379a00000000000000000000000000000000000000000000000000000000081526004018080602001828103825260498152602001807f476c7577615072697a654c696e6b65644163636f756e743a205265636970696581526020017f6e74206164647265737320666f7220696e766573746d656e74206d757374206281526020017f6520646566696e6564000000000000000000000000000000000000000000000081525060600191505060405180910390fd5b62005d987ff04088cbabb8d585b26f68b6092b512dca2cb2c5493f12ed2f9fab549554adc8600102620037f8565b62005dc67f2890737e77a3cc17df7a02c65a270a3f309255caef5f82ee5dab772d9a1790c8600102620037f8565b62005df47fbe6762beacc210dc33f9fc38f75c42cb5d2fdbddd15b058626d0defde3c9dc14600102620037f8565b600060a660009054906101000a900473ffffffffffffffffffffffffffffffffffffffff1673ffffffffffffffffffffffffffffffffffffffff166370a08231306040518263ffffffff167c0100000000000000000000000000000000000000000000000000000000028152600401808273ffffffffffffffffffffffffffffffffffffffff1673ffffffffffffffffffffffffffffffffffffffff16815260200191505060206040518083038186803b15801562005eb257600080fd5b505afa15801562005ec7573d6000803e3d6000fd5b505050506040513d602081101562005ede57600080fd5b8101908080519060200190929190505050905062005f1f7fc06cdeb9de0bdff0bc7beaa12503083930fc0ea7ad5e61a11b9b24bca695cbd2600102620037f8565b62005f4d7fbc4d0e511e71c00c44404d1e70c6cffe8be46b17fdc24ef16897be3881199236600102620037f8565b62005f7b7f055d1a4cac8420fe2f0ef9125ad984bd62db843ef1bb2ac099b5cd8c7c7cda16600102620037f8565b62005fb8606462005fa961011a60009054906101000a900460ff1660ff168462009ce990919063ffffffff16565b62009dba90919063ffffffff16565b83820310151515620060a4576040517f08c379a000000000000000000000000000000000000000000000000000000000815260040180806020018281038252606b8152602001807f476c7577615072697a654c696e6b65644163636f756e743a2074686520696e7681526020017f6573746d656e7420616d6f756e742077696c6c206d616b652074686520746f7481526020017f616c2062616c616e6365206c6f776572207468616e2074686520626f74746f6d81526020017f207468726573686f6c642e00000000000000000000000000000000000000000081525060800191505060405180910390fd5b620060d27fa6fcc05efcef1c8d7f5e40a4ec55c6223d0dc4681bd293e43bbec8c230464e4a600102620037f8565b620061007ff5f75558e4fc864ab2178ef2f497edd527acad1bff1060fefc6dd41afbcea26b600102620037f8565b6200612e7fc5a5b2fe6449602cfdfd593c921b094a06d3e15840ad3f2d5dbb67794b38cc54600102620037f8565b60a660009054906101000a900473ffffffffffffffffffffffffffffffffffffffff1673ffffffffffffffffffffffffffffffffffffffff1663a9059cbb85856040518363ffffffff167c0100000000000000000000000000000000000000000000000000000000028152600401808373ffffffffffffffffffffffffffffffffffffffff1673ffffffffffffffffffffffffffffffffffffffff16815260200182815260200192505050602060405180830381600087803b158015620061f457600080fd5b505af115801562006209573d6000803e3d6000fd5b505050506040513d60208110156200622057600080fd5b810190808051906020019092919050505050620062607f27709734daa1fa3965ca025f974860583ff8fed1c0cb907f6f902bc60c3904cf600102620037f8565b6200628e7ffe87d3712ed22cc2ee45b38688206d2f3f0caec5b6c6d55e1840b6e5161ec995600102620037f8565b8373ffffffffffffffffffffffffffffffffffffffff167fc3f75dfc78f6efac88ad5abb5e606276b903647d97b2a62a1ef89840a658bbc3846040518082815260200191505060405180910390a26200630a7f06da2979439f848af7278d004f2f6f3c78aa696877984cdbbbba4a7bc489a531600102620037f8565b620063387f591bba838a957c9eae52cd278289638b1cbaffb28d4f0e2e3f02906ff6d14529600102620037f8565b600191505092915050565b6000620063737f66ef1e06f668d8e0c0d4f82edeefadbe8c80204e2512f9d3541f84665b1015fa6001026200418c565b620063a17fea6f68aaa4e23e70c3a5d466be2b66373b71c8e3a915c17e44d497696e9a338e6001026200418c565b620063cf7f7c8a75d871e37bb3adbbbea0732c29f9ce19596157638c44ae73c5d9909177a46001026200418c565b620063ef603360008481526020019081526020016000206000016200a9b2565b9050919050565b50565b6000620064297f269b98238e7be55b5d7a3db79f2a96a0e9fa4e47593a6bb52d82c25d08facd7e600102620073eb565b620064577fa0a2fde32d4e52005b78eac14a1ab6ae68b38ec56c08824fdb8abe489653882d600102620073eb565b620064857f1879b1107adb408f8af76f8f45ac4e99c6f1bcc9102431bca363de52c073b1dd600102620073eb565b620064b37fd7067e1fc31ce2497d1aad67288494aad7eff15e9ad64f38f62ac1f194430691600102620073eb565b620064c7620064c162007f1b565b620038a2565b15156200653c576040517f08c379a00000000000000000000000000000000000000000000000000000000081526004018080602001828103825260188152602001807f5265737472696374656420746f204f70657261746f72732e000000000000000081525060200191505060405180910390fd5b6200656a7f789ba8c5ad5c32a80dfff31774c44fcc100d45bdb016459c014ebdcb9ac24222600102620073eb565b620065987f02ecd88ec5aa7f79e1b04fa2d5196f70633b82efea766ec554a5367eb186c0ed600102620073eb565b620065c67f38aa1305f603f4ec08f0e4e11f69069f63ae3318a871bba30db256cdc9701874600102620037f8565b620065f47f3cfc783a768408811455978caa9bf7d2f198eebdd422fd62ea3537cc5c7f4533600102620037f8565b620066227f87139bea7643af40218a01fa7ade30f3ec6fe61ce26abba96facd71ebea4e5b7600102620037f8565b620066507fa24ff5d5ddf6b0e988cd3145ba25ea07c21af6331d64ae60062e8b3bf2c71ca0600102620037f8565b60a660009054906101000a900473ffffffffffffffffffffffffffffffffffffffff1673ffffffffffffffffffffffffffffffffffffffff166323b872dd8630876040518463ffffffff167c0100000000000000000000000000000000000000000000000000000000028152600401808473ffffffffffffffffffffffffffffffffffffffff1673ffffffffffffffffffffffffffffffffffffffff1681526020018373ffffffffffffffffffffffffffffffffffffffff1673ffffffffffffffffffffffffffffffffffffffff1681526020018281526020019350505050602060405180830381600087803b1580156200674a57600080fd5b505af11580156200675f573d6000803e3d6000fd5b505050506040513d60208110156200677657600080fd5b8101908080519060200190929190505050151562006848576040517f08c379a000000000000000000000000000000000000000000000000000000000815260040180806020018281038252604d8152602001807f476c7577615072697a654c696e6b65644163636f756e743a20556e61626c652081526020017f746f2073656e6420616d6f756e7420746f206465706f73697420746f2061205381526020017f6176696e67204163636f756e740000000000000000000000000000000000000081525060600191505060405180910390fd5b620068757eae86eb8a82d9d303ee81cecbaa16974e0f4469c91181b35f6455d7f42c1b22600102620037f8565b620068a37fd72a66890c40fefe30f927585bdeeb15194b75a4d128f72fbfb3f6c1d557a38d600102620037f8565b620068d17ffd59fab6f8cd36f5f943b422c5fbd96eb2b33de9ecaca34851022949376930fc600102620037f8565b60006200692586864287878080601f016020809104026020016040519081016040528093929190818152602001838380828437600081840152601f19601f820116905080830192505050505050506200aa53565b915050620069567f8036142f2efb1cbc647271efa76af1b3bf51bcd65d01a63b2fe6018b72819d47600102620037f8565b620069847fe926403e836de734cafa7b0650b0d63c278a1c386a5fedad274480384076c590600102620037f8565b6200698f816200ba8b565b915050949350505050565b620069c87f97749d5907af942f23e24dab2e4d9d9f86169e20828b78fbb02c7397aba20dec6001026200418c565b620069f67f6071ae2abfff4312103bd8739211263b643becbb57462f9074353c4b638bc8fb6001026200418c565b62006a247f78c9d2effdd2cf4ffcfc49a15eb93d30fb2345626d55331fafe2577c454929456001026200418c565b62006a527f0f8d5525ab20fc25e211108856f9e9c2d7686d4bca86323a95f73b4befbd19056001026200418c565b62006a7d603360008481526020019081526020016000206002015462006a7762007f1b565b62004c68565b151562006b18576040517f08c379a00000000000000000000000000000000000000000000000000000000081526004018080602001828103825260308152602001807f416363657373436f6e74726f6c3a2073656e646572206d75737420626520616e81526020017f2061646d696e20746f207265766f6b650000000000000000000000000000000081525060400191505060405180910390fd5b62006b467f552f1538fdf5aa57eed1a65a84465e26b2dee3a349b98af5bdc70923de8885ca6001026200418c565b62006b747f903d39f78d0f26f99c6bc1e1496c2b3cde0bbb39f25ad445a102acb1d1decd816001026200418c565b62006ba27f76891968bc09ecbef03a36911e5ee6272955d16b1c067ee7f7047de6127eb41c6001026200418c565b62006bae828262008acd565b5050565b60608060008062006be57e7ada6c75b75c88ab670ea9835039b78d0bc9aceda545dd93c6b6fb7c68a556600102620021fd565b62006c137f051748605349ac2a39b449d75ef8bb2cecc1e3a5e450552dc6cd33208527e6f6600102620021fd565b62006c417f4dce12d33aa2e960503b93d9fc9657890c5f4c093cec9eb9b025f54b6c2dfab0600102620021fd565b60e4600086815260200190815260200160002080548060200260200160405190810160405280929190818152602001828054801562006cd657602002820191906000526020600020905b8160009054906101000a900473ffffffffffffffffffffffffffffffffffffffff1673ffffffffffffffffffffffffffffffffffffffff168152602001906001019080831162006c8b575b5050505050935062006d0b7fef6872b7cf5d5832d4404b57ead5c04c8db8431a90e4d9116f19c8bf3a057464600102620021fd565b62006d397f3bb4e67bac736895eaa7306b4ab726b9f1bc1022cd4634d239c351872fb48157600102620021fd565b60e0600086815260200190815260200160002080548060200260200160405190810160405280929190818152602001828054801562006dd457602002820191906000526020600020906000905b82829054906101000a90046bffffffffffffffffffffffff166bffffffffffffffffffffffff16815260200190600c0190602082600b0104928301926001038202915080841162006d865790505b5050505050925062006e097fb17422e971aa319c7d2165e56d3d9119609a26165a0a81fc2bed1ef19cbee9e9600102620021fd565b62006e377f7b73c3431c4ecc6d804b871693db956d30c583fd6afcaf6acef89e3bb75f6a12600102620021fd565b60e5600086815260200190815260200160002054915062006e7b7f4d016b50f801cbffa53cb3472a30dbf4311837400fbf71afaf9f17bc2bf65960600102620021fd565b62006ea97f152ac04a8ef050c89b86c08b744390c877da56cd3eef2f221696cfae74f2419c600102620021fd565b60e660008681526020019081526020016000205490509193509193565b60008060008062006efa7f86da3b46068b1b4eef8dae5b202d50a68d300e07f61dd1cdd8d8938a9638e692600102620037f8565b62006f287f13ea2cdaa440f6fff8cadc87063b2dd45cf0519f18e3ebc8c0ffe1715d6db4bd600102620037f8565b62006f567f656401ae8e12b08b6194a3767491f65e90ce406531175a631237523fb0536f0a600102620037f8565b62006f61856200bf31565b93509350935093509193509193565b600062006fa07f269b98238e7be55b5d7a3db79f2a96a0e9fa4e47593a6bb52d82c25d08facd7e600102620073eb565b62006fce7fa0a2fde32d4e52005b78eac14a1ab6ae68b38ec56c08824fdb8abe489653882d600102620073eb565b62006ffc7f1879b1107adb408f8af76f8f45ac4e99c6f1bcc9102431bca363de52c073b1dd600102620073eb565b6200702a7fd7067e1fc31ce2497d1aad67288494aad7eff15e9ad64f38f62ac1f194430691600102620073eb565b6200703e6200703862007f1b565b620038a2565b1515620070b3576040517f08c379a00000000000000000000000000000000000000000000000000000000081526004018080602001828103825260188152602001807f5265737472696374656420746f204f70657261746f72732e000000000000000081525060200191505060405180910390fd5b620070e17f789ba8c5ad5c32a80dfff31774c44fcc100d45bdb016459c014ebdcb9ac24222600102620073eb565b6200710f7f02ecd88ec5aa7f79e1b04fa2d5196f70633b82efea766ec554a5367eb186c0ed600102620073eb565b6200713d7f773ce85b7115cef543d21a7e35b7e56f5bfeb18b7606af9f40cf94f7e5a004f4600102620037f8565b6200716b7f8086c418f96dadbd3afe651200481727a02fee8e48a091362c121f36917961b3600102620037f8565b620071997f64c8445c55b7a04f7a329da3dfe0bdf4e69bccdcf81f17eea6cbc1cdb1156661600102620037f8565b620071a68384846200810c565b905092915050565b6060620071de7f269b98238e7be55b5d7a3db79f2a96a0e9fa4e47593a6bb52d82c25d08facd7e600102620073eb565b6200720c7fa0a2fde32d4e52005b78eac14a1ab6ae68b38ec56c08824fdb8abe489653882d600102620073eb565b6200723a7f1879b1107adb408f8af76f8f45ac4e99c6f1bcc9102431bca363de52c073b1dd600102620073eb565b620072687fd7067e1fc31ce2497d1aad67288494aad7eff15e9ad64f38f62ac1f194430691600102620073eb565b6200727c6200727662007f1b565b620038a2565b1515620072f1576040517f08c379a00000000000000000000000000000000000000000000000000000000081526004018080602001828103825260188152602001807f5265737472696374656420746f204f70657261746f72732e000000000000000081525060200191505060405180910390fd5b6200731f7f789ba8c5ad5c32a80dfff31774c44fcc100d45bdb016459c014ebdcb9ac24222600102620073eb565b6200734d7f02ecd88ec5aa7f79e1b04fa2d5196f70633b82efea766ec554a5367eb186c0ed600102620073eb565b6200737b7f9f47ee9737d89ff0242a68b7cfa5ae2dd49bb41a6f3a6ca42c5abffd6dbe6418600102620037f8565b620073a97f7f59b1297d5b740655dc346f6341fdbc5ee407f25bbc5b9059255776fafc833c600102620037f8565b620073d77f539ea9aec3adda5610bcee799e95f29b7a763087820d1100cbecea8a188275ea600102620037f8565b620073e38383620098a7565b905092915050565b50565b60006200741e7f2ccee3d41399f5665297836297dc0c1d8362ffe4dd10655e490f0f49cb4fb40d600102620021fd565b6200744c7fe754df3550e5545428fc407a1853bad83cca4e56618ac32c7055a60c6127cf5c600102620021fd565b6200747a7f1bbbeb94f2a61126e73393d5f85f8485bc8d3b5853c466de733c3c6036d1e713600102620021fd565b620074a87ffc04913b10b04ac933a570b99d226578fe349719e87f25cde948923a84202b97600102620021fd565b600060e56000848152602001908152602001600020541115156200755a576040517f08c379a000000000000000000000000000000000000000000000000000000000815260040180806020018281038252602a8152602001807f476c7577615072697a65447261773a20746865206472617720686173206e6f7481526020017f206265656e206d6164650000000000000000000000000000000000000000000081525060400191505060405180910390fd5b620075887ff97f446a33eadc03c55b69b1b4fa0a437c7a0c3130507ba6398bf6630cd70c5d600102620021fd565b620075b67f632148f02c13fd87a4a30c099eb3e7a00d553aa4d23bcdd382b1a08ad0daa406600102620021fd565b620075e47fde18cf5ff95ccd1fd548003d8652c920736f51b1ef72a3544b6c54e1967e87f0600102620021fd565b60008090505b60e0600084815260200190815260200160002080549050811015620079f357620076377fd0a5d6fb8d3ba4582907d740423226a5ac609292ed08b7d22ddcd50ed81ba427600102620021fd565b620076657f737c0350da452b140ec187f625132fc2adc8b4e7ac5f772b090ed53242722a30600102620021fd565b60df600060e06000868152602001908152602001600020838154811015156200768a57fe5b9060005260206000209060029182820401919006600c029054906101000a90046bffffffffffffffffffffffff166bffffffffffffffffffffffff1681526020019081526020016000206001015460df600060e0600087815260200190815260200160002084815481101515620076fd57fe5b9060005260206000209060029182820401919006600c029054906101000a90046bffffffffffffffffffffffff166bffffffffffffffffffffffff16815260200190815260200160002060020154118015620077de575060e560008481526020019081526020016000205460df600060e06000878152602001908152602001600020848154811015156200778d57fe5b9060005260206000209060029182820401919006600c029054906101000a90046bffffffffffffffffffffffff166bffffffffffffffffffffffff1681526020019081526020016000206002015410155b801562007870575060e560008481526020019081526020016000205460df600060e06000878152602001908152602001600020848154811015156200781f57fe5b9060005260206000209060029182820401919006600c029054906101000a90046bffffffffffffffffffffffff166bffffffffffffffffffffffff1681526020019081526020016000206001015411155b15620079b757620078a47f3db1f9df08495ff9779dcadf3469052982dee809a63210fc0a11af1ba6ab17e4600102620021fd565b620078d27f4cd22882db7ad884c875dd9d60e1b0768bbbf57983d0393f2325021caf213093600102620021fd565b620079007f0c3c84103e404c1b7f6705f0a11716125b0224172505cf4a2d0220b8380c498b600102620021fd565b6200797d60df600060e06000878152602001908152602001600020848154811015156200792957fe5b9060005260206000209060029182820401919006600c029054906101000a90046bffffffffffffffffffffffff166bffffffffffffffffffffffff168152602001908152602001600020600001546200c119565b905080925050620079b17fc1f7c2bc9d20c10a46c0a69b7cc3fca16df0bcc2b0c134a565dd212f0a51de19600102620021fd565b620079f3565b620079e57f61598326d5dc820024203b0435f8334bea3a09162570c025950f889074dd3148600102620021fd565b8080600101915050620075ea565b50919050565b600062007a297f269b98238e7be55b5d7a3db79f2a96a0e9fa4e47593a6bb52d82c25d08facd7e600102620073eb565b62007a577fa0a2fde32d4e52005b78eac14a1ab6ae68b38ec56c08824fdb8abe489653882d600102620073eb565b62007a857f1879b1107adb408f8af76f8f45ac4e99c6f1bcc9102431bca363de52c073b1dd600102620073eb565b62007ab37fd7067e1fc31ce2497d1aad67288494aad7eff15e9ad64f38f62ac1f194430691600102620073eb565b62007ac762007ac162007f1b565b620038a2565b151562007b3c576040517f08c379a00000000000000000000000000000000000000000000000000000000081526004018080602001828103825260188152602001807f5265737472696374656420746f204f70657261746f72732e000000000000000081525060200191505060405180910390fd5b62007b6a7f789ba8c5ad5c32a80dfff31774c44fcc100d45bdb016459c014ebdcb9ac24222600102620073eb565b62007b987f02ecd88ec5aa7f79e1b04fa2d5196f70633b82efea766ec554a5367eb186c0ed600102620073eb565b62007bc67f59a78dfd20811adb0b9560508e861e78d8032deae4e9f4e0bce8ff189bd97089600102620037f8565b62007bf47f3f8df7233b4a75364b683758565d2f6966d9137970d601ad1cfec708113287eb600102620037f8565b62007c227f4cb3327658a3d18b66393e1559bc1403a3be6d86d74187417127905be2832af3600102620037f8565b62007c507feb452b3c5fb790a499603d7ed4ebb9759ce33438e4de141dd2c1f244f12c2cd5600102620037f8565b42831115151562007d15576040517f08c379a00000000000000000000000000000000000000000000000000000000081526004018080602001828103825260518152602001807f476c7577615072697a654c696e6b65644163636f756e743a205468652064726181526020017f772063616e206f6e6c79206265206d616465206f6e206f72206166746572207481526020017f6865206472617720646174652074696d6500000000000000000000000000000081525060600191505060405180910390fd5b62007d437f868af601cc4d814075e6fd54f3966d8de20bda35701d9867b229ee6f958025bb600102620037f8565b62007d717f0fbe520c09a4fd4987711cc4b7722be838ec70a824b5597155431dbd9306e018600102620037f8565b62007d9f7f768569738d6eb5c6c8e00c1bdeed0f35dd006e72382180b25834ac55f7442883600102620037f8565b606060206040519080825280601f01601f19166020018201604052801562007dd65781602001600182028038833980820191505090505b50905062007e077ff86c7c0ba1176524fdf1aa156d95e4b379557f29ab5abb23328468922d541323600102620037f8565b62007e357fe0c74af62b4e21f2ccb5221c5bd7a0b9b91fa2bc5a0cc195b367a3ab2ea77b2a600102620037f8565b600030905062007e687f62958369c542558416d13f0b19aa41c92dcfd6f5065b8dc371d501b422ccdfa8600102620037f8565b808418602083015262007e9e7f1f910af525fd0a6e80e0a2db0b97f4bb0448fe803aa5c1e9ca58be37e6ce8cf2600102620037f8565b62007ecc7f95a91ac1db41e5589f6978ded2853708607dfd1dcf43b3ea269d4e8fef9945c2600102620037f8565b62007ed885836200c219565b9250505092915050565b60405180807f4f50455241544f520000000000000000000000000000000000000000000000008152506008019050604051809103902081565b600033905090565b600062007f537f2089262ab22a06f75537005f33d6e3979ed545185716e3c3df9434ede6e19376600102620037f8565b62007f817f2b4f10e66d2f86ef4895608718a6169b57957d9b6d8a1c94aef3885c8bab856b600102620037f8565b62007faf7ff9a7814f3e2128b273ffcdfa81637e379c2a1981df4c6e59fec9b6245d47c9e0600102620037f8565b600062007fbf868686866200c51b565b905062007fef7f1e2aaf62b6281a97b18530cb213bda0601371660f3ccd5e7650ba7a2a2dc290e600102620037f8565b6200801d7f79944a3a0ce64be580f5c2533f6224bb4c8f6e55ab08c38311bc3b0de15147ce600102620037f8565b62008028816200ba8b565b915050949350505050565b6000806000620080667f1c29f5bfdefb542bb506b84b7c74430c6e9f3a3bb9e2a8ae6c272fff65c56e20600102620021fd565b620080947fe170a50cf1cc82b7a8b8b710d9580fc7fe6191971a8675a4910011b44b0e7eb6600102620021fd565b620080c27f203a00e7114c711bf1e80ab3dbf084357a497ed70ca3424640b7d1488ff6950a600102620021fd565b60dd60009054906101000a900460ff1660dd60019054906101000a900460ff1660dd60029054906101000a90046fffffffffffffffffffffffffffffffff16925092509250909192565b60006200813c7f4363280b0a384857f09298a15e7386e37bdd16a30ec1ad29a81042957a4eacc3600102620037f8565b6200816a7f2241b8f0ff18451fb7bff58b2e558fb4fdca50e58953697a16cf8228d0443a2d600102620037f8565b620081987ffcc889693a5b83904f5d13ea2ed7fa6f4b4f84378fd6722ecb979cb08ea76a14600102620037f8565b6000620081a78585856200cde5565b9050620081d77f3b312b1c0f831ff0c7d73ce9e3e66bbc18a2348cc21dfc1cecf5b9f1c5511bf4600102620037f8565b620082057f436deb28efa5fffefaca023fe9a7e1ffd1c16c71b96713096f781c8587eba6ac600102620037f8565b6000620082128262009f69565b9050620082427fa91511c6d9e8e969329fbc5d9c4a649bb0f904837aeaaeb24c88c91f5783268d600102620037f8565b620082707f0281ff50570d64fcc22a7cffad36a108b8a0f25c30b76aebcca33bfaabe15871600102620037f8565b60006200827d426200d38b565b9050620082ad7fcebb769236023ea5c6071130f4c3794bdf788492b01addde15682ebb38f76388600102620037f8565b620082db7fc1fa9d0fd449d79b354856f4dc1acc6425102fd39cb1c92cab69582c5337b55f600102620037f8565b60006201518082039050620083137f7bb0efe6dc690972b240a85d6d69cf1dbabd00dbc9c4d1a2e642bd830853645a600102620037f8565b620083417f4e3531303908a3189c7f0c3bbc5878a0da9aa30e41e04bc676e1bda022c01191600102620037f8565b6200834f888388866200dfd3565b506200837e7ff57a04441cd24e12f268de4011c4d0e7188523cd33e0f5997a4f057a72665cc7600102620037f8565b620083ac7f5f4824ce5e5993ca3f8fea6cdb43a0953dc1a377f6a582625aa6c84529c72849600102620037f8565b600060e2600083815260200190815260200160002060008a73ffffffffffffffffffffffffffffffffffffffff1673ffffffffffffffffffffffffffffffffffffffff168152602001908152602001600020805490501115620084a857620084377fd7d8455cb9b21ba155eab791736846eef2bfa1af713b85b64f3f879e266a13d6600102620037f8565b620084657fa885dbad3c273ca78cd1b5c51dfaf16f58ff56e3f355f4bc00906de13d98fc40600102620037f8565b620084937fa6e2e0fac632267809c1730876d0dd4dcb34e78490ca525e7fb6b8dfebf51e75600102620037f8565b620084a1888288866200dfd3565b50620084d7565b620084d67f2e791255a86b134d317ce1fd6d8593fc0619586385cc0169603ffb6e216963b1600102620037f8565b5b620085057f1c18fbe36c0bf21be8d23b67c95aa51d2dbeab294df7b1c0881a159f1af3ecff600102620037f8565b620085337f01f98095bdb4871bd3cd472191fd2a3fffdc20a06d2c780c8e6682291d944467600102620037f8565b60019450505050509392505050565b620085707f84b91bc6cd4d63b8761ad13257c7207720ef3cd77d61117e543c387736916e5e6001026200418c565b6200859e7f9dccac468e58953be22b97f316f61593d0626c019b44f72d0fae41962f2372db6001026200418c565b620085cc7f431977193dba4d85d3d1072d0ba5e1cdccca8cddfd8c4aff4d7ac2ea98d3d4ee6001026200418c565b620085f681603360008581526020019081526020016000206000016200ec7490919063ffffffff16565b15620086f0576200862a7f28a965b98d8b942f56696427d3c721e5310563fbc5164dca87cf5cf13ea2a9ed6001026200418c565b620086587ff646bf7a647c7eede6638809cfb9c3301764e40ef49c153dd68e18ef90812a406001026200418c565b620086867f6fa7faf9721d6feef12eef2be7cb46f54c37eb46b0da7acac7b4fe0f1b3f54426001026200418c565b6200869062007f1b565b73ffffffffffffffffffffffffffffffffffffffff168173ffffffffffffffffffffffffffffffffffffffff16837f2f8788117e7eff1d82e926ec794901d17c78024a50270940304540a733656f0d60405160405180910390a46200871f565b6200871e7f8151549efc9ed0302e535d39e83479798ffab5156bdffc64026f549fa008bc6d6001026200418c565b5b5050565b620087517ff596d1a6f0772af6c466fed707b4e9734fbdf5e5b5edbbe099fcf5ab96267351600102620063f6565b6200877f7f9bbe506d4f58d6e53706d9b7e6fbe2b29d13bdc4726cf37884e0e370f95b890a600102620063f6565b620087ad7fdb823fd1da46a045a211a85879519a0d75311b5ef509bf55dcdc8683fd930ddf600102620063f6565b8360a460006101000a81548163ffffffff021916908363ffffffff160217905550620087fc7f2529bdde98c9b78f428a10c08256182524e41237063c6e9c9e3b2b9707388c1b600102620063f6565b6200882a7f82117200b3726a8989140611fafbd994593734d8aa02e00525f2c91561e51bfc600102620063f6565b8260a460046101000a81548163ffffffff021916908363ffffffff160217905550620088797f7c822fe57019f1ddab380712e45737f3b941eb06a2e01e1bd4357c27219421db600102620063f6565b620088a77fd963eaa061d2c26000c8411bfe6de368fe23daa31134884b56135afc5b190931600102620063f6565b81609881905550620088dc7fea2278caad5c45006f9174489c6dac16e4f7035ac5c7a6fc280c184fb250dc73600102620063f6565b6200890a7fbb4668e5685b83a58de07049c94d3888887ef33663f06f8dd384ffa75dff9d76600102620063f6565b8060998190555050505050565b620089457f8d364e20c86888a49fb0a5c225316faafc62d30ef272ae7d5e4e91bf193c157b600102620021fd565b620089737f443a104b7a2abc0ce9ff9d40bb5aba80939c9751fe15f5117433748460aac9f5600102620021fd565b620089a17f4e4eb1fb865a8202c21707fc5704c30fe63e71ebc3d363465a5f1fe4c0072f22600102620021fd565b8260dd60006101000a81548160ff021916908360ff160217905550620089ea7f761edc98fee140249b69aba460e9f328cc70c96d2a0b4b079d086b41598494bb600102620021fd565b62008a187fab52b31eb252d025a5c78869fd14218565b055d33d0c368e86f259e860b3e876600102620021fd565b8160dd60016101000a81548160ff021916908360ff16021790555062008a617fa1cbe202d4979dbc1803e8224f63637cd8300a19910f5d37c061af72d6ac1aca600102620021fd565b62008a8f7fe5af1bfd7fbbbe21eb81a7414fd0a0a8c4e360a1323ff7e51ab859bddb66973d600102620021fd565b8060dd60026101000a8154816fffffffffffffffffffffffffffffffff02191690836fffffffffffffffffffffffffffffffff160217905550505050565b62008afb7fe61146cafdbd435fd1a44f216470c1c771b447cea185fd63a791eedb5de9a6336001026200418c565b62008b297f5574652d96785064c2df2826f0e7f7e329e984e6292358773864c6cc71ea7a076001026200418c565b62008b577f89299f8a83d41798f187ab3c16a70e02bdf5aa620db00df7f88c09b4627ffa556001026200418c565b62008b8181603360008581526020019081526020016000206000016200ed3090919063ffffffff16565b1562008c7b5762008bb57fbfdadd76f305d8adf092ee65907cc86e4f224d2c66f9af5c0b3cdfcc1f3e8fc26001026200418c565b62008be37fcedeb60ed9b0b45ad4375b68166468c8488c71bf3878d408ea58b70a4df19c826001026200418c565b62008c117f1ec6cce1ca0f17106fd0dac964533ee10f89f102e5bae6dbc54b66910cc691906001026200418c565b62008c1b62007f1b565b73ffffffffffffffffffffffffffffffffffffffff168173ffffffffffffffffffffffffffffffffffffffff16837ff6391f5c32d9c69d2a47ea670b442974b53935d1edc7fd64eb21e047a839171b60405160405180910390a462008caa565b62008ca97fa423d3155a2779de3b70eb057d48003daeb03c8d3bb306efff5033bc719fc2fc6001026200418c565b5b5050565b6000803090506000813b9050600081149250505090565b600060019054906101000a900460ff168062008ce7575062008ce662008cae565b5b8062008cff57506000809054906101000a900460ff16155b151562008d9a576040517f08c379a000000000000000000000000000000000000000000000000000000000815260040180806020018281038252602e8152602001807f436f6e747261637420696e7374616e63652068617320616c726561647920626581526020017f656e20696e697469616c697a656400000000000000000000000000000000000081525060400191505060405180910390fd5b60008060019054906101000a900460ff16159050801562008deb576001600060016101000a81548160ff02191690831515021790555060016000806101000a81548160ff0219169083151502179055505b62008e197f150c1f904fe0c1d2f7a31162f5217d4d07c87854ee9f1013b84b4a0201d3e1fb600102620073eb565b62008e477f3a927a1908dff92aaf343f9a9dfd70ce943abc4aa14bc384662aea3b37a017f0600102620073eb565b62008e757f2269e0bd13e5cbaefe2045e6d1c22c909b9219f2bd4b7672480604fb38c98aff600102620073eb565b62008eba60405180807f4f50455241544f520000000000000000000000000000000000000000000000008152506008019050604051809103902060006001026200edec565b62008ee87fa6df09688a4556c7d0ddda638cdc6c4be3f54a1562b6556c704a1151a59f51b3600102620073eb565b62008f167f9c9fbfd717d8dd01b6f6d343c06d5831407925d9079391b9c4b46f28be3049a7600102620073eb565b62008f266000600102836200ee94565b62008f547fab54a3e2ff4e656505e71fbbf5f7f72002a6ea83477a899d8ce6e776e6750197600102620073eb565b62008f827faaf351134d2239ae83e11d26c9067378253c609eb570f8ae74c28ed36c050dbc600102620073eb565b62008fc360405180807f4f50455241544f5200000000000000000000000000000000000000000000000081525060080190506040518091039020836200ee94565b801562008fe55760008060016101000a81548160ff0219169083151502179055505b5050565b600060019054906101000a900460ff16806200900b57506200900a62008cae565b5b806200902357506000809054906101000a900460ff16155b1515620090be576040517f08c379a000000000000000000000000000000000000000000000000000000000815260040180806020018281038252602e8152602001807f436f6e747261637420696e7374616e63652068617320616c726561647920626581526020017f656e20696e697469616c697a656400000000000000000000000000000000000081525060400191505060405180910390fd5b60008060019054906101000a900460ff1615905080156200910f576001600060016101000a81548160ff02191690831515021790555060016000806101000a81548160ff0219169083151502179055505b6200913d7f17dbf3d109c4f5d7ee89824e05bc22e46bd7f238a4dfc214449033acb896da30600102620063f6565b6200916b7f37a00f29333ede6a62aec24c5b155256e73103af619aa0f5a06132d988720b04600102620063f6565b620091997f405881ad965423ccb1eb50f817a1127c7bab9d456ab47c5ca3de30284eaaa7a1600102620063f6565b8460a660006101000a81548173ffffffffffffffffffffffffffffffffffffffff021916908373ffffffffffffffffffffffffffffffffffffffff160217905550620092087f5f3b59e3c916b2543b8fffcf8da92609dd25f2f134ed297e6a84cdfbccce8cb3600102620063f6565b620092367fd49dfa9318ba827faf2d1e1e62ca914df5a65d57a8f0593975e869ed153645da600102620063f6565b8360a460006101000a81548163ffffffff021916908363ffffffff160217905550620092857fad03c7523c09ddff4260081fca66e652656eecf7eaa3631f3a87756d6a518509600102620063f6565b620092b37f96b7243fbf7e39b4dbafba3bea40cf65b2a8a2981e4d691f45fbe8051b4c1768600102620063f6565b8260a460046101000a81548163ffffffff021916908363ffffffff160217905550620093027f3d79eb7efb2ac22f905fa98d8077cf7a5288b224bce8b661262d0341c1c02157600102620063f6565b620093307f9d61ecf923815bcd30b35fff050fb785d71a81e57129e1e62a28b4d244cfe30f600102620063f6565b81609881905550620093657f4d1da28b6ff493badbc82631932ee6faaa25c42646bf1875efa2b7b47d4eb2ae600102620063f6565b620093937f77bc20e82f623d7791695aa51b5575507239779965e590de6f295de80778e8a0600102620063f6565b6001609981905550620093c97f56ca7feaf246e3771784b54fb54b9b6ee10514bd64de526aa51dbeefc9deb439600102620063f6565b620093f77f2a0d22da8e991b89711d6308a38079ef47c8c8603cf616f9dca6f6b10f70d745600102620063f6565b60606040519081016040528060018152602001600181526020016000815250609c600082015181600101556020820151816002015560408201518160030155905050620094677fba7a3f687c5ae1aaa5f691e8acfcb9803f3ef694369f5a01311767eee489b3d1600102620063f6565b620094957fbbe611060714f972353adf43ebc7841f7c51d4d2e87b95822fa5e43804fdf49b600102620063f6565b6060604051908101604052806001815260200160018152602001600081525060a06000820151816001015560208201518160020155604082015181600301559050508015620094f95760008060016101000a81548160ff0219169083151502179055505b5050505050565b600060019054906101000a900460ff16806200952257506200952162008cae565b5b806200953a57506000809054906101000a900460ff16155b1515620095d5576040517f08c379a000000000000000000000000000000000000000000000000000000000815260040180806020018281038252602e8152602001807f436f6e747261637420696e7374616e63652068617320616c726561647920626581526020017f656e20696e697469616c697a656400000000000000000000000000000000000081525060400191505060405180910390fd5b60008060019054906101000a900460ff16159050801562009626576001600060016101000a81548160ff02191690831515021790555060016000806101000a81548160ff0219169083151502179055505b620096547fd3c6c27b56653c691642f8f2003a6939ff6266835992a532b420dc4a769565b8600102620021fd565b620096827f7976e804e76d0d9efc3b78fe72fb9e4a8578504d2975157c3250fb603e3ba381600102620021fd565b620096b07f039a8b299bcbe089210efb1b4a0d0e048d33c88b8efd452d6f6e1025a5c94740600102620021fd565b8360dd60006101000a81548160ff021916908360ff160217905550620096f97f0b561b54004f278cce7a6cb4173ee6ab43db623c35fd055bb14dbff80fc019b4600102620021fd565b620097277ffa3f09a7e4593084651f29ea8461b3387030a4159e8a40eef148b8f6e3e09f38600102620021fd565b8260dd60016101000a81548160ff021916908360ff160217905550620097707ff089dbfa7364bad466cdb8497bb5a8b5b834c2756a722111d07fcb1ff09e8418600102620021fd565b6200979e7faa964b1b324db9406b36cdf6a982b534d3f86c22a8248271de2c7454cf41e2f5600102620021fd565b8160dd60026101000a8154816fffffffffffffffffffffffffffffffff02191690836fffffffffffffffffffffffffffffffff160217905550620098057f5f0265a64dc0d1e44ed8fcf4b17443ea6b2dfbc5a7483c9de2803bd47128c3e7600102620021fd565b620098337f1e90f0808128ed6295f3929f0c3e9b6d2fefbfab02b0616f39d405a446233e58600102620021fd565b602060405190810160405280600166ffffffffffffff1681525060dc60008201518160000160006101000a81548166ffffffffffffff021916908366ffffffffffffff1602179055509050508015620098a15760008060016101000a81548160ff0219169083151502179055505b50505050565b6060620098d77f9ba21e4aec720ae0cdb3661d106d7b3c28070fbb50cb84e88bd961d62b076fd0600102620021fd565b620099057f30d70e9297c991dbec33d213f5b005ad6b02e6fd0a439021e89f50f6d8c11d4d600102620021fd565b620099337f48774ebfebefa3ea0f6e15f3f370e30b2f771d11102a8f636cd63f58a7f7f87e600102620021fd565b60e2600084815260200190815260200160002060008373ffffffffffffffffffffffffffffffffffffffff1673ffffffffffffffffffffffffffffffffffffffff16815260200190815260200160002080548060200260200160405190810160405280929190818152602001828054801562009a0b57602002820191906000526020600020906000905b82829054906101000a90046bffffffffffffffffffffffff166bffffffffffffffffffffffff16815260200190600c0190602082600b01049283019260010382029150808411620099bd5790505b5050505050905092915050565b6000806000806000806000606062009a537fd9aa07dc2fdf21ff6d9dc6035d294b67f7ea05f7a7dd392f0abfa9f67bb0707e600102620063f6565b62009a817fe6d8e582b5ccead73f67eb90099d5f256656f549eea1c09bc3c6a7e73e07cc74600102620063f6565b62009aaf7f75916e65316b56c0aa0ba683d2eeb9ff63a9874c7c81211acbef5d5a04472466600102620063f6565b600060a760008b73ffffffffffffffffffffffffffffffffffffffff1673ffffffffffffffffffffffffffffffffffffffff168152602001908152602001600020905062009b207ff4b56094aaf5ac2cb270e6c04b80589fb528196f00ddb9d25f4bea209e89cd1d600102620063f6565b62009b4e7fe2064ecda43658bce43fbf2e4a4650e0b2419dd87d1c429c69e406fa1d96cb22600102620063f6565b806000015481600101548260020160009054906101000a900473ffffffffffffffffffffffffffffffffffffffff168360030154846004015485600501548660060160009054906101000a900460ff1687600701808054600181600116156101000203166002900480601f01602080910402602001604051908101604052809291908181526020018280546001816001161561010002031660029004801562009c3b5780601f1062009c0f5761010080835404028352916020019162009c3b565b820191906000526020600020905b81548152906001019060200180831162009c1d57829003601f168201915b505050505090509850985098509850985098509850985050919395975091939597565b600080828401905083811015151562009cdf576040517f08c379a000000000000000000000000000000000000000000000000000000000815260040180806020018281038252601b8152602001807f536166654d6174683a206164646974696f6e206f766572666c6f77000000000081525060200191505060405180910390fd5b8091505092915050565b60008083141562009cfe576000905062009db4565b6000828402905082848281151562009d1257fe5b0414151562009daf576040517f08c379a00000000000000000000000000000000000000000000000000000000081526004018080602001828103825260218152602001807f536166654d6174683a206d756c7469706c69636174696f6e206f766572666c6f81526020017f770000000000000000000000000000000000000000000000000000000000000081525060400191505060405180910390fd5b809150505b92915050565b600062009dfe83836040805190810160405280601a81526020017f536166654d6174683a206469766973696f6e206279207a65726f0000000000008152506200ef2e565b905092915050565b600062009e367f459e278c0a981f356992f93db68199e1525e444b60a1aa9f415242edaa90bbd36001026200effd565b62009e647f676774ccb1be05ce8a1fe3012d02b51ed6e18267ffa29aa002ff672c33d32ee96001026200effd565b62009e927fd863485f4fc7f6d5d8aa55308bee6b8486345b0154e2c013f988cdd9179492f76001026200effd565b62009ea183600001836200f000565b60019004905092915050565b600062009edd7f3f6e9522e1ea2955cabc1c679f64bf976068c841a9611123dcede6de73ec4fcd6001026200effd565b62009f0b7f8b9337500c7386ca8a4084f42b2d40b9be1af142fb7b663118e6df4ae84c617a6001026200effd565b62009f397f2d10932486833c7b94206e0ae6f4a561123119dc1d8256f3e1dffa1f209828416001026200effd565b62009f61836000018373ffffffffffffffffffffffffffffffffffffffff166001026200f20e565b905092915050565b600062009f997fee0809b58aeeed26c30fc6ba6d875b96116194bedc82363fc1cff54182bdce12600102620037f8565b62009fc77f0c3e9f168ebfb4977cf472feeaa28e1f043f0a2f2b7739c3a79275d5177cb43c600102620037f8565b62009ff57fcf946496a68af8ab72dc0833344b0ca929f3401b5463d4651add61d4a119b11e600102620037f8565b61011a60019054906101000a900460ff1660ff16600a0a61011a60049054906101000a900467ffffffffffffffff1667ffffffffffffffff1683028115156200a03a57fe5b049050919050565b60006200a0727fef3003f0129bbc70afd32f619ac0b9e9e53ed070a15d073afbfeca0f18b09bad600102620021fd565b6200a0a07fe9ccc8f3b1a0e88304e9986a4a95212986391b5760dbfd02de12dc7a06c04b52600102620021fd565b6200a0ce7f9320883c9245d2acdf532a3a29eb3ddefbac50f535da86ece2d53fd81c7aedfa600102620021fd565b600060dc60000160009054906101000a900466ffffffffffffff1666ffffffffffffff1690506200a1227ff89fb822d335b9dc601a9556cc5e96ac1e4c2e7dc0e0ae35cbb7a4b8810f116a600102620021fd565b6200a1507f537eb45c1ef919b66c047975f45174e60e410ff842f4d66c056e79d83dfe664c600102620021fd565b60008673ffffffffffffffffffffffffffffffffffffffff1690506200a1997f656ad3b4f3c2a307d171ab15abb22494d1c9c629f1eb6f2d37f3dd5b1ee24713600102620021fd565b6200a1c77f073e147acc3d18fc219e164c20766a065a5acad263b4651f7781989ce2357596600102620021fd565b60a0826bffffffffffffffffffffffff169060020a02811790506200a20f7f78090439c7bf2e1293da69fc94da1fc52cf54f5f72aa4760cc25bf22de111853600102620021fd565b6200a23d7f53d430737d556e4e55940f9eed7c24e195849be3483580700603371007507040600102620021fd565b600060e160008881526020019081526020016000205460dd60029054906101000a90046fffffffffffffffffffffffffffffffff166fffffffffffffffffffffffffffffffff160190506200a2b57f5da47253ec3c3274e2ab7298d503a555d02c7232c501dcd08134ad2771f8ba10600102620021fd565b6200a2e37f5439116f482646a7d52d71066ec257f2baab37e8cb33e66e4f9bc70682cce037600102620021fd565b600085820190506200a3187f13f6c725b8f9eebc3e3b1f11af3f6436381c10d460a256e370a0097ffc234d04600102620021fd565b6200a3467fc4c96cf46eeba2873e9ca10840c8f682bf3cf4105689f517332f6e5d1d8040a6600102620021fd565b6060604051908101604052808481526020018381526020018281525060df6000866bffffffffffffffffffffffff1681526020019081526020016000206000820151816000015560208201518160010155604082015181600201559050506200a3d27f7d1abfce3f4cdd03f44ae6cf0f8b5ddb772995bd692bb263f3c23339b515135c600102620021fd565b6200a4007f081b29c9b5d9e4920545d94197af44ad21881b03f6f5e10e461d18cb9fd078dc600102620021fd565b8660e660008a8152602001908152602001600020600082825401925050819055506200a44f7f0969465ef6c5ea50e8d3fd9a540cc241fb18b46edf5daab89808dff32f5201e1600102620021fd565b6200a47d7f0671443b48b8db258579dcba632918e8affbd05437db35fe8da4eae40266f0ed600102620021fd565b8660e360008a815260200190815260200160002060008b73ffffffffffffffffffffffffffffffffffffffff1673ffffffffffffffffffffffffffffffffffffffff168152602001908152602001600020600082825401925050819055506200a5097f76e9c5df0eb03553c01aa0bc5b1875e59946e72a4831e122dd929fa71e53b188600102620021fd565b6200a5377fd78789dcc5df825e09b94ecb8425a5c8355ac6677c2b5a6e7a6652342d1c1188600102620021fd565b60e460008981526020019081526020016000208990806001815401808255809150509060018203906000526020600020016000909192909190916101000a81548173ffffffffffffffffffffffffffffffffffffffff021916908373ffffffffffffffffffffffffffffffffffffffff160217905550506200a5dc7fa14fcbcab4a892575ad23caa397f375fff3d33ee46c48ea6c92114c7c9ce5e63600102620021fd565b6200a60a7fc035af89a7a7fdab8d5b2c3923781b6f849dc4b22ec49186aeab341196e0ade3600102620021fd565b60e2600089815260200190815260200160002060008a73ffffffffffffffffffffffffffffffffffffffff1673ffffffffffffffffffffffffffffffffffffffff16815260200190815260200160002060dc60000160009054906101000a900466ffffffffffffff16908060018154018082558091505090600182039060005260206000209060029182820401919006600c0290919266ffffffffffffff16909190916101000a8154816bffffffffffffffffffffffff02191690836bffffffffffffffffffffffff160217905550506200a7087f0c9b38d7c3a65c3cc43fd5ad7ae3993a6d93fd697e31957f51397f60e47de362600102620021fd565b6200a7367f381080a9f8721aa0664b32dddbd723e4c698f38e9df2cbc323c6ccbdf1c53cea600102620021fd565b60e0600089815260200190815260200160002084908060018154018082558091505090600182039060005260206000209060029182820401919006600c02909192909190916101000a8154816bffffffffffffffffffffffff02191690836bffffffffffffffffffffffff160217905550506200a7d67fc80f4cece3c2167176cd3daee7a2b9c69961deb2c488b1339fb5808b0c50ac84600102620021fd565b6200a8047f62084f7b105f12b0759924635bb5bfbf4b8f468bf9e9602362155b8346484655600102620021fd565b8060e160008a8152602001908152602001600020819055506200a84a7fc6b5058ad1548c6ca49bb1d28ecae089997f2bece577e784c81db0684e31d950600102620021fd565b6200a8787fa17398b5bd6815cbf87da4f9a9c0705dfd0842fa79935314fcc95cf49a7181b4600102620021fd565b8873ffffffffffffffffffffffffffffffffffffffff16846bffffffffffffffffffffffff16897fa0f62cfa805b8a221820e6091364400400ec918a02277ac3d0438e98369eadb68585604051808381526020018281526020019250505060405180910390a46200a90c7fb814d31f5d4c16fb9afbfdd58f41820fd86d8a1f15872a35ece725947e6bf4d0600102620021fd565b6200a93a7fb366b138fa3b2adb812947f61c94100618afa37db197508b8bc40683754cb896600102620021fd565b6200a94660dc6200f2bc565b6200a9747f2c41579efb91bede4cde39628a81b8e32f557a06b6a2e1e7e121d84b69355053600102620021fd565b6200a9a27f179cb88c29a4b8ef41997ec0d7013f70bf371f9254f4fc8351fc8d98c9695c7d600102620021fd565b6001945050505050949350505050565b60006200a9e27f3fbb6c237d91889d2b85197067a6867564519756a4b142dce99503390a61e0da6001026200effd565b6200aa107ff0ca5118ce57dbc469380946ed7733bfee6956d8894b68924b77265267d985a86001026200effd565b6200aa3e7f4e24753963ccd879d590789fd3106e2074905aede5539b4162644af54b7f58fe6001026200effd565b6200aa4c826000016200f361565b9050919050565b6000806200aa847f47037449925b55103db30c98d27d8ca0b7885ab667b5b16d296ae241e8ac9ff1600102620063f6565b6200aab27fb1984e31da7081381a9af027766a1299f9dd9601711d4803eda543fe2a4b9c17600102620063f6565b6200aae07f8520bbdc1065c48f0f20efc1f79dd197d8ca4e1eccca4a47e190ce4a84b9b189600102620063f6565b6200aaeb856200f3fc565b6200ab197fda5a49efd6a9275f6de973b1973d9652d06f46ebce2a10ac9f6b0d32187fd896600102620063f6565b6200ab477f6311c1acba6ba6a0ac8ef65fbb928cf10b9a8c602290410b2b2f9a2732c6f990600102620063f6565b6200ab757f29f579870e139648b7a4dab6da4a649a60074ddd1a90f31bc8e9755a0207163a600102620063f6565b600073ffffffffffffffffffffffffffffffffffffffff168673ffffffffffffffffffffffffffffffffffffffff16141515156200ac41576040517f08c379a00000000000000000000000000000000000000000000000000000000081526004018080602001828103825260388152602001807f476c757761536176696e674163636f756e743a20536176696e67206f776e657281526020017f2061646472657373206d75737420626520646566696e6564000000000000000081525060400191505060405180910390fd5b6200ac6f7f4eb49c94e8eb0a6e62e632a2704874592daa97ddf77837ff3be43f1d3863c1e4600102620063f6565b6200ac9d7f0a44630ebdb1427c3229ac6c5f57a4a4edafdceea23d811259a9fb17c8b92b1b600102620063f6565b6200accb7ffb2ef150308673efcfec895ad27adddb42399e62d460c309faf8660c51aed8a5600102620063f6565b6200acf97f678cbef0a8f5b00b9167a77b638210e4263a477281a3bfb60be794624493b7a6600102620063f6565b600060a760008873ffffffffffffffffffffffffffffffffffffffff1673ffffffffffffffffffffffffffffffffffffffff168152602001908152602001600020600301541415156200ae00576040517f08c379a00000000000000000000000000000000000000000000000000000000081526004018080602001828103825260478152602001807f476c757761536176696e674163636f756e743a2045616368206164647265737381526020017f2073686f756c642068617665206f6e6c79203120536176696e67206163636f7581526020017f6e74206f6e6c790000000000000000000000000000000000000000000000000081525060600191505060405180910390fd5b6200ae2e7fd4db1d6afaad34c1c6f662aac9db2390c4631d478c522cf973cff17a04eb8051600102620063f6565b6200ae5c7fdd87886c8f8c5b4a561f66f9ec48c4acb3f5e7b3c02ae5a1bd4ede447edb2fd8600102620063f6565b6200ae8a7f1bec6e70f80774a59e8920f85e6096fee2a3ccc9c1479adbee383a62e8bf40e6600102620063f6565b6200aeb87f09ff8cc7c7ada2ed620b18b5faa8174ed9e7f22bb687c70c5d5e5b6dabe461dc600102620063f6565b6000151560a9846040518082805190602001908083835b6020831015156200aef657805182526020820191506020810190506020830392506200aecf565b6001836020036101000a038019825116818451168082178552505050505050905001915050908152602001604051809103902060009054906101000a900460ff1615151415156200afd5576040517f08c379a00000000000000000000000000000000000000000000000000000000081526004018080602001828103825260318152602001807f476c757761536176696e674163636f756e743a204964656e746974792068617381526020017f6820697320616c7265616479207573656400000000000000000000000000000081525060400191505060405180910390fd5b6200b0037f97cd7f30a09b43cd7d7a9f14aee34c151599c75b5144e6d674cb460f54468011600102620063f6565b6200b0317fffce348fe537e0cd9e0b52731bef05907ec42731a536db750a3c4f13c7e3b472600102620063f6565b6200b05f7fdb06ad4b8d8a2c29c57272e7083b68d2a85839309e07e256c76b304dea8a2907600102620063f6565b600073__$8ad4cadfbfab443c6ed09b45690dcdfb0d$__6384cefce086308a6040518463ffffffff167c0100000000000000000000000000000000000000000000000000000000028152600401808481526020018373ffffffffffffffffffffffffffffffffffffffff1673ffffffffffffffffffffffffffffffffffffffff1681526020018273ffffffffffffffffffffffffffffffffffffffff1673ffffffffffffffffffffffffffffffffffffffff168152602001935050505060206040518083038186803b1580156200b13557600080fd5b505af41580156200b14a573d6000803e3d6000fd5b505050506040513d60208110156200b16157600080fd5b810190808051906020019092919050505090506200b1a27f226a159d817af4cb8d5037d5500dc8941f5825535dc69bcd5223303a2c4627c0600102620063f6565b6200b1d07f39f16de9bebcb6aa77e1655e284a5b56ac70a2fcee02d102fd7f1edd63b7c708600102620063f6565b600073__$8ad4cadfbfab443c6ed09b45690dcdfb0d$__63fd96809e609c6002015489308c6040518563ffffffff167c0100000000000000000000000000000000000000000000000000000000028152600401808581526020018481526020018373ffffffffffffffffffffffffffffffffffffffff1673ffffffffffffffffffffffffffffffffffffffff1681526020018273ffffffffffffffffffffffffffffffffffffffff1673ffffffffffffffffffffffffffffffffffffffff16815260200194505050505060206040518083038186803b1580156200b2b357600080fd5b505af41580156200b2c8573d6000803e3d6000fd5b505050506040513d60208110156200b2df57600080fd5b810190808051906020019092919050505090506200b3207f5e764c4e90e7ed8761088ee9d398f4ea3c6625b44e345ffcdc2d294c29b15eaa600102620063f6565b6200b34e7fadd59be1989bbc100ed9d826c4fb988b57613ef4a2cfcf4d6866da76fadb4381600102620063f6565b61010060405190810160405280609c6002015481526020018381526020018973ffffffffffffffffffffffffffffffffffffffff16815260200187815260200188815260200160008152602001600160048111156200b3a957fe5b81526020018681525060a760008a73ffffffffffffffffffffffffffffffffffffffff1673ffffffffffffffffffffffffffffffffffffffff168152602001908152602001600020600082015181600001556020820151816001015560408201518160020160006101000a81548173ffffffffffffffffffffffffffffffffffffffff021916908373ffffffffffffffffffffffffffffffffffffffff160217905550606082015181600301556080820151816004015560a0820151816005015560c08201518160060160006101000a81548160ff021916908360048111156200b48f57fe5b021790555060e08201518160070190805190602001906200b4b2929190620117ad565b509050506200b4e47f97f860c0d84a24afae27959165d108e05ce63a833dfaab91558b0840a03689c2600102620063f6565b6200b5127fdc23ffba0b8755c6d937af1ab11038c9c4a0fb577c7fdd698a90779864ffa264600102620063f6565b60a06040519081016040528060a0600201548152602001609c6002015481526020018973ffffffffffffffffffffffffffffffffffffffff1681526020018781526020018881525060a86000838152602001908152602001600020600082015181600001556020820151816001015560408201518160020160006101000a81548173ffffffffffffffffffffffffffffffffffffffff021916908373ffffffffffffffffffffffffffffffffffffffff16021790555060608201518160030155608082015181600401559050506200b60d7fc8b09d5f08318382233330a17c6e8f45168ffb1c2ec23b8d892a7949cf706ef8600102620063f6565b6200b63b7ffbd63849cd7cdbabcaf8c5c58488d84a00e9d9ce6a392a18547fc854301f1a6c600102620063f6565b600160a9866040518082805190602001908083835b6020831015156200b67757805182526020820191506020810190506020830392506200b650565b6001836020036101000a038019825116818451168082178552505050505050905001915050908152602001604051809103902060006101000a81548160ff0219169083151502179055506200b6ef7fec86d0b9e3adb27e547bfe6982a49162382f32d9e0a321f344a5cd9e58a47b87600102620063f6565b6200b71d7f407cf8a87c8b060d5069571ffb92713debcd25c6fff93e020e7cce034cc46090600102620063f6565b6200b73382609c6200f5f790919063ffffffff16565b6200b7617f890a96b98cc050681de7722af516aa2ed7b59f86d1b4523d26e5dfd288f6840d600102620063f6565b6200b78f7ff26286e08f13ffacf5d0b8945f5ad8ee66623b92e91e9b9e6e2ae2685174bf2d600102620063f6565b6200b7a58160a06200f5f790919063ffffffff16565b6200b7d37f7bb9c928c3ead4140e18eeda64293a79758d0c6862d6d2bb7fbb9163369bca9e600102620063f6565b6200b8017ff6789f38822f0f7709e73fe18d4d4a826de151b932f5e3121a7a2526895b9a9e600102620063f6565b609b8890806001815401808255809150509060018203906000526020600020016000909192909190916101000a81548173ffffffffffffffffffffffffffffffffffffffff021916908373ffffffffffffffffffffffffffffffffffffffff160217905550506200b8957f9a31c02245f9b13d91f0a10f92916673be02a3e9f06985c3d3060627f1e7b516600102620063f6565b6200b8c37f0dbb3f1c1696d9e69fee9d2bfab3db72a558cb6b5bd131112970592f1124772c600102620063f6565b8660a5600082825401925050819055506200b9017f5123be82fcef626c66b2d27c4912c3197183b004d83422a5bdf859b93b1ee81a600102620063f6565b6200b92f7f8e5f5ca891d9b6bcaff16283e9830710c818cea7371a1f9bae8e914c0246cfc2600102620063f6565b8773ffffffffffffffffffffffffffffffffffffffff16827fd61caa23c7e60d69f689a83965592bc26f0dee75c1e247864bb07bbb6fdafe4760405160405180910390a36200b9a17f6da6846f465b43ddab256cc640e6369b76ad635e7879878dc95505bcb595b452600102620063f6565b6200b9cf7feec062d9b9710d0d119fdcd231962bd726210ffe0eeb4727b085520f3aca2740600102620063f6565b8773ffffffffffffffffffffffffffffffffffffffff16817f2fc7f61216f4b9da63724a7ccba484452205b7cf651334640e3cd11201786006896040518082815260200191505060405180910390a36200ba4c7f41eee1c77d949007184c46444bc026aebd5dd923f0afcf6514b8d64de14bcb74600102620063f6565b6200ba7a7fc1054bf4c62b8334811e3e63ec2e99f18396684dd6e5256ec1ff73276070659c600102620063f6565b818193509350505094509492505050565b60006200babb7f269b98238e7be55b5d7a3db79f2a96a0e9fa4e47593a6bb52d82c25d08facd7e600102620073eb565b6200bae97fa0a2fde32d4e52005b78eac14a1ab6ae68b38ec56c08824fdb8abe489653882d600102620073eb565b6200bb177f1879b1107adb408f8af76f8f45ac4e99c6f1bcc9102431bca363de52c073b1dd600102620073eb565b6200bb457fd7067e1fc31ce2497d1aad67288494aad7eff15e9ad64f38f62ac1f194430691600102620073eb565b6200bb596200bb5362007f1b565b620038a2565b15156200bbce576040517f08c379a00000000000000000000000000000000000000000000000000000000081526004018080602001828103825260188152602001807f5265737472696374656420746f204f70657261746f72732e000000000000000081525060200191505060405180910390fd5b6200bbfc7f789ba8c5ad5c32a80dfff31774c44fcc100d45bdb016459c014ebdcb9ac24222600102620073eb565b6200bc2a7f02ecd88ec5aa7f79e1b04fa2d5196f70633b82efea766ec554a5367eb186c0ed600102620073eb565b6200bc587f84142ada7d54f8294d982d77e84c506e4ebf71a6e6a8929dc6468cdca254b20d600102620037f8565b6200bc867fdd2e85517e667d030ccb809dc02f3543108e2a5e70dd927f77c9a8a594e91b10600102620037f8565b6200bcb47fa31b1a46fe654b8214ce8780cb04e88051018ff49ed0d929639c54af16d37a03600102620037f8565b600060a8600084815260200190815260200160002090506200bcf97f6b1d3517277c6dae7c17baff232a77586dc13e733d24d39144b09aff7ecff630600102620037f8565b6200bd277fb55f637aec5ea17df8d730c46751dbfa10f5154ff466b43dac32633057596736600102620037f8565b6200bd557f8f43cc292f22eccf19fb0e91fd36c4e31d3a3ea377ca734b6268c612006c6c0c600102620037f8565b600081600301541115156200bdf8576040517f08c379a00000000000000000000000000000000000000000000000000000000081526004018080602001828103825260318152602001807f476c7577615072697a654c696e6b65644163636f756e743a205468652064657081526020017f6f736974206973206e6f7420666f756e6400000000000000000000000000000081525060400191505060405180910390fd5b6200be267f1699edaedc9a0279b78810e72027cdfd7548ce0ba68adcab7134bc7a2924de71600102620037f8565b6200be547ffbb2231a60b23c47f6efeb95679d935eb66f00ee07b920f2b12efafb0b77bfcc600102620037f8565b6200be827fc99db7348e08c2dce72ee319f4479aa75684efefd9d0d1b65a7c7624a979a7a8600102620037f8565b6200beca8160020160009054906101000a900473ffffffffffffffffffffffffffffffffffffffff16826003015483600401546200bec4856004015462009f69565b6200f727565b506200bef97fdffdb994ba241c0319ac950942effbd59462326ed703faabd0e960b73b1a4c3d600102620037f8565b6200bf277fa337749e228df36ace39ec8cca41156db675ecdaa278a7102af22533d9cead65600102620037f8565b6001915050919050565b6000806000806200bf657f67054dac490c85ee27cb348f7947c8206bd638d1118776530f41b8124abd49d7600102620021fd565b6200bf937f6c9c951c9424fc2ae46c3da0a2da7810a85785eb78ddcce261b4a62598bfce8d600102620021fd565b6200bfc17f2d3b99769cfbf74e4b559baead6ec327f44984377c96a4a7c735877e1751bf30600102620021fd565b600060df600087815260200190815260200160002090506200c0067f752b614dcd43b64a7299e0f86075c6d21cedbd89eba1631abf2743b7b946af47600102620021fd565b6200c0347fbaa6dad4bf9fc1b0239fa23cbdfb6c0e927c3523ee2275d7b861051d256dfc83600102620021fd565b6200c04381600001546200c119565b80955081965050506200c0797fea25679998979202b0b4b107f89054f2794bb3bdd9a1c4d768a97a844758a780600102620021fd565b6200c0a77fee6f04d8903c6b975227c7950dc7e18945464e5271c84c489f529cf63f2a9b2b600102620021fd565b806001015492506200c0dc7f5b13ecfe45c00bb754ec25a2fd7654dd81c9999f91657f2e34069d2199ecac4a600102620021fd565b6200c10a7f1906b4099c4ff18ae8645fecee6f5c2d21335fb4a8562eee149855221076c782600102620021fd565b80600201549150509193509193565b6000806200c14a7f2a6b08f6b3d399cff480c7a89510f70c1886f224a158c7576c1240c9ac2e18a7600102620021fd565b6200c1787f0ea3092967f864d98a57f68060467397dcc8e36dffa08c8112d09734ca877807600102620021fd565b6200c1a67f7c36b0bd26f5b34abdc80b983f14a3b49aea03dfb469ac6617f36f3214716011600102620021fd565b8290506200c1d77f57992dc55ae2bd2bc00a1edba37970d7078af38a12bfd8216fe95a828d3371e5600102620021fd565b6200c2057f73cdd953316863f7c9f49d53db46b3f0c6b3b6a056ca2661cef2136875064a91600102620021fd565b60a083908060020a82049150509150915091565b60006200c2497f01f1db6c9eaeeed975bc08895d49484d16b7fafc9293c2abec87618c7b0847b6600102620021fd565b6200c2777fb552db9bdb93afb63a00691fb07e94c940edec38a20f346152b9611a90c325e1600102620021fd565b6200c2a57f9ae4b6334e7aec4e0e41059fc0ac9236c05d76dc68dbd077b1c40d29966471b3600102620021fd565b6200c2d37fe4e823fd9ceebedc9d0b8b348c80a7414b6f0e165a02fabd9cd5a8e36d488199600102620021fd565b600060e56000858152602001908152602001600020541415156200c385576040517f08c379a00000000000000000000000000000000000000000000000000000000081526004018080602001828103825260268152602001807f476c7577615072697a65447261773a207468652064726177206861732062656581526020017f6e206d616465000000000000000000000000000000000000000000000000000081525060400191505060405180910390fd5b6200c3b37fe252ba52da0f2b20c29f245fb298abc21c8250b67427122e5966ad8a5dbe66fc600102620021fd565b6200c3e17fa8ed851e73668854f81601270ea988891ee70db828dc8a984e387c9e57d62340600102620021fd565b6200c40f7f95ac37976cf8eea6b2e66f76c444faef359f36c0f00f6451f8ee99c798a037af600102620021fd565b6000806200c41d8562003d02565b915091506200c44f7f851ad9bd447ea81c76294dcb4633912eacfdcca67053064cc12a711b1de8654c600102620021fd565b6200c47d7fc9cb45d0bf10e6af1b5b19854bc22abb12a6ce6d2f3d6d17a3458b6e3007cfb1600102620021fd565b6200c48a8282866200f7d5565b60e56000878152602001908152602001600020819055506200c4cf7f64ae18e454d090e2f0263f7cbb36a4aa2890c5c054c6af5cc79042ee0d3cd4b1600102620021fd565b6200c4fd7f48fd48f1275171a2aaecc142b245052ba266fe62db5c3296f7d23ce69b3c4b78600102620021fd565b60e56000868152602001908152602001600020549250505092915050565b60006200c54b7f9c8850ecad6c2fa7acfe211222b48237be0d9bcbad3e60452d68d3be6469c680600102620063f6565b6200c5797f275b31574706d124196f93de6704fb1603f6b53479a24265557836230159acab600102620063f6565b6200c5a77f4a4b478c226922878711c7d3d5dbba490fcbb641caca51c4fbf828b8c1809169600102620063f6565b6200c5b2846200f3fc565b6200c5e07f12709aa023c7c1437d0f428fb874dd62cfefa6a94160a9856ea7be02ead17d7e600102620063f6565b6200c60e7f78d63f3dc0fcd461746a4538a7215ae972ade77c664b0c370d1c0e5b3e89e9ee600102620063f6565b600060a760008773ffffffffffffffffffffffffffffffffffffffff1673ffffffffffffffffffffffffffffffffffffffff16815260200190815260200160002090506200c67f7f7eef7889d9f5095cb7e9a72d488afd4982f8a107a26a57d4132fc1138564e9a2600102620063f6565b6200c6ad7f137d930a46031d795d8f9aa019aecef5a4cf0f4848fefcb283021777f36112e5600102620063f6565b6200c6db7f71fe26de4629c37a91f07e0109231e3f5d5f40c733a94ba80f216582feb5f57f600102620063f6565b600081600301541115156200c77e576040517f08c379a00000000000000000000000000000000000000000000000000000000081526004018080602001828103825260258152602001807f476c757761536176696e674163636f756e743a204163636f756e74206e6f742081526020017f666f756e6400000000000000000000000000000000000000000000000000000081525060400191505060405180910390fd5b6200c7ac7f2be1e9e413be5f87fb4bcd889371137221512ffc62a817e7a77831f7c5e1ef33600102620063f6565b6200c7da7f039a6ecff32526bdd163d41cb48a1505d8dc141b5e20faaceee4620ecf87ae01600102620063f6565b6200c8087fbbe5dde346889c369e578f8cdc186d6f451c6f33b7b578637b6d0f06c7892068600102620063f6565b8481600401600082825401925050819055506200c8487f66aba0f96d1f6792b608ae8d44fd94aa6faa338f3af52ab1d2e642911c3b3ae3600102620063f6565b6200c8767f9fc883e07a34a6af8ee1d8f10a216208ce6670a8e9c002d2ec0cb85ec87cfc80600102620063f6565b82156200c91f576200c8ab7f8d7b241c685f0f33634fa18a1c4d71dcc2cee767c48cc12540bdb18e9b25fa80600102620063f6565b6200c8d97f1669a514ac2f181652dcef1cb8fca3764afbcfbb250d37d2ad92a5ab5db08362600102620063f6565b6200c9077f3aee7774f03b22ab36fa3dd1cc41b17b2017c3bb5f2c3b82dc195c9dd7a31759600102620063f6565b8481600501600082825401925050819055506200c94e565b6200c94d7f87a4f3ad8a6c6df74e5096e6ae54b083ea4b142c7efc42d6e46556132a9ecaf5600102620063f6565b5b6200c97c7fe6fa6493778d9eb8ac420addc23646359bb9ded8df6dcb8dc545c8ea8f010a27600102620063f6565b6200c9aa7f26e1bab5fcfcdb48c3cf3321e63d31a3d0cc71de6dd1d2749d4a5104f0978963600102620063f6565b8460a5600082825401925050819055506200c9e87f549678919587eecbb3738c39ce427a024dca603d97dc926e6dae1f5c009a31d1600102620063f6565b6200ca167f5d96cc8aefe6b902e1213d2fdbe6ce704d6f8f3afaa08ef5a85b5d71b7d32923600102620063f6565b600073__$8ad4cadfbfab443c6ed09b45690dcdfb0d$__63fd96809e836000015488308b6040518563ffffffff167c0100000000000000000000000000000000000000000000000000000000028152600401808581526020018481526020018373ffffffffffffffffffffffffffffffffffffffff1673ffffffffffffffffffffffffffffffffffffffff1681526020018273ffffffffffffffffffffffffffffffffffffffff1673ffffffffffffffffffffffffffffffffffffffff16815260200194505050505060206040518083038186803b1580156200caf857600080fd5b505af41580156200cb0d573d6000803e3d6000fd5b505050506040513d60208110156200cb2457600080fd5b810190808051906020019092919050505090506200cb657f29e10f06f32355d2e8b458d3934535f2dc9995b7a5744376568fabc1d34b7953600102620063f6565b6200cb937ffe68b720a9443a5a2c983292cc9bbfe8f430da69cca5eb30ab5e4f1014ee97b1600102620063f6565b60a06040519081016040528060a0600201548152602001836000015481526020018873ffffffffffffffffffffffffffffffffffffffff1681526020018681526020018781525060a86000838152602001908152602001600020600082015181600001556020820151816001015560408201518160020160006101000a81548173ffffffffffffffffffffffffffffffffffffffff021916908373ffffffffffffffffffffffffffffffffffffffff16021790555060608201518160030155608082015181600401559050506200cc8d7f6d29a18058793c267023de1e500297a1b49839905f46fd7558628aa161970a6c600102620063f6565b6200ccbb7f1e48659a37d90012034ce0504abf94c687d1cde48eae1d34c8ecf6f1da685f72600102620063f6565b6200ccd18160a06200f5f790919063ffffffff16565b6200ccff7f970ea2430ac8c7129fc8eaf4f7c2f09dc3460b605ba5397bea49e71e9b74f913600102620063f6565b6200cd2d7f32ff90641404ad09eea1cd00e3bb039b4789c6b58017ea094d7e1750d00e945d600102620063f6565b8673ffffffffffffffffffffffffffffffffffffffff16817f2fc7f61216f4b9da63724a7ccba484452205b7cf651334640e3cd11201786006886040518082815260200191505060405180910390a36200cdaa7f15c6a063f9b01120a1bdb44338ffe9ad683bb9e5d0841ad21e8a6a1706a63049600102620063f6565b6200cdd87fa8ad17f714c474602870daac8b065e6e20d7dd6bc40d773bba4a1d9820c4c3c1600102620063f6565b8092505050949350505050565b60006200ce157fc82241adfb74a23d91a327ab0893a9f1287553d6616b14dd2c828a2c2adfe9ca600102620063f6565b6200ce437f30fbc8688988fc240a9fc1c2a1e3c2a43c849c45e86515212e6a5d9bb26a5729600102620063f6565b6200ce717f4e49c2ccbabec259aec2ec8da81945dad6b263a6ece7af5dd40e7a6435a2d5cc600102620063f6565b600060a760008673ffffffffffffffffffffffffffffffffffffffff1673ffffffffffffffffffffffffffffffffffffffff16815260200190815260200160002090506200cee27ff020a85bf3c444398da3b5e692275b36c2f73df41ee8abb71eb2aa6763e477eb600102620063f6565b6200cf107f295d7cc9613a35bfc18cd0c00a28b299814364a6d1e975c6d52c9215e6b0dce1600102620063f6565b6200cf3e7faf646100ef7cea788bc31925539542be76919e1c20b75bee53adda3278c6ab9b600102620063f6565b828160040154101580156200cf7c5750600160048111156200cf5c57fe5b8160060160009054906101000a900460ff1660048111156200cf7a57fe5b145b15156200d063576040517f08c379a00000000000000000000000000000000000000000000000000000000081526004018080602001828103825260618152602001807f476c757761536176696e674163636f756e743a205769746864726177616c206181526020017f6d6f756e7420697320686967686572207468616e206465706f736974206f722081526020017f74686520736176696e67206163636f756e74206d75737420626520616374697681526020017f650000000000000000000000000000000000000000000000000000000000000081525060800191505060405180910390fd5b6200d0917f4809e4c5bbee64d565bce34b7be27581d0c606f40716a84a2a4d90f079e24788600102620063f6565b6200d0bf7f8b177a8c52978e3be2e0c1e866cf5a08705f204fe91c7c0c4ed8cda8f785994a600102620063f6565b6200d0ed7fe4a5bd5803a029419c876c375b9e5f824f46c7fce5e01c37a0d004a6547762b6600102620063f6565b8281600401600082825403925050819055506200d12d7fec4ae7188cbd48a81c3ef973adfc3d60726642d39b3f613816c1dbc8438b92fd600102620063f6565b6200d15b7f7d806b11ed7aa8a8004d5bf6069d3c493eb9e5fc0d41b953fcd9ccfe7996a72b600102620063f6565b60a660009054906101000a900473ffffffffffffffffffffffffffffffffffffffff1673ffffffffffffffffffffffffffffffffffffffff1663a9059cbb85856040518363ffffffff167c0100000000000000000000000000000000000000000000000000000000028152600401808373ffffffffffffffffffffffffffffffffffffffff1673ffffffffffffffffffffffffffffffffffffffff16815260200182815260200192505050602060405180830381600087803b1580156200d22157600080fd5b505af11580156200d236573d6000803e3d6000fd5b505050506040513d60208110156200d24d57600080fd5b8101908080519060200190929190505050506200d28d7f667bfe2cd3599f95f95acc9b487b7c6bf79d4be81e953aee2a3ef3af81d994c4600102620063f6565b6200d2bb7fc72a0c558a46349161888d2b06fb31e1b14b10bc5f3a8a56cf573c58890fce49600102620063f6565b8373ffffffffffffffffffffffffffffffffffffffff168573ffffffffffffffffffffffffffffffffffffffff167fd1c19fbcd4551a5edfb66d43d2e337c04837afda3482b42bdf569a8fccdae5fb856040518082815260200191505060405180910390a36200d34e7f131210454d8d5d25dbea0d2156a9399cd9f367e741b110e1720aad6b95ce11b1600102620063f6565b6200d37c7f0afb8d2a042420390505ba73febdcad46b51fbc5787f299b0a46383a3b577421600102620063f6565b80600401549150509392505050565b60006200d3bb7f1f70bd4cac199a1a80d7f4c6aa9dc4ee340d4363387d17599d0b0b27a260b181600102620021fd565b6200d3e97ff5a4c0a6d4a3f9492098267d5e32872c51c79f88fd16476c7295a97c55520758600102620021fd565b6200d4177f71b20f107e51adb64d252d185ee8589d53ecca82cf606677146ca03e2cfb996f600102620021fd565b6200d42162011834565b6200d42c836200f98a565b90506200d45c7f30509abadea3ecbfece548aca0a5db4e1bc9eb408990a38aa30459bda86888bf600102620021fd565b6200d48a7f13e32c69eefc85a4883862d1a3d2318caeafa040750f19364160931e0456ad89600102620021fd565b6000600290506200d4be7f9dc9f4d4a314cf286c0e776a7a57a05e751e6ec80021ac7d4d064ea41df30bdd600102620021fd565b6200d4ec7f9e707761d3604260ef6f47581b90d70ce40a92cdbef03b831b3dd9922bc74b90600102620021fd565b60dd60009054906101000a900460ff1660ff16826060015160ff1610806200d552575060dd60009054906101000a900460ff1660ff16826060015160ff161480156200d551575060dd60019054906101000a900460ff1660ff16826080015160ff1611155b5b156200d5ec576200d5867fc927a18d37dc75cf332c7685e5080ca9ac5a10ac851837688c2d7096876ff895600102620021fd565b6200d5b47fbb87e89a28a7709f2ab3b65896323c89a208d86ece2f4dec9cc4c1f047a9c49c600102620021fd565b6200d5e27f9d648b024e5e21ebcd30c48ee4a741dae2a0ff26bb7b3c40ea3763758bbc0262600102620021fd565b600190506200d61b565b6200d61a7fea35e25c4e40db311fadfa03ce797daf24cafaed701ef9945af48107d0fd330d600102620021fd565b5b6200d6497f4839e995c9a1c145235ebd664f167575798bda02639b8af21cd3c9f826cc6d25600102620021fd565b6200d6777fc8e0e414452696100803d052a534cec965c83cd24910cd3aa98530910b9c4066600102620021fd565b600073__$05084330c9bf728fdd5577c5afe72a471f$__6389807474846020015185600001516040518363ffffffff167c0100000000000000000000000000000000000000000000000000000000028152600401808360ff1660ff1681526020018261ffff1681526020019250505060206040518083038186803b1580156200d6ff57600080fd5b505af41580156200d714573d6000803e3d6000fd5b505050506040513d60208110156200d72b57600080fd5b810190808051906020019092919050505090506200d76c7f189ab8eaa74c2615c2857ac5bb53a506349ed7538b5d79470312a75f13f5074e600102620021fd565b6200d79a7f297c5cf319c225c9574e70354f6700d43fb78d2d74a05d3a7b25d0b5cd16a7e0600102620021fd565b8060ff168360400151830160ff1611156200da85576200d7dd7f597e009babec2198b8fb6e057ce187221d0fce8d2df989ee6af50601b0794d46600102620021fd565b6200d80b7f6961a5cd3fbf3f221c23b06fce2f8c03a5a0699e444c3bb1d6e30ead8031b8d2600102620021fd565b6200d8397f8ccc878bf9d982269fa37694a4ff183c7446c1e8265f9ff2511a714e59f34d8a600102620021fd565b600c836020015160ff161415156200d8f4576200d8797fb63b2007fab96a7f8f7bcd67a8e6209f3a8efd6d255d25d3c2d265a489d8c616600102620021fd565b6200d8a77f299e8cb5f707bdf46eb37fc86b1fe66ca486f6beb2e6a39d29526ac811687954600102620021fd565b6200d8d57f4e3526a5ec0d2e2ef17b28b3f7760461efb7c77b5e3dd33f20cabd152109e619600102620021fd565b6001836020018181510191509060ff16908160ff16815250506200da09565b6200d9227fbda5cdd89e443f8c167f2074cb4688f5d8a3f2b7d9e859c46347d960754330db600102620021fd565b6200d9507f345c2c9cdd53c54cbe3edfc685d106face6af589b5ab00043fe3c1356e0d821c600102620021fd565b6200d97e7f6886b35900fd1cf66053283b81765768704b0f280e386ed95023149d8c32b763600102620021fd565b6001836000018181510191509061ffff16908161ffff16815250506200d9c77fc82257c75446b8c65f5bcc626f18f0939ab33ff65a3c14da2a5623e5a053e9f3600102620021fd565b6200d9f57f6fa94063b270e56af575007f5ca76d745f51fac3ad447ab1666fcdeab9604ed9600102620021fd565b6001836020019060ff16908160ff16815250505b6200da377ff7dafe165a358cf339b6e6d4ab621ba1d958c3447939e7c0c2a125c0a1f2ce36600102620021fd565b6200da657ffb63bfece7fe46ba1648904756652835c0b7c283c004b3961e56bc9397ae768e600102620021fd565b808360400151830103836040019060ff16908160ff16815250506200db28565b6200dab37f37addd99122e5219ab0853ea21d2bb16772d9e2676a0e57a5160a33acf3ddf2a600102620021fd565b6200dae17fa64edbafb6923bfbeea1b79e0e0495e0d8ec12b1d59eea08c98663de41db370e600102620021fd565b6200db0f7fa3571bc3c95b7ad0e1d25788496010aa99a5aa662f9009ff66287f75c43c0875600102620021fd565b82604001518201836040019060ff16908160ff16815250505b6200db567ffa0cc2e526f71ec9e643cf9b66913b3b3d3db9be295e0473fb8a5581bd569273600102620021fd565b6200db847f6b212456cf3c223f60a3b9baa512854625eb50105257f039da3ad0a1c75517e1600102620021fd565b603b60dd60019054906101000a900460ff1660ff1614156200dcc3576200dbce7f1dc42d98ee31a0cca0fbc3396ec55aa52ba0ced40848fc660c278909f19f75ad600102620021fd565b6200dbfc7f6b773ee8d48c2106f48f9133d52489f779cffa6376fe5390dc17399dda9f84bf600102620021fd565b6200dc2a7f962d3342e5d109a8ef3fea38bc40c408b4160e40ebf4d076ef5b6e30f2be0cac600102620021fd565b600160dd60009054906101000a900460ff1601836060019060ff16908160ff16815250506200dc7c7f69c65038951286b56563e73c06fc646d6a81ca63740333718b0b93568e3eaee8600102620021fd565b6200dcaa7f4401730427e0bfb946676d7db89eb51003b36e3cbfe4a86f912b9468064d3b5d600102620021fd565b6000836080019060ff16908160ff16815250506200ddef565b6200dcf17f402c6890a1d6b644eb43eb24b3fbfa2b79dafc1655cab205fff6a54fe109c226600102620021fd565b6200dd1f7f4b59407c6e37dfc49370a0600e64a796da6ef9935da4843b749b693d284bc1dc600102620021fd565b6200dd4d7f6dbaac72e5931ffc0521e18f413f0560174ef699bf81d9669e6f9eab5e70752d600102620021fd565b60dd60009054906101000a900460ff16836060019060ff16908160ff16815250506200dd9c7f8a597bfa422359afb7df4b20be57f0f3a7472a72657ffd0543122dfb91171371600102620021fd565b6200ddca7fb15d6a0ce916fda79dc96183431d470a90e4c6e1b85b78083a6c4cfa8e8f34ef600102620021fd565b600160dd60019054906101000a900460ff1601836080019060ff16908160ff16815250505b6200de1d7fece50ea5963433263fa32d9703f6573c3f912ad680c4dfe29f992b69ad42b59b600102620021fd565b6200de4b7ff10d90047a04633f36e67fe16e2c916c5446ee5eb946f50eba90d92b09b20258600102620021fd565b60008360a0019060ff16908160ff16815250506200de8c7fc94dad16fdf5e0f678371132eb140bd47cdb3b925e684c24eaaf282fa6460508600102620021fd565b6200deba7fb64d30a2732f86a7fadb7a5ef2b2f4f78625b296d266813d7fd676605077cb40600102620021fd565b73__$05084330c9bf728fdd5577c5afe72a471f$__630a37f14b846000015185602001518660400151876060015188608001518960a001516040518763ffffffff167c0100000000000000000000000000000000000000000000000000000000028152600401808761ffff1661ffff1681526020018660ff1660ff1681526020018560ff1660ff1681526020018460ff1660ff1681526020018360ff1660ff1681526020018260ff1660ff168152602001965050505050505060206040518083038186803b1580156200df8c57600080fd5b505af41580156200dfa1573d6000803e3d6000fd5b505050506040513d60208110156200dfb857600080fd5b81019080805190602001909291905050509350505050919050565b60006200e0037f6c7fc01b48bd284ce0b708c4bb14c0d3ef0955adf8f22f727b72044b96d59440600102620021fd565b6200e0317f6a37003f399b3b8ef4dc441edc721a30f889c4fb9c4cbbb411ae1d88df987215600102620021fd565b6200e05f7f45641ea4c00559d21e8cdd2ed7525771e18a1aeacc30943b2506118eae0ab954600102620021fd565b600060e2600086815260200190815260200160002060008773ffffffffffffffffffffffffffffffffffffffff1673ffffffffffffffffffffffffffffffffffffffff1681526020019081526020016000208054905011156200ebdd576200e0ea7f3e03a58b2484027ab7b8b05310478a420c2720e93ea7d5c30abfa77b1113b837600102620021fd565b6200e1187f5610aad962748451d4f25aded5abd4545aefbdf10ff310b6d2bf9eb0121dfec0600102620021fd565b6200e1467f0a21e934f356f99579396bfb18e15bdd9ee136e2bdb0c1588f7ac2d546fe3400600102620021fd565b60006200e1767fc6267d462683b71d4858e3ab60fa8ace6c774ae5e50c1d96e7288d2e25548449600102620021fd565b6200e1a47f9933d74d097aff5df0d107d697a6911d45cc5277246ed94c4d6d83e1050cf70d600102620021fd565b60008090505b60e2600087815260200190815260200160002060008873ffffffffffffffffffffffffffffffffffffffff1673ffffffffffffffffffffffffffffffffffffffff168152602001908152602001600020805490508110156200e807576200e2347f5475417452ad8c3e75fcd672ba0b0f3721d7d82c4c566c6d66b92c45d227dc54600102620021fd565b6200e2627f5951fe4093bbbc465837b768a2390c8a9fbcb98c3b6805420845158ea62870cd600102620021fd565b60df600060e2600089815260200190815260200160002060008a73ffffffffffffffffffffffffffffffffffffffff1673ffffffffffffffffffffffffffffffffffffffff168152602001908152602001600020838154811015156200e2c457fe5b9060005260206000209060029182820401919006600c029054906101000a90046bffffffffffffffffffffffff166bffffffffffffffffffffffff1681526020019081526020016000206001015460df600060e260008a815260200190815260200160002060008b73ffffffffffffffffffffffffffffffffffffffff1673ffffffffffffffffffffffffffffffffffffffff168152602001908152602001600020848154811015156200e37457fe5b9060005260206000209060029182820401919006600c029054906101000a90046bffffffffffffffffffffffff166bffffffffffffffffffffffff168152602001908152602001600020600201540391506200e3f37f2c92c6449cfade96ebc3008b98864af7fe05e77faedb12b95eb18ca6d2390aed600102620021fd565b6200e4217fa24e08921b6c19c081a279f7fd80a189e7ddfdbc3dde71f091c006e1e40d5e89600102620021fd565b818411156200e67e576200e4587fb9706918c83c962b761f65db4348f28a1aaa5344e33ce0c8a8dbad711fe30307600102620021fd565b6200e4867fb7dbeff4a59c271b7ce0e0f67340b40771e439922a468388c671ac42eb370d83600102620021fd565b6200e4b47fb4180a0cc81b1ba340fab952368844081afdafd580cf128a21e27c3f5809c336600102620021fd565b81840393506200e4e77fb2b98fae8a7bade14ba8d9eaa64606b9ab04a73ffad5ddf1f553ba02e96fb12a600102620021fd565b6200e5157ff5153cdbe8366d96a58b2151ccacdc80510685a5e0f2f031a257580bf654f74a600102620021fd565b60df600060e2600089815260200190815260200160002060008a73ffffffffffffffffffffffffffffffffffffffff1673ffffffffffffffffffffffffffffffffffffffff168152602001908152602001600020838154811015156200e57757fe5b9060005260206000209060029182820401919006600c029054906101000a90046bffffffffffffffffffffffff166bffffffffffffffffffffffff1681526020019081526020016000206001015460df600060e260008a815260200190815260200160002060008b73ffffffffffffffffffffffffffffffffffffffff1673ffffffffffffffffffffffffffffffffffffffff168152602001908152602001600020848154811015156200e62757fe5b9060005260206000209060029182820401919006600c029054906101000a90046bffffffffffffffffffffffff166bffffffffffffffffffffffff168152602001908152602001600020600201819055506200e7f9565b6200e6ac7fb415912d3fea91b5f4c17ee3a8ac7667da4901e870c5dfb509e141d8342dd6d3600102620021fd565b6200e6da7fd3fafa6762968c1bc7df1988142b74a15252d3b157ba4c57dfa893d812e668c8600102620021fd565b6200e7087f97367abec8482e9e3592b8ef912f0e5b6d9fbe32ef94d8edfa4adf37aad37efa600102620021fd565b8360df600060e260008a815260200190815260200160002060008b73ffffffffffffffffffffffffffffffffffffffff1673ffffffffffffffffffffffffffffffffffffffff168152602001908152602001600020848154811015156200e76b57fe5b9060005260206000209060029182820401919006600c029054906101000a90046bffffffffffffffffffffffff166bffffffffffffffffffffffff168152602001908152602001600020600201600082825403925050819055506200e7f37f5de32c9473ec55f83bf246d78f12fd508ebbac96154f5362de89998f6df41abf600102620021fd565b6200e807565b80806001019150506200e1aa565b506200e8367fab6fd99882dc99305c9e7aa3df4bc3415d6278b1209971241c7d679570c5932a600102620021fd565b6200e8647ff9c6b849998a785aa1b465d2b5bf81a3bc769b62f790010dd5be5685906f1664600102620021fd565b60e3600086815260200190815260200160002060008773ffffffffffffffffffffffffffffffffffffffff1673ffffffffffffffffffffffffffffffffffffffff168152602001908152602001600020548411156200ea70576200e8eb7f656925be81ad07f711fb2853f2d96882edd15b630070f5c55b9dfddd111def18600102620021fd565b6200e9197f3bd8fdbe6606aebfa1a5081203b96bad66837cb3a411f1c5e80eada525d9dcd7600102620021fd565b6200e9477fdb123ab0412f314d23ae0d9f90f89f2e10a6e41033d4eeb7606482be127dd0d8600102620021fd565b600060e3600087815260200190815260200160002060008873ffffffffffffffffffffffffffffffffffffffff1673ffffffffffffffffffffffffffffffffffffffff168152602001908152602001600020819055506200e9cb7f9f5fe2723276cdcdef377295aec0c8c49e37e9e7bbb68690a4aa2dbebb6cafd7600102620021fd565b6200e9f97f3f5f81676e5f5ee30fcde939ff01b915edc3ea103aa9d270ffb09a2b7784a3be600102620021fd565b60e3600086815260200190815260200160002060008773ffffffffffffffffffffffffffffffffffffffff1673ffffffffffffffffffffffffffffffffffffffff1681526020019081526020016000205460e66000878152602001908152602001600020600082825403925050819055506200ebd6565b6200ea9e7fc47483b50fffcdbc077fcfb6da84b9b011b79f95d813fbc6529d027f58dfa5d0600102620021fd565b6200eacc7fcbfc3d9075fed53ed752549af9f9c792cd822a108e157857ad73c097403e2499600102620021fd565b6200eafa7f11957a4468cda2850e8275efbbcafec715df25669241cca53d605f7ca52bd238600102620021fd565b8360e3600087815260200190815260200160002060008873ffffffffffffffffffffffffffffffffffffffff1673ffffffffffffffffffffffffffffffffffffffff168152602001908152602001600020600082825403925050819055506200eb867f6d94e0b2ed13a9c52db7bddd9bbd1c479a4ffd01ade8bded8f11991eee5b5465600102620021fd565b6200ebb47fdede6b286c1629a1780a72f861df93564d8c27f9a5decd928f33b7c1282c0e05600102620021fd565b8360e66000878152602001908152602001600020600082825403925050819055505b506200ec0c565b6200ec0b7f3155d3f0fbcdb604e7ed1c06c1a6985d70c5b46a107c68f130b32bf58b18d40a600102620021fd565b5b6200ec3a7f40a8e73bbcb01d47b5671c52a9b29a286fe71eab24c4e624650536ff64513458600102620021fd565b6200ec687f38ff2d211281870e6fb6c4b4f1680b0a20528644ce5b213aae44cdff98eee966600102620021fd565b60019050949350505050565b60006200eca47f1e389c3a59451a90cc38a462ab78e585703d049faa682b547afe962dd782d9fb6001026200effd565b6200ecd27f91294d2a3cd14ca48c2829d94278cbbc8da604b303f69291b78cc7a96433fb6b6001026200effd565b6200ed007fed54bc75583d419ab275e8111912b68693321933fc327bb4bcf80928ad8b8b496001026200effd565b6200ed28836000018373ffffffffffffffffffffffffffffffffffffffff1660010262010335565b905092915050565b60006200ed607f3daffd0a9dce28b482d01a551215671bf4393bb2c14e29701cf4960e2f2b12926001026200effd565b6200ed8e7f40aa26a0e9be8d065cf56c5a97ee7ecf2d6f7f27a85e81ebb85bf92a3fb598c86001026200effd565b6200edbc7fe7416d2a3843e619b1224850d86b591b72a1e287cf0e1b4b38a8e263ea5326976001026200effd565b6200ede4836000018373ffffffffffffffffffffffffffffffffffffffff1660010262010604565b905092915050565b6200ee1a7fedea06ed59008997c5743a16db8568bab5dd9f9c34ed04b0f769daf451feb4796001026200418c565b6200ee487fef1f4435b8ae57ba06f31930b3fb8c9cc004c60b2991c9854f356fda1be49d1b6001026200418c565b6200ee757e8e26e72734111ca057d72127912f0212f88739a7285da44b27658c44d821cd6001026200418c565b8060336000848152602001908152602001600020600201819055505050565b6200eec27f811d9b367083ade010308c3df46e6c1a758d0a4e066263174dfb6043b644e1736001026200418c565b6200eef07fdb6ee36fa74bfce73b4d7febf4feaf4bdebc1210aab6f5b8693bd4a1f8853a266001026200418c565b6200ef1e7f85d239db3b4d1b9cced29486f7c80ccb652aafd8e8eae3f7452473f2cc89b51a6001026200418c565b6200ef2a828262008542565b5050565b6000808311829015156200efe0576040517f08c379a00000000000000000000000000000000000000000000000000000000081526004018080602001828103825283818151815260200191508051906020019080838360005b838110156200efa45780820151818401526020810190506200ef87565b50505050905090810190601f1680156200efd25780820380516001836020036101000a031916815260200191505b509250505060405180910390fd5b50600083858115156200efef57fe5b049050809150509392505050565b50565b60006200f0307ff852b790830032d89971e2c521d42063f93f9915f774b150a71f19bed01505fa6001026200effd565b6200f05e7f02a432993c4332c426e42b943b3b019f4f8176664138a13b7aefd4766c8779426001026200effd565b6200f08c7f4106100c6ddc9e9685bfafb2331061f66fe0bdf557d61e86d3a9e77f415df1c06001026200effd565b6200f0ba7f74042fd2ce01d2d4e5b83168db3daaa0ada16dcc55033ff01c774f8d3b09d26b6001026200effd565b8183600001805490501115156200f15f576040517f08c379a00000000000000000000000000000000000000000000000000000000081526004018080602001828103825260228152602001807f456e756d657261626c655365743a20696e646578206f7574206f6620626f756e81526020017f647300000000000000000000000000000000000000000000000000000000000081525060400191505060405180910390fd5b6200f18d7ff5b89a497746cc14694c9f1ed1aeaef6a21f81b1a91b334ac822cb679c327c546001026200effd565b6200f1bb7f3d2a328b4224524dd5bf276581f8c7e30b93161a3146a223de54a8178318570d6001026200effd565b6200f1e97fa53b31889d5006b4901ceb793559ba11b86794ec37414fd5e2572de69058b50b6001026200effd565b82600001828154811015156200f1fb57fe5b9060005260206000200154905092915050565b60006200f23e7f0210cac0db58119dced257e99daceaaac77667d292149865bf117b7ca9eb4bce6001026200effd565b6200f26c7fbb32f6a0da519ded942950a6895a2c4b30863d395a47575812ea09df9c76aeef6001026200effd565b6200f29a7f2d7ec9f89494f43c00f58c9ac42d6c4126f5ad30efc6a67b48204435b90bdbe16001026200effd565b6000836001016000848152602001908152602001600020541415905092915050565b6200f2ea7f7e529621f6492303071346598b2c2ab4383f67827f174c4fc45f55a7486fbb2060010262010b4a565b6200f3187f3ace7cb34156435273cfaca2e8be94d1c855160569772711a5181bff3e7d870960010262010b4a565b80600001600081819054906101000a900466ffffffffffffff168092919060010191906101000a81548166ffffffffffffff021916908366ffffffffffffff1602179055505050565b60006200f3917f808fe5bd45f46ab8ff1cb9aa9c9a30377ea23be0941c4795446d41d254aae5c46001026200effd565b6200f3bf7f556bfe46c39f16f279635b09a7f3e6cb0df504be781b0931db8a40bab702a7976001026200effd565b6200f3ed7f5852ae1c75c424755782c3fdffd26401e1354b9b177513f37690d594b1ebc8ac6001026200effd565b81600001805490509050919050565b6200f42a7fd1c72c9bdc3ca9a4257e4ddf645a869b391e970ffd9bff34df0d0528a3ac4123600102620063f6565b6200f4587f8f4f7dba546226f7539a16ab9066c75e7e81e9673b6f68728d46fe1f3a61887c600102620063f6565b6200f4867fcd170f4119e3aca60e7724267684566dd2041c7d5aa444acd028429d3f748feb600102620063f6565b6200f4b47f6a63989ee14a10486b835350903bf45415c808a528500885e6619c5399aefc42600102620063f6565b60995481101580156200f4df57506098546200f4dc60a5548362009c5e90919063ffffffff16565b11155b15156200f5c6576040517f08c379a00000000000000000000000000000000000000000000000000000000081526004018080602001828103825260618152602001807f476c757761636f696e536176696e673a20746865206465706f736974206d757381526020017f74206265203e3d206d696e206465706f73697420262063616e6e6f74206d616b81526020017f652074686520746f74616c2062616c616e6365203e207468652062756467657481526020017f2e0000000000000000000000000000000000000000000000000000000000000081525060800191505060405180910390fd5b6200f5f47f90cf296771fd961654f91d9695f3942bb368f3b2cfa1c69ea5c14349e4e93dad600102620063f6565b50565b6200f6257fbcaebb551cb10307d679206507663caa4acbba9b1b0353b620af65584aa4ab0160010262010b4d565b6200f6537fb8323b93377b581c7c9273470d53db6e200bf56d99657b15faf5e75bdb3a657260010262010b4d565b6200f6817fd92758d4ee4f58f25dc81e5be4b43b107c89734475cef12b6b66d6acaf18d52260010262010b4d565b8082600001600084600201548152602001908152602001600020819055506200f6cd7f94dab526c4ba7bc55388dd3395376d48cd4eb32ab536ae2b4f6aae6ef9b4c8be60010262010b4d565b81600201600081548092919060010191905055506200f70f7fd5f8dffb3859ad22d5ac650aa7d815132960535083211d846becb96b4481c6b260010262010b4d565b81600301600081548092919060010191905055505050565b60006200f7577ffdd89320185995bfc90bd2f435a9e7d12cff2e212aae18da6f0c108a2fefca4f600102620021fd565b6200f7857fdbc8a71c599f71825cdc422cf59f398f8a51348d18be2d4257eab9c208d7587b600102620021fd565b6200f7b37fc5b503a3cde8ae5bf7e248fa24ec9a90f4b2c81090d36d4d2aca1fbc4bc22b92600102620021fd565b6200f7cb856200f7c3866200d38b565b85856200a042565b9050949350505050565b60006200f8057fa303f98cc6ce1685bf6e989f8a0f8f49483b345121b408ad42b01dd5afb23213600102620021fd565b6200f8337f26467551d1eb7046f688248f652d228c1bf6806be3899b7f4e90791b2a6d1a70600102620021fd565b6200f8617f11d8ce75fe5c00ee2f34c37514086193c9a3600f53beb978aa57bb82141627cc600102620021fd565b6000846001868603014285434042448a8c6040516020018088815260200187805190602001908083835b6020831015156200f8b257805182526020820191506020810190506020830392506200f88b565b6001836020036101000a03801982511681845116808217855250505050505090500186815260200185815260200184815260200183815260200182815260200197505050505050505060405160208183030381529060405280519060200120600190048115156200f91f57fe5b060190506200f9517fdae38433414487548a7bda5d73b7548dbd3ad7cd576556c1d1a83b89af7f04b8600102620021fd565b6200f97f7f1a7558312e1162d125dc230586cf1dd39edfac64ccc12c9ea8747bb6ba6c7342600102620021fd565b809150509392505050565b6200f99462011834565b6200f9c27fbeb1c88f1ae596c518fecdf2969afbcd18309ab1ba07bdd0515795aa5e5d7bca60010262010b50565b6200f9f07f8207724107452dc74ed129d680b010da484b3250915c6b3b80e39fbd0746732560010262010b50565b6200fa1e7fcee2cb85dacdafd19ff63bbcbd543c631167b6f5b3a5530da0121fdae154ad7360010262010b50565b6200fa298262010b53565b816000019061ffff16908161ffff16815250506200fa6a7fa76698c6a56b758a87fc1e9813a5cb387256044cb14c2afadf111db4c9fc0ca660010262010b50565b6200fa987f410af78408da8ec31182f9ecd5b8ea2bbb7197ea2216d3259075870623b707ec60010262010b50565b60006200faab6107b261ffff1662010fc8565b6200fabe836000015161ffff1662010fc8565b0361ffff1690506200faf37f6a01c63fd740b45b38ba38232e43a51e3a35dcf9de0d19fe4b8bfa26b140fa7060010262010b50565b6200fb217fa189d66169d98e4af2300e21fdad4e0cc9ef8d463eb772d04fc5c981301d755d60010262010b50565b6000816301e2850002826107b285600001510361ffff16036301e13380020190506200fb707f65c3cf497d2e456bc55bea799cb8dc0d51a2bab00d432c198f7f3f3b0405928960010262010b50565b6200fb9e7f6a67a4fb3b94133a63de1451dcd85e5c5cda55768ec0988438d9e929ada6a21760010262010b50565b60006200fbce7f9522db35201a625d03047e0a83e405abaf708c2f21c844b40412aab518f9212660010262010b50565b6200fbfc7fb6f1e4f1ee721eef05777a511afc53d357b3ae4fa3d5ff1f17674b0c1ec0757160010262010b50565b60006200fc2c7f4bc272dac49c832dcb7fb4035ab3b3f110a9f43623381a480a7246bc0bf718f660010262010b50565b6200fc5a7f75fed6daba885d0578445ab7b7a66b57b2282cfc36ec37c07ee2794172677fb560010262010b50565b60006200fc8a7fb6f7287c6473a50e1b38b41f83e2246d4e8d12b888c2946ca04ed94d67b8ff6560010262010b50565b6200fcb87fe82fa837660b9fe78ef08c9641a9b9a03fdf575d220322c04f0291003060741460010262010b50565b600190505b600c8160ff161115156200ff78576200fcf97ff9f7984bfed3c0802cbc69cbea94f0d61a4713b938ef0b6c9636ce0a2b99027b60010262010b50565b6200fd277f806c13d853d4c035d109dc0270a6db1c75bb1568248619867fa569f4f48105e360010262010b50565b6200fd3b81876000015161ffff16620110ea565b91506200fd6b7fc099bb14d589016a9243cb70c21e09a5618fd9bc114078866329a6321a0008d760010262010b50565b6200fd997fa8c153fbff1e26f9d2c92821d7f6f66b060a48f93beb3714c37b0b54e0c9c30860010262010b50565b8160ff16620151800292506200fdd27f3fbd1670a45e3319798a4ccb23b60ed01d05e0eee1957336f68b71104e75fc0360010262010b50565b6200fe007f9ffe33813370748665e6754a45c7b9a2c8a54ff021bf53c80ae4a141841e704c60010262010b50565b8684840111156200fedb576200fe397ff05dc18d17043d62fc1e765561be51de7e18c1c3277872abdcb32fad0cb6632b60010262010b50565b6200fe677f7c233dad1f6a192553947a6d7ed76b62b4f60d9a4c56eeb17f871d055bb4542f60010262010b50565b6200fe957fe24e95afe2b1b86be04e04f8936c3d0b17b7e70bddd237271db5c52fbf84e3b760010262010b50565b80866020019060ff16908160ff16815250506200fed57fe86a405280771711451be0b334aa76ce095a3ff4971daee704b0207c035f9bf660010262010b50565b6200ff78565b6200ff097f123af6654288920957bed7acbd33b8c89704966fa0a4ab95492c96874c98b84460010262010b50565b6200ff377ff82784811d350e107c487ed23190e7f92019191e729a1b53249be70b34fcf9e260010262010b50565b6200ff657fc16afb265ab91b6c1205c88dcc624bf2874ee09e9b66e1a0ba241871fb4d412660010262010b50565b828401935080806001019150506200fcbd565b6200ffa67f3188a408f43491dd6c23e72f71657348f6e51fb478d0afdba7f562b408e26dfe60010262010b50565b6200ffd47f2a6cdafdb8911e44434b68183eab43752f32c4d2b08120dcb06db38f724dc93460010262010b50565b600190505b8160ff168160ff16111515620101c357620100177f572ea494e893c2dd97e26de0a8cfc31f887d291a8823fb9ec8758a569640103b60010262010b50565b620100457f7e2c8734b00f104076ef6a23c664fb3f90888db583e8096e4cc5c8852d3fd66960010262010b50565b8684620151800111156201012357620100817ffeab6427bf51e972eda648d3eb6d482ad5850bcc5655fc88271ec789e10460d360010262010b50565b620100af7f46244ec7fa678ed3f30faf4a9033444dc3168e60b98cd680f8dbcaffcd26bf4760010262010b50565b620100dd7f256c99a2fc0f0a860a4330f973fd96bd84da087798a86b746f8d2d86151676bd60010262010b50565b80866040019060ff16908160ff16815250506201011d7f5f21e22de5f3f92f2c1d283827b94b347e1098b87b2d012bb7175fdc2668f0f860010262010b50565b620101c3565b620101517f50b662ecbc0a369719a389b0d7b8656be8db9487ba4bdb484ee14c780dcf91fd60010262010b50565b6201017f7f6a5ea1c27edf78adb18ffe7c502c3ea753abac5ada22f584f0ce3774e2ae352560010262010b50565b620101ad7fc9052f7d8f77e1d46e13e88e424686638bea10f2142d0c4ce704c382af84e26160010262010b50565b620151808401935080806001019150506200ffd9565b620101f17f7e1f5d91663ead1864ef52ec5cb592444ad33cd66493bd7e97cc4b028bfebbe260010262010b50565b6201021f7fb6ac75779ebd95d710ba8ff863f971e2cbb727099fdac0de6671db3d99e284a660010262010b50565b6201022a87620114d7565b866060019060ff16908160ff1681525050620102697f57059e354f5d8f83342699811e06f3932046bb0898077b7bb58911cf5e78759260010262010b50565b620102977f509e1093fcae8976f27b921fd34f5a734984bab933b349bf6f169910c0f60dd660010262010b50565b620102a28762011586565b866080019060ff16908160ff1681525050620102e17f2396debca5be8803b6ba608c2cd07c3901e31868d93e1d75269f5bc9ea1ff33160010262010b50565b6201030f7f496897ebded4144c69dd0c31e326ce1cd614da28d571d4f7875b5da9ff820b3c60010262010b50565b6201031a8762011633565b8660a0019060ff16908160ff16815250505050505050919050565b6000620103657f411725b9e6b16644ba52449ec4d36b92dea2b1bd54b0f03c783a20b7890d00eb6001026200effd565b620103937f9bd634b5b92fd3e06f26a52ec2939a4a0a84952a011ea5514bc62a4c5373a55c6001026200effd565b620103c17fea4ca516a6106cab84a6a4e89be0f7002b5d6eb029ffab4c054b7ee765fc3c2e6001026200effd565b620103cd83836200f20e565b15156201056f57620104027fb46577be114288cc2048caa1c7c40b09dc718696d9a09f0499a1547eb16451a96001026200effd565b620104307f699f127f4fce6e368acc157cac121779c534d2aa962d0533bfdaaae1d69ca05f6001026200effd565b6201045e7f521bb0fe62e6b7fd3853af763e653963a8408ffb348ef253e2d2f6e4ce4cd2216001026200effd565b82600001829080600181540180825580915050906001820390600052602060002001600090919290919091505550620104ba7f9b482a5f51b8ea016ff5ab73974f6b85a6fd2a1eb01a8ee81de32df7a2a8da356001026200effd565b620104e87fce3c0267f6afecccc16fb1df160b30bad8dd9e6470f2c250c65f5d16f55953836001026200effd565b826000018054905083600101600084815260200190815260200160002081905550620105377f1428e26d804ec500abd0e9390b2940e16e23c588838979a643dc197ecc45d3146001026200effd565b620105657f0b321acd305614c64bd3b03df9b54fda13512f699793d352dda406f5377d654a6001026200effd565b60019050620105fe565b6201059d7f7a5ecc9f91718277f21ffe36d4008cfb52c45cb4a3d02c8d3ad7b368266b527d6001026200effd565b620105cb7f594e731be2305a9bbd344870cf0633f896cf7c8a552149ac8c3887f5939fa2cc6001026200effd565b620105f97fce845126564f88320d57ac15815dc9da8f604bbea797690ee5dd29256f4490ef6001026200effd565b600090505b92915050565b6000620106347f8de4d4b62709fb9aa3764ecad70f3f67ded177953e8d0b3fa69eb7270f7a72b86001026200effd565b620106627feef1a22ab497f0a0b5773c261963d43f0abced69475a8f361c4c09940a2e0f116001026200effd565b620106907fd3ffd1de8410e1a5342524eadcc24cec3d13da46f520a8ff3842159d8ac513816001026200effd565b6000836001016000848152602001908152602001600020549050620106d87fd29f0954420e0dacdaf662725b7670ca376b5ecb1467eea88f3ed07b3cef9b2b6001026200effd565b620107067f416543475b2a4ac207e92b54c5a89b0283eb8a6898f17e8a422c8a2b3bdfe4dd6001026200effd565b60008114151562010ab4576201073f7f53e6da82d3cb4b8c67410d9eef4d4d2578dc84336caa8505c50feddb82e7c74e6001026200effd565b6201076d7f9985aa50040fc25f597dd3c0a0ef9e1794881ab1e07bd05e1686a5c7731277186001026200effd565b6201079b7f924e66bc6d3998d3584ee5dec8380db18c7801386c9813e9c519c714f9cf05b46001026200effd565b6000600182039050620107d17f0464100dfed97956c95ac0853f67804ec637520949c0ddf43963e7218712c4ee6001026200effd565b620107ff7f31239a0e5e1877005aeaa2cf67ecd4f26333ff91ac415b7b58467f96b928e4706001026200effd565b6000600186600001805490500390506201083c7f0e8690e5eba3bc911cbe19ecc595ae9d5a7041f8b723ff9c12a4707e72d1d7096001026200effd565b6201086a7f187fa4fe781f8142b1e1da8868034ad381d767259bb390adb2ffa112cc52f2726001026200effd565b600086600001828154811015156201087e57fe5b90600052602060002001549050620108b97f9edf3971b67091da233f4cee6fc830f48fc8dae83e1acedbee273f8618720ca86001026200effd565b620108e77faa77a760e845cf44dffa170ad08e7782cf1bbc412ad237c88b0c772676e915086001026200effd565b808760000184815481101515620108fa57fe5b9060005260206000200181905550620109367f91a387f2c534fe2d9593060ddb58e0e80cbd7962a699db2183f7fd9ac7bf071e6001026200effd565b620109647f5273e3157ed309e995284bc9a0977b5e190f596e6d0a7d6a98f63c6c2e9d2cf56001026200effd565b6001830187600101600083815260200190815260200160002081905550620109af7f6d6ed45f9faffdfa6efb315d613b5cf6f6203c948a1d42a6be8e892393847bf56001026200effd565b620109dd7f9c908650b18c4d06afe6e22d13e282f9f484d9b002a6121d345881d9d8d830926001026200effd565b866000018054801515620109ed57fe5b6001900381819060005260206000200160009055905562010a317fd1882d1c724fb038c1a118718cfe41c240fcbb742f29604cb573449c428371b76001026200effd565b8660010160008781526020019081526020016000206000905562010a787fc7f15540aa2b0ce236d481f7560d15ffafee2f2e30cac9beab7e15a266dfe9a76001026200effd565b62010aa67fd59aa80060ea20a1bee9535659b672619a59eb9abf365dafefcb942c2613c7f26001026200effd565b600194505050505062010b44565b62010ae27f510cdbe5cda3c6cfdb8e3b071d5f7c35ea460dd72c7be1c916a1934f864dea146001026200effd565b62010b107f69556792cf99684702e25e6dffc56bf298f3be73f828931c796488097d672b3c6001026200effd565b62010b3e7fe7dbbe65769452c853cae620146590604b6b716ac01fb8b203f1ba9fc91fc2246001026200effd565b60009150505b92915050565b50565b50565b50565b600062010b837fb12ad78b1876d14abaa37416671bd07bed080a6ce64b371bdfd7e2d69d89da6e60010262010b50565b62010bb17f6c06717daf4584869deb27237b0c27fb71b4bf54141f6fb6817c9a7083688aba60010262010b50565b62010bdf7ff007e8ce052e12f2d9bf15fe86b6823999a3c41af914f5f26d038a66674422af60010262010b50565b60006301e133808381151562010bf157fe5b046107b261ffff1601905062010c2a7f9f24d204f8e8b55dda232ace5da3fe70f2008525f5cb8e874eb1ea6a4fe7e88260010262010b50565b62010c587fa8f5f468d40e0ee31e441b11ee194e32890c772b4f58e9af8b5b41d398fe187260010262010b50565b600062010c6b6107b261ffff1662010fc8565b62010c768362010fc8565b0361ffff16905062010cab7f66affc12d63b8855820aa906e9a4b08c2feb4edb8a116a91f556979f3ab99ced60010262010b50565b62010cd97f3bb09d0037b739d50b6349daabc35de9ddb93a013c8fcbff0af23e099adcbb0460010262010b50565b6000816301e2850002826107b261ffff168503036301e133800201905062010d247f3831d2f46af76e575f65fd9ebffccfe8f17e118a92c6265ff792c3fdcb555a7960010262010b50565b62010d527f3e93a3758d1da71b45b1a9fc01c8011db23a18c98a24061d6e3aa8602da8247e60010262010b50565b5b8481111562010f615762010d8a7f603f8c0b01d48857d77b539a8e655e56c07b3c48fd7e9ec719459cc8f2dd36cc60010262010b50565b62010db87f6e46492d3df9309fcb22ad59e97be4a0b069b31f67d27fb48f6a34363dfa162b60010262010b50565b62010dc660018403620116d4565b1562010e655762010dfa7ff155b17cc897643b41df67d3561cc347f9bef4a466b3df72a02f1d326f96e3ec60010262010b50565b62010e287fbcd6f205b1d394b650b54511aca8b4e9d42ae52409dfae8b84bf10b3ce084a0460010262010b50565b62010e567fe0d2cb0b4b54776f7c09b0b36f7ff6de0e2f4385a9cf7c33799b791b5dda635060010262010b50565b6301e285008103905062010ef9565b62010e937f1e9259b08c5dc9653126ea6fce79b6f72e0dd454c90c0cbf400d543ae59f7adf60010262010b50565b62010ec17f94c55045a4ec3af02cec0a1fb9ea26f4ebd96e1d9fb84bc225c402e0a603af6060010262010b50565b62010eef7fd162d092a0721c0063aa29dd083713e6957b2c87c7b44a0a8ff66cb07fdf303b60010262010b50565b6301e13380810390505b62010f277fcbae63fa06e6039f9c7f4ebaede7eb6aacf5468defd4888d5e8445c1bc9cca5b60010262010b50565b62010f557f5144054db1d58dbe626c516d675ab9e9455e65461e6162f87854014dfb8b021760010262010b50565b60018303925062010d53565b62010f8f7fce34780398d4a6d72cbbbb4d13a62cda7954f54ab95b8b90f1810060679b4e8360010262010b50565b62010fbd7f51e4d4712bf2ea774012502a24a8ba7762dd3d4d2b7ae816b41d57aa64e07d5160010262010b50565b829350505050919050565b600062010ff87f8fd1d551816c5ce457c6fcb88fe17cfef05bd0ff60b2f921fe4ae5168cbe2e6b60010262010b50565b620110267fbed93439f285e4f9ccd9a830a4b1df97cf1548246074aba6d87013d06321877660010262010b50565b620110547fd9f53f917a8b8e0eee460e30756ef4eaff78b0a3b90b4b451feb9e1863390ada60010262010b50565b600182039150620110887fe952482a9f34e37dcdb0077c226887bf334f24027405859080e4bc049d8b9a9660010262010b50565b620110b67f6f95896d861a1cf4ef23bc40c92abfbca3affb80257f517f2c007562da81a80260010262010b50565b606482811515620110c357fe5b0461019083811515620110d257fe5b04600484811515620110e057fe5b0401039050919050565b60006201111a7f966599230b2efe1217cf9a88ea1a477ee4707204861232319b6c946d000d830860010262010b50565b620111487f6b283944c5f6af131447249ba3ee43ff2718d04e712b34fd445d2f93045ed4d960010262010b50565b620111767faf744b6260b93deb033e632509d37e335b0846c424a549984680a439b124952a60010262010b50565b60028360ff1614156201131857620111b17fbbc6e5f05e60723a2fd98775070cdb71d4d05117e72768fc24d09ceb3b54ceee60010262010b50565b620111df7fbd8714a14ded21c1f0ef248834bf451f5f001d2e258588d47f591017749d7cde60010262010b50565b6201120d7f7ff2a0a65e08d801c71d32e5fa6d21c7c14daa7b9b52e6911951e61d2dee5ece60010262010b50565b6201121882620116d4565b1562011284576201124c7fc400fa2f19d96d670b5cd553118c3dcc839d1ca01643f3f2aadbb964e66cd58260010262010b50565b6201127a7fb4c0a2f66d83d32038e7162b3ad28e2705331fb983cfb3cb064b37501889ea5360010262010b50565b601d9050620114d1565b620112b27fc5100a56dce49bf964aa99b54f102a3f0a3f6a803d69972b999aee261a9a86da60010262010b50565b620112e07f3940530a99f4099b8f4d07dc32f531b54295567a330c81801a6ef5040028a23c60010262010b50565b6201130e7f69bd8442c820eb767dab3ea1cbde489b75622373364717d027596fcb6b43393760010262010b50565b601c9050620114d1565b620113467fc1cde02925920c3dd289f9c937a9ce3ae53fce4f82996d43e6461729014076d660010262010b50565b620113747f9b897a64bbfff882530d264b969ff02abff2819b3ebd5a7d0ee1d9f5d1a0b19360010262010b50565b60048360ff1614806201138a575060068360ff16145b8062011399575060098360ff16145b80620113a85750600b8360ff16145b156201144257620113dc7f1bc45735d4e64373353e1d3b278bd6c7cdd83cf891971c65ff92433c8a9f078560010262010b50565b6201140a7fd907228da083e86c4a94974b84b50f80ed66b5dfb58276fcb209c6cfe56df5b260010262010b50565b620114387fb1cb616ec0506f2ecfd084b6e3b54e8a6d2d1bc23112f172081f64ad47bd978e60010262010b50565b601e9050620114d1565b620114707fc53b73c047fd53baa01f9f93b941aeb2fed3930f8ccacde5e4b031f6d034a97a60010262010b50565b6201149e7f44ffb8ba1c424d23b5cf0490a0229b72ced587f226aeb184b14de4140a724b0860010262010b50565b620114cc7f504a8ec7857f77f0f05b9e1fa4ba5073fb694e2771756c23a9c9532dade4d4f860010262010b50565b601f90505b92915050565b6000620115077f903e5899356adf169cc3d09a553e3b95613b37b8b2c8192fcec99a21cf72b5fc60010262010b50565b620115357fe5b363119b7f9ef45484423cb8ff0353b064ab8ff3ed4ef958fb4e841ec7aa1b60010262010b50565b620115637fbb3a674b09336dbb76a30f85820f5fc5fea400803f83148dd166d65b077761e460010262010b50565b6018610e10838115156201157357fe5b048115156201157e57fe5b069050919050565b6000620115b67f251fb80cc25a2f96ff3c65f2ee513e802271dfa26e68bc2b8620d6b53d34c17260010262010b50565b620115e47f0685935c6ba4dd53ff0b8540217e29a80271148233eb7d9a6deb49106a09961460010262010b50565b620116127f34f29fb6bec7bdee0f975b3b46a51f8a3a974bb47978e8b49ff7983cc11b11e560010262010b50565b603c80838115156201162057fe5b048115156201162b57fe5b069050919050565b6000620116637fe4adfb0cbab84cf8fcf523d90533da057bec4887975b727ad4ee0ef78a58e0f360010262010b50565b620116917f659ee24f2f90a92fd4407919378438d34ff08398b5df93e04aa4ee37bf43283660010262010b50565b620116bf7fa58a1f34a2d54c93d5914a5ff8ac0cdd6f43092a957880c1b1b5a2be7c744aa660010262010b50565b603c82811515620116cc57fe5b069050919050565b6000620117047f0d5466fd149bf6f66bf44e1ce69c5b9b646b7858ee530f6fe4b44c1399b130cf60010262010b50565b620117327ff7c4ae06e9c845650bb52508c732a5f72303c3037b635ecc1215a3c2d079039060010262010b50565b620117607f89aa6a64363802e5a6464cd1452522ffcf12e9811c943e8178722d312f1dac5660010262010b50565b6000610190838115156201177057fe5b061480620117a6575060006004838115156201178857fe5b06148015620117a557506000606483811515620117a157fe5b0614155b5b9050919050565b828054600181600116156101000203166002900490600052602060002090601f016020900481019282601f10620117f057805160ff191683800117855562011821565b8280016001018555821562011821579182015b828111156201182057825182559160200191906001019062011803565b5b5090506201183091906201187e565b5090565b60c060405190810160405280600061ffff168152602001600060ff168152602001600060ff168152602001600060ff168152602001600060ff168152602001600060ff1681525090565b620118a391905b808211156201189f57600081600090555060010162011885565b5090565b9056fea165627a7a72305820d7f371184160ae3e9ff4b12c7c6d413e959391811b8720449220021aa9b6a7470029",
  "linkReferences": {
    "contracts/libs/DateTimeModel.sol": {
      "DateTimeModel": [
        {
          "length": 20,
          "start": 54928
        },
        {
          "length": 20,
          "start": 57041
        }
      ]
    },
    "contracts/libs/GluwaAccountModel.sol": {
      "GluwaAccountModel": [
        {
          "length": 20,
          "start": 45176
        },
        {
          "length": 20,
          "start": 45545
        },
        {
          "length": 20,
          "start": 51759
        }
      ]
    }
  },
  "deployedLinkReferences": {
    "contracts/libs/DateTimeModel.sol": {
      "DateTimeModel": [
        {
          "length": 20,
          "start": 54907
        },
        {
          "length": 20,
          "start": 57020
        }
      ]
    },
    "contracts/libs/GluwaAccountModel.sol": {
      "GluwaAccountModel": [
        {
          "length": 20,
          "start": 45155
        },
        {
          "length": 20,
          "start": 45524
        },
        {
          "length": 20,
          "start": 51738
        }
      ]
    }
  }
}