{
  "_format": "hh-sol-artifact-1",
  "contractName": "PrizeLinkedAccountVault",
  "sourceName": "contracts/PrizeLinkedAccountVault.sol",
  "abi": [
    {
      "constant": false,
      "inputs": [
        {
          "name": "owner",
          "type": "address"
        },
        {
          "name": "amount",
          "type": "uint256"
        }
      ],
      "name": "depositPrizedLinkAccount",
      "outputs": [
        {
          "name": "",
          "type": "bool"
        }
      ],
      "payable": false,
      "stateMutability": "nonpayable",
      "type": "function"
    },
    {
      "constant": false,
      "inputs": [
        {
          "name": "admin",
          "type": "address"
        },
        {
          "name": "tokenAddress",
          "type": "address"
        },
        {
          "name": "standardInterestRate",
          "type": "uint32"
        },
        {
          "name": "standardInterestRatePercentageBase",
          "type": "uint32"
        },
        {
          "name": "standardMaturityTerm",
          "type": "uint64"
        },
        {
          "name": "budget",
          "type": "uint256"
        },
        {
          "name": "tokenPerTicket",
          "type": "uint16"
        },
        {
          "name": "ticketValidityTargetBlock",
          "type": "uint16"
        },
        {
          "name": "totalTicketPerBatch",
          "type": "uint32"
        }
      ],
      "name": "initialize",
      "outputs": [],
      "payable": false,
      "stateMutability": "nonpayable",
      "type": "function"
    },
    {
      "constant": true,
      "inputs": [
        {
          "name": "owner",
          "type": "address"
        }
      ],
      "name": "getValidTicketIdFor",
      "outputs": [
        {
          "name": "",
          "type": "uint256[]"
        }
      ],
      "payable": false,
      "stateMutability": "view",
      "type": "function"
    },
    {
      "constant": true,
      "inputs": [
        {
          "name": "idx",
          "type": "uint256"
        }
      ],
      "name": "getTicketById",
      "outputs": [
        {
          "name": "",
          "type": "uint256"
        },
        {
          "name": "",
          "type": "address"
        },
        {
          "name": "",
          "type": "uint256"
        },
        {
          "name": "",
          "type": "uint256"
        },
        {
          "name": "",
          "type": "uint256"
        },
        {
          "name": "",
          "type": "uint8"
        }
      ],
      "payable": false,
      "stateMutability": "view",
      "type": "function"
    },
    {
      "constant": false,
      "inputs": [],
      "name": "getCurrentWinner",
      "outputs": [
        {
          "name": "",
          "type": "uint256"
        }
      ],
      "payable": false,
      "stateMutability": "nonpayable",
      "type": "function"
    },
    {
      "constant": true,
      "inputs": [],
      "name": "getCurrentTotalDeposit",
      "outputs": [
        {
          "name": "",
          "type": "uint256"
        }
      ],
      "payable": false,
      "stateMutability": "view",
      "type": "function"
    },
    {
      "constant": true,
      "inputs": [],
      "name": "getSavingSettings",
      "outputs": [
        {
          "name": "",
          "type": "uint64"
        },
        {
          "name": "",
          "type": "uint32"
        },
        {
          "name": "",
          "type": "uint32"
        },
        {
          "name": "",
          "type": "uint256"
        },
        {
          "name": "",
          "type": "uint256"
        },
        {
          "name": "",
          "type": "address"
        }
      ],
      "payable": false,
      "stateMutability": "view",
      "type": "function"
    },
    {
      "constant": true,
      "inputs": [
        {
          "name": "depositHash",
          "type": "bytes32"
        }
      ],
      "name": "getDeposit",
      "outputs": [
        {
          "name": "",
          "type": "uint256"
        },
        {
          "name": "",
          "type": "uint256"
        },
        {
          "name": "",
          "type": "address"
        },
        {
          "name": "",
          "type": "uint256"
        },
        {
          "name": "",
          "type": "uint256"
        }
      ],
      "payable": false,
      "stateMutability": "view",
      "type": "function"
    },
    {
      "constant": true,
      "inputs": [
        {
          "name": "owner",
          "type": "address"
        }
      ],
      "name": "getSavingAcountFor",
      "outputs": [
        {
          "name": "",
          "type": "uint256"
        },
        {
          "name": "",
          "type": "bytes32"
        },
        {
          "name": "",
          "type": "address"
        },
        {
          "name": "",
          "type": "uint32"
        },
        {
          "name": "",
          "type": "uint32"
        },
        {
          "name": "",
          "type": "uint256"
        },
        {
          "name": "",
          "type": "uint256"
        },
        {
          "name": "",
          "type": "uint256"
        },
        {
          "name": "",
          "type": "uint8"
        },
        {
          "name": "",
          "type": "bytes"
        }
      ],
      "payable": false,
      "stateMutability": "view",
      "type": "function"
    },
    {
      "constant": false,
      "inputs": [
        {
          "name": "drawDateTime",
          "type": "uint256"
        }
      ],
      "name": "prizeDraw",
      "outputs": [
        {
          "name": "",
          "type": "uint256"
        },
        {
          "name": "",
          "type": "address"
        },
        {
          "name": "",
          "type": "uint256"
        },
        {
          "name": "",
          "type": "uint256"
        },
        {
          "name": "",
          "type": "uint256"
        },
        {
          "name": "state",
          "type": "uint8"
        }
      ],
      "payable": false,
      "stateMutability": "nonpayable",
      "type": "function"
    },
    {
      "constant": true,
      "inputs": [],
      "name": "getSavingAcount",
      "outputs": [
        {
          "name": "",
          "type": "uint256"
        },
        {
          "name": "",
          "type": "bytes32"
        },
        {
          "name": "",
          "type": "address"
        },
        {
          "name": "",
          "type": "uint32"
        },
        {
          "name": "",
          "type": "uint32"
        },
        {
          "name": "",
          "type": "uint256"
        },
        {
          "name": "",
          "type": "uint256"
        },
        {
          "name": "",
          "type": "uint256"
        },
        {
          "name": "",
          "type": "uint8"
        },
        {
          "name": "",
          "type": "bytes"
        }
      ],
      "payable": false,
      "stateMutability": "view",
      "type": "function"
    },
    {
      "constant": false,
      "inputs": [
        {
          "name": "owner",
          "type": "address"
        },
        {
          "name": "amount",
          "type": "uint256"
        },
        {
          "name": "securityHash",
          "type": "bytes"
        }
      ],
      "name": "createPrizedLinkAccount",
      "outputs": [
        {
          "name": "",
          "type": "bool"
        }
      ],
      "payable": false,
      "stateMutability": "nonpayable",
      "type": "function"
    },
    {
      "constant": false,
      "inputs": [
        {
          "name": "referenceHash",
          "type": "bytes32"
        }
      ],
      "name": "createPrizedLinkTickets",
      "outputs": [
        {
          "name": "",
          "type": "bool"
        }
      ],
      "payable": false,
      "stateMutability": "nonpayable",
      "type": "function"
    },
    {
      "anonymous": false,
      "inputs": [
        {
          "indexed": false,
          "name": "winner",
          "type": "address"
        },
        {
          "indexed": false,
          "name": "ticket",
          "type": "uint256"
        },
        {
          "indexed": false,
          "name": "reward",
          "type": "uint256"
        }
      ],
      "name": "Winner",
      "type": "event"
    },
    {
      "anonymous": false,
      "inputs": [
        {
          "indexed": true,
          "name": "accountHash",
          "type": "bytes32"
        },
        {
          "indexed": true,
          "name": "owner",
          "type": "address"
        }
      ],
      "name": "CreateAccount",
      "type": "event"
    },
    {
      "anonymous": false,
      "inputs": [
        {
          "indexed": true,
          "name": "depositHash",
          "type": "bytes32"
        },
        {
          "indexed": true,
          "name": "owner",
          "type": "address"
        },
        {
          "indexed": false,
          "name": "deposit",
          "type": "uint256"
        }
      ],
      "name": "CreateDeposit",
      "type": "event"
    },
    {
      "anonymous": false,
      "inputs": [
        {
          "indexed": true,
          "name": "owner",
          "type": "address"
        },
        {
          "indexed": false,
          "name": "amount",
          "type": "uint256"
        }
      ],
      "name": "WithdrawSavingAccount",
      "type": "event"
    }
  ],
  "bytecode": "0x60806040526126c7806100136000396000f3fe6080604052600436106100c45763ffffffff7c0100000000000000000000000000000000000000000000000000000000600035041663033d086d81146100c95780630af4ad1b146101165780631112f0f71461019f57806327b7aabc14610222578063329bfc33146102a55780633a990db0146102cc578063529298b8146102e15780637a86983f1461034557806382133e38146103a257806383f9f4d2146104c45780639964476f146104ee578063cf123e3014610503578063efb41d6b14610595575b600080fd5b3480156100d557600080fd5b50610102600480360360408110156100ec57600080fd5b50600160a060020a0381351690602001356105bf565b604080519115158252519081900360200190f35b34801561012257600080fd5b5061019d600480360361012081101561013a57600080fd5b50600160a060020a03813581169160208101359091169063ffffffff6040820135811691606081013582169167ffffffffffffffff6080830135169160a08101359161ffff60c083013581169260e081013590911691610100909101351661061d565b005b3480156101ab57600080fd5b506101d2600480360360208110156101c257600080fd5b5035600160a060020a03166107b7565b60408051602080825283518183015283519192839290830191858101910280838360005b8381101561020e5781810151838201526020016101f6565b505050509050019250505060405180910390f35b34801561022e57600080fd5b5061024c6004803603602081101561024557600080fd5b5035610818565b6040518087815260200186600160a060020a0316600160a060020a0316815260200185815260200184815260200183815260200182600481111561028c57fe5b60ff168152602001965050505050505060405180910390f35b3480156102b157600080fd5b506102ba61083e565b60408051918252519081900360200190f35b3480156102d857600080fd5b506102ba610845565b3480156102ed57600080fd5b506102f661084b565b6040805167ffffffffffffffff909716875263ffffffff9586166020880152939094168584015260608501919091526080840152600160a060020a0390911660a0830152519081900360c00190f35b34801561035157600080fd5b5061036f6004803603602081101561036857600080fd5b503561088f565b604080519586526020860194909452600160a060020a039092168484015260608401526080830152519081900360a00190f35b3480156103ae57600080fd5b506103d5600480360360208110156103c557600080fd5b5035600160a060020a031661089d565b604051808b81526020018a815260200189600160a060020a0316600160a060020a031681526020018863ffffffff1663ffffffff1681526020018763ffffffff1663ffffffff16815260200186815260200185815260200184815260200183600481111561043f57fe5b60ff16815260200180602001828103825283818151815260200191508051906020019080838360005b83811015610480578181015183820152602001610468565b50505050905090810190601f1680156104ad5780820380516001836020036101000a031916815260200191505b509b50505050505050505050505060405180910390f35b3480156104d057600080fd5b5061024c600480360360208110156104e757600080fd5b50356108d7565b3480156104fa57600080fd5b506103d5610929565b34801561050f57600080fd5b506101026004803603606081101561052657600080fd5b600160a060020a038235169160208101359181019060608101604082013564010000000081111561055657600080fd5b82018360208201111561056857600080fd5b8035906020019184600183028401116401000000008311171561058a57600080fd5b509092509050610969565b3480156105a157600080fd5b50610102600480360360208110156105b857600080fd5b50356109f5565b6000806105cc8484610a2b565b6048549091506106039061ffff610100820416906105f790869060ff16600a0a63ffffffff610dae16565b9063ffffffff610dae16565b6000918252604e6020526040909120555060015b92915050565b600054610100900460ff16806106365750610636610df7565b80610644575060005460ff16155b15156106c0576040805160e560020a62461bcd02815260206004820152602e60248201527f436f6e747261637420696e7374616e63652068617320616c726561647920626560448201527f656e20696e697469616c697a6564000000000000000000000000000000000000606482015290519081900360840190fd5b600054610100900460ff161580156106eb576000805460ff1961ff0019909116610100171660011790555b6106f88989898989610dfd565b610799604060009054906101000a9004600160a060020a0316600160a060020a031663313ce5676040518163ffffffff167c010000000000000000000000000000000000000000000000000000000002815260040160206040518083038186803b15801561076557600080fd5b505afa158015610779573d6000803e3d6000fd5b505050506040513d602081101561078f57600080fd5b5051858585610fbd565b80156107ab576000805461ff00191690555b50505050505050505050565b60606107c282611121565b80548060200260200160405190810160405280929190818152602001828054801561080c57602002820191906000526020600020905b8154815260200190600101908083116107f8575b50505050509050919050565b60008060008060008061082a8761113b565b949c939b5091995097509550909350915050565b604a545b90565b603f5490565b60335460345460355460405468010000000000000000840467ffffffffffffffff169463ffffffff80861695640100000000900416939291600160a060020a031690565b506000908190819081908190565b600080600080600080600080600060606108b68b61117f565b99509950995099509950995099509950995099509193959799509193959799565b60008060008060008060006108eb886112d5565b80546001820154600283015460038401546004850154600590950154939d600160a060020a039093169c50909a50985091965060ff16945092505050565b6000806000806000806000806000606061094961094461147b565b61117f565b995099509950995099509950995099509950995090919293949596979899565b6000806109ae86864287878080601f01602080910402602001604051908101604052809392919081815260200183838082843760009201919091525061147f92505050565b6048549092506109da915061ffff610100820416906105f790889060ff16600a0a63ffffffff610dae16565b6000918252604e602052604090912055506001949350505050565b600081815260426020526040812060028101546003820154610a2191600160a060020a03169085611cb5565b5060019392505050565b600160a060020a038216600090815260416020526040812060038101548210610ac4576040805160e560020a62461bcd02815260206004820152602560248201527f476c757761536176696e674163636f756e743a204163636f756e74206e6f742060448201527f666f756e64000000000000000000000000000000000000000000000000000000606482015290519081900360840190fd5b6040805481517f23b872dd000000000000000000000000000000000000000000000000000000008152600160a060020a03878116600483015230602483015260448201879052925192909116916323b872dd916064808201926020929091908290030181600087803b158015610b3957600080fd5b505af1158015610b4d573d6000803e3d6000fd5b505050506040513d6020811015610b6357600080fd5b50511515610c07576040805160e560020a62461bcd02815260206004820152604860248201527f476c757761536176696e674163636f756e743a20556e61626c6520746f20736560448201527f6e6420616d6f756e7420746f206465706f73697420746f206120536176696e6760648201527f204163636f756e74000000000000000000000000000000000000000000000000608482015290519081900360a40190fd5b6004808201805485019055603f8054850190558154604080517ffd96809e0000000000000000000000000000000000000000000000000000000081529283019190915260248201859052306044830152600160a060020a03861660648301525160009173__$8ad4cadfbfab443c6ed09b45690dcdfb0d$__9163fd96809e91608480820192602092909190829003018186803b158015610ca657600080fd5b505af4158015610cba573d6000803e3d6000fd5b505050506040513d6020811015610cd057600080fd5b50516040805160a081018252603d54815284546020808301918252600160a060020a038a81168486019081524260608601908152608086018c815260008981526042909552969093209451855592516001850155915160028401805473ffffffffffffffffffffffffffffffffffffffff1916919093161790915551600382015590516004909101559050610d66603b826121ac565b604080518581529051600160a060020a0387169183917f2e2791fe9306933f4d6468aab16a0195b3ab2b342887b2e1be4aa35f568322979181900360200190a3949350505050565b6000610df083836040805190810160405280601a81526020017f536166654d6174683a206469766973696f6e206279207a65726f0000000000008152506121dc565b9392505050565b303b1590565b600054610100900460ff1680610e165750610e16610df7565b80610e24575060005460ff16155b1515610ea0576040805160e560020a62461bcd02815260206004820152602e60248201527f436f6e747261637420696e7374616e63652068617320616c726561647920626560448201527f656e20696e697469616c697a6564000000000000000000000000000000000000606482015290519081900360840190fd5b600054610100900460ff16158015610ecb576000805460ff1961ff0019909116610100171660011790555b6040805473ffffffffffffffffffffffffffffffffffffffff1916600160a060020a0388161781556033805463ffffffff191663ffffffff8881169190911767ffffffff00000000191664010000000091881691909102176fffffffffffffffff000000000000000019166801000000000000000067ffffffffffffffff871602179055603483905580516060808201835260018083526020808401829052600093850184905260388290556039829055603a8490558451928301855281835282018190529201819052603c829055603d91909155603e558015610fb5576000805461ff00191690555b505050505050565b600054610100900460ff1680610fd65750610fd6610df7565b80610fe4575060005460ff16155b1515611060576040805160e560020a62461bcd02815260206004820152602e60248201527f436f6e747261637420696e7374616e63652068617320616c726561647920626560448201527f656e20696e697469616c697a6564000000000000000000000000000000000000606482015290519081900360840190fd5b600054610100900460ff1615801561108b576000805460ff1961ff0019909116610100171660011790555b6048805460ff191660ff87161762ffff00191661010061ffff878116919091029190911764ffff0000001916630100000091861691909102179055604b805463ffffffff191663ffffffff8416179055604080516060810182526001808252602082018190526000919092018190526045829055604691909155604755801561111a576000805461ff00191690555b5050505050565b600160a060020a0316600090815260506020526040902090565b6000908152604c60205260409020805460018201546002830154600384015460048501546005909501549395600160a060020a03909316949193909260ff90911690565b600160a060020a0380821660009081526041602090815260408083208054600180830154600280850154600386015460048701546005880154600689015460078a0180548c51601f6000199b831615610100029b909b01909116979097049889018d90048d0287018d01909b528786529b9c8d9c8d9c8d9c8d9c8d9c8d9c8d9c8d9c60609c949b939a91999885169863ffffffff7401000000000000000000000000000000000000000087048116997801000000000000000000000000000000000000000000000000909704169794969295909460ff9091169383918301828280156112ac5780601f10611281576101008083540402835291602001916112ac565b820191906000526020600020905b81548152906001019060200180831161128f57829003601f168201915b505050505090509a509a509a509a509a509a509a509a509a509a50509193959799509193959799565b60008181526051602090815260408220828052604c9091527f551595b9d59b165bf9ad72f0480c55576c5dae704d350b901d5e76a5a3a448d3547f551595b9d59b165bf9ad72f0480c55576c5dae704d350b901d5e76a5a3a448cf80547f551595b9d59b165bf9ad72f0480c55576c5dae704d350b901d5e76a5a3a448d0549192859261136b9290600160a060020a0316612285565b82546049805460009081526052602090815260408083208684529091529020919091558690559050808060015b8554811015611438576000604c600088848154811015156113b557fe5b6000918252602080832090910154835282019290925260400181206004810154815460018301549294506113f192600160a060020a0316612285565b9050848111156114035780945061140f565b8381101561140f578093505b905460495460009081526052602090815260408083209483529390529190912055600101611398565b50600061144582846122b6565b604a8190556049546000908152605260209081526040808320938352928152828220548252604c90522098975050505050505050565b3390565b600080600160a060020a0386161515611508576040805160e560020a62461bcd02815260206004820152603860248201527f476c757761536176696e674163636f756e743a20536176696e67206f776e657260448201527f2061646472657373206d75737420626520646566696e65640000000000000000606482015290519081900360840190fd5b600160a060020a038616600090815260416020526040902060030154156115c5576040805160e560020a62461bcd02815260206004820152604760248201527f476c757761536176696e674163636f756e743a2045616368206164647265737360448201527f2073686f756c642068617665206f6e6c79203120536176696e67206163636f7560648201527f6e74206f6e6c7900000000000000000000000000000000000000000000000000608482015290519081900360a40190fd5b6043836040518082805190602001908083835b602083106115f75780518252601f1990920191602091820191016115d8565b51815160209384036101000a600019018019909216911617905292019485525060405193849003019092205460ff161591506116a59050576040805160e560020a62461bcd02815260206004820152603160248201527f476c757761536176696e674163636f756e743a204964656e746974792068617360448201527f6820697320616c72656164792075736564000000000000000000000000000000606482015290519081900360840190fd5b6040805481517f23b872dd000000000000000000000000000000000000000000000000000000008152600160a060020a03898116600483015230602483015260448201899052925192909116916323b872dd916064808201926020929091908290030181600087803b15801561171a57600080fd5b505af115801561172e573d6000803e3d6000fd5b505050506040513d602081101561174457600080fd5b505115156117e8576040805160e560020a62461bcd02815260206004820152604860248201527f476c757761536176696e674163636f756e743a20556e61626c6520746f20736560448201527f6e6420616d6f756e7420746f206465706f73697420746f206120536176696e6760648201527f204163636f756e74000000000000000000000000000000000000000000000000608482015290519081900360a40190fd5b604080517f84cefce000000000000000000000000000000000000000000000000000000000815260048101869052306024820152600160a060020a0388166044820152905160009173__$8ad4cadfbfab443c6ed09b45690dcdfb0d$__916384cefce091606480820192602092909190829003018186803b15801561186c57600080fd5b505af4158015611880573d6000803e3d6000fd5b505050506040513d602081101561189657600080fd5b5051603954604080517ffd96809e000000000000000000000000000000000000000000000000000000008152600481019290925260248201899052306044830152600160a060020a038a1660648301525191925060009173__$8ad4cadfbfab443c6ed09b45690dcdfb0d$__9163fd96809e916084808301926020929190829003018186803b15801561192857600080fd5b505af415801561193c573d6000803e3d6000fd5b505050506040513d602081101561195257600080fd5b50516040805161014081018252603954815260208101859052600160a060020a038b169181019190915260335463ffffffff808216606084015264010000000090910416608082015260a0810188905260c08101899052600060e08201529091506101008101600181526020908101879052600160a060020a038a81166000908152604183526040908190208451815592840151600180850191909155908401516002840180546060870151608088015173ffffffffffffffffffffffffffffffffffffffff19909216939095169290921777ffffffff000000000000000000000000000000000000000019167401000000000000000000000000000000000000000063ffffffff95861602177fffffffff00000000ffffffffffffffffffffffffffffffffffffffffffffffff16780100000000000000000000000000000000000000000000000094909216939093021790915560a0830151600383015560c083015160048084019190915560e084015160058401556101008401516006840180549193909260ff19909216918490811115611aeb57fe5b02179055506101208201518051611b0c9160078401916020909101906125ce565b50506040805160a081018252603d5481526039546020808301918252600160a060020a038d8116848601908152606085018d8152608086018f815260008a815260428652889020965187559451600180880191909155915160028701805473ffffffffffffffffffffffffffffffffffffffff191691909416179092559051600385015591516004909301929092559151885192935060439289928291908401908083835b60208310611bd05780518252601f199092019160209182019101611bb1565b51815160209384036101000a60001901801990921691161790529201948552506040519384900301909220805460ff19169315159390931790925550611c1990506037836121ac565b611c2a603b8263ffffffff6121ac16565b603f805488019055604051600160a060020a0389169083907fae420988b408fa1c16c342c73f56ece9307da09db1ac6b36fc8d9ff61acaa9a290600090a3604080518881529051600160a060020a038a169183917f2e2791fe9306933f4d6468aab16a0195b3ab2b342887b2e1be4aa35f568322979181900360200190a39097909650945050505050565b6000818152604d6020908152604080832054604e909252822054606092919003908111611d52576040805160e560020a62461bcd02815260206004820152603f60248201527f476c7577615072697a65447261773a206e6f206d6f7265207469636b6574732060448201527f63616e206265206372656174656420666f722074686973206465706f73697400606482015290519081900360840190fd5b604b5463ffffffff1680821015611d665750805b611d6e61264c565b611d778661231e565b90506000600290506010826060015160ff161080611daf5750816060015160ff166010148015611daf5750603b826080015160ff1611155b15611db8575060015b6020808301518351604080517f8980747400000000000000000000000000000000000000000000000000000000815260ff909316600484015261ffff90911660248301525160009273__$05084330c9bf728fdd5577c5afe72a471f$__9263898074749260448083019392829003018186803b158015611e3757600080fd5b505af4158015611e4b573d6000803e3d6000fd5b505050506040513d6020811015611e6157600080fd5b5051604084015190915060ff808316918401161115611ec657826020015160ff16600c141515611e9e5760208301805160010160ff169052611eb1565b825161ffff600191820116845260208401525b604083018051830182900360ff169052611ed4565b604083018051830160ff1690525b60116060840181905260006080850181905260a08501819052845160208087015160408089015181517f0a37f14b00000000000000000000000000000000000000000000000000000000815261ffff909516600486015260ff9283166024860152909116604484015260648301949094526084820183905260a482018390529251919273__$05084330c9bf728fdd5577c5afe72a471f$__92630a37f14b9260c4808201939291829003018186803b158015611f8f57600080fd5b505af4158015611fa3573d6000803e3d6000fd5b505050506040513d6020811015611fb957600080fd5b5051905060005b8563ffffffff168163ffffffff16101561219e576048546040805160e0810182526046548152600160a060020a038e1660208201529081018c905260608101849052630100000090910461ffff164301608082018190529060a081016001815260209081018c90526046546000908152604c825260409081902083518155918301516001808401805473ffffffffffffffffffffffffffffffffffffffff1916600160a060020a039093169290921790915590830151600283015560608301516003830155608083015160048084019190915560a08401516005840180549193909260ff199092169184908111156120b457fe5b021790555060c09190910151600690910155604654600160a060020a038d1660009081526050602052604090206120f09163ffffffff61244c16565b60465460008481526051602052604090206121109163ffffffff61244c16565b60465460008b8152604d602052604090206121309163ffffffff61244c16565b604080516c01000000000000000000000000600160a060020a038f1602602080830191909152603482018e905260548201869052607480830185905283518084039091018152609490920190925280519101206121959060449063ffffffff6121ac16565b50600101611fc0565b505050505050509392505050565b60028201805460009081526020849052604090209190915580546001908101909155600390910180549091019055565b60008181841161226d5760405160e560020a62461bcd0281526004018080602001828103825283818151815260200191508051906020019080838360005b8381101561223257818101518382015260200161221a565b50505050905090810190601f16801561225f5780820380516001836020036101000a031916815260200191505b509250505060405180910390fd5b506000838581151561227b57fe5b0495945050505050565b60006c01000000000000000000000000600160a060020a038316026122a984612464565b8540181890509392505050565b60408051426020808301829052434083850152606083019190915244608083015260a0820184905260c08083018690528351808403909101815260e09092019092528051910120600090819084906001828603019081151561231457fe5b0601949350505050565b61232661264c565b61232f8261246c565b61ffff16815260006123426107b26124ee565b82516123519061ffff166124ee565b0361ffff1690506000816301e2850002826107b285600001510361ffff16036301e13380020190506000806000600190505b600c60ff8216116123d1576123a081876000015161ffff16612509565b91508160ff16620151800292508684840111156123c55760ff811660208701526123d1565b92820192600101612383565b5060015b60ff8083169082161161240e578684620151800111156123fd5760ff8116604087015261240e565b6201518093909301926001016123d5565b6124178761257b565b60ff16606087015261242887612595565b60ff166080870152612439876125a0565b60ff1660a0870152509395945050505050565b81546001810183556000928352602090922090910155565b602052600090565b60006107b26301e1338083048101908290612486906124ee565b61248f836124ee565b0361ffff1690506301e2850081026107b119828403016301e1338002015b848111156124e5576124c1600184036125aa565b156124d2576301e284ff19016124da565b6301e1337f19015b6001830392506124ad565b50909392505050565b60001901600060648204610190830460048404010392915050565b60008260ff166002141561253557612520826125aa565b1561252d5750601d610617565b50601c610617565b8260ff166004148061254a57508260ff166006145b8061255857508260ff166009145b8061256657508260ff16600b145b156125735750601e610617565b50601f610617565b60006018610e10835b0481151561258e57fe5b0692915050565b6000603c8083612584565b6000603c8261258e565b60006101908206158061061757506004820615801561061757505060649006151590565b828054600181600116156101000203166002900490600052602060002090601f016020900481019282601f1061260f57805160ff191683800117855561263c565b8280016001018555821561263c579182015b8281111561263c578251825591602001919060010190612621565b50612648929150612681565b5090565b6040805160c081018252600080825260208201819052918101829052606081018290526080810182905260a081019190915290565b61084291905b80821115612648576000815560010161268756fea165627a7a723058203c5940f33032289c659e8c15d46005fb33a28d045ed36170eff6277f9c54d69b0029",
  "linkReferences": {
    "contracts/libs/DateTimeModel.sol": {
      "DateTimeModel": [
        {
          "length": 20,
          "start": 7701
        },
        {
          "length": 20,
          "start": 8044
        }
      ]
    },
    "contracts/libs/GluwaAccountModel.sol": {
      "GluwaAccountModel": [
        {
          "length": 20,
          "start": 3199
        },
        {
          "length": 20,
          "start": 6213
        },
        {
          "length": 20,
          "start": 6402
        }
      ]
    }
  },
  "deployedLinkReferences": {
    "contracts/libs/DateTimeModel.sol": {
      "DateTimeModel": [
        {
          "length": 20,
          "start": 7682
        },
        {
          "length": 20,
          "start": 8025
        }
      ]
    },
    "contracts/libs/GluwaAccountModel.sol": {
      "GluwaAccountModel": [
        {
          "length": 20,
          "start": 3180
        },
        {
          "length": 20,
          "start": 6194
        },
        {
          "length": 20,
          "start": 6383
        }
      ]
    }
  }
}