{
  "_format": "hh-sol-artifact-1",
  "contractName": "PrizeLinkedAccountVault",
  "sourceName": "contracts/PrizeLinkedAccountVault.sol",
  "abi": [
    {
      "constant": false,
      "inputs": [
        {
          "name": "owner",
          "type": "address"
        },
        {
          "name": "amount",
          "type": "uint256"
        }
      ],
      "name": "depositPrizedLinkAccount",
      "outputs": [
        {
          "name": "",
          "type": "bool"
        }
      ],
      "payable": false,
      "stateMutability": "nonpayable",
      "type": "function"
    },
    {
      "constant": true,
      "inputs": [
        {
          "name": "role",
          "type": "bytes32"
        }
      ],
      "name": "getRoleAdmin",
      "outputs": [
        {
          "name": "",
          "type": "bytes32"
        }
      ],
      "payable": false,
      "stateMutability": "view",
      "type": "function"
    },
    {
      "constant": true,
      "inputs": [
        {
          "name": "account",
          "type": "address"
        }
      ],
      "name": "isAdmin",
      "outputs": [
        {
          "name": "",
          "type": "bool"
        }
      ],
      "payable": false,
      "stateMutability": "view",
      "type": "function"
    },
    {
      "constant": true,
      "inputs": [],
      "name": "getPrizeLinkedAccountSettings",
      "outputs": [
        {
          "name": "standardInterestRate",
          "type": "uint32"
        },
        {
          "name": "standardInterestRatePercentageBase",
          "type": "uint32"
        },
        {
          "name": "budget",
          "type": "uint256"
        },
        {
          "name": "minimumDeposit",
          "type": "uint256"
        },
        {
          "name": "token",
          "type": "address"
        },
        {
          "name": "ticketPerToken",
          "type": "uint16"
        },
        {
          "name": "cutOffHour",
          "type": "uint8"
        },
        {
          "name": "cutOffMinute",
          "type": "uint8"
        },
        {
          "name": "processingCap",
          "type": "uint32"
        },
        {
          "name": "ticketRangeFactor",
          "type": "uint128"
        },
        {
          "name": "lowerLimitPercentage",
          "type": "uint8"
        }
      ],
      "payable": false,
      "stateMutability": "view",
      "type": "function"
    },
    {
      "constant": false,
      "inputs": [],
      "name": "renounceOperator",
      "outputs": [],
      "payable": false,
      "stateMutability": "nonpayable",
      "type": "function"
    },
    {
      "constant": false,
      "inputs": [
        {
          "name": "amount",
          "type": "uint256"
        }
      ],
      "name": "withdraw",
      "outputs": [
        {
          "name": "",
          "type": "bool"
        }
      ],
      "payable": false,
      "stateMutability": "nonpayable",
      "type": "function"
    },
    {
      "constant": true,
      "inputs": [
        {
          "name": "c__0x42d91d40",
          "type": "bytes32"
        }
      ],
      "name": "c_0x42d91d40",
      "outputs": [],
      "payable": false,
      "stateMutability": "pure",
      "type": "function"
    },
    {
      "constant": false,
      "inputs": [
        {
          "name": "role",
          "type": "bytes32"
        },
        {
          "name": "account",
          "type": "address"
        }
      ],
      "name": "grantRole",
      "outputs": [],
      "payable": false,
      "stateMutability": "nonpayable",
      "type": "function"
    },
    {
      "constant": false,
      "inputs": [
        {
          "name": "role",
          "type": "bytes32"
        },
        {
          "name": "account",
          "type": "address"
        }
      ],
      "name": "renounceRole",
      "outputs": [],
      "payable": false,
      "stateMutability": "nonpayable",
      "type": "function"
    },
    {
      "constant": true,
      "inputs": [
        {
          "name": "drawTimeStamp",
          "type": "uint256"
        }
      ],
      "name": "getEligibleAddressPendingAddedToDraw",
      "outputs": [
        {
          "name": "result",
          "type": "address[]"
        }
      ],
      "payable": false,
      "stateMutability": "view",
      "type": "function"
    },
    {
      "constant": true,
      "inputs": [],
      "name": "getSavingSettings",
      "outputs": [
        {
          "name": "",
          "type": "uint32"
        },
        {
          "name": "",
          "type": "uint32"
        },
        {
          "name": "",
          "type": "uint256"
        },
        {
          "name": "",
          "type": "uint256"
        },
        {
          "name": "",
          "type": "address"
        }
      ],
      "payable": false,
      "stateMutability": "view",
      "type": "function"
    },
    {
      "constant": false,
      "inputs": [
        {
          "name": "owner",
          "type": "address"
        },
        {
          "name": "recipient",
          "type": "address"
        }
      ],
      "name": "withdrawUnclaimedAccount",
      "outputs": [
        {
          "name": "",
          "type": "bool"
        }
      ],
      "payable": false,
      "stateMutability": "nonpayable",
      "type": "function"
    },
    {
      "constant": true,
      "inputs": [
        {
          "name": "c__0x48731749",
          "type": "bytes32"
        }
      ],
      "name": "c_0x48731749",
      "outputs": [],
      "payable": false,
      "stateMutability": "pure",
      "type": "function"
    },
    {
      "constant": true,
      "inputs": [
        {
          "name": "drawTimeStamp",
          "type": "uint256"
        }
      ],
      "name": "getTickerIdsByOwnerAndDraw",
      "outputs": [
        {
          "name": "",
          "type": "uint96[]"
        }
      ],
      "payable": false,
      "stateMutability": "view",
      "type": "function"
    },
    {
      "constant": true,
      "inputs": [
        {
          "name": "account",
          "type": "address"
        }
      ],
      "name": "isOperator",
      "outputs": [
        {
          "name": "",
          "type": "bool"
        }
      ],
      "payable": false,
      "stateMutability": "view",
      "type": "function"
    },
    {
      "constant": false,
      "inputs": [
        {
          "name": "account",
          "type": "address"
        }
      ],
      "name": "addAdmin",
      "outputs": [],
      "payable": false,
      "stateMutability": "nonpayable",
      "type": "function"
    },
    {
      "constant": true,
      "inputs": [
        {
          "name": "depositHash",
          "type": "bytes32"
        }
      ],
      "name": "getDeposit",
      "outputs": [
        {
          "name": "",
          "type": "uint256"
        },
        {
          "name": "",
          "type": "uint256"
        },
        {
          "name": "",
          "type": "address"
        },
        {
          "name": "",
          "type": "uint256"
        },
        {
          "name": "",
          "type": "uint256"
        }
      ],
      "payable": false,
      "stateMutability": "view",
      "type": "function"
    },
    {
      "constant": true,
      "inputs": [
        {
          "name": "drawTimeStamp",
          "type": "uint256"
        }
      ],
      "name": "findMinMaxForDraw",
      "outputs": [
        {
          "name": "min",
          "type": "uint256"
        },
        {
          "name": "max",
          "type": "uint256"
        }
      ],
      "payable": false,
      "stateMutability": "view",
      "type": "function"
    },
    {
      "constant": true,
      "inputs": [
        {
          "name": "owner",
          "type": "address"
        }
      ],
      "name": "getSavingAcountFor",
      "outputs": [
        {
          "name": "",
          "type": "uint256"
        },
        {
          "name": "",
          "type": "bytes32"
        },
        {
          "name": "",
          "type": "address"
        },
        {
          "name": "",
          "type": "uint256"
        },
        {
          "name": "",
          "type": "uint256"
        },
        {
          "name": "",
          "type": "uint256"
        },
        {
          "name": "",
          "type": "uint8"
        },
        {
          "name": "",
          "type": "bytes"
        }
      ],
      "payable": false,
      "stateMutability": "view",
      "type": "function"
    },
    {
      "constant": true,
      "inputs": [
        {
          "name": "c__0xfd3e751c",
          "type": "bytes32"
        }
      ],
      "name": "c_0xfd3e751c",
      "outputs": [],
      "payable": false,
      "stateMutability": "pure",
      "type": "function"
    },
    {
      "constant": false,
      "inputs": [],
      "name": "renounceAdmin",
      "outputs": [],
      "payable": false,
      "stateMutability": "nonpayable",
      "type": "function"
    },
    {
      "constant": false,
      "inputs": [
        {
          "name": "drawTimeStamp",
          "type": "uint256"
        }
      ],
      "name": "awardWinnerV1",
      "outputs": [
        {
          "name": "",
          "type": "bool"
        }
      ],
      "payable": false,
      "stateMutability": "nonpayable",
      "type": "function"
    },
    {
      "constant": true,
      "inputs": [
        {
          "name": "role",
          "type": "bytes32"
        },
        {
          "name": "index",
          "type": "uint256"
        }
      ],
      "name": "getRoleMember",
      "outputs": [
        {
          "name": "",
          "type": "address"
        }
      ],
      "payable": false,
      "stateMutability": "view",
      "type": "function"
    },
    {
      "constant": true,
      "inputs": [
        {
          "name": "role",
          "type": "bytes32"
        },
        {
          "name": "account",
          "type": "address"
        }
      ],
      "name": "hasRole",
      "outputs": [
        {
          "name": "",
          "type": "bool"
        }
      ],
      "payable": false,
      "stateMutability": "view",
      "type": "function"
    },
    {
      "constant": false,
      "inputs": [
        {
          "name": "account",
          "type": "address"
        }
      ],
      "name": "addOperator",
      "outputs": [],
      "payable": false,
      "stateMutability": "nonpayable",
      "type": "function"
    },
    {
      "constant": true,
      "inputs": [],
      "name": "getSavingAcount",
      "outputs": [
        {
          "name": "",
          "type": "uint256"
        },
        {
          "name": "",
          "type": "bytes32"
        },
        {
          "name": "",
          "type": "address"
        },
        {
          "name": "",
          "type": "uint256"
        },
        {
          "name": "",
          "type": "uint256"
        },
        {
          "name": "",
          "type": "uint256"
        },
        {
          "name": "",
          "type": "uint8"
        },
        {
          "name": "",
          "type": "bytes"
        }
      ],
      "payable": false,
      "stateMutability": "view",
      "type": "function"
    },
    {
      "constant": true,
      "inputs": [],
      "name": "DEFAULT_ADMIN_ROLE",
      "outputs": [
        {
          "name": "",
          "type": "bytes32"
        }
      ],
      "payable": false,
      "stateMutability": "view",
      "type": "function"
    },
    {
      "constant": false,
      "inputs": [
        {
          "name": "standardInterestRate",
          "type": "uint32"
        },
        {
          "name": "standardInterestRatePercentageBase",
          "type": "uint32"
        },
        {
          "name": "budget",
          "type": "uint256"
        },
        {
          "name": "minimumDeposit",
          "type": "uint256"
        },
        {
          "name": "ticketPerToken",
          "type": "uint16"
        },
        {
          "name": "cutOffHour",
          "type": "uint8"
        },
        {
          "name": "cutOffMinute",
          "type": "uint8"
        },
        {
          "name": "processingCap",
          "type": "uint32"
        },
        {
          "name": "ticketRangeFactor",
          "type": "uint128"
        },
        {
          "name": "lowerLimitPercentage",
          "type": "uint8"
        }
      ],
      "name": "setPrizeLinkedAccountSettings",
      "outputs": [],
      "payable": false,
      "stateMutability": "nonpayable",
      "type": "function"
    },
    {
      "constant": true,
      "inputs": [],
      "name": "getAmountBroughtToNextDraw",
      "outputs": [
        {
          "name": "",
          "type": "uint256"
        }
      ],
      "payable": false,
      "stateMutability": "view",
      "type": "function"
    },
    {
      "constant": false,
      "inputs": [
        {
          "name": "account",
          "type": "address"
        }
      ],
      "name": "removeOperator",
      "outputs": [],
      "payable": false,
      "stateMutability": "nonpayable",
      "type": "function"
    },
    {
      "constant": false,
      "inputs": [
        {
          "name": "admin",
          "type": "address"
        },
        {
          "name": "tokenAddress",
          "type": "address"
        },
        {
          "name": "standardInterestRate",
          "type": "uint32"
        },
        {
          "name": "standardInterestRatePercentageBase",
          "type": "uint32"
        },
        {
          "name": "budget",
          "type": "uint256"
        },
        {
          "name": "ticketPerToken",
          "type": "uint16"
        },
        {
          "name": "cutOffHour",
          "type": "uint8"
        },
        {
          "name": "cutOffMinute",
          "type": "uint8"
        },
        {
          "name": "processingCap",
          "type": "uint32"
        },
        {
          "name": "ticketRangeFactor",
          "type": "uint128"
        },
        {
          "name": "lowerLimitPercentage",
          "type": "uint8"
        }
      ],
      "name": "initialize",
      "outputs": [],
      "payable": false,
      "stateMutability": "nonpayable",
      "type": "function"
    },
    {
      "constant": false,
      "inputs": [
        {
          "name": "drawTimeStamp",
          "type": "uint256"
        }
      ],
      "name": "regenerateTicketForNextDraw",
      "outputs": [
        {
          "name": "",
          "type": "uint256"
        }
      ],
      "payable": false,
      "stateMutability": "nonpayable",
      "type": "function"
    },
    {
      "constant": false,
      "inputs": [
        {
          "name": "recipient",
          "type": "address"
        },
        {
          "name": "amount",
          "type": "uint256"
        }
      ],
      "name": "invest",
      "outputs": [
        {
          "name": "",
          "type": "bool"
        }
      ],
      "payable": false,
      "stateMutability": "nonpayable",
      "type": "function"
    },
    {
      "constant": true,
      "inputs": [
        {
          "name": "role",
          "type": "bytes32"
        }
      ],
      "name": "getRoleMemberCount",
      "outputs": [
        {
          "name": "",
          "type": "uint256"
        }
      ],
      "payable": false,
      "stateMutability": "view",
      "type": "function"
    },
    {
      "constant": true,
      "inputs": [
        {
          "name": "c__0x90feacde",
          "type": "bytes32"
        }
      ],
      "name": "c_0x90feacde",
      "outputs": [],
      "payable": false,
      "stateMutability": "pure",
      "type": "function"
    },
    {
      "constant": false,
      "inputs": [
        {
          "name": "owner",
          "type": "address"
        },
        {
          "name": "amount",
          "type": "uint256"
        },
        {
          "name": "securityHash",
          "type": "bytes"
        }
      ],
      "name": "createPrizedLinkAccount",
      "outputs": [
        {
          "name": "",
          "type": "bool"
        }
      ],
      "payable": false,
      "stateMutability": "nonpayable",
      "type": "function"
    },
    {
      "constant": false,
      "inputs": [
        {
          "name": "role",
          "type": "bytes32"
        },
        {
          "name": "account",
          "type": "address"
        }
      ],
      "name": "revokeRole",
      "outputs": [],
      "payable": false,
      "stateMutability": "nonpayable",
      "type": "function"
    },
    {
      "constant": true,
      "inputs": [
        {
          "name": "drawTimeStamp",
          "type": "uint256"
        }
      ],
      "name": "getDrawDetails",
      "outputs": [
        {
          "name": "participants",
          "type": "address[]"
        },
        {
          "name": "ticketIds",
          "type": "uint96[]"
        },
        {
          "name": "winningTicket",
          "type": "uint256"
        },
        {
          "name": "balanceEachDraw",
          "type": "uint256"
        }
      ],
      "payable": false,
      "stateMutability": "view",
      "type": "function"
    },
    {
      "constant": true,
      "inputs": [
        {
          "name": "idx",
          "type": "uint256"
        }
      ],
      "name": "getTicketRangeById",
      "outputs": [
        {
          "name": "",
          "type": "uint96"
        },
        {
          "name": "",
          "type": "address"
        },
        {
          "name": "",
          "type": "uint256"
        },
        {
          "name": "",
          "type": "uint256"
        }
      ],
      "payable": false,
      "stateMutability": "view",
      "type": "function"
    },
    {
      "constant": false,
      "inputs": [
        {
          "name": "owner",
          "type": "address"
        },
        {
          "name": "amount",
          "type": "uint256"
        }
      ],
      "name": "withdrawFor",
      "outputs": [
        {
          "name": "",
          "type": "bool"
        }
      ],
      "payable": false,
      "stateMutability": "nonpayable",
      "type": "function"
    },
    {
      "constant": true,
      "inputs": [
        {
          "name": "drawTimeStamp",
          "type": "uint256"
        },
        {
          "name": "owner",
          "type": "address"
        }
      ],
      "name": "getTickerIdsByOwnerAndDrawFor",
      "outputs": [
        {
          "name": "",
          "type": "uint96[]"
        }
      ],
      "payable": false,
      "stateMutability": "view",
      "type": "function"
    },
    {
      "constant": true,
      "inputs": [
        {
          "name": "c__0x3cfa3e8e",
          "type": "bytes32"
        }
      ],
      "name": "c_0x3cfa3e8e",
      "outputs": [],
      "payable": false,
      "stateMutability": "pure",
      "type": "function"
    },
    {
      "constant": true,
      "inputs": [
        {
          "name": "drawTimeStamp",
          "type": "uint256"
        }
      ],
      "name": "getDrawWinner",
      "outputs": [
        {
          "name": "result",
          "type": "address"
        }
      ],
      "payable": false,
      "stateMutability": "view",
      "type": "function"
    },
    {
      "constant": false,
      "inputs": [
        {
          "name": "drawTimeStamp",
          "type": "uint256"
        },
        {
          "name": "seed",
          "type": "uint256"
        }
      ],
      "name": "makeDrawV1",
      "outputs": [
        {
          "name": "",
          "type": "uint256"
        }
      ],
      "payable": false,
      "stateMutability": "nonpayable",
      "type": "function"
    },
    {
      "constant": true,
      "inputs": [],
      "name": "OPERATOR_ROLE",
      "outputs": [
        {
          "name": "",
          "type": "bytes32"
        }
      ],
      "payable": false,
      "stateMutability": "view",
      "type": "function"
    },
    {
      "anonymous": false,
      "inputs": [
        {
          "indexed": false,
          "name": "winner",
          "type": "address"
        },
        {
          "indexed": false,
          "name": "reward",
          "type": "uint256"
        }
      ],
      "name": "WinnerSelected",
      "type": "event"
    },
    {
      "anonymous": false,
      "inputs": [
        {
          "indexed": true,
          "name": "recipient",
          "type": "address"
        },
        {
          "indexed": false,
          "name": "amount",
          "type": "uint256"
        }
      ],
      "name": "Invested",
      "type": "event"
    },
    {
      "anonymous": false,
      "inputs": [
        {
          "indexed": true,
          "name": "drawTimeStamp",
          "type": "uint256"
        },
        {
          "indexed": true,
          "name": "ticketId",
          "type": "uint256"
        },
        {
          "indexed": true,
          "name": "owner",
          "type": "address"
        },
        {
          "indexed": false,
          "name": "upper",
          "type": "uint256"
        },
        {
          "indexed": false,
          "name": "lower",
          "type": "uint256"
        }
      ],
      "name": "TicketCreated",
      "type": "event"
    },
    {
      "anonymous": false,
      "inputs": [
        {
          "indexed": true,
          "name": "accountHash",
          "type": "bytes32"
        },
        {
          "indexed": true,
          "name": "owner",
          "type": "address"
        }
      ],
      "name": "AccountCreated",
      "type": "event"
    },
    {
      "anonymous": false,
      "inputs": [
        {
          "indexed": true,
          "name": "depositHash",
          "type": "bytes32"
        },
        {
          "indexed": true,
          "name": "owner",
          "type": "address"
        },
        {
          "indexed": false,
          "name": "deposit",
          "type": "uint256"
        }
      ],
      "name": "DepositCreated",
      "type": "event"
    },
    {
      "anonymous": false,
      "inputs": [
        {
          "indexed": true,
          "name": "owner",
          "type": "address"
        },
        {
          "indexed": true,
          "name": "recipient",
          "type": "address"
        },
        {
          "indexed": false,
          "name": "amount",
          "type": "uint256"
        }
      ],
      "name": "Withdrawn",
      "type": "event"
    },
    {
      "anonymous": false,
      "inputs": [
        {
          "indexed": true,
          "name": "role",
          "type": "bytes32"
        },
        {
          "indexed": true,
          "name": "account",
          "type": "address"
        },
        {
          "indexed": true,
          "name": "sender",
          "type": "address"
        }
      ],
      "name": "RoleGranted",
      "type": "event"
    },
    {
      "anonymous": false,
      "inputs": [
        {
          "indexed": true,
          "name": "role",
          "type": "bytes32"
        },
        {
          "indexed": true,
          "name": "account",
          "type": "address"
        },
        {
          "indexed": true,
          "name": "sender",
          "type": "address"
        }
      ],
      "name": "RoleRevoked",
      "type": "event"
    }
  ],
  "bytecode": "0x60806040526201182480620000156000396000f3fe60806040526004361062000253576000357c0100000000000000000000000000000000000000000000000000000000900463ffffffff168063033d086d1462000258578063248a9ca314620002cf57806324d7806c1462000322578063294eefaa146200038f5780632ab6f8db14620004915780632e1a7d4d14620004ab5780632eda6f8714620005025780632f2ff15d146200054157806336568abe14620005a05780634218774b14620005ff578063529298b81462000695578063560b6ed41462000723578063669ec8b714620007b05780636d42555014620007ef5780636d70f7ae14620008855780637048027514620008f25780637a86983f14620009475780638067e00214620009e257806382133e381462000a3c57806386f8474c1462000b795780638bad0c0a1462000bb85780638be306571462000bd25780639010d07c1462000c2957806391d148541462000cb25780639870d7fe1462000d295780639964476f1462000d7e578063a217fddf1462000e80578063a8cb73311462000eae578063a95766941462000f79578063ac8a584a1462000fa7578063ad395d921462000ffc578063b58d3ff314620010fd578063b9b8c2461462001150578063ca15c87314620011c7578063cc264502146200121a578063cf123e301462001259578063d547741f1462001328578063d5a962e41462001387578063d93e81a71462001475578063db518db21462001525578063dbd6f1c4146200159c578063ed5c04911462001652578063ee37fb4c1462001691578063ee5bf65f1462001710578063f5b541a6146200176d575b600080fd5b3480156200026557600080fd5b50620002b5600480360360408110156200027e57600080fd5b81019080803573ffffffffffffffffffffffffffffffffffffffff169060200190929190803590602001909291905050506200179b565b604051808215151515815260200191505060405180910390f35b348015620002dc57600080fd5b506200030c60048036036020811015620002f557600080fd5b810190808035906020019092919050505062001c8b565b6040518082815260200191505060405180910390f35b3480156200032f57600080fd5b5062000375600480360360208110156200034857600080fd5b81019080803573ffffffffffffffffffffffffffffffffffffffff16906020019092919050505062001d35565b604051808215151515815260200191505060405180910390f35b3480156200039c57600080fd5b50620003a762001dd8565b604051808c63ffffffff1663ffffffff1681526020018b63ffffffff1663ffffffff1681526020018a81526020018981526020018873ffffffffffffffffffffffffffffffffffffffff1673ffffffffffffffffffffffffffffffffffffffff1681526020018761ffff1661ffff1681526020018660ff1660ff1681526020018560ff1660ff1681526020018463ffffffff1663ffffffff168152602001836fffffffffffffffffffffffffffffffff166fffffffffffffffffffffffffffffffff1681526020018260ff1660ff1681526020019b50505050505050505050505060405180910390f35b3480156200049e57600080fd5b50620004a962002061565b005b348015620004b857600080fd5b50620004e860048036036020811015620004d157600080fd5b810190808035906020019092919050505062002137565b604051808215151515815260200191505060405180910390f35b3480156200050f57600080fd5b506200053f600480360360208110156200052857600080fd5b8101908080359060200190929190505050620021e9565b005b3480156200054e57600080fd5b506200059e600480360360408110156200056757600080fd5b8101908080359060200190929190803573ffffffffffffffffffffffffffffffffffffffff169060200190929190505050620021ec565b005b348015620005ad57600080fd5b50620005fd60048036036040811015620005c657600080fd5b8101908080359060200190929190803573ffffffffffffffffffffffffffffffffffffffff16906020019092919050505062002404565b005b3480156200060c57600080fd5b506200063c600480360360208110156200062557600080fd5b810190808035906020019092919050505062002629565b6040518080602001828103825283818151815260200191508051906020019060200280838360005b838110156200068157808201518184015260208101905062000664565b505050509050019250505060405180910390f35b348015620006a257600080fd5b50620006ad62002ae1565b604051808663ffffffff1663ffffffff1681526020018563ffffffff1663ffffffff1681526020018481526020018381526020018273ffffffffffffffffffffffffffffffffffffffff1673ffffffffffffffffffffffffffffffffffffffff1681526020019550505050505060405180910390f35b3480156200073057600080fd5b5062000796600480360360408110156200074957600080fd5b81019080803573ffffffffffffffffffffffffffffffffffffffff169060200190929190803573ffffffffffffffffffffffffffffffffffffffff16906020019092919050505062002bd3565b604051808215151515815260200191505060405180910390f35b348015620007bd57600080fd5b50620007ed60048036036020811015620007d657600080fd5b810190808035906020019092919050505062002e53565b005b348015620007fc57600080fd5b506200082c600480360360208110156200081557600080fd5b810190808035906020019092919050505062002e56565b6040518080602001828103825283818151815260200191508051906020019060200280838360005b838110156200087157808201518184015260208101905062000854565b505050509050019250505060405180910390f35b3480156200089257600080fd5b50620008d860048036036020811015620008ab57600080fd5b81019080803573ffffffffffffffffffffffffffffffffffffffff16906020019092919050505062002efd565b604051808215151515815260200191505060405180910390f35b348015620008ff57600080fd5b5062000945600480360360208110156200091857600080fd5b81019080803573ffffffffffffffffffffffffffffffffffffffff16906020019092919050505062002fd1565b005b3480156200095457600080fd5b5062000984600480360360208110156200096d57600080fd5b81019080803590602001909291905050506200320b565b604051808681526020018581526020018473ffffffffffffffffffffffffffffffffffffffff1673ffffffffffffffffffffffffffffffffffffffff1681526020018381526020018281526020019550505050505060405180910390f35b348015620009ef57600080fd5b5062000a1f6004803603602081101562000a0857600080fd5b81019080803590602001909291905050506200335d565b604051808381526020018281526020019250505060405180910390f35b34801562000a4957600080fd5b5062000a8f6004803603602081101562000a6257600080fd5b81019080803573ffffffffffffffffffffffffffffffffffffffff1690602001909291905050506200358d565b604051808981526020018881526020018773ffffffffffffffffffffffffffffffffffffffff1673ffffffffffffffffffffffffffffffffffffffff16815260200186815260200185815260200184815260200183600481111562000af057fe5b60ff16815260200180602001828103825283818151815260200191508051906020019080838360005b8381101562000b3657808201518184015260208101905062000b19565b50505050905090810190601f16801562000b645780820380516001836020036101000a031916815260200191505b50995050505050505050505060405180910390f35b34801562000b8657600080fd5b5062000bb66004803603602081101562000b9f57600080fd5b8101908080359060200190929190505050620037e7565b005b34801562000bc557600080fd5b5062000bd0620037ea565b005b34801562000bdf57600080fd5b5062000c0f6004803603602081101562000bf857600080fd5b81019080803590602001909291905050506200398e565b604051808215151515815260200191505060405180910390f35b34801562000c3657600080fd5b5062000c706004803603604081101562000c4f57600080fd5b81019080803590602001909291908035906020019092919050505062004205565b604051808273ffffffffffffffffffffffffffffffffffffffff1673ffffffffffffffffffffffffffffffffffffffff16815260200191505060405180910390f35b34801562000cbf57600080fd5b5062000d0f6004803603604081101562000cd857600080fd5b8101908080359060200190929190803573ffffffffffffffffffffffffffffffffffffffff169060200190929190505050620042c3565b604051808215151515815260200191505060405180910390f35b34801562000d3657600080fd5b5062000d7c6004803603602081101562000d4f57600080fd5b81019080803573ffffffffffffffffffffffffffffffffffffffff16906020019092919050505062004381565b005b34801562000d8b57600080fd5b5062000d96620045ec565b604051808981526020018881526020018773ffffffffffffffffffffffffffffffffffffffff1673ffffffffffffffffffffffffffffffffffffffff16815260200186815260200185815260200184815260200183600481111562000df757fe5b60ff16815260200180602001828103825283818151815260200191508051906020019080838360005b8381101562000e3d57808201518184015260208101905062000e20565b50505050905090810190601f16801562000e6b5780820380516001836020036101000a031916815260200191505b50995050505050505050505060405180910390f35b34801562000e8d57600080fd5b5062000e98620046b1565b6040518082815260200191505060405180910390f35b34801562000ebb57600080fd5b5062000f77600480360361014081101562000ed557600080fd5b81019080803563ffffffff169060200190929190803563ffffffff1690602001909291908035906020019092919080359060200190929190803561ffff169060200190929190803560ff169060200190929190803560ff169060200190929190803563ffffffff16906020019092919080356fffffffffffffffffffffffffffffffff169060200190929190803560ff169060200190929190505050620046b9565b005b34801562000f8657600080fd5b5062000f9162004ad3565b6040518082815260200191505060405180910390f35b34801562000fb457600080fd5b5062000ffa6004803603602081101562000fcd57600080fd5b81019080803573ffffffffffffffffffffffffffffffffffffffff16906020019092919050505062004b67565b005b3480156200100957600080fd5b50620010fb60048036036101608110156200102357600080fd5b81019080803573ffffffffffffffffffffffffffffffffffffffff169060200190929190803573ffffffffffffffffffffffffffffffffffffffff169060200190929190803563ffffffff169060200190929190803563ffffffff16906020019092919080359060200190929190803561ffff169060200190929190803560ff169060200190929190803560ff169060200190929190803563ffffffff16906020019092919080356fffffffffffffffffffffffffffffffff169060200190929190803560ff16906020019092919050505062004dd2565b005b3480156200110a57600080fd5b506200113a600480360360208110156200112357600080fd5b810190808035906020019092919050505062005339565b6040518082815260200191505060405180910390f35b3480156200115d57600080fd5b50620011ad600480360360408110156200117657600080fd5b81019080803573ffffffffffffffffffffffffffffffffffffffff1690602001909291908035906020019092919050505062005a01565b604051808215151515815260200191505060405180910390f35b348015620011d457600080fd5b506200120460048036036020811015620011ed57600080fd5b810190808035906020019092919050505062006323565b6040518082815260200191505060405180910390f35b3480156200122757600080fd5b5062001257600480360360208110156200124057600080fd5b8101908080359060200190929190505050620063d6565b005b3480156200126657600080fd5b506200130e600480360360608110156200127f57600080fd5b81019080803573ffffffffffffffffffffffffffffffffffffffff1690602001909291908035906020019092919080359060200190640100000000811115620012c757600080fd5b820183602082011115620012da57600080fd5b80359060200191846001830284011164010000000083111715620012fd57600080fd5b9091929391929390505050620063d9565b604051808215151515815260200191505060405180910390f35b3480156200133557600080fd5b5062001385600480360360408110156200134e57600080fd5b8101908080359060200190929190803573ffffffffffffffffffffffffffffffffffffffff1690602001909291905050506200697a565b005b3480156200139457600080fd5b50620013c460048036036020811015620013ad57600080fd5b810190808035906020019092919050505062006b92565b604051808060200180602001858152602001848152602001838103835287818151815260200191508051906020019060200280838360005b8381101562001419578082015181840152602081019050620013fc565b50505050905001838103825286818151815260200191508051906020019060200280838360005b838110156200145d57808201518184015260208101905062001440565b50505050905001965050505050505060405180910390f35b3480156200148257600080fd5b50620014b2600480360360208110156200149b57600080fd5b810190808035906020019092919050505062006ea6565b60405180856bffffffffffffffffffffffff166bffffffffffffffffffffffff1681526020018473ffffffffffffffffffffffffffffffffffffffff1673ffffffffffffffffffffffffffffffffffffffff16815260200183815260200182815260200194505050505060405180910390f35b3480156200153257600080fd5b5062001582600480360360408110156200154b57600080fd5b81019080803573ffffffffffffffffffffffffffffffffffffffff1690602001909291908035906020019092919050505062006f50565b604051808215151515815260200191505060405180910390f35b348015620015a957600080fd5b50620015f960048036036040811015620015c257600080fd5b8101908080359060200190929190803573ffffffffffffffffffffffffffffffffffffffff1690602001909291905050506200718e565b6040518080602001828103825283818151815260200191508051906020019060200280838360005b838110156200163e57808201518184015260208101905062001621565b505050509050019250505060405180910390f35b3480156200165f57600080fd5b506200168f600480360360208110156200167857600080fd5b8101908080359060200190929190505050620073cb565b005b3480156200169e57600080fd5b50620016ce60048036036020811015620016b757600080fd5b8101908080359060200190929190505050620073ce565b604051808273ffffffffffffffffffffffffffffffffffffffff1673ffffffffffffffffffffffffffffffffffffffff16815260200191505060405180910390f35b3480156200171d57600080fd5b5062001757600480360360408110156200173657600080fd5b810190808035906020019092919080359060200190929190505050620079d9565b6040518082815260200191505060405180910390f35b3480156200177a57600080fd5b506200178562007ec2565b6040518082815260200191505060405180910390f35b6000620017cb7f269b98238e7be55b5d7a3db79f2a96a0e9fa4e47593a6bb52d82c25d08facd7e600102620073cb565b620017f97fa0a2fde32d4e52005b78eac14a1ab6ae68b38ec56c08824fdb8abe489653882d600102620073cb565b620018277f1879b1107adb408f8af76f8f45ac4e99c6f1bcc9102431bca363de52c073b1dd600102620073cb565b620018557fd7067e1fc31ce2497d1aad67288494aad7eff15e9ad64f38f62ac1f194430691600102620073cb565b620018696200186362007efb565b62002efd565b1515620018de576040517f08c379a00000000000000000000000000000000000000000000000000000000081526004018080602001828103825260188152602001807f5265737472696374656420746f204f70657261746f72732e000000000000000081525060200191505060405180910390fd5b6200190c7f789ba8c5ad5c32a80dfff31774c44fcc100d45bdb016459c014ebdcb9ac24222600102620073cb565b6200193a7f02ecd88ec5aa7f79e1b04fa2d5196f70633b82efea766ec554a5367eb186c0ed600102620073cb565b620019687f368099d1d25419c5f165811893069d50b1bef4a52e6fb1473e5347f2da054c1b60010262002e53565b620019967f718e552333072fe9f0e280503446b85db4d397dcbbd7da5534687e68eb4ab04660010262002e53565b620019c47fe567cdfe173eb10f1bee6c3048ad125eea33fb649703b5d955d49a30030c1fda60010262002e53565b620019f27f2b20609d45adc11ac7cc8aede05ca1affe0d5abb1a348923d89737fa82a6266660010262002e53565b60a660009054906101000a900473ffffffffffffffffffffffffffffffffffffffff1673ffffffffffffffffffffffffffffffffffffffff166323b872dd8430856040518463ffffffff167c0100000000000000000000000000000000000000000000000000000000028152600401808473ffffffffffffffffffffffffffffffffffffffff1673ffffffffffffffffffffffffffffffffffffffff1681526020018373ffffffffffffffffffffffffffffffffffffffff1673ffffffffffffffffffffffffffffffffffffffff1681526020018281526020019350505050602060405180830381600087803b15801562001aec57600080fd5b505af115801562001b01573d6000803e3d6000fd5b505050506040513d602081101562001b1857600080fd5b8101908080519060200190929190505050151562001bea576040517f08c379a000000000000000000000000000000000000000000000000000000000815260040180806020018281038252604d8152602001807f476c7577615072697a654c696e6b65644163636f756e743a20556e61626c652081526020017f746f2073656e6420616d6f756e7420746f206465706f73697420746f2061205381526020017f6176696e67204163636f756e740000000000000000000000000000000000000081525060600191505060405180910390fd5b62001c187f729930684f397b559dde247f5e52caff319c923c621ba0382ade087b7964132460010262002e53565b62001c467f08647ebbc4d563afe348610b41eebd13565e1f301848af7da8ccbeed59ef98bd60010262002e53565b62001c747f87da49d6dbf3dc25f33a5da747ad282ca057a11d49c7125c9b65c311ddbf076160010262002e53565b62001c83838342600062007f03565b905092915050565b600062001cbb7f8ef3a2c3240e4fed75685458a30e1852c1e366c8a3b897910fa24f0e9c12a393600102620037e7565b62001ce97f9b2d7cec472af26dd1bd892afafe2be066b09e44a7474e6389d058285c4b9598600102620037e7565b62001d177f050340438b0b1f0f74eb1ff71edc211936f7fbfc40a7bf8e9ffa724dc49364f4600102620037e7565b60336000838152602001908152602001600020600201549050919050565b600062001d657ffd7e2637835a60722c80d268652d57225b15dde47b888629fcd49b6f443284bc600102620073cb565b62001d937fef0ee839a87e09beff700b1545467b1e7edec5145e69a952185625b7febbbeaf600102620073cb565b62001dc17fbdf835ee0fe59519e68e959a2766d368864459c142b651dc6d6cc62e98a49287600102620073cb565b62001dd1600060010283620042c3565b9050919050565b600080600080600080600080600080600062001e177f25c9d0ffdc168da5ca5a9edfe4529e7b902a78a5f6c9647ce9cb177f02a8ac3e60010262002e53565b62001e457f30be0bc5f9b6350dfe8facb2ea36a5912023737f69cd70a479e75f62f925141760010262002e53565b62001e737f79c71ca22ffb61c2c72e4170a9b068447cbcb91e3747b1e362391715cd8d94cb60010262002e53565b61011a60029054906101000a900461ffff16955062001eb57f8a16c72f3d08964d4b71e36810ab99653e2f46d2a9bf826bd1cd8478aba4ccdf60010262002e53565b62001ee37f4c5a6d99af1d45b4628e99e4b269c0176ad4768b1613c46f64919d4f12c5b50060010262002e53565b61011a60049054906101000a900463ffffffff16925062001f277f9abe30724f1c1e411ce654e9058954211a49ab0e32f5e13424885f989705421060010262002e53565b62001f557f87ab8e0fce645dd5495297a7416c7077ce2f4d6c38f22b9b86c55bc45215999360010262002e53565b61011a60009054906101000a900460ff16905062001f967f3016d6c65356c6bd6072f49bf42e8a5a55948337998dc23426da3360cf2578ed60010262002e53565b62001fc47f63690ab96e941ffb1f96dfb7a8fcf5c5b8710583e7cb9e1cc190cc5a7dee657860010262002e53565b62001fce62002ae1565b809b50819c50829d50839e50849f505050505050620020107f5a6933ab24684a28b8245d9e8f5de430c12f8739fc19593243d1dcfbd07f32aa60010262002e53565b6200203e7f20cca562ee167233012a43d4054b1386074f09acb3ca01b39fb39ef8615d4a9d60010262002e53565b6200204862008013565b809450819650829750505050909192939495969798999a565b6200208f7fb10bf9abe0342730296765bd2cd0c9a5ea98992024bec04a1e36f58f52126027600102620073cb565b620020bd7f13cdd538e624b7d3380c6e79d8ae423ccc25837f48aea5f0afebdca7d08c9e21600102620073cb565b620020eb7feffda485d19a3eece6b6ab860484e848f4781862b85aaf4178964fcf82bb3e1f600102620073cb565b6200213560405180807f4f50455241544f52000000000000000000000000000000000000000000000000815250600801905060405180910390206200212f62007efb565b62002404565b565b6000620021677f5ebd6d88fb36938184f1410d949c16a4bc91cb13d0f07cb98645fab8352643c860010262002e53565b620021957f5e8f52e2588f032fb0401ec72f140df28676aa3e443604207fb07411f497048560010262002e53565b620021c37f756d4697b99f9470f2788e3d48f1981b182d2f71a8abffb308cfa8bc5140abc960010262002e53565b620021e2620021d162007efb565b620021db62007efb565b84620080ec565b9050919050565b50565b6200221a7fb74ad924ba00500175ccb9c922e90ece5516bede925bc063783bc6086080a705600102620037e7565b620022487fc538a949ad73d85fa871d4fe7b7caf55c98db10decb79e8201e5b229bf49f8d9600102620037e7565b620022767f35ef7fe8d6d02844d6863bb6c55f0d1e296384393834f2824348a5a3fe583ff9600102620037e7565b620022a47fe3926445fba9229f612ea4ab3450183300047551d9413fe24bf861e541ee22b4600102620037e7565b620022cf6033600084815260200190815260200160002060020154620022c962007efb565b620042c3565b15156200236a576040517f08c379a000000000000000000000000000000000000000000000000000000000815260040180806020018281038252602f8152602001807f416363657373436f6e74726f6c3a2073656e646572206d75737420626520616e81526020017f2061646d696e20746f206772616e74000000000000000000000000000000000081525060400191505060405180910390fd5b620023987f178ba80f02f74abd0ff251d2ea78ec810b40bec9630b6a70cdfbec8d0795e142600102620037e7565b620023c67fec551c3ea353e36cbba2586629cb6098113180911ee1a321937b05ae2a2752b6600102620037e7565b620023f47f84fcfc621d3e05319f4172e0bac43d08f99c5f386a82d921c479c6bf1caa5b9e600102620037e7565b62002400828262008522565b5050565b620024327fd93c5a94a5b1886c0bb5575c3cca63b6410bf5cc633908251d561210acc14eaa600102620037e7565b620024607f52b73aa8f50ab99b6810012a79aa4f25995f134e8c54dbcb5d80e568f5fdfbe7600102620037e7565b6200248e7f4de32a619436a15decb84a173b4469efaa235be2016b7657229d7bb4d915f167600102620037e7565b620024bc7fd8479504df472c40b9d2d46578fc0bad271dba561f3c3bfae8432ee4398cd9a8600102620037e7565b620024c662007efb565b73ffffffffffffffffffffffffffffffffffffffff168173ffffffffffffffffffffffffffffffffffffffff161415156200258f576040517f08c379a000000000000000000000000000000000000000000000000000000000815260040180806020018281038252602f8152602001807f416363657373436f6e74726f6c3a2063616e206f6e6c792072656e6f756e636581526020017f20726f6c657320666f722073656c66000000000000000000000000000000000081525060400191505060405180910390fd5b620025bd7f056ca1d611325f492ec9a258615105c0c61c1935da3efbb61fbb153378d318dd600102620037e7565b620025eb7fb300cb213a808a8d25947dc127c3188ce2125091b485b407bb84a476fe38d0dc600102620037e7565b620026197f7b5ca71ff0c3170626af9f1558f947e9704f6758fabb43f6074fe812966bce56600102620037e7565b62002625828262008703565b5050565b6060620026597f4055094ee938ac478c67721fa04da3c5e6130172fcf7895af3203ad5d703240560010262002e53565b620026877f55fb64c4d4d6cf94ce8a413d66cc411b6dca416c50fa2be261047c4c5e507a7f60010262002e53565b620026b57fd436c8654e955acd1211f29a5aa18846bedb3f78d5ce3cc2fa9636ad9194a72e60010262002e53565b6000620026e57fa1ce5180c6ab847e296c90ab909d21b74a90bd346200740c09675152f17d324f60010262002e53565b620027137fc06f9ab0a42067a3032004a1a614e8eb2400747d61d289999b531b49d72db4b260010262002e53565b60008090505b609b8054905081101562002ada57620027557ffc1a22c806fb858100e543a0113f5030549cf1d5e9914e9ff96548df4958770260010262002e53565b620027837f652e117f8199b91a755823b95c9a7ccbe183fafb662283f460b330e5ba66a30a60010262002e53565b600060e260008681526020019081526020016000206000609b84815481101515620027aa57fe5b9060005260206000200160009054906101000a900473ffffffffffffffffffffffffffffffffffffffff1673ffffffffffffffffffffffffffffffffffffffff1673ffffffffffffffffffffffffffffffffffffffff168152602001908152602001600020805490501480156200289d5750600060a76000609b848154811015156200283257fe5b9060005260206000200160009054906101000a900473ffffffffffffffffffffffffffffffffffffffff1673ffffffffffffffffffffffffffffffffffffffff1673ffffffffffffffffffffffffffffffffffffffff16815260200190815260200160002060040154115b80156200294b575060016004811115620028b357fe5b60a76000609b84815481101515620028c757fe5b9060005260206000200160009054906101000a900473ffffffffffffffffffffffffffffffffffffffff1673ffffffffffffffffffffffffffffffffffffffff1673ffffffffffffffffffffffffffffffffffffffff16815260200190815260200160002060060160009054906101000a900460ff1660048111156200294957fe5b145b1562002a9d576200297f7f04ac96bf3f7bedf438d92468329e5048138da52c598656dd27de0b9a9767588660010262002e53565b620029ad7fb92dbc1cac19b913178a237a11f0087dfc4f8ddcb0b81ce1296c9792a388d4fb60010262002e53565b620029db7f833f3b4341ff58a0e7be1edbb5dfc0dc374fc9896a676dbbe733866d03cf74d560010262002e53565b609b81815481101515620029eb57fe5b9060005260206000200160009054906101000a900473ffffffffffffffffffffffffffffffffffffffff16838381518110151562002a2557fe5b9060200190602002019073ffffffffffffffffffffffffffffffffffffffff16908173ffffffffffffffffffffffffffffffffffffffff168152505062002a8f7f3a04ad7e9e78a5c1fc6cff605b009e257dee910e66faa994e8afe9c7316045a260010262002e53565b818060010192505062002acc565b62002acb7fccce1dbaba59abcf83396e478aed4d6e0fcfd31a26264a2061cb7b2ad61cb5f260010262002e53565b5b808060010191505062002719565b5050919050565b600080600080600062002b177fb8d6fe4d206a56650f24d72f070f71bdbd4efc05528abdcbdf6afc84c501f49f600102620063d6565b62002b457fb99a31350ae3897b0324900b09a8f7d7bb6fa19f90c71b319f378a95557fb7a5600102620063d6565b62002b737f4ca501c0cb561651c33ae36670e607a28c9eb1fb76b011947bd0e9074831149b600102620063d6565b60a460009054906101000a900463ffffffff1660a460049054906101000a900463ffffffff1660985460995460a660009054906101000a900473ffffffffffffffffffffffffffffffffffffffff16945094509450945094509091929394565b600062002c037f6c875126be1726ab2fc657648964c34d167c9eea09e982826bf5fe2b9ca2d324600102620073cb565b62002c317f62099aa8d5be0c25cfa94c8b816435976ac44df70e57c0cd61c9aa5a6e8ea507600102620073cb565b62002c5f7f453557595d5569438781ff2bffda3521e47a9e00825bc9def362d351cf3e1c74600102620073cb565b62002c8d7f36164c6dee9768d45bd325d105734bbcb52f53401478cd02c4ecad63c18b8e68600102620073cb565b62002ca162002c9b62007efb565b62001d35565b151562002d16576040517f08c379a00000000000000000000000000000000000000000000000000000000081526004018080602001828103825260158152602001807f5265737472696374656420746f2041646d696e732e000000000000000000000081525060200191505060405180910390fd5b62002d447fc2ac55851c10e49d80d29047d52eddd577a7571d2b2f4dad9e5fcaa5c07a9bb2600102620073cb565b62002d727fb725922c818f0782603dba098ae6ebcd63326dfb07c08fa6ef52bb86e381fb36600102620073cb565b62002da07f27fd17f8241eb741602bcbf29405d1096a5a1e5ba53cb986b997c65dfbce6bac60010262002e53565b62002dce7f2b542bfe75d9773d4aa5b87ce095933ae3dae71347b73449f5da958e6aa9c6e660010262002e53565b62002dfc7f4e5d758321caddaa3eccdfa5f9696124b9bca2a340cc5db0b7f8832cc8528a3a60010262002e53565b62002e4b838360a760008773ffffffffffffffffffffffffffffffffffffffff1673ffffffffffffffffffffffffffffffffffffffff16815260200190815260200160002060040154620080ec565b905092915050565b50565b606062002e867f0d0494f3813a25cd964f7c272cdf7778e5ebe34f82c85fa900174a4ec414bb7960010262002e53565b62002eb47f20c8a1a4e166c098a418f14ca157f928aa778528e3a57712569ec38b5249043e60010262002e53565b62002ee17e15b3931a5cbcfdb94468d8463d57e10b927ff3f5dec27f29fed6582db4612360010262002e53565b62002ef68262002ef062007efb565b620088e4565b9050919050565b600062002f2d7fc0aad2c1f4c71d0d45099bfc691c3cd5b001f96af75e9e3b342f389f86c26147600102620073cb565b62002f5b7f86524858a643a3d44641956918739c1a8adbfa262f51365867258a74777ab6e8600102620073cb565b62002f897f34882e832c710efee608a8c31c6b4f81a2882df9495d9d914960835bc5ed3a6f600102620073cb565b62002fca60405180807f4f50455241544f520000000000000000000000000000000000000000000000008152506008019050604051809103902083620042c3565b9050919050565b62002fff7f6c875126be1726ab2fc657648964c34d167c9eea09e982826bf5fe2b9ca2d324600102620073cb565b6200302d7f62099aa8d5be0c25cfa94c8b816435976ac44df70e57c0cd61c9aa5a6e8ea507600102620073cb565b6200305b7f453557595d5569438781ff2bffda3521e47a9e00825bc9def362d351cf3e1c74600102620073cb565b620030897f36164c6dee9768d45bd325d105734bbcb52f53401478cd02c4ecad63c18b8e68600102620073cb565b6200309d6200309762007efb565b62001d35565b151562003112576040517f08c379a00000000000000000000000000000000000000000000000000000000081526004018080602001828103825260158152602001807f5265737472696374656420746f2041646d696e732e000000000000000000000081525060200191505060405180910390fd5b620031407fc2ac55851c10e49d80d29047d52eddd577a7571d2b2f4dad9e5fcaa5c07a9bb2600102620073cb565b6200316e7fb725922c818f0782603dba098ae6ebcd63326dfb07c08fa6ef52bb86e381fb36600102620073cb565b6200319c7fd14e8c1d0c70855f3f901075500965984cbea219b1fa4a42db605c475f4bbee4600102620073cb565b620031ca7fbe47793fa43a6c9d58b424bbf96d50fa4160ae78cfe3c5dd4bc34ba1ea721386600102620073cb565b620031f87f241ba548cc8253817305eb6cbd99b145edfcecbfaeaba1576d256fce484d5ab2600102620073cb565b62003208600060010282620021ec565b50565b6000806000806000620032417f9a41d87efab0cc27782b615da93830a718cef13deaef96d471626a31bc8fd1c5600102620063d6565b6200326f7f83728831cbe135a745eed85073fc558befbea13a19d4b9770fbee58287534bdd600102620063d6565b6200329d7fc3e2b999117295b9bea137cbb921b04192f0066fbf1fd2c9d79ed9b0727eb577600102620063d6565b600060a860008881526020019081526020016000209050620032e27f4e2b16b1b0644f6bc3a47b05ab1e8597b115c2a72699bdc20fad556b9cccc4fe600102620063d6565b620033107fb166f02045665ffa2ad499d796c42e71b1b8174bac0c60c1db73500d1a05cce1600102620063d6565b806000015481600101548260020160009054906101000a900473ffffffffffffffffffffffffffffffffffffffff1683600301548460040154955095509550955095505091939590929450565b6000806200338e7f2b0227bd0ac303a265db3d5d5aed277f7958ad37889d78eb0fbc207f7ef072a3600102620021e9565b620033bc7f2459bffe89119e7f765dba0c69d9f56e9c5a84cf114d713c55cc1d6103944cad600102620021e9565b620033ea7f6a1eba7c98dedf3c83fbdd13f534dfae6e1555b1abc3827f08a9dc7d0bcb4a6d600102620021e9565b600060e0600085815260200190815260200160002090506200342f7fedbf2e8ec86acd3317cbe2e59954608482107869daad39317d29bb832ec566b5600102620021e9565b6200345d7f1e4c5363833c25365820aa63a423b8fe47c99d9a4612ad17829d7daf3df88765600102620021e9565b60df60008260018480549050038154811015156200347757fe5b9060005260206000209060029182820401919006600c029054906101000a90046bffffffffffffffffffffffff166bffffffffffffffffffffffff168152602001908152602001600020600201549150620034f57f648787b6c7dff445e5877e30c431ead9dd6aa76466c6f6011f5f0c4c2cdac2b8600102620021e9565b620035237fa2403f20be91a7804397e7ab7bc81e5fc9bc0618a4fcced4ff51fa86c96e9794600102620021e9565b60df60008260008154811015156200353757fe5b9060005260206000209060029182820401919006600c029054906101000a90046bffffffffffffffffffffffff166bffffffffffffffffffffffff16815260200190815260200160002060010154925050915091565b60008060008060008060006060620035c87f269b98238e7be55b5d7a3db79f2a96a0e9fa4e47593a6bb52d82c25d08facd7e600102620073cb565b620035f67fa0a2fde32d4e52005b78eac14a1ab6ae68b38ec56c08824fdb8abe489653882d600102620073cb565b620036247f1879b1107adb408f8af76f8f45ac4e99c6f1bcc9102431bca363de52c073b1dd600102620073cb565b620036527fd7067e1fc31ce2497d1aad67288494aad7eff15e9ad64f38f62ac1f194430691600102620073cb565b620036666200366062007efb565b62002efd565b1515620036db576040517f08c379a00000000000000000000000000000000000000000000000000000000081526004018080602001828103825260188152602001807f5265737472696374656420746f204f70657261746f72732e000000000000000081525060200191505060405180910390fd5b620037097f789ba8c5ad5c32a80dfff31774c44fcc100d45bdb016459c014ebdcb9ac24222600102620073cb565b620037377f02ecd88ec5aa7f79e1b04fa2d5196f70633b82efea766ec554a5367eb186c0ed600102620073cb565b620037657f1d5c2fc305a56d3933adc82453ebbf4709053dacad61e77b46885b557845fdb260010262002e53565b620037937f97967807be6d59c3069d8adefa9d23201decd26da8cb1b79524f45d5e766e33c60010262002e53565b620037c17fb42a73083c1befee3c06cea8ca58d55bf5f0c4fe40bbdf9e078a6c1cafcfc00260010262002e53565b620037cc8962008a55565b97509750975097509750975097509750919395975091939597565b50565b620038187f5303ee691770746a94c441c3c1db6f6814117793a7840e90eb05ab2e64931063600102620073cb565b620038467ff44ed11abb9d946c2a432fbe662d20f04907a2376ad219db63c38ca689de88f6600102620073cb565b620038747fa3b8cd17878a18b96beb23c675e90566c628339c690cc02fef2e6714e599336b600102620073cb565b60006200388062007efb565b9050620038b07fd043dcbf206250dd68a1ab9b20e9de58383ca14921d02cd31d12f14d0bb02831600102620073cb565b620038de7f0ccac8621a40ca7b127c6496eeb6b54e74cc4e17a98af94873762388c2e983e6600102620073cb565b620038ee60006001028262002404565b6200391c7f538432c19549aadca9e46abd21c2247ce49f9f0f49908507b517e89a1ba9fef2600102620073cb565b6200394a7f3bd31538f2a58cfe062227505d07a18feb1647396af308980226ca2806c11fb5600102620073cb565b6200398b60405180807f4f50455241544f52000000000000000000000000000000000000000000000000815250600801905060405180910390208262002404565b50565b6000620039be7f269b98238e7be55b5d7a3db79f2a96a0e9fa4e47593a6bb52d82c25d08facd7e600102620073cb565b620039ec7fa0a2fde32d4e52005b78eac14a1ab6ae68b38ec56c08824fdb8abe489653882d600102620073cb565b62003a1a7f1879b1107adb408f8af76f8f45ac4e99c6f1bcc9102431bca363de52c073b1dd600102620073cb565b62003a487fd7067e1fc31ce2497d1aad67288494aad7eff15e9ad64f38f62ac1f194430691600102620073cb565b62003a5c62003a5662007efb565b62002efd565b151562003ad1576040517f08c379a00000000000000000000000000000000000000000000000000000000081526004018080602001828103825260188152602001807f5265737472696374656420746f204f70657261746f72732e000000000000000081525060200191505060405180910390fd5b62003aff7f789ba8c5ad5c32a80dfff31774c44fcc100d45bdb016459c014ebdcb9ac24222600102620073cb565b62003b2d7f02ecd88ec5aa7f79e1b04fa2d5196f70633b82efea766ec554a5367eb186c0ed600102620073cb565b62003b5b7ffafaffeadd993c648db4b781b053ee5e8ca2f53885373743c8fb971094627ad260010262002e53565b62003b897f93584fdf9d5e544d69a8221c69ec482c8c3667b7ae1724010969ba0fdc8d996d60010262002e53565b62003bb77f4a03727d09a1821a501647ddf08dea17ed400d63548ee729a05c9c10dc02d34660010262002e53565b62003be57f80c23ce64761eed81be3734f6da2c49dc08231268cfa33a7f056f199eb74a51660010262002e53565b60e7600083815260200190815260200160002060009054906101000a900460ff1615151562003ca2576040517f08c379a00000000000000000000000000000000000000000000000000000000081526004018080602001828103825260308152602001807f476c7577615072697a654c696e6b65644163636f756e743a205072697a65206881526020017f6173206265656e2070616964206f75740000000000000000000000000000000081525060400191505060405180910390fd5b62003cd07fae31ef27c010bdb7b93eab4adfb0bd419e64933c7b95fc9f2d9c0adc71127d4760010262002e53565b62003cfe7f0e7d38f1012f17da05ff676dbab6f7f9d6828f3e16662e2a90b67d399284e72060010262002e53565b62003d2c7f6618da1549452f2429f5049afdcabd953cc8529c07af36c8393904efcd8b02fa60010262002e53565b600062003d3983620073ce565b905062003d697f3321fcafae141c78c8bb00723976f89387f71987edf018ef8208223d6b11095560010262002e53565b62003d977f2311c06027e584c9d8cdbe3d329b9d354b9393553854c36848867c306fc8a8fc60010262002e53565b600062003e1b60a460049054906101000a900463ffffffff1663ffffffff1662003e0c60a460009054906101000a900463ffffffff1663ffffffff1662003dfd60e660008a81526020019081526020016000205460de5462008c9b90919063ffffffff16565b62008d2690919063ffffffff16565b62008df790919063ffffffff16565b905062003e4b7f25902f04a75a5ca4ebb7d349d7127eb9d6859f77a6e94d2a0413914b596df0f160010262002e53565b62003e797fe9bf8cfe91b012c845e69a39fcab1cf9b0fb2770489d7f405beb7b8109b98fb560010262002e53565b600160e7600086815260200190815260200160002060006101000a81548160ff02191690831515021790555062003ed37f87dbf1010380f7b5d2388eebe2966c0739ebf2aa832718fc7c3a3683bcda982760010262002e53565b62003f017f763b98737e2bf792ba27dfce63d5d0975a454d5a1c9796e35a680f4b2c3293b460010262002e53565b600073ffffffffffffffffffffffffffffffffffffffff168273ffffffffffffffffffffffffffffffffffffffff161415156200403c5762003f667f8315f6f6504d1011564193c317eb313ac9f2f24d44a9e1869f345f6c6049802c60010262002e53565b62003f947fbdaf048c4f4e51c8514a5c8018f5d5429d8b7d251fa95a2ad237aeffb72a691960010262002e53565b62003fc27f79b17ab831c01453e79aab9b7e1824b33f87227851e40719f6c448349f386c5760010262002e53565b600060de8190555062003ff87fdcf861aa81927803f5331de1bbb53778150e98b9a9eb6fe55492298ed192202860010262002e53565b620040267f0d636332acf1d11537a5ee7d7c99a3368bf8edfc1daad2fd0987a5dcce09436560010262002e53565b62004035828242600162007f03565b50620040d7565b6200406a7fe5bc9bb8b2a5e1f0c06350d0a202628a44b1d86efa8cab093a1d242485bfc7f060010262002e53565b620040987f9d10e79755750cd7fd4123974725a16cafda5ec332f217435cb749f4441aac4a60010262002e53565b620040c67f1f0e5cfe644d431901b4e062ee04b2372427816318a24e034b53035e98b5176d60010262002e53565b8060de600082825401925050819055505b620041057fa2d9ca12a105c1b9c9f984bd35b67fcd1d8c42191c8d0f49ec7eeacd77a037cf60010262002e53565b620041337f85367af417a8f9c4dc00bfa5762d3faf5d344b9145eb9f45e3453645be1893c760010262002e53565b7f75060f9e79552df167b73353fee6237a75bb5ba8ea022f77224e32f152138bcb8282604051808373ffffffffffffffffffffffffffffffffffffffff1673ffffffffffffffffffffffffffffffffffffffff1681526020018281526020019250505060405180910390a1620041cc7f2b1b587d61a5f2df047f2a25fbc53db0a1df00fe71f16a632ce69eee7052572c60010262002e53565b620041fa7f45ceb8a47ea04af4e0ca7cb320450c339331c16832eba036dbddd703621f9d3960010262002e53565b600192505050919050565b6000620042357f5c8f19add2d84aca7a8087815504b380c1919c10d917dfe0e6f3426480626925600102620037e7565b620042637ffc62441d050a63d198d2f97f5a25bb420519fd407e5d50f08312815303d5dd21600102620037e7565b620042917fd64e96f3e91efc239c01bf30d1d8ff0775b4d6b65061ba43ed41ed007d276239600102620037e7565b620042bb826033600086815260200190815260200160002060000162008e4390919063ffffffff16565b905092915050565b6000620042f37f9907d011a40ed9cb525bc9703c302f3d71ee5b67daac1b37a8ef10b968f4f268600102620037e7565b620043217f986fc817075028f0f7a6cb089481ce6acf40cfa9302d016869b03d52c9d08c88600102620037e7565b6200434f7f9890401fd59cad5dec194d56f8e1f971f8f878bef0e4ff70e116fd19483f5662600102620037e7565b62004379826033600086815260200190815260200160002060000162008eea90919063ffffffff16565b905092915050565b620043af7f6c875126be1726ab2fc657648964c34d167c9eea09e982826bf5fe2b9ca2d324600102620073cb565b620043dd7f62099aa8d5be0c25cfa94c8b816435976ac44df70e57c0cd61c9aa5a6e8ea507600102620073cb565b6200440b7f453557595d5569438781ff2bffda3521e47a9e00825bc9def362d351cf3e1c74600102620073cb565b620044397f36164c6dee9768d45bd325d105734bbcb52f53401478cd02c4ecad63c18b8e68600102620073cb565b6200444d6200444762007efb565b62001d35565b1515620044c2576040517f08c379a00000000000000000000000000000000000000000000000000000000081526004018080602001828103825260158152602001807f5265737472696374656420746f2041646d696e732e000000000000000000000081525060200191505060405180910390fd5b620044f07fc2ac55851c10e49d80d29047d52eddd577a7571d2b2f4dad9e5fcaa5c07a9bb2600102620073cb565b6200451e7fb725922c818f0782603dba098ae6ebcd63326dfb07c08fa6ef52bb86e381fb36600102620073cb565b6200454c7fab863da377c52c8f6067472a5ca8df2a2ce6a6f299e205cd7a166b6a8ee31916600102620073cb565b6200457a7fc04152ee14431e8518d6e1e3408bae4047950f36986878ba23f2b59e8842f0de600102620073cb565b620045a87f601f3a50cc2b63877d5d7c9ae87face277a00a3ba6a3868f835b1048a156698f600102620073cb565b620045e960405180807f4f50455241544f520000000000000000000000000000000000000000000000008152506008019050604051809103902082620021ec565b50565b60008060008060008060006060620046277f041147629463f6e0c13e8ca4166a2b5a8b446ac5719c470051757b4feb502f1f600102620063d6565b620046557f3fd7aa65e03ed2344eb3fa764176d1b28a4ca40d8010176ce7b36e7532250c6e600102620063d6565b620046837f17b6405cea1f8b1c87f130fefc195e5fa52bc3b4580a0f3bba8cc7fda0275014600102620063d6565b620046976200469162007efb565b62008a55565b975097509750975097509750975097509091929394959697565b600060010281565b620046e77f269b98238e7be55b5d7a3db79f2a96a0e9fa4e47593a6bb52d82c25d08facd7e600102620073cb565b620047157fa0a2fde32d4e52005b78eac14a1ab6ae68b38ec56c08824fdb8abe489653882d600102620073cb565b620047437f1879b1107adb408f8af76f8f45ac4e99c6f1bcc9102431bca363de52c073b1dd600102620073cb565b620047717fd7067e1fc31ce2497d1aad67288494aad7eff15e9ad64f38f62ac1f194430691600102620073cb565b620047856200477f62007efb565b62002efd565b1515620047fa576040517f08c379a00000000000000000000000000000000000000000000000000000000081526004018080602001828103825260188152602001807f5265737472696374656420746f204f70657261746f72732e000000000000000081525060200191505060405180910390fd5b620048287f789ba8c5ad5c32a80dfff31774c44fcc100d45bdb016459c014ebdcb9ac24222600102620073cb565b620048567f02ecd88ec5aa7f79e1b04fa2d5196f70633b82efea766ec554a5367eb186c0ed600102620073cb565b620048847f548ad73e78a72a1f172ccc5cb47debddfb89542ec1a61a821db15afd182a9fd260010262002e53565b620048b27f3bfca3da8a738e97b8d886da18a71c0cf0181e5451dd251db086ded623a858c360010262002e53565b620048e07f87c7f9574e9f862bb7bf3b9ab9305e831b38f1da0ed3d427966be43fa0f4b2f460010262002e53565b8561011a60026101000a81548161ffff021916908361ffff1602179055506200492c7f293cc16895c033ce2f757f7593eac138ff75c77899c8072dab9b48949ff7809c60010262002e53565b6200495a7feadf27bffebf2c2d2002a7d7539979d6420915a24d053060d9f36bba807057ac60010262002e53565b8261011a60046101000a81548163ffffffff021916908363ffffffff160217905550620049aa7fb35829b702072203f709e0748491c3f1b289b2aae4713cfc8360dbe699b8a96460010262002e53565b620049d87f635141b229dc79ffa55ded2a64ea2b76683daa859141926eb8f581ca170114e160010262002e53565b8061011a60006101000a81548160ff021916908360ff16021790555062004a227fb196c774e48dbc0b072c431372a3db70bdaf6e5afd2490fd4ba147326996465060010262002e53565b62004a507fc67660cf410419900083eb1200a11fb544ab29325f82f01a3cbdb8b6ddf7116c60010262002e53565b62004a5e8a8a8a8a62008fa6565b62004a8c7fda196891401d4a117d4158caba9e18b0eb05950b8249b583e45ea05c3681bacf60010262002e53565b62004aba7fc062c3862d8b40cba4e6844b040853a31c3eb30841289529fa726d8c6956cebe60010262002e53565b62004ac78585846200919a565b50505050505050505050565b600062004b037f05d8020ed77dd35974d85bb5dd9b137908a0d9c891535590811ce5a1bbbf3527600102620021e9565b62004b317f084d64cd933c61699f199bec00ba95f01c2cc72a58c8a946d9bdbbcb90263c40600102620021e9565b62004b5f7f7b9e4e2a27fd6da51f60883e7d09f7cf7664306c2c8dbe94b0bbefa3975ff6eb600102620021e9565b60de54905090565b62004b957f6c875126be1726ab2fc657648964c34d167c9eea09e982826bf5fe2b9ca2d324600102620073cb565b62004bc37f62099aa8d5be0c25cfa94c8b816435976ac44df70e57c0cd61c9aa5a6e8ea507600102620073cb565b62004bf17f453557595d5569438781ff2bffda3521e47a9e00825bc9def362d351cf3e1c74600102620073cb565b62004c1f7f36164c6dee9768d45bd325d105734bbcb52f53401478cd02c4ecad63c18b8e68600102620073cb565b62004c3362004c2d62007efb565b62001d35565b151562004ca8576040517f08c379a00000000000000000000000000000000000000000000000000000000081526004018080602001828103825260158152602001807f5265737472696374656420746f2041646d696e732e000000000000000000000081525060200191505060405180910390fd5b62004cd67fc2ac55851c10e49d80d29047d52eddd577a7571d2b2f4dad9e5fcaa5c07a9bb2600102620073cb565b62004d047fb725922c818f0782603dba098ae6ebcd63326dfb07c08fa6ef52bb86e381fb36600102620073cb565b62004d327f6b6789300eb743a8447edde74dfce42f76d507d74fabf8555209106a6cf6835d600102620073cb565b62004d607fe963ba32f3b2b2511f3b61c6a1cf8ec3b8865be585223e913dad37234ec3dba7600102620073cb565b62004d8e7f4b1da260cff4143833d6e35ffde5e36b26a94146d2f068d1b4ae37ca6d0e9440600102620073cb565b62004dcf60405180807f4f50455241544f5200000000000000000000000000000000000000000000000081525060080190506040518091039020826200697a565b50565b600060019054906101000a900460ff168062004df4575062004df362009350565b5b8062004e0c57506000809054906101000a900460ff16155b151562004ea7576040517f08c379a000000000000000000000000000000000000000000000000000000000815260040180806020018281038252602e8152602001807f436f6e747261637420696e7374616e63652068617320616c726561647920626581526020017f656e20696e697469616c697a656400000000000000000000000000000000000081525060400191505060405180910390fd5b60008060019054906101000a900460ff16159050801562004ef8576001600060016101000a81548160ff02191690831515021790555060016000806101000a81548160ff0219169083151502179055505b62004f267f393022c6513958094ae9695f8d67933c6544d29a4ea523a13eba68980c401f7d60010262002e53565b62004f547f76fbf70f9e37cdbf0abbe0b052a8d0212d3d304102429f6acbd2bcd8c5df008f60010262002e53565b62004f827fdb8e2acf1312570e3a61227f445eda3c98b271468bb53c9bed0bd65becacf94960010262002e53565b62004f8d8c62009367565b62004fbb7fa1a19fb1247825d95283606016916ec6ec8e37c5f2ad5fdced0750a6cc08e57a60010262002e53565b62004fe97f5d5de7d5f9639742fed66be9d198287fa8755b17827142fc3d66ad0bb510bf4e60010262002e53565b62004ff78b8b8b8b6200968b565b620050257f194b306f275cb9c1c17191e85ee3ade9928110f6e9bec83c43976ac0c3729ea460010262002e53565b620050537fad845ad02235c3b3e73e0d72bfeebf383f5ac095ee75531788e098c71499d0ee60010262002e53565b6200506086868562009ba2565b6200508e7fc51de4b7ba2151e1aa21273f9b1f3edc5c7a946ce7d9fb6795c0b3003d84108d60010262002e53565b620050bc7fd6a9ad90b71477901b771c1f629ad703f4f8f0b1928ab3a32a4dd15a7592dae960010262002e53565b8361011a60046101000a81548163ffffffff021916908363ffffffff1602179055506200510c7f8d98dc0f3e19494991d32006e39a7135ac93b681ab5683157918cb6a5928587e60010262002e53565b6200513a7faf13df779c474736e086dfc488ab3b4c502a3579e73f3ae763df86a1ab6a566d60010262002e53565b60a660009054906101000a900473ffffffffffffffffffffffffffffffffffffffff1673ffffffffffffffffffffffffffffffffffffffff1663313ce5676040518163ffffffff167c010000000000000000000000000000000000000000000000000000000002815260040160206040518083038186803b158015620051bf57600080fd5b505afa158015620051d4573d6000803e3d6000fd5b505050506040513d6020811015620051eb57600080fd5b810190808051906020019092919050505061011a60016101000a81548160ff021916908360ff160217905550620052457f20078841711e64a5b98ec3944a4bdecdb85ab4ef8e503e6ab6e7173392a3a1c660010262002e53565b620052737f925e994d23ade63b0e96f7965750618c971274254410983cecd8b9e0f98e759760010262002e53565b8661011a60026101000a81548161ffff021916908361ffff160217905550620052bf7f2388c2d1bfe708a9a3af24f79efe0edf00ee584e18ea9e849840429773a4816860010262002e53565b620052ed7f77f28736636aaf386597976e1af058e10e5fa7a34ea98cf8a06b1e86c06cb8b760010262002e53565b8161011a60006101000a81548160ff021916908360ff16021790555080156200532b5760008060016101000a81548160ff0219169083151502179055505b505050505050505050505050565b6000620053697f512a38d588d989eed3acc08f88955428d188aadc8593fb741862cf90b8356c8560010262002e53565b620053977f8b5e26a03f614d839bdc62629e23f3c30eba9ca7b6ad37da29bef6d8a8e7771d60010262002e53565b620053c57fb49c4d7fb7335fbab90abc81be91735bfbe8f5f537a47adb184cb91ddcb7da7060010262002e53565b6000620053f57f4814b78bb01bb05a028be0034e2074d2ba2cb9eed22d35e3b0cf009bca8e249960010262002e53565b620054237fb0e66bbb244f9bc55435dead616fe6369d956e1056c2551f375c7ac583dad7d460010262002e53565b60008090505b609b805490508110156200599557620054657fecc66ef73617483bf11170cfc64ebf960a85e9f36829325d0d9826e0192e1f7960010262002e53565b620054937f75b90450686dc5909ec7bd91f9d9039a8235470207c73cf2577011bfeb11df5360010262002e53565b600060e260008681526020019081526020016000206000609b84815481101515620054ba57fe5b9060005260206000200160009054906101000a900473ffffffffffffffffffffffffffffffffffffffff1673ffffffffffffffffffffffffffffffffffffffff1673ffffffffffffffffffffffffffffffffffffffff16815260200190815260200160002080549050148015620055ad5750600060a76000609b848154811015156200554257fe5b9060005260206000200160009054906101000a900473ffffffffffffffffffffffffffffffffffffffff1673ffffffffffffffffffffffffffffffffffffffff1673ffffffffffffffffffffffffffffffffffffffff16815260200190815260200160002060040154115b80156200565b575060016004811115620055c357fe5b60a76000609b84815481101515620055d757fe5b9060005260206000200160009054906101000a900473ffffffffffffffffffffffffffffffffffffffff1673ffffffffffffffffffffffffffffffffffffffff1673ffffffffffffffffffffffffffffffffffffffff16815260200190815260200160002060060160009054906101000a900460ff1660048111156200565957fe5b145b1562005958576200568f7f5c3662514b5af44deb909ab72f898700a46799266c1d08e11f48e236aed8a64160010262002e53565b620056bd7f3a61ce631acefc061885100fa00827cc97b5c93817dbb40c3c277a766f34cf7160010262002e53565b620056eb7f04d34a11a149fd12dcc7da00db4db2c6c5b46f8d538990fe8181738b95ade60e60010262002e53565b62005835609b82815481101515620056ff57fe5b9060005260206000200160009054906101000a900473ffffffffffffffffffffffffffffffffffffffff168560a76000609b868154811015156200573f57fe5b9060005260206000200160009054906101000a900473ffffffffffffffffffffffffffffffffffffffff1673ffffffffffffffffffffffffffffffffffffffff1673ffffffffffffffffffffffffffffffffffffffff168152602001908152602001600020600401546200582f60a76000609b88815481101515620057c057fe5b9060005260206000200160009054906101000a900473ffffffffffffffffffffffffffffffffffffffff1673ffffffffffffffffffffffffffffffffffffffff1673ffffffffffffffffffffffffffffffffffffffff1681526020019081526020016000206004015462009f49565b6200a016565b50620058647f6f2a40a642b8505b64d55c106502289b831617a327f48a5304fbf5ac6ecb206860010262002e53565b81806001019250506200589a7f8500a9e4fc4b9b3b89306ac2352ef2e779b3117b09ed076a56e5023356ba26fb60010262002e53565b620058c87f8d699fbb555089289b574a77f3e959dac58459f1256ce603371095a6431dea2c60010262002e53565b61011a60049054906101000a900463ffffffff1663ffffffff168263ffffffff16111562005924576200591e7f43a6edab168f6163758215350d38ecba2318dc3dfe37f21554317bc9fde29c6360010262002e53565b62005995565b620059527f1c936b58a780d6df8d6a36740e9567a53ef3006cd36cc151c47b660b9dec576960010262002e53565b62005987565b620059867f8b0fb230919a0097f501a69a260dc5174fa7a8fe3cdc0b0132d393f7d63f610e60010262002e53565b5b808060010191505062005429565b50620059c47fe840861fbc2f535c5b7cc529c24d08ec62f6c96e1fa479ba6e3b0be1ec59e4cf60010262002e53565b620059f27fb3d658da1354ab726d481db487cfbb93449a1e4a1ac798753b6dc10dbf7f2c8260010262002e53565b8063ffffffff16915050919050565b600062005a317f269b98238e7be55b5d7a3db79f2a96a0e9fa4e47593a6bb52d82c25d08facd7e600102620073cb565b62005a5f7fa0a2fde32d4e52005b78eac14a1ab6ae68b38ec56c08824fdb8abe489653882d600102620073cb565b62005a8d7f1879b1107adb408f8af76f8f45ac4e99c6f1bcc9102431bca363de52c073b1dd600102620073cb565b62005abb7fd7067e1fc31ce2497d1aad67288494aad7eff15e9ad64f38f62ac1f194430691600102620073cb565b62005acf62005ac962007efb565b62002efd565b151562005b44576040517f08c379a00000000000000000000000000000000000000000000000000000000081526004018080602001828103825260188152602001807f5265737472696374656420746f204f70657261746f72732e000000000000000081525060200191505060405180910390fd5b62005b727f789ba8c5ad5c32a80dfff31774c44fcc100d45bdb016459c014ebdcb9ac24222600102620073cb565b62005ba07f02ecd88ec5aa7f79e1b04fa2d5196f70633b82efea766ec554a5367eb186c0ed600102620073cb565b62005bce7fb295d8042ea636432b0d6b8fae098d9e074905ab5e0ffb12bdf403f66f09851360010262002e53565b62005bfc7f37e7a2243cb9b60fae59f298ac5e410b9ee3da01b60e269df0d473f1ade8afee60010262002e53565b62005c2a7fc6480e821c688e22d3e82c2b7b940c0be7c61e0e315527b0e86e1601ca34c8ea60010262002e53565b62005c587ff47c8889674a7e52abd5b06ec4f424727cbd8fd9929afc2a2af32a02cd648aef60010262002e53565b600073ffffffffffffffffffffffffffffffffffffffff168373ffffffffffffffffffffffffffffffffffffffff161415151562005d4a576040517f08c379a00000000000000000000000000000000000000000000000000000000081526004018080602001828103825260498152602001807f476c7577615072697a654c696e6b65644163636f756e743a205265636970696581526020017f6e74206164647265737320666f7220696e766573746d656e74206d757374206281526020017f6520646566696e6564000000000000000000000000000000000000000000000081525060600191505060405180910390fd5b62005d787ff04088cbabb8d585b26f68b6092b512dca2cb2c5493f12ed2f9fab549554adc860010262002e53565b62005da67f2890737e77a3cc17df7a02c65a270a3f309255caef5f82ee5dab772d9a1790c860010262002e53565b62005dd47fbe6762beacc210dc33f9fc38f75c42cb5d2fdbddd15b058626d0defde3c9dc1460010262002e53565b600060a660009054906101000a900473ffffffffffffffffffffffffffffffffffffffff1673ffffffffffffffffffffffffffffffffffffffff166370a08231306040518263ffffffff167c0100000000000000000000000000000000000000000000000000000000028152600401808273ffffffffffffffffffffffffffffffffffffffff1673ffffffffffffffffffffffffffffffffffffffff16815260200191505060206040518083038186803b15801562005e9257600080fd5b505afa15801562005ea7573d6000803e3d6000fd5b505050506040513d602081101562005ebe57600080fd5b8101908080519060200190929190505050905062005eff7fc06cdeb9de0bdff0bc7beaa12503083930fc0ea7ad5e61a11b9b24bca695cbd260010262002e53565b62005f2d7fbc4d0e511e71c00c44404d1e70c6cffe8be46b17fdc24ef16897be388119923660010262002e53565b62005f5b7f055d1a4cac8420fe2f0ef9125ad984bd62db843ef1bb2ac099b5cd8c7c7cda1660010262002e53565b62005f98606462005f8961011a60009054906101000a900460ff1660ff168462008d2690919063ffffffff16565b62008df790919063ffffffff16565b8382031015151562006084576040517f08c379a000000000000000000000000000000000000000000000000000000000815260040180806020018281038252606b8152602001807f476c7577615072697a654c696e6b65644163636f756e743a2074686520696e7681526020017f6573746d656e7420616d6f756e742077696c6c206d616b652074686520746f7481526020017f616c2062616c616e6365206c6f776572207468616e2074686520626f74746f6d81526020017f207468726573686f6c642e00000000000000000000000000000000000000000081525060800191505060405180910390fd5b620060b27fa6fcc05efcef1c8d7f5e40a4ec55c6223d0dc4681bd293e43bbec8c230464e4a60010262002e53565b620060e07ff5f75558e4fc864ab2178ef2f497edd527acad1bff1060fefc6dd41afbcea26b60010262002e53565b6200610e7fc5a5b2fe6449602cfdfd593c921b094a06d3e15840ad3f2d5dbb67794b38cc5460010262002e53565b60a660009054906101000a900473ffffffffffffffffffffffffffffffffffffffff1673ffffffffffffffffffffffffffffffffffffffff1663a9059cbb85856040518363ffffffff167c0100000000000000000000000000000000000000000000000000000000028152600401808373ffffffffffffffffffffffffffffffffffffffff1673ffffffffffffffffffffffffffffffffffffffff16815260200182815260200192505050602060405180830381600087803b158015620061d457600080fd5b505af1158015620061e9573d6000803e3d6000fd5b505050506040513d60208110156200620057600080fd5b810190808051906020019092919050505050620062407f27709734daa1fa3965ca025f974860583ff8fed1c0cb907f6f902bc60c3904cf60010262002e53565b6200626e7ffe87d3712ed22cc2ee45b38688206d2f3f0caec5b6c6d55e1840b6e5161ec99560010262002e53565b8373ffffffffffffffffffffffffffffffffffffffff167fc3f75dfc78f6efac88ad5abb5e606276b903647d97b2a62a1ef89840a658bbc3846040518082815260200191505060405180910390a2620062ea7f06da2979439f848af7278d004f2f6f3c78aa696877984cdbbbba4a7bc489a53160010262002e53565b620063187f591bba838a957c9eae52cd278289638b1cbaffb28d4f0e2e3f02906ff6d1452960010262002e53565b600191505092915050565b6000620063537f66ef1e06f668d8e0c0d4f82edeefadbe8c80204e2512f9d3541f84665b1015fa600102620037e7565b620063817fea6f68aaa4e23e70c3a5d466be2b66373b71c8e3a915c17e44d497696e9a338e600102620037e7565b620063af7f7c8a75d871e37bb3adbbbea0732c29f9ce19596157638c44ae73c5d9909177a4600102620037e7565b620063cf603360008481526020019081526020016000206000016200a986565b9050919050565b50565b6000620064097f269b98238e7be55b5d7a3db79f2a96a0e9fa4e47593a6bb52d82c25d08facd7e600102620073cb565b620064377fa0a2fde32d4e52005b78eac14a1ab6ae68b38ec56c08824fdb8abe489653882d600102620073cb565b620064657f1879b1107adb408f8af76f8f45ac4e99c6f1bcc9102431bca363de52c073b1dd600102620073cb565b620064937fd7067e1fc31ce2497d1aad67288494aad7eff15e9ad64f38f62ac1f194430691600102620073cb565b620064a7620064a162007efb565b62002efd565b15156200651c576040517f08c379a00000000000000000000000000000000000000000000000000000000081526004018080602001828103825260188152602001807f5265737472696374656420746f204f70657261746f72732e000000000000000081525060200191505060405180910390fd5b6200654a7f789ba8c5ad5c32a80dfff31774c44fcc100d45bdb016459c014ebdcb9ac24222600102620073cb565b620065787f02ecd88ec5aa7f79e1b04fa2d5196f70633b82efea766ec554a5367eb186c0ed600102620073cb565b620065a67f38aa1305f603f4ec08f0e4e11f69069f63ae3318a871bba30db256cdc970187460010262002e53565b620065d47f3cfc783a768408811455978caa9bf7d2f198eebdd422fd62ea3537cc5c7f453360010262002e53565b620066027f87139bea7643af40218a01fa7ade30f3ec6fe61ce26abba96facd71ebea4e5b760010262002e53565b620066307fa24ff5d5ddf6b0e988cd3145ba25ea07c21af6331d64ae60062e8b3bf2c71ca060010262002e53565b60a660009054906101000a900473ffffffffffffffffffffffffffffffffffffffff1673ffffffffffffffffffffffffffffffffffffffff166323b872dd8630876040518463ffffffff167c0100000000000000000000000000000000000000000000000000000000028152600401808473ffffffffffffffffffffffffffffffffffffffff1673ffffffffffffffffffffffffffffffffffffffff1681526020018373ffffffffffffffffffffffffffffffffffffffff1673ffffffffffffffffffffffffffffffffffffffff1681526020018281526020019350505050602060405180830381600087803b1580156200672a57600080fd5b505af11580156200673f573d6000803e3d6000fd5b505050506040513d60208110156200675657600080fd5b8101908080519060200190929190505050151562006828576040517f08c379a000000000000000000000000000000000000000000000000000000000815260040180806020018281038252604d8152602001807f476c7577615072697a654c696e6b65644163636f756e743a20556e61626c652081526020017f746f2073656e6420616d6f756e7420746f206465706f73697420746f2061205381526020017f6176696e67204163636f756e740000000000000000000000000000000000000081525060600191505060405180910390fd5b620068557eae86eb8a82d9d303ee81cecbaa16974e0f4469c91181b35f6455d7f42c1b2260010262002e53565b620068837fd72a66890c40fefe30f927585bdeeb15194b75a4d128f72fbfb3f6c1d557a38d60010262002e53565b620068b17ffd59fab6f8cd36f5f943b422c5fbd96eb2b33de9ecaca34851022949376930fc60010262002e53565b60006200690586864287878080601f016020809104026020016040519081016040528093929190818152602001838380828437600081840152601f19601f820116905080830192505050505050506200aa27565b915050620069367f8036142f2efb1cbc647271efa76af1b3bf51bcd65d01a63b2fe6018b72819d4760010262002e53565b620069647fe926403e836de734cafa7b0650b0d63c278a1c386a5fedad274480384076c59060010262002e53565b6200696f816200ba5f565b915050949350505050565b620069a87f97749d5907af942f23e24dab2e4d9d9f86169e20828b78fbb02c7397aba20dec600102620037e7565b620069d67f6071ae2abfff4312103bd8739211263b643becbb57462f9074353c4b638bc8fb600102620037e7565b62006a047f78c9d2effdd2cf4ffcfc49a15eb93d30fb2345626d55331fafe2577c45492945600102620037e7565b62006a327f0f8d5525ab20fc25e211108856f9e9c2d7686d4bca86323a95f73b4befbd1905600102620037e7565b62006a5d603360008481526020019081526020016000206002015462006a5762007efb565b620042c3565b151562006af8576040517f08c379a00000000000000000000000000000000000000000000000000000000081526004018080602001828103825260308152602001807f416363657373436f6e74726f6c3a2073656e646572206d75737420626520616e81526020017f2061646d696e20746f207265766f6b650000000000000000000000000000000081525060400191505060405180910390fd5b62006b267f552f1538fdf5aa57eed1a65a84465e26b2dee3a349b98af5bdc70923de8885ca600102620037e7565b62006b547f903d39f78d0f26f99c6bc1e1496c2b3cde0bbb39f25ad445a102acb1d1decd81600102620037e7565b62006b827f76891968bc09ecbef03a36911e5ee6272955d16b1c067ee7f7047de6127eb41c600102620037e7565b62006b8e828262008703565b5050565b60608060008062006bc57e7ada6c75b75c88ab670ea9835039b78d0bc9aceda545dd93c6b6fb7c68a556600102620021e9565b62006bf37f051748605349ac2a39b449d75ef8bb2cecc1e3a5e450552dc6cd33208527e6f6600102620021e9565b62006c217f4dce12d33aa2e960503b93d9fc9657890c5f4c093cec9eb9b025f54b6c2dfab0600102620021e9565b60e4600086815260200190815260200160002080548060200260200160405190810160405280929190818152602001828054801562006cb657602002820191906000526020600020905b8160009054906101000a900473ffffffffffffffffffffffffffffffffffffffff1673ffffffffffffffffffffffffffffffffffffffff168152602001906001019080831162006c6b575b5050505050935062006ceb7fef6872b7cf5d5832d4404b57ead5c04c8db8431a90e4d9116f19c8bf3a057464600102620021e9565b62006d197f3bb4e67bac736895eaa7306b4ab726b9f1bc1022cd4634d239c351872fb48157600102620021e9565b60e0600086815260200190815260200160002080548060200260200160405190810160405280929190818152602001828054801562006db457602002820191906000526020600020906000905b82829054906101000a90046bffffffffffffffffffffffff166bffffffffffffffffffffffff16815260200190600c0190602082600b0104928301926001038202915080841162006d665790505b5050505050925062006de97fb17422e971aa319c7d2165e56d3d9119609a26165a0a81fc2bed1ef19cbee9e9600102620021e9565b62006e177f7b73c3431c4ecc6d804b871693db956d30c583fd6afcaf6acef89e3bb75f6a12600102620021e9565b60e5600086815260200190815260200160002054915062006e5b7f4d016b50f801cbffa53cb3472a30dbf4311837400fbf71afaf9f17bc2bf65960600102620021e9565b62006e897f152ac04a8ef050c89b86c08b744390c877da56cd3eef2f221696cfae74f2419c600102620021e9565b60e660008681526020019081526020016000205490509193509193565b60008060008062006eda7f86da3b46068b1b4eef8dae5b202d50a68d300e07f61dd1cdd8d8938a9638e69260010262002e53565b62006f087f13ea2cdaa440f6fff8cadc87063b2dd45cf0519f18e3ebc8c0ffe1715d6db4bd60010262002e53565b62006f367f656401ae8e12b08b6194a3767491f65e90ce406531175a631237523fb0536f0a60010262002e53565b62006f41856200bf05565b93509350935093509193509193565b600062006f807f269b98238e7be55b5d7a3db79f2a96a0e9fa4e47593a6bb52d82c25d08facd7e600102620073cb565b62006fae7fa0a2fde32d4e52005b78eac14a1ab6ae68b38ec56c08824fdb8abe489653882d600102620073cb565b62006fdc7f1879b1107adb408f8af76f8f45ac4e99c6f1bcc9102431bca363de52c073b1dd600102620073cb565b6200700a7fd7067e1fc31ce2497d1aad67288494aad7eff15e9ad64f38f62ac1f194430691600102620073cb565b6200701e6200701862007efb565b62002efd565b151562007093576040517f08c379a00000000000000000000000000000000000000000000000000000000081526004018080602001828103825260188152602001807f5265737472696374656420746f204f70657261746f72732e000000000000000081525060200191505060405180910390fd5b620070c17f789ba8c5ad5c32a80dfff31774c44fcc100d45bdb016459c014ebdcb9ac24222600102620073cb565b620070ef7f02ecd88ec5aa7f79e1b04fa2d5196f70633b82efea766ec554a5367eb186c0ed600102620073cb565b6200711d7f773ce85b7115cef543d21a7e35b7e56f5bfeb18b7606af9f40cf94f7e5a004f460010262002e53565b6200714b7f8086c418f96dadbd3afe651200481727a02fee8e48a091362c121f36917961b360010262002e53565b620071797f64c8445c55b7a04f7a329da3dfe0bdf4e69bccdcf81f17eea6cbc1cdb115666160010262002e53565b62007186838484620080ec565b905092915050565b6060620071be7f269b98238e7be55b5d7a3db79f2a96a0e9fa4e47593a6bb52d82c25d08facd7e600102620073cb565b620071ec7fa0a2fde32d4e52005b78eac14a1ab6ae68b38ec56c08824fdb8abe489653882d600102620073cb565b6200721a7f1879b1107adb408f8af76f8f45ac4e99c6f1bcc9102431bca363de52c073b1dd600102620073cb565b620072487fd7067e1fc31ce2497d1aad67288494aad7eff15e9ad64f38f62ac1f194430691600102620073cb565b6200725c6200725662007efb565b62002efd565b1515620072d1576040517f08c379a00000000000000000000000000000000000000000000000000000000081526004018080602001828103825260188152602001807f5265737472696374656420746f204f70657261746f72732e000000000000000081525060200191505060405180910390fd5b620072ff7f789ba8c5ad5c32a80dfff31774c44fcc100d45bdb016459c014ebdcb9ac24222600102620073cb565b6200732d7f02ecd88ec5aa7f79e1b04fa2d5196f70633b82efea766ec554a5367eb186c0ed600102620073cb565b6200735b7f9f47ee9737d89ff0242a68b7cfa5ae2dd49bb41a6f3a6ca42c5abffd6dbe641860010262002e53565b620073897f7f59b1297d5b740655dc346f6341fdbc5ee407f25bbc5b9059255776fafc833c60010262002e53565b620073b77f539ea9aec3adda5610bcee799e95f29b7a763087820d1100cbecea8a188275ea60010262002e53565b620073c38383620088e4565b905092915050565b50565b6000620073fe7f2ccee3d41399f5665297836297dc0c1d8362ffe4dd10655e490f0f49cb4fb40d600102620021e9565b6200742c7fe754df3550e5545428fc407a1853bad83cca4e56618ac32c7055a60c6127cf5c600102620021e9565b6200745a7f1bbbeb94f2a61126e73393d5f85f8485bc8d3b5853c466de733c3c6036d1e713600102620021e9565b620074887ffc04913b10b04ac933a570b99d226578fe349719e87f25cde948923a84202b97600102620021e9565b600060e56000848152602001908152602001600020541115156200753a576040517f08c379a000000000000000000000000000000000000000000000000000000000815260040180806020018281038252602a8152602001807f476c7577615072697a65447261773a20746865206472617720686173206e6f7481526020017f206265656e206d6164650000000000000000000000000000000000000000000081525060400191505060405180910390fd5b620075687ff97f446a33eadc03c55b69b1b4fa0a437c7a0c3130507ba6398bf6630cd70c5d600102620021e9565b620075967f632148f02c13fd87a4a30c099eb3e7a00d553aa4d23bcdd382b1a08ad0daa406600102620021e9565b620075c47fde18cf5ff95ccd1fd548003d8652c920736f51b1ef72a3544b6c54e1967e87f0600102620021e9565b60008090505b60e0600084815260200190815260200160002080549050811015620079d357620076177fd0a5d6fb8d3ba4582907d740423226a5ac609292ed08b7d22ddcd50ed81ba427600102620021e9565b620076457f737c0350da452b140ec187f625132fc2adc8b4e7ac5f772b090ed53242722a30600102620021e9565b60df600060e06000868152602001908152602001600020838154811015156200766a57fe5b9060005260206000209060029182820401919006600c029054906101000a90046bffffffffffffffffffffffff166bffffffffffffffffffffffff1681526020019081526020016000206001015460df600060e0600087815260200190815260200160002084815481101515620076dd57fe5b9060005260206000209060029182820401919006600c029054906101000a90046bffffffffffffffffffffffff166bffffffffffffffffffffffff16815260200190815260200160002060020154118015620077be575060e560008481526020019081526020016000205460df600060e06000878152602001908152602001600020848154811015156200776d57fe5b9060005260206000209060029182820401919006600c029054906101000a90046bffffffffffffffffffffffff166bffffffffffffffffffffffff1681526020019081526020016000206002015410155b801562007850575060e560008481526020019081526020016000205460df600060e0600087815260200190815260200160002084815481101515620077ff57fe5b9060005260206000209060029182820401919006600c029054906101000a90046bffffffffffffffffffffffff166bffffffffffffffffffffffff1681526020019081526020016000206001015411155b156200799757620078847f3db1f9df08495ff9779dcadf3469052982dee809a63210fc0a11af1ba6ab17e4600102620021e9565b620078b27f4cd22882db7ad884c875dd9d60e1b0768bbbf57983d0393f2325021caf213093600102620021e9565b620078e07f0c3c84103e404c1b7f6705f0a11716125b0224172505cf4a2d0220b8380c498b600102620021e9565b6200795d60df600060e06000878152602001908152602001600020848154811015156200790957fe5b9060005260206000209060029182820401919006600c029054906101000a90046bffffffffffffffffffffffff166bffffffffffffffffffffffff168152602001908152602001600020600001546200c0ed565b905080925050620079917fc1f7c2bc9d20c10a46c0a69b7cc3fca16df0bcc2b0c134a565dd212f0a51de19600102620021e9565b620079d3565b620079c57f61598326d5dc820024203b0435f8334bea3a09162570c025950f889074dd3148600102620021e9565b8080600101915050620075ca565b50919050565b600062007a097f269b98238e7be55b5d7a3db79f2a96a0e9fa4e47593a6bb52d82c25d08facd7e600102620073cb565b62007a377fa0a2fde32d4e52005b78eac14a1ab6ae68b38ec56c08824fdb8abe489653882d600102620073cb565b62007a657f1879b1107adb408f8af76f8f45ac4e99c6f1bcc9102431bca363de52c073b1dd600102620073cb565b62007a937fd7067e1fc31ce2497d1aad67288494aad7eff15e9ad64f38f62ac1f194430691600102620073cb565b62007aa762007aa162007efb565b62002efd565b151562007b1c576040517f08c379a00000000000000000000000000000000000000000000000000000000081526004018080602001828103825260188152602001807f5265737472696374656420746f204f70657261746f72732e000000000000000081525060200191505060405180910390fd5b62007b4a7f789ba8c5ad5c32a80dfff31774c44fcc100d45bdb016459c014ebdcb9ac24222600102620073cb565b62007b787f02ecd88ec5aa7f79e1b04fa2d5196f70633b82efea766ec554a5367eb186c0ed600102620073cb565b62007ba67f59a78dfd20811adb0b9560508e861e78d8032deae4e9f4e0bce8ff189bd9708960010262002e53565b62007bd47f3f8df7233b4a75364b683758565d2f6966d9137970d601ad1cfec708113287eb60010262002e53565b62007c027f4cb3327658a3d18b66393e1559bc1403a3be6d86d74187417127905be2832af360010262002e53565b62007c307feb452b3c5fb790a499603d7ed4ebb9759ce33438e4de141dd2c1f244f12c2cd560010262002e53565b42831115151562007cf5576040517f08c379a00000000000000000000000000000000000000000000000000000000081526004018080602001828103825260518152602001807f476c7577615072697a654c696e6b65644163636f756e743a205468652064726181526020017f772063616e206f6e6c79206265206d616465206f6e206f72206166746572207481526020017f6865206472617720646174652074696d6500000000000000000000000000000081525060600191505060405180910390fd5b62007d237f868af601cc4d814075e6fd54f3966d8de20bda35701d9867b229ee6f958025bb60010262002e53565b62007d517f0fbe520c09a4fd4987711cc4b7722be838ec70a824b5597155431dbd9306e01860010262002e53565b62007d7f7f768569738d6eb5c6c8e00c1bdeed0f35dd006e72382180b25834ac55f744288360010262002e53565b606060206040519080825280601f01601f19166020018201604052801562007db65781602001600182028038833980820191505090505b50905062007de77ff86c7c0ba1176524fdf1aa156d95e4b379557f29ab5abb23328468922d54132360010262002e53565b62007e157fe0c74af62b4e21f2ccb5221c5bd7a0b9b91fa2bc5a0cc195b367a3ab2ea77b2a60010262002e53565b600030905062007e487f62958369c542558416d13f0b19aa41c92dcfd6f5065b8dc371d501b422ccdfa860010262002e53565b808418602083015262007e7e7f1f910af525fd0a6e80e0a2db0b97f4bb0448fe803aa5c1e9ca58be37e6ce8cf260010262002e53565b62007eac7f95a91ac1db41e5589f6978ded2853708607dfd1dcf43b3ea269d4e8fef9945c260010262002e53565b62007eb885836200c1ed565b9250505092915050565b60405180807f4f50455241544f520000000000000000000000000000000000000000000000008152506008019050604051809103902081565b600033905090565b600062007f337f2089262ab22a06f75537005f33d6e3979ed545185716e3c3df9434ede6e1937660010262002e53565b62007f617f2b4f10e66d2f86ef4895608718a6169b57957d9b6d8a1c94aef3885c8bab856b60010262002e53565b62007f8f7ff9a7814f3e2128b273ffcdfa81637e379c2a1981df4c6e59fec9b6245d47c9e060010262002e53565b600062007f9f868686866200c4ef565b905062007fcf7f1e2aaf62b6281a97b18530cb213bda0601371660f3ccd5e7650ba7a2a2dc290e60010262002e53565b62007ffd7f79944a3a0ce64be580f5c2533f6224bb4c8f6e55ab08c38311bc3b0de15147ce60010262002e53565b62008008816200ba5f565b915050949350505050565b6000806000620080467f1c29f5bfdefb542bb506b84b7c74430c6e9f3a3bb9e2a8ae6c272fff65c56e20600102620021e9565b620080747fe170a50cf1cc82b7a8b8b710d9580fc7fe6191971a8675a4910011b44b0e7eb6600102620021e9565b620080a27f203a00e7114c711bf1e80ab3dbf084357a497ed70ca3424640b7d1488ff6950a600102620021e9565b60dd60009054906101000a900460ff1660dd60019054906101000a900460ff1660dd60029054906101000a90046fffffffffffffffffffffffffffffffff16925092509250909192565b60006200811c7f4363280b0a384857f09298a15e7386e37bdd16a30ec1ad29a81042957a4eacc360010262002e53565b6200814a7f2241b8f0ff18451fb7bff58b2e558fb4fdca50e58953697a16cf8228d0443a2d60010262002e53565b620081787ffcc889693a5b83904f5d13ea2ed7fa6f4b4f84378fd6722ecb979cb08ea76a1460010262002e53565b6000620081878585856200cdb9565b9050620081b77f3b312b1c0f831ff0c7d73ce9e3e66bbc18a2348cc21dfc1cecf5b9f1c5511bf460010262002e53565b620081e57f436deb28efa5fffefaca023fe9a7e1ffd1c16c71b96713096f781c8587eba6ac60010262002e53565b6000620081f28262009f49565b9050620082227fa91511c6d9e8e969329fbc5d9c4a649bb0f904837aeaaeb24c88c91f5783268d60010262002e53565b620082507f0281ff50570d64fcc22a7cffad36a108b8a0f25c30b76aebcca33bfaabe1587160010262002e53565b60006200825d426200d2dd565b90506200828d7fcebb769236023ea5c6071130f4c3794bdf788492b01addde15682ebb38f7638860010262002e53565b620082bb7fc1fa9d0fd449d79b354856f4dc1acc6425102fd39cb1c92cab69582c5337b55f60010262002e53565b60006201518082039050620082f37f7bb0efe6dc690972b240a85d6d69cf1dbabd00dbc9c4d1a2e642bd830853645a60010262002e53565b620083217f4e3531303908a3189c7f0c3bbc5878a0da9aa30e41e04bc676e1bda022c0119160010262002e53565b6200832f888388866200df25565b506200835e7ff57a04441cd24e12f268de4011c4d0e7188523cd33e0f5997a4f057a72665cc760010262002e53565b6200838c7f5f4824ce5e5993ca3f8fea6cdb43a0953dc1a377f6a582625aa6c84529c7284960010262002e53565b600060e2600083815260200190815260200160002060008a73ffffffffffffffffffffffffffffffffffffffff1673ffffffffffffffffffffffffffffffffffffffff1681526020019081526020016000208054905011156200848857620084177fd7d8455cb9b21ba155eab791736846eef2bfa1af713b85b64f3f879e266a13d660010262002e53565b620084457fa885dbad3c273ca78cd1b5c51dfaf16f58ff56e3f355f4bc00906de13d98fc4060010262002e53565b620084737fa6e2e0fac632267809c1730876d0dd4dcb34e78490ca525e7fb6b8dfebf51e7560010262002e53565b62008481888288866200df25565b50620084b7565b620084b67f2e791255a86b134d317ce1fd6d8593fc0619586385cc0169603ffb6e216963b160010262002e53565b5b620084e57f1c18fbe36c0bf21be8d23b67c95aa51d2dbeab294df7b1c0881a159f1af3ecff60010262002e53565b620085137f01f98095bdb4871bd3cd472191fd2a3fffdc20a06d2c780c8e6682291d94446760010262002e53565b60019450505050509392505050565b620085507f84b91bc6cd4d63b8761ad13257c7207720ef3cd77d61117e543c387736916e5e600102620037e7565b6200857e7f9dccac468e58953be22b97f316f61593d0626c019b44f72d0fae41962f2372db600102620037e7565b620085ac7f431977193dba4d85d3d1072d0ba5e1cdccca8cddfd8c4aff4d7ac2ea98d3d4ee600102620037e7565b620085d681603360008581526020019081526020016000206000016200ebc690919063ffffffff16565b15620086d0576200860a7f28a965b98d8b942f56696427d3c721e5310563fbc5164dca87cf5cf13ea2a9ed600102620037e7565b620086387ff646bf7a647c7eede6638809cfb9c3301764e40ef49c153dd68e18ef90812a40600102620037e7565b620086667f6fa7faf9721d6feef12eef2be7cb46f54c37eb46b0da7acac7b4fe0f1b3f5442600102620037e7565b6200867062007efb565b73ffffffffffffffffffffffffffffffffffffffff168173ffffffffffffffffffffffffffffffffffffffff16837f2f8788117e7eff1d82e926ec794901d17c78024a50270940304540a733656f0d60405160405180910390a4620086ff565b620086fe7f8151549efc9ed0302e535d39e83479798ffab5156bdffc64026f549fa008bc6d600102620037e7565b5b5050565b620087317fe61146cafdbd435fd1a44f216470c1c771b447cea185fd63a791eedb5de9a633600102620037e7565b6200875f7f5574652d96785064c2df2826f0e7f7e329e984e6292358773864c6cc71ea7a07600102620037e7565b6200878d7f89299f8a83d41798f187ab3c16a70e02bdf5aa620db00df7f88c09b4627ffa55600102620037e7565b620087b781603360008581526020019081526020016000206000016200ec8290919063ffffffff16565b15620088b157620087eb7fbfdadd76f305d8adf092ee65907cc86e4f224d2c66f9af5c0b3cdfcc1f3e8fc2600102620037e7565b620088197fcedeb60ed9b0b45ad4375b68166468c8488c71bf3878d408ea58b70a4df19c82600102620037e7565b620088477f1ec6cce1ca0f17106fd0dac964533ee10f89f102e5bae6dbc54b66910cc69190600102620037e7565b6200885162007efb565b73ffffffffffffffffffffffffffffffffffffffff168173ffffffffffffffffffffffffffffffffffffffff16837ff6391f5c32d9c69d2a47ea670b442974b53935d1edc7fd64eb21e047a839171b60405160405180910390a4620088e0565b620088df7fa423d3155a2779de3b70eb057d48003daeb03c8d3bb306efff5033bc719fc2fc600102620037e7565b5b5050565b6060620089147f9ba21e4aec720ae0cdb3661d106d7b3c28070fbb50cb84e88bd961d62b076fd0600102620021e9565b620089427f30d70e9297c991dbec33d213f5b005ad6b02e6fd0a439021e89f50f6d8c11d4d600102620021e9565b620089707f48774ebfebefa3ea0f6e15f3f370e30b2f771d11102a8f636cd63f58a7f7f87e600102620021e9565b60e2600084815260200190815260200160002060008373ffffffffffffffffffffffffffffffffffffffff1673ffffffffffffffffffffffffffffffffffffffff16815260200190815260200160002080548060200260200160405190810160405280929190818152602001828054801562008a4857602002820191906000526020600020906000905b82829054906101000a90046bffffffffffffffffffffffff166bffffffffffffffffffffffff16815260200190600c0190602082600b01049283019260010382029150808411620089fa5790505b5050505050905092915050565b6000806000806000806000606062008a907fd9aa07dc2fdf21ff6d9dc6035d294b67f7ea05f7a7dd392f0abfa9f67bb0707e600102620063d6565b62008abe7fe6d8e582b5ccead73f67eb90099d5f256656f549eea1c09bc3c6a7e73e07cc74600102620063d6565b62008aec7f75916e65316b56c0aa0ba683d2eeb9ff63a9874c7c81211acbef5d5a04472466600102620063d6565b600060a760008b73ffffffffffffffffffffffffffffffffffffffff1673ffffffffffffffffffffffffffffffffffffffff168152602001908152602001600020905062008b5d7ff4b56094aaf5ac2cb270e6c04b80589fb528196f00ddb9d25f4bea209e89cd1d600102620063d6565b62008b8b7fe2064ecda43658bce43fbf2e4a4650e0b2419dd87d1c429c69e406fa1d96cb22600102620063d6565b806000015481600101548260020160009054906101000a900473ffffffffffffffffffffffffffffffffffffffff168360030154846004015485600501548660060160009054906101000a900460ff1687600701808054600181600116156101000203166002900480601f01602080910402602001604051908101604052809291908181526020018280546001816001161561010002031660029004801562008c785780601f1062008c4c5761010080835404028352916020019162008c78565b820191906000526020600020905b81548152906001019060200180831162008c5a57829003601f168201915b505050505090509850985098509850985098509850985050919395975091939597565b600080828401905083811015151562008d1c576040517f08c379a000000000000000000000000000000000000000000000000000000000815260040180806020018281038252601b8152602001807f536166654d6174683a206164646974696f6e206f766572666c6f77000000000081525060200191505060405180910390fd5b8091505092915050565b60008083141562008d3b576000905062008df1565b6000828402905082848281151562008d4f57fe5b0414151562008dec576040517f08c379a00000000000000000000000000000000000000000000000000000000081526004018080602001828103825260218152602001807f536166654d6174683a206d756c7469706c69636174696f6e206f766572666c6f81526020017f770000000000000000000000000000000000000000000000000000000000000081525060400191505060405180910390fd5b809150505b92915050565b600062008e3b83836040805190810160405280601a81526020017f536166654d6174683a206469766973696f6e206279207a65726f0000000000008152506200ed3e565b905092915050565b600062008e737f459e278c0a981f356992f93db68199e1525e444b60a1aa9f415242edaa90bbd36001026200ee0d565b62008ea17f676774ccb1be05ce8a1fe3012d02b51ed6e18267ffa29aa002ff672c33d32ee96001026200ee0d565b62008ecf7fd863485f4fc7f6d5d8aa55308bee6b8486345b0154e2c013f988cdd9179492f76001026200ee0d565b62008ede83600001836200ee10565b60019004905092915050565b600062008f1a7f3f6e9522e1ea2955cabc1c679f64bf976068c841a9611123dcede6de73ec4fcd6001026200ee0d565b62008f487f8b9337500c7386ca8a4084f42b2d40b9be1af142fb7b663118e6df4ae84c617a6001026200ee0d565b62008f767f2d10932486833c7b94206e0ae6f4a561123119dc1d8256f3e1dffa1f209828416001026200ee0d565b62008f9e836000018373ffffffffffffffffffffffffffffffffffffffff166001026200f01e565b905092915050565b62008fd47ff596d1a6f0772af6c466fed707b4e9734fbdf5e5b5edbbe099fcf5ab96267351600102620063d6565b620090027f9bbe506d4f58d6e53706d9b7e6fbe2b29d13bdc4726cf37884e0e370f95b890a600102620063d6565b620090307fdb823fd1da46a045a211a85879519a0d75311b5ef509bf55dcdc8683fd930ddf600102620063d6565b8360a460006101000a81548163ffffffff021916908363ffffffff1602179055506200907f7f2529bdde98c9b78f428a10c08256182524e41237063c6e9c9e3b2b9707388c1b600102620063d6565b620090ad7f82117200b3726a8989140611fafbd994593734d8aa02e00525f2c91561e51bfc600102620063d6565b8260a460046101000a81548163ffffffff021916908363ffffffff160217905550620090fc7f7c822fe57019f1ddab380712e45737f3b941eb06a2e01e1bd4357c27219421db600102620063d6565b6200912a7fd963eaa061d2c26000c8411bfe6de368fe23daa31134884b56135afc5b190931600102620063d6565b816098819055506200915f7fea2278caad5c45006f9174489c6dac16e4f7035ac5c7a6fc280c184fb250dc73600102620063d6565b6200918d7fbb4668e5685b83a58de07049c94d3888887ef33663f06f8dd384ffa75dff9d76600102620063d6565b8060998190555050505050565b620091c87f8d364e20c86888a49fb0a5c225316faafc62d30ef272ae7d5e4e91bf193c157b600102620021e9565b620091f67f443a104b7a2abc0ce9ff9d40bb5aba80939c9751fe15f5117433748460aac9f5600102620021e9565b620092247f4e4eb1fb865a8202c21707fc5704c30fe63e71ebc3d363465a5f1fe4c0072f22600102620021e9565b8260dd60006101000a81548160ff021916908360ff1602179055506200926d7f761edc98fee140249b69aba460e9f328cc70c96d2a0b4b079d086b41598494bb600102620021e9565b6200929b7fab52b31eb252d025a5c78869fd14218565b055d33d0c368e86f259e860b3e876600102620021e9565b8160dd60016101000a81548160ff021916908360ff160217905550620092e47fa1cbe202d4979dbc1803e8224f63637cd8300a19910f5d37c061af72d6ac1aca600102620021e9565b620093127fe5af1bfd7fbbbe21eb81a7414fd0a0a8c4e360a1323ff7e51ab859bddb66973d600102620021e9565b8060dd60026101000a8154816fffffffffffffffffffffffffffffffff02191690836fffffffffffffffffffffffffffffffff160217905550505050565b6000803090506000813b9050600081149250505090565b600060019054906101000a900460ff16806200938957506200938862009350565b5b80620093a157506000809054906101000a900460ff16155b15156200943c576040517f08c379a000000000000000000000000000000000000000000000000000000000815260040180806020018281038252602e8152602001807f436f6e747261637420696e7374616e63652068617320616c726561647920626581526020017f656e20696e697469616c697a656400000000000000000000000000000000000081525060400191505060405180910390fd5b60008060019054906101000a900460ff1615905080156200948d576001600060016101000a81548160ff02191690831515021790555060016000806101000a81548160ff0219169083151502179055505b620094bb7f150c1f904fe0c1d2f7a31162f5217d4d07c87854ee9f1013b84b4a0201d3e1fb600102620073cb565b620094e97f3a927a1908dff92aaf343f9a9dfd70ce943abc4aa14bc384662aea3b37a017f0600102620073cb565b620095177f2269e0bd13e5cbaefe2045e6d1c22c909b9219f2bd4b7672480604fb38c98aff600102620073cb565b6200955c60405180807f4f50455241544f520000000000000000000000000000000000000000000000008152506008019050604051809103902060006001026200f0cc565b6200958a7fa6df09688a4556c7d0ddda638cdc6c4be3f54a1562b6556c704a1151a59f51b3600102620073cb565b620095b87f9c9fbfd717d8dd01b6f6d343c06d5831407925d9079391b9c4b46f28be3049a7600102620073cb565b620095c86000600102836200f174565b620095f67fab54a3e2ff4e656505e71fbbf5f7f72002a6ea83477a899d8ce6e776e6750197600102620073cb565b620096247faaf351134d2239ae83e11d26c9067378253c609eb570f8ae74c28ed36c050dbc600102620073cb565b6200966560405180807f4f50455241544f5200000000000000000000000000000000000000000000000081525060080190506040518091039020836200f174565b8015620096875760008060016101000a81548160ff0219169083151502179055505b5050565b600060019054906101000a900460ff1680620096ad5750620096ac62009350565b5b80620096c557506000809054906101000a900460ff16155b151562009760576040517f08c379a000000000000000000000000000000000000000000000000000000000815260040180806020018281038252602e8152602001807f436f6e747261637420696e7374616e63652068617320616c726561647920626581526020017f656e20696e697469616c697a656400000000000000000000000000000000000081525060400191505060405180910390fd5b60008060019054906101000a900460ff161590508015620097b1576001600060016101000a81548160ff02191690831515021790555060016000806101000a81548160ff0219169083151502179055505b620097df7f17dbf3d109c4f5d7ee89824e05bc22e46bd7f238a4dfc214449033acb896da30600102620063d6565b6200980d7f37a00f29333ede6a62aec24c5b155256e73103af619aa0f5a06132d988720b04600102620063d6565b6200983b7f405881ad965423ccb1eb50f817a1127c7bab9d456ab47c5ca3de30284eaaa7a1600102620063d6565b8460a660006101000a81548173ffffffffffffffffffffffffffffffffffffffff021916908373ffffffffffffffffffffffffffffffffffffffff160217905550620098aa7f5f3b59e3c916b2543b8fffcf8da92609dd25f2f134ed297e6a84cdfbccce8cb3600102620063d6565b620098d87fd49dfa9318ba827faf2d1e1e62ca914df5a65d57a8f0593975e869ed153645da600102620063d6565b8360a460006101000a81548163ffffffff021916908363ffffffff160217905550620099277fad03c7523c09ddff4260081fca66e652656eecf7eaa3631f3a87756d6a518509600102620063d6565b620099557f96b7243fbf7e39b4dbafba3bea40cf65b2a8a2981e4d691f45fbe8051b4c1768600102620063d6565b8260a460046101000a81548163ffffffff021916908363ffffffff160217905550620099a47f3d79eb7efb2ac22f905fa98d8077cf7a5288b224bce8b661262d0341c1c02157600102620063d6565b620099d27f9d61ecf923815bcd30b35fff050fb785d71a81e57129e1e62a28b4d244cfe30f600102620063d6565b8160988190555062009a077f4d1da28b6ff493badbc82631932ee6faaa25c42646bf1875efa2b7b47d4eb2ae600102620063d6565b62009a357f77bc20e82f623d7791695aa51b5575507239779965e590de6f295de80778e8a0600102620063d6565b600160998190555062009a6b7f56ca7feaf246e3771784b54fb54b9b6ee10514bd64de526aa51dbeefc9deb439600102620063d6565b62009a997f2a0d22da8e991b89711d6308a38079ef47c8c8603cf616f9dca6f6b10f70d745600102620063d6565b60606040519081016040528060018152602001600181526020016000815250609c60008201518160010155602082015181600201556040820151816003015590505062009b097fba7a3f687c5ae1aaa5f691e8acfcb9803f3ef694369f5a01311767eee489b3d1600102620063d6565b62009b377fbbe611060714f972353adf43ebc7841f7c51d4d2e87b95822fa5e43804fdf49b600102620063d6565b6060604051908101604052806001815260200160018152602001600081525060a0600082015181600101556020820151816002015560408201518160030155905050801562009b9b5760008060016101000a81548160ff0219169083151502179055505b5050505050565b600060019054906101000a900460ff168062009bc4575062009bc362009350565b5b8062009bdc57506000809054906101000a900460ff16155b151562009c77576040517f08c379a000000000000000000000000000000000000000000000000000000000815260040180806020018281038252602e8152602001807f436f6e747261637420696e7374616e63652068617320616c726561647920626581526020017f656e20696e697469616c697a656400000000000000000000000000000000000081525060400191505060405180910390fd5b60008060019054906101000a900460ff16159050801562009cc8576001600060016101000a81548160ff02191690831515021790555060016000806101000a81548160ff0219169083151502179055505b62009cf67fd3c6c27b56653c691642f8f2003a6939ff6266835992a532b420dc4a769565b8600102620021e9565b62009d247f7976e804e76d0d9efc3b78fe72fb9e4a8578504d2975157c3250fb603e3ba381600102620021e9565b62009d527f039a8b299bcbe089210efb1b4a0d0e048d33c88b8efd452d6f6e1025a5c94740600102620021e9565b8360dd60006101000a81548160ff021916908360ff16021790555062009d9b7f0b561b54004f278cce7a6cb4173ee6ab43db623c35fd055bb14dbff80fc019b4600102620021e9565b62009dc97ffa3f09a7e4593084651f29ea8461b3387030a4159e8a40eef148b8f6e3e09f38600102620021e9565b8260dd60016101000a81548160ff021916908360ff16021790555062009e127ff089dbfa7364bad466cdb8497bb5a8b5b834c2756a722111d07fcb1ff09e8418600102620021e9565b62009e407faa964b1b324db9406b36cdf6a982b534d3f86c22a8248271de2c7454cf41e2f5600102620021e9565b8160dd60026101000a8154816fffffffffffffffffffffffffffffffff02191690836fffffffffffffffffffffffffffffffff16021790555062009ea77f5f0265a64dc0d1e44ed8fcf4b17443ea6b2dfbc5a7483c9de2803bd47128c3e7600102620021e9565b62009ed57f1e90f0808128ed6295f3929f0c3e9b6d2fefbfab02b0616f39d405a446233e58600102620021e9565b602060405190810160405280600166ffffffffffffff1681525060dc60008201518160000160006101000a81548166ffffffffffffff021916908366ffffffffffffff160217905550905050801562009f435760008060016101000a81548160ff0219169083151502179055505b50505050565b600062009f797fee0809b58aeeed26c30fc6ba6d875b96116194bedc82363fc1cff54182bdce1260010262002e53565b62009fa77f0c3e9f168ebfb4977cf472feeaa28e1f043f0a2f2b7739c3a79275d5177cb43c60010262002e53565b62009fd57fcf946496a68af8ab72dc0833344b0ca929f3401b5463d4651add61d4a119b11e60010262002e53565b61011a60019054906101000a900460ff1660ff16600a0a61011a60029054906101000a900461ffff1661ffff1683028115156200a00e57fe5b049050919050565b60006200a0467fef3003f0129bbc70afd32f619ac0b9e9e53ed070a15d073afbfeca0f18b09bad600102620021e9565b6200a0747fe9ccc8f3b1a0e88304e9986a4a95212986391b5760dbfd02de12dc7a06c04b52600102620021e9565b6200a0a27f9320883c9245d2acdf532a3a29eb3ddefbac50f535da86ece2d53fd81c7aedfa600102620021e9565b600060dc60000160009054906101000a900466ffffffffffffff1666ffffffffffffff1690506200a0f67ff89fb822d335b9dc601a9556cc5e96ac1e4c2e7dc0e0ae35cbb7a4b8810f116a600102620021e9565b6200a1247f537eb45c1ef919b66c047975f45174e60e410ff842f4d66c056e79d83dfe664c600102620021e9565b60008673ffffffffffffffffffffffffffffffffffffffff1690506200a16d7f656ad3b4f3c2a307d171ab15abb22494d1c9c629f1eb6f2d37f3dd5b1ee24713600102620021e9565b6200a19b7f073e147acc3d18fc219e164c20766a065a5acad263b4651f7781989ce2357596600102620021e9565b60a0826bffffffffffffffffffffffff169060020a02811790506200a1e37f78090439c7bf2e1293da69fc94da1fc52cf54f5f72aa4760cc25bf22de111853600102620021e9565b6200a2117f53d430737d556e4e55940f9eed7c24e195849be3483580700603371007507040600102620021e9565b600060e160008881526020019081526020016000205460dd60029054906101000a90046fffffffffffffffffffffffffffffffff166fffffffffffffffffffffffffffffffff160190506200a2897f5da47253ec3c3274e2ab7298d503a555d02c7232c501dcd08134ad2771f8ba10600102620021e9565b6200a2b77f5439116f482646a7d52d71066ec257f2baab37e8cb33e66e4f9bc70682cce037600102620021e9565b600085820190506200a2ec7f13f6c725b8f9eebc3e3b1f11af3f6436381c10d460a256e370a0097ffc234d04600102620021e9565b6200a31a7fc4c96cf46eeba2873e9ca10840c8f682bf3cf4105689f517332f6e5d1d8040a6600102620021e9565b6060604051908101604052808481526020018381526020018281525060df6000866bffffffffffffffffffffffff1681526020019081526020016000206000820151816000015560208201518160010155604082015181600201559050506200a3a67f7d1abfce3f4cdd03f44ae6cf0f8b5ddb772995bd692bb263f3c23339b515135c600102620021e9565b6200a3d47f081b29c9b5d9e4920545d94197af44ad21881b03f6f5e10e461d18cb9fd078dc600102620021e9565b8660e660008a8152602001908152602001600020600082825401925050819055506200a4237f0969465ef6c5ea50e8d3fd9a540cc241fb18b46edf5daab89808dff32f5201e1600102620021e9565b6200a4517f0671443b48b8db258579dcba632918e8affbd05437db35fe8da4eae40266f0ed600102620021e9565b8660e360008a815260200190815260200160002060008b73ffffffffffffffffffffffffffffffffffffffff1673ffffffffffffffffffffffffffffffffffffffff168152602001908152602001600020600082825401925050819055506200a4dd7f76e9c5df0eb03553c01aa0bc5b1875e59946e72a4831e122dd929fa71e53b188600102620021e9565b6200a50b7fd78789dcc5df825e09b94ecb8425a5c8355ac6677c2b5a6e7a6652342d1c1188600102620021e9565b60e460008981526020019081526020016000208990806001815401808255809150509060018203906000526020600020016000909192909190916101000a81548173ffffffffffffffffffffffffffffffffffffffff021916908373ffffffffffffffffffffffffffffffffffffffff160217905550506200a5b07fa14fcbcab4a892575ad23caa397f375fff3d33ee46c48ea6c92114c7c9ce5e63600102620021e9565b6200a5de7fc035af89a7a7fdab8d5b2c3923781b6f849dc4b22ec49186aeab341196e0ade3600102620021e9565b60e2600089815260200190815260200160002060008a73ffffffffffffffffffffffffffffffffffffffff1673ffffffffffffffffffffffffffffffffffffffff16815260200190815260200160002060dc60000160009054906101000a900466ffffffffffffff16908060018154018082558091505090600182039060005260206000209060029182820401919006600c0290919266ffffffffffffff16909190916101000a8154816bffffffffffffffffffffffff02191690836bffffffffffffffffffffffff160217905550506200a6dc7f0c9b38d7c3a65c3cc43fd5ad7ae3993a6d93fd697e31957f51397f60e47de362600102620021e9565b6200a70a7f381080a9f8721aa0664b32dddbd723e4c698f38e9df2cbc323c6ccbdf1c53cea600102620021e9565b60e0600089815260200190815260200160002084908060018154018082558091505090600182039060005260206000209060029182820401919006600c02909192909190916101000a8154816bffffffffffffffffffffffff02191690836bffffffffffffffffffffffff160217905550506200a7aa7fc80f4cece3c2167176cd3daee7a2b9c69961deb2c488b1339fb5808b0c50ac84600102620021e9565b6200a7d87f62084f7b105f12b0759924635bb5bfbf4b8f468bf9e9602362155b8346484655600102620021e9565b8060e160008a8152602001908152602001600020819055506200a81e7fc6b5058ad1548c6ca49bb1d28ecae089997f2bece577e784c81db0684e31d950600102620021e9565b6200a84c7fa17398b5bd6815cbf87da4f9a9c0705dfd0842fa79935314fcc95cf49a7181b4600102620021e9565b8873ffffffffffffffffffffffffffffffffffffffff16846bffffffffffffffffffffffff16897fa0f62cfa805b8a221820e6091364400400ec918a02277ac3d0438e98369eadb68585604051808381526020018281526020019250505060405180910390a46200a8e07fb814d31f5d4c16fb9afbfdd58f41820fd86d8a1f15872a35ece725947e6bf4d0600102620021e9565b6200a90e7fb366b138fa3b2adb812947f61c94100618afa37db197508b8bc40683754cb896600102620021e9565b6200a91a60dc6200f20e565b6200a9487f2c41579efb91bede4cde39628a81b8e32f557a06b6a2e1e7e121d84b69355053600102620021e9565b6200a9767f179cb88c29a4b8ef41997ec0d7013f70bf371f9254f4fc8351fc8d98c9695c7d600102620021e9565b6001945050505050949350505050565b60006200a9b67f3fbb6c237d91889d2b85197067a6867564519756a4b142dce99503390a61e0da6001026200ee0d565b6200a9e47ff0ca5118ce57dbc469380946ed7733bfee6956d8894b68924b77265267d985a86001026200ee0d565b6200aa127f4e24753963ccd879d590789fd3106e2074905aede5539b4162644af54b7f58fe6001026200ee0d565b6200aa20826000016200f2b3565b9050919050565b6000806200aa587f47037449925b55103db30c98d27d8ca0b7885ab667b5b16d296ae241e8ac9ff1600102620063d6565b6200aa867fb1984e31da7081381a9af027766a1299f9dd9601711d4803eda543fe2a4b9c17600102620063d6565b6200aab47f8520bbdc1065c48f0f20efc1f79dd197d8ca4e1eccca4a47e190ce4a84b9b189600102620063d6565b6200aabf856200f34e565b6200aaed7fda5a49efd6a9275f6de973b1973d9652d06f46ebce2a10ac9f6b0d32187fd896600102620063d6565b6200ab1b7f6311c1acba6ba6a0ac8ef65fbb928cf10b9a8c602290410b2b2f9a2732c6f990600102620063d6565b6200ab497f29f579870e139648b7a4dab6da4a649a60074ddd1a90f31bc8e9755a0207163a600102620063d6565b600073ffffffffffffffffffffffffffffffffffffffff168673ffffffffffffffffffffffffffffffffffffffff16141515156200ac15576040517f08c379a00000000000000000000000000000000000000000000000000000000081526004018080602001828103825260388152602001807f476c757761536176696e674163636f756e743a20536176696e67206f776e657281526020017f2061646472657373206d75737420626520646566696e6564000000000000000081525060400191505060405180910390fd5b6200ac437f4eb49c94e8eb0a6e62e632a2704874592daa97ddf77837ff3be43f1d3863c1e4600102620063d6565b6200ac717f0a44630ebdb1427c3229ac6c5f57a4a4edafdceea23d811259a9fb17c8b92b1b600102620063d6565b6200ac9f7ffb2ef150308673efcfec895ad27adddb42399e62d460c309faf8660c51aed8a5600102620063d6565b6200accd7f678cbef0a8f5b00b9167a77b638210e4263a477281a3bfb60be794624493b7a6600102620063d6565b600060a760008873ffffffffffffffffffffffffffffffffffffffff1673ffffffffffffffffffffffffffffffffffffffff168152602001908152602001600020600301541415156200add4576040517f08c379a00000000000000000000000000000000000000000000000000000000081526004018080602001828103825260478152602001807f476c757761536176696e674163636f756e743a2045616368206164647265737381526020017f2073686f756c642068617665206f6e6c79203120536176696e67206163636f7581526020017f6e74206f6e6c790000000000000000000000000000000000000000000000000081525060600191505060405180910390fd5b6200ae027fd4db1d6afaad34c1c6f662aac9db2390c4631d478c522cf973cff17a04eb8051600102620063d6565b6200ae307fdd87886c8f8c5b4a561f66f9ec48c4acb3f5e7b3c02ae5a1bd4ede447edb2fd8600102620063d6565b6200ae5e7f1bec6e70f80774a59e8920f85e6096fee2a3ccc9c1479adbee383a62e8bf40e6600102620063d6565b6200ae8c7f09ff8cc7c7ada2ed620b18b5faa8174ed9e7f22bb687c70c5d5e5b6dabe461dc600102620063d6565b6000151560a9846040518082805190602001908083835b6020831015156200aeca57805182526020820191506020810190506020830392506200aea3565b6001836020036101000a038019825116818451168082178552505050505050905001915050908152602001604051809103902060009054906101000a900460ff1615151415156200afa9576040517f08c379a00000000000000000000000000000000000000000000000000000000081526004018080602001828103825260318152602001807f476c757761536176696e674163636f756e743a204964656e746974792068617381526020017f6820697320616c7265616479207573656400000000000000000000000000000081525060400191505060405180910390fd5b6200afd77f97cd7f30a09b43cd7d7a9f14aee34c151599c75b5144e6d674cb460f54468011600102620063d6565b6200b0057fffce348fe537e0cd9e0b52731bef05907ec42731a536db750a3c4f13c7e3b472600102620063d6565b6200b0337fdb06ad4b8d8a2c29c57272e7083b68d2a85839309e07e256c76b304dea8a2907600102620063d6565b600073__$8ad4cadfbfab443c6ed09b45690dcdfb0d$__6384cefce086308a6040518463ffffffff167c0100000000000000000000000000000000000000000000000000000000028152600401808481526020018373ffffffffffffffffffffffffffffffffffffffff1673ffffffffffffffffffffffffffffffffffffffff1681526020018273ffffffffffffffffffffffffffffffffffffffff1673ffffffffffffffffffffffffffffffffffffffff168152602001935050505060206040518083038186803b1580156200b10957600080fd5b505af41580156200b11e573d6000803e3d6000fd5b505050506040513d60208110156200b13557600080fd5b810190808051906020019092919050505090506200b1767f226a159d817af4cb8d5037d5500dc8941f5825535dc69bcd5223303a2c4627c0600102620063d6565b6200b1a47f39f16de9bebcb6aa77e1655e284a5b56ac70a2fcee02d102fd7f1edd63b7c708600102620063d6565b600073__$8ad4cadfbfab443c6ed09b45690dcdfb0d$__63fd96809e609c6002015489308c6040518563ffffffff167c0100000000000000000000000000000000000000000000000000000000028152600401808581526020018481526020018373ffffffffffffffffffffffffffffffffffffffff1673ffffffffffffffffffffffffffffffffffffffff1681526020018273ffffffffffffffffffffffffffffffffffffffff1673ffffffffffffffffffffffffffffffffffffffff16815260200194505050505060206040518083038186803b1580156200b28757600080fd5b505af41580156200b29c573d6000803e3d6000fd5b505050506040513d60208110156200b2b357600080fd5b810190808051906020019092919050505090506200b2f47f5e764c4e90e7ed8761088ee9d398f4ea3c6625b44e345ffcdc2d294c29b15eaa600102620063d6565b6200b3227fadd59be1989bbc100ed9d826c4fb988b57613ef4a2cfcf4d6866da76fadb4381600102620063d6565b61010060405190810160405280609c6002015481526020018381526020018973ffffffffffffffffffffffffffffffffffffffff16815260200187815260200188815260200160008152602001600160048111156200b37d57fe5b81526020018681525060a760008a73ffffffffffffffffffffffffffffffffffffffff1673ffffffffffffffffffffffffffffffffffffffff168152602001908152602001600020600082015181600001556020820151816001015560408201518160020160006101000a81548173ffffffffffffffffffffffffffffffffffffffff021916908373ffffffffffffffffffffffffffffffffffffffff160217905550606082015181600301556080820151816004015560a0820151816005015560c08201518160060160006101000a81548160ff021916908360048111156200b46357fe5b021790555060e08201518160070190805190602001906200b486929190620116ff565b509050506200b4b87f97f860c0d84a24afae27959165d108e05ce63a833dfaab91558b0840a03689c2600102620063d6565b6200b4e67fdc23ffba0b8755c6d937af1ab11038c9c4a0fb577c7fdd698a90779864ffa264600102620063d6565b60a06040519081016040528060a0600201548152602001609c6002015481526020018973ffffffffffffffffffffffffffffffffffffffff1681526020018781526020018881525060a86000838152602001908152602001600020600082015181600001556020820151816001015560408201518160020160006101000a81548173ffffffffffffffffffffffffffffffffffffffff021916908373ffffffffffffffffffffffffffffffffffffffff16021790555060608201518160030155608082015181600401559050506200b5e17fc8b09d5f08318382233330a17c6e8f45168ffb1c2ec23b8d892a7949cf706ef8600102620063d6565b6200b60f7ffbd63849cd7cdbabcaf8c5c58488d84a00e9d9ce6a392a18547fc854301f1a6c600102620063d6565b600160a9866040518082805190602001908083835b6020831015156200b64b57805182526020820191506020810190506020830392506200b624565b6001836020036101000a038019825116818451168082178552505050505050905001915050908152602001604051809103902060006101000a81548160ff0219169083151502179055506200b6c37fec86d0b9e3adb27e547bfe6982a49162382f32d9e0a321f344a5cd9e58a47b87600102620063d6565b6200b6f17f407cf8a87c8b060d5069571ffb92713debcd25c6fff93e020e7cce034cc46090600102620063d6565b6200b70782609c6200f54990919063ffffffff16565b6200b7357f890a96b98cc050681de7722af516aa2ed7b59f86d1b4523d26e5dfd288f6840d600102620063d6565b6200b7637ff26286e08f13ffacf5d0b8945f5ad8ee66623b92e91e9b9e6e2ae2685174bf2d600102620063d6565b6200b7798160a06200f54990919063ffffffff16565b6200b7a77f7bb9c928c3ead4140e18eeda64293a79758d0c6862d6d2bb7fbb9163369bca9e600102620063d6565b6200b7d57ff6789f38822f0f7709e73fe18d4d4a826de151b932f5e3121a7a2526895b9a9e600102620063d6565b609b8890806001815401808255809150509060018203906000526020600020016000909192909190916101000a81548173ffffffffffffffffffffffffffffffffffffffff021916908373ffffffffffffffffffffffffffffffffffffffff160217905550506200b8697f9a31c02245f9b13d91f0a10f92916673be02a3e9f06985c3d3060627f1e7b516600102620063d6565b6200b8977f0dbb3f1c1696d9e69fee9d2bfab3db72a558cb6b5bd131112970592f1124772c600102620063d6565b8660a5600082825401925050819055506200b8d57f5123be82fcef626c66b2d27c4912c3197183b004d83422a5bdf859b93b1ee81a600102620063d6565b6200b9037f8e5f5ca891d9b6bcaff16283e9830710c818cea7371a1f9bae8e914c0246cfc2600102620063d6565b8773ffffffffffffffffffffffffffffffffffffffff16827fd61caa23c7e60d69f689a83965592bc26f0dee75c1e247864bb07bbb6fdafe4760405160405180910390a36200b9757f6da6846f465b43ddab256cc640e6369b76ad635e7879878dc95505bcb595b452600102620063d6565b6200b9a37feec062d9b9710d0d119fdcd231962bd726210ffe0eeb4727b085520f3aca2740600102620063d6565b8773ffffffffffffffffffffffffffffffffffffffff16817f2fc7f61216f4b9da63724a7ccba484452205b7cf651334640e3cd11201786006896040518082815260200191505060405180910390a36200ba207f41eee1c77d949007184c46444bc026aebd5dd923f0afcf6514b8d64de14bcb74600102620063d6565b6200ba4e7fc1054bf4c62b8334811e3e63ec2e99f18396684dd6e5256ec1ff73276070659c600102620063d6565b818193509350505094509492505050565b60006200ba8f7f269b98238e7be55b5d7a3db79f2a96a0e9fa4e47593a6bb52d82c25d08facd7e600102620073cb565b6200babd7fa0a2fde32d4e52005b78eac14a1ab6ae68b38ec56c08824fdb8abe489653882d600102620073cb565b6200baeb7f1879b1107adb408f8af76f8f45ac4e99c6f1bcc9102431bca363de52c073b1dd600102620073cb565b6200bb197fd7067e1fc31ce2497d1aad67288494aad7eff15e9ad64f38f62ac1f194430691600102620073cb565b6200bb2d6200bb2762007efb565b62002efd565b15156200bba2576040517f08c379a00000000000000000000000000000000000000000000000000000000081526004018080602001828103825260188152602001807f5265737472696374656420746f204f70657261746f72732e000000000000000081525060200191505060405180910390fd5b6200bbd07f789ba8c5ad5c32a80dfff31774c44fcc100d45bdb016459c014ebdcb9ac24222600102620073cb565b6200bbfe7f02ecd88ec5aa7f79e1b04fa2d5196f70633b82efea766ec554a5367eb186c0ed600102620073cb565b6200bc2c7f84142ada7d54f8294d982d77e84c506e4ebf71a6e6a8929dc6468cdca254b20d60010262002e53565b6200bc5a7fdd2e85517e667d030ccb809dc02f3543108e2a5e70dd927f77c9a8a594e91b1060010262002e53565b6200bc887fa31b1a46fe654b8214ce8780cb04e88051018ff49ed0d929639c54af16d37a0360010262002e53565b600060a8600084815260200190815260200160002090506200bccd7f6b1d3517277c6dae7c17baff232a77586dc13e733d24d39144b09aff7ecff63060010262002e53565b6200bcfb7fb55f637aec5ea17df8d730c46751dbfa10f5154ff466b43dac3263305759673660010262002e53565b6200bd297f8f43cc292f22eccf19fb0e91fd36c4e31d3a3ea377ca734b6268c612006c6c0c60010262002e53565b600081600301541115156200bdcc576040517f08c379a00000000000000000000000000000000000000000000000000000000081526004018080602001828103825260318152602001807f476c7577615072697a654c696e6b65644163636f756e743a205468652064657081526020017f6f736974206973206e6f7420666f756e6400000000000000000000000000000081525060400191505060405180910390fd5b6200bdfa7f1699edaedc9a0279b78810e72027cdfd7548ce0ba68adcab7134bc7a2924de7160010262002e53565b6200be287ffbb2231a60b23c47f6efeb95679d935eb66f00ee07b920f2b12efafb0b77bfcc60010262002e53565b6200be567fc99db7348e08c2dce72ee319f4479aa75684efefd9d0d1b65a7c7624a979a7a860010262002e53565b6200be9e8160020160009054906101000a900473ffffffffffffffffffffffffffffffffffffffff16826003015483600401546200be98856004015462009f49565b6200f679565b506200becd7fdffdb994ba241c0319ac950942effbd59462326ed703faabd0e960b73b1a4c3d60010262002e53565b6200befb7fa337749e228df36ace39ec8cca41156db675ecdaa278a7102af22533d9cead6560010262002e53565b6001915050919050565b6000806000806200bf397f67054dac490c85ee27cb348f7947c8206bd638d1118776530f41b8124abd49d7600102620021e9565b6200bf677f6c9c951c9424fc2ae46c3da0a2da7810a85785eb78ddcce261b4a62598bfce8d600102620021e9565b6200bf957f2d3b99769cfbf74e4b559baead6ec327f44984377c96a4a7c735877e1751bf30600102620021e9565b600060df600087815260200190815260200160002090506200bfda7f752b614dcd43b64a7299e0f86075c6d21cedbd89eba1631abf2743b7b946af47600102620021e9565b6200c0087fbaa6dad4bf9fc1b0239fa23cbdfb6c0e927c3523ee2275d7b861051d256dfc83600102620021e9565b6200c01781600001546200c0ed565b80955081965050506200c04d7fea25679998979202b0b4b107f89054f2794bb3bdd9a1c4d768a97a844758a780600102620021e9565b6200c07b7fee6f04d8903c6b975227c7950dc7e18945464e5271c84c489f529cf63f2a9b2b600102620021e9565b806001015492506200c0b07f5b13ecfe45c00bb754ec25a2fd7654dd81c9999f91657f2e34069d2199ecac4a600102620021e9565b6200c0de7f1906b4099c4ff18ae8645fecee6f5c2d21335fb4a8562eee149855221076c782600102620021e9565b80600201549150509193509193565b6000806200c11e7f2a6b08f6b3d399cff480c7a89510f70c1886f224a158c7576c1240c9ac2e18a7600102620021e9565b6200c14c7f0ea3092967f864d98a57f68060467397dcc8e36dffa08c8112d09734ca877807600102620021e9565b6200c17a7f7c36b0bd26f5b34abdc80b983f14a3b49aea03dfb469ac6617f36f3214716011600102620021e9565b8290506200c1ab7f57992dc55ae2bd2bc00a1edba37970d7078af38a12bfd8216fe95a828d3371e5600102620021e9565b6200c1d97f73cdd953316863f7c9f49d53db46b3f0c6b3b6a056ca2661cef2136875064a91600102620021e9565b60a083908060020a82049150509150915091565b60006200c21d7f01f1db6c9eaeeed975bc08895d49484d16b7fafc9293c2abec87618c7b0847b6600102620021e9565b6200c24b7fb552db9bdb93afb63a00691fb07e94c940edec38a20f346152b9611a90c325e1600102620021e9565b6200c2797f9ae4b6334e7aec4e0e41059fc0ac9236c05d76dc68dbd077b1c40d29966471b3600102620021e9565b6200c2a77fe4e823fd9ceebedc9d0b8b348c80a7414b6f0e165a02fabd9cd5a8e36d488199600102620021e9565b600060e56000858152602001908152602001600020541415156200c359576040517f08c379a00000000000000000000000000000000000000000000000000000000081526004018080602001828103825260268152602001807f476c7577615072697a65447261773a207468652064726177206861732062656581526020017f6e206d616465000000000000000000000000000000000000000000000000000081525060400191505060405180910390fd5b6200c3877fe252ba52da0f2b20c29f245fb298abc21c8250b67427122e5966ad8a5dbe66fc600102620021e9565b6200c3b57fa8ed851e73668854f81601270ea988891ee70db828dc8a984e387c9e57d62340600102620021e9565b6200c3e37f95ac37976cf8eea6b2e66f76c444faef359f36c0f00f6451f8ee99c798a037af600102620021e9565b6000806200c3f1856200335d565b915091506200c4237f851ad9bd447ea81c76294dcb4633912eacfdcca67053064cc12a711b1de8654c600102620021e9565b6200c4517fc9cb45d0bf10e6af1b5b19854bc22abb12a6ce6d2f3d6d17a3458b6e3007cfb1600102620021e9565b6200c45e8282866200f727565b60e56000878152602001908152602001600020819055506200c4a37f64ae18e454d090e2f0263f7cbb36a4aa2890c5c054c6af5cc79042ee0d3cd4b1600102620021e9565b6200c4d17f48fd48f1275171a2aaecc142b245052ba266fe62db5c3296f7d23ce69b3c4b78600102620021e9565b60e56000868152602001908152602001600020549250505092915050565b60006200c51f7f9c8850ecad6c2fa7acfe211222b48237be0d9bcbad3e60452d68d3be6469c680600102620063d6565b6200c54d7f275b31574706d124196f93de6704fb1603f6b53479a24265557836230159acab600102620063d6565b6200c57b7f4a4b478c226922878711c7d3d5dbba490fcbb641caca51c4fbf828b8c1809169600102620063d6565b6200c586846200f34e565b6200c5b47f12709aa023c7c1437d0f428fb874dd62cfefa6a94160a9856ea7be02ead17d7e600102620063d6565b6200c5e27f78d63f3dc0fcd461746a4538a7215ae972ade77c664b0c370d1c0e5b3e89e9ee600102620063d6565b600060a760008773ffffffffffffffffffffffffffffffffffffffff1673ffffffffffffffffffffffffffffffffffffffff16815260200190815260200160002090506200c6537f7eef7889d9f5095cb7e9a72d488afd4982f8a107a26a57d4132fc1138564e9a2600102620063d6565b6200c6817f137d930a46031d795d8f9aa019aecef5a4cf0f4848fefcb283021777f36112e5600102620063d6565b6200c6af7f71fe26de4629c37a91f07e0109231e3f5d5f40c733a94ba80f216582feb5f57f600102620063d6565b600081600301541115156200c752576040517f08c379a00000000000000000000000000000000000000000000000000000000081526004018080602001828103825260258152602001807f476c757761536176696e674163636f756e743a204163636f756e74206e6f742081526020017f666f756e6400000000000000000000000000000000000000000000000000000081525060400191505060405180910390fd5b6200c7807f2be1e9e413be5f87fb4bcd889371137221512ffc62a817e7a77831f7c5e1ef33600102620063d6565b6200c7ae7f039a6ecff32526bdd163d41cb48a1505d8dc141b5e20faaceee4620ecf87ae01600102620063d6565b6200c7dc7fbbe5dde346889c369e578f8cdc186d6f451c6f33b7b578637b6d0f06c7892068600102620063d6565b8481600401600082825401925050819055506200c81c7f66aba0f96d1f6792b608ae8d44fd94aa6faa338f3af52ab1d2e642911c3b3ae3600102620063d6565b6200c84a7f9fc883e07a34a6af8ee1d8f10a216208ce6670a8e9c002d2ec0cb85ec87cfc80600102620063d6565b82156200c8f3576200c87f7f8d7b241c685f0f33634fa18a1c4d71dcc2cee767c48cc12540bdb18e9b25fa80600102620063d6565b6200c8ad7f1669a514ac2f181652dcef1cb8fca3764afbcfbb250d37d2ad92a5ab5db08362600102620063d6565b6200c8db7f3aee7774f03b22ab36fa3dd1cc41b17b2017c3bb5f2c3b82dc195c9dd7a31759600102620063d6565b8481600501600082825401925050819055506200c922565b6200c9217f87a4f3ad8a6c6df74e5096e6ae54b083ea4b142c7efc42d6e46556132a9ecaf5600102620063d6565b5b6200c9507fe6fa6493778d9eb8ac420addc23646359bb9ded8df6dcb8dc545c8ea8f010a27600102620063d6565b6200c97e7f26e1bab5fcfcdb48c3cf3321e63d31a3d0cc71de6dd1d2749d4a5104f0978963600102620063d6565b8460a5600082825401925050819055506200c9bc7f549678919587eecbb3738c39ce427a024dca603d97dc926e6dae1f5c009a31d1600102620063d6565b6200c9ea7f5d96cc8aefe6b902e1213d2fdbe6ce704d6f8f3afaa08ef5a85b5d71b7d32923600102620063d6565b600073__$8ad4cadfbfab443c6ed09b45690dcdfb0d$__63fd96809e836000015488308b6040518563ffffffff167c0100000000000000000000000000000000000000000000000000000000028152600401808581526020018481526020018373ffffffffffffffffffffffffffffffffffffffff1673ffffffffffffffffffffffffffffffffffffffff1681526020018273ffffffffffffffffffffffffffffffffffffffff1673ffffffffffffffffffffffffffffffffffffffff16815260200194505050505060206040518083038186803b1580156200cacc57600080fd5b505af41580156200cae1573d6000803e3d6000fd5b505050506040513d60208110156200caf857600080fd5b810190808051906020019092919050505090506200cb397f29e10f06f32355d2e8b458d3934535f2dc9995b7a5744376568fabc1d34b7953600102620063d6565b6200cb677ffe68b720a9443a5a2c983292cc9bbfe8f430da69cca5eb30ab5e4f1014ee97b1600102620063d6565b60a06040519081016040528060a0600201548152602001836000015481526020018873ffffffffffffffffffffffffffffffffffffffff1681526020018681526020018781525060a86000838152602001908152602001600020600082015181600001556020820151816001015560408201518160020160006101000a81548173ffffffffffffffffffffffffffffffffffffffff021916908373ffffffffffffffffffffffffffffffffffffffff16021790555060608201518160030155608082015181600401559050506200cc617f6d29a18058793c267023de1e500297a1b49839905f46fd7558628aa161970a6c600102620063d6565b6200cc8f7f1e48659a37d90012034ce0504abf94c687d1cde48eae1d34c8ecf6f1da685f72600102620063d6565b6200cca58160a06200f54990919063ffffffff16565b6200ccd37f970ea2430ac8c7129fc8eaf4f7c2f09dc3460b605ba5397bea49e71e9b74f913600102620063d6565b6200cd017f32ff90641404ad09eea1cd00e3bb039b4789c6b58017ea094d7e1750d00e945d600102620063d6565b8673ffffffffffffffffffffffffffffffffffffffff16817f2fc7f61216f4b9da63724a7ccba484452205b7cf651334640e3cd11201786006886040518082815260200191505060405180910390a36200cd7e7f15c6a063f9b01120a1bdb44338ffe9ad683bb9e5d0841ad21e8a6a1706a63049600102620063d6565b6200cdac7fa8ad17f714c474602870daac8b065e6e20d7dd6bc40d773bba4a1d9820c4c3c1600102620063d6565b8092505050949350505050565b60006200cde97fc82241adfb74a23d91a327ab0893a9f1287553d6616b14dd2c828a2c2adfe9ca600102620063d6565b6200ce177f30fbc8688988fc240a9fc1c2a1e3c2a43c849c45e86515212e6a5d9bb26a5729600102620063d6565b6200ce457f4e49c2ccbabec259aec2ec8da81945dad6b263a6ece7af5dd40e7a6435a2d5cc600102620063d6565b600060a760008673ffffffffffffffffffffffffffffffffffffffff1673ffffffffffffffffffffffffffffffffffffffff16815260200190815260200160002090506200ceb67ff020a85bf3c444398da3b5e692275b36c2f73df41ee8abb71eb2aa6763e477eb600102620063d6565b6200cee47f295d7cc9613a35bfc18cd0c00a28b299814364a6d1e975c6d52c9215e6b0dce1600102620063d6565b6200cf127faf646100ef7cea788bc31925539542be76919e1c20b75bee53adda3278c6ab9b600102620063d6565b828160040154101515156200cfb5576040517f08c379a000000000000000000000000000000000000000000000000000000000815260040180806020018281038252603c8152602001807f476c757761536176696e674163636f756e743a205769746864726177616c206181526020017f6d6f756e7420697320686967686572207468616e206465706f7369740000000081525060400191505060405180910390fd5b6200cfe37f4809e4c5bbee64d565bce34b7be27581d0c606f40716a84a2a4d90f079e24788600102620063d6565b6200d0117f8b177a8c52978e3be2e0c1e866cf5a08705f204fe91c7c0c4ed8cda8f785994a600102620063d6565b6200d03f7fe4a5bd5803a029419c876c375b9e5f824f46c7fce5e01c37a0d004a6547762b6600102620063d6565b8281600401600082825403925050819055506200d07f7fec4ae7188cbd48a81c3ef973adfc3d60726642d39b3f613816c1dbc8438b92fd600102620063d6565b6200d0ad7f7d806b11ed7aa8a8004d5bf6069d3c493eb9e5fc0d41b953fcd9ccfe7996a72b600102620063d6565b60a660009054906101000a900473ffffffffffffffffffffffffffffffffffffffff1673ffffffffffffffffffffffffffffffffffffffff1663a9059cbb85856040518363ffffffff167c0100000000000000000000000000000000000000000000000000000000028152600401808373ffffffffffffffffffffffffffffffffffffffff1673ffffffffffffffffffffffffffffffffffffffff16815260200182815260200192505050602060405180830381600087803b1580156200d17357600080fd5b505af11580156200d188573d6000803e3d6000fd5b505050506040513d60208110156200d19f57600080fd5b8101908080519060200190929190505050506200d1df7f667bfe2cd3599f95f95acc9b487b7c6bf79d4be81e953aee2a3ef3af81d994c4600102620063d6565b6200d20d7fc72a0c558a46349161888d2b06fb31e1b14b10bc5f3a8a56cf573c58890fce49600102620063d6565b8373ffffffffffffffffffffffffffffffffffffffff168573ffffffffffffffffffffffffffffffffffffffff167fd1c19fbcd4551a5edfb66d43d2e337c04837afda3482b42bdf569a8fccdae5fb856040518082815260200191505060405180910390a36200d2a07f131210454d8d5d25dbea0d2156a9399cd9f367e741b110e1720aad6b95ce11b1600102620063d6565b6200d2ce7f0afb8d2a042420390505ba73febdcad46b51fbc5787f299b0a46383a3b577421600102620063d6565b80600401549150509392505050565b60006200d30d7f1f70bd4cac199a1a80d7f4c6aa9dc4ee340d4363387d17599d0b0b27a260b181600102620021e9565b6200d33b7ff5a4c0a6d4a3f9492098267d5e32872c51c79f88fd16476c7295a97c55520758600102620021e9565b6200d3697f71b20f107e51adb64d252d185ee8589d53ecca82cf606677146ca03e2cfb996f600102620021e9565b6200d37362011786565b6200d37e836200f8dc565b90506200d3ae7f30509abadea3ecbfece548aca0a5db4e1bc9eb408990a38aa30459bda86888bf600102620021e9565b6200d3dc7f13e32c69eefc85a4883862d1a3d2318caeafa040750f19364160931e0456ad89600102620021e9565b6000600290506200d4107f9dc9f4d4a314cf286c0e776a7a57a05e751e6ec80021ac7d4d064ea41df30bdd600102620021e9565b6200d43e7f9e707761d3604260ef6f47581b90d70ce40a92cdbef03b831b3dd9922bc74b90600102620021e9565b60dd60009054906101000a900460ff1660ff16826060015160ff1610806200d4a4575060dd60009054906101000a900460ff1660ff16826060015160ff161480156200d4a3575060dd60019054906101000a900460ff1660ff16826080015160ff1611155b5b156200d53e576200d4d87fc927a18d37dc75cf332c7685e5080ca9ac5a10ac851837688c2d7096876ff895600102620021e9565b6200d5067fbb87e89a28a7709f2ab3b65896323c89a208d86ece2f4dec9cc4c1f047a9c49c600102620021e9565b6200d5347f9d648b024e5e21ebcd30c48ee4a741dae2a0ff26bb7b3c40ea3763758bbc0262600102620021e9565b600190506200d56d565b6200d56c7fea35e25c4e40db311fadfa03ce797daf24cafaed701ef9945af48107d0fd330d600102620021e9565b5b6200d59b7f4839e995c9a1c145235ebd664f167575798bda02639b8af21cd3c9f826cc6d25600102620021e9565b6200d5c97fc8e0e414452696100803d052a534cec965c83cd24910cd3aa98530910b9c4066600102620021e9565b600073__$05084330c9bf728fdd5577c5afe72a471f$__6389807474846020015185600001516040518363ffffffff167c0100000000000000000000000000000000000000000000000000000000028152600401808360ff1660ff1681526020018261ffff1681526020019250505060206040518083038186803b1580156200d65157600080fd5b505af41580156200d666573d6000803e3d6000fd5b505050506040513d60208110156200d67d57600080fd5b810190808051906020019092919050505090506200d6be7f189ab8eaa74c2615c2857ac5bb53a506349ed7538b5d79470312a75f13f5074e600102620021e9565b6200d6ec7f297c5cf319c225c9574e70354f6700d43fb78d2d74a05d3a7b25d0b5cd16a7e0600102620021e9565b8060ff168360400151830160ff1611156200d9d7576200d72f7f597e009babec2198b8fb6e057ce187221d0fce8d2df989ee6af50601b0794d46600102620021e9565b6200d75d7f6961a5cd3fbf3f221c23b06fce2f8c03a5a0699e444c3bb1d6e30ead8031b8d2600102620021e9565b6200d78b7f8ccc878bf9d982269fa37694a4ff183c7446c1e8265f9ff2511a714e59f34d8a600102620021e9565b600c836020015160ff161415156200d846576200d7cb7fb63b2007fab96a7f8f7bcd67a8e6209f3a8efd6d255d25d3c2d265a489d8c616600102620021e9565b6200d7f97f299e8cb5f707bdf46eb37fc86b1fe66ca486f6beb2e6a39d29526ac811687954600102620021e9565b6200d8277f4e3526a5ec0d2e2ef17b28b3f7760461efb7c77b5e3dd33f20cabd152109e619600102620021e9565b6001836020018181510191509060ff16908160ff16815250506200d95b565b6200d8747fbda5cdd89e443f8c167f2074cb4688f5d8a3f2b7d9e859c46347d960754330db600102620021e9565b6200d8a27f345c2c9cdd53c54cbe3edfc685d106face6af589b5ab00043fe3c1356e0d821c600102620021e9565b6200d8d07f6886b35900fd1cf66053283b81765768704b0f280e386ed95023149d8c32b763600102620021e9565b6001836000018181510191509061ffff16908161ffff16815250506200d9197fc82257c75446b8c65f5bcc626f18f0939ab33ff65a3c14da2a5623e5a053e9f3600102620021e9565b6200d9477f6fa94063b270e56af575007f5ca76d745f51fac3ad447ab1666fcdeab9604ed9600102620021e9565b6001836020019060ff16908160ff16815250505b6200d9897ff7dafe165a358cf339b6e6d4ab621ba1d958c3447939e7c0c2a125c0a1f2ce36600102620021e9565b6200d9b77ffb63bfece7fe46ba1648904756652835c0b7c283c004b3961e56bc9397ae768e600102620021e9565b808360400151830103836040019060ff16908160ff16815250506200da7a565b6200da057f37addd99122e5219ab0853ea21d2bb16772d9e2676a0e57a5160a33acf3ddf2a600102620021e9565b6200da337fa64edbafb6923bfbeea1b79e0e0495e0d8ec12b1d59eea08c98663de41db370e600102620021e9565b6200da617fa3571bc3c95b7ad0e1d25788496010aa99a5aa662f9009ff66287f75c43c0875600102620021e9565b82604001518201836040019060ff16908160ff16815250505b6200daa87ffa0cc2e526f71ec9e643cf9b66913b3b3d3db9be295e0473fb8a5581bd569273600102620021e9565b6200dad67f6b212456cf3c223f60a3b9baa512854625eb50105257f039da3ad0a1c75517e1600102620021e9565b603b60dd60019054906101000a900460ff1660ff1614156200dc15576200db207f1dc42d98ee31a0cca0fbc3396ec55aa52ba0ced40848fc660c278909f19f75ad600102620021e9565b6200db4e7f6b773ee8d48c2106f48f9133d52489f779cffa6376fe5390dc17399dda9f84bf600102620021e9565b6200db7c7f962d3342e5d109a8ef3fea38bc40c408b4160e40ebf4d076ef5b6e30f2be0cac600102620021e9565b600160dd60009054906101000a900460ff1601836060019060ff16908160ff16815250506200dbce7f69c65038951286b56563e73c06fc646d6a81ca63740333718b0b93568e3eaee8600102620021e9565b6200dbfc7f4401730427e0bfb946676d7db89eb51003b36e3cbfe4a86f912b9468064d3b5d600102620021e9565b6000836080019060ff16908160ff16815250506200dd41565b6200dc437f402c6890a1d6b644eb43eb24b3fbfa2b79dafc1655cab205fff6a54fe109c226600102620021e9565b6200dc717f4b59407c6e37dfc49370a0600e64a796da6ef9935da4843b749b693d284bc1dc600102620021e9565b6200dc9f7f6dbaac72e5931ffc0521e18f413f0560174ef699bf81d9669e6f9eab5e70752d600102620021e9565b60dd60009054906101000a900460ff16836060019060ff16908160ff16815250506200dcee7f8a597bfa422359afb7df4b20be57f0f3a7472a72657ffd0543122dfb91171371600102620021e9565b6200dd1c7fb15d6a0ce916fda79dc96183431d470a90e4c6e1b85b78083a6c4cfa8e8f34ef600102620021e9565b600160dd60019054906101000a900460ff1601836080019060ff16908160ff16815250505b6200dd6f7fece50ea5963433263fa32d9703f6573c3f912ad680c4dfe29f992b69ad42b59b600102620021e9565b6200dd9d7ff10d90047a04633f36e67fe16e2c916c5446ee5eb946f50eba90d92b09b20258600102620021e9565b60008360a0019060ff16908160ff16815250506200ddde7fc94dad16fdf5e0f678371132eb140bd47cdb3b925e684c24eaaf282fa6460508600102620021e9565b6200de0c7fb64d30a2732f86a7fadb7a5ef2b2f4f78625b296d266813d7fd676605077cb40600102620021e9565b73__$05084330c9bf728fdd5577c5afe72a471f$__630a37f14b846000015185602001518660400151876060015188608001518960a001516040518763ffffffff167c0100000000000000000000000000000000000000000000000000000000028152600401808761ffff1661ffff1681526020018660ff1660ff1681526020018560ff1660ff1681526020018460ff1660ff1681526020018360ff1660ff1681526020018260ff1660ff168152602001965050505050505060206040518083038186803b1580156200dede57600080fd5b505af41580156200def3573d6000803e3d6000fd5b505050506040513d60208110156200df0a57600080fd5b81019080805190602001909291905050509350505050919050565b60006200df557f6c7fc01b48bd284ce0b708c4bb14c0d3ef0955adf8f22f727b72044b96d59440600102620021e9565b6200df837f6a37003f399b3b8ef4dc441edc721a30f889c4fb9c4cbbb411ae1d88df987215600102620021e9565b6200dfb17f45641ea4c00559d21e8cdd2ed7525771e18a1aeacc30943b2506118eae0ab954600102620021e9565b600060e2600086815260200190815260200160002060008773ffffffffffffffffffffffffffffffffffffffff1673ffffffffffffffffffffffffffffffffffffffff1681526020019081526020016000208054905011156200eb2f576200e03c7f3e03a58b2484027ab7b8b05310478a420c2720e93ea7d5c30abfa77b1113b837600102620021e9565b6200e06a7f5610aad962748451d4f25aded5abd4545aefbdf10ff310b6d2bf9eb0121dfec0600102620021e9565b6200e0987f0a21e934f356f99579396bfb18e15bdd9ee136e2bdb0c1588f7ac2d546fe3400600102620021e9565b60006200e0c87fc6267d462683b71d4858e3ab60fa8ace6c774ae5e50c1d96e7288d2e25548449600102620021e9565b6200e0f67f9933d74d097aff5df0d107d697a6911d45cc5277246ed94c4d6d83e1050cf70d600102620021e9565b60008090505b60e2600087815260200190815260200160002060008873ffffffffffffffffffffffffffffffffffffffff1673ffffffffffffffffffffffffffffffffffffffff168152602001908152602001600020805490508110156200e759576200e1867f5475417452ad8c3e75fcd672ba0b0f3721d7d82c4c566c6d66b92c45d227dc54600102620021e9565b6200e1b47f5951fe4093bbbc465837b768a2390c8a9fbcb98c3b6805420845158ea62870cd600102620021e9565b60df600060e2600089815260200190815260200160002060008a73ffffffffffffffffffffffffffffffffffffffff1673ffffffffffffffffffffffffffffffffffffffff168152602001908152602001600020838154811015156200e21657fe5b9060005260206000209060029182820401919006600c029054906101000a90046bffffffffffffffffffffffff166bffffffffffffffffffffffff1681526020019081526020016000206001015460df600060e260008a815260200190815260200160002060008b73ffffffffffffffffffffffffffffffffffffffff1673ffffffffffffffffffffffffffffffffffffffff168152602001908152602001600020848154811015156200e2c657fe5b9060005260206000209060029182820401919006600c029054906101000a90046bffffffffffffffffffffffff166bffffffffffffffffffffffff168152602001908152602001600020600201540391506200e3457f2c92c6449cfade96ebc3008b98864af7fe05e77faedb12b95eb18ca6d2390aed600102620021e9565b6200e3737fa24e08921b6c19c081a279f7fd80a189e7ddfdbc3dde71f091c006e1e40d5e89600102620021e9565b818411156200e5d0576200e3aa7fb9706918c83c962b761f65db4348f28a1aaa5344e33ce0c8a8dbad711fe30307600102620021e9565b6200e3d87fb7dbeff4a59c271b7ce0e0f67340b40771e439922a468388c671ac42eb370d83600102620021e9565b6200e4067fb4180a0cc81b1ba340fab952368844081afdafd580cf128a21e27c3f5809c336600102620021e9565b81840393506200e4397fb2b98fae8a7bade14ba8d9eaa64606b9ab04a73ffad5ddf1f553ba02e96fb12a600102620021e9565b6200e4677ff5153cdbe8366d96a58b2151ccacdc80510685a5e0f2f031a257580bf654f74a600102620021e9565b60df600060e2600089815260200190815260200160002060008a73ffffffffffffffffffffffffffffffffffffffff1673ffffffffffffffffffffffffffffffffffffffff168152602001908152602001600020838154811015156200e4c957fe5b9060005260206000209060029182820401919006600c029054906101000a90046bffffffffffffffffffffffff166bffffffffffffffffffffffff1681526020019081526020016000206001015460df600060e260008a815260200190815260200160002060008b73ffffffffffffffffffffffffffffffffffffffff1673ffffffffffffffffffffffffffffffffffffffff168152602001908152602001600020848154811015156200e57957fe5b9060005260206000209060029182820401919006600c029054906101000a90046bffffffffffffffffffffffff166bffffffffffffffffffffffff168152602001908152602001600020600201819055506200e74b565b6200e5fe7fb415912d3fea91b5f4c17ee3a8ac7667da4901e870c5dfb509e141d8342dd6d3600102620021e9565b6200e62c7fd3fafa6762968c1bc7df1988142b74a15252d3b157ba4c57dfa893d812e668c8600102620021e9565b6200e65a7f97367abec8482e9e3592b8ef912f0e5b6d9fbe32ef94d8edfa4adf37aad37efa600102620021e9565b8360df600060e260008a815260200190815260200160002060008b73ffffffffffffffffffffffffffffffffffffffff1673ffffffffffffffffffffffffffffffffffffffff168152602001908152602001600020848154811015156200e6bd57fe5b9060005260206000209060029182820401919006600c029054906101000a90046bffffffffffffffffffffffff166bffffffffffffffffffffffff168152602001908152602001600020600201600082825403925050819055506200e7457f5de32c9473ec55f83bf246d78f12fd508ebbac96154f5362de89998f6df41abf600102620021e9565b6200e759565b80806001019150506200e0fc565b506200e7887fab6fd99882dc99305c9e7aa3df4bc3415d6278b1209971241c7d679570c5932a600102620021e9565b6200e7b67ff9c6b849998a785aa1b465d2b5bf81a3bc769b62f790010dd5be5685906f1664600102620021e9565b60e3600086815260200190815260200160002060008773ffffffffffffffffffffffffffffffffffffffff1673ffffffffffffffffffffffffffffffffffffffff168152602001908152602001600020548411156200e9c2576200e83d7f656925be81ad07f711fb2853f2d96882edd15b630070f5c55b9dfddd111def18600102620021e9565b6200e86b7f3bd8fdbe6606aebfa1a5081203b96bad66837cb3a411f1c5e80eada525d9dcd7600102620021e9565b6200e8997fdb123ab0412f314d23ae0d9f90f89f2e10a6e41033d4eeb7606482be127dd0d8600102620021e9565b600060e3600087815260200190815260200160002060008873ffffffffffffffffffffffffffffffffffffffff1673ffffffffffffffffffffffffffffffffffffffff168152602001908152602001600020819055506200e91d7f9f5fe2723276cdcdef377295aec0c8c49e37e9e7bbb68690a4aa2dbebb6cafd7600102620021e9565b6200e94b7f3f5f81676e5f5ee30fcde939ff01b915edc3ea103aa9d270ffb09a2b7784a3be600102620021e9565b60e3600086815260200190815260200160002060008773ffffffffffffffffffffffffffffffffffffffff1673ffffffffffffffffffffffffffffffffffffffff1681526020019081526020016000205460e66000878152602001908152602001600020600082825403925050819055506200eb28565b6200e9f07fc47483b50fffcdbc077fcfb6da84b9b011b79f95d813fbc6529d027f58dfa5d0600102620021e9565b6200ea1e7fcbfc3d9075fed53ed752549af9f9c792cd822a108e157857ad73c097403e2499600102620021e9565b6200ea4c7f11957a4468cda2850e8275efbbcafec715df25669241cca53d605f7ca52bd238600102620021e9565b8360e3600087815260200190815260200160002060008873ffffffffffffffffffffffffffffffffffffffff1673ffffffffffffffffffffffffffffffffffffffff168152602001908152602001600020600082825403925050819055506200ead87f6d94e0b2ed13a9c52db7bddd9bbd1c479a4ffd01ade8bded8f11991eee5b5465600102620021e9565b6200eb067fdede6b286c1629a1780a72f861df93564d8c27f9a5decd928f33b7c1282c0e05600102620021e9565b8360e66000878152602001908152602001600020600082825403925050819055505b506200eb5e565b6200eb5d7f3155d3f0fbcdb604e7ed1c06c1a6985d70c5b46a107c68f130b32bf58b18d40a600102620021e9565b5b6200eb8c7f40a8e73bbcb01d47b5671c52a9b29a286fe71eab24c4e624650536ff64513458600102620021e9565b6200ebba7f38ff2d211281870e6fb6c4b4f1680b0a20528644ce5b213aae44cdff98eee966600102620021e9565b60019050949350505050565b60006200ebf67f1e389c3a59451a90cc38a462ab78e585703d049faa682b547afe962dd782d9fb6001026200ee0d565b6200ec247f91294d2a3cd14ca48c2829d94278cbbc8da604b303f69291b78cc7a96433fb6b6001026200ee0d565b6200ec527fed54bc75583d419ab275e8111912b68693321933fc327bb4bcf80928ad8b8b496001026200ee0d565b6200ec7a836000018373ffffffffffffffffffffffffffffffffffffffff1660010262010287565b905092915050565b60006200ecb27f3daffd0a9dce28b482d01a551215671bf4393bb2c14e29701cf4960e2f2b12926001026200ee0d565b6200ece07f40aa26a0e9be8d065cf56c5a97ee7ecf2d6f7f27a85e81ebb85bf92a3fb598c86001026200ee0d565b6200ed0e7fe7416d2a3843e619b1224850d86b591b72a1e287cf0e1b4b38a8e263ea5326976001026200ee0d565b6200ed36836000018373ffffffffffffffffffffffffffffffffffffffff1660010262010556565b905092915050565b6000808311829015156200edf0576040517f08c379a00000000000000000000000000000000000000000000000000000000081526004018080602001828103825283818151815260200191508051906020019080838360005b838110156200edb45780820151818401526020810190506200ed97565b50505050905090810190601f1680156200ede25780820380516001836020036101000a031916815260200191505b509250505060405180910390fd5b50600083858115156200edff57fe5b049050809150509392505050565b50565b60006200ee407ff852b790830032d89971e2c521d42063f93f9915f774b150a71f19bed01505fa6001026200ee0d565b6200ee6e7f02a432993c4332c426e42b943b3b019f4f8176664138a13b7aefd4766c8779426001026200ee0d565b6200ee9c7f4106100c6ddc9e9685bfafb2331061f66fe0bdf557d61e86d3a9e77f415df1c06001026200ee0d565b6200eeca7f74042fd2ce01d2d4e5b83168db3daaa0ada16dcc55033ff01c774f8d3b09d26b6001026200ee0d565b8183600001805490501115156200ef6f576040517f08c379a00000000000000000000000000000000000000000000000000000000081526004018080602001828103825260228152602001807f456e756d657261626c655365743a20696e646578206f7574206f6620626f756e81526020017f647300000000000000000000000000000000000000000000000000000000000081525060400191505060405180910390fd5b6200ef9d7ff5b89a497746cc14694c9f1ed1aeaef6a21f81b1a91b334ac822cb679c327c546001026200ee0d565b6200efcb7f3d2a328b4224524dd5bf276581f8c7e30b93161a3146a223de54a8178318570d6001026200ee0d565b6200eff97fa53b31889d5006b4901ceb793559ba11b86794ec37414fd5e2572de69058b50b6001026200ee0d565b82600001828154811015156200f00b57fe5b9060005260206000200154905092915050565b60006200f04e7f0210cac0db58119dced257e99daceaaac77667d292149865bf117b7ca9eb4bce6001026200ee0d565b6200f07c7fbb32f6a0da519ded942950a6895a2c4b30863d395a47575812ea09df9c76aeef6001026200ee0d565b6200f0aa7f2d7ec9f89494f43c00f58c9ac42d6c4126f5ad30efc6a67b48204435b90bdbe16001026200ee0d565b6000836001016000848152602001908152602001600020541415905092915050565b6200f0fa7fedea06ed59008997c5743a16db8568bab5dd9f9c34ed04b0f769daf451feb479600102620037e7565b6200f1287fef1f4435b8ae57ba06f31930b3fb8c9cc004c60b2991c9854f356fda1be49d1b600102620037e7565b6200f1557e8e26e72734111ca057d72127912f0212f88739a7285da44b27658c44d821cd600102620037e7565b8060336000848152602001908152602001600020600201819055505050565b6200f1a27f811d9b367083ade010308c3df46e6c1a758d0a4e066263174dfb6043b644e173600102620037e7565b6200f1d07fdb6ee36fa74bfce73b4d7febf4feaf4bdebc1210aab6f5b8693bd4a1f8853a26600102620037e7565b6200f1fe7f85d239db3b4d1b9cced29486f7c80ccb652aafd8e8eae3f7452473f2cc89b51a600102620037e7565b6200f20a828262008522565b5050565b6200f23c7f7e529621f6492303071346598b2c2ab4383f67827f174c4fc45f55a7486fbb2060010262010a9c565b6200f26a7f3ace7cb34156435273cfaca2e8be94d1c855160569772711a5181bff3e7d870960010262010a9c565b80600001600081819054906101000a900466ffffffffffffff168092919060010191906101000a81548166ffffffffffffff021916908366ffffffffffffff1602179055505050565b60006200f2e37f808fe5bd45f46ab8ff1cb9aa9c9a30377ea23be0941c4795446d41d254aae5c46001026200ee0d565b6200f3117f556bfe46c39f16f279635b09a7f3e6cb0df504be781b0931db8a40bab702a7976001026200ee0d565b6200f33f7f5852ae1c75c424755782c3fdffd26401e1354b9b177513f37690d594b1ebc8ac6001026200ee0d565b81600001805490509050919050565b6200f37c7fd1c72c9bdc3ca9a4257e4ddf645a869b391e970ffd9bff34df0d0528a3ac4123600102620063d6565b6200f3aa7f8f4f7dba546226f7539a16ab9066c75e7e81e9673b6f68728d46fe1f3a61887c600102620063d6565b6200f3d87fcd170f4119e3aca60e7724267684566dd2041c7d5aa444acd028429d3f748feb600102620063d6565b6200f4067f6a63989ee14a10486b835350903bf45415c808a528500885e6619c5399aefc42600102620063d6565b60995481101580156200f43157506098546200f42e60a5548362008c9b90919063ffffffff16565b11155b15156200f518576040517f08c379a00000000000000000000000000000000000000000000000000000000081526004018080602001828103825260618152602001807f476c757761636f696e536176696e673a20746865206465706f736974206d757381526020017f74206265203e3d206d696e206465706f73697420262063616e6e6f74206d616b81526020017f652074686520746f74616c2062616c616e6365203e207468652062756467657481526020017f2e0000000000000000000000000000000000000000000000000000000000000081525060800191505060405180910390fd5b6200f5467f90cf296771fd961654f91d9695f3942bb368f3b2cfa1c69ea5c14349e4e93dad600102620063d6565b50565b6200f5777fbcaebb551cb10307d679206507663caa4acbba9b1b0353b620af65584aa4ab0160010262010a9f565b6200f5a57fb8323b93377b581c7c9273470d53db6e200bf56d99657b15faf5e75bdb3a657260010262010a9f565b6200f5d37fd92758d4ee4f58f25dc81e5be4b43b107c89734475cef12b6b66d6acaf18d52260010262010a9f565b8082600001600084600201548152602001908152602001600020819055506200f61f7f94dab526c4ba7bc55388dd3395376d48cd4eb32ab536ae2b4f6aae6ef9b4c8be60010262010a9f565b81600201600081548092919060010191905055506200f6617fd5f8dffb3859ad22d5ac650aa7d815132960535083211d846becb96b4481c6b260010262010a9f565b81600301600081548092919060010191905055505050565b60006200f6a97ffdd89320185995bfc90bd2f435a9e7d12cff2e212aae18da6f0c108a2fefca4f600102620021e9565b6200f6d77fdbc8a71c599f71825cdc422cf59f398f8a51348d18be2d4257eab9c208d7587b600102620021e9565b6200f7057fc5b503a3cde8ae5bf7e248fa24ec9a90f4b2c81090d36d4d2aca1fbc4bc22b92600102620021e9565b6200f71d856200f715866200d2dd565b85856200a016565b9050949350505050565b60006200f7577fa303f98cc6ce1685bf6e989f8a0f8f49483b345121b408ad42b01dd5afb23213600102620021e9565b6200f7857f26467551d1eb7046f688248f652d228c1bf6806be3899b7f4e90791b2a6d1a70600102620021e9565b6200f7b37f11d8ce75fe5c00ee2f34c37514086193c9a3600f53beb978aa57bb82141627cc600102620021e9565b6000846001868603014285434042448a8c6040516020018088815260200187805190602001908083835b6020831015156200f80457805182526020820191506020810190506020830392506200f7dd565b6001836020036101000a03801982511681845116808217855250505050505090500186815260200185815260200184815260200183815260200182815260200197505050505050505060405160208183030381529060405280519060200120600190048115156200f87157fe5b060190506200f8a37fdae38433414487548a7bda5d73b7548dbd3ad7cd576556c1d1a83b89af7f04b8600102620021e9565b6200f8d17f1a7558312e1162d125dc230586cf1dd39edfac64ccc12c9ea8747bb6ba6c7342600102620021e9565b809150509392505050565b6200f8e662011786565b6200f9147fbeb1c88f1ae596c518fecdf2969afbcd18309ab1ba07bdd0515795aa5e5d7bca60010262010aa2565b6200f9427f8207724107452dc74ed129d680b010da484b3250915c6b3b80e39fbd0746732560010262010aa2565b6200f9707fcee2cb85dacdafd19ff63bbcbd543c631167b6f5b3a5530da0121fdae154ad7360010262010aa2565b6200f97b8262010aa5565b816000019061ffff16908161ffff16815250506200f9bc7fa76698c6a56b758a87fc1e9813a5cb387256044cb14c2afadf111db4c9fc0ca660010262010aa2565b6200f9ea7f410af78408da8ec31182f9ecd5b8ea2bbb7197ea2216d3259075870623b707ec60010262010aa2565b60006200f9fd6107b261ffff1662010f1a565b6200fa10836000015161ffff1662010f1a565b0361ffff1690506200fa457f6a01c63fd740b45b38ba38232e43a51e3a35dcf9de0d19fe4b8bfa26b140fa7060010262010aa2565b6200fa737fa189d66169d98e4af2300e21fdad4e0cc9ef8d463eb772d04fc5c981301d755d60010262010aa2565b6000816301e2850002826107b285600001510361ffff16036301e13380020190506200fac27f65c3cf497d2e456bc55bea799cb8dc0d51a2bab00d432c198f7f3f3b0405928960010262010aa2565b6200faf07f6a67a4fb3b94133a63de1451dcd85e5c5cda55768ec0988438d9e929ada6a21760010262010aa2565b60006200fb207f9522db35201a625d03047e0a83e405abaf708c2f21c844b40412aab518f9212660010262010aa2565b6200fb4e7fb6f1e4f1ee721eef05777a511afc53d357b3ae4fa3d5ff1f17674b0c1ec0757160010262010aa2565b60006200fb7e7f4bc272dac49c832dcb7fb4035ab3b3f110a9f43623381a480a7246bc0bf718f660010262010aa2565b6200fbac7f75fed6daba885d0578445ab7b7a66b57b2282cfc36ec37c07ee2794172677fb560010262010aa2565b60006200fbdc7fb6f7287c6473a50e1b38b41f83e2246d4e8d12b888c2946ca04ed94d67b8ff6560010262010aa2565b6200fc0a7fe82fa837660b9fe78ef08c9641a9b9a03fdf575d220322c04f0291003060741460010262010aa2565b600190505b600c8160ff161115156200feca576200fc4b7ff9f7984bfed3c0802cbc69cbea94f0d61a4713b938ef0b6c9636ce0a2b99027b60010262010aa2565b6200fc797f806c13d853d4c035d109dc0270a6db1c75bb1568248619867fa569f4f48105e360010262010aa2565b6200fc8d81876000015161ffff166201103c565b91506200fcbd7fc099bb14d589016a9243cb70c21e09a5618fd9bc114078866329a6321a0008d760010262010aa2565b6200fceb7fa8c153fbff1e26f9d2c92821d7f6f66b060a48f93beb3714c37b0b54e0c9c30860010262010aa2565b8160ff16620151800292506200fd247f3fbd1670a45e3319798a4ccb23b60ed01d05e0eee1957336f68b71104e75fc0360010262010aa2565b6200fd527f9ffe33813370748665e6754a45c7b9a2c8a54ff021bf53c80ae4a141841e704c60010262010aa2565b8684840111156200fe2d576200fd8b7ff05dc18d17043d62fc1e765561be51de7e18c1c3277872abdcb32fad0cb6632b60010262010aa2565b6200fdb97f7c233dad1f6a192553947a6d7ed76b62b4f60d9a4c56eeb17f871d055bb4542f60010262010aa2565b6200fde77fe24e95afe2b1b86be04e04f8936c3d0b17b7e70bddd237271db5c52fbf84e3b760010262010aa2565b80866020019060ff16908160ff16815250506200fe277fe86a405280771711451be0b334aa76ce095a3ff4971daee704b0207c035f9bf660010262010aa2565b6200feca565b6200fe5b7f123af6654288920957bed7acbd33b8c89704966fa0a4ab95492c96874c98b84460010262010aa2565b6200fe897ff82784811d350e107c487ed23190e7f92019191e729a1b53249be70b34fcf9e260010262010aa2565b6200feb77fc16afb265ab91b6c1205c88dcc624bf2874ee09e9b66e1a0ba241871fb4d412660010262010aa2565b828401935080806001019150506200fc0f565b6200fef87f3188a408f43491dd6c23e72f71657348f6e51fb478d0afdba7f562b408e26dfe60010262010aa2565b6200ff267f2a6cdafdb8911e44434b68183eab43752f32c4d2b08120dcb06db38f724dc93460010262010aa2565b600190505b8160ff168160ff1611151562010115576200ff697f572ea494e893c2dd97e26de0a8cfc31f887d291a8823fb9ec8758a569640103b60010262010aa2565b6200ff977f7e2c8734b00f104076ef6a23c664fb3f90888db583e8096e4cc5c8852d3fd66960010262010aa2565b86846201518001111562010075576200ffd37ffeab6427bf51e972eda648d3eb6d482ad5850bcc5655fc88271ec789e10460d360010262010aa2565b620100017f46244ec7fa678ed3f30faf4a9033444dc3168e60b98cd680f8dbcaffcd26bf4760010262010aa2565b6201002f7f256c99a2fc0f0a860a4330f973fd96bd84da087798a86b746f8d2d86151676bd60010262010aa2565b80866040019060ff16908160ff16815250506201006f7f5f21e22de5f3f92f2c1d283827b94b347e1098b87b2d012bb7175fdc2668f0f860010262010aa2565b62010115565b620100a37f50b662ecbc0a369719a389b0d7b8656be8db9487ba4bdb484ee14c780dcf91fd60010262010aa2565b620100d17f6a5ea1c27edf78adb18ffe7c502c3ea753abac5ada22f584f0ce3774e2ae352560010262010aa2565b620100ff7fc9052f7d8f77e1d46e13e88e424686638bea10f2142d0c4ce704c382af84e26160010262010aa2565b620151808401935080806001019150506200ff2b565b620101437f7e1f5d91663ead1864ef52ec5cb592444ad33cd66493bd7e97cc4b028bfebbe260010262010aa2565b620101717fb6ac75779ebd95d710ba8ff863f971e2cbb727099fdac0de6671db3d99e284a660010262010aa2565b6201017c8762011429565b866060019060ff16908160ff1681525050620101bb7f57059e354f5d8f83342699811e06f3932046bb0898077b7bb58911cf5e78759260010262010aa2565b620101e97f509e1093fcae8976f27b921fd34f5a734984bab933b349bf6f169910c0f60dd660010262010aa2565b620101f487620114d8565b866080019060ff16908160ff1681525050620102337f2396debca5be8803b6ba608c2cd07c3901e31868d93e1d75269f5bc9ea1ff33160010262010aa2565b620102617f496897ebded4144c69dd0c31e326ce1cd614da28d571d4f7875b5da9ff820b3c60010262010aa2565b6201026c8762011585565b8660a0019060ff16908160ff16815250505050505050919050565b6000620102b77f411725b9e6b16644ba52449ec4d36b92dea2b1bd54b0f03c783a20b7890d00eb6001026200ee0d565b620102e57f9bd634b5b92fd3e06f26a52ec2939a4a0a84952a011ea5514bc62a4c5373a55c6001026200ee0d565b620103137fea4ca516a6106cab84a6a4e89be0f7002b5d6eb029ffab4c054b7ee765fc3c2e6001026200ee0d565b6201031f83836200f01e565b1515620104c157620103547fb46577be114288cc2048caa1c7c40b09dc718696d9a09f0499a1547eb16451a96001026200ee0d565b620103827f699f127f4fce6e368acc157cac121779c534d2aa962d0533bfdaaae1d69ca05f6001026200ee0d565b620103b07f521bb0fe62e6b7fd3853af763e653963a8408ffb348ef253e2d2f6e4ce4cd2216001026200ee0d565b826000018290806001815401808255809150509060018203906000526020600020016000909192909190915055506201040c7f9b482a5f51b8ea016ff5ab73974f6b85a6fd2a1eb01a8ee81de32df7a2a8da356001026200ee0d565b6201043a7fce3c0267f6afecccc16fb1df160b30bad8dd9e6470f2c250c65f5d16f55953836001026200ee0d565b826000018054905083600101600084815260200190815260200160002081905550620104897f1428e26d804ec500abd0e9390b2940e16e23c588838979a643dc197ecc45d3146001026200ee0d565b620104b77f0b321acd305614c64bd3b03df9b54fda13512f699793d352dda406f5377d654a6001026200ee0d565b6001905062010550565b620104ef7f7a5ecc9f91718277f21ffe36d4008cfb52c45cb4a3d02c8d3ad7b368266b527d6001026200ee0d565b6201051d7f594e731be2305a9bbd344870cf0633f896cf7c8a552149ac8c3887f5939fa2cc6001026200ee0d565b6201054b7fce845126564f88320d57ac15815dc9da8f604bbea797690ee5dd29256f4490ef6001026200ee0d565b600090505b92915050565b6000620105867f8de4d4b62709fb9aa3764ecad70f3f67ded177953e8d0b3fa69eb7270f7a72b86001026200ee0d565b620105b47feef1a22ab497f0a0b5773c261963d43f0abced69475a8f361c4c09940a2e0f116001026200ee0d565b620105e27fd3ffd1de8410e1a5342524eadcc24cec3d13da46f520a8ff3842159d8ac513816001026200ee0d565b60008360010160008481526020019081526020016000205490506201062a7fd29f0954420e0dacdaf662725b7670ca376b5ecb1467eea88f3ed07b3cef9b2b6001026200ee0d565b620106587f416543475b2a4ac207e92b54c5a89b0283eb8a6898f17e8a422c8a2b3bdfe4dd6001026200ee0d565b60008114151562010a0657620106917f53e6da82d3cb4b8c67410d9eef4d4d2578dc84336caa8505c50feddb82e7c74e6001026200ee0d565b620106bf7f9985aa50040fc25f597dd3c0a0ef9e1794881ab1e07bd05e1686a5c7731277186001026200ee0d565b620106ed7f924e66bc6d3998d3584ee5dec8380db18c7801386c9813e9c519c714f9cf05b46001026200ee0d565b6000600182039050620107237f0464100dfed97956c95ac0853f67804ec637520949c0ddf43963e7218712c4ee6001026200ee0d565b620107517f31239a0e5e1877005aeaa2cf67ecd4f26333ff91ac415b7b58467f96b928e4706001026200ee0d565b6000600186600001805490500390506201078e7f0e8690e5eba3bc911cbe19ecc595ae9d5a7041f8b723ff9c12a4707e72d1d7096001026200ee0d565b620107bc7f187fa4fe781f8142b1e1da8868034ad381d767259bb390adb2ffa112cc52f2726001026200ee0d565b60008660000182815481101515620107d057fe5b906000526020600020015490506201080b7f9edf3971b67091da233f4cee6fc830f48fc8dae83e1acedbee273f8618720ca86001026200ee0d565b620108397faa77a760e845cf44dffa170ad08e7782cf1bbc412ad237c88b0c772676e915086001026200ee0d565b8087600001848154811015156201084c57fe5b9060005260206000200181905550620108887f91a387f2c534fe2d9593060ddb58e0e80cbd7962a699db2183f7fd9ac7bf071e6001026200ee0d565b620108b67f5273e3157ed309e995284bc9a0977b5e190f596e6d0a7d6a98f63c6c2e9d2cf56001026200ee0d565b6001830187600101600083815260200190815260200160002081905550620109017f6d6ed45f9faffdfa6efb315d613b5cf6f6203c948a1d42a6be8e892393847bf56001026200ee0d565b6201092f7f9c908650b18c4d06afe6e22d13e282f9f484d9b002a6121d345881d9d8d830926001026200ee0d565b8660000180548015156201093f57fe5b60019003818190600052602060002001600090559055620109837fd1882d1c724fb038c1a118718cfe41c240fcbb742f29604cb573449c428371b76001026200ee0d565b86600101600087815260200190815260200160002060009055620109ca7fc7f15540aa2b0ce236d481f7560d15ffafee2f2e30cac9beab7e15a266dfe9a76001026200ee0d565b620109f87fd59aa80060ea20a1bee9535659b672619a59eb9abf365dafefcb942c2613c7f26001026200ee0d565b600194505050505062010a96565b62010a347f510cdbe5cda3c6cfdb8e3b071d5f7c35ea460dd72c7be1c916a1934f864dea146001026200ee0d565b62010a627f69556792cf99684702e25e6dffc56bf298f3be73f828931c796488097d672b3c6001026200ee0d565b62010a907fe7dbbe65769452c853cae620146590604b6b716ac01fb8b203f1ba9fc91fc2246001026200ee0d565b60009150505b92915050565b50565b50565b50565b600062010ad57fb12ad78b1876d14abaa37416671bd07bed080a6ce64b371bdfd7e2d69d89da6e60010262010aa2565b62010b037f6c06717daf4584869deb27237b0c27fb71b4bf54141f6fb6817c9a7083688aba60010262010aa2565b62010b317ff007e8ce052e12f2d9bf15fe86b6823999a3c41af914f5f26d038a66674422af60010262010aa2565b60006301e133808381151562010b4357fe5b046107b261ffff1601905062010b7c7f9f24d204f8e8b55dda232ace5da3fe70f2008525f5cb8e874eb1ea6a4fe7e88260010262010aa2565b62010baa7fa8f5f468d40e0ee31e441b11ee194e32890c772b4f58e9af8b5b41d398fe187260010262010aa2565b600062010bbd6107b261ffff1662010f1a565b62010bc88362010f1a565b0361ffff16905062010bfd7f66affc12d63b8855820aa906e9a4b08c2feb4edb8a116a91f556979f3ab99ced60010262010aa2565b62010c2b7f3bb09d0037b739d50b6349daabc35de9ddb93a013c8fcbff0af23e099adcbb0460010262010aa2565b6000816301e2850002826107b261ffff168503036301e133800201905062010c767f3831d2f46af76e575f65fd9ebffccfe8f17e118a92c6265ff792c3fdcb555a7960010262010aa2565b62010ca47f3e93a3758d1da71b45b1a9fc01c8011db23a18c98a24061d6e3aa8602da8247e60010262010aa2565b5b8481111562010eb35762010cdc7f603f8c0b01d48857d77b539a8e655e56c07b3c48fd7e9ec719459cc8f2dd36cc60010262010aa2565b62010d0a7f6e46492d3df9309fcb22ad59e97be4a0b069b31f67d27fb48f6a34363dfa162b60010262010aa2565b62010d186001840362011626565b1562010db75762010d4c7ff155b17cc897643b41df67d3561cc347f9bef4a466b3df72a02f1d326f96e3ec60010262010aa2565b62010d7a7fbcd6f205b1d394b650b54511aca8b4e9d42ae52409dfae8b84bf10b3ce084a0460010262010aa2565b62010da87fe0d2cb0b4b54776f7c09b0b36f7ff6de0e2f4385a9cf7c33799b791b5dda635060010262010aa2565b6301e285008103905062010e4b565b62010de57f1e9259b08c5dc9653126ea6fce79b6f72e0dd454c90c0cbf400d543ae59f7adf60010262010aa2565b62010e137f94c55045a4ec3af02cec0a1fb9ea26f4ebd96e1d9fb84bc225c402e0a603af6060010262010aa2565b62010e417fd162d092a0721c0063aa29dd083713e6957b2c87c7b44a0a8ff66cb07fdf303b60010262010aa2565b6301e13380810390505b62010e797fcbae63fa06e6039f9c7f4ebaede7eb6aacf5468defd4888d5e8445c1bc9cca5b60010262010aa2565b62010ea77f5144054db1d58dbe626c516d675ab9e9455e65461e6162f87854014dfb8b021760010262010aa2565b60018303925062010ca5565b62010ee17fce34780398d4a6d72cbbbb4d13a62cda7954f54ab95b8b90f1810060679b4e8360010262010aa2565b62010f0f7f51e4d4712bf2ea774012502a24a8ba7762dd3d4d2b7ae816b41d57aa64e07d5160010262010aa2565b829350505050919050565b600062010f4a7f8fd1d551816c5ce457c6fcb88fe17cfef05bd0ff60b2f921fe4ae5168cbe2e6b60010262010aa2565b62010f787fbed93439f285e4f9ccd9a830a4b1df97cf1548246074aba6d87013d06321877660010262010aa2565b62010fa67fd9f53f917a8b8e0eee460e30756ef4eaff78b0a3b90b4b451feb9e1863390ada60010262010aa2565b60018203915062010fda7fe952482a9f34e37dcdb0077c226887bf334f24027405859080e4bc049d8b9a9660010262010aa2565b620110087f6f95896d861a1cf4ef23bc40c92abfbca3affb80257f517f2c007562da81a80260010262010aa2565b6064828115156201101557fe5b04610190838115156201102457fe5b046004848115156201103257fe5b0401039050919050565b60006201106c7f966599230b2efe1217cf9a88ea1a477ee4707204861232319b6c946d000d830860010262010aa2565b6201109a7f6b283944c5f6af131447249ba3ee43ff2718d04e712b34fd445d2f93045ed4d960010262010aa2565b620110c87faf744b6260b93deb033e632509d37e335b0846c424a549984680a439b124952a60010262010aa2565b60028360ff1614156201126a57620111037fbbc6e5f05e60723a2fd98775070cdb71d4d05117e72768fc24d09ceb3b54ceee60010262010aa2565b620111317fbd8714a14ded21c1f0ef248834bf451f5f001d2e258588d47f591017749d7cde60010262010aa2565b6201115f7f7ff2a0a65e08d801c71d32e5fa6d21c7c14daa7b9b52e6911951e61d2dee5ece60010262010aa2565b6201116a8262011626565b15620111d6576201119e7fc400fa2f19d96d670b5cd553118c3dcc839d1ca01643f3f2aadbb964e66cd58260010262010aa2565b620111cc7fb4c0a2f66d83d32038e7162b3ad28e2705331fb983cfb3cb064b37501889ea5360010262010aa2565b601d905062011423565b620112047fc5100a56dce49bf964aa99b54f102a3f0a3f6a803d69972b999aee261a9a86da60010262010aa2565b620112327f3940530a99f4099b8f4d07dc32f531b54295567a330c81801a6ef5040028a23c60010262010aa2565b620112607f69bd8442c820eb767dab3ea1cbde489b75622373364717d027596fcb6b43393760010262010aa2565b601c905062011423565b620112987fc1cde02925920c3dd289f9c937a9ce3ae53fce4f82996d43e6461729014076d660010262010aa2565b620112c67f9b897a64bbfff882530d264b969ff02abff2819b3ebd5a7d0ee1d9f5d1a0b19360010262010aa2565b60048360ff161480620112dc575060068360ff16145b80620112eb575060098360ff16145b80620112fa5750600b8360ff16145b1562011394576201132e7f1bc45735d4e64373353e1d3b278bd6c7cdd83cf891971c65ff92433c8a9f078560010262010aa2565b6201135c7fd907228da083e86c4a94974b84b50f80ed66b5dfb58276fcb209c6cfe56df5b260010262010aa2565b6201138a7fb1cb616ec0506f2ecfd084b6e3b54e8a6d2d1bc23112f172081f64ad47bd978e60010262010aa2565b601e905062011423565b620113c27fc53b73c047fd53baa01f9f93b941aeb2fed3930f8ccacde5e4b031f6d034a97a60010262010aa2565b620113f07f44ffb8ba1c424d23b5cf0490a0229b72ced587f226aeb184b14de4140a724b0860010262010aa2565b6201141e7f504a8ec7857f77f0f05b9e1fa4ba5073fb694e2771756c23a9c9532dade4d4f860010262010aa2565b601f90505b92915050565b6000620114597f903e5899356adf169cc3d09a553e3b95613b37b8b2c8192fcec99a21cf72b5fc60010262010aa2565b620114877fe5b363119b7f9ef45484423cb8ff0353b064ab8ff3ed4ef958fb4e841ec7aa1b60010262010aa2565b620114b57fbb3a674b09336dbb76a30f85820f5fc5fea400803f83148dd166d65b077761e460010262010aa2565b6018610e1083811515620114c557fe5b04811515620114d057fe5b069050919050565b6000620115087f251fb80cc25a2f96ff3c65f2ee513e802271dfa26e68bc2b8620d6b53d34c17260010262010aa2565b620115367f0685935c6ba4dd53ff0b8540217e29a80271148233eb7d9a6deb49106a09961460010262010aa2565b620115647f34f29fb6bec7bdee0f975b3b46a51f8a3a974bb47978e8b49ff7983cc11b11e560010262010aa2565b603c80838115156201157257fe5b048115156201157d57fe5b069050919050565b6000620115b57fe4adfb0cbab84cf8fcf523d90533da057bec4887975b727ad4ee0ef78a58e0f360010262010aa2565b620115e37f659ee24f2f90a92fd4407919378438d34ff08398b5df93e04aa4ee37bf43283660010262010aa2565b620116117fa58a1f34a2d54c93d5914a5ff8ac0cdd6f43092a957880c1b1b5a2be7c744aa660010262010aa2565b603c828115156201161e57fe5b069050919050565b6000620116567f0d5466fd149bf6f66bf44e1ce69c5b9b646b7858ee530f6fe4b44c1399b130cf60010262010aa2565b620116847ff7c4ae06e9c845650bb52508c732a5f72303c3037b635ecc1215a3c2d079039060010262010aa2565b620116b27f89aa6a64363802e5a6464cd1452522ffcf12e9811c943e8178722d312f1dac5660010262010aa2565b600061019083811515620116c257fe5b061480620116f857506000600483811515620116da57fe5b06148015620116f757506000606483811515620116f357fe5b0614155b5b9050919050565b828054600181600116156101000203166002900490600052602060002090601f016020900481019282601f106201174257805160ff191683800117855562011773565b8280016001018555821562011773579182015b828111156201177257825182559160200191906001019062011755565b5b509050620117829190620117d0565b5090565b60c060405190810160405280600061ffff168152602001600060ff168152602001600060ff168152602001600060ff168152602001600060ff168152602001600060ff1681525090565b620117f591905b80821115620117f1576000816000905550600101620117d7565b5090565b9056fea165627a7a723058200038790752062c5fffb10eb4f13826979adc57683d181ddf2d2c54e9b27481c60029",
  "linkReferences": {
    "contracts/libs/DateTimeModel.sol": {
      "DateTimeModel": [
        {
          "length": 20,
          "start": 54754
        },
        {
          "length": 20,
          "start": 56867
        }
      ]
    },
    "contracts/libs/GluwaAccountModel.sol": {
      "GluwaAccountModel": [
        {
          "length": 20,
          "start": 45132
        },
        {
          "length": 20,
          "start": 45501
        },
        {
          "length": 20,
          "start": 51715
        }
      ]
    }
  },
  "deployedLinkReferences": {
    "contracts/libs/DateTimeModel.sol": {
      "DateTimeModel": [
        {
          "length": 20,
          "start": 54733
        },
        {
          "length": 20,
          "start": 56846
        }
      ]
    },
    "contracts/libs/GluwaAccountModel.sol": {
      "GluwaAccountModel": [
        {
          "length": 20,
          "start": 45111
        },
        {
          "length": 20,
          "start": 45480
        },
        {
          "length": 20,
          "start": 51694
        }
      ]
    }
  }
}