{
  "_format": "hh-sol-artifact-1",
  "contractName": "PrizeLinkedAccountVault",
  "sourceName": "contracts/PrizeLinkedAccountVault.sol",
  "abi": [
    {
      "constant": false,
      "inputs": [
        {
          "name": "owner",
          "type": "address"
        },
        {
          "name": "amount",
          "type": "uint256"
        }
      ],
      "name": "depositPrizedLinkAccount",
      "outputs": [
        {
          "name": "",
          "type": "bool"
        }
      ],
      "payable": false,
      "stateMutability": "nonpayable",
      "type": "function"
    },
    {
      "constant": true,
      "inputs": [
        {
          "name": "owner",
          "type": "address"
        }
      ],
      "name": "getValidTicketIdFor",
      "outputs": [
        {
          "name": "",
          "type": "uint256[]"
        }
      ],
      "payable": false,
      "stateMutability": "view",
      "type": "function"
    },
    {
      "constant": true,
      "inputs": [
        {
          "name": "role",
          "type": "bytes32"
        }
      ],
      "name": "getRoleAdmin",
      "outputs": [
        {
          "name": "",
          "type": "bytes32"
        }
      ],
      "payable": false,
      "stateMutability": "view",
      "type": "function"
    },
    {
      "constant": true,
      "inputs": [
        {
          "name": "account",
          "type": "address"
        }
      ],
      "name": "isAdmin",
      "outputs": [
        {
          "name": "",
          "type": "bool"
        }
      ],
      "payable": false,
      "stateMutability": "view",
      "type": "function"
    },
    {
      "constant": true,
      "inputs": [
        {
          "name": "idx",
          "type": "uint256"
        }
      ],
      "name": "getTicketById",
      "outputs": [
        {
          "name": "",
          "type": "uint96"
        },
        {
          "name": "",
          "type": "address"
        },
        {
          "name": "",
          "type": "uint256"
        },
        {
          "name": "",
          "type": "uint256"
        }
      ],
      "payable": false,
      "stateMutability": "view",
      "type": "function"
    },
    {
      "constant": false,
      "inputs": [],
      "name": "renounceOperator",
      "outputs": [],
      "payable": false,
      "stateMutability": "nonpayable",
      "type": "function"
    },
    {
      "constant": false,
      "inputs": [
        {
          "name": "role",
          "type": "bytes32"
        },
        {
          "name": "account",
          "type": "address"
        }
      ],
      "name": "grantRole",
      "outputs": [],
      "payable": false,
      "stateMutability": "nonpayable",
      "type": "function"
    },
    {
      "constant": true,
      "inputs": [],
      "name": "getCurrentWinner",
      "outputs": [
        {
          "name": "",
          "type": "uint256"
        }
      ],
      "payable": false,
      "stateMutability": "view",
      "type": "function"
    },
    {
      "constant": false,
      "inputs": [
        {
          "name": "role",
          "type": "bytes32"
        },
        {
          "name": "account",
          "type": "address"
        }
      ],
      "name": "renounceRole",
      "outputs": [],
      "payable": false,
      "stateMutability": "nonpayable",
      "type": "function"
    },
    {
      "constant": true,
      "inputs": [],
      "name": "getCurrentTotalDeposit",
      "outputs": [
        {
          "name": "",
          "type": "uint256"
        }
      ],
      "payable": false,
      "stateMutability": "view",
      "type": "function"
    },
    {
      "constant": false,
      "inputs": [
        {
          "name": "admin",
          "type": "address"
        },
        {
          "name": "tokenAddress",
          "type": "address"
        },
        {
          "name": "standardInterestRate",
          "type": "uint32"
        },
        {
          "name": "standardInterestRatePercentageBase",
          "type": "uint32"
        },
        {
          "name": "standardMaturityTerm",
          "type": "uint64"
        },
        {
          "name": "budget",
          "type": "uint256"
        },
        {
          "name": "tokenPerTicket",
          "type": "uint16"
        },
        {
          "name": "ticketValidityTargetBlock",
          "type": "uint16"
        },
        {
          "name": "processingCap",
          "type": "uint32"
        },
        {
          "name": "blockNumberFactor",
          "type": "uint8"
        },
        {
          "name": "ticketRangeFactor",
          "type": "uint128"
        }
      ],
      "name": "initialize",
      "outputs": [],
      "payable": false,
      "stateMutability": "nonpayable",
      "type": "function"
    },
    {
      "constant": true,
      "inputs": [
        {
          "name": "drawTimeStamp",
          "type": "uint256"
        }
      ],
      "name": "getEligibleAddressPendingAddedToDraw",
      "outputs": [
        {
          "name": "result",
          "type": "address[]"
        }
      ],
      "payable": false,
      "stateMutability": "view",
      "type": "function"
    },
    {
      "constant": true,
      "inputs": [],
      "name": "getSavingSettings",
      "outputs": [
        {
          "name": "",
          "type": "uint64"
        },
        {
          "name": "",
          "type": "uint32"
        },
        {
          "name": "",
          "type": "uint32"
        },
        {
          "name": "",
          "type": "uint256"
        },
        {
          "name": "",
          "type": "uint256"
        },
        {
          "name": "",
          "type": "address"
        }
      ],
      "payable": false,
      "stateMutability": "view",
      "type": "function"
    },
    {
      "constant": true,
      "inputs": [
        {
          "name": "account",
          "type": "address"
        }
      ],
      "name": "isOperator",
      "outputs": [
        {
          "name": "",
          "type": "bool"
        }
      ],
      "payable": false,
      "stateMutability": "view",
      "type": "function"
    },
    {
      "constant": false,
      "inputs": [
        {
          "name": "account",
          "type": "address"
        }
      ],
      "name": "addAdmin",
      "outputs": [],
      "payable": false,
      "stateMutability": "nonpayable",
      "type": "function"
    },
    {
      "constant": true,
      "inputs": [
        {
          "name": "depositHash",
          "type": "bytes32"
        }
      ],
      "name": "getDeposit",
      "outputs": [
        {
          "name": "",
          "type": "uint256"
        },
        {
          "name": "",
          "type": "uint256"
        },
        {
          "name": "",
          "type": "address"
        },
        {
          "name": "",
          "type": "uint256"
        },
        {
          "name": "",
          "type": "uint256"
        }
      ],
      "payable": false,
      "stateMutability": "view",
      "type": "function"
    },
    {
      "constant": true,
      "inputs": [
        {
          "name": "drawTimeStamp",
          "type": "uint256"
        }
      ],
      "name": "findMinMaxForDraw",
      "outputs": [
        {
          "name": "min",
          "type": "uint256"
        },
        {
          "name": "max",
          "type": "uint256"
        }
      ],
      "payable": false,
      "stateMutability": "view",
      "type": "function"
    },
    {
      "constant": true,
      "inputs": [
        {
          "name": "owner",
          "type": "address"
        }
      ],
      "name": "getSavingAcountFor",
      "outputs": [
        {
          "name": "",
          "type": "uint256"
        },
        {
          "name": "",
          "type": "bytes32"
        },
        {
          "name": "",
          "type": "address"
        },
        {
          "name": "",
          "type": "uint32"
        },
        {
          "name": "",
          "type": "uint32"
        },
        {
          "name": "",
          "type": "uint256"
        },
        {
          "name": "",
          "type": "uint256"
        },
        {
          "name": "",
          "type": "uint256"
        },
        {
          "name": "",
          "type": "uint8"
        },
        {
          "name": "",
          "type": "bytes"
        }
      ],
      "payable": false,
      "stateMutability": "view",
      "type": "function"
    },
    {
      "constant": false,
      "inputs": [
        {
          "name": "drawTimeStamp",
          "type": "uint256"
        }
      ],
      "name": "prizeDraw",
      "outputs": [
        {
          "name": "",
          "type": "bool"
        }
      ],
      "payable": false,
      "stateMutability": "nonpayable",
      "type": "function"
    },
    {
      "constant": false,
      "inputs": [],
      "name": "renounceAdmin",
      "outputs": [],
      "payable": false,
      "stateMutability": "nonpayable",
      "type": "function"
    },
    {
      "constant": true,
      "inputs": [
        {
          "name": "role",
          "type": "bytes32"
        },
        {
          "name": "index",
          "type": "uint256"
        }
      ],
      "name": "getRoleMember",
      "outputs": [
        {
          "name": "",
          "type": "address"
        }
      ],
      "payable": false,
      "stateMutability": "view",
      "type": "function"
    },
    {
      "constant": true,
      "inputs": [
        {
          "name": "role",
          "type": "bytes32"
        },
        {
          "name": "account",
          "type": "address"
        }
      ],
      "name": "hasRole",
      "outputs": [
        {
          "name": "",
          "type": "bool"
        }
      ],
      "payable": false,
      "stateMutability": "view",
      "type": "function"
    },
    {
      "constant": false,
      "inputs": [
        {
          "name": "account",
          "type": "address"
        }
      ],
      "name": "addOperator",
      "outputs": [],
      "payable": false,
      "stateMutability": "nonpayable",
      "type": "function"
    },
    {
      "constant": true,
      "inputs": [],
      "name": "getSavingAcount",
      "outputs": [
        {
          "name": "",
          "type": "uint256"
        },
        {
          "name": "",
          "type": "bytes32"
        },
        {
          "name": "",
          "type": "address"
        },
        {
          "name": "",
          "type": "uint32"
        },
        {
          "name": "",
          "type": "uint32"
        },
        {
          "name": "",
          "type": "uint256"
        },
        {
          "name": "",
          "type": "uint256"
        },
        {
          "name": "",
          "type": "uint256"
        },
        {
          "name": "",
          "type": "uint8"
        },
        {
          "name": "",
          "type": "bytes"
        }
      ],
      "payable": false,
      "stateMutability": "view",
      "type": "function"
    },
    {
      "constant": true,
      "inputs": [],
      "name": "DEFAULT_ADMIN_ROLE",
      "outputs": [
        {
          "name": "",
          "type": "bytes32"
        }
      ],
      "payable": false,
      "stateMutability": "view",
      "type": "function"
    },
    {
      "constant": false,
      "inputs": [
        {
          "name": "account",
          "type": "address"
        }
      ],
      "name": "removeOperator",
      "outputs": [],
      "payable": false,
      "stateMutability": "nonpayable",
      "type": "function"
    },
    {
      "constant": false,
      "inputs": [
        {
          "name": "drawTimeStamp",
          "type": "uint256"
        }
      ],
      "name": "regenerateTicketForNextDraw",
      "outputs": [
        {
          "name": "",
          "type": "uint256"
        }
      ],
      "payable": false,
      "stateMutability": "nonpayable",
      "type": "function"
    },
    {
      "constant": false,
      "inputs": [
        {
          "name": "drawTimeStamp",
          "type": "uint256"
        },
        {
          "name": "seed",
          "type": "uint256"
        }
      ],
      "name": "findDrawWinnerV1",
      "outputs": [
        {
          "name": "",
          "type": "uint256"
        }
      ],
      "payable": false,
      "stateMutability": "nonpayable",
      "type": "function"
    },
    {
      "constant": true,
      "inputs": [
        {
          "name": "role",
          "type": "bytes32"
        }
      ],
      "name": "getRoleMemberCount",
      "outputs": [
        {
          "name": "",
          "type": "uint256"
        }
      ],
      "payable": false,
      "stateMutability": "view",
      "type": "function"
    },
    {
      "constant": false,
      "inputs": [
        {
          "name": "owner",
          "type": "address"
        },
        {
          "name": "amount",
          "type": "uint256"
        },
        {
          "name": "securityHash",
          "type": "bytes"
        }
      ],
      "name": "createPrizedLinkAccount",
      "outputs": [
        {
          "name": "",
          "type": "bool"
        }
      ],
      "payable": false,
      "stateMutability": "nonpayable",
      "type": "function"
    },
    {
      "constant": false,
      "inputs": [
        {
          "name": "role",
          "type": "bytes32"
        },
        {
          "name": "account",
          "type": "address"
        }
      ],
      "name": "revokeRole",
      "outputs": [],
      "payable": false,
      "stateMutability": "nonpayable",
      "type": "function"
    },
    {
      "constant": true,
      "inputs": [
        {
          "name": "drawTimeStamp",
          "type": "uint256"
        }
      ],
      "name": "getDrawDetails",
      "outputs": [
        {
          "name": "participants",
          "type": "address[]"
        },
        {
          "name": "ticketIds",
          "type": "uint256[]"
        }
      ],
      "payable": false,
      "stateMutability": "view",
      "type": "function"
    },
    {
      "constant": true,
      "inputs": [],
      "name": "OPERATOR_ROLE",
      "outputs": [
        {
          "name": "",
          "type": "bytes32"
        }
      ],
      "payable": false,
      "stateMutability": "view",
      "type": "function"
    },
    {
      "anonymous": false,
      "inputs": [
        {
          "indexed": false,
          "name": "winner",
          "type": "address"
        },
        {
          "indexed": false,
          "name": "ticket",
          "type": "uint256"
        },
        {
          "indexed": false,
          "name": "reward",
          "type": "uint256"
        }
      ],
      "name": "Winner",
      "type": "event"
    },
    {
      "anonymous": false,
      "inputs": [
        {
          "indexed": true,
          "name": "drawTimeStamp",
          "type": "uint256"
        },
        {
          "indexed": true,
          "name": "ticketId",
          "type": "uint256"
        },
        {
          "indexed": true,
          "name": "owner",
          "type": "address"
        },
        {
          "indexed": false,
          "name": "upper",
          "type": "uint256"
        },
        {
          "indexed": false,
          "name": "lower",
          "type": "uint256"
        }
      ],
      "name": "CreateTicket",
      "type": "event"
    },
    {
      "anonymous": false,
      "inputs": [
        {
          "indexed": true,
          "name": "accountHash",
          "type": "bytes32"
        },
        {
          "indexed": true,
          "name": "owner",
          "type": "address"
        }
      ],
      "name": "CreateAccount",
      "type": "event"
    },
    {
      "anonymous": false,
      "inputs": [
        {
          "indexed": true,
          "name": "depositHash",
          "type": "bytes32"
        },
        {
          "indexed": true,
          "name": "owner",
          "type": "address"
        },
        {
          "indexed": false,
          "name": "deposit",
          "type": "uint256"
        }
      ],
      "name": "CreateDeposit",
      "type": "event"
    },
    {
      "anonymous": false,
      "inputs": [
        {
          "indexed": true,
          "name": "owner",
          "type": "address"
        },
        {
          "indexed": false,
          "name": "amount",
          "type": "uint256"
        }
      ],
      "name": "WithdrawSavingAccount",
      "type": "event"
    },
    {
      "anonymous": false,
      "inputs": [
        {
          "indexed": true,
          "name": "role",
          "type": "bytes32"
        },
        {
          "indexed": true,
          "name": "account",
          "type": "address"
        },
        {
          "indexed": true,
          "name": "sender",
          "type": "address"
        }
      ],
      "name": "RoleGranted",
      "type": "event"
    },
    {
      "anonymous": false,
      "inputs": [
        {
          "indexed": true,
          "name": "role",
          "type": "bytes32"
        },
        {
          "indexed": true,
          "name": "account",
          "type": "address"
        },
        {
          "indexed": true,
          "name": "sender",
          "type": "address"
        }
      ],
      "name": "RoleRevoked",
      "type": "event"
    }
  ],
  "bytecode": "0x608060405261410e806100136000396000f3fe6080604052600436106101a05763ffffffff7c0100000000000000000000000000000000000000000000000000000000600035041663033d086d81146101a55780631112f0f7146101f2578063248a9ca31461027557806324d7806c146102b157806327b7aabc146102e45780632ab6f8db1461034b5780632f2ff15d14610362578063329bfc331461039b57806336568abe146103b05780633a990db0146103e95780633db0a45a146103fe5780634218774b146104a8578063529298b8146104d25780636d70f7ae1461053657806370480275146105695780637a86983f1461059c5780638067e002146105f957806382133e381461063c57806383f9f4d21461075e5780638bad0c0a146107885780639010d07c1461079d57806391d14854146107e95780639870d7fe146108225780639964476f14610855578063a217fddf1461086a578063ac8a584a1461087f578063b58d3ff3146108b2578063c9325755146108dc578063ca15c8731461090c578063cf123e3014610936578063d547741f146109c8578063d5a962e414610a01578063f5b541a614610ac4575b600080fd5b3480156101b157600080fd5b506101de600480360360408110156101c857600080fd5b50600160a060020a038135169060200135610ad9565b604080519115158252519081900360200190f35b3480156101fe57600080fd5b506102256004803603602081101561021557600080fd5b5035600160a060020a0316610b42565b60408051602080825283518183015283519192839290830191858101910280838360005b83811015610261578181015183820152602001610249565b505050509050019250505060405180910390f35b34801561028157600080fd5b5061029f6004803603602081101561029857600080fd5b5035610bf3565b60408051918252519081900360200190f35b3480156102bd57600080fd5b506101de600480360360208110156102d457600080fd5b5035600160a060020a0316610c08565b3480156102f057600080fd5b5061030e6004803603602081101561030757600080fd5b5035610c14565b604080516bffffffffffffffffffffffff9095168552600160a060020a039093166020850152838301919091526060830152519081900360800190f35b34801561035757600080fd5b50610360610c32565b005b34801561036e57600080fd5b506103606004803603604081101561038557600080fd5b5080359060200135600160a060020a0316610c65565b3480156103a757600080fd5b5061029f610d12565b3480156103bc57600080fd5b50610360600480360360408110156103d357600080fd5b5080359060200135600160a060020a0316610d19565b3480156103f557600080fd5b5061029f610db3565b34801561040a57600080fd5b50610360600480360361016081101561042257600080fd5b50600160a060020a03813581169160208101359091169063ffffffff6040820135811691606081013582169167ffffffffffffffff6080830135169160a08101359161ffff60c083013581169260e081013590911691610100820135169060ff61012082013516906fffffffffffffffffffffffffffffffff6101409091013516610db9565b3480156104b457600080fd5b50610225600480360360208110156104cb57600080fd5b5035610f82565b3480156104de57600080fd5b506104e76110d7565b6040805167ffffffffffffffff909716875263ffffffff9586166020880152939094168584015260608501919091526080840152600160a060020a0390911660a0830152519081900360c00190f35b34801561054257600080fd5b506101de6004803603602081101561055957600080fd5b5035600160a060020a0316611113565b34801561057557600080fd5b506103606004803603602081101561058c57600080fd5b5035600160a060020a0316611140565b3480156105a857600080fd5b506105c6600480360360208110156105bf57600080fd5b50356111b4565b604080519586526020860194909452600160a060020a039092168484015260608401526080830152519081900360a00190f35b34801561060557600080fd5b506106236004803603602081101561061c57600080fd5b50356111ed565b6040805192835260208301919091528051918290030190f35b34801561064857600080fd5b5061066f6004803603602081101561065f57600080fd5b5035600160a060020a0316611351565b604051808b81526020018a815260200189600160a060020a0316600160a060020a031681526020018863ffffffff1663ffffffff1681526020018763ffffffff1663ffffffff1681526020018681526020018581526020018481526020018360048111156106d957fe5b60ff16815260200180602001828103825283818151815260200191508051906020019080838360005b8381101561071a578181015183820152602001610702565b50505050905090810190601f1680156107475780820380516001836020036101000a031916815260200191505b509b50505050505050505050505060405180910390f35b34801561076a57600080fd5b506101de6004803603602081101561078157600080fd5b50356113da565b34801561079457600080fd5b5061036061159e565b3480156107a957600080fd5b506107cd600480360360408110156107c057600080fd5b50803590602001356115df565b60408051600160a060020a039092168252519081900360200190f35b3480156107f557600080fd5b506101de6004803603604081101561080c57600080fd5b5080359060200135600160a060020a03166115fd565b34801561082e57600080fd5b506103606004803603602081101561084557600080fd5b5035600160a060020a031661161b565b34801561086157600080fd5b5061066f6116a6565b34801561087657600080fd5b5061029f6116e6565b34801561088b57600080fd5b50610360600480360360208110156108a257600080fd5b5035600160a060020a03166116eb565b3480156108be57600080fd5b5061029f600480360360208110156108d557600080fd5b5035611776565b3480156108e857600080fd5b5061029f600480360360408110156108ff57600080fd5b508035906020013561197f565b34801561091857600080fd5b5061029f6004803603602081101561092f57600080fd5b5035611a0d565b34801561094257600080fd5b506101de6004803603606081101561095957600080fd5b600160a060020a038235169160208101359181019060608101604082013564010000000081111561098957600080fd5b82018360208201111561099b57600080fd5b803590602001918460018302840111640100000000831117156109bd57600080fd5b509092509050611a24565b3480156109d457600080fd5b50610360600480360360408110156109eb57600080fd5b5080359060200135600160a060020a0316611acf565b348015610a0d57600080fd5b50610a2b60048036036020811015610a2457600080fd5b5035611b69565b604051808060200180602001838103835285818151815260200191508051906020019060200280838360005b83811015610a6f578181015183820152602001610a57565b50505050905001838103825284818151815260200191508051906020019060200280838360005b83811015610aae578181015183820152602001610a96565b5050505090500194505050505060405180910390f35b348015610ad057600080fd5b5061029f611c43565b6000610aeb610ae6611c66565b611113565b1515610b2f576040805160e560020a62461bcd0281526020600482015260186024820152600080516020614083833981519152604482015290519081900360640190fd5b610b398383611c6a565b90505b92915050565b6060610b4f610ae6611c66565b1515610b93576040805160e560020a62461bcd0281526020600482015260186024820152600080516020614083833981519152604482015290519081900360640190fd5b610b9c82611c8b565b805480602002602001604051908101604052809291908181526020018280548015610be657602002820191906000526020600020905b815481526020019060010190808311610bd2575b505050505090505b919050565b60009081526033602052604090206002015490565b6000610b3c81836115fd565b600080600080610c2385611ca5565b93509350935093509193509193565b6040805160008051602061406383398151915281529051908190036008019020610c6390610c5e611c66565b610d19565b565b600082815260336020526040902060020154610c8890610c83611c66565b6115fd565b1515610d04576040805160e560020a62461bcd02815260206004820152602f60248201527f416363657373436f6e74726f6c3a2073656e646572206d75737420626520616e60448201527f2061646d696e20746f206772616e740000000000000000000000000000000000606482015290519081900360840190fd5b610d0e8282611cdf565b5050565b607c545b90565b610d21611c66565b600160a060020a03828116911614610da9576040805160e560020a62461bcd02815260206004820152602f60248201527f416363657373436f6e74726f6c3a2063616e206f6e6c792072656e6f756e636560448201527f20726f6c657320666f722073656c660000000000000000000000000000000000606482015290519081900360840190fd5b610d0e8282611d4e565b60735490565b600054610100900460ff1680610dd25750610dd2611dbd565b80610de0575060005460ff16155b1515610e38576040805160e560020a62461bcd02815260206004820152602e60248201526000805160206140a383398151915260448201526000805160206140c3833981519152606482015290519081900360840190fd5b600054610100900460ff16158015610e63576000805460ff1961ff0019909116610100171660011790555b610e6c8c611dc3565b610e798b8b8b8b8b611ee2565b607554604080517f313ce5670000000000000000000000000000000000000000000000000000000081529051610f0b92600160a060020a03169163313ce567916004808301926020929190829003018186803b158015610ed857600080fd5b505afa158015610eec573d6000803e3d6000fd5b505050506040513d6020811015610f0257600080fd5b50518787612073565b6087805464ffffffff00191661010063ffffffff8716021774ffffffffffffffffffffffffffffffff00000000001916650100000000006fffffffffffffffffffffffffffffffff8516021760ff191660ff85161790558015610f74576000805461ff00191690555b505050505050505050505050565b60606000805b6069548110156110d05760008481526081602052604081206069805491929184908110610fb157fe5b6000918252602080832090910154600160a060020a0316835282019290925260400190205415801561101d5750600060766000606984815481101515610ff357fe5b6000918252602080832090910154600160a060020a03168352820192909252604001902060040154115b8015611071575060016076600060698481548110151561103957fe5b6000918252602080832090910154600160a060020a0316835282019290925260400190206006015460ff16600481111561106f57fe5b145b156110c857606980548290811061108457fe5b6000918252602090912001548351600160a060020a03909116908490849081106110aa57fe5b600160a060020a039092166020928302909101909101526001909101905b600101610f88565b5050919050565b60655460725460665460675460755467ffffffffffffffff9094169463ffffffff808516956401000000009095041693600160a060020a031690565b6040805160008051602061406383398151915281529051908190036008019020600090610b3c90836115fd565b61115061114b611c66565b610c08565b15156111a6576040805160e560020a62461bcd02815260206004820152601560248201527f5265737472696374656420746f2041646d696e732e0000000000000000000000604482015290519081900360640190fd5b6111b1600082610c65565b50565b6000908152607760205260409020805460018201546002830154600384015460049094015492949193600160a060020a03909116929091565b60008181526080602052604081208054829190607e90839083908290811061121157fe5b90600052602060002001548152602001908152602001600020600201549150607e600082600081548110151561124357fe5b906000526020600020015481526020019081526020016000206001015492506000600190505b815481101561134a5782607e6000848481548110151561128557fe5b906000526020600020015481526020019081526020016000206002015411156112da57607e600083838154811015156112ba57fe5b906000526020600020015481526020019081526020016000206002015492505b83607e600084848154811015156112ed57fe5b9060005260206000200154815260200190815260200160002060010154101561134257607e6000838381548110151561132257fe5b906000526020600020015481526020019081526020016000206001015493505b600101611269565b5050915091565b6000806000806000806000806000606061136c610ae6611c66565b15156113b0576040805160e560020a62461bcd0281526020600482015260186024820152600080516020614083833981519152604482015290519081900360640190fd5b6113b98b61219d565b99509950995099509950995099509950995099509193959799509193959799565b60006113e7610ae6611c66565b151561142b576040805160e560020a62461bcd0281526020600482015260186024820152600080516020614083833981519152604482015290519081900360640190fd5b60008281526086602052604090205460ff16156114b8576040805160e560020a62461bcd02815260206004820152602760248201527f476c7577615072697a65447261773a205072697a6520686173206265656e207060448201527f616964206f757400000000000000000000000000000000000000000000000000606482015290519081900360840190fd5b6000828152608560209081526040808320607254608490935290832054607d5491939261151b9263ffffffff640100000000830481169361150f93821692611503929091906122f316565b9063ffffffff61235016565b9063ffffffff6123ec16565b6000858152608660205260408120805460ff191660011790558354919250101561158b576000607d81905582548110156115855761157b838281548110151561156057fe5b600091825260209091200154600160a060020a031683611c6a565b9350505050610bee565b50611594565b607d8054820190555b5060019392505050565b60006115a8611c66565b90506115b5600082610d19565b60408051600080516020614063833981519152815290519081900360080190206111b19082610d19565b6000828152603360205260408120610b39908363ffffffff61242e16565b6000828152603360205260408120610b39908363ffffffff61243a16565b61162661114b611c66565b151561167c576040805160e560020a62461bcd02815260206004820152601560248201527f5265737472696374656420746f2041646d696e732e0000000000000000000000604482015290519081900360640190fd5b60408051600080516020614063833981519152815290519081900360080190206111b19082610c65565b600080600080600080600080600060606116c66116c1611c66565b61219d565b995099509950995099509950995099509950995090919293949596979899565b600081565b6116f661114b611c66565b151561174c576040805160e560020a62461bcd02815260206004820152601560248201527f5265737472696374656420746f2041646d696e732e0000000000000000000000604482015290519081900360640190fd5b60408051600080516020614063833981519152815290519081900360080190206111b19082611acf565b607454608754600091829160ff16430201815b60695481101561197157600085815260816020526040812060698054919291849081106117b257fe5b6000918252602080832090910154600160a060020a0316835282019290925260400190205415801561181e57506000607660006069848154811015156117f457fe5b6000918252602080832090910154600160a060020a03168352820192909252604001902060040154115b8015611872575060016076600060698481548110151561183a57fe5b6000918252602080832090910154600160a060020a0316835282019290925260400190206006015460ff16600481111561187057fe5b145b156119695761194460698281548110151561188957fe5b600091825260208220015460875460698054600160a060020a03909316938a936fffffffffffffffffffffffffffffffff65010000000000909404841663ffffffff8b16029093168801926119139260769291899081106118e657fe5b6000918252602080832090910154600160a060020a0316835282019290925260400190206004015461244f565b6087546fffffffffffffffffffffffffffffffff65010000000000909104811663ffffffff8a160216870101612501565b5060875460019093019263ffffffff6101009091048116908416111561196957611971565b600101611789565b505063ffffffff1692915050565b600061198c610ae6611c66565b15156119d0576040805160e560020a62461bcd0281526020600482015260186024820152600080516020614083833981519152604482015290519081900360640190fd5b604080516020808252818301909252606091602082018180388339505050308481186020830152909150611a048583612765565b95945050505050565b6000818152603360205260408120610b3c90612825565b6000611a31610ae6611c66565b1515611a75576040805160e560020a62461bcd0281526020600482015260186024820152600080516020614083833981519152604482015290519081900360640190fd5b6000611ab986864287878080601f01602080910402602001604051908101604052809392919081815260200183838082843760009201919091525061283092505050565b915050611ac581613143565b9695505050505050565b600082815260336020526040902060020154611aed90610c83611c66565b1515610da9576040805160e560020a62461bcd02815260206004820152603060248201527f416363657373436f6e74726f6c3a2073656e646572206d75737420626520616e60448201527f2061646d696e20746f207265766f6b6500000000000000000000000000000000606482015290519081900360840190fd5b60608060826000848152602001908152602001600020805480602002602001604051908101604052809291908181526020018280548015611bd357602002820191906000526020600020905b8154600160a060020a03168152600190910190602001808311611bb5575b5050505050915060806000848152602001908152602001600020805480602002602001604051908101604052809291908181526020018280548015611c3757602002820191906000526020600020905b815481526020019060010190808311611c23575b50505050509050915091565b604080516000805160206140638339815191528152905190819003600801902081565b3390565b600080611c78848442613285565b9050611c8381613143565b949350505050565b600160a060020a03166000908152607f6020526040902090565b6000818152607e60205260408120805482918291829190611cc590613699565b600183015460029093015491989097509195509350915050565b6000828152603360205260409020611cfd908263ffffffff6136b416565b15610d0e57611d0a611c66565b600160a060020a031681600160a060020a0316837f2f8788117e7eff1d82e926ec794901d17c78024a50270940304540a733656f0d60405160405180910390a45050565b6000828152603360205260409020611d6c908263ffffffff6136c916565b15610d0e57611d79611c66565b600160a060020a031681600160a060020a0316837ff6391f5c32d9c69d2a47ea670b442974b53935d1edc7fd64eb21e047a839171b60405160405180910390a45050565b303b1590565b600054610100900460ff1680611ddc5750611ddc611dbd565b80611dea575060005460ff16155b1515611e42576040805160e560020a62461bcd02815260206004820152602e60248201526000805160206140a383398151915260448201526000805160206140c3833981519152606482015290519081900360840190fd5b600054610100900460ff16158015611e6d576000805460ff1961ff0019909116610100171660011790555b6040805160008051602061406383398151915281529051908190036008019020611e989060006136de565b611ea3600083610d04565b6040805160008051602061406383398151915281529051908190036008019020611ecd9083610d04565b8015610d0e576000805461ff00191690555050565b600054610100900460ff1680611efb5750611efb611dbd565b80611f09575060005460ff16155b1515611f61576040805160e560020a62461bcd02815260206004820152602e60248201526000805160206140a383398151915260448201526000805160206140c3833981519152606482015290519081900360840190fd5b600054610100900460ff16158015611f8c576000805460ff1961ff0019909116610100171660011790555b6075805473ffffffffffffffffffffffffffffffffffffffff1916600160a060020a0388161790556072805463ffffffff191663ffffffff8781169190911767ffffffff000000001916640100000000918716919091021790556065805467ffffffffffffffff191667ffffffffffffffff851617905560668290556040805160608082018352600180835260208084018290526000938501849052606b829055606c829055606d8490558451928301855281835282018190529201819052606f829055607091909155607155801561206b576000805461ff00191690555b505050505050565b600054610100900460ff168061208c575061208c611dbd565b8061209a575060005460ff16155b15156120f2576040805160e560020a62461bcd02815260206004820152602e60248201526000805160206140a383398151915260448201526000805160206140c3833981519152606482015290519081900360840190fd5b600054610100900460ff1615801561211d576000805460ff1961ff0019909116610100171660011790555b607a805461ff00191661010060ff8716021763ffff000019166201000061ffff868116919091029190911765ffff0000000019166401000000009185169190910217905560408051602081019091526001908190526079805466ffffffffffffff191690911790558015612197576000805461ff00191690555b50505050565b600160a060020a0380821660009081526076602090815260408083208054600180830154600280850154600386015460048701546005880154600689015460078a0180548c51601f6000199b831615610100029b909b01909116979097049889018d90048d0287018d01909b528786529b9c8d9c8d9c8d9c8d9c8d9c8d9c8d9c8d9c60609c949b939a91999885169863ffffffff7401000000000000000000000000000000000000000087048116997801000000000000000000000000000000000000000000000000909704169794969295909460ff9091169383918301828280156122ca5780601f1061229f576101008083540402835291602001916122ca565b820191906000526020600020905b8154815290600101906020018083116122ad57829003601f168201915b505050505090509a509a509a509a509a509a509a509a509a509a50509193959799509193959799565b600082820183811015610b39576040805160e560020a62461bcd02815260206004820152601b60248201527f536166654d6174683a206164646974696f6e206f766572666c6f770000000000604482015290519081900360640190fd5b600082151561236157506000610b3c565b82820282848281151561237057fe5b0414610b39576040805160e560020a62461bcd02815260206004820152602160248201527f536166654d6174683a206d756c7469706c69636174696f6e206f766572666c6f60448201527f7700000000000000000000000000000000000000000000000000000000000000606482015290519081900360840190fd5b6000610b3983836040805190810160405280601a81526020017f536166654d6174683a206469766973696f6e206279207a65726f0000000000008152506136f3565b6000610b39838361379c565b6000610b3983600160a060020a03841661383e565b607554604080517f313ce5670000000000000000000000000000000000000000000000000000000081529051600092600160a060020a03169163313ce567916004808301926020929190829003018186803b1580156124ad57600080fd5b505afa1580156124c1573d6000803e3d6000fd5b505050506040513d60208110156124d757600080fd5b5051607a5460ff909116600a0a9062010000900461ffff1683028115156124fa57fe5b0492915050565b6000838152608160209081526040808320600160a060020a038816845290915281205481101561260c576000848152608160209081526040808320600160a060020a0389168452825280832080548452607e8084528285206001808201546002928301548c89526084885286892080548d8d039290920390920101905583548752919094528285200187905580548452818420909201859055905482528120546125aa90613699565b506bffffffffffffffffffffffff16905085600160a060020a031681867f7ef38c92f7959fa67fe5cd29a3986c48d410d61218c99b6901c9cc81d246cfec8787604051808381526020018281526020019250505060405180910390a45061275a565b6079805460408051606081018252600160a060020a03891666ffffffffffffff938416740100000000000000000000000000000000000000008102821780845260208085018b81528587018b81526000858152607e845288812097518855915160018089019190915590516002909701969096558c81526084825286812080548d8d0301905560828252868120805496870181558152818120909501805473ffffffffffffffffffffffffffffffffffffffff19168517905596548b855260818852858520938552928752848420929095169091558882526080909452206126f49083613856565b86600160a060020a0316826bffffffffffffffffffffffff16877f7ef38c92f7959fa67fe5cd29a3986c48d410d61218c99b6901c9cc81d246cfec8888604051808381526020018281526020019250505060405180910390a4612757607961386e565b50505b506001949350505050565b600082815260836020526040812054156127ef576040805160e560020a62461bcd02815260206004820152602660248201527f476c7577615072697a65447261773a207468652064726177206861732062656560448201527f6e206d6164650000000000000000000000000000000000000000000000000000606482015290519081900360840190fd5b6000806127fb856111ed565b9150915061280a828286613890565b60008681526083602052604090208190559250505092915050565b6000610b3c82613949565b6000806066548560745401111515156128b9576040805160e560020a62461bcd02815260206004820152602660248201527f476c757761536176696e674163636f756e743a2042756467657420697320657860448201527f6365656465640000000000000000000000000000000000000000000000000000606482015290519081900360840190fd5b600160a060020a038616151561293f576040805160e560020a62461bcd02815260206004820152603860248201527f476c757761536176696e674163636f756e743a20536176696e67206f776e657260448201527f2061646472657373206d75737420626520646566696e65640000000000000000606482015290519081900360840190fd5b600160a060020a038616600090815260766020526040902060030154156129fc576040805160e560020a62461bcd02815260206004820152604760248201527f476c757761536176696e674163636f756e743a2045616368206164647265737360448201527f2073686f756c642068617665206f6e6c79203120536176696e67206163636f7560648201527f6e74206f6e6c7900000000000000000000000000000000000000000000000000608482015290519081900360a40190fd5b6078836040518082805190602001908083835b60208310612a2e5780518252601f199092019160209182019101612a0f565b51815160209384036101000a600019018019909216911617905292019485525060405193849003019092205460ff16159150612adc9050576040805160e560020a62461bcd02815260206004820152603160248201527f476c757761536176696e674163636f756e743a204964656e746974792068617360448201527f6820697320616c72656164792075736564000000000000000000000000000000606482015290519081900360840190fd5b607554604080517f23b872dd000000000000000000000000000000000000000000000000000000008152600160a060020a03898116600483015230602483015260448201899052915191909216916323b872dd9160648083019260209291908290030181600087803b158015612b5157600080fd5b505af1158015612b65573d6000803e3d6000fd5b505050506040513d6020811015612b7b57600080fd5b50511515612c1f576040805160e560020a62461bcd02815260206004820152604860248201527f476c757761536176696e674163636f756e743a20556e61626c6520746f20736560448201527f6e6420616d6f756e7420746f206465706f73697420746f206120536176696e6760648201527f204163636f756e74000000000000000000000000000000000000000000000000608482015290519081900360a40190fd5b604080517f84cefce000000000000000000000000000000000000000000000000000000000815260048101869052306024820152600160a060020a0388166044820152905160009173__$8ad4cadfbfab443c6ed09b45690dcdfb0d$__916384cefce091606480820192602092909190829003018186803b158015612ca357600080fd5b505af4158015612cb7573d6000803e3d6000fd5b505050506040513d6020811015612ccd57600080fd5b5051606c54604080517ffd96809e000000000000000000000000000000000000000000000000000000008152600481019290925260248201899052306044830152600160a060020a038a1660648301525191925060009173__$8ad4cadfbfab443c6ed09b45690dcdfb0d$__9163fd96809e916084808301926020929190829003018186803b158015612d5f57600080fd5b505af4158015612d73573d6000803e3d6000fd5b505050506040513d6020811015612d8957600080fd5b50516040805161014081018252606c54815260208101859052600160a060020a038b169181019190915260725463ffffffff808216606084015264010000000090910416608082015260a0810188905260c08101899052600060e08201529091506101008101600181526020908101879052600160a060020a038a81166000908152607683526040908190208451815592840151600180850191909155908401516002840180546060870151608088015173ffffffffffffffffffffffffffffffffffffffff19909216939095169290921777ffffffff000000000000000000000000000000000000000019167401000000000000000000000000000000000000000063ffffffff95861602177fffffffff00000000ffffffffffffffffffffffffffffffffffffffffffffffff16780100000000000000000000000000000000000000000000000094909216939093021790915560a0830151600383015560c083015160048084019190915560e084015160058401556101008401516006840180549193909260ff19909216918490811115612f2257fe5b02179055506101208201518051612f43916007840191602090910190613f95565b50506040805160a0810182526070548152606c546020808301918252600160a060020a038d8116848601908152606085018d8152608086018f815260008a815260778652889020965187559451600180880191909155915160028701805473ffffffffffffffffffffffffffffffffffffffff191691909416179092559051600385015591516004909301929092559151885192935060789289928291908401908083835b602083106130075780518252601f199092019160209182019101612fe8565b51815160209384036101000a60001901801990921691161790529201948552506040519384900301909220805460ff191693151593909317909255506130509050606a8361394d565b613061606e8263ffffffff61394d16565b6069805460018101825560009182527f7fb4302e8e91f9110a6554c2c0a24601252c2a42c2220ca988efcfe39991430801805473ffffffffffffffffffffffffffffffffffffffff1916600160a060020a038b16908117909155607380548a019055607480548a019055604051909184917fae420988b408fa1c16c342c73f56ece9307da09db1ac6b36fc8d9ff61acaa9a29190a3604080518881529051600160a060020a038a169183917f2e2791fe9306933f4d6468aab16a0195b3ab2b342887b2e1be4aa35f568322979181900360200190a39097909650945050505050565b6000613150610ae6611c66565b1515613194576040805160e560020a62461bcd0281526020600482015260186024820152600080516020614083833981519152604482015290519081900360640190fd5b60008281526077602052604081206003810154909110613224576040805160e560020a62461bcd02815260206004820152602860248201527f476c7577615072697a65447261773a20546865206465706f736974206973206e60448201527f6f7420666f756e64000000000000000000000000000000000000000000000000606482015290519081900360840190fd5b60745460875460028301546003840154600485015460ff84164302650100000000009094046fffffffffffffffffffffffffffffffff16939093019093019261275a92600160a060020a0390921691849061327e9061244f565b850161397d565b600060665483607454011115151561330d576040805160e560020a62461bcd02815260206004820152602660248201527f476c757761536176696e674163636f756e743a2042756467657420697320657860448201527f6365656465640000000000000000000000000000000000000000000000000000606482015290519081900360840190fd5b600160a060020a038416600090815260766020526040812060038101549091106133a7576040805160e560020a62461bcd02815260206004820152602560248201527f476c757761536176696e674163636f756e743a204163636f756e74206e6f742060448201527f666f756e64000000000000000000000000000000000000000000000000000000606482015290519081900360840190fd5b607554604080517f23b872dd000000000000000000000000000000000000000000000000000000008152600160a060020a03888116600483015230602483015260448201889052915191909216916323b872dd9160648083019260209291908290030181600087803b15801561341c57600080fd5b505af1158015613430573d6000803e3d6000fd5b505050506040513d602081101561344657600080fd5b505115156134ea576040805160e560020a62461bcd02815260206004820152604860248201527f476c757761536176696e674163636f756e743a20556e61626c6520746f20736560448201527f6e6420616d6f756e7420746f206465706f73697420746f206120536176696e6760648201527f204163636f756e74000000000000000000000000000000000000000000000000608482015290519081900360a40190fd5b6004808201805486019055607380548601905560748054860190558154604080517ffd96809e0000000000000000000000000000000000000000000000000000000081529283019190915260248201869052306044830152600160a060020a03871660648301525160009173__$8ad4cadfbfab443c6ed09b45690dcdfb0d$__9163fd96809e91608480820192602092909190829003018186803b15801561359157600080fd5b505af41580156135a5573d6000803e3d6000fd5b505050506040513d60208110156135bb57600080fd5b50516040805160a081018252607054815284546020808301918252600160a060020a038b8116848601908152606085018b8152608086018d815260008981526077909552969093209451855592516001850155915160028401805473ffffffffffffffffffffffffffffffffffffffff1916919093161790915551600382015590516004909101559050613650606e8261394d565b604080518681529051600160a060020a0388169183917f2e2791fe9306933f4d6468aab16a0195b3ab2b342887b2e1be4aa35f568322979181900360200190a395945050505050565b74010000000000000000000000000000000000000000810491565b6000610b3983600160a060020a038416613bef565b6000610b3983600160a060020a038416613c3b565b60009182526033602052604090912060020155565b6000818184116137845760405160e560020a62461bcd0281526004018080602001828103825283818151815260200191508051906020019080838360005b83811015613749578181015183820152602001613731565b50505050905090810190601f1680156137765780820380516001836020036101000a031916815260200191505b509250505060405180910390fd5b506000838581151561379257fe5b0495945050505050565b8154600090821061381d576040805160e560020a62461bcd02815260206004820152602260248201527f456e756d657261626c655365743a20696e646578206f7574206f6620626f756e60448201527f6473000000000000000000000000000000000000000000000000000000000000606482015290519081900360840190fd5b825483908390811061382b57fe5b9060005260206000200154905092915050565b60009081526001919091016020526040902054151590565b81546001810183556000928352602090922090910155565b805466ffffffffffffff8082166001011666ffffffffffffff19909116179055565b600080848585036001014285434042448a8c6040516020018088815260200187805190602001908083835b602083106138da5780518252601f1990920191602091820191016138bb565b51815160209384036101000a6000190180199092169116179052920197885250868101959095525060408086019390935260608501919091526080808501919091528151808503909101815260a09093019052815191012091505081151561393e57fe5b060195945050505050565b5490565b60028201805460009081526020849052604090209190915580546001908101909155600390910180549091019055565b6000613987614013565b61399085613d05565b90506000600290506010826060015160ff1610806139c85750816060015160ff1660101480156139c85750603b826080015160ff1611155b156139d1575060015b6020808301518351604080517f8980747400000000000000000000000000000000000000000000000000000000815260ff909316600484015261ffff90911660248301525160009273__$05084330c9bf728fdd5577c5afe72a471f$__9263898074749260448083019392829003018186803b158015613a5057600080fd5b505af4158015613a64573d6000803e3d6000fd5b505050506040513d6020811015613a7a57600080fd5b5051604084015190915060ff808316918401161115613adf57826020015160ff16600c141515613ab75760208301805160010160ff169052613aca565b825161ffff600191820116845260208401525b604083018051830182900360ff169052613aed565b604083018051830160ff1690525b60116060840181905260006080850181905260a08501819052845160208087015160408089015181517f0a37f14b00000000000000000000000000000000000000000000000000000000815261ffff909516600486015260ff9283166024860152909116604484015260648301949094526084820183905260a482018390529251919273__$05084330c9bf728fdd5577c5afe72a471f$__92630a37f14b9260c4808201939291829003018186803b158015613ba857600080fd5b505af4158015613bbc573d6000803e3d6000fd5b505050506040513d6020811015613bd257600080fd5b50519050613be289828989612501565b9998505050505050505050565b6000613bfb838361383e565b1515613c3357508154600181810184556000848152602080822090930184905584548482528286019093526040902091909155610b3c565b506000610b3c565b60008181526001830160205260408120548015613cfb5783546000198083019190810190600090879083908110613c6e57fe5b90600052602060002001549050808760000184815481101515613c8d57fe5b6000918252602080832090910192909255828152600189810190925260409020908401905586548790801515613cbf57fe5b60019003818190600052602060002001600090559055866001016000878152602001908152602001600020600090556001945050505050610b3c565b6000915050610b3c565b613d0d614013565b613d1682613e33565b61ffff1681526000613d296107b2613eb5565b8251613d389061ffff16613eb5565b0361ffff1690506000816301e2850002826107b285600001510361ffff16036301e13380020190506000806000600190505b600c60ff821611613db857613d8781876000015161ffff16613ed0565b91508160ff1662015180029250868484011115613dac5760ff81166020870152613db8565b92820192600101613d6a565b5060015b60ff80831690821611613df557868462015180011115613de45760ff81166040870152613df5565b620151809390930192600101613dbc565b613dfe87613f42565b60ff166060870152613e0f87613f5c565b60ff166080870152613e2087613f67565b60ff1660a0870152509395945050505050565b60006107b26301e1338083048101908290613e4d90613eb5565b613e5683613eb5565b0361ffff1690506301e2850081026107b119828403016301e1338002015b84811115613eac57613e8860018403613f71565b15613e99576301e284ff1901613ea1565b6301e1337f19015b600183039250613e74565b50909392505050565b60001901600060648204610190830460048404010392915050565b60008260ff1660021415613efc57613ee782613f71565b15613ef45750601d610b3c565b50601c610b3c565b8260ff1660041480613f1157508260ff166006145b80613f1f57508260ff166009145b80613f2d57508260ff16600b145b15613f3a5750601e610b3c565b50601f610b3c565b60006018610e10835b04811515613f5557fe5b0692915050565b6000603c8083613f4b565b6000603c82613f55565b600061019082061580610b3c575060048206158015610b3c57505060649006151590565b828054600181600116156101000203166002900490600052602060002090601f016020900481019282601f10613fd657805160ff1916838001178555614003565b82800160010185558215614003579182015b82811115614003578251825591602001919060010190613fe8565b5061400f929150614048565b5090565b6040805160c081018252600080825260208201819052918101829052606081018290526080810182905260a081019190915290565b610d1691905b8082111561400f576000815560010161404e56fe4f50455241544f520000000000000000000000000000000000000000000000005265737472696374656420746f204f70657261746f72732e0000000000000000436f6e747261637420696e7374616e63652068617320616c7265616479206265656e20696e697469616c697a6564000000000000000000000000000000000000a165627a7a723058201aa018cc2c1ca505bd87c7a31468ec80b2e213794f6c0f021c896dd72a18a4df0029",
  "linkReferences": {
    "contracts/libs/DateTimeModel.sol": {
      "DateTimeModel": [
        {
          "length": 20,
          "start": 14894
        },
        {
          "length": 20,
          "start": 15237
        }
      ]
    },
    "contracts/libs/GluwaAccountModel.sol": {
      "GluwaAccountModel": [
        {
          "length": 20,
          "start": 11388
        },
        {
          "length": 20,
          "start": 11577
        },
        {
          "length": 20,
          "start": 13674
        }
      ]
    }
  },
  "deployedLinkReferences": {
    "contracts/libs/DateTimeModel.sol": {
      "DateTimeModel": [
        {
          "length": 20,
          "start": 14875
        },
        {
          "length": 20,
          "start": 15218
        }
      ]
    },
    "contracts/libs/GluwaAccountModel.sol": {
      "GluwaAccountModel": [
        {
          "length": 20,
          "start": 11369
        },
        {
          "length": 20,
          "start": 11558
        },
        {
          "length": 20,
          "start": 13655
        }
      ]
    }
  }
}