{
  "_format": "hh-sol-artifact-1",
  "contractName": "PrizeLinkedAccountVault",
  "sourceName": "contracts/PrizeLinkedAccountVault.sol",
  "abi": [
    {
      "constant": false,
      "inputs": [
        {
          "name": "owner",
          "type": "address"
        },
        {
          "name": "amount",
          "type": "uint256"
        }
      ],
      "name": "depositPrizedLinkAccount",
      "outputs": [
        {
          "name": "",
          "type": "bool"
        }
      ],
      "payable": false,
      "stateMutability": "nonpayable",
      "type": "function"
    },
    {
      "constant": true,
      "inputs": [
        {
          "name": "role",
          "type": "bytes32"
        }
      ],
      "name": "getRoleAdmin",
      "outputs": [
        {
          "name": "",
          "type": "bytes32"
        }
      ],
      "payable": false,
      "stateMutability": "view",
      "type": "function"
    },
    {
      "constant": true,
      "inputs": [
        {
          "name": "account",
          "type": "address"
        }
      ],
      "name": "isAdmin",
      "outputs": [
        {
          "name": "",
          "type": "bool"
        }
      ],
      "payable": false,
      "stateMutability": "view",
      "type": "function"
    },
    {
      "constant": false,
      "inputs": [],
      "name": "renounceOperator",
      "outputs": [],
      "payable": false,
      "stateMutability": "nonpayable",
      "type": "function"
    },
    {
      "constant": false,
      "inputs": [
        {
          "name": "amount",
          "type": "uint256"
        }
      ],
      "name": "withdraw",
      "outputs": [
        {
          "name": "",
          "type": "bool"
        }
      ],
      "payable": false,
      "stateMutability": "nonpayable",
      "type": "function"
    },
    {
      "constant": true,
      "inputs": [
        {
          "name": "c__0x42d91d40",
          "type": "bytes32"
        }
      ],
      "name": "c_0x42d91d40",
      "outputs": [],
      "payable": false,
      "stateMutability": "pure",
      "type": "function"
    },
    {
      "constant": false,
      "inputs": [
        {
          "name": "role",
          "type": "bytes32"
        },
        {
          "name": "account",
          "type": "address"
        }
      ],
      "name": "grantRole",
      "outputs": [],
      "payable": false,
      "stateMutability": "nonpayable",
      "type": "function"
    },
    {
      "constant": false,
      "inputs": [
        {
          "name": "role",
          "type": "bytes32"
        },
        {
          "name": "account",
          "type": "address"
        }
      ],
      "name": "renounceRole",
      "outputs": [],
      "payable": false,
      "stateMutability": "nonpayable",
      "type": "function"
    },
    {
      "constant": true,
      "inputs": [
        {
          "name": "drawTimeStamp",
          "type": "uint256"
        }
      ],
      "name": "getEligibleAddressPendingAddedToDraw",
      "outputs": [
        {
          "name": "result",
          "type": "address[]"
        }
      ],
      "payable": false,
      "stateMutability": "view",
      "type": "function"
    },
    {
      "constant": true,
      "inputs": [],
      "name": "getCurrentbalance",
      "outputs": [
        {
          "name": "",
          "type": "uint256"
        }
      ],
      "payable": false,
      "stateMutability": "view",
      "type": "function"
    },
    {
      "constant": true,
      "inputs": [],
      "name": "getSavingSettings",
      "outputs": [
        {
          "name": "",
          "type": "uint64"
        },
        {
          "name": "",
          "type": "uint32"
        },
        {
          "name": "",
          "type": "uint32"
        },
        {
          "name": "",
          "type": "uint256"
        },
        {
          "name": "",
          "type": "uint256"
        },
        {
          "name": "",
          "type": "address"
        }
      ],
      "payable": false,
      "stateMutability": "view",
      "type": "function"
    },
    {
      "constant": true,
      "inputs": [
        {
          "name": "c__0x48731749",
          "type": "bytes32"
        }
      ],
      "name": "c_0x48731749",
      "outputs": [],
      "payable": false,
      "stateMutability": "pure",
      "type": "function"
    },
    {
      "constant": true,
      "inputs": [
        {
          "name": "account",
          "type": "address"
        }
      ],
      "name": "isOperator",
      "outputs": [
        {
          "name": "",
          "type": "bool"
        }
      ],
      "payable": false,
      "stateMutability": "view",
      "type": "function"
    },
    {
      "constant": false,
      "inputs": [
        {
          "name": "account",
          "type": "address"
        }
      ],
      "name": "addAdmin",
      "outputs": [],
      "payable": false,
      "stateMutability": "nonpayable",
      "type": "function"
    },
    {
      "constant": true,
      "inputs": [
        {
          "name": "depositHash",
          "type": "bytes32"
        }
      ],
      "name": "getDeposit",
      "outputs": [
        {
          "name": "",
          "type": "uint256"
        },
        {
          "name": "",
          "type": "uint256"
        },
        {
          "name": "",
          "type": "address"
        },
        {
          "name": "",
          "type": "uint256"
        },
        {
          "name": "",
          "type": "uint256"
        }
      ],
      "payable": false,
      "stateMutability": "view",
      "type": "function"
    },
    {
      "constant": true,
      "inputs": [
        {
          "name": "drawTimeStamp",
          "type": "uint256"
        }
      ],
      "name": "findMinMaxForDraw",
      "outputs": [
        {
          "name": "min",
          "type": "uint256"
        },
        {
          "name": "max",
          "type": "uint256"
        }
      ],
      "payable": false,
      "stateMutability": "view",
      "type": "function"
    },
    {
      "constant": true,
      "inputs": [
        {
          "name": "owner",
          "type": "address"
        }
      ],
      "name": "getSavingAcountFor",
      "outputs": [
        {
          "name": "",
          "type": "uint256"
        },
        {
          "name": "",
          "type": "bytes32"
        },
        {
          "name": "",
          "type": "address"
        },
        {
          "name": "",
          "type": "uint256"
        },
        {
          "name": "",
          "type": "uint256"
        },
        {
          "name": "",
          "type": "uint256"
        },
        {
          "name": "",
          "type": "uint8"
        },
        {
          "name": "",
          "type": "bytes"
        }
      ],
      "payable": false,
      "stateMutability": "view",
      "type": "function"
    },
    {
      "constant": true,
      "inputs": [
        {
          "name": "c__0xfd3e751c",
          "type": "bytes32"
        }
      ],
      "name": "c_0xfd3e751c",
      "outputs": [],
      "payable": false,
      "stateMutability": "pure",
      "type": "function"
    },
    {
      "constant": false,
      "inputs": [],
      "name": "renounceAdmin",
      "outputs": [],
      "payable": false,
      "stateMutability": "nonpayable",
      "type": "function"
    },
    {
      "constant": false,
      "inputs": [
        {
          "name": "drawTimeStamp",
          "type": "uint256"
        }
      ],
      "name": "awardWinnerV1",
      "outputs": [
        {
          "name": "",
          "type": "bool"
        }
      ],
      "payable": false,
      "stateMutability": "nonpayable",
      "type": "function"
    },
    {
      "constant": true,
      "inputs": [
        {
          "name": "role",
          "type": "bytes32"
        },
        {
          "name": "index",
          "type": "uint256"
        }
      ],
      "name": "getRoleMember",
      "outputs": [
        {
          "name": "",
          "type": "address"
        }
      ],
      "payable": false,
      "stateMutability": "view",
      "type": "function"
    },
    {
      "constant": true,
      "inputs": [
        {
          "name": "role",
          "type": "bytes32"
        },
        {
          "name": "account",
          "type": "address"
        }
      ],
      "name": "hasRole",
      "outputs": [
        {
          "name": "",
          "type": "bool"
        }
      ],
      "payable": false,
      "stateMutability": "view",
      "type": "function"
    },
    {
      "constant": false,
      "inputs": [
        {
          "name": "account",
          "type": "address"
        }
      ],
      "name": "addOperator",
      "outputs": [],
      "payable": false,
      "stateMutability": "nonpayable",
      "type": "function"
    },
    {
      "constant": true,
      "inputs": [],
      "name": "getSavingAcount",
      "outputs": [
        {
          "name": "",
          "type": "uint256"
        },
        {
          "name": "",
          "type": "bytes32"
        },
        {
          "name": "",
          "type": "address"
        },
        {
          "name": "",
          "type": "uint256"
        },
        {
          "name": "",
          "type": "uint256"
        },
        {
          "name": "",
          "type": "uint256"
        },
        {
          "name": "",
          "type": "uint8"
        },
        {
          "name": "",
          "type": "bytes"
        }
      ],
      "payable": false,
      "stateMutability": "view",
      "type": "function"
    },
    {
      "constant": true,
      "inputs": [],
      "name": "DEFAULT_ADMIN_ROLE",
      "outputs": [
        {
          "name": "",
          "type": "bytes32"
        }
      ],
      "payable": false,
      "stateMutability": "view",
      "type": "function"
    },
    {
      "constant": false,
      "inputs": [
        {
          "name": "account",
          "type": "address"
        }
      ],
      "name": "removeOperator",
      "outputs": [],
      "payable": false,
      "stateMutability": "nonpayable",
      "type": "function"
    },
    {
      "constant": false,
      "inputs": [
        {
          "name": "drawTimeStamp",
          "type": "uint256"
        }
      ],
      "name": "regenerateTicketForNextDraw",
      "outputs": [
        {
          "name": "",
          "type": "uint256"
        }
      ],
      "payable": false,
      "stateMutability": "nonpayable",
      "type": "function"
    },
    {
      "constant": true,
      "inputs": [
        {
          "name": "role",
          "type": "bytes32"
        }
      ],
      "name": "getRoleMemberCount",
      "outputs": [
        {
          "name": "",
          "type": "uint256"
        }
      ],
      "payable": false,
      "stateMutability": "view",
      "type": "function"
    },
    {
      "constant": true,
      "inputs": [
        {
          "name": "c__0x90feacde",
          "type": "bytes32"
        }
      ],
      "name": "c_0x90feacde",
      "outputs": [],
      "payable": false,
      "stateMutability": "pure",
      "type": "function"
    },
    {
      "constant": false,
      "inputs": [
        {
          "name": "owner",
          "type": "address"
        },
        {
          "name": "amount",
          "type": "uint256"
        },
        {
          "name": "securityHash",
          "type": "bytes"
        }
      ],
      "name": "createPrizedLinkAccount",
      "outputs": [
        {
          "name": "",
          "type": "bool"
        }
      ],
      "payable": false,
      "stateMutability": "nonpayable",
      "type": "function"
    },
    {
      "constant": false,
      "inputs": [
        {
          "name": "role",
          "type": "bytes32"
        },
        {
          "name": "account",
          "type": "address"
        }
      ],
      "name": "revokeRole",
      "outputs": [],
      "payable": false,
      "stateMutability": "nonpayable",
      "type": "function"
    },
    {
      "constant": true,
      "inputs": [
        {
          "name": "drawTimeStamp",
          "type": "uint256"
        }
      ],
      "name": "getDrawDetails",
      "outputs": [
        {
          "name": "participants",
          "type": "address[]"
        },
        {
          "name": "ticketIds",
          "type": "uint256[]"
        },
        {
          "name": "winningTicket",
          "type": "uint256"
        },
        {
          "name": "balanceEachDraw",
          "type": "uint256"
        }
      ],
      "payable": false,
      "stateMutability": "view",
      "type": "function"
    },
    {
      "constant": true,
      "inputs": [
        {
          "name": "idx",
          "type": "uint256"
        }
      ],
      "name": "getTicketRangeById",
      "outputs": [
        {
          "name": "",
          "type": "uint96"
        },
        {
          "name": "",
          "type": "address"
        },
        {
          "name": "",
          "type": "uint256"
        },
        {
          "name": "",
          "type": "uint256"
        }
      ],
      "payable": false,
      "stateMutability": "view",
      "type": "function"
    },
    {
      "constant": false,
      "inputs": [
        {
          "name": "owner",
          "type": "address"
        },
        {
          "name": "amount",
          "type": "uint256"
        }
      ],
      "name": "withdrawFor",
      "outputs": [
        {
          "name": "",
          "type": "bool"
        }
      ],
      "payable": false,
      "stateMutability": "nonpayable",
      "type": "function"
    },
    {
      "constant": false,
      "inputs": [
        {
          "name": "admin",
          "type": "address"
        },
        {
          "name": "tokenAddress",
          "type": "address"
        },
        {
          "name": "standardInterestRate",
          "type": "uint32"
        },
        {
          "name": "standardInterestRatePercentageBase",
          "type": "uint32"
        },
        {
          "name": "standardMaturityTerm",
          "type": "uint64"
        },
        {
          "name": "budget",
          "type": "uint256"
        },
        {
          "name": "tokenPerTicket",
          "type": "uint16"
        },
        {
          "name": "cutOffHour",
          "type": "uint8"
        },
        {
          "name": "cutOffMinute",
          "type": "uint8"
        },
        {
          "name": "processingCap",
          "type": "uint32"
        },
        {
          "name": "ticketRangeFactor",
          "type": "uint128"
        }
      ],
      "name": "initialize",
      "outputs": [],
      "payable": false,
      "stateMutability": "nonpayable",
      "type": "function"
    },
    {
      "constant": true,
      "inputs": [
        {
          "name": "c__0x3cfa3e8e",
          "type": "bytes32"
        }
      ],
      "name": "c_0x3cfa3e8e",
      "outputs": [],
      "payable": false,
      "stateMutability": "pure",
      "type": "function"
    },
    {
      "constant": true,
      "inputs": [
        {
          "name": "drawTimeStamp",
          "type": "uint256"
        }
      ],
      "name": "getDrawWinner",
      "outputs": [
        {
          "name": "result",
          "type": "address[]"
        }
      ],
      "payable": false,
      "stateMutability": "view",
      "type": "function"
    },
    {
      "constant": false,
      "inputs": [
        {
          "name": "drawTimeStamp",
          "type": "uint256"
        },
        {
          "name": "seed",
          "type": "uint256"
        }
      ],
      "name": "makeDrawV1",
      "outputs": [
        {
          "name": "",
          "type": "uint256"
        }
      ],
      "payable": false,
      "stateMutability": "nonpayable",
      "type": "function"
    },
    {
      "constant": true,
      "inputs": [],
      "name": "OPERATOR_ROLE",
      "outputs": [
        {
          "name": "",
          "type": "bytes32"
        }
      ],
      "payable": false,
      "stateMutability": "view",
      "type": "function"
    },
    {
      "anonymous": false,
      "inputs": [
        {
          "indexed": false,
          "name": "winner",
          "type": "address"
        },
        {
          "indexed": false,
          "name": "ticket",
          "type": "uint256"
        },
        {
          "indexed": false,
          "name": "reward",
          "type": "uint256"
        }
      ],
      "name": "Winner",
      "type": "event"
    },
    {
      "anonymous": false,
      "inputs": [
        {
          "indexed": true,
          "name": "drawTimeStamp",
          "type": "uint256"
        },
        {
          "indexed": true,
          "name": "ticketId",
          "type": "uint256"
        },
        {
          "indexed": true,
          "name": "owner",
          "type": "address"
        },
        {
          "indexed": false,
          "name": "upper",
          "type": "uint256"
        },
        {
          "indexed": false,
          "name": "lower",
          "type": "uint256"
        }
      ],
      "name": "CreateTicket",
      "type": "event"
    },
    {
      "anonymous": false,
      "inputs": [
        {
          "indexed": true,
          "name": "accountHash",
          "type": "bytes32"
        },
        {
          "indexed": true,
          "name": "owner",
          "type": "address"
        }
      ],
      "name": "CreateAccount",
      "type": "event"
    },
    {
      "anonymous": false,
      "inputs": [
        {
          "indexed": true,
          "name": "depositHash",
          "type": "bytes32"
        },
        {
          "indexed": true,
          "name": "owner",
          "type": "address"
        },
        {
          "indexed": false,
          "name": "deposit",
          "type": "uint256"
        }
      ],
      "name": "CreateDeposit",
      "type": "event"
    },
    {
      "anonymous": false,
      "inputs": [
        {
          "indexed": true,
          "name": "owner",
          "type": "address"
        },
        {
          "indexed": false,
          "name": "amount",
          "type": "uint256"
        }
      ],
      "name": "Withdraw",
      "type": "event"
    },
    {
      "anonymous": false,
      "inputs": [
        {
          "indexed": true,
          "name": "role",
          "type": "bytes32"
        },
        {
          "indexed": true,
          "name": "account",
          "type": "address"
        },
        {
          "indexed": true,
          "name": "sender",
          "type": "address"
        }
      ],
      "name": "RoleGranted",
      "type": "event"
    },
    {
      "anonymous": false,
      "inputs": [
        {
          "indexed": true,
          "name": "role",
          "type": "bytes32"
        },
        {
          "indexed": true,
          "name": "account",
          "type": "address"
        },
        {
          "indexed": true,
          "name": "sender",
          "type": "address"
        }
      ],
      "name": "RoleRevoked",
      "type": "event"
    }
  ],
  "bytecode": "0x608060405261ea9980620000146000396000f3fe6080604052600436106101e3576000357c0100000000000000000000000000000000000000000000000000000000900463ffffffff168063033d086d146101e8578063248a9ca31461025b57806324d7806c146102aa5780632ab6f8db146103135780632e1a7d4d1461032a5780632eda6f871461037d5780632f2ff15d146103b857806336568abe146104135780634218774b1461046e578063515336c7146104fe578063529298b814610529578063669ec8b7146105cf5780636d70f7ae1461060a57806370480275146106735780637a86983f146106c45780638067e0021461075b57806382133e38146107b157806386f8474c146108e65780638bad0c0a146109215780638be30657146109385780639010d07c1461098b57806391d1485414610a105780639870d7fe14610a835780639964476f14610ad4578063a217fddf14610bcf578063ac8a584a14610bfa578063b58d3ff314610c4b578063ca15c87314610c9a578063cc26450214610ce9578063cf123e3014610d24578063d547741f14610dec578063d5a962e414610e47578063d93e81a714610f2d578063db518db214610fd9578063e8b95f751461104c578063ed5c049114611150578063ee37fb4c1461118b578063ee5bf65f1461121b578063f5b541a614611274575b600080fd5b3480156101f457600080fd5b506102416004803603604081101561020b57600080fd5b81019080803573ffffffffffffffffffffffffffffffffffffffff1690602001909291908035906020019092919050505061129f565b604051808215151515815260200191505060405180910390f35b34801561026757600080fd5b506102946004803603602081101561027e57600080fd5b81019080803590602001909291905050506114c3565b6040518082815260200191505060405180910390f35b3480156102b657600080fd5b506102f9600480360360208110156102cd57600080fd5b81019080803573ffffffffffffffffffffffffffffffffffffffff169060200190929190505050611567565b604051808215151515815260200191505060405180910390f35b34801561031f57600080fd5b50610328611602565b005b34801561033657600080fd5b506103636004803603602081101561034d57600080fd5b81019080803590602001909291905050506116ce565b604051808215151515815260200191505060405180910390f35b34801561038957600080fd5b506103b6600480360360208110156103a057600080fd5b810190808035906020019092919050505061176c565b005b3480156103c457600080fd5b50610411600480360360408110156103db57600080fd5b8101908080359060200190929190803573ffffffffffffffffffffffffffffffffffffffff16906020019092919050505061176f565b005b34801561041f57600080fd5b5061046c6004803603604081101561043657600080fd5b8101908080359060200190929190803573ffffffffffffffffffffffffffffffffffffffff169060200190929190505050611972565b005b34801561047a57600080fd5b506104a76004803603602081101561049157600080fd5b8101908080359060200190929190505050611b84565b6040518080602001828103825283818151815260200191508051906020019060200280838360005b838110156104ea5780820151818401526020810190506104cf565b505050509050019250505060405180910390f35b34801561050a57600080fd5b50610513612014565b6040518082815260200191505060405180910390f35b34801561053557600080fd5b5061053e6120a2565b604051808767ffffffffffffffff1667ffffffffffffffff1681526020018663ffffffff1663ffffffff1681526020018563ffffffff1663ffffffff1681526020018481526020018381526020018273ffffffffffffffffffffffffffffffffffffffff1673ffffffffffffffffffffffffffffffffffffffff168152602001965050505050505060405180910390f35b3480156105db57600080fd5b50610608600480360360208110156105f257600080fd5b81019080803590602001909291905050506121a9565b005b34801561061657600080fd5b506106596004803603602081101561062d57600080fd5b81019080803573ffffffffffffffffffffffffffffffffffffffff1690602001909291905050506121ac565b604051808215151515815260200191505060405180910390f35b34801561067f57600080fd5b506106c26004803603602081101561069657600080fd5b81019080803573ffffffffffffffffffffffffffffffffffffffff169060200190929190505050612278565b005b3480156106d057600080fd5b506106fd600480360360208110156106e757600080fd5b8101908080359060200190929190505050612499565b604051808681526020018581526020018473ffffffffffffffffffffffffffffffffffffffff1673ffffffffffffffffffffffffffffffffffffffff1681526020018381526020018281526020019550505050505060405180910390f35b34801561076757600080fd5b506107946004803603602081101561077e57600080fd5b81019080803590602001909291905050506125e1565b604051808381526020018281526020019250505060405180910390f35b3480156107bd57600080fd5b50610800600480360360208110156107d457600080fd5b81019080803573ffffffffffffffffffffffffffffffffffffffff169060200190929190505050612afc565b604051808981526020018881526020018773ffffffffffffffffffffffffffffffffffffffff1673ffffffffffffffffffffffffffffffffffffffff16815260200186815260200185815260200184815260200183600481111561086057fe5b60ff16815260200180602001828103825283818151815260200191508051906020019080838360005b838110156108a4578082015181840152602081019050610889565b50505050905090810190601f1680156108d15780820380516001836020036101000a031916815260200191505b50995050505050505050505060405180910390f35b3480156108f257600080fd5b5061091f6004803603602081101561090957600080fd5b8101908080359060200190929190505050612d3d565b005b34801561092d57600080fd5b50610936612d40565b005b34801561094457600080fd5b506109716004803603602081101561095b57600080fd5b8101908080359060200190929190505050612ed0565b604051808215151515815260200191505060405180910390f35b34801561099757600080fd5b506109ce600480360360408110156109ae57600080fd5b81019080803590602001909291908035906020019092919050505061368d565b604051808273ffffffffffffffffffffffffffffffffffffffff1673ffffffffffffffffffffffffffffffffffffffff16815260200191505060405180910390f35b348015610a1c57600080fd5b50610a6960048036036040811015610a3357600080fd5b8101908080359060200190929190803573ffffffffffffffffffffffffffffffffffffffff169060200190929190505050613743565b604051808215151515815260200191505060405180910390f35b348015610a8f57600080fd5b50610ad260048036036020811015610aa657600080fd5b81019080803573ffffffffffffffffffffffffffffffffffffffff1690602001909291905050506137f9565b005b348015610ae057600080fd5b50610ae9613a4b565b604051808981526020018881526020018773ffffffffffffffffffffffffffffffffffffffff1673ffffffffffffffffffffffffffffffffffffffff168152602001868152602001858152602001848152602001836004811115610b4957fe5b60ff16815260200180602001828103825283818151815260200191508051906020019080838360005b83811015610b8d578082015181840152602081019050610b72565b50505050905090810190601f168015610bba5780820380516001836020036101000a031916815260200191505b50995050505050505050505060405180910390f35b348015610bdb57600080fd5b50610be4613b06565b6040518082815260200191505060405180910390f35b348015610c0657600080fd5b50610c4960048036036020811015610c1d57600080fd5b81019080803573ffffffffffffffffffffffffffffffffffffffff169060200190929190505050613b0e565b005b348015610c5757600080fd5b50610c8460048036036020811015610c6e57600080fd5b8101908080359060200190929190505050613d60565b6040518082815260200191505060405180910390f35b348015610ca657600080fd5b50610cd360048036036020811015610cbd57600080fd5b810190808035906020019092919050505061436f565b6040518082815260200191505060405180910390f35b348015610cf557600080fd5b50610d2260048036036020811015610d0c57600080fd5b810190808035906020019092919050505061441a565b005b348015610d3057600080fd5b50610dd260048036036060811015610d4757600080fd5b81019080803573ffffffffffffffffffffffffffffffffffffffff1690602001909291908035906020019092919080359060200190640100000000811115610d8e57600080fd5b820183602082011115610da057600080fd5b80359060200191846001830284011164010000000083111715610dc257600080fd5b909192939192939050505061441d565b604051808215151515815260200191505060405180910390f35b348015610df857600080fd5b50610e4560048036036040811015610e0f57600080fd5b8101908080359060200190929190803573ffffffffffffffffffffffffffffffffffffffff1690602001909291905050506146f0565b005b348015610e5357600080fd5b50610e8060048036036020811015610e6a57600080fd5b81019080803590602001909291905050506148f3565b604051808060200180602001858152602001848152602001838103835287818151815260200191508051906020019060200280838360005b83811015610ed3578082015181840152602081019050610eb8565b50505050905001838103825286818151815260200191508051906020019060200280838360005b83811015610f15578082015181840152602081019050610efa565b50505050905001965050505050505060405180910390f35b348015610f3957600080fd5b50610f6660048036036020811015610f5057600080fd5b8101908080359060200190929190505050614bb6565b60405180856bffffffffffffffffffffffff166bffffffffffffffffffffffff1681526020018473ffffffffffffffffffffffffffffffffffffffff1673ffffffffffffffffffffffffffffffffffffffff16815260200183815260200182815260200194505050505060405180910390f35b348015610fe557600080fd5b5061103260048036036040811015610ffc57600080fd5b81019080803573ffffffffffffffffffffffffffffffffffffffff16906020019092919080359060200190929190505050614c58565b604051808215151515815260200191505060405180910390f35b34801561105857600080fd5b5061114e600480360361016081101561107057600080fd5b81019080803573ffffffffffffffffffffffffffffffffffffffff169060200190929190803573ffffffffffffffffffffffffffffffffffffffff169060200190929190803563ffffffff169060200190929190803563ffffffff169060200190929190803567ffffffffffffffff16906020019092919080359060200190929190803561ffff169060200190929190803560ff169060200190929190803560ff169060200190929190803563ffffffff16906020019092919080356fffffffffffffffffffffffffffffffff169060200190929190505050614e7c565b005b34801561115c57600080fd5b506111896004803603602081101561117357600080fd5b810190808035906020019092919050505061533f565b005b34801561119757600080fd5b506111c4600480360360208110156111ae57600080fd5b8101908080359060200190929190505050615342565b6040518080602001828103825283818151815260200191508051906020019060200280838360005b838110156112075780820151818401526020810190506111ec565b505050509050019250505060405180910390f35b34801561122757600080fd5b5061125e6004803603604081101561123e57600080fd5b810190808035906020019092919080359060200190929190505050615aa7565b6040518082815260200191505060405180910390f35b34801561128057600080fd5b50611289615def565b6040518082815260200191505060405180910390f35b60006112cd7fa6df09688a4556c7d0ddda638cdc6c4be3f54a1562b6556c704a1151a59f51b360010261533f565b6112f97f9c9fbfd717d8dd01b6f6d343c06d5831407925d9079391b9c4b46f28be3049a760010261533f565b6113257fab54a3e2ff4e656505e71fbbf5f7f72002a6ea83477a899d8ce6e776e675019760010261533f565b6113517faaf351134d2239ae83e11d26c9067378253c609eb570f8ae74c28ed36c050dbc60010261533f565b61136161135c615e28565b6121ac565b15156113d5576040517f08c379a00000000000000000000000000000000000000000000000000000000081526004018080602001828103825260188152602001807f5265737472696374656420746f204f70657261746f72732e000000000000000081525060200191505060405180910390fd5b6114017f6c875126be1726ab2fc657648964c34d167c9eea09e982826bf5fe2b9ca2d32460010261533f565b61142d7f62099aa8d5be0c25cfa94c8b816435976ac44df70e57c0cd61c9aa5a6e8ea50760010261533f565b6114597fb49c4d7fb7335fbab90abc81be91735bfbe8f5f537a47adb184cb91ddcb7da706001026121a9565b6114857f4814b78bb01bb05a028be0034e2074d2ba2cb9eed22d35e3b0cf009bca8e24996001026121a9565b6114b17fb0e66bbb244f9bc55435dead616fe6369d956e1056c2551f375c7ac583dad7d46001026121a9565b6114bb8383615e30565b905092915050565b60006114f17f433294070be26091e7d86a9df5bd4244f369eb92740f08f2b9f5dee15dae218c600102612d3d565b61151d7f9907d011a40ed9cb525bc9703c302f3d71ee5b67daac1b37a8ef10b968f4f268600102612d3d565b6115497f986fc817075028f0f7a6cb089481ce6acf40cfa9302d016869b03d52c9d08c88600102612d3d565b60336000838152602001908152602001600020600201549050919050565b60006115957f453557595d5569438781ff2bffda3521e47a9e00825bc9def362d351cf3e1c7460010261533f565b6115c17f36164c6dee9768d45bd325d105734bbcb52f53401478cd02c4ecad63c18b8e6860010261533f565b6115ed7fc2ac55851c10e49d80d29047d52eddd577a7571d2b2f4dad9e5fcaa5c07a9bb260010261533f565b6115fb600060010283613743565b9050919050565b61162e7f6b6789300eb743a8447edde74dfce42f76d507d74fabf8555209106a6cf6835d60010261533f565b61165a7fe963ba32f3b2b2511f3b61c6a1cf8ec3b8865be585223e913dad37234ec3dba760010261533f565b6116867f4b1da260cff4143833d6e35ffde5e36b26a94146d2f068d1b4ae37ca6d0e944060010261533f565b6116cc60405180807f4f50455241544f52000000000000000000000000000000000000000000000000815250600801905060405180910390206116c7615e28565b611972565b565b60006116fc7fbe6762beacc210dc33f9fc38f75c42cb5d2fdbddd15b058626d0defde3c9dc146001026121a9565b6117287fc06cdeb9de0bdff0bc7beaa12503083930fc0ea7ad5e61a11b9b24bca695cbd26001026121a9565b6117547fbc4d0e511e71c00c44404d1e70c6cffe8be46b17fdc24ef16897be38811992366001026121a9565b61176561175f615e28565b83615f2f565b9050919050565b50565b61179b7f9890401fd59cad5dec194d56f8e1f971f8f878bef0e4ff70e116fd19483f5662600102612d3d565b6117c77f66ef1e06f668d8e0c0d4f82edeefadbe8c80204e2512f9d3541f84665b1015fa600102612d3d565b6117f37fea6f68aaa4e23e70c3a5d466be2b66373b71c8e3a915c17e44d497696e9a338e600102612d3d565b61181f7f7c8a75d871e37bb3adbbbea0732c29f9ce19596157638c44ae73c5d9909177a4600102612d3d565b6118466033600084815260200190815260200160002060020154611841615e28565b613743565b15156118e0576040517f08c379a000000000000000000000000000000000000000000000000000000000815260040180806020018281038252602f8152602001807f416363657373436f6e74726f6c3a2073656e646572206d75737420626520616e81526020017f2061646d696e20746f206772616e74000000000000000000000000000000000081525060400191505060405180910390fd5b61190c7f5c8f19add2d84aca7a8087815504b380c1919c10d917dfe0e6f3426480626925600102612d3d565b6119387ffc62441d050a63d198d2f97f5a25bb420519fd407e5d50f08312815303d5dd21600102612d3d565b6119647fd64e96f3e91efc239c01bf30d1d8ff0775b4d6b65061ba43ed41ed007d276239600102612d3d565b61196e828261632c565b5050565b61199e7f178ba80f02f74abd0ff251d2ea78ec810b40bec9630b6a70cdfbec8d0795e142600102612d3d565b6119ca7fec551c3ea353e36cbba2586629cb6098113180911ee1a321937b05ae2a2752b6600102612d3d565b6119f67f84fcfc621d3e05319f4172e0bac43d08f99c5f386a82d921c479c6bf1caa5b9e600102612d3d565b611a227f97749d5907af942f23e24dab2e4d9d9f86169e20828b78fbb02c7397aba20dec600102612d3d565b611a2a615e28565b73ffffffffffffffffffffffffffffffffffffffff168173ffffffffffffffffffffffffffffffffffffffff16141515611af2576040517f08c379a000000000000000000000000000000000000000000000000000000000815260040180806020018281038252602f8152602001807f416363657373436f6e74726f6c3a2063616e206f6e6c792072656e6f756e636581526020017f20726f6c657320666f722073656c66000000000000000000000000000000000081525060400191505060405180910390fd5b611b1e7f6071ae2abfff4312103bd8739211263b643becbb57462f9074353c4b638bc8fb600102612d3d565b611b4a7f78c9d2effdd2cf4ffcfc49a15eb93d30fb2345626d55331fafe2577c45492945600102612d3d565b611b767f0f8d5525ab20fc25e211108856f9e9c2d7686d4bca86323a95f73b4befbd1905600102612d3d565b611b8082826164f9565b5050565b6060611bb27f8a16c72f3d08964d4b71e36810ab99653e2f46d2a9bf826bd1cd8478aba4ccdf6001026121a9565b611bde7f4c5a6d99af1d45b4628e99e4b269c0176ad4768b1613c46f64919d4f12c5b5006001026121a9565b611c0a7f9abe30724f1c1e411ce654e9058954211a49ab0e32f5e13424885f98970542106001026121a9565b6000611c387f87ab8e0fce645dd5495297a7416c7077ce2f4d6c38f22b9b86c55bc4521599936001026121a9565b611c647f3016d6c65356c6bd6072f49bf42e8a5a55948337998dc23426da3360cf2578ed6001026121a9565b60008090505b60698054905081101561200d57611ca37f63690ab96e941ffb1f96dfb7a8fcf5c5b8710583e7cb9e1cc190cc5a7dee65786001026121a9565b611ccf7f5a6933ab24684a28b8245d9e8f5de430c12f8739fc19593243d1dcfbd07f32aa6001026121a9565b6000607f60008681526020019081526020016000206000606984815481101515611cf557fe5b9060005260206000200160009054906101000a900473ffffffffffffffffffffffffffffffffffffffff1673ffffffffffffffffffffffffffffffffffffffff1673ffffffffffffffffffffffffffffffffffffffff16815260200190815260200160002054148015611de35750600060766000606984815481101515611d7857fe5b9060005260206000200160009054906101000a900473ffffffffffffffffffffffffffffffffffffffff1673ffffffffffffffffffffffffffffffffffffffff1673ffffffffffffffffffffffffffffffffffffffff16815260200190815260200160002060040154115b8015611e8d575060016004811115611df757fe5b60766000606984815481101515611e0a57fe5b9060005260206000200160009054906101000a900473ffffffffffffffffffffffffffffffffffffffff1673ffffffffffffffffffffffffffffffffffffffff1673ffffffffffffffffffffffffffffffffffffffff16815260200190815260200160002060060160009054906101000a900460ff166004811115611e8b57fe5b145b15611fd357611ebe7f20cca562ee167233012a43d4054b1386074f09acb3ca01b39fb39ef8615d4a9d6001026121a9565b611eea7f1d5c2fc305a56d3933adc82453ebbf4709053dacad61e77b46885b557845fdb26001026121a9565b611f167f97967807be6d59c3069d8adefa9d23201decd26da8cb1b79524f45d5e766e33c6001026121a9565b606981815481101515611f2557fe5b9060005260206000200160009054906101000a900473ffffffffffffffffffffffffffffffffffffffff168383815181101515611f5e57fe5b9060200190602002019073ffffffffffffffffffffffffffffffffffffffff16908173ffffffffffffffffffffffffffffffffffffffff1681525050611fc67fb42a73083c1befee3c06cea8ca58d55bf5f0c4fe40bbdf9e078a6c1cafcfc0026001026121a9565b8180600101925050612000565b611fff7f86da3b46068b1b4eef8dae5b202d50a68d300e07f61dd1cdd8d8938a9638e6926001026121a9565b5b8080600101915050611c6a565b5050919050565b60006120427f1e48659a37d90012034ce0504abf94c687d1cde48eae1d34c8ecf6f1da685f7260010261441a565b61206e7f970ea2430ac8c7129fc8eaf4f7c2f09dc3460b605ba5397bea49e71e9b74f91360010261441a565b61209a7f32ff90641404ad09eea1cd00e3bb039b4789c6b58017ea094d7e1750d00e945d60010261441a565b607354905090565b6000806000806000806120d77f3fd7aa65e03ed2344eb3fa764176d1b28a4ca40d8010176ce7b36e7532250c6e60010261441a565b6121037f17b6405cea1f8b1c87f130fefc195e5fa52bc3b4580a0f3bba8cc7fda027501460010261441a565b61212f7fb8d6fe4d206a56650f24d72f070f71bdbd4efc05528abdcbdf6afc84c501f49f60010261441a565b606560009054906101000a900467ffffffffffffffff16607260009054906101000a900463ffffffff16607260049054906101000a900463ffffffff16606654606754607560009054906101000a900473ffffffffffffffffffffffffffffffffffffffff16955095509550955095509550909192939495565b50565b60006121da7f1879b1107adb408f8af76f8f45ac4e99c6f1bcc9102431bca363de52c073b1dd60010261533f565b6122067fd7067e1fc31ce2497d1aad67288494aad7eff15e9ad64f38f62ac1f19443069160010261533f565b6122327f789ba8c5ad5c32a80dfff31774c44fcc100d45bdb016459c014ebdcb9ac2422260010261533f565b61227160405180807f4f50455241544f520000000000000000000000000000000000000000000000008152506008019050604051809103902083613743565b9050919050565b6122a47ff7dbf51cbcdfc272109df29ce8ee589e577d32bca64f317f28ffa27f8e23950960010261533f565b6122d07fb9c4645ec4363ca07ddaefab6c56e3b97595d05b0f9b7b78604b442092cd001b60010261533f565b6122fc7f12e3f6e826708ec13cb8e33d9dfa2eedf412e4d21685208575c9080bbdcdf47460010261533f565b6123287f150c1f904fe0c1d2f7a31162f5217d4d07c87854ee9f1013b84b4a0201d3e1fb60010261533f565b612338612333615e28565b611567565b15156123ac576040517f08c379a00000000000000000000000000000000000000000000000000000000081526004018080602001828103825260158152602001807f5265737472696374656420746f2041646d696e732e000000000000000000000081525060200191505060405180910390fd5b6123d87f3a927a1908dff92aaf343f9a9dfd70ce943abc4aa14bc384662aea3b37a017f060010261533f565b6124047f2269e0bd13e5cbaefe2045e6d1c22c909b9219f2bd4b7672480604fb38c98aff60010261533f565b6124307fb725922c818f0782603dba098ae6ebcd63326dfb07c08fa6ef52bb86e381fb3660010261533f565b61245c7f269b98238e7be55b5d7a3db79f2a96a0e9fa4e47593a6bb52d82c25d08facd7e60010261533f565b6124887fa0a2fde32d4e52005b78eac14a1ab6ae68b38ec56c08824fdb8abe489653882d60010261533f565b61249660006001028261176f565b50565b60008060008060006124cd7f15c6a063f9b01120a1bdb44338ffe9ad683bb9e5d0841ad21e8a6a1706a6304960010261441a565b6124f97fa8ad17f714c474602870daac8b065e6e20d7dd6bc40d773bba4a1d9820c4c3c160010261441a565b6125257f9a41d87efab0cc27782b615da93830a718cef13deaef96d471626a31bc8fd1c560010261441a565b60006077600088815260200190815260200160002090506125687f83728831cbe135a745eed85073fc558befbea13a19d4b9770fbee58287534bdd60010261441a565b6125947fc3e2b999117295b9bea137cbb921b04192f0066fbf1fd2c9d79ed9b0727eb57760010261441a565b806000015481600101548260020160009054906101000a900473ffffffffffffffffffffffffffffffffffffffff1683600301548460040154955095509550955095505091939590929450565b6000806126107ffa3f09a7e4593084651f29ea8461b3387030a4159e8a40eef148b8f6e3e09f3860010261176c565b61263c7ff089dbfa7364bad466cdb8497bb5a8b5b834c2756a722111d07fcb1ff09e841860010261176c565b6126687faa964b1b324db9406b36cdf6a982b534d3f86c22a8248271de2c7454cf41e2f560010261176c565b6000607d600085815260200190815260200160002090506126ab7f5f0265a64dc0d1e44ed8fcf4b17443ea6b2dfbc5a7483c9de2803bd47128c3e760010261176c565b6126d77f1e90f0808128ed6295f3929f0c3e9b6d2fefbfab02b0616f39d405a446233e5860010261176c565b607c60008260008154811015156126ea57fe5b906000526020600020015481526020019081526020016000206002015491506127357f8d364e20c86888a49fb0a5c225316faafc62d30ef272ae7d5e4e91bf193c157b60010261176c565b6127617f443a104b7a2abc0ce9ff9d40bb5aba80939c9751fe15f5117433748460aac9f560010261176c565b607c600082600081548110151561277457fe5b906000526020600020015481526020019081526020016000206001015492506127bf7f4e4eb1fb865a8202c21707fc5704c30fe63e71ebc3d363465a5f1fe4c0072f2260010261176c565b6127eb7f761edc98fee140249b69aba460e9f328cc70c96d2a0b4b079d086b41598494bb60010261176c565b6000600190505b8180549050811015612af55761282a7fab52b31eb252d025a5c78869fd14218565b055d33d0c368e86f259e860b3e87660010261176c565b6128567fa1cbe202d4979dbc1803e8224f63637cd8300a19910f5d37c061af72d6ac1aca60010261176c565b82607c6000848481548110151561286957fe5b90600052602060002001548152602001908152602001600020600201541115612946576128b87fe5af1bfd7fbbbe21eb81a7414fd0a0a8c4e360a1323ff7e51ab859bddb66973d60010261176c565b6128e47f1c29f5bfdefb542bb506b84b7c74430c6e9f3a3bb9e2a8ae6c272fff65c56e2060010261176c565b6129107fe170a50cf1cc82b7a8b8b710d9580fc7fe6191971a8675a4910011b44b0e7eb660010261176c565b607c6000838381548110151561292257fe5b90600052602060002001548152602001908152602001600020600201549250612973565b6129727f203a00e7114c711bf1e80ab3dbf084357a497ed70ca3424640b7d1488ff6950a60010261176c565b5b61299f7fa303f98cc6ce1685bf6e989f8a0f8f49483b345121b408ad42b01dd5afb2321360010261176c565b6129cb7f26467551d1eb7046f688248f652d228c1bf6806be3899b7f4e90791b2a6d1a7060010261176c565b83607c600084848154811015156129de57fe5b90600052602060002001548152602001908152602001600020600101541015612abb57612a2d7f11d8ce75fe5c00ee2f34c37514086193c9a3600f53beb978aa57bb82141627cc60010261176c565b612a597fdae38433414487548a7bda5d73b7548dbd3ad7cd576556c1d1a83b89af7f04b860010261176c565b612a857f1a7558312e1162d125dc230586cf1dd39edfac64ccc12c9ea8747bb6ba6c734260010261176c565b607c60008383815481101515612a9757fe5b90600052602060002001548152602001908152602001600020600101549350612ae8565b612ae77f2b0227bd0ac303a265db3d5d5aed277f7958ad37889d78eb0fbc207f7ef072a360010261176c565b5b80806001019150506127f2565b5050915091565b60008060008060008060006060612b357fa6df09688a4556c7d0ddda638cdc6c4be3f54a1562b6556c704a1151a59f51b360010261533f565b612b617f9c9fbfd717d8dd01b6f6d343c06d5831407925d9079391b9c4b46f28be3049a760010261533f565b612b8d7fab54a3e2ff4e656505e71fbbf5f7f72002a6ea83477a899d8ce6e776e675019760010261533f565b612bb97faaf351134d2239ae83e11d26c9067378253c609eb570f8ae74c28ed36c050dbc60010261533f565b612bc9612bc4615e28565b6121ac565b1515612c3d576040517f08c379a00000000000000000000000000000000000000000000000000000000081526004018080602001828103825260188152602001807f5265737472696374656420746f204f70657261746f72732e000000000000000081525060200191505060405180910390fd5b612c697f6c875126be1726ab2fc657648964c34d167c9eea09e982826bf5fe2b9ca2d32460010261533f565b612c957f62099aa8d5be0c25cfa94c8b816435976ac44df70e57c0cd61c9aa5a6e8ea50760010261533f565b612cc17fb9985cae29f5fb206a28fec9e4ddbd970bbb961cedcb0547cd4abe5fa8a7c87f6001026121a9565b612ced7f41e3925319947507f9485fc0981244fae56b0ab33235976fb8700db2e33706dc6001026121a9565b612d197f89c9a80d067154a3dd9ba8d2b69aeb97535b9b1a5331f955574ee713f8831ac76001026121a9565b612d22896166c5565b97509750975097509750975097509750919395975091939597565b50565b612d6c7f241ba548cc8253817305eb6cbd99b145edfcecbfaeaba1576d256fce484d5ab260010261533f565b612d987fc0aad2c1f4c71d0d45099bfc691c3cd5b001f96af75e9e3b342f389f86c2614760010261533f565b612dc47f86524858a643a3d44641956918739c1a8adbfa262f51365867258a74777ab6e860010261533f565b6000612dce615e28565b9050612dfc7f34882e832c710efee608a8c31c6b4f81a2882df9495d9d914960835bc5ed3a6f60010261533f565b612e287fab863da377c52c8f6067472a5ca8df2a2ce6a6f299e205cd7a166b6a8ee3191660010261533f565b612e36600060010282611972565b612e627fc04152ee14431e8518d6e1e3408bae4047950f36986878ba23f2b59e8842f0de60010261533f565b612e8e7f601f3a50cc2b63877d5d7c9ae87face277a00a3ba6a3868f835b1048a156698f60010261533f565b612ecd60405180807f4f50455241544f520000000000000000000000000000000000000000000000008152506008019050604051809103902082611972565b50565b6000612efe7fa6df09688a4556c7d0ddda638cdc6c4be3f54a1562b6556c704a1151a59f51b360010261533f565b612f2a7f9c9fbfd717d8dd01b6f6d343c06d5831407925d9079391b9c4b46f28be3049a760010261533f565b612f567fab54a3e2ff4e656505e71fbbf5f7f72002a6ea83477a899d8ce6e776e675019760010261533f565b612f827faaf351134d2239ae83e11d26c9067378253c609eb570f8ae74c28ed36c050dbc60010261533f565b612f92612f8d615e28565b6121ac565b1515613006576040517f08c379a00000000000000000000000000000000000000000000000000000000081526004018080602001828103825260188152602001807f5265737472696374656420746f204f70657261746f72732e000000000000000081525060200191505060405180910390fd5b6130327f6c875126be1726ab2fc657648964c34d167c9eea09e982826bf5fe2b9ca2d32460010261533f565b61305e7f62099aa8d5be0c25cfa94c8b816435976ac44df70e57c0cd61c9aa5a6e8ea50760010261533f565b61308a7f2b542bfe75d9773d4aa5b87ce095933ae3dae71347b73449f5da958e6aa9c6e66001026121a9565b6130b67f4e5d758321caddaa3eccdfa5f9696124b9bca2a340cc5db0b7f8832cc8528a3a6001026121a9565b6130e27f4363280b0a384857f09298a15e7386e37bdd16a30ec1ad29a81042957a4eacc36001026121a9565b61310e7f2241b8f0ff18451fb7bff58b2e558fb4fdca50e58953697a16cf8228d0443a2d6001026121a9565b6084600083815260200190815260200160002060009054906101000a900460ff161515156131ca576040517f08c379a00000000000000000000000000000000000000000000000000000000081526004018080602001828103825260278152602001807f476c7577615072697a65447261773a205072697a6520686173206265656e207081526020017f616964206f75740000000000000000000000000000000000000000000000000081525060400191505060405180910390fd5b6131f67ffcc889693a5b83904f5d13ea2ed7fa6f4b4f84378fd6722ecb979cb08ea76a146001026121a9565b6132227f3b312b1c0f831ff0c7d73ce9e3e66bbc18a2348cc21dfc1cecf5b9f1c5511bf46001026121a9565b61324e7f436deb28efa5fffefaca023fe9a7e1ffd1c16c71b96713096f781c8587eba6ac6001026121a9565b606061325983615342565b90506132877fa91511c6d9e8e969329fbc5d9c4a649bb0f904837aeaaeb24c88c91f5783268d6001026121a9565b6132b37f0281ff50570d64fcc22a7cffad36a108b8a0f25c30b76aebcca33bfaabe158716001026121a9565b6000613331607260049054906101000a900463ffffffff1663ffffffff16613323607260009054906101000a900463ffffffff1663ffffffff16613315608260008a815260200190815260200160002054607b546168fd90919063ffffffff16565b61698790919063ffffffff16565b616a5490919063ffffffff16565b905061335f7fcebb769236023ea5c6071130f4c3794bdf788492b01addde15682ebb38f763886001026121a9565b61338b7fc1fa9d0fd449d79b354856f4dc1acc6425102fd39cb1c92cab69582c5337b55f6001026121a9565b60016084600086815260200190815260200160002060006101000a81548160ff0219169083151502179055506133e37f7bb0efe6dc690972b240a85d6d69cf1dbabd00dbc9c4d1a2e642bd830853645a6001026121a9565b61340f7f4e3531303908a3189c7f0c3bbc5878a0da9aa30e41e04bc676e1bda022c011916001026121a9565b600082511115613594576134457ff57a04441cd24e12f268de4011c4d0e7188523cd33e0f5997a4f057a72665cc76001026121a9565b6134717f5f4824ce5e5993ca3f8fea6cdb43a0953dc1a377f6a582625aa6c84529c728496001026121a9565b61349d7fd7d8455cb9b21ba155eab791736846eef2bfa1af713b85b64f3f879e266a13d66001026121a9565b6000607b819055506134d17fa885dbad3c273ca78cd1b5c51dfaf16f58ff56e3f355f4bc00906de13d98fc406001026121a9565b6134fd7fa6e2e0fac632267809c1730876d0dd4dcb34e78490ca525e7fb6b8dfebf51e756001026121a9565b6000809050825181101561358e576135377f2e791255a86b134d317ce1fd6d8593fc0619586385cc0169603ffb6e216963b16001026121a9565b6135637f1c18fbe36c0bf21be8d23b67c95aa51d2dbeab294df7b1c0881a159f1af3ecff6001026121a9565b613584838281518110151561357457fe5b9060200190602002015183615e30565b9350505050613688565b50613629565b6135c07f01f98095bdb4871bd3cd472191fd2a3fffdc20a06d2c780c8e6682291d9444676001026121a9565b6135ec7fee0809b58aeeed26c30fc6ba6d875b96116194bedc82363fc1cff54182bdce126001026121a9565b6136187f0c3e9f168ebfb4977cf472feeaa28e1f043f0a2f2b7739c3a79275d5177cb43c6001026121a9565b80607b600082825401925050819055505b6136557fcf946496a68af8ab72dc0833344b0ca929f3401b5463d4651add61d4a119b11e6001026121a9565b6136817f4055094ee938ac478c67721fa04da3c5e6130172fcf7895af3203ad5d70324056001026121a9565b6001925050505b919050565b60006136bb7f44f06d40964298ea22079cda36046dcfd121686bb49a0c1b80a0eae08ce55945600102612d3d565b6136e77f72cd481b3bb07d020fc3b7cda33c4c2d3e2e7f9553bac348bcde8f231dc4fc18600102612d3d565b6137137f6eb98de5cc4982251f208140de22f6b8311bb14ab13aced174eddba3a1a904be600102612d3d565b61373b8260336000868152602001908152602001600020600001616a9e90919063ffffffff16565b905092915050565b60006137717f9717c4659c97c82d0096590103bcc8cb92264aea4c03f43c92846d88fbb924e7600102612d3d565b61379d7f493b91d2b4dd206a7a59c3d8d086e86b331838ea0c36abafcec14df2cc77f5ed600102612d3d565b6137c97f86c119a49118cfc851222c11f3f46a758076da295127c8733cff5a8388ef1ffb600102612d3d565b6137f18260336000868152602001908152602001600020600001616b3d90919063ffffffff16565b905092915050565b6138257ff7dbf51cbcdfc272109df29ce8ee589e577d32bca64f317f28ffa27f8e23950960010261533f565b6138517fb9c4645ec4363ca07ddaefab6c56e3b97595d05b0f9b7b78604b442092cd001b60010261533f565b61387d7f12e3f6e826708ec13cb8e33d9dfa2eedf412e4d21685208575c9080bbdcdf47460010261533f565b6138a97f150c1f904fe0c1d2f7a31162f5217d4d07c87854ee9f1013b84b4a0201d3e1fb60010261533f565b6138b96138b4615e28565b611567565b151561392d576040517f08c379a00000000000000000000000000000000000000000000000000000000081526004018080602001828103825260158152602001807f5265737472696374656420746f2041646d696e732e000000000000000000000081525060200191505060405180910390fd5b6139597f3a927a1908dff92aaf343f9a9dfd70ce943abc4aa14bc384662aea3b37a017f060010261533f565b6139857f2269e0bd13e5cbaefe2045e6d1c22c909b9219f2bd4b7672480604fb38c98aff60010261533f565b6139b17f02ecd88ec5aa7f79e1b04fa2d5196f70633b82efea766ec554a5367eb186c0ed60010261533f565b6139dd7ffd7e2637835a60722c80d268652d57225b15dde47b888629fcd49b6f443284bc60010261533f565b613a097fef0ee839a87e09beff700b1545467b1e7edec5145e69a952185625b7febbbeaf60010261533f565b613a4860405180807f4f50455241544f52000000000000000000000000000000000000000000000000815250600801905060405180910390208261176f565b50565b60008060008060008060006060613a847f4e2b16b1b0644f6bc3a47b05ab1e8597b115c2a72699bdc20fad556b9cccc4fe60010261441a565b613ab07fb166f02045665ffa2ad499d796c42e71b1b8174bac0c60c1db73500d1a05cce160010261441a565b613adc7f041147629463f6e0c13e8ca4166a2b5a8b446ac5719c470051757b4feb502f1f60010261441a565b613aec613ae7615e28565b6166c5565b975097509750975097509750975097509091929394959697565b600060010281565b613b3a7ff7dbf51cbcdfc272109df29ce8ee589e577d32bca64f317f28ffa27f8e23950960010261533f565b613b667fb9c4645ec4363ca07ddaefab6c56e3b97595d05b0f9b7b78604b442092cd001b60010261533f565b613b927f12e3f6e826708ec13cb8e33d9dfa2eedf412e4d21685208575c9080bbdcdf47460010261533f565b613bbe7f150c1f904fe0c1d2f7a31162f5217d4d07c87854ee9f1013b84b4a0201d3e1fb60010261533f565b613bce613bc9615e28565b611567565b1515613c42576040517f08c379a00000000000000000000000000000000000000000000000000000000081526004018080602001828103825260158152602001807f5265737472696374656420746f2041646d696e732e000000000000000000000081525060200191505060405180910390fd5b613c6e7f3a927a1908dff92aaf343f9a9dfd70ce943abc4aa14bc384662aea3b37a017f060010261533f565b613c9a7f2269e0bd13e5cbaefe2045e6d1c22c909b9219f2bd4b7672480604fb38c98aff60010261533f565b613cc67fbdf835ee0fe59519e68e959a2766d368864459c142b651dc6d6cc62e98a4928760010261533f565b613cf27fd14e8c1d0c70855f3f901075500965984cbea219b1fa4a42db605c475f4bbee460010261533f565b613d1e7fbe47793fa43a6c9d58b424bbf96d50fa4160ae78cfe3c5dd4bc34ba1ea72138660010261533f565b613d5d60405180807f4f50455241544f5200000000000000000000000000000000000000000000000081525060080190506040518091039020826146f0565b50565b6000613d8e7f13ea2cdaa440f6fff8cadc87063b2dd45cf0519f18e3ebc8c0ffe1715d6db4bd6001026121a9565b613dba7f656401ae8e12b08b6194a3767491f65e90ce406531175a631237523fb0536f0a6001026121a9565b613de67f0d0494f3813a25cd964f7c272cdf7778e5ebe34f82c85fa900174a4ec414bb796001026121a9565b6000613e147f20c8a1a4e166c098a418f14ca157f928aa778528e3a57712569ec38b5249043e6001026121a9565b613e3f7e15b3931a5cbcfdb94468d8463d57e10b927ff3f5dec27f29fed6582db461236001026121a9565b60008090505b60698054905081101561430757613e7e7f9f47ee9737d89ff0242a68b7cfa5ae2dd49bb41a6f3a6ca42c5abffd6dbe64186001026121a9565b613eaa7f7f59b1297d5b740655dc346f6341fdbc5ee407f25bbc5b9059255776fafc833c6001026121a9565b6000607f60008681526020019081526020016000206000606984815481101515613ed057fe5b9060005260206000200160009054906101000a900473ffffffffffffffffffffffffffffffffffffffff1673ffffffffffffffffffffffffffffffffffffffff1673ffffffffffffffffffffffffffffffffffffffff16815260200190815260200160002054148015613fbe5750600060766000606984815481101515613f5357fe5b9060005260206000200160009054906101000a900473ffffffffffffffffffffffffffffffffffffffff1673ffffffffffffffffffffffffffffffffffffffff1673ffffffffffffffffffffffffffffffffffffffff16815260200190815260200160002060040154115b8015614068575060016004811115613fd257fe5b60766000606984815481101515613fe557fe5b9060005260206000200160009054906101000a900473ffffffffffffffffffffffffffffffffffffffff1673ffffffffffffffffffffffffffffffffffffffff1673ffffffffffffffffffffffffffffffffffffffff16815260200190815260200160002060060160009054906101000a900460ff16600481111561406657fe5b145b156142cd576140997f539ea9aec3adda5610bcee799e95f29b7a763087820d1100cbecea8a188275ea6001026121a9565b6140c57f66b25eafbb57a9ed591bc2b2c8e13aaacb06ebb42cfa37a2944522c8bb08f1326001026121a9565b6140f17fcfec50d7da70a40a1c7bfad3aca4f1c73301a21d76f6921425ed20df12b158226001026121a9565b6141b860698281548110151561410357fe5b9060005260206000200160009054906101000a900473ffffffffffffffffffffffffffffffffffffffff16856141b36076600060698781548110151561414557fe5b9060005260206000200160009054906101000a900473ffffffffffffffffffffffffffffffffffffffff1673ffffffffffffffffffffffffffffffffffffffff1673ffffffffffffffffffffffffffffffffffffffff16815260200190815260200160002060040154616bf1565b616cb5565b506141e57f04b0fe784a4f0f8284cbbb6b00b8736fad4b5e4b08045485932d0cdb6f64a3c66001026121a9565b81806001019250506142197fecd17d05735ae2a73f9b454e17709beb8e565eb859b471feea1e44f760f48fcc6001026121a9565b6142457f295c46218e620c5daa8d5dbdf215266d8734914a6e39fd167b64877d28d6e93a6001026121a9565b608560039054906101000a900463ffffffff1663ffffffff168263ffffffff16111561429c576142977fd1cabf672aa44b4f1e7cf44aeae91874a3a9e3f430a0cb08ae7f562aace9debe6001026121a9565b614307565b6142c87f9e71d6f95db452fd7ef52a04a444dbe6e7214372dc13c9c9d1e3f328ee6e4c4f6001026121a9565b6142fa565b6142f97f291f76be806fc84ecd30794a1607931972db0f478acbf3f21afa996ee913648d6001026121a9565b5b8080600101915050613e45565b506143347fd9cbf58cab23258ee4b30affef65e399568676bfcab6fcde67983f7592df679f6001026121a9565b6143607f5bd917ccd4c942e0ae31ef82a31d9df1ddbdb554dfde2f720cff995c4ae17b266001026121a9565b8063ffffffff16915050919050565b600061439d7fc5051e054086deec6c7ce99762d4f39637ad216385e8d81a88af053129a5dead600102612d3d565b6143c97f9bca38d46f8380efa4a25230fbef4066e19ab09fe512066359f31c8e5016dd9f600102612d3d565b6143f57f305a98b4dcb9deaeb4ad6d585a3ddd50284c504959838879128fb9d44da89a4f600102612d3d565b61441360336000848152602001908152602001600020600001617a70565b9050919050565b50565b600061444b7fa6df09688a4556c7d0ddda638cdc6c4be3f54a1562b6556c704a1151a59f51b360010261533f565b6144777f9c9fbfd717d8dd01b6f6d343c06d5831407925d9079391b9c4b46f28be3049a760010261533f565b6144a37fab54a3e2ff4e656505e71fbbf5f7f72002a6ea83477a899d8ce6e776e675019760010261533f565b6144cf7faaf351134d2239ae83e11d26c9067378253c609eb570f8ae74c28ed36c050dbc60010261533f565b6144df6144da615e28565b6121ac565b1515614553576040517f08c379a00000000000000000000000000000000000000000000000000000000081526004018080602001828103825260188152602001807f5265737472696374656420746f204f70657261746f72732e000000000000000081525060200191505060405180910390fd5b61457f7f6c875126be1726ab2fc657648964c34d167c9eea09e982826bf5fe2b9ca2d32460010261533f565b6145ab7f62099aa8d5be0c25cfa94c8b816435976ac44df70e57c0cd61c9aa5a6e8ea50760010261533f565b6145d77f833f3b4341ff58a0e7be1edbb5dfc0dc374fc9896a676dbbe733866d03cf74d56001026121a9565b6146037f3a04ad7e9e78a5c1fc6cff605b009e257dee910e66faa994e8afe9c7316045a26001026121a9565b61462f7fccce1dbaba59abcf83396e478aed4d6e0fcfd31a26264a2061cb7b2ad61cb5f26001026121a9565b600061468186864287878080601f016020809104026020016040519081016040528093929190818152602001838380828437600081840152601f19601f82011690508083019250505050505050617b09565b9150506146b07f512a38d588d989eed3acc08f88955428d188aadc8593fb741862cf90b8356c856001026121a9565b6146dc7f8b5e26a03f614d839bdc62629e23f3c30eba9ca7b6ad37da29bef6d8a8e7771d6001026121a9565b6146e581618edb565b915050949350505050565b61471c7f8ef3a2c3240e4fed75685458a30e1852c1e366c8a3b897910fa24f0e9c12a393600102612d3d565b6147487f9b2d7cec472af26dd1bd892afafe2be066b09e44a7474e6389d058285c4b9598600102612d3d565b6147747f050340438b0b1f0f74eb1ff71edc211936f7fbfc40a7bf8e9ffa724dc49364f4600102612d3d565b6147a07fb74ad924ba00500175ccb9c922e90ece5516bede925bc063783bc6086080a705600102612d3d565b6147c760336000848152602001908152602001600020600201546147c2615e28565b613743565b1515614861576040517f08c379a00000000000000000000000000000000000000000000000000000000081526004018080602001828103825260308152602001807f416363657373436f6e74726f6c3a2073656e646572206d75737420626520616e81526020017f2061646d696e20746f207265766f6b650000000000000000000000000000000081525060400191505060405180910390fd5b61488d7fc538a949ad73d85fa871d4fe7b7caf55c98db10decb79e8201e5b229bf49f8d9600102612d3d565b6148b97f35ef7fe8d6d02844d6863bb6c55f0d1e296384393834f2824348a5a3fe583ff9600102612d3d565b6148e57fe3926445fba9229f612ea4ab3450183300047551d9413fe24bf861e541ee22b4600102612d3d565b6148ef82826164f9565b5050565b6060806000806149257f752b614dcd43b64a7299e0f86075c6d21cedbd89eba1631abf2743b7b946af4760010261176c565b6149517fbaa6dad4bf9fc1b0239fa23cbdfb6c0e927c3523ee2275d7b861051d256dfc8360010261176c565b61497d7fea25679998979202b0b4b107f89054f2794bb3bdd9a1c4d768a97a844758a78060010261176c565b60806000868152602001908152602001600020805480602002602001604051908101604052809291908181526020018280548015614a1057602002820191906000526020600020905b8160009054906101000a900473ffffffffffffffffffffffffffffffffffffffff1673ffffffffffffffffffffffffffffffffffffffff16815260200190600101908083116149c6575b50505050509350614a437fee6f04d8903c6b975227c7950dc7e18945464e5271c84c489f529cf63f2a9b2b60010261176c565b614a6f7f5b13ecfe45c00bb754ec25a2fd7654dd81c9999f91657f2e34069d2199ecac4a60010261176c565b607d6000868152602001908152602001600020805480602002602001604051908101604052809291908181526020018280548015614acc57602002820191906000526020600020905b815481526020019060010190808311614ab8575b50505050509250614aff7f1906b4099c4ff18ae8645fecee6f5c2d21335fb4a8562eee149855221076c78260010261176c565b614b2b7f2a6b08f6b3d399cff480c7a89510f70c1886f224a158c7576c1240c9ac2e18a760010261176c565b60816000868152602001908152602001600020549150614b6d7f0ea3092967f864d98a57f68060467397dcc8e36dffa08c8112d09734ca87780760010261176c565b614b997f7c36b0bd26f5b34abdc80b983f14a3b49aea03dfb469ac6617f36f321471601160010261176c565b608260008681526020019081526020016000205490509193509193565b600080600080614be87fa41caa0bd5533d31a05edfc35789e455b9408d5dab9281a02839d594556a7f976001026121a9565b614c147f9dcd3ebaba0908df6d509a8936302919db871e4c97aa6312946dc657a9c890546001026121a9565b614c407fd57f88ee5146d6830a52ac20e721981b7fbb0e436ec5bb53169956ce95d623ea6001026121a9565b614c4985619350565b93509350935093509193509193565b6000614c867fa6df09688a4556c7d0ddda638cdc6c4be3f54a1562b6556c704a1151a59f51b360010261533f565b614cb27f9c9fbfd717d8dd01b6f6d343c06d5831407925d9079391b9c4b46f28be3049a760010261533f565b614cde7fab54a3e2ff4e656505e71fbbf5f7f72002a6ea83477a899d8ce6e776e675019760010261533f565b614d0a7faaf351134d2239ae83e11d26c9067378253c609eb570f8ae74c28ed36c050dbc60010261533f565b614d1a614d15615e28565b6121ac565b1515614d8e576040517f08c379a00000000000000000000000000000000000000000000000000000000081526004018080602001828103825260188152602001807f5265737472696374656420746f204f70657261746f72732e000000000000000081525060200191505060405180910390fd5b614dba7f6c875126be1726ab2fc657648964c34d167c9eea09e982826bf5fe2b9ca2d32460010261533f565b614de67f62099aa8d5be0c25cfa94c8b816435976ac44df70e57c0cd61c9aa5a6e8ea50760010261533f565b614e127ff47c8889674a7e52abd5b06ec4f424727cbd8fd9929afc2a2af32a02cd648aef6001026121a9565b614e3e7ff04088cbabb8d585b26f68b6092b512dca2cb2c5493f12ed2f9fab549554adc86001026121a9565b614e6a7f2890737e77a3cc17df7a02c65a270a3f309255caef5f82ee5dab772d9a1790c86001026121a9565b614e748383615f2f565b905092915050565b600060019054906101000a900460ff1680614e9b5750614e9a619524565b5b80614eb257506000809054906101000a900460ff16155b1515614f4c576040517f08c379a000000000000000000000000000000000000000000000000000000000815260040180806020018281038252602e8152602001807f436f6e747261637420696e7374616e63652068617320616c726561647920626581526020017f656e20696e697469616c697a656400000000000000000000000000000000000081525060400191505060405180910390fd5b60008060019054906101000a900460ff161590508015614f9c576001600060016101000a81548160ff02191690831515021790555060016000806101000a81548160ff0219169083151502179055505b614fc87f8f43cc292f22eccf19fb0e91fd36c4e31d3a3ea377ca734b6268c612006c6c0c6001026121a9565b614ff47f1699edaedc9a0279b78810e72027cdfd7548ce0ba68adcab7134bc7a2924de716001026121a9565b6150207ffbb2231a60b23c47f6efeb95679d935eb66f00ee07b920f2b12efafb0b77bfcc6001026121a9565b6150298c61953b565b6150557fc99db7348e08c2dce72ee319f4479aa75684efefd9d0d1b65a7c7624a979a7a86001026121a9565b6150817fdffdb994ba241c0319ac950942effbd59462326ed703faabd0e960b73b1a4c3d6001026121a9565b61508e8b8b8b8b8b619844565b6150ba7fa337749e228df36ace39ec8cca41156db675ecdaa278a7102af22533d9cead656001026121a9565b6150e67f773ce85b7115cef543d21a7e35b7e56f5bfeb18b7606af9f40cf94f7e5a004f46001026121a9565b6150f1858584619d58565b61511d7f8086c418f96dadbd3afe651200481727a02fee8e48a091362c121f36917961b36001026121a9565b6151497f64c8445c55b7a04f7a329da3dfe0bdf4e69bccdcf81f17eea6cbc1cdb11566616001026121a9565b82608560036101000a81548163ffffffff021916908363ffffffff1602179055506151967f5ebd6d88fb36938184f1410d949c16a4bc91cb13d0f07cb98645fab8352643c86001026121a9565b6151c27f5e8f52e2588f032fb0401ec72f140df28676aa3e443604207fb07411f49704856001026121a9565b607560009054906101000a900473ffffffffffffffffffffffffffffffffffffffff1673ffffffffffffffffffffffffffffffffffffffff1663313ce5676040518163ffffffff167c010000000000000000000000000000000000000000000000000000000002815260040160206040518083038186803b15801561524657600080fd5b505afa15801561525a573d6000803e3d6000fd5b505050506040513d602081101561527057600080fd5b8101908080519060200190929190505050608560006101000a81548160ff021916908360ff1602179055506152c77f756d4697b99f9470f2788e3d48f1981b182d2f71a8abffb308cfa8bc5140abc96001026121a9565b6152f37f27fd17f8241eb741602bcbf29405d1096a5a1e5ba53cb986b997c65dfbce6bac6001026121a9565b85608560016101000a81548161ffff021916908361ffff16021790555080156153315760008060016101000a81548160ff0219169083151502179055505b505050505050505050505050565b50565b60606153707fa8ed851e73668854f81601270ea988891ee70db828dc8a984e387c9e57d6234060010261176c565b61539c7f95ac37976cf8eea6b2e66f76c444faef359f36c0f00f6451f8ee99c798a037af60010261176c565b6153c87f851ad9bd447ea81c76294dcb4633912eacfdcca67053064cc12a711b1de8654c60010261176c565b6153f47fc9cb45d0bf10e6af1b5b19854bc22abb12a6ce6d2f3d6d17a3458b6e3007cfb160010261176c565b600060816000848152602001908152602001600020541115156154a5576040517f08c379a000000000000000000000000000000000000000000000000000000000815260040180806020018281038252602a8152602001807f476c7577615072697a65447261773a20746865206472617720686173206e6f7481526020017f206265656e206d6164650000000000000000000000000000000000000000000081525060400191505060405180910390fd5b6154d17f64ae18e454d090e2f0263f7cbb36a4aa2890c5c054c6af5cc79042ee0d3cd4b160010261176c565b6154fd7f48fd48f1275171a2aaecc142b245052ba266fe62db5c3296f7d23ce69b3c4b7860010261176c565b6155297f2ccee3d41399f5665297836297dc0c1d8362ffe4dd10655e490f0f49cb4fb40d60010261176c565b600060806000848152602001908152602001600020905061556c7fe754df3550e5545428fc407a1853bad83cca4e56618ac32c7055a60c6127cf5c60010261176c565b6155987f1bbbeb94f2a61126e73393d5f85f8485bc8d3b5853c466de733c3c6036d1e71360010261176c565b60006155c67ffc04913b10b04ac933a570b99d226578fe349719e87f25cde948923a84202b9760010261176c565b6155f27ff97f446a33eadc03c55b69b1b4fa0a437c7a0c3130507ba6398bf6630cd70c5d60010261176c565b6000600190505b8280549050811015615a9f576156317f632148f02c13fd87a4a30c099eb3e7a00d553aa4d23bcdd382b1a08ad0daa40660010261176c565b61565d7fde18cf5ff95ccd1fd548003d8652c920736f51b1ef72a3544b6c54e1967e87f060010261176c565b607c6000607f60008881526020019081526020016000206000868581548110151561568457fe5b9060005260206000200160009054906101000a900473ffffffffffffffffffffffffffffffffffffffff1673ffffffffffffffffffffffffffffffffffffffff1673ffffffffffffffffffffffffffffffffffffffff16815260200190815260200160002054815260200190815260200160002060010154607c6000607f60008981526020019081526020016000206000878681548110151561572357fe5b9060005260206000200160009054906101000a900473ffffffffffffffffffffffffffffffffffffffff1673ffffffffffffffffffffffffffffffffffffffff1673ffffffffffffffffffffffffffffffffffffffff1681526020019081526020016000205481526020019081526020016000206002015411801561585957506081600086815260200190815260200160002054607c6000607f6000898152602001908152602001600020600087868154811015156157de57fe5b9060005260206000200160009054906101000a900473ffffffffffffffffffffffffffffffffffffffff1673ffffffffffffffffffffffffffffffffffffffff1673ffffffffffffffffffffffffffffffffffffffff1681526020019081526020016000205481526020019081526020016000206002015410155b801561591657506081600086815260200190815260200160002054607c6000607f60008981526020019081526020016000206000878681548110151561589b57fe5b9060005260206000200160009054906101000a900473ffffffffffffffffffffffffffffffffffffffff1673ffffffffffffffffffffffffffffffffffffffff1673ffffffffffffffffffffffffffffffffffffffff1681526020019081526020016000205481526020019081526020016000206001015410155b15615a65576159477fd0a5d6fb8d3ba4582907d740423226a5ac609292ed08b7d22ddcd50ed81ba42760010261176c565b6159737f737c0350da452b140ec187f625132fc2adc8b4e7ac5f772b090ed53242722a3060010261176c565b61599f7f3db1f9df08495ff9779dcadf3469052982dee809a63210fc0a11af1ba6ab17e460010261176c565b82818154811015156159ad57fe5b9060005260206000200160009054906101000a900473ffffffffffffffffffffffffffffffffffffffff16848367ffffffffffffffff168151811015156159f057fe5b9060200190602002019073ffffffffffffffffffffffffffffffffffffffff16908173ffffffffffffffffffffffffffffffffffffffff1681525050615a587f4cd22882db7ad884c875dd9d60e1b0768bbbf57983d0393f2325021caf21309360010261176c565b8180600101925050615a92565b615a917f0c3c84103e404c1b7f6705f0a11716125b0224172505cf4a2d0220b8380c498b60010261176c565b5b80806001019150506155f9565b505050919050565b6000615ad57fa6df09688a4556c7d0ddda638cdc6c4be3f54a1562b6556c704a1151a59f51b360010261533f565b615b017f9c9fbfd717d8dd01b6f6d343c06d5831407925d9079391b9c4b46f28be3049a760010261533f565b615b2d7fab54a3e2ff4e656505e71fbbf5f7f72002a6ea83477a899d8ce6e776e675019760010261533f565b615b597faaf351134d2239ae83e11d26c9067378253c609eb570f8ae74c28ed36c050dbc60010261533f565b615b69615b64615e28565b6121ac565b1515615bdd576040517f08c379a00000000000000000000000000000000000000000000000000000000081526004018080602001828103825260188152602001807f5265737472696374656420746f204f70657261746f72732e000000000000000081525060200191505060405180910390fd5b615c097f6c875126be1726ab2fc657648964c34d167c9eea09e982826bf5fe2b9ca2d32460010261533f565b615c357f62099aa8d5be0c25cfa94c8b816435976ac44df70e57c0cd61c9aa5a6e8ea50760010261533f565b615c617f55fb64c4d4d6cf94ce8a413d66cc411b6dca416c50fa2be261047c4c5e507a7f6001026121a9565b615c8d7fd436c8654e955acd1211f29a5aa18846bedb3f78d5ce3cc2fa9636ad9194a72e6001026121a9565b615cb97fa1ce5180c6ab847e296c90ab909d21b74a90bd346200740c09675152f17d324f6001026121a9565b606060206040519080825280601f01601f191660200182016040528015615cef5781602001600182028038833980820191505090505b509050615d1e7fc06f9ab0a42067a3032004a1a614e8eb2400747d61d289999b531b49d72db4b26001026121a9565b615d4a7ffc1a22c806fb858100e543a0113f5030549cf1d5e9914e9ff96548df495877026001026121a9565b6000309050615d7b7f652e117f8199b91a755823b95c9a7ccbe183fafb662283f460b330e5ba66a30a6001026121a9565b8084186020830152615daf7f04ac96bf3f7bedf438d92468329e5048138da52c598656dd27de0b9a976758866001026121a9565b615ddb7fb92dbc1cac19b913178a237a11f0087dfc4f8ddcb0b81ce1296c9792a388d4fb6001026121a9565b615de5858361a0e6565b9250505092915050565b60405180807f4f50455241544f520000000000000000000000000000000000000000000000008152506008019050604051809103902081565b600033905090565b6000615e5e7fecc66ef73617483bf11170cfc64ebf960a85e9f36829325d0d9826e0192e1f796001026121a9565b615e8a7f75b90450686dc5909ec7bd91f9d9039a8235470207c73cf2577011bfeb11df536001026121a9565b615eb67f5c3662514b5af44deb909ab72f898700a46799266c1d08e11f48e236aed8a6416001026121a9565b6000615ec384844261a3cd565b9050615ef17f3a61ce631acefc061885100fa00827cc97b5c93817dbb40c3c277a766f34cf716001026121a9565b615f1d7f04d34a11a149fd12dcc7da00db4db2c6c5b46f8d538990fe8181738b95ade60e6001026121a9565b615f2681618edb565b91505092915050565b6000615f5d7f055d1a4cac8420fe2f0ef9125ad984bd62db843ef1bb2ac099b5cd8c7c7cda166001026121a9565b615f897fa6fcc05efcef1c8d7f5e40a4ec55c6223d0dc4681bd293e43bbec8c230464e4a6001026121a9565b615fb57ff5f75558e4fc864ab2178ef2f497edd527acad1bff1060fefc6dd41afbcea26b6001026121a9565b6000615fc1848461af2b565b9050615fef7fc5a5b2fe6449602cfdfd593c921b094a06d3e15840ad3f2d5dbb67794b38cc546001026121a9565b61601b7f27709734daa1fa3965ca025f974860583ff8fed1c0cb907f6f902bc60c3904cf6001026121a9565b600061602682616bf1565b90506160547ffe87d3712ed22cc2ee45b38688206d2f3f0caec5b6c6d55e1840b6e5161ec9956001026121a9565b6160807f06da2979439f848af7278d004f2f6f3c78aa696877984cdbbbba4a7bc489a5316001026121a9565b600061608b4261b47d565b90506160b97f591bba838a957c9eae52cd278289638b1cbaffb28d4f0e2e3f02906ff6d145296001026121a9565b6160e57f548ad73e78a72a1f172ccc5cb47debddfb89542ec1a61a821db15afd182a9fd26001026121a9565b6000620151808203905061611b7f3bfca3da8a738e97b8d886da18a71c0cf0181e5451dd251db086ded623a858c36001026121a9565b6161477f87c7f9574e9f862bb7bf3b9ab9305e831b38f1da0ed3d427966be43fa0f4b2f46001026121a9565b616152878385616cb5565b5061617f7f293cc16895c033ce2f757f7593eac138ff75c77899c8072dab9b48949ff7809c6001026121a9565b6161ab7feadf27bffebf2c2d2002a7d7539979d6420915a24d053060d9f36bba807057ac6001026121a9565b6000607f600083815260200190815260200160002060008973ffffffffffffffffffffffffffffffffffffffff1673ffffffffffffffffffffffffffffffffffffffff168152602001908152602001600020541115616299576162307fb35829b702072203f709e0748491c3f1b289b2aae4713cfc8360dbe699b8a9646001026121a9565b61625c7f635141b229dc79ffa55ded2a64ea2b76683daa859141926eb8f581ca170114e16001026121a9565b6162887fb196c774e48dbc0b072c431372a3db70bdaf6e5afd2490fd4ba14732699646506001026121a9565b616293878285616cb5565b506162c6565b6162c57fc67660cf410419900083eb1200a11fb544ab29325f82f01a3cbdb8b6ddf7116c6001026121a9565b5b6162f27fda196891401d4a117d4158caba9e18b0eb05950b8249b583e45ea05c3681bacf6001026121a9565b61631e7fc062c3862d8b40cba4e6844b040853a31c3eb30841289529fa726d8c6956cebe6001026121a9565b600194505050505092915050565b6163587fd8479504df472c40b9d2d46578fc0bad271dba561f3c3bfae8432ee4398cd9a8600102612d3d565b6163847f056ca1d611325f492ec9a258615105c0c61c1935da3efbb61fbb153378d318dd600102612d3d565b6163b07fb300cb213a808a8d25947dc127c3188ce2125091b485b407bb84a476fe38d0dc600102612d3d565b6163d8816033600085815260200190815260200160002060000161c05390919063ffffffff16565b156164c8576164097f7b5ca71ff0c3170626af9f1558f947e9704f6758fabb43f6074fe812966bce56600102612d3d565b6164357f811d9b367083ade010308c3df46e6c1a758d0a4e066263174dfb6043b644e173600102612d3d565b6164617fdb6ee36fa74bfce73b4d7febf4feaf4bdebc1210aab6f5b8693bd4a1f8853a26600102612d3d565b616469615e28565b73ffffffffffffffffffffffffffffffffffffffff168173ffffffffffffffffffffffffffffffffffffffff16837f2f8788117e7eff1d82e926ec794901d17c78024a50270940304540a733656f0d60405160405180910390a46164f5565b6164f47f85d239db3b4d1b9cced29486f7c80ccb652aafd8e8eae3f7452473f2cc89b51a600102612d3d565b5b5050565b6165257fedea06ed59008997c5743a16db8568bab5dd9f9c34ed04b0f769daf451feb479600102612d3d565b6165517fef1f4435b8ae57ba06f31930b3fb8c9cc004c60b2991c9854f356fda1be49d1b600102612d3d565b61657c7e8e26e72734111ca057d72127912f0212f88739a7285da44b27658c44d821cd600102612d3d565b6165a4816033600085815260200190815260200160002060000161c10790919063ffffffff16565b15616694576165d57f84b91bc6cd4d63b8761ad13257c7207720ef3cd77d61117e543c387736916e5e600102612d3d565b6166017f9dccac468e58953be22b97f316f61593d0626c019b44f72d0fae41962f2372db600102612d3d565b61662d7f431977193dba4d85d3d1072d0ba5e1cdccca8cddfd8c4aff4d7ac2ea98d3d4ee600102612d3d565b616635615e28565b73ffffffffffffffffffffffffffffffffffffffff168173ffffffffffffffffffffffffffffffffffffffff16837ff6391f5c32d9c69d2a47ea670b442974b53935d1edc7fd64eb21e047a839171b60405160405180910390a46166c1565b6166c07f28a965b98d8b942f56696427d3c721e5310563fbc5164dca87cf5cf13ea2a9ed600102612d3d565b5b5050565b600080600080600080600060606166fe7f857e220351d8aa1b0197bfa0267a4faf808a6de710d463f2709778a3b185038760010261441a565b61672a7fa1f109cc1be943e64b1a6e0848a9ac5778d51f2fd66393d5d48e25bf315f7c0560010261441a565b6167567f17dbf3d109c4f5d7ee89824e05bc22e46bd7f238a4dfc214449033acb896da3060010261441a565b6000607660008b73ffffffffffffffffffffffffffffffffffffffff1673ffffffffffffffffffffffffffffffffffffffff16815260200190815260200160002090506167c57f37a00f29333ede6a62aec24c5b155256e73103af619aa0f5a06132d988720b0460010261441a565b6167f17f405881ad965423ccb1eb50f817a1127c7bab9d456ab47c5ca3de30284eaaa7a160010261441a565b806000015481600101548260020160009054906101000a900473ffffffffffffffffffffffffffffffffffffffff168360030154846004015485600501548660060160009054906101000a900460ff1687600701808054600181600116156101000203166002900480601f0160208091040260200160405190810160405280929190818152602001828054600181600116156101000203166002900480156168da5780601f106168af576101008083540402835291602001916168da565b820191906000526020600020905b8154815290600101906020018083116168bd57829003601f168201915b505050505090509850985098509850985098509850985050919395975091939597565b600080828401905083811015151561697d576040517f08c379a000000000000000000000000000000000000000000000000000000000815260040180806020018281038252601b8152602001807f536166654d6174683a206164646974696f6e206f766572666c6f77000000000081525060200191505060405180910390fd5b8091505092915050565b60008083141561699a5760009050616a4e565b600082840290508284828115156169ad57fe5b04141515616a49576040517f08c379a00000000000000000000000000000000000000000000000000000000081526004018080602001828103825260218152602001807f536166654d6174683a206d756c7469706c69636174696f6e206f766572666c6f81526020017f770000000000000000000000000000000000000000000000000000000000000081525060400191505060405180910390fd5b809150505b92915050565b6000616a9683836040805190810160405280601a81526020017f536166654d6174683a206469766973696f6e206279207a65726f00000000000081525061c1bb565b905092915050565b6000616acc7fed54bc75583d419ab275e8111912b68693321933fc327bb4bcf80928ad8b8b4960010261c285565b616af87f3daffd0a9dce28b482d01a551215671bf4393bb2c14e29701cf4960e2f2b129260010261c285565b616b247f40aa26a0e9be8d065cf56c5a97ee7ecf2d6f7f27a85e81ebb85bf92a3fb598c860010261c285565b616b31836000018361c288565b60019004905092915050565b6000616b6b7f74042fd2ce01d2d4e5b83168db3daaa0ada16dcc55033ff01c774f8d3b09d26b60010261c285565b616b977ff5b89a497746cc14694c9f1ed1aeaef6a21f81b1a91b334ac822cb679c327c5460010261c285565b616bc37f3d2a328b4224524dd5bf276581f8c7e30b93161a3146a223de54a8178318570d60010261c285565b616be9836000018373ffffffffffffffffffffffffffffffffffffffff1660010261c486565b905092915050565b6000616c1f7f25c9d0ffdc168da5ca5a9edfe4529e7b902a78a5f6c9647ce9cb177f02a8ac3e6001026121a9565b616c4b7f30be0bc5f9b6350dfe8facb2ea36a5912023737f69cd70a479e75f62f92514176001026121a9565b616c777f79c71ca22ffb61c2c72e4170a9b068447cbcb91e3747b1e362391715cd8d94cb6001026121a9565b608560009054906101000a900460ff1660ff16600a0a608560019054906101000a900461ffff1661ffff168302811515616cad57fe5b049050919050565b6000616ce37f7d1abfce3f4cdd03f44ae6cf0f8b5ddb772995bd692bb263f3c23339b515135c60010261176c565b616d0f7f081b29c9b5d9e4920545d94197af44ad21881b03f6f5e10e461d18cb9fd078dc60010261176c565b616d3b7f0969465ef6c5ea50e8d3fd9a540cc241fb18b46edf5daab89808dff32f5201e160010261176c565b6000607f600085815260200190815260200160002060008673ffffffffffffffffffffffffffffffffffffffff1673ffffffffffffffffffffffffffffffffffffffff16815260200190815260200160002054111561729157616dc07f0671443b48b8db258579dcba632918e8affbd05437db35fe8da4eae40266f0ed60010261176c565b616dec7f76e9c5df0eb03553c01aa0bc5b1875e59946e72a4831e122dd929fa71e53b18860010261176c565b616e187fd78789dcc5df825e09b94ecb8425a5c8355ac6677c2b5a6e7a6652342d1c118860010261176c565b6000607c6000607f600087815260200190815260200160002060008873ffffffffffffffffffffffffffffffffffffffff1673ffffffffffffffffffffffffffffffffffffffff16815260200190815260200160002054815260200190815260200160002060010154607c6000607f600088815260200190815260200160002060008973ffffffffffffffffffffffffffffffffffffffff1673ffffffffffffffffffffffffffffffffffffffff16815260200190815260200160002054815260200190815260200160002060020154039050616f177fa14fcbcab4a892575ad23caa397f375fff3d33ee46c48ea6c92114c7c9ce5e6360010261176c565b616f437fc035af89a7a7fdab8d5b2c3923781b6f849dc4b22ec49186aeab341196e0ade360010261176c565b8083036082600086815260200190815260200160002060008282540192505081905550616f927f0c9b38d7c3a65c3cc43fd5ad7ae3993a6d93fd697e31957f51397f60e47de36260010261176c565b616fbe7f381080a9f8721aa0664b32dddbd723e4c698f38e9df2cbc323c6ccbdf1c53cea60010261176c565b808303607c6000607f600088815260200190815260200160002060008973ffffffffffffffffffffffffffffffffffffffff1673ffffffffffffffffffffffffffffffffffffffff168152602001908152602001600020548152602001908152602001600020600201600082825401925050819055506170607fc80f4cece3c2167176cd3daee7a2b9c69961deb2c488b1339fb5808b0c50ac8460010261176c565b61708c7f62084f7b105f12b0759924635bb5bfbf4b8f468bf9e9602362155b834648465560010261176c565b60006170fd607c6000607f600089815260200190815260200160002060008a73ffffffffffffffffffffffffffffffffffffffff1673ffffffffffffffffffffffffffffffffffffffff1681526020019081526020016000205481526020019081526020016000206000015461c52e565b506bffffffffffffffffffffffff16905061713a7fc6b5058ad1548c6ca49bb1d28ecae089997f2bece577e784c81db0684e31d95060010261176c565b6171667fa17398b5bd6815cbf87da4f9a9c0705dfd0842fa79935314fcc95cf49a7181b460010261176c565b8573ffffffffffffffffffffffffffffffffffffffff1681867f7ef38c92f7959fa67fe5cd29a3986c48d410d61218c99b6901c9cc81d246cfec607c6000607f60008c815260200190815260200160002060008d73ffffffffffffffffffffffffffffffffffffffff1673ffffffffffffffffffffffffffffffffffffffff16815260200190815260200160002054815260200190815260200160002060010154607c6000607f60008d815260200190815260200160002060008e73ffffffffffffffffffffffffffffffffffffffff1673ffffffffffffffffffffffffffffffffffffffff16815260200190815260200160002054815260200190815260200160002060020154604051808381526020018281526020019250505060405180910390a45050617a0d565b6172bd7fb814d31f5d4c16fb9afbfdd58f41820fd86d8a1f15872a35ece725947e6bf4d060010261176c565b6172e97fb366b138fa3b2adb812947f61c94100618afa37db197508b8bc40683754cb89660010261176c565b6173157f2c41579efb91bede4cde39628a81b8e32f557a06b6a2e1e7e121d84b6935505360010261176c565b6000607960000160009054906101000a900466ffffffffffffff1666ffffffffffffff1690506173677f179cb88c29a4b8ef41997ec0d7013f70bf371f9254f4fc8351fc8d98c9695c7d60010261176c565b6173937f6c7fc01b48bd284ce0b708c4bb14c0d3ef0955adf8f22f727b72044b96d5944060010261176c565b60008573ffffffffffffffffffffffffffffffffffffffff1690506173da7f6a37003f399b3b8ef4dc441edc721a30f889c4fb9c4cbbb411ae1d88df98721560010261176c565b6174067f45641ea4c00559d21e8cdd2ed7525771e18a1aeacc30943b2506118eae0ab95460010261176c565b60a0826bffffffffffffffffffffffff169060020a028117905061744c7f3e03a58b2484027ab7b8b05310478a420c2720e93ea7d5c30abfa77b1113b83760010261176c565b6174787f5610aad962748451d4f25aded5abd4545aefbdf10ff310b6d2bf9eb0121dfec060010261176c565b6000607e600087815260200190815260200160002054607a60039054906101000a90046fffffffffffffffffffffffffffffffff166fffffffffffffffffffffffffffffffff160190506174ee7f0a21e934f356f99579396bfb18e15bdd9ee136e2bdb0c1588f7ac2d546fe340060010261176c565b61751a7fc6267d462683b71d4858e3ab60fa8ace6c774ae5e50c1d96e7288d2e2554844960010261176c565b6000858201905061754d7f9933d74d097aff5df0d107d697a6911d45cc5277246ed94c4d6d83e1050cf70d60010261176c565b6175797f5475417452ad8c3e75fcd672ba0b0f3721d7d82c4c566c6d66b92c45d227dc5460010261176c565b60606040519081016040528084815260200183815260200182815250607c6000866bffffffffffffffffffffffff1681526020019081526020016000206000820151816000015560208201518160010155604082015181600201559050506176037f5951fe4093bbbc465837b768a2390c8a9fbcb98c3b6805420845158ea62870cd60010261176c565b61762f7f2c92c6449cfade96ebc3008b98864af7fe05e77faedb12b95eb18ca6d2390aed60010261176c565b85608260008981526020019081526020016000206000828254019250508190555061767c7fa24e08921b6c19c081a279f7fd80a189e7ddfdbc3dde71f091c006e1e40d5e8960010261176c565b6176a87fb9706918c83c962b761f65db4348f28a1aaa5344e33ce0c8a8dbad711fe3030760010261176c565b608060008881526020019081526020016000208890806001815401808255809150509060018203906000526020600020016000909192909190916101000a81548173ffffffffffffffffffffffffffffffffffffffff021916908373ffffffffffffffffffffffffffffffffffffffff1602179055505061774b7fb7dbeff4a59c271b7ce0e0f67340b40771e439922a468388c671ac42eb370d8360010261176c565b6177777fb4180a0cc81b1ba340fab952368844081afdafd580cf128a21e27c3f5809c33660010261176c565b607960000160009054906101000a900466ffffffffffffff1666ffffffffffffff16607f600089815260200190815260200160002060008a73ffffffffffffffffffffffffffffffffffffffff1673ffffffffffffffffffffffffffffffffffffffff168152602001908152602001600020819055506178197fb2b98fae8a7bade14ba8d9eaa64606b9ab04a73ffad5ddf1f553ba02e96fb12a60010261176c565b6178457ff5153cdbe8366d96a58b2151ccacdc80510685a5e0f2f031a257580bf654f74a60010261176c565b617878846bffffffffffffffffffffffff16607d60008a815260200190815260200160002061c62490919063ffffffff16565b6178a47fb415912d3fea91b5f4c17ee3a8ac7667da4901e870c5dfb509e141d8342dd6d360010261176c565b6178d07fd3fafa6762968c1bc7df1988142b74a15252d3b157ba4c57dfa893d812e668c860010261176c565b80607e6000898152602001908152602001600020819055506179147f97367abec8482e9e3592b8ef912f0e5b6d9fbe32ef94d8edfa4adf37aad37efa60010261176c565b6179407f5de32c9473ec55f83bf246d78f12fd508ebbac96154f5362de89998f6df41abf60010261176c565b8773ffffffffffffffffffffffffffffffffffffffff16846bffffffffffffffffffffffff16887f7ef38c92f7959fa67fe5cd29a3986c48d410d61218c99b6901c9cc81d246cfec8585604051808381526020018281526020019250505060405180910390a46179d27fab6fd99882dc99305c9e7aa3df4bc3415d6278b1209971241c7d679570c5932a60010261176c565b6179fe7ff9c6b849998a785aa1b465d2b5bf81a3bc769b62f790010dd5be5685906f166460010261176c565b617a08607961c6d7565b505050505b617a397f656925be81ad07f711fb2853f2d96882edd15b630070f5c55b9dfddd111def1860010261176c565b617a657f3bd8fdbe6606aebfa1a5081203b96bad66837cb3a411f1c5e80eada525d9dcd760010261176c565b600190509392505050565b6000617a9e7fa53b31889d5006b4901ceb793559ba11b86794ec37414fd5e2572de69058b50b60010261c285565b617aca7f1e389c3a59451a90cc38a462ab78e585703d049faa682b547afe962dd782d9fb60010261c285565b617af67f91294d2a3cd14ca48c2829d94278cbbc8da604b303f69291b78cc7a96433fb6b60010261c285565b617b028260000161c778565b9050919050565b600080617b387f5f3b59e3c916b2543b8fffcf8da92609dd25f2f134ed297e6a84cdfbccce8cb360010261441a565b617b647fd49dfa9318ba827faf2d1e1e62ca914df5a65d57a8f0593975e869ed153645da60010261441a565b617b907fad03c7523c09ddff4260081fca66e652656eecf7eaa3631f3a87756d6a51850960010261441a565b617bbc7f96b7243fbf7e39b4dbafba3bea40cf65b2a8a2981e4d691f45fbe8051b4c176860010261441a565b606654856074540111151515617c60576040517f08c379a00000000000000000000000000000000000000000000000000000000081526004018080602001828103825260268152602001807f476c757761536176696e674163636f756e743a2042756467657420697320657881526020017f636565646564000000000000000000000000000000000000000000000000000081525060400191505060405180910390fd5b617c8c7f3d79eb7efb2ac22f905fa98d8077cf7a5288b224bce8b661262d0341c1c0215760010261441a565b617cb87f9d61ecf923815bcd30b35fff050fb785d71a81e57129e1e62a28b4d244cfe30f60010261441a565b617ce47f4d1da28b6ff493badbc82631932ee6faaa25c42646bf1875efa2b7b47d4eb2ae60010261441a565b617d107f77bc20e82f623d7791695aa51b5575507239779965e590de6f295de80778e8a060010261441a565b600073ffffffffffffffffffffffffffffffffffffffff168673ffffffffffffffffffffffffffffffffffffffff1614151515617ddb576040517f08c379a00000000000000000000000000000000000000000000000000000000081526004018080602001828103825260388152602001807f476c757761536176696e674163636f756e743a20536176696e67206f776e657281526020017f2061646472657373206d75737420626520646566696e6564000000000000000081525060400191505060405180910390fd5b617e077f56ca7feaf246e3771784b54fb54b9b6ee10514bd64de526aa51dbeefc9deb43960010261441a565b617e337f2a0d22da8e991b89711d6308a38079ef47c8c8603cf616f9dca6f6b10f70d74560010261441a565b617e5f7fba7a3f687c5ae1aaa5f691e8acfcb9803f3ef694369f5a01311767eee489b3d160010261441a565b617e8b7fbbe611060714f972353adf43ebc7841f7c51d4d2e87b95822fa5e43804fdf49b60010261441a565b6000607660008873ffffffffffffffffffffffffffffffffffffffff1673ffffffffffffffffffffffffffffffffffffffff16815260200190815260200160002060030154141515617f91576040517f08c379a00000000000000000000000000000000000000000000000000000000081526004018080602001828103825260478152602001807f476c757761536176696e674163636f756e743a2045616368206164647265737381526020017f2073686f756c642068617665206f6e6c79203120536176696e67206163636f7581526020017f6e74206f6e6c790000000000000000000000000000000000000000000000000081525060600191505060405180910390fd5b617fbd7fd9aa07dc2fdf21ff6d9dc6035d294b67f7ea05f7a7dd392f0abfa9f67bb0707e60010261441a565b617fe97fe6d8e582b5ccead73f67eb90099d5f256656f549eea1c09bc3c6a7e73e07cc7460010261441a565b6180157f75916e65316b56c0aa0ba683d2eeb9ff63a9874c7c81211acbef5d5a0447246660010261441a565b6180417ff4b56094aaf5ac2cb270e6c04b80589fb528196f00ddb9d25f4bea209e89cd1d60010261441a565b600015156078846040518082805190602001908083835b60208310151561807d5780518252602082019150602081019050602083039250618058565b6001836020036101000a038019825116818451168082178552505050505050905001915050908152602001604051809103902060009054906101000a900460ff16151514151561815b576040517f08c379a00000000000000000000000000000000000000000000000000000000081526004018080602001828103825260318152602001807f476c757761536176696e674163636f756e743a204964656e746974792068617381526020017f6820697320616c7265616479207573656400000000000000000000000000000081525060400191505060405180910390fd5b6181877fe2064ecda43658bce43fbf2e4a4650e0b2419dd87d1c429c69e406fa1d96cb2260010261441a565b6181b37f47037449925b55103db30c98d27d8ca0b7885ab667b5b16d296ae241e8ac9ff160010261441a565b6181df7fb1984e31da7081381a9af027766a1299f9dd9601711d4803eda543fe2a4b9c1760010261441a565b61820b7f8520bbdc1065c48f0f20efc1f79dd197d8ca4e1eccca4a47e190ce4a84b9b18960010261441a565b607560009054906101000a900473ffffffffffffffffffffffffffffffffffffffff1673ffffffffffffffffffffffffffffffffffffffff166323b872dd8730886040518463ffffffff167c0100000000000000000000000000000000000000000000000000000000028152600401808473ffffffffffffffffffffffffffffffffffffffff1673ffffffffffffffffffffffffffffffffffffffff1681526020018373ffffffffffffffffffffffffffffffffffffffff1673ffffffffffffffffffffffffffffffffffffffff1681526020018281526020019350505050602060405180830381600087803b15801561830457600080fd5b505af1158015618318573d6000803e3d6000fd5b505050506040513d602081101561832e57600080fd5b810190808051906020019092919050505015156183ff576040517f08c379a00000000000000000000000000000000000000000000000000000000081526004018080602001828103825260488152602001807f476c757761536176696e674163636f756e743a20556e61626c6520746f20736581526020017f6e6420616d6f756e7420746f206465706f73697420746f206120536176696e6781526020017f204163636f756e7400000000000000000000000000000000000000000000000081525060600191505060405180910390fd5b61842b7fda5a49efd6a9275f6de973b1973d9652d06f46ebce2a10ac9f6b0d32187fd89660010261441a565b6184577f6311c1acba6ba6a0ac8ef65fbb928cf10b9a8c602290410b2b2f9a2732c6f99060010261441a565b6184837f29f579870e139648b7a4dab6da4a649a60074ddd1a90f31bc8e9755a0207163a60010261441a565b600073__$8ad4cadfbfab443c6ed09b45690dcdfb0d$__6384cefce086308a6040518463ffffffff167c0100000000000000000000000000000000000000000000000000000000028152600401808481526020018373ffffffffffffffffffffffffffffffffffffffff1673ffffffffffffffffffffffffffffffffffffffff1681526020018273ffffffffffffffffffffffffffffffffffffffff1673ffffffffffffffffffffffffffffffffffffffff168152602001935050505060206040518083038186803b15801561855857600080fd5b505af415801561856c573d6000803e3d6000fd5b505050506040513d602081101561858257600080fd5b810190808051906020019092919050505090506185c17f4eb49c94e8eb0a6e62e632a2704874592daa97ddf77837ff3be43f1d3863c1e460010261441a565b6185ed7f0a44630ebdb1427c3229ac6c5f57a4a4edafdceea23d811259a9fb17c8b92b1b60010261441a565b600073__$8ad4cadfbfab443c6ed09b45690dcdfb0d$__63fd96809e606a6002015489308c6040518563ffffffff167c0100000000000000000000000000000000000000000000000000000000028152600401808581526020018481526020018373ffffffffffffffffffffffffffffffffffffffff1673ffffffffffffffffffffffffffffffffffffffff1681526020018273ffffffffffffffffffffffffffffffffffffffff1673ffffffffffffffffffffffffffffffffffffffff16815260200194505050505060206040518083038186803b1580156186cf57600080fd5b505af41580156186e3573d6000803e3d6000fd5b505050506040513d60208110156186f957600080fd5b810190808051906020019092919050505090506187387ffb2ef150308673efcfec895ad27adddb42399e62d460c309faf8660c51aed8a560010261441a565b6187647f678cbef0a8f5b00b9167a77b638210e4263a477281a3bfb60be794624493b7a660010261441a565b61010060405190810160405280606a6002015481526020018381526020018973ffffffffffffffffffffffffffffffffffffffff16815260200187815260200188815260200160008152602001600160048111156187be57fe5b815260200186815250607660008a73ffffffffffffffffffffffffffffffffffffffff1673ffffffffffffffffffffffffffffffffffffffff168152602001908152602001600020600082015181600001556020820151816001015560408201518160020160006101000a81548173ffffffffffffffffffffffffffffffffffffffff021916908373ffffffffffffffffffffffffffffffffffffffff160217905550606082015181600301556080820151816004015560a0820151816005015560c08201518160060160006101000a81548160ff021916908360048111156188a357fe5b021790555060e08201518160070190805190602001906188c492919061e97e565b509050506188f47fd4db1d6afaad34c1c6f662aac9db2390c4631d478c522cf973cff17a04eb805160010261441a565b6189207fdd87886c8f8c5b4a561f66f9ec48c4acb3f5e7b3c02ae5a1bd4ede447edb2fd860010261441a565b60a060405190810160405280606e600201548152602001606a6002015481526020018973ffffffffffffffffffffffffffffffffffffffff1681526020018781526020018881525060776000838152602001908152602001600020600082015181600001556020820151816001015560408201518160020160006101000a81548173ffffffffffffffffffffffffffffffffffffffff021916908373ffffffffffffffffffffffffffffffffffffffff1602179055506060820151816003015560808201518160040155905050618a197f1bec6e70f80774a59e8920f85e6096fee2a3ccc9c1479adbee383a62e8bf40e660010261441a565b618a457f09ff8cc7c7ada2ed620b18b5faa8174ed9e7f22bb687c70c5d5e5b6dabe461dc60010261441a565b60016078866040518082805190602001908083835b602083101515618a7f5780518252602082019150602081019050602083039250618a5a565b6001836020036101000a038019825116818451168082178552505050505050905001915050908152602001604051809103902060006101000a81548160ff021916908315150217905550618af57f97cd7f30a09b43cd7d7a9f14aee34c151599c75b5144e6d674cb460f5446801160010261441a565b618b217fffce348fe537e0cd9e0b52731bef05907ec42731a536db750a3c4f13c7e3b47260010261441a565b618b3582606a61c80d90919063ffffffff16565b618b617fdb06ad4b8d8a2c29c57272e7083b68d2a85839309e07e256c76b304dea8a290760010261441a565b618b8d7f226a159d817af4cb8d5037d5500dc8941f5825535dc69bcd5223303a2c4627c060010261441a565b618ba181606e61c80d90919063ffffffff16565b618bcd7f39f16de9bebcb6aa77e1655e284a5b56ac70a2fcee02d102fd7f1edd63b7c70860010261441a565b618bf97f5e764c4e90e7ed8761088ee9d398f4ea3c6625b44e345ffcdc2d294c29b15eaa60010261441a565b60698890806001815401808255809150509060018203906000526020600020016000909192909190916101000a81548173ffffffffffffffffffffffffffffffffffffffff021916908373ffffffffffffffffffffffffffffffffffffffff16021790555050618c8b7fadd59be1989bbc100ed9d826c4fb988b57613ef4a2cfcf4d6866da76fadb438160010261441a565b618cb77f97f860c0d84a24afae27959165d108e05ce63a833dfaab91558b0840a03689c260010261441a565b86607360008282540192505081905550618cf37fdc23ffba0b8755c6d937af1ab11038c9c4a0fb577c7fdd698a90779864ffa26460010261441a565b618d1f7fc8b09d5f08318382233330a17c6e8f45168ffb1c2ec23b8d892a7949cf706ef860010261441a565b86607460008282540192505081905550618d5b7ffbd63849cd7cdbabcaf8c5c58488d84a00e9d9ce6a392a18547fc854301f1a6c60010261441a565b618d877fec86d0b9e3adb27e547bfe6982a49162382f32d9e0a321f344a5cd9e58a47b8760010261441a565b8773ffffffffffffffffffffffffffffffffffffffff16827fae420988b408fa1c16c342c73f56ece9307da09db1ac6b36fc8d9ff61acaa9a260405160405180910390a3618df77f407cf8a87c8b060d5069571ffb92713debcd25c6fff93e020e7cce034cc4609060010261441a565b618e237f890a96b98cc050681de7722af516aa2ed7b59f86d1b4523d26e5dfd288f6840d60010261441a565b8773ffffffffffffffffffffffffffffffffffffffff16817f2e2791fe9306933f4d6468aab16a0195b3ab2b342887b2e1be4aa35f56832297896040518082815260200191505060405180910390a3618e9e7ff26286e08f13ffacf5d0b8945f5ad8ee66623b92e91e9b9e6e2ae2685174bf2d60010261441a565b618eca7f7bb9c928c3ead4140e18eeda64293a79758d0c6862d6d2bb7fbb9163369bca9e60010261441a565b818193509350505094509492505050565b6000618f097fa6df09688a4556c7d0ddda638cdc6c4be3f54a1562b6556c704a1151a59f51b360010261533f565b618f357f9c9fbfd717d8dd01b6f6d343c06d5831407925d9079391b9c4b46f28be3049a760010261533f565b618f617fab54a3e2ff4e656505e71fbbf5f7f72002a6ea83477a899d8ce6e776e675019760010261533f565b618f8d7faaf351134d2239ae83e11d26c9067378253c609eb570f8ae74c28ed36c050dbc60010261533f565b618f9d618f98615e28565b6121ac565b1515619011576040517f08c379a00000000000000000000000000000000000000000000000000000000081526004018080602001828103825260188152602001807f5265737472696374656420746f204f70657261746f72732e000000000000000081525060200191505060405180910390fd5b61903d7f6c875126be1726ab2fc657648964c34d167c9eea09e982826bf5fe2b9ca2d32460010261533f565b6190697f62099aa8d5be0c25cfa94c8b816435976ac44df70e57c0cd61c9aa5a6e8ea50760010261533f565b6190957f6f2a40a642b8505b64d55c106502289b831617a327f48a5304fbf5ac6ecb20686001026121a9565b6190c17f8500a9e4fc4b9b3b89306ac2352ef2e779b3117b09ed076a56e5023356ba26fb6001026121a9565b6190ed7f8d699fbb555089289b574a77f3e959dac58459f1256ce603371095a6431dea2c6001026121a9565b60006077600084815260200190815260200160002090506191307f43a6edab168f6163758215350d38ecba2318dc3dfe37f21554317bc9fde29c636001026121a9565b61915c7f1c936b58a780d6df8d6a36740e9567a53ef3006cd36cc151c47b660b9dec57696001026121a9565b6191887f8b0fb230919a0097f501a69a260dc5174fa7a8fe3cdc0b0132d393f7d63f610e6001026121a9565b6000816003015411151561922a576040517f08c379a00000000000000000000000000000000000000000000000000000000081526004018080602001828103825260288152602001807f476c7577615072697a65447261773a20546865206465706f736974206973206e81526020017f6f7420666f756e6400000000000000000000000000000000000000000000000081525060400191505060405180910390fd5b6192567fe840861fbc2f535c5b7cc529c24d08ec62f6c96e1fa479ba6e3b0be1ec59e4cf6001026121a9565b6192827fb3d658da1354ab726d481db487cfbb93449a1e4a1ac798753b6dc10dbf7f2c826001026121a9565b6192ae7fb295d8042ea636432b0d6b8fae098d9e074905ab5e0ffb12bdf403f66f0985136001026121a9565b6192ed8160020160009054906101000a900473ffffffffffffffffffffffffffffffffffffffff1682600301546192e88460040154616bf1565b61c933565b5061931a7f37e7a2243cb9b60fae59f298ac5e410b9ee3da01b60e269df0d473f1ade8afee6001026121a9565b6193467fc6480e821c688e22d3e82c2b7b940c0be7c61e0e315527b0e86e1601ca34c8ea6001026121a9565b6001915050919050565b6000806000806193827fdb123ab0412f314d23ae0d9f90f89f2e10a6e41033d4eeb7606482be127dd0d860010261176c565b6193ae7f9f5fe2723276cdcdef377295aec0c8c49e37e9e7bbb68690a4aa2dbebb6cafd760010261176c565b6193da7f3f5f81676e5f5ee30fcde939ff01b915edc3ea103aa9d270ffb09a2b7784a3be60010261176c565b6000607c6000878152602001908152602001600020905061941d7fc47483b50fffcdbc077fcfb6da84b9b011b79f95d813fbc6529d027f58dfa5d060010261176c565b6194497fcbfc3d9075fed53ed752549af9f9c792cd822a108e157857ad73c097403e249960010261176c565b619456816000015461c52e565b809550819650505061948a7f11957a4468cda2850e8275efbbcafec715df25669241cca53d605f7ca52bd23860010261176c565b6194b67f6d94e0b2ed13a9c52db7bddd9bbd1c479a4ffd01ade8bded8f11991eee5b546560010261176c565b806001015492506194e97fdede6b286c1629a1780a72f861df93564d8c27f9a5decd928f33b7c1282c0e0560010261176c565b6195157f3155d3f0fbcdb604e7ed1c06c1a6985d70c5b46a107c68f130b32bf58b18d40a60010261176c565b80600201549150509193509193565b6000803090506000813b9050600081149250505090565b600060019054906101000a900460ff168061955a5750619559619524565b5b8061957157506000809054906101000a900460ff16155b151561960b576040517f08c379a000000000000000000000000000000000000000000000000000000000815260040180806020018281038252602e8152602001807f436f6e747261637420696e7374616e63652068617320616c726561647920626581526020017f656e20696e697469616c697a656400000000000000000000000000000000000081525060400191505060405180910390fd5b60008060019054906101000a900460ff16159050801561965b576001600060016101000a81548160ff02191690831515021790555060016000806101000a81548160ff0219169083151502179055505b6196877ff0aa412c15248e119898b204c4e61fe8545148d246900eab5d2d4935c07412ff60010261533f565b6196b37f749f45736a7129ece2658469b3319f2e622d33e586957799cd25401c138bb38860010261533f565b6196df7f2a7d92de05cef459bd11f3305ba8a69775b46a626ca0f388c74f01931f42fe7960010261533f565b61972260405180807f4f50455241544f5200000000000000000000000000000000000000000000000081525060080190506040518091039020600060010261c9d5565b61974e7f66c7989d461c7892192c9d43ba8e5c17cf7cdb6479a45459c88b67afa2c3bf1560010261533f565b61977a7fbc1ce8df131d361404ea3515090ceb64893332f100e2a78b56e25ac01e59838660010261533f565b61978860006001028361ca78565b6197b47fb40052489e624be3584cada070d1288d3b59af32bcb85d79069b199ae0c8ef8660010261533f565b6197e07f93b13d67ca93e2d6d0e85250e2f37af0ea71414315423037e0f7e98439861d0260010261533f565b61981f60405180807f4f50455241544f52000000000000000000000000000000000000000000000000815250600801905060405180910390208361ca78565b80156198405760008060016101000a81548160ff0219169083151502179055505b5050565b600060019054906101000a900460ff16806198635750619862619524565b5b8061987a57506000809054906101000a900460ff16155b1515619914576040517f08c379a000000000000000000000000000000000000000000000000000000000815260040180806020018281038252602e8152602001807f436f6e747261637420696e7374616e63652068617320616c726561647920626581526020017f656e20696e697469616c697a656400000000000000000000000000000000000081525060400191505060405180910390fd5b60008060019054906101000a900460ff161590508015619964576001600060016101000a81548160ff02191690831515021790555060016000806101000a81548160ff0219169083151502179055505b6199907f5247f7d841df0843e18d6b6f7e110fd5f986dd39a07d31c31fb15560892f727760010261441a565b6199bc7f0c2836b0d8550d9871d3341b1c57b567e7894eabc6baffd5360ee4991548d76c60010261441a565b6199e87f5b01ada847f451556245bf3f8f6bc187ef2106fd842308ca450d082a7b982aed60010261441a565b85607560006101000a81548173ffffffffffffffffffffffffffffffffffffffff021916908373ffffffffffffffffffffffffffffffffffffffff160217905550619a557f1eb6e1794733839a14da6813ec801583e6e90fdb9ecd6e82cc2fba52cb26a2a860010261441a565b619a817fb8a8fa7f6bfbde3209182d74c662e59843402c8a3dbd090be6eb8fb92e71f6e260010261441a565b84607260006101000a81548163ffffffff021916908363ffffffff160217905550619ace7fc53f343be512e24994f1aeac1e352985d5d8e724815f54040877657b85f58d1160010261441a565b619afa7f39c91d59dddf8209808fc30dc22fa1b567e9905ce76ae4cb1c0000fac58cbcba60010261441a565b83607260046101000a81548163ffffffff021916908363ffffffff160217905550619b477fd6235234bc80c2ecbb2f001f5b1ed160d537265248ffa188ee55337d4481d49860010261441a565b619b737fafd7098ad09f2210cd7a5ae85e81f0bd54af277d7be2bba45f0466aefba833b360010261441a565b82606560006101000a81548167ffffffffffffffff021916908367ffffffffffffffff160217905550619bc87f0e3ec2e408e459836d63daab9ac577d2058a0767bc7baf8cd396fad52443e3b060010261441a565b619bf47f37387acd809d352641b7569dfef82f701acfd5f0d72a16ba1141107c83490eb960010261441a565b81606681905550619c277ff68b4c19b4501e8a26375f56e966ffb7df406897060027268132d0e0b44afcf960010261441a565b619c537fed2d60428ae4063c172f0be69d04d8d995e8d42e9262a17f39b8521592077fdd60010261441a565b60606040519081016040528060018152602001600181526020016000815250606a600082015181600101556020820151816002015560408201518160030155905050619cc17fa51966f4ef61298486064feec37b41261c7cde60fbf2a31ed4fc6d6588af4e4260010261441a565b619ced7fff205bcb141cdd325d7b666a79cbd9127daf9157a3cc276e1f5106bb351b8b0b60010261441a565b60606040519081016040528060018152602001600181526020016000815250606e6000820151816001015560208201518160020155604082015181600301559050508015619d505760008060016101000a81548160ff0219169083151502179055505b505050505050565b600060019054906101000a900460ff1680619d775750619d76619524565b5b80619d8e57506000809054906101000a900460ff16155b1515619e28576040517f08c379a000000000000000000000000000000000000000000000000000000000815260040180806020018281038252602e8152602001807f436f6e747261637420696e7374616e63652068617320616c726561647920626581526020017f656e20696e697469616c697a656400000000000000000000000000000000000081525060400191505060405180910390fd5b60008060019054906101000a900460ff161590508015619e78576001600060016101000a81548160ff02191690831515021790555060016000806101000a81548160ff0219169083151502179055505b619ea47facd3b85aa2178b6bf58672aeebb3e5eaed5465111139e84236cc85b17e6b3e3360010261176c565b619ed07fee972ed327be3700523b90ab43f9df9ad8e1bc4303491deca369071ba51185bb60010261176c565b619efc7f0f792ca98faf12cee717ea77443135f487f51a9492f24aea27239443b7ae4d1a60010261176c565b83607a60016101000a81548160ff021916908360ff160217905550619f437fe6a1d6b495bc012bee9149e848c1849ef375513e748396fed21fd64e834e036a60010261176c565b619f6f7f55b13f8f1b1aa68754a7c043413c84a1b850af16f6172b3f291081105ccb3c8360010261176c565b82607a60026101000a81548160ff021916908360ff160217905550619fb67fa9885a6b3e90a9a1714a653ded44880bc78d10ddf2e88d1a1bb8b35dfcad702760010261176c565b619fe27fc7ae554b93ac90e901f133990f86ae8233d552ee1a5bec052f5703435a313a2660010261176c565b81607a60036101000a8154816fffffffffffffffffffffffffffffffff02191690836fffffffffffffffffffffffffffffffff16021790555061a0477f63c1755e7549db88526cda16eb8580d55aa2cc44b10d0f803ba36f0b3bb58acf60010261176c565b61a0737f2017fc10d7dc299cfc816e02f729aee770380b9468e264d122778cf99ceef0a360010261176c565b602060405190810160405280600166ffffffffffffff16815250607960008201518160000160006101000a81548166ffffffffffffff021916908366ffffffffffffff160217905550905050801561a0e05760008060016101000a81548160ff0219169083151502179055505b50505050565b600061a1147f2459bffe89119e7f765dba0c69d9f56e9c5a84cf114d713c55cc1d6103944cad60010261176c565b61a1407f6a1eba7c98dedf3c83fbdd13f534dfae6e1555b1abc3827f08a9dc7d0bcb4a6d60010261176c565b61a16c7fedbf2e8ec86acd3317cbe2e59954608482107869daad39317d29bb832ec566b560010261176c565b61a1987f1e4c5363833c25365820aa63a423b8fe47c99d9a4612ad17829d7daf3df8876560010261176c565b6000608160008581526020019081526020016000205414151561a249576040517f08c379a00000000000000000000000000000000000000000000000000000000081526004018080602001828103825260268152602001807f476c7577615072697a65447261773a207468652064726177206861732062656581526020017f6e206d616465000000000000000000000000000000000000000000000000000081525060400191505060405180910390fd5b61a2757f648787b6c7dff445e5877e30c431ead9dd6aa76466c6f6011f5f0c4c2cdac2b860010261176c565b61a2a17fa2403f20be91a7804397e7ab7bc81e5fc9bc0618a4fcced4ff51fa86c96e979460010261176c565b61a2cd7f01f1db6c9eaeeed975bc08895d49484d16b7fafc9293c2abec87618c7b0847b660010261176c565b60008061a2d9856125e1565b9150915061a3097fb552db9bdb93afb63a00691fb07e94c940edec38a20f346152b9611a90c325e160010261176c565b61a3357f9ae4b6334e7aec4e0e41059fc0ac9236c05d76dc68dbd077b1c40d29966471b360010261176c565b61a34082828661cb0a565b608160008781526020019081526020016000208190555061a3837fe4e823fd9ceebedc9d0b8b348c80a7414b6f0e165a02fabd9cd5a8e36d48819960010261176c565b61a3af7fe252ba52da0f2b20c29f245fb298abc21c8250b67427122e5966ad8a5dbe66fc60010261176c565b60816000868152602001908152602001600020549250505092915050565b600061a3fb7fe4a5bd5803a029419c876c375b9e5f824f46c7fce5e01c37a0d004a6547762b660010261441a565b61a4277fec4ae7188cbd48a81c3ef973adfc3d60726642d39b3f613816c1dbc8438b92fd60010261441a565b61a4537f7d806b11ed7aa8a8004d5bf6069d3c493eb9e5fc0d41b953fcd9ccfe7996a72b60010261441a565b61a47f7f667bfe2cd3599f95f95acc9b487b7c6bf79d4be81e953aee2a3ef3af81d994c460010261441a565b60665483607454011115151561a523576040517f08c379a00000000000000000000000000000000000000000000000000000000081526004018080602001828103825260268152602001807f476c757761536176696e674163636f756e743a2042756467657420697320657881526020017f636565646564000000000000000000000000000000000000000000000000000081525060400191505060405180910390fd5b61a54f7fc72a0c558a46349161888d2b06fb31e1b14b10bc5f3a8a56cf573c58890fce4960010261441a565b61a57b7f131210454d8d5d25dbea0d2156a9399cd9f367e741b110e1720aad6b95ce11b160010261441a565b61a5a77f0afb8d2a042420390505ba73febdcad46b51fbc5787f299b0a46383a3b57742160010261441a565b6000607660008673ffffffffffffffffffffffffffffffffffffffff1673ffffffffffffffffffffffffffffffffffffffff168152602001908152602001600020905061a6167f9c8850ecad6c2fa7acfe211222b48237be0d9bcbad3e60452d68d3be6469c68060010261441a565b61a6427f275b31574706d124196f93de6704fb1603f6b53479a24265557836230159acab60010261441a565b61a66e7f4a4b478c226922878711c7d3d5dbba490fcbb641caca51c4fbf828b8c180916960010261441a565b6000816003015411151561a710576040517f08c379a00000000000000000000000000000000000000000000000000000000081526004018080602001828103825260258152602001807f476c757761536176696e674163636f756e743a204163636f756e74206e6f742081526020017f666f756e6400000000000000000000000000000000000000000000000000000081525060400191505060405180910390fd5b61a73c7f12709aa023c7c1437d0f428fb874dd62cfefa6a94160a9856ea7be02ead17d7e60010261441a565b61a7687f78d63f3dc0fcd461746a4538a7215ae972ade77c664b0c370d1c0e5b3e89e9ee60010261441a565b61a7947f7eef7889d9f5095cb7e9a72d488afd4982f8a107a26a57d4132fc1138564e9a260010261441a565b61a7c07f137d930a46031d795d8f9aa019aecef5a4cf0f4848fefcb283021777f36112e560010261441a565b607560009054906101000a900473ffffffffffffffffffffffffffffffffffffffff1673ffffffffffffffffffffffffffffffffffffffff166323b872dd8630876040518463ffffffff167c0100000000000000000000000000000000000000000000000000000000028152600401808473ffffffffffffffffffffffffffffffffffffffff1673ffffffffffffffffffffffffffffffffffffffff1681526020018373ffffffffffffffffffffffffffffffffffffffff1673ffffffffffffffffffffffffffffffffffffffff1681526020018281526020019350505050602060405180830381600087803b15801561a8b957600080fd5b505af115801561a8cd573d6000803e3d6000fd5b505050506040513d602081101561a8e357600080fd5b8101908080519060200190929190505050151561a9b4576040517f08c379a00000000000000000000000000000000000000000000000000000000081526004018080602001828103825260488152602001807f476c757761536176696e674163636f756e743a20556e61626c6520746f20736581526020017f6e6420616d6f756e7420746f206465706f73697420746f206120536176696e6781526020017f204163636f756e7400000000000000000000000000000000000000000000000081525060600191505060405180910390fd5b61a9e07f71fe26de4629c37a91f07e0109231e3f5d5f40c733a94ba80f216582feb5f57f60010261441a565b61aa0c7f2be1e9e413be5f87fb4bcd889371137221512ffc62a817e7a77831f7c5e1ef3360010261441a565b61aa387f039a6ecff32526bdd163d41cb48a1505d8dc141b5e20faaceee4620ecf87ae0160010261441a565b83816004016000828254019250508190555061aa767fbbe5dde346889c369e578f8cdc186d6f451c6f33b7b578637b6d0f06c789206860010261441a565b61aaa27f66aba0f96d1f6792b608ae8d44fd94aa6faa338f3af52ab1d2e642911c3b3ae360010261441a565b8360736000828254019250508190555061aade7f9fc883e07a34a6af8ee1d8f10a216208ce6670a8e9c002d2ec0cb85ec87cfc8060010261441a565b61ab0a7f8d7b241c685f0f33634fa18a1c4d71dcc2cee767c48cc12540bdb18e9b25fa8060010261441a565b8360746000828254019250508190555061ab467f1669a514ac2f181652dcef1cb8fca3764afbcfbb250d37d2ad92a5ab5db0836260010261441a565b61ab727f3aee7774f03b22ab36fa3dd1cc41b17b2017c3bb5f2c3b82dc195c9dd7a3175960010261441a565b600073__$8ad4cadfbfab443c6ed09b45690dcdfb0d$__63fd96809e836000015487308a6040518563ffffffff167c0100000000000000000000000000000000000000000000000000000000028152600401808581526020018481526020018373ffffffffffffffffffffffffffffffffffffffff1673ffffffffffffffffffffffffffffffffffffffff1681526020018273ffffffffffffffffffffffffffffffffffffffff1673ffffffffffffffffffffffffffffffffffffffff16815260200194505050505060206040518083038186803b15801561ac5357600080fd5b505af415801561ac67573d6000803e3d6000fd5b505050506040513d602081101561ac7d57600080fd5b8101908080519060200190929190505050905061acbc7f87a4f3ad8a6c6df74e5096e6ae54b083ea4b142c7efc42d6e46556132a9ecaf560010261441a565b61ace87fe6fa6493778d9eb8ac420addc23646359bb9ded8df6dcb8dc545c8ea8f010a2760010261441a565b60a060405190810160405280606e600201548152602001836000015481526020018773ffffffffffffffffffffffffffffffffffffffff1681526020018581526020018681525060776000838152602001908152602001600020600082015181600001556020820151816001015560408201518160020160006101000a81548173ffffffffffffffffffffffffffffffffffffffff021916908373ffffffffffffffffffffffffffffffffffffffff160217905550606082015181600301556080820151816004015590505061ade07f26e1bab5fcfcdb48c3cf3321e63d31a3d0cc71de6dd1d2749d4a5104f097896360010261441a565b61ae0c7f549678919587eecbb3738c39ce427a024dca603d97dc926e6dae1f5c009a31d160010261441a565b61ae2081606e61c80d90919063ffffffff16565b61ae4c7f5d96cc8aefe6b902e1213d2fdbe6ce704d6f8f3afaa08ef5a85b5d71b7d3292360010261441a565b61ae787f29e10f06f32355d2e8b458d3934535f2dc9995b7a5744376568fabc1d34b795360010261441a565b8573ffffffffffffffffffffffffffffffffffffffff16817f2e2791fe9306933f4d6468aab16a0195b3ab2b342887b2e1be4aa35f56832297876040518082815260200191505060405180910390a361aef37ffe68b720a9443a5a2c983292cc9bbfe8f430da69cca5eb30ab5e4f1014ee97b160010261441a565b61af1f7f6d29a18058793c267023de1e500297a1b49839905f46fd7558628aa161970a6c60010261441a565b80925050509392505050565b600061af597ff6789f38822f0f7709e73fe18d4d4a826de151b932f5e3121a7a2526895b9a9e60010261441a565b61af857f9a31c02245f9b13d91f0a10f92916673be02a3e9f06985c3d3060627f1e7b51660010261441a565b61afb17f0dbb3f1c1696d9e69fee9d2bfab3db72a558cb6b5bd131112970592f1124772c60010261441a565b6000607660008573ffffffffffffffffffffffffffffffffffffffff1673ffffffffffffffffffffffffffffffffffffffff168152602001908152602001600020905061b0207f5123be82fcef626c66b2d27c4912c3197183b004d83422a5bdf859b93b1ee81a60010261441a565b61b04c7f8e5f5ca891d9b6bcaff16283e9830710c818cea7371a1f9bae8e914c0246cfc260010261441a565b61b0787f6da6846f465b43ddab256cc640e6369b76ad635e7879878dc95505bcb595b45260010261441a565b8281600401541015151561b11a576040517f08c379a000000000000000000000000000000000000000000000000000000000815260040180806020018281038252603c8152602001807f476c757761536176696e674163636f756e743a205769746864726177616c206181526020017f6d6f756e7420697320686967686572207468616e206465706f7369740000000081525060400191505060405180910390fd5b61b1467feec062d9b9710d0d119fdcd231962bd726210ffe0eeb4727b085520f3aca274060010261441a565b61b1727f41eee1c77d949007184c46444bc026aebd5dd923f0afcf6514b8d64de14bcb7460010261441a565b61b19e7fc1054bf4c62b8334811e3e63ec2e99f18396684dd6e5256ec1ff73276070659c60010261441a565b82816004016000828254039250508190555061b1dc7fc82241adfb74a23d91a327ab0893a9f1287553d6616b14dd2c828a2c2adfe9ca60010261441a565b61b2087f30fbc8688988fc240a9fc1c2a1e3c2a43c849c45e86515212e6a5d9bb26a572960010261441a565b8260736000828254039250508190555061b2447f4e49c2ccbabec259aec2ec8da81945dad6b263a6ece7af5dd40e7a6435a2d5cc60010261441a565b61b2707ff020a85bf3c444398da3b5e692275b36c2f73df41ee8abb71eb2aa6763e477eb60010261441a565b607560009054906101000a900473ffffffffffffffffffffffffffffffffffffffff1673ffffffffffffffffffffffffffffffffffffffff1663a9059cbb85856040518363ffffffff167c0100000000000000000000000000000000000000000000000000000000028152600401808373ffffffffffffffffffffffffffffffffffffffff1673ffffffffffffffffffffffffffffffffffffffff16815260200182815260200192505050602060405180830381600087803b15801561b33557600080fd5b505af115801561b349573d6000803e3d6000fd5b505050506040513d602081101561b35f57600080fd5b81019080805190602001909291905050505061b39d7f295d7cc9613a35bfc18cd0c00a28b299814364a6d1e975c6d52c9215e6b0dce160010261441a565b61b3c97faf646100ef7cea788bc31925539542be76919e1c20b75bee53adda3278c6ab9b60010261441a565b8373ffffffffffffffffffffffffffffffffffffffff167f884edad9ce6fa2440d8a54cc123490eb96d2768479d49ff9c7366125a9424364846040518082815260200191505060405180910390a261b4437f4809e4c5bbee64d565bce34b7be27581d0c606f40716a84a2a4d90f079e2478860010261441a565b61b46f7f8b177a8c52978e3be2e0c1e866cf5a08705f204fe91c7c0c4ed8cda8f785994a60010261441a565b806004015491505092915050565b600061b4ab7f189ab8eaa74c2615c2857ac5bb53a506349ed7538b5d79470312a75f13f5074e60010261176c565b61b4d77f297c5cf319c225c9574e70354f6700d43fb78d2d74a05d3a7b25d0b5cd16a7e060010261176c565b61b5037f597e009babec2198b8fb6e057ce187221d0fce8d2df989ee6af50601b0794d4660010261176c565b61b50b61e9fe565b61b5148361ccb2565b905061b5427f6961a5cd3fbf3f221c23b06fce2f8c03a5a0699e444c3bb1d6e30ead8031b8d260010261176c565b61b56e7f8ccc878bf9d982269fa37694a4ff183c7446c1e8265f9ff2511a714e59f34d8a60010261176c565b60006002905061b5a07fb63b2007fab96a7f8f7bcd67a8e6209f3a8efd6d255d25d3c2d265a489d8c61660010261176c565b61b5cc7f299e8cb5f707bdf46eb37fc86b1fe66ca486f6beb2e6a39d29526ac81168795460010261176c565b607a60019054906101000a900460ff1660ff16826060015160ff16108061b6305750607a60019054906101000a900460ff1660ff16826060015160ff1614801561b62f5750607a60029054906101000a900460ff1660ff16826080015160ff1611155b5b1561b6c25761b6617f4e3526a5ec0d2e2ef17b28b3f7760461efb7c77b5e3dd33f20cabd152109e61960010261176c565b61b68d7fbda5cdd89e443f8c167f2074cb4688f5d8a3f2b7d9e859c46347d960754330db60010261176c565b61b6b97f345c2c9cdd53c54cbe3edfc685d106face6af589b5ab00043fe3c1356e0d821c60010261176c565b6001905061b6ef565b61b6ee7f6886b35900fd1cf66053283b81765768704b0f280e386ed95023149d8c32b76360010261176c565b5b61b71b7fc82257c75446b8c65f5bcc626f18f0939ab33ff65a3c14da2a5623e5a053e9f360010261176c565b61b7477f6fa94063b270e56af575007f5ca76d745f51fac3ad447ab1666fcdeab9604ed960010261176c565b600073__$05084330c9bf728fdd5577c5afe72a471f$__6389807474846020015185600001516040518363ffffffff167c0100000000000000000000000000000000000000000000000000000000028152600401808360ff1660ff1681526020018261ffff1681526020019250505060206040518083038186803b15801561b7ce57600080fd5b505af415801561b7e2573d6000803e3d6000fd5b505050506040513d602081101561b7f857600080fd5b8101908080519060200190929190505050905061b8377ff7dafe165a358cf339b6e6d4ab621ba1d958c3447939e7c0c2a125c0a1f2ce3660010261176c565b61b8637ffb63bfece7fe46ba1648904756652835c0b7c283c004b3961e56bc9397ae768e60010261176c565b8060ff168360400151830160ff16111561bb305761b8a37f37addd99122e5219ab0853ea21d2bb16772d9e2676a0e57a5160a33acf3ddf2a60010261176c565b61b8cf7fa64edbafb6923bfbeea1b79e0e0495e0d8ec12b1d59eea08c98663de41db370e60010261176c565b61b8fb7fa3571bc3c95b7ad0e1d25788496010aa99a5aa662f9009ff66287f75c43c087560010261176c565b600c836020015160ff1614151561b9ae5761b9387ffa0cc2e526f71ec9e643cf9b66913b3b3d3db9be295e0473fb8a5581bd56927360010261176c565b61b9647f6b212456cf3c223f60a3b9baa512854625eb50105257f039da3ad0a1c75517e160010261176c565b61b9907f1dc42d98ee31a0cca0fbc3396ec55aa52ba0ced40848fc660c278909f19f75ad60010261176c565b6001836020018181510191509060ff16908160ff168152505061bab9565b61b9da7f6b773ee8d48c2106f48f9133d52489f779cffa6376fe5390dc17399dda9f84bf60010261176c565b61ba067f962d3342e5d109a8ef3fea38bc40c408b4160e40ebf4d076ef5b6e30f2be0cac60010261176c565b61ba327f69c65038951286b56563e73c06fc646d6a81ca63740333718b0b93568e3eaee860010261176c565b6001836000018181510191509061ffff16908161ffff168152505061ba797f4401730427e0bfb946676d7db89eb51003b36e3cbfe4a86f912b9468064d3b5d60010261176c565b61baa57f402c6890a1d6b644eb43eb24b3fbfa2b79dafc1655cab205fff6a54fe109c22660010261176c565b6001836020019060ff16908160ff16815250505b61bae57f4b59407c6e37dfc49370a0600e64a796da6ef9935da4843b749b693d284bc1dc60010261176c565b61bb117f6dbaac72e5931ffc0521e18f413f0560174ef699bf81d9669e6f9eab5e70752d60010261176c565b808360400151830103836040019060ff16908160ff168152505061bbcd565b61bb5c7f8a597bfa422359afb7df4b20be57f0f3a7472a72657ffd0543122dfb9117137160010261176c565b61bb887fb15d6a0ce916fda79dc96183431d470a90e4c6e1b85b78083a6c4cfa8e8f34ef60010261176c565b61bbb47fece50ea5963433263fa32d9703f6573c3f912ad680c4dfe29f992b69ad42b59b60010261176c565b82604001518201836040019060ff16908160ff16815250505b61bbf97ff10d90047a04633f36e67fe16e2c916c5446ee5eb946f50eba90d92b09b2025860010261176c565b61bc257fc94dad16fdf5e0f678371132eb140bd47cdb3b925e684c24eaaf282fa646050860010261176c565b603b607a60029054906101000a900460ff1660ff16141561bd585761bc6c7fb64d30a2732f86a7fadb7a5ef2b2f4f78625b296d266813d7fd676605077cb4060010261176c565b61bc987ffdd89320185995bfc90bd2f435a9e7d12cff2e212aae18da6f0c108a2fefca4f60010261176c565b61bcc47fdbc8a71c599f71825cdc422cf59f398f8a51348d18be2d4257eab9c208d7587b60010261176c565b6001607a60019054906101000a900460ff1601836060019060ff16908160ff168152505061bd147fc5b503a3cde8ae5bf7e248fa24ec9a90f4b2c81090d36d4d2aca1fbc4bc22b9260010261176c565b61bd407fef3003f0129bbc70afd32f619ac0b9e9e53ed070a15d073afbfeca0f18b09bad60010261176c565b6000836080019060ff16908160ff168152505061be7a565b61bd847fe9ccc8f3b1a0e88304e9986a4a95212986391b5760dbfd02de12dc7a06c04b5260010261176c565b61bdb07f9320883c9245d2acdf532a3a29eb3ddefbac50f535da86ece2d53fd81c7aedfa60010261176c565b61bddc7ff89fb822d335b9dc601a9556cc5e96ac1e4c2e7dc0e0ae35cbb7a4b8810f116a60010261176c565b607a60019054906101000a900460ff16836060019060ff16908160ff168152505061be297f537eb45c1ef919b66c047975f45174e60e410ff842f4d66c056e79d83dfe664c60010261176c565b61be557f656ad3b4f3c2a307d171ab15abb22494d1c9c629f1eb6f2d37f3dd5b1ee2471360010261176c565b6001607a60029054906101000a900460ff1601836080019060ff16908160ff16815250505b61bea67f073e147acc3d18fc219e164c20766a065a5acad263b4651f7781989ce235759660010261176c565b61bed27f78090439c7bf2e1293da69fc94da1fc52cf54f5f72aa4760cc25bf22de11185360010261176c565b60008360a0019060ff16908160ff168152505061bf117f53d430737d556e4e55940f9eed7c24e195849be348358070060337100750704060010261176c565b61bf3d7f5da47253ec3c3274e2ab7298d503a555d02c7232c501dcd08134ad2771f8ba1060010261176c565b73__$05084330c9bf728fdd5577c5afe72a471f$__630a37f14b846000015185602001518660400151876060015188608001518960a001516040518763ffffffff167c0100000000000000000000000000000000000000000000000000000000028152600401808761ffff1661ffff1681526020018660ff1660ff1681526020018560ff1660ff1681526020018460ff1660ff1681526020018360ff1660ff1681526020018260ff1660ff168152602001965050505050505060206040518083038186803b15801561c00e57600080fd5b505af415801561c022573d6000803e3d6000fd5b505050506040513d602081101561c03857600080fd5b81019080805190602001909291905050509350505050919050565b600061c0817f808fe5bd45f46ab8ff1cb9aa9c9a30377ea23be0941c4795446d41d254aae5c460010261c285565b61c0ad7f556bfe46c39f16f279635b09a7f3e6cb0df504be781b0931db8a40bab702a79760010261c285565b61c0d97f5852ae1c75c424755782c3fdffd26401e1354b9b177513f37690d594b1ebc8ac60010261c285565b61c0ff836000018373ffffffffffffffffffffffffffffffffffffffff1660010261d5eb565b905092915050565b600061c1357ff852b790830032d89971e2c521d42063f93f9915f774b150a71f19bed01505fa60010261c285565b61c1617f02a432993c4332c426e42b943b3b019f4f8176664138a13b7aefd4766c87794260010261c285565b61c18d7f4106100c6ddc9e9685bfafb2331061f66fe0bdf557d61e86d3a9e77f415df1c060010261c285565b61c1b3836000018373ffffffffffffffffffffffffffffffffffffffff1660010261d89c565b905092915050565b60008083118290151561c269576040517f08c379a00000000000000000000000000000000000000000000000000000000081526004018080602001828103825283818151815260200191508051906020019080838360005b8381101561c22e57808201518184015260208101905061c213565b50505050905090810190601f16801561c25b5780820380516001836020036101000a031916815260200191505b509250505060405180910390fd5b506000838581151561c27757fe5b049050809150509392505050565b50565b600061c2b67fd59aa80060ea20a1bee9535659b672619a59eb9abf365dafefcb942c2613c7f260010261c285565b61c2e27f510cdbe5cda3c6cfdb8e3b071d5f7c35ea460dd72c7be1c916a1934f864dea1460010261c285565b61c30e7f69556792cf99684702e25e6dffc56bf298f3be73f828931c796488097d672b3c60010261c285565b61c33a7fe7dbbe65769452c853cae620146590604b6b716ac01fb8b203f1ba9fc91fc22460010261c285565b81836000018054905011151561c3de576040517f08c379a00000000000000000000000000000000000000000000000000000000081526004018080602001828103825260228152602001807f456e756d657261626c655365743a20696e646578206f7574206f6620626f756e81526020017f647300000000000000000000000000000000000000000000000000000000000081525060400191505060405180910390fd5b61c40a7f0210cac0db58119dced257e99daceaaac77667d292149865bf117b7ca9eb4bce60010261c285565b61c4367fbb32f6a0da519ded942950a6895a2c4b30863d395a47575812ea09df9c76aeef60010261c285565b61c4627f2d7ec9f89494f43c00f58c9ac42d6c4126f5ad30efc6a67b48204435b90bdbe160010261c285565b826000018281548110151561c47357fe5b9060005260206000200154905092915050565b600061c4b47f91a387f2c534fe2d9593060ddb58e0e80cbd7962a699db2183f7fd9ac7bf071e60010261c285565b61c4e07f5273e3157ed309e995284bc9a0977b5e190f596e6d0a7d6a98f63c6c2e9d2cf560010261c285565b61c50c7f6d6ed45f9faffdfa6efb315d613b5cf6f6203c948a1d42a6be8e892393847bf560010261c285565b6000836001016000848152602001908152602001600020541415905092915050565b60008061c55d7f40a8e73bbcb01d47b5671c52a9b29a286fe71eab24c4e624650536ff6451345860010261176c565b61c5897f38ff2d211281870e6fb6c4b4f1680b0a20528644ce5b213aae44cdff98eee96660010261176c565b61c5b57f67054dac490c85ee27cb348f7947c8206bd638d1118776530f41b8124abd49d760010261176c565b82905061c5e47f6c9c951c9424fc2ae46c3da0a2da7810a85785eb78ddcce261b4a62598bfce8d60010261176c565b61c6107f2d3b99769cfbf74e4b559baead6ec327f44984377c96a4a7c735877e1751bf3060010261176c565b60a083908060020a82049150509150915091565b61c6507fd9d87463a1a1060b88425a8a2b072f0443f61842030bf26ea78d194ad291218f60010261ddad565b61c67c7f8b041e4aaffce247465e23ea8cbbb73ad96b20a15fce9993e3e161ab5fd60a7c60010261ddad565b61c6a87f5245484292cee7b29f00162d7f46235825f46d95ee15e7002f5096adcf92edad60010261ddad565b818190806001815401808255809150509060018203906000526020600020016000909192909190915055505050565b61c7037fecef33899d0350e1790393ba755e4c6e41b9a800b8d708fb46f41e3a16be605d60010261ddb0565b61c72f7fa1c6a6f435a00ab048fae80e85cb2fa7eebb4753c9cadc1a248b99aa7d3e0b4660010261ddb0565b80600001600081819054906101000a900466ffffffffffffff168092919060010191906101000a81548166ffffffffffffff021916908366ffffffffffffff1602179055505050565b600061c7a67f9c908650b18c4d06afe6e22d13e282f9f484d9b002a6121d345881d9d8d8309260010261c285565b61c7d27fd1882d1c724fb038c1a118718cfe41c240fcbb742f29604cb573449c428371b760010261c285565b61c7fe7fc7f15540aa2b0ce236d481f7560d15ffafee2f2e30cac9beab7e15a266dfe9a760010261c285565b81600001805490509050919050565b61c8397fc2db32523093bb498ad884b3fb875ebcb86a89e308f68d0883140501031d211760010261ddb3565b61c8657f2a32beffda8bf384ba13eb9956c9be6574d76c14199a957503555fb73ef771f060010261ddb3565b61c8917fd5cce41301504c84e038802edf548757a836a35fb1c9479f26154eddb82ad09860010261ddb3565b80826000016000846002015481526020019081526020016000208190555061c8db7f8802c2e59f387b4c53a4ab996982fc37411153349ff8e02ff10fc302cd49c7de60010261ddb3565b816002016000815480929190600101919050555061c91b7f9828b856885723da47125c444a9aeaa675ab0879f6d3357781bf031ca6a1e80960010261ddb3565b81600301600081548092919060010191905055505050565b600061c9617f5439116f482646a7d52d71066ec257f2baab37e8cb33e66e4f9bc70682cce03760010261176c565b61c98d7f13f6c725b8f9eebc3e3b1f11af3f6436381c10d460a256e370a0097ffc234d0460010261176c565b61c9b97fc4c96cf46eeba2873e9ca10840c8f682bf3cf4105689f517332f6e5d1d8040a660010261176c565b61c9cc8461c9c68561b47d565b84616cb5565b90509392505050565b61ca017fd93c5a94a5b1886c0bb5575c3cca63b6410bf5cc633908251d561210acc14eaa600102612d3d565b61ca2d7f52b73aa8f50ab99b6810012a79aa4f25995f134e8c54dbcb5d80e568f5fdfbe7600102612d3d565b61ca597f4de32a619436a15decb84a173b4469efaa235be2016b7657229d7bb4d915f167600102612d3d565b8060336000848152602001908152602001600020600201819055505050565b61caa47f552f1538fdf5aa57eed1a65a84465e26b2dee3a349b98af5bdc70923de8885ca600102612d3d565b61cad07f903d39f78d0f26f99c6bc1e1496c2b3cde0bbb39f25ad445a102acb1d1decd81600102612d3d565b61cafc7f76891968bc09ecbef03a36911e5ee6272955d16b1c067ee7f7047de6127eb41c600102612d3d565b61cb06828261632c565b5050565b600061cb387f159087414106394e32055ef33ac14134ef0c11ae6e385c9c0a8396c2b5475adc60010261176c565b61cb647fd3c6c27b56653c691642f8f2003a6939ff6266835992a532b420dc4a769565b860010261176c565b61cb907f7976e804e76d0d9efc3b78fe72fb9e4a8578504d2975157c3250fb603e3ba38160010261176c565b6000846001868603014285434042448a8c6040516020018088815260200187805190602001908083835b60208310151561cbdf578051825260208201915060208101905060208303925061cbba565b6001836020036101000a038019825116818451168082178552505050505050905001868152602001858152602001848152602001838152602001828152602001975050505050505050604051602081830303815290604052805190602001206001900481151561cc4b57fe5b0601905061cc7b7f039a8b299bcbe089210efb1b4a0d0e048d33c88b8efd452d6f6e1025a5c9474060010261176c565b61cca77f0b561b54004f278cce7a6cb4173ee6ab43db623c35fd055bb14dbff80fc019b460010261176c565b809150509392505050565b61ccba61e9fe565b61cce67fabb775e301e1d8e64d90ccb4421c45cdcf01eb220da1e7b69921c198f336b71c60010261ddb6565b61cd127ff7980aef0cf3a6851ba67cdb6e0d6583f13775b334e6c49ab3ff120159fb958c60010261ddb6565b61cd3e7f13334d45f1317c481deff1e0a91814bae582c707b57192437cbf7d951a27960e60010261ddb6565b61cd478261ddb9565b816000019061ffff16908161ffff168152505061cd867f433cfe3e6dea4586d7a3800408d6f553afa3ec576ddc2aac9b700d04bf2256f460010261ddb6565b61cdb27fb90747d0b5406f852ebe8cac9cdd09489b62d563e539ba8eb58008e421402b5c60010261ddb6565b600061cdc36107b261ffff1661e1f9565b61cdd4836000015161ffff1661e1f9565b0361ffff16905061ce077f65d938d4a7e2e32f175a79b7b358a43f7fc693f7ef766d0575fce72da5b45abd60010261ddb6565b61ce337f87586a1933beb38d4cf9d4d4e5c167d394261c4b7da389f1df23e45686ce9a5f60010261ddb6565b6000816301e2850002826107b285600001510361ffff16036301e133800201905061ce807f348b78a3457a35224f49ce38125bc8793674a3a47de24e81723302728d90f02b60010261ddb6565b61ceac7f9f773027feae5c0bf78aaf5f5ddc55f20cf706d28a55dcdfa14c8c3c870b70f860010261ddb6565b600061ceda7f54ce18acaf574a16e8c07c87a7ac274ed948f410dea69b17f94ec31b037dbff760010261ddb6565b61cf067fbeb1c88f1ae596c518fecdf2969afbcd18309ab1ba07bdd0515795aa5e5d7bca60010261ddb6565b600061cf347f8207724107452dc74ed129d680b010da484b3250915c6b3b80e39fbd0746732560010261ddb6565b61cf607fcee2cb85dacdafd19ff63bbcbd543c631167b6f5b3a5530da0121fdae154ad7360010261ddb6565b600061cf8e7fa76698c6a56b758a87fc1e9813a5cb387256044cb14c2afadf111db4c9fc0ca660010261ddb6565b61cfba7f410af78408da8ec31182f9ecd5b8ea2bbb7197ea2216d3259075870623b707ec60010261ddb6565b600190505b600c8160ff1611151561d25a5761cff87f6a01c63fd740b45b38ba38232e43a51e3a35dcf9de0d19fe4b8bfa26b140fa7060010261ddb6565b61d0247fa189d66169d98e4af2300e21fdad4e0cc9ef8d463eb772d04fc5c981301d755d60010261ddb6565b61d03681876000015161ffff1661e30e565b915061d0647f65c3cf497d2e456bc55bea799cb8dc0d51a2bab00d432c198f7f3f3b0405928960010261ddb6565b61d0907f6a67a4fb3b94133a63de1451dcd85e5c5cda55768ec0988438d9e929ada6a21760010261ddb6565b8160ff166201518002925061d0c77f9522db35201a625d03047e0a83e405abaf708c2f21c844b40412aab518f9212660010261ddb6565b61d0f37fb6f1e4f1ee721eef05777a511afc53d357b3ae4fa3d5ff1f17674b0c1ec0757160010261ddb6565b86848401111561d1c45761d1297f4bc272dac49c832dcb7fb4035ab3b3f110a9f43623381a480a7246bc0bf718f660010261ddb6565b61d1557f75fed6daba885d0578445ab7b7a66b57b2282cfc36ec37c07ee2794172677fb560010261ddb6565b61d1817fb6f7287c6473a50e1b38b41f83e2246d4e8d12b888c2946ca04ed94d67b8ff6560010261ddb6565b80866020019060ff16908160ff168152505061d1bf7fe82fa837660b9fe78ef08c9641a9b9a03fdf575d220322c04f0291003060741460010261ddb6565b61d25a565b61d1f07ff9f7984bfed3c0802cbc69cbea94f0d61a4713b938ef0b6c9636ce0a2b99027b60010261ddb6565b61d21c7f806c13d853d4c035d109dc0270a6db1c75bb1568248619867fa569f4f48105e360010261ddb6565b61d2487fc099bb14d589016a9243cb70c21e09a5618fd9bc114078866329a6321a0008d760010261ddb6565b8284019350808060010191505061cfbf565b61d2867fa8c153fbff1e26f9d2c92821d7f6f66b060a48f93beb3714c37b0b54e0c9c30860010261ddb6565b61d2b27f3fbd1670a45e3319798a4ccb23b60ed01d05e0eee1957336f68b71104e75fc0360010261ddb6565b600190505b8160ff168160ff1611151561d48b5761d2f27f9ffe33813370748665e6754a45c7b9a2c8a54ff021bf53c80ae4a141841e704c60010261ddb6565b61d31e7ff05dc18d17043d62fc1e765561be51de7e18c1c3277872abdcb32fad0cb6632b60010261ddb6565b86846201518001111561d3f25761d3577f7c233dad1f6a192553947a6d7ed76b62b4f60d9a4c56eeb17f871d055bb4542f60010261ddb6565b61d3837fe24e95afe2b1b86be04e04f8936c3d0b17b7e70bddd237271db5c52fbf84e3b760010261ddb6565b61d3af7fe86a405280771711451be0b334aa76ce095a3ff4971daee704b0207c035f9bf660010261ddb6565b80866040019060ff16908160ff168152505061d3ed7f123af6654288920957bed7acbd33b8c89704966fa0a4ab95492c96874c98b84460010261ddb6565b61d48b565b61d41e7ff82784811d350e107c487ed23190e7f92019191e729a1b53249be70b34fcf9e260010261ddb6565b61d44a7fc16afb265ab91b6c1205c88dcc624bf2874ee09e9b66e1a0ba241871fb4d412660010261ddb6565b61d4767f3188a408f43491dd6c23e72f71657348f6e51fb478d0afdba7f562b408e26dfe60010261ddb6565b6201518084019350808060010191505061d2b7565b61d4b77f2a6cdafdb8911e44434b68183eab43752f32c4d2b08120dcb06db38f724dc93460010261ddb6565b61d4e37f572ea494e893c2dd97e26de0a8cfc31f887d291a8823fb9ec8758a569640103b60010261ddb6565b61d4ec8761e6ca565b866060019060ff16908160ff168152505061d5297f7e2c8734b00f104076ef6a23c664fb3f90888db583e8096e4cc5c8852d3fd66960010261ddb6565b61d5557ffeab6427bf51e972eda648d3eb6d482ad5850bcc5655fc88271ec789e10460d360010261ddb6565b61d55e8761e771565b866080019060ff16908160ff168152505061d59b7f46244ec7fa678ed3f30faf4a9033444dc3168e60b98cd680f8dbcaffcd26bf4760010261ddb6565b61d5c77f256c99a2fc0f0a860a4330f973fd96bd84da087798a86b746f8d2d86151676bd60010261ddb6565b61d5d08761e816565b8660a0019060ff16908160ff16815250505050505050919050565b600061d6197fdc98283814e79bb677e4533518e3c2f53f8e4c59687397a7b78347c960536cc160010261c285565b61d6457f08f983703f49cdc3c560deac1d568c63bbb53744daf6748f954f4abb25f1d3e360010261c285565b61d6717f0766c4b69595c539a4a199f3f3455d725841af480d0c969d04e041bda8fd9e3860010261c285565b61d67b838361c486565b151561d80d5761d6ad7f8202084254906f7199aff05a1e12a8bc5defcb3bd0dd0722312d025f1cdf925260010261c285565b61d6d97fb1802c0bd1c50eb7a5ea2c418efaeada5280ab5a1302759ddbec40a8207c23e460010261c285565b61d7057fe8b3e427236d7f428acc3936ce49ad58e9149853bdab6138eb2c98e2af6cb86960010261c285565b8260000182908060018154018082558091505090600182039060005260206000200160009091929091909150555061d75f7f404abcfd453eafceb908f0c5b1ee91f99c24e35dcdaf36ffd32647ed81f4a0b760010261c285565b61d78b7f662751195cdb0b90cb1e17966da929da7653f6859a1b7a31c850c33339479f0360010261c285565b82600001805490508360010160008481526020019081526020016000208190555061d7d87f8f5f086f1efcb1d2f720c6fc80a66f22d2d0a09419c86a81cbda07ae56d460e760010261c285565b61d8047ff12fe73b3f923129741602084dd63137d28cd61a51b82df1b5afc7fe5713cac560010261c285565b6001905061d896565b61d8397f411725b9e6b16644ba52449ec4d36b92dea2b1bd54b0f03c783a20b7890d00eb60010261c285565b61d8657f9bd634b5b92fd3e06f26a52ec2939a4a0a84952a011ea5514bc62a4c5373a55c60010261c285565b61d8917fea4ca516a6106cab84a6a4e89be0f7002b5d6eb029ffab4c054b7ee765fc3c2e60010261c285565b600090505b92915050565b600061d8ca7fb46577be114288cc2048caa1c7c40b09dc718696d9a09f0499a1547eb16451a960010261c285565b61d8f67f699f127f4fce6e368acc157cac121779c534d2aa962d0533bfdaaae1d69ca05f60010261c285565b61d9227f521bb0fe62e6b7fd3853af763e653963a8408ffb348ef253e2d2f6e4ce4cd22160010261c285565b600083600101600084815260200190815260200160002054905061d9687f9b482a5f51b8ea016ff5ab73974f6b85a6fd2a1eb01a8ee81de32df7a2a8da3560010261c285565b61d9947fce3c0267f6afecccc16fb1df160b30bad8dd9e6470f2c250c65f5d16f559538360010261c285565b60008114151561dd1d5761d9ca7f1428e26d804ec500abd0e9390b2940e16e23c588838979a643dc197ecc45d31460010261c285565b61d9f67f0b321acd305614c64bd3b03df9b54fda13512f699793d352dda406f5377d654a60010261c285565b61da227f7a5ecc9f91718277f21ffe36d4008cfb52c45cb4a3d02c8d3ad7b368266b527d60010261c285565b600060018203905061da567f594e731be2305a9bbd344870cf0633f896cf7c8a552149ac8c3887f5939fa2cc60010261c285565b61da827fce845126564f88320d57ac15815dc9da8f604bbea797690ee5dd29256f4490ef60010261c285565b60006001866000018054905003905061dabd7f8de4d4b62709fb9aa3764ecad70f3f67ded177953e8d0b3fa69eb7270f7a72b860010261c285565b61dae97feef1a22ab497f0a0b5773c261963d43f0abced69475a8f361c4c09940a2e0f1160010261c285565b6000866000018281548110151561dafc57fe5b9060005260206000200154905061db357fd3ffd1de8410e1a5342524eadcc24cec3d13da46f520a8ff3842159d8ac5138160010261c285565b61db617fd29f0954420e0dacdaf662725b7670ca376b5ecb1467eea88f3ed07b3cef9b2b60010261c285565b80876000018481548110151561db7357fe5b906000526020600020018190555061dbad7f416543475b2a4ac207e92b54c5a89b0283eb8a6898f17e8a422c8a2b3bdfe4dd60010261c285565b61dbd97f53e6da82d3cb4b8c67410d9eef4d4d2578dc84336caa8505c50feddb82e7c74e60010261c285565b600183018760010160008381526020019081526020016000208190555061dc227f9985aa50040fc25f597dd3c0a0ef9e1794881ab1e07bd05e1686a5c77312771860010261c285565b61dc4e7f924e66bc6d3998d3584ee5dec8380db18c7801386c9813e9c519c714f9cf05b460010261c285565b86600001805480151561dc5d57fe5b6001900381819060005260206000200160009055905561dc9f7f0464100dfed97956c95ac0853f67804ec637520949c0ddf43963e7218712c4ee60010261c285565b8660010160008781526020019081526020016000206000905561dce47f31239a0e5e1877005aeaa2cf67ecd4f26333ff91ac415b7b58467f96b928e47060010261c285565b61dd107f0e8690e5eba3bc911cbe19ecc595ae9d5a7041f8b723ff9c12a4707e72d1d70960010261c285565b600194505050505061dda7565b61dd497f187fa4fe781f8142b1e1da8868034ad381d767259bb390adb2ffa112cc52f27260010261c285565b61dd757f9edf3971b67091da233f4cee6fc830f48fc8dae83e1acedbee273f8618720ca860010261c285565b61dda17faa77a760e845cf44dffa170ad08e7782cf1bbc412ad237c88b0c772676e9150860010261c285565b60009150505b92915050565b50565b50565b50565b50565b600061dde77faa9905fa9d8dc7935eec32bbe03cafe873aaf6f15ab453dcd56b2ce57e3eeca460010261ddb6565b61de137f663bf67fa87f2ad913453b848f353b7c87e0bba601f750e90217d95cd184018760010261ddb6565b61de3f7f0d5466fd149bf6f66bf44e1ce69c5b9b646b7858ee530f6fe4b44c1399b130cf60010261ddb6565b60006301e133808381151561de5057fe5b046107b261ffff1601905061de877ff7c4ae06e9c845650bb52508c732a5f72303c3037b635ecc1215a3c2d079039060010261ddb6565b61deb37f89aa6a64363802e5a6464cd1452522ffcf12e9811c943e8178722d312f1dac5660010261ddb6565b600061dec46107b261ffff1661e1f9565b61decd8361e1f9565b0361ffff16905061df007f8fd1d551816c5ce457c6fcb88fe17cfef05bd0ff60b2f921fe4ae5168cbe2e6b60010261ddb6565b61df2c7fbed93439f285e4f9ccd9a830a4b1df97cf1548246074aba6d87013d06321877660010261ddb6565b6000816301e2850002826107b261ffff168503036301e133800201905061df757fd9f53f917a8b8e0eee460e30756ef4eaff78b0a3b90b4b451feb9e1863390ada60010261ddb6565b61dfa17fe952482a9f34e37dcdb0077c226887bf334f24027405859080e4bc049d8b9a9660010261ddb6565b5b8481111561e1965761dfd67f6f95896d861a1cf4ef23bc40c92abfbca3affb80257f517f2c007562da81a80260010261ddb6565b61e0027fb12ad78b1876d14abaa37416671bd07bed080a6ce64b371bdfd7e2d69d89da6e60010261ddb6565b61e00e6001840361e8b0565b1561e0a55761e03f7f6c06717daf4584869deb27237b0c27fb71b4bf54141f6fb6817c9a7083688aba60010261ddb6565b61e06b7ff007e8ce052e12f2d9bf15fe86b6823999a3c41af914f5f26d038a66674422af60010261ddb6565b61e0977f9f24d204f8e8b55dda232ace5da3fe70f2008525f5cb8e874eb1ea6a4fe7e88260010261ddb6565b6301e285008103905061e133565b61e0d17fa8f5f468d40e0ee31e441b11ee194e32890c772b4f58e9af8b5b41d398fe187260010261ddb6565b61e0fd7f66affc12d63b8855820aa906e9a4b08c2feb4edb8a116a91f556979f3ab99ced60010261ddb6565b61e1297f3bb09d0037b739d50b6349daabc35de9ddb93a013c8fcbff0af23e099adcbb0460010261ddb6565b6301e13380810390505b61e15f7f3831d2f46af76e575f65fd9ebffccfe8f17e118a92c6265ff792c3fdcb555a7960010261ddb6565b61e18b7f3e93a3758d1da71b45b1a9fc01c8011db23a18c98a24061d6e3aa8602da8247e60010261ddb6565b60018303925061dfa2565b61e1c27f603f8c0b01d48857d77b539a8e655e56c07b3c48fd7e9ec719459cc8f2dd36cc60010261ddb6565b61e1ee7f6e46492d3df9309fcb22ad59e97be4a0b069b31f67d27fb48f6a34363dfa162b60010261ddb6565b829350505050919050565b600061e2277feb2c7cdb50b2572a4c5d5569522ab919e041cea5eccc88ecf1546003a2c80d4a60010261ddb6565b61e2537f574f903a883c79acde209c41bf37780354bcb02dc6063e732eea9b82645d2c0b60010261ddb6565b61e27f7ffffcc7bf361fe5c0588eb02e2e40f85a1074d0ffab37811ee2954c1493445a6860010261ddb6565b60018203915061e2b17f3ce19f0cb55fd9d26a5690034daa5960ec3d70233479e48142b74a81d61a93f260010261ddb6565b61e2dd7faf4443ae613587d882d11745ab34f55a30281431abaa2dd27b3673a727377c7c60010261ddb6565b60648281151561e2e957fe5b046101908381151561e2f757fe5b0460048481151561e30457fe5b0401039050919050565b600061e33c7ff155b17cc897643b41df67d3561cc347f9bef4a466b3df72a02f1d326f96e3ec60010261ddb6565b61e3687fbcd6f205b1d394b650b54511aca8b4e9d42ae52409dfae8b84bf10b3ce084a0460010261ddb6565b61e3947fe0d2cb0b4b54776f7c09b0b36f7ff6de0e2f4385a9cf7c33799b791b5dda635060010261ddb6565b60028360ff16141561e5205761e3cc7f1e9259b08c5dc9653126ea6fce79b6f72e0dd454c90c0cbf400d543ae59f7adf60010261ddb6565b61e3f87f94c55045a4ec3af02cec0a1fb9ea26f4ebd96e1d9fb84bc225c402e0a603af6060010261ddb6565b61e4247fd162d092a0721c0063aa29dd083713e6957b2c87c7b44a0a8ff66cb07fdf303b60010261ddb6565b61e42d8261e8b0565b1561e4935761e45e7fcbae63fa06e6039f9c7f4ebaede7eb6aacf5468defd4888d5e8445c1bc9cca5b60010261ddb6565b61e48a7f5144054db1d58dbe626c516d675ab9e9455e65461e6162f87854014dfb8b021760010261ddb6565b601d905061e6c4565b61e4bf7fce34780398d4a6d72cbbbb4d13a62cda7954f54ab95b8b90f1810060679b4e8360010261ddb6565b61e4eb7f51e4d4712bf2ea774012502a24a8ba7762dd3d4d2b7ae816b41d57aa64e07d5160010261ddb6565b61e5177f966599230b2efe1217cf9a88ea1a477ee4707204861232319b6c946d000d830860010261ddb6565b601c905061e6c4565b61e54c7f6b283944c5f6af131447249ba3ee43ff2718d04e712b34fd445d2f93045ed4d960010261ddb6565b61e5787faf744b6260b93deb033e632509d37e335b0846c424a549984680a439b124952a60010261ddb6565b60048360ff16148061e58d575060068360ff16145b8061e59b575060098360ff16145b8061e5a95750600b8360ff16145b1561e63b5761e5da7fbbc6e5f05e60723a2fd98775070cdb71d4d05117e72768fc24d09ceb3b54ceee60010261ddb6565b61e6067fbd8714a14ded21c1f0ef248834bf451f5f001d2e258588d47f591017749d7cde60010261ddb6565b61e6327f7ff2a0a65e08d801c71d32e5fa6d21c7c14daa7b9b52e6911951e61d2dee5ece60010261ddb6565b601e905061e6c4565b61e6677fc400fa2f19d96d670b5cd553118c3dcc839d1ca01643f3f2aadbb964e66cd58260010261ddb6565b61e6937fb4c0a2f66d83d32038e7162b3ad28e2705331fb983cfb3cb064b37501889ea5360010261ddb6565b61e6bf7fc5100a56dce49bf964aa99b54f102a3f0a3f6a803d69972b999aee261a9a86da60010261ddb6565b601f90505b92915050565b600061e6f87f3940530a99f4099b8f4d07dc32f531b54295567a330c81801a6ef5040028a23c60010261ddb6565b61e7247f69bd8442c820eb767dab3ea1cbde489b75622373364717d027596fcb6b43393760010261ddb6565b61e7507fc1cde02925920c3dd289f9c937a9ce3ae53fce4f82996d43e6461729014076d660010261ddb6565b6018610e108381151561e75f57fe5b0481151561e76957fe5b069050919050565b600061e79f7f9b897a64bbfff882530d264b969ff02abff2819b3ebd5a7d0ee1d9f5d1a0b19360010261ddb6565b61e7cb7f1bc45735d4e64373353e1d3b278bd6c7cdd83cf891971c65ff92433c8a9f078560010261ddb6565b61e7f77fd907228da083e86c4a94974b84b50f80ed66b5dfb58276fcb209c6cfe56df5b260010261ddb6565b603c808381151561e80457fe5b0481151561e80e57fe5b069050919050565b600061e8447fb1cb616ec0506f2ecfd084b6e3b54e8a6d2d1bc23112f172081f64ad47bd978e60010261ddb6565b61e8707fc53b73c047fd53baa01f9f93b941aeb2fed3930f8ccacde5e4b031f6d034a97a60010261ddb6565b61e89c7f44ffb8ba1c424d23b5cf0490a0229b72ced587f226aeb184b14de4140a724b0860010261ddb6565b603c8281151561e8a857fe5b069050919050565b600061e8de7f39afaa5999b8d55fae036c69daf0a86845149d0c46c1f8c3f2095fc7c50e20a060010261ddb6565b61e90a7fd491322b7b68ce8f0567b7530a838f3831624b125beccd3cb9008622e110ae3f60010261ddb6565b61e9367f3b51bbf3bb580adcfadb93fb9717febc8b315163a798bfebf7b5bf84229710a360010261ddb6565b60006101908381151561e94557fe5b06148061e9775750600060048381151561e95b57fe5b0614801561e9765750600060648381151561e97257fe5b0614155b5b9050919050565b828054600181600116156101000203166002900490600052602060002090601f016020900481019282601f1061e9bf57805160ff191683800117855561e9ed565b8280016001018555821561e9ed579182015b8281111561e9ec57825182559160200191906001019061e9d1565b5b50905061e9fa919061ea48565b5090565b60c060405190810160405280600061ffff168152602001600060ff168152602001600060ff168152602001600060ff168152602001600060ff168152602001600060ff1681525090565b61ea6a91905b8082111561ea6657600081600090555060010161ea4e565b5090565b9056fea165627a7a7230582062aa84ec7a68eb0c41f86e1d89815dc2a2bcccf69639f0e808940ee6a01468680029",
  "linkReferences": {
    "contracts/libs/DateTimeModel.sol": {
      "DateTimeModel": [
        {
          "length": 20,
          "start": 46943
        },
        {
          "length": 20,
          "start": 48979
        }
      ]
    },
    "contracts/libs/GluwaAccountModel.sol": {
      "GluwaAccountModel": [
        {
          "length": 20,
          "start": 33947
        },
        {
          "length": 20,
          "start": 34309
        },
        {
          "length": 20,
          "start": 43914
        }
      ]
    }
  },
  "deployedLinkReferences": {
    "contracts/libs/DateTimeModel.sol": {
      "DateTimeModel": [
        {
          "length": 20,
          "start": 46923
        },
        {
          "length": 20,
          "start": 48959
        }
      ]
    },
    "contracts/libs/GluwaAccountModel.sol": {
      "GluwaAccountModel": [
        {
          "length": 20,
          "start": 33927
        },
        {
          "length": 20,
          "start": 34289
        },
        {
          "length": 20,
          "start": 43894
        }
      ]
    }
  }
}