{
  "_format": "hh-sol-artifact-1",
  "contractName": "PrizeLinkedAccountVault",
  "sourceName": "contracts/PrizeLinkedAccountVault.sol",
  "abi": [
    {
      "constant": false,
      "inputs": [
        {
          "name": "owner",
          "type": "address"
        },
        {
          "name": "amount",
          "type": "uint256"
        }
      ],
      "name": "depositPrizedLinkAccount",
      "outputs": [
        {
          "name": "",
          "type": "bool"
        }
      ],
      "payable": false,
      "stateMutability": "nonpayable",
      "type": "function"
    },
    {
      "constant": false,
      "inputs": [
        {
          "name": "admin",
          "type": "address"
        },
        {
          "name": "tokenAddress",
          "type": "address"
        },
        {
          "name": "standardInterestRate",
          "type": "uint32"
        },
        {
          "name": "standardInterestRatePercentageBase",
          "type": "uint32"
        },
        {
          "name": "standardMaturityTerm",
          "type": "uint64"
        },
        {
          "name": "budget",
          "type": "uint256"
        },
        {
          "name": "tokenPerTicket",
          "type": "uint16"
        },
        {
          "name": "ticketValidityTargetBlock",
          "type": "uint16"
        },
        {
          "name": "totalTicketPerBatch",
          "type": "uint32"
        }
      ],
      "name": "initialize",
      "outputs": [],
      "payable": false,
      "stateMutability": "nonpayable",
      "type": "function"
    },
    {
      "constant": true,
      "inputs": [
        {
          "name": "owner",
          "type": "address"
        }
      ],
      "name": "getValidTicketIdFor",
      "outputs": [
        {
          "name": "",
          "type": "uint256[]"
        }
      ],
      "payable": false,
      "stateMutability": "view",
      "type": "function"
    },
    {
      "constant": true,
      "inputs": [
        {
          "name": "role",
          "type": "bytes32"
        }
      ],
      "name": "getRoleAdmin",
      "outputs": [
        {
          "name": "",
          "type": "bytes32"
        }
      ],
      "payable": false,
      "stateMutability": "view",
      "type": "function"
    },
    {
      "constant": true,
      "inputs": [
        {
          "name": "account",
          "type": "address"
        }
      ],
      "name": "isAdmin",
      "outputs": [
        {
          "name": "",
          "type": "bool"
        }
      ],
      "payable": false,
      "stateMutability": "view",
      "type": "function"
    },
    {
      "constant": true,
      "inputs": [
        {
          "name": "idx",
          "type": "uint256"
        }
      ],
      "name": "getTicketById",
      "outputs": [
        {
          "name": "",
          "type": "uint56"
        },
        {
          "name": "",
          "type": "address"
        },
        {
          "name": "",
          "type": "uint48"
        },
        {
          "name": "",
          "type": "uint48"
        },
        {
          "name": "",
          "type": "uint96"
        },
        {
          "name": "",
          "type": "uint8"
        }
      ],
      "payable": false,
      "stateMutability": "view",
      "type": "function"
    },
    {
      "constant": false,
      "inputs": [],
      "name": "renounceOperator",
      "outputs": [],
      "payable": false,
      "stateMutability": "nonpayable",
      "type": "function"
    },
    {
      "constant": false,
      "inputs": [
        {
          "name": "role",
          "type": "bytes32"
        },
        {
          "name": "account",
          "type": "address"
        }
      ],
      "name": "grantRole",
      "outputs": [],
      "payable": false,
      "stateMutability": "nonpayable",
      "type": "function"
    },
    {
      "constant": true,
      "inputs": [],
      "name": "getCurrentWinner",
      "outputs": [
        {
          "name": "",
          "type": "uint256"
        }
      ],
      "payable": false,
      "stateMutability": "view",
      "type": "function"
    },
    {
      "constant": false,
      "inputs": [
        {
          "name": "role",
          "type": "bytes32"
        },
        {
          "name": "account",
          "type": "address"
        }
      ],
      "name": "renounceRole",
      "outputs": [],
      "payable": false,
      "stateMutability": "nonpayable",
      "type": "function"
    },
    {
      "constant": true,
      "inputs": [],
      "name": "getCurrentTotalDeposit",
      "outputs": [
        {
          "name": "",
          "type": "uint256"
        }
      ],
      "payable": false,
      "stateMutability": "view",
      "type": "function"
    },
    {
      "constant": true,
      "inputs": [],
      "name": "getSavingSettings",
      "outputs": [
        {
          "name": "",
          "type": "uint64"
        },
        {
          "name": "",
          "type": "uint32"
        },
        {
          "name": "",
          "type": "uint32"
        },
        {
          "name": "",
          "type": "uint256"
        },
        {
          "name": "",
          "type": "uint256"
        },
        {
          "name": "",
          "type": "address"
        }
      ],
      "payable": false,
      "stateMutability": "view",
      "type": "function"
    },
    {
      "constant": true,
      "inputs": [
        {
          "name": "account",
          "type": "address"
        }
      ],
      "name": "isOperator",
      "outputs": [
        {
          "name": "",
          "type": "bool"
        }
      ],
      "payable": false,
      "stateMutability": "view",
      "type": "function"
    },
    {
      "constant": false,
      "inputs": [
        {
          "name": "account",
          "type": "address"
        }
      ],
      "name": "addAdmin",
      "outputs": [],
      "payable": false,
      "stateMutability": "nonpayable",
      "type": "function"
    },
    {
      "constant": true,
      "inputs": [
        {
          "name": "depositHash",
          "type": "bytes32"
        }
      ],
      "name": "getDeposit",
      "outputs": [
        {
          "name": "",
          "type": "uint256"
        },
        {
          "name": "",
          "type": "uint256"
        },
        {
          "name": "",
          "type": "address"
        },
        {
          "name": "",
          "type": "uint256"
        },
        {
          "name": "",
          "type": "uint256"
        }
      ],
      "payable": false,
      "stateMutability": "view",
      "type": "function"
    },
    {
      "constant": true,
      "inputs": [
        {
          "name": "owner",
          "type": "address"
        }
      ],
      "name": "getSavingAcountFor",
      "outputs": [
        {
          "name": "",
          "type": "uint256"
        },
        {
          "name": "",
          "type": "bytes32"
        },
        {
          "name": "",
          "type": "address"
        },
        {
          "name": "",
          "type": "uint32"
        },
        {
          "name": "",
          "type": "uint32"
        },
        {
          "name": "",
          "type": "uint256"
        },
        {
          "name": "",
          "type": "uint256"
        },
        {
          "name": "",
          "type": "uint256"
        },
        {
          "name": "",
          "type": "uint8"
        },
        {
          "name": "",
          "type": "bytes"
        }
      ],
      "payable": false,
      "stateMutability": "view",
      "type": "function"
    },
    {
      "constant": false,
      "inputs": [
        {
          "name": "drawTimeStamp",
          "type": "uint256"
        }
      ],
      "name": "prizeDraw",
      "outputs": [
        {
          "name": "",
          "type": "bool"
        }
      ],
      "payable": false,
      "stateMutability": "nonpayable",
      "type": "function"
    },
    {
      "constant": false,
      "inputs": [],
      "name": "renounceAdmin",
      "outputs": [],
      "payable": false,
      "stateMutability": "nonpayable",
      "type": "function"
    },
    {
      "constant": true,
      "inputs": [
        {
          "name": "role",
          "type": "bytes32"
        },
        {
          "name": "index",
          "type": "uint256"
        }
      ],
      "name": "getRoleMember",
      "outputs": [
        {
          "name": "",
          "type": "address"
        }
      ],
      "payable": false,
      "stateMutability": "view",
      "type": "function"
    },
    {
      "constant": true,
      "inputs": [
        {
          "name": "role",
          "type": "bytes32"
        },
        {
          "name": "account",
          "type": "address"
        }
      ],
      "name": "hasRole",
      "outputs": [
        {
          "name": "",
          "type": "bool"
        }
      ],
      "payable": false,
      "stateMutability": "view",
      "type": "function"
    },
    {
      "constant": false,
      "inputs": [
        {
          "name": "account",
          "type": "address"
        }
      ],
      "name": "addOperator",
      "outputs": [],
      "payable": false,
      "stateMutability": "nonpayable",
      "type": "function"
    },
    {
      "constant": true,
      "inputs": [],
      "name": "getSavingAcount",
      "outputs": [
        {
          "name": "",
          "type": "uint256"
        },
        {
          "name": "",
          "type": "bytes32"
        },
        {
          "name": "",
          "type": "address"
        },
        {
          "name": "",
          "type": "uint32"
        },
        {
          "name": "",
          "type": "uint32"
        },
        {
          "name": "",
          "type": "uint256"
        },
        {
          "name": "",
          "type": "uint256"
        },
        {
          "name": "",
          "type": "uint256"
        },
        {
          "name": "",
          "type": "uint8"
        },
        {
          "name": "",
          "type": "bytes"
        }
      ],
      "payable": false,
      "stateMutability": "view",
      "type": "function"
    },
    {
      "constant": true,
      "inputs": [],
      "name": "DEFAULT_ADMIN_ROLE",
      "outputs": [
        {
          "name": "",
          "type": "bytes32"
        }
      ],
      "payable": false,
      "stateMutability": "view",
      "type": "function"
    },
    {
      "constant": false,
      "inputs": [
        {
          "name": "account",
          "type": "address"
        }
      ],
      "name": "removeOperator",
      "outputs": [],
      "payable": false,
      "stateMutability": "nonpayable",
      "type": "function"
    },
    {
      "constant": true,
      "inputs": [
        {
          "name": "role",
          "type": "bytes32"
        }
      ],
      "name": "getRoleMemberCount",
      "outputs": [
        {
          "name": "",
          "type": "uint256"
        }
      ],
      "payable": false,
      "stateMutability": "view",
      "type": "function"
    },
    {
      "constant": false,
      "inputs": [
        {
          "name": "owner",
          "type": "address"
        },
        {
          "name": "amount",
          "type": "uint256"
        },
        {
          "name": "securityHash",
          "type": "bytes"
        }
      ],
      "name": "createPrizedLinkAccount",
      "outputs": [
        {
          "name": "",
          "type": "bool"
        }
      ],
      "payable": false,
      "stateMutability": "nonpayable",
      "type": "function"
    },
    {
      "constant": false,
      "inputs": [
        {
          "name": "role",
          "type": "bytes32"
        },
        {
          "name": "account",
          "type": "address"
        }
      ],
      "name": "revokeRole",
      "outputs": [],
      "payable": false,
      "stateMutability": "nonpayable",
      "type": "function"
    },
    {
      "constant": false,
      "inputs": [
        {
          "name": "referenceHash",
          "type": "bytes32"
        }
      ],
      "name": "createPrizedLinkTickets",
      "outputs": [
        {
          "name": "",
          "type": "bool"
        }
      ],
      "payable": false,
      "stateMutability": "nonpayable",
      "type": "function"
    },
    {
      "constant": true,
      "inputs": [],
      "name": "OPERATOR_ROLE",
      "outputs": [
        {
          "name": "",
          "type": "bytes32"
        }
      ],
      "payable": false,
      "stateMutability": "view",
      "type": "function"
    },
    {
      "anonymous": false,
      "inputs": [
        {
          "indexed": false,
          "name": "winner",
          "type": "address"
        },
        {
          "indexed": false,
          "name": "ticket",
          "type": "uint256"
        },
        {
          "indexed": false,
          "name": "reward",
          "type": "uint256"
        }
      ],
      "name": "Winner",
      "type": "event"
    },
    {
      "anonymous": false,
      "inputs": [
        {
          "indexed": true,
          "name": "accountHash",
          "type": "bytes32"
        },
        {
          "indexed": true,
          "name": "owner",
          "type": "address"
        }
      ],
      "name": "CreateAccount",
      "type": "event"
    },
    {
      "anonymous": false,
      "inputs": [
        {
          "indexed": true,
          "name": "depositHash",
          "type": "bytes32"
        },
        {
          "indexed": true,
          "name": "owner",
          "type": "address"
        },
        {
          "indexed": false,
          "name": "deposit",
          "type": "uint256"
        }
      ],
      "name": "CreateDeposit",
      "type": "event"
    },
    {
      "anonymous": false,
      "inputs": [
        {
          "indexed": true,
          "name": "owner",
          "type": "address"
        },
        {
          "indexed": false,
          "name": "amount",
          "type": "uint256"
        }
      ],
      "name": "WithdrawSavingAccount",
      "type": "event"
    },
    {
      "anonymous": false,
      "inputs": [
        {
          "indexed": true,
          "name": "role",
          "type": "bytes32"
        },
        {
          "indexed": true,
          "name": "account",
          "type": "address"
        },
        {
          "indexed": true,
          "name": "sender",
          "type": "address"
        }
      ],
      "name": "RoleGranted",
      "type": "event"
    },
    {
      "anonymous": false,
      "inputs": [
        {
          "indexed": true,
          "name": "role",
          "type": "bytes32"
        },
        {
          "indexed": true,
          "name": "account",
          "type": "address"
        },
        {
          "indexed": true,
          "name": "sender",
          "type": "address"
        }
      ],
      "name": "RoleRevoked",
      "type": "event"
    }
  ],
  "bytecode": "0x608060405261373d806100136000396000f3fe6080604052600436106101745763ffffffff7c0100000000000000000000000000000000000000000000000000000000600035041663033d086d81146101795780630af4ad1b146101c65780631112f0f71461024f578063248a9ca3146102d257806324d7806c1461030e57806327b7aabc146103415780632ab6f8db146103cb5780632f2ff15d146103e0578063329bfc331461041957806336568abe1461042e5780633a990db014610467578063529298b81461047c5780636d70f7ae146104e057806370480275146105135780637a86983f1461054657806382133e38146105a357806383f9f4d2146106c55780638bad0c0a146106ef5780639010d07c1461070457806391d14854146107505780639870d7fe146107895780639964476f146107bc578063a217fddf146107d1578063ac8a584a146107e6578063ca15c87314610819578063cf123e3014610843578063d547741f146108d5578063efb41d6b1461090e578063f5b541a614610938575b600080fd5b34801561018557600080fd5b506101b26004803603604081101561019c57600080fd5b50600160a060020a03813516906020013561094d565b604080519115158252519081900360200190f35b3480156101d257600080fd5b5061024d60048036036101208110156101ea57600080fd5b50600160a060020a03813581169160208101359091169063ffffffff6040820135811691606081013582169167ffffffffffffffff6080830135169160a08101359161ffff60c083013581169260e08101359091169161010090910135166109b6565b005b34801561025b57600080fd5b506102826004803603602081101561027257600080fd5b5035600160a060020a0316610b27565b60408051602080825283518183015283519192839290830191858101910280838360005b838110156102be5781810151838201526020016102a6565b505050509050019250505060405180910390f35b3480156102de57600080fd5b506102fc600480360360208110156102f557600080fd5b5035610bd8565b60408051918252519081900360200190f35b34801561031a57600080fd5b506101b26004803603602081101561033157600080fd5b5035600160a060020a0316610bed565b34801561034d57600080fd5b5061036b6004803603602081101561036457600080fd5b5035610bf9565b6040805166ffffffffffffff9097168752600160a060020a03909516602087015265ffffffffffff938416868601529190921660608501526bffffffffffffffffffffffff909116608084015260ff1660a0830152519081900360c00190f35b3480156103d757600080fd5b5061024d610c1f565b3480156103ec57600080fd5b5061024d6004803603604081101561040357600080fd5b5080359060200135600160a060020a0316610c52565b34801561042557600080fd5b506102fc610cff565b34801561043a57600080fd5b5061024d6004803603604081101561045157600080fd5b5080359060200135600160a060020a0316610d06565b34801561047357600080fd5b506102fc610da0565b34801561048857600080fd5b50610491610da6565b6040805167ffffffffffffffff909716875263ffffffff9586166020880152939094168584015260608501919091526080840152600160a060020a0390911660a0830152519081900360c00190f35b3480156104ec57600080fd5b506101b26004803603602081101561050357600080fd5b5035600160a060020a0316610de2565b34801561051f57600080fd5b5061024d6004803603602081101561053657600080fd5b5035600160a060020a0316610e0f565b34801561055257600080fd5b506105706004803603602081101561056957600080fd5b5035610e83565b604080519586526020860194909452600160a060020a039092168484015260608401526080830152519081900360a00190f35b3480156105af57600080fd5b506105d6600480360360208110156105c657600080fd5b5035600160a060020a0316610e91565b604051808b81526020018a815260200189600160a060020a0316600160a060020a031681526020018863ffffffff1663ffffffff1681526020018763ffffffff1663ffffffff16815260200186815260200185815260200184815260200183600481111561064057fe5b60ff16815260200180602001828103825283818151815260200191508051906020019080838360005b83811015610681578181015183820152602001610669565b50505050905090810190601f1680156106ae5780820380516001836020036101000a031916815260200191505b509b50505050505050505050505060405180910390f35b3480156106d157600080fd5b506101b2600480360360208110156106e857600080fd5b5035610f1a565b3480156106fb57600080fd5b5061024d61100e565b34801561071057600080fd5b506107346004803603604081101561072757600080fd5b508035906020013561104f565b60408051600160a060020a039092168252519081900360200190f35b34801561075c57600080fd5b506101b26004803603604081101561077357600080fd5b5080359060200135600160a060020a031661106d565b34801561079557600080fd5b5061024d600480360360208110156107ac57600080fd5b5035600160a060020a031661108b565b3480156107c857600080fd5b506105d6611116565b3480156107dd57600080fd5b506102fc611156565b3480156107f257600080fd5b5061024d6004803603602081101561080957600080fd5b5035600160a060020a031661115b565b34801561082557600080fd5b506102fc6004803603602081101561083c57600080fd5b50356111e6565b34801561084f57600080fd5b506101b26004803603606081101561086657600080fd5b600160a060020a038235169160208101359181019060608101604082013564010000000081111561089657600080fd5b8201836020820111156108a857600080fd5b803590602001918460018302840111640100000000831117156108ca57600080fd5b5090925090506111fd565b3480156108e157600080fd5b5061024d600480360360408110156108f857600080fd5b5080359060200135600160a060020a03166112d9565b34801561091a57600080fd5b506101b26004803603602081101561093157600080fd5b5035611373565b34801561094457600080fd5b506102fc6113fa565b600061095f61095a61141d565b610de2565b15156109a3576040805160e560020a62461bcd02815260206004820152601860248201526000805160206136b2833981519152604482015290519081900360640190fd5b6109ad8383611421565b90505b92915050565b600054610100900460ff16806109cf57506109cf611472565b806109dd575060005460ff16155b1515610a35576040805160e560020a62461bcd02815260206004820152602e60248201526000805160206136d283398151915260448201526000805160206136f2833981519152606482015290519081900360840190fd5b600054610100900460ff16158015610a60576000805460ff1961ff0019909116610100171660011790555b610a698a611478565b610a768989898989611597565b607354604080517f313ce5670000000000000000000000000000000000000000000000000000000081529051610b0992600160a060020a03169163313ce567916004808301926020929190829003018186803b158015610ad557600080fd5b505afa158015610ae9573d6000803e3d6000fd5b505050506040513d6020811015610aff57600080fd5b5051858585611728565b8015610b1b576000805461ff00191690555b50505050505050505050565b6060610b3461095a61141d565b1515610b78576040805160e560020a62461bcd02815260206004820152601860248201526000805160206136b2833981519152604482015290519081900360640190fd5b610b818261185f565b805480602002602001604051908101604052809291908181526020018280548015610bcb57602002820191906000526020600020905b815481526020019060010190808311610bb7575b505050505090505b919050565b60009081526033602052604090206002015490565b60006109b0818361106d565b600080600080600080610c0b87611879565b949c939b5091995097509550909350915050565b6040805160008051602061369283398151915281529051908190036008019020610c5090610c4b61141d565b610d06565b565b600082815260336020526040902060020154610c7590610c7061141d565b61106d565b1515610cf1576040805160e560020a62461bcd02815260206004820152602f60248201527f416363657373436f6e74726f6c3a2073656e646572206d75737420626520616e60448201527f2061646d696e20746f206772616e740000000000000000000000000000000000606482015290519081900360840190fd5b610cfb82826118c1565b5050565b607a545b90565b610d0e61141d565b600160a060020a03828116911614610d96576040805160e560020a62461bcd02815260206004820152602f60248201527f416363657373436f6e74726f6c3a2063616e206f6e6c792072656e6f756e636560448201527f20726f6c657320666f722073656c660000000000000000000000000000000000606482015290519081900360840190fd5b610cfb8282611930565b60725490565b60655460715460665460675460735467ffffffffffffffff9094169463ffffffff808516956401000000009095041693600160a060020a031690565b60408051600080516020613692833981519152815290519081900360080190206000906109b0908361106d565b610e1f610e1a61141d565b610bed565b1515610e75576040805160e560020a62461bcd02815260206004820152601560248201527f5265737472696374656420746f2041646d696e732e0000000000000000000000604482015290519081900360640190fd5b610e80600082610c52565b50565b506000908190819081908190565b60008060008060008060008060006060610eac61095a61141d565b1515610ef0576040805160e560020a62461bcd02815260206004820152601860248201526000805160206136b2833981519152604482015290519081900360640190fd5b610ef98b61199f565b99509950995099509950995099509950995099509193959799509193959799565b6000610f2761095a61141d565b1515610f6b576040805160e560020a62461bcd02815260206004820152601860248201526000805160206136b2833981519152604482015290519081900360640190fd5b6000610f7683611ae0565b607154607254607c54929350600092610fc69263ffffffff6401000000008204811693610fba9392821692610fae92909190611d3616565b9063ffffffff611d9316565b9063ffffffff611e2f16565b9050600082600001541115610ffb576000607c556001820154610ff290600160a060020a031682611421565b92505050610bd3565b607c805490910190555060019050610bd3565b600061101861141d565b9050611025600082610d06565b6040805160008051602061369283398151915281529051908190036008019020610e809082610d06565b60008281526033602052604081206109ad908363ffffffff611e7116565b60008281526033602052604081206109ad908363ffffffff611e7d16565b611096610e1a61141d565b15156110ec576040805160e560020a62461bcd02815260206004820152601560248201527f5265737472696374656420746f2041646d696e732e0000000000000000000000604482015290519081900360640190fd5b6040805160008051602061369283398151915281529051908190036008019020610e809082610c52565b6000806000806000806000806000606061113661113161141d565b61199f565b995099509950995099509950995099509950995090919293949596979899565b600081565b611166610e1a61141d565b15156111bc576040805160e560020a62461bcd02815260206004820152601560248201527f5265737472696374656420746f2041646d696e732e0000000000000000000000604482015290519081900360640190fd5b6040805160008051602061369283398151915281529051908190036008019020610e8090826112d9565b60008181526033602052604081206109b090611e92565b600061120a61095a61141d565b151561124e576040805160e560020a62461bcd02815260206004820152601860248201526000805160206136b2833981519152604482015290519081900360640190fd5b600061129286864287878080601f016020809104026020016040519081016040528093929190818152602001838380828437600092019190915250611e9d92505050565b6078549092506112be915061ffff61010082041690610fba90889060ff16600a0a63ffffffff611e2f16565b6000918252607f602052604090912055506001949350505050565b6000828152603360205260409020600201546112f790610c7061141d565b1515610d96576040805160e560020a62461bcd02815260206004820152603060248201527f416363657373436f6e74726f6c3a2073656e646572206d75737420626520616e60448201527f2061646d696e20746f207265766f6b6500000000000000000000000000000000606482015290519081900360840190fd5b600061138061095a61141d565b15156113c4576040805160e560020a62461bcd02815260206004820152601860248201526000805160206136b2833981519152604482015290519081900360640190fd5b6000828152607560205260409020600281015460038201546113f091600160a060020a031690856126be565b5060019392505050565b604080516000805160206136928339815191528152905190819003600801902081565b3390565b60008061142e8484612b87565b6078549091506114599061ffff61010082041690610fba90869060ff16600a0a63ffffffff611e2f16565b6000918252607f60205260409091205550600192915050565b303b1590565b600054610100900460ff16806114915750611491611472565b8061149f575060005460ff16155b15156114f7576040805160e560020a62461bcd02815260206004820152602e60248201526000805160206136d283398151915260448201526000805160206136f2833981519152606482015290519081900360840190fd5b600054610100900460ff16158015611522576000805460ff1961ff0019909116610100171660011790555b604080516000805160206136928339815191528152905190819003600801902061154d906000612f0a565b611558600083610cf1565b60408051600080516020613692833981519152815290519081900360080190206115829083610cf1565b8015610cfb576000805461ff00191690555050565b600054610100900460ff16806115b057506115b0611472565b806115be575060005460ff16155b1515611616576040805160e560020a62461bcd02815260206004820152602e60248201526000805160206136d283398151915260448201526000805160206136f2833981519152606482015290519081900360840190fd5b600054610100900460ff16158015611641576000805460ff1961ff0019909116610100171660011790555b6073805473ffffffffffffffffffffffffffffffffffffffff1916600160a060020a0388161790556071805463ffffffff191663ffffffff8781169190911767ffffffff000000001916640100000000918716919091021790556065805467ffffffffffffffff191667ffffffffffffffff851617905560668290556040805160608082018352600180835260208084018290526000938501849052606a829055606b829055606c8490558451928301855281835282018190529201819052606e829055606f919091556070558015611720576000805461ff00191690555b505050505050565b600054610100900460ff16806117415750611741611472565b8061174f575060005460ff16155b15156117a7576040805160e560020a62461bcd02815260206004820152602e60248201526000805160206136d283398151915260448201526000805160206136f2833981519152606482015290519081900360840190fd5b600054610100900460ff161580156117d2576000805460ff1961ff0019909116610100171660011790555b6078805460ff191660ff87161762ffff00191661010061ffff878116919091029190911764ffff0000001916630100000091861691909102179055607b805463ffffffff191663ffffffff841617905560408051602081019091526001908190526077805466ffffffffffffff191690911790558015611858576000805461ff00191690555b5050505050565b600160a060020a0316600090815260816020526040902090565b6000818152607d6020526040812060018101548154600160a060020a03909116918391829182918291906118ac90612f1f565b939c999b509199509790965090945092505050565b60008281526033602052604090206118df908263ffffffff612f6f16565b15610cfb576118ec61141d565b600160a060020a031681600160a060020a0316837f2f8788117e7eff1d82e926ec794901d17c78024a50270940304540a733656f0d60405160405180910390a45050565b600082815260336020526040902061194e908263ffffffff612f8416565b15610cfb5761195b61141d565b600160a060020a031681600160a060020a0316837ff6391f5c32d9c69d2a47ea670b442974b53935d1edc7fd64eb21e047a839171b60405160405180910390a45050565b600160a060020a0380821660009081526074602090815260408083208054600180830154600280850154600386015460048701546005880154600689015460078a0180548c51601f6000199b831615610100029b909b01909116979097049889018d90048d0287018d01909b528786529b9c8d9c8d9c8d9c8d9c8d9c8d9c8d9c8d9c60609c949b939a91999885169863ffffffff74010000000000000000000000000000000000000000870481169960c060020a909704169794969295909460ff909116938391830182828015611ab75780601f10611a8c57610100808354040283529160200191611ab7565b820191906000526020600020905b815481529060010190602001808311611a9a57829003601f168201915b505050505090509a509a509a509a509a509a509a509a509a509a50509193959799509193959799565b600081815260826020526040812080548290607d908290849082908110611b0357fe5b906000526020600020015481526020019081526020016000209050600080611b2e8360000154612f1f565b5060018701549395509350600092611b5d925066ffffffffffffff861691508490600160a060020a0316612f99565b607988905560008881526083602090815260408083208484529091529020549091508190819015611bfe576040805160e560020a62461bcd02815260206004820152602660248201527f476c7577615072697a65447261773a207468652064726177206861732062656560448201527f6e206d6164650000000000000000000000000000000000000000000000000000606482015290519081900360840190fd5b6079546000908152608360209081526040808320868452909152902066ffffffffffffff8616905560015b8754811015611cf1576000607d60008a84815481101515611c4657fe5b906000526020600020015481526020019081526020016000209050600080611c718360000154612f1f565b5060018701549395509350600092611ca0925066ffffffffffffff861691508490600160a060020a0316612f99565b905086811115611cb257809650611cbe565b85811015611cbe578095505b60795460009081526083602090815260408083209383529290522066ffffffffffffff9092169091555050600101611c29565b506000611cfe8284612fe2565b607a8190556079546000908152608360209081526040808320938352928152828220548252607d9052209a9950505050505050505050565b6000828201838110156109ad576040805160e560020a62461bcd02815260206004820152601b60248201527f536166654d6174683a206164646974696f6e206f766572666c6f770000000000604482015290519081900360640190fd5b6000821515611da4575060006109b0565b828202828482811515611db357fe5b04146109ad576040805160e560020a62461bcd02815260206004820152602160248201527f536166654d6174683a206d756c7469706c69636174696f6e206f766572666c6f60448201527f7700000000000000000000000000000000000000000000000000000000000000606482015290519081900360840190fd5b60006109ad83836040805190810160405280601a81526020017f536166654d6174683a206469766973696f6e206279207a65726f00000000000081525061304a565b60006109ad83836130f3565b60006109ad83600160a060020a038416613195565b60006109b0826131ad565b600080600160a060020a0386161515611f26576040805160e560020a62461bcd02815260206004820152603860248201527f476c757761536176696e674163636f756e743a20536176696e67206f776e657260448201527f2061646472657373206d75737420626520646566696e65640000000000000000606482015290519081900360840190fd5b600160a060020a03861660009081526074602052604090206003015415611fe3576040805160e560020a62461bcd02815260206004820152604760248201527f476c757761536176696e674163636f756e743a2045616368206164647265737360448201527f2073686f756c642068617665206f6e6c79203120536176696e67206163636f7560648201527f6e74206f6e6c7900000000000000000000000000000000000000000000000000608482015290519081900360a40190fd5b6076836040518082805190602001908083835b602083106120155780518252601f199092019160209182019101611ff6565b51815160209384036101000a600019018019909216911617905292019485525060405193849003019092205460ff161591506120c39050576040805160e560020a62461bcd02815260206004820152603160248201527f476c757761536176696e674163636f756e743a204964656e746974792068617360448201527f6820697320616c72656164792075736564000000000000000000000000000000606482015290519081900360840190fd5b607354604080517f23b872dd000000000000000000000000000000000000000000000000000000008152600160a060020a03898116600483015230602483015260448201899052915191909216916323b872dd9160648083019260209291908290030181600087803b15801561213857600080fd5b505af115801561214c573d6000803e3d6000fd5b505050506040513d602081101561216257600080fd5b50511515612206576040805160e560020a62461bcd02815260206004820152604860248201527f476c757761536176696e674163636f756e743a20556e61626c6520746f20736560448201527f6e6420616d6f756e7420746f206465706f73697420746f206120536176696e6760648201527f204163636f756e74000000000000000000000000000000000000000000000000608482015290519081900360a40190fd5b604080517f84cefce000000000000000000000000000000000000000000000000000000000815260048101869052306024820152600160a060020a0388166044820152905160009173__$8ad4cadfbfab443c6ed09b45690dcdfb0d$__916384cefce091606480820192602092909190829003018186803b15801561228a57600080fd5b505af415801561229e573d6000803e3d6000fd5b505050506040513d60208110156122b457600080fd5b5051606b54604080517ffd96809e000000000000000000000000000000000000000000000000000000008152600481019290925260248201899052306044830152600160a060020a038a1660648301525191925060009173__$8ad4cadfbfab443c6ed09b45690dcdfb0d$__9163fd96809e916084808301926020929190829003018186803b15801561234657600080fd5b505af415801561235a573d6000803e3d6000fd5b505050506040513d602081101561237057600080fd5b50516040805161014081018252606b54815260208101859052600160a060020a038b169181019190915260715463ffffffff808216606084015264010000000090910416608082015260a0810188905260c08101899052600060e08201529091506101008101600181526020908101879052600160a060020a038a81166000908152607483526040908190208451815592840151600180850191909155908401516002840180546060870151608088015173ffffffffffffffffffffffffffffffffffffffff19909216939095169290921777ffffffff000000000000000000000000000000000000000019167401000000000000000000000000000000000000000063ffffffff95861602177fffffffff00000000ffffffffffffffffffffffffffffffffffffffffffffffff1660c060020a94909216939093021790915560a0830151600383015560c083015160048084019190915560e084015160058401556101008401516006840180549193909260ff199092169184908111156124f457fe5b021790555061012082015180516125159160078401916020909101906135c4565b50506040805160a081018252606f548152606b546020808301918252600160a060020a038d8116848601908152606085018d8152608086018f815260008a815260758652889020965187559451600180880191909155915160028701805473ffffffffffffffffffffffffffffffffffffffff191691909416179092559051600385015591516004909301929092559151885192935060769289928291908401908083835b602083106125d95780518252601f1990920191602091820191016125ba565b51815160209384036101000a60001901801990921691161790529201948552506040519384900301909220805460ff1916931515939093179092555061262290506069836131b1565b612633606d8263ffffffff6131b116565b6072805488019055604051600160a060020a0389169083907fae420988b408fa1c16c342c73f56ece9307da09db1ac6b36fc8d9ff61acaa9a290600090a3604080518881529051600160a060020a038a169183917f2e2791fe9306933f4d6468aab16a0195b3ab2b342887b2e1be4aa35f568322979181900360200190a39097909650945050505050565b6000818152607e6020908152604080832054607f90925282205460609291900390811161275b576040805160e560020a62461bcd02815260206004820152603f60248201527f476c7577615072697a65447261773a206e6f206d6f7265207469636b6574732060448201527f63616e206265206372656174656420666f722074686973206465706f73697400606482015290519081900360840190fd5b607b5463ffffffff168082101561276f5750805b612777613642565b612780866131e1565b90506000600290506010826060015160ff1610806127b85750816060015160ff1660101480156127b85750603b826080015160ff1611155b156127c1575060015b6020808301518351604080517f8980747400000000000000000000000000000000000000000000000000000000815260ff909316600484015261ffff90911660248301525160009273__$05084330c9bf728fdd5577c5afe72a471f$__9263898074749260448083019392829003018186803b15801561284057600080fd5b505af4158015612854573d6000803e3d6000fd5b505050506040513d602081101561286a57600080fd5b5051604084015190915060ff8083169184011611156128cf57826020015160ff16600c1415156128a75760208301805160010160ff1690526128ba565b825161ffff600191820116845260208401525b604083018051830182900360ff1690526128dd565b604083018051830160ff1690525b60116060840181905260006080850181905260a08501819052845160208087015160408089015181517f0a37f14b00000000000000000000000000000000000000000000000000000000815261ffff909516600486015260ff9283166024860152909116604484015260648301949094526084820183905260a482018390529251919273__$05084330c9bf728fdd5577c5afe72a471f$__92630a37f14b9260c4808201939291829003018186803b15801561299857600080fd5b505af41580156129ac573d6000803e3d6000fd5b505050506040513d60208110156129c257600080fd5b50516078546077549192506301000000900461ffff1643016c010000000000000000000000008b0217720100000000000000000000000000000000000083021760c060020a179066ffffffffffffff165b60775466ffffffffffffff90811663ffffffff89160181169082161015612b535760c88166ffffffffffffff169060020a028217915060408051908101604052808381526020018d600160a060020a0316815250607d60008366ffffffffffffff1681526020019081526020016000206000820151816000015560208201518160010160006101000a815481600160a060020a030219169083600160a060020a03160217905550905050612afd8166ffffffffffffff16608160008f600160a060020a0316600160a060020a0316815260200190815260200160002061330f90919063ffffffff16565b6000838152608260205260409020612b249066ffffffffffffff831663ffffffff61330f16565b60008a8152607e60205260409020612b4b9066ffffffffffffff831663ffffffff61330f16565b600101612a13565b5060778054612b79919066ffffffffffffff1663ffffffff808a16919091019061332716565b505050505050509392505050565b600160a060020a038216600090815260746020526040812060038101548210612c20576040805160e560020a62461bcd02815260206004820152602560248201527f476c757761536176696e674163636f756e743a204163636f756e74206e6f742060448201527f666f756e64000000000000000000000000000000000000000000000000000000606482015290519081900360840190fd5b607354604080517f23b872dd000000000000000000000000000000000000000000000000000000008152600160a060020a03878116600483015230602483015260448201879052915191909216916323b872dd9160648083019260209291908290030181600087803b158015612c9557600080fd5b505af1158015612ca9573d6000803e3d6000fd5b505050506040513d6020811015612cbf57600080fd5b50511515612d63576040805160e560020a62461bcd02815260206004820152604860248201527f476c757761536176696e674163636f756e743a20556e61626c6520746f20736560448201527f6e6420616d6f756e7420746f206465706f73697420746f206120536176696e6760648201527f204163636f756e74000000000000000000000000000000000000000000000000608482015290519081900360a40190fd5b600480820180548501905560728054850190558154604080517ffd96809e0000000000000000000000000000000000000000000000000000000081529283019190915260248201859052306044830152600160a060020a03861660648301525160009173__$8ad4cadfbfab443c6ed09b45690dcdfb0d$__9163fd96809e91608480820192602092909190829003018186803b158015612e0257600080fd5b505af4158015612e16573d6000803e3d6000fd5b505050506040513d6020811015612e2c57600080fd5b50516040805160a081018252606f54815284546020808301918252600160a060020a038a81168486019081524260608601908152608086018c815260008981526075909552969093209451855592516001850155915160028401805473ffffffffffffffffffffffffffffffffffffffff1916919093161790915551600382015590516004909101559050612ec2606d826131b1565b604080518581529051600160a060020a0387169183917f2e2791fe9306933f4d6468aab16a0195b3ab2b342887b2e1be4aa35f568322979181900360200190a3949350505050565b60009182526033602052604090912060020155565b7901000000000000000000000000000000000000000000000000008104916c01000000000000000000000000820491720100000000000000000000000000000000000081049160c060020a820490565b60006109ad83600160a060020a038416613344565b60006109ad83600160a060020a038416613390565b60006c01000000000000000000000000600160a060020a03831602612fc767ffffffffffffffff861661345a565b6bffffffffffffffffffffffff851640181890509392505050565b60408051426020808301829052434083850152606083019190915244608083015260a0820184905260c08083018690528351808403909101815260e09092019092528051910120600090819084906001828603019081151561304057fe5b0601949350505050565b6000818184116130db5760405160e560020a62461bcd0281526004018080602001828103825283818151815260200191508051906020019080838360005b838110156130a0578181015183820152602001613088565b50505050905090810190601f1680156130cd5780820380516001836020036101000a031916815260200191505b509250505060405180910390fd5b50600083858115156130e957fe5b0495945050505050565b81546000908210613174576040805160e560020a62461bcd02815260206004820152602260248201527f456e756d657261626c655365743a20696e646578206f7574206f6620626f756e60448201527f6473000000000000000000000000000000000000000000000000000000000000606482015290519081900360840190fd5b825483908390811061318257fe5b9060005260206000200154905092915050565b60009081526001919091016020526040902054151590565b5490565b60028201805460009081526020849052604090209190915580546001908101909155600390910180549091019055565b6131e9613642565b6131f282613462565b61ffff16815260006132056107b26134e4565b82516132149061ffff166134e4565b0361ffff1690506000816301e2850002826107b285600001510361ffff16036301e13380020190506000806000600190505b600c60ff8216116132945761326381876000015161ffff166134ff565b91508160ff16620151800292508684840111156132885760ff81166020870152613294565b92820192600101613246565b5060015b60ff808316908216116132d1578684620151800111156132c05760ff811660408701526132d1565b620151809390930192600101613298565b6132da87613571565b60ff1660608701526132eb8761358b565b60ff1660808701526132fc87613596565b60ff1660a0870152509395945050505050565b81546001810183556000928352602090922090910155565b815466ffffffffffffff191666ffffffffffffff91909116179055565b60006133508383613195565b1515613388575081546001818101845560008481526020808220909301849055845484825282860190935260409020919091556109b0565b5060006109b0565b6000818152600183016020526040812054801561345057835460001980830191908101906000908790839081106133c357fe5b906000526020600020015490508087600001848154811015156133e257fe5b600091825260208083209091019290925582815260018981019092526040902090840190558654879080151561341457fe5b600190038181906000526020600020016000905590558660010160008781526020019081526020016000206000905560019450505050506109b0565b60009150506109b0565b602052600090565b60006107b26301e133808304810190829061347c906134e4565b613485836134e4565b0361ffff1690506301e2850081026107b119828403016301e1338002015b848111156134db576134b7600184036135a0565b156134c8576301e284ff19016134d0565b6301e1337f19015b6001830392506134a3565b50909392505050565b60001901600060648204610190830460048404010392915050565b60008260ff166002141561352b57613516826135a0565b156135235750601d6109b0565b50601c6109b0565b8260ff166004148061354057508260ff166006145b8061354e57508260ff166009145b8061355c57508260ff16600b145b156135695750601e6109b0565b50601f6109b0565b60006018610e10835b0481151561358457fe5b0692915050565b6000603c808361357a565b6000603c82613584565b6000610190820615806109b05750600482061580156109b057505060649006151590565b828054600181600116156101000203166002900490600052602060002090601f016020900481019282601f1061360557805160ff1916838001178555613632565b82800160010185558215613632579182015b82811115613632578251825591602001919060010190613617565b5061363e929150613677565b5090565b6040805160c081018252600080825260208201819052918101829052606081018290526080810182905260a081019190915290565b610d0391905b8082111561363e576000815560010161367d56fe4f50455241544f520000000000000000000000000000000000000000000000005265737472696374656420746f204f70657261746f72732e0000000000000000436f6e747261637420696e7374616e63652068617320616c7265616479206265656e20696e697469616c697a6564000000000000000000000000000000000000a165627a7a72305820ec6983ec1ced680d960811f8374850a8eb15ccdd6fcfa0dce5ce4d9b9305b7dc0029",
  "linkReferences": {
    "contracts/libs/DateTimeModel.sol": {
      "DateTimeModel": [
        {
          "length": 20,
          "start": 10270
        },
        {
          "length": 20,
          "start": 10613
        }
      ]
    },
    "contracts/libs/GluwaAccountModel.sol": {
      "GluwaAccountModel": [
        {
          "length": 20,
          "start": 8803
        },
        {
          "length": 20,
          "start": 8992
        },
        {
          "length": 20,
          "start": 11739
        }
      ]
    }
  },
  "deployedLinkReferences": {
    "contracts/libs/DateTimeModel.sol": {
      "DateTimeModel": [
        {
          "length": 20,
          "start": 10251
        },
        {
          "length": 20,
          "start": 10594
        }
      ]
    },
    "contracts/libs/GluwaAccountModel.sol": {
      "GluwaAccountModel": [
        {
          "length": 20,
          "start": 8784
        },
        {
          "length": 20,
          "start": 8973
        },
        {
          "length": 20,
          "start": 11720
        }
      ]
    }
  }
}