{
  "_format": "hh-sol-artifact-1",
  "contractName": "VaultControl",
  "sourceName": "contracts/abstracts/VaultControl.sol",
  "abi": [
    {
      "constant": true,
      "inputs": [
        {
          "name": "role",
          "type": "bytes32"
        }
      ],
      "name": "getRoleAdmin",
      "outputs": [
        {
          "name": "",
          "type": "bytes32"
        }
      ],
      "payable": false,
      "stateMutability": "view",
      "type": "function"
    },
    {
      "constant": true,
      "inputs": [
        {
          "name": "account",
          "type": "address"
        }
      ],
      "name": "isAdmin",
      "outputs": [
        {
          "name": "",
          "type": "bool"
        }
      ],
      "payable": false,
      "stateMutability": "view",
      "type": "function"
    },
    {
      "constant": false,
      "inputs": [],
      "name": "renounceOperator",
      "outputs": [],
      "payable": false,
      "stateMutability": "nonpayable",
      "type": "function"
    },
    {
      "constant": false,
      "inputs": [
        {
          "name": "role",
          "type": "bytes32"
        },
        {
          "name": "account",
          "type": "address"
        }
      ],
      "name": "grantRole",
      "outputs": [],
      "payable": false,
      "stateMutability": "nonpayable",
      "type": "function"
    },
    {
      "constant": false,
      "inputs": [
        {
          "name": "role",
          "type": "bytes32"
        },
        {
          "name": "account",
          "type": "address"
        }
      ],
      "name": "renounceRole",
      "outputs": [],
      "payable": false,
      "stateMutability": "nonpayable",
      "type": "function"
    },
    {
      "constant": true,
      "inputs": [
        {
          "name": "account",
          "type": "address"
        }
      ],
      "name": "isOperator",
      "outputs": [
        {
          "name": "",
          "type": "bool"
        }
      ],
      "payable": false,
      "stateMutability": "view",
      "type": "function"
    },
    {
      "constant": false,
      "inputs": [
        {
          "name": "account",
          "type": "address"
        }
      ],
      "name": "addAdmin",
      "outputs": [],
      "payable": false,
      "stateMutability": "nonpayable",
      "type": "function"
    },
    {
      "constant": true,
      "inputs": [
        {
          "name": "c__0xfd3e751c",
          "type": "bytes32"
        }
      ],
      "name": "c_0xfd3e751c",
      "outputs": [],
      "payable": false,
      "stateMutability": "pure",
      "type": "function"
    },
    {
      "constant": false,
      "inputs": [],
      "name": "renounceAdmin",
      "outputs": [],
      "payable": false,
      "stateMutability": "nonpayable",
      "type": "function"
    },
    {
      "constant": true,
      "inputs": [
        {
          "name": "role",
          "type": "bytes32"
        },
        {
          "name": "index",
          "type": "uint256"
        }
      ],
      "name": "getRoleMember",
      "outputs": [
        {
          "name": "",
          "type": "address"
        }
      ],
      "payable": false,
      "stateMutability": "view",
      "type": "function"
    },
    {
      "constant": true,
      "inputs": [
        {
          "name": "role",
          "type": "bytes32"
        },
        {
          "name": "account",
          "type": "address"
        }
      ],
      "name": "hasRole",
      "outputs": [
        {
          "name": "",
          "type": "bool"
        }
      ],
      "payable": false,
      "stateMutability": "view",
      "type": "function"
    },
    {
      "constant": false,
      "inputs": [
        {
          "name": "account",
          "type": "address"
        }
      ],
      "name": "addOperator",
      "outputs": [],
      "payable": false,
      "stateMutability": "nonpayable",
      "type": "function"
    },
    {
      "constant": true,
      "inputs": [],
      "name": "DEFAULT_ADMIN_ROLE",
      "outputs": [
        {
          "name": "",
          "type": "bytes32"
        }
      ],
      "payable": false,
      "stateMutability": "view",
      "type": "function"
    },
    {
      "constant": false,
      "inputs": [
        {
          "name": "account",
          "type": "address"
        }
      ],
      "name": "removeOperator",
      "outputs": [],
      "payable": false,
      "stateMutability": "nonpayable",
      "type": "function"
    },
    {
      "constant": true,
      "inputs": [
        {
          "name": "role",
          "type": "bytes32"
        }
      ],
      "name": "getRoleMemberCount",
      "outputs": [
        {
          "name": "",
          "type": "uint256"
        }
      ],
      "payable": false,
      "stateMutability": "view",
      "type": "function"
    },
    {
      "constant": false,
      "inputs": [
        {
          "name": "role",
          "type": "bytes32"
        },
        {
          "name": "account",
          "type": "address"
        }
      ],
      "name": "revokeRole",
      "outputs": [],
      "payable": false,
      "stateMutability": "nonpayable",
      "type": "function"
    },
    {
      "constant": true,
      "inputs": [
        {
          "name": "c__0x3cfa3e8e",
          "type": "bytes32"
        }
      ],
      "name": "c_0x3cfa3e8e",
      "outputs": [],
      "payable": false,
      "stateMutability": "pure",
      "type": "function"
    },
    {
      "constant": true,
      "inputs": [],
      "name": "OPERATOR_ROLE",
      "outputs": [
        {
          "name": "",
          "type": "bytes32"
        }
      ],
      "payable": false,
      "stateMutability": "view",
      "type": "function"
    },
    {
      "anonymous": false,
      "inputs": [
        {
          "indexed": true,
          "name": "role",
          "type": "bytes32"
        },
        {
          "indexed": true,
          "name": "account",
          "type": "address"
        },
        {
          "indexed": true,
          "name": "sender",
          "type": "address"
        }
      ],
      "name": "RoleGranted",
      "type": "event"
    },
    {
      "anonymous": false,
      "inputs": [
        {
          "indexed": true,
          "name": "role",
          "type": "bytes32"
        },
        {
          "indexed": true,
          "name": "account",
          "type": "address"
        },
        {
          "indexed": true,
          "name": "sender",
          "type": "address"
        }
      ],
      "name": "RoleRevoked",
      "type": "event"
    }
  ],
  "bytecode": "0x6080604052612c2a806100136000396000f3fe6080604052600436106100fc576000357c0100000000000000000000000000000000000000000000000000000000900463ffffffff168063248a9ca31461010157806324d7806c146101505780632ab6f8db146101b95780632f2ff15d146101d057806336568abe1461022b5780636d70f7ae1461028657806370480275146102ef57806386f8474c146103405780638bad0c0a1461037b5780639010d07c1461039257806391d14854146104175780639870d7fe1461048a578063a217fddf146104db578063ac8a584a14610506578063ca15c87314610557578063d547741f146105a6578063ed5c049114610601578063f5b541a61461063c575b600080fd5b34801561010d57600080fd5b5061013a6004803603602081101561012457600080fd5b8101908080359060200190929190505050610667565b6040518082815260200191505060405180910390f35b34801561015c57600080fd5b5061019f6004803603602081101561017357600080fd5b81019080803573ffffffffffffffffffffffffffffffffffffffff16906020019092919050505061070b565b604051808215151515815260200191505060405180910390f35b3480156101c557600080fd5b506101ce6107a6565b005b3480156101dc57600080fd5b50610229600480360360408110156101f357600080fd5b8101908080359060200190929190803573ffffffffffffffffffffffffffffffffffffffff169060200190929190505050610872565b005b34801561023757600080fd5b506102846004803603604081101561024e57600080fd5b8101908080359060200190929190803573ffffffffffffffffffffffffffffffffffffffff169060200190929190505050610a75565b005b34801561029257600080fd5b506102d5600480360360208110156102a957600080fd5b81019080803573ffffffffffffffffffffffffffffffffffffffff169060200190929190505050610c87565b604051808215151515815260200191505060405180910390f35b3480156102fb57600080fd5b5061033e6004803603602081101561031257600080fd5b81019080803573ffffffffffffffffffffffffffffffffffffffff169060200190929190505050610d53565b005b34801561034c57600080fd5b506103796004803603602081101561036357600080fd5b8101908080359060200190929190505050610f74565b005b34801561038757600080fd5b50610390610f77565b005b34801561039e57600080fd5b506103d5600480360360408110156103b557600080fd5b810190808035906020019092919080359060200190929190505050611107565b604051808273ffffffffffffffffffffffffffffffffffffffff1673ffffffffffffffffffffffffffffffffffffffff16815260200191505060405180910390f35b34801561042357600080fd5b506104706004803603604081101561043a57600080fd5b8101908080359060200190929190803573ffffffffffffffffffffffffffffffffffffffff1690602001909291905050506111bd565b604051808215151515815260200191505060405180910390f35b34801561049657600080fd5b506104d9600480360360208110156104ad57600080fd5b81019080803573ffffffffffffffffffffffffffffffffffffffff169060200190929190505050611273565b005b3480156104e757600080fd5b506104f06114c5565b6040518082815260200191505060405180910390f35b34801561051257600080fd5b506105556004803603602081101561052957600080fd5b81019080803573ffffffffffffffffffffffffffffffffffffffff1690602001909291905050506114cd565b005b34801561056357600080fd5b506105906004803603602081101561057a57600080fd5b810190808035906020019092919050505061171f565b6040518082815260200191505060405180910390f35b3480156105b257600080fd5b506105ff600480360360408110156105c957600080fd5b8101908080359060200190929190803573ffffffffffffffffffffffffffffffffffffffff1690602001909291905050506117ca565b005b34801561060d57600080fd5b5061063a6004803603602081101561062457600080fd5b81019080803590602001909291905050506119cd565b005b34801561064857600080fd5b506106516119d0565b6040518082815260200191505060405180910390f35b60006106957f433294070be26091e7d86a9df5bd4244f369eb92740f08f2b9f5dee15dae218c600102610f74565b6106c17f9907d011a40ed9cb525bc9703c302f3d71ee5b67daac1b37a8ef10b968f4f268600102610f74565b6106ed7f986fc817075028f0f7a6cb089481ce6acf40cfa9302d016869b03d52c9d08c88600102610f74565b60336000838152602001908152602001600020600201549050919050565b60006107397f453557595d5569438781ff2bffda3521e47a9e00825bc9def362d351cf3e1c746001026119cd565b6107657f36164c6dee9768d45bd325d105734bbcb52f53401478cd02c4ecad63c18b8e686001026119cd565b6107917fc2ac55851c10e49d80d29047d52eddd577a7571d2b2f4dad9e5fcaa5c07a9bb26001026119cd565b61079f6000600102836111bd565b9050919050565b6107d27f6b6789300eb743a8447edde74dfce42f76d507d74fabf8555209106a6cf6835d6001026119cd565b6107fe7fe963ba32f3b2b2511f3b61c6a1cf8ec3b8865be585223e913dad37234ec3dba76001026119cd565b61082a7f4b1da260cff4143833d6e35ffde5e36b26a94146d2f068d1b4ae37ca6d0e94406001026119cd565b61087060405180807f4f50455241544f520000000000000000000000000000000000000000000000008152506008019050604051809103902061086b611a09565b610a75565b565b61089e7f9890401fd59cad5dec194d56f8e1f971f8f878bef0e4ff70e116fd19483f5662600102610f74565b6108ca7f66ef1e06f668d8e0c0d4f82edeefadbe8c80204e2512f9d3541f84665b1015fa600102610f74565b6108f67fea6f68aaa4e23e70c3a5d466be2b66373b71c8e3a915c17e44d497696e9a338e600102610f74565b6109227f7c8a75d871e37bb3adbbbea0732c29f9ce19596157638c44ae73c5d9909177a4600102610f74565b6109496033600084815260200190815260200160002060020154610944611a09565b6111bd565b15156109e3576040517f08c379a000000000000000000000000000000000000000000000000000000000815260040180806020018281038252602f8152602001807f416363657373436f6e74726f6c3a2073656e646572206d75737420626520616e81526020017f2061646d696e20746f206772616e74000000000000000000000000000000000081525060400191505060405180910390fd5b610a0f7f5c8f19add2d84aca7a8087815504b380c1919c10d917dfe0e6f3426480626925600102610f74565b610a3b7ffc62441d050a63d198d2f97f5a25bb420519fd407e5d50f08312815303d5dd21600102610f74565b610a677fd64e96f3e91efc239c01bf30d1d8ff0775b4d6b65061ba43ed41ed007d276239600102610f74565b610a718282611a11565b5050565b610aa17f178ba80f02f74abd0ff251d2ea78ec810b40bec9630b6a70cdfbec8d0795e142600102610f74565b610acd7fec551c3ea353e36cbba2586629cb6098113180911ee1a321937b05ae2a2752b6600102610f74565b610af97f84fcfc621d3e05319f4172e0bac43d08f99c5f386a82d921c479c6bf1caa5b9e600102610f74565b610b257f97749d5907af942f23e24dab2e4d9d9f86169e20828b78fbb02c7397aba20dec600102610f74565b610b2d611a09565b73ffffffffffffffffffffffffffffffffffffffff168173ffffffffffffffffffffffffffffffffffffffff16141515610bf5576040517f08c379a000000000000000000000000000000000000000000000000000000000815260040180806020018281038252602f8152602001807f416363657373436f6e74726f6c3a2063616e206f6e6c792072656e6f756e636581526020017f20726f6c657320666f722073656c66000000000000000000000000000000000081525060400191505060405180910390fd5b610c217f6071ae2abfff4312103bd8739211263b643becbb57462f9074353c4b638bc8fb600102610f74565b610c4d7f78c9d2effdd2cf4ffcfc49a15eb93d30fb2345626d55331fafe2577c45492945600102610f74565b610c797f0f8d5525ab20fc25e211108856f9e9c2d7686d4bca86323a95f73b4befbd1905600102610f74565b610c838282611bde565b5050565b6000610cb57f1879b1107adb408f8af76f8f45ac4e99c6f1bcc9102431bca363de52c073b1dd6001026119cd565b610ce17fd7067e1fc31ce2497d1aad67288494aad7eff15e9ad64f38f62ac1f1944306916001026119cd565b610d0d7f789ba8c5ad5c32a80dfff31774c44fcc100d45bdb016459c014ebdcb9ac242226001026119cd565b610d4c60405180807f4f50455241544f5200000000000000000000000000000000000000000000000081525060080190506040518091039020836111bd565b9050919050565b610d7f7ff7dbf51cbcdfc272109df29ce8ee589e577d32bca64f317f28ffa27f8e2395096001026119cd565b610dab7fb9c4645ec4363ca07ddaefab6c56e3b97595d05b0f9b7b78604b442092cd001b6001026119cd565b610dd77f12e3f6e826708ec13cb8e33d9dfa2eedf412e4d21685208575c9080bbdcdf4746001026119cd565b610e037f150c1f904fe0c1d2f7a31162f5217d4d07c87854ee9f1013b84b4a0201d3e1fb6001026119cd565b610e13610e0e611a09565b61070b565b1515610e87576040517f08c379a00000000000000000000000000000000000000000000000000000000081526004018080602001828103825260158152602001807f5265737472696374656420746f2041646d696e732e000000000000000000000081525060200191505060405180910390fd5b610eb37f3a927a1908dff92aaf343f9a9dfd70ce943abc4aa14bc384662aea3b37a017f06001026119cd565b610edf7f2269e0bd13e5cbaefe2045e6d1c22c909b9219f2bd4b7672480604fb38c98aff6001026119cd565b610f0b7fb725922c818f0782603dba098ae6ebcd63326dfb07c08fa6ef52bb86e381fb366001026119cd565b610f377f269b98238e7be55b5d7a3db79f2a96a0e9fa4e47593a6bb52d82c25d08facd7e6001026119cd565b610f637fa0a2fde32d4e52005b78eac14a1ab6ae68b38ec56c08824fdb8abe489653882d6001026119cd565b610f71600060010282610872565b50565b50565b610fa37f241ba548cc8253817305eb6cbd99b145edfcecbfaeaba1576d256fce484d5ab26001026119cd565b610fcf7fc0aad2c1f4c71d0d45099bfc691c3cd5b001f96af75e9e3b342f389f86c261476001026119cd565b610ffb7f86524858a643a3d44641956918739c1a8adbfa262f51365867258a74777ab6e86001026119cd565b6000611005611a09565b90506110337f34882e832c710efee608a8c31c6b4f81a2882df9495d9d914960835bc5ed3a6f6001026119cd565b61105f7fab863da377c52c8f6067472a5ca8df2a2ce6a6f299e205cd7a166b6a8ee319166001026119cd565b61106d600060010282610a75565b6110997fc04152ee14431e8518d6e1e3408bae4047950f36986878ba23f2b59e8842f0de6001026119cd565b6110c57f601f3a50cc2b63877d5d7c9ae87face277a00a3ba6a3868f835b1048a156698f6001026119cd565b61110460405180807f4f50455241544f520000000000000000000000000000000000000000000000008152506008019050604051809103902082610a75565b50565b60006111357f44f06d40964298ea22079cda36046dcfd121686bb49a0c1b80a0eae08ce55945600102610f74565b6111617f72cd481b3bb07d020fc3b7cda33c4c2d3e2e7f9553bac348bcde8f231dc4fc18600102610f74565b61118d7f6eb98de5cc4982251f208140de22f6b8311bb14ab13aced174eddba3a1a904be600102610f74565b6111b58260336000868152602001908152602001600020600001611daa90919063ffffffff16565b905092915050565b60006111eb7f9717c4659c97c82d0096590103bcc8cb92264aea4c03f43c92846d88fbb924e7600102610f74565b6112177f493b91d2b4dd206a7a59c3d8d086e86b331838ea0c36abafcec14df2cc77f5ed600102610f74565b6112437f86c119a49118cfc851222c11f3f46a758076da295127c8733cff5a8388ef1ffb600102610f74565b61126b8260336000868152602001908152602001600020600001611e4990919063ffffffff16565b905092915050565b61129f7ff7dbf51cbcdfc272109df29ce8ee589e577d32bca64f317f28ffa27f8e2395096001026119cd565b6112cb7fb9c4645ec4363ca07ddaefab6c56e3b97595d05b0f9b7b78604b442092cd001b6001026119cd565b6112f77f12e3f6e826708ec13cb8e33d9dfa2eedf412e4d21685208575c9080bbdcdf4746001026119cd565b6113237f150c1f904fe0c1d2f7a31162f5217d4d07c87854ee9f1013b84b4a0201d3e1fb6001026119cd565b61133361132e611a09565b61070b565b15156113a7576040517f08c379a00000000000000000000000000000000000000000000000000000000081526004018080602001828103825260158152602001807f5265737472696374656420746f2041646d696e732e000000000000000000000081525060200191505060405180910390fd5b6113d37f3a927a1908dff92aaf343f9a9dfd70ce943abc4aa14bc384662aea3b37a017f06001026119cd565b6113ff7f2269e0bd13e5cbaefe2045e6d1c22c909b9219f2bd4b7672480604fb38c98aff6001026119cd565b61142b7f02ecd88ec5aa7f79e1b04fa2d5196f70633b82efea766ec554a5367eb186c0ed6001026119cd565b6114577ffd7e2637835a60722c80d268652d57225b15dde47b888629fcd49b6f443284bc6001026119cd565b6114837fef0ee839a87e09beff700b1545467b1e7edec5145e69a952185625b7febbbeaf6001026119cd565b6114c260405180807f4f50455241544f520000000000000000000000000000000000000000000000008152506008019050604051809103902082610872565b50565b600060010281565b6114f97ff7dbf51cbcdfc272109df29ce8ee589e577d32bca64f317f28ffa27f8e2395096001026119cd565b6115257fb9c4645ec4363ca07ddaefab6c56e3b97595d05b0f9b7b78604b442092cd001b6001026119cd565b6115517f12e3f6e826708ec13cb8e33d9dfa2eedf412e4d21685208575c9080bbdcdf4746001026119cd565b61157d7f150c1f904fe0c1d2f7a31162f5217d4d07c87854ee9f1013b84b4a0201d3e1fb6001026119cd565b61158d611588611a09565b61070b565b1515611601576040517f08c379a00000000000000000000000000000000000000000000000000000000081526004018080602001828103825260158152602001807f5265737472696374656420746f2041646d696e732e000000000000000000000081525060200191505060405180910390fd5b61162d7f3a927a1908dff92aaf343f9a9dfd70ce943abc4aa14bc384662aea3b37a017f06001026119cd565b6116597f2269e0bd13e5cbaefe2045e6d1c22c909b9219f2bd4b7672480604fb38c98aff6001026119cd565b6116857fbdf835ee0fe59519e68e959a2766d368864459c142b651dc6d6cc62e98a492876001026119cd565b6116b17fd14e8c1d0c70855f3f901075500965984cbea219b1fa4a42db605c475f4bbee46001026119cd565b6116dd7fbe47793fa43a6c9d58b424bbf96d50fa4160ae78cfe3c5dd4bc34ba1ea7213866001026119cd565b61171c60405180807f4f50455241544f5200000000000000000000000000000000000000000000000081525060080190506040518091039020826117ca565b50565b600061174d7fc5051e054086deec6c7ce99762d4f39637ad216385e8d81a88af053129a5dead600102610f74565b6117797f9bca38d46f8380efa4a25230fbef4066e19ab09fe512066359f31c8e5016dd9f600102610f74565b6117a57f305a98b4dcb9deaeb4ad6d585a3ddd50284c504959838879128fb9d44da89a4f600102610f74565b6117c360336000848152602001908152602001600020600001611efd565b9050919050565b6117f67f8ef3a2c3240e4fed75685458a30e1852c1e366c8a3b897910fa24f0e9c12a393600102610f74565b6118227f9b2d7cec472af26dd1bd892afafe2be066b09e44a7474e6389d058285c4b9598600102610f74565b61184e7f050340438b0b1f0f74eb1ff71edc211936f7fbfc40a7bf8e9ffa724dc49364f4600102610f74565b61187a7fb74ad924ba00500175ccb9c922e90ece5516bede925bc063783bc6086080a705600102610f74565b6118a1603360008481526020019081526020016000206002015461189c611a09565b6111bd565b151561193b576040517f08c379a00000000000000000000000000000000000000000000000000000000081526004018080602001828103825260308152602001807f416363657373436f6e74726f6c3a2073656e646572206d75737420626520616e81526020017f2061646d696e20746f207265766f6b650000000000000000000000000000000081525060400191505060405180910390fd5b6119677fc538a949ad73d85fa871d4fe7b7caf55c98db10decb79e8201e5b229bf49f8d9600102610f74565b6119937f35ef7fe8d6d02844d6863bb6c55f0d1e296384393834f2824348a5a3fe583ff9600102610f74565b6119bf7fe3926445fba9229f612ea4ab3450183300047551d9413fe24bf861e541ee22b4600102610f74565b6119c98282611bde565b5050565b50565b60405180807f4f50455241544f520000000000000000000000000000000000000000000000008152506008019050604051809103902081565b600033905090565b611a3d7fd8479504df472c40b9d2d46578fc0bad271dba561f3c3bfae8432ee4398cd9a8600102610f74565b611a697f056ca1d611325f492ec9a258615105c0c61c1935da3efbb61fbb153378d318dd600102610f74565b611a957fb300cb213a808a8d25947dc127c3188ce2125091b485b407bb84a476fe38d0dc600102610f74565b611abd8160336000858152602001908152602001600020600001611f9690919063ffffffff16565b15611bad57611aee7f7b5ca71ff0c3170626af9f1558f947e9704f6758fabb43f6074fe812966bce56600102610f74565b611b1a7f811d9b367083ade010308c3df46e6c1a758d0a4e066263174dfb6043b644e173600102610f74565b611b467fdb6ee36fa74bfce73b4d7febf4feaf4bdebc1210aab6f5b8693bd4a1f8853a26600102610f74565b611b4e611a09565b73ffffffffffffffffffffffffffffffffffffffff168173ffffffffffffffffffffffffffffffffffffffff16837f2f8788117e7eff1d82e926ec794901d17c78024a50270940304540a733656f0d60405160405180910390a4611bda565b611bd97f85d239db3b4d1b9cced29486f7c80ccb652aafd8e8eae3f7452473f2cc89b51a600102610f74565b5b5050565b611c0a7fedea06ed59008997c5743a16db8568bab5dd9f9c34ed04b0f769daf451feb479600102610f74565b611c367fef1f4435b8ae57ba06f31930b3fb8c9cc004c60b2991c9854f356fda1be49d1b600102610f74565b611c617e8e26e72734111ca057d72127912f0212f88739a7285da44b27658c44d821cd600102610f74565b611c89816033600085815260200190815260200160002060000161204a90919063ffffffff16565b15611d7957611cba7f84b91bc6cd4d63b8761ad13257c7207720ef3cd77d61117e543c387736916e5e600102610f74565b611ce67f9dccac468e58953be22b97f316f61593d0626c019b44f72d0fae41962f2372db600102610f74565b611d127f431977193dba4d85d3d1072d0ba5e1cdccca8cddfd8c4aff4d7ac2ea98d3d4ee600102610f74565b611d1a611a09565b73ffffffffffffffffffffffffffffffffffffffff168173ffffffffffffffffffffffffffffffffffffffff16837ff6391f5c32d9c69d2a47ea670b442974b53935d1edc7fd64eb21e047a839171b60405160405180910390a4611da6565b611da57f28a965b98d8b942f56696427d3c721e5310563fbc5164dca87cf5cf13ea2a9ed600102610f74565b5b5050565b6000611dd87fed54bc75583d419ab275e8111912b68693321933fc327bb4bcf80928ad8b8b496001026120fe565b611e047f3daffd0a9dce28b482d01a551215671bf4393bb2c14e29701cf4960e2f2b12926001026120fe565b611e307f40aa26a0e9be8d065cf56c5a97ee7ecf2d6f7f27a85e81ebb85bf92a3fb598c86001026120fe565b611e3d8360000183612101565b60019004905092915050565b6000611e777f74042fd2ce01d2d4e5b83168db3daaa0ada16dcc55033ff01c774f8d3b09d26b6001026120fe565b611ea37ff5b89a497746cc14694c9f1ed1aeaef6a21f81b1a91b334ac822cb679c327c546001026120fe565b611ecf7f3d2a328b4224524dd5bf276581f8c7e30b93161a3146a223de54a8178318570d6001026120fe565b611ef5836000018373ffffffffffffffffffffffffffffffffffffffff166001026122ff565b905092915050565b6000611f2b7fa53b31889d5006b4901ceb793559ba11b86794ec37414fd5e2572de69058b50b6001026120fe565b611f577f1e389c3a59451a90cc38a462ab78e585703d049faa682b547afe962dd782d9fb6001026120fe565b611f837f91294d2a3cd14ca48c2829d94278cbbc8da604b303f69291b78cc7a96433fb6b6001026120fe565b611f8f826000016123a7565b9050919050565b6000611fc47f808fe5bd45f46ab8ff1cb9aa9c9a30377ea23be0941c4795446d41d254aae5c46001026120fe565b611ff07f556bfe46c39f16f279635b09a7f3e6cb0df504be781b0931db8a40bab702a7976001026120fe565b61201c7f5852ae1c75c424755782c3fdffd26401e1354b9b177513f37690d594b1ebc8ac6001026120fe565b612042836000018373ffffffffffffffffffffffffffffffffffffffff1660010261243c565b905092915050565b60006120787ff852b790830032d89971e2c521d42063f93f9915f774b150a71f19bed01505fa6001026120fe565b6120a47f02a432993c4332c426e42b943b3b019f4f8176664138a13b7aefd4766c8779426001026120fe565b6120d07f4106100c6ddc9e9685bfafb2331061f66fe0bdf557d61e86d3a9e77f415df1c06001026120fe565b6120f6836000018373ffffffffffffffffffffffffffffffffffffffff166001026126ed565b905092915050565b50565b600061212f7fd59aa80060ea20a1bee9535659b672619a59eb9abf365dafefcb942c2613c7f26001026120fe565b61215b7f510cdbe5cda3c6cfdb8e3b071d5f7c35ea460dd72c7be1c916a1934f864dea146001026120fe565b6121877f69556792cf99684702e25e6dffc56bf298f3be73f828931c796488097d672b3c6001026120fe565b6121b37fe7dbbe65769452c853cae620146590604b6b716ac01fb8b203f1ba9fc91fc2246001026120fe565b818360000180549050111515612257576040517f08c379a00000000000000000000000000000000000000000000000000000000081526004018080602001828103825260228152602001807f456e756d657261626c655365743a20696e646578206f7574206f6620626f756e81526020017f647300000000000000000000000000000000000000000000000000000000000081525060400191505060405180910390fd5b6122837f0210cac0db58119dced257e99daceaaac77667d292149865bf117b7ca9eb4bce6001026120fe565b6122af7fbb32f6a0da519ded942950a6895a2c4b30863d395a47575812ea09df9c76aeef6001026120fe565b6122db7f2d7ec9f89494f43c00f58c9ac42d6c4126f5ad30efc6a67b48204435b90bdbe16001026120fe565b82600001828154811015156122ec57fe5b9060005260206000200154905092915050565b600061232d7f91a387f2c534fe2d9593060ddb58e0e80cbd7962a699db2183f7fd9ac7bf071e6001026120fe565b6123597f5273e3157ed309e995284bc9a0977b5e190f596e6d0a7d6a98f63c6c2e9d2cf56001026120fe565b6123857f6d6ed45f9faffdfa6efb315d613b5cf6f6203c948a1d42a6be8e892393847bf56001026120fe565b6000836001016000848152602001908152602001600020541415905092915050565b60006123d57f9c908650b18c4d06afe6e22d13e282f9f484d9b002a6121d345881d9d8d830926001026120fe565b6124017fd1882d1c724fb038c1a118718cfe41c240fcbb742f29604cb573449c428371b76001026120fe565b61242d7fc7f15540aa2b0ce236d481f7560d15ffafee2f2e30cac9beab7e15a266dfe9a76001026120fe565b81600001805490509050919050565b600061246a7fdc98283814e79bb677e4533518e3c2f53f8e4c59687397a7b78347c960536cc16001026120fe565b6124967f08f983703f49cdc3c560deac1d568c63bbb53744daf6748f954f4abb25f1d3e36001026120fe565b6124c27f0766c4b69595c539a4a199f3f3455d725841af480d0c969d04e041bda8fd9e386001026120fe565b6124cc83836122ff565b151561265e576124fe7f8202084254906f7199aff05a1e12a8bc5defcb3bd0dd0722312d025f1cdf92526001026120fe565b61252a7fb1802c0bd1c50eb7a5ea2c418efaeada5280ab5a1302759ddbec40a8207c23e46001026120fe565b6125567fe8b3e427236d7f428acc3936ce49ad58e9149853bdab6138eb2c98e2af6cb8696001026120fe565b826000018290806001815401808255809150509060018203906000526020600020016000909192909190915055506125b07f404abcfd453eafceb908f0c5b1ee91f99c24e35dcdaf36ffd32647ed81f4a0b76001026120fe565b6125dc7f662751195cdb0b90cb1e17966da929da7653f6859a1b7a31c850c33339479f036001026120fe565b8260000180549050836001016000848152602001908152602001600020819055506126297f8f5f086f1efcb1d2f720c6fc80a66f22d2d0a09419c86a81cbda07ae56d460e76001026120fe565b6126557ff12fe73b3f923129741602084dd63137d28cd61a51b82df1b5afc7fe5713cac56001026120fe565b600190506126e7565b61268a7f411725b9e6b16644ba52449ec4d36b92dea2b1bd54b0f03c783a20b7890d00eb6001026120fe565b6126b67f9bd634b5b92fd3e06f26a52ec2939a4a0a84952a011ea5514bc62a4c5373a55c6001026120fe565b6126e27fea4ca516a6106cab84a6a4e89be0f7002b5d6eb029ffab4c054b7ee765fc3c2e6001026120fe565b600090505b92915050565b600061271b7fb46577be114288cc2048caa1c7c40b09dc718696d9a09f0499a1547eb16451a96001026120fe565b6127477f699f127f4fce6e368acc157cac121779c534d2aa962d0533bfdaaae1d69ca05f6001026120fe565b6127737f521bb0fe62e6b7fd3853af763e653963a8408ffb348ef253e2d2f6e4ce4cd2216001026120fe565b60008360010160008481526020019081526020016000205490506127b97f9b482a5f51b8ea016ff5ab73974f6b85a6fd2a1eb01a8ee81de32df7a2a8da356001026120fe565b6127e57fce3c0267f6afecccc16fb1df160b30bad8dd9e6470f2c250c65f5d16f55953836001026120fe565b600081141515612b6e5761281b7f1428e26d804ec500abd0e9390b2940e16e23c588838979a643dc197ecc45d3146001026120fe565b6128477f0b321acd305614c64bd3b03df9b54fda13512f699793d352dda406f5377d654a6001026120fe565b6128737f7a5ecc9f91718277f21ffe36d4008cfb52c45cb4a3d02c8d3ad7b368266b527d6001026120fe565b60006001820390506128a77f594e731be2305a9bbd344870cf0633f896cf7c8a552149ac8c3887f5939fa2cc6001026120fe565b6128d37fce845126564f88320d57ac15815dc9da8f604bbea797690ee5dd29256f4490ef6001026120fe565b60006001866000018054905003905061290e7f8de4d4b62709fb9aa3764ecad70f3f67ded177953e8d0b3fa69eb7270f7a72b86001026120fe565b61293a7feef1a22ab497f0a0b5773c261963d43f0abced69475a8f361c4c09940a2e0f116001026120fe565b6000866000018281548110151561294d57fe5b906000526020600020015490506129867fd3ffd1de8410e1a5342524eadcc24cec3d13da46f520a8ff3842159d8ac513816001026120fe565b6129b27fd29f0954420e0dacdaf662725b7670ca376b5ecb1467eea88f3ed07b3cef9b2b6001026120fe565b8087600001848154811015156129c457fe5b90600052602060002001819055506129fe7f416543475b2a4ac207e92b54c5a89b0283eb8a6898f17e8a422c8a2b3bdfe4dd6001026120fe565b612a2a7f53e6da82d3cb4b8c67410d9eef4d4d2578dc84336caa8505c50feddb82e7c74e6001026120fe565b6001830187600101600083815260200190815260200160002081905550612a737f9985aa50040fc25f597dd3c0a0ef9e1794881ab1e07bd05e1686a5c7731277186001026120fe565b612a9f7f924e66bc6d3998d3584ee5dec8380db18c7801386c9813e9c519c714f9cf05b46001026120fe565b866000018054801515612aae57fe5b60019003818190600052602060002001600090559055612af07f0464100dfed97956c95ac0853f67804ec637520949c0ddf43963e7218712c4ee6001026120fe565b86600101600087815260200190815260200160002060009055612b357f31239a0e5e1877005aeaa2cf67ecd4f26333ff91ac415b7b58467f96b928e4706001026120fe565b612b617f0e8690e5eba3bc911cbe19ecc595ae9d5a7041f8b723ff9c12a4707e72d1d7096001026120fe565b6001945050505050612bf8565b612b9a7f187fa4fe781f8142b1e1da8868034ad381d767259bb390adb2ffa112cc52f2726001026120fe565b612bc67f9edf3971b67091da233f4cee6fc830f48fc8dae83e1acedbee273f8618720ca86001026120fe565b612bf27faa77a760e845cf44dffa170ad08e7782cf1bbc412ad237c88b0c772676e915086001026120fe565b60009150505b9291505056fea165627a7a72305820e2d32b20178dfe6adfb2a8626b9fde086d0fdf5fd28b2e4490e5536d9975d0440029",
  "linkReferences": {},
  "deployedLinkReferences": {}
}