{
  "_format": "hh-sol-artifact-1",
  "contractName": "VaultControl",
  "sourceName": "contracts/abstracts/VaultControl.sol",
  "abi": [
    {
      "constant": true,
      "inputs": [
        {
          "name": "role",
          "type": "bytes32"
        }
      ],
      "name": "getRoleAdmin",
      "outputs": [
        {
          "name": "",
          "type": "bytes32"
        }
      ],
      "payable": false,
      "stateMutability": "view",
      "type": "function"
    },
    {
      "constant": true,
      "inputs": [
        {
          "name": "account",
          "type": "address"
        }
      ],
      "name": "isAdmin",
      "outputs": [
        {
          "name": "",
          "type": "bool"
        }
      ],
      "payable": false,
      "stateMutability": "view",
      "type": "function"
    },
    {
      "constant": false,
      "inputs": [],
      "name": "renounceOperator",
      "outputs": [],
      "payable": false,
      "stateMutability": "nonpayable",
      "type": "function"
    },
    {
      "constant": false,
      "inputs": [
        {
          "name": "role",
          "type": "bytes32"
        },
        {
          "name": "account",
          "type": "address"
        }
      ],
      "name": "grantRole",
      "outputs": [],
      "payable": false,
      "stateMutability": "nonpayable",
      "type": "function"
    },
    {
      "constant": false,
      "inputs": [
        {
          "name": "role",
          "type": "bytes32"
        },
        {
          "name": "account",
          "type": "address"
        }
      ],
      "name": "renounceRole",
      "outputs": [],
      "payable": false,
      "stateMutability": "nonpayable",
      "type": "function"
    },
    {
      "constant": true,
      "inputs": [
        {
          "name": "account",
          "type": "address"
        }
      ],
      "name": "isOperator",
      "outputs": [
        {
          "name": "",
          "type": "bool"
        }
      ],
      "payable": false,
      "stateMutability": "view",
      "type": "function"
    },
    {
      "constant": false,
      "inputs": [
        {
          "name": "account",
          "type": "address"
        }
      ],
      "name": "addAdmin",
      "outputs": [],
      "payable": false,
      "stateMutability": "nonpayable",
      "type": "function"
    },
    {
      "constant": true,
      "inputs": [
        {
          "name": "c__0xfd3e751c",
          "type": "bytes32"
        }
      ],
      "name": "c_0xfd3e751c",
      "outputs": [],
      "payable": false,
      "stateMutability": "pure",
      "type": "function"
    },
    {
      "constant": false,
      "inputs": [],
      "name": "renounceAdmin",
      "outputs": [],
      "payable": false,
      "stateMutability": "nonpayable",
      "type": "function"
    },
    {
      "constant": true,
      "inputs": [
        {
          "name": "role",
          "type": "bytes32"
        },
        {
          "name": "index",
          "type": "uint256"
        }
      ],
      "name": "getRoleMember",
      "outputs": [
        {
          "name": "",
          "type": "address"
        }
      ],
      "payable": false,
      "stateMutability": "view",
      "type": "function"
    },
    {
      "constant": true,
      "inputs": [
        {
          "name": "role",
          "type": "bytes32"
        },
        {
          "name": "account",
          "type": "address"
        }
      ],
      "name": "hasRole",
      "outputs": [
        {
          "name": "",
          "type": "bool"
        }
      ],
      "payable": false,
      "stateMutability": "view",
      "type": "function"
    },
    {
      "constant": false,
      "inputs": [
        {
          "name": "account",
          "type": "address"
        }
      ],
      "name": "addOperator",
      "outputs": [],
      "payable": false,
      "stateMutability": "nonpayable",
      "type": "function"
    },
    {
      "constant": true,
      "inputs": [],
      "name": "DEFAULT_ADMIN_ROLE",
      "outputs": [
        {
          "name": "",
          "type": "bytes32"
        }
      ],
      "payable": false,
      "stateMutability": "view",
      "type": "function"
    },
    {
      "constant": false,
      "inputs": [
        {
          "name": "account",
          "type": "address"
        }
      ],
      "name": "removeOperator",
      "outputs": [],
      "payable": false,
      "stateMutability": "nonpayable",
      "type": "function"
    },
    {
      "constant": true,
      "inputs": [
        {
          "name": "role",
          "type": "bytes32"
        }
      ],
      "name": "getRoleMemberCount",
      "outputs": [
        {
          "name": "",
          "type": "uint256"
        }
      ],
      "payable": false,
      "stateMutability": "view",
      "type": "function"
    },
    {
      "constant": false,
      "inputs": [
        {
          "name": "role",
          "type": "bytes32"
        },
        {
          "name": "account",
          "type": "address"
        }
      ],
      "name": "revokeRole",
      "outputs": [],
      "payable": false,
      "stateMutability": "nonpayable",
      "type": "function"
    },
    {
      "constant": true,
      "inputs": [
        {
          "name": "c__0x3cfa3e8e",
          "type": "bytes32"
        }
      ],
      "name": "c_0x3cfa3e8e",
      "outputs": [],
      "payable": false,
      "stateMutability": "pure",
      "type": "function"
    },
    {
      "constant": true,
      "inputs": [],
      "name": "OPERATOR_ROLE",
      "outputs": [
        {
          "name": "",
          "type": "bytes32"
        }
      ],
      "payable": false,
      "stateMutability": "view",
      "type": "function"
    },
    {
      "anonymous": false,
      "inputs": [
        {
          "indexed": true,
          "name": "role",
          "type": "bytes32"
        },
        {
          "indexed": true,
          "name": "account",
          "type": "address"
        },
        {
          "indexed": true,
          "name": "sender",
          "type": "address"
        }
      ],
      "name": "RoleGranted",
      "type": "event"
    },
    {
      "anonymous": false,
      "inputs": [
        {
          "indexed": true,
          "name": "role",
          "type": "bytes32"
        },
        {
          "indexed": true,
          "name": "account",
          "type": "address"
        },
        {
          "indexed": true,
          "name": "sender",
          "type": "address"
        }
      ],
      "name": "RoleRevoked",
      "type": "event"
    }
  ],
  "bytecode": "0x6080604052612c2b806100136000396000f3fe6080604052600436106100fc576000357c0100000000000000000000000000000000000000000000000000000000900463ffffffff168063248a9ca31461010157806324d7806c146101505780632ab6f8db146101b95780632f2ff15d146101d057806336568abe1461022b5780636d70f7ae1461028657806370480275146102ef57806386f8474c146103405780638bad0c0a1461037b5780639010d07c1461039257806391d14854146104175780639870d7fe1461048a578063a217fddf146104db578063ac8a584a14610506578063ca15c87314610557578063d547741f146105a6578063ed5c049114610601578063f5b541a61461063c575b600080fd5b34801561010d57600080fd5b5061013a6004803603602081101561012457600080fd5b8101908080359060200190929190505050610667565b6040518082815260200191505060405180910390f35b34801561015c57600080fd5b5061019f6004803603602081101561017357600080fd5b81019080803573ffffffffffffffffffffffffffffffffffffffff16906020019092919050505061070b565b604051808215151515815260200191505060405180910390f35b3480156101c557600080fd5b506101ce6107a6565b005b3480156101dc57600080fd5b50610229600480360360408110156101f357600080fd5b8101908080359060200190929190803573ffffffffffffffffffffffffffffffffffffffff169060200190929190505050610872565b005b34801561023757600080fd5b506102846004803603604081101561024e57600080fd5b8101908080359060200190929190803573ffffffffffffffffffffffffffffffffffffffff169060200190929190505050610a75565b005b34801561029257600080fd5b506102d5600480360360208110156102a957600080fd5b81019080803573ffffffffffffffffffffffffffffffffffffffff169060200190929190505050610c87565b604051808215151515815260200191505060405180910390f35b3480156102fb57600080fd5b5061033e6004803603602081101561031257600080fd5b81019080803573ffffffffffffffffffffffffffffffffffffffff169060200190929190505050610d53565b005b34801561034c57600080fd5b506103796004803603602081101561036357600080fd5b8101908080359060200190929190505050610f74565b005b34801561038757600080fd5b50610390610f77565b005b34801561039e57600080fd5b506103d5600480360360408110156103b557600080fd5b810190808035906020019092919080359060200190929190505050611107565b604051808273ffffffffffffffffffffffffffffffffffffffff1673ffffffffffffffffffffffffffffffffffffffff16815260200191505060405180910390f35b34801561042357600080fd5b506104706004803603604081101561043a57600080fd5b8101908080359060200190929190803573ffffffffffffffffffffffffffffffffffffffff1690602001909291905050506111bd565b604051808215151515815260200191505060405180910390f35b34801561049657600080fd5b506104d9600480360360208110156104ad57600080fd5b81019080803573ffffffffffffffffffffffffffffffffffffffff169060200190929190505050611273565b005b3480156104e757600080fd5b506104f06114c5565b6040518082815260200191505060405180910390f35b34801561051257600080fd5b506105556004803603602081101561052957600080fd5b81019080803573ffffffffffffffffffffffffffffffffffffffff1690602001909291905050506114cd565b005b34801561056357600080fd5b506105906004803603602081101561057a57600080fd5b810190808035906020019092919050505061171f565b6040518082815260200191505060405180910390f35b3480156105b257600080fd5b506105ff600480360360408110156105c957600080fd5b8101908080359060200190929190803573ffffffffffffffffffffffffffffffffffffffff1690602001909291905050506117ca565b005b34801561060d57600080fd5b5061063a6004803603602081101561062457600080fd5b81019080803590602001909291905050506119cd565b005b34801561064857600080fd5b506106516119d0565b6040518082815260200191505060405180910390f35b60006106957f050340438b0b1f0f74eb1ff71edc211936f7fbfc40a7bf8e9ffa724dc49364f4600102610f74565b6106c17fb74ad924ba00500175ccb9c922e90ece5516bede925bc063783bc6086080a705600102610f74565b6106ed7fc538a949ad73d85fa871d4fe7b7caf55c98db10decb79e8201e5b229bf49f8d9600102610f74565b60336000838152602001908152602001600020600201549050919050565b60006107397fbdf835ee0fe59519e68e959a2766d368864459c142b651dc6d6cc62e98a492876001026119cd565b6107657fd14e8c1d0c70855f3f901075500965984cbea219b1fa4a42db605c475f4bbee46001026119cd565b6107917fbe47793fa43a6c9d58b424bbf96d50fa4160ae78cfe3c5dd4bc34ba1ea7213866001026119cd565b61079f6000600102836111bd565b9050919050565b6107d27feffda485d19a3eece6b6ab860484e848f4781862b85aaf4178964fcf82bb3e1f6001026119cd565b6107fe7fd305479b9236377cf73a5d394ccf7d8ebb342e79057de6f3af2c3b15863e34766001026119cd565b61082a7f54e2adec838f13b8c41b63532dfb234d73146cef7c6d4dc56417ec750b152bc86001026119cd565b61087060405180807f4f50455241544f520000000000000000000000000000000000000000000000008152506008019050604051809103902061086b611a09565b610a75565b565b61089e7f35ef7fe8d6d02844d6863bb6c55f0d1e296384393834f2824348a5a3fe583ff9600102610f74565b6108ca7fe3926445fba9229f612ea4ab3450183300047551d9413fe24bf861e541ee22b4600102610f74565b6108f67f178ba80f02f74abd0ff251d2ea78ec810b40bec9630b6a70cdfbec8d0795e142600102610f74565b6109227fec551c3ea353e36cbba2586629cb6098113180911ee1a321937b05ae2a2752b6600102610f74565b6109496033600084815260200190815260200160002060020154610944611a09565b6111bd565b15156109e3576040517f08c379a000000000000000000000000000000000000000000000000000000000815260040180806020018281038252602f8152602001807f416363657373436f6e74726f6c3a2073656e646572206d75737420626520616e81526020017f2061646d696e20746f206772616e74000000000000000000000000000000000081525060400191505060405180910390fd5b610a0f7f84fcfc621d3e05319f4172e0bac43d08f99c5f386a82d921c479c6bf1caa5b9e600102610f74565b610a3b7f97749d5907af942f23e24dab2e4d9d9f86169e20828b78fbb02c7397aba20dec600102610f74565b610a677f6071ae2abfff4312103bd8739211263b643becbb57462f9074353c4b638bc8fb600102610f74565b610a718282611a11565b5050565b610aa17f4de32a619436a15decb84a173b4469efaa235be2016b7657229d7bb4d915f167600102610f74565b610acd7fd8479504df472c40b9d2d46578fc0bad271dba561f3c3bfae8432ee4398cd9a8600102610f74565b610af97f056ca1d611325f492ec9a258615105c0c61c1935da3efbb61fbb153378d318dd600102610f74565b610b257fb300cb213a808a8d25947dc127c3188ce2125091b485b407bb84a476fe38d0dc600102610f74565b610b2d611a09565b73ffffffffffffffffffffffffffffffffffffffff168173ffffffffffffffffffffffffffffffffffffffff16141515610bf5576040517f08c379a000000000000000000000000000000000000000000000000000000000815260040180806020018281038252602f8152602001807f416363657373436f6e74726f6c3a2063616e206f6e6c792072656e6f756e636581526020017f20726f6c657320666f722073656c66000000000000000000000000000000000081525060400191505060405180910390fd5b610c217f7b5ca71ff0c3170626af9f1558f947e9704f6758fabb43f6074fe812966bce56600102610f74565b610c4d7f811d9b367083ade010308c3df46e6c1a758d0a4e066263174dfb6043b644e173600102610f74565b610c797fdb6ee36fa74bfce73b4d7febf4feaf4bdebc1210aab6f5b8693bd4a1f8853a26600102610f74565b610c838282611bde565b5050565b6000610cb57f34882e832c710efee608a8c31c6b4f81a2882df9495d9d914960835bc5ed3a6f6001026119cd565b610ce17fab863da377c52c8f6067472a5ca8df2a2ce6a6f299e205cd7a166b6a8ee319166001026119cd565b610d0d7fc04152ee14431e8518d6e1e3408bae4047950f36986878ba23f2b59e8842f0de6001026119cd565b610d4c60405180807f4f50455241544f5200000000000000000000000000000000000000000000000081525060080190506040518091039020836111bd565b9050919050565b610d7f7f453557595d5569438781ff2bffda3521e47a9e00825bc9def362d351cf3e1c746001026119cd565b610dab7f36164c6dee9768d45bd325d105734bbcb52f53401478cd02c4ecad63c18b8e686001026119cd565b610dd77fc2ac55851c10e49d80d29047d52eddd577a7571d2b2f4dad9e5fcaa5c07a9bb26001026119cd565b610e037fb725922c818f0782603dba098ae6ebcd63326dfb07c08fa6ef52bb86e381fb366001026119cd565b610e13610e0e611a09565b61070b565b1515610e87576040517f08c379a00000000000000000000000000000000000000000000000000000000081526004018080602001828103825260158152602001807f5265737472696374656420746f2041646d696e732e000000000000000000000081525060200191505060405180910390fd5b610eb37f269b98238e7be55b5d7a3db79f2a96a0e9fa4e47593a6bb52d82c25d08facd7e6001026119cd565b610edf7fa0a2fde32d4e52005b78eac14a1ab6ae68b38ec56c08824fdb8abe489653882d6001026119cd565b610f0b7f241ba548cc8253817305eb6cbd99b145edfcecbfaeaba1576d256fce484d5ab26001026119cd565b610f377fc0aad2c1f4c71d0d45099bfc691c3cd5b001f96af75e9e3b342f389f86c261476001026119cd565b610f637f86524858a643a3d44641956918739c1a8adbfa262f51365867258a74777ab6e86001026119cd565b610f71600060010282610872565b50565b50565b610fa37fa3b8cd17878a18b96beb23c675e90566c628339c690cc02fef2e6714e599336b6001026119cd565b610fcf7fd043dcbf206250dd68a1ab9b20e9de58383ca14921d02cd31d12f14d0bb028316001026119cd565b610ffb7f0ccac8621a40ca7b127c6496eeb6b54e74cc4e17a98af94873762388c2e983e66001026119cd565b6000611005611a09565b90506110337f538432c19549aadca9e46abd21c2247ce49f9f0f49908507b517e89a1ba9fef26001026119cd565b61105f7f3bd31538f2a58cfe062227505d07a18feb1647396af308980226ca2806c11fb56001026119cd565b61106d600060010282610a75565b6110997fb10bf9abe0342730296765bd2cd0c9a5ea98992024bec04a1e36f58f521260276001026119cd565b6110c57f13cdd538e624b7d3380c6e79d8ae423ccc25837f48aea5f0afebdca7d08c9e216001026119cd565b61110460405180807f4f50455241544f520000000000000000000000000000000000000000000000008152506008019050604051809103902082610a75565b50565b60006111357fd64e96f3e91efc239c01bf30d1d8ff0775b4d6b65061ba43ed41ed007d276239600102610f74565b6111617f8ef3a2c3240e4fed75685458a30e1852c1e366c8a3b897910fa24f0e9c12a393600102610f74565b61118d7f9b2d7cec472af26dd1bd892afafe2be066b09e44a7474e6389d058285c4b9598600102610f74565b6111b58260336000868152602001908152602001600020600001611dab90919063ffffffff16565b905092915050565b60006111eb7f9890401fd59cad5dec194d56f8e1f971f8f878bef0e4ff70e116fd19483f5662600102610f74565b6112177f66ef1e06f668d8e0c0d4f82edeefadbe8c80204e2512f9d3541f84665b1015fa600102610f74565b6112437fea6f68aaa4e23e70c3a5d466be2b66373b71c8e3a915c17e44d497696e9a338e600102610f74565b61126b8260336000868152602001908152602001600020600001611e4a90919063ffffffff16565b905092915050565b61129f7f453557595d5569438781ff2bffda3521e47a9e00825bc9def362d351cf3e1c746001026119cd565b6112cb7f36164c6dee9768d45bd325d105734bbcb52f53401478cd02c4ecad63c18b8e686001026119cd565b6112f77fc2ac55851c10e49d80d29047d52eddd577a7571d2b2f4dad9e5fcaa5c07a9bb26001026119cd565b6113237fb725922c818f0782603dba098ae6ebcd63326dfb07c08fa6ef52bb86e381fb366001026119cd565b61133361132e611a09565b61070b565b15156113a7576040517f08c379a00000000000000000000000000000000000000000000000000000000081526004018080602001828103825260158152602001807f5265737472696374656420746f2041646d696e732e000000000000000000000081525060200191505060405180910390fd5b6113d37f269b98238e7be55b5d7a3db79f2a96a0e9fa4e47593a6bb52d82c25d08facd7e6001026119cd565b6113ff7fa0a2fde32d4e52005b78eac14a1ab6ae68b38ec56c08824fdb8abe489653882d6001026119cd565b61142b7f601f3a50cc2b63877d5d7c9ae87face277a00a3ba6a3868f835b1048a156698f6001026119cd565b6114577f6b6789300eb743a8447edde74dfce42f76d507d74fabf8555209106a6cf6835d6001026119cd565b6114837fe963ba32f3b2b2511f3b61c6a1cf8ec3b8865be585223e913dad37234ec3dba76001026119cd565b6114c260405180807f4f50455241544f520000000000000000000000000000000000000000000000008152506008019050604051809103902082610872565b50565b600060010281565b6114f97f453557595d5569438781ff2bffda3521e47a9e00825bc9def362d351cf3e1c746001026119cd565b6115257f36164c6dee9768d45bd325d105734bbcb52f53401478cd02c4ecad63c18b8e686001026119cd565b6115517fc2ac55851c10e49d80d29047d52eddd577a7571d2b2f4dad9e5fcaa5c07a9bb26001026119cd565b61157d7fb725922c818f0782603dba098ae6ebcd63326dfb07c08fa6ef52bb86e381fb366001026119cd565b61158d611588611a09565b61070b565b1515611601576040517f08c379a00000000000000000000000000000000000000000000000000000000081526004018080602001828103825260158152602001807f5265737472696374656420746f2041646d696e732e000000000000000000000081525060200191505060405180910390fd5b61162d7f269b98238e7be55b5d7a3db79f2a96a0e9fa4e47593a6bb52d82c25d08facd7e6001026119cd565b6116597fa0a2fde32d4e52005b78eac14a1ab6ae68b38ec56c08824fdb8abe489653882d6001026119cd565b6116857f4b1da260cff4143833d6e35ffde5e36b26a94146d2f068d1b4ae37ca6d0e94406001026119cd565b6116b17f5303ee691770746a94c441c3c1db6f6814117793a7840e90eb05ab2e649310636001026119cd565b6116dd7ff44ed11abb9d946c2a432fbe662d20f04907a2376ad219db63c38ca689de88f66001026119cd565b61171c60405180807f4f50455241544f5200000000000000000000000000000000000000000000000081525060080190506040518091039020826117ca565b50565b600061174d7f7c8a75d871e37bb3adbbbea0732c29f9ce19596157638c44ae73c5d9909177a4600102610f74565b6117797f5c8f19add2d84aca7a8087815504b380c1919c10d917dfe0e6f3426480626925600102610f74565b6117a57ffc62441d050a63d198d2f97f5a25bb420519fd407e5d50f08312815303d5dd21600102610f74565b6117c360336000848152602001908152602001600020600001611efe565b9050919050565b6117f67f78c9d2effdd2cf4ffcfc49a15eb93d30fb2345626d55331fafe2577c45492945600102610f74565b6118227f0f8d5525ab20fc25e211108856f9e9c2d7686d4bca86323a95f73b4befbd1905600102610f74565b61184e7f552f1538fdf5aa57eed1a65a84465e26b2dee3a349b98af5bdc70923de8885ca600102610f74565b61187a7f903d39f78d0f26f99c6bc1e1496c2b3cde0bbb39f25ad445a102acb1d1decd81600102610f74565b6118a1603360008481526020019081526020016000206002015461189c611a09565b6111bd565b151561193b576040517f08c379a00000000000000000000000000000000000000000000000000000000081526004018080602001828103825260308152602001807f416363657373436f6e74726f6c3a2073656e646572206d75737420626520616e81526020017f2061646d696e20746f207265766f6b650000000000000000000000000000000081525060400191505060405180910390fd5b6119677f76891968bc09ecbef03a36911e5ee6272955d16b1c067ee7f7047de6127eb41c600102610f74565b6119937fd93c5a94a5b1886c0bb5575c3cca63b6410bf5cc633908251d561210acc14eaa600102610f74565b6119bf7f52b73aa8f50ab99b6810012a79aa4f25995f134e8c54dbcb5d80e568f5fdfbe7600102610f74565b6119c98282611bde565b5050565b50565b60405180807f4f50455241544f520000000000000000000000000000000000000000000000008152506008019050604051809103902081565b600033905090565b611a3d7f431977193dba4d85d3d1072d0ba5e1cdccca8cddfd8c4aff4d7ac2ea98d3d4ee600102610f74565b611a697f28a965b98d8b942f56696427d3c721e5310563fbc5164dca87cf5cf13ea2a9ed600102610f74565b611a957ff646bf7a647c7eede6638809cfb9c3301764e40ef49c153dd68e18ef90812a40600102610f74565b611abd8160336000858152602001908152602001600020600001611f9790919063ffffffff16565b15611bad57611aee7f6fa7faf9721d6feef12eef2be7cb46f54c37eb46b0da7acac7b4fe0f1b3f5442600102610f74565b611b1a7f8151549efc9ed0302e535d39e83479798ffab5156bdffc64026f549fa008bc6d600102610f74565b611b467fe61146cafdbd435fd1a44f216470c1c771b447cea185fd63a791eedb5de9a633600102610f74565b611b4e611a09565b73ffffffffffffffffffffffffffffffffffffffff168173ffffffffffffffffffffffffffffffffffffffff16837f2f8788117e7eff1d82e926ec794901d17c78024a50270940304540a733656f0d60405160405180910390a4611bda565b611bd97f5574652d96785064c2df2826f0e7f7e329e984e6292358773864c6cc71ea7a07600102610f74565b5b5050565b611c0a7f89299f8a83d41798f187ab3c16a70e02bdf5aa620db00df7f88c09b4627ffa55600102610f74565b611c367fbfdadd76f305d8adf092ee65907cc86e4f224d2c66f9af5c0b3cdfcc1f3e8fc2600102610f74565b611c627fcedeb60ed9b0b45ad4375b68166468c8488c71bf3878d408ea58b70a4df19c82600102610f74565b611c8a816033600085815260200190815260200160002060000161204b90919063ffffffff16565b15611d7a57611cbb7f1ec6cce1ca0f17106fd0dac964533ee10f89f102e5bae6dbc54b66910cc69190600102610f74565b611ce77fa423d3155a2779de3b70eb057d48003daeb03c8d3bb306efff5033bc719fc2fc600102610f74565b611d137f45d238e764e3ea305d63d3fecf831285bf4eeaa1602f8de3df539857efac6c6e600102610f74565b611d1b611a09565b73ffffffffffffffffffffffffffffffffffffffff168173ffffffffffffffffffffffffffffffffffffffff16837ff6391f5c32d9c69d2a47ea670b442974b53935d1edc7fd64eb21e047a839171b60405160405180910390a4611da7565b611da67fd00292ef3da039d8d5902c68958a6f7752a2ffe2226bd360d69710be605255e6600102610f74565b5b5050565b6000611dd97fd863485f4fc7f6d5d8aa55308bee6b8486345b0154e2c013f988cdd9179492f76001026120ff565b611e057f73150ee5ee22f81cc4cbb0207d32b0cf721faf35271afc42fb2a2f9de941f5216001026120ff565b611e317f5fd0ab04ce135edde569c47a2d29797cbed89dc380006990af6c8eae49d7a9f46001026120ff565b611e3e8360000183612102565b60019004905092915050565b6000611e787f2d10932486833c7b94206e0ae6f4a561123119dc1d8256f3e1dffa1f209828416001026120ff565b611ea47f3fbb6c237d91889d2b85197067a6867564519756a4b142dce99503390a61e0da6001026120ff565b611ed07ff0ca5118ce57dbc469380946ed7733bfee6956d8894b68924b77265267d985a86001026120ff565b611ef6836000018373ffffffffffffffffffffffffffffffffffffffff16600102612300565b905092915050565b6000611f2c7f4e24753963ccd879d590789fd3106e2074905aede5539b4162644af54b7f58fe6001026120ff565b611f587f459e278c0a981f356992f93db68199e1525e444b60a1aa9f415242edaa90bbd36001026120ff565b611f847f676774ccb1be05ce8a1fe3012d02b51ed6e18267ffa29aa002ff672c33d32ee96001026120ff565b611f90826000016123a8565b9050919050565b6000611fc57fed54bc75583d419ab275e8111912b68693321933fc327bb4bcf80928ad8b8b496001026120ff565b611ff17f3daffd0a9dce28b482d01a551215671bf4393bb2c14e29701cf4960e2f2b12926001026120ff565b61201d7f40aa26a0e9be8d065cf56c5a97ee7ecf2d6f7f27a85e81ebb85bf92a3fb598c86001026120ff565b612043836000018373ffffffffffffffffffffffffffffffffffffffff1660010261243d565b905092915050565b60006120797fe7416d2a3843e619b1224850d86b591b72a1e287cf0e1b4b38a8e263ea5326976001026120ff565b6120a57f3f6e9522e1ea2955cabc1c679f64bf976068c841a9611123dcede6de73ec4fcd6001026120ff565b6120d17f8b9337500c7386ca8a4084f42b2d40b9be1af142fb7b663118e6df4ae84c617a6001026120ff565b6120f7836000018373ffffffffffffffffffffffffffffffffffffffff166001026126ee565b905092915050565b50565b60006121307f4106100c6ddc9e9685bfafb2331061f66fe0bdf557d61e86d3a9e77f415df1c06001026120ff565b61215c7f74042fd2ce01d2d4e5b83168db3daaa0ada16dcc55033ff01c774f8d3b09d26b6001026120ff565b6121887ff5b89a497746cc14694c9f1ed1aeaef6a21f81b1a91b334ac822cb679c327c546001026120ff565b6121b47f3d2a328b4224524dd5bf276581f8c7e30b93161a3146a223de54a8178318570d6001026120ff565b818360000180549050111515612258576040517f08c379a00000000000000000000000000000000000000000000000000000000081526004018080602001828103825260228152602001807f456e756d657261626c655365743a20696e646578206f7574206f6620626f756e81526020017f647300000000000000000000000000000000000000000000000000000000000081525060400191505060405180910390fd5b6122847fa53b31889d5006b4901ceb793559ba11b86794ec37414fd5e2572de69058b50b6001026120ff565b6122b07f1e389c3a59451a90cc38a462ab78e585703d049faa682b547afe962dd782d9fb6001026120ff565b6122dc7f91294d2a3cd14ca48c2829d94278cbbc8da604b303f69291b78cc7a96433fb6b6001026120ff565b82600001828154811015156122ed57fe5b9060005260206000200154905092915050565b600061232e7f2d7ec9f89494f43c00f58c9ac42d6c4126f5ad30efc6a67b48204435b90bdbe16001026120ff565b61235a7f808fe5bd45f46ab8ff1cb9aa9c9a30377ea23be0941c4795446d41d254aae5c46001026120ff565b6123867f556bfe46c39f16f279635b09a7f3e6cb0df504be781b0931db8a40bab702a7976001026120ff565b6000836001016000848152602001908152602001600020541415905092915050565b60006123d67f5852ae1c75c424755782c3fdffd26401e1354b9b177513f37690d594b1ebc8ac6001026120ff565b6124027ff852b790830032d89971e2c521d42063f93f9915f774b150a71f19bed01505fa6001026120ff565b61242e7f02a432993c4332c426e42b943b3b019f4f8176664138a13b7aefd4766c8779426001026120ff565b81600001805490509050919050565b600061246b7fea4ca516a6106cab84a6a4e89be0f7002b5d6eb029ffab4c054b7ee765fc3c2e6001026120ff565b6124977fb46577be114288cc2048caa1c7c40b09dc718696d9a09f0499a1547eb16451a96001026120ff565b6124c37f699f127f4fce6e368acc157cac121779c534d2aa962d0533bfdaaae1d69ca05f6001026120ff565b6124cd8383612300565b151561265f576124ff7f521bb0fe62e6b7fd3853af763e653963a8408ffb348ef253e2d2f6e4ce4cd2216001026120ff565b61252b7f9b482a5f51b8ea016ff5ab73974f6b85a6fd2a1eb01a8ee81de32df7a2a8da356001026120ff565b6125577fce3c0267f6afecccc16fb1df160b30bad8dd9e6470f2c250c65f5d16f55953836001026120ff565b826000018290806001815401808255809150509060018203906000526020600020016000909192909190915055506125b17f1428e26d804ec500abd0e9390b2940e16e23c588838979a643dc197ecc45d3146001026120ff565b6125dd7f0b321acd305614c64bd3b03df9b54fda13512f699793d352dda406f5377d654a6001026120ff565b82600001805490508360010160008481526020019081526020016000208190555061262a7f7a5ecc9f91718277f21ffe36d4008cfb52c45cb4a3d02c8d3ad7b368266b527d6001026120ff565b6126567f594e731be2305a9bbd344870cf0633f896cf7c8a552149ac8c3887f5939fa2cc6001026120ff565b600190506126e8565b61268b7fce845126564f88320d57ac15815dc9da8f604bbea797690ee5dd29256f4490ef6001026120ff565b6126b77f8de4d4b62709fb9aa3764ecad70f3f67ded177953e8d0b3fa69eb7270f7a72b86001026120ff565b6126e37feef1a22ab497f0a0b5773c261963d43f0abced69475a8f361c4c09940a2e0f116001026120ff565b600090505b92915050565b600061271c7fd3ffd1de8410e1a5342524eadcc24cec3d13da46f520a8ff3842159d8ac513816001026120ff565b6127487fd29f0954420e0dacdaf662725b7670ca376b5ecb1467eea88f3ed07b3cef9b2b6001026120ff565b6127747f416543475b2a4ac207e92b54c5a89b0283eb8a6898f17e8a422c8a2b3bdfe4dd6001026120ff565b60008360010160008481526020019081526020016000205490506127ba7f53e6da82d3cb4b8c67410d9eef4d4d2578dc84336caa8505c50feddb82e7c74e6001026120ff565b6127e67f9985aa50040fc25f597dd3c0a0ef9e1794881ab1e07bd05e1686a5c7731277186001026120ff565b600081141515612b6f5761281c7f924e66bc6d3998d3584ee5dec8380db18c7801386c9813e9c519c714f9cf05b46001026120ff565b6128487f0464100dfed97956c95ac0853f67804ec637520949c0ddf43963e7218712c4ee6001026120ff565b6128747f31239a0e5e1877005aeaa2cf67ecd4f26333ff91ac415b7b58467f96b928e4706001026120ff565b60006001820390506128a87f0e8690e5eba3bc911cbe19ecc595ae9d5a7041f8b723ff9c12a4707e72d1d7096001026120ff565b6128d47f187fa4fe781f8142b1e1da8868034ad381d767259bb390adb2ffa112cc52f2726001026120ff565b60006001866000018054905003905061290f7f9edf3971b67091da233f4cee6fc830f48fc8dae83e1acedbee273f8618720ca86001026120ff565b61293b7faa77a760e845cf44dffa170ad08e7782cf1bbc412ad237c88b0c772676e915086001026120ff565b6000866000018281548110151561294e57fe5b906000526020600020015490506129877f91a387f2c534fe2d9593060ddb58e0e80cbd7962a699db2183f7fd9ac7bf071e6001026120ff565b6129b37f5273e3157ed309e995284bc9a0977b5e190f596e6d0a7d6a98f63c6c2e9d2cf56001026120ff565b8087600001848154811015156129c557fe5b90600052602060002001819055506129ff7f6d6ed45f9faffdfa6efb315d613b5cf6f6203c948a1d42a6be8e892393847bf56001026120ff565b612a2b7f9c908650b18c4d06afe6e22d13e282f9f484d9b002a6121d345881d9d8d830926001026120ff565b6001830187600101600083815260200190815260200160002081905550612a747fd1882d1c724fb038c1a118718cfe41c240fcbb742f29604cb573449c428371b76001026120ff565b612aa07fc7f15540aa2b0ce236d481f7560d15ffafee2f2e30cac9beab7e15a266dfe9a76001026120ff565b866000018054801515612aaf57fe5b60019003818190600052602060002001600090559055612af17fd59aa80060ea20a1bee9535659b672619a59eb9abf365dafefcb942c2613c7f26001026120ff565b86600101600087815260200190815260200160002060009055612b367f510cdbe5cda3c6cfdb8e3b071d5f7c35ea460dd72c7be1c916a1934f864dea146001026120ff565b612b627f69556792cf99684702e25e6dffc56bf298f3be73f828931c796488097d672b3c6001026120ff565b6001945050505050612bf9565b612b9b7fe7dbbe65769452c853cae620146590604b6b716ac01fb8b203f1ba9fc91fc2246001026120ff565b612bc77f0210cac0db58119dced257e99daceaaac77667d292149865bf117b7ca9eb4bce6001026120ff565b612bf37fbb32f6a0da519ded942950a6895a2c4b30863d395a47575812ea09df9c76aeef6001026120ff565b60009150505b9291505056fea165627a7a72305820c2e0b5be1f496050d5f1d28a1a5a8cb695a3597083fb05aadf54d4e461b633a30029",
  "linkReferences": {},
  "deployedLinkReferences": {}
}