{
  "_format": "hh-sol-artifact-1",
  "contractName": "VaultControl",
  "sourceName": "contracts/abstracts/VaultControl.sol",
  "abi": [
    {
      "constant": true,
      "inputs": [],
      "name": "CONTROLLER_ROLE",
      "outputs": [
        {
          "name": "",
          "type": "bytes32"
        }
      ],
      "payable": false,
      "stateMutability": "view",
      "type": "function"
    },
    {
      "constant": true,
      "inputs": [
        {
          "name": "role",
          "type": "bytes32"
        }
      ],
      "name": "getRoleAdmin",
      "outputs": [
        {
          "name": "",
          "type": "bytes32"
        }
      ],
      "payable": false,
      "stateMutability": "view",
      "type": "function"
    },
    {
      "constant": true,
      "inputs": [
        {
          "name": "account",
          "type": "address"
        }
      ],
      "name": "isAdmin",
      "outputs": [
        {
          "name": "",
          "type": "bool"
        }
      ],
      "payable": false,
      "stateMutability": "view",
      "type": "function"
    },
    {
      "constant": false,
      "inputs": [],
      "name": "renounceOperator",
      "outputs": [],
      "payable": false,
      "stateMutability": "nonpayable",
      "type": "function"
    },
    {
      "constant": false,
      "inputs": [
        {
          "name": "role",
          "type": "bytes32"
        },
        {
          "name": "account",
          "type": "address"
        }
      ],
      "name": "grantRole",
      "outputs": [],
      "payable": false,
      "stateMutability": "nonpayable",
      "type": "function"
    },
    {
      "constant": false,
      "inputs": [
        {
          "name": "role",
          "type": "bytes32"
        },
        {
          "name": "account",
          "type": "address"
        }
      ],
      "name": "renounceRole",
      "outputs": [],
      "payable": false,
      "stateMutability": "nonpayable",
      "type": "function"
    },
    {
      "constant": false,
      "inputs": [],
      "name": "renounceController",
      "outputs": [],
      "payable": false,
      "stateMutability": "nonpayable",
      "type": "function"
    },
    {
      "constant": true,
      "inputs": [
        {
          "name": "account",
          "type": "address"
        }
      ],
      "name": "isOperator",
      "outputs": [
        {
          "name": "",
          "type": "bool"
        }
      ],
      "payable": false,
      "stateMutability": "view",
      "type": "function"
    },
    {
      "constant": false,
      "inputs": [
        {
          "name": "account",
          "type": "address"
        }
      ],
      "name": "addAdmin",
      "outputs": [],
      "payable": false,
      "stateMutability": "nonpayable",
      "type": "function"
    },
    {
      "constant": false,
      "inputs": [],
      "name": "renounceAdmin",
      "outputs": [],
      "payable": false,
      "stateMutability": "nonpayable",
      "type": "function"
    },
    {
      "constant": true,
      "inputs": [
        {
          "name": "role",
          "type": "bytes32"
        },
        {
          "name": "index",
          "type": "uint256"
        }
      ],
      "name": "getRoleMember",
      "outputs": [
        {
          "name": "",
          "type": "address"
        }
      ],
      "payable": false,
      "stateMutability": "view",
      "type": "function"
    },
    {
      "constant": true,
      "inputs": [
        {
          "name": "role",
          "type": "bytes32"
        },
        {
          "name": "account",
          "type": "address"
        }
      ],
      "name": "hasRole",
      "outputs": [
        {
          "name": "",
          "type": "bool"
        }
      ],
      "payable": false,
      "stateMutability": "view",
      "type": "function"
    },
    {
      "constant": false,
      "inputs": [
        {
          "name": "account",
          "type": "address"
        }
      ],
      "name": "addOperator",
      "outputs": [],
      "payable": false,
      "stateMutability": "nonpayable",
      "type": "function"
    },
    {
      "constant": true,
      "inputs": [],
      "name": "DEFAULT_ADMIN_ROLE",
      "outputs": [
        {
          "name": "",
          "type": "bytes32"
        }
      ],
      "payable": false,
      "stateMutability": "view",
      "type": "function"
    },
    {
      "constant": false,
      "inputs": [
        {
          "name": "account",
          "type": "address"
        }
      ],
      "name": "addController",
      "outputs": [],
      "payable": false,
      "stateMutability": "nonpayable",
      "type": "function"
    },
    {
      "constant": false,
      "inputs": [
        {
          "name": "account",
          "type": "address"
        }
      ],
      "name": "removeOperator",
      "outputs": [],
      "payable": false,
      "stateMutability": "nonpayable",
      "type": "function"
    },
    {
      "constant": true,
      "inputs": [
        {
          "name": "account",
          "type": "address"
        }
      ],
      "name": "isController",
      "outputs": [
        {
          "name": "",
          "type": "bool"
        }
      ],
      "payable": false,
      "stateMutability": "view",
      "type": "function"
    },
    {
      "constant": true,
      "inputs": [
        {
          "name": "role",
          "type": "bytes32"
        }
      ],
      "name": "getRoleMemberCount",
      "outputs": [
        {
          "name": "",
          "type": "uint256"
        }
      ],
      "payable": false,
      "stateMutability": "view",
      "type": "function"
    },
    {
      "constant": false,
      "inputs": [
        {
          "name": "role",
          "type": "bytes32"
        },
        {
          "name": "account",
          "type": "address"
        }
      ],
      "name": "revokeRole",
      "outputs": [],
      "payable": false,
      "stateMutability": "nonpayable",
      "type": "function"
    },
    {
      "constant": true,
      "inputs": [],
      "name": "OPERATOR_ROLE",
      "outputs": [
        {
          "name": "",
          "type": "bytes32"
        }
      ],
      "payable": false,
      "stateMutability": "view",
      "type": "function"
    },
    {
      "constant": false,
      "inputs": [
        {
          "name": "account",
          "type": "address"
        }
      ],
      "name": "removeController",
      "outputs": [],
      "payable": false,
      "stateMutability": "nonpayable",
      "type": "function"
    },
    {
      "anonymous": false,
      "inputs": [
        {
          "indexed": true,
          "name": "role",
          "type": "bytes32"
        },
        {
          "indexed": true,
          "name": "account",
          "type": "address"
        },
        {
          "indexed": true,
          "name": "sender",
          "type": "address"
        }
      ],
      "name": "RoleGranted",
      "type": "event"
    },
    {
      "anonymous": false,
      "inputs": [
        {
          "indexed": true,
          "name": "role",
          "type": "bytes32"
        },
        {
          "indexed": true,
          "name": "account",
          "type": "address"
        },
        {
          "indexed": true,
          "name": "sender",
          "type": "address"
        }
      ],
      "name": "RoleRevoked",
      "type": "event"
    }
  ],
  "bytecode": "0x6080604052610e92806100136000396000f3fe60806040526004361061011c5763ffffffff7c0100000000000000000000000000000000000000000000000000000000600035041663092c5b3b8114610121578063248a9ca31461014857806324d7806c146101725780632ab6f8db146101b95780632f2ff15d146101d057806336568abe1461020957806366ac3b68146102425780636d70f7ae14610257578063704802751461028a5780638bad0c0a146102bd5780639010d07c146102d257806391d148541461031e5780639870d7fe14610357578063a217fddf1461038a578063a7fc7a071461039f578063ac8a584a146103d2578063b429afeb14610405578063ca15c87314610438578063d547741f14610462578063f5b541a61461049b578063f6a74ed7146104b0575b600080fd5b34801561012d57600080fd5b506101366104e3565b60408051918252519081900360200190f35b34801561015457600080fd5b506101366004803603602081101561016b57600080fd5b5035610506565b34801561017e57600080fd5b506101a56004803603602081101561019557600080fd5b5035600160a060020a031661051b565b604080519115158252519081900360200190f35b3480156101c557600080fd5b506101ce61052d565b005b3480156101dc57600080fd5b506101ce600480360360408110156101f357600080fd5b5080359060200135600160a060020a0316610560565b34801561021557600080fd5b506101ce6004803603604081101561022c57600080fd5b5080359060200135600160a060020a031661060d565b34801561024e57600080fd5b506101ce6106a7565b34801561026357600080fd5b506101a56004803603602081101561027a57600080fd5b5035600160a060020a03166106d3565b34801561029657600080fd5b506101ce600480360360208110156102ad57600080fd5b5035600160a060020a0316610700565b3480156102c957600080fd5b506101ce610762565b3480156102de57600080fd5b50610302600480360360408110156102f557600080fd5b50803590602001356107cd565b60408051600160a060020a039092168252519081900360200190f35b34801561032a57600080fd5b506101a56004803603604081101561034157600080fd5b5080359060200135600160a060020a03166107f2565b34801561036357600080fd5b506101ce6004803603602081101561037a57600080fd5b5035600160a060020a0316610810565b34801561039657600080fd5b50610136610889565b3480156103ab57600080fd5b506101ce600480360360208110156103c257600080fd5b5035600160a060020a031661088e565b3480156103de57600080fd5b506101ce600480360360208110156103f557600080fd5b5035600160a060020a0316610907565b34801561041157600080fd5b506101a56004803603602081101561042857600080fd5b5035600160a060020a0316610980565b34801561044457600080fd5b506101366004803603602081101561045b57600080fd5b50356109ad565b34801561046e57600080fd5b506101ce6004803603604081101561048557600080fd5b5080359060200135600160a060020a03166109c4565b3480156104a757600080fd5b50610136610a5e565b3480156104bc57600080fd5b506101ce600480360360208110156104d357600080fd5b5035600160a060020a0316610a81565b60408051600080516020610e478339815191528152905190819003600a01902081565b60009081526033602052604090206002015490565b600061052781836107f2565b92915050565b60408051600080516020610e078339815191528152905190819003600801902061055e90610559610afa565b61060d565b565b6000828152603360205260409020600201546105839061057e610afa565b6107f2565b15156105ff576040805160e560020a62461bcd02815260206004820152602f60248201527f416363657373436f6e74726f6c3a2073656e646572206d75737420626520616e60448201527f2061646d696e20746f206772616e740000000000000000000000000000000000606482015290519081900360840190fd5b6106098282610afe565b5050565b610615610afa565b600160a060020a0382811691161461069d576040805160e560020a62461bcd02815260206004820152602f60248201527f416363657373436f6e74726f6c3a2063616e206f6e6c792072656e6f756e636560448201527f20726f6c657320666f722073656c660000000000000000000000000000000000606482015290519081900360840190fd5b6106098282610b6d565b60408051600080516020610e478339815191528152905190819003600a01902061055e90610559610afa565b60408051600080516020610e078339815191528152905190819003600801902060009061052790836107f2565b61071061070b610afa565b61051b565b1515610754576040805160e560020a62461bcd0281526020600482015260156024820152600080516020610e27833981519152604482015290519081900360640190fd5b61075f600082610560565b50565b600061076c610afa565b905061077960008261060d565b60408051600080516020610e07833981519152815290519081900360080190206107a3908261060d565b60408051600080516020610e478339815191528152905190819003600a01902061075f908261060d565b60008281526033602052604081206107eb908363ffffffff610bdc16565b9392505050565b60008281526033602052604081206107eb908363ffffffff610be816565b61081b61070b610afa565b151561085f576040805160e560020a62461bcd0281526020600482015260156024820152600080516020610e27833981519152604482015290519081900360640190fd5b60408051600080516020610e078339815191528152905190819003600801902061075f9082610560565b600081565b61089961070b610afa565b15156108dd576040805160e560020a62461bcd0281526020600482015260156024820152600080516020610e27833981519152604482015290519081900360640190fd5b60408051600080516020610e478339815191528152905190819003600a01902061075f9082610560565b61091261070b610afa565b1515610956576040805160e560020a62461bcd0281526020600482015260156024820152600080516020610e27833981519152604482015290519081900360640190fd5b60408051600080516020610e078339815191528152905190819003600801902061075f90826109c4565b60408051600080516020610e478339815191528152905190819003600a01902060009061052790836107f2565b600081815260336020526040812061052790610bfd565b6000828152603360205260409020600201546109e29061057e610afa565b151561069d576040805160e560020a62461bcd02815260206004820152603060248201527f416363657373436f6e74726f6c3a2073656e646572206d75737420626520616e60448201527f2061646d696e20746f207265766f6b6500000000000000000000000000000000606482015290519081900360840190fd5b60408051600080516020610e078339815191528152905190819003600801902081565b610a8c61070b610afa565b1515610ad0576040805160e560020a62461bcd0281526020600482015260156024820152600080516020610e27833981519152604482015290519081900360640190fd5b60408051600080516020610e478339815191528152905190819003600a01902061075f90826109c4565b3390565b6000828152603360205260409020610b1c908263ffffffff610c0816565b1561060957610b29610afa565b600160a060020a031681600160a060020a0316837f2f8788117e7eff1d82e926ec794901d17c78024a50270940304540a733656f0d60405160405180910390a45050565b6000828152603360205260409020610b8b908263ffffffff610c1d16565b1561060957610b98610afa565b600160a060020a031681600160a060020a0316837ff6391f5c32d9c69d2a47ea670b442974b53935d1edc7fd64eb21e047a839171b60405160405180910390a45050565b60006107eb8383610c32565b60006107eb83600160a060020a038416610cd4565b600061052782610cec565b60006107eb83600160a060020a038416610cf0565b60006107eb83600160a060020a038416610d3c565b81546000908210610cb3576040805160e560020a62461bcd02815260206004820152602260248201527f456e756d657261626c655365743a20696e646578206f7574206f6620626f756e60448201527f6473000000000000000000000000000000000000000000000000000000000000606482015290519081900360840190fd5b8254839083908110610cc157fe5b9060005260206000200154905092915050565b60009081526001919091016020526040902054151590565b5490565b6000610cfc8383610cd4565b1515610d3457508154600181810184556000848152602080822090930184905584548482528286019093526040902091909155610527565b506000610527565b60008181526001830160205260408120548015610dfc5783546000198083019190810190600090879083908110610d6f57fe5b90600052602060002001549050808760000184815481101515610d8e57fe5b6000918252602080832090910192909255828152600189810190925260409020908401905586548790801515610dc057fe5b60019003818190600052602060002001600090559055866001016000878152602001908152602001600020600090556001945050505050610527565b600091505061052756fe4f50455241544f520000000000000000000000000000000000000000000000005265737472696374656420746f2041646d696e732e0000000000000000000000434f4e54524f4c4c455200000000000000000000000000000000000000000000a165627a7a72305820548a1f446a5e38d48adaff71f93459ef707a9d8857d130edfb4963113aac17640029",
  "linkReferences": {},
  "deployedLinkReferences": {}
}