{
  "_format": "hh-sol-artifact-1",
  "contractName": "VaultControl",
  "sourceName": "contracts/abstracts/VaultControl.sol",
  "abi": [
    {
      "constant": true,
      "inputs": [
        {
          "name": "role",
          "type": "bytes32"
        }
      ],
      "name": "getRoleAdmin",
      "outputs": [
        {
          "name": "",
          "type": "bytes32"
        }
      ],
      "payable": false,
      "stateMutability": "view",
      "type": "function"
    },
    {
      "constant": true,
      "inputs": [
        {
          "name": "account",
          "type": "address"
        }
      ],
      "name": "isAdmin",
      "outputs": [
        {
          "name": "",
          "type": "bool"
        }
      ],
      "payable": false,
      "stateMutability": "view",
      "type": "function"
    },
    {
      "constant": false,
      "inputs": [],
      "name": "renounceOperator",
      "outputs": [],
      "payable": false,
      "stateMutability": "nonpayable",
      "type": "function"
    },
    {
      "constant": false,
      "inputs": [
        {
          "name": "role",
          "type": "bytes32"
        },
        {
          "name": "account",
          "type": "address"
        }
      ],
      "name": "grantRole",
      "outputs": [],
      "payable": false,
      "stateMutability": "nonpayable",
      "type": "function"
    },
    {
      "constant": false,
      "inputs": [
        {
          "name": "role",
          "type": "bytes32"
        },
        {
          "name": "account",
          "type": "address"
        }
      ],
      "name": "renounceRole",
      "outputs": [],
      "payable": false,
      "stateMutability": "nonpayable",
      "type": "function"
    },
    {
      "constant": true,
      "inputs": [
        {
          "name": "account",
          "type": "address"
        }
      ],
      "name": "isOperator",
      "outputs": [
        {
          "name": "",
          "type": "bool"
        }
      ],
      "payable": false,
      "stateMutability": "view",
      "type": "function"
    },
    {
      "constant": false,
      "inputs": [
        {
          "name": "account",
          "type": "address"
        }
      ],
      "name": "addAdmin",
      "outputs": [],
      "payable": false,
      "stateMutability": "nonpayable",
      "type": "function"
    },
    {
      "constant": false,
      "inputs": [],
      "name": "renounceAdmin",
      "outputs": [],
      "payable": false,
      "stateMutability": "nonpayable",
      "type": "function"
    },
    {
      "constant": true,
      "inputs": [
        {
          "name": "role",
          "type": "bytes32"
        },
        {
          "name": "index",
          "type": "uint256"
        }
      ],
      "name": "getRoleMember",
      "outputs": [
        {
          "name": "",
          "type": "address"
        }
      ],
      "payable": false,
      "stateMutability": "view",
      "type": "function"
    },
    {
      "constant": true,
      "inputs": [
        {
          "name": "role",
          "type": "bytes32"
        },
        {
          "name": "account",
          "type": "address"
        }
      ],
      "name": "hasRole",
      "outputs": [
        {
          "name": "",
          "type": "bool"
        }
      ],
      "payable": false,
      "stateMutability": "view",
      "type": "function"
    },
    {
      "constant": false,
      "inputs": [
        {
          "name": "account",
          "type": "address"
        }
      ],
      "name": "addOperator",
      "outputs": [],
      "payable": false,
      "stateMutability": "nonpayable",
      "type": "function"
    },
    {
      "constant": true,
      "inputs": [],
      "name": "DEFAULT_ADMIN_ROLE",
      "outputs": [
        {
          "name": "",
          "type": "bytes32"
        }
      ],
      "payable": false,
      "stateMutability": "view",
      "type": "function"
    },
    {
      "constant": false,
      "inputs": [
        {
          "name": "account",
          "type": "address"
        }
      ],
      "name": "removeOperator",
      "outputs": [],
      "payable": false,
      "stateMutability": "nonpayable",
      "type": "function"
    },
    {
      "constant": true,
      "inputs": [
        {
          "name": "role",
          "type": "bytes32"
        }
      ],
      "name": "getRoleMemberCount",
      "outputs": [
        {
          "name": "",
          "type": "uint256"
        }
      ],
      "payable": false,
      "stateMutability": "view",
      "type": "function"
    },
    {
      "constant": false,
      "inputs": [
        {
          "name": "role",
          "type": "bytes32"
        },
        {
          "name": "account",
          "type": "address"
        }
      ],
      "name": "revokeRole",
      "outputs": [],
      "payable": false,
      "stateMutability": "nonpayable",
      "type": "function"
    },
    {
      "constant": true,
      "inputs": [],
      "name": "OPERATOR_ROLE",
      "outputs": [
        {
          "name": "",
          "type": "bytes32"
        }
      ],
      "payable": false,
      "stateMutability": "view",
      "type": "function"
    },
    {
      "anonymous": false,
      "inputs": [
        {
          "indexed": true,
          "name": "role",
          "type": "bytes32"
        },
        {
          "indexed": true,
          "name": "account",
          "type": "address"
        },
        {
          "indexed": true,
          "name": "sender",
          "type": "address"
        }
      ],
      "name": "RoleGranted",
      "type": "event"
    },
    {
      "anonymous": false,
      "inputs": [
        {
          "indexed": true,
          "name": "role",
          "type": "bytes32"
        },
        {
          "indexed": true,
          "name": "account",
          "type": "address"
        },
        {
          "indexed": true,
          "name": "sender",
          "type": "address"
        }
      ],
      "name": "RoleRevoked",
      "type": "event"
    }
  ],
  "bytecode": "0x6080604052610bf6806100136000396000f3fe6080604052600436106100e55763ffffffff7c0100000000000000000000000000000000000000000000000000000000600035041663248a9ca381146100ea57806324d7806c146101265780632ab6f8db1461016d5780632f2ff15d1461018457806336568abe146101bd5780636d70f7ae146101f657806370480275146102295780638bad0c0a1461025c5780639010d07c1461027157806391d14854146102bd5780639870d7fe146102f6578063a217fddf14610329578063ac8a584a1461033e578063ca15c87314610371578063d547741f1461039b578063f5b541a6146103d4575b600080fd5b3480156100f657600080fd5b506101146004803603602081101561010d57600080fd5b50356103e9565b60408051918252519081900360200190f35b34801561013257600080fd5b506101596004803603602081101561014957600080fd5b5035600160a060020a03166103fe565b604080519115158252519081900360200190f35b34801561017957600080fd5b50610182610410565b005b34801561019057600080fd5b50610182600480360360408110156101a757600080fd5b5080359060200135600160a060020a0316610443565b3480156101c957600080fd5b50610182600480360360408110156101e057600080fd5b5080359060200135600160a060020a03166104f0565b34801561020257600080fd5b506101596004803603602081101561021957600080fd5b5035600160a060020a031661058a565b34801561023557600080fd5b506101826004803603602081101561024c57600080fd5b5035600160a060020a03166105b7565b34801561026857600080fd5b5061018261062b565b34801561027d57600080fd5b506102a16004803603604081101561029457600080fd5b508035906020013561066c565b60408051600160a060020a039092168252519081900360200190f35b3480156102c957600080fd5b50610159600480360360408110156102e057600080fd5b5080359060200135600160a060020a0316610691565b34801561030257600080fd5b506101826004803603602081101561031957600080fd5b5035600160a060020a03166106af565b34801561033557600080fd5b5061011461073a565b34801561034a57600080fd5b506101826004803603602081101561036157600080fd5b5035600160a060020a031661073f565b34801561037d57600080fd5b506101146004803603602081101561039457600080fd5b50356107ca565b3480156103a757600080fd5b50610182600480360360408110156103be57600080fd5b5080359060200135600160a060020a03166107e1565b3480156103e057600080fd5b5061011461087b565b60009081526033602052604090206002015490565b600061040a8183610691565b92915050565b60408051600080516020610bab833981519152815290519081900360080190206104419061043c61089e565b6104f0565b565b6000828152603360205260409020600201546104669061046161089e565b610691565b15156104e2576040805160e560020a62461bcd02815260206004820152602f60248201527f416363657373436f6e74726f6c3a2073656e646572206d75737420626520616e60448201527f2061646d696e20746f206772616e740000000000000000000000000000000000606482015290519081900360840190fd5b6104ec82826108a2565b5050565b6104f861089e565b600160a060020a03828116911614610580576040805160e560020a62461bcd02815260206004820152602f60248201527f416363657373436f6e74726f6c3a2063616e206f6e6c792072656e6f756e636560448201527f20726f6c657320666f722073656c660000000000000000000000000000000000606482015290519081900360840190fd5b6104ec8282610911565b60408051600080516020610bab8339815191528152905190819003600801902060009061040a9083610691565b6105c76105c261089e565b6103fe565b151561061d576040805160e560020a62461bcd02815260206004820152601560248201527f5265737472696374656420746f2041646d696e732e0000000000000000000000604482015290519081900360640190fd5b610628600082610443565b50565b600061063561089e565b90506106426000826104f0565b60408051600080516020610bab8339815191528152905190819003600801902061062890826104f0565b600082815260336020526040812061068a908363ffffffff61098016565b9392505050565b600082815260336020526040812061068a908363ffffffff61098c16565b6106ba6105c261089e565b1515610710576040805160e560020a62461bcd02815260206004820152601560248201527f5265737472696374656420746f2041646d696e732e0000000000000000000000604482015290519081900360640190fd5b60408051600080516020610bab833981519152815290519081900360080190206106289082610443565b600081565b61074a6105c261089e565b15156107a0576040805160e560020a62461bcd02815260206004820152601560248201527f5265737472696374656420746f2041646d696e732e0000000000000000000000604482015290519081900360640190fd5b60408051600080516020610bab8339815191528152905190819003600801902061062890826107e1565b600081815260336020526040812061040a906109a1565b6000828152603360205260409020600201546107ff9061046161089e565b1515610580576040805160e560020a62461bcd02815260206004820152603060248201527f416363657373436f6e74726f6c3a2073656e646572206d75737420626520616e60448201527f2061646d696e20746f207265766f6b6500000000000000000000000000000000606482015290519081900360840190fd5b60408051600080516020610bab8339815191528152905190819003600801902081565b3390565b60008281526033602052604090206108c0908263ffffffff6109ac16565b156104ec576108cd61089e565b600160a060020a031681600160a060020a0316837f2f8788117e7eff1d82e926ec794901d17c78024a50270940304540a733656f0d60405160405180910390a45050565b600082815260336020526040902061092f908263ffffffff6109c116565b156104ec5761093c61089e565b600160a060020a031681600160a060020a0316837ff6391f5c32d9c69d2a47ea670b442974b53935d1edc7fd64eb21e047a839171b60405160405180910390a45050565b600061068a83836109d6565b600061068a83600160a060020a038416610a78565b600061040a82610a90565b600061068a83600160a060020a038416610a94565b600061068a83600160a060020a038416610ae0565b81546000908210610a57576040805160e560020a62461bcd02815260206004820152602260248201527f456e756d657261626c655365743a20696e646578206f7574206f6620626f756e60448201527f6473000000000000000000000000000000000000000000000000000000000000606482015290519081900360840190fd5b8254839083908110610a6557fe5b9060005260206000200154905092915050565b60009081526001919091016020526040902054151590565b5490565b6000610aa08383610a78565b1515610ad85750815460018181018455600084815260208082209093018490558454848252828601909352604090209190915561040a565b50600061040a565b60008181526001830160205260408120548015610ba05783546000198083019190810190600090879083908110610b1357fe5b90600052602060002001549050808760000184815481101515610b3257fe5b6000918252602080832090910192909255828152600189810190925260409020908401905586548790801515610b6457fe5b6001900381819060005260206000200160009055905586600101600087815260200190815260200160002060009055600194505050505061040a565b600091505061040a56fe4f50455241544f52000000000000000000000000000000000000000000000000a165627a7a723058207a47e207e96a4b6c3378cf9f0fc59fb1e4f2e4a6f522dc525fae18aea21442dd0029",
  "linkReferences": {},
  "deployedLinkReferences": {}
}