{
  "_format": "hh-sol-artifact-1",
  "contractName": "DateTimeModel",
  "sourceName": "contracts/libs/DateTimeModel.sol",
  "abi": [
    {
      "constant": true,
      "inputs": [
        {
          "name": "year",
          "type": "uint16"
        },
        {
          "name": "month",
          "type": "uint8"
        },
        {
          "name": "day",
          "type": "uint8"
        },
        {
          "name": "hour",
          "type": "uint8"
        },
        {
          "name": "minute",
          "type": "uint8"
        },
        {
          "name": "second",
          "type": "uint8"
        }
      ],
      "name": "toTimeStamp",
      "outputs": [
        {
          "name": "timeStamp",
          "type": "uint256"
        }
      ],
      "payable": false,
      "stateMutability": "pure",
      "type": "function"
    },
    {
      "constant": true,
      "inputs": [
        {
          "name": "timeStamp",
          "type": "uint256"
        }
      ],
      "name": "getHour",
      "outputs": [
        {
          "name": "",
          "type": "uint8"
        }
      ],
      "payable": false,
      "stateMutability": "pure",
      "type": "function"
    },
    {
      "constant": true,
      "inputs": [],
      "name": "YEAR_IN_SECOND",
      "outputs": [
        {
          "name": "",
          "type": "uint256"
        }
      ],
      "payable": false,
      "stateMutability": "view",
      "type": "function"
    },
    {
      "constant": true,
      "inputs": [
        {
          "name": "month",
          "type": "uint8"
        },
        {
          "name": "year",
          "type": "uint256"
        }
      ],
      "name": "getDaysInMonth",
      "outputs": [
        {
          "name": "",
          "type": "uint8"
        }
      ],
      "payable": false,
      "stateMutability": "pure",
      "type": "function"
    },
    {
      "constant": true,
      "inputs": [
        {
          "name": "timeStamp",
          "type": "uint256"
        }
      ],
      "name": "getSecond",
      "outputs": [
        {
          "name": "",
          "type": "uint8"
        }
      ],
      "payable": false,
      "stateMutability": "pure",
      "type": "function"
    },
    {
      "constant": true,
      "inputs": [
        {
          "name": "year",
          "type": "uint256"
        }
      ],
      "name": "getTotalLeapYearBefore",
      "outputs": [
        {
          "name": "",
          "type": "uint16"
        }
      ],
      "payable": false,
      "stateMutability": "pure",
      "type": "function"
    },
    {
      "constant": true,
      "inputs": [
        {
          "name": "timeStamp",
          "type": "uint256"
        }
      ],
      "name": "getYear",
      "outputs": [
        {
          "name": "",
          "type": "uint16"
        }
      ],
      "payable": false,
      "stateMutability": "pure",
      "type": "function"
    },
    {
      "constant": true,
      "inputs": [],
      "name": "START_YEAR",
      "outputs": [
        {
          "name": "",
          "type": "uint16"
        }
      ],
      "payable": false,
      "stateMutability": "view",
      "type": "function"
    },
    {
      "constant": true,
      "inputs": [
        {
          "name": "year",
          "type": "uint256"
        }
      ],
      "name": "isLeapYear",
      "outputs": [
        {
          "name": "",
          "type": "bool"
        }
      ],
      "payable": false,
      "stateMutability": "pure",
      "type": "function"
    },
    {
      "constant": true,
      "inputs": [
        {
          "name": "c__0x8945311e",
          "type": "bytes32"
        }
      ],
      "name": "c_0x8945311e",
      "outputs": [],
      "payable": false,
      "stateMutability": "pure",
      "type": "function"
    },
    {
      "constant": true,
      "inputs": [],
      "name": "DAY_IN_SECOND",
      "outputs": [
        {
          "name": "",
          "type": "uint256"
        }
      ],
      "payable": false,
      "stateMutability": "view",
      "type": "function"
    },
    {
      "constant": true,
      "inputs": [],
      "name": "LEAP_YEAR_IN_SECOND",
      "outputs": [
        {
          "name": "",
          "type": "uint256"
        }
      ],
      "payable": false,
      "stateMutability": "view",
      "type": "function"
    },
    {
      "constant": true,
      "inputs": [],
      "name": "HOUR_IN_SECOND",
      "outputs": [
        {
          "name": "",
          "type": "uint256"
        }
      ],
      "payable": false,
      "stateMutability": "view",
      "type": "function"
    },
    {
      "constant": true,
      "inputs": [],
      "name": "MINUTE_IN_SECOND",
      "outputs": [
        {
          "name": "",
          "type": "uint256"
        }
      ],
      "payable": false,
      "stateMutability": "view",
      "type": "function"
    },
    {
      "constant": true,
      "inputs": [
        {
          "name": "timeStamp",
          "type": "uint256"
        }
      ],
      "name": "getMinute",
      "outputs": [
        {
          "name": "",
          "type": "uint8"
        }
      ],
      "payable": false,
      "stateMutability": "pure",
      "type": "function"
    }
  ],
  "bytecode": "0x611d26610030600b82828239805160001a6073146000811461002057610022565bfe5b5030600052607381538281f3fe73000000000000000000000000000000000000000030146080604052600436106100f2576000357c0100000000000000000000000000000000000000000000000000000000900463ffffffff1680630a37f14b146100f75780633e239e1a1461017e5780637e8bcedc146101c657806389807474146101e45780638aa001fc14610239578063901200a11461028157806392d66313146102cb578063b3b4cde114610315578063b8d16dbc1461033b578063ba98e9e314610381578063c235a7cf146103af578063d661a2dd146103cd578063db87549b146103eb578063ddb1299e14610409578063fa93f88314610427575b600080fd5b610168600480360360c081101561010d57600080fd5b81019080803561ffff169060200190929190803560ff169060200190929190803560ff169060200190929190803560ff169060200190929190803560ff169060200190929190803560ff16906020019092919050505061046f565b6040518082815260200191505060405180910390f35b6101aa6004803603602081101561019457600080fd5b81019080803590602001909291905050506110e6565b604051808260ff1660ff16815260200191505060405180910390f35b6101ce61118d565b6040518082815260200191505060405180910390f35b61021d600480360360408110156101fa57600080fd5b81019080803560ff16906020019092919080359060200190929190505050611195565b604051808260ff1660ff16815260200191505060405180910390f35b6102656004803603602081101561024f57600080fd5b8101908080359060200190929190505050611551565b604051808260ff1660ff16815260200191505060405180910390f35b6102ad6004803603602081101561029757600080fd5b81019080803590602001909291905050506115eb565b604051808261ffff1661ffff16815260200191505060405180910390f35b6102f7600480360360208110156102e157600080fd5b8101908080359060200190929190505050611700565b604051808261ffff1661ffff16815260200191505060405180910390f35b61031d611b40565b604051808261ffff1661ffff16815260200191505060405180910390f35b6103676004803603602081101561035157600080fd5b8101908080359060200190929190505050611b46565b604051808215151515815260200191505060405180910390f35b6103ad6004803603602081101561039757600080fd5b8101908080359060200190929190505050611c14565b005b6103b7611c17565b6040518082815260200191505060405180910390f35b6103d5611c1e565b6040518082815260200191505060405180910390f35b6103f3611c26565b6040518082815260200191505060405180910390f35b610411611c2c565b6040518082815260200191505060405180910390f35b6104536004803603602081101561043d57600080fd5b8101908080359060200190929190505050611c31565b604051808260ff1660ff16815260200191505060405180910390f35b600061049d7f504a8ec7857f77f0f05b9e1fa4ba5073fb694e2771756c23a9c9532dade4d4f8600102611c14565b6104c97f903e5899356adf169cc3d09a553e3b95613b37b8b2c8192fcec99a21cf72b5fc600102611c14565b6104f57fe5b363119b7f9ef45484423cb8ff0353b064ab8ff3ed4ef958fb4e841ec7aa1b600102611c14565b8160ff1690506105277fbb3a674b09336dbb76a30f85820f5fc5fea400803f83148dd166d65b077761e4600102611c14565b6105537f251fb80cc25a2f96ff3c65f2ee513e802271dfa26e68bc2b8620d6b53d34c172600102611c14565b8260ff16603c028101905061058a7f0685935c6ba4dd53ff0b8540217e29a80271148233eb7d9a6deb49106a099614600102611c14565b6105b67f34f29fb6bec7bdee0f975b3b46a51f8a3a974bb47978e8b49ff7983cc11b11e5600102611c14565b8360ff16610e1002810190506105ee7fe4adfb0cbab84cf8fcf523d90533da057bec4887975b727ad4ee0ef78a58e0f3600102611c14565b61061a7f659ee24f2f90a92fd4407919378438d34ff08398b5df93e04aa4ee37bf432836600102611c14565b6001850360ff166201518002810190506106567fa58a1f34a2d54c93d5914a5ff8ac0cdd6f43092a957880c1b1b5a2be7c744aa6600102611c14565b6106827ff60d4be4c0422d3ef58f4bfaa0489889a2787df5de7f3164daaa008cfd106595600102611c14565b60006106b07f284015969d16865a2ca6a6ec89e8f10c2383cb0ca47b0e8f7ac26a66b601a7f1600102611c14565b6106dc7fde3638b8dda946d63a69803a80ae6fa235c42d959fd33f80cb0e4247396f0fd5600102611c14565b6107b290505b8761ffff168161ffff1610156108895761071e7f11601f329febf3ba37d8935fe5019c24e5b604cf1a795e7e2be3082bff4702c0600102611c14565b61074a7fd5b956881580de96c71d2be72473aec96e179f8f03f16b9cad8cfb0ad738c6ed600102611c14565b6107578161ffff16611b46565b156107ee576107887f22d5429e11b7a4b4ea253ae8dcffb6690765e732754c73f283de0a558b92c5fc600102611c14565b6107b47f1d09cfc393507225f20c9f3d242cf56b5ca01b206913fca93693b9bfca9a3a87600102611c14565b6107e07fdcd61a4e8fdd113a3b67fee6f773bcda09e7f4baa58584f16701eb8791203778600102611c14565b6301e285008201915061087c565b61081a7fcdbe941c5610d1ecfda7b841d01f3cb9e7fd10f3e6a909bf96108333576dea00600102611c14565b6108467f89f134bc610cb81667b1b2e2d302d75fa6fb781866f8b817a66e8f4391dbf354600102611c14565b6108727f22be991ad5b71980b68ba919fc6294ea684b6fd2f52d5cf7f4cab18abdd17311600102611c14565b6301e13380820191505b80806001019150506106e2565b6108b57f3d1e5b9b3af546b7de7ec56aa28ee0f188d95e916add597843fafc9bc6472d7e600102611c14565b6108e17fb7dbf3ab44438953e02ed6478993166a56363a3e16391a3ab3b3555efd412842600102611c14565b6108e9611cd6565b6109157fb958125ea2f9002008e5584b100226c3d53970db2ca10299773b977b9df11487600102611c14565b6109417fbc9fd35a431ae799916b6636e52dc4c87ddaf7d143a1d5d6604011010d4a060d600102611c14565b601f816000600c8110151561095257fe5b602002019060ff16908160ff168152505061098f7f87157c57a6aa42841a4deafb266852f8944617fb1b04e7397987dbb44a236d73600102611c14565b6109bb7fdc1e7a227b3c49e0ac39489a54197a88dcf67e292a68ad911c0f2a1a96784bab600102611c14565b6109c88961ffff16611b46565b15610a78576109f97ff72a8153c5ea837e20c236721c57d0e48a75e09e51e024271154176a98ecfa4e600102611c14565b610a257fc7e5d1a895307a5bfbebc3e7464231cd7ee0088a5a87749cebcd993b9007ceea600102611c14565b610a517fba5a4f13d085d107c19ed8888bafb68927f314204c668f50dfd8800cacafee99600102611c14565b601d816001600c81101515610a6257fe5b602002019060ff16908160ff1681525050610b1f565b610aa47f255a4e74e14189f125f1a16b04efba0e538ed15576ea19fd481eeb2cf76e8653600102611c14565b610ad07f4af3c81ec779c315bfd91a7c2601814449551dceb1b1729c9da12d21da6eafdf600102611c14565b610afc7f566269bff0c68db1b60272883b50009bee1f7f97a6996704d0cb6e757c59be03600102611c14565b601c816001600c81101515610b0d57fe5b602002019060ff16908160ff16815250505b610b4b7ffd4c7cd3929a12c14af6bc8cc0663d1c43a902423175b49198e31710d13c7771600102611c14565b610b777f7eccd00a6dd8806de3458278a473e8b5d92fd0fa89937df6aa8508ff336eac38600102611c14565b601f816002600c81101515610b8857fe5b602002019060ff16908160ff1681525050610bc57f1282ada5bffab035c9042c5c00a53e89a6a904080bc666814e02e4da509c9fac600102611c14565b610bf17fffb1e400d5a20d23b1b9ba868477e4248d93d87595169dab11953819790a2846600102611c14565b601e816003600c81101515610c0257fe5b602002019060ff16908160ff1681525050610c3f7fd4fbf49275d7aa5953f8e97b65c8e88c38bd4d1e908134d21423b4e84413874e600102611c14565b610c6b7fb0bcdb2beed1964bd6c060f98c5173bcefa80a91748f21e210de18deeb244731600102611c14565b601f816004600c81101515610c7c57fe5b602002019060ff16908160ff1681525050610cb97f7adf3fbfb3ffb3af61c66e0180f06a393e0babd853218b4aac11fb961dac3ce2600102611c14565b610ce57fb028d73f0ba524e838a72a1eaacfb173af147b49fd01a39f60c1ffa3140c5ebe600102611c14565b601e816005600c81101515610cf657fe5b602002019060ff16908160ff1681525050610d337f6369d9777b9f02ff1d3c7ec66d2ffbccd0357346772e1cb90f7d6ad7dc336f2d600102611c14565b610d5f7fe02c9fc0b2d181f123cfc3984adfaab39dd761b6e0c2d75f624577c5b296451d600102611c14565b601f816006600c81101515610d7057fe5b602002019060ff16908160ff1681525050610dad7f88c836ad0fe171454b97fa419c509968a4b91caa8a86c4daafdbcaad4287a997600102611c14565b610dd97f586395c95c1fcad281af841c788926de9322951ba411ef19c780530c47cce7e2600102611c14565b601f816007600c81101515610dea57fe5b602002019060ff16908160ff1681525050610e277fc735f1e2fc6b39417d9e6b8806cc11311b132651653a816d8465d7fda3559efb600102611c14565b610e537fac2df65dc1d4ab61d2c72897ef69e8c5556a103dcfe081dab579d6d9783eb708600102611c14565b601e816008600c81101515610e6457fe5b602002019060ff16908160ff1681525050610ea17fac2bff3db3f889754250ab9c9d04f50a9ee43ed66c6d2c07f97b92642bf8f28b600102611c14565b610ecd7f554372b39f86ac9b4617512599d30a946387b79bf1d11d24f31d36cb5c441f8b600102611c14565b601f816009600c81101515610ede57fe5b602002019060ff16908160ff1681525050610f1b7fe7302b2889e3a111911ad17a228f92787f58f8fdc9e08938efe7610ba8d996a5600102611c14565b610f477fd90968232cdf1db5903cd8d631ec5d4e0e54690d48fd2237a8248ba4f4345c7e600102611c14565b601e81600a600c81101515610f5857fe5b602002019060ff16908160ff1681525050610f957fad61e8f959cb9c57fe2f2f6876637439f7601ca2f6887410136bfde3de8da4a4600102611c14565b610fc17f657c279ecaee9cdaa987d275d64b759edf122e276b1e29fe4cc5d87b34780490600102611c14565b601f81600b600c81101515610fd257fe5b602002019060ff16908160ff168152505061100f7ffafd87794c5b0b4fb3a689a4daec2846b03028b2fc724db0edf4d3211759d069600102611c14565b61103b7f21707975629f647ea2a464aa3e1e100e446a4306a8565ddc1d5c368bda498ee3600102611c14565b600091505b6001880360ff168261ffff1610156110da5761107e7f1ece54a9acf2610c87e3c440e5d9203e68db00e99e609eb9949411025c355567600102611c14565b6110aa7f611a909d10d8060dc7a893a43c5dbbeabc43bfa5e093ff45c41c25bacc8bf5d5600102611c14565b808261ffff16600c811015156110bc57fe5b602002015160ff166201518002830192508180600101925050611040565b50509695505050505050565b60006111147f3940530a99f4099b8f4d07dc32f531b54295567a330c81801a6ef5040028a23c600102611c14565b6111407f69bd8442c820eb767dab3ea1cbde489b75622373364717d027596fcb6b433937600102611c14565b61116c7fc1cde02925920c3dd289f9c937a9ce3ae53fce4f82996d43e6461729014076d6600102611c14565b6018610e108381151561117b57fe5b0481151561118557fe5b069050919050565b6301e1338081565b60006111c37ff155b17cc897643b41df67d3561cc347f9bef4a466b3df72a02f1d326f96e3ec600102611c14565b6111ef7fbcd6f205b1d394b650b54511aca8b4e9d42ae52409dfae8b84bf10b3ce084a04600102611c14565b61121b7fe0d2cb0b4b54776f7c09b0b36f7ff6de0e2f4385a9cf7c33799b791b5dda6350600102611c14565b60028360ff1614156113a7576112537f1e9259b08c5dc9653126ea6fce79b6f72e0dd454c90c0cbf400d543ae59f7adf600102611c14565b61127f7f94c55045a4ec3af02cec0a1fb9ea26f4ebd96e1d9fb84bc225c402e0a603af60600102611c14565b6112ab7fd162d092a0721c0063aa29dd083713e6957b2c87c7b44a0a8ff66cb07fdf303b600102611c14565b6112b482611b46565b1561131a576112e57fcbae63fa06e6039f9c7f4ebaede7eb6aacf5468defd4888d5e8445c1bc9cca5b600102611c14565b6113117f5144054db1d58dbe626c516d675ab9e9455e65461e6162f87854014dfb8b0217600102611c14565b601d905061154b565b6113467fce34780398d4a6d72cbbbb4d13a62cda7954f54ab95b8b90f1810060679b4e83600102611c14565b6113727f51e4d4712bf2ea774012502a24a8ba7762dd3d4d2b7ae816b41d57aa64e07d51600102611c14565b61139e7f966599230b2efe1217cf9a88ea1a477ee4707204861232319b6c946d000d8308600102611c14565b601c905061154b565b6113d37f6b283944c5f6af131447249ba3ee43ff2718d04e712b34fd445d2f93045ed4d9600102611c14565b6113ff7faf744b6260b93deb033e632509d37e335b0846c424a549984680a439b124952a600102611c14565b60048360ff161480611414575060068360ff16145b80611422575060098360ff16145b806114305750600b8360ff16145b156114c2576114617fbbc6e5f05e60723a2fd98775070cdb71d4d05117e72768fc24d09ceb3b54ceee600102611c14565b61148d7fbd8714a14ded21c1f0ef248834bf451f5f001d2e258588d47f591017749d7cde600102611c14565b6114b97f7ff2a0a65e08d801c71d32e5fa6d21c7c14daa7b9b52e6911951e61d2dee5ece600102611c14565b601e905061154b565b6114ee7fc400fa2f19d96d670b5cd553118c3dcc839d1ca01643f3f2aadbb964e66cd582600102611c14565b61151a7fb4c0a2f66d83d32038e7162b3ad28e2705331fb983cfb3cb064b37501889ea53600102611c14565b6115467fc5100a56dce49bf964aa99b54f102a3f0a3f6a803d69972b999aee261a9a86da600102611c14565b601f90505b92915050565b600061157f7fb1cb616ec0506f2ecfd084b6e3b54e8a6d2d1bc23112f172081f64ad47bd978e600102611c14565b6115ab7fc53b73c047fd53baa01f9f93b941aeb2fed3930f8ccacde5e4b031f6d034a97a600102611c14565b6115d77f44ffb8ba1c424d23b5cf0490a0229b72ced587f226aeb184b14de4140a724b08600102611c14565b603c828115156115e357fe5b069050919050565b60006116197feb2c7cdb50b2572a4c5d5569522ab919e041cea5eccc88ecf1546003a2c80d4a600102611c14565b6116457f574f903a883c79acde209c41bf37780354bcb02dc6063e732eea9b82645d2c0b600102611c14565b6116717ffffcc7bf361fe5c0588eb02e2e40f85a1074d0ffab37811ee2954c1493445a68600102611c14565b6001820391506116a37f3ce19f0cb55fd9d26a5690034daa5960ec3d70233479e48142b74a81d61a93f2600102611c14565b6116cf7faf4443ae613587d882d11745ab34f55a30281431abaa2dd27b3673a727377c7c600102611c14565b6064828115156116db57fe5b04610190838115156116e957fe5b046004848115156116f657fe5b0401039050919050565b600061172e7faa9905fa9d8dc7935eec32bbe03cafe873aaf6f15ab453dcd56b2ce57e3eeca4600102611c14565b61175a7f663bf67fa87f2ad913453b848f353b7c87e0bba601f750e90217d95cd1840187600102611c14565b6117867f0d5466fd149bf6f66bf44e1ce69c5b9b646b7858ee530f6fe4b44c1399b130cf600102611c14565b60006301e133808381151561179757fe5b046107b261ffff160190506117ce7ff7c4ae06e9c845650bb52508c732a5f72303c3037b635ecc1215a3c2d0790390600102611c14565b6117fa7f89aa6a64363802e5a6464cd1452522ffcf12e9811c943e8178722d312f1dac56600102611c14565b600061180b6107b261ffff166115eb565b611814836115eb565b0361ffff1690506118477f8fd1d551816c5ce457c6fcb88fe17cfef05bd0ff60b2f921fe4ae5168cbe2e6b600102611c14565b6118737fbed93439f285e4f9ccd9a830a4b1df97cf1548246074aba6d87013d063218776600102611c14565b6000816301e2850002826107b261ffff168503036301e13380020190506118bc7fd9f53f917a8b8e0eee460e30756ef4eaff78b0a3b90b4b451feb9e1863390ada600102611c14565b6118e87fe952482a9f34e37dcdb0077c226887bf334f24027405859080e4bc049d8b9a96600102611c14565b5b84811115611add5761191d7f6f95896d861a1cf4ef23bc40c92abfbca3affb80257f517f2c007562da81a802600102611c14565b6119497fb12ad78b1876d14abaa37416671bd07bed080a6ce64b371bdfd7e2d69d89da6e600102611c14565b61195560018403611b46565b156119ec576119867f6c06717daf4584869deb27237b0c27fb71b4bf54141f6fb6817c9a7083688aba600102611c14565b6119b27ff007e8ce052e12f2d9bf15fe86b6823999a3c41af914f5f26d038a66674422af600102611c14565b6119de7f9f24d204f8e8b55dda232ace5da3fe70f2008525f5cb8e874eb1ea6a4fe7e882600102611c14565b6301e2850081039050611a7a565b611a187fa8f5f468d40e0ee31e441b11ee194e32890c772b4f58e9af8b5b41d398fe1872600102611c14565b611a447f66affc12d63b8855820aa906e9a4b08c2feb4edb8a116a91f556979f3ab99ced600102611c14565b611a707f3bb09d0037b739d50b6349daabc35de9ddb93a013c8fcbff0af23e099adcbb04600102611c14565b6301e13380810390505b611aa67f3831d2f46af76e575f65fd9ebffccfe8f17e118a92c6265ff792c3fdcb555a79600102611c14565b611ad27f3e93a3758d1da71b45b1a9fc01c8011db23a18c98a24061d6e3aa8602da8247e600102611c14565b6001830392506118e9565b611b097f603f8c0b01d48857d77b539a8e655e56c07b3c48fd7e9ec719459cc8f2dd36cc600102611c14565b611b357f6e46492d3df9309fcb22ad59e97be4a0b069b31f67d27fb48f6a34363dfa162b600102611c14565b829350505050919050565b6107b281565b6000611b747f39afaa5999b8d55fae036c69daf0a86845149d0c46c1f8c3f2095fc7c50e20a0600102611c14565b611ba07fd491322b7b68ce8f0567b7530a838f3831624b125beccd3cb9008622e110ae3f600102611c14565b611bcc7f3b51bbf3bb580adcfadb93fb9717febc8b315163a798bfebf7b5bf84229710a3600102611c14565b600061019083811515611bdb57fe5b061480611c0d57506000600483811515611bf157fe5b06148015611c0c57506000606483811515611c0857fe5b0614155b5b9050919050565b50565b6201518081565b6301e2850081565b610e1081565b603c81565b6000611c5f7f9b897a64bbfff882530d264b969ff02abff2819b3ebd5a7d0ee1d9f5d1a0b193600102611c14565b611c8b7f1bc45735d4e64373353e1d3b278bd6c7cdd83cf891971c65ff92433c8a9f0785600102611c14565b611cb77fd907228da083e86c4a94974b84b50f80ed66b5dfb58276fcb209c6cfe56df5b2600102611c14565b603c8083811515611cc457fe5b04811515611cce57fe5b069050919050565b61018060405190810160405280600c9060208202803883398082019150509050509056fea165627a7a72305820f6c1808ecf4387b9a73c0fcae5801fd0c37104566c972127d1ed9227f08ed31d0029",
  "linkReferences": {},
  "deployedLinkReferences": {}
}