{
  "_format": "hh-sol-artifact-1",
  "contractName": "DateTimeModel",
  "sourceName": "contracts/libs/DateTimeModel.sol",
  "abi": [
    {
      "constant": true,
      "inputs": [
        {
          "name": "year",
          "type": "uint16"
        },
        {
          "name": "month",
          "type": "uint8"
        },
        {
          "name": "day",
          "type": "uint8"
        },
        {
          "name": "hour",
          "type": "uint8"
        },
        {
          "name": "minute",
          "type": "uint8"
        },
        {
          "name": "second",
          "type": "uint8"
        }
      ],
      "name": "toTimeStamp",
      "outputs": [
        {
          "name": "timeStamp",
          "type": "uint256"
        }
      ],
      "payable": false,
      "stateMutability": "pure",
      "type": "function"
    },
    {
      "constant": true,
      "inputs": [
        {
          "name": "timeStamp",
          "type": "uint256"
        }
      ],
      "name": "getHour",
      "outputs": [
        {
          "name": "",
          "type": "uint8"
        }
      ],
      "payable": false,
      "stateMutability": "pure",
      "type": "function"
    },
    {
      "constant": true,
      "inputs": [],
      "name": "YEAR_IN_SECOND",
      "outputs": [
        {
          "name": "",
          "type": "uint256"
        }
      ],
      "payable": false,
      "stateMutability": "view",
      "type": "function"
    },
    {
      "constant": true,
      "inputs": [
        {
          "name": "month",
          "type": "uint8"
        },
        {
          "name": "year",
          "type": "uint256"
        }
      ],
      "name": "getDaysInMonth",
      "outputs": [
        {
          "name": "",
          "type": "uint8"
        }
      ],
      "payable": false,
      "stateMutability": "pure",
      "type": "function"
    },
    {
      "constant": true,
      "inputs": [
        {
          "name": "timeStamp",
          "type": "uint256"
        }
      ],
      "name": "getSecond",
      "outputs": [
        {
          "name": "",
          "type": "uint8"
        }
      ],
      "payable": false,
      "stateMutability": "pure",
      "type": "function"
    },
    {
      "constant": true,
      "inputs": [
        {
          "name": "year",
          "type": "uint256"
        }
      ],
      "name": "getTotalLeapYearBefore",
      "outputs": [
        {
          "name": "",
          "type": "uint16"
        }
      ],
      "payable": false,
      "stateMutability": "pure",
      "type": "function"
    },
    {
      "constant": true,
      "inputs": [
        {
          "name": "timeStamp",
          "type": "uint256"
        }
      ],
      "name": "getYear",
      "outputs": [
        {
          "name": "",
          "type": "uint16"
        }
      ],
      "payable": false,
      "stateMutability": "pure",
      "type": "function"
    },
    {
      "constant": true,
      "inputs": [],
      "name": "START_YEAR",
      "outputs": [
        {
          "name": "",
          "type": "uint16"
        }
      ],
      "payable": false,
      "stateMutability": "view",
      "type": "function"
    },
    {
      "constant": true,
      "inputs": [
        {
          "name": "year",
          "type": "uint256"
        }
      ],
      "name": "isLeapYear",
      "outputs": [
        {
          "name": "",
          "type": "bool"
        }
      ],
      "payable": false,
      "stateMutability": "pure",
      "type": "function"
    },
    {
      "constant": true,
      "inputs": [],
      "name": "DAY_IN_SECOND",
      "outputs": [
        {
          "name": "",
          "type": "uint256"
        }
      ],
      "payable": false,
      "stateMutability": "view",
      "type": "function"
    },
    {
      "constant": true,
      "inputs": [],
      "name": "LEAP_YEAR_IN_SECOND",
      "outputs": [
        {
          "name": "",
          "type": "uint256"
        }
      ],
      "payable": false,
      "stateMutability": "view",
      "type": "function"
    },
    {
      "constant": true,
      "inputs": [],
      "name": "HOUR_IN_SECOND",
      "outputs": [
        {
          "name": "",
          "type": "uint256"
        }
      ],
      "payable": false,
      "stateMutability": "view",
      "type": "function"
    },
    {
      "constant": true,
      "inputs": [],
      "name": "MINUTE_IN_SECOND",
      "outputs": [
        {
          "name": "",
          "type": "uint256"
        }
      ],
      "payable": false,
      "stateMutability": "view",
      "type": "function"
    },
    {
      "constant": true,
      "inputs": [
        {
          "name": "timeStamp",
          "type": "uint256"
        }
      ],
      "name": "getMinute",
      "outputs": [
        {
          "name": "",
          "type": "uint8"
        }
      ],
      "payable": false,
      "stateMutability": "pure",
      "type": "function"
    }
  ],
  "bytecode": "0x610599610030600b82828239805160001a6073146000811461002057610022565bfe5b5030600052607381538281f3fe73000000000000000000000000000000000000000030146080604052600436106100e65763ffffffff7c01000000000000000000000000000000000000000000000000000000006000350416630a37f14b81146100eb5780633e239e1a146101495780637e8bcedc1461017c57806389807474146101845780638aa001fc146101aa578063901200a1146101c757806392d66313146101fb578063b3b4cde114610218578063b8d16dbc14610220578063c235a7cf14610251578063d661a2dd14610259578063db87549b14610261578063ddb1299e14610269578063fa93f88314610271575b600080fd5b610137600480360360c081101561010157600080fd5b5061ffff8135169060ff602082013581169160408101358216916060820135811691608081013582169160a0909101351661028e565b60408051918252519081900360200190f35b6101666004803603602081101561015f57600080fd5b50356103c1565b6040805160ff9092168252519081900360200190f35b6101376103db565b6101666004803603604081101561019a57600080fd5b5060ff81351690602001356103e3565b610166600480360360208110156101c057600080fd5b5035610457565b6101e4600480360360208110156101dd57600080fd5b5035610461565b6040805161ffff9092168252519081900360200190f35b6101e46004803603602081101561021157600080fd5b503561047c565b6101e46104fe565b61023d6004803603602081101561023657600080fd5b5035610504565b604080519115158252519081900360200190f35b610137610528565b61013761052f565b610137610537565b61013761053d565b6101666004803603602081101561028757600080fd5b5035610542565b60ff818116838216603c0201848216610e1002016000198601919091166201518002016107b25b8761ffff168161ffff1610156102f7576102d28161ffff16610504565b156102e5576301e28500820191506102ef565b6301e13380820191505b6001016102b5565b6102ff61054d565b601f815261031061ffff8a16610504565b1561032157601d6020820152610329565b601c60208201525b601f60408201819052601e606083018190526080830182905260a0830181905260c0830182905260e0830182905261010083018190526101208301829052610140830152610160820152600091505b8760ff168261ffff1610156103b5578061ffff8316600c811061039757fe5b602002015160ff166201518002830192508180600101925050610378565b50509695505050505050565b60006018610e10835b048115156103d457fe5b0692915050565b6301e1338081565b60008260ff166002141561040f576103fa82610504565b156104075750601d610451565b50601c610451565b8260ff166004148061042457508260ff166006145b8061043257508260ff166009145b8061044057508260ff16600b145b1561044d5750601e610451565b50601f5b92915050565b6000603c826103d4565b60001901600060648204610190830460048404010392915050565b60006107b26301e133808304810190829061049690610461565b61049f83610461565b0361ffff1690506301e2850081026107b119828403016301e1338002015b848111156104f5576104d160018403610504565b156104e2576301e284ff19016104ea565b6301e1337f19015b6001830392506104bd565b50909392505050565b6107b281565b60006101908206158061045157506004820615801561045157505060649006151590565b6201518081565b6301e2850081565b610e1081565b603c81565b6000603c80836103ca565b61018060405190810160405280600c90602082028038833950919291505056fea165627a7a723058208096b4d97a0af13aa53b25edbc567a4d7176ef6141fcc3905162b1ee461d15690029",
  "linkReferences": {},
  "deployedLinkReferences": {}
}