{
  "_format": "hh-sol-artifact-1",
  "contractName": "DateTimeModel",
  "sourceName": "contracts/libs/DateTimeModel.sol",
  "abi": [
    {
      "constant": true,
      "inputs": [
        {
          "name": "year",
          "type": "uint16"
        },
        {
          "name": "month",
          "type": "uint8"
        },
        {
          "name": "day",
          "type": "uint8"
        },
        {
          "name": "hour",
          "type": "uint8"
        },
        {
          "name": "minute",
          "type": "uint8"
        },
        {
          "name": "second",
          "type": "uint8"
        }
      ],
      "name": "toTimeStamp",
      "outputs": [
        {
          "name": "timeStamp",
          "type": "uint256"
        }
      ],
      "payable": false,
      "stateMutability": "pure",
      "type": "function"
    },
    {
      "constant": true,
      "inputs": [
        {
          "name": "timeStamp",
          "type": "uint256"
        }
      ],
      "name": "getHour",
      "outputs": [
        {
          "name": "",
          "type": "uint8"
        }
      ],
      "payable": false,
      "stateMutability": "pure",
      "type": "function"
    },
    {
      "constant": true,
      "inputs": [],
      "name": "YEAR_IN_SECOND",
      "outputs": [
        {
          "name": "",
          "type": "uint256"
        }
      ],
      "payable": false,
      "stateMutability": "view",
      "type": "function"
    },
    {
      "constant": true,
      "inputs": [
        {
          "name": "month",
          "type": "uint8"
        },
        {
          "name": "year",
          "type": "uint256"
        }
      ],
      "name": "getDaysInMonth",
      "outputs": [
        {
          "name": "",
          "type": "uint8"
        }
      ],
      "payable": false,
      "stateMutability": "pure",
      "type": "function"
    },
    {
      "constant": true,
      "inputs": [
        {
          "name": "timeStamp",
          "type": "uint256"
        }
      ],
      "name": "getSecond",
      "outputs": [
        {
          "name": "",
          "type": "uint8"
        }
      ],
      "payable": false,
      "stateMutability": "pure",
      "type": "function"
    },
    {
      "constant": true,
      "inputs": [
        {
          "name": "year",
          "type": "uint256"
        }
      ],
      "name": "getTotalLeapYearBefore",
      "outputs": [
        {
          "name": "",
          "type": "uint16"
        }
      ],
      "payable": false,
      "stateMutability": "pure",
      "type": "function"
    },
    {
      "constant": true,
      "inputs": [
        {
          "name": "timeStamp",
          "type": "uint256"
        }
      ],
      "name": "getYear",
      "outputs": [
        {
          "name": "",
          "type": "uint16"
        }
      ],
      "payable": false,
      "stateMutability": "pure",
      "type": "function"
    },
    {
      "constant": true,
      "inputs": [],
      "name": "START_YEAR",
      "outputs": [
        {
          "name": "",
          "type": "uint16"
        }
      ],
      "payable": false,
      "stateMutability": "view",
      "type": "function"
    },
    {
      "constant": true,
      "inputs": [
        {
          "name": "year",
          "type": "uint256"
        }
      ],
      "name": "isLeapYear",
      "outputs": [
        {
          "name": "",
          "type": "bool"
        }
      ],
      "payable": false,
      "stateMutability": "pure",
      "type": "function"
    },
    {
      "constant": true,
      "inputs": [],
      "name": "DAY_IN_SECOND",
      "outputs": [
        {
          "name": "",
          "type": "uint256"
        }
      ],
      "payable": false,
      "stateMutability": "view",
      "type": "function"
    },
    {
      "constant": true,
      "inputs": [],
      "name": "LEAP_YEAR_IN_SECOND",
      "outputs": [
        {
          "name": "",
          "type": "uint256"
        }
      ],
      "payable": false,
      "stateMutability": "view",
      "type": "function"
    },
    {
      "constant": true,
      "inputs": [],
      "name": "HOUR_IN_SECOND",
      "outputs": [
        {
          "name": "",
          "type": "uint256"
        }
      ],
      "payable": false,
      "stateMutability": "view",
      "type": "function"
    },
    {
      "constant": true,
      "inputs": [],
      "name": "MINUTE_IN_SECOND",
      "outputs": [
        {
          "name": "",
          "type": "uint256"
        }
      ],
      "payable": false,
      "stateMutability": "view",
      "type": "function"
    },
    {
      "constant": true,
      "inputs": [
        {
          "name": "timeStamp",
          "type": "uint256"
        }
      ],
      "name": "getMinute",
      "outputs": [
        {
          "name": "",
          "type": "uint8"
        }
      ],
      "payable": false,
      "stateMutability": "pure",
      "type": "function"
    }
  ],
  "bytecode": "0x61059c610030600b82828239805160001a6073146000811461002057610022565bfe5b5030600052607381538281f3fe73000000000000000000000000000000000000000030146080604052600436106100e65763ffffffff7c01000000000000000000000000000000000000000000000000000000006000350416630a37f14b81146100eb5780633e239e1a146101495780637e8bcedc1461017c57806389807474146101845780638aa001fc146101aa578063901200a1146101c757806392d66313146101fb578063b3b4cde114610218578063b8d16dbc14610220578063c235a7cf14610251578063d661a2dd14610259578063db87549b14610261578063ddb1299e14610269578063fa93f88314610271575b600080fd5b610137600480360360c081101561010157600080fd5b5061ffff8135169060ff602082013581169160408101358216916060820135811691608081013582169160a0909101351661028e565b60408051918252519081900360200190f35b6101666004803603602081101561015f57600080fd5b50356103c4565b6040805160ff9092168252519081900360200190f35b6101376103de565b6101666004803603604081101561019a57600080fd5b5060ff81351690602001356103e6565b610166600480360360208110156101c057600080fd5b503561045a565b6101e4600480360360208110156101dd57600080fd5b5035610464565b6040805161ffff9092168252519081900360200190f35b6101e46004803603602081101561021157600080fd5b503561047f565b6101e4610501565b61023d6004803603602081101561023657600080fd5b5035610507565b604080519115158252519081900360200190f35b61013761052b565b610137610532565b61013761053a565b610137610540565b6101666004803603602081101561028757600080fd5b5035610545565b60ff818116838216603c0201848216610e1002016000198601919091166201518002016107b25b8761ffff168161ffff1610156102f7576102d28161ffff16610507565b156102e5576301e28500820191506102ef565b6301e13380820191505b6001016102b5565b6102ff610550565b601f815261031061ffff8a16610507565b1561032157601d6020820152610329565b601c60208201525b601f60408201819052601e606083018190526080830182905260a0830181905260c0830182905260e0830182905261010083018190526101208301829052610140830152610160820152600091505b6001880360ff168261ffff1610156103b8578061ffff8316600c811061039a57fe5b602002015160ff166201518002830192508180600101925050610378565b50509695505050505050565b60006018610e10835b048115156103d757fe5b0692915050565b6301e1338081565b60008260ff1660021415610412576103fd82610507565b1561040a5750601d610454565b50601c610454565b8260ff166004148061042757508260ff166006145b8061043557508260ff166009145b8061044357508260ff16600b145b156104505750601e610454565b50601f5b92915050565b6000603c826103d7565b60001901600060648204610190830460048404010392915050565b60006107b26301e133808304810190829061049990610464565b6104a283610464565b0361ffff1690506301e2850081026107b119828403016301e1338002015b848111156104f8576104d460018403610507565b156104e5576301e284ff19016104ed565b6301e1337f19015b6001830392506104c0565b50909392505050565b6107b281565b60006101908206158061045457506004820615801561045457505060649006151590565b6201518081565b6301e2850081565b610e1081565b603c81565b6000603c80836103cd565b61018060405190810160405280600c90602082028038833950919291505056fea165627a7a72305820f9905e43b7aaf8b29b8644b8067080f93596955a0f5667f8589415bf5b1547380029",
  "linkReferences": {},
  "deployedLinkReferences": {}
}