{
  "_format": "hh-sol-artifact-1",
  "contractName": "GluwaPrizeDraw",
  "sourceName": "contracts/abstracts/GluwaPrizeDraw.sol",
  "abi": [
    {
      "constant": true,
      "inputs": [
        {
          "name": "drawTimeStamp",
          "type": "uint256"
        }
      ],
      "name": "findMinMaxForDraw",
      "outputs": [
        {
          "name": "min",
          "type": "uint256"
        },
        {
          "name": "max",
          "type": "uint256"
        }
      ],
      "payable": false,
      "stateMutability": "view",
      "type": "function"
    },
    {
      "constant": true,
      "inputs": [
        {
          "name": "drawTimeStamp",
          "type": "uint256"
        }
      ],
      "name": "getDrawDetails",
      "outputs": [
        {
          "name": "participants",
          "type": "address[]"
        },
        {
          "name": "ticketIds",
          "type": "uint256[]"
        }
      ],
      "payable": false,
      "stateMutability": "view",
      "type": "function"
    },
    {
      "anonymous": false,
      "inputs": [
        {
          "indexed": false,
          "name": "winner",
          "type": "address"
        },
        {
          "indexed": false,
          "name": "ticket",
          "type": "uint256"
        },
        {
          "indexed": false,
          "name": "reward",
          "type": "uint256"
        }
      ],
      "name": "Winner",
      "type": "event"
    },
    {
      "anonymous": false,
      "inputs": [
        {
          "indexed": true,
          "name": "drawTimeStamp",
          "type": "uint256"
        },
        {
          "indexed": true,
          "name": "ticketId",
          "type": "uint256"
        },
        {
          "indexed": true,
          "name": "owner",
          "type": "address"
        },
        {
          "indexed": false,
          "name": "upper",
          "type": "uint256"
        },
        {
          "indexed": false,
          "name": "lower",
          "type": "uint256"
        }
      ],
      "name": "CreateTicket",
      "type": "event"
    }
  ],
  "bytecode": "0x60806040526103cd806100136000396000f3fe60806040526004361061004b5763ffffffff7c01000000000000000000000000000000000000000000000000000000006000350416638067e0028114610050578063d5a962e414610093575b600080fd5b34801561005c57600080fd5b5061007a6004803603602081101561007357600080fd5b5035610156565b6040805192835260208301919091528051918290030190f35b34801561009f57600080fd5b506100bd600480360360208110156100b657600080fd5b50356102ba565b604051808060200180602001838103835285818151815260200191508051906020019060200280838360005b838110156101015781810151838201526020016100e9565b50505050905001838103825284818151815260200191508051906020019060200280838360005b83811015610140578181015183820152602001610128565b5050505090500194505050505060405180910390f35b6000818152603a602052604081208054829190603890839083908290811061017a57fe5b90600052602060002001548152602001908152602001600020600201549150603860008260008154811015156101ac57fe5b906000526020600020015481526020019081526020016000206001015492506000600190505b81548110156102b357826038600084848154811015156101ee57fe5b906000526020600020015481526020019081526020016000206002015411156102435760386000838381548110151561022357fe5b906000526020600020015481526020019081526020016000206002015492505b8360386000848481548110151561025657fe5b906000526020600020015481526020019081526020016000206001015410156102ab5760386000838381548110151561028b57fe5b906000526020600020015481526020019081526020016000206001015493505b6001016101d2565b5050915091565b606080603c600084815260200190815260200160002080548060200260200160405190810160405280929190818152602001828054801561033157602002820191906000526020600020905b815473ffffffffffffffffffffffffffffffffffffffff168152600190910190602001808311610306575b50505050509150603a600084815260200190815260200160002080548060200260200160405190810160405280929190818152602001828054801561039557602002820191906000526020600020905b815481526020019060010190808311610381575b5050505050905091509156fea165627a7a72305820b9a18d88ef5003ddfc5ff2f9cdcf3cb365ca1458a0d501c47d2bb096247bcc480029",
  "linkReferences": {},
  "deployedLinkReferences": {}
}