{
  "_format": "hh-sol-artifact-1",
  "contractName": "GluwaPrizeDraw",
  "sourceName": "contracts/abstracts/GluwaPrizeDraw.sol",
  "abi": [
    {
      "constant": true,
      "inputs": [
        {
          "name": "drawTimeStamp",
          "type": "uint256"
        }
      ],
      "name": "findMaxMinForDraw",
      "outputs": [
        {
          "name": "max",
          "type": "uint256"
        },
        {
          "name": "min",
          "type": "uint256"
        }
      ],
      "payable": false,
      "stateMutability": "view",
      "type": "function"
    },
    {
      "anonymous": false,
      "inputs": [
        {
          "indexed": false,
          "name": "winner",
          "type": "address"
        },
        {
          "indexed": false,
          "name": "ticket",
          "type": "uint256"
        },
        {
          "indexed": false,
          "name": "reward",
          "type": "uint256"
        }
      ],
      "name": "Winner",
      "type": "event"
    },
    {
      "anonymous": false,
      "inputs": [
        {
          "indexed": true,
          "name": "drawTimeStamp",
          "type": "uint256"
        },
        {
          "indexed": true,
          "name": "ticketId",
          "type": "uint256"
        },
        {
          "indexed": true,
          "name": "owner",
          "type": "address"
        },
        {
          "indexed": false,
          "name": "upper",
          "type": "uint256"
        },
        {
          "indexed": false,
          "name": "lower",
          "type": "uint256"
        }
      ],
      "name": "CreateTicket",
      "type": "event"
    }
  ],
  "bytecode": "0x6080604052610371806100136000396000f3fe6080604052600436106100405763ffffffff7c01000000000000000000000000000000000000000000000000000000006000350416638e2011638114610045575b600080fd5b34801561005157600080fd5b5061006f6004803603602081101561006857600080fd5b5035610088565b6040805192835260208301919091528051918290030190f35b6000818152603c60209081526040808320603b9092528220815483929160389184919082908590829081106100b957fe5b600091825260208083209091015473ffffffffffffffffffffffffffffffffffffffff168352828101939093526040918201812054845283830194909452918201832060020154878452603b909152908220835491955060389291829085908290811061012257fe5b600091825260208083209091015473ffffffffffffffffffffffffffffffffffffffff1683528281019390935260409182018120548452918301939093529101902060019081015492505b815481101561033e578360386000603b60008981526020019081526020016000206000868681548110151561019e57fe5b600091825260208083209091015473ffffffffffffffffffffffffffffffffffffffff16835282810193909352604091820181205484529183019390935291019020600201541115610256576000858152603b6020526040812083546038929190829086908690811061020d57fe5b600091825260208083209091015473ffffffffffffffffffffffffffffffffffffffff168352828101939093526040918201812054845291830193909352910190206002015493505b8260386000603b60008981526020019081526020016000206000868681548110151561027e57fe5b600091825260208083209091015473ffffffffffffffffffffffffffffffffffffffff16835282810193909352604091820181205484529183019390935291019020600101541015610336576000858152603b602052604081208354603892919082908690869081106102ed57fe5b600091825260208083209091015473ffffffffffffffffffffffffffffffffffffffff168352828101939093526040918201812054845291830193909352910190206001015492505b60010161016d565b505091509156fea165627a7a72305820a7cfb2262e55ef6ec9d2b13a131cb3ed6da904c8a60228bd6d1cb8e3baf44d270029",
  "linkReferences": {},
  "deployedLinkReferences": {}
}