{
  "_format": "hh-sol-artifact-1",
  "contractName": "GluwaPrizeDraw",
  "sourceName": "contracts/abstracts/GluwaPrizeDraw.sol",
  "abi": [
    {
      "constant": true,
      "inputs": [
        {
          "name": "c__0x42d91d40",
          "type": "bytes32"
        }
      ],
      "name": "c_0x42d91d40",
      "outputs": [],
      "payable": false,
      "stateMutability": "pure",
      "type": "function"
    },
    {
      "constant": true,
      "inputs": [
        {
          "name": "drawTimeStamp",
          "type": "uint256"
        }
      ],
      "name": "findMinMaxForDraw",
      "outputs": [
        {
          "name": "min",
          "type": "uint256"
        },
        {
          "name": "max",
          "type": "uint256"
        }
      ],
      "payable": false,
      "stateMutability": "view",
      "type": "function"
    },
    {
      "constant": true,
      "inputs": [
        {
          "name": "drawTimeStamp",
          "type": "uint256"
        }
      ],
      "name": "getDrawDetails",
      "outputs": [
        {
          "name": "participants",
          "type": "address[]"
        },
        {
          "name": "ticketIds",
          "type": "uint256[]"
        },
        {
          "name": "winningTicket",
          "type": "uint256"
        },
        {
          "name": "balanceEachDraw",
          "type": "uint256"
        }
      ],
      "payable": false,
      "stateMutability": "view",
      "type": "function"
    },
    {
      "constant": true,
      "inputs": [
        {
          "name": "drawTimeStamp",
          "type": "uint256"
        }
      ],
      "name": "getDrawWinner",
      "outputs": [
        {
          "name": "result",
          "type": "address[]"
        }
      ],
      "payable": false,
      "stateMutability": "view",
      "type": "function"
    },
    {
      "anonymous": false,
      "inputs": [
        {
          "indexed": false,
          "name": "winner",
          "type": "address"
        },
        {
          "indexed": false,
          "name": "ticket",
          "type": "uint256"
        },
        {
          "indexed": false,
          "name": "reward",
          "type": "uint256"
        }
      ],
      "name": "Winner",
      "type": "event"
    },
    {
      "anonymous": false,
      "inputs": [
        {
          "indexed": true,
          "name": "drawTimeStamp",
          "type": "uint256"
        },
        {
          "indexed": true,
          "name": "ticketId",
          "type": "uint256"
        },
        {
          "indexed": true,
          "name": "owner",
          "type": "address"
        },
        {
          "indexed": false,
          "name": "upper",
          "type": "uint256"
        },
        {
          "indexed": false,
          "name": "lower",
          "type": "uint256"
        }
      ],
      "name": "CreateTicket",
      "type": "event"
    }
  ],
  "bytecode": "0x608060405261130e806100136000396000f3fe608060405260043610610062576000357c0100000000000000000000000000000000000000000000000000000000900463ffffffff1680632eda6f87146100675780638067e002146100a2578063d5a962e4146100f8578063ee37fb4c146101de575b600080fd5b34801561007357600080fd5b506100a06004803603602081101561008a57600080fd5b810190808035906020019092919050505061026e565b005b3480156100ae57600080fd5b506100db600480360360208110156100c557600080fd5b8101908080359060200190929190505050610271565b604051808381526020018281526020019250505060405180910390f35b34801561010457600080fd5b506101316004803603602081101561011b57600080fd5b810190808035906020019092919050505061078c565b604051808060200180602001858152602001848152602001838103835287818151815260200191508051906020019060200280838360005b83811015610184578082015181840152602081019050610169565b50505050905001838103825286818151815260200191508051906020019060200280838360005b838110156101c65780820151818401526020810190506101ab565b50505050905001965050505050505060405180910390f35b3480156101ea57600080fd5b506102176004803603602081101561020157600080fd5b8101908080359060200190929190505050610a4f565b6040518080602001828103825283818151815260200191508051906020019060200280838360005b8381101561025a57808201518184015260208101905061023f565b505050509050019250505060405180910390f35b50565b6000806102a07f159087414106394e32055ef33ac14134ef0c11ae6e385c9c0a8396c2b5475adc60010261026e565b6102cc7fd3c6c27b56653c691642f8f2003a6939ff6266835992a532b420dc4a769565b860010261026e565b6102f87f7976e804e76d0d9efc3b78fe72fb9e4a8578504d2975157c3250fb603e3ba38160010261026e565b600060376000858152602001908152602001600020905061033b7f039a8b299bcbe089210efb1b4a0d0e048d33c88b8efd452d6f6e1025a5c9474060010261026e565b6103677f0b561b54004f278cce7a6cb4173ee6ab43db623c35fd055bb14dbff80fc019b460010261026e565b6036600082600081548110151561037a57fe5b906000526020600020015481526020019081526020016000206002015491506103c57ffa3f09a7e4593084651f29ea8461b3387030a4159e8a40eef148b8f6e3e09f3860010261026e565b6103f17ff089dbfa7364bad466cdb8497bb5a8b5b834c2756a722111d07fcb1ff09e841860010261026e565b6036600082600081548110151561040457fe5b9060005260206000200154815260200190815260200160002060010154925061044f7faa964b1b324db9406b36cdf6a982b534d3f86c22a8248271de2c7454cf41e2f560010261026e565b61047b7f5f0265a64dc0d1e44ed8fcf4b17443ea6b2dfbc5a7483c9de2803bd47128c3e760010261026e565b6000600190505b8180549050811015610785576104ba7f1e90f0808128ed6295f3929f0c3e9b6d2fefbfab02b0616f39d405a446233e5860010261026e565b6104e67f8d364e20c86888a49fb0a5c225316faafc62d30ef272ae7d5e4e91bf193c157b60010261026e565b826036600084848154811015156104f957fe5b906000526020600020015481526020019081526020016000206002015411156105d6576105487f443a104b7a2abc0ce9ff9d40bb5aba80939c9751fe15f5117433748460aac9f560010261026e565b6105747f4e4eb1fb865a8202c21707fc5704c30fe63e71ebc3d363465a5f1fe4c0072f2260010261026e565b6105a07f761edc98fee140249b69aba460e9f328cc70c96d2a0b4b079d086b41598494bb60010261026e565b6036600083838154811015156105b257fe5b90600052602060002001548152602001908152602001600020600201549250610603565b6106027fab52b31eb252d025a5c78869fd14218565b055d33d0c368e86f259e860b3e87660010261026e565b5b61062f7fa1cbe202d4979dbc1803e8224f63637cd8300a19910f5d37c061af72d6ac1aca60010261026e565b61065b7fe5af1bfd7fbbbe21eb81a7414fd0a0a8c4e360a1323ff7e51ab859bddb66973d60010261026e565b8360366000848481548110151561066e57fe5b9060005260206000200154815260200190815260200160002060010154101561074b576106bd7f1c29f5bfdefb542bb506b84b7c74430c6e9f3a3bb9e2a8ae6c272fff65c56e2060010261026e565b6106e97fe170a50cf1cc82b7a8b8b710d9580fc7fe6191971a8675a4910011b44b0e7eb660010261026e565b6107157f203a00e7114c711bf1e80ab3dbf084357a497ed70ca3424640b7d1488ff6950a60010261026e565b60366000838381548110151561072757fe5b90600052602060002001548152602001908152602001600020600101549350610778565b6107777fa303f98cc6ce1685bf6e989f8a0f8f49483b345121b408ad42b01dd5afb2321360010261026e565b5b8080600101915050610482565b5050915091565b6060806000806107be7f752b614dcd43b64a7299e0f86075c6d21cedbd89eba1631abf2743b7b946af4760010261026e565b6107ea7fbaa6dad4bf9fc1b0239fa23cbdfb6c0e927c3523ee2275d7b861051d256dfc8360010261026e565b6108167fea25679998979202b0b4b107f89054f2794bb3bdd9a1c4d768a97a844758a78060010261026e565b603a60008681526020019081526020016000208054806020026020016040519081016040528092919081815260200182805480156108a957602002820191906000526020600020905b8160009054906101000a900473ffffffffffffffffffffffffffffffffffffffff1673ffffffffffffffffffffffffffffffffffffffff168152602001906001019080831161085f575b505050505093506108dc7fee6f04d8903c6b975227c7950dc7e18945464e5271c84c489f529cf63f2a9b2b60010261026e565b6109087f5b13ecfe45c00bb754ec25a2fd7654dd81c9999f91657f2e34069d2199ecac4a60010261026e565b6037600086815260200190815260200160002080548060200260200160405190810160405280929190818152602001828054801561096557602002820191906000526020600020905b815481526020019060010190808311610951575b505050505092506109987f1906b4099c4ff18ae8645fecee6f5c2d21335fb4a8562eee149855221076c78260010261026e565b6109c47f2a6b08f6b3d399cff480c7a89510f70c1886f224a158c7576c1240c9ac2e18a760010261026e565b603b6000868152602001908152602001600020549150610a067f0ea3092967f864d98a57f68060467397dcc8e36dffa08c8112d09734ca87780760010261026e565b610a327f7c36b0bd26f5b34abdc80b983f14a3b49aea03dfb469ac6617f36f321471601160010261026e565b603c60008681526020019081526020016000205490509193509193565b6060610a7d7f01f1db6c9eaeeed975bc08895d49484d16b7fafc9293c2abec87618c7b0847b660010261026e565b610aa97fb552db9bdb93afb63a00691fb07e94c940edec38a20f346152b9611a90c325e160010261026e565b610ad57f9ae4b6334e7aec4e0e41059fc0ac9236c05d76dc68dbd077b1c40d29966471b360010261026e565b610b017fe4e823fd9ceebedc9d0b8b348c80a7414b6f0e165a02fabd9cd5a8e36d48819960010261026e565b6000603b600084815260200190815260200160002054111515610bb2576040517f08c379a000000000000000000000000000000000000000000000000000000000815260040180806020018281038252602a8152602001807f476c7577615072697a65447261773a20746865206472617720686173206e6f7481526020017f206265656e206d6164650000000000000000000000000000000000000000000081525060400191505060405180910390fd5b610bde7fe252ba52da0f2b20c29f245fb298abc21c8250b67427122e5966ad8a5dbe66fc60010261026e565b610c0a7fa8ed851e73668854f81601270ea988891ee70db828dc8a984e387c9e57d6234060010261026e565b610c367f95ac37976cf8eea6b2e66f76c444faef359f36c0f00f6451f8ee99c798a037af60010261026e565b6000603a60008481526020019081526020016000209050610c797f851ad9bd447ea81c76294dcb4633912eacfdcca67053064cc12a711b1de8654c60010261026e565b610ca57fc9cb45d0bf10e6af1b5b19854bc22abb12a6ce6d2f3d6d17a3458b6e3007cfb160010261026e565b8080549050604051908082528060200260200182016040528015610cd85781602001602082028038833980820191505090505b509150610d077f64ae18e454d090e2f0263f7cbb36a4aa2890c5c054c6af5cc79042ee0d3cd4b160010261026e565b610d337f48fd48f1275171a2aaecc142b245052ba266fe62db5c3296f7d23ce69b3c4b7860010261026e565b6000610d617f2ccee3d41399f5665297836297dc0c1d8362ffe4dd10655e490f0f49cb4fb40d60010261026e565b610d8d7fe754df3550e5545428fc407a1853bad83cca4e56618ac32c7055a60c6127cf5c60010261026e565b6000600190505b828054905081101561123a57610dcc7f1bbbeb94f2a61126e73393d5f85f8485bc8d3b5853c466de733c3c6036d1e71360010261026e565b610df87ffc04913b10b04ac933a570b99d226578fe349719e87f25cde948923a84202b9760010261026e565b603660006039600088815260200190815260200160002060008685815481101515610e1f57fe5b9060005260206000200160009054906101000a900473ffffffffffffffffffffffffffffffffffffffff1673ffffffffffffffffffffffffffffffffffffffff1673ffffffffffffffffffffffffffffffffffffffff16815260200190815260200160002054815260200190815260200160002060010154603660006039600089815260200190815260200160002060008786815481101515610ebe57fe5b9060005260206000200160009054906101000a900473ffffffffffffffffffffffffffffffffffffffff1673ffffffffffffffffffffffffffffffffffffffff1673ffffffffffffffffffffffffffffffffffffffff16815260200190815260200160002054815260200190815260200160002060020154118015610ff45750603b600086815260200190815260200160002054603660006039600089815260200190815260200160002060008786815481101515610f7957fe5b9060005260206000200160009054906101000a900473ffffffffffffffffffffffffffffffffffffffff1673ffffffffffffffffffffffffffffffffffffffff1673ffffffffffffffffffffffffffffffffffffffff1681526020019081526020016000205481526020019081526020016000206002015410155b80156110b15750603b60008681526020019081526020016000205460366000603960008981526020019081526020016000206000878681548110151561103657fe5b9060005260206000200160009054906101000a900473ffffffffffffffffffffffffffffffffffffffff1673ffffffffffffffffffffffffffffffffffffffff1673ffffffffffffffffffffffffffffffffffffffff1681526020019081526020016000205481526020019081526020016000206001015411155b15611200576110e27ff97f446a33eadc03c55b69b1b4fa0a437c7a0c3130507ba6398bf6630cd70c5d60010261026e565b61110e7f632148f02c13fd87a4a30c099eb3e7a00d553aa4d23bcdd382b1a08ad0daa40660010261026e565b61113a7fde18cf5ff95ccd1fd548003d8652c920736f51b1ef72a3544b6c54e1967e87f060010261026e565b828181548110151561114857fe5b9060005260206000200160009054906101000a900473ffffffffffffffffffffffffffffffffffffffff16848367ffffffffffffffff1681518110151561118b57fe5b9060200190602002019073ffffffffffffffffffffffffffffffffffffffff16908173ffffffffffffffffffffffffffffffffffffffff16815250506111f37fd0a5d6fb8d3ba4582907d740423226a5ac609292ed08b7d22ddcd50ed81ba42760010261026e565b818060010192505061122d565b61122c7f737c0350da452b140ec187f625132fc2adc8b4e7ac5f772b090ed53242722a3060010261026e565b5b8080600101915050610d94565b506112677f3db1f9df08495ff9779dcadf3469052982dee809a63210fc0a11af1ba6ab17e460010261026e565b6112937f4cd22882db7ad884c875dd9d60e1b0768bbbf57983d0393f2325021caf21309360010261026e565b60008167ffffffffffffffff1683805490500390506112d47f0c3c84103e404c1b7f6705f0a11716125b0224172505cf4a2d0220b8380c498b60010261026e565b80845103845250505091905056fea165627a7a72305820c30f6ea3f6b1229e7cfb872d44d5c6c2b244d005d1c0ccef1af94fdeafe96afb0029",
  "linkReferences": {},
  "deployedLinkReferences": {}
}