{
  "_format": "hh-sol-artifact-1",
  "contractName": "GluwaPrizeDraw",
  "sourceName": "contracts/abstracts/GluwaPrizeDraw.sol",
  "abi": [
    {
      "constant": true,
      "inputs": [
        {
          "name": "c__0x42d91d40",
          "type": "bytes32"
        }
      ],
      "name": "c_0x42d91d40",
      "outputs": [],
      "payable": false,
      "stateMutability": "pure",
      "type": "function"
    },
    {
      "constant": true,
      "inputs": [
        {
          "name": "drawTimeStamp",
          "type": "uint256"
        }
      ],
      "name": "findMinMaxForDraw",
      "outputs": [
        {
          "name": "min",
          "type": "uint256"
        },
        {
          "name": "max",
          "type": "uint256"
        }
      ],
      "payable": false,
      "stateMutability": "view",
      "type": "function"
    },
    {
      "constant": true,
      "inputs": [],
      "name": "getAmountBroughtToNextDraw",
      "outputs": [
        {
          "name": "",
          "type": "uint256"
        }
      ],
      "payable": false,
      "stateMutability": "view",
      "type": "function"
    },
    {
      "constant": true,
      "inputs": [
        {
          "name": "drawTimeStamp",
          "type": "uint256"
        }
      ],
      "name": "getDrawDetails",
      "outputs": [
        {
          "name": "participants",
          "type": "address[]"
        },
        {
          "name": "ticketIds",
          "type": "uint96[]"
        },
        {
          "name": "winningTicket",
          "type": "uint256"
        },
        {
          "name": "balanceEachDraw",
          "type": "uint256"
        }
      ],
      "payable": false,
      "stateMutability": "view",
      "type": "function"
    },
    {
      "constant": true,
      "inputs": [
        {
          "name": "drawTimeStamp",
          "type": "uint256"
        }
      ],
      "name": "getDrawWinner",
      "outputs": [
        {
          "name": "result",
          "type": "address"
        }
      ],
      "payable": false,
      "stateMutability": "view",
      "type": "function"
    },
    {
      "anonymous": false,
      "inputs": [
        {
          "indexed": true,
          "name": "drawTimeStamp",
          "type": "uint256"
        },
        {
          "indexed": true,
          "name": "ticketId",
          "type": "uint256"
        },
        {
          "indexed": true,
          "name": "owner",
          "type": "address"
        },
        {
          "indexed": false,
          "name": "upper",
          "type": "uint256"
        },
        {
          "indexed": false,
          "name": "lower",
          "type": "uint256"
        }
      ],
      "name": "TicketCreated",
      "type": "event"
    }
  ],
  "bytecode": "0x6080604052610f41806100136000396000f3fe60806040526004361061006d576000357c0100000000000000000000000000000000000000000000000000000000900463ffffffff1680632eda6f87146100725780638067e002146100ad578063a957669414610103578063d5a962e41461012e578063ee37fb4c14610214575b600080fd5b34801561007e57600080fd5b506100ab6004803603602081101561009557600080fd5b810190808035906020019092919050505061028f565b005b3480156100b957600080fd5b506100e6600480360360208110156100d057600080fd5b8101908080359060200190929190505050610292565b604051808381526020018281526020019250505060405180910390f35b34801561010f57600080fd5b506101186104b2565b6040518082815260200191505060405180910390f35b34801561013a57600080fd5b506101676004803603602081101561015157600080fd5b8101908080359060200190929190505050610540565b604051808060200180602001858152602001848152602001838103835287818151815260200191508051906020019060200280838360005b838110156101ba57808201518184015260208101905061019f565b50505050905001838103825286818151815260200191508051906020019060200280838360005b838110156101fc5780820151818401526020810190506101e1565b50505050905001965050505050505060405180910390f35b34801561022057600080fd5b5061024d6004803603602081101561023757600080fd5b810190808035906020019092919050505061083e565b604051808273ffffffffffffffffffffffffffffffffffffffff1673ffffffffffffffffffffffffffffffffffffffff16815260200191505060405180910390f35b50565b6000806102c17f2b0227bd0ac303a265db3d5d5aed277f7958ad37889d78eb0fbc207f7ef072a360010261028f565b6102ed7f2459bffe89119e7f765dba0c69d9f56e9c5a84cf114d713c55cc1d6103944cad60010261028f565b6103197f6a1eba7c98dedf3c83fbdd13f534dfae6e1555b1abc3827f08a9dc7d0bcb4a6d60010261028f565b600060376000858152602001908152602001600020905061035c7fedbf2e8ec86acd3317cbe2e59954608482107869daad39317d29bb832ec566b560010261028f565b6103887f1e4c5363833c25365820aa63a423b8fe47c99d9a4612ad17829d7daf3df8876560010261028f565b603660008260018480549050038154811015156103a157fe5b9060005260206000209060029182820401919006600c029054906101000a90046bffffffffffffffffffffffff166bffffffffffffffffffffffff16815260200190815260200160002060020154915061041d7f648787b6c7dff445e5877e30c431ead9dd6aa76466c6f6011f5f0c4c2cdac2b860010261028f565b6104497fa2403f20be91a7804397e7ab7bc81e5fc9bc0618a4fcced4ff51fa86c96e979460010261028f565b6036600082600081548110151561045c57fe5b9060005260206000209060029182820401919006600c029054906101000a90046bffffffffffffffffffffffff166bffffffffffffffffffffffff16815260200190815260200160002060010154925050915091565b60006104e07f05d8020ed77dd35974d85bb5dd9b137908a0d9c891535590811ce5a1bbbf352760010261028f565b61050c7f084d64cd933c61699f199bec00ba95f01c2cc72a58c8a946d9bdbbcb90263c4060010261028f565b6105387f7b9e4e2a27fd6da51f60883e7d09f7cf7664306c2c8dbe94b0bbefa3975ff6eb60010261028f565b603554905090565b6060806000806105717e7ada6c75b75c88ab670ea9835039b78d0bc9aceda545dd93c6b6fb7c68a55660010261028f565b61059d7f051748605349ac2a39b449d75ef8bb2cecc1e3a5e450552dc6cd33208527e6f660010261028f565b6105c97f4dce12d33aa2e960503b93d9fc9657890c5f4c093cec9eb9b025f54b6c2dfab060010261028f565b603b600086815260200190815260200160002080548060200260200160405190810160405280929190818152602001828054801561065c57602002820191906000526020600020905b8160009054906101000a900473ffffffffffffffffffffffffffffffffffffffff1673ffffffffffffffffffffffffffffffffffffffff1681526020019060010190808311610612575b5050505050935061068f7fef6872b7cf5d5832d4404b57ead5c04c8db8431a90e4d9116f19c8bf3a05746460010261028f565b6106bb7f3bb4e67bac736895eaa7306b4ab726b9f1bc1022cd4634d239c351872fb4815760010261028f565b6037600086815260200190815260200160002080548060200260200160405190810160405280929190818152602001828054801561075457602002820191906000526020600020906000905b82829054906101000a90046bffffffffffffffffffffffff166bffffffffffffffffffffffff16815260200190600c0190602082600b010492830192600103820291508084116107075790505b505050505092506107877fb17422e971aa319c7d2165e56d3d9119609a26165a0a81fc2bed1ef19cbee9e960010261028f565b6107b37f7b73c3431c4ecc6d804b871693db956d30c583fd6afcaf6acef89e3bb75f6a1260010261028f565b603c60008681526020019081526020016000205491506107f57f4d016b50f801cbffa53cb3472a30dbf4311837400fbf71afaf9f17bc2bf6596060010261028f565b6108217f152ac04a8ef050c89b86c08b744390c877da56cd3eef2f221696cfae74f2419c60010261028f565b603d60008681526020019081526020016000205490509193509193565b600061086c7f2ccee3d41399f5665297836297dc0c1d8362ffe4dd10655e490f0f49cb4fb40d60010261028f565b6108987fe754df3550e5545428fc407a1853bad83cca4e56618ac32c7055a60c6127cf5c60010261028f565b6108c47f1bbbeb94f2a61126e73393d5f85f8485bc8d3b5853c466de733c3c6036d1e71360010261028f565b6108f07ffc04913b10b04ac933a570b99d226578fe349719e87f25cde948923a84202b9760010261028f565b6000603c6000848152602001908152602001600020541115156109a1576040517f08c379a000000000000000000000000000000000000000000000000000000000815260040180806020018281038252602a8152602001807f476c7577615072697a65447261773a20746865206472617720686173206e6f7481526020017f206265656e206d6164650000000000000000000000000000000000000000000081525060400191505060405180910390fd5b6109cd7ff97f446a33eadc03c55b69b1b4fa0a437c7a0c3130507ba6398bf6630cd70c5d60010261028f565b6109f97f632148f02c13fd87a4a30c099eb3e7a00d553aa4d23bcdd382b1a08ad0daa40660010261028f565b610a257fde18cf5ff95ccd1fd548003d8652c920736f51b1ef72a3544b6c54e1967e87f060010261028f565b60008090505b6037600084815260200190815260200160002080549050811015610e1957610a757fd0a5d6fb8d3ba4582907d740423226a5ac609292ed08b7d22ddcd50ed81ba42760010261028f565b610aa17f737c0350da452b140ec187f625132fc2adc8b4e7ac5f772b090ed53242722a3060010261028f565b603660006037600086815260200190815260200160002083815481101515610ac557fe5b9060005260206000209060029182820401919006600c029054906101000a90046bffffffffffffffffffffffff166bffffffffffffffffffffffff16815260200190815260200160002060010154603660006037600087815260200190815260200160002084815481101515610b3757fe5b9060005260206000209060029182820401919006600c029054906101000a90046bffffffffffffffffffffffff166bffffffffffffffffffffffff16815260200190815260200160002060020154118015610c165750603c600084815260200190815260200160002054603660006037600087815260200190815260200160002084815481101515610bc557fe5b9060005260206000209060029182820401919006600c029054906101000a90046bffffffffffffffffffffffff166bffffffffffffffffffffffff1681526020019081526020016000206002015410155b8015610ca65750603c600084815260200190815260200160002054603660006037600087815260200190815260200160002084815481101515610c5557fe5b9060005260206000209060029182820401919006600c029054906101000a90046bffffffffffffffffffffffff166bffffffffffffffffffffffff1681526020019081526020016000206001015411155b15610de057610cd77f3db1f9df08495ff9779dcadf3469052982dee809a63210fc0a11af1ba6ab17e460010261028f565b610d037f4cd22882db7ad884c875dd9d60e1b0768bbbf57983d0393f2325021caf21309360010261028f565b610d2f7f0c3c84103e404c1b7f6705f0a11716125b0224172505cf4a2d0220b8380c498b60010261028f565b610da9603660006037600087815260200190815260200160002084815481101515610d5657fe5b9060005260206000209060029182820401919006600c029054906101000a90046bffffffffffffffffffffffff166bffffffffffffffffffffffff16815260200190815260200160002060000154610e1f565b905080925050610ddb7fc1f7c2bc9d20c10a46c0a69b7cc3fca16df0bcc2b0c134a565dd212f0a51de1960010261028f565b610e19565b610e0c7f61598326d5dc820024203b0435f8334bea3a09162570c025950f889074dd314860010261028f565b8080600101915050610a2b565b50919050565b600080610e4e7f2a6b08f6b3d399cff480c7a89510f70c1886f224a158c7576c1240c9ac2e18a760010261028f565b610e7a7f0ea3092967f864d98a57f68060467397dcc8e36dffa08c8112d09734ca87780760010261028f565b610ea67f7c36b0bd26f5b34abdc80b983f14a3b49aea03dfb469ac6617f36f321471601160010261028f565b829050610ed57f57992dc55ae2bd2bc00a1edba37970d7078af38a12bfd8216fe95a828d3371e560010261028f565b610f017f73cdd953316863f7c9f49d53db46b3f0c6b3b6a056ca2661cef2136875064a9160010261028f565b60a083908060020a8204915050915091509156fea165627a7a72305820547cae646bb62fa46384eff7f321cfaad8701a9e97e8acbcb82c87d0865595930029",
  "linkReferences": {},
  "deployedLinkReferences": {}
}