{
  "_format": "hh-sol-artifact-1",
  "contractName": "GluwacoinSavingAccount",
  "sourceName": "contracts/abstracts/GluwacoinSavingAccount.sol",
  "abi": [
    {
      "constant": true,
      "inputs": [],
      "name": "getSavingSettings",
      "outputs": [
        {
          "name": "",
          "type": "uint32"
        },
        {
          "name": "",
          "type": "uint32"
        },
        {
          "name": "",
          "type": "uint256"
        },
        {
          "name": "",
          "type": "uint256"
        },
        {
          "name": "",
          "type": "address"
        }
      ],
      "payable": false,
      "stateMutability": "view",
      "type": "function"
    },
    {
      "constant": true,
      "inputs": [
        {
          "name": "depositHash",
          "type": "bytes32"
        }
      ],
      "name": "getDeposit",
      "outputs": [
        {
          "name": "",
          "type": "uint256"
        },
        {
          "name": "",
          "type": "uint256"
        },
        {
          "name": "",
          "type": "address"
        },
        {
          "name": "",
          "type": "uint256"
        },
        {
          "name": "",
          "type": "uint256"
        }
      ],
      "payable": false,
      "stateMutability": "view",
      "type": "function"
    },
    {
      "constant": true,
      "inputs": [],
      "name": "getSavingAcount",
      "outputs": [
        {
          "name": "",
          "type": "uint256"
        },
        {
          "name": "",
          "type": "bytes32"
        },
        {
          "name": "",
          "type": "address"
        },
        {
          "name": "",
          "type": "uint256"
        },
        {
          "name": "",
          "type": "uint256"
        },
        {
          "name": "",
          "type": "uint256"
        },
        {
          "name": "",
          "type": "uint8"
        },
        {
          "name": "",
          "type": "bytes"
        }
      ],
      "payable": false,
      "stateMutability": "view",
      "type": "function"
    },
    {
      "constant": true,
      "inputs": [
        {
          "name": "c__0x90feacde",
          "type": "bytes32"
        }
      ],
      "name": "c_0x90feacde",
      "outputs": [],
      "payable": false,
      "stateMutability": "pure",
      "type": "function"
    },
    {
      "anonymous": false,
      "inputs": [
        {
          "indexed": true,
          "name": "accountHash",
          "type": "bytes32"
        },
        {
          "indexed": true,
          "name": "owner",
          "type": "address"
        }
      ],
      "name": "AccountCreated",
      "type": "event"
    },
    {
      "anonymous": false,
      "inputs": [
        {
          "indexed": true,
          "name": "depositHash",
          "type": "bytes32"
        },
        {
          "indexed": true,
          "name": "owner",
          "type": "address"
        },
        {
          "indexed": false,
          "name": "deposit",
          "type": "uint256"
        }
      ],
      "name": "DepositCreated",
      "type": "event"
    },
    {
      "anonymous": false,
      "inputs": [
        {
          "indexed": true,
          "name": "owner",
          "type": "address"
        },
        {
          "indexed": true,
          "name": "recipient",
          "type": "address"
        },
        {
          "indexed": false,
          "name": "amount",
          "type": "uint256"
        }
      ],
      "name": "Withdrawn",
      "type": "event"
    }
  ],
  "bytecode": "0x608060405261081d806100136000396000f3fe608060405260043610610062576000357c0100000000000000000000000000000000000000000000000000000000900463ffffffff168063529298b8146100675780637a86983f146100f25780639964476f14610189578063cc26450214610284575b600080fd5b34801561007357600080fd5b5061007c6102bf565b604051808663ffffffff1663ffffffff1681526020018563ffffffff1663ffffffff1681526020018481526020018381526020018273ffffffffffffffffffffffffffffffffffffffff1673ffffffffffffffffffffffffffffffffffffffff1681526020019550505050505060405180910390f35b3480156100fe57600080fd5b5061012b6004803603602081101561011557600080fd5b81019080803590602001909291905050506103ab565b604051808681526020018581526020018473ffffffffffffffffffffffffffffffffffffffff1673ffffffffffffffffffffffffffffffffffffffff1681526020018381526020018281526020019550505050505060405180910390f35b34801561019557600080fd5b5061019e6104f3565b604051808981526020018881526020018773ffffffffffffffffffffffffffffffffffffffff1673ffffffffffffffffffffffffffffffffffffffff1681526020018681526020018581526020018481526020018360048111156101fe57fe5b60ff16815260200180602001828103825283818151815260200191508051906020019080838360005b83811015610242578082015181840152602081019050610227565b50505050905090810190601f16801561026f5780820380516001836020036101000a031916815260200191505b50995050505050505050505060405180910390f35b34801561029057600080fd5b506102bd600480360360208110156102a757600080fd5b81019080803590602001909291905050506105ae565b005b60008060008060006102f37fb8d6fe4d206a56650f24d72f070f71bdbd4efc05528abdcbdf6afc84c501f49f6001026105ae565b61031f7fb99a31350ae3897b0324900b09a8f7d7bb6fa19f90c71b319f378a95557fb7a56001026105ae565b61034b7f4ca501c0cb561651c33ae36670e607a28c9eb1fb76b011947bd0e9074831149b6001026105ae565b603f60009054906101000a900463ffffffff16603f60049054906101000a900463ffffffff16603354603454604160009054906101000a900473ffffffffffffffffffffffffffffffffffffffff16945094509450945094509091929394565b60008060008060006103df7f9a41d87efab0cc27782b615da93830a718cef13deaef96d471626a31bc8fd1c56001026105ae565b61040b7f83728831cbe135a745eed85073fc558befbea13a19d4b9770fbee58287534bdd6001026105ae565b6104377fc3e2b999117295b9bea137cbb921b04192f0066fbf1fd2c9d79ed9b0727eb5776001026105ae565b600060436000888152602001908152602001600020905061047a7f4e2b16b1b0644f6bc3a47b05ab1e8597b115c2a72699bdc20fad556b9cccc4fe6001026105ae565b6104a67fb166f02045665ffa2ad499d796c42e71b1b8174bac0c60c1db73500d1a05cce16001026105ae565b806000015481600101548260020160009054906101000a900473ffffffffffffffffffffffffffffffffffffffff1683600301548460040154955095509550955095505091939590929450565b6000806000806000806000606061052c7f041147629463f6e0c13e8ca4166a2b5a8b446ac5719c470051757b4feb502f1f6001026105ae565b6105587f3fd7aa65e03ed2344eb3fa764176d1b28a4ca40d8010176ce7b36e7532250c6e6001026105ae565b6105847f17b6405cea1f8b1c87f130fefc195e5fa52bc3b4580a0f3bba8cc7fda02750146001026105ae565b61059461058f6105b1565b6105b9565b975097509750975097509750975097509091929394959697565b50565b600033905090565b600080600080600080600060606105f27fd9aa07dc2fdf21ff6d9dc6035d294b67f7ea05f7a7dd392f0abfa9f67bb0707e6001026105ae565b61061e7fe6d8e582b5ccead73f67eb90099d5f256656f549eea1c09bc3c6a7e73e07cc746001026105ae565b61064a7f75916e65316b56c0aa0ba683d2eeb9ff63a9874c7c81211acbef5d5a044724666001026105ae565b6000604260008b73ffffffffffffffffffffffffffffffffffffffff1673ffffffffffffffffffffffffffffffffffffffff16815260200190815260200160002090506106b97ff4b56094aaf5ac2cb270e6c04b80589fb528196f00ddb9d25f4bea209e89cd1d6001026105ae565b6106e57fe2064ecda43658bce43fbf2e4a4650e0b2419dd87d1c429c69e406fa1d96cb226001026105ae565b806000015481600101548260020160009054906101000a900473ffffffffffffffffffffffffffffffffffffffff168360030154846004015485600501548660060160009054906101000a900460ff1687600701808054600181600116156101000203166002900480601f0160208091040260200160405190810160405280929190818152602001828054600181600116156101000203166002900480156107ce5780601f106107a3576101008083540402835291602001916107ce565b820191906000526020600020905b8154815290600101906020018083116107b157829003601f168201915b50505050509050985098509850985098509850985098505091939597509193959756fea165627a7a723058204fd1ca0c79a6adc712733f064f0abc22979a5df243bf72feba30234192d7fae10029",
  "linkReferences": {},
  "deployedLinkReferences": {}
}