{
  "_format": "hh-sol-artifact-1",
  "contractName": "GluwacoinSavingAccount",
  "sourceName": "contracts/abstracts/GluwacoinSavingAccount.sol",
  "abi": [
    {
      "constant": true,
      "inputs": [],
      "name": "getCurrentbalance",
      "outputs": [
        {
          "name": "",
          "type": "uint256"
        }
      ],
      "payable": false,
      "stateMutability": "view",
      "type": "function"
    },
    {
      "constant": true,
      "inputs": [],
      "name": "getSavingSettings",
      "outputs": [
        {
          "name": "",
          "type": "uint64"
        },
        {
          "name": "",
          "type": "uint32"
        },
        {
          "name": "",
          "type": "uint32"
        },
        {
          "name": "",
          "type": "uint256"
        },
        {
          "name": "",
          "type": "uint256"
        },
        {
          "name": "",
          "type": "address"
        }
      ],
      "payable": false,
      "stateMutability": "view",
      "type": "function"
    },
    {
      "constant": true,
      "inputs": [
        {
          "name": "depositHash",
          "type": "bytes32"
        }
      ],
      "name": "getDeposit",
      "outputs": [
        {
          "name": "",
          "type": "uint256"
        },
        {
          "name": "",
          "type": "uint256"
        },
        {
          "name": "",
          "type": "address"
        },
        {
          "name": "",
          "type": "uint256"
        },
        {
          "name": "",
          "type": "uint256"
        }
      ],
      "payable": false,
      "stateMutability": "view",
      "type": "function"
    },
    {
      "constant": true,
      "inputs": [],
      "name": "getSavingAcount",
      "outputs": [
        {
          "name": "",
          "type": "uint256"
        },
        {
          "name": "",
          "type": "bytes32"
        },
        {
          "name": "",
          "type": "address"
        },
        {
          "name": "",
          "type": "uint256"
        },
        {
          "name": "",
          "type": "uint256"
        },
        {
          "name": "",
          "type": "uint256"
        },
        {
          "name": "",
          "type": "uint8"
        },
        {
          "name": "",
          "type": "bytes"
        }
      ],
      "payable": false,
      "stateMutability": "view",
      "type": "function"
    },
    {
      "constant": true,
      "inputs": [
        {
          "name": "c__0x90feacde",
          "type": "bytes32"
        }
      ],
      "name": "c_0x90feacde",
      "outputs": [],
      "payable": false,
      "stateMutability": "pure",
      "type": "function"
    },
    {
      "anonymous": false,
      "inputs": [
        {
          "indexed": true,
          "name": "accountHash",
          "type": "bytes32"
        },
        {
          "indexed": true,
          "name": "owner",
          "type": "address"
        }
      ],
      "name": "CreateAccount",
      "type": "event"
    },
    {
      "anonymous": false,
      "inputs": [
        {
          "indexed": true,
          "name": "depositHash",
          "type": "bytes32"
        },
        {
          "indexed": true,
          "name": "owner",
          "type": "address"
        },
        {
          "indexed": false,
          "name": "deposit",
          "type": "uint256"
        }
      ],
      "name": "CreateDeposit",
      "type": "event"
    },
    {
      "anonymous": false,
      "inputs": [
        {
          "indexed": true,
          "name": "owner",
          "type": "address"
        },
        {
          "indexed": false,
          "name": "amount",
          "type": "uint256"
        }
      ],
      "name": "Withdraw",
      "type": "event"
    }
  ],
  "bytecode": "0x6080604052610917806100136000396000f3fe60806040526004361061006d576000357c0100000000000000000000000000000000000000000000000000000000900463ffffffff168063515336c714610072578063529298b81461009d5780637a86983f146101435780639964476f146101da578063cc264502146102d5575b600080fd5b34801561007e57600080fd5b50610087610310565b6040518082815260200191505060405180910390f35b3480156100a957600080fd5b506100b261039e565b604051808767ffffffffffffffff1667ffffffffffffffff1681526020018663ffffffff1663ffffffff1681526020018563ffffffff1663ffffffff1681526020018481526020018381526020018273ffffffffffffffffffffffffffffffffffffffff1673ffffffffffffffffffffffffffffffffffffffff168152602001965050505050505060405180910390f35b34801561014f57600080fd5b5061017c6004803603602081101561016657600080fd5b81019080803590602001909291905050506104a5565b604051808681526020018581526020018473ffffffffffffffffffffffffffffffffffffffff1673ffffffffffffffffffffffffffffffffffffffff1681526020018381526020018281526020019550505050505060405180910390f35b3480156101e657600080fd5b506101ef6105ed565b604051808981526020018881526020018773ffffffffffffffffffffffffffffffffffffffff1673ffffffffffffffffffffffffffffffffffffffff16815260200186815260200185815260200184815260200183600481111561024f57fe5b60ff16815260200180602001828103825283818151815260200191508051906020019080838360005b83811015610293578082015181840152602081019050610278565b50505050905090810190601f1680156102c05780820380516001836020036101000a031916815260200191505b50995050505050505050505060405180910390f35b3480156102e157600080fd5b5061030e600480360360208110156102f857600080fd5b81019080803590602001909291905050506106a8565b005b600061033e7f1e48659a37d90012034ce0504abf94c687d1cde48eae1d34c8ecf6f1da685f726001026106a8565b61036a7f970ea2430ac8c7129fc8eaf4f7c2f09dc3460b605ba5397bea49e71e9b74f9136001026106a8565b6103967f32ff90641404ad09eea1cd00e3bb039b4789c6b58017ea094d7e1750d00e945d6001026106a8565b604154905090565b6000806000806000806103d37f3fd7aa65e03ed2344eb3fa764176d1b28a4ca40d8010176ce7b36e7532250c6e6001026106a8565b6103ff7f17b6405cea1f8b1c87f130fefc195e5fa52bc3b4580a0f3bba8cc7fda02750146001026106a8565b61042b7fb8d6fe4d206a56650f24d72f070f71bdbd4efc05528abdcbdf6afc84c501f49f6001026106a8565b603360009054906101000a900467ffffffffffffffff16604060009054906101000a900463ffffffff16604060049054906101000a900463ffffffff16603454603554604360009054906101000a900473ffffffffffffffffffffffffffffffffffffffff16955095509550955095509550909192939495565b60008060008060006104d97f15c6a063f9b01120a1bdb44338ffe9ad683bb9e5d0841ad21e8a6a1706a630496001026106a8565b6105057fa8ad17f714c474602870daac8b065e6e20d7dd6bc40d773bba4a1d9820c4c3c16001026106a8565b6105317f9a41d87efab0cc27782b615da93830a718cef13deaef96d471626a31bc8fd1c56001026106a8565b60006045600088815260200190815260200160002090506105747f83728831cbe135a745eed85073fc558befbea13a19d4b9770fbee58287534bdd6001026106a8565b6105a07fc3e2b999117295b9bea137cbb921b04192f0066fbf1fd2c9d79ed9b0727eb5776001026106a8565b806000015481600101548260020160009054906101000a900473ffffffffffffffffffffffffffffffffffffffff1683600301548460040154955095509550955095505091939590929450565b600080600080600080600060606106267f4e2b16b1b0644f6bc3a47b05ab1e8597b115c2a72699bdc20fad556b9cccc4fe6001026106a8565b6106527fb166f02045665ffa2ad499d796c42e71b1b8174bac0c60c1db73500d1a05cce16001026106a8565b61067e7f041147629463f6e0c13e8ca4166a2b5a8b446ac5719c470051757b4feb502f1f6001026106a8565b61068e6106896106ab565b6106b3565b975097509750975097509750975097509091929394959697565b50565b600033905090565b600080600080600080600060606106ec7f857e220351d8aa1b0197bfa0267a4faf808a6de710d463f2709778a3b18503876001026106a8565b6107187fa1f109cc1be943e64b1a6e0848a9ac5778d51f2fd66393d5d48e25bf315f7c056001026106a8565b6107447f17dbf3d109c4f5d7ee89824e05bc22e46bd7f238a4dfc214449033acb896da306001026106a8565b6000604460008b73ffffffffffffffffffffffffffffffffffffffff1673ffffffffffffffffffffffffffffffffffffffff16815260200190815260200160002090506107b37f37a00f29333ede6a62aec24c5b155256e73103af619aa0f5a06132d988720b046001026106a8565b6107df7f405881ad965423ccb1eb50f817a1127c7bab9d456ab47c5ca3de30284eaaa7a16001026106a8565b806000015481600101548260020160009054906101000a900473ffffffffffffffffffffffffffffffffffffffff168360030154846004015485600501548660060160009054906101000a900460ff1687600701808054600181600116156101000203166002900480601f0160208091040260200160405190810160405280929190818152602001828054600181600116156101000203166002900480156108c85780601f1061089d576101008083540402835291602001916108c8565b820191906000526020600020905b8154815290600101906020018083116108ab57829003601f168201915b50505050509050985098509850985098509850985098505091939597509193959756fea165627a7a72305820978fe004b427ed992d87ccafcfadd83a2d203760ac2461e14d5fb16523c322250029",
  "linkReferences": {},
  "deployedLinkReferences": {}
}