{
  "_format": "hh-sol-artifact-1",
  "contractName": "DrawTicketModel",
  "sourceName": "contracts/libs/DrawTicketModel.sol",
  "abi": [
    {
      "constant": true,
      "inputs": [
        {
          "name": "c__0xd55b8e58",
          "type": "bytes32"
        }
      ],
      "name": "c_0xd55b8e58",
      "outputs": [],
      "payable": false,
      "stateMutability": "pure",
      "type": "function"
    }
  ],
  "bytecode": "0x60b561002f600b82828239805160001a6073146000811461001f57610021565bfe5b5030600052607381538281f3fe73000000000000000000000000000000000000000030146080604052600436106056576000357c0100000000000000000000000000000000000000000000000000000000900463ffffffff168063890af7ed14605b575b600080fd5b608460048036036020811015606f57600080fd5b81019080803590602001909291905050506086565b005b5056fea165627a7a7230582048e74c4093ed7b67b8c235ac735784b604ffafb07afb3632711134e20ee6a5230029",
  "linkReferences": {},
  "deployedLinkReferences": {}
}