{
  "_format": "hh-sol-artifact-1",
  "contractName": "HashMapIndex",
  "sourceName": "contracts/libs/HashMapIndex.sol",
  "abi": [
    {
      "constant": true,
      "inputs": [
        {
          "name": "c__0xdcedc0bf",
          "type": "bytes32"
        }
      ],
      "name": "c_0xdcedc0bf",
      "outputs": [],
      "payable": false,
      "stateMutability": "pure",
      "type": "function"
    }
  ],
  "bytecode": "0x60b561002f600b82828239805160001a6073146000811461001f57610021565bfe5b5030600052607381538281f3fe73000000000000000000000000000000000000000030146080604052600436106056576000357c0100000000000000000000000000000000000000000000000000000000900463ffffffff1680635e95665414605b575b600080fd5b608460048036036020811015606f57600080fd5b81019080803590602001909291905050506086565b005b5056fea165627a7a723058202356707c8606d45e17041ba4c3160ca1b8eae7e71a0e8eafd555d9beebc754390029",
  "linkReferences": {},
  "deployedLinkReferences": {}
}