{
  "_format": "hh-sol-artifact-1",
  "contractName": "SandboxPrizeLinkedAccountVault",
  "sourceName": "contracts/mocks/SandboxPrizeLinkedAccountVault.sol",
  "abi": [
    {
      "constant": false,
      "inputs": [
        {
          "name": "owner",
          "type": "address"
        },
        {
          "name": "amount",
          "type": "uint256"
        }
      ],
      "name": "depositPrizedLinkAccount",
      "outputs": [
        {
          "name": "",
          "type": "bool"
        }
      ],
      "payable": false,
      "stateMutability": "nonpayable",
      "type": "function"
    },
    {
      "constant": true,
      "inputs": [
        {
          "name": "role",
          "type": "bytes32"
        }
      ],
      "name": "getRoleAdmin",
      "outputs": [
        {
          "name": "",
          "type": "bytes32"
        }
      ],
      "payable": false,
      "stateMutability": "view",
      "type": "function"
    },
    {
      "constant": true,
      "inputs": [
        {
          "name": "account",
          "type": "address"
        }
      ],
      "name": "isAdmin",
      "outputs": [
        {
          "name": "",
          "type": "bool"
        }
      ],
      "payable": false,
      "stateMutability": "view",
      "type": "function"
    },
    {
      "constant": false,
      "inputs": [],
      "name": "renounceOperator",
      "outputs": [],
      "payable": false,
      "stateMutability": "nonpayable",
      "type": "function"
    },
    {
      "constant": false,
      "inputs": [
        {
          "name": "amount",
          "type": "uint256"
        }
      ],
      "name": "withdraw",
      "outputs": [
        {
          "name": "",
          "type": "bool"
        }
      ],
      "payable": false,
      "stateMutability": "nonpayable",
      "type": "function"
    },
    {
      "constant": true,
      "inputs": [
        {
          "name": "c__0x42d91d40",
          "type": "bytes32"
        }
      ],
      "name": "c_0x42d91d40",
      "outputs": [],
      "payable": false,
      "stateMutability": "pure",
      "type": "function"
    },
    {
      "constant": false,
      "inputs": [
        {
          "name": "role",
          "type": "bytes32"
        },
        {
          "name": "account",
          "type": "address"
        }
      ],
      "name": "grantRole",
      "outputs": [],
      "payable": false,
      "stateMutability": "nonpayable",
      "type": "function"
    },
    {
      "constant": false,
      "inputs": [
        {
          "name": "role",
          "type": "bytes32"
        },
        {
          "name": "account",
          "type": "address"
        }
      ],
      "name": "renounceRole",
      "outputs": [],
      "payable": false,
      "stateMutability": "nonpayable",
      "type": "function"
    },
    {
      "constant": true,
      "inputs": [
        {
          "name": "drawTimeStamp",
          "type": "uint256"
        }
      ],
      "name": "getEligibleAddressPendingAddedToDraw",
      "outputs": [
        {
          "name": "result",
          "type": "address[]"
        }
      ],
      "payable": false,
      "stateMutability": "view",
      "type": "function"
    },
    {
      "constant": true,
      "inputs": [],
      "name": "getCurrentbalance",
      "outputs": [
        {
          "name": "",
          "type": "uint256"
        }
      ],
      "payable": false,
      "stateMutability": "view",
      "type": "function"
    },
    {
      "constant": true,
      "inputs": [],
      "name": "getSavingSettings",
      "outputs": [
        {
          "name": "",
          "type": "uint64"
        },
        {
          "name": "",
          "type": "uint32"
        },
        {
          "name": "",
          "type": "uint32"
        },
        {
          "name": "",
          "type": "uint256"
        },
        {
          "name": "",
          "type": "uint256"
        },
        {
          "name": "",
          "type": "address"
        }
      ],
      "payable": false,
      "stateMutability": "view",
      "type": "function"
    },
    {
      "constant": true,
      "inputs": [
        {
          "name": "c__0x48731749",
          "type": "bytes32"
        }
      ],
      "name": "c_0x48731749",
      "outputs": [],
      "payable": false,
      "stateMutability": "pure",
      "type": "function"
    },
    {
      "constant": true,
      "inputs": [
        {
          "name": "account",
          "type": "address"
        }
      ],
      "name": "isOperator",
      "outputs": [
        {
          "name": "",
          "type": "bool"
        }
      ],
      "payable": false,
      "stateMutability": "view",
      "type": "function"
    },
    {
      "constant": false,
      "inputs": [
        {
          "name": "account",
          "type": "address"
        }
      ],
      "name": "addAdmin",
      "outputs": [],
      "payable": false,
      "stateMutability": "nonpayable",
      "type": "function"
    },
    {
      "constant": true,
      "inputs": [
        {
          "name": "depositHash",
          "type": "bytes32"
        }
      ],
      "name": "getDeposit",
      "outputs": [
        {
          "name": "",
          "type": "uint256"
        },
        {
          "name": "",
          "type": "uint256"
        },
        {
          "name": "",
          "type": "address"
        },
        {
          "name": "",
          "type": "uint256"
        },
        {
          "name": "",
          "type": "uint256"
        }
      ],
      "payable": false,
      "stateMutability": "view",
      "type": "function"
    },
    {
      "constant": true,
      "inputs": [
        {
          "name": "c__0xd27cb329",
          "type": "bytes32"
        }
      ],
      "name": "c_0xd27cb329",
      "outputs": [],
      "payable": false,
      "stateMutability": "pure",
      "type": "function"
    },
    {
      "constant": true,
      "inputs": [
        {
          "name": "drawTimeStamp",
          "type": "uint256"
        }
      ],
      "name": "findMinMaxForDraw",
      "outputs": [
        {
          "name": "min",
          "type": "uint256"
        },
        {
          "name": "max",
          "type": "uint256"
        }
      ],
      "payable": false,
      "stateMutability": "view",
      "type": "function"
    },
    {
      "constant": true,
      "inputs": [
        {
          "name": "owner",
          "type": "address"
        }
      ],
      "name": "getSavingAcountFor",
      "outputs": [
        {
          "name": "",
          "type": "uint256"
        },
        {
          "name": "",
          "type": "bytes32"
        },
        {
          "name": "",
          "type": "address"
        },
        {
          "name": "",
          "type": "uint256"
        },
        {
          "name": "",
          "type": "uint256"
        },
        {
          "name": "",
          "type": "uint256"
        },
        {
          "name": "",
          "type": "uint8"
        },
        {
          "name": "",
          "type": "bytes"
        }
      ],
      "payable": false,
      "stateMutability": "view",
      "type": "function"
    },
    {
      "constant": true,
      "inputs": [
        {
          "name": "c__0xfd3e751c",
          "type": "bytes32"
        }
      ],
      "name": "c_0xfd3e751c",
      "outputs": [],
      "payable": false,
      "stateMutability": "pure",
      "type": "function"
    },
    {
      "constant": false,
      "inputs": [],
      "name": "renounceAdmin",
      "outputs": [],
      "payable": false,
      "stateMutability": "nonpayable",
      "type": "function"
    },
    {
      "constant": false,
      "inputs": [
        {
          "name": "drawTimeStamp",
          "type": "uint256"
        }
      ],
      "name": "awardWinnerV1",
      "outputs": [
        {
          "name": "",
          "type": "bool"
        }
      ],
      "payable": false,
      "stateMutability": "nonpayable",
      "type": "function"
    },
    {
      "constant": true,
      "inputs": [
        {
          "name": "role",
          "type": "bytes32"
        },
        {
          "name": "index",
          "type": "uint256"
        }
      ],
      "name": "getRoleMember",
      "outputs": [
        {
          "name": "",
          "type": "address"
        }
      ],
      "payable": false,
      "stateMutability": "view",
      "type": "function"
    },
    {
      "constant": true,
      "inputs": [
        {
          "name": "role",
          "type": "bytes32"
        },
        {
          "name": "account",
          "type": "address"
        }
      ],
      "name": "hasRole",
      "outputs": [
        {
          "name": "",
          "type": "bool"
        }
      ],
      "payable": false,
      "stateMutability": "view",
      "type": "function"
    },
    {
      "constant": false,
      "inputs": [
        {
          "name": "account",
          "type": "address"
        }
      ],
      "name": "addOperator",
      "outputs": [],
      "payable": false,
      "stateMutability": "nonpayable",
      "type": "function"
    },
    {
      "constant": true,
      "inputs": [],
      "name": "getSavingAcount",
      "outputs": [
        {
          "name": "",
          "type": "uint256"
        },
        {
          "name": "",
          "type": "bytes32"
        },
        {
          "name": "",
          "type": "address"
        },
        {
          "name": "",
          "type": "uint256"
        },
        {
          "name": "",
          "type": "uint256"
        },
        {
          "name": "",
          "type": "uint256"
        },
        {
          "name": "",
          "type": "uint8"
        },
        {
          "name": "",
          "type": "bytes"
        }
      ],
      "payable": false,
      "stateMutability": "view",
      "type": "function"
    },
    {
      "constant": true,
      "inputs": [],
      "name": "DEFAULT_ADMIN_ROLE",
      "outputs": [
        {
          "name": "",
          "type": "bytes32"
        }
      ],
      "payable": false,
      "stateMutability": "view",
      "type": "function"
    },
    {
      "constant": false,
      "inputs": [
        {
          "name": "account",
          "type": "address"
        }
      ],
      "name": "removeOperator",
      "outputs": [],
      "payable": false,
      "stateMutability": "nonpayable",
      "type": "function"
    },
    {
      "constant": false,
      "inputs": [
        {
          "name": "drawTimeStamp",
          "type": "uint256"
        }
      ],
      "name": "regenerateTicketForNextDraw",
      "outputs": [
        {
          "name": "",
          "type": "uint256"
        }
      ],
      "payable": false,
      "stateMutability": "nonpayable",
      "type": "function"
    },
    {
      "constant": false,
      "inputs": [
        {
          "name": "recipient",
          "type": "address"
        },
        {
          "name": "amount",
          "type": "uint256"
        }
      ],
      "name": "invest",
      "outputs": [
        {
          "name": "",
          "type": "bool"
        }
      ],
      "payable": false,
      "stateMutability": "nonpayable",
      "type": "function"
    },
    {
      "constant": true,
      "inputs": [
        {
          "name": "owner",
          "type": "address"
        }
      ],
      "name": "test",
      "outputs": [
        {
          "name": "",
          "type": "uint256"
        },
        {
          "name": "",
          "type": "uint256"
        }
      ],
      "payable": false,
      "stateMutability": "pure",
      "type": "function"
    },
    {
      "constant": true,
      "inputs": [
        {
          "name": "role",
          "type": "bytes32"
        }
      ],
      "name": "getRoleMemberCount",
      "outputs": [
        {
          "name": "",
          "type": "uint256"
        }
      ],
      "payable": false,
      "stateMutability": "view",
      "type": "function"
    },
    {
      "constant": true,
      "inputs": [
        {
          "name": "c__0x90feacde",
          "type": "bytes32"
        }
      ],
      "name": "c_0x90feacde",
      "outputs": [],
      "payable": false,
      "stateMutability": "pure",
      "type": "function"
    },
    {
      "constant": false,
      "inputs": [
        {
          "name": "owner",
          "type": "address"
        },
        {
          "name": "amount",
          "type": "uint256"
        },
        {
          "name": "securityHash",
          "type": "bytes"
        }
      ],
      "name": "createPrizedLinkAccount",
      "outputs": [
        {
          "name": "",
          "type": "bool"
        }
      ],
      "payable": false,
      "stateMutability": "nonpayable",
      "type": "function"
    },
    {
      "constant": false,
      "inputs": [
        {
          "name": "role",
          "type": "bytes32"
        },
        {
          "name": "account",
          "type": "address"
        }
      ],
      "name": "revokeRole",
      "outputs": [],
      "payable": false,
      "stateMutability": "nonpayable",
      "type": "function"
    },
    {
      "constant": true,
      "inputs": [
        {
          "name": "drawTimeStamp",
          "type": "uint256"
        }
      ],
      "name": "getDrawDetails",
      "outputs": [
        {
          "name": "participants",
          "type": "address[]"
        },
        {
          "name": "ticketIds",
          "type": "uint96[]"
        },
        {
          "name": "winningTicket",
          "type": "uint256"
        },
        {
          "name": "balanceEachDraw",
          "type": "uint256"
        }
      ],
      "payable": false,
      "stateMutability": "view",
      "type": "function"
    },
    {
      "constant": true,
      "inputs": [
        {
          "name": "idx",
          "type": "uint256"
        }
      ],
      "name": "getTicketRangeById",
      "outputs": [
        {
          "name": "",
          "type": "uint96"
        },
        {
          "name": "",
          "type": "address"
        },
        {
          "name": "",
          "type": "uint256"
        },
        {
          "name": "",
          "type": "uint256"
        }
      ],
      "payable": false,
      "stateMutability": "view",
      "type": "function"
    },
    {
      "constant": false,
      "inputs": [
        {
          "name": "owner",
          "type": "address"
        },
        {
          "name": "amount",
          "type": "uint256"
        }
      ],
      "name": "withdrawFor",
      "outputs": [
        {
          "name": "",
          "type": "bool"
        }
      ],
      "payable": false,
      "stateMutability": "nonpayable",
      "type": "function"
    },
    {
      "constant": false,
      "inputs": [
        {
          "name": "admin",
          "type": "address"
        },
        {
          "name": "tokenAddress",
          "type": "address"
        },
        {
          "name": "standardInterestRate",
          "type": "uint32"
        },
        {
          "name": "standardInterestRatePercentageBase",
          "type": "uint32"
        },
        {
          "name": "standardMaturityTerm",
          "type": "uint64"
        },
        {
          "name": "budget",
          "type": "uint256"
        },
        {
          "name": "tokenPerTicket",
          "type": "uint16"
        },
        {
          "name": "cutOffHour",
          "type": "uint8"
        },
        {
          "name": "cutOffMinute",
          "type": "uint8"
        },
        {
          "name": "processingCap",
          "type": "uint32"
        },
        {
          "name": "ticketRangeFactor",
          "type": "uint128"
        }
      ],
      "name": "initialize",
      "outputs": [],
      "payable": false,
      "stateMutability": "nonpayable",
      "type": "function"
    },
    {
      "constant": true,
      "inputs": [
        {
          "name": "c__0x3cfa3e8e",
          "type": "bytes32"
        }
      ],
      "name": "c_0x3cfa3e8e",
      "outputs": [],
      "payable": false,
      "stateMutability": "pure",
      "type": "function"
    },
    {
      "constant": true,
      "inputs": [
        {
          "name": "drawTimeStamp",
          "type": "uint256"
        }
      ],
      "name": "getDrawWinner",
      "outputs": [
        {
          "name": "result",
          "type": "address"
        }
      ],
      "payable": false,
      "stateMutability": "view",
      "type": "function"
    },
    {
      "constant": false,
      "inputs": [
        {
          "name": "drawTimeStamp",
          "type": "uint256"
        },
        {
          "name": "seed",
          "type": "uint256"
        }
      ],
      "name": "makeDrawV1",
      "outputs": [
        {
          "name": "",
          "type": "uint256"
        }
      ],
      "payable": false,
      "stateMutability": "nonpayable",
      "type": "function"
    },
    {
      "constant": true,
      "inputs": [],
      "name": "OPERATOR_ROLE",
      "outputs": [
        {
          "name": "",
          "type": "bytes32"
        }
      ],
      "payable": false,
      "stateMutability": "view",
      "type": "function"
    },
    {
      "anonymous": false,
      "inputs": [
        {
          "indexed": false,
          "name": "winner",
          "type": "address"
        },
        {
          "indexed": false,
          "name": "reward",
          "type": "uint256"
        }
      ],
      "name": "WinnerSelected",
      "type": "event"
    },
    {
      "anonymous": false,
      "inputs": [
        {
          "indexed": true,
          "name": "recipient",
          "type": "address"
        },
        {
          "indexed": false,
          "name": "amount",
          "type": "uint256"
        }
      ],
      "name": "Invested",
      "type": "event"
    },
    {
      "anonymous": false,
      "inputs": [
        {
          "indexed": true,
          "name": "drawTimeStamp",
          "type": "uint256"
        },
        {
          "indexed": true,
          "name": "ticketId",
          "type": "uint256"
        },
        {
          "indexed": true,
          "name": "owner",
          "type": "address"
        },
        {
          "indexed": false,
          "name": "upper",
          "type": "uint256"
        },
        {
          "indexed": false,
          "name": "lower",
          "type": "uint256"
        }
      ],
      "name": "TicketCreated",
      "type": "event"
    },
    {
      "anonymous": false,
      "inputs": [
        {
          "indexed": true,
          "name": "accountHash",
          "type": "bytes32"
        },
        {
          "indexed": true,
          "name": "owner",
          "type": "address"
        }
      ],
      "name": "AccountCreated",
      "type": "event"
    },
    {
      "anonymous": false,
      "inputs": [
        {
          "indexed": true,
          "name": "depositHash",
          "type": "bytes32"
        },
        {
          "indexed": true,
          "name": "owner",
          "type": "address"
        },
        {
          "indexed": false,
          "name": "deposit",
          "type": "uint256"
        }
      ],
      "name": "DepositCreated",
      "type": "event"
    },
    {
      "anonymous": false,
      "inputs": [
        {
          "indexed": true,
          "name": "owner",
          "type": "address"
        },
        {
          "indexed": false,
          "name": "amount",
          "type": "uint256"
        }
      ],
      "name": "Withdrawn",
      "type": "event"
    },
    {
      "anonymous": false,
      "inputs": [
        {
          "indexed": true,
          "name": "role",
          "type": "bytes32"
        },
        {
          "indexed": true,
          "name": "account",
          "type": "address"
        },
        {
          "indexed": true,
          "name": "sender",
          "type": "address"
        }
      ],
      "name": "RoleGranted",
      "type": "event"
    },
    {
      "anonymous": false,
      "inputs": [
        {
          "indexed": true,
          "name": "role",
          "type": "bytes32"
        },
        {
          "indexed": true,
          "name": "account",
          "type": "address"
        },
        {
          "indexed": true,
          "name": "sender",
          "type": "address"
        }
      ],
      "name": "RoleRevoked",
      "type": "event"
    }
  ],
  "bytecode": "0x608060405261f92480620000146000396000f3fe608060405260043610610204576000357c0100000000000000000000000000000000000000000000000000000000900463ffffffff168063033d086d14610209578063248a9ca31461027c57806324d7806c146102cb5780632ab6f8db146103345780632e1a7d4d1461034b5780632eda6f871461039e5780632f2ff15d146103d957806336568abe146104345780634218774b1461048f578063515336c71461051f578063529298b81461054a578063669ec8b7146105f05780636d70f7ae1461062b57806370480275146106945780637a86983f146106e55780637f538d541461077c5780638067e002146107b757806382133e381461080d57806386f8474c146109425780638bad0c0a1461097d5780638be30657146109945780639010d07c146109e757806391d1485414610a6c5780639870d7fe14610adf5780639964476f14610b30578063a217fddf14610c2b578063ac8a584a14610c56578063b58d3ff314610ca7578063b9b8c24614610cf6578063bb29998e14610d69578063ca15c87314610dd5578063cc26450214610e24578063cf123e3014610e5f578063d547741f14610f27578063d5a962e414610f82578063d93e81a714611068578063db518db214611114578063e8b95f7514611187578063ed5c04911461128b578063ee37fb4c146112c6578063ee5bf65f14611341578063f5b541a61461139a575b600080fd5b34801561021557600080fd5b506102626004803603604081101561022c57600080fd5b81019080803573ffffffffffffffffffffffffffffffffffffffff169060200190929190803590602001909291905050506113c5565b604051808215151515815260200191505060405180910390f35b34801561028857600080fd5b506102b56004803603602081101561029f57600080fd5b810190808035906020019092919050505061188d565b6040518082815260200191505060405180910390f35b3480156102d757600080fd5b5061031a600480360360208110156102ee57600080fd5b81019080803573ffffffffffffffffffffffffffffffffffffffff169060200190929190505050611931565b604051808215151515815260200191505060405180910390f35b34801561034057600080fd5b506103496119cc565b005b34801561035757600080fd5b506103846004803603602081101561036e57600080fd5b8101908080359060200190929190505050611a98565b604051808215151515815260200191505060405180910390f35b3480156103aa57600080fd5b506103d7600480360360208110156103c157600080fd5b8101908080359060200190929190505050611b36565b005b3480156103e557600080fd5b50610432600480360360408110156103fc57600080fd5b8101908080359060200190929190803573ffffffffffffffffffffffffffffffffffffffff169060200190929190505050611b39565b005b34801561044057600080fd5b5061048d6004803603604081101561045757600080fd5b8101908080359060200190929190803573ffffffffffffffffffffffffffffffffffffffff169060200190929190505050611d3c565b005b34801561049b57600080fd5b506104c8600480360360208110156104b257600080fd5b8101908080359060200190929190505050611f4d565b6040518080602001828103825283818151815260200191508051906020019060200280838360005b8381101561050b5780820151818401526020810190506104f0565b505050509050019250505060405180910390f35b34801561052b57600080fd5b506105346123e0565b6040518082815260200191505060405180910390f35b34801561055657600080fd5b5061055f61246e565b604051808767ffffffffffffffff1667ffffffffffffffff1681526020018663ffffffff1663ffffffff1681526020018563ffffffff1663ffffffff1681526020018481526020018381526020018273ffffffffffffffffffffffffffffffffffffffff1673ffffffffffffffffffffffffffffffffffffffff168152602001965050505050505060405180910390f35b3480156105fc57600080fd5b506106296004803603602081101561061357600080fd5b8101908080359060200190929190505050612575565b005b34801561063757600080fd5b5061067a6004803603602081101561064e57600080fd5b81019080803573ffffffffffffffffffffffffffffffffffffffff169060200190929190505050612578565b604051808215151515815260200191505060405180910390f35b3480156106a057600080fd5b506106e3600480360360208110156106b757600080fd5b81019080803573ffffffffffffffffffffffffffffffffffffffff169060200190929190505050612644565b005b3480156106f157600080fd5b5061071e6004803603602081101561070857600080fd5b8101908080359060200190929190505050612865565b604051808681526020018581526020018473ffffffffffffffffffffffffffffffffffffffff1673ffffffffffffffffffffffffffffffffffffffff1681526020018381526020018281526020019550505050505060405180910390f35b34801561078857600080fd5b506107b56004803603602081101561079f57600080fd5b81019080803590602001909291905050506129ad565b005b3480156107c357600080fd5b506107f0600480360360208110156107da57600080fd5b81019080803590602001909291905050506129b0565b604051808381526020018281526020019250505060405180910390f35b34801561081957600080fd5b5061085c6004803603602081101561083057600080fd5b81019080803573ffffffffffffffffffffffffffffffffffffffff169060200190929190505050612bd0565b604051808981526020018881526020018773ffffffffffffffffffffffffffffffffffffffff1673ffffffffffffffffffffffffffffffffffffffff1681526020018681526020018581526020018481526020018360048111156108bc57fe5b60ff16815260200180602001828103825283818151815260200191508051906020019080838360005b838110156109005780820151818401526020810190506108e5565b50505050905090810190601f16801561092d5780820380516001836020036101000a031916815260200191505b50995050505050505050505060405180910390f35b34801561094e57600080fd5b5061097b6004803603602081101561096557600080fd5b8101908080359060200190929190505050612e11565b005b34801561098957600080fd5b50610992612e14565b005b3480156109a057600080fd5b506109cd600480360360208110156109b757600080fd5b8101908080359060200190929190505050612fa4565b604051808215151515815260200191505060405180910390f35b3480156109f357600080fd5b50610a2a60048036036040811015610a0a57600080fd5b8101908080359060200190929190803590602001909291905050506137c8565b604051808273ffffffffffffffffffffffffffffffffffffffff1673ffffffffffffffffffffffffffffffffffffffff16815260200191505060405180910390f35b348015610a7857600080fd5b50610ac560048036036040811015610a8f57600080fd5b8101908080359060200190929190803573ffffffffffffffffffffffffffffffffffffffff16906020019092919050505061387e565b604051808215151515815260200191505060405180910390f35b348015610aeb57600080fd5b50610b2e60048036036020811015610b0257600080fd5b81019080803573ffffffffffffffffffffffffffffffffffffffff169060200190929190505050613934565b005b348015610b3c57600080fd5b50610b45613b86565b604051808981526020018881526020018773ffffffffffffffffffffffffffffffffffffffff1673ffffffffffffffffffffffffffffffffffffffff168152602001868152602001858152602001848152602001836004811115610ba557fe5b60ff16815260200180602001828103825283818151815260200191508051906020019080838360005b83811015610be9578082015181840152602081019050610bce565b50505050905090810190601f168015610c165780820380516001836020036101000a031916815260200191505b50995050505050505050505060405180910390f35b348015610c3757600080fd5b50610c40613c41565b6040518082815260200191505060405180910390f35b348015610c6257600080fd5b50610ca560048036036020811015610c7957600080fd5b81019080803573ffffffffffffffffffffffffffffffffffffffff169060200190929190505050613c49565b005b348015610cb357600080fd5b50610ce060048036036020811015610cca57600080fd5b8101908080359060200190929190505050613e9b565b6040518082815260200191505060405180910390f35b348015610d0257600080fd5b50610d4f60048036036040811015610d1957600080fd5b81019080803573ffffffffffffffffffffffffffffffffffffffff16906020019092919080359060200190929190505050614529565b604051808215151515815260200191505060405180910390f35b348015610d7557600080fd5b50610db860048036036020811015610d8c57600080fd5b81019080803573ffffffffffffffffffffffffffffffffffffffff169060200190929190505050614e0b565b604051808381526020018281526020019250505060405180910390f35b348015610de157600080fd5b50610e0e60048036036020811015610df857600080fd5b8101908080359060200190929190505050614ed0565b6040518082815260200191505060405180910390f35b348015610e3057600080fd5b50610e5d60048036036020811015610e4757600080fd5b8101908080359060200190929190505050614f7b565b005b348015610e6b57600080fd5b50610f0d60048036036060811015610e8257600080fd5b81019080803573ffffffffffffffffffffffffffffffffffffffff1690602001909291908035906020019092919080359060200190640100000000811115610ec957600080fd5b820183602082011115610edb57600080fd5b80359060200191846001830284011164010000000083111715610efd57600080fd5b9091929391929390505050614f7e565b604051808215151515815260200191505060405180910390f35b348015610f3357600080fd5b50610f8060048036036040811015610f4a57600080fd5b8101908080359060200190929190803573ffffffffffffffffffffffffffffffffffffffff1690602001909291905050506154f5565b005b348015610f8e57600080fd5b50610fbb60048036036020811015610fa557600080fd5b81019080803590602001909291905050506156f8565b604051808060200180602001858152602001848152602001838103835287818151815260200191508051906020019060200280838360005b8381101561100e578082015181840152602081019050610ff3565b50505050905001838103825286818151815260200191508051906020019060200280838360005b83811015611050578082015181840152602081019050611035565b50505050905001965050505050505060405180910390f35b34801561107457600080fd5b506110a16004803603602081101561108b57600080fd5b81019080803590602001909291905050506159f6565b60405180856bffffffffffffffffffffffff166bffffffffffffffffffffffff1681526020018473ffffffffffffffffffffffffffffffffffffffff1673ffffffffffffffffffffffffffffffffffffffff16815260200183815260200182815260200194505050505060405180910390f35b34801561112057600080fd5b5061116d6004803603604081101561113757600080fd5b81019080803573ffffffffffffffffffffffffffffffffffffffff16906020019092919080359060200190929190505050615a98565b604051808215151515815260200191505060405180910390f35b34801561119357600080fd5b5061128960048036036101608110156111ab57600080fd5b81019080803573ffffffffffffffffffffffffffffffffffffffff169060200190929190803573ffffffffffffffffffffffffffffffffffffffff169060200190929190803563ffffffff169060200190929190803563ffffffff169060200190929190803567ffffffffffffffff16906020019092919080359060200190929190803561ffff169060200190929190803560ff169060200190929190803560ff169060200190929190803563ffffffff16906020019092919080356fffffffffffffffffffffffffffffffff169060200190929190505050615cbc565b005b34801561129757600080fd5b506112c4600480360360208110156112ae57600080fd5b810190808035906020019092919050505061617f565b005b3480156112d257600080fd5b506112ff600480360360208110156112e957600080fd5b8101908080359060200190929190505050616182565b604051808273ffffffffffffffffffffffffffffffffffffffff1673ffffffffffffffffffffffffffffffffffffffff16815260200191505060405180910390f35b34801561134d57600080fd5b506113846004803603604081101561136457600080fd5b810190808035906020019092919080359060200190929190505050616763565b6040518082815260200191505060405180910390f35b3480156113a657600080fd5b506113af616aab565b6040518082815260200191505060405180910390f35b60006113f37fef0ee839a87e09beff700b1545467b1e7edec5145e69a952185625b7febbbeaf60010261617f565b61141f7fbdf835ee0fe59519e68e959a2766d368864459c142b651dc6d6cc62e98a4928760010261617f565b61144b7fd14e8c1d0c70855f3f901075500965984cbea219b1fa4a42db605c475f4bbee460010261617f565b6114777fbe47793fa43a6c9d58b424bbf96d50fa4160ae78cfe3c5dd4bc34ba1ea72138660010261617f565b611487611482616ae4565b612578565b15156114fb576040517f08c379a00000000000000000000000000000000000000000000000000000000081526004018080602001828103825260188152602001807f5265737472696374656420746f204f70657261746f72732e000000000000000081525060200191505060405180910390fd5b6115277f241ba548cc8253817305eb6cbd99b145edfcecbfaeaba1576d256fce484d5ab260010261617f565b6115537fc0aad2c1f4c71d0d45099bfc691c3cd5b001f96af75e9e3b342f389f86c2614760010261617f565b61157f7f3a04ad7e9e78a5c1fc6cff605b009e257dee910e66faa994e8afe9c7316045a2600102612575565b6115ab7fccce1dbaba59abcf83396e478aed4d6e0fcfd31a26264a2061cb7b2ad61cb5f2600102612575565b6115d77f512a38d588d989eed3acc08f88955428d188aadc8593fb741862cf90b8356c85600102612575565b6116037f8b5e26a03f614d839bdc62629e23f3c30eba9ca7b6ad37da29bef6d8a8e7771d600102612575565b607560009054906101000a900473ffffffffffffffffffffffffffffffffffffffff1673ffffffffffffffffffffffffffffffffffffffff166323b872dd8430856040518463ffffffff167c0100000000000000000000000000000000000000000000000000000000028152600401808473ffffffffffffffffffffffffffffffffffffffff1673ffffffffffffffffffffffffffffffffffffffff1681526020018373ffffffffffffffffffffffffffffffffffffffff1673ffffffffffffffffffffffffffffffffffffffff1681526020018281526020019350505050602060405180830381600087803b1580156116fc57600080fd5b505af1158015611710573d6000803e3d6000fd5b505050506040513d602081101561172657600080fd5b810190808051906020019092919050505015156117f7576040517f08c379a000000000000000000000000000000000000000000000000000000000815260040180806020018281038252604d8152602001807f476c7577615072697a654c696e6b65644163636f756e743a20556e61626c652081526020017f746f2073656e6420616d6f756e7420746f206465706f73697420746f2061205381526020017f6176696e67204163636f756e740000000000000000000000000000000000000081525060600191505060405180910390fd5b6118237fb49c4d7fb7335fbab90abc81be91735bfbe8f5f537a47adb184cb91ddcb7da70600102612575565b61184f7f4814b78bb01bb05a028be0034e2074d2ba2cb9eed22d35e3b0cf009bca8e2499600102612575565b61187b7fb0e66bbb244f9bc55435dead616fe6369d956e1056c2551f375c7ac583dad7d4600102612575565b6118858383616aec565b905092915050565b60006118bb7f178ba80f02f74abd0ff251d2ea78ec810b40bec9630b6a70cdfbec8d0795e142600102612e11565b6118e77fec551c3ea353e36cbba2586629cb6098113180911ee1a321937b05ae2a2752b6600102612e11565b6119137f84fcfc621d3e05319f4172e0bac43d08f99c5f386a82d921c479c6bf1caa5b9e600102612e11565b60336000838152602001908152602001600020600201549050919050565b600061195f7f86524858a643a3d44641956918739c1a8adbfa262f51365867258a74777ab6e860010261617f565b61198b7f34882e832c710efee608a8c31c6b4f81a2882df9495d9d914960835bc5ed3a6f60010261617f565b6119b77fab863da377c52c8f6067472a5ca8df2a2ce6a6f299e205cd7a166b6a8ee3191660010261617f565b6119c560006001028361387e565b9050919050565b6119f87fe055df7d75bcf67920b78bea865a068e84bc633c679512f0876702a70b8dc05460010261617f565b611a247f4305c9b37baa4897e500de7512ac1fbd26011391db36c2bdf91ab696e445440660010261617f565b611a507fd5d184c393ede38cc607d24a25f3666dd9feb49a274e173511e36640001bb02c60010261617f565b611a9660405180807f4f50455241544f5200000000000000000000000000000000000000000000000081525060080190506040518091039020611a91616ae4565b611d3c565b565b6000611ac67fbe6762beacc210dc33f9fc38f75c42cb5d2fdbddd15b058626d0defde3c9dc14600102612575565b611af27fc06cdeb9de0bdff0bc7beaa12503083930fc0ea7ad5e61a11b9b24bca695cbd2600102612575565b611b1e7fbc4d0e511e71c00c44404d1e70c6cffe8be46b17fdc24ef16897be3881199236600102612575565b611b2f611b29616ae4565b83616beb565b9050919050565b50565b611b657f97749d5907af942f23e24dab2e4d9d9f86169e20828b78fbb02c7397aba20dec600102612e11565b611b917f6071ae2abfff4312103bd8739211263b643becbb57462f9074353c4b638bc8fb600102612e11565b611bbd7f78c9d2effdd2cf4ffcfc49a15eb93d30fb2345626d55331fafe2577c45492945600102612e11565b611be97f0f8d5525ab20fc25e211108856f9e9c2d7686d4bca86323a95f73b4befbd1905600102612e11565b611c106033600084815260200190815260200160002060020154611c0b616ae4565b61387e565b1515611caa576040517f08c379a000000000000000000000000000000000000000000000000000000000815260040180806020018281038252602f8152602001807f416363657373436f6e74726f6c3a2073656e646572206d75737420626520616e81526020017f2061646d696e20746f206772616e74000000000000000000000000000000000081525060400191505060405180910390fd5b611cd67f552f1538fdf5aa57eed1a65a84465e26b2dee3a349b98af5bdc70923de8885ca600102612e11565b611d027f903d39f78d0f26f99c6bc1e1496c2b3cde0bbb39f25ad445a102acb1d1decd81600102612e11565b611d2e7f76891968bc09ecbef03a36911e5ee6272955d16b1c067ee7f7047de6127eb41c600102612e11565b611d388282616fed565b5050565b611d687f811d9b367083ade010308c3df46e6c1a758d0a4e066263174dfb6043b644e173600102612e11565b611d947fdb6ee36fa74bfce73b4d7febf4feaf4bdebc1210aab6f5b8693bd4a1f8853a26600102612e11565b611dc07f85d239db3b4d1b9cced29486f7c80ccb652aafd8e8eae3f7452473f2cc89b51a600102612e11565b611dec7fedea06ed59008997c5743a16db8568bab5dd9f9c34ed04b0f769daf451feb479600102612e11565b611df4616ae4565b73ffffffffffffffffffffffffffffffffffffffff168173ffffffffffffffffffffffffffffffffffffffff16141515611ebc576040517f08c379a000000000000000000000000000000000000000000000000000000000815260040180806020018281038252602f8152602001807f416363657373436f6e74726f6c3a2063616e206f6e6c792072656e6f756e636581526020017f20726f6c657320666f722073656c66000000000000000000000000000000000081525060400191505060405180910390fd5b611ee87fef1f4435b8ae57ba06f31930b3fb8c9cc004c60b2991c9854f356fda1be49d1b600102612e11565b611f137e8e26e72734111ca057d72127912f0212f88739a7285da44b27658c44d821cd600102612e11565b611f3f7f84b91bc6cd4d63b8761ad13257c7207720ef3cd77d61117e543c387736916e5e600102612e11565b611f4982826171ba565b5050565b6060611f7b7f8a16c72f3d08964d4b71e36810ab99653e2f46d2a9bf826bd1cd8478aba4ccdf600102612575565b611fa77f4c5a6d99af1d45b4628e99e4b269c0176ad4768b1613c46f64919d4f12c5b500600102612575565b611fd37f9abe30724f1c1e411ce654e9058954211a49ab0e32f5e13424885f9897054210600102612575565b60006120017f87ab8e0fce645dd5495297a7416c7077ce2f4d6c38f22b9b86c55bc452159993600102612575565b61202d7f3016d6c65356c6bd6072f49bf42e8a5a55948337998dc23426da3360cf2578ed600102612575565b60008090505b6069805490508110156123d95761206c7f63690ab96e941ffb1f96dfb7a8fcf5c5b8710583e7cb9e1cc190cc5a7dee6578600102612575565b6120987f5a6933ab24684a28b8245d9e8f5de430c12f8739fc19593243d1dcfbd07f32aa600102612575565b6000607f600086815260200190815260200160002060006069848154811015156120be57fe5b9060005260206000200160009054906101000a900473ffffffffffffffffffffffffffffffffffffffff1673ffffffffffffffffffffffffffffffffffffffff1673ffffffffffffffffffffffffffffffffffffffff168152602001908152602001600020805490501480156121af575060006076600060698481548110151561214457fe5b9060005260206000200160009054906101000a900473ffffffffffffffffffffffffffffffffffffffff1673ffffffffffffffffffffffffffffffffffffffff1673ffffffffffffffffffffffffffffffffffffffff16815260200190815260200160002060040154115b80156122595750600160048111156121c357fe5b607660006069848154811015156121d657fe5b9060005260206000200160009054906101000a900473ffffffffffffffffffffffffffffffffffffffff1673ffffffffffffffffffffffffffffffffffffffff1673ffffffffffffffffffffffffffffffffffffffff16815260200190815260200160002060060160009054906101000a900460ff16600481111561225757fe5b145b1561239f5761228a7f20cca562ee167233012a43d4054b1386074f09acb3ca01b39fb39ef8615d4a9d600102612575565b6122b67f1d5c2fc305a56d3933adc82453ebbf4709053dacad61e77b46885b557845fdb2600102612575565b6122e27f97967807be6d59c3069d8adefa9d23201decd26da8cb1b79524f45d5e766e33c600102612575565b6069818154811015156122f157fe5b9060005260206000200160009054906101000a900473ffffffffffffffffffffffffffffffffffffffff16838381518110151561232a57fe5b9060200190602002019073ffffffffffffffffffffffffffffffffffffffff16908173ffffffffffffffffffffffffffffffffffffffff16815250506123927fb42a73083c1befee3c06cea8ca58d55bf5f0c4fe40bbdf9e078a6c1cafcfc002600102612575565b81806001019250506123cc565b6123cb7f86da3b46068b1b4eef8dae5b202d50a68d300e07f61dd1cdd8d8938a9638e692600102612575565b5b8080600101915050612033565b5050919050565b600061240e7f1e48659a37d90012034ce0504abf94c687d1cde48eae1d34c8ecf6f1da685f72600102614f7b565b61243a7f970ea2430ac8c7129fc8eaf4f7c2f09dc3460b605ba5397bea49e71e9b74f913600102614f7b565b6124667f32ff90641404ad09eea1cd00e3bb039b4789c6b58017ea094d7e1750d00e945d600102614f7b565b607354905090565b6000806000806000806124a37f3fd7aa65e03ed2344eb3fa764176d1b28a4ca40d8010176ce7b36e7532250c6e600102614f7b565b6124cf7f17b6405cea1f8b1c87f130fefc195e5fa52bc3b4580a0f3bba8cc7fda0275014600102614f7b565b6124fb7fb8d6fe4d206a56650f24d72f070f71bdbd4efc05528abdcbdf6afc84c501f49f600102614f7b565b606560009054906101000a900467ffffffffffffffff16607260009054906101000a900463ffffffff16607260049054906101000a900463ffffffff16606654606754607560009054906101000a900473ffffffffffffffffffffffffffffffffffffffff16955095509550955095509550909192939495565b50565b60006125a67fe963ba32f3b2b2511f3b61c6a1cf8ec3b8865be585223e913dad37234ec3dba760010261617f565b6125d27f4b1da260cff4143833d6e35ffde5e36b26a94146d2f068d1b4ae37ca6d0e944060010261617f565b6125fe7f5303ee691770746a94c441c3c1db6f6814117793a7840e90eb05ab2e6493106360010261617f565b61263d60405180807f4f50455241544f52000000000000000000000000000000000000000000000000815250600801905060405180910390208361387e565b9050919050565b6126707fa0a2fde32d4e52005b78eac14a1ab6ae68b38ec56c08824fdb8abe489653882d60010261617f565b61269c7f1879b1107adb408f8af76f8f45ac4e99c6f1bcc9102431bca363de52c073b1dd60010261617f565b6126c87fd7067e1fc31ce2497d1aad67288494aad7eff15e9ad64f38f62ac1f19443069160010261617f565b6126f47f789ba8c5ad5c32a80dfff31774c44fcc100d45bdb016459c014ebdcb9ac2422260010261617f565b6127046126ff616ae4565b611931565b1515612778576040517f08c379a00000000000000000000000000000000000000000000000000000000081526004018080602001828103825260158152602001807f5265737472696374656420746f2041646d696e732e000000000000000000000081525060200191505060405180910390fd5b6127a47f02ecd88ec5aa7f79e1b04fa2d5196f70633b82efea766ec554a5367eb186c0ed60010261617f565b6127d07ffd7e2637835a60722c80d268652d57225b15dde47b888629fcd49b6f443284bc60010261617f565b6127fc7fc04152ee14431e8518d6e1e3408bae4047950f36986878ba23f2b59e8842f0de60010261617f565b6128287f601f3a50cc2b63877d5d7c9ae87face277a00a3ba6a3868f835b1048a156698f60010261617f565b6128547f6b6789300eb743a8447edde74dfce42f76d507d74fabf8555209106a6cf6835d60010261617f565b612862600060010282611b39565b50565b60008060008060006128997f15c6a063f9b01120a1bdb44338ffe9ad683bb9e5d0841ad21e8a6a1706a63049600102614f7b565b6128c57fa8ad17f714c474602870daac8b065e6e20d7dd6bc40d773bba4a1d9820c4c3c1600102614f7b565b6128f17f9a41d87efab0cc27782b615da93830a718cef13deaef96d471626a31bc8fd1c5600102614f7b565b60006077600088815260200190815260200160002090506129347f83728831cbe135a745eed85073fc558befbea13a19d4b9770fbee58287534bdd600102614f7b565b6129607fc3e2b999117295b9bea137cbb921b04192f0066fbf1fd2c9d79ed9b0727eb577600102614f7b565b806000015481600101548260020160009054906101000a900473ffffffffffffffffffffffffffffffffffffffff1683600301548460040154955095509550955095505091939590929450565b50565b6000806129df7f11d8ce75fe5c00ee2f34c37514086193c9a3600f53beb978aa57bb82141627cc600102611b36565b612a0b7fdae38433414487548a7bda5d73b7548dbd3ad7cd576556c1d1a83b89af7f04b8600102611b36565b612a377f1a7558312e1162d125dc230586cf1dd39edfac64ccc12c9ea8747bb6ba6c7342600102611b36565b6000607d60008581526020019081526020016000209050612a7a7f2b0227bd0ac303a265db3d5d5aed277f7958ad37889d78eb0fbc207f7ef072a3600102611b36565b612aa67f2459bffe89119e7f765dba0c69d9f56e9c5a84cf114d713c55cc1d6103944cad600102611b36565b607c6000826001848054905003815481101515612abf57fe5b9060005260206000209060029182820401919006600c029054906101000a90046bffffffffffffffffffffffff166bffffffffffffffffffffffff168152602001908152602001600020600201549150612b3b7f6a1eba7c98dedf3c83fbdd13f534dfae6e1555b1abc3827f08a9dc7d0bcb4a6d600102611b36565b612b677fedbf2e8ec86acd3317cbe2e59954608482107869daad39317d29bb832ec566b5600102611b36565b607c6000826000815481101515612b7a57fe5b9060005260206000209060029182820401919006600c029054906101000a90046bffffffffffffffffffffffff166bffffffffffffffffffffffff16815260200190815260200160002060010154925050915091565b60008060008060008060006060612c097fef0ee839a87e09beff700b1545467b1e7edec5145e69a952185625b7febbbeaf60010261617f565b612c357fbdf835ee0fe59519e68e959a2766d368864459c142b651dc6d6cc62e98a4928760010261617f565b612c617fd14e8c1d0c70855f3f901075500965984cbea219b1fa4a42db605c475f4bbee460010261617f565b612c8d7fbe47793fa43a6c9d58b424bbf96d50fa4160ae78cfe3c5dd4bc34ba1ea72138660010261617f565b612c9d612c98616ae4565b612578565b1515612d11576040517f08c379a00000000000000000000000000000000000000000000000000000000081526004018080602001828103825260188152602001807f5265737472696374656420746f204f70657261746f72732e000000000000000081525060200191505060405180910390fd5b612d3d7f241ba548cc8253817305eb6cbd99b145edfcecbfaeaba1576d256fce484d5ab260010261617f565b612d697fc0aad2c1f4c71d0d45099bfc691c3cd5b001f96af75e9e3b342f389f86c2614760010261617f565b612d957fc1698c6bcb9d0697d99b1c75d4d7c8e96a26211a618077f3d71c63d08eb2d437600102612575565b612dc17f79df2ff67365d5391160ae5a2893e3380c8de315e2fcb57a03899bec46c5c0a4600102612575565b612ded7fda47d1efda292bc1a50f6da0bc9bf1840289692ce433d83a3bf6d1ba426c6425600102612575565b612df689617387565b97509750975097509750975097509750919395975091939597565b50565b612e407fb10bf9abe0342730296765bd2cd0c9a5ea98992024bec04a1e36f58f5212602760010261617f565b612e6c7f13cdd538e624b7d3380c6e79d8ae423ccc25837f48aea5f0afebdca7d08c9e2160010261617f565b612e987feffda485d19a3eece6b6ab860484e848f4781862b85aaf4178964fcf82bb3e1f60010261617f565b6000612ea2616ae4565b9050612ed07fd305479b9236377cf73a5d394ccf7d8ebb342e79057de6f3af2c3b15863e347660010261617f565b612efc7f54e2adec838f13b8c41b63532dfb234d73146cef7c6d4dc56417ec750b152bc860010261617f565b612f0a600060010282611d3c565b612f367f10d7e6b9abf0c13960f1fcdef995a1a8debb8dbc4ed163ef221a165b3d59468360010261617f565b612f627f0e8361c658bbe95bda7c8ac89921bb11b3eed534bab0829cfc58c24e0c0450b360010261617f565b612fa160405180807f4f50455241544f520000000000000000000000000000000000000000000000008152506008019050604051809103902082611d3c565b50565b6000612fd27fef0ee839a87e09beff700b1545467b1e7edec5145e69a952185625b7febbbeaf60010261617f565b612ffe7fbdf835ee0fe59519e68e959a2766d368864459c142b651dc6d6cc62e98a4928760010261617f565b61302a7fd14e8c1d0c70855f3f901075500965984cbea219b1fa4a42db605c475f4bbee460010261617f565b6130567fbe47793fa43a6c9d58b424bbf96d50fa4160ae78cfe3c5dd4bc34ba1ea72138660010261617f565b613066613061616ae4565b612578565b15156130da576040517f08c379a00000000000000000000000000000000000000000000000000000000081526004018080602001828103825260188152602001807f5265737472696374656420746f204f70657261746f72732e000000000000000081525060200191505060405180910390fd5b6131067f241ba548cc8253817305eb6cbd99b145edfcecbfaeaba1576d256fce484d5ab260010261617f565b6131327fc0aad2c1f4c71d0d45099bfc691c3cd5b001f96af75e9e3b342f389f86c2614760010261617f565b61315e7fa337749e228df36ace39ec8cca41156db675ecdaa278a7102af22533d9cead65600102612575565b61318a7f773ce85b7115cef543d21a7e35b7e56f5bfeb18b7606af9f40cf94f7e5a004f4600102612575565b6131b67f8086c418f96dadbd3afe651200481727a02fee8e48a091362c121f36917961b3600102612575565b6131e27f64c8445c55b7a04f7a329da3dfe0bdf4e69bccdcf81f17eea6cbc1cdb1156661600102612575565b6084600083815260200190815260200160002060009054906101000a900460ff1615151561329e576040517f08c379a00000000000000000000000000000000000000000000000000000000081526004018080602001828103825260308152602001807f476c7577615072697a654c696e6b65644163636f756e743a205072697a65206881526020017f6173206265656e2070616964206f75740000000000000000000000000000000081525060400191505060405180910390fd5b6132ca7f5ebd6d88fb36938184f1410d949c16a4bc91cb13d0f07cb98645fab8352643c8600102612575565b6132f67f5e8f52e2588f032fb0401ec72f140df28676aa3e443604207fb07411f4970485600102612575565b6133227f756d4697b99f9470f2788e3d48f1981b182d2f71a8abffb308cfa8bc5140abc9600102612575565b600061332d83616182565b905061335b7f27fd17f8241eb741602bcbf29405d1096a5a1e5ba53cb986b997c65dfbce6bac600102612575565b6133877f2b542bfe75d9773d4aa5b87ce095933ae3dae71347b73449f5da958e6aa9c6e6600102612575565b6000613405607260049054906101000a900463ffffffff1663ffffffff166133f7607260009054906101000a900463ffffffff1663ffffffff166133e9608360008a815260200190815260200160002054607b546175bf90919063ffffffff16565b61764990919063ffffffff16565b61771690919063ffffffff16565b90506134337f4e5d758321caddaa3eccdfa5f9696124b9bca2a340cc5db0b7f8832cc8528a3a600102612575565b61345f7f4363280b0a384857f09298a15e7386e37bdd16a30ec1ad29a81042957a4eacc3600102612575565b60016084600086815260200190815260200160002060006101000a81548160ff0219169083151502179055506134b77f2241b8f0ff18451fb7bff58b2e558fb4fdca50e58953697a16cf8228d0443a2d600102612575565b6134e37ffcc889693a5b83904f5d13ea2ed7fa6f4b4f84378fd6722ecb979cb08ea76a14600102612575565b600073ffffffffffffffffffffffffffffffffffffffff168273ffffffffffffffffffffffffffffffffffffffff1614151561360d576135457f3b312b1c0f831ff0c7d73ce9e3e66bbc18a2348cc21dfc1cecf5b9f1c5511bf4600102612575565b6135717f436deb28efa5fffefaca023fe9a7e1ffd1c16c71b96713096f781c8587eba6ac600102612575565b61359d7fa91511c6d9e8e969329fbc5d9c4a649bb0f904837aeaaeb24c88c91f5783268d600102612575565b6000607b819055506135d17f0281ff50570d64fcc22a7cffad36a108b8a0f25c30b76aebcca33bfaabe15871600102612575565b6135fd7fcebb769236023ea5c6071130f4c3794bdf788492b01addde15682ebb38f76388600102612575565b6136078282616aec565b506136a2565b6136397fc1fa9d0fd449d79b354856f4dc1acc6425102fd39cb1c92cab69582c5337b55f600102612575565b6136657f7bb0efe6dc690972b240a85d6d69cf1dbabd00dbc9c4d1a2e642bd830853645a600102612575565b6136917f4e3531303908a3189c7f0c3bbc5878a0da9aa30e41e04bc676e1bda022c01191600102612575565b80607b600082825401925050819055505b6136ce7ff57a04441cd24e12f268de4011c4d0e7188523cd33e0f5997a4f057a72665cc7600102612575565b6136fa7f5f4824ce5e5993ca3f8fea6cdb43a0953dc1a377f6a582625aa6c84529c72849600102612575565b7f75060f9e79552df167b73353fee6237a75bb5ba8ea022f77224e32f152138bcb8282604051808373ffffffffffffffffffffffffffffffffffffffff1673ffffffffffffffffffffffffffffffffffffffff1681526020018281526020019250505060405180910390a16137917fd7d8455cb9b21ba155eab791736846eef2bfa1af713b85b64f3f879e266a13d6600102612575565b6137bd7fa885dbad3c273ca78cd1b5c51dfaf16f58ff56e3f355f4bc00906de13d98fc40600102612575565b600192505050919050565b60006137f67fc538a949ad73d85fa871d4fe7b7caf55c98db10decb79e8201e5b229bf49f8d9600102612e11565b6138227f35ef7fe8d6d02844d6863bb6c55f0d1e296384393834f2824348a5a3fe583ff9600102612e11565b61384e7fe3926445fba9229f612ea4ab3450183300047551d9413fe24bf861e541ee22b4600102612e11565b613876826033600086815260200190815260200160002060000161776090919063ffffffff16565b905092915050565b60006138ac7ffc62441d050a63d198d2f97f5a25bb420519fd407e5d50f08312815303d5dd21600102612e11565b6138d87fd64e96f3e91efc239c01bf30d1d8ff0775b4d6b65061ba43ed41ed007d276239600102612e11565b6139047f8ef3a2c3240e4fed75685458a30e1852c1e366c8a3b897910fa24f0e9c12a393600102612e11565b61392c82603360008681526020019081526020016000206000016177ff90919063ffffffff16565b905092915050565b6139607fa0a2fde32d4e52005b78eac14a1ab6ae68b38ec56c08824fdb8abe489653882d60010261617f565b61398c7f1879b1107adb408f8af76f8f45ac4e99c6f1bcc9102431bca363de52c073b1dd60010261617f565b6139b87fd7067e1fc31ce2497d1aad67288494aad7eff15e9ad64f38f62ac1f19443069160010261617f565b6139e47f789ba8c5ad5c32a80dfff31774c44fcc100d45bdb016459c014ebdcb9ac2422260010261617f565b6139f46139ef616ae4565b611931565b1515613a68576040517f08c379a00000000000000000000000000000000000000000000000000000000081526004018080602001828103825260158152602001807f5265737472696374656420746f2041646d696e732e000000000000000000000081525060200191505060405180910390fd5b613a947f02ecd88ec5aa7f79e1b04fa2d5196f70633b82efea766ec554a5367eb186c0ed60010261617f565b613ac07ffd7e2637835a60722c80d268652d57225b15dde47b888629fcd49b6f443284bc60010261617f565b613aec7ff44ed11abb9d946c2a432fbe662d20f04907a2376ad219db63c38ca689de88f660010261617f565b613b187fa3b8cd17878a18b96beb23c675e90566c628339c690cc02fef2e6714e599336b60010261617f565b613b447fd043dcbf206250dd68a1ab9b20e9de58383ca14921d02cd31d12f14d0bb0283160010261617f565b613b8360405180807f4f50455241544f520000000000000000000000000000000000000000000000008152506008019050604051809103902082611b39565b50565b60008060008060008060006060613bbf7f4e2b16b1b0644f6bc3a47b05ab1e8597b115c2a72699bdc20fad556b9cccc4fe600102614f7b565b613beb7fb166f02045665ffa2ad499d796c42e71b1b8174bac0c60c1db73500d1a05cce1600102614f7b565b613c177f041147629463f6e0c13e8ca4166a2b5a8b446ac5719c470051757b4feb502f1f600102614f7b565b613c27613c22616ae4565b617387565b975097509750975097509750975097509091929394959697565b600060010281565b613c757fa0a2fde32d4e52005b78eac14a1ab6ae68b38ec56c08824fdb8abe489653882d60010261617f565b613ca17f1879b1107adb408f8af76f8f45ac4e99c6f1bcc9102431bca363de52c073b1dd60010261617f565b613ccd7fd7067e1fc31ce2497d1aad67288494aad7eff15e9ad64f38f62ac1f19443069160010261617f565b613cf97f789ba8c5ad5c32a80dfff31774c44fcc100d45bdb016459c014ebdcb9ac2422260010261617f565b613d09613d04616ae4565b611931565b1515613d7d576040517f08c379a00000000000000000000000000000000000000000000000000000000081526004018080602001828103825260158152602001807f5265737472696374656420746f2041646d696e732e000000000000000000000081525060200191505060405180910390fd5b613da97f02ecd88ec5aa7f79e1b04fa2d5196f70633b82efea766ec554a5367eb186c0ed60010261617f565b613dd57ffd7e2637835a60722c80d268652d57225b15dde47b888629fcd49b6f443284bc60010261617f565b613e017f0ccac8621a40ca7b127c6496eeb6b54e74cc4e17a98af94873762388c2e983e660010261617f565b613e2d7f538432c19549aadca9e46abd21c2247ce49f9f0f49908507b517e89a1ba9fef260010261617f565b613e597f3bd31538f2a58cfe062227505d07a18feb1647396af308980226ca2806c11fb560010261617f565b613e9860405180807f4f50455241544f5200000000000000000000000000000000000000000000000081525060080190506040518091039020826154f5565b50565b6000613ec97f13ea2cdaa440f6fff8cadc87063b2dd45cf0519f18e3ebc8c0ffe1715d6db4bd600102612575565b613ef57f656401ae8e12b08b6194a3767491f65e90ce406531175a631237523fb0536f0a600102612575565b613f217f0d0494f3813a25cd964f7c272cdf7778e5ebe34f82c85fa900174a4ec414bb79600102612575565b6000613f4f7f20c8a1a4e166c098a418f14ca157f928aa778528e3a57712569ec38b5249043e600102612575565b613f7a7e15b3931a5cbcfdb94468d8463d57e10b927ff3f5dec27f29fed6582db46123600102612575565b60008090505b6069805490508110156144c157613fb97f9f47ee9737d89ff0242a68b7cfa5ae2dd49bb41a6f3a6ca42c5abffd6dbe6418600102612575565b613fe57f7f59b1297d5b740655dc346f6341fdbc5ee407f25bbc5b9059255776fafc833c600102612575565b6000607f6000868152602001908152602001600020600060698481548110151561400b57fe5b9060005260206000200160009054906101000a900473ffffffffffffffffffffffffffffffffffffffff1673ffffffffffffffffffffffffffffffffffffffff1673ffffffffffffffffffffffffffffffffffffffff168152602001908152602001600020805490501480156140fc575060006076600060698481548110151561409157fe5b9060005260206000200160009054906101000a900473ffffffffffffffffffffffffffffffffffffffff1673ffffffffffffffffffffffffffffffffffffffff1673ffffffffffffffffffffffffffffffffffffffff16815260200190815260200160002060040154115b80156141a657506001600481111561411057fe5b6076600060698481548110151561412357fe5b9060005260206000200160009054906101000a900473ffffffffffffffffffffffffffffffffffffffff1673ffffffffffffffffffffffffffffffffffffffff1673ffffffffffffffffffffffffffffffffffffffff16815260200190815260200160002060060160009054906101000a900460ff1660048111156141a457fe5b145b15614487576141d77f539ea9aec3adda5610bcee799e95f29b7a763087820d1100cbecea8a188275ea600102612575565b6142037f66b25eafbb57a9ed591bc2b2c8e13aaacb06ebb42cfa37a2944522c8bb08f132600102612575565b61422f7fcfec50d7da70a40a1c7bfad3aca4f1c73301a21d76f6921425ed20df12b15822600102612575565b61437260698281548110151561424157fe5b9060005260206000200160009054906101000a900473ffffffffffffffffffffffffffffffffffffffff16856076600060698681548110151561428057fe5b9060005260206000200160009054906101000a900473ffffffffffffffffffffffffffffffffffffffff1673ffffffffffffffffffffffffffffffffffffffff1673ffffffffffffffffffffffffffffffffffffffff1681526020019081526020016000206004015461436d607660006069888154811015156142ff57fe5b9060005260206000200160009054906101000a900473ffffffffffffffffffffffffffffffffffffffff1673ffffffffffffffffffffffffffffffffffffffff1673ffffffffffffffffffffffffffffffffffffffff168152602001908152602001600020600401546178b3565b617977565b5061439f7f04b0fe784a4f0f8284cbbb6b00b8736fad4b5e4b08045485932d0cdb6f64a3c6600102612575565b81806001019250506143d37fecd17d05735ae2a73f9b454e17709beb8e565eb859b471feea1e44f760f48fcc600102612575565b6143ff7f295c46218e620c5daa8d5dbdf215266d8734914a6e39fd167b64877d28d6e93a600102612575565b608560049054906101000a900463ffffffff1663ffffffff168263ffffffff161115614456576144517fd1cabf672aa44b4f1e7cf44aeae91874a3a9e3f430a0cb08ae7f562aace9debe600102612575565b6144c1565b6144827f9e71d6f95db452fd7ef52a04a444dbe6e7214372dc13c9c9d1e3f328ee6e4c4f600102612575565b6144b4565b6144b37f291f76be806fc84ecd30794a1607931972db0f478acbf3f21afa996ee913648d600102612575565b5b8080600101915050613f80565b506144ee7fd9cbf58cab23258ee4b30affef65e399568676bfcab6fcde67983f7592df679f600102612575565b61451a7f5bd917ccd4c942e0ae31ef82a31d9df1ddbdb554dfde2f720cff995c4ae17b26600102612575565b8063ffffffff16915050919050565b60006145577fef0ee839a87e09beff700b1545467b1e7edec5145e69a952185625b7febbbeaf60010261617f565b6145837fbdf835ee0fe59519e68e959a2766d368864459c142b651dc6d6cc62e98a4928760010261617f565b6145af7fd14e8c1d0c70855f3f901075500965984cbea219b1fa4a42db605c475f4bbee460010261617f565b6145db7fbe47793fa43a6c9d58b424bbf96d50fa4160ae78cfe3c5dd4bc34ba1ea72138660010261617f565b6145eb6145e6616ae4565b612578565b151561465f576040517f08c379a00000000000000000000000000000000000000000000000000000000081526004018080602001828103825260188152602001807f5265737472696374656420746f204f70657261746f72732e000000000000000081525060200191505060405180910390fd5b61468b7f241ba548cc8253817305eb6cbd99b145edfcecbfaeaba1576d256fce484d5ab260010261617f565b6146b77fc0aad2c1f4c71d0d45099bfc691c3cd5b001f96af75e9e3b342f389f86c2614760010261617f565b6146e37fb9985cae29f5fb206a28fec9e4ddbd970bbb961cedcb0547cd4abe5fa8a7c87f600102612575565b61470f7f41e3925319947507f9485fc0981244fae56b0ab33235976fb8700db2e33706dc600102612575565b61473b7f89c9a80d067154a3dd9ba8d2b69aeb97535b9b1a5331f955574ee713f8831ac7600102612575565b6147677fa41caa0bd5533d31a05edfc35789e455b9408d5dab9281a02839d594556a7f97600102612575565b600073ffffffffffffffffffffffffffffffffffffffff168373ffffffffffffffffffffffffffffffffffffffff1614151515614858576040517f08c379a00000000000000000000000000000000000000000000000000000000081526004018080602001828103825260498152602001807f476c7577615072697a654c696e6b65644163636f756e743a205265636970696581526020017f6e74206164647265737320666f7220696e766573746d656e74206d757374206281526020017f6520646566696e6564000000000000000000000000000000000000000000000081525060600191505060405180910390fd5b6148847f9dcd3ebaba0908df6d509a8936302919db871e4c97aa6312946dc657a9c89054600102612575565b6148b07fd57f88ee5146d6830a52ac20e721981b7fbb0e436ec5bb53169956ce95d623ea600102612575565b6148dc7fb30f1aac961533c92f334952ad3dccdf2b7404ab6092303bb4ff696323eee4d7600102612575565b6000607560009054906101000a900473ffffffffffffffffffffffffffffffffffffffff1673ffffffffffffffffffffffffffffffffffffffff166370a08231306040518263ffffffff167c0100000000000000000000000000000000000000000000000000000000028152600401808273ffffffffffffffffffffffffffffffffffffffff1673ffffffffffffffffffffffffffffffffffffffff16815260200191505060206040518083038186803b15801561499957600080fd5b505afa1580156149ad573d6000803e3d6000fd5b505050506040513d60208110156149c357600080fd5b81019080805190602001909291905050509050614a027fb186dff979fb354ec642140fe42b22543fe813bc664637b7332104df9357586a600102612575565b614a2e7fe33882350298b6bc21fd5ea0c72c79c7e8f19b7c967fd373451dd5da795b7e6a600102612575565b614a5a7f61a7325aadee7f6db4af5c033fe235e9845b8534b7faa31efacc22d4887cb423600102612575565b614a926064614a84608560009054906101000a900460ff1660ff168461764990919063ffffffff16565b61771690919063ffffffff16565b83820310151515614b7d576040517f08c379a000000000000000000000000000000000000000000000000000000000815260040180806020018281038252606b8152602001807f476c7577615072697a654c696e6b65644163636f756e743a2074686520696e7681526020017f6573746d656e7420616d6f756e742077696c6c206d616b652074686520746f7481526020017f616c2062616c616e6365206c6f776572207468616e2074686520626f74746f6d81526020017f207468726573686f6c642e00000000000000000000000000000000000000000081525060800191505060405180910390fd5b614ba97ffd117a1522bed51dda690b0dc63ef5933cff3947c5e606a451f9cd0f803f049a600102612575565b614bd57f1e2e90becb699706d1ad2d7e7f2ff80c1f143c6a5bda7e7a15df70ba7c4e24f2600102612575565b614c017fc3a9dcf2d9043ee650f3682952b97f8ecce045e1342d09a7150d78033d052f8c600102612575565b607560009054906101000a900473ffffffffffffffffffffffffffffffffffffffff1673ffffffffffffffffffffffffffffffffffffffff1663a9059cbb85856040518363ffffffff167c0100000000000000000000000000000000000000000000000000000000028152600401808373ffffffffffffffffffffffffffffffffffffffff1673ffffffffffffffffffffffffffffffffffffffff16815260200182815260200192505050602060405180830381600087803b158015614cc657600080fd5b505af1158015614cda573d6000803e3d6000fd5b505050506040513d6020811015614cf057600080fd5b810190808051906020019092919050505050614d2e7f8d628599c60912b332cc244d14014752d620afc5574db91e1ac09b8a11944340600102612575565b614d5a7f5cf4bc71d9c12238d7f4577f202d7eb3d73b4e40efdf95d8bdcbb3c98fbc324a600102612575565b8373ffffffffffffffffffffffffffffffffffffffff167fc3f75dfc78f6efac88ad5abb5e606276b903647d97b2a62a1ef89840a658bbc3846040518082815260200191505060405180910390a2614dd47f70d77b68c0a367a957414181dfb514e69157ff1db22c0868714ad171691f7d6e600102612575565b614e007f12d4cf75664f5eb5efa3d611f4a633fe7e6eb16309f57f7861084a1d347873b6600102612575565b600191505092915050565b600080614e3a7f13b239aafe4c1ff3a6949aa4788605026ae088dae2f505c10bcf9a26b1ea9fbe6001026129ad565b614e667f7c6f8eb2bd481dca6e059f52afb4924d8e41afc6ee328b9cee362177018a98796001026129ad565b614e927fa08cd861dda6f1547b7e15c829ee8b99207e026f6baec4f3d05fc5d7b7d1dc696001026129ad565b8273ffffffffffffffffffffffffffffffffffffffff1660608473ffffffffffffffffffffffffffffffffffffffff169060020a0291509150915091565b6000614efe7f9b2d7cec472af26dd1bd892afafe2be066b09e44a7474e6389d058285c4b9598600102612e11565b614f2a7f050340438b0b1f0f74eb1ff71edc211936f7fbfc40a7bf8e9ffa724dc49364f4600102612e11565b614f567fb74ad924ba00500175ccb9c922e90ece5516bede925bc063783bc6086080a705600102612e11565b614f74603360008481526020019081526020016000206000016182a7565b9050919050565b50565b6000614fac7fef0ee839a87e09beff700b1545467b1e7edec5145e69a952185625b7febbbeaf60010261617f565b614fd87fbdf835ee0fe59519e68e959a2766d368864459c142b651dc6d6cc62e98a4928760010261617f565b6150047fd14e8c1d0c70855f3f901075500965984cbea219b1fa4a42db605c475f4bbee460010261617f565b6150307fbe47793fa43a6c9d58b424bbf96d50fa4160ae78cfe3c5dd4bc34ba1ea72138660010261617f565b61504061503b616ae4565b612578565b15156150b4576040517f08c379a00000000000000000000000000000000000000000000000000000000081526004018080602001828103825260188152602001807f5265737472696374656420746f204f70657261746f72732e000000000000000081525060200191505060405180910390fd5b6150e07f241ba548cc8253817305eb6cbd99b145edfcecbfaeaba1576d256fce484d5ab260010261617f565b61510c7fc0aad2c1f4c71d0d45099bfc691c3cd5b001f96af75e9e3b342f389f86c2614760010261617f565b6151387f55fb64c4d4d6cf94ce8a413d66cc411b6dca416c50fa2be261047c4c5e507a7f600102612575565b6151647fd436c8654e955acd1211f29a5aa18846bedb3f78d5ce3cc2fa9636ad9194a72e600102612575565b6151907fa1ce5180c6ab847e296c90ab909d21b74a90bd346200740c09675152f17d324f600102612575565b6151bc7fc06f9ab0a42067a3032004a1a614e8eb2400747d61d289999b531b49d72db4b2600102612575565b607560009054906101000a900473ffffffffffffffffffffffffffffffffffffffff1673ffffffffffffffffffffffffffffffffffffffff166323b872dd8630876040518463ffffffff167c0100000000000000000000000000000000000000000000000000000000028152600401808473ffffffffffffffffffffffffffffffffffffffff1673ffffffffffffffffffffffffffffffffffffffff1681526020018373ffffffffffffffffffffffffffffffffffffffff1673ffffffffffffffffffffffffffffffffffffffff1681526020018281526020019350505050602060405180830381600087803b1580156152b557600080fd5b505af11580156152c9573d6000803e3d6000fd5b505050506040513d60208110156152df57600080fd5b810190808051906020019092919050505015156153b0576040517f08c379a000000000000000000000000000000000000000000000000000000000815260040180806020018281038252604d8152602001807f476c7577615072697a654c696e6b65644163636f756e743a20556e61626c652081526020017f746f2073656e6420616d6f756e7420746f206465706f73697420746f2061205381526020017f6176696e67204163636f756e740000000000000000000000000000000000000081525060600191505060405180910390fd5b6153dc7ffc1a22c806fb858100e543a0113f5030549cf1d5e9914e9ff96548df49587702600102612575565b6154087f652e117f8199b91a755823b95c9a7ccbe183fafb662283f460b330e5ba66a30a600102612575565b6154347f04ac96bf3f7bedf438d92468329e5048138da52c598656dd27de0b9a97675886600102612575565b600061548686864287878080601f016020809104026020016040519081016040528093929190818152602001838380828437600081840152601f19601f82011690508083019250505050505050618340565b9150506154b57fb92dbc1cac19b913178a237a11f0087dfc4f8ddcb0b81ce1296c9792a388d4fb600102612575565b6154e17f833f3b4341ff58a0e7be1edbb5dfc0dc374fc9896a676dbbe733866d03cf74d5600102612575565b6154ea8161946e565b915050949350505050565b6155217fd93c5a94a5b1886c0bb5575c3cca63b6410bf5cc633908251d561210acc14eaa600102612e11565b61554d7f52b73aa8f50ab99b6810012a79aa4f25995f134e8c54dbcb5d80e568f5fdfbe7600102612e11565b6155797f4de32a619436a15decb84a173b4469efaa235be2016b7657229d7bb4d915f167600102612e11565b6155a57fd8479504df472c40b9d2d46578fc0bad271dba561f3c3bfae8432ee4398cd9a8600102612e11565b6155cc60336000848152602001908152602001600020600201546155c7616ae4565b61387e565b1515615666576040517f08c379a00000000000000000000000000000000000000000000000000000000081526004018080602001828103825260308152602001807f416363657373436f6e74726f6c3a2073656e646572206d75737420626520616e81526020017f2061646d696e20746f207265766f6b650000000000000000000000000000000081525060400191505060405180910390fd5b6156927f056ca1d611325f492ec9a258615105c0c61c1935da3efbb61fbb153378d318dd600102612e11565b6156be7fb300cb213a808a8d25947dc127c3188ce2125091b485b407bb84a476fe38d0dc600102612e11565b6156ea7f7b5ca71ff0c3170626af9f1558f947e9704f6758fabb43f6074fe812966bce56600102612e11565b6156f482826171ba565b5050565b60608060008061572a7f7c36b0bd26f5b34abdc80b983f14a3b49aea03dfb469ac6617f36f3214716011600102611b36565b6157567f57992dc55ae2bd2bc00a1edba37970d7078af38a12bfd8216fe95a828d3371e5600102611b36565b6157827f73cdd953316863f7c9f49d53db46b3f0c6b3b6a056ca2661cef2136875064a91600102611b36565b6081600086815260200190815260200160002080548060200260200160405190810160405280929190818152602001828054801561581557602002820191906000526020600020905b8160009054906101000a900473ffffffffffffffffffffffffffffffffffffffff1673ffffffffffffffffffffffffffffffffffffffff16815260200190600101908083116157cb575b505050505093506158487f9ba21e4aec720ae0cdb3661d106d7b3c28070fbb50cb84e88bd961d62b076fd0600102611b36565b6158747f30d70e9297c991dbec33d213f5b005ad6b02e6fd0a439021e89f50f6d8c11d4d600102611b36565b607d600086815260200190815260200160002080548060200260200160405190810160405280929190818152602001828054801561590d57602002820191906000526020600020906000905b82829054906101000a90046bffffffffffffffffffffffff166bffffffffffffffffffffffff16815260200190600c0190602082600b010492830192600103820291508084116158c05790505b505050505092506159407f48774ebfebefa3ea0f6e15f3f370e30b2f771d11102a8f636cd63f58a7f7f87e600102611b36565b61596b7e7ada6c75b75c88ab670ea9835039b78d0bc9aceda545dd93c6b6fb7c68a556600102611b36565b608260008681526020019081526020016000205491506159ad7f051748605349ac2a39b449d75ef8bb2cecc1e3a5e450552dc6cd33208527e6f6600102611b36565b6159d97f4dce12d33aa2e960503b93d9fc9657890c5f4c093cec9eb9b025f54b6c2dfab0600102611b36565b608360008681526020019081526020016000205490509193509193565b600080600080615a287f902af90d001c6b1c4c8b19ae65e63a8f22f702b5ff2c1fbc3c84be450ac13a0d600102612575565b615a547f8fc2f0a12bf805de42743f3478d08125788de5f4177fc315093b26277592d49a600102612575565b615a807fd721db7e9ef2543b6bd9b70c9a7b0e59a1c5a25ab43a3184ddca1261ed15332c600102612575565b615a89856198e8565b93509350935093509193509193565b6000615ac67fef0ee839a87e09beff700b1545467b1e7edec5145e69a952185625b7febbbeaf60010261617f565b615af27fbdf835ee0fe59519e68e959a2766d368864459c142b651dc6d6cc62e98a4928760010261617f565b615b1e7fd14e8c1d0c70855f3f901075500965984cbea219b1fa4a42db605c475f4bbee460010261617f565b615b4a7fbe47793fa43a6c9d58b424bbf96d50fa4160ae78cfe3c5dd4bc34ba1ea72138660010261617f565b615b5a615b55616ae4565b612578565b1515615bce576040517f08c379a00000000000000000000000000000000000000000000000000000000081526004018080602001828103825260188152602001807f5265737472696374656420746f204f70657261746f72732e000000000000000081525060200191505060405180910390fd5b615bfa7f241ba548cc8253817305eb6cbd99b145edfcecbfaeaba1576d256fce484d5ab260010261617f565b615c267fc0aad2c1f4c71d0d45099bfc691c3cd5b001f96af75e9e3b342f389f86c2614760010261617f565b615c527ff47c8889674a7e52abd5b06ec4f424727cbd8fd9929afc2a2af32a02cd648aef600102612575565b615c7e7ff04088cbabb8d585b26f68b6092b512dca2cb2c5493f12ed2f9fab549554adc8600102612575565b615caa7f2890737e77a3cc17df7a02c65a270a3f309255caef5f82ee5dab772d9a1790c8600102612575565b615cb48383616beb565b905092915050565b600060019054906101000a900460ff1680615cdb5750615cda619abc565b5b80615cf257506000809054906101000a900460ff16155b1515615d8c576040517f08c379a000000000000000000000000000000000000000000000000000000000815260040180806020018281038252602e8152602001807f436f6e747261637420696e7374616e63652068617320616c726561647920626581526020017f656e20696e697469616c697a656400000000000000000000000000000000000081525060400191505060405180910390fd5b60008060019054906101000a900460ff161590508015615ddc576001600060016101000a81548160ff02191690831515021790555060016000806101000a81548160ff0219169083151502179055505b615e087ff9a7814f3e2128b273ffcdfa81637e379c2a1981df4c6e59fec9b6245d47c9e0600102612575565b615e347f1e2aaf62b6281a97b18530cb213bda0601371660f3ccd5e7650ba7a2a2dc290e600102612575565b615e607f79944a3a0ce64be580f5c2533f6224bb4c8f6e55ab08c38311bc3b0de15147ce600102612575565b615e698c619ad3565b615e957f84142ada7d54f8294d982d77e84c506e4ebf71a6e6a8929dc6468cdca254b20d600102612575565b615ec17fdd2e85517e667d030ccb809dc02f3543108e2a5e70dd927f77c9a8a594e91b10600102612575565b615ece8b8b8b8b8b619ddc565b615efa7fa31b1a46fe654b8214ce8780cb04e88051018ff49ed0d929639c54af16d37a03600102612575565b615f267f6b1d3517277c6dae7c17baff232a77586dc13e733d24d39144b09aff7ecff630600102612575565b615f3185858461a2f0565b615f5d7fb55f637aec5ea17df8d730c46751dbfa10f5154ff466b43dac32633057596736600102612575565b615f897f8f43cc292f22eccf19fb0e91fd36c4e31d3a3ea377ca734b6268c612006c6c0c600102612575565b82608560046101000a81548163ffffffff021916908363ffffffff160217905550615fd67f1699edaedc9a0279b78810e72027cdfd7548ce0ba68adcab7134bc7a2924de71600102612575565b6160027ffbb2231a60b23c47f6efeb95679d935eb66f00ee07b920f2b12efafb0b77bfcc600102612575565b607560009054906101000a900473ffffffffffffffffffffffffffffffffffffffff1673ffffffffffffffffffffffffffffffffffffffff1663313ce5676040518163ffffffff167c010000000000000000000000000000000000000000000000000000000002815260040160206040518083038186803b15801561608657600080fd5b505afa15801561609a573d6000803e3d6000fd5b505050506040513d60208110156160b057600080fd5b8101908080519060200190929190505050608560016101000a81548160ff021916908360ff1602179055506161077fc99db7348e08c2dce72ee319f4479aa75684efefd9d0d1b65a7c7624a979a7a8600102612575565b6161337fdffdb994ba241c0319ac950942effbd59462326ed703faabd0e960b73b1a4c3d600102612575565b85608560026101000a81548161ffff021916908361ffff16021790555080156161715760008060016101000a81548160ff0219169083151502179055505b505050505050505050505050565b50565b60006161b07fc9cb45d0bf10e6af1b5b19854bc22abb12a6ce6d2f3d6d17a3458b6e3007cfb1600102611b36565b6161dc7f64ae18e454d090e2f0263f7cbb36a4aa2890c5c054c6af5cc79042ee0d3cd4b1600102611b36565b6162087f48fd48f1275171a2aaecc142b245052ba266fe62db5c3296f7d23ce69b3c4b78600102611b36565b6162347f2ccee3d41399f5665297836297dc0c1d8362ffe4dd10655e490f0f49cb4fb40d600102611b36565b600060826000848152602001908152602001600020541115156162e5576040517f08c379a000000000000000000000000000000000000000000000000000000000815260040180806020018281038252602a8152602001807f476c7577615072697a65447261773a20746865206472617720686173206e6f7481526020017f206265656e206d6164650000000000000000000000000000000000000000000081525060400191505060405180910390fd5b6163117fe754df3550e5545428fc407a1853bad83cca4e56618ac32c7055a60c6127cf5c600102611b36565b61633d7f1bbbeb94f2a61126e73393d5f85f8485bc8d3b5853c466de733c3c6036d1e713600102611b36565b6163697ffc04913b10b04ac933a570b99d226578fe349719e87f25cde948923a84202b97600102611b36565b60008090505b607d60008481526020019081526020016000208054905081101561675d576163b97ff97f446a33eadc03c55b69b1b4fa0a437c7a0c3130507ba6398bf6630cd70c5d600102611b36565b6163e57f632148f02c13fd87a4a30c099eb3e7a00d553aa4d23bcdd382b1a08ad0daa406600102611b36565b607c6000607d60008681526020019081526020016000208381548110151561640957fe5b9060005260206000209060029182820401919006600c029054906101000a90046bffffffffffffffffffffffff166bffffffffffffffffffffffff16815260200190815260200160002060010154607c6000607d60008781526020019081526020016000208481548110151561647b57fe5b9060005260206000209060029182820401919006600c029054906101000a90046bffffffffffffffffffffffff166bffffffffffffffffffffffff1681526020019081526020016000206002015411801561655a57506082600084815260200190815260200160002054607c6000607d60008781526020019081526020016000208481548110151561650957fe5b9060005260206000209060029182820401919006600c029054906101000a90046bffffffffffffffffffffffff166bffffffffffffffffffffffff1681526020019081526020016000206002015410155b80156165ea57506082600084815260200190815260200160002054607c6000607d60008781526020019081526020016000208481548110151561659957fe5b9060005260206000209060029182820401919006600c029054906101000a90046bffffffffffffffffffffffff166bffffffffffffffffffffffff1681526020019081526020016000206001015411155b156167245761661b7fde18cf5ff95ccd1fd548003d8652c920736f51b1ef72a3544b6c54e1967e87f0600102611b36565b6166477fd0a5d6fb8d3ba4582907d740423226a5ac609292ed08b7d22ddcd50ed81ba427600102611b36565b6166737f737c0350da452b140ec187f625132fc2adc8b4e7ac5f772b090ed53242722a30600102611b36565b6166ed607c6000607d60008781526020019081526020016000208481548110151561669a57fe5b9060005260206000209060029182820401919006600c029054906101000a90046bffffffffffffffffffffffff166bffffffffffffffffffffffff1681526020019081526020016000206000015461a67e565b90508092505061671f7f3db1f9df08495ff9779dcadf3469052982dee809a63210fc0a11af1ba6ab17e4600102611b36565b61675d565b6167507f4cd22882db7ad884c875dd9d60e1b0768bbbf57983d0393f2325021caf213093600102611b36565b808060010191505061636f565b50919050565b60006167917fef0ee839a87e09beff700b1545467b1e7edec5145e69a952185625b7febbbeaf60010261617f565b6167bd7fbdf835ee0fe59519e68e959a2766d368864459c142b651dc6d6cc62e98a4928760010261617f565b6167e97fd14e8c1d0c70855f3f901075500965984cbea219b1fa4a42db605c475f4bbee460010261617f565b6168157fbe47793fa43a6c9d58b424bbf96d50fa4160ae78cfe3c5dd4bc34ba1ea72138660010261617f565b616825616820616ae4565b612578565b1515616899576040517f08c379a00000000000000000000000000000000000000000000000000000000081526004018080602001828103825260188152602001807f5265737472696374656420746f204f70657261746f72732e000000000000000081525060200191505060405180910390fd5b6168c57f241ba548cc8253817305eb6cbd99b145edfcecbfaeaba1576d256fce484d5ab260010261617f565b6168f17fc0aad2c1f4c71d0d45099bfc691c3cd5b001f96af75e9e3b342f389f86c2614760010261617f565b61691d7fa6e2e0fac632267809c1730876d0dd4dcb34e78490ca525e7fb6b8dfebf51e75600102612575565b6169497f2e791255a86b134d317ce1fd6d8593fc0619586385cc0169603ffb6e216963b1600102612575565b6169757f1c18fbe36c0bf21be8d23b67c95aa51d2dbeab294df7b1c0881a159f1af3ecff600102612575565b606060206040519080825280601f01601f1916602001820160405280156169ab5781602001600182028038833980820191505090505b5090506169da7f01f98095bdb4871bd3cd472191fd2a3fffdc20a06d2c780c8e6682291d944467600102612575565b616a067fee0809b58aeeed26c30fc6ba6d875b96116194bedc82363fc1cff54182bdce12600102612575565b6000309050616a377f0c3e9f168ebfb4977cf472feeaa28e1f043f0a2f2b7739c3a79275d5177cb43c600102612575565b8084186020830152616a6b7fcf946496a68af8ab72dc0833344b0ca929f3401b5463d4651add61d4a119b11e600102612575565b616a977f4055094ee938ac478c67721fa04da3c5e6130172fcf7895af3203ad5d7032405600102612575565b616aa1858361a774565b9250505092915050565b60405180807f4f50455241544f520000000000000000000000000000000000000000000000008152506008019050604051809103902081565b600033905090565b6000616b1a7fecc66ef73617483bf11170cfc64ebf960a85e9f36829325d0d9826e0192e1f79600102612575565b616b467f75b90450686dc5909ec7bd91f9d9039a8235470207c73cf2577011bfeb11df53600102612575565b616b727f5c3662514b5af44deb909ab72f898700a46799266c1d08e11f48e236aed8a641600102612575565b6000616b7f84844261aa5b565b9050616bad7f3a61ce631acefc061885100fa00827cc97b5c93817dbb40c3c277a766f34cf71600102612575565b616bd97f04d34a11a149fd12dcc7da00db4db2c6c5b46f8d538990fe8181738b95ade60e600102612575565b616be28161946e565b91505092915050565b6000616c197f055d1a4cac8420fe2f0ef9125ad984bd62db843ef1bb2ac099b5cd8c7c7cda16600102612575565b616c457fa6fcc05efcef1c8d7f5e40a4ec55c6223d0dc4681bd293e43bbec8c230464e4a600102612575565b616c717ff5f75558e4fc864ab2178ef2f497edd527acad1bff1060fefc6dd41afbcea26b600102612575565b6000616c7d848461b315565b9050616cab7fc5a5b2fe6449602cfdfd593c921b094a06d3e15840ad3f2d5dbb67794b38cc54600102612575565b616cd77f27709734daa1fa3965ca025f974860583ff8fed1c0cb907f6f902bc60c3904cf600102612575565b6000616ce2826178b3565b9050616d107ffe87d3712ed22cc2ee45b38688206d2f3f0caec5b6c6d55e1840b6e5161ec995600102612575565b616d3c7f06da2979439f848af7278d004f2f6f3c78aa696877984cdbbbba4a7bc489a531600102612575565b6000616d474261b867565b9050616d757f591bba838a957c9eae52cd278289638b1cbaffb28d4f0e2e3f02906ff6d14529600102612575565b616da17f548ad73e78a72a1f172ccc5cb47debddfb89542ec1a61a821db15afd182a9fd2600102612575565b60006201518082039050616dd77f3bfca3da8a738e97b8d886da18a71c0cf0181e5451dd251db086ded623a858c3600102612575565b616e037f87c7f9574e9f862bb7bf3b9ab9305e831b38f1da0ed3d427966be43fa0f4b2f4600102612575565b616e0f8783888661c43d565b50616e3c7f293cc16895c033ce2f757f7593eac138ff75c77899c8072dab9b48949ff7809c600102612575565b616e687feadf27bffebf2c2d2002a7d7539979d6420915a24d053060d9f36bba807057ac600102612575565b6000607f600083815260200190815260200160002060008973ffffffffffffffffffffffffffffffffffffffff1673ffffffffffffffffffffffffffffffffffffffff168152602001908152602001600020805490501115616f5a57616ef07fb35829b702072203f709e0748491c3f1b289b2aae4713cfc8360dbe699b8a964600102612575565b616f1c7f635141b229dc79ffa55ded2a64ea2b76683daa859141926eb8f581ca170114e1600102612575565b616f487fb196c774e48dbc0b072c431372a3db70bdaf6e5afd2490fd4ba1473269964650600102612575565b616f548782888661c43d565b50616f87565b616f867fc67660cf410419900083eb1200a11fb544ab29325f82f01a3cbdb8b6ddf7116c600102612575565b5b616fb37fda196891401d4a117d4158caba9e18b0eb05950b8249b583e45ea05c3681bacf600102612575565b616fdf7fc062c3862d8b40cba4e6844b040853a31c3eb30841289529fa726d8c6956cebe600102612575565b600194505050505092915050565b6170197fe61146cafdbd435fd1a44f216470c1c771b447cea185fd63a791eedb5de9a633600102612e11565b6170457f5574652d96785064c2df2826f0e7f7e329e984e6292358773864c6cc71ea7a07600102612e11565b6170717f89299f8a83d41798f187ab3c16a70e02bdf5aa620db00df7f88c09b4627ffa55600102612e11565b617099816033600085815260200190815260200160002060000161d08890919063ffffffff16565b15617189576170ca7fbfdadd76f305d8adf092ee65907cc86e4f224d2c66f9af5c0b3cdfcc1f3e8fc2600102612e11565b6170f67fcedeb60ed9b0b45ad4375b68166468c8488c71bf3878d408ea58b70a4df19c82600102612e11565b6171227f1ec6cce1ca0f17106fd0dac964533ee10f89f102e5bae6dbc54b66910cc69190600102612e11565b61712a616ae4565b73ffffffffffffffffffffffffffffffffffffffff168173ffffffffffffffffffffffffffffffffffffffff16837f2f8788117e7eff1d82e926ec794901d17c78024a50270940304540a733656f0d60405160405180910390a46171b6565b6171b57fa423d3155a2779de3b70eb057d48003daeb03c8d3bb306efff5033bc719fc2fc600102612e11565b5b5050565b6171e67f45d238e764e3ea305d63d3fecf831285bf4eeaa1602f8de3df539857efac6c6e600102612e11565b6172127fd00292ef3da039d8d5902c68958a6f7752a2ffe2226bd360d69710be605255e6600102612e11565b61723e7fed1ced23b5805fee7e1c4e215ebaeac2f4a0616598ef298fcbadac346ab2d79a600102612e11565b617266816033600085815260200190815260200160002060000161d13c90919063ffffffff16565b15617356576172977f826526b9616b034266aa27340c33caeb270bdeadf7b8b0cde8ae08641dc91f37600102612e11565b6172c37f226565b49fb47c4504f044f0dcd11986fe7dc0b5e42f1a509860c276c7fae30d600102612e11565b6172ef7fd9f428e21258c7d2b12bdfe6699679598dafb5e658e8bef5d9afd4c2018cf3ea600102612e11565b6172f7616ae4565b73ffffffffffffffffffffffffffffffffffffffff168173ffffffffffffffffffffffffffffffffffffffff16837ff6391f5c32d9c69d2a47ea670b442974b53935d1edc7fd64eb21e047a839171b60405160405180910390a4617383565b6173827f1cac82cfced3a405bd841fcf2c172c803008784d1a7415be41fe798cb3dd4980600102612e11565b5b5050565b600080600080600080600060606173c07f96b7243fbf7e39b4dbafba3bea40cf65b2a8a2981e4d691f45fbe8051b4c1768600102614f7b565b6173ec7f3d79eb7efb2ac22f905fa98d8077cf7a5288b224bce8b661262d0341c1c02157600102614f7b565b6174187f9d61ecf923815bcd30b35fff050fb785d71a81e57129e1e62a28b4d244cfe30f600102614f7b565b6000607660008b73ffffffffffffffffffffffffffffffffffffffff1673ffffffffffffffffffffffffffffffffffffffff16815260200190815260200160002090506174877f4d1da28b6ff493badbc82631932ee6faaa25c42646bf1875efa2b7b47d4eb2ae600102614f7b565b6174b37f77bc20e82f623d7791695aa51b5575507239779965e590de6f295de80778e8a0600102614f7b565b806000015481600101548260020160009054906101000a900473ffffffffffffffffffffffffffffffffffffffff168360030154846004015485600501548660060160009054906101000a900460ff1687600701808054600181600116156101000203166002900480601f01602080910402602001604051908101604052809291908181526020018280546001816001161561010002031660029004801561759c5780601f106175715761010080835404028352916020019161759c565b820191906000526020600020905b81548152906001019060200180831161757f57829003601f168201915b505050505090509850985098509850985098509850985050919395975091939597565b600080828401905083811015151561763f576040517f08c379a000000000000000000000000000000000000000000000000000000000815260040180806020018281038252601b8152602001807f536166654d6174683a206164646974696f6e206f766572666c6f77000000000081525060200191505060405180910390fd5b8091505092915050565b60008083141561765c5760009050617710565b6000828402905082848281151561766f57fe5b0414151561770b576040517f08c379a00000000000000000000000000000000000000000000000000000000081526004018080602001828103825260218152602001807f536166654d6174683a206d756c7469706c69636174696f6e206f766572666c6f81526020017f770000000000000000000000000000000000000000000000000000000000000081525060400191505060405180910390fd5b809150505b92915050565b600061775883836040805190810160405280601a81526020017f536166654d6174683a206469766973696f6e206279207a65726f00000000000081525061d1f0565b905092915050565b600061778e7fce6780c9791539d4b535110e5f37ac673065f4323db660d106ca02aa1d285fa460010261d2ba565b6177ba7ffbb9bcdc37fee55342a6e5f3b0cdbb752548768d55279e4aa36e439eddd3c2f260010261d2ba565b6177e67fa4f2a0d467db387349dc6ef5b5b84f1f806887ff1d40b65e1320c6d722ee9f1360010261d2ba565b6177f3836000018361d2bd565b60019004905092915050565b600061782d7f676774ccb1be05ce8a1fe3012d02b51ed6e18267ffa29aa002ff672c33d32ee960010261d2ba565b6178597fd863485f4fc7f6d5d8aa55308bee6b8486345b0154e2c013f988cdd9179492f760010261d2ba565b6178857f73150ee5ee22f81cc4cbb0207d32b0cf721faf35271afc42fb2a2f9de941f52160010261d2ba565b6178ab836000018373ffffffffffffffffffffffffffffffffffffffff1660010261d4bb565b905092915050565b60006178e17f25c9d0ffdc168da5ca5a9edfe4529e7b902a78a5f6c9647ce9cb177f02a8ac3e600102612575565b61790d7f30be0bc5f9b6350dfe8facb2ea36a5912023737f69cd70a479e75f62f9251417600102612575565b6179397f79c71ca22ffb61c2c72e4170a9b068447cbcb91e3747b1e362391715cd8d94cb600102612575565b608560019054906101000a900460ff1660ff16600a0a608560029054906101000a900461ffff1661ffff16830281151561796f57fe5b049050919050565b60006179a57ffdd89320185995bfc90bd2f435a9e7d12cff2e212aae18da6f0c108a2fefca4f600102611b36565b6179d17fdbc8a71c599f71825cdc422cf59f398f8a51348d18be2d4257eab9c208d7587b600102611b36565b6179fd7fc5b503a3cde8ae5bf7e248fa24ec9a90f4b2c81090d36d4d2aca1fbc4bc22b92600102611b36565b6000607960000160009054906101000a900466ffffffffffffff1666ffffffffffffff169050617a4f7fef3003f0129bbc70afd32f619ac0b9e9e53ed070a15d073afbfeca0f18b09bad600102611b36565b617a7b7fe9ccc8f3b1a0e88304e9986a4a95212986391b5760dbfd02de12dc7a06c04b52600102611b36565b60008673ffffffffffffffffffffffffffffffffffffffff169050617ac27f9320883c9245d2acdf532a3a29eb3ddefbac50f535da86ece2d53fd81c7aedfa600102611b36565b617aee7ff89fb822d335b9dc601a9556cc5e96ac1e4c2e7dc0e0ae35cbb7a4b8810f116a600102611b36565b60a0826bffffffffffffffffffffffff169060020a0281179050617b347f537eb45c1ef919b66c047975f45174e60e410ff842f4d66c056e79d83dfe664c600102611b36565b617b607f656ad3b4f3c2a307d171ab15abb22494d1c9c629f1eb6f2d37f3dd5b1ee24713600102611b36565b6000607e600088815260200190815260200160002054607a60039054906101000a90046fffffffffffffffffffffffffffffffff166fffffffffffffffffffffffffffffffff16019050617bd67f073e147acc3d18fc219e164c20766a065a5acad263b4651f7781989ce2357596600102611b36565b617c027f78090439c7bf2e1293da69fc94da1fc52cf54f5f72aa4760cc25bf22de111853600102611b36565b60008582019050617c357f53d430737d556e4e55940f9eed7c24e195849be3483580700603371007507040600102611b36565b617c617f5da47253ec3c3274e2ab7298d503a555d02c7232c501dcd08134ad2771f8ba10600102611b36565b60606040519081016040528084815260200183815260200182815250607c6000866bffffffffffffffffffffffff168152602001908152602001600020600082015181600001556020820151816001015560408201518160020155905050617ceb7f5439116f482646a7d52d71066ec257f2baab37e8cb33e66e4f9bc70682cce037600102611b36565b617d177f13f6c725b8f9eebc3e3b1f11af3f6436381c10d460a256e370a0097ffc234d04600102611b36565b86608360008a815260200190815260200160002060008282540192505081905550617d647fc4c96cf46eeba2873e9ca10840c8f682bf3cf4105689f517332f6e5d1d8040a6600102611b36565b617d907f7d1abfce3f4cdd03f44ae6cf0f8b5ddb772995bd692bb263f3c23339b515135c600102611b36565b86608060008a815260200190815260200160002060008b73ffffffffffffffffffffffffffffffffffffffff1673ffffffffffffffffffffffffffffffffffffffff16815260200190815260200160002060008282540192505081905550617e1a7f081b29c9b5d9e4920545d94197af44ad21881b03f6f5e10e461d18cb9fd078dc600102611b36565b617e467f0969465ef6c5ea50e8d3fd9a540cc241fb18b46edf5daab89808dff32f5201e1600102611b36565b608160008981526020019081526020016000208990806001815401808255809150509060018203906000526020600020016000909192909190916101000a81548173ffffffffffffffffffffffffffffffffffffffff021916908373ffffffffffffffffffffffffffffffffffffffff16021790555050617ee97f0671443b48b8db258579dcba632918e8affbd05437db35fe8da4eae40266f0ed600102611b36565b617f157f76e9c5df0eb03553c01aa0bc5b1875e59946e72a4831e122dd929fa71e53b188600102611b36565b607f600089815260200190815260200160002060008a73ffffffffffffffffffffffffffffffffffffffff1673ffffffffffffffffffffffffffffffffffffffff168152602001908152602001600020607960000160009054906101000a900466ffffffffffffff16908060018154018082558091505090600182039060005260206000209060029182820401919006600c0290919266ffffffffffffff16909190916101000a8154816bffffffffffffffffffffffff02191690836bffffffffffffffffffffffff160217905550506180117fd78789dcc5df825e09b94ecb8425a5c8355ac6677c2b5a6e7a6652342d1c1188600102611b36565b61803d7fa14fcbcab4a892575ad23caa397f375fff3d33ee46c48ea6c92114c7c9ce5e63600102611b36565b607d600089815260200190815260200160002084908060018154018082558091505090600182039060005260206000209060029182820401919006600c02909192909190916101000a8154816bffffffffffffffffffffffff02191690836bffffffffffffffffffffffff160217905550506180db7fc035af89a7a7fdab8d5b2c3923781b6f849dc4b22ec49186aeab341196e0ade3600102611b36565b6181077f0c9b38d7c3a65c3cc43fd5ad7ae3993a6d93fd697e31957f51397f60e47de362600102611b36565b80607e60008a81526020019081526020016000208190555061814b7f381080a9f8721aa0664b32dddbd723e4c698f38e9df2cbc323c6ccbdf1c53cea600102611b36565b6181777fc80f4cece3c2167176cd3daee7a2b9c69961deb2c488b1339fb5808b0c50ac84600102611b36565b8873ffffffffffffffffffffffffffffffffffffffff16846bffffffffffffffffffffffff16897fa0f62cfa805b8a221820e6091364400400ec918a02277ac3d0438e98369eadb68585604051808381526020018281526020019250505060405180910390a46182097f62084f7b105f12b0759924635bb5bfbf4b8f468bf9e9602362155b8346484655600102611b36565b6182357fc6b5058ad1548c6ca49bb1d28ecae089997f2bece577e784c81db0684e31d950600102611b36565b61823f607961d563565b61826b7fa17398b5bd6815cbf87da4f9a9c0705dfd0842fa79935314fcc95cf49a7181b4600102611b36565b6182977fb814d31f5d4c16fb9afbfdd58f41820fd86d8a1f15872a35ece725947e6bf4d0600102611b36565b6001945050505050949350505050565b60006182d57f5fd0ab04ce135edde569c47a2d29797cbed89dc380006990af6c8eae49d7a9f460010261d2ba565b6183017f3e19fe6e6efb02a1ebef6a267fad15b53c4d11a170170627b9e55aa49eddd26660010261d2ba565b61832d7f3671881e88505942ef207df95d6f463068dfac0620aa98df7cc09463129ea99260010261d2ba565b6183398260000161d604565b9050919050565b60008061836f7f56ca7feaf246e3771784b54fb54b9b6ee10514bd64de526aa51dbeefc9deb439600102614f7b565b61839b7f2a0d22da8e991b89711d6308a38079ef47c8c8603cf616f9dca6f6b10f70d745600102614f7b565b6183c77fba7a3f687c5ae1aaa5f691e8acfcb9803f3ef694369f5a01311767eee489b3d1600102614f7b565b6183f37fbbe611060714f972353adf43ebc7841f7c51d4d2e87b95822fa5e43804fdf49b600102614f7b565b606654856074540111151515618497576040517f08c379a00000000000000000000000000000000000000000000000000000000081526004018080602001828103825260268152602001807f476c757761536176696e674163636f756e743a2042756467657420697320657881526020017f636565646564000000000000000000000000000000000000000000000000000081525060400191505060405180910390fd5b6184c37fd9aa07dc2fdf21ff6d9dc6035d294b67f7ea05f7a7dd392f0abfa9f67bb0707e600102614f7b565b6184ef7fe6d8e582b5ccead73f67eb90099d5f256656f549eea1c09bc3c6a7e73e07cc74600102614f7b565b61851b7f75916e65316b56c0aa0ba683d2eeb9ff63a9874c7c81211acbef5d5a04472466600102614f7b565b6185477ff4b56094aaf5ac2cb270e6c04b80589fb528196f00ddb9d25f4bea209e89cd1d600102614f7b565b600073ffffffffffffffffffffffffffffffffffffffff168673ffffffffffffffffffffffffffffffffffffffff1614151515618612576040517f08c379a00000000000000000000000000000000000000000000000000000000081526004018080602001828103825260388152602001807f476c757761536176696e674163636f756e743a20536176696e67206f776e657281526020017f2061646472657373206d75737420626520646566696e6564000000000000000081525060400191505060405180910390fd5b61863e7fe2064ecda43658bce43fbf2e4a4650e0b2419dd87d1c429c69e406fa1d96cb22600102614f7b565b61866a7f47037449925b55103db30c98d27d8ca0b7885ab667b5b16d296ae241e8ac9ff1600102614f7b565b6186967fb1984e31da7081381a9af027766a1299f9dd9601711d4803eda543fe2a4b9c17600102614f7b565b6186c27f8520bbdc1065c48f0f20efc1f79dd197d8ca4e1eccca4a47e190ce4a84b9b189600102614f7b565b6000607660008873ffffffffffffffffffffffffffffffffffffffff1673ffffffffffffffffffffffffffffffffffffffff168152602001908152602001600020600301541415156187c8576040517f08c379a00000000000000000000000000000000000000000000000000000000081526004018080602001828103825260478152602001807f476c757761536176696e674163636f756e743a2045616368206164647265737381526020017f2073686f756c642068617665206f6e6c79203120536176696e67206163636f7581526020017f6e74206f6e6c790000000000000000000000000000000000000000000000000081525060600191505060405180910390fd5b6187f47fda5a49efd6a9275f6de973b1973d9652d06f46ebce2a10ac9f6b0d32187fd896600102614f7b565b6188207f6311c1acba6ba6a0ac8ef65fbb928cf10b9a8c602290410b2b2f9a2732c6f990600102614f7b565b61884c7f29f579870e139648b7a4dab6da4a649a60074ddd1a90f31bc8e9755a0207163a600102614f7b565b6188787f4eb49c94e8eb0a6e62e632a2704874592daa97ddf77837ff3be43f1d3863c1e4600102614f7b565b600015156078846040518082805190602001908083835b6020831015156188b4578051825260208201915060208101905060208303925061888f565b6001836020036101000a038019825116818451168082178552505050505050905001915050908152602001604051809103902060009054906101000a900460ff161515141515618992576040517f08c379a00000000000000000000000000000000000000000000000000000000081526004018080602001828103825260318152602001807f476c757761536176696e674163636f756e743a204964656e746974792068617381526020017f6820697320616c7265616479207573656400000000000000000000000000000081525060400191505060405180910390fd5b6189be7f0a44630ebdb1427c3229ac6c5f57a4a4edafdceea23d811259a9fb17c8b92b1b600102614f7b565b6189ea7ffb2ef150308673efcfec895ad27adddb42399e62d460c309faf8660c51aed8a5600102614f7b565b618a167f678cbef0a8f5b00b9167a77b638210e4263a477281a3bfb60be794624493b7a6600102614f7b565b600073__$8ad4cadfbfab443c6ed09b45690dcdfb0d$__6384cefce086308a6040518463ffffffff167c0100000000000000000000000000000000000000000000000000000000028152600401808481526020018373ffffffffffffffffffffffffffffffffffffffff1673ffffffffffffffffffffffffffffffffffffffff1681526020018273ffffffffffffffffffffffffffffffffffffffff1673ffffffffffffffffffffffffffffffffffffffff168152602001935050505060206040518083038186803b158015618aeb57600080fd5b505af4158015618aff573d6000803e3d6000fd5b505050506040513d6020811015618b1557600080fd5b81019080805190602001909291905050509050618b547fd4db1d6afaad34c1c6f662aac9db2390c4631d478c522cf973cff17a04eb8051600102614f7b565b618b807fdd87886c8f8c5b4a561f66f9ec48c4acb3f5e7b3c02ae5a1bd4ede447edb2fd8600102614f7b565b600073__$8ad4cadfbfab443c6ed09b45690dcdfb0d$__63fd96809e606a6002015489308c6040518563ffffffff167c0100000000000000000000000000000000000000000000000000000000028152600401808581526020018481526020018373ffffffffffffffffffffffffffffffffffffffff1673ffffffffffffffffffffffffffffffffffffffff1681526020018273ffffffffffffffffffffffffffffffffffffffff1673ffffffffffffffffffffffffffffffffffffffff16815260200194505050505060206040518083038186803b158015618c6257600080fd5b505af4158015618c76573d6000803e3d6000fd5b505050506040513d6020811015618c8c57600080fd5b81019080805190602001909291905050509050618ccb7f1bec6e70f80774a59e8920f85e6096fee2a3ccc9c1479adbee383a62e8bf40e6600102614f7b565b618cf77f09ff8cc7c7ada2ed620b18b5faa8174ed9e7f22bb687c70c5d5e5b6dabe461dc600102614f7b565b61010060405190810160405280606a6002015481526020018381526020018973ffffffffffffffffffffffffffffffffffffffff1681526020018781526020018881526020016000815260200160016004811115618d5157fe5b815260200186815250607660008a73ffffffffffffffffffffffffffffffffffffffff1673ffffffffffffffffffffffffffffffffffffffff168152602001908152602001600020600082015181600001556020820151816001015560408201518160020160006101000a81548173ffffffffffffffffffffffffffffffffffffffff021916908373ffffffffffffffffffffffffffffffffffffffff160217905550606082015181600301556080820151816004015560a0820151816005015560c08201518160060160006101000a81548160ff02191690836004811115618e3657fe5b021790555060e0820151816007019080519060200190618e5792919061f809565b50905050618e877f97cd7f30a09b43cd7d7a9f14aee34c151599c75b5144e6d674cb460f54468011600102614f7b565b618eb37fffce348fe537e0cd9e0b52731bef05907ec42731a536db750a3c4f13c7e3b472600102614f7b565b60a060405190810160405280606e600201548152602001606a6002015481526020018973ffffffffffffffffffffffffffffffffffffffff1681526020018781526020018881525060776000838152602001908152602001600020600082015181600001556020820151816001015560408201518160020160006101000a81548173ffffffffffffffffffffffffffffffffffffffff021916908373ffffffffffffffffffffffffffffffffffffffff1602179055506060820151816003015560808201518160040155905050618fac7fdb06ad4b8d8a2c29c57272e7083b68d2a85839309e07e256c76b304dea8a2907600102614f7b565b618fd87f226a159d817af4cb8d5037d5500dc8941f5825535dc69bcd5223303a2c4627c0600102614f7b565b60016078866040518082805190602001908083835b6020831015156190125780518252602082019150602081019050602083039250618fed565b6001836020036101000a038019825116818451168082178552505050505050905001915050908152602001604051809103902060006101000a81548160ff0219169083151502179055506190887f39f16de9bebcb6aa77e1655e284a5b56ac70a2fcee02d102fd7f1edd63b7c708600102614f7b565b6190b47f5e764c4e90e7ed8761088ee9d398f4ea3c6625b44e345ffcdc2d294c29b15eaa600102614f7b565b6190c882606a61d69990919063ffffffff16565b6190f47fadd59be1989bbc100ed9d826c4fb988b57613ef4a2cfcf4d6866da76fadb4381600102614f7b565b6191207f97f860c0d84a24afae27959165d108e05ce63a833dfaab91558b0840a03689c2600102614f7b565b61913481606e61d69990919063ffffffff16565b6191607fdc23ffba0b8755c6d937af1ab11038c9c4a0fb577c7fdd698a90779864ffa264600102614f7b565b61918c7fc8b09d5f08318382233330a17c6e8f45168ffb1c2ec23b8d892a7949cf706ef8600102614f7b565b60698890806001815401808255809150509060018203906000526020600020016000909192909190916101000a81548173ffffffffffffffffffffffffffffffffffffffff021916908373ffffffffffffffffffffffffffffffffffffffff1602179055505061921e7ffbd63849cd7cdbabcaf8c5c58488d84a00e9d9ce6a392a18547fc854301f1a6c600102614f7b565b61924a7fec86d0b9e3adb27e547bfe6982a49162382f32d9e0a321f344a5cd9e58a47b87600102614f7b565b866073600082825401925050819055506192867f407cf8a87c8b060d5069571ffb92713debcd25c6fff93e020e7cce034cc46090600102614f7b565b6192b27f890a96b98cc050681de7722af516aa2ed7b59f86d1b4523d26e5dfd288f6840d600102614f7b565b866074600082825401925050819055506192ee7ff26286e08f13ffacf5d0b8945f5ad8ee66623b92e91e9b9e6e2ae2685174bf2d600102614f7b565b61931a7f7bb9c928c3ead4140e18eeda64293a79758d0c6862d6d2bb7fbb9163369bca9e600102614f7b565b8773ffffffffffffffffffffffffffffffffffffffff16827fd61caa23c7e60d69f689a83965592bc26f0dee75c1e247864bb07bbb6fdafe4760405160405180910390a361938a7ff6789f38822f0f7709e73fe18d4d4a826de151b932f5e3121a7a2526895b9a9e600102614f7b565b6193b67f9a31c02245f9b13d91f0a10f92916673be02a3e9f06985c3d3060627f1e7b516600102614f7b565b8773ffffffffffffffffffffffffffffffffffffffff16817f2fc7f61216f4b9da63724a7ccba484452205b7cf651334640e3cd11201786006896040518082815260200191505060405180910390a36194317f0dbb3f1c1696d9e69fee9d2bfab3db72a558cb6b5bd131112970592f1124772c600102614f7b565b61945d7f5123be82fcef626c66b2d27c4912c3197183b004d83422a5bdf859b93b1ee81a600102614f7b565b818193509350505094509492505050565b600061949c7fef0ee839a87e09beff700b1545467b1e7edec5145e69a952185625b7febbbeaf60010261617f565b6194c87fbdf835ee0fe59519e68e959a2766d368864459c142b651dc6d6cc62e98a4928760010261617f565b6194f47fd14e8c1d0c70855f3f901075500965984cbea219b1fa4a42db605c475f4bbee460010261617f565b6195207fbe47793fa43a6c9d58b424bbf96d50fa4160ae78cfe3c5dd4bc34ba1ea72138660010261617f565b61953061952b616ae4565b612578565b15156195a4576040517f08c379a00000000000000000000000000000000000000000000000000000000081526004018080602001828103825260188152602001807f5265737472696374656420746f204f70657261746f72732e000000000000000081525060200191505060405180910390fd5b6195d07f241ba548cc8253817305eb6cbd99b145edfcecbfaeaba1576d256fce484d5ab260010261617f565b6195fc7fc0aad2c1f4c71d0d45099bfc691c3cd5b001f96af75e9e3b342f389f86c2614760010261617f565b6196287f6f2a40a642b8505b64d55c106502289b831617a327f48a5304fbf5ac6ecb2068600102612575565b6196547f8500a9e4fc4b9b3b89306ac2352ef2e779b3117b09ed076a56e5023356ba26fb600102612575565b6196807f8d699fbb555089289b574a77f3e959dac58459f1256ce603371095a6431dea2c600102612575565b60006077600084815260200190815260200160002090506196c37f43a6edab168f6163758215350d38ecba2318dc3dfe37f21554317bc9fde29c63600102612575565b6196ef7f1c936b58a780d6df8d6a36740e9567a53ef3006cd36cc151c47b660b9dec5769600102612575565b61971b7f8b0fb230919a0097f501a69a260dc5174fa7a8fe3cdc0b0132d393f7d63f610e600102612575565b600081600301541115156197bd576040517f08c379a00000000000000000000000000000000000000000000000000000000081526004018080602001828103825260318152602001807f476c7577615072697a654c696e6b65644163636f756e743a205468652064657081526020017f6f736974206973206e6f7420666f756e6400000000000000000000000000000081525060400191505060405180910390fd5b6197e97fe840861fbc2f535c5b7cc529c24d08ec62f6c96e1fa479ba6e3b0be1ec59e4cf600102612575565b6198157fb3d658da1354ab726d481db487cfbb93449a1e4a1ac798753b6dc10dbf7f2c82600102612575565b6198417fb295d8042ea636432b0d6b8fae098d9e074905ab5e0ffb12bdf403f66f098513600102612575565b6198858160020160009054906101000a900473ffffffffffffffffffffffffffffffffffffffff168260030154836004015461988085600401546178b3565b61d7bf565b506198b27f37e7a2243cb9b60fae59f298ac5e410b9ee3da01b60e269df0d473f1ade8afee600102612575565b6198de7fc6480e821c688e22d3e82c2b7b940c0be7c61e0e315527b0e86e1601ca34c8ea600102612575565b6001915050919050565b60008060008061991a7f3155d3f0fbcdb604e7ed1c06c1a6985d70c5b46a107c68f130b32bf58b18d40a600102611b36565b6199467f40a8e73bbcb01d47b5671c52a9b29a286fe71eab24c4e624650536ff64513458600102611b36565b6199727f38ff2d211281870e6fb6c4b4f1680b0a20528644ce5b213aae44cdff98eee966600102611b36565b6000607c600087815260200190815260200160002090506199b57f67054dac490c85ee27cb348f7947c8206bd638d1118776530f41b8124abd49d7600102611b36565b6199e17f6c9c951c9424fc2ae46c3da0a2da7810a85785eb78ddcce261b4a62598bfce8d600102611b36565b6199ee816000015461a67e565b8095508196505050619a227f2d3b99769cfbf74e4b559baead6ec327f44984377c96a4a7c735877e1751bf30600102611b36565b619a4e7f752b614dcd43b64a7299e0f86075c6d21cedbd89eba1631abf2743b7b946af47600102611b36565b80600101549250619a817fbaa6dad4bf9fc1b0239fa23cbdfb6c0e927c3523ee2275d7b861051d256dfc83600102611b36565b619aad7fea25679998979202b0b4b107f89054f2794bb3bdd9a1c4d768a97a844758a780600102611b36565b80600201549150509193509193565b6000803090506000813b9050600081149250505090565b600060019054906101000a900460ff1680619af25750619af1619abc565b5b80619b0957506000809054906101000a900460ff16155b1515619ba3576040517f08c379a000000000000000000000000000000000000000000000000000000000815260040180806020018281038252602e8152602001807f436f6e747261637420696e7374616e63652068617320616c726561647920626581526020017f656e20696e697469616c697a656400000000000000000000000000000000000081525060400191505060405180910390fd5b60008060019054906101000a900460ff161590508015619bf3576001600060016101000a81548160ff02191690831515021790555060016000806101000a81548160ff0219169083151502179055505b619c1f7f6c875126be1726ab2fc657648964c34d167c9eea09e982826bf5fe2b9ca2d32460010261617f565b619c4b7f62099aa8d5be0c25cfa94c8b816435976ac44df70e57c0cd61c9aa5a6e8ea50760010261617f565b619c777f453557595d5569438781ff2bffda3521e47a9e00825bc9def362d351cf3e1c7460010261617f565b619cba60405180807f4f50455241544f5200000000000000000000000000000000000000000000000081525060080190506040518091039020600060010261d863565b619ce67f36164c6dee9768d45bd325d105734bbcb52f53401478cd02c4ecad63c18b8e6860010261617f565b619d127fc2ac55851c10e49d80d29047d52eddd577a7571d2b2f4dad9e5fcaa5c07a9bb260010261617f565b619d2060006001028361d906565b619d4c7fb725922c818f0782603dba098ae6ebcd63326dfb07c08fa6ef52bb86e381fb3660010261617f565b619d787f269b98238e7be55b5d7a3db79f2a96a0e9fa4e47593a6bb52d82c25d08facd7e60010261617f565b619db760405180807f4f50455241544f52000000000000000000000000000000000000000000000000815250600801905060405180910390208361d906565b8015619dd85760008060016101000a81548160ff0219169083151502179055505b5050565b600060019054906101000a900460ff1680619dfb5750619dfa619abc565b5b80619e1257506000809054906101000a900460ff16155b1515619eac576040517f08c379a000000000000000000000000000000000000000000000000000000000815260040180806020018281038252602e8152602001807f436f6e747261637420696e7374616e63652068617320616c726561647920626581526020017f656e20696e697469616c697a656400000000000000000000000000000000000081525060400191505060405180910390fd5b60008060019054906101000a900460ff161590508015619efc576001600060016101000a81548160ff02191690831515021790555060016000806101000a81548160ff0219169083151502179055505b619f287fafd7098ad09f2210cd7a5ae85e81f0bd54af277d7be2bba45f0466aefba833b3600102614f7b565b619f547f0e3ec2e408e459836d63daab9ac577d2058a0767bc7baf8cd396fad52443e3b0600102614f7b565b619f807f37387acd809d352641b7569dfef82f701acfd5f0d72a16ba1141107c83490eb9600102614f7b565b85607560006101000a81548173ffffffffffffffffffffffffffffffffffffffff021916908373ffffffffffffffffffffffffffffffffffffffff160217905550619fed7ff68b4c19b4501e8a26375f56e966ffb7df406897060027268132d0e0b44afcf9600102614f7b565b61a0197fed2d60428ae4063c172f0be69d04d8d995e8d42e9262a17f39b8521592077fdd600102614f7b565b84607260006101000a81548163ffffffff021916908363ffffffff16021790555061a0667fa51966f4ef61298486064feec37b41261c7cde60fbf2a31ed4fc6d6588af4e42600102614f7b565b61a0927fff205bcb141cdd325d7b666a79cbd9127daf9157a3cc276e1f5106bb351b8b0b600102614f7b565b83607260046101000a81548163ffffffff021916908363ffffffff16021790555061a0df7f857e220351d8aa1b0197bfa0267a4faf808a6de710d463f2709778a3b1850387600102614f7b565b61a10b7fa1f109cc1be943e64b1a6e0848a9ac5778d51f2fd66393d5d48e25bf315f7c05600102614f7b565b82606560006101000a81548167ffffffffffffffff021916908367ffffffffffffffff16021790555061a1607f17dbf3d109c4f5d7ee89824e05bc22e46bd7f238a4dfc214449033acb896da30600102614f7b565b61a18c7f37a00f29333ede6a62aec24c5b155256e73103af619aa0f5a06132d988720b04600102614f7b565b8160668190555061a1bf7f405881ad965423ccb1eb50f817a1127c7bab9d456ab47c5ca3de30284eaaa7a1600102614f7b565b61a1eb7f5f3b59e3c916b2543b8fffcf8da92609dd25f2f134ed297e6a84cdfbccce8cb3600102614f7b565b60606040519081016040528060018152602001600181526020016000815250606a60008201518160010155602082015181600201556040820151816003015590505061a2597fd49dfa9318ba827faf2d1e1e62ca914df5a65d57a8f0593975e869ed153645da600102614f7b565b61a2857fad03c7523c09ddff4260081fca66e652656eecf7eaa3631f3a87756d6a518509600102614f7b565b60606040519081016040528060018152602001600181526020016000815250606e600082015181600101556020820151816002015560408201518160030155905050801561a2e85760008060016101000a81548160ff0219169083151502179055505b505050505050565b600060019054906101000a900460ff168061a30f575061a30e619abc565b5b8061a32657506000809054906101000a900460ff16155b151561a3c0576040517f08c379a000000000000000000000000000000000000000000000000000000000815260040180806020018281038252602e8152602001807f436f6e747261637420696e7374616e63652068617320616c726561647920626581526020017f656e20696e697469616c697a656400000000000000000000000000000000000081525060400191505060405180910390fd5b60008060019054906101000a900460ff16159050801561a410576001600060016101000a81548160ff02191690831515021790555060016000806101000a81548160ff0219169083151502179055505b61a43c7f5f0265a64dc0d1e44ed8fcf4b17443ea6b2dfbc5a7483c9de2803bd47128c3e7600102611b36565b61a4687f1e90f0808128ed6295f3929f0c3e9b6d2fefbfab02b0616f39d405a446233e58600102611b36565b61a4947f8d364e20c86888a49fb0a5c225316faafc62d30ef272ae7d5e4e91bf193c157b600102611b36565b83607a60016101000a81548160ff021916908360ff16021790555061a4db7f443a104b7a2abc0ce9ff9d40bb5aba80939c9751fe15f5117433748460aac9f5600102611b36565b61a5077f4e4eb1fb865a8202c21707fc5704c30fe63e71ebc3d363465a5f1fe4c0072f22600102611b36565b82607a60026101000a81548160ff021916908360ff16021790555061a54e7f761edc98fee140249b69aba460e9f328cc70c96d2a0b4b079d086b41598494bb600102611b36565b61a57a7fab52b31eb252d025a5c78869fd14218565b055d33d0c368e86f259e860b3e876600102611b36565b81607a60036101000a8154816fffffffffffffffffffffffffffffffff02191690836fffffffffffffffffffffffffffffffff16021790555061a5df7fa1cbe202d4979dbc1803e8224f63637cd8300a19910f5d37c061af72d6ac1aca600102611b36565b61a60b7fe5af1bfd7fbbbe21eb81a7414fd0a0a8c4e360a1323ff7e51ab859bddb66973d600102611b36565b602060405190810160405280600166ffffffffffffff16815250607960008201518160000160006101000a81548166ffffffffffffff021916908366ffffffffffffff160217905550905050801561a6785760008060016101000a81548160ff0219169083151502179055505b50505050565b60008061a6ad7fee6f04d8903c6b975227c7950dc7e18945464e5271c84c489f529cf63f2a9b2b600102611b36565b61a6d97f5b13ecfe45c00bb754ec25a2fd7654dd81c9999f91657f2e34069d2199ecac4a600102611b36565b61a7057f1906b4099c4ff18ae8645fecee6f5c2d21335fb4a8562eee149855221076c782600102611b36565b82905061a7347f2a6b08f6b3d399cff480c7a89510f70c1886f224a158c7576c1240c9ac2e18a7600102611b36565b61a7607f0ea3092967f864d98a57f68060467397dcc8e36dffa08c8112d09734ca877807600102611b36565b60a083908060020a82049150509150915091565b600061a7a27f1e4c5363833c25365820aa63a423b8fe47c99d9a4612ad17829d7daf3df88765600102611b36565b61a7ce7f648787b6c7dff445e5877e30c431ead9dd6aa76466c6f6011f5f0c4c2cdac2b8600102611b36565b61a7fa7fa2403f20be91a7804397e7ab7bc81e5fc9bc0618a4fcced4ff51fa86c96e9794600102611b36565b61a8267f01f1db6c9eaeeed975bc08895d49484d16b7fafc9293c2abec87618c7b0847b6600102611b36565b6000608260008581526020019081526020016000205414151561a8d7576040517f08c379a00000000000000000000000000000000000000000000000000000000081526004018080602001828103825260268152602001807f476c7577615072697a65447261773a207468652064726177206861732062656581526020017f6e206d616465000000000000000000000000000000000000000000000000000081525060400191505060405180910390fd5b61a9037fb552db9bdb93afb63a00691fb07e94c940edec38a20f346152b9611a90c325e1600102611b36565b61a92f7f9ae4b6334e7aec4e0e41059fc0ac9236c05d76dc68dbd077b1c40d29966471b3600102611b36565b61a95b7fe4e823fd9ceebedc9d0b8b348c80a7414b6f0e165a02fabd9cd5a8e36d488199600102611b36565b60008061a967856129b0565b9150915061a9977fe252ba52da0f2b20c29f245fb298abc21c8250b67427122e5966ad8a5dbe66fc600102611b36565b61a9c37fa8ed851e73668854f81601270ea988891ee70db828dc8a984e387c9e57d62340600102611b36565b61a9ce82828661d998565b608260008781526020019081526020016000208190555061aa117f95ac37976cf8eea6b2e66f76c444faef359f36c0f00f6451f8ee99c798a037af600102611b36565b61aa3d7f851ad9bd447ea81c76294dcb4633912eacfdcca67053064cc12a711b1de8654c600102611b36565b60826000868152602001908152602001600020549250505092915050565b600061aa897fc72a0c558a46349161888d2b06fb31e1b14b10bc5f3a8a56cf573c58890fce49600102614f7b565b61aab57f131210454d8d5d25dbea0d2156a9399cd9f367e741b110e1720aad6b95ce11b1600102614f7b565b61aae17f0afb8d2a042420390505ba73febdcad46b51fbc5787f299b0a46383a3b577421600102614f7b565b61ab0d7f9c8850ecad6c2fa7acfe211222b48237be0d9bcbad3e60452d68d3be6469c680600102614f7b565b60665483607454011115151561abb1576040517f08c379a00000000000000000000000000000000000000000000000000000000081526004018080602001828103825260268152602001807f476c757761536176696e674163636f756e743a2042756467657420697320657881526020017f636565646564000000000000000000000000000000000000000000000000000081525060400191505060405180910390fd5b61abdd7f275b31574706d124196f93de6704fb1603f6b53479a24265557836230159acab600102614f7b565b61ac097f4a4b478c226922878711c7d3d5dbba490fcbb641caca51c4fbf828b8c1809169600102614f7b565b61ac357f12709aa023c7c1437d0f428fb874dd62cfefa6a94160a9856ea7be02ead17d7e600102614f7b565b6000607660008673ffffffffffffffffffffffffffffffffffffffff1673ffffffffffffffffffffffffffffffffffffffff168152602001908152602001600020905061aca47f78d63f3dc0fcd461746a4538a7215ae972ade77c664b0c370d1c0e5b3e89e9ee600102614f7b565b61acd07f7eef7889d9f5095cb7e9a72d488afd4982f8a107a26a57d4132fc1138564e9a2600102614f7b565b61acfc7f137d930a46031d795d8f9aa019aecef5a4cf0f4848fefcb283021777f36112e5600102614f7b565b6000816003015411151561ad9e576040517f08c379a00000000000000000000000000000000000000000000000000000000081526004018080602001828103825260258152602001807f476c757761536176696e674163636f756e743a204163636f756e74206e6f742081526020017f666f756e6400000000000000000000000000000000000000000000000000000081525060400191505060405180910390fd5b61adca7f71fe26de4629c37a91f07e0109231e3f5d5f40c733a94ba80f216582feb5f57f600102614f7b565b61adf67f2be1e9e413be5f87fb4bcd889371137221512ffc62a817e7a77831f7c5e1ef33600102614f7b565b61ae227f039a6ecff32526bdd163d41cb48a1505d8dc141b5e20faaceee4620ecf87ae01600102614f7b565b83816004016000828254019250508190555061ae607fbbe5dde346889c369e578f8cdc186d6f451c6f33b7b578637b6d0f06c7892068600102614f7b565b61ae8c7f66aba0f96d1f6792b608ae8d44fd94aa6faa338f3af52ab1d2e642911c3b3ae3600102614f7b565b8360736000828254019250508190555061aec87f9fc883e07a34a6af8ee1d8f10a216208ce6670a8e9c002d2ec0cb85ec87cfc80600102614f7b565b61aef47f8d7b241c685f0f33634fa18a1c4d71dcc2cee767c48cc12540bdb18e9b25fa80600102614f7b565b8360746000828254019250508190555061af307f1669a514ac2f181652dcef1cb8fca3764afbcfbb250d37d2ad92a5ab5db08362600102614f7b565b61af5c7f3aee7774f03b22ab36fa3dd1cc41b17b2017c3bb5f2c3b82dc195c9dd7a31759600102614f7b565b600073__$8ad4cadfbfab443c6ed09b45690dcdfb0d$__63fd96809e836000015487308a6040518563ffffffff167c0100000000000000000000000000000000000000000000000000000000028152600401808581526020018481526020018373ffffffffffffffffffffffffffffffffffffffff1673ffffffffffffffffffffffffffffffffffffffff1681526020018273ffffffffffffffffffffffffffffffffffffffff1673ffffffffffffffffffffffffffffffffffffffff16815260200194505050505060206040518083038186803b15801561b03d57600080fd5b505af415801561b051573d6000803e3d6000fd5b505050506040513d602081101561b06757600080fd5b8101908080519060200190929190505050905061b0a67f87a4f3ad8a6c6df74e5096e6ae54b083ea4b142c7efc42d6e46556132a9ecaf5600102614f7b565b61b0d27fe6fa6493778d9eb8ac420addc23646359bb9ded8df6dcb8dc545c8ea8f010a27600102614f7b565b60a060405190810160405280606e600201548152602001836000015481526020018773ffffffffffffffffffffffffffffffffffffffff1681526020018581526020018681525060776000838152602001908152602001600020600082015181600001556020820151816001015560408201518160020160006101000a81548173ffffffffffffffffffffffffffffffffffffffff021916908373ffffffffffffffffffffffffffffffffffffffff160217905550606082015181600301556080820151816004015590505061b1ca7f26e1bab5fcfcdb48c3cf3321e63d31a3d0cc71de6dd1d2749d4a5104f0978963600102614f7b565b61b1f67f549678919587eecbb3738c39ce427a024dca603d97dc926e6dae1f5c009a31d1600102614f7b565b61b20a81606e61d69990919063ffffffff16565b61b2367f5d96cc8aefe6b902e1213d2fdbe6ce704d6f8f3afaa08ef5a85b5d71b7d32923600102614f7b565b61b2627f29e10f06f32355d2e8b458d3934535f2dc9995b7a5744376568fabc1d34b7953600102614f7b565b8573ffffffffffffffffffffffffffffffffffffffff16817f2fc7f61216f4b9da63724a7ccba484452205b7cf651334640e3cd11201786006876040518082815260200191505060405180910390a361b2dd7ffe68b720a9443a5a2c983292cc9bbfe8f430da69cca5eb30ab5e4f1014ee97b1600102614f7b565b61b3097f6d29a18058793c267023de1e500297a1b49839905f46fd7558628aa161970a6c600102614f7b565b80925050509392505050565b600061b3437f8e5f5ca891d9b6bcaff16283e9830710c818cea7371a1f9bae8e914c0246cfc2600102614f7b565b61b36f7f6da6846f465b43ddab256cc640e6369b76ad635e7879878dc95505bcb595b452600102614f7b565b61b39b7feec062d9b9710d0d119fdcd231962bd726210ffe0eeb4727b085520f3aca2740600102614f7b565b6000607660008573ffffffffffffffffffffffffffffffffffffffff1673ffffffffffffffffffffffffffffffffffffffff168152602001908152602001600020905061b40a7f41eee1c77d949007184c46444bc026aebd5dd923f0afcf6514b8d64de14bcb74600102614f7b565b61b4367fc1054bf4c62b8334811e3e63ec2e99f18396684dd6e5256ec1ff73276070659c600102614f7b565b61b4627fc82241adfb74a23d91a327ab0893a9f1287553d6616b14dd2c828a2c2adfe9ca600102614f7b565b8281600401541015151561b504576040517f08c379a000000000000000000000000000000000000000000000000000000000815260040180806020018281038252603c8152602001807f476c757761536176696e674163636f756e743a205769746864726177616c206181526020017f6d6f756e7420697320686967686572207468616e206465706f7369740000000081525060400191505060405180910390fd5b61b5307f30fbc8688988fc240a9fc1c2a1e3c2a43c849c45e86515212e6a5d9bb26a5729600102614f7b565b61b55c7f4e49c2ccbabec259aec2ec8da81945dad6b263a6ece7af5dd40e7a6435a2d5cc600102614f7b565b61b5887ff020a85bf3c444398da3b5e692275b36c2f73df41ee8abb71eb2aa6763e477eb600102614f7b565b82816004016000828254039250508190555061b5c67f295d7cc9613a35bfc18cd0c00a28b299814364a6d1e975c6d52c9215e6b0dce1600102614f7b565b61b5f27faf646100ef7cea788bc31925539542be76919e1c20b75bee53adda3278c6ab9b600102614f7b565b8260736000828254039250508190555061b62e7f4809e4c5bbee64d565bce34b7be27581d0c606f40716a84a2a4d90f079e24788600102614f7b565b61b65a7f8b177a8c52978e3be2e0c1e866cf5a08705f204fe91c7c0c4ed8cda8f785994a600102614f7b565b607560009054906101000a900473ffffffffffffffffffffffffffffffffffffffff1673ffffffffffffffffffffffffffffffffffffffff1663a9059cbb85856040518363ffffffff167c0100000000000000000000000000000000000000000000000000000000028152600401808373ffffffffffffffffffffffffffffffffffffffff1673ffffffffffffffffffffffffffffffffffffffff16815260200182815260200192505050602060405180830381600087803b15801561b71f57600080fd5b505af115801561b733573d6000803e3d6000fd5b505050506040513d602081101561b74957600080fd5b81019080805190602001909291905050505061b7877fe4a5bd5803a029419c876c375b9e5f824f46c7fce5e01c37a0d004a6547762b6600102614f7b565b61b7b37fec4ae7188cbd48a81c3ef973adfc3d60726642d39b3f613816c1dbc8438b92fd600102614f7b565b8373ffffffffffffffffffffffffffffffffffffffff167f7084f5476618d8e60b11ef0d7d3f06914655adb8793e28ff7f018d4c76d505d5846040518082815260200191505060405180910390a261b82d7f7d806b11ed7aa8a8004d5bf6069d3c493eb9e5fc0d41b953fcd9ccfe7996a72b600102614f7b565b61b8597f667bfe2cd3599f95f95acc9b487b7c6bf79d4be81e953aee2a3ef3af81d994c4600102614f7b565b806004015491505092915050565b600061b8957f0c3c84103e404c1b7f6705f0a11716125b0224172505cf4a2d0220b8380c498b600102611b36565b61b8c17fc1f7c2bc9d20c10a46c0a69b7cc3fca16df0bcc2b0c134a565dd212f0a51de19600102611b36565b61b8ed7f61598326d5dc820024203b0435f8334bea3a09162570c025950f889074dd3148600102611b36565b61b8f561f889565b61b8fe8361db40565b905061b92c7f1f70bd4cac199a1a80d7f4c6aa9dc4ee340d4363387d17599d0b0b27a260b181600102611b36565b61b9587ff5a4c0a6d4a3f9492098267d5e32872c51c79f88fd16476c7295a97c55520758600102611b36565b60006002905061b98a7f71b20f107e51adb64d252d185ee8589d53ecca82cf606677146ca03e2cfb996f600102611b36565b61b9b67f30509abadea3ecbfece548aca0a5db4e1bc9eb408990a38aa30459bda86888bf600102611b36565b607a60019054906101000a900460ff1660ff16826060015160ff16108061ba1a5750607a60019054906101000a900460ff1660ff16826060015160ff1614801561ba195750607a60029054906101000a900460ff1660ff16826080015160ff1611155b5b1561baac5761ba4b7f13e32c69eefc85a4883862d1a3d2318caeafa040750f19364160931e0456ad89600102611b36565b61ba777f9dc9f4d4a314cf286c0e776a7a57a05e751e6ec80021ac7d4d064ea41df30bdd600102611b36565b61baa37f9e707761d3604260ef6f47581b90d70ce40a92cdbef03b831b3dd9922bc74b90600102611b36565b6001905061bad9565b61bad87fc927a18d37dc75cf332c7685e5080ca9ac5a10ac851837688c2d7096876ff895600102611b36565b5b61bb057fbb87e89a28a7709f2ab3b65896323c89a208d86ece2f4dec9cc4c1f047a9c49c600102611b36565b61bb317f9d648b024e5e21ebcd30c48ee4a741dae2a0ff26bb7b3c40ea3763758bbc0262600102611b36565b600073__$05084330c9bf728fdd5577c5afe72a471f$__6389807474846020015185600001516040518363ffffffff167c0100000000000000000000000000000000000000000000000000000000028152600401808360ff1660ff1681526020018261ffff1681526020019250505060206040518083038186803b15801561bbb857600080fd5b505af415801561bbcc573d6000803e3d6000fd5b505050506040513d602081101561bbe257600080fd5b8101908080519060200190929190505050905061bc217fea35e25c4e40db311fadfa03ce797daf24cafaed701ef9945af48107d0fd330d600102611b36565b61bc4d7f4839e995c9a1c145235ebd664f167575798bda02639b8af21cd3c9f826cc6d25600102611b36565b8060ff168360400151830160ff16111561bf1a5761bc8d7fc8e0e414452696100803d052a534cec965c83cd24910cd3aa98530910b9c4066600102611b36565b61bcb97f189ab8eaa74c2615c2857ac5bb53a506349ed7538b5d79470312a75f13f5074e600102611b36565b61bce57f297c5cf319c225c9574e70354f6700d43fb78d2d74a05d3a7b25d0b5cd16a7e0600102611b36565b600c836020015160ff1614151561bd985761bd227f597e009babec2198b8fb6e057ce187221d0fce8d2df989ee6af50601b0794d46600102611b36565b61bd4e7f6961a5cd3fbf3f221c23b06fce2f8c03a5a0699e444c3bb1d6e30ead8031b8d2600102611b36565b61bd7a7f8ccc878bf9d982269fa37694a4ff183c7446c1e8265f9ff2511a714e59f34d8a600102611b36565b6001836020018181510191509060ff16908160ff168152505061bea3565b61bdc47fb63b2007fab96a7f8f7bcd67a8e6209f3a8efd6d255d25d3c2d265a489d8c616600102611b36565b61bdf07f299e8cb5f707bdf46eb37fc86b1fe66ca486f6beb2e6a39d29526ac811687954600102611b36565b61be1c7f4e3526a5ec0d2e2ef17b28b3f7760461efb7c77b5e3dd33f20cabd152109e619600102611b36565b6001836000018181510191509061ffff16908161ffff168152505061be637fbda5cdd89e443f8c167f2074cb4688f5d8a3f2b7d9e859c46347d960754330db600102611b36565b61be8f7f345c2c9cdd53c54cbe3edfc685d106face6af589b5ab00043fe3c1356e0d821c600102611b36565b6001836020019060ff16908160ff16815250505b61becf7f6886b35900fd1cf66053283b81765768704b0f280e386ed95023149d8c32b763600102611b36565b61befb7fc82257c75446b8c65f5bcc626f18f0939ab33ff65a3c14da2a5623e5a053e9f3600102611b36565b808360400151830103836040019060ff16908160ff168152505061bfb7565b61bf467f6fa94063b270e56af575007f5ca76d745f51fac3ad447ab1666fcdeab9604ed9600102611b36565b61bf727ff7dafe165a358cf339b6e6d4ab621ba1d958c3447939e7c0c2a125c0a1f2ce36600102611b36565b61bf9e7ffb63bfece7fe46ba1648904756652835c0b7c283c004b3961e56bc9397ae768e600102611b36565b82604001518201836040019060ff16908160ff16815250505b61bfe37f37addd99122e5219ab0853ea21d2bb16772d9e2676a0e57a5160a33acf3ddf2a600102611b36565b61c00f7fa64edbafb6923bfbeea1b79e0e0495e0d8ec12b1d59eea08c98663de41db370e600102611b36565b603b607a60029054906101000a900460ff1660ff16141561c1425761c0567fa3571bc3c95b7ad0e1d25788496010aa99a5aa662f9009ff66287f75c43c0875600102611b36565b61c0827ffa0cc2e526f71ec9e643cf9b66913b3b3d3db9be295e0473fb8a5581bd569273600102611b36565b61c0ae7f6b212456cf3c223f60a3b9baa512854625eb50105257f039da3ad0a1c75517e1600102611b36565b6001607a60019054906101000a900460ff1601836060019060ff16908160ff168152505061c0fe7f1dc42d98ee31a0cca0fbc3396ec55aa52ba0ced40848fc660c278909f19f75ad600102611b36565b61c12a7f6b773ee8d48c2106f48f9133d52489f779cffa6376fe5390dc17399dda9f84bf600102611b36565b6000836080019060ff16908160ff168152505061c264565b61c16e7f962d3342e5d109a8ef3fea38bc40c408b4160e40ebf4d076ef5b6e30f2be0cac600102611b36565b61c19a7f69c65038951286b56563e73c06fc646d6a81ca63740333718b0b93568e3eaee8600102611b36565b61c1c67f4401730427e0bfb946676d7db89eb51003b36e3cbfe4a86f912b9468064d3b5d600102611b36565b607a60019054906101000a900460ff16836060019060ff16908160ff168152505061c2137f402c6890a1d6b644eb43eb24b3fbfa2b79dafc1655cab205fff6a54fe109c226600102611b36565b61c23f7f4b59407c6e37dfc49370a0600e64a796da6ef9935da4843b749b693d284bc1dc600102611b36565b6001607a60029054906101000a900460ff1601836080019060ff16908160ff16815250505b61c2907f6dbaac72e5931ffc0521e18f413f0560174ef699bf81d9669e6f9eab5e70752d600102611b36565b61c2bc7f8a597bfa422359afb7df4b20be57f0f3a7472a72657ffd0543122dfb91171371600102611b36565b60008360a0019060ff16908160ff168152505061c2fb7fb15d6a0ce916fda79dc96183431d470a90e4c6e1b85b78083a6c4cfa8e8f34ef600102611b36565b61c3277fece50ea5963433263fa32d9703f6573c3f912ad680c4dfe29f992b69ad42b59b600102611b36565b73__$05084330c9bf728fdd5577c5afe72a471f$__630a37f14b846000015185602001518660400151876060015188608001518960a001516040518763ffffffff167c0100000000000000000000000000000000000000000000000000000000028152600401808761ffff1661ffff1681526020018660ff1660ff1681526020018560ff1660ff1681526020018460ff1660ff1681526020018360ff1660ff1681526020018260ff1660ff168152602001965050505050505060206040518083038186803b15801561c3f857600080fd5b505af415801561c40c573d6000803e3d6000fd5b505050506040513d602081101561c42257600080fd5b81019080805190602001909291905050509350505050919050565b600061c46b7fb366b138fa3b2adb812947f61c94100618afa37db197508b8bc40683754cb896600102611b36565b61c4977f2c41579efb91bede4cde39628a81b8e32f557a06b6a2e1e7e121d84b69355053600102611b36565b61c4c37f179cb88c29a4b8ef41997ec0d7013f70bf371f9254f4fc8351fc8d98c9695c7d600102611b36565b6000607f600086815260200190815260200160002060008773ffffffffffffffffffffffffffffffffffffffff1673ffffffffffffffffffffffffffffffffffffffff16815260200190815260200160002080549050111561cff75761c54b7f6c7fc01b48bd284ce0b708c4bb14c0d3ef0955adf8f22f727b72044b96d59440600102611b36565b61c5777f6a37003f399b3b8ef4dc441edc721a30f889c4fb9c4cbbb411ae1d88df987215600102611b36565b61c5a37f45641ea4c00559d21e8cdd2ed7525771e18a1aeacc30943b2506118eae0ab954600102611b36565b600061c5d17f3e03a58b2484027ab7b8b05310478a420c2720e93ea7d5c30abfa77b1113b837600102611b36565b61c5fd7f5610aad962748451d4f25aded5abd4545aefbdf10ff310b6d2bf9eb0121dfec0600102611b36565b60008090505b607f600087815260200190815260200160002060008873ffffffffffffffffffffffffffffffffffffffff1673ffffffffffffffffffffffffffffffffffffffff1681526020019081526020016000208054905081101561cc3c5761c68a7f0a21e934f356f99579396bfb18e15bdd9ee136e2bdb0c1588f7ac2d546fe3400600102611b36565b61c6b67fc6267d462683b71d4858e3ab60fa8ace6c774ae5e50c1d96e7288d2e25548449600102611b36565b607c6000607f600089815260200190815260200160002060008a73ffffffffffffffffffffffffffffffffffffffff1673ffffffffffffffffffffffffffffffffffffffff1681526020019081526020016000208381548110151561c71757fe5b9060005260206000209060029182820401919006600c029054906101000a90046bffffffffffffffffffffffff166bffffffffffffffffffffffff16815260200190815260200160002060010154607c6000607f60008a815260200190815260200160002060008b73ffffffffffffffffffffffffffffffffffffffff1673ffffffffffffffffffffffffffffffffffffffff1681526020019081526020016000208481548110151561c7c657fe5b9060005260206000209060029182820401919006600c029054906101000a90046bffffffffffffffffffffffff166bffffffffffffffffffffffff1681526020019081526020016000206002015403915061c8437f9933d74d097aff5df0d107d697a6911d45cc5277246ed94c4d6d83e1050cf70d600102611b36565b61c86f7f5475417452ad8c3e75fcd672ba0b0f3721d7d82c4c566c6d66b92c45d227dc54600102611b36565b8184111561cabe5761c8a37f5951fe4093bbbc465837b768a2390c8a9fbcb98c3b6805420845158ea62870cd600102611b36565b61c8cf7f2c92c6449cfade96ebc3008b98864af7fe05e77faedb12b95eb18ca6d2390aed600102611b36565b61c8fb7fa24e08921b6c19c081a279f7fd80a189e7ddfdbc3dde71f091c006e1e40d5e89600102611b36565b818403935061c92c7fb9706918c83c962b761f65db4348f28a1aaa5344e33ce0c8a8dbad711fe30307600102611b36565b61c9587fb7dbeff4a59c271b7ce0e0f67340b40771e439922a468388c671ac42eb370d83600102611b36565b607c6000607f600089815260200190815260200160002060008a73ffffffffffffffffffffffffffffffffffffffff1673ffffffffffffffffffffffffffffffffffffffff1681526020019081526020016000208381548110151561c9b957fe5b9060005260206000209060029182820401919006600c029054906101000a90046bffffffffffffffffffffffff166bffffffffffffffffffffffff16815260200190815260200160002060010154607c6000607f60008a815260200190815260200160002060008b73ffffffffffffffffffffffffffffffffffffffff1673ffffffffffffffffffffffffffffffffffffffff1681526020019081526020016000208481548110151561ca6857fe5b9060005260206000209060029182820401919006600c029054906101000a90046bffffffffffffffffffffffff166bffffffffffffffffffffffff1681526020019081526020016000206002018190555061cc2f565b61caea7fb4180a0cc81b1ba340fab952368844081afdafd580cf128a21e27c3f5809c336600102611b36565b61cb167fb2b98fae8a7bade14ba8d9eaa64606b9ab04a73ffad5ddf1f553ba02e96fb12a600102611b36565b61cb427ff5153cdbe8366d96a58b2151ccacdc80510685a5e0f2f031a257580bf654f74a600102611b36565b83607c6000607f60008a815260200190815260200160002060008b73ffffffffffffffffffffffffffffffffffffffff1673ffffffffffffffffffffffffffffffffffffffff1681526020019081526020016000208481548110151561cba457fe5b9060005260206000209060029182820401919006600c029054906101000a90046bffffffffffffffffffffffff166bffffffffffffffffffffffff1681526020019081526020016000206002016000828254039250508190555061cc2a7fb415912d3fea91b5f4c17ee3a8ac7667da4901e870c5dfb509e141d8342dd6d3600102611b36565b61cc3c565b808060010191505061c603565b5061cc697fd3fafa6762968c1bc7df1988142b74a15252d3b157ba4c57dfa893d812e668c8600102611b36565b61cc957f97367abec8482e9e3592b8ef912f0e5b6d9fbe32ef94d8edfa4adf37aad37efa600102611b36565b6080600086815260200190815260200160002060008773ffffffffffffffffffffffffffffffffffffffff1673ffffffffffffffffffffffffffffffffffffffff1681526020019081526020016000205484111561ce955761cd197f5de32c9473ec55f83bf246d78f12fd508ebbac96154f5362de89998f6df41abf600102611b36565b61cd457fab6fd99882dc99305c9e7aa3df4bc3415d6278b1209971241c7d679570c5932a600102611b36565b61cd717ff9c6b849998a785aa1b465d2b5bf81a3bc769b62f790010dd5be5685906f1664600102611b36565b60006080600087815260200190815260200160002060008873ffffffffffffffffffffffffffffffffffffffff1673ffffffffffffffffffffffffffffffffffffffff1681526020019081526020016000208190555061cdf37f656925be81ad07f711fb2853f2d96882edd15b630070f5c55b9dfddd111def18600102611b36565b61ce1f7f3bd8fdbe6606aebfa1a5081203b96bad66837cb3a411f1c5e80eada525d9dcd7600102611b36565b6080600086815260200190815260200160002060008773ffffffffffffffffffffffffffffffffffffffff1673ffffffffffffffffffffffffffffffffffffffff16815260200190815260200160002054608360008781526020019081526020016000206000828254039250508190555061cff1565b61cec17fdb123ab0412f314d23ae0d9f90f89f2e10a6e41033d4eeb7606482be127dd0d8600102611b36565b61ceed7f9f5fe2723276cdcdef377295aec0c8c49e37e9e7bbb68690a4aa2dbebb6cafd7600102611b36565b61cf197f3f5f81676e5f5ee30fcde939ff01b915edc3ea103aa9d270ffb09a2b7784a3be600102611b36565b836080600087815260200190815260200160002060008873ffffffffffffffffffffffffffffffffffffffff1673ffffffffffffffffffffffffffffffffffffffff1681526020019081526020016000206000828254039250508190555061cfa37fc47483b50fffcdbc077fcfb6da84b9b011b79f95d813fbc6529d027f58dfa5d0600102611b36565b61cfcf7fcbfc3d9075fed53ed752549af9f9c792cd822a108e157857ad73c097403e2499600102611b36565b8360836000878152602001908152602001600020600082825403925050819055505b5061d024565b61d0237f11957a4468cda2850e8275efbbcafec715df25669241cca53d605f7ca52bd238600102611b36565b5b61d0507f6d94e0b2ed13a9c52db7bddd9bbd1c479a4ffd01ade8bded8f11991eee5b5465600102611b36565b61d07c7fdede6b286c1629a1780a72f861df93564d8c27f9a5decd928f33b7c1282c0e05600102611b36565b60019050949350505050565b600061d0b67f8b9337500c7386ca8a4084f42b2d40b9be1af142fb7b663118e6df4ae84c617a60010261d2ba565b61d0e27f2d10932486833c7b94206e0ae6f4a561123119dc1d8256f3e1dffa1f2098284160010261d2ba565b61d10e7f3fbb6c237d91889d2b85197067a6867564519756a4b142dce99503390a61e0da60010261d2ba565b61d134836000018373ffffffffffffffffffffffffffffffffffffffff1660010261e479565b905092915050565b600061d16a7ff0ca5118ce57dbc469380946ed7733bfee6956d8894b68924b77265267d985a860010261d2ba565b61d1967f4e24753963ccd879d590789fd3106e2074905aede5539b4162644af54b7f58fe60010261d2ba565b61d1c27f459e278c0a981f356992f93db68199e1525e444b60a1aa9f415242edaa90bbd360010261d2ba565b61d1e8836000018373ffffffffffffffffffffffffffffffffffffffff1660010261e72a565b905092915050565b60008083118290151561d29e576040517f08c379a00000000000000000000000000000000000000000000000000000000081526004018080602001828103825283818151815260200191508051906020019080838360005b8381101561d26357808201518184015260208101905061d248565b50505050905090810190601f16801561d2905780820380516001836020036101000a031916815260200191505b509250505060405180910390fd5b506000838581151561d2ac57fe5b049050809150509392505050565b50565b600061d2eb7f1e389c3a59451a90cc38a462ab78e585703d049faa682b547afe962dd782d9fb60010261d2ba565b61d3177f91294d2a3cd14ca48c2829d94278cbbc8da604b303f69291b78cc7a96433fb6b60010261d2ba565b61d3437fed54bc75583d419ab275e8111912b68693321933fc327bb4bcf80928ad8b8b4960010261d2ba565b61d36f7f3daffd0a9dce28b482d01a551215671bf4393bb2c14e29701cf4960e2f2b129260010261d2ba565b81836000018054905011151561d413576040517f08c379a00000000000000000000000000000000000000000000000000000000081526004018080602001828103825260228152602001807f456e756d657261626c655365743a20696e646578206f7574206f6620626f756e81526020017f647300000000000000000000000000000000000000000000000000000000000081525060400191505060405180910390fd5b61d43f7f40aa26a0e9be8d065cf56c5a97ee7ecf2d6f7f27a85e81ebb85bf92a3fb598c860010261d2ba565b61d46b7fe7416d2a3843e619b1224850d86b591b72a1e287cf0e1b4b38a8e263ea53269760010261d2ba565b61d4977f3f6e9522e1ea2955cabc1c679f64bf976068c841a9611123dcede6de73ec4fcd60010261d2ba565b826000018281548110151561d4a857fe5b9060005260206000200154905092915050565b600061d4e97f02a432993c4332c426e42b943b3b019f4f8176664138a13b7aefd4766c87794260010261d2ba565b61d5157f4106100c6ddc9e9685bfafb2331061f66fe0bdf557d61e86d3a9e77f415df1c060010261d2ba565b61d5417f74042fd2ce01d2d4e5b83168db3daaa0ada16dcc55033ff01c774f8d3b09d26b60010261d2ba565b6000836001016000848152602001908152602001600020541415905092915050565b61d58f7ffff5d955ac9fed568b78130768dde7eeda28dfcf1805375a196488105b18829a60010261ec3b565b61d5bb7f4e62bb0dfcaaf152aba4bc8f9322afa4e1b6646b851b528f4e354fbb6aa1489960010261ec3b565b80600001600081819054906101000a900466ffffffffffffff168092919060010191906101000a81548166ffffffffffffff021916908366ffffffffffffff1602179055505050565b600061d6327ff5b89a497746cc14694c9f1ed1aeaef6a21f81b1a91b334ac822cb679c327c5460010261d2ba565b61d65e7f3d2a328b4224524dd5bf276581f8c7e30b93161a3146a223de54a8178318570d60010261d2ba565b61d68a7fa53b31889d5006b4901ceb793559ba11b86794ec37414fd5e2572de69058b50b60010261d2ba565b81600001805490509050919050565b61d6c57f798fe46ec32f58e3194f374472330189acaec5f63d210e36fa29ada91b80bf1e60010261ec3e565b61d6f17f6ecb170396c14317883540b3964eba795d943aa663dcf5280b5b00c297de636e60010261ec3e565b61d71d7f72e61608aae04601bbd1239fdc2e820a3a4dba42d659e34ccfbb6a7ec5d8a6c560010261ec3e565b80826000016000846002015481526020019081526020016000208190555061d7677f944f5e572c497f4711f22b6c2f51c651e69e05a4515fd336928d95d3f6dd90bd60010261ec3e565b816002016000815480929190600101919050555061d7a77f450ad1fd970b03f3c1c2c548c27672e7ee85e6c8e7540b27ee63babb3021f0ac60010261ec3e565b81600301600081548092919060010191905055505050565b600061d7ed7ff10d90047a04633f36e67fe16e2c916c5446ee5eb946f50eba90d92b09b20258600102611b36565b61d8197fc94dad16fdf5e0f678371132eb140bd47cdb3b925e684c24eaaf282fa6460508600102611b36565b61d8457fb64d30a2732f86a7fadb7a5ef2b2f4f78625b296d266813d7fd676605077cb40600102611b36565b61d8598561d8528661b867565b8585617977565b9050949350505050565b61d88f7ff646bf7a647c7eede6638809cfb9c3301764e40ef49c153dd68e18ef90812a40600102612e11565b61d8bb7f6fa7faf9721d6feef12eef2be7cb46f54c37eb46b0da7acac7b4fe0f1b3f5442600102612e11565b61d8e77f8151549efc9ed0302e535d39e83479798ffab5156bdffc64026f549fa008bc6d600102612e11565b8060336000848152602001908152602001600020600201819055505050565b61d9327f9dccac468e58953be22b97f316f61593d0626c019b44f72d0fae41962f2372db600102612e11565b61d95e7f431977193dba4d85d3d1072d0ba5e1cdccca8cddfd8c4aff4d7ac2ea98d3d4ee600102612e11565b61d98a7f28a965b98d8b942f56696427d3c721e5310563fbc5164dca87cf5cf13ea2a9ed600102612e11565b61d9948282616fed565b5050565b600061d9c67f1c29f5bfdefb542bb506b84b7c74430c6e9f3a3bb9e2a8ae6c272fff65c56e20600102611b36565b61d9f27fe170a50cf1cc82b7a8b8b710d9580fc7fe6191971a8675a4910011b44b0e7eb6600102611b36565b61da1e7f203a00e7114c711bf1e80ab3dbf084357a497ed70ca3424640b7d1488ff6950a600102611b36565b6000846001868603014285434042448a8c6040516020018088815260200187805190602001908083835b60208310151561da6d578051825260208201915060208101905060208303925061da48565b6001836020036101000a038019825116818451168082178552505050505050905001868152602001858152602001848152602001838152602001828152602001975050505050505050604051602081830303815290604052805190602001206001900481151561dad957fe5b0601905061db097fa303f98cc6ce1685bf6e989f8a0f8f49483b345121b408ad42b01dd5afb23213600102611b36565b61db357f26467551d1eb7046f688248f652d228c1bf6806be3899b7f4e90791b2a6d1a70600102611b36565b809150509392505050565b61db4861f889565b61db747f65c3cf497d2e456bc55bea799cb8dc0d51a2bab00d432c198f7f3f3b0405928960010261ec41565b61dba07f6a67a4fb3b94133a63de1451dcd85e5c5cda55768ec0988438d9e929ada6a21760010261ec41565b61dbcc7f9522db35201a625d03047e0a83e405abaf708c2f21c844b40412aab518f9212660010261ec41565b61dbd58261ec44565b816000019061ffff16908161ffff168152505061dc147fb6f1e4f1ee721eef05777a511afc53d357b3ae4fa3d5ff1f17674b0c1ec0757160010261ec41565b61dc407f4bc272dac49c832dcb7fb4035ab3b3f110a9f43623381a480a7246bc0bf718f660010261ec41565b600061dc516107b261ffff1661f084565b61dc62836000015161ffff1661f084565b0361ffff16905061dc957f75fed6daba885d0578445ab7b7a66b57b2282cfc36ec37c07ee2794172677fb560010261ec41565b61dcc17fb6f7287c6473a50e1b38b41f83e2246d4e8d12b888c2946ca04ed94d67b8ff6560010261ec41565b6000816301e2850002826107b285600001510361ffff16036301e133800201905061dd0e7fe82fa837660b9fe78ef08c9641a9b9a03fdf575d220322c04f0291003060741460010261ec41565b61dd3a7ff9f7984bfed3c0802cbc69cbea94f0d61a4713b938ef0b6c9636ce0a2b99027b60010261ec41565b600061dd687f806c13d853d4c035d109dc0270a6db1c75bb1568248619867fa569f4f48105e360010261ec41565b61dd947fc099bb14d589016a9243cb70c21e09a5618fd9bc114078866329a6321a0008d760010261ec41565b600061ddc27fa8c153fbff1e26f9d2c92821d7f6f66b060a48f93beb3714c37b0b54e0c9c30860010261ec41565b61ddee7f3fbd1670a45e3319798a4ccb23b60ed01d05e0eee1957336f68b71104e75fc0360010261ec41565b600061de1c7f9ffe33813370748665e6754a45c7b9a2c8a54ff021bf53c80ae4a141841e704c60010261ec41565b61de487ff05dc18d17043d62fc1e765561be51de7e18c1c3277872abdcb32fad0cb6632b60010261ec41565b600190505b600c8160ff1611151561e0e85761de867f7c233dad1f6a192553947a6d7ed76b62b4f60d9a4c56eeb17f871d055bb4542f60010261ec41565b61deb27fe24e95afe2b1b86be04e04f8936c3d0b17b7e70bddd237271db5c52fbf84e3b760010261ec41565b61dec481876000015161ffff1661f199565b915061def27fe86a405280771711451be0b334aa76ce095a3ff4971daee704b0207c035f9bf660010261ec41565b61df1e7f123af6654288920957bed7acbd33b8c89704966fa0a4ab95492c96874c98b84460010261ec41565b8160ff166201518002925061df557ff82784811d350e107c487ed23190e7f92019191e729a1b53249be70b34fcf9e260010261ec41565b61df817fc16afb265ab91b6c1205c88dcc624bf2874ee09e9b66e1a0ba241871fb4d412660010261ec41565b86848401111561e0525761dfb77f3188a408f43491dd6c23e72f71657348f6e51fb478d0afdba7f562b408e26dfe60010261ec41565b61dfe37f2a6cdafdb8911e44434b68183eab43752f32c4d2b08120dcb06db38f724dc93460010261ec41565b61e00f7f572ea494e893c2dd97e26de0a8cfc31f887d291a8823fb9ec8758a569640103b60010261ec41565b80866020019060ff16908160ff168152505061e04d7f7e2c8734b00f104076ef6a23c664fb3f90888db583e8096e4cc5c8852d3fd66960010261ec41565b61e0e8565b61e07e7ffeab6427bf51e972eda648d3eb6d482ad5850bcc5655fc88271ec789e10460d360010261ec41565b61e0aa7f46244ec7fa678ed3f30faf4a9033444dc3168e60b98cd680f8dbcaffcd26bf4760010261ec41565b61e0d67f256c99a2fc0f0a860a4330f973fd96bd84da087798a86b746f8d2d86151676bd60010261ec41565b8284019350808060010191505061de4d565b61e1147f5f21e22de5f3f92f2c1d283827b94b347e1098b87b2d012bb7175fdc2668f0f860010261ec41565b61e1407f50b662ecbc0a369719a389b0d7b8656be8db9487ba4bdb484ee14c780dcf91fd60010261ec41565b600190505b8160ff168160ff1611151561e3195761e1807f6a5ea1c27edf78adb18ffe7c502c3ea753abac5ada22f584f0ce3774e2ae352560010261ec41565b61e1ac7fc9052f7d8f77e1d46e13e88e424686638bea10f2142d0c4ce704c382af84e26160010261ec41565b86846201518001111561e2805761e1e57f7e1f5d91663ead1864ef52ec5cb592444ad33cd66493bd7e97cc4b028bfebbe260010261ec41565b61e2117fb6ac75779ebd95d710ba8ff863f971e2cbb727099fdac0de6671db3d99e284a660010261ec41565b61e23d7f57059e354f5d8f83342699811e06f3932046bb0898077b7bb58911cf5e78759260010261ec41565b80866040019060ff16908160ff168152505061e27b7f509e1093fcae8976f27b921fd34f5a734984bab933b349bf6f169910c0f60dd660010261ec41565b61e319565b61e2ac7f2396debca5be8803b6ba608c2cd07c3901e31868d93e1d75269f5bc9ea1ff33160010261ec41565b61e2d87f496897ebded4144c69dd0c31e326ce1cd614da28d571d4f7875b5da9ff820b3c60010261ec41565b61e3047f2fb721c69cfc95b025af6ad6df50656213df9a88c2adf8724fce203cee5414ba60010261ec41565b6201518084019350808060010191505061e145565b61e3457f54e1dbac27b563299a9ed79ba7855092de351a6bee6767f5030132ef2b7b0de260010261ec41565b61e3717fba957646f319d8de0d0018f494ecfc856d85d8065a6f2be692434c8298d4ad4d60010261ec41565b61e37a8761f555565b866060019060ff16908160ff168152505061e3b77f570c1ee08df3c5b9f66371440dac0f24737c6879087319eed0f5d746fc04280c60010261ec41565b61e3e37f95644a2755f5f46f0e59ff4b6dd7fab321b7afd6d45fe5db32fffe03193f58ce60010261ec41565b61e3ec8761f5fc565b866080019060ff16908160ff168152505061e4297f42df97d9384e7a4fecee7306add3297fe97fb04def3e6810a3d97a0e34214b3160010261ec41565b61e4557fc430bea8c5c884859950fb6f46358b3b76b86661a4167f041d2b6b9ac715476460010261ec41565b61e45e8761f6a1565b8660a0019060ff16908160ff16815250505050505050919050565b600061e4a77fce3c0267f6afecccc16fb1df160b30bad8dd9e6470f2c250c65f5d16f559538360010261d2ba565b61e4d37f1428e26d804ec500abd0e9390b2940e16e23c588838979a643dc197ecc45d31460010261d2ba565b61e4ff7f0b321acd305614c64bd3b03df9b54fda13512f699793d352dda406f5377d654a60010261d2ba565b61e509838361d4bb565b151561e69b5761e53b7f7a5ecc9f91718277f21ffe36d4008cfb52c45cb4a3d02c8d3ad7b368266b527d60010261d2ba565b61e5677f594e731be2305a9bbd344870cf0633f896cf7c8a552149ac8c3887f5939fa2cc60010261d2ba565b61e5937fce845126564f88320d57ac15815dc9da8f604bbea797690ee5dd29256f4490ef60010261d2ba565b8260000182908060018154018082558091505090600182039060005260206000200160009091929091909150555061e5ed7f8de4d4b62709fb9aa3764ecad70f3f67ded177953e8d0b3fa69eb7270f7a72b860010261d2ba565b61e6197feef1a22ab497f0a0b5773c261963d43f0abced69475a8f361c4c09940a2e0f1160010261d2ba565b82600001805490508360010160008481526020019081526020016000208190555061e6667fd3ffd1de8410e1a5342524eadcc24cec3d13da46f520a8ff3842159d8ac5138160010261d2ba565b61e6927fd29f0954420e0dacdaf662725b7670ca376b5ecb1467eea88f3ed07b3cef9b2b60010261d2ba565b6001905061e724565b61e6c77f416543475b2a4ac207e92b54c5a89b0283eb8a6898f17e8a422c8a2b3bdfe4dd60010261d2ba565b61e6f37f53e6da82d3cb4b8c67410d9eef4d4d2578dc84336caa8505c50feddb82e7c74e60010261d2ba565b61e71f7f9985aa50040fc25f597dd3c0a0ef9e1794881ab1e07bd05e1686a5c77312771860010261d2ba565b600090505b92915050565b600061e7587f924e66bc6d3998d3584ee5dec8380db18c7801386c9813e9c519c714f9cf05b460010261d2ba565b61e7847f0464100dfed97956c95ac0853f67804ec637520949c0ddf43963e7218712c4ee60010261d2ba565b61e7b07f31239a0e5e1877005aeaa2cf67ecd4f26333ff91ac415b7b58467f96b928e47060010261d2ba565b600083600101600084815260200190815260200160002054905061e7f67f0e8690e5eba3bc911cbe19ecc595ae9d5a7041f8b723ff9c12a4707e72d1d70960010261d2ba565b61e8227f187fa4fe781f8142b1e1da8868034ad381d767259bb390adb2ffa112cc52f27260010261d2ba565b60008114151561ebab5761e8587f9edf3971b67091da233f4cee6fc830f48fc8dae83e1acedbee273f8618720ca860010261d2ba565b61e8847faa77a760e845cf44dffa170ad08e7782cf1bbc412ad237c88b0c772676e9150860010261d2ba565b61e8b07f91a387f2c534fe2d9593060ddb58e0e80cbd7962a699db2183f7fd9ac7bf071e60010261d2ba565b600060018203905061e8e47f5273e3157ed309e995284bc9a0977b5e190f596e6d0a7d6a98f63c6c2e9d2cf560010261d2ba565b61e9107f6d6ed45f9faffdfa6efb315d613b5cf6f6203c948a1d42a6be8e892393847bf560010261d2ba565b60006001866000018054905003905061e94b7f9c908650b18c4d06afe6e22d13e282f9f484d9b002a6121d345881d9d8d8309260010261d2ba565b61e9777fd1882d1c724fb038c1a118718cfe41c240fcbb742f29604cb573449c428371b760010261d2ba565b6000866000018281548110151561e98a57fe5b9060005260206000200154905061e9c37fc7f15540aa2b0ce236d481f7560d15ffafee2f2e30cac9beab7e15a266dfe9a760010261d2ba565b61e9ef7fd59aa80060ea20a1bee9535659b672619a59eb9abf365dafefcb942c2613c7f260010261d2ba565b80876000018481548110151561ea0157fe5b906000526020600020018190555061ea3b7f510cdbe5cda3c6cfdb8e3b071d5f7c35ea460dd72c7be1c916a1934f864dea1460010261d2ba565b61ea677f69556792cf99684702e25e6dffc56bf298f3be73f828931c796488097d672b3c60010261d2ba565b600183018760010160008381526020019081526020016000208190555061eab07fe7dbbe65769452c853cae620146590604b6b716ac01fb8b203f1ba9fc91fc22460010261d2ba565b61eadc7f0210cac0db58119dced257e99daceaaac77667d292149865bf117b7ca9eb4bce60010261d2ba565b86600001805480151561eaeb57fe5b6001900381819060005260206000200160009055905561eb2d7fbb32f6a0da519ded942950a6895a2c4b30863d395a47575812ea09df9c76aeef60010261d2ba565b8660010160008781526020019081526020016000206000905561eb727f2d7ec9f89494f43c00f58c9ac42d6c4126f5ad30efc6a67b48204435b90bdbe160010261d2ba565b61eb9e7f808fe5bd45f46ab8ff1cb9aa9c9a30377ea23be0941c4795446d41d254aae5c460010261d2ba565b600194505050505061ec35565b61ebd77f556bfe46c39f16f279635b09a7f3e6cb0df504be781b0931db8a40bab702a79760010261d2ba565b61ec037f5852ae1c75c424755782c3fdffd26401e1354b9b177513f37690d594b1ebc8ac60010261d2ba565b61ec2f7ff852b790830032d89971e2c521d42063f93f9915f774b150a71f19bed01505fa60010261d2ba565b60009150505b92915050565b50565b50565b50565b600061ec727f3831d2f46af76e575f65fd9ebffccfe8f17e118a92c6265ff792c3fdcb555a7960010261ec41565b61ec9e7f3e93a3758d1da71b45b1a9fc01c8011db23a18c98a24061d6e3aa8602da8247e60010261ec41565b61ecca7f603f8c0b01d48857d77b539a8e655e56c07b3c48fd7e9ec719459cc8f2dd36cc60010261ec41565b60006301e133808381151561ecdb57fe5b046107b261ffff1601905061ed127f6e46492d3df9309fcb22ad59e97be4a0b069b31f67d27fb48f6a34363dfa162b60010261ec41565b61ed3e7ff155b17cc897643b41df67d3561cc347f9bef4a466b3df72a02f1d326f96e3ec60010261ec41565b600061ed4f6107b261ffff1661f084565b61ed588361f084565b0361ffff16905061ed8b7fbcd6f205b1d394b650b54511aca8b4e9d42ae52409dfae8b84bf10b3ce084a0460010261ec41565b61edb77fe0d2cb0b4b54776f7c09b0b36f7ff6de0e2f4385a9cf7c33799b791b5dda635060010261ec41565b6000816301e2850002826107b261ffff168503036301e133800201905061ee007f1e9259b08c5dc9653126ea6fce79b6f72e0dd454c90c0cbf400d543ae59f7adf60010261ec41565b61ee2c7f94c55045a4ec3af02cec0a1fb9ea26f4ebd96e1d9fb84bc225c402e0a603af6060010261ec41565b5b8481111561f0215761ee617fd162d092a0721c0063aa29dd083713e6957b2c87c7b44a0a8ff66cb07fdf303b60010261ec41565b61ee8d7fcbae63fa06e6039f9c7f4ebaede7eb6aacf5468defd4888d5e8445c1bc9cca5b60010261ec41565b61ee996001840361f73b565b1561ef305761eeca7f5144054db1d58dbe626c516d675ab9e9455e65461e6162f87854014dfb8b021760010261ec41565b61eef67fce34780398d4a6d72cbbbb4d13a62cda7954f54ab95b8b90f1810060679b4e8360010261ec41565b61ef227f51e4d4712bf2ea774012502a24a8ba7762dd3d4d2b7ae816b41d57aa64e07d5160010261ec41565b6301e285008103905061efbe565b61ef5c7f966599230b2efe1217cf9a88ea1a477ee4707204861232319b6c946d000d830860010261ec41565b61ef887f6b283944c5f6af131447249ba3ee43ff2718d04e712b34fd445d2f93045ed4d960010261ec41565b61efb47faf744b6260b93deb033e632509d37e335b0846c424a549984680a439b124952a60010261ec41565b6301e13380810390505b61efea7fbbc6e5f05e60723a2fd98775070cdb71d4d05117e72768fc24d09ceb3b54ceee60010261ec41565b61f0167fbd8714a14ded21c1f0ef248834bf451f5f001d2e258588d47f591017749d7cde60010261ec41565b60018303925061ee2d565b61f04d7f7ff2a0a65e08d801c71d32e5fa6d21c7c14daa7b9b52e6911951e61d2dee5ece60010261ec41565b61f0797fc400fa2f19d96d670b5cd553118c3dcc839d1ca01643f3f2aadbb964e66cd58260010261ec41565b829350505050919050565b600061f0b27ff007e8ce052e12f2d9bf15fe86b6823999a3c41af914f5f26d038a66674422af60010261ec41565b61f0de7f9f24d204f8e8b55dda232ace5da3fe70f2008525f5cb8e874eb1ea6a4fe7e88260010261ec41565b61f10a7fa8f5f468d40e0ee31e441b11ee194e32890c772b4f58e9af8b5b41d398fe187260010261ec41565b60018203915061f13c7f66affc12d63b8855820aa906e9a4b08c2feb4edb8a116a91f556979f3ab99ced60010261ec41565b61f1687f3bb09d0037b739d50b6349daabc35de9ddb93a013c8fcbff0af23e099adcbb0460010261ec41565b60648281151561f17457fe5b046101908381151561f18257fe5b0460048481151561f18f57fe5b0401039050919050565b600061f1c77fb4c0a2f66d83d32038e7162b3ad28e2705331fb983cfb3cb064b37501889ea5360010261ec41565b61f1f37fc5100a56dce49bf964aa99b54f102a3f0a3f6a803d69972b999aee261a9a86da60010261ec41565b61f21f7f3940530a99f4099b8f4d07dc32f531b54295567a330c81801a6ef5040028a23c60010261ec41565b60028360ff16141561f3ab5761f2577f69bd8442c820eb767dab3ea1cbde489b75622373364717d027596fcb6b43393760010261ec41565b61f2837fc1cde02925920c3dd289f9c937a9ce3ae53fce4f82996d43e6461729014076d660010261ec41565b61f2af7f9b897a64bbfff882530d264b969ff02abff2819b3ebd5a7d0ee1d9f5d1a0b19360010261ec41565b61f2b88261f73b565b1561f31e5761f2e97f1bc45735d4e64373353e1d3b278bd6c7cdd83cf891971c65ff92433c8a9f078560010261ec41565b61f3157fd907228da083e86c4a94974b84b50f80ed66b5dfb58276fcb209c6cfe56df5b260010261ec41565b601d905061f54f565b61f34a7fb1cb616ec0506f2ecfd084b6e3b54e8a6d2d1bc23112f172081f64ad47bd978e60010261ec41565b61f3767fc53b73c047fd53baa01f9f93b941aeb2fed3930f8ccacde5e4b031f6d034a97a60010261ec41565b61f3a27f44ffb8ba1c424d23b5cf0490a0229b72ced587f226aeb184b14de4140a724b0860010261ec41565b601c905061f54f565b61f3d77f504a8ec7857f77f0f05b9e1fa4ba5073fb694e2771756c23a9c9532dade4d4f860010261ec41565b61f4037f903e5899356adf169cc3d09a553e3b95613b37b8b2c8192fcec99a21cf72b5fc60010261ec41565b60048360ff16148061f418575060068360ff16145b8061f426575060098360ff16145b8061f4345750600b8360ff16145b1561f4c65761f4657fe5b363119b7f9ef45484423cb8ff0353b064ab8ff3ed4ef958fb4e841ec7aa1b60010261ec41565b61f4917fbb3a674b09336dbb76a30f85820f5fc5fea400803f83148dd166d65b077761e460010261ec41565b61f4bd7f251fb80cc25a2f96ff3c65f2ee513e802271dfa26e68bc2b8620d6b53d34c17260010261ec41565b601e905061f54f565b61f4f27f0685935c6ba4dd53ff0b8540217e29a80271148233eb7d9a6deb49106a09961460010261ec41565b61f51e7f34f29fb6bec7bdee0f975b3b46a51f8a3a974bb47978e8b49ff7983cc11b11e560010261ec41565b61f54a7fe4adfb0cbab84cf8fcf523d90533da057bec4887975b727ad4ee0ef78a58e0f360010261ec41565b601f90505b92915050565b600061f5837f659ee24f2f90a92fd4407919378438d34ff08398b5df93e04aa4ee37bf43283660010261ec41565b61f5af7fa58a1f34a2d54c93d5914a5ff8ac0cdd6f43092a957880c1b1b5a2be7c744aa660010261ec41565b61f5db7ff60d4be4c0422d3ef58f4bfaa0489889a2787df5de7f3164daaa008cfd10659560010261ec41565b6018610e108381151561f5ea57fe5b0481151561f5f457fe5b069050919050565b600061f62a7f284015969d16865a2ca6a6ec89e8f10c2383cb0ca47b0e8f7ac26a66b601a7f160010261ec41565b61f6567fde3638b8dda946d63a69803a80ae6fa235c42d959fd33f80cb0e4247396f0fd560010261ec41565b61f6827f11601f329febf3ba37d8935fe5019c24e5b604cf1a795e7e2be3082bff4702c060010261ec41565b603c808381151561f68f57fe5b0481151561f69957fe5b069050919050565b600061f6cf7fd5b956881580de96c71d2be72473aec96e179f8f03f16b9cad8cfb0ad738c6ed60010261ec41565b61f6fb7f22d5429e11b7a4b4ea253ae8dcffb6690765e732754c73f283de0a558b92c5fc60010261ec41565b61f7277f1d09cfc393507225f20c9f3d242cf56b5ca01b206913fca93693b9bfca9a3a8760010261ec41565b603c8281151561f73357fe5b069050919050565b600061f7697f6f95896d861a1cf4ef23bc40c92abfbca3affb80257f517f2c007562da81a80260010261ec41565b61f7957fb12ad78b1876d14abaa37416671bd07bed080a6ce64b371bdfd7e2d69d89da6e60010261ec41565b61f7c17f6c06717daf4584869deb27237b0c27fb71b4bf54141f6fb6817c9a7083688aba60010261ec41565b60006101908381151561f7d057fe5b06148061f8025750600060048381151561f7e657fe5b0614801561f8015750600060648381151561f7fd57fe5b0614155b5b9050919050565b828054600181600116156101000203166002900490600052602060002090601f016020900481019282601f1061f84a57805160ff191683800117855561f878565b8280016001018555821561f878579182015b8281111561f87757825182559160200191906001019061f85c565b5b50905061f885919061f8d3565b5090565b60c060405190810160405280600061ffff168152602001600060ff168152602001600060ff168152602001600060ff168152602001600060ff168152602001600060ff1681525090565b61f8f591905b8082111561f8f157600081600090555060010161f8d9565b5090565b9056fea165627a7a723058207d98f83f21047fe051966eeedd08c3dda4f9c851e2e97f384ac0bb8cb952eddd0029",
  "linkReferences": {
    "contracts/libs/DateTimeModel.sol": {
      "DateTimeModel": [
        {
          "length": 20,
          "start": 47945
        },
        {
          "length": 20,
          "start": 49981
        }
      ]
    },
    "contracts/libs/GluwaAccountModel.sol": {
      "GluwaAccountModel": [
        {
          "length": 20,
          "start": 35374
        },
        {
          "length": 20,
          "start": 35736
        },
        {
          "length": 20,
          "start": 44916
        }
      ]
    }
  },
  "deployedLinkReferences": {
    "contracts/libs/DateTimeModel.sol": {
      "DateTimeModel": [
        {
          "length": 20,
          "start": 47925
        },
        {
          "length": 20,
          "start": 49961
        }
      ]
    },
    "contracts/libs/GluwaAccountModel.sol": {
      "GluwaAccountModel": [
        {
          "length": 20,
          "start": 35354
        },
        {
          "length": 20,
          "start": 35716
        },
        {
          "length": 20,
          "start": 44896
        }
      ]
    }
  }
}