{
  "_format": "hh-sol-artifact-1",
  "contractName": "SandboxPrizeLinkedAccountVault",
  "sourceName": "contracts/mocks/SandboxPrizeLinkedAccountVault.sol",
  "abi": [
    {
      "constant": false,
      "inputs": [
        {
          "name": "owner",
          "type": "address"
        },
        {
          "name": "amount",
          "type": "uint256"
        }
      ],
      "name": "depositPrizedLinkAccount",
      "outputs": [
        {
          "name": "",
          "type": "bool"
        }
      ],
      "payable": false,
      "stateMutability": "nonpayable",
      "type": "function"
    },
    {
      "constant": true,
      "inputs": [
        {
          "name": "idx",
          "type": "uint256"
        }
      ],
      "name": "getTicketDetailsById",
      "outputs": [
        {
          "name": "",
          "type": "uint256"
        }
      ],
      "payable": false,
      "stateMutability": "view",
      "type": "function"
    },
    {
      "constant": false,
      "inputs": [
        {
          "name": "admin",
          "type": "address"
        },
        {
          "name": "tokenAddress",
          "type": "address"
        },
        {
          "name": "standardInterestRate",
          "type": "uint32"
        },
        {
          "name": "standardInterestRatePercentageBase",
          "type": "uint32"
        },
        {
          "name": "standardMaturityTerm",
          "type": "uint64"
        },
        {
          "name": "budget",
          "type": "uint256"
        },
        {
          "name": "tokenPerTicket",
          "type": "uint16"
        },
        {
          "name": "ticketValidityTargetBlock",
          "type": "uint16"
        },
        {
          "name": "totalTicketPerBatch",
          "type": "uint32"
        }
      ],
      "name": "initialize",
      "outputs": [],
      "payable": false,
      "stateMutability": "nonpayable",
      "type": "function"
    },
    {
      "constant": true,
      "inputs": [
        {
          "name": "owner",
          "type": "address"
        }
      ],
      "name": "getValidTicketIdFor",
      "outputs": [
        {
          "name": "",
          "type": "uint256[]"
        }
      ],
      "payable": false,
      "stateMutability": "view",
      "type": "function"
    },
    {
      "constant": true,
      "inputs": [
        {
          "name": "role",
          "type": "bytes32"
        }
      ],
      "name": "getRoleAdmin",
      "outputs": [
        {
          "name": "",
          "type": "bytes32"
        }
      ],
      "payable": false,
      "stateMutability": "view",
      "type": "function"
    },
    {
      "constant": true,
      "inputs": [
        {
          "name": "account",
          "type": "address"
        }
      ],
      "name": "isAdmin",
      "outputs": [
        {
          "name": "",
          "type": "bool"
        }
      ],
      "payable": false,
      "stateMutability": "view",
      "type": "function"
    },
    {
      "constant": true,
      "inputs": [
        {
          "name": "idx",
          "type": "uint256"
        }
      ],
      "name": "getTicketById",
      "outputs": [
        {
          "name": "",
          "type": "uint56"
        },
        {
          "name": "",
          "type": "address"
        },
        {
          "name": "",
          "type": "uint48"
        },
        {
          "name": "",
          "type": "uint48"
        },
        {
          "name": "",
          "type": "uint96"
        },
        {
          "name": "",
          "type": "uint8"
        }
      ],
      "payable": false,
      "stateMutability": "view",
      "type": "function"
    },
    {
      "constant": false,
      "inputs": [],
      "name": "renounceOperator",
      "outputs": [],
      "payable": false,
      "stateMutability": "nonpayable",
      "type": "function"
    },
    {
      "constant": false,
      "inputs": [
        {
          "name": "role",
          "type": "bytes32"
        },
        {
          "name": "account",
          "type": "address"
        }
      ],
      "name": "grantRole",
      "outputs": [],
      "payable": false,
      "stateMutability": "nonpayable",
      "type": "function"
    },
    {
      "constant": true,
      "inputs": [],
      "name": "getCurrentWinner",
      "outputs": [
        {
          "name": "",
          "type": "uint256"
        }
      ],
      "payable": false,
      "stateMutability": "view",
      "type": "function"
    },
    {
      "constant": false,
      "inputs": [
        {
          "name": "role",
          "type": "bytes32"
        },
        {
          "name": "account",
          "type": "address"
        }
      ],
      "name": "renounceRole",
      "outputs": [],
      "payable": false,
      "stateMutability": "nonpayable",
      "type": "function"
    },
    {
      "constant": true,
      "inputs": [],
      "name": "getCurrentTotalDeposit",
      "outputs": [
        {
          "name": "",
          "type": "uint256"
        }
      ],
      "payable": false,
      "stateMutability": "view",
      "type": "function"
    },
    {
      "constant": true,
      "inputs": [],
      "name": "getSavingSettings",
      "outputs": [
        {
          "name": "",
          "type": "uint64"
        },
        {
          "name": "",
          "type": "uint32"
        },
        {
          "name": "",
          "type": "uint32"
        },
        {
          "name": "",
          "type": "uint256"
        },
        {
          "name": "",
          "type": "uint256"
        },
        {
          "name": "",
          "type": "address"
        }
      ],
      "payable": false,
      "stateMutability": "view",
      "type": "function"
    },
    {
      "constant": true,
      "inputs": [
        {
          "name": "account",
          "type": "address"
        }
      ],
      "name": "isOperator",
      "outputs": [
        {
          "name": "",
          "type": "bool"
        }
      ],
      "payable": false,
      "stateMutability": "view",
      "type": "function"
    },
    {
      "constant": false,
      "inputs": [
        {
          "name": "account",
          "type": "address"
        }
      ],
      "name": "addAdmin",
      "outputs": [],
      "payable": false,
      "stateMutability": "nonpayable",
      "type": "function"
    },
    {
      "constant": true,
      "inputs": [
        {
          "name": "depositHash",
          "type": "bytes32"
        }
      ],
      "name": "getDeposit",
      "outputs": [
        {
          "name": "",
          "type": "uint256"
        },
        {
          "name": "",
          "type": "uint256"
        },
        {
          "name": "",
          "type": "address"
        },
        {
          "name": "",
          "type": "uint256"
        },
        {
          "name": "",
          "type": "uint256"
        }
      ],
      "payable": false,
      "stateMutability": "view",
      "type": "function"
    },
    {
      "constant": true,
      "inputs": [
        {
          "name": "owner",
          "type": "address"
        }
      ],
      "name": "getSavingAcountFor",
      "outputs": [
        {
          "name": "",
          "type": "uint256"
        },
        {
          "name": "",
          "type": "bytes32"
        },
        {
          "name": "",
          "type": "address"
        },
        {
          "name": "",
          "type": "uint32"
        },
        {
          "name": "",
          "type": "uint32"
        },
        {
          "name": "",
          "type": "uint256"
        },
        {
          "name": "",
          "type": "uint256"
        },
        {
          "name": "",
          "type": "uint256"
        },
        {
          "name": "",
          "type": "uint8"
        },
        {
          "name": "",
          "type": "bytes"
        }
      ],
      "payable": false,
      "stateMutability": "view",
      "type": "function"
    },
    {
      "constant": false,
      "inputs": [
        {
          "name": "drawTimeStamp",
          "type": "uint256"
        }
      ],
      "name": "prizeDraw",
      "outputs": [
        {
          "name": "",
          "type": "bool"
        }
      ],
      "payable": false,
      "stateMutability": "nonpayable",
      "type": "function"
    },
    {
      "constant": false,
      "inputs": [],
      "name": "renounceAdmin",
      "outputs": [],
      "payable": false,
      "stateMutability": "nonpayable",
      "type": "function"
    },
    {
      "constant": true,
      "inputs": [
        {
          "name": "role",
          "type": "bytes32"
        },
        {
          "name": "index",
          "type": "uint256"
        }
      ],
      "name": "getRoleMember",
      "outputs": [
        {
          "name": "",
          "type": "address"
        }
      ],
      "payable": false,
      "stateMutability": "view",
      "type": "function"
    },
    {
      "constant": true,
      "inputs": [
        {
          "name": "role",
          "type": "bytes32"
        },
        {
          "name": "account",
          "type": "address"
        }
      ],
      "name": "hasRole",
      "outputs": [
        {
          "name": "",
          "type": "bool"
        }
      ],
      "payable": false,
      "stateMutability": "view",
      "type": "function"
    },
    {
      "constant": false,
      "inputs": [
        {
          "name": "account",
          "type": "address"
        }
      ],
      "name": "addOperator",
      "outputs": [],
      "payable": false,
      "stateMutability": "nonpayable",
      "type": "function"
    },
    {
      "constant": true,
      "inputs": [],
      "name": "getSavingAcount",
      "outputs": [
        {
          "name": "",
          "type": "uint256"
        },
        {
          "name": "",
          "type": "bytes32"
        },
        {
          "name": "",
          "type": "address"
        },
        {
          "name": "",
          "type": "uint32"
        },
        {
          "name": "",
          "type": "uint32"
        },
        {
          "name": "",
          "type": "uint256"
        },
        {
          "name": "",
          "type": "uint256"
        },
        {
          "name": "",
          "type": "uint256"
        },
        {
          "name": "",
          "type": "uint8"
        },
        {
          "name": "",
          "type": "bytes"
        }
      ],
      "payable": false,
      "stateMutability": "view",
      "type": "function"
    },
    {
      "constant": true,
      "inputs": [],
      "name": "DEFAULT_ADMIN_ROLE",
      "outputs": [
        {
          "name": "",
          "type": "bytes32"
        }
      ],
      "payable": false,
      "stateMutability": "view",
      "type": "function"
    },
    {
      "constant": false,
      "inputs": [
        {
          "name": "account",
          "type": "address"
        }
      ],
      "name": "removeOperator",
      "outputs": [],
      "payable": false,
      "stateMutability": "nonpayable",
      "type": "function"
    },
    {
      "constant": true,
      "inputs": [
        {
          "name": "owner",
          "type": "address"
        }
      ],
      "name": "test",
      "outputs": [
        {
          "name": "",
          "type": "uint256"
        },
        {
          "name": "",
          "type": "uint256"
        }
      ],
      "payable": false,
      "stateMutability": "pure",
      "type": "function"
    },
    {
      "constant": true,
      "inputs": [
        {
          "name": "role",
          "type": "bytes32"
        }
      ],
      "name": "getRoleMemberCount",
      "outputs": [
        {
          "name": "",
          "type": "uint256"
        }
      ],
      "payable": false,
      "stateMutability": "view",
      "type": "function"
    },
    {
      "constant": false,
      "inputs": [
        {
          "name": "owner",
          "type": "address"
        },
        {
          "name": "amount",
          "type": "uint256"
        },
        {
          "name": "securityHash",
          "type": "bytes"
        }
      ],
      "name": "createPrizedLinkAccount",
      "outputs": [
        {
          "name": "",
          "type": "bool"
        }
      ],
      "payable": false,
      "stateMutability": "nonpayable",
      "type": "function"
    },
    {
      "constant": false,
      "inputs": [
        {
          "name": "role",
          "type": "bytes32"
        },
        {
          "name": "account",
          "type": "address"
        }
      ],
      "name": "revokeRole",
      "outputs": [],
      "payable": false,
      "stateMutability": "nonpayable",
      "type": "function"
    },
    {
      "constant": false,
      "inputs": [
        {
          "name": "referenceHash",
          "type": "bytes32"
        }
      ],
      "name": "createPrizedLinkTickets",
      "outputs": [
        {
          "name": "",
          "type": "bool"
        }
      ],
      "payable": false,
      "stateMutability": "nonpayable",
      "type": "function"
    },
    {
      "constant": true,
      "inputs": [],
      "name": "OPERATOR_ROLE",
      "outputs": [
        {
          "name": "",
          "type": "bytes32"
        }
      ],
      "payable": false,
      "stateMutability": "view",
      "type": "function"
    },
    {
      "anonymous": false,
      "inputs": [
        {
          "indexed": false,
          "name": "winner",
          "type": "address"
        },
        {
          "indexed": false,
          "name": "ticket",
          "type": "uint256"
        },
        {
          "indexed": false,
          "name": "reward",
          "type": "uint256"
        }
      ],
      "name": "Winner",
      "type": "event"
    },
    {
      "anonymous": false,
      "inputs": [
        {
          "indexed": true,
          "name": "accountHash",
          "type": "bytes32"
        },
        {
          "indexed": true,
          "name": "owner",
          "type": "address"
        }
      ],
      "name": "CreateAccount",
      "type": "event"
    },
    {
      "anonymous": false,
      "inputs": [
        {
          "indexed": true,
          "name": "depositHash",
          "type": "bytes32"
        },
        {
          "indexed": true,
          "name": "owner",
          "type": "address"
        },
        {
          "indexed": false,
          "name": "deposit",
          "type": "uint256"
        }
      ],
      "name": "CreateDeposit",
      "type": "event"
    },
    {
      "anonymous": false,
      "inputs": [
        {
          "indexed": true,
          "name": "owner",
          "type": "address"
        },
        {
          "indexed": false,
          "name": "amount",
          "type": "uint256"
        }
      ],
      "name": "WithdrawSavingAccount",
      "type": "event"
    },
    {
      "anonymous": false,
      "inputs": [
        {
          "indexed": true,
          "name": "role",
          "type": "bytes32"
        },
        {
          "indexed": true,
          "name": "account",
          "type": "address"
        },
        {
          "indexed": true,
          "name": "sender",
          "type": "address"
        }
      ],
      "name": "RoleGranted",
      "type": "event"
    },
    {
      "anonymous": false,
      "inputs": [
        {
          "indexed": true,
          "name": "role",
          "type": "bytes32"
        },
        {
          "indexed": true,
          "name": "account",
          "type": "address"
        },
        {
          "indexed": true,
          "name": "sender",
          "type": "address"
        }
      ],
      "name": "RoleRevoked",
      "type": "event"
    }
  ],
  "bytecode": "0x60806040526137fa806100136000396000f3fe60806040526004361061018a5763ffffffff7c0100000000000000000000000000000000000000000000000000000000600035041663033d086d811461018f5780630740da47146101dc5780630af4ad1b146102185780631112f0f7146102a1578063248a9ca31461032457806324d7806c1461034e57806327b7aabc146103815780632ab6f8db1461040b5780632f2ff15d14610420578063329bfc331461045957806336568abe1461046e5780633a990db0146104a7578063529298b8146104bc5780636d70f7ae1461052057806370480275146105535780637a86983f1461058657806382133e38146105e357806383f9f4d2146107055780638bad0c0a1461072f5780639010d07c1461074457806391d14854146107905780639870d7fe146107c95780639964476f146107fc578063a217fddf14610811578063ac8a584a14610826578063bb29998e14610859578063ca15c873146108a5578063cf123e30146108cf578063d547741f14610961578063efb41d6b1461099a578063f5b541a6146109c4575b600080fd5b34801561019b57600080fd5b506101c8600480360360408110156101b257600080fd5b50600160a060020a0381351690602001356109d9565b604080519115158252519081900360200190f35b3480156101e857600080fd5b50610206600480360360208110156101ff57600080fd5b5035610a42565b60408051918252519081900360200190f35b34801561022457600080fd5b5061029f600480360361012081101561023c57600080fd5b50600160a060020a03813581169160208101359091169063ffffffff6040820135811691606081013582169167ffffffffffffffff6080830135169160a08101359161ffff60c083013581169260e0810135909116916101009091013516610a57565b005b3480156102ad57600080fd5b506102d4600480360360208110156102c457600080fd5b5035600160a060020a0316610bc8565b60408051602080825283518183015283519192839290830191858101910280838360005b838110156103105781810151838201526020016102f8565b505050509050019250505060405180910390f35b34801561033057600080fd5b506102066004803603602081101561034757600080fd5b5035610c78565b34801561035a57600080fd5b506101c86004803603602081101561037157600080fd5b5035600160a060020a0316610c8d565b34801561038d57600080fd5b506103ab600480360360208110156103a457600080fd5b5035610c99565b6040805166ffffffffffffff9097168752600160a060020a03909516602087015265ffffffffffff938416868601529190921660608501526bffffffffffffffffffffffff909116608084015260ff1660a0830152519081900360c00190f35b34801561041757600080fd5b5061029f610cbf565b34801561042c57600080fd5b5061029f6004803603604081101561044357600080fd5b5080359060200135600160a060020a0316610cf2565b34801561046557600080fd5b50610206610d9f565b34801561047a57600080fd5b5061029f6004803603604081101561049157600080fd5b5080359060200135600160a060020a0316610da6565b3480156104b357600080fd5b50610206610e40565b3480156104c857600080fd5b506104d1610e46565b6040805167ffffffffffffffff909716875263ffffffff9586166020880152939094168584015260608501919091526080840152600160a060020a0390911660a0830152519081900360c00190f35b34801561052c57600080fd5b506101c86004803603602081101561054357600080fd5b5035600160a060020a0316610e82565b34801561055f57600080fd5b5061029f6004803603602081101561057657600080fd5b5035600160a060020a0316610eaf565b34801561059257600080fd5b506105b0600480360360208110156105a957600080fd5b5035610f23565b604080519586526020860194909452600160a060020a039092168484015260608401526080830152519081900360a00190f35b3480156105ef57600080fd5b506106166004803603602081101561060657600080fd5b5035600160a060020a0316610f31565b604051808b81526020018a815260200189600160a060020a0316600160a060020a031681526020018863ffffffff1663ffffffff1681526020018763ffffffff1663ffffffff16815260200186815260200185815260200184815260200183600481111561068057fe5b60ff16815260200180602001828103825283818151815260200191508051906020019080838360005b838110156106c15781810151838201526020016106a9565b50505050905090810190601f1680156106ee5780820380516001836020036101000a031916815260200191505b509b50505050505050505050505060405180910390f35b34801561071157600080fd5b506101c86004803603602081101561072857600080fd5b5035610fba565b34801561073b57600080fd5b5061029f6110ae565b34801561075057600080fd5b506107746004803603604081101561076757600080fd5b50803590602001356110ef565b60408051600160a060020a039092168252519081900360200190f35b34801561079c57600080fd5b506101c8600480360360408110156107b357600080fd5b5080359060200135600160a060020a031661110d565b3480156107d557600080fd5b5061029f600480360360208110156107ec57600080fd5b5035600160a060020a031661112b565b34801561080857600080fd5b506106166111b6565b34801561081d57600080fd5b506102066111f6565b34801561083257600080fd5b5061029f6004803603602081101561084957600080fd5b5035600160a060020a03166111fb565b34801561086557600080fd5b5061088c6004803603602081101561087c57600080fd5b5035600160a060020a0316611286565b6040805192835260208301919091528051918290030190f35b3480156108b157600080fd5b50610206600480360360208110156108c857600080fd5b50356112a3565b3480156108db57600080fd5b506101c8600480360360608110156108f257600080fd5b600160a060020a038235169160208101359181019060608101604082013564010000000081111561092257600080fd5b82018360208201111561093457600080fd5b8035906020019184600183028401116401000000008311171561095657600080fd5b5090925090506112ba565b34801561096d57600080fd5b5061029f6004803603604081101561098457600080fd5b5080359060200135600160a060020a0316611396565b3480156109a657600080fd5b506101c8600480360360208110156109bd57600080fd5b5035611430565b3480156109d057600080fd5b506102066114b7565b60006109eb6109e66114da565b610e82565b1515610a2f576040805160e560020a62461bcd028152602060048201526018602482015260008051602061376f833981519152604482015290519081900360640190fd5b610a3983836114de565b90505b92915050565b6000818152607d60205260409020545b919050565b600054610100900460ff1680610a705750610a7061152f565b80610a7e575060005460ff16155b1515610ad6576040805160e560020a62461bcd02815260206004820152602e602482015260008051602061378f83398151915260448201526000805160206137af833981519152606482015290519081900360840190fd5b600054610100900460ff16158015610b01576000805460ff1961ff0019909116610100171660011790555b610b0a8a611535565b610b178989898989611654565b607354604080517f313ce5670000000000000000000000000000000000000000000000000000000081529051610baa92600160a060020a03169163313ce567916004808301926020929190829003018186803b158015610b7657600080fd5b505afa158015610b8a573d6000803e3d6000fd5b505050506040513d6020811015610ba057600080fd5b50518585856117e5565b8015610bbc576000805461ff00191690555b50505050505050505050565b6060610bd56109e66114da565b1515610c19576040805160e560020a62461bcd028152602060048201526018602482015260008051602061376f833981519152604482015290519081900360640190fd5b610c228261191c565b805480602002602001604051908101604052809291908181526020018280548015610c6c57602002820191906000526020600020905b815481526020019060010190808311610c58575b50505050509050919050565b60009081526033602052604090206002015490565b6000610a3c818361110d565b600080600080600080610cab87611936565b949c939b5091995097509550909350915050565b6040805160008051602061374f83398151915281529051908190036008019020610cf090610ceb6114da565b610da6565b565b600082815260336020526040902060020154610d1590610d106114da565b61110d565b1515610d91576040805160e560020a62461bcd02815260206004820152602f60248201527f416363657373436f6e74726f6c3a2073656e646572206d75737420626520616e60448201527f2061646d696e20746f206772616e740000000000000000000000000000000000606482015290519081900360840190fd5b610d9b828261197e565b5050565b607a545b90565b610dae6114da565b600160a060020a03828116911614610e36576040805160e560020a62461bcd02815260206004820152602f60248201527f416363657373436f6e74726f6c3a2063616e206f6e6c792072656e6f756e636560448201527f20726f6c657320666f722073656c660000000000000000000000000000000000606482015290519081900360840190fd5b610d9b82826119ed565b60725490565b60655460715460665460675460735467ffffffffffffffff9094169463ffffffff808516956401000000009095041693600160a060020a031690565b6040805160008051602061374f83398151915281529051908190036008019020600090610a3c908361110d565b610ebf610eba6114da565b610c8d565b1515610f15576040805160e560020a62461bcd02815260206004820152601560248201527f5265737472696374656420746f2041646d696e732e0000000000000000000000604482015290519081900360640190fd5b610f20600082610cf2565b50565b506000908190819081908190565b60008060008060008060008060006060610f4c6109e66114da565b1515610f90576040805160e560020a62461bcd028152602060048201526018602482015260008051602061376f833981519152604482015290519081900360640190fd5b610f998b611a5c565b99509950995099509950995099509950995099509193959799509193959799565b6000610fc76109e66114da565b151561100b576040805160e560020a62461bcd028152602060048201526018602482015260008051602061376f833981519152604482015290519081900360640190fd5b600061101683611b9d565b607154607254607c549293506000926110669263ffffffff640100000000820481169361105a939282169261104e92909190611df316565b9063ffffffff611e5016565b9063ffffffff611eec16565b905060008260000154111561109b576000607c55600182015461109290600160a060020a0316826114de565b92505050610a52565b607c805490910190555060019050610a52565b60006110b86114da565b90506110c5600082610da6565b6040805160008051602061374f83398151915281529051908190036008019020610f209082610da6565b6000828152603360205260408120610a39908363ffffffff611f2e16565b6000828152603360205260408120610a39908363ffffffff611f3a16565b611136610eba6114da565b151561118c576040805160e560020a62461bcd02815260206004820152601560248201527f5265737472696374656420746f2041646d696e732e0000000000000000000000604482015290519081900360640190fd5b6040805160008051602061374f83398151915281529051908190036008019020610f209082610cf2565b600080600080600080600080600060606111d66111d16114da565b611a5c565b995099509950995099509950995099509950995090919293949596979899565b600081565b611206610eba6114da565b151561125c576040805160e560020a62461bcd02815260206004820152601560248201527f5265737472696374656420746f2041646d696e732e0000000000000000000000604482015290519081900360640190fd5b6040805160008051602061374f83398151915281529051908190036008019020610f209082611396565b600160a060020a0316906c01000000000000000000000000820290565b6000818152603360205260408120610a3c90611f4f565b60006112c76109e66114da565b151561130b576040805160e560020a62461bcd028152602060048201526018602482015260008051602061376f833981519152604482015290519081900360640190fd5b600061134f86864287878080601f016020809104026020016040519081016040528093929190818152602001838380828437600092019190915250611f5a92505050565b60785490925061137b915061ffff6101008204169061105a90889060ff16600a0a63ffffffff611eec16565b6000918252607f602052604090912055506001949350505050565b6000828152603360205260409020600201546113b490610d106114da565b1515610e36576040805160e560020a62461bcd02815260206004820152603060248201527f416363657373436f6e74726f6c3a2073656e646572206d75737420626520616e60448201527f2061646d696e20746f207265766f6b6500000000000000000000000000000000606482015290519081900360840190fd5b600061143d6109e66114da565b1515611481576040805160e560020a62461bcd028152602060048201526018602482015260008051602061376f833981519152604482015290519081900360640190fd5b6000828152607560205260409020600281015460038201546114ad91600160a060020a0316908561277b565b5060019392505050565b6040805160008051602061374f8339815191528152905190819003600801902081565b3390565b6000806114eb8484612c44565b6078549091506115169061ffff6101008204169061105a90869060ff16600a0a63ffffffff611eec16565b6000918252607f60205260409091205550600192915050565b303b1590565b600054610100900460ff168061154e575061154e61152f565b8061155c575060005460ff16155b15156115b4576040805160e560020a62461bcd02815260206004820152602e602482015260008051602061378f83398151915260448201526000805160206137af833981519152606482015290519081900360840190fd5b600054610100900460ff161580156115df576000805460ff1961ff0019909116610100171660011790555b6040805160008051602061374f8339815191528152905190819003600801902061160a906000612fc7565b611615600083610d91565b6040805160008051602061374f8339815191528152905190819003600801902061163f9083610d91565b8015610d9b576000805461ff00191690555050565b600054610100900460ff168061166d575061166d61152f565b8061167b575060005460ff16155b15156116d3576040805160e560020a62461bcd02815260206004820152602e602482015260008051602061378f83398151915260448201526000805160206137af833981519152606482015290519081900360840190fd5b600054610100900460ff161580156116fe576000805460ff1961ff0019909116610100171660011790555b6073805473ffffffffffffffffffffffffffffffffffffffff1916600160a060020a0388161790556071805463ffffffff191663ffffffff8781169190911767ffffffff000000001916640100000000918716919091021790556065805467ffffffffffffffff191667ffffffffffffffff851617905560668290556040805160608082018352600180835260208084018290526000938501849052606a829055606b829055606c8490558451928301855281835282018190529201819052606e829055606f9190915560705580156117dd576000805461ff00191690555b505050505050565b600054610100900460ff16806117fe57506117fe61152f565b8061180c575060005460ff16155b1515611864576040805160e560020a62461bcd02815260206004820152602e602482015260008051602061378f83398151915260448201526000805160206137af833981519152606482015290519081900360840190fd5b600054610100900460ff1615801561188f576000805460ff1961ff0019909116610100171660011790555b6078805460ff191660ff87161762ffff00191661010061ffff878116919091029190911764ffff0000001916630100000091861691909102179055607b805463ffffffff191663ffffffff841617905560408051602081019091526001908190526077805466ffffffffffffff191690911790558015611915576000805461ff00191690555b5050505050565b600160a060020a0316600090815260816020526040902090565b6000818152607d6020526040812060018101548154600160a060020a039091169183918291829182919061196990612fdc565b939c999b509199509790965090945092505050565b600082815260336020526040902061199c908263ffffffff61302c16565b15610d9b576119a96114da565b600160a060020a031681600160a060020a0316837f2f8788117e7eff1d82e926ec794901d17c78024a50270940304540a733656f0d60405160405180910390a45050565b6000828152603360205260409020611a0b908263ffffffff61304116565b15610d9b57611a186114da565b600160a060020a031681600160a060020a0316837ff6391f5c32d9c69d2a47ea670b442974b53935d1edc7fd64eb21e047a839171b60405160405180910390a45050565b600160a060020a0380821660009081526074602090815260408083208054600180830154600280850154600386015460048701546005880154600689015460078a0180548c51601f6000199b831615610100029b909b01909116979097049889018d90048d0287018d01909b528786529b9c8d9c8d9c8d9c8d9c8d9c8d9c8d9c8d9c60609c949b939a91999885169863ffffffff74010000000000000000000000000000000000000000870481169960c060020a909704169794969295909460ff909116938391830182828015611b745780601f10611b4957610100808354040283529160200191611b74565b820191906000526020600020905b815481529060010190602001808311611b5757829003601f168201915b505050505090509a509a509a509a509a509a509a509a509a509a50509193959799509193959799565b600081815260826020526040812080548290607d908290849082908110611bc057fe5b906000526020600020015481526020019081526020016000209050600080611beb8360000154612fdc565b5060018701549395509350600092611c1a925066ffffffffffffff861691508490600160a060020a0316613056565b607988905560008881526083602090815260408083208484529091529020549091508190819015611cbb576040805160e560020a62461bcd02815260206004820152602660248201527f476c7577615072697a65447261773a207468652064726177206861732062656560448201527f6e206d6164650000000000000000000000000000000000000000000000000000606482015290519081900360840190fd5b6079546000908152608360209081526040808320868452909152902066ffffffffffffff8616905560015b8754811015611dae576000607d60008a84815481101515611d0357fe5b906000526020600020015481526020019081526020016000209050600080611d2e8360000154612fdc565b5060018701549395509350600092611d5d925066ffffffffffffff861691508490600160a060020a0316613056565b905086811115611d6f57809650611d7b565b85811015611d7b578095505b60795460009081526083602090815260408083209383529290522066ffffffffffffff9092169091555050600101611ce6565b506000611dbb828461309f565b607a8190556079546000908152608360209081526040808320938352928152828220548252607d9052209a9950505050505050505050565b600082820183811015610a39576040805160e560020a62461bcd02815260206004820152601b60248201527f536166654d6174683a206164646974696f6e206f766572666c6f770000000000604482015290519081900360640190fd5b6000821515611e6157506000610a3c565b828202828482811515611e7057fe5b0414610a39576040805160e560020a62461bcd02815260206004820152602160248201527f536166654d6174683a206d756c7469706c69636174696f6e206f766572666c6f60448201527f7700000000000000000000000000000000000000000000000000000000000000606482015290519081900360840190fd5b6000610a3983836040805190810160405280601a81526020017f536166654d6174683a206469766973696f6e206279207a65726f000000000000815250613107565b6000610a3983836131b0565b6000610a3983600160a060020a038416613252565b6000610a3c8261326a565b600080600160a060020a0386161515611fe3576040805160e560020a62461bcd02815260206004820152603860248201527f476c757761536176696e674163636f756e743a20536176696e67206f776e657260448201527f2061646472657373206d75737420626520646566696e65640000000000000000606482015290519081900360840190fd5b600160a060020a038616600090815260746020526040902060030154156120a0576040805160e560020a62461bcd02815260206004820152604760248201527f476c757761536176696e674163636f756e743a2045616368206164647265737360448201527f2073686f756c642068617665206f6e6c79203120536176696e67206163636f7560648201527f6e74206f6e6c7900000000000000000000000000000000000000000000000000608482015290519081900360a40190fd5b6076836040518082805190602001908083835b602083106120d25780518252601f1990920191602091820191016120b3565b51815160209384036101000a600019018019909216911617905292019485525060405193849003019092205460ff161591506121809050576040805160e560020a62461bcd02815260206004820152603160248201527f476c757761536176696e674163636f756e743a204964656e746974792068617360448201527f6820697320616c72656164792075736564000000000000000000000000000000606482015290519081900360840190fd5b607354604080517f23b872dd000000000000000000000000000000000000000000000000000000008152600160a060020a03898116600483015230602483015260448201899052915191909216916323b872dd9160648083019260209291908290030181600087803b1580156121f557600080fd5b505af1158015612209573d6000803e3d6000fd5b505050506040513d602081101561221f57600080fd5b505115156122c3576040805160e560020a62461bcd02815260206004820152604860248201527f476c757761536176696e674163636f756e743a20556e61626c6520746f20736560448201527f6e6420616d6f756e7420746f206465706f73697420746f206120536176696e6760648201527f204163636f756e74000000000000000000000000000000000000000000000000608482015290519081900360a40190fd5b604080517f84cefce000000000000000000000000000000000000000000000000000000000815260048101869052306024820152600160a060020a0388166044820152905160009173__$8ad4cadfbfab443c6ed09b45690dcdfb0d$__916384cefce091606480820192602092909190829003018186803b15801561234757600080fd5b505af415801561235b573d6000803e3d6000fd5b505050506040513d602081101561237157600080fd5b5051606b54604080517ffd96809e000000000000000000000000000000000000000000000000000000008152600481019290925260248201899052306044830152600160a060020a038a1660648301525191925060009173__$8ad4cadfbfab443c6ed09b45690dcdfb0d$__9163fd96809e916084808301926020929190829003018186803b15801561240357600080fd5b505af4158015612417573d6000803e3d6000fd5b505050506040513d602081101561242d57600080fd5b50516040805161014081018252606b54815260208101859052600160a060020a038b169181019190915260715463ffffffff808216606084015264010000000090910416608082015260a0810188905260c08101899052600060e08201529091506101008101600181526020908101879052600160a060020a038a81166000908152607483526040908190208451815592840151600180850191909155908401516002840180546060870151608088015173ffffffffffffffffffffffffffffffffffffffff19909216939095169290921777ffffffff000000000000000000000000000000000000000019167401000000000000000000000000000000000000000063ffffffff95861602177fffffffff00000000ffffffffffffffffffffffffffffffffffffffffffffffff1660c060020a94909216939093021790915560a0830151600383015560c083015160048084019190915560e084015160058401556101008401516006840180549193909260ff199092169184908111156125b157fe5b021790555061012082015180516125d2916007840191602090910190613681565b50506040805160a081018252606f548152606b546020808301918252600160a060020a038d8116848601908152606085018d8152608086018f815260008a815260758652889020965187559451600180880191909155915160028701805473ffffffffffffffffffffffffffffffffffffffff191691909416179092559051600385015591516004909301929092559151885192935060769289928291908401908083835b602083106126965780518252601f199092019160209182019101612677565b51815160209384036101000a60001901801990921691161790529201948552506040519384900301909220805460ff191693151593909317909255506126df905060698361326e565b6126f0606d8263ffffffff61326e16565b6072805488019055604051600160a060020a0389169083907fae420988b408fa1c16c342c73f56ece9307da09db1ac6b36fc8d9ff61acaa9a290600090a3604080518881529051600160a060020a038a169183917f2e2791fe9306933f4d6468aab16a0195b3ab2b342887b2e1be4aa35f568322979181900360200190a39097909650945050505050565b6000818152607e6020908152604080832054607f909252822054606092919003908111612818576040805160e560020a62461bcd02815260206004820152603f60248201527f476c7577615072697a65447261773a206e6f206d6f7265207469636b6574732060448201527f63616e206265206372656174656420666f722074686973206465706f73697400606482015290519081900360840190fd5b607b5463ffffffff168082101561282c5750805b6128346136ff565b61283d8661329e565b90506000600290506010826060015160ff1610806128755750816060015160ff1660101480156128755750603b826080015160ff1611155b1561287e575060015b6020808301518351604080517f8980747400000000000000000000000000000000000000000000000000000000815260ff909316600484015261ffff90911660248301525160009273__$05084330c9bf728fdd5577c5afe72a471f$__9263898074749260448083019392829003018186803b1580156128fd57600080fd5b505af4158015612911573d6000803e3d6000fd5b505050506040513d602081101561292757600080fd5b5051604084015190915060ff80831691840116111561298c57826020015160ff16600c1415156129645760208301805160010160ff169052612977565b825161ffff600191820116845260208401525b604083018051830182900360ff16905261299a565b604083018051830160ff1690525b60116060840181905260006080850181905260a08501819052845160208087015160408089015181517f0a37f14b00000000000000000000000000000000000000000000000000000000815261ffff909516600486015260ff9283166024860152909116604484015260648301949094526084820183905260a482018390529251919273__$05084330c9bf728fdd5577c5afe72a471f$__92630a37f14b9260c4808201939291829003018186803b158015612a5557600080fd5b505af4158015612a69573d6000803e3d6000fd5b505050506040513d6020811015612a7f57600080fd5b50516078546077549192506301000000900461ffff1643016c010000000000000000000000008b0217720100000000000000000000000000000000000083021760c060020a179066ffffffffffffff165b60775466ffffffffffffff90811663ffffffff89160181169082161015612c105760c88166ffffffffffffff169060020a028217915060408051908101604052808381526020018d600160a060020a0316815250607d60008366ffffffffffffff1681526020019081526020016000206000820151816000015560208201518160010160006101000a815481600160a060020a030219169083600160a060020a03160217905550905050612bba8166ffffffffffffff16608160008f600160a060020a0316600160a060020a031681526020019081526020016000206133cc90919063ffffffff16565b6000838152608260205260409020612be19066ffffffffffffff831663ffffffff6133cc16565b60008a8152607e60205260409020612c089066ffffffffffffff831663ffffffff6133cc16565b600101612ad0565b5060778054612c36919066ffffffffffffff1663ffffffff808a1691909101906133e416565b505050505050509392505050565b600160a060020a038216600090815260746020526040812060038101548210612cdd576040805160e560020a62461bcd02815260206004820152602560248201527f476c757761536176696e674163636f756e743a204163636f756e74206e6f742060448201527f666f756e64000000000000000000000000000000000000000000000000000000606482015290519081900360840190fd5b607354604080517f23b872dd000000000000000000000000000000000000000000000000000000008152600160a060020a03878116600483015230602483015260448201879052915191909216916323b872dd9160648083019260209291908290030181600087803b158015612d5257600080fd5b505af1158015612d66573d6000803e3d6000fd5b505050506040513d6020811015612d7c57600080fd5b50511515612e20576040805160e560020a62461bcd02815260206004820152604860248201527f476c757761536176696e674163636f756e743a20556e61626c6520746f20736560448201527f6e6420616d6f756e7420746f206465706f73697420746f206120536176696e6760648201527f204163636f756e74000000000000000000000000000000000000000000000000608482015290519081900360a40190fd5b600480820180548501905560728054850190558154604080517ffd96809e0000000000000000000000000000000000000000000000000000000081529283019190915260248201859052306044830152600160a060020a03861660648301525160009173__$8ad4cadfbfab443c6ed09b45690dcdfb0d$__9163fd96809e91608480820192602092909190829003018186803b158015612ebf57600080fd5b505af4158015612ed3573d6000803e3d6000fd5b505050506040513d6020811015612ee957600080fd5b50516040805160a081018252606f54815284546020808301918252600160a060020a038a81168486019081524260608601908152608086018c815260008981526075909552969093209451855592516001850155915160028401805473ffffffffffffffffffffffffffffffffffffffff1916919093161790915551600382015590516004909101559050612f7f606d8261326e565b604080518581529051600160a060020a0387169183917f2e2791fe9306933f4d6468aab16a0195b3ab2b342887b2e1be4aa35f568322979181900360200190a3949350505050565b60009182526033602052604090912060020155565b7901000000000000000000000000000000000000000000000000008104916c01000000000000000000000000820491720100000000000000000000000000000000000081049160c060020a820490565b6000610a3983600160a060020a038416613401565b6000610a3983600160a060020a03841661344d565b60006c01000000000000000000000000600160a060020a0383160261308467ffffffffffffffff8616613517565b6bffffffffffffffffffffffff851640181890509392505050565b60408051426020808301829052434083850152606083019190915244608083015260a0820184905260c08083018690528351808403909101815260e0909201909252805191012060009081908490600182860301908115156130fd57fe5b0601949350505050565b6000818184116131985760405160e560020a62461bcd0281526004018080602001828103825283818151815260200191508051906020019080838360005b8381101561315d578181015183820152602001613145565b50505050905090810190601f16801561318a5780820380516001836020036101000a031916815260200191505b509250505060405180910390fd5b50600083858115156131a657fe5b0495945050505050565b81546000908210613231576040805160e560020a62461bcd02815260206004820152602260248201527f456e756d657261626c655365743a20696e646578206f7574206f6620626f756e60448201527f6473000000000000000000000000000000000000000000000000000000000000606482015290519081900360840190fd5b825483908390811061323f57fe5b9060005260206000200154905092915050565b60009081526001919091016020526040902054151590565b5490565b60028201805460009081526020849052604090209190915580546001908101909155600390910180549091019055565b6132a66136ff565b6132af8261351f565b61ffff16815260006132c26107b26135a1565b82516132d19061ffff166135a1565b0361ffff1690506000816301e2850002826107b285600001510361ffff16036301e13380020190506000806000600190505b600c60ff8216116133515761332081876000015161ffff166135bc565b91508160ff16620151800292508684840111156133455760ff81166020870152613351565b92820192600101613303565b5060015b60ff8083169082161161338e5786846201518001111561337d5760ff8116604087015261338e565b620151809390930192600101613355565b6133978761362e565b60ff1660608701526133a887613648565b60ff1660808701526133b987613653565b60ff1660a0870152509395945050505050565b81546001810183556000928352602090922090910155565b815466ffffffffffffff191666ffffffffffffff91909116179055565b600061340d8383613252565b151561344557508154600181810184556000848152602080822090930184905584548482528286019093526040902091909155610a3c565b506000610a3c565b6000818152600183016020526040812054801561350d578354600019808301919081019060009087908390811061348057fe5b9060005260206000200154905080876000018481548110151561349f57fe5b60009182526020808320909101929092558281526001898101909252604090209084019055865487908015156134d157fe5b60019003818190600052602060002001600090559055866001016000878152602001908152602001600020600090556001945050505050610a3c565b6000915050610a3c565b602052600090565b60006107b26301e1338083048101908290613539906135a1565b613542836135a1565b0361ffff1690506301e2850081026107b119828403016301e1338002015b84811115613598576135746001840361365d565b15613585576301e284ff190161358d565b6301e1337f19015b600183039250613560565b50909392505050565b60001901600060648204610190830460048404010392915050565b60008260ff16600214156135e8576135d38261365d565b156135e05750601d610a3c565b50601c610a3c565b8260ff16600414806135fd57508260ff166006145b8061360b57508260ff166009145b8061361957508260ff16600b145b156136265750601e610a3c565b50601f610a3c565b60006018610e10835b0481151561364157fe5b0692915050565b6000603c8083613637565b6000603c82613641565b600061019082061580610a3c575060048206158015610a3c57505060649006151590565b828054600181600116156101000203166002900490600052602060002090601f016020900481019282601f106136c257805160ff19168380011785556136ef565b828001600101855582156136ef579182015b828111156136ef5782518255916020019190600101906136d4565b506136fb929150613734565b5090565b6040805160c081018252600080825260208201819052918101829052606081018290526080810182905260a081019190915290565b610da391905b808211156136fb576000815560010161373a56fe4f50455241544f520000000000000000000000000000000000000000000000005265737472696374656420746f204f70657261746f72732e0000000000000000436f6e747261637420696e7374616e63652068617320616c7265616479206265656e20696e697469616c697a6564000000000000000000000000000000000000a165627a7a723058206a4003c3b3ac745b78b26fc9b9bfc0362f34826fda8681ea819da94a03ab1b4d0029",
  "linkReferences": {
    "contracts/libs/DateTimeModel.sol": {
      "DateTimeModel": [
        {
          "length": 20,
          "start": 10459
        },
        {
          "length": 20,
          "start": 10802
        }
      ]
    },
    "contracts/libs/GluwaAccountModel.sol": {
      "GluwaAccountModel": [
        {
          "length": 20,
          "start": 8992
        },
        {
          "length": 20,
          "start": 9181
        },
        {
          "length": 20,
          "start": 11928
        }
      ]
    }
  },
  "deployedLinkReferences": {
    "contracts/libs/DateTimeModel.sol": {
      "DateTimeModel": [
        {
          "length": 20,
          "start": 10440
        },
        {
          "length": 20,
          "start": 10783
        }
      ]
    },
    "contracts/libs/GluwaAccountModel.sol": {
      "GluwaAccountModel": [
        {
          "length": 20,
          "start": 8973
        },
        {
          "length": 20,
          "start": 9162
        },
        {
          "length": 20,
          "start": 11909
        }
      ]
    }
  }
}