{
  "_format": "hh-sol-artifact-1",
  "contractName": "SandboxPrizeLinkedAccountVault",
  "sourceName": "contracts/mocks/SandboxPrizeLinkedAccountVault.sol",
  "abi": [
    {
      "constant": false,
      "inputs": [
        {
          "name": "owner",
          "type": "address"
        },
        {
          "name": "amount",
          "type": "uint256"
        }
      ],
      "name": "depositPrizedLinkAccount",
      "outputs": [
        {
          "name": "",
          "type": "bool"
        }
      ],
      "payable": false,
      "stateMutability": "nonpayable",
      "type": "function"
    },
    {
      "constant": false,
      "inputs": [
        {
          "name": "admin",
          "type": "address"
        },
        {
          "name": "tokenAddress",
          "type": "address"
        },
        {
          "name": "standardInterestRate",
          "type": "uint32"
        },
        {
          "name": "standardInterestRatePercentageBase",
          "type": "uint32"
        },
        {
          "name": "standardMaturityTerm",
          "type": "uint64"
        },
        {
          "name": "budget",
          "type": "uint256"
        },
        {
          "name": "tokenPerTicket",
          "type": "uint16"
        },
        {
          "name": "ticketValidityTargetBlock",
          "type": "uint16"
        },
        {
          "name": "processingCap",
          "type": "uint32"
        }
      ],
      "name": "initialize",
      "outputs": [],
      "payable": false,
      "stateMutability": "nonpayable",
      "type": "function"
    },
    {
      "constant": true,
      "inputs": [
        {
          "name": "owner",
          "type": "address"
        }
      ],
      "name": "getValidTicketIdFor",
      "outputs": [
        {
          "name": "",
          "type": "uint256[]"
        }
      ],
      "payable": false,
      "stateMutability": "view",
      "type": "function"
    },
    {
      "constant": true,
      "inputs": [
        {
          "name": "role",
          "type": "bytes32"
        }
      ],
      "name": "getRoleAdmin",
      "outputs": [
        {
          "name": "",
          "type": "bytes32"
        }
      ],
      "payable": false,
      "stateMutability": "view",
      "type": "function"
    },
    {
      "constant": true,
      "inputs": [
        {
          "name": "account",
          "type": "address"
        }
      ],
      "name": "isAdmin",
      "outputs": [
        {
          "name": "",
          "type": "bool"
        }
      ],
      "payable": false,
      "stateMutability": "view",
      "type": "function"
    },
    {
      "constant": true,
      "inputs": [
        {
          "name": "idx",
          "type": "uint256"
        }
      ],
      "name": "getTicketById",
      "outputs": [
        {
          "name": "",
          "type": "uint96"
        },
        {
          "name": "",
          "type": "address"
        },
        {
          "name": "",
          "type": "uint256"
        },
        {
          "name": "",
          "type": "uint256"
        }
      ],
      "payable": false,
      "stateMutability": "view",
      "type": "function"
    },
    {
      "constant": false,
      "inputs": [],
      "name": "renounceOperator",
      "outputs": [],
      "payable": false,
      "stateMutability": "nonpayable",
      "type": "function"
    },
    {
      "constant": false,
      "inputs": [
        {
          "name": "role",
          "type": "bytes32"
        },
        {
          "name": "account",
          "type": "address"
        }
      ],
      "name": "grantRole",
      "outputs": [],
      "payable": false,
      "stateMutability": "nonpayable",
      "type": "function"
    },
    {
      "constant": true,
      "inputs": [],
      "name": "getCurrentWinner",
      "outputs": [
        {
          "name": "",
          "type": "uint256"
        }
      ],
      "payable": false,
      "stateMutability": "view",
      "type": "function"
    },
    {
      "constant": false,
      "inputs": [
        {
          "name": "role",
          "type": "bytes32"
        },
        {
          "name": "account",
          "type": "address"
        }
      ],
      "name": "renounceRole",
      "outputs": [],
      "payable": false,
      "stateMutability": "nonpayable",
      "type": "function"
    },
    {
      "constant": true,
      "inputs": [],
      "name": "getCurrentTotalDeposit",
      "outputs": [
        {
          "name": "",
          "type": "uint256"
        }
      ],
      "payable": false,
      "stateMutability": "view",
      "type": "function"
    },
    {
      "constant": true,
      "inputs": [
        {
          "name": "drawTimeStamp",
          "type": "uint256"
        }
      ],
      "name": "getEligibleAddressPendingAddedToDraw",
      "outputs": [
        {
          "name": "result",
          "type": "address[]"
        }
      ],
      "payable": false,
      "stateMutability": "view",
      "type": "function"
    },
    {
      "constant": true,
      "inputs": [],
      "name": "getSavingSettings",
      "outputs": [
        {
          "name": "",
          "type": "uint64"
        },
        {
          "name": "",
          "type": "uint32"
        },
        {
          "name": "",
          "type": "uint32"
        },
        {
          "name": "",
          "type": "uint256"
        },
        {
          "name": "",
          "type": "uint256"
        },
        {
          "name": "",
          "type": "address"
        }
      ],
      "payable": false,
      "stateMutability": "view",
      "type": "function"
    },
    {
      "constant": true,
      "inputs": [
        {
          "name": "account",
          "type": "address"
        }
      ],
      "name": "isOperator",
      "outputs": [
        {
          "name": "",
          "type": "bool"
        }
      ],
      "payable": false,
      "stateMutability": "view",
      "type": "function"
    },
    {
      "constant": false,
      "inputs": [
        {
          "name": "account",
          "type": "address"
        }
      ],
      "name": "addAdmin",
      "outputs": [],
      "payable": false,
      "stateMutability": "nonpayable",
      "type": "function"
    },
    {
      "constant": true,
      "inputs": [
        {
          "name": "depositHash",
          "type": "bytes32"
        }
      ],
      "name": "getDeposit",
      "outputs": [
        {
          "name": "",
          "type": "uint256"
        },
        {
          "name": "",
          "type": "uint256"
        },
        {
          "name": "",
          "type": "address"
        },
        {
          "name": "",
          "type": "uint256"
        },
        {
          "name": "",
          "type": "uint256"
        }
      ],
      "payable": false,
      "stateMutability": "view",
      "type": "function"
    },
    {
      "constant": true,
      "inputs": [
        {
          "name": "owner",
          "type": "address"
        }
      ],
      "name": "getSavingAcountFor",
      "outputs": [
        {
          "name": "",
          "type": "uint256"
        },
        {
          "name": "",
          "type": "bytes32"
        },
        {
          "name": "",
          "type": "address"
        },
        {
          "name": "",
          "type": "uint32"
        },
        {
          "name": "",
          "type": "uint32"
        },
        {
          "name": "",
          "type": "uint256"
        },
        {
          "name": "",
          "type": "uint256"
        },
        {
          "name": "",
          "type": "uint256"
        },
        {
          "name": "",
          "type": "uint8"
        },
        {
          "name": "",
          "type": "bytes"
        }
      ],
      "payable": false,
      "stateMutability": "view",
      "type": "function"
    },
    {
      "constant": false,
      "inputs": [
        {
          "name": "drawTimeStamp",
          "type": "uint256"
        }
      ],
      "name": "prizeDraw",
      "outputs": [
        {
          "name": "",
          "type": "bool"
        }
      ],
      "payable": false,
      "stateMutability": "nonpayable",
      "type": "function"
    },
    {
      "constant": false,
      "inputs": [],
      "name": "renounceAdmin",
      "outputs": [],
      "payable": false,
      "stateMutability": "nonpayable",
      "type": "function"
    },
    {
      "constant": true,
      "inputs": [
        {
          "name": "drawTimeStamp",
          "type": "uint256"
        }
      ],
      "name": "findMaxMinForDraw",
      "outputs": [
        {
          "name": "max",
          "type": "uint256"
        },
        {
          "name": "min",
          "type": "uint256"
        }
      ],
      "payable": false,
      "stateMutability": "view",
      "type": "function"
    },
    {
      "constant": true,
      "inputs": [
        {
          "name": "role",
          "type": "bytes32"
        },
        {
          "name": "index",
          "type": "uint256"
        }
      ],
      "name": "getRoleMember",
      "outputs": [
        {
          "name": "",
          "type": "address"
        }
      ],
      "payable": false,
      "stateMutability": "view",
      "type": "function"
    },
    {
      "constant": true,
      "inputs": [
        {
          "name": "role",
          "type": "bytes32"
        },
        {
          "name": "account",
          "type": "address"
        }
      ],
      "name": "hasRole",
      "outputs": [
        {
          "name": "",
          "type": "bool"
        }
      ],
      "payable": false,
      "stateMutability": "view",
      "type": "function"
    },
    {
      "constant": false,
      "inputs": [
        {
          "name": "account",
          "type": "address"
        }
      ],
      "name": "addOperator",
      "outputs": [],
      "payable": false,
      "stateMutability": "nonpayable",
      "type": "function"
    },
    {
      "constant": true,
      "inputs": [],
      "name": "getSavingAcount",
      "outputs": [
        {
          "name": "",
          "type": "uint256"
        },
        {
          "name": "",
          "type": "bytes32"
        },
        {
          "name": "",
          "type": "address"
        },
        {
          "name": "",
          "type": "uint32"
        },
        {
          "name": "",
          "type": "uint32"
        },
        {
          "name": "",
          "type": "uint256"
        },
        {
          "name": "",
          "type": "uint256"
        },
        {
          "name": "",
          "type": "uint256"
        },
        {
          "name": "",
          "type": "uint8"
        },
        {
          "name": "",
          "type": "bytes"
        }
      ],
      "payable": false,
      "stateMutability": "view",
      "type": "function"
    },
    {
      "constant": true,
      "inputs": [],
      "name": "DEFAULT_ADMIN_ROLE",
      "outputs": [
        {
          "name": "",
          "type": "bytes32"
        }
      ],
      "payable": false,
      "stateMutability": "view",
      "type": "function"
    },
    {
      "constant": false,
      "inputs": [
        {
          "name": "account",
          "type": "address"
        }
      ],
      "name": "removeOperator",
      "outputs": [],
      "payable": false,
      "stateMutability": "nonpayable",
      "type": "function"
    },
    {
      "constant": false,
      "inputs": [
        {
          "name": "drawTimeStamp",
          "type": "uint256"
        }
      ],
      "name": "regenerateTicketForNextDraw",
      "outputs": [
        {
          "name": "",
          "type": "uint256"
        }
      ],
      "payable": false,
      "stateMutability": "nonpayable",
      "type": "function"
    },
    {
      "constant": true,
      "inputs": [
        {
          "name": "owner",
          "type": "address"
        }
      ],
      "name": "test",
      "outputs": [
        {
          "name": "",
          "type": "uint256"
        },
        {
          "name": "",
          "type": "uint256"
        }
      ],
      "payable": false,
      "stateMutability": "pure",
      "type": "function"
    },
    {
      "constant": true,
      "inputs": [
        {
          "name": "role",
          "type": "bytes32"
        }
      ],
      "name": "getRoleMemberCount",
      "outputs": [
        {
          "name": "",
          "type": "uint256"
        }
      ],
      "payable": false,
      "stateMutability": "view",
      "type": "function"
    },
    {
      "constant": false,
      "inputs": [
        {
          "name": "owner",
          "type": "address"
        },
        {
          "name": "amount",
          "type": "uint256"
        },
        {
          "name": "securityHash",
          "type": "bytes"
        }
      ],
      "name": "createPrizedLinkAccount",
      "outputs": [
        {
          "name": "",
          "type": "bool"
        }
      ],
      "payable": false,
      "stateMutability": "nonpayable",
      "type": "function"
    },
    {
      "constant": false,
      "inputs": [
        {
          "name": "role",
          "type": "bytes32"
        },
        {
          "name": "account",
          "type": "address"
        }
      ],
      "name": "revokeRole",
      "outputs": [],
      "payable": false,
      "stateMutability": "nonpayable",
      "type": "function"
    },
    {
      "constant": true,
      "inputs": [],
      "name": "OPERATOR_ROLE",
      "outputs": [
        {
          "name": "",
          "type": "bytes32"
        }
      ],
      "payable": false,
      "stateMutability": "view",
      "type": "function"
    },
    {
      "anonymous": false,
      "inputs": [
        {
          "indexed": false,
          "name": "winner",
          "type": "address"
        },
        {
          "indexed": false,
          "name": "ticket",
          "type": "uint256"
        },
        {
          "indexed": false,
          "name": "reward",
          "type": "uint256"
        }
      ],
      "name": "Winner",
      "type": "event"
    },
    {
      "anonymous": false,
      "inputs": [
        {
          "indexed": true,
          "name": "drawTimeStamp",
          "type": "uint256"
        },
        {
          "indexed": true,
          "name": "ticketId",
          "type": "uint256"
        },
        {
          "indexed": true,
          "name": "owner",
          "type": "address"
        },
        {
          "indexed": false,
          "name": "upper",
          "type": "uint256"
        },
        {
          "indexed": false,
          "name": "lower",
          "type": "uint256"
        }
      ],
      "name": "CreateTicket",
      "type": "event"
    },
    {
      "anonymous": false,
      "inputs": [
        {
          "indexed": true,
          "name": "accountHash",
          "type": "bytes32"
        },
        {
          "indexed": true,
          "name": "owner",
          "type": "address"
        }
      ],
      "name": "CreateAccount",
      "type": "event"
    },
    {
      "anonymous": false,
      "inputs": [
        {
          "indexed": true,
          "name": "depositHash",
          "type": "bytes32"
        },
        {
          "indexed": true,
          "name": "owner",
          "type": "address"
        },
        {
          "indexed": false,
          "name": "deposit",
          "type": "uint256"
        }
      ],
      "name": "CreateDeposit",
      "type": "event"
    },
    {
      "anonymous": false,
      "inputs": [
        {
          "indexed": true,
          "name": "owner",
          "type": "address"
        },
        {
          "indexed": false,
          "name": "amount",
          "type": "uint256"
        }
      ],
      "name": "WithdrawSavingAccount",
      "type": "event"
    },
    {
      "anonymous": false,
      "inputs": [
        {
          "indexed": true,
          "name": "role",
          "type": "bytes32"
        },
        {
          "indexed": true,
          "name": "account",
          "type": "address"
        },
        {
          "indexed": true,
          "name": "sender",
          "type": "address"
        }
      ],
      "name": "RoleGranted",
      "type": "event"
    },
    {
      "anonymous": false,
      "inputs": [
        {
          "indexed": true,
          "name": "role",
          "type": "bytes32"
        },
        {
          "indexed": true,
          "name": "account",
          "type": "address"
        },
        {
          "indexed": true,
          "name": "sender",
          "type": "address"
        }
      ],
      "name": "RoleRevoked",
      "type": "event"
    }
  ],
  "bytecode": "0x6080604052613d41806100136000396000f3fe6080604052600436106101955763ffffffff7c0100000000000000000000000000000000000000000000000000000000600035041663033d086d811461019a5780630af4ad1b146101e75780631112f0f714610270578063248a9ca3146102f357806324d7806c1461032f57806327b7aabc146103625780632ab6f8db146103c95780632f2ff15d146103de578063329bfc331461041757806336568abe1461042c5780633a990db0146104655780634218774b1461047a578063529298b8146104a45780636d70f7ae14610508578063704802751461053b5780637a86983f1461056e57806382133e38146105cb57806383f9f4d2146106ed5780638bad0c0a146107175780638e2011631461072c5780639010d07c1461076f57806391d14854146107bb5780639870d7fe146107f45780639964476f14610827578063a217fddf1461083c578063ac8a584a14610851578063b58d3ff314610884578063bb29998e146108ae578063ca15c873146108e1578063cf123e301461090b578063d547741f1461099d578063f5b541a6146109d6575b600080fd5b3480156101a657600080fd5b506101d3600480360360408110156101bd57600080fd5b50600160a060020a0381351690602001356109eb565b604080519115158252519081900360200190f35b3480156101f357600080fd5b5061026e600480360361012081101561020b57600080fd5b50600160a060020a03813581169160208101359091169063ffffffff6040820135811691606081013582169167ffffffffffffffff6080830135169160a08101359161ffff60c083013581169260e0810135909116916101009091013516610a54565b005b34801561027c57600080fd5b506102a36004803603602081101561029357600080fd5b5035600160a060020a0316610bce565b60408051602080825283518183015283519192839290830191858101910280838360005b838110156102df5781810151838201526020016102c7565b505050509050019250505060405180910390f35b3480156102ff57600080fd5b5061031d6004803603602081101561031657600080fd5b5035610c7f565b60408051918252519081900360200190f35b34801561033b57600080fd5b506101d36004803603602081101561035257600080fd5b5035600160a060020a0316610c94565b34801561036e57600080fd5b5061038c6004803603602081101561038557600080fd5b5035610ca0565b604080516bffffffffffffffffffffffff9095168552600160a060020a039093166020850152838301919091526060830152519081900360800190f35b3480156103d557600080fd5b5061026e610cbe565b3480156103ea57600080fd5b5061026e6004803603604081101561040157600080fd5b5080359060200135600160a060020a0316610cf1565b34801561042357600080fd5b5061031d610d9e565b34801561043857600080fd5b5061026e6004803603604081101561044f57600080fd5b5080359060200135600160a060020a0316610da5565b34801561047157600080fd5b5061031d610e3f565b34801561048657600080fd5b506102a36004803603602081101561049d57600080fd5b5035610e45565b3480156104b057600080fd5b506104b9610f9a565b6040805167ffffffffffffffff909716875263ffffffff9586166020880152939094168584015260608501919091526080840152600160a060020a0390911660a0830152519081900360c00190f35b34801561051457600080fd5b506101d36004803603602081101561052b57600080fd5b5035600160a060020a0316610fd6565b34801561054757600080fd5b5061026e6004803603602081101561055e57600080fd5b5035600160a060020a0316611003565b34801561057a57600080fd5b506105986004803603602081101561059157600080fd5b5035611077565b604080519586526020860194909452600160a060020a039092168484015260608401526080830152519081900360a00190f35b3480156105d757600080fd5b506105fe600480360360208110156105ee57600080fd5b5035600160a060020a03166110b0565b604051808b81526020018a815260200189600160a060020a0316600160a060020a031681526020018863ffffffff1663ffffffff1681526020018763ffffffff1663ffffffff16815260200186815260200185815260200184815260200183600481111561066857fe5b60ff16815260200180602001828103825283818151815260200191508051906020019080838360005b838110156106a9578181015183820152602001610691565b50505050905090810190601f1680156106d65780820380516001836020036101000a031916815260200191505b509b50505050505050505050505060405180910390f35b3480156106f957600080fd5b506101d36004803603602081101561071057600080fd5b5035611139565b34801561072357600080fd5b5061026e6112fd565b34801561073857600080fd5b506107566004803603602081101561074f57600080fd5b503561133e565b6040805192835260208301919091528051918290030190f35b34801561077b57600080fd5b5061079f6004803603604081101561079257600080fd5b50803590602001356115ad565b60408051600160a060020a039092168252519081900360200190f35b3480156107c757600080fd5b506101d3600480360360408110156107de57600080fd5b5080359060200135600160a060020a03166115cb565b34801561080057600080fd5b5061026e6004803603602081101561081757600080fd5b5035600160a060020a03166115e9565b34801561083357600080fd5b506105fe611674565b34801561084857600080fd5b5061031d6116b4565b34801561085d57600080fd5b5061026e6004803603602081101561087457600080fd5b5035600160a060020a03166116b9565b34801561089057600080fd5b5061031d600480360360208110156108a757600080fd5b5035611744565b3480156108ba57600080fd5b50610756600480360360208110156108d157600080fd5b5035600160a060020a0316611942565b3480156108ed57600080fd5b5061031d6004803603602081101561090457600080fd5b503561195f565b34801561091757600080fd5b506101d36004803603606081101561092e57600080fd5b600160a060020a038235169160208101359181019060608101604082013564010000000081111561095e57600080fd5b82018360208201111561097057600080fd5b8035906020019184600183028401116401000000008311171561099257600080fd5b509092509050611976565b3480156109a957600080fd5b5061026e600480360360408110156109c057600080fd5b5080359060200135600160a060020a0316611a21565b3480156109e257600080fd5b5061031d611abb565b60006109fd6109f8611ade565b610fd6565b1515610a41576040805160e560020a62461bcd0281526020600482015260186024820152600080516020613cb6833981519152604482015290519081900360640190fd5b610a4b8383611ae2565b90505b92915050565b600054610100900460ff1680610a6d5750610a6d611b03565b80610a7b575060005460ff16155b1515610ad3576040805160e560020a62461bcd02815260206004820152602e6024820152600080516020613cd68339815191526044820152600080516020613cf6833981519152606482015290519081900360840190fd5b600054610100900460ff16158015610afe576000805460ff1961ff0019909116610100171660011790555b610b078a611b09565b610b148989898989611c28565b607554604080517f313ce5670000000000000000000000000000000000000000000000000000000081529051610ba692600160a060020a03169163313ce567916004808301926020929190829003018186803b158015610b7357600080fd5b505afa158015610b87573d6000803e3d6000fd5b505050506040513d6020811015610b9d57600080fd5b50518585611db9565b63ffffffff82166088558015610bc2576000805461ff00191690555b50505050505050505050565b6060610bdb6109f8611ade565b1515610c1f576040805160e560020a62461bcd0281526020600482015260186024820152600080516020613cb6833981519152604482015290519081900360640190fd5b610c2882611ee3565b805480602002602001604051908101604052809291908181526020018280548015610c7257602002820191906000526020600020905b815481526020019060010190808311610c5e575b505050505090505b919050565b60009081526033602052604090206002015490565b6000610a4e81836115cb565b600080600080610caf85611efd565b93509350935093509193509193565b60408051600080516020613c9683398151915281529051908190036008019020610cef90610cea611ade565b610da5565b565b600082815260336020526040902060020154610d1490610d0f611ade565b6115cb565b1515610d90576040805160e560020a62461bcd02815260206004820152602f60248201527f416363657373436f6e74726f6c3a2073656e646572206d75737420626520616e60448201527f2061646d696e20746f206772616e740000000000000000000000000000000000606482015290519081900360840190fd5b610d9a8282611f37565b5050565b607c545b90565b610dad611ade565b600160a060020a03828116911614610e35576040805160e560020a62461bcd02815260206004820152602f60248201527f416363657373436f6e74726f6c3a2063616e206f6e6c792072656e6f756e636560448201527f20726f6c657320666f722073656c660000000000000000000000000000000000606482015290519081900360840190fd5b610d9a8282611fa6565b60735490565b60606000805b606954811015610f935760008481526081602052604081206069805491929184908110610e7457fe5b6000918252602080832090910154600160a060020a03168352820192909252604001902054158015610ee05750600060766000606984815481101515610eb657fe5b6000918252602080832090910154600160a060020a03168352820192909252604001902060040154115b8015610f345750600160766000606984815481101515610efc57fe5b6000918252602080832090910154600160a060020a0316835282019290925260400190206006015460ff166004811115610f3257fe5b145b15610f8b576069805482908110610f4757fe5b6000918252602090912001548351600160a060020a0390911690849084908110610f6d57fe5b600160a060020a039092166020928302909101909101526001909101905b600101610e4b565b5050919050565b60655460725460665460675460755467ffffffffffffffff9094169463ffffffff808516956401000000009095041693600160a060020a031690565b60408051600080516020613c9683398151915281529051908190036008019020600090610a4e90836115cb565b61101361100e611ade565b610c94565b1515611069576040805160e560020a62461bcd02815260206004820152601560248201527f5265737472696374656420746f2041646d696e732e0000000000000000000000604482015290519081900360640190fd5b611074600082610cf1565b50565b6000908152607760205260409020805460018201546002830154600384015460049094015492949193600160a060020a03909116929091565b600080600080600080600080600060606110cb6109f8611ade565b151561110f576040805160e560020a62461bcd0281526020600482015260186024820152600080516020613cb6833981519152604482015290519081900360640190fd5b6111188b612015565b99509950995099509950995099509950995099509193959799509193959799565b60006111466109f8611ade565b151561118a576040805160e560020a62461bcd0281526020600482015260186024820152600080516020613cb6833981519152604482015290519081900360640190fd5b60008281526086602052604090205460ff1615611217576040805160e560020a62461bcd02815260206004820152602760248201527f476c7577615072697a65447261773a205072697a6520686173206265656e207060448201527f616964206f757400000000000000000000000000000000000000000000000000606482015290519081900360840190fd5b6000828152608560209081526040808320607254608490935290832054607d5491939261127a9263ffffffff640100000000830481169361126e938216926112629290919061216b16565b9063ffffffff6121c816565b9063ffffffff61226416565b6000858152608660205260408120805460ff19166001179055835491925010156112ea576000607d81905582548110156112e4576112da83828154811015156112bf57fe5b600091825260209091200154600160a060020a031683611ae2565b9350505050610c7a565b506112f3565b607d8054820190555b5060019392505050565b6000611307611ade565b9050611314600082610da5565b60408051600080516020613c96833981519152815290519081900360080190206110749082610da5565b6000818152608260209081526040808320608190925282208154839291607e91849190829085908290811061136f57fe5b6000918252602080832090910154600160a060020a0316835282810193909352604091820181205484528383019490945291820183206002015487845260819091529082208354919550607e929182908590829081106113cb57fe5b6000918252602080832090910154600160a060020a031683528281019390935260409182018120548452918301939093529101902060019081015492505b81548110156115a65783607e6000608160008981526020019081526020016000206000868681548110151561143a57fe5b6000918252602080832090910154600160a060020a03168352828101939093526040918201812054845291830193909352910190206002015411156114d85760008581526081602052604081208354607e929190829086908690811061149c57fe5b6000918252602080832090910154600160a060020a03168352828101939093526040918201812054845291830193909352910190206002015493505b82607e6000608160008981526020019081526020016000206000868681548110151561150057fe5b6000918252602080832090910154600160a060020a031683528281019390935260409182018120548452918301939093529101902060010154101561159e5760008581526081602052604081208354607e929190829086908690811061156257fe5b6000918252602080832090910154600160a060020a03168352828101939093526040918201812054845291830193909352910190206001015492505b600101611409565b5050915091565b6000828152603360205260408120610a4b908363ffffffff6122a616565b6000828152603360205260408120610a4b908363ffffffff6122b216565b6115f461100e611ade565b151561164a576040805160e560020a62461bcd02815260206004820152601560248201527f5265737472696374656420746f2041646d696e732e0000000000000000000000604482015290519081900360640190fd5b60408051600080516020613c96833981519152815290519081900360080190206110749082610cf1565b6000806000806000806000806000606061169461168f611ade565b612015565b995099509950995099509950995099509950995090919293949596979899565b600081565b6116c461100e611ade565b151561171a576040805160e560020a62461bcd02815260206004820152601560248201527f5265737472696374656420746f2041646d696e732e0000000000000000000000604482015290519081900360640190fd5b60408051600080516020613c96833981519152815290519081900360080190206110749082611a21565b6000806000607454611754611ade565b600160a060020a031601905060005b606954811015611939576000858152608160205260408120606980549192918490811061178c57fe5b6000918252602080832090910154600160a060020a031683528201929092526040019020541580156117f857506000607660006069848154811015156117ce57fe5b6000918252602080832090910154600160a060020a03168352820192909252604001902060040154115b801561184c575060016076600060698481548110151561181457fe5b6000918252602080832090910154600160a060020a0316835282019290925260400190206006015460ff16600481111561184a57fe5b145b156119315761191b60698281548110151561186357fe5b600091825260208220015460698054600160a060020a03909216928992607692908790811061188e57fe5b6000918252602080832090910154600160a060020a0316835282019290925260400190206004015460698054879190879081106118c757fe5b9060005260206000200160009054906101000a9004600160a060020a0316600160a060020a031601018560698681548110151561190057fe5b600091825260209091200154600160a060020a0316016122c7565b5060885460019093019283111561193157611939565b600101611763565b50909392505050565b600160a060020a0316906c01000000000000000000000000820290565b6000818152603360205260408120610a4e9061253f565b60006119836109f8611ade565b15156119c7576040805160e560020a62461bcd0281526020600482015260186024820152600080516020613cb6833981519152604482015290519081900360640190fd5b6000611a0b86864287878080601f01602080910402602001604051908101604052809392919081815260200183838082843760009201919091525061254a92505050565b915050611a1781612e5d565b9695505050505050565b600082815260336020526040902060020154611a3f90610d0f611ade565b1515610e35576040805160e560020a62461bcd02815260206004820152603060248201527f416363657373436f6e74726f6c3a2073656e646572206d75737420626520616e60448201527f2061646d696e20746f207265766f6b6500000000000000000000000000000000606482015290519081900360840190fd5b60408051600080516020613c968339815191528152905190819003600801902081565b3390565b600080611af0848442612f7f565b9050611afb81612e5d565b949350505050565b303b1590565b600054610100900460ff1680611b225750611b22611b03565b80611b30575060005460ff16155b1515611b88576040805160e560020a62461bcd02815260206004820152602e6024820152600080516020613cd68339815191526044820152600080516020613cf6833981519152606482015290519081900360840190fd5b600054610100900460ff16158015611bb3576000805460ff1961ff0019909116610100171660011790555b60408051600080516020613c9683398151915281529051908190036008019020611bde906000613393565b611be9600083610d90565b60408051600080516020613c9683398151915281529051908190036008019020611c139083610d90565b8015610d9a576000805461ff00191690555050565b600054610100900460ff1680611c415750611c41611b03565b80611c4f575060005460ff16155b1515611ca7576040805160e560020a62461bcd02815260206004820152602e6024820152600080516020613cd68339815191526044820152600080516020613cf6833981519152606482015290519081900360840190fd5b600054610100900460ff16158015611cd2576000805460ff1961ff0019909116610100171660011790555b6075805473ffffffffffffffffffffffffffffffffffffffff1916600160a060020a0388161790556072805463ffffffff191663ffffffff8781169190911767ffffffff000000001916640100000000918716919091021790556065805467ffffffffffffffff191667ffffffffffffffff851617905560668290556040805160608082018352600180835260208084018290526000938501849052606b829055606c829055606d8490558451928301855281835282018190529201819052606f8290556070919091556071558015611db1576000805461ff00191690555b505050505050565b600054610100900460ff1680611dd25750611dd2611b03565b80611de0575060005460ff16155b1515611e38576040805160e560020a62461bcd02815260206004820152602e6024820152600080516020613cd68339815191526044820152600080516020613cf6833981519152606482015290519081900360840190fd5b600054610100900460ff16158015611e63576000805460ff1961ff0019909116610100171660011790555b607a805461ff00191661010060ff8716021763ffff000019166201000061ffff868116919091029190911765ffff0000000019166401000000009185169190910217905560408051602081019091526001908190526079805466ffffffffffffff191690911790558015611edd576000805461ff00191690555b50505050565b600160a060020a03166000908152607f6020526040902090565b6000818152607e60205260408120805482918291829190611f1d906133a8565b600183015460029093015491989097509195509350915050565b6000828152603360205260409020611f55908263ffffffff6133c316565b15610d9a57611f62611ade565b600160a060020a031681600160a060020a0316837f2f8788117e7eff1d82e926ec794901d17c78024a50270940304540a733656f0d60405160405180910390a45050565b6000828152603360205260409020611fc4908263ffffffff6133d816565b15610d9a57611fd1611ade565b600160a060020a031681600160a060020a0316837ff6391f5c32d9c69d2a47ea670b442974b53935d1edc7fd64eb21e047a839171b60405160405180910390a45050565b600160a060020a0380821660009081526076602090815260408083208054600180830154600280850154600386015460048701546005880154600689015460078a0180548c51601f6000199b831615610100029b909b01909116979097049889018d90048d0287018d01909b528786529b9c8d9c8d9c8d9c8d9c8d9c8d9c8d9c8d9c60609c949b939a91999885169863ffffffff7401000000000000000000000000000000000000000087048116997801000000000000000000000000000000000000000000000000909704169794969295909460ff9091169383918301828280156121425780601f1061211757610100808354040283529160200191612142565b820191906000526020600020905b81548152906001019060200180831161212557829003601f168201915b505050505090509a509a509a509a509a509a509a509a509a509a50509193959799509193959799565b600082820183811015610a4b576040805160e560020a62461bcd02815260206004820152601b60248201527f536166654d6174683a206164646974696f6e206f766572666c6f770000000000604482015290519081900360640190fd5b60008215156121d957506000610a4e565b8282028284828115156121e857fe5b0414610a4b576040805160e560020a62461bcd02815260206004820152602160248201527f536166654d6174683a206d756c7469706c69636174696f6e206f766572666c6f60448201527f7700000000000000000000000000000000000000000000000000000000000000606482015290519081900360840190fd5b6000610a4b83836040805190810160405280601a81526020017f536166654d6174683a206469766973696f6e206279207a65726f0000000000008152506133ed565b6000610a4b8383613496565b6000610a4b83600160a060020a038416613538565b6000838152608160209081526040808320600160a060020a03881684529091528120548110156123d2576000848152608160209081526040808320600160a060020a0389168452825280832080548452607e8084528285206001808201546002928301548c89526084885286892080548d8d03929092039092010190558354875291909452828520018790558054845281842090920185905590548252812054612370906133a8565b506bffffffffffffffffffffffff16905085600160a060020a031681867f7ef38c92f7959fa67fe5cd29a3986c48d410d61218c99b6901c9cc81d246cfec8787604051808381526020018281526020019250505060405180910390a450612534565b6079805460408051606081018252600160a060020a03891666ffffffffffffff938416740100000000000000000000000000000000000000008102821780845260208085018b81528587018b81526000948552607e835287852096518755905160018088019190915590516002909601959095558b83526084815285832080548c8c0301905560828152858320805495860181558352808320909401805473ffffffffffffffffffffffffffffffffffffffff19168417905586548b835260818552858320938352928452848220928616909255945489865260809092529190932090926124c09216613550565b60795460408051868152602081018690528151600160a060020a038a169366ffffffffffffff169289927f7ef38c92f7959fa67fe5cd29a3986c48d410d61218c99b6901c9cc81d246cfec929081900390910190a460798054612532919066ffffffffffffff1663ffffffff61356816565b505b506001949350505050565b6000610a4e82613585565b6000806066548560745401111515156125d3576040805160e560020a62461bcd02815260206004820152602660248201527f476c757761536176696e674163636f756e743a2042756467657420697320657860448201527f6365656465640000000000000000000000000000000000000000000000000000606482015290519081900360840190fd5b600160a060020a0386161515612659576040805160e560020a62461bcd02815260206004820152603860248201527f476c757761536176696e674163636f756e743a20536176696e67206f776e657260448201527f2061646472657373206d75737420626520646566696e65640000000000000000606482015290519081900360840190fd5b600160a060020a03861660009081526076602052604090206003015415612716576040805160e560020a62461bcd02815260206004820152604760248201527f476c757761536176696e674163636f756e743a2045616368206164647265737360448201527f2073686f756c642068617665206f6e6c79203120536176696e67206163636f7560648201527f6e74206f6e6c7900000000000000000000000000000000000000000000000000608482015290519081900360a40190fd5b6078836040518082805190602001908083835b602083106127485780518252601f199092019160209182019101612729565b51815160209384036101000a600019018019909216911617905292019485525060405193849003019092205460ff161591506127f69050576040805160e560020a62461bcd02815260206004820152603160248201527f476c757761536176696e674163636f756e743a204964656e746974792068617360448201527f6820697320616c72656164792075736564000000000000000000000000000000606482015290519081900360840190fd5b607554604080517f23b872dd000000000000000000000000000000000000000000000000000000008152600160a060020a03898116600483015230602483015260448201899052915191909216916323b872dd9160648083019260209291908290030181600087803b15801561286b57600080fd5b505af115801561287f573d6000803e3d6000fd5b505050506040513d602081101561289557600080fd5b50511515612939576040805160e560020a62461bcd02815260206004820152604860248201527f476c757761536176696e674163636f756e743a20556e61626c6520746f20736560448201527f6e6420616d6f756e7420746f206465706f73697420746f206120536176696e6760648201527f204163636f756e74000000000000000000000000000000000000000000000000608482015290519081900360a40190fd5b604080517f84cefce000000000000000000000000000000000000000000000000000000000815260048101869052306024820152600160a060020a0388166044820152905160009173__$8ad4cadfbfab443c6ed09b45690dcdfb0d$__916384cefce091606480820192602092909190829003018186803b1580156129bd57600080fd5b505af41580156129d1573d6000803e3d6000fd5b505050506040513d60208110156129e757600080fd5b5051606c54604080517ffd96809e000000000000000000000000000000000000000000000000000000008152600481019290925260248201899052306044830152600160a060020a038a1660648301525191925060009173__$8ad4cadfbfab443c6ed09b45690dcdfb0d$__9163fd96809e916084808301926020929190829003018186803b158015612a7957600080fd5b505af4158015612a8d573d6000803e3d6000fd5b505050506040513d6020811015612aa357600080fd5b50516040805161014081018252606c54815260208101859052600160a060020a038b169181019190915260725463ffffffff808216606084015264010000000090910416608082015260a0810188905260c08101899052600060e08201529091506101008101600181526020908101879052600160a060020a038a81166000908152607683526040908190208451815592840151600180850191909155908401516002840180546060870151608088015173ffffffffffffffffffffffffffffffffffffffff19909216939095169290921777ffffffff000000000000000000000000000000000000000019167401000000000000000000000000000000000000000063ffffffff95861602177fffffffff00000000ffffffffffffffffffffffffffffffffffffffffffffffff16780100000000000000000000000000000000000000000000000094909216939093021790915560a0830151600383015560c083015160048084019190915560e084015160058401556101008401516006840180549193909260ff19909216918490811115612c3c57fe5b02179055506101208201518051612c5d916007840191602090910190613bc8565b50506040805160a0810182526070548152606c546020808301918252600160a060020a038d8116848601908152606085018d8152608086018f815260008a815260778652889020965187559451600180880191909155915160028701805473ffffffffffffffffffffffffffffffffffffffff191691909416179092559051600385015591516004909301929092559151885192935060789289928291908401908083835b60208310612d215780518252601f199092019160209182019101612d02565b51815160209384036101000a60001901801990921691161790529201948552506040519384900301909220805460ff19169315159390931790925550612d6a9050606a83613589565b612d7b606e8263ffffffff61358916565b6069805460018101825560009182527f7fb4302e8e91f9110a6554c2c0a24601252c2a42c2220ca988efcfe39991430801805473ffffffffffffffffffffffffffffffffffffffff1916600160a060020a038b16908117909155607380548a019055607480548a019055604051909184917fae420988b408fa1c16c342c73f56ece9307da09db1ac6b36fc8d9ff61acaa9a29190a3604080518881529051600160a060020a038a169183917f2e2791fe9306933f4d6468aab16a0195b3ab2b342887b2e1be4aa35f568322979181900360200190a39097909650945050505050565b6000612e6a6109f8611ade565b1515612eae576040805160e560020a62461bcd0281526020600482015260186024820152600080516020613cb6833981519152604482015290519081900360640190fd5b60008281526077602052604081206003810154909110612f3e576040805160e560020a62461bcd02815260206004820152602860248201527f476c7577615072697a65447261773a20546865206465706f736974206973206e60448201527f6f7420666f756e64000000000000000000000000000000000000000000000000606482015290519081900360840190fd5b6000607454612f4b611ade565b600284015460038501546004860154600160a060020a039283169390921683019390930193506125349290849081016135b9565b6000606654836074540111151515613007576040805160e560020a62461bcd02815260206004820152602660248201527f476c757761536176696e674163636f756e743a2042756467657420697320657860448201527f6365656465640000000000000000000000000000000000000000000000000000606482015290519081900360840190fd5b600160a060020a038416600090815260766020526040812060038101549091106130a1576040805160e560020a62461bcd02815260206004820152602560248201527f476c757761536176696e674163636f756e743a204163636f756e74206e6f742060448201527f666f756e64000000000000000000000000000000000000000000000000000000606482015290519081900360840190fd5b607554604080517f23b872dd000000000000000000000000000000000000000000000000000000008152600160a060020a03888116600483015230602483015260448201889052915191909216916323b872dd9160648083019260209291908290030181600087803b15801561311657600080fd5b505af115801561312a573d6000803e3d6000fd5b505050506040513d602081101561314057600080fd5b505115156131e4576040805160e560020a62461bcd02815260206004820152604860248201527f476c757761536176696e674163636f756e743a20556e61626c6520746f20736560448201527f6e6420616d6f756e7420746f206465706f73697420746f206120536176696e6760648201527f204163636f756e74000000000000000000000000000000000000000000000000608482015290519081900360a40190fd5b6004808201805486019055607380548601905560748054860190558154604080517ffd96809e0000000000000000000000000000000000000000000000000000000081529283019190915260248201869052306044830152600160a060020a03871660648301525160009173__$8ad4cadfbfab443c6ed09b45690dcdfb0d$__9163fd96809e91608480820192602092909190829003018186803b15801561328b57600080fd5b505af415801561329f573d6000803e3d6000fd5b505050506040513d60208110156132b557600080fd5b50516040805160a081018252607054815284546020808301918252600160a060020a038b8116848601908152606085018b8152608086018d815260008981526077909552969093209451855592516001850155915160028401805473ffffffffffffffffffffffffffffffffffffffff191691909316179091555160038201559051600490910155905061334a606e82613589565b604080518681529051600160a060020a0388169183917f2e2791fe9306933f4d6468aab16a0195b3ab2b342887b2e1be4aa35f568322979181900360200190a395945050505050565b60009182526033602052604090912060020155565b74010000000000000000000000000000000000000000810491565b6000610a4b83600160a060020a03841661382b565b6000610a4b83600160a060020a038416613877565b60008181841161347e5760405160e560020a62461bcd0281526004018080602001828103825283818151815260200191508051906020019080838360005b8381101561344357818101518382015260200161342b565b50505050905090810190601f1680156134705780820380516001836020036101000a031916815260200191505b509250505060405180910390fd5b506000838581151561348c57fe5b0495945050505050565b81546000908210613517576040805160e560020a62461bcd02815260206004820152602260248201527f456e756d657261626c655365743a20696e646578206f7574206f6620626f756e60448201527f6473000000000000000000000000000000000000000000000000000000000000606482015290519081900360840190fd5b825483908390811061352557fe5b9060005260206000200154905092915050565b60009081526001919091016020526040902054151590565b81546001810183556000928352602090922090910155565b815466ffffffffffffff191666ffffffffffffff91909116179055565b5490565b60028201805460009081526020849052604090209190915580546001908101909155600390910180549091019055565b60006135c3613c46565b6135cc85613941565b90506000600290506010826060015160ff1610806136045750816060015160ff1660101480156136045750603b826080015160ff1611155b1561360d575060015b6020808301518351604080517f8980747400000000000000000000000000000000000000000000000000000000815260ff909316600484015261ffff90911660248301525160009273__$05084330c9bf728fdd5577c5afe72a471f$__9263898074749260448083019392829003018186803b15801561368c57600080fd5b505af41580156136a0573d6000803e3d6000fd5b505050506040513d60208110156136b657600080fd5b5051604084015190915060ff80831691840116111561371b57826020015160ff16600c1415156136f35760208301805160010160ff169052613706565b825161ffff600191820116845260208401525b604083018051830182900360ff169052613729565b604083018051830160ff1690525b60116060840181905260006080850181905260a08501819052845160208087015160408089015181517f0a37f14b00000000000000000000000000000000000000000000000000000000815261ffff909516600486015260ff9283166024860152909116604484015260648301949094526084820183905260a482018390529251919273__$05084330c9bf728fdd5577c5afe72a471f$__92630a37f14b9260c4808201939291829003018186803b1580156137e457600080fd5b505af41580156137f8573d6000803e3d6000fd5b505050506040513d602081101561380e57600080fd5b5051905061381e898289896122c7565b9998505050505050505050565b60006138378383613538565b151561386f57508154600181810184556000848152602080822090930184905584548482528286019093526040902091909155610a4e565b506000610a4e565b6000818152600183016020526040812054801561393757835460001980830191908101906000908790839081106138aa57fe5b906000526020600020015490508087600001848154811015156138c957fe5b60009182526020808320909101929092558281526001898101909252604090209084019055865487908015156138fb57fe5b60019003818190600052602060002001600090559055866001016000878152602001908152602001600020600090556001945050505050610a4e565b6000915050610a4e565b613949613c46565b61395282613a6f565b61ffff16815260006139656107b2613ae8565b82516139749061ffff16613ae8565b0361ffff1690506000816301e2850002826107b285600001510361ffff16036301e13380020190506000806000600190505b600c60ff8216116139f4576139c381876000015161ffff16613b03565b91508160ff16620151800292508684840111156139e85760ff811660208701526139f4565b928201926001016139a6565b5060015b60ff80831690821611613a3157868462015180011115613a205760ff81166040870152613a31565b6201518093909301926001016139f8565b613a3a87613b75565b60ff166060870152613a4b87613b8f565b60ff166080870152613a5c87613b9a565b60ff1660a0870152509395945050505050565b60006107b26301e1338083048101908290613a8990613ae8565b613a9283613ae8565b0361ffff1690506301e2850081026107b119828403016301e1338002015b8481111561193957613ac460018403613ba4565b15613ad5576301e284ff1901613add565b6301e1337f19015b600183039250613ab0565b60001901600060648204610190830460048404010392915050565b60008260ff1660021415613b2f57613b1a82613ba4565b15613b275750601d610a4e565b50601c610a4e565b8260ff1660041480613b4457508260ff166006145b80613b5257508260ff166009145b80613b6057508260ff16600b145b15613b6d5750601e610a4e565b50601f610a4e565b60006018610e10835b04811515613b8857fe5b0692915050565b6000603c8083613b7e565b6000603c82613b88565b600061019082061580610a4e575060048206158015610a4e57505060649006151590565b828054600181600116156101000203166002900490600052602060002090601f016020900481019282601f10613c0957805160ff1916838001178555613c36565b82800160010185558215613c36579182015b82811115613c36578251825591602001919060010190613c1b565b50613c42929150613c7b565b5090565b6040805160c081018252600080825260208201819052918101829052606081018290526080810182905260a081019190915290565b610da291905b80821115613c425760008155600101613c8156fe4f50455241544f520000000000000000000000000000000000000000000000005265737472696374656420746f204f70657261746f72732e0000000000000000436f6e747261637420696e7374616e63652068617320616c7265616479206265656e20696e697469616c697a6564000000000000000000000000000000000000a165627a7a72305820cc27c8eaf5604162eb414ea492b2ca08ec9b582379be76f03107d6826e5c60e20029",
  "linkReferences": {
    "contracts/libs/DateTimeModel.sol": {
      "DateTimeModel": [
        {
          "length": 20,
          "start": 13930
        },
        {
          "length": 20,
          "start": 14273
        }
      ]
    },
    "contracts/libs/GluwaAccountModel.sol": {
      "GluwaAccountModel": [
        {
          "length": 20,
          "start": 10646
        },
        {
          "length": 20,
          "start": 10835
        },
        {
          "length": 20,
          "start": 12900
        }
      ]
    }
  },
  "deployedLinkReferences": {
    "contracts/libs/DateTimeModel.sol": {
      "DateTimeModel": [
        {
          "length": 20,
          "start": 13911
        },
        {
          "length": 20,
          "start": 14254
        }
      ]
    },
    "contracts/libs/GluwaAccountModel.sol": {
      "GluwaAccountModel": [
        {
          "length": 20,
          "start": 10627
        },
        {
          "length": 20,
          "start": 10816
        },
        {
          "length": 20,
          "start": 12881
        }
      ]
    }
  }
}