{
  "_format": "hh-sol-artifact-1",
  "contractName": "SandboxPrizeLinkedAccountVault",
  "sourceName": "contracts/mocks/SandboxPrizeLinkedAccountVault.sol",
  "abi": [
    {
      "constant": false,
      "inputs": [
        {
          "name": "owner",
          "type": "address"
        },
        {
          "name": "amount",
          "type": "uint256"
        }
      ],
      "name": "depositPrizedLinkAccount",
      "outputs": [
        {
          "name": "",
          "type": "bool"
        }
      ],
      "payable": false,
      "stateMutability": "nonpayable",
      "type": "function"
    },
    {
      "constant": true,
      "inputs": [
        {
          "name": "owner",
          "type": "address"
        }
      ],
      "name": "getValidTicketIdFor",
      "outputs": [
        {
          "name": "",
          "type": "uint256[]"
        }
      ],
      "payable": false,
      "stateMutability": "view",
      "type": "function"
    },
    {
      "constant": true,
      "inputs": [
        {
          "name": "role",
          "type": "bytes32"
        }
      ],
      "name": "getRoleAdmin",
      "outputs": [
        {
          "name": "",
          "type": "bytes32"
        }
      ],
      "payable": false,
      "stateMutability": "view",
      "type": "function"
    },
    {
      "constant": true,
      "inputs": [
        {
          "name": "account",
          "type": "address"
        }
      ],
      "name": "isAdmin",
      "outputs": [
        {
          "name": "",
          "type": "bool"
        }
      ],
      "payable": false,
      "stateMutability": "view",
      "type": "function"
    },
    {
      "constant": true,
      "inputs": [
        {
          "name": "idx",
          "type": "uint256"
        }
      ],
      "name": "getTicketById",
      "outputs": [
        {
          "name": "",
          "type": "uint96"
        },
        {
          "name": "",
          "type": "address"
        },
        {
          "name": "",
          "type": "uint256"
        },
        {
          "name": "",
          "type": "uint256"
        }
      ],
      "payable": false,
      "stateMutability": "view",
      "type": "function"
    },
    {
      "constant": false,
      "inputs": [],
      "name": "renounceOperator",
      "outputs": [],
      "payable": false,
      "stateMutability": "nonpayable",
      "type": "function"
    },
    {
      "constant": false,
      "inputs": [
        {
          "name": "role",
          "type": "bytes32"
        },
        {
          "name": "account",
          "type": "address"
        }
      ],
      "name": "grantRole",
      "outputs": [],
      "payable": false,
      "stateMutability": "nonpayable",
      "type": "function"
    },
    {
      "constant": true,
      "inputs": [],
      "name": "getCurrentWinner",
      "outputs": [
        {
          "name": "",
          "type": "uint256"
        }
      ],
      "payable": false,
      "stateMutability": "view",
      "type": "function"
    },
    {
      "constant": false,
      "inputs": [
        {
          "name": "role",
          "type": "bytes32"
        },
        {
          "name": "account",
          "type": "address"
        }
      ],
      "name": "renounceRole",
      "outputs": [],
      "payable": false,
      "stateMutability": "nonpayable",
      "type": "function"
    },
    {
      "constant": true,
      "inputs": [],
      "name": "getCurrentTotalDeposit",
      "outputs": [
        {
          "name": "",
          "type": "uint256"
        }
      ],
      "payable": false,
      "stateMutability": "view",
      "type": "function"
    },
    {
      "constant": false,
      "inputs": [
        {
          "name": "admin",
          "type": "address"
        },
        {
          "name": "tokenAddress",
          "type": "address"
        },
        {
          "name": "standardInterestRate",
          "type": "uint32"
        },
        {
          "name": "standardInterestRatePercentageBase",
          "type": "uint32"
        },
        {
          "name": "standardMaturityTerm",
          "type": "uint64"
        },
        {
          "name": "budget",
          "type": "uint256"
        },
        {
          "name": "tokenPerTicket",
          "type": "uint16"
        },
        {
          "name": "ticketValidityTargetBlock",
          "type": "uint16"
        },
        {
          "name": "processingCap",
          "type": "uint32"
        },
        {
          "name": "blockNumberFactor",
          "type": "uint8"
        },
        {
          "name": "ticketRangeFactor",
          "type": "uint128"
        }
      ],
      "name": "initialize",
      "outputs": [],
      "payable": false,
      "stateMutability": "nonpayable",
      "type": "function"
    },
    {
      "constant": true,
      "inputs": [
        {
          "name": "drawTimeStamp",
          "type": "uint256"
        }
      ],
      "name": "getEligibleAddressPendingAddedToDraw",
      "outputs": [
        {
          "name": "result",
          "type": "address[]"
        }
      ],
      "payable": false,
      "stateMutability": "view",
      "type": "function"
    },
    {
      "constant": true,
      "inputs": [],
      "name": "getSavingSettings",
      "outputs": [
        {
          "name": "",
          "type": "uint64"
        },
        {
          "name": "",
          "type": "uint32"
        },
        {
          "name": "",
          "type": "uint32"
        },
        {
          "name": "",
          "type": "uint256"
        },
        {
          "name": "",
          "type": "uint256"
        },
        {
          "name": "",
          "type": "address"
        }
      ],
      "payable": false,
      "stateMutability": "view",
      "type": "function"
    },
    {
      "constant": true,
      "inputs": [
        {
          "name": "account",
          "type": "address"
        }
      ],
      "name": "isOperator",
      "outputs": [
        {
          "name": "",
          "type": "bool"
        }
      ],
      "payable": false,
      "stateMutability": "view",
      "type": "function"
    },
    {
      "constant": false,
      "inputs": [
        {
          "name": "account",
          "type": "address"
        }
      ],
      "name": "addAdmin",
      "outputs": [],
      "payable": false,
      "stateMutability": "nonpayable",
      "type": "function"
    },
    {
      "constant": true,
      "inputs": [
        {
          "name": "depositHash",
          "type": "bytes32"
        }
      ],
      "name": "getDeposit",
      "outputs": [
        {
          "name": "",
          "type": "uint256"
        },
        {
          "name": "",
          "type": "uint256"
        },
        {
          "name": "",
          "type": "address"
        },
        {
          "name": "",
          "type": "uint256"
        },
        {
          "name": "",
          "type": "uint256"
        }
      ],
      "payable": false,
      "stateMutability": "view",
      "type": "function"
    },
    {
      "constant": true,
      "inputs": [
        {
          "name": "drawTimeStamp",
          "type": "uint256"
        }
      ],
      "name": "findMinMaxForDraw",
      "outputs": [
        {
          "name": "min",
          "type": "uint256"
        },
        {
          "name": "max",
          "type": "uint256"
        }
      ],
      "payable": false,
      "stateMutability": "view",
      "type": "function"
    },
    {
      "constant": true,
      "inputs": [
        {
          "name": "owner",
          "type": "address"
        }
      ],
      "name": "getSavingAcountFor",
      "outputs": [
        {
          "name": "",
          "type": "uint256"
        },
        {
          "name": "",
          "type": "bytes32"
        },
        {
          "name": "",
          "type": "address"
        },
        {
          "name": "",
          "type": "uint32"
        },
        {
          "name": "",
          "type": "uint32"
        },
        {
          "name": "",
          "type": "uint256"
        },
        {
          "name": "",
          "type": "uint256"
        },
        {
          "name": "",
          "type": "uint256"
        },
        {
          "name": "",
          "type": "uint8"
        },
        {
          "name": "",
          "type": "bytes"
        }
      ],
      "payable": false,
      "stateMutability": "view",
      "type": "function"
    },
    {
      "constant": false,
      "inputs": [
        {
          "name": "drawTimeStamp",
          "type": "uint256"
        }
      ],
      "name": "prizeDraw",
      "outputs": [
        {
          "name": "",
          "type": "bool"
        }
      ],
      "payable": false,
      "stateMutability": "nonpayable",
      "type": "function"
    },
    {
      "constant": false,
      "inputs": [],
      "name": "renounceAdmin",
      "outputs": [],
      "payable": false,
      "stateMutability": "nonpayable",
      "type": "function"
    },
    {
      "constant": true,
      "inputs": [
        {
          "name": "role",
          "type": "bytes32"
        },
        {
          "name": "index",
          "type": "uint256"
        }
      ],
      "name": "getRoleMember",
      "outputs": [
        {
          "name": "",
          "type": "address"
        }
      ],
      "payable": false,
      "stateMutability": "view",
      "type": "function"
    },
    {
      "constant": true,
      "inputs": [
        {
          "name": "role",
          "type": "bytes32"
        },
        {
          "name": "account",
          "type": "address"
        }
      ],
      "name": "hasRole",
      "outputs": [
        {
          "name": "",
          "type": "bool"
        }
      ],
      "payable": false,
      "stateMutability": "view",
      "type": "function"
    },
    {
      "constant": false,
      "inputs": [
        {
          "name": "account",
          "type": "address"
        }
      ],
      "name": "addOperator",
      "outputs": [],
      "payable": false,
      "stateMutability": "nonpayable",
      "type": "function"
    },
    {
      "constant": true,
      "inputs": [],
      "name": "getSavingAcount",
      "outputs": [
        {
          "name": "",
          "type": "uint256"
        },
        {
          "name": "",
          "type": "bytes32"
        },
        {
          "name": "",
          "type": "address"
        },
        {
          "name": "",
          "type": "uint32"
        },
        {
          "name": "",
          "type": "uint32"
        },
        {
          "name": "",
          "type": "uint256"
        },
        {
          "name": "",
          "type": "uint256"
        },
        {
          "name": "",
          "type": "uint256"
        },
        {
          "name": "",
          "type": "uint8"
        },
        {
          "name": "",
          "type": "bytes"
        }
      ],
      "payable": false,
      "stateMutability": "view",
      "type": "function"
    },
    {
      "constant": true,
      "inputs": [],
      "name": "DEFAULT_ADMIN_ROLE",
      "outputs": [
        {
          "name": "",
          "type": "bytes32"
        }
      ],
      "payable": false,
      "stateMutability": "view",
      "type": "function"
    },
    {
      "constant": false,
      "inputs": [
        {
          "name": "account",
          "type": "address"
        }
      ],
      "name": "removeOperator",
      "outputs": [],
      "payable": false,
      "stateMutability": "nonpayable",
      "type": "function"
    },
    {
      "constant": false,
      "inputs": [
        {
          "name": "drawTimeStamp",
          "type": "uint256"
        }
      ],
      "name": "regenerateTicketForNextDraw",
      "outputs": [
        {
          "name": "",
          "type": "uint256"
        }
      ],
      "payable": false,
      "stateMutability": "nonpayable",
      "type": "function"
    },
    {
      "constant": true,
      "inputs": [
        {
          "name": "owner",
          "type": "address"
        }
      ],
      "name": "test",
      "outputs": [
        {
          "name": "",
          "type": "uint256"
        },
        {
          "name": "",
          "type": "uint256"
        }
      ],
      "payable": false,
      "stateMutability": "pure",
      "type": "function"
    },
    {
      "constant": false,
      "inputs": [
        {
          "name": "drawTimeStamp",
          "type": "uint256"
        },
        {
          "name": "seed",
          "type": "uint256"
        }
      ],
      "name": "findDrawWinnerV1",
      "outputs": [
        {
          "name": "",
          "type": "uint256"
        }
      ],
      "payable": false,
      "stateMutability": "nonpayable",
      "type": "function"
    },
    {
      "constant": true,
      "inputs": [
        {
          "name": "role",
          "type": "bytes32"
        }
      ],
      "name": "getRoleMemberCount",
      "outputs": [
        {
          "name": "",
          "type": "uint256"
        }
      ],
      "payable": false,
      "stateMutability": "view",
      "type": "function"
    },
    {
      "constant": false,
      "inputs": [
        {
          "name": "owner",
          "type": "address"
        },
        {
          "name": "amount",
          "type": "uint256"
        },
        {
          "name": "securityHash",
          "type": "bytes"
        }
      ],
      "name": "createPrizedLinkAccount",
      "outputs": [
        {
          "name": "",
          "type": "bool"
        }
      ],
      "payable": false,
      "stateMutability": "nonpayable",
      "type": "function"
    },
    {
      "constant": false,
      "inputs": [
        {
          "name": "role",
          "type": "bytes32"
        },
        {
          "name": "account",
          "type": "address"
        }
      ],
      "name": "revokeRole",
      "outputs": [],
      "payable": false,
      "stateMutability": "nonpayable",
      "type": "function"
    },
    {
      "constant": true,
      "inputs": [
        {
          "name": "drawTimeStamp",
          "type": "uint256"
        }
      ],
      "name": "getDrawDetails",
      "outputs": [
        {
          "name": "participants",
          "type": "address[]"
        },
        {
          "name": "ticketIds",
          "type": "uint256[]"
        }
      ],
      "payable": false,
      "stateMutability": "view",
      "type": "function"
    },
    {
      "constant": true,
      "inputs": [],
      "name": "OPERATOR_ROLE",
      "outputs": [
        {
          "name": "",
          "type": "bytes32"
        }
      ],
      "payable": false,
      "stateMutability": "view",
      "type": "function"
    },
    {
      "anonymous": false,
      "inputs": [
        {
          "indexed": false,
          "name": "winner",
          "type": "address"
        },
        {
          "indexed": false,
          "name": "ticket",
          "type": "uint256"
        },
        {
          "indexed": false,
          "name": "reward",
          "type": "uint256"
        }
      ],
      "name": "Winner",
      "type": "event"
    },
    {
      "anonymous": false,
      "inputs": [
        {
          "indexed": true,
          "name": "drawTimeStamp",
          "type": "uint256"
        },
        {
          "indexed": true,
          "name": "ticketId",
          "type": "uint256"
        },
        {
          "indexed": true,
          "name": "owner",
          "type": "address"
        },
        {
          "indexed": false,
          "name": "upper",
          "type": "uint256"
        },
        {
          "indexed": false,
          "name": "lower",
          "type": "uint256"
        }
      ],
      "name": "CreateTicket",
      "type": "event"
    },
    {
      "anonymous": false,
      "inputs": [
        {
          "indexed": true,
          "name": "accountHash",
          "type": "bytes32"
        },
        {
          "indexed": true,
          "name": "owner",
          "type": "address"
        }
      ],
      "name": "CreateAccount",
      "type": "event"
    },
    {
      "anonymous": false,
      "inputs": [
        {
          "indexed": true,
          "name": "depositHash",
          "type": "bytes32"
        },
        {
          "indexed": true,
          "name": "owner",
          "type": "address"
        },
        {
          "indexed": false,
          "name": "deposit",
          "type": "uint256"
        }
      ],
      "name": "CreateDeposit",
      "type": "event"
    },
    {
      "anonymous": false,
      "inputs": [
        {
          "indexed": true,
          "name": "owner",
          "type": "address"
        },
        {
          "indexed": false,
          "name": "amount",
          "type": "uint256"
        }
      ],
      "name": "WithdrawSavingAccount",
      "type": "event"
    },
    {
      "anonymous": false,
      "inputs": [
        {
          "indexed": true,
          "name": "role",
          "type": "bytes32"
        },
        {
          "indexed": true,
          "name": "account",
          "type": "address"
        },
        {
          "indexed": true,
          "name": "sender",
          "type": "address"
        }
      ],
      "name": "RoleGranted",
      "type": "event"
    },
    {
      "anonymous": false,
      "inputs": [
        {
          "indexed": true,
          "name": "role",
          "type": "bytes32"
        },
        {
          "indexed": true,
          "name": "account",
          "type": "address"
        },
        {
          "indexed": true,
          "name": "sender",
          "type": "address"
        }
      ],
      "name": "RoleRevoked",
      "type": "event"
    }
  ],
  "bytecode": "0x6080604052614169806100136000396000f3fe6080604052600436106101ab5763ffffffff7c0100000000000000000000000000000000000000000000000000000000600035041663033d086d81146101b05780631112f0f7146101fd578063248a9ca31461028057806324d7806c146102bc57806327b7aabc146102ef5780632ab6f8db146103565780632f2ff15d1461036d578063329bfc33146103a657806336568abe146103bb5780633a990db0146103f45780633db0a45a146104095780634218774b146104b3578063529298b8146104dd5780636d70f7ae1461054157806370480275146105745780637a86983f146105a75780638067e0021461060457806382133e381461064757806383f9f4d2146107695780638bad0c0a146107935780639010d07c146107a857806391d14854146107f45780639870d7fe1461082d5780639964476f14610860578063a217fddf14610875578063ac8a584a1461088a578063b58d3ff3146108bd578063bb29998e146108e7578063c93257551461091a578063ca15c8731461094a578063cf123e3014610974578063d547741f14610a06578063d5a962e414610a3f578063f5b541a614610b02575b600080fd5b3480156101bc57600080fd5b506101e9600480360360408110156101d357600080fd5b50600160a060020a038135169060200135610b17565b604080519115158252519081900360200190f35b34801561020957600080fd5b506102306004803603602081101561022057600080fd5b5035600160a060020a0316610b80565b60408051602080825283518183015283519192839290830191858101910280838360005b8381101561026c578181015183820152602001610254565b505050509050019250505060405180910390f35b34801561028c57600080fd5b506102aa600480360360208110156102a357600080fd5b5035610c31565b60408051918252519081900360200190f35b3480156102c857600080fd5b506101e9600480360360208110156102df57600080fd5b5035600160a060020a0316610c46565b3480156102fb57600080fd5b506103196004803603602081101561031257600080fd5b5035610c52565b604080516bffffffffffffffffffffffff9095168552600160a060020a039093166020850152838301919091526060830152519081900360800190f35b34801561036257600080fd5b5061036b610c70565b005b34801561037957600080fd5b5061036b6004803603604081101561039057600080fd5b5080359060200135600160a060020a0316610ca3565b3480156103b257600080fd5b506102aa610d50565b3480156103c757600080fd5b5061036b600480360360408110156103de57600080fd5b5080359060200135600160a060020a0316610d57565b34801561040057600080fd5b506102aa610df1565b34801561041557600080fd5b5061036b600480360361016081101561042d57600080fd5b50600160a060020a03813581169160208101359091169063ffffffff6040820135811691606081013582169167ffffffffffffffff6080830135169160a08101359161ffff60c083013581169260e081013590911691610100820135169060ff61012082013516906fffffffffffffffffffffffffffffffff6101409091013516610df7565b3480156104bf57600080fd5b50610230600480360360208110156104d657600080fd5b5035610fc0565b3480156104e957600080fd5b506104f2611115565b6040805167ffffffffffffffff909716875263ffffffff9586166020880152939094168584015260608501919091526080840152600160a060020a0390911660a0830152519081900360c00190f35b34801561054d57600080fd5b506101e96004803603602081101561056457600080fd5b5035600160a060020a0316611151565b34801561058057600080fd5b5061036b6004803603602081101561059757600080fd5b5035600160a060020a031661117e565b3480156105b357600080fd5b506105d1600480360360208110156105ca57600080fd5b50356111f2565b604080519586526020860194909452600160a060020a039092168484015260608401526080830152519081900360a00190f35b34801561061057600080fd5b5061062e6004803603602081101561062757600080fd5b503561122b565b6040805192835260208301919091528051918290030190f35b34801561065357600080fd5b5061067a6004803603602081101561066a57600080fd5b5035600160a060020a031661138f565b604051808b81526020018a815260200189600160a060020a0316600160a060020a031681526020018863ffffffff1663ffffffff1681526020018763ffffffff1663ffffffff1681526020018681526020018581526020018481526020018360048111156106e457fe5b60ff16815260200180602001828103825283818151815260200191508051906020019080838360005b8381101561072557818101518382015260200161070d565b50505050905090810190601f1680156107525780820380516001836020036101000a031916815260200191505b509b50505050505050505050505060405180910390f35b34801561077557600080fd5b506101e96004803603602081101561078c57600080fd5b5035611418565b34801561079f57600080fd5b5061036b6115dc565b3480156107b457600080fd5b506107d8600480360360408110156107cb57600080fd5b508035906020013561161d565b60408051600160a060020a039092168252519081900360200190f35b34801561080057600080fd5b506101e96004803603604081101561081757600080fd5b5080359060200135600160a060020a031661163b565b34801561083957600080fd5b5061036b6004803603602081101561085057600080fd5b5035600160a060020a0316611659565b34801561086c57600080fd5b5061067a6116e4565b34801561088157600080fd5b506102aa611724565b34801561089657600080fd5b5061036b600480360360208110156108ad57600080fd5b5035600160a060020a0316611729565b3480156108c957600080fd5b506102aa600480360360208110156108e057600080fd5b50356117b4565b3480156108f357600080fd5b5061062e6004803603602081101561090a57600080fd5b5035600160a060020a03166119bd565b34801561092657600080fd5b506102aa6004803603604081101561093d57600080fd5b50803590602001356119da565b34801561095657600080fd5b506102aa6004803603602081101561096d57600080fd5b5035611a68565b34801561098057600080fd5b506101e96004803603606081101561099757600080fd5b600160a060020a03823516916020810135918101906060810160408201356401000000008111156109c757600080fd5b8201836020820111156109d957600080fd5b803590602001918460018302840111640100000000831117156109fb57600080fd5b509092509050611a7f565b348015610a1257600080fd5b5061036b60048036036040811015610a2957600080fd5b5080359060200135600160a060020a0316611b2a565b348015610a4b57600080fd5b50610a6960048036036020811015610a6257600080fd5b5035611bc4565b604051808060200180602001838103835285818151815260200191508051906020019060200280838360005b83811015610aad578181015183820152602001610a95565b50505050905001838103825284818151815260200191508051906020019060200280838360005b83811015610aec578181015183820152602001610ad4565b5050505090500194505050505060405180910390f35b348015610b0e57600080fd5b506102aa611c9e565b6000610b29610b24611cc1565b611151565b1515610b6d576040805160e560020a62461bcd02815260206004820152601860248201526000805160206140de833981519152604482015290519081900360640190fd5b610b778383611cc5565b90505b92915050565b6060610b8d610b24611cc1565b1515610bd1576040805160e560020a62461bcd02815260206004820152601860248201526000805160206140de833981519152604482015290519081900360640190fd5b610bda82611ce6565b805480602002602001604051908101604052809291908181526020018280548015610c2457602002820191906000526020600020905b815481526020019060010190808311610c10575b505050505090505b919050565b60009081526033602052604090206002015490565b6000610b7a818361163b565b600080600080610c6185611d00565b93509350935093509193509193565b604080516000805160206140be83398151915281529051908190036008019020610ca190610c9c611cc1565b610d57565b565b600082815260336020526040902060020154610cc690610cc1611cc1565b61163b565b1515610d42576040805160e560020a62461bcd02815260206004820152602f60248201527f416363657373436f6e74726f6c3a2073656e646572206d75737420626520616e60448201527f2061646d696e20746f206772616e740000000000000000000000000000000000606482015290519081900360840190fd5b610d4c8282611d3a565b5050565b607c545b90565b610d5f611cc1565b600160a060020a03828116911614610de7576040805160e560020a62461bcd02815260206004820152602f60248201527f416363657373436f6e74726f6c3a2063616e206f6e6c792072656e6f756e636560448201527f20726f6c657320666f722073656c660000000000000000000000000000000000606482015290519081900360840190fd5b610d4c8282611da9565b60735490565b600054610100900460ff1680610e105750610e10611e18565b80610e1e575060005460ff16155b1515610e76576040805160e560020a62461bcd02815260206004820152602e60248201526000805160206140fe833981519152604482015260008051602061411e833981519152606482015290519081900360840190fd5b600054610100900460ff16158015610ea1576000805460ff1961ff0019909116610100171660011790555b610eaa8c611e1e565b610eb78b8b8b8b8b611f3d565b607554604080517f313ce5670000000000000000000000000000000000000000000000000000000081529051610f4992600160a060020a03169163313ce567916004808301926020929190829003018186803b158015610f1657600080fd5b505afa158015610f2a573d6000803e3d6000fd5b505050506040513d6020811015610f4057600080fd5b505187876120ce565b6087805464ffffffff00191661010063ffffffff8716021774ffffffffffffffffffffffffffffffff00000000001916650100000000006fffffffffffffffffffffffffffffffff8516021760ff191660ff85161790558015610fb2576000805461ff00191690555b505050505050505050505050565b60606000805b60695481101561110e5760008481526081602052604081206069805491929184908110610fef57fe5b6000918252602080832090910154600160a060020a0316835282019290925260400190205415801561105b575060006076600060698481548110151561103157fe5b6000918252602080832090910154600160a060020a03168352820192909252604001902060040154115b80156110af575060016076600060698481548110151561107757fe5b6000918252602080832090910154600160a060020a0316835282019290925260400190206006015460ff1660048111156110ad57fe5b145b156111065760698054829081106110c257fe5b6000918252602090912001548351600160a060020a03909116908490849081106110e857fe5b600160a060020a039092166020928302909101909101526001909101905b600101610fc6565b5050919050565b60655460725460665460675460755467ffffffffffffffff9094169463ffffffff808516956401000000009095041693600160a060020a031690565b604080516000805160206140be83398151915281529051908190036008019020600090610b7a908361163b565b61118e611189611cc1565b610c46565b15156111e4576040805160e560020a62461bcd02815260206004820152601560248201527f5265737472696374656420746f2041646d696e732e0000000000000000000000604482015290519081900360640190fd5b6111ef600082610ca3565b50565b6000908152607760205260409020805460018201546002830154600384015460049094015492949193600160a060020a03909116929091565b60008181526080602052604081208054829190607e90839083908290811061124f57fe5b90600052602060002001548152602001908152602001600020600201549150607e600082600081548110151561128157fe5b906000526020600020015481526020019081526020016000206001015492506000600190505b81548110156113885782607e600084848154811015156112c357fe5b9060005260206000200154815260200190815260200160002060020154111561131857607e600083838154811015156112f857fe5b906000526020600020015481526020019081526020016000206002015492505b83607e6000848481548110151561132b57fe5b9060005260206000200154815260200190815260200160002060010154101561138057607e6000838381548110151561136057fe5b906000526020600020015481526020019081526020016000206001015493505b6001016112a7565b5050915091565b600080600080600080600080600060606113aa610b24611cc1565b15156113ee576040805160e560020a62461bcd02815260206004820152601860248201526000805160206140de833981519152604482015290519081900360640190fd5b6113f78b6121f8565b99509950995099509950995099509950995099509193959799509193959799565b6000611425610b24611cc1565b1515611469576040805160e560020a62461bcd02815260206004820152601860248201526000805160206140de833981519152604482015290519081900360640190fd5b60008281526086602052604090205460ff16156114f6576040805160e560020a62461bcd02815260206004820152602760248201527f476c7577615072697a65447261773a205072697a6520686173206265656e207060448201527f616964206f757400000000000000000000000000000000000000000000000000606482015290519081900360840190fd5b6000828152608560209081526040808320607254608490935290832054607d549193926115599263ffffffff640100000000830481169361154d938216926115419290919061234e16565b9063ffffffff6123ab16565b9063ffffffff61244716565b6000858152608660205260408120805460ff19166001179055835491925010156115c9576000607d81905582548110156115c3576115b9838281548110151561159e57fe5b600091825260209091200154600160a060020a031683611cc5565b9350505050610c2c565b506115d2565b607d8054820190555b5060019392505050565b60006115e6611cc1565b90506115f3600082610d57565b604080516000805160206140be833981519152815290519081900360080190206111ef9082610d57565b6000828152603360205260408120610b77908363ffffffff61248916565b6000828152603360205260408120610b77908363ffffffff61249516565b611664611189611cc1565b15156116ba576040805160e560020a62461bcd02815260206004820152601560248201527f5265737472696374656420746f2041646d696e732e0000000000000000000000604482015290519081900360640190fd5b604080516000805160206140be833981519152815290519081900360080190206111ef9082610ca3565b600080600080600080600080600060606117046116ff611cc1565b6121f8565b995099509950995099509950995099509950995090919293949596979899565b600081565b611734611189611cc1565b151561178a576040805160e560020a62461bcd02815260206004820152601560248201527f5265737472696374656420746f2041646d696e732e0000000000000000000000604482015290519081900360640190fd5b604080516000805160206140be833981519152815290519081900360080190206111ef9082611b2a565b607454608754600091829160ff16430201815b6069548110156119af57600085815260816020526040812060698054919291849081106117f057fe5b6000918252602080832090910154600160a060020a0316835282019290925260400190205415801561185c575060006076600060698481548110151561183257fe5b6000918252602080832090910154600160a060020a03168352820192909252604001902060040154115b80156118b0575060016076600060698481548110151561187857fe5b6000918252602080832090910154600160a060020a0316835282019290925260400190206006015460ff1660048111156118ae57fe5b145b156119a7576119826069828154811015156118c757fe5b600091825260208220015460875460698054600160a060020a03909316938a936fffffffffffffffffffffffffffffffff65010000000000909404841663ffffffff8b160290931688019261195192607692918990811061192457fe5b6000918252602080832090910154600160a060020a031683528201929092526040019020600401546124aa565b6087546fffffffffffffffffffffffffffffffff65010000000000909104811663ffffffff8a16021687010161255c565b5060875460019093019263ffffffff610100909104811690841611156119a7576119af565b6001016117c7565b505063ffffffff1692915050565b600160a060020a0316906c01000000000000000000000000820290565b60006119e7610b24611cc1565b1515611a2b576040805160e560020a62461bcd02815260206004820152601860248201526000805160206140de833981519152604482015290519081900360640190fd5b604080516020808252818301909252606091602082018180388339505050308481186020830152909150611a5f85836127c0565b95945050505050565b6000818152603360205260408120610b7a90612880565b6000611a8c610b24611cc1565b1515611ad0576040805160e560020a62461bcd02815260206004820152601860248201526000805160206140de833981519152604482015290519081900360640190fd5b6000611b1486864287878080601f01602080910402602001604051908101604052809392919081815260200183838082843760009201919091525061288b92505050565b915050611b208161319e565b9695505050505050565b600082815260336020526040902060020154611b4890610cc1611cc1565b1515610de7576040805160e560020a62461bcd02815260206004820152603060248201527f416363657373436f6e74726f6c3a2073656e646572206d75737420626520616e60448201527f2061646d696e20746f207265766f6b6500000000000000000000000000000000606482015290519081900360840190fd5b60608060826000848152602001908152602001600020805480602002602001604051908101604052809291908181526020018280548015611c2e57602002820191906000526020600020905b8154600160a060020a03168152600190910190602001808311611c10575b5050505050915060806000848152602001908152602001600020805480602002602001604051908101604052809291908181526020018280548015611c9257602002820191906000526020600020905b815481526020019060010190808311611c7e575b50505050509050915091565b604080516000805160206140be8339815191528152905190819003600801902081565b3390565b600080611cd38484426132e0565b9050611cde8161319e565b949350505050565b600160a060020a03166000908152607f6020526040902090565b6000818152607e60205260408120805482918291829190611d20906136f4565b600183015460029093015491989097509195509350915050565b6000828152603360205260409020611d58908263ffffffff61370f16565b15610d4c57611d65611cc1565b600160a060020a031681600160a060020a0316837f2f8788117e7eff1d82e926ec794901d17c78024a50270940304540a733656f0d60405160405180910390a45050565b6000828152603360205260409020611dc7908263ffffffff61372416565b15610d4c57611dd4611cc1565b600160a060020a031681600160a060020a0316837ff6391f5c32d9c69d2a47ea670b442974b53935d1edc7fd64eb21e047a839171b60405160405180910390a45050565b303b1590565b600054610100900460ff1680611e375750611e37611e18565b80611e45575060005460ff16155b1515611e9d576040805160e560020a62461bcd02815260206004820152602e60248201526000805160206140fe833981519152604482015260008051602061411e833981519152606482015290519081900360840190fd5b600054610100900460ff16158015611ec8576000805460ff1961ff0019909116610100171660011790555b604080516000805160206140be83398151915281529051908190036008019020611ef3906000613739565b611efe600083610d42565b604080516000805160206140be83398151915281529051908190036008019020611f289083610d42565b8015610d4c576000805461ff00191690555050565b600054610100900460ff1680611f565750611f56611e18565b80611f64575060005460ff16155b1515611fbc576040805160e560020a62461bcd02815260206004820152602e60248201526000805160206140fe833981519152604482015260008051602061411e833981519152606482015290519081900360840190fd5b600054610100900460ff16158015611fe7576000805460ff1961ff0019909116610100171660011790555b6075805473ffffffffffffffffffffffffffffffffffffffff1916600160a060020a0388161790556072805463ffffffff191663ffffffff8781169190911767ffffffff000000001916640100000000918716919091021790556065805467ffffffffffffffff191667ffffffffffffffff851617905560668290556040805160608082018352600180835260208084018290526000938501849052606b829055606c829055606d8490558451928301855281835282018190529201819052606f82905560709190915560715580156120c6576000805461ff00191690555b505050505050565b600054610100900460ff16806120e757506120e7611e18565b806120f5575060005460ff16155b151561214d576040805160e560020a62461bcd02815260206004820152602e60248201526000805160206140fe833981519152604482015260008051602061411e833981519152606482015290519081900360840190fd5b600054610100900460ff16158015612178576000805460ff1961ff0019909116610100171660011790555b607a805461ff00191661010060ff8716021763ffff000019166201000061ffff868116919091029190911765ffff0000000019166401000000009185169190910217905560408051602081019091526001908190526079805466ffffffffffffff1916909117905580156121f2576000805461ff00191690555b50505050565b600160a060020a0380821660009081526076602090815260408083208054600180830154600280850154600386015460048701546005880154600689015460078a0180548c51601f6000199b831615610100029b909b01909116979097049889018d90048d0287018d01909b528786529b9c8d9c8d9c8d9c8d9c8d9c8d9c8d9c8d9c60609c949b939a91999885169863ffffffff7401000000000000000000000000000000000000000087048116997801000000000000000000000000000000000000000000000000909704169794969295909460ff9091169383918301828280156123255780601f106122fa57610100808354040283529160200191612325565b820191906000526020600020905b81548152906001019060200180831161230857829003601f168201915b505050505090509a509a509a509a509a509a509a509a509a509a50509193959799509193959799565b600082820183811015610b77576040805160e560020a62461bcd02815260206004820152601b60248201527f536166654d6174683a206164646974696f6e206f766572666c6f770000000000604482015290519081900360640190fd5b60008215156123bc57506000610b7a565b8282028284828115156123cb57fe5b0414610b77576040805160e560020a62461bcd02815260206004820152602160248201527f536166654d6174683a206d756c7469706c69636174696f6e206f766572666c6f60448201527f7700000000000000000000000000000000000000000000000000000000000000606482015290519081900360840190fd5b6000610b7783836040805190810160405280601a81526020017f536166654d6174683a206469766973696f6e206279207a65726f00000000000081525061374e565b6000610b7783836137f7565b6000610b7783600160a060020a038416613899565b607554604080517f313ce5670000000000000000000000000000000000000000000000000000000081529051600092600160a060020a03169163313ce567916004808301926020929190829003018186803b15801561250857600080fd5b505afa15801561251c573d6000803e3d6000fd5b505050506040513d602081101561253257600080fd5b5051607a5460ff909116600a0a9062010000900461ffff16830281151561255557fe5b0492915050565b6000838152608160209081526040808320600160a060020a0388168452909152812054811015612667576000848152608160209081526040808320600160a060020a0389168452825280832080548452607e8084528285206001808201546002928301548c89526084885286892080548d8d03929092039092010190558354875291909452828520018790558054845281842090920185905590548252812054612605906136f4565b506bffffffffffffffffffffffff16905085600160a060020a031681867f7ef38c92f7959fa67fe5cd29a3986c48d410d61218c99b6901c9cc81d246cfec8787604051808381526020018281526020019250505060405180910390a4506127b5565b6079805460408051606081018252600160a060020a03891666ffffffffffffff938416740100000000000000000000000000000000000000008102821780845260208085018b81528587018b81526000858152607e845288812097518855915160018089019190915590516002909701969096558c81526084825286812080548d8d0301905560828252868120805496870181558152818120909501805473ffffffffffffffffffffffffffffffffffffffff19168517905596548b8552608188528585209385529287528484209290951690915588825260809094522061274f90836138b1565b86600160a060020a0316826bffffffffffffffffffffffff16877f7ef38c92f7959fa67fe5cd29a3986c48d410d61218c99b6901c9cc81d246cfec8888604051808381526020018281526020019250505060405180910390a46127b260796138c9565b50505b506001949350505050565b6000828152608360205260408120541561284a576040805160e560020a62461bcd02815260206004820152602660248201527f476c7577615072697a65447261773a207468652064726177206861732062656560448201527f6e206d6164650000000000000000000000000000000000000000000000000000606482015290519081900360840190fd5b6000806128568561122b565b915091506128658282866138eb565b60008681526083602052604090208190559250505092915050565b6000610b7a826139a4565b600080606654856074540111151515612914576040805160e560020a62461bcd02815260206004820152602660248201527f476c757761536176696e674163636f756e743a2042756467657420697320657860448201527f6365656465640000000000000000000000000000000000000000000000000000606482015290519081900360840190fd5b600160a060020a038616151561299a576040805160e560020a62461bcd02815260206004820152603860248201527f476c757761536176696e674163636f756e743a20536176696e67206f776e657260448201527f2061646472657373206d75737420626520646566696e65640000000000000000606482015290519081900360840190fd5b600160a060020a03861660009081526076602052604090206003015415612a57576040805160e560020a62461bcd02815260206004820152604760248201527f476c757761536176696e674163636f756e743a2045616368206164647265737360448201527f2073686f756c642068617665206f6e6c79203120536176696e67206163636f7560648201527f6e74206f6e6c7900000000000000000000000000000000000000000000000000608482015290519081900360a40190fd5b6078836040518082805190602001908083835b60208310612a895780518252601f199092019160209182019101612a6a565b51815160209384036101000a600019018019909216911617905292019485525060405193849003019092205460ff16159150612b379050576040805160e560020a62461bcd02815260206004820152603160248201527f476c757761536176696e674163636f756e743a204964656e746974792068617360448201527f6820697320616c72656164792075736564000000000000000000000000000000606482015290519081900360840190fd5b607554604080517f23b872dd000000000000000000000000000000000000000000000000000000008152600160a060020a03898116600483015230602483015260448201899052915191909216916323b872dd9160648083019260209291908290030181600087803b158015612bac57600080fd5b505af1158015612bc0573d6000803e3d6000fd5b505050506040513d6020811015612bd657600080fd5b50511515612c7a576040805160e560020a62461bcd02815260206004820152604860248201527f476c757761536176696e674163636f756e743a20556e61626c6520746f20736560448201527f6e6420616d6f756e7420746f206465706f73697420746f206120536176696e6760648201527f204163636f756e74000000000000000000000000000000000000000000000000608482015290519081900360a40190fd5b604080517f84cefce000000000000000000000000000000000000000000000000000000000815260048101869052306024820152600160a060020a0388166044820152905160009173__$8ad4cadfbfab443c6ed09b45690dcdfb0d$__916384cefce091606480820192602092909190829003018186803b158015612cfe57600080fd5b505af4158015612d12573d6000803e3d6000fd5b505050506040513d6020811015612d2857600080fd5b5051606c54604080517ffd96809e000000000000000000000000000000000000000000000000000000008152600481019290925260248201899052306044830152600160a060020a038a1660648301525191925060009173__$8ad4cadfbfab443c6ed09b45690dcdfb0d$__9163fd96809e916084808301926020929190829003018186803b158015612dba57600080fd5b505af4158015612dce573d6000803e3d6000fd5b505050506040513d6020811015612de457600080fd5b50516040805161014081018252606c54815260208101859052600160a060020a038b169181019190915260725463ffffffff808216606084015264010000000090910416608082015260a0810188905260c08101899052600060e08201529091506101008101600181526020908101879052600160a060020a038a81166000908152607683526040908190208451815592840151600180850191909155908401516002840180546060870151608088015173ffffffffffffffffffffffffffffffffffffffff19909216939095169290921777ffffffff000000000000000000000000000000000000000019167401000000000000000000000000000000000000000063ffffffff95861602177fffffffff00000000ffffffffffffffffffffffffffffffffffffffffffffffff16780100000000000000000000000000000000000000000000000094909216939093021790915560a0830151600383015560c083015160048084019190915560e084015160058401556101008401516006840180549193909260ff19909216918490811115612f7d57fe5b02179055506101208201518051612f9e916007840191602090910190613ff0565b50506040805160a0810182526070548152606c546020808301918252600160a060020a038d8116848601908152606085018d8152608086018f815260008a815260778652889020965187559451600180880191909155915160028701805473ffffffffffffffffffffffffffffffffffffffff191691909416179092559051600385015591516004909301929092559151885192935060789289928291908401908083835b602083106130625780518252601f199092019160209182019101613043565b51815160209384036101000a60001901801990921691161790529201948552506040519384900301909220805460ff191693151593909317909255506130ab9050606a836139a8565b6130bc606e8263ffffffff6139a816565b6069805460018101825560009182527f7fb4302e8e91f9110a6554c2c0a24601252c2a42c2220ca988efcfe39991430801805473ffffffffffffffffffffffffffffffffffffffff1916600160a060020a038b16908117909155607380548a019055607480548a019055604051909184917fae420988b408fa1c16c342c73f56ece9307da09db1ac6b36fc8d9ff61acaa9a29190a3604080518881529051600160a060020a038a169183917f2e2791fe9306933f4d6468aab16a0195b3ab2b342887b2e1be4aa35f568322979181900360200190a39097909650945050505050565b60006131ab610b24611cc1565b15156131ef576040805160e560020a62461bcd02815260206004820152601860248201526000805160206140de833981519152604482015290519081900360640190fd5b6000828152607760205260408120600381015490911061327f576040805160e560020a62461bcd02815260206004820152602860248201527f476c7577615072697a65447261773a20546865206465706f736974206973206e60448201527f6f7420666f756e64000000000000000000000000000000000000000000000000606482015290519081900360840190fd5b60745460875460028301546003840154600485015460ff84164302650100000000009094046fffffffffffffffffffffffffffffffff1693909301909301926127b592600160a060020a039092169184906132d9906124aa565b85016139d8565b6000606654836074540111151515613368576040805160e560020a62461bcd02815260206004820152602660248201527f476c757761536176696e674163636f756e743a2042756467657420697320657860448201527f6365656465640000000000000000000000000000000000000000000000000000606482015290519081900360840190fd5b600160a060020a03841660009081526076602052604081206003810154909110613402576040805160e560020a62461bcd02815260206004820152602560248201527f476c757761536176696e674163636f756e743a204163636f756e74206e6f742060448201527f666f756e64000000000000000000000000000000000000000000000000000000606482015290519081900360840190fd5b607554604080517f23b872dd000000000000000000000000000000000000000000000000000000008152600160a060020a03888116600483015230602483015260448201889052915191909216916323b872dd9160648083019260209291908290030181600087803b15801561347757600080fd5b505af115801561348b573d6000803e3d6000fd5b505050506040513d60208110156134a157600080fd5b50511515613545576040805160e560020a62461bcd02815260206004820152604860248201527f476c757761536176696e674163636f756e743a20556e61626c6520746f20736560448201527f6e6420616d6f756e7420746f206465706f73697420746f206120536176696e6760648201527f204163636f756e74000000000000000000000000000000000000000000000000608482015290519081900360a40190fd5b6004808201805486019055607380548601905560748054860190558154604080517ffd96809e0000000000000000000000000000000000000000000000000000000081529283019190915260248201869052306044830152600160a060020a03871660648301525160009173__$8ad4cadfbfab443c6ed09b45690dcdfb0d$__9163fd96809e91608480820192602092909190829003018186803b1580156135ec57600080fd5b505af4158015613600573d6000803e3d6000fd5b505050506040513d602081101561361657600080fd5b50516040805160a081018252607054815284546020808301918252600160a060020a038b8116848601908152606085018b8152608086018d815260008981526077909552969093209451855592516001850155915160028401805473ffffffffffffffffffffffffffffffffffffffff19169190931617909155516003820155905160049091015590506136ab606e826139a8565b604080518681529051600160a060020a0388169183917f2e2791fe9306933f4d6468aab16a0195b3ab2b342887b2e1be4aa35f568322979181900360200190a395945050505050565b74010000000000000000000000000000000000000000810491565b6000610b7783600160a060020a038416613c4a565b6000610b7783600160a060020a038416613c96565b60009182526033602052604090912060020155565b6000818184116137df5760405160e560020a62461bcd0281526004018080602001828103825283818151815260200191508051906020019080838360005b838110156137a457818101518382015260200161378c565b50505050905090810190601f1680156137d15780820380516001836020036101000a031916815260200191505b509250505060405180910390fd5b50600083858115156137ed57fe5b0495945050505050565b81546000908210613878576040805160e560020a62461bcd02815260206004820152602260248201527f456e756d657261626c655365743a20696e646578206f7574206f6620626f756e60448201527f6473000000000000000000000000000000000000000000000000000000000000606482015290519081900360840190fd5b825483908390811061388657fe5b9060005260206000200154905092915050565b60009081526001919091016020526040902054151590565b81546001810183556000928352602090922090910155565b805466ffffffffffffff8082166001011666ffffffffffffff19909116179055565b600080848585036001014285434042448a8c6040516020018088815260200187805190602001908083835b602083106139355780518252601f199092019160209182019101613916565b51815160209384036101000a6000190180199092169116179052920197885250868101959095525060408086019390935260608501919091526080808501919091528151808503909101815260a09093019052815191012091505081151561399957fe5b060195945050505050565b5490565b60028201805460009081526020849052604090209190915580546001908101909155600390910180549091019055565b60006139e261406e565b6139eb85613d60565b90506000600290506010826060015160ff161080613a235750816060015160ff166010148015613a235750603b826080015160ff1611155b15613a2c575060015b6020808301518351604080517f8980747400000000000000000000000000000000000000000000000000000000815260ff909316600484015261ffff90911660248301525160009273__$05084330c9bf728fdd5577c5afe72a471f$__9263898074749260448083019392829003018186803b158015613aab57600080fd5b505af4158015613abf573d6000803e3d6000fd5b505050506040513d6020811015613ad557600080fd5b5051604084015190915060ff808316918401161115613b3a57826020015160ff16600c141515613b125760208301805160010160ff169052613b25565b825161ffff600191820116845260208401525b604083018051830182900360ff169052613b48565b604083018051830160ff1690525b60116060840181905260006080850181905260a08501819052845160208087015160408089015181517f0a37f14b00000000000000000000000000000000000000000000000000000000815261ffff909516600486015260ff9283166024860152909116604484015260648301949094526084820183905260a482018390529251919273__$05084330c9bf728fdd5577c5afe72a471f$__92630a37f14b9260c4808201939291829003018186803b158015613c0357600080fd5b505af4158015613c17573d6000803e3d6000fd5b505050506040513d6020811015613c2d57600080fd5b50519050613c3d8982898961255c565b9998505050505050505050565b6000613c568383613899565b1515613c8e57508154600181810184556000848152602080822090930184905584548482528286019093526040902091909155610b7a565b506000610b7a565b60008181526001830160205260408120548015613d565783546000198083019190810190600090879083908110613cc957fe5b90600052602060002001549050808760000184815481101515613ce857fe5b6000918252602080832090910192909255828152600189810190925260409020908401905586548790801515613d1a57fe5b60019003818190600052602060002001600090559055866001016000878152602001908152602001600020600090556001945050505050610b7a565b6000915050610b7a565b613d6861406e565b613d7182613e8e565b61ffff1681526000613d846107b2613f10565b8251613d939061ffff16613f10565b0361ffff1690506000816301e2850002826107b285600001510361ffff16036301e13380020190506000806000600190505b600c60ff821611613e1357613de281876000015161ffff16613f2b565b91508160ff1662015180029250868484011115613e075760ff81166020870152613e13565b92820192600101613dc5565b5060015b60ff80831690821611613e5057868462015180011115613e3f5760ff81166040870152613e50565b620151809390930192600101613e17565b613e5987613f9d565b60ff166060870152613e6a87613fb7565b60ff166080870152613e7b87613fc2565b60ff1660a0870152509395945050505050565b60006107b26301e1338083048101908290613ea890613f10565b613eb183613f10565b0361ffff1690506301e2850081026107b119828403016301e1338002015b84811115613f0757613ee360018403613fcc565b15613ef4576301e284ff1901613efc565b6301e1337f19015b600183039250613ecf565b50909392505050565b60001901600060648204610190830460048404010392915050565b60008260ff1660021415613f5757613f4282613fcc565b15613f4f5750601d610b7a565b50601c610b7a565b8260ff1660041480613f6c57508260ff166006145b80613f7a57508260ff166009145b80613f8857508260ff16600b145b15613f955750601e610b7a565b50601f610b7a565b60006018610e10835b04811515613fb057fe5b0692915050565b6000603c8083613fa6565b6000603c82613fb0565b600061019082061580610b7a575060048206158015610b7a57505060649006151590565b828054600181600116156101000203166002900490600052602060002090601f016020900481019282601f1061403157805160ff191683800117855561405e565b8280016001018555821561405e579182015b8281111561405e578251825591602001919060010190614043565b5061406a9291506140a3565b5090565b6040805160c081018252600080825260208201819052918101829052606081018290526080810182905260a081019190915290565b610d5491905b8082111561406a57600081556001016140a956fe4f50455241544f520000000000000000000000000000000000000000000000005265737472696374656420746f204f70657261746f72732e0000000000000000436f6e747261637420696e7374616e63652068617320616c7265616479206265656e20696e697469616c697a6564000000000000000000000000000000000000a165627a7a72305820491fa12d0c41dea5bfeee6ddf9986f0e5c094b4aef270325bb118e29a55016470029",
  "linkReferences": {
    "contracts/libs/DateTimeModel.sol": {
      "DateTimeModel": [
        {
          "length": 20,
          "start": 14985
        },
        {
          "length": 20,
          "start": 15328
        }
      ]
    },
    "contracts/libs/GluwaAccountModel.sol": {
      "GluwaAccountModel": [
        {
          "length": 20,
          "start": 11479
        },
        {
          "length": 20,
          "start": 11668
        },
        {
          "length": 20,
          "start": 13765
        }
      ]
    }
  },
  "deployedLinkReferences": {
    "contracts/libs/DateTimeModel.sol": {
      "DateTimeModel": [
        {
          "length": 20,
          "start": 14966
        },
        {
          "length": 20,
          "start": 15309
        }
      ]
    },
    "contracts/libs/GluwaAccountModel.sol": {
      "GluwaAccountModel": [
        {
          "length": 20,
          "start": 11460
        },
        {
          "length": 20,
          "start": 11649
        },
        {
          "length": 20,
          "start": 13746
        }
      ]
    }
  }
}