{
  "_format": "hh-sol-artifact-1",
  "contractName": "SandboxPrizeLinkedAccountVault",
  "sourceName": "contracts/mocks/SandboxPrizeLinkedAccountVault.sol",
  "abi": [
    {
      "constant": false,
      "inputs": [
        {
          "name": "owner",
          "type": "address"
        },
        {
          "name": "amount",
          "type": "uint256"
        }
      ],
      "name": "depositPrizedLinkAccount",
      "outputs": [
        {
          "name": "",
          "type": "bool"
        }
      ],
      "payable": false,
      "stateMutability": "nonpayable",
      "type": "function"
    },
    {
      "constant": true,
      "inputs": [
        {
          "name": "idx",
          "type": "uint256"
        }
      ],
      "name": "getTicketDetailsById",
      "outputs": [
        {
          "name": "",
          "type": "uint256"
        }
      ],
      "payable": false,
      "stateMutability": "view",
      "type": "function"
    },
    {
      "constant": false,
      "inputs": [
        {
          "name": "admin",
          "type": "address"
        },
        {
          "name": "tokenAddress",
          "type": "address"
        },
        {
          "name": "standardInterestRate",
          "type": "uint32"
        },
        {
          "name": "standardInterestRatePercentageBase",
          "type": "uint32"
        },
        {
          "name": "standardMaturityTerm",
          "type": "uint64"
        },
        {
          "name": "budget",
          "type": "uint256"
        },
        {
          "name": "tokenPerTicket",
          "type": "uint16"
        },
        {
          "name": "ticketValidityTargetBlock",
          "type": "uint16"
        },
        {
          "name": "totalTicketPerBatch",
          "type": "uint32"
        }
      ],
      "name": "initialize",
      "outputs": [],
      "payable": false,
      "stateMutability": "nonpayable",
      "type": "function"
    },
    {
      "constant": true,
      "inputs": [
        {
          "name": "owner",
          "type": "address"
        }
      ],
      "name": "getValidTicketIdFor",
      "outputs": [
        {
          "name": "",
          "type": "uint256[]"
        }
      ],
      "payable": false,
      "stateMutability": "view",
      "type": "function"
    },
    {
      "constant": true,
      "inputs": [
        {
          "name": "idx",
          "type": "uint256"
        }
      ],
      "name": "getTicketById",
      "outputs": [
        {
          "name": "",
          "type": "uint56"
        },
        {
          "name": "",
          "type": "address"
        },
        {
          "name": "",
          "type": "uint48"
        },
        {
          "name": "",
          "type": "uint48"
        },
        {
          "name": "",
          "type": "uint96"
        },
        {
          "name": "",
          "type": "uint8"
        }
      ],
      "payable": false,
      "stateMutability": "view",
      "type": "function"
    },
    {
      "constant": true,
      "inputs": [],
      "name": "getCurrentWinner",
      "outputs": [
        {
          "name": "",
          "type": "uint256"
        }
      ],
      "payable": false,
      "stateMutability": "view",
      "type": "function"
    },
    {
      "constant": true,
      "inputs": [],
      "name": "getCurrentTotalDeposit",
      "outputs": [
        {
          "name": "",
          "type": "uint256"
        }
      ],
      "payable": false,
      "stateMutability": "view",
      "type": "function"
    },
    {
      "constant": true,
      "inputs": [],
      "name": "getSavingSettings",
      "outputs": [
        {
          "name": "",
          "type": "uint64"
        },
        {
          "name": "",
          "type": "uint32"
        },
        {
          "name": "",
          "type": "uint32"
        },
        {
          "name": "",
          "type": "uint256"
        },
        {
          "name": "",
          "type": "uint256"
        },
        {
          "name": "",
          "type": "address"
        }
      ],
      "payable": false,
      "stateMutability": "view",
      "type": "function"
    },
    {
      "constant": true,
      "inputs": [
        {
          "name": "depositHash",
          "type": "bytes32"
        }
      ],
      "name": "getDeposit",
      "outputs": [
        {
          "name": "",
          "type": "uint256"
        },
        {
          "name": "",
          "type": "uint256"
        },
        {
          "name": "",
          "type": "address"
        },
        {
          "name": "",
          "type": "uint256"
        },
        {
          "name": "",
          "type": "uint256"
        }
      ],
      "payable": false,
      "stateMutability": "view",
      "type": "function"
    },
    {
      "constant": true,
      "inputs": [
        {
          "name": "owner",
          "type": "address"
        }
      ],
      "name": "getSavingAcountFor",
      "outputs": [
        {
          "name": "",
          "type": "uint256"
        },
        {
          "name": "",
          "type": "bytes32"
        },
        {
          "name": "",
          "type": "address"
        },
        {
          "name": "",
          "type": "uint32"
        },
        {
          "name": "",
          "type": "uint32"
        },
        {
          "name": "",
          "type": "uint256"
        },
        {
          "name": "",
          "type": "uint256"
        },
        {
          "name": "",
          "type": "uint256"
        },
        {
          "name": "",
          "type": "uint8"
        },
        {
          "name": "",
          "type": "bytes"
        }
      ],
      "payable": false,
      "stateMutability": "view",
      "type": "function"
    },
    {
      "constant": false,
      "inputs": [
        {
          "name": "drawDateTime",
          "type": "uint256"
        }
      ],
      "name": "prizeDraw",
      "outputs": [
        {
          "name": "ticketId",
          "type": "uint56"
        },
        {
          "name": "owner",
          "type": "address"
        },
        {
          "name": "creationDate",
          "type": "uint48"
        },
        {
          "name": "drawnDate",
          "type": "uint48"
        },
        {
          "name": "targetBlockNumber",
          "type": "uint96"
        },
        {
          "name": "state",
          "type": "uint8"
        }
      ],
      "payable": false,
      "stateMutability": "nonpayable",
      "type": "function"
    },
    {
      "constant": true,
      "inputs": [],
      "name": "getSavingAcount",
      "outputs": [
        {
          "name": "",
          "type": "uint256"
        },
        {
          "name": "",
          "type": "bytes32"
        },
        {
          "name": "",
          "type": "address"
        },
        {
          "name": "",
          "type": "uint32"
        },
        {
          "name": "",
          "type": "uint32"
        },
        {
          "name": "",
          "type": "uint256"
        },
        {
          "name": "",
          "type": "uint256"
        },
        {
          "name": "",
          "type": "uint256"
        },
        {
          "name": "",
          "type": "uint8"
        },
        {
          "name": "",
          "type": "bytes"
        }
      ],
      "payable": false,
      "stateMutability": "view",
      "type": "function"
    },
    {
      "constant": true,
      "inputs": [
        {
          "name": "owner",
          "type": "address"
        }
      ],
      "name": "test",
      "outputs": [
        {
          "name": "",
          "type": "uint256"
        },
        {
          "name": "",
          "type": "uint256"
        }
      ],
      "payable": false,
      "stateMutability": "pure",
      "type": "function"
    },
    {
      "constant": false,
      "inputs": [
        {
          "name": "owner",
          "type": "address"
        },
        {
          "name": "amount",
          "type": "uint256"
        },
        {
          "name": "securityHash",
          "type": "bytes"
        }
      ],
      "name": "createPrizedLinkAccount",
      "outputs": [
        {
          "name": "",
          "type": "bool"
        }
      ],
      "payable": false,
      "stateMutability": "nonpayable",
      "type": "function"
    },
    {
      "constant": false,
      "inputs": [
        {
          "name": "referenceHash",
          "type": "bytes32"
        }
      ],
      "name": "createPrizedLinkTickets",
      "outputs": [
        {
          "name": "",
          "type": "bool"
        }
      ],
      "payable": false,
      "stateMutability": "nonpayable",
      "type": "function"
    },
    {
      "anonymous": false,
      "inputs": [
        {
          "indexed": false,
          "name": "winner",
          "type": "address"
        },
        {
          "indexed": false,
          "name": "ticket",
          "type": "uint256"
        },
        {
          "indexed": false,
          "name": "reward",
          "type": "uint256"
        }
      ],
      "name": "Winner",
      "type": "event"
    },
    {
      "anonymous": false,
      "inputs": [
        {
          "indexed": true,
          "name": "accountHash",
          "type": "bytes32"
        },
        {
          "indexed": true,
          "name": "owner",
          "type": "address"
        }
      ],
      "name": "CreateAccount",
      "type": "event"
    },
    {
      "anonymous": false,
      "inputs": [
        {
          "indexed": true,
          "name": "depositHash",
          "type": "bytes32"
        },
        {
          "indexed": true,
          "name": "owner",
          "type": "address"
        },
        {
          "indexed": false,
          "name": "deposit",
          "type": "uint256"
        }
      ],
      "name": "CreateDeposit",
      "type": "event"
    },
    {
      "anonymous": false,
      "inputs": [
        {
          "indexed": true,
          "name": "owner",
          "type": "address"
        },
        {
          "indexed": false,
          "name": "amount",
          "type": "uint256"
        }
      ],
      "name": "WithdrawSavingAccount",
      "type": "event"
    }
  ],
  "bytecode": "0x60806040526127aa806100136000396000f3fe6080604052600436106100da5763ffffffff7c0100000000000000000000000000000000000000000000000000000000600035041663033d086d81146100df5780630740da471461012c5780630af4ad1b146101685780631112f0f7146101f157806327b7aabc14610274578063329bfc33146102fe5780633a990db014610313578063529298b8146103285780637a86983f1461038c57806382133e38146103e957806383f9f4d21461050b5780639964476f14610535578063bb29998e1461054a578063cf123e3014610596578063efb41d6b14610628575b600080fd5b3480156100eb57600080fd5b506101186004803603604081101561010257600080fd5b50600160a060020a038135169060200135610652565b604080519115158252519081900360200190f35b34801561013857600080fd5b506101566004803603602081101561014f57600080fd5b50356106b0565b60408051918252519081900360200190f35b34801561017457600080fd5b506101ef600480360361012081101561018c57600080fd5b50600160a060020a03813581169160208101359091169063ffffffff6040820135811691606081013582169167ffffffffffffffff6080830135169160a08101359161ffff60c083013581169260e08101359091169161010090910135166106c2565b005b3480156101fd57600080fd5b506102246004803603602081101561021457600080fd5b5035600160a060020a031661085c565b60408051602080825283518183015283519192839290830191858101910280838360005b83811015610260578181015183820152602001610248565b505050509050019250505060405180910390f35b34801561028057600080fd5b5061029e6004803603602081101561029757600080fd5b50356108bd565b6040805166ffffffffffffff9097168752600160a060020a03909516602087015265ffffffffffff938416868601529190921660608501526bffffffffffffffffffffffff909116608084015260ff1660a0830152519081900360c00190f35b34801561030a57600080fd5b506101566108e3565b34801561031f57600080fd5b506101566108ea565b34801561033457600080fd5b5061033d6108f0565b6040805167ffffffffffffffff909716875263ffffffff9586166020880152939094168584015260608501919091526080840152600160a060020a0390911660a0830152519081900360c00190f35b34801561039857600080fd5b506103b6600480360360208110156103af57600080fd5b5035610934565b604080519586526020860194909452600160a060020a039092168484015260608401526080830152519081900360a00190f35b3480156103f557600080fd5b5061041c6004803603602081101561040c57600080fd5b5035600160a060020a0316610942565b604051808b81526020018a815260200189600160a060020a0316600160a060020a031681526020018863ffffffff1663ffffffff1681526020018763ffffffff1663ffffffff16815260200186815260200185815260200184815260200183600481111561048657fe5b60ff16815260200180602001828103825283818151815260200191508051906020019080838360005b838110156104c75781810151838201526020016104af565b50505050905090810190601f1680156104f45780820380516001836020036101000a031916815260200191505b509b50505050505050505050505060405180910390f35b34801561051757600080fd5b5061029e6004803603602081101561052e57600080fd5b503561097c565b34801561054157600080fd5b5061041c6109c5565b34801561055657600080fd5b5061057d6004803603602081101561056d57600080fd5b5035600160a060020a0316610a05565b6040805192835260208301919091528051918290030190f35b3480156105a257600080fd5b50610118600480360360608110156105b957600080fd5b600160a060020a03823516916020810135918101906060810160408201356401000000008111156105e957600080fd5b8201836020820111156105fb57600080fd5b8035906020019184600183028401116401000000008311171561061d57600080fd5b509092509050610a22565b34801561063457600080fd5b506101186004803603602081101561064b57600080fd5b5035610aae565b60008061065f8484610ae4565b6045549091506106969061ffff6101008204169061068a90869060ff16600a0a63ffffffff610e6716565b9063ffffffff610e6716565b6000918252604b6020526040909120555060015b92915050565b60009081526049602052604090205490565b600054610100900460ff16806106db57506106db610eb0565b806106e9575060005460ff16155b1515610765576040805160e560020a62461bcd02815260206004820152602e60248201527f436f6e747261637420696e7374616e63652068617320616c726561647920626560448201527f656e20696e697469616c697a6564000000000000000000000000000000000000606482015290519081900360840190fd5b600054610100900460ff16158015610790576000805460ff1961ff0019909116610100171660011790555b61079d8989898989610eb6565b61083e604060009054906101000a9004600160a060020a0316600160a060020a031663313ce5676040518163ffffffff167c010000000000000000000000000000000000000000000000000000000002815260040160206040518083038186803b15801561080a57600080fd5b505afa15801561081e573d6000803e3d6000fd5b505050506040513d602081101561083457600080fd5b5051858585611076565b8015610850576000805461ff00191690555b50505050505050505050565b6060610867826111d1565b8054806020026020016040519081016040528092919081815260200182805480156108b157602002820191906000526020600020905b81548152602001906001019080831161089d575b50505050509050919050565b6000806000806000806108cf876111eb565b949c939b5091995097509550909350915050565b6047545b90565b603f5490565b60335460345460355460405468010000000000000000840467ffffffffffffffff169463ffffffff80861695640100000000900416939291600160a060020a031690565b506000908190819081908190565b6000806000806000806000806000606061095b8b61121e565b99509950995099509950995099509950995099509193959799509193959799565b60008060008060008060006109908861135f565b60018101548154600160a060020a0390911697509091506109b09061151c565b939c999b509199509790965090945092505050565b600080600080600080600080600060606109e56109e061156c565b61121e565b995099509950995099509950995099509950995090919293949596979899565b600160a060020a0316906c01000000000000000000000000820290565b600080610a6786864287878080601f01602080910402602001604051908101604052809392919081815260200183838082843760009201919091525061157092505050565b604554909250610a93915061ffff6101008204169061068a90889060ff16600a0a63ffffffff610e6716565b6000918252604b602052604090912055506001949350505050565b600081815260426020526040812060028101546003820154610ada91600160a060020a03169085611d91565b5060019392505050565b600160a060020a038216600090815260416020526040812060038101548210610b7d576040805160e560020a62461bcd02815260206004820152602560248201527f476c757761536176696e674163636f756e743a204163636f756e74206e6f742060448201527f666f756e64000000000000000000000000000000000000000000000000000000606482015290519081900360840190fd5b6040805481517f23b872dd000000000000000000000000000000000000000000000000000000008152600160a060020a03878116600483015230602483015260448201879052925192909116916323b872dd916064808201926020929091908290030181600087803b158015610bf257600080fd5b505af1158015610c06573d6000803e3d6000fd5b505050506040513d6020811015610c1c57600080fd5b50511515610cc0576040805160e560020a62461bcd02815260206004820152604860248201527f476c757761536176696e674163636f756e743a20556e61626c6520746f20736560448201527f6e6420616d6f756e7420746f206465706f73697420746f206120536176696e6760648201527f204163636f756e74000000000000000000000000000000000000000000000000608482015290519081900360a40190fd5b6004808201805485019055603f8054850190558154604080517ffd96809e0000000000000000000000000000000000000000000000000000000081529283019190915260248201859052306044830152600160a060020a03861660648301525160009173__$8ad4cadfbfab443c6ed09b45690dcdfb0d$__9163fd96809e91608480820192602092909190829003018186803b158015610d5f57600080fd5b505af4158015610d73573d6000803e3d6000fd5b505050506040513d6020811015610d8957600080fd5b50516040805160a081018252603d54815284546020808301918252600160a060020a038a81168486019081524260608601908152608086018c815260008981526042909552969093209451855592516001850155915160028401805473ffffffffffffffffffffffffffffffffffffffff1916919093161790915551600382015590516004909101559050610e1f603b8261225a565b604080518581529051600160a060020a0387169183917f2e2791fe9306933f4d6468aab16a0195b3ab2b342887b2e1be4aa35f568322979181900360200190a3949350505050565b6000610ea983836040805190810160405280601a81526020017f536166654d6174683a206469766973696f6e206279207a65726f00000000000081525061228a565b9392505050565b303b1590565b600054610100900460ff1680610ecf5750610ecf610eb0565b80610edd575060005460ff16155b1515610f59576040805160e560020a62461bcd02815260206004820152602e60248201527f436f6e747261637420696e7374616e63652068617320616c726561647920626560448201527f656e20696e697469616c697a6564000000000000000000000000000000000000606482015290519081900360840190fd5b600054610100900460ff16158015610f84576000805460ff1961ff0019909116610100171660011790555b6040805473ffffffffffffffffffffffffffffffffffffffff1916600160a060020a0388161781556033805463ffffffff191663ffffffff8881169190911767ffffffff00000000191664010000000091881691909102176fffffffffffffffff000000000000000019166801000000000000000067ffffffffffffffff871602179055603483905580516060808201835260018083526020808401829052600093850184905260388290556039829055603a8490558451928301855281835282018190529201819052603c829055603d91909155603e55801561106e576000805461ff00191690555b505050505050565b600054610100900460ff168061108f575061108f610eb0565b8061109d575060005460ff16155b1515611119576040805160e560020a62461bcd02815260206004820152602e60248201527f436f6e747261637420696e7374616e63652068617320616c726561647920626560448201527f656e20696e697469616c697a6564000000000000000000000000000000000000606482015290519081900360840190fd5b600054610100900460ff16158015611144576000805460ff1961ff0019909116610100171660011790555b6045805460ff191660ff87161762ffff00191661010061ffff878116919091029190911764ffff00000019166301000000918616919091021790556048805463ffffffff191663ffffffff841617905560408051602081019091526001908190526044805466ffffffffffffff1916909117905580156111ca576000805461ff00191690555b5050505050565b600160a060020a03166000908152604d6020526040902090565b600081815260496020526040812060018101548154600160a060020a03909116918391829182918291906109b09061151c565b600160a060020a0380821660009081526041602090815260408083208054600180830154600280850154600386015460048701546005880154600689015460078a0180548c51601f6000199b831615610100029b909b01909116979097049889018d90048d0287018d01909b528786529b9c8d9c8d9c8d9c8d9c8d9c8d9c8d9c8d9c60609c949b939a91999885169863ffffffff74010000000000000000000000000000000000000000870481169960c060020a909704169794969295909460ff9091169383918301828280156113365780601f1061130b57610100808354040283529160200191611336565b820191906000526020600020905b81548152906001019060200180831161131957829003601f168201915b505050505090509a509a509a509a509a509a509a509a509a509a50509193959799509193959799565b6000818152604e6020526040812080548290604990829084908290811061138257fe5b9060005260206000200154815260200190815260200160002090506000806113ad836000015461151c565b50600187015493955093506000926113dc925066ffffffffffffff861691508490600160a060020a0316612333565b604680546000908152604f60209081526040808320858452909152902066ffffffffffffff861690558890559050808060015b87548110156114d7576000604960008a8481548110151561142c57fe5b906000526020600020015481526020019081526020016000209050600080611457836000015461151c565b5060018701549395509350600092611486925066ffffffffffffff861691508490600160a060020a0316612333565b905086811115611498578096506114a4565b858110156114a4578095505b6046546000908152604f602090815260408083209383529290522066ffffffffffffff909216909155505060010161140f565b5060006114e4828461237c565b60478190556046546000908152604f6020908152604080832093835292815282822054825260499052209a9950505050505050505050565b7901000000000000000000000000000000000000000000000000008104916c01000000000000000000000000820491720100000000000000000000000000000000000081049160c060020a820490565b3390565b600080600160a060020a03861615156115f9576040805160e560020a62461bcd02815260206004820152603860248201527f476c757761536176696e674163636f756e743a20536176696e67206f776e657260448201527f2061646472657373206d75737420626520646566696e65640000000000000000606482015290519081900360840190fd5b600160a060020a038616600090815260416020526040902060030154156116b6576040805160e560020a62461bcd02815260206004820152604760248201527f476c757761536176696e674163636f756e743a2045616368206164647265737360448201527f2073686f756c642068617665206f6e6c79203120536176696e67206163636f7560648201527f6e74206f6e6c7900000000000000000000000000000000000000000000000000608482015290519081900360a40190fd5b6043836040518082805190602001908083835b602083106116e85780518252601f1990920191602091820191016116c9565b51815160209384036101000a600019018019909216911617905292019485525060405193849003019092205460ff161591506117969050576040805160e560020a62461bcd02815260206004820152603160248201527f476c757761536176696e674163636f756e743a204964656e746974792068617360448201527f6820697320616c72656164792075736564000000000000000000000000000000606482015290519081900360840190fd5b6040805481517f23b872dd000000000000000000000000000000000000000000000000000000008152600160a060020a03898116600483015230602483015260448201899052925192909116916323b872dd916064808201926020929091908290030181600087803b15801561180b57600080fd5b505af115801561181f573d6000803e3d6000fd5b505050506040513d602081101561183557600080fd5b505115156118d9576040805160e560020a62461bcd02815260206004820152604860248201527f476c757761536176696e674163636f756e743a20556e61626c6520746f20736560448201527f6e6420616d6f756e7420746f206465706f73697420746f206120536176696e6760648201527f204163636f756e74000000000000000000000000000000000000000000000000608482015290519081900360a40190fd5b604080517f84cefce000000000000000000000000000000000000000000000000000000000815260048101869052306024820152600160a060020a0388166044820152905160009173__$8ad4cadfbfab443c6ed09b45690dcdfb0d$__916384cefce091606480820192602092909190829003018186803b15801561195d57600080fd5b505af4158015611971573d6000803e3d6000fd5b505050506040513d602081101561198757600080fd5b5051603954604080517ffd96809e000000000000000000000000000000000000000000000000000000008152600481019290925260248201899052306044830152600160a060020a038a1660648301525191925060009173__$8ad4cadfbfab443c6ed09b45690dcdfb0d$__9163fd96809e916084808301926020929190829003018186803b158015611a1957600080fd5b505af4158015611a2d573d6000803e3d6000fd5b505050506040513d6020811015611a4357600080fd5b50516040805161014081018252603954815260208101859052600160a060020a038b169181019190915260335463ffffffff808216606084015264010000000090910416608082015260a0810188905260c08101899052600060e08201529091506101008101600181526020908101879052600160a060020a038a81166000908152604183526040908190208451815592840151600180850191909155908401516002840180546060870151608088015173ffffffffffffffffffffffffffffffffffffffff19909216939095169290921777ffffffff000000000000000000000000000000000000000019167401000000000000000000000000000000000000000063ffffffff95861602177fffffffff00000000ffffffffffffffffffffffffffffffffffffffffffffffff1660c060020a94909216939093021790915560a0830151600383015560c083015160048084019190915560e084015160058401556101008401516006840180549193909260ff19909216918490811115611bc757fe5b02179055506101208201518051611be89160078401916020909101906126b1565b50506040805160a081018252603d5481526039546020808301918252600160a060020a038d8116848601908152606085018d8152608086018f815260008a815260428652889020965187559451600180880191909155915160028701805473ffffffffffffffffffffffffffffffffffffffff191691909416179092559051600385015591516004909301929092559151885192935060439289928291908401908083835b60208310611cac5780518252601f199092019160209182019101611c8d565b51815160209384036101000a60001901801990921691161790529201948552506040519384900301909220805460ff19169315159390931790925550611cf5905060378361225a565b611d06603b8263ffffffff61225a16565b603f805488019055604051600160a060020a0389169083907fae420988b408fa1c16c342c73f56ece9307da09db1ac6b36fc8d9ff61acaa9a290600090a3604080518881529051600160a060020a038a169183917f2e2791fe9306933f4d6468aab16a0195b3ab2b342887b2e1be4aa35f568322979181900360200190a39097909650945050505050565b6000818152604a6020908152604080832054604b909252822054606092919003908111611e2e576040805160e560020a62461bcd02815260206004820152603f60248201527f476c7577615072697a65447261773a206e6f206d6f7265207469636b6574732060448201527f63616e206265206372656174656420666f722074686973206465706f73697400606482015290519081900360840190fd5b60485463ffffffff1680821015611e425750805b611e4a61272f565b611e53866123e4565b90506000600290506010826060015160ff161080611e8b5750816060015160ff166010148015611e8b5750603b826080015160ff1611155b15611e94575060015b6020808301518351604080517f8980747400000000000000000000000000000000000000000000000000000000815260ff909316600484015261ffff90911660248301525160009273__$05084330c9bf728fdd5577c5afe72a471f$__9263898074749260448083019392829003018186803b158015611f1357600080fd5b505af4158015611f27573d6000803e3d6000fd5b505050506040513d6020811015611f3d57600080fd5b5051604084015190915060ff808316918401161115611fa257826020015160ff16600c141515611f7a5760208301805160010160ff169052611f8d565b825161ffff600191820116845260208401525b604083018051830182900360ff169052611fb0565b604083018051830160ff1690525b60116060840181905260006080850181905260a08501819052845160208087015160408089015181517f0a37f14b00000000000000000000000000000000000000000000000000000000815261ffff909516600486015260ff9283166024860152909116604484015260648301949094526084820183905260a482018390529251919273__$05084330c9bf728fdd5577c5afe72a471f$__92630a37f14b9260c4808201939291829003018186803b15801561206b57600080fd5b505af415801561207f573d6000803e3d6000fd5b505050506040513d602081101561209557600080fd5b50516045546044549192506301000000900461ffff1643016c010000000000000000000000008b0217720100000000000000000000000000000000000083021760c060020a179066ffffffffffffff165b60445466ffffffffffffff90811663ffffffff891601811690821610156122265760c88166ffffffffffffff169060020a028217915060408051908101604052808381526020018d600160a060020a0316815250604960008366ffffffffffffff1681526020019081526020016000206000820151816000015560208201518160010160006101000a815481600160a060020a030219169083600160a060020a031602179055509050506121d08166ffffffffffffff16604d60008f600160a060020a0316600160a060020a0316815260200190815260200160002061251290919063ffffffff16565b6000838152604e602052604090206121f79066ffffffffffffff831663ffffffff61251216565b60008a8152604a6020526040902061221e9066ffffffffffffff831663ffffffff61251216565b6001016120e6565b506044805461224c919066ffffffffffffff1663ffffffff808a16919091019061252a16565b505050505050509392505050565b60028201805460009081526020849052604090209190915580546001908101909155600390910180549091019055565b60008181841161231b5760405160e560020a62461bcd0281526004018080602001828103825283818151815260200191508051906020019080838360005b838110156122e05781810151838201526020016122c8565b50505050905090810190601f16801561230d5780820380516001836020036101000a031916815260200191505b509250505060405180910390fd5b506000838581151561232957fe5b0495945050505050565b60006c01000000000000000000000000600160a060020a0383160261236167ffffffffffffffff8616612547565b6bffffffffffffffffffffffff851640181890509392505050565b60408051426020808301829052434083850152606083019190915244608083015260a0820184905260c08083018690528351808403909101815260e0909201909252805191012060009081908490600182860301908115156123da57fe5b0601949350505050565b6123ec61272f565b6123f58261254f565b61ffff16815260006124086107b26125d1565b82516124179061ffff166125d1565b0361ffff1690506000816301e2850002826107b285600001510361ffff16036301e13380020190506000806000600190505b600c60ff8216116124975761246681876000015161ffff166125ec565b91508160ff166201518002925086848401111561248b5760ff81166020870152612497565b92820192600101612449565b5060015b60ff808316908216116124d4578684620151800111156124c35760ff811660408701526124d4565b62015180939093019260010161249b565b6124dd8761265e565b60ff1660608701526124ee87612678565b60ff1660808701526124ff87612683565b60ff1660a0870152509395945050505050565b81546001810183556000928352602090922090910155565b815466ffffffffffffff191666ffffffffffffff91909116179055565b602052600090565b60006107b26301e1338083048101908290612569906125d1565b612572836125d1565b0361ffff1690506301e2850081026107b119828403016301e1338002015b848111156125c8576125a46001840361268d565b156125b5576301e284ff19016125bd565b6301e1337f19015b600183039250612590565b50909392505050565b60001901600060648204610190830460048404010392915050565b60008260ff1660021415612618576126038261268d565b156126105750601d6106aa565b50601c6106aa565b8260ff166004148061262d57508260ff166006145b8061263b57508260ff166009145b8061264957508260ff16600b145b156126565750601e6106aa565b50601f6106aa565b60006018610e10835b0481151561267157fe5b0692915050565b6000603c8083612667565b6000603c82612671565b6000610190820615806106aa5750600482061580156106aa57505060649006151590565b828054600181600116156101000203166002900490600052602060002090601f016020900481019282601f106126f257805160ff191683800117855561271f565b8280016001018555821561271f579182015b8281111561271f578251825591602001919060010190612704565b5061272b929150612764565b5090565b6040805160c081018252600080825260208201819052918101829052606081018290526080810182905260a081019190915290565b6108e791905b8082111561272b576000815560010161276a56fea165627a7a723058208316a43a7d7cd0de9eb06d10ae5818d13ea8aa653ed40e4f025f195d25cef8560029",
  "linkReferences": {
    "contracts/libs/DateTimeModel.sol": {
      "DateTimeModel": [
        {
          "length": 20,
          "start": 7921
        },
        {
          "length": 20,
          "start": 8264
        }
      ]
    },
    "contracts/libs/GluwaAccountModel.sol": {
      "GluwaAccountModel": [
        {
          "length": 20,
          "start": 3384
        },
        {
          "length": 20,
          "start": 6454
        },
        {
          "length": 20,
          "start": 6643
        }
      ]
    }
  },
  "deployedLinkReferences": {
    "contracts/libs/DateTimeModel.sol": {
      "DateTimeModel": [
        {
          "length": 20,
          "start": 7902
        },
        {
          "length": 20,
          "start": 8245
        }
      ]
    },
    "contracts/libs/GluwaAccountModel.sol": {
      "GluwaAccountModel": [
        {
          "length": 20,
          "start": 3365
        },
        {
          "length": 20,
          "start": 6435
        },
        {
          "length": 20,
          "start": 6624
        }
      ]
    }
  }
}