{
  "_format": "hh-sol-artifact-1",
  "contractName": "SandboxPrizeLinkedAccountVault",
  "sourceName": "contracts/mocks/SandboxPrizeLinkedAccountVault.sol",
  "abi": [
    {
      "constant": false,
      "inputs": [
        {
          "name": "owner",
          "type": "address"
        },
        {
          "name": "amount",
          "type": "uint256"
        }
      ],
      "name": "depositPrizedLinkAccount",
      "outputs": [
        {
          "name": "",
          "type": "bool"
        }
      ],
      "payable": false,
      "stateMutability": "nonpayable",
      "type": "function"
    },
    {
      "constant": false,
      "inputs": [
        {
          "name": "admin",
          "type": "address"
        },
        {
          "name": "tokenAddress",
          "type": "address"
        },
        {
          "name": "standardInterestRate",
          "type": "uint32"
        },
        {
          "name": "standardInterestRatePercentageBase",
          "type": "uint32"
        },
        {
          "name": "standardMaturityTerm",
          "type": "uint64"
        },
        {
          "name": "budget",
          "type": "uint256"
        },
        {
          "name": "tokenPerTicket",
          "type": "uint16"
        },
        {
          "name": "ticketValidityTargetBlock",
          "type": "uint16"
        },
        {
          "name": "totalTicketPerBatch",
          "type": "uint32"
        }
      ],
      "name": "initialize",
      "outputs": [],
      "payable": false,
      "stateMutability": "nonpayable",
      "type": "function"
    },
    {
      "constant": true,
      "inputs": [
        {
          "name": "owner",
          "type": "address"
        }
      ],
      "name": "getValidTicketIdFor",
      "outputs": [
        {
          "name": "",
          "type": "uint256[]"
        }
      ],
      "payable": false,
      "stateMutability": "view",
      "type": "function"
    },
    {
      "constant": true,
      "inputs": [
        {
          "name": "idx",
          "type": "uint256"
        }
      ],
      "name": "getTicketById",
      "outputs": [
        {
          "name": "",
          "type": "uint64"
        },
        {
          "name": "",
          "type": "address"
        },
        {
          "name": "",
          "type": "uint48"
        },
        {
          "name": "",
          "type": "uint48"
        },
        {
          "name": "",
          "type": "uint96"
        }
      ],
      "payable": false,
      "stateMutability": "view",
      "type": "function"
    },
    {
      "constant": true,
      "inputs": [],
      "name": "getCurrentWinner",
      "outputs": [
        {
          "name": "",
          "type": "uint256"
        }
      ],
      "payable": false,
      "stateMutability": "view",
      "type": "function"
    },
    {
      "constant": true,
      "inputs": [],
      "name": "getCurrentTotalDeposit",
      "outputs": [
        {
          "name": "",
          "type": "uint256"
        }
      ],
      "payable": false,
      "stateMutability": "view",
      "type": "function"
    },
    {
      "constant": true,
      "inputs": [],
      "name": "getSavingSettings",
      "outputs": [
        {
          "name": "",
          "type": "uint64"
        },
        {
          "name": "",
          "type": "uint32"
        },
        {
          "name": "",
          "type": "uint32"
        },
        {
          "name": "",
          "type": "uint256"
        },
        {
          "name": "",
          "type": "uint256"
        },
        {
          "name": "",
          "type": "address"
        }
      ],
      "payable": false,
      "stateMutability": "view",
      "type": "function"
    },
    {
      "constant": true,
      "inputs": [
        {
          "name": "depositHash",
          "type": "bytes32"
        }
      ],
      "name": "getDeposit",
      "outputs": [
        {
          "name": "",
          "type": "uint256"
        },
        {
          "name": "",
          "type": "uint256"
        },
        {
          "name": "",
          "type": "address"
        },
        {
          "name": "",
          "type": "uint256"
        },
        {
          "name": "",
          "type": "uint256"
        }
      ],
      "payable": false,
      "stateMutability": "view",
      "type": "function"
    },
    {
      "constant": true,
      "inputs": [
        {
          "name": "owner",
          "type": "address"
        }
      ],
      "name": "getSavingAcountFor",
      "outputs": [
        {
          "name": "",
          "type": "uint256"
        },
        {
          "name": "",
          "type": "bytes32"
        },
        {
          "name": "",
          "type": "address"
        },
        {
          "name": "",
          "type": "uint32"
        },
        {
          "name": "",
          "type": "uint32"
        },
        {
          "name": "",
          "type": "uint256"
        },
        {
          "name": "",
          "type": "uint256"
        },
        {
          "name": "",
          "type": "uint256"
        },
        {
          "name": "",
          "type": "uint8"
        },
        {
          "name": "",
          "type": "bytes"
        }
      ],
      "payable": false,
      "stateMutability": "view",
      "type": "function"
    },
    {
      "constant": false,
      "inputs": [
        {
          "name": "drawDateTime",
          "type": "uint256"
        }
      ],
      "name": "prizeDraw",
      "outputs": [
        {
          "name": "ticketId",
          "type": "uint64"
        },
        {
          "name": "owner",
          "type": "address"
        },
        {
          "name": "creationDate",
          "type": "uint48"
        },
        {
          "name": "drawnDate",
          "type": "uint48"
        },
        {
          "name": "targetBlockNumber",
          "type": "uint96"
        }
      ],
      "payable": false,
      "stateMutability": "nonpayable",
      "type": "function"
    },
    {
      "constant": true,
      "inputs": [],
      "name": "getSavingAcount",
      "outputs": [
        {
          "name": "",
          "type": "uint256"
        },
        {
          "name": "",
          "type": "bytes32"
        },
        {
          "name": "",
          "type": "address"
        },
        {
          "name": "",
          "type": "uint32"
        },
        {
          "name": "",
          "type": "uint32"
        },
        {
          "name": "",
          "type": "uint256"
        },
        {
          "name": "",
          "type": "uint256"
        },
        {
          "name": "",
          "type": "uint256"
        },
        {
          "name": "",
          "type": "uint8"
        },
        {
          "name": "",
          "type": "bytes"
        }
      ],
      "payable": false,
      "stateMutability": "view",
      "type": "function"
    },
    {
      "constant": false,
      "inputs": [
        {
          "name": "owner",
          "type": "address"
        },
        {
          "name": "amount",
          "type": "uint256"
        },
        {
          "name": "securityHash",
          "type": "bytes"
        }
      ],
      "name": "createPrizedLinkAccount",
      "outputs": [
        {
          "name": "",
          "type": "bool"
        }
      ],
      "payable": false,
      "stateMutability": "nonpayable",
      "type": "function"
    },
    {
      "constant": false,
      "inputs": [
        {
          "name": "referenceHash",
          "type": "bytes32"
        }
      ],
      "name": "createPrizedLinkTickets",
      "outputs": [
        {
          "name": "",
          "type": "bool"
        }
      ],
      "payable": false,
      "stateMutability": "nonpayable",
      "type": "function"
    },
    {
      "anonymous": false,
      "inputs": [
        {
          "indexed": false,
          "name": "winner",
          "type": "address"
        },
        {
          "indexed": false,
          "name": "ticket",
          "type": "uint256"
        },
        {
          "indexed": false,
          "name": "reward",
          "type": "uint256"
        }
      ],
      "name": "Winner",
      "type": "event"
    },
    {
      "anonymous": false,
      "inputs": [
        {
          "indexed": true,
          "name": "accountHash",
          "type": "bytes32"
        },
        {
          "indexed": true,
          "name": "owner",
          "type": "address"
        }
      ],
      "name": "CreateAccount",
      "type": "event"
    },
    {
      "anonymous": false,
      "inputs": [
        {
          "indexed": true,
          "name": "depositHash",
          "type": "bytes32"
        },
        {
          "indexed": true,
          "name": "owner",
          "type": "address"
        },
        {
          "indexed": false,
          "name": "deposit",
          "type": "uint256"
        }
      ],
      "name": "CreateDeposit",
      "type": "event"
    },
    {
      "anonymous": false,
      "inputs": [
        {
          "indexed": true,
          "name": "owner",
          "type": "address"
        },
        {
          "indexed": false,
          "name": "amount",
          "type": "uint256"
        }
      ],
      "name": "WithdrawSavingAccount",
      "type": "event"
    }
  ],
  "bytecode": "0x6080604052612720806100136000396000f3fe6080604052600436106100c45763ffffffff7c0100000000000000000000000000000000000000000000000000000000600035041663033d086d81146100c95780630af4ad1b146101165780631112f0f71461019f57806327b7aabc14610222578063329bfc33146102a15780633a990db0146102c8578063529298b8146102dd5780637a86983f1461034157806382133e381461039e57806383f9f4d2146104c05780639964476f146104ea578063cf123e30146104ff578063efb41d6b14610591575b600080fd5b3480156100d557600080fd5b50610102600480360360408110156100ec57600080fd5b50600160a060020a0381351690602001356105bb565b604080519115158252519081900360200190f35b34801561012257600080fd5b5061019d600480360361012081101561013a57600080fd5b50600160a060020a03813581169160208101359091169063ffffffff6040820135811691606081013582169167ffffffffffffffff6080830135169160a08101359161ffff60c083013581169260e0810135909116916101009091013516610619565b005b3480156101ab57600080fd5b506101d2600480360360208110156101c257600080fd5b5035600160a060020a03166107b3565b60408051602080825283518183015283519192839290830191858101910280838360005b8381101561020e5781810151838201526020016101f6565b505050509050019250505060405180910390f35b34801561022e57600080fd5b5061024c6004803603602081101561024557600080fd5b5035610814565b6040805167ffffffffffffffff9096168652600160a060020a03909416602086015265ffffffffffff92831685850152911660608401526bffffffffffffffffffffffff166080830152519081900360a00190f35b3480156102ad57600080fd5b506102b6610837565b60408051918252519081900360200190f35b3480156102d457600080fd5b506102b661083e565b3480156102e957600080fd5b506102f2610844565b6040805167ffffffffffffffff909716875263ffffffff9586166020880152939094168584015260608501919091526080840152600160a060020a0390911660a0830152519081900360c00190f35b34801561034d57600080fd5b5061036b6004803603602081101561036457600080fd5b5035610888565b604080519586526020860194909452600160a060020a039092168484015260608401526080830152519081900360a00190f35b3480156103aa57600080fd5b506103d1600480360360208110156103c157600080fd5b5035600160a060020a0316610896565b604051808b81526020018a815260200189600160a060020a0316600160a060020a031681526020018863ffffffff1663ffffffff1681526020018763ffffffff1663ffffffff16815260200186815260200185815260200184815260200183600481111561043b57fe5b60ff16815260200180602001828103825283818151815260200191508051906020019080838360005b8381101561047c578181015183820152602001610464565b50505050905090810190601f1680156104a95780820380516001836020036101000a031916815260200191505b509b50505050505050505050505060405180910390f35b3480156104cc57600080fd5b5061024c600480360360208110156104e357600080fd5b50356108d0565b3480156104f657600080fd5b506103d1610914565b34801561050b57600080fd5b506101026004803603606081101561052257600080fd5b600160a060020a038235169160208101359181019060608101604082013564010000000081111561055257600080fd5b82018360208201111561056457600080fd5b8035906020019184600183028401116401000000008311171561058657600080fd5b509092509050610954565b34801561059d57600080fd5b50610102600480360360208110156105b457600080fd5b50356109e0565b6000806105c88484610a16565b6045549091506105ff9061ffff610100820416906105f390869060ff16600a0a63ffffffff610d9916565b9063ffffffff610d9916565b6000918252604b6020526040909120555060015b92915050565b600054610100900460ff16806106325750610632610de2565b80610640575060005460ff16155b15156106bc576040805160e560020a62461bcd02815260206004820152602e60248201527f436f6e747261637420696e7374616e63652068617320616c726561647920626560448201527f656e20696e697469616c697a6564000000000000000000000000000000000000606482015290519081900360840190fd5b600054610100900460ff161580156106e7576000805460ff1961ff0019909116610100171660011790555b6106f48989898989610de8565b610795604060009054906101000a9004600160a060020a0316600160a060020a031663313ce5676040518163ffffffff167c010000000000000000000000000000000000000000000000000000000002815260040160206040518083038186803b15801561076157600080fd5b505afa158015610775573d6000803e3d6000fd5b505050506040513d602081101561078b57600080fd5b5051858585610fa8565b80156107a7576000805461ff00191690555b50505050505050505050565b60606107be82611104565b80548060200260200160405190810160405280929190818152602001828054801561080857602002820191906000526020600020905b8154815260200190600101908083116107f4575b50505050509050919050565b60008060008060006108258661111e565b939a9299509097509550909350915050565b6047545b90565b603f5490565b60335460345460355460405468010000000000000000840467ffffffffffffffff169463ffffffff80861695640100000000900416939291600160a060020a031690565b506000908190819081908190565b600080600080600080600080600060606108af8b61116f565b99509950995099509950995099509950995099509193959799509193959799565b6000806000806000806108e2876112c5565b60018101548154600160a060020a03909116965090915061090290611470565b929a9799509097509590945092505050565b6000806000806000806000806000606061093461092f6114bf565b61116f565b995099509950995099509950995099509950995090919293949596979899565b60008061099986864287878080601f0160208091040260200160405190810160405280939291908181526020018383808284376000920191909152506114c392505050565b6045549092506109c5915061ffff610100820416906105f390889060ff16600a0a63ffffffff610d9916565b6000918252604b602052604090912055506001949350505050565b600081815260426020526040812060028101546003820154610a0c91600160a060020a03169085611cf9565b5060019392505050565b600160a060020a038216600090815260416020526040812060038101548210610aaf576040805160e560020a62461bcd02815260206004820152602560248201527f476c757761536176696e674163636f756e743a204163636f756e74206e6f742060448201527f666f756e64000000000000000000000000000000000000000000000000000000606482015290519081900360840190fd5b6040805481517f23b872dd000000000000000000000000000000000000000000000000000000008152600160a060020a03878116600483015230602483015260448201879052925192909116916323b872dd916064808201926020929091908290030181600087803b158015610b2457600080fd5b505af1158015610b38573d6000803e3d6000fd5b505050506040513d6020811015610b4e57600080fd5b50511515610bf2576040805160e560020a62461bcd02815260206004820152604860248201527f476c757761536176696e674163636f756e743a20556e61626c6520746f20736560448201527f6e6420616d6f756e7420746f206465706f73697420746f206120536176696e6760648201527f204163636f756e74000000000000000000000000000000000000000000000000608482015290519081900360a40190fd5b6004808201805485019055603f8054850190558154604080517ffd96809e0000000000000000000000000000000000000000000000000000000081529283019190915260248201859052306044830152600160a060020a03861660648301525160009173__$8ad4cadfbfab443c6ed09b45690dcdfb0d$__9163fd96809e91608480820192602092909190829003018186803b158015610c9157600080fd5b505af4158015610ca5573d6000803e3d6000fd5b505050506040513d6020811015610cbb57600080fd5b50516040805160a081018252603d54815284546020808301918252600160a060020a038a81168486019081524260608601908152608086018c815260008981526042909552969093209451855592516001850155915160028401805473ffffffffffffffffffffffffffffffffffffffff1916919093161790915551600382015590516004909101559050610d51603b826121ce565b604080518581529051600160a060020a0387169183917f2e2791fe9306933f4d6468aab16a0195b3ab2b342887b2e1be4aa35f568322979181900360200190a3949350505050565b6000610ddb83836040805190810160405280601a81526020017f536166654d6174683a206469766973696f6e206279207a65726f0000000000008152506121fe565b9392505050565b303b1590565b600054610100900460ff1680610e015750610e01610de2565b80610e0f575060005460ff16155b1515610e8b576040805160e560020a62461bcd02815260206004820152602e60248201527f436f6e747261637420696e7374616e63652068617320616c726561647920626560448201527f656e20696e697469616c697a6564000000000000000000000000000000000000606482015290519081900360840190fd5b600054610100900460ff16158015610eb6576000805460ff1961ff0019909116610100171660011790555b6040805473ffffffffffffffffffffffffffffffffffffffff1916600160a060020a0388161781556033805463ffffffff191663ffffffff8881169190911767ffffffff00000000191664010000000091881691909102176fffffffffffffffff000000000000000019166801000000000000000067ffffffffffffffff871602179055603483905580516060808201835260018083526020808401829052600093850184905260388290556039829055603a8490558451928301855281835282018190529201819052603c829055603d91909155603e558015610fa0576000805461ff00191690555b505050505050565b600054610100900460ff1680610fc15750610fc1610de2565b80610fcf575060005460ff16155b151561104b576040805160e560020a62461bcd02815260206004820152602e60248201527f436f6e747261637420696e7374616e63652068617320616c726561647920626560448201527f656e20696e697469616c697a6564000000000000000000000000000000000000606482015290519081900360840190fd5b600054610100900460ff16158015611076576000805460ff1961ff0019909116610100171660011790555b6045805460ff191660ff87161762ffff00191661010061ffff878116919091029190911764ffff00000019166301000000918616919091021790556048805463ffffffff191663ffffffff841617905560408051602081019091526001908190526044805467ffffffffffffffff1916909117905580156110fd576000805461ff00191690555b5050505050565b600160a060020a03166000908152604d6020526040902090565b600081815260496020526040812080548291829182918291829081908190819061114790611470565b60019890980154929e600160a060020a039093169d50909b5099509497509395505050505050565b600160a060020a0380821660009081526041602090815260408083208054600180830154600280850154600386015460048701546005880154600689015460078a0180548c51601f6000199b831615610100029b909b01909116979097049889018d90048d0287018d01909b528786529b9c8d9c8d9c8d9c8d9c8d9c8d9c8d9c8d9c60609c949b939a91999885169863ffffffff7401000000000000000000000000000000000000000087048116997801000000000000000000000000000000000000000000000000909704169794969295909460ff90911693839183018282801561129c5780601f106112715761010080835404028352916020019161129c565b820191906000526020600020905b81548152906001019060200180831161127f57829003601f168201915b505050505090509a509a509a509a509a509a509a509a509a509a50509193959799509193959799565b6000818152604e602052604081208054829060499082908490829081106112e857fe5b9060005260206000200154815260200190815260200160002090506000806113138360000154611470565b6001870154939550935060009261133892508591508490600160a060020a03166122a7565b604680546000908152604f60209081526040808320858452909152902067ffffffffffffffff861690558890559050808060015b875481101561142b576000604960008a8481548110151561138957fe5b9060005260206000200154815260200190815260200160002090506000806113b48360000154611470565b600187015493955093506000926113d992508591508490600160a060020a03166122a7565b9050868111156113eb578096506113f7565b858110156113f7578095505b6046546000908152604f602090815260408083209383529290522067ffffffffffffffff909216909155505060010161136c565b50600061143882846122f0565b60478190556046546000908152604f6020908152604080832093835292815282822054825260499052209a9950505050505050505050565b65ffffffffffff7801000000000000000000000000000000000000000000000000820416916c010000000000000000000000008204917201000000000000000000000000000000000000810491565b3390565b600080600160a060020a038616151561154c576040805160e560020a62461bcd02815260206004820152603860248201527f476c757761536176696e674163636f756e743a20536176696e67206f776e657260448201527f2061646472657373206d75737420626520646566696e65640000000000000000606482015290519081900360840190fd5b600160a060020a03861660009081526041602052604090206003015415611609576040805160e560020a62461bcd02815260206004820152604760248201527f476c757761536176696e674163636f756e743a2045616368206164647265737360448201527f2073686f756c642068617665206f6e6c79203120536176696e67206163636f7560648201527f6e74206f6e6c7900000000000000000000000000000000000000000000000000608482015290519081900360a40190fd5b6043836040518082805190602001908083835b6020831061163b5780518252601f19909201916020918201910161161c565b51815160209384036101000a600019018019909216911617905292019485525060405193849003019092205460ff161591506116e99050576040805160e560020a62461bcd02815260206004820152603160248201527f476c757761536176696e674163636f756e743a204964656e746974792068617360448201527f6820697320616c72656164792075736564000000000000000000000000000000606482015290519081900360840190fd5b6040805481517f23b872dd000000000000000000000000000000000000000000000000000000008152600160a060020a03898116600483015230602483015260448201899052925192909116916323b872dd916064808201926020929091908290030181600087803b15801561175e57600080fd5b505af1158015611772573d6000803e3d6000fd5b505050506040513d602081101561178857600080fd5b5051151561182c576040805160e560020a62461bcd02815260206004820152604860248201527f476c757761536176696e674163636f756e743a20556e61626c6520746f20736560448201527f6e6420616d6f756e7420746f206465706f73697420746f206120536176696e6760648201527f204163636f756e74000000000000000000000000000000000000000000000000608482015290519081900360a40190fd5b604080517f84cefce000000000000000000000000000000000000000000000000000000000815260048101869052306024820152600160a060020a0388166044820152905160009173__$8ad4cadfbfab443c6ed09b45690dcdfb0d$__916384cefce091606480820192602092909190829003018186803b1580156118b057600080fd5b505af41580156118c4573d6000803e3d6000fd5b505050506040513d60208110156118da57600080fd5b5051603954604080517ffd96809e000000000000000000000000000000000000000000000000000000008152600481019290925260248201899052306044830152600160a060020a038a1660648301525191925060009173__$8ad4cadfbfab443c6ed09b45690dcdfb0d$__9163fd96809e916084808301926020929190829003018186803b15801561196c57600080fd5b505af4158015611980573d6000803e3d6000fd5b505050506040513d602081101561199657600080fd5b50516040805161014081018252603954815260208101859052600160a060020a038b169181019190915260335463ffffffff808216606084015264010000000090910416608082015260a0810188905260c08101899052600060e08201529091506101008101600181526020908101879052600160a060020a038a81166000908152604183526040908190208451815592840151600180850191909155908401516002840180546060870151608088015173ffffffffffffffffffffffffffffffffffffffff19909216939095169290921777ffffffff000000000000000000000000000000000000000019167401000000000000000000000000000000000000000063ffffffff95861602177fffffffff00000000ffffffffffffffffffffffffffffffffffffffffffffffff16780100000000000000000000000000000000000000000000000094909216939093021790915560a0830151600383015560c083015160048084019190915560e084015160058401556101008401516006840180549193909260ff19909216918490811115611b2f57fe5b02179055506101208201518051611b50916007840191602090910190612627565b50506040805160a081018252603d5481526039546020808301918252600160a060020a038d8116848601908152606085018d8152608086018f815260008a815260428652889020965187559451600180880191909155915160028701805473ffffffffffffffffffffffffffffffffffffffff191691909416179092559051600385015591516004909301929092559151885192935060439289928291908401908083835b60208310611c145780518252601f199092019160209182019101611bf5565b51815160209384036101000a60001901801990921691161790529201948552506040519384900301909220805460ff19169315159390931790925550611c5d90506037836121ce565b611c6e603b8263ffffffff6121ce16565b603f805488019055604051600160a060020a0389169083907fae420988b408fa1c16c342c73f56ece9307da09db1ac6b36fc8d9ff61acaa9a290600090a3604080518881529051600160a060020a038a169183917f2e2791fe9306933f4d6468aab16a0195b3ab2b342887b2e1be4aa35f568322979181900360200190a39097909650945050505050565b6000818152604a6020908152604080832054604b909252822054606092919003908111611d96576040805160e560020a62461bcd02815260206004820152603f60248201527f476c7577615072697a65447261773a206e6f206d6f7265207469636b6574732060448201527f63616e206265206372656174656420666f722074686973206465706f73697400606482015290519081900360840190fd5b60485463ffffffff1680821015611daa5750805b611db26126a5565b611dbb86612358565b90506000600290506010826060015160ff161080611df35750816060015160ff166010148015611df35750603b826080015160ff1611155b15611dfc575060015b6020808301518351604080517f8980747400000000000000000000000000000000000000000000000000000000815260ff909316600484015261ffff90911660248301525160009273__$05084330c9bf728fdd5577c5afe72a471f$__9263898074749260448083019392829003018186803b158015611e7b57600080fd5b505af4158015611e8f573d6000803e3d6000fd5b505050506040513d6020811015611ea557600080fd5b5051604084015190915060ff808316918401161115611f0a57826020015160ff16600c141515611ee25760208301805160010160ff169052611ef5565b825161ffff600191820116845260208401525b604083018051830182900360ff169052611f18565b604083018051830160ff1690525b60116060840181905260006080850181905260a08501819052845160208087015160408089015181517f0a37f14b00000000000000000000000000000000000000000000000000000000815261ffff909516600486015260ff9283166024860152909116604484015260648301949094526084820183905260a482018390529251919273__$05084330c9bf728fdd5577c5afe72a471f$__92630a37f14b9260c4808201939291829003018186803b158015611fd357600080fd5b505af4158015611fe7573d6000803e3d6000fd5b505050506040513d6020811015611ffd57600080fd5b50516045546044549192506301000000900461ffff1643016c010000000000000000000000008b021772010000000000000000000000000000000000008302179067ffffffffffffffff165b60445467ffffffffffffffff90811663ffffffff891601811690821610156121995760c08167ffffffffffffffff169060020a0267ffffffffffffffff168217915060408051908101604052808381526020018d600160a060020a0316815250604960008367ffffffffffffffff1681526020019081526020016000206000820151816000015560208201518160010160006101000a815481600160a060020a030219169083600160a060020a031602179055509050506121418167ffffffffffffffff16604d60008f600160a060020a0316600160a060020a0316815260200190815260200160002061248690919063ffffffff16565b6000838152604e602052604090206121699067ffffffffffffffff831663ffffffff61248616565b60008a8152604a602052604090206121919067ffffffffffffffff831663ffffffff61248616565b600101612049565b50604480546121c0919067ffffffffffffffff1663ffffffff808a16919091019061249e16565b505050505050509392505050565b60028201805460009081526020849052604090209190915580546001908101909155600390910180549091019055565b60008181841161228f5760405160e560020a62461bcd0281526004018080602001828103825283818151815260200191508051906020019080838360005b8381101561225457818101518382015260200161223c565b50505050905090810190601f1680156122815780820380516001836020036101000a031916815260200191505b509250505060405180910390fd5b506000838581151561229d57fe5b0495945050505050565b60006c01000000000000000000000000600160a060020a038316026122d567ffffffffffffffff86166124bd565b6bffffffffffffffffffffffff851640181890509392505050565b60408051426020808301829052434083850152606083019190915244608083015260a0820184905260c08083018690528351808403909101815260e09092019092528051910120600090819084906001828603019081151561234e57fe5b0601949350505050565b6123606126a5565b612369826124c5565b61ffff168152600061237c6107b2612547565b825161238b9061ffff16612547565b0361ffff1690506000816301e2850002826107b285600001510361ffff16036301e13380020190506000806000600190505b600c60ff82161161240b576123da81876000015161ffff16612562565b91508160ff16620151800292508684840111156123ff5760ff8116602087015261240b565b928201926001016123bd565b5060015b60ff80831690821611612448578684620151800111156124375760ff81166040870152612448565b62015180939093019260010161240f565b612451876125d4565b60ff166060870152612462876125ee565b60ff166080870152612473876125f9565b60ff1660a0870152509395945050505050565b81546001810183556000928352602090922090910155565b815467ffffffffffffffff191667ffffffffffffffff91909116179055565b602052600090565b60006107b26301e13380830481019082906124df90612547565b6124e883612547565b0361ffff1690506301e2850081026107b119828403016301e1338002015b8481111561253e5761251a60018403612603565b1561252b576301e284ff1901612533565b6301e1337f19015b600183039250612506565b50909392505050565b60001901600060648204610190830460048404010392915050565b60008260ff166002141561258e5761257982612603565b156125865750601d610613565b50601c610613565b8260ff16600414806125a357508260ff166006145b806125b157508260ff166009145b806125bf57508260ff16600b145b156125cc5750601e610613565b50601f610613565b60006018610e10835b048115156125e757fe5b0692915050565b6000603c80836125dd565b6000603c826125e7565b60006101908206158061061357506004820615801561061357505060649006151590565b828054600181600116156101000203166002900490600052602060002090601f016020900481019282601f1061266857805160ff1916838001178555612695565b82800160010185558215612695579182015b8281111561269557825182559160200191906001019061267a565b506126a19291506126da565b5090565b6040805160c081018252600080825260208201819052918101829052606081018290526080810182905260a081019190915290565b61083b91905b808211156126a157600081556001016126e056fea165627a7a72305820a22964119dd089f23a654892ecf336a1a6f12c1f63bc2882babee0acf6feffc00029",
  "linkReferences": {
    "contracts/libs/DateTimeModel.sol": {
      "DateTimeModel": [
        {
          "length": 20,
          "start": 7769
        },
        {
          "length": 20,
          "start": 8112
        }
      ]
    },
    "contracts/libs/GluwaAccountModel.sol": {
      "GluwaAccountModel": [
        {
          "length": 20,
          "start": 3178
        },
        {
          "length": 20,
          "start": 6281
        },
        {
          "length": 20,
          "start": 6470
        }
      ]
    }
  },
  "deployedLinkReferences": {
    "contracts/libs/DateTimeModel.sol": {
      "DateTimeModel": [
        {
          "length": 20,
          "start": 7750
        },
        {
          "length": 20,
          "start": 8093
        }
      ]
    },
    "contracts/libs/GluwaAccountModel.sol": {
      "GluwaAccountModel": [
        {
          "length": 20,
          "start": 3159
        },
        {
          "length": 20,
          "start": 6262
        },
        {
          "length": 20,
          "start": 6451
        }
      ]
    }
  }
}