{
  "_format": "hh-sol-artifact-1",
  "contractName": "SandboxPrizeLinkedAccountVault",
  "sourceName": "contracts/mocks/SandboxPrizeLinkedAccountVault.sol",
  "abi": [
    {
      "constant": false,
      "inputs": [
        {
          "name": "admin",
          "type": "address"
        },
        {
          "name": "tokenAddress",
          "type": "address"
        },
        {
          "name": "standardInterestRate",
          "type": "uint32"
        },
        {
          "name": "standardInterestRatePercentageBase",
          "type": "uint32"
        },
        {
          "name": "standardMaturityTerm",
          "type": "uint64"
        },
        {
          "name": "budget",
          "type": "uint256"
        },
        {
          "name": "tokenPerTicket",
          "type": "uint16"
        },
        {
          "name": "ticketValidityTargetBlock",
          "type": "uint16"
        },
        {
          "name": "totalTicketPerBatch",
          "type": "uint32"
        }
      ],
      "name": "initialize",
      "outputs": [],
      "payable": false,
      "stateMutability": "nonpayable",
      "type": "function"
    },
    {
      "constant": true,
      "inputs": [
        {
          "name": "owner",
          "type": "address"
        }
      ],
      "name": "getValidTicketIdFor",
      "outputs": [
        {
          "name": "",
          "type": "uint256[]"
        }
      ],
      "payable": false,
      "stateMutability": "view",
      "type": "function"
    },
    {
      "constant": true,
      "inputs": [
        {
          "name": "idx",
          "type": "uint256"
        }
      ],
      "name": "getTicketById",
      "outputs": [
        {
          "name": "",
          "type": "uint256"
        },
        {
          "name": "",
          "type": "address"
        },
        {
          "name": "",
          "type": "uint256"
        },
        {
          "name": "",
          "type": "uint256"
        },
        {
          "name": "",
          "type": "uint256"
        },
        {
          "name": "",
          "type": "uint8"
        }
      ],
      "payable": false,
      "stateMutability": "view",
      "type": "function"
    },
    {
      "constant": false,
      "inputs": [],
      "name": "getCurrentWinner",
      "outputs": [
        {
          "name": "",
          "type": "uint256"
        }
      ],
      "payable": false,
      "stateMutability": "nonpayable",
      "type": "function"
    },
    {
      "constant": true,
      "inputs": [],
      "name": "getCurrentTotalDeposit",
      "outputs": [
        {
          "name": "",
          "type": "uint256"
        }
      ],
      "payable": false,
      "stateMutability": "view",
      "type": "function"
    },
    {
      "constant": false,
      "inputs": [
        {
          "name": "owner",
          "type": "address"
        },
        {
          "name": "amount",
          "type": "uint256"
        },
        {
          "name": "securityHash",
          "type": "bytes"
        }
      ],
      "name": "deposit",
      "outputs": [
        {
          "name": "",
          "type": "bool"
        }
      ],
      "payable": false,
      "stateMutability": "nonpayable",
      "type": "function"
    },
    {
      "constant": true,
      "inputs": [],
      "name": "getSavingSettings",
      "outputs": [
        {
          "name": "",
          "type": "uint64"
        },
        {
          "name": "",
          "type": "uint32"
        },
        {
          "name": "",
          "type": "uint32"
        },
        {
          "name": "",
          "type": "uint256"
        },
        {
          "name": "",
          "type": "uint256"
        },
        {
          "name": "",
          "type": "address"
        }
      ],
      "payable": false,
      "stateMutability": "view",
      "type": "function"
    },
    {
      "constant": true,
      "inputs": [
        {
          "name": "owner",
          "type": "address"
        }
      ],
      "name": "getSavingAcountFor",
      "outputs": [
        {
          "name": "",
          "type": "uint256"
        },
        {
          "name": "",
          "type": "bytes32"
        },
        {
          "name": "",
          "type": "address"
        },
        {
          "name": "",
          "type": "uint32"
        },
        {
          "name": "",
          "type": "uint32"
        },
        {
          "name": "",
          "type": "uint256"
        },
        {
          "name": "",
          "type": "uint256"
        },
        {
          "name": "",
          "type": "uint256"
        },
        {
          "name": "",
          "type": "uint8"
        },
        {
          "name": "",
          "type": "bytes"
        }
      ],
      "payable": false,
      "stateMutability": "view",
      "type": "function"
    },
    {
      "constant": false,
      "inputs": [
        {
          "name": "drawDateTime",
          "type": "uint256"
        }
      ],
      "name": "prizeDraw",
      "outputs": [
        {
          "name": "",
          "type": "uint256"
        },
        {
          "name": "",
          "type": "address"
        },
        {
          "name": "",
          "type": "uint256"
        },
        {
          "name": "",
          "type": "uint256"
        },
        {
          "name": "",
          "type": "uint256"
        },
        {
          "name": "state",
          "type": "uint8"
        }
      ],
      "payable": false,
      "stateMutability": "nonpayable",
      "type": "function"
    },
    {
      "constant": true,
      "inputs": [],
      "name": "getSavingAcount",
      "outputs": [
        {
          "name": "",
          "type": "uint256"
        },
        {
          "name": "",
          "type": "bytes32"
        },
        {
          "name": "",
          "type": "address"
        },
        {
          "name": "",
          "type": "uint32"
        },
        {
          "name": "",
          "type": "uint32"
        },
        {
          "name": "",
          "type": "uint256"
        },
        {
          "name": "",
          "type": "uint256"
        },
        {
          "name": "",
          "type": "uint256"
        },
        {
          "name": "",
          "type": "uint8"
        },
        {
          "name": "",
          "type": "bytes"
        }
      ],
      "payable": false,
      "stateMutability": "view",
      "type": "function"
    },
    {
      "constant": false,
      "inputs": [
        {
          "name": "owner",
          "type": "address"
        },
        {
          "name": "amount",
          "type": "uint256"
        },
        {
          "name": "securityHash",
          "type": "bytes"
        }
      ],
      "name": "createPrizedLinkAccount",
      "outputs": [
        {
          "name": "",
          "type": "bool"
        }
      ],
      "payable": false,
      "stateMutability": "nonpayable",
      "type": "function"
    },
    {
      "constant": false,
      "inputs": [
        {
          "name": "referenceHash",
          "type": "bytes32"
        }
      ],
      "name": "createPrizedLinkTickets",
      "outputs": [
        {
          "name": "",
          "type": "bool"
        }
      ],
      "payable": false,
      "stateMutability": "nonpayable",
      "type": "function"
    },
    {
      "anonymous": false,
      "inputs": [
        {
          "indexed": false,
          "name": "winner",
          "type": "address"
        },
        {
          "indexed": false,
          "name": "ticket",
          "type": "uint256"
        },
        {
          "indexed": false,
          "name": "reward",
          "type": "uint256"
        }
      ],
      "name": "Winner",
      "type": "event"
    },
    {
      "anonymous": false,
      "inputs": [
        {
          "indexed": true,
          "name": "accountHash",
          "type": "bytes32"
        },
        {
          "indexed": true,
          "name": "owner",
          "type": "address"
        }
      ],
      "name": "CreateAccount",
      "type": "event"
    },
    {
      "anonymous": false,
      "inputs": [
        {
          "indexed": true,
          "name": "depositHash",
          "type": "bytes32"
        },
        {
          "indexed": true,
          "name": "owner",
          "type": "address"
        },
        {
          "indexed": false,
          "name": "deposit",
          "type": "uint256"
        }
      ],
      "name": "CreateDeposit",
      "type": "event"
    },
    {
      "anonymous": false,
      "inputs": [
        {
          "indexed": true,
          "name": "owner",
          "type": "address"
        },
        {
          "indexed": false,
          "name": "amount",
          "type": "uint256"
        }
      ],
      "name": "WithdrawSavingAccount",
      "type": "event"
    }
  ],
  "bytecode": "0x60806040526122cc806100136000396000f3fe6080604052600436106100b95763ffffffff7c01000000000000000000000000000000000000000000000000000000006000350416630af4ad1b81146100be5780631112f0f71461014757806327b7aabc146101ca578063329bfc331461024d5780633a990db01461027457806349bdc2b814610289578063529298b81461032f57806382133e381461039357806383f9f4d2146104b55780639964476f146104df578063cf123e30146104f4578063efb41d6b14610586575b600080fd5b3480156100ca57600080fd5b5061014560048036036101208110156100e257600080fd5b50600160a060020a03813581169160208101359091169063ffffffff6040820135811691606081013582169167ffffffffffffffff6080830135169160a08101359161ffff60c083013581169260e08101359091169161010090910135166105b0565b005b34801561015357600080fd5b5061017a6004803603602081101561016a57600080fd5b5035600160a060020a031661074a565b60408051602080825283518183015283519192839290830191858101910280838360005b838110156101b657818101518382015260200161019e565b505050509050019250505060405180910390f35b3480156101d657600080fd5b506101f4600480360360208110156101ed57600080fd5b50356107ab565b6040518087815260200186600160a060020a0316600160a060020a0316815260200185815260200184815260200183815260200182600481111561023457fe5b60ff168152602001965050505050505060405180910390f35b34801561025957600080fd5b506102626107d1565b60408051918252519081900360200190f35b34801561028057600080fd5b506102626107d8565b34801561029557600080fd5b5061031b600480360360608110156102ac57600080fd5b600160a060020a03823516916020810135918101906060810160408201356401000000008111156102dc57600080fd5b8201836020820111156102ee57600080fd5b8035906020019184600183028401116401000000008311171561031057600080fd5b5090925090506107de565b604080519115158252519081900360200190f35b34801561033b57600080fd5b506103446107e8565b6040805167ffffffffffffffff909716875263ffffffff9586166020880152939094168584015260608501919091526080840152600160a060020a0390911660a0830152519081900360c00190f35b34801561039f57600080fd5b506103c6600480360360208110156103b657600080fd5b5035600160a060020a031661082c565b604051808b81526020018a815260200189600160a060020a0316600160a060020a031681526020018863ffffffff1663ffffffff1681526020018763ffffffff1663ffffffff16815260200186815260200185815260200184815260200183600481111561043057fe5b60ff16815260200180602001828103825283818151815260200191508051906020019080838360005b83811015610471578181015183820152602001610459565b50505050905090810190601f16801561049e5780820380516001836020036101000a031916815260200191505b509b50505050505050505050505060405180910390f35b3480156104c157600080fd5b506101f4600480360360208110156104d857600080fd5b5035610866565b3480156104eb57600080fd5b506103c66108b8565b34801561050057600080fd5b5061031b6004803603606081101561051757600080fd5b600160a060020a038235169160208101359181019060608101604082013564010000000081111561054757600080fd5b82018360208201111561055957600080fd5b8035906020019184600183028401116401000000008311171561057b57600080fd5b5090925090506108f8565b34801561059257600080fd5b5061031b600480360360208110156105a957600080fd5b5035610990565b600054610100900460ff16806105c957506105c96109c6565b806105d7575060005460ff16155b1515610653576040805160e560020a62461bcd02815260206004820152602e60248201527f436f6e747261637420696e7374616e63652068617320616c726561647920626560448201527f656e20696e697469616c697a6564000000000000000000000000000000000000606482015290519081900360840190fd5b600054610100900460ff1615801561067e576000805460ff1961ff0019909116610100171660011790555b61068b89898989896109cc565b61072c604060009054906101000a9004600160a060020a0316600160a060020a031663313ce5676040518163ffffffff167c010000000000000000000000000000000000000000000000000000000002815260040160206040518083038186803b1580156106f857600080fd5b505afa15801561070c573d6000803e3d6000fd5b505050506040513d602081101561072257600080fd5b5051858585610b8c565b801561073e576000805461ff00191690555b50505050505050505050565b606061075582610cf0565b80548060200260200160405190810160405280929190818152602001828054801561079f57602002820191906000526020600020905b81548152602001906001019080831161078b575b50505050509050919050565b6000806000806000806107bd87610d0a565b949c939b5091995097509550909350915050565b604a545b90565b603f5490565b6001949350505050565b60335460345460355460405468010000000000000000840467ffffffffffffffff169463ffffffff80861695640100000000900416939291600160a060020a031690565b600080600080600080600080600060606108458b610d4e565b99509950995099509950995099509950995099509193959799509193959799565b600080600080600080600061087a88610ea4565b80546001820154600283015460038401546004850154600590950154939d600160a060020a039093169c50909a50985091965060ff16945092505050565b600080600080600080600080600060606108d86108d361104a565b610d4e565b995099509950995099509950995099509950995090919293949596979899565b60008061093d86864287878080601f01602080910402602001604051908101604052809392919081815260200183838082843760009201919091525061104e92505050565b604854909250610975915061ffff6101008204169061096990889060ff16600a0a63ffffffff61186f16565b9063ffffffff61186f16565b6000918252604e602052604090912055506001949350505050565b6000818152604260205260408120600181015460028201546109bc91600160a060020a031690856118ba565b5060019392505050565b303b1590565b600054610100900460ff16806109e557506109e56109c6565b806109f3575060005460ff16155b1515610a6f576040805160e560020a62461bcd02815260206004820152602e60248201527f436f6e747261637420696e7374616e63652068617320616c726561647920626560448201527f656e20696e697469616c697a6564000000000000000000000000000000000000606482015290519081900360840190fd5b600054610100900460ff16158015610a9a576000805460ff1961ff0019909116610100171660011790555b6040805473ffffffffffffffffffffffffffffffffffffffff1916600160a060020a0388161781556033805463ffffffff191663ffffffff8881169190911767ffffffff00000000191664010000000091881691909102176fffffffffffffffff000000000000000019166801000000000000000067ffffffffffffffff871602179055603483905580516060808201835260018083526020808401829052600093850184905260388290556039829055603a8490558451928301855281835282018190529201819052603c829055603d91909155603e558015610b84576000805461ff00191690555b505050505050565b600054610100900460ff1680610ba55750610ba56109c6565b80610bb3575060005460ff16155b1515610c2f576040805160e560020a62461bcd02815260206004820152602e60248201527f436f6e747261637420696e7374616e63652068617320616c726561647920626560448201527f656e20696e697469616c697a6564000000000000000000000000000000000000606482015290519081900360840190fd5b600054610100900460ff16158015610c5a576000805460ff1961ff0019909116610100171660011790555b6048805460ff191660ff87161762ffff00191661010061ffff878116919091029190911764ffff0000001916630100000091861691909102179055604b805463ffffffff191663ffffffff84161790556040805160608101825260018082526020820181905260009190920181905260458290556046919091556047558015610ce9576000805461ff00191690555b5050505050565b600160a060020a0316600090815260506020526040902090565b6000908152604c60205260409020805460018201546002830154600384015460048501546005909501549395600160a060020a03909316949193909260ff90911690565b600160a060020a0380821660009081526041602090815260408083208054600180830154600280850154600386015460048701546005880154600689015460078a0180548c51601f6000199b831615610100029b909b01909116979097049889018d90048d0287018d01909b528786529b9c8d9c8d9c8d9c8d9c8d9c8d9c8d9c8d9c60609c949b939a91999885169863ffffffff7401000000000000000000000000000000000000000087048116997801000000000000000000000000000000000000000000000000909704169794969295909460ff909116938391830182828015610e7b5780601f10610e5057610100808354040283529160200191610e7b565b820191906000526020600020905b815481529060010190602001808311610e5e57829003601f168201915b505050505090509a509a509a509a509a509a509a509a509a509a50509193959799509193959799565b60008181526051602090815260408220828052604c9091527f551595b9d59b165bf9ad72f0480c55576c5dae704d350b901d5e76a5a3a448d3547f551595b9d59b165bf9ad72f0480c55576c5dae704d350b901d5e76a5a3a448cf80547f551595b9d59b165bf9ad72f0480c55576c5dae704d350b901d5e76a5a3a448d05491928592610f3a9290600160a060020a0316611db1565b82546049805460009081526052602090815260408083208684529091529020919091558690559050808060015b8554811015611007576000604c60008884815481101515610f8457fe5b600091825260208083209091015483528201929092526040018120600481015481546001830154929450610fc092600160a060020a0316611db1565b905084811115610fd257809450610fde565b83811015610fde578093505b905460495460009081526052602090815260408083209483529390529190912055600101610f67565b5060006110148284611de2565b604a8190556049546000908152605260209081526040808320938352928152828220548252604c90522098975050505050505050565b3390565b600080600160a060020a03861615156110d7576040805160e560020a62461bcd02815260206004820152603860248201527f476c757761536176696e674163636f756e743a20536176696e67206f776e657260448201527f2061646472657373206d75737420626520646566696e65640000000000000000606482015290519081900360840190fd5b600160a060020a03861660009081526041602052604090206003015415611194576040805160e560020a62461bcd02815260206004820152604760248201527f476c757761536176696e674163636f756e743a2045616368206164647265737360448201527f2073686f756c642068617665206f6e6c79203120536176696e67206163636f7560648201527f6e74206f6e6c7900000000000000000000000000000000000000000000000000608482015290519081900360a40190fd5b6043836040518082805190602001908083835b602083106111c65780518252601f1990920191602091820191016111a7565b51815160209384036101000a600019018019909216911617905292019485525060405193849003019092205460ff161591506112749050576040805160e560020a62461bcd02815260206004820152603160248201527f476c757761536176696e674163636f756e743a204964656e746974792068617360448201527f6820697320616c72656164792075736564000000000000000000000000000000606482015290519081900360840190fd5b6040805481517f23b872dd000000000000000000000000000000000000000000000000000000008152600160a060020a03898116600483015230602483015260448201899052925192909116916323b872dd916064808201926020929091908290030181600087803b1580156112e957600080fd5b505af11580156112fd573d6000803e3d6000fd5b505050506040513d602081101561131357600080fd5b505115156113b7576040805160e560020a62461bcd02815260206004820152604860248201527f476c757761536176696e674163636f756e743a20556e61626c6520746f20736560448201527f6e6420616d6f756e7420746f206465706f73697420746f206120536176696e6760648201527f204163636f756e74000000000000000000000000000000000000000000000000608482015290519081900360a40190fd5b604080517f84cefce000000000000000000000000000000000000000000000000000000000815260048101869052306024820152600160a060020a0388166044820152905160009173__$8ad4cadfbfab443c6ed09b45690dcdfb0d$__916384cefce091606480820192602092909190829003018186803b15801561143b57600080fd5b505af415801561144f573d6000803e3d6000fd5b505050506040513d602081101561146557600080fd5b5051603954604080517ffd96809e000000000000000000000000000000000000000000000000000000008152600481019290925260248201899052306044830152600160a060020a038a1660648301525191925060009173__$8ad4cadfbfab443c6ed09b45690dcdfb0d$__9163fd96809e916084808301926020929190829003018186803b1580156114f757600080fd5b505af415801561150b573d6000803e3d6000fd5b505050506040513d602081101561152157600080fd5b50516040805161014081018252603954815260208101859052600160a060020a038b169181019190915260335463ffffffff808216606084015264010000000090910416608082015260a0810188905260c08101899052600060e08201529091506101008101600181526020908101879052600160a060020a038a81166000908152604183526040908190208451815592840151600180850191909155908401516002840180546060870151608088015173ffffffffffffffffffffffffffffffffffffffff19909216939095169290921777ffffffff000000000000000000000000000000000000000019167401000000000000000000000000000000000000000063ffffffff95861602177fffffffff00000000ffffffffffffffffffffffffffffffffffffffffffffffff16780100000000000000000000000000000000000000000000000094909216939093021790915560a0830151600383015560c083015160048084019190915560e084015160058401556101008401516006840180549193909260ff199092169184908111156116ba57fe5b021790555061012082015180516116db9160078401916020909101906121d3565b50506040805160a0810182526039548152600160a060020a038b811660208084019182528385018c8152606085018e8152608086018a815260008a8152604285528890209651875593516001808801805473ffffffffffffffffffffffffffffffffffffffff191692909716919091179095559051600286015551600385015590516004909301929092559151885192935060439289928291908401908083835b6020831061179b5780518252601f19909201916020918201910161177c565b51815160209384036101000a60001901801990921691161790529201948552506040519384900301909220805460ff191693151593909317909255506117e49050603783611e4a565b603f805488019055604051600160a060020a0389169083907fae420988b408fa1c16c342c73f56ece9307da09db1ac6b36fc8d9ff61acaa9a290600090a3604080518881529051600160a060020a038a169183917f2e2791fe9306933f4d6468aab16a0195b3ab2b342887b2e1be4aa35f568322979181900360200190a39097909650945050505050565b60006118b183836040805190810160405280601a81526020017f536166654d6174683a206469766973696f6e206279207a65726f000000000000815250611e7a565b90505b92915050565b6000818152604d6020908152604080832054604e909252822054606092919003908111611957576040805160e560020a62461bcd02815260206004820152603f60248201527f476c7577615072697a65447261773a206e6f206d6f7265207469636b6574732060448201527f63616e206265206372656174656420666f722074686973206465706f73697400606482015290519081900360840190fd5b604b5463ffffffff168082101561196b5750805b611973612251565b61197c86611f23565b90506000600290506010826060015160ff1610806119b45750816060015160ff1660101480156119b45750603b826080015160ff1611155b156119bd575060015b6020808301518351604080517f8980747400000000000000000000000000000000000000000000000000000000815260ff909316600484015261ffff90911660248301525160009273__$05084330c9bf728fdd5577c5afe72a471f$__9263898074749260448083019392829003018186803b158015611a3c57600080fd5b505af4158015611a50573d6000803e3d6000fd5b505050506040513d6020811015611a6657600080fd5b5051604084015190915060ff808316918401161115611acb57826020015160ff16600c141515611aa35760208301805160010160ff169052611ab6565b825161ffff600191820116845260208401525b604083018051830182900360ff169052611ad9565b604083018051830160ff1690525b60116060840181905260006080850181905260a08501819052845160208087015160408089015181517f0a37f14b00000000000000000000000000000000000000000000000000000000815261ffff909516600486015260ff9283166024860152909116604484015260648301949094526084820183905260a482018390529251919273__$05084330c9bf728fdd5577c5afe72a471f$__92630a37f14b9260c4808201939291829003018186803b158015611b9457600080fd5b505af4158015611ba8573d6000803e3d6000fd5b505050506040513d6020811015611bbe57600080fd5b5051905060005b8563ffffffff168163ffffffff161015611da3576048546040805160e0810182526046548152600160a060020a038e1660208201529081018c905260608101849052630100000090910461ffff164301608082018190529060a081016001815260209081018c90526046546000908152604c825260409081902083518155918301516001808401805473ffffffffffffffffffffffffffffffffffffffff1916600160a060020a039093169290921790915590830151600283015560608301516003830155608083015160048084019190915560a08401516005840180549193909260ff19909216918490811115611cb957fe5b021790555060c09190910151600690910155604654600160a060020a038d166000908152605060205260409020611cf59163ffffffff61205116565b6046546000848152605160205260409020611d159163ffffffff61205116565b60465460008b8152604d60205260409020611d359163ffffffff61205116565b604080516c01000000000000000000000000600160a060020a038f1602602080830191909152603482018e90526054820186905260748083018590528351808403909101815260949092019092528051910120611d9a9060449063ffffffff611e4a16565b50600101611bc5565b505050505050509392505050565b60006c01000000000000000000000000600160a060020a03831602611dd584612069565b8540181890509392505050565b60408051426020808301829052434083850152606083019190915244608083015260a0820184905260c08083018690528351808403909101815260e090920190925280519101206000908190849060018286030190811515611e4057fe5b0601949350505050565b60028201805460009081526020849052604090209190915580546001908101909155600390910180549091019055565b600081818411611f0b5760405160e560020a62461bcd0281526004018080602001828103825283818151815260200191508051906020019080838360005b83811015611ed0578181015183820152602001611eb8565b50505050905090810190601f168015611efd5780820380516001836020036101000a031916815260200191505b509250505060405180910390fd5b5060008385811515611f1957fe5b0495945050505050565b611f2b612251565b611f3482612071565b61ffff1681526000611f476107b26120f3565b8251611f569061ffff166120f3565b0361ffff1690506000816301e2850002826107b285600001510361ffff16036301e13380020190506000806000600190505b600c60ff821611611fd657611fa581876000015161ffff1661210e565b91508160ff1662015180029250868484011115611fca5760ff81166020870152611fd6565b92820192600101611f88565b5060015b60ff80831690821611612013578684620151800111156120025760ff81166040870152612013565b620151809390930192600101611fda565b61201c87612180565b60ff16606087015261202d8761219a565b60ff16608087015261203e876121a5565b60ff1660a0870152509395945050505050565b81546001810183556000928352602090922090910155565b602052600090565b60006107b26301e133808304810190829061208b906120f3565b612094836120f3565b0361ffff1690506301e2850081026107b119828403016301e1338002015b848111156120ea576120c6600184036121af565b156120d7576301e284ff19016120df565b6301e1337f19015b6001830392506120b2565b50909392505050565b60001901600060648204610190830460048404010392915050565b60008260ff166002141561213a57612125826121af565b156121325750601d6118b4565b50601c6118b4565b8260ff166004148061214f57508260ff166006145b8061215d57508260ff166009145b8061216b57508260ff16600b145b156121785750601e6118b4565b50601f6118b4565b60006018610e10835b0481151561219357fe5b0692915050565b6000603c8083612189565b6000603c82612193565b6000610190820615806118b45750600482061580156118b457505060649006151590565b828054600181600116156101000203166002900490600052602060002090601f016020900481019282601f1061221457805160ff1916838001178555612241565b82800160010185558215612241579182015b82811115612241578251825591602001919060010190612226565b5061224d929150612286565b5090565b6040805160c081018252600080825260208201819052918101829052606081018290526080810182905260a081019190915290565b6107d591905b8082111561224d576000815560010161228c56fea165627a7a7230582085b384e70fdaaa631ec931a1af4f079bc67e2631b4b3a5f187d0803dcad227680029",
  "linkReferences": {
    "contracts/libs/DateTimeModel.sol": {
      "DateTimeModel": [
        {
          "length": 20,
          "start": 6682
        },
        {
          "length": 20,
          "start": 7025
        }
      ]
    },
    "contracts/libs/GluwaAccountModel.sol": {
      "GluwaAccountModel": [
        {
          "length": 20,
          "start": 5140
        },
        {
          "length": 20,
          "start": 5329
        }
      ]
    }
  },
  "deployedLinkReferences": {
    "contracts/libs/DateTimeModel.sol": {
      "DateTimeModel": [
        {
          "length": 20,
          "start": 6663
        },
        {
          "length": 20,
          "start": 7006
        }
      ]
    },
    "contracts/libs/GluwaAccountModel.sol": {
      "GluwaAccountModel": [
        {
          "length": 20,
          "start": 5121
        },
        {
          "length": 20,
          "start": 5310
        }
      ]
    }
  }
}