{
  "_format": "hh-sol-artifact-1",
  "contractName": "SandboxPrizeLinkedAccountVault",
  "sourceName": "contracts/mocks/SandboxPrizeLinkedAccountVault.sol",
  "abi": [
    {
      "constant": false,
      "inputs": [
        {
          "name": "owner",
          "type": "address"
        },
        {
          "name": "amount",
          "type": "uint256"
        }
      ],
      "name": "depositPrizedLinkAccount",
      "outputs": [
        {
          "name": "",
          "type": "bool"
        }
      ],
      "payable": false,
      "stateMutability": "nonpayable",
      "type": "function"
    },
    {
      "constant": true,
      "inputs": [
        {
          "name": "role",
          "type": "bytes32"
        }
      ],
      "name": "getRoleAdmin",
      "outputs": [
        {
          "name": "",
          "type": "bytes32"
        }
      ],
      "payable": false,
      "stateMutability": "view",
      "type": "function"
    },
    {
      "constant": true,
      "inputs": [
        {
          "name": "account",
          "type": "address"
        }
      ],
      "name": "isAdmin",
      "outputs": [
        {
          "name": "",
          "type": "bool"
        }
      ],
      "payable": false,
      "stateMutability": "view",
      "type": "function"
    },
    {
      "constant": false,
      "inputs": [],
      "name": "renounceOperator",
      "outputs": [],
      "payable": false,
      "stateMutability": "nonpayable",
      "type": "function"
    },
    {
      "constant": false,
      "inputs": [
        {
          "name": "amount",
          "type": "uint256"
        }
      ],
      "name": "withdraw",
      "outputs": [
        {
          "name": "",
          "type": "bool"
        }
      ],
      "payable": false,
      "stateMutability": "nonpayable",
      "type": "function"
    },
    {
      "constant": true,
      "inputs": [
        {
          "name": "c__0x42d91d40",
          "type": "bytes32"
        }
      ],
      "name": "c_0x42d91d40",
      "outputs": [],
      "payable": false,
      "stateMutability": "pure",
      "type": "function"
    },
    {
      "constant": false,
      "inputs": [
        {
          "name": "role",
          "type": "bytes32"
        },
        {
          "name": "account",
          "type": "address"
        }
      ],
      "name": "grantRole",
      "outputs": [],
      "payable": false,
      "stateMutability": "nonpayable",
      "type": "function"
    },
    {
      "constant": false,
      "inputs": [
        {
          "name": "role",
          "type": "bytes32"
        },
        {
          "name": "account",
          "type": "address"
        }
      ],
      "name": "renounceRole",
      "outputs": [],
      "payable": false,
      "stateMutability": "nonpayable",
      "type": "function"
    },
    {
      "constant": true,
      "inputs": [
        {
          "name": "drawTimeStamp",
          "type": "uint256"
        }
      ],
      "name": "getEligibleAddressPendingAddedToDraw",
      "outputs": [
        {
          "name": "result",
          "type": "address[]"
        }
      ],
      "payable": false,
      "stateMutability": "view",
      "type": "function"
    },
    {
      "constant": true,
      "inputs": [],
      "name": "getSavingSettings",
      "outputs": [
        {
          "name": "",
          "type": "uint32"
        },
        {
          "name": "",
          "type": "uint32"
        },
        {
          "name": "",
          "type": "uint256"
        },
        {
          "name": "",
          "type": "uint256"
        },
        {
          "name": "",
          "type": "address"
        }
      ],
      "payable": false,
      "stateMutability": "view",
      "type": "function"
    },
    {
      "constant": true,
      "inputs": [
        {
          "name": "c__0x48731749",
          "type": "bytes32"
        }
      ],
      "name": "c_0x48731749",
      "outputs": [],
      "payable": false,
      "stateMutability": "pure",
      "type": "function"
    },
    {
      "constant": true,
      "inputs": [
        {
          "name": "account",
          "type": "address"
        }
      ],
      "name": "isOperator",
      "outputs": [
        {
          "name": "",
          "type": "bool"
        }
      ],
      "payable": false,
      "stateMutability": "view",
      "type": "function"
    },
    {
      "constant": false,
      "inputs": [
        {
          "name": "account",
          "type": "address"
        }
      ],
      "name": "addAdmin",
      "outputs": [],
      "payable": false,
      "stateMutability": "nonpayable",
      "type": "function"
    },
    {
      "constant": true,
      "inputs": [
        {
          "name": "depositHash",
          "type": "bytes32"
        }
      ],
      "name": "getDeposit",
      "outputs": [
        {
          "name": "",
          "type": "uint256"
        },
        {
          "name": "",
          "type": "uint256"
        },
        {
          "name": "",
          "type": "address"
        },
        {
          "name": "",
          "type": "uint256"
        },
        {
          "name": "",
          "type": "uint256"
        }
      ],
      "payable": false,
      "stateMutability": "view",
      "type": "function"
    },
    {
      "constant": true,
      "inputs": [
        {
          "name": "c__0xd27cb329",
          "type": "bytes32"
        }
      ],
      "name": "c_0xd27cb329",
      "outputs": [],
      "payable": false,
      "stateMutability": "pure",
      "type": "function"
    },
    {
      "constant": true,
      "inputs": [
        {
          "name": "drawTimeStamp",
          "type": "uint256"
        }
      ],
      "name": "findMinMaxForDraw",
      "outputs": [
        {
          "name": "min",
          "type": "uint256"
        },
        {
          "name": "max",
          "type": "uint256"
        }
      ],
      "payable": false,
      "stateMutability": "view",
      "type": "function"
    },
    {
      "constant": true,
      "inputs": [
        {
          "name": "owner",
          "type": "address"
        }
      ],
      "name": "getSavingAcountFor",
      "outputs": [
        {
          "name": "",
          "type": "uint256"
        },
        {
          "name": "",
          "type": "bytes32"
        },
        {
          "name": "",
          "type": "address"
        },
        {
          "name": "",
          "type": "uint256"
        },
        {
          "name": "",
          "type": "uint256"
        },
        {
          "name": "",
          "type": "uint256"
        },
        {
          "name": "",
          "type": "uint8"
        },
        {
          "name": "",
          "type": "bytes"
        }
      ],
      "payable": false,
      "stateMutability": "view",
      "type": "function"
    },
    {
      "constant": true,
      "inputs": [
        {
          "name": "c__0xfd3e751c",
          "type": "bytes32"
        }
      ],
      "name": "c_0xfd3e751c",
      "outputs": [],
      "payable": false,
      "stateMutability": "pure",
      "type": "function"
    },
    {
      "constant": false,
      "inputs": [],
      "name": "renounceAdmin",
      "outputs": [],
      "payable": false,
      "stateMutability": "nonpayable",
      "type": "function"
    },
    {
      "constant": false,
      "inputs": [
        {
          "name": "drawTimeStamp",
          "type": "uint256"
        }
      ],
      "name": "awardWinnerV1",
      "outputs": [
        {
          "name": "",
          "type": "bool"
        }
      ],
      "payable": false,
      "stateMutability": "nonpayable",
      "type": "function"
    },
    {
      "constant": true,
      "inputs": [
        {
          "name": "role",
          "type": "bytes32"
        },
        {
          "name": "index",
          "type": "uint256"
        }
      ],
      "name": "getRoleMember",
      "outputs": [
        {
          "name": "",
          "type": "address"
        }
      ],
      "payable": false,
      "stateMutability": "view",
      "type": "function"
    },
    {
      "constant": true,
      "inputs": [
        {
          "name": "role",
          "type": "bytes32"
        },
        {
          "name": "account",
          "type": "address"
        }
      ],
      "name": "hasRole",
      "outputs": [
        {
          "name": "",
          "type": "bool"
        }
      ],
      "payable": false,
      "stateMutability": "view",
      "type": "function"
    },
    {
      "constant": false,
      "inputs": [
        {
          "name": "account",
          "type": "address"
        }
      ],
      "name": "addOperator",
      "outputs": [],
      "payable": false,
      "stateMutability": "nonpayable",
      "type": "function"
    },
    {
      "constant": true,
      "inputs": [],
      "name": "getSavingAcount",
      "outputs": [
        {
          "name": "",
          "type": "uint256"
        },
        {
          "name": "",
          "type": "bytes32"
        },
        {
          "name": "",
          "type": "address"
        },
        {
          "name": "",
          "type": "uint256"
        },
        {
          "name": "",
          "type": "uint256"
        },
        {
          "name": "",
          "type": "uint256"
        },
        {
          "name": "",
          "type": "uint8"
        },
        {
          "name": "",
          "type": "bytes"
        }
      ],
      "payable": false,
      "stateMutability": "view",
      "type": "function"
    },
    {
      "constant": true,
      "inputs": [],
      "name": "DEFAULT_ADMIN_ROLE",
      "outputs": [
        {
          "name": "",
          "type": "bytes32"
        }
      ],
      "payable": false,
      "stateMutability": "view",
      "type": "function"
    },
    {
      "constant": false,
      "inputs": [
        {
          "name": "drawTimeStamp",
          "type": "uint256"
        },
        {
          "name": "seed",
          "type": "uint256"
        }
      ],
      "name": "makeDrawV1_Dummy",
      "outputs": [
        {
          "name": "",
          "type": "uint256"
        }
      ],
      "payable": false,
      "stateMutability": "nonpayable",
      "type": "function"
    },
    {
      "constant": false,
      "inputs": [
        {
          "name": "standardInterestRate",
          "type": "uint32"
        },
        {
          "name": "standardInterestRatePercentageBase",
          "type": "uint32"
        },
        {
          "name": "budget",
          "type": "uint256"
        },
        {
          "name": "minimumDeposit",
          "type": "uint256"
        },
        {
          "name": "tokenPerTicket",
          "type": "uint16"
        },
        {
          "name": "cutOffHour",
          "type": "uint8"
        },
        {
          "name": "cutOffMinute",
          "type": "uint8"
        },
        {
          "name": "processingCap",
          "type": "uint32"
        },
        {
          "name": "ticketRangeFactor",
          "type": "uint128"
        },
        {
          "name": "lowerLimitPercentage",
          "type": "uint8"
        }
      ],
      "name": "setPrizeLinkedAccountSettings",
      "outputs": [],
      "payable": false,
      "stateMutability": "nonpayable",
      "type": "function"
    },
    {
      "constant": true,
      "inputs": [],
      "name": "getAmountBroughtToNextDraw",
      "outputs": [
        {
          "name": "",
          "type": "uint256"
        }
      ],
      "payable": false,
      "stateMutability": "view",
      "type": "function"
    },
    {
      "constant": false,
      "inputs": [
        {
          "name": "account",
          "type": "address"
        }
      ],
      "name": "removeOperator",
      "outputs": [],
      "payable": false,
      "stateMutability": "nonpayable",
      "type": "function"
    },
    {
      "constant": false,
      "inputs": [
        {
          "name": "admin",
          "type": "address"
        },
        {
          "name": "tokenAddress",
          "type": "address"
        },
        {
          "name": "standardInterestRate",
          "type": "uint32"
        },
        {
          "name": "standardInterestRatePercentageBase",
          "type": "uint32"
        },
        {
          "name": "budget",
          "type": "uint256"
        },
        {
          "name": "tokenPerTicket",
          "type": "uint16"
        },
        {
          "name": "cutOffHour",
          "type": "uint8"
        },
        {
          "name": "cutOffMinute",
          "type": "uint8"
        },
        {
          "name": "processingCap",
          "type": "uint32"
        },
        {
          "name": "ticketRangeFactor",
          "type": "uint128"
        },
        {
          "name": "lowerLimitPercentage",
          "type": "uint8"
        }
      ],
      "name": "initialize",
      "outputs": [],
      "payable": false,
      "stateMutability": "nonpayable",
      "type": "function"
    },
    {
      "constant": false,
      "inputs": [
        {
          "name": "drawTimeStamp",
          "type": "uint256"
        }
      ],
      "name": "regenerateTicketForNextDraw",
      "outputs": [
        {
          "name": "",
          "type": "uint256"
        }
      ],
      "payable": false,
      "stateMutability": "nonpayable",
      "type": "function"
    },
    {
      "constant": false,
      "inputs": [
        {
          "name": "recipient",
          "type": "address"
        },
        {
          "name": "amount",
          "type": "uint256"
        }
      ],
      "name": "invest",
      "outputs": [
        {
          "name": "",
          "type": "bool"
        }
      ],
      "payable": false,
      "stateMutability": "nonpayable",
      "type": "function"
    },
    {
      "constant": true,
      "inputs": [
        {
          "name": "role",
          "type": "bytes32"
        }
      ],
      "name": "getRoleMemberCount",
      "outputs": [
        {
          "name": "",
          "type": "uint256"
        }
      ],
      "payable": false,
      "stateMutability": "view",
      "type": "function"
    },
    {
      "constant": true,
      "inputs": [
        {
          "name": "c__0x90feacde",
          "type": "bytes32"
        }
      ],
      "name": "c_0x90feacde",
      "outputs": [],
      "payable": false,
      "stateMutability": "pure",
      "type": "function"
    },
    {
      "constant": false,
      "inputs": [
        {
          "name": "owner",
          "type": "address"
        },
        {
          "name": "amount",
          "type": "uint256"
        },
        {
          "name": "securityHash",
          "type": "bytes"
        }
      ],
      "name": "createPrizedLinkAccount",
      "outputs": [
        {
          "name": "",
          "type": "bool"
        }
      ],
      "payable": false,
      "stateMutability": "nonpayable",
      "type": "function"
    },
    {
      "constant": false,
      "inputs": [
        {
          "name": "role",
          "type": "bytes32"
        },
        {
          "name": "account",
          "type": "address"
        }
      ],
      "name": "revokeRole",
      "outputs": [],
      "payable": false,
      "stateMutability": "nonpayable",
      "type": "function"
    },
    {
      "constant": true,
      "inputs": [
        {
          "name": "drawTimeStamp",
          "type": "uint256"
        }
      ],
      "name": "getDrawDetails",
      "outputs": [
        {
          "name": "participants",
          "type": "address[]"
        },
        {
          "name": "ticketIds",
          "type": "uint96[]"
        },
        {
          "name": "winningTicket",
          "type": "uint256"
        },
        {
          "name": "balanceEachDraw",
          "type": "uint256"
        }
      ],
      "payable": false,
      "stateMutability": "view",
      "type": "function"
    },
    {
      "constant": true,
      "inputs": [
        {
          "name": "idx",
          "type": "uint256"
        }
      ],
      "name": "getTicketRangeById",
      "outputs": [
        {
          "name": "",
          "type": "uint96"
        },
        {
          "name": "",
          "type": "address"
        },
        {
          "name": "",
          "type": "uint256"
        },
        {
          "name": "",
          "type": "uint256"
        }
      ],
      "payable": false,
      "stateMutability": "view",
      "type": "function"
    },
    {
      "constant": false,
      "inputs": [
        {
          "name": "owner",
          "type": "address"
        },
        {
          "name": "amount",
          "type": "uint256"
        }
      ],
      "name": "withdrawFor",
      "outputs": [
        {
          "name": "",
          "type": "bool"
        }
      ],
      "payable": false,
      "stateMutability": "nonpayable",
      "type": "function"
    },
    {
      "constant": true,
      "inputs": [
        {
          "name": "c__0x3cfa3e8e",
          "type": "bytes32"
        }
      ],
      "name": "c_0x3cfa3e8e",
      "outputs": [],
      "payable": false,
      "stateMutability": "pure",
      "type": "function"
    },
    {
      "constant": true,
      "inputs": [
        {
          "name": "drawTimeStamp",
          "type": "uint256"
        }
      ],
      "name": "getDrawWinner",
      "outputs": [
        {
          "name": "result",
          "type": "address"
        }
      ],
      "payable": false,
      "stateMutability": "view",
      "type": "function"
    },
    {
      "constant": false,
      "inputs": [
        {
          "name": "drawTimeStamp",
          "type": "uint256"
        },
        {
          "name": "seed",
          "type": "uint256"
        }
      ],
      "name": "makeDrawV1",
      "outputs": [
        {
          "name": "",
          "type": "uint256"
        }
      ],
      "payable": false,
      "stateMutability": "nonpayable",
      "type": "function"
    },
    {
      "constant": true,
      "inputs": [],
      "name": "OPERATOR_ROLE",
      "outputs": [
        {
          "name": "",
          "type": "bytes32"
        }
      ],
      "payable": false,
      "stateMutability": "view",
      "type": "function"
    },
    {
      "anonymous": false,
      "inputs": [
        {
          "indexed": false,
          "name": "winner",
          "type": "address"
        },
        {
          "indexed": false,
          "name": "reward",
          "type": "uint256"
        }
      ],
      "name": "WinnerSelected",
      "type": "event"
    },
    {
      "anonymous": false,
      "inputs": [
        {
          "indexed": true,
          "name": "recipient",
          "type": "address"
        },
        {
          "indexed": false,
          "name": "amount",
          "type": "uint256"
        }
      ],
      "name": "Invested",
      "type": "event"
    },
    {
      "anonymous": false,
      "inputs": [
        {
          "indexed": true,
          "name": "drawTimeStamp",
          "type": "uint256"
        },
        {
          "indexed": true,
          "name": "ticketId",
          "type": "uint256"
        },
        {
          "indexed": true,
          "name": "owner",
          "type": "address"
        },
        {
          "indexed": false,
          "name": "upper",
          "type": "uint256"
        },
        {
          "indexed": false,
          "name": "lower",
          "type": "uint256"
        }
      ],
      "name": "TicketCreated",
      "type": "event"
    },
    {
      "anonymous": false,
      "inputs": [
        {
          "indexed": true,
          "name": "accountHash",
          "type": "bytes32"
        },
        {
          "indexed": true,
          "name": "owner",
          "type": "address"
        }
      ],
      "name": "AccountCreated",
      "type": "event"
    },
    {
      "anonymous": false,
      "inputs": [
        {
          "indexed": true,
          "name": "depositHash",
          "type": "bytes32"
        },
        {
          "indexed": true,
          "name": "owner",
          "type": "address"
        },
        {
          "indexed": false,
          "name": "deposit",
          "type": "uint256"
        }
      ],
      "name": "DepositCreated",
      "type": "event"
    },
    {
      "anonymous": false,
      "inputs": [
        {
          "indexed": true,
          "name": "owner",
          "type": "address"
        },
        {
          "indexed": false,
          "name": "amount",
          "type": "uint256"
        }
      ],
      "name": "Withdrawn",
      "type": "event"
    },
    {
      "anonymous": false,
      "inputs": [
        {
          "indexed": true,
          "name": "role",
          "type": "bytes32"
        },
        {
          "indexed": true,
          "name": "account",
          "type": "address"
        },
        {
          "indexed": true,
          "name": "sender",
          "type": "address"
        }
      ],
      "name": "RoleGranted",
      "type": "event"
    },
    {
      "anonymous": false,
      "inputs": [
        {
          "indexed": true,
          "name": "role",
          "type": "bytes32"
        },
        {
          "indexed": true,
          "name": "account",
          "type": "address"
        },
        {
          "indexed": true,
          "name": "sender",
          "type": "address"
        }
      ],
      "name": "RoleRevoked",
      "type": "event"
    }
  ],
  "bytecode": "0x608060405262010dd380620000156000396000f3fe6080604052600436106200023b576000357c0100000000000000000000000000000000000000000000000000000000900463ffffffff168063033d086d1462000240578063248a9ca314620002b757806324d7806c146200030a5780632ab6f8db14620003775780632e1a7d4d14620003915780632eda6f8714620003e85780632f2ff15d146200042757806336568abe14620004865780634218774b14620004e5578063529298b8146200057b578063669ec8b714620006095780636d70f7ae14620006485780637048027514620006b55780637a86983f146200070a5780637f538d5414620007a55780638067e00214620007e457806382133e38146200083e57806386f8474c146200097b5780638bad0c0a14620009ba5780638be3065714620009d45780639010d07c1462000a2b57806391d148541462000ab45780639870d7fe1462000b2b5780639964476f1462000b80578063a217fddf1462000c82578063a6e894821462000cb0578063a8cb73311462000d0d578063a95766941462000dd8578063ac8a584a1462000e06578063ad395d921462000e5b578063b58d3ff31462000f5c578063b9b8c2461462000faf578063ca15c8731462001026578063cc2645021462001079578063cf123e3014620010b8578063d547741f1462001187578063d5a962e414620011e6578063d93e81a714620012d4578063db518db21462001384578063ed5c049114620013fb578063ee37fb4c146200143a578063ee5bf65f14620014b9578063f5b541a61462001516575b600080fd5b3480156200024d57600080fd5b506200029d600480360360408110156200026657600080fd5b81019080803573ffffffffffffffffffffffffffffffffffffffff1690602001909291908035906020019092919050505062001544565b604051808215151515815260200191505060405180910390f35b348015620002c457600080fd5b50620002f460048036036020811015620002dd57600080fd5b810190808035906020019092919050505062001a33565b6040518082815260200191505060405180910390f35b3480156200031757600080fd5b506200035d600480360360208110156200033057600080fd5b81019080803573ffffffffffffffffffffffffffffffffffffffff16906020019092919050505062001add565b604051808215151515815260200191505060405180910390f35b3480156200038457600080fd5b506200038f62001b80565b005b3480156200039e57600080fd5b50620003ce60048036036020811015620003b757600080fd5b810190808035906020019092919050505062001c56565b604051808215151515815260200191505060405180910390f35b348015620003f557600080fd5b5062000425600480360360208110156200040e57600080fd5b810190808035906020019092919050505062001cfe565b005b3480156200043457600080fd5b5062000484600480360360408110156200044d57600080fd5b8101908080359060200190929190803573ffffffffffffffffffffffffffffffffffffffff16906020019092919050505062001d01565b005b3480156200049357600080fd5b50620004e360048036036040811015620004ac57600080fd5b8101908080359060200190929190803573ffffffffffffffffffffffffffffffffffffffff16906020019092919050505062001f19565b005b348015620004f257600080fd5b5062000522600480360360208110156200050b57600080fd5b81019080803590602001909291905050506200213d565b6040518080602001828103825283818151815260200191508051906020019060200280838360005b83811015620005675780820151818401526020810190506200054a565b505050509050019250505060405180910390f35b3480156200058857600080fd5b5062000593620025f5565b604051808663ffffffff1663ffffffff1681526020018563ffffffff1663ffffffff1681526020018481526020018381526020018273ffffffffffffffffffffffffffffffffffffffff1673ffffffffffffffffffffffffffffffffffffffff1681526020019550505050505060405180910390f35b3480156200061657600080fd5b5062000646600480360360208110156200062f57600080fd5b8101908080359060200190929190505050620026e7565b005b3480156200065557600080fd5b506200069b600480360360208110156200066e57600080fd5b81019080803573ffffffffffffffffffffffffffffffffffffffff169060200190929190505050620026ea565b604051808215151515815260200191505060405180910390f35b348015620006c257600080fd5b506200070860048036036020811015620006db57600080fd5b81019080803573ffffffffffffffffffffffffffffffffffffffff169060200190929190505050620027be565b005b3480156200071757600080fd5b5062000747600480360360208110156200073057600080fd5b8101908080359060200190929190505050620029f8565b604051808681526020018581526020018473ffffffffffffffffffffffffffffffffffffffff1673ffffffffffffffffffffffffffffffffffffffff1681526020018381526020018281526020019550505050505060405180910390f35b348015620007b257600080fd5b50620007e260048036036020811015620007cb57600080fd5b810190808035906020019092919050505062002b4a565b005b348015620007f157600080fd5b5062000821600480360360208110156200080a57600080fd5b810190808035906020019092919050505062002b4d565b604051808381526020018281526020019250505060405180910390f35b3480156200084b57600080fd5b5062000891600480360360208110156200086457600080fd5b81019080803573ffffffffffffffffffffffffffffffffffffffff16906020019092919050505062002d7d565b604051808981526020018881526020018773ffffffffffffffffffffffffffffffffffffffff1673ffffffffffffffffffffffffffffffffffffffff168152602001868152602001858152602001848152602001836004811115620008f257fe5b60ff16815260200180602001828103825283818151815260200191508051906020019080838360005b83811015620009385780820151818401526020810190506200091b565b50505050905090810190601f168015620009665780820380516001836020036101000a031916815260200191505b50995050505050505050505060405180910390f35b3480156200098857600080fd5b50620009b860048036036020811015620009a157600080fd5b810190808035906020019092919050505062002fd7565b005b348015620009c757600080fd5b50620009d262002fda565b005b348015620009e157600080fd5b5062000a1160048036036020811015620009fa57600080fd5b81019080803590602001909291905050506200317e565b604051808215151515815260200191505060405180910390f35b34801562000a3857600080fd5b5062000a726004803603604081101562000a5157600080fd5b810190808035906020019092919080359060200190929190505050620039f4565b604051808273ffffffffffffffffffffffffffffffffffffffff1673ffffffffffffffffffffffffffffffffffffffff16815260200191505060405180910390f35b34801562000ac157600080fd5b5062000b116004803603604081101562000ada57600080fd5b8101908080359060200190929190803573ffffffffffffffffffffffffffffffffffffffff16906020019092919050505062003ab2565b604051808215151515815260200191505060405180910390f35b34801562000b3857600080fd5b5062000b7e6004803603602081101562000b5157600080fd5b81019080803573ffffffffffffffffffffffffffffffffffffffff16906020019092919050505062003b70565b005b34801562000b8d57600080fd5b5062000b9862003ddb565b604051808981526020018881526020018773ffffffffffffffffffffffffffffffffffffffff1673ffffffffffffffffffffffffffffffffffffffff16815260200186815260200185815260200184815260200183600481111562000bf957fe5b60ff16815260200180602001828103825283818151815260200191508051906020019080838360005b8381101562000c3f57808201518184015260208101905062000c22565b50505050905090810190601f16801562000c6d5780820380516001836020036101000a031916815260200191505b50995050505050505050505060405180910390f35b34801562000c8f57600080fd5b5062000c9a62003ea0565b6040518082815260200191505060405180910390f35b34801562000cbd57600080fd5b5062000cf76004803603604081101562000cd657600080fd5b81019080803590602001909291908035906020019092919050505062003ea8565b6040518082815260200191505060405180910390f35b34801562000d1a57600080fd5b5062000dd6600480360361014081101562000d3457600080fd5b81019080803563ffffffff169060200190929190803563ffffffff1690602001909291908035906020019092919080359060200190929190803561ffff169060200190929190803560ff169060200190929190803560ff169060200190929190803563ffffffff16906020019092919080356fffffffffffffffffffffffffffffffff169060200190929190803560ff1690602001909291905050506200414e565b005b34801562000de557600080fd5b5062000df062004568565b6040518082815260200191505060405180910390f35b34801562000e1357600080fd5b5062000e596004803603602081101562000e2c57600080fd5b81019080803573ffffffffffffffffffffffffffffffffffffffff169060200190929190505050620045fc565b005b34801562000e6857600080fd5b5062000f5a600480360361016081101562000e8257600080fd5b81019080803573ffffffffffffffffffffffffffffffffffffffff169060200190929190803573ffffffffffffffffffffffffffffffffffffffff169060200190929190803563ffffffff169060200190929190803563ffffffff16906020019092919080359060200190929190803561ffff169060200190929190803560ff169060200190929190803560ff169060200190929190803563ffffffff16906020019092919080356fffffffffffffffffffffffffffffffff169060200190929190803560ff16906020019092919050505062004867565b005b34801562000f6957600080fd5b5062000f996004803603602081101562000f8257600080fd5b810190808035906020019092919050505062004dcd565b6040518082815260200191505060405180910390f35b34801562000fbc57600080fd5b506200100c6004803603604081101562000fd557600080fd5b81019080803573ffffffffffffffffffffffffffffffffffffffff1690602001909291908035906020019092919050505062005494565b604051808215151515815260200191505060405180910390f35b3480156200103357600080fd5b5062001063600480360360208110156200104c57600080fd5b810190808035906020019092919050505062005db6565b6040518082815260200191505060405180910390f35b3480156200108657600080fd5b50620010b6600480360360208110156200109f57600080fd5b810190808035906020019092919050505062005e69565b005b348015620010c557600080fd5b506200116d60048036036060811015620010de57600080fd5b81019080803573ffffffffffffffffffffffffffffffffffffffff16906020019092919080359060200190929190803590602001906401000000008111156200112657600080fd5b8201836020820111156200113957600080fd5b803590602001918460018302840111640100000000831117156200115c57600080fd5b909192939192939050505062005e6c565b604051808215151515815260200191505060405180910390f35b3480156200119457600080fd5b50620011e460048036036040811015620011ad57600080fd5b8101908080359060200190929190803573ffffffffffffffffffffffffffffffffffffffff1690602001909291905050506200640e565b005b348015620011f357600080fd5b5062001223600480360360208110156200120c57600080fd5b810190808035906020019092919050505062006626565b604051808060200180602001858152602001848152602001838103835287818151815260200191508051906020019060200280838360005b83811015620012785780820151818401526020810190506200125b565b50505050905001838103825286818151815260200191508051906020019060200280838360005b83811015620012bc5780820151818401526020810190506200129f565b50505050905001965050505050505060405180910390f35b348015620012e157600080fd5b506200131160048036036020811015620012fa57600080fd5b81019080803590602001909291905050506200693b565b60405180856bffffffffffffffffffffffff166bffffffffffffffffffffffff1681526020018473ffffffffffffffffffffffffffffffffffffffff1673ffffffffffffffffffffffffffffffffffffffff16815260200183815260200182815260200194505050505060405180910390f35b3480156200139157600080fd5b50620013e160048036036040811015620013aa57600080fd5b81019080803573ffffffffffffffffffffffffffffffffffffffff16906020019092919080359060200190929190505050620069e5565b604051808215151515815260200191505060405180910390f35b3480156200140857600080fd5b5062001438600480360360208110156200142157600080fd5b810190808035906020019092919050505062006c22565b005b3480156200144757600080fd5b5062001477600480360360208110156200146057600080fd5b810190808035906020019092919050505062006c25565b604051808273ffffffffffffffffffffffffffffffffffffffff1673ffffffffffffffffffffffffffffffffffffffff16815260200191505060405180910390f35b348015620014c657600080fd5b506200150060048036036040811015620014df57600080fd5b81019080803590602001909291908035906020019092919050505062007230565b6040518082815260200191505060405180910390f35b3480156200152357600080fd5b506200152e6200759c565b6040518082815260200191505060405180910390f35b6000620015747fef0ee839a87e09beff700b1545467b1e7edec5145e69a952185625b7febbbeaf60010262006c22565b620015a27fbdf835ee0fe59519e68e959a2766d368864459c142b651dc6d6cc62e98a4928760010262006c22565b620015d07fd14e8c1d0c70855f3f901075500965984cbea219b1fa4a42db605c475f4bbee460010262006c22565b620015fe7fbe47793fa43a6c9d58b424bbf96d50fa4160ae78cfe3c5dd4bc34ba1ea72138660010262006c22565b620016126200160c620075d5565b620026ea565b151562001687576040517f08c379a00000000000000000000000000000000000000000000000000000000081526004018080602001828103825260188152602001807f5265737472696374656420746f204f70657261746f72732e000000000000000081525060200191505060405180910390fd5b620016b57f241ba548cc8253817305eb6cbd99b145edfcecbfaeaba1576d256fce484d5ab260010262006c22565b620016e37fc0aad2c1f4c71d0d45099bfc691c3cd5b001f96af75e9e3b342f389f86c2614760010262006c22565b620017117fee0809b58aeeed26c30fc6ba6d875b96116194bedc82363fc1cff54182bdce12600102620026e7565b6200173f7f0c3e9f168ebfb4977cf472feeaa28e1f043f0a2f2b7739c3a79275d5177cb43c600102620026e7565b6200176d7fcf946496a68af8ab72dc0833344b0ca929f3401b5463d4651add61d4a119b11e600102620026e7565b6200179b7f4055094ee938ac478c67721fa04da3c5e6130172fcf7895af3203ad5d7032405600102620026e7565b60a660009054906101000a900473ffffffffffffffffffffffffffffffffffffffff1673ffffffffffffffffffffffffffffffffffffffff166323b872dd8430856040518463ffffffff167c0100000000000000000000000000000000000000000000000000000000028152600401808473ffffffffffffffffffffffffffffffffffffffff1673ffffffffffffffffffffffffffffffffffffffff1681526020018373ffffffffffffffffffffffffffffffffffffffff1673ffffffffffffffffffffffffffffffffffffffff1681526020018281526020019350505050602060405180830381600087803b1580156200189557600080fd5b505af1158015620018aa573d6000803e3d6000fd5b505050506040513d6020811015620018c157600080fd5b8101908080519060200190929190505050151562001993576040517f08c379a000000000000000000000000000000000000000000000000000000000815260040180806020018281038252604d8152602001807f476c7577615072697a654c696e6b65644163636f756e743a20556e61626c652081526020017f746f2073656e6420616d6f756e7420746f206465706f73697420746f2061205381526020017f6176696e67204163636f756e740000000000000000000000000000000000000081525060600191505060405180910390fd5b620019c17f55fb64c4d4d6cf94ce8a413d66cc411b6dca416c50fa2be261047c4c5e507a7f600102620026e7565b620019ef7fd436c8654e955acd1211f29a5aa18846bedb3f78d5ce3cc2fa9636ad9194a72e600102620026e7565b62001a1d7fa1ce5180c6ab847e296c90ab909d21b74a90bd346200740c09675152f17d324f600102620026e7565b62001a2b83836000620075dd565b905092915050565b600062001a637f178ba80f02f74abd0ff251d2ea78ec810b40bec9630b6a70cdfbec8d0795e14260010262002fd7565b62001a917fec551c3ea353e36cbba2586629cb6098113180911ee1a321937b05ae2a2752b660010262002fd7565b62001abf7f84fcfc621d3e05319f4172e0bac43d08f99c5f386a82d921c479c6bf1caa5b9e60010262002fd7565b60336000838152602001908152602001600020600201549050919050565b600062001b0d7f86524858a643a3d44641956918739c1a8adbfa262f51365867258a74777ab6e860010262006c22565b62001b3b7f34882e832c710efee608a8c31c6b4f81a2882df9495d9d914960835bc5ed3a6f60010262006c22565b62001b697fab863da377c52c8f6067472a5ca8df2a2ce6a6f299e205cd7a166b6a8ee3191660010262006c22565b62001b7960006001028362003ab2565b9050919050565b62001bae7fe055df7d75bcf67920b78bea865a068e84bc633c679512f0876702a70b8dc05460010262006c22565b62001bdc7f4305c9b37baa4897e500de7512ac1fbd26011391db36c2bdf91ab696e445440660010262006c22565b62001c0a7fd5d184c393ede38cc607d24a25f3666dd9feb49a274e173511e36640001bb02c60010262006c22565b62001c5460405180807f4f50455241544f520000000000000000000000000000000000000000000000008152506008019050604051809103902062001c4e620075d5565b62001f19565b565b600062001c867f8500a9e4fc4b9b3b89306ac2352ef2e779b3117b09ed076a56e5023356ba26fb600102620026e7565b62001cb47f8d699fbb555089289b574a77f3e959dac58459f1256ce603371095a6431dea2c600102620026e7565b62001ce27f43a6edab168f6163758215350d38ecba2318dc3dfe37f21554317bc9fde29c63600102620026e7565b62001cf762001cf0620075d5565b83620076ec565b9050919050565b50565b62001d2f7f97749d5907af942f23e24dab2e4d9d9f86169e20828b78fbb02c7397aba20dec60010262002fd7565b62001d5d7f6071ae2abfff4312103bd8739211263b643becbb57462f9074353c4b638bc8fb60010262002fd7565b62001d8b7f78c9d2effdd2cf4ffcfc49a15eb93d30fb2345626d55331fafe2577c4549294560010262002fd7565b62001db97f0f8d5525ab20fc25e211108856f9e9c2d7686d4bca86323a95f73b4befbd190560010262002fd7565b62001de4603360008481526020019081526020016000206002015462001dde620075d5565b62003ab2565b151562001e7f576040517f08c379a000000000000000000000000000000000000000000000000000000000815260040180806020018281038252602f8152602001807f416363657373436f6e74726f6c3a2073656e646572206d75737420626520616e81526020017f2061646d696e20746f206772616e74000000000000000000000000000000000081525060400191505060405180910390fd5b62001ead7f552f1538fdf5aa57eed1a65a84465e26b2dee3a349b98af5bdc70923de8885ca60010262002fd7565b62001edb7f903d39f78d0f26f99c6bc1e1496c2b3cde0bbb39f25ad445a102acb1d1decd8160010262002fd7565b62001f097f76891968bc09ecbef03a36911e5ee6272955d16b1c067ee7f7047de6127eb41c60010262002fd7565b62001f15828262007b20565b5050565b62001f477f811d9b367083ade010308c3df46e6c1a758d0a4e066263174dfb6043b644e17360010262002fd7565b62001f757fdb6ee36fa74bfce73b4d7febf4feaf4bdebc1210aab6f5b8693bd4a1f8853a2660010262002fd7565b62001fa37f85d239db3b4d1b9cced29486f7c80ccb652aafd8e8eae3f7452473f2cc89b51a60010262002fd7565b62001fd17fedea06ed59008997c5743a16db8568bab5dd9f9c34ed04b0f769daf451feb47960010262002fd7565b62001fdb620075d5565b73ffffffffffffffffffffffffffffffffffffffff168173ffffffffffffffffffffffffffffffffffffffff16141515620020a4576040517f08c379a000000000000000000000000000000000000000000000000000000000815260040180806020018281038252602f8152602001807f416363657373436f6e74726f6c3a2063616e206f6e6c792072656e6f756e636581526020017f20726f6c657320666f722073656c66000000000000000000000000000000000081525060400191505060405180910390fd5b620020d27fef1f4435b8ae57ba06f31930b3fb8c9cc004c60b2991c9854f356fda1be49d1b60010262002fd7565b620020ff7e8e26e72734111ca057d72127912f0212f88739a7285da44b27658c44d821cd60010262002fd7565b6200212d7f84b91bc6cd4d63b8761ad13257c7207720ef3cd77d61117e543c387736916e5e60010262002fd7565b62002139828262007d01565b5050565b60606200216d7f3bfca3da8a738e97b8d886da18a71c0cf0181e5451dd251db086ded623a858c3600102620026e7565b6200219b7f87c7f9574e9f862bb7bf3b9ab9305e831b38f1da0ed3d427966be43fa0f4b2f4600102620026e7565b620021c97f293cc16895c033ce2f757f7593eac138ff75c77899c8072dab9b48949ff7809c600102620026e7565b6000620021f97feadf27bffebf2c2d2002a7d7539979d6420915a24d053060d9f36bba807057ac600102620026e7565b620022277fb35829b702072203f709e0748491c3f1b289b2aae4713cfc8360dbe699b8a964600102620026e7565b60008090505b609b80549050811015620025ee57620022697f635141b229dc79ffa55ded2a64ea2b76683daa859141926eb8f581ca170114e1600102620026e7565b620022977fb196c774e48dbc0b072c431372a3db70bdaf6e5afd2490fd4ba1473269964650600102620026e7565b600060e260008681526020019081526020016000206000609b84815481101515620022be57fe5b9060005260206000200160009054906101000a900473ffffffffffffffffffffffffffffffffffffffff1673ffffffffffffffffffffffffffffffffffffffff1673ffffffffffffffffffffffffffffffffffffffff16815260200190815260200160002080549050148015620023b15750600060a76000609b848154811015156200234657fe5b9060005260206000200160009054906101000a900473ffffffffffffffffffffffffffffffffffffffff1673ffffffffffffffffffffffffffffffffffffffff1673ffffffffffffffffffffffffffffffffffffffff16815260200190815260200160002060040154115b80156200245f575060016004811115620023c757fe5b60a76000609b84815481101515620023db57fe5b9060005260206000200160009054906101000a900473ffffffffffffffffffffffffffffffffffffffff1673ffffffffffffffffffffffffffffffffffffffff1673ffffffffffffffffffffffffffffffffffffffff16815260200190815260200160002060060160009054906101000a900460ff1660048111156200245d57fe5b145b15620025b157620024937fc67660cf410419900083eb1200a11fb544ab29325f82f01a3cbdb8b6ddf7116c600102620026e7565b620024c17fda196891401d4a117d4158caba9e18b0eb05950b8249b583e45ea05c3681bacf600102620026e7565b620024ef7fc062c3862d8b40cba4e6844b040853a31c3eb30841289529fa726d8c6956cebe600102620026e7565b609b81815481101515620024ff57fe5b9060005260206000200160009054906101000a900473ffffffffffffffffffffffffffffffffffffffff1683838151811015156200253957fe5b9060200190602002019073ffffffffffffffffffffffffffffffffffffffff16908173ffffffffffffffffffffffffffffffffffffffff1681525050620025a37f25c9d0ffdc168da5ca5a9edfe4529e7b902a78a5f6c9647ce9cb177f02a8ac3e600102620026e7565b8180600101925050620025e0565b620025df7f30be0bc5f9b6350dfe8facb2ea36a5912023737f69cd70a479e75f62f9251417600102620026e7565b5b80806001019150506200222d565b5050919050565b60008060008060006200262b7fb8d6fe4d206a56650f24d72f070f71bdbd4efc05528abdcbdf6afc84c501f49f60010262005e69565b620026597fb99a31350ae3897b0324900b09a8f7d7bb6fa19f90c71b319f378a95557fb7a560010262005e69565b620026877f4ca501c0cb561651c33ae36670e607a28c9eb1fb76b011947bd0e9074831149b60010262005e69565b60a460009054906101000a900463ffffffff1660a460049054906101000a900463ffffffff1660985460995460a660009054906101000a900473ffffffffffffffffffffffffffffffffffffffff16945094509450945094509091929394565b50565b60006200271a7fe963ba32f3b2b2511f3b61c6a1cf8ec3b8865be585223e913dad37234ec3dba760010262006c22565b620027487f4b1da260cff4143833d6e35ffde5e36b26a94146d2f068d1b4ae37ca6d0e944060010262006c22565b620027767f5303ee691770746a94c441c3c1db6f6814117793a7840e90eb05ab2e6493106360010262006c22565b620027b760405180807f4f50455241544f52000000000000000000000000000000000000000000000000815250600801905060405180910390208362003ab2565b9050919050565b620027ec7fa0a2fde32d4e52005b78eac14a1ab6ae68b38ec56c08824fdb8abe489653882d60010262006c22565b6200281a7f1879b1107adb408f8af76f8f45ac4e99c6f1bcc9102431bca363de52c073b1dd60010262006c22565b620028487fd7067e1fc31ce2497d1aad67288494aad7eff15e9ad64f38f62ac1f19443069160010262006c22565b620028767f789ba8c5ad5c32a80dfff31774c44fcc100d45bdb016459c014ebdcb9ac2422260010262006c22565b6200288a62002884620075d5565b62001add565b1515620028ff576040517f08c379a00000000000000000000000000000000000000000000000000000000081526004018080602001828103825260158152602001807f5265737472696374656420746f2041646d696e732e000000000000000000000081525060200191505060405180910390fd5b6200292d7f02ecd88ec5aa7f79e1b04fa2d5196f70633b82efea766ec554a5367eb186c0ed60010262006c22565b6200295b7ffd7e2637835a60722c80d268652d57225b15dde47b888629fcd49b6f443284bc60010262006c22565b620029897fc04152ee14431e8518d6e1e3408bae4047950f36986878ba23f2b59e8842f0de60010262006c22565b620029b77f601f3a50cc2b63877d5d7c9ae87face277a00a3ba6a3868f835b1048a156698f60010262006c22565b620029e57f6b6789300eb743a8447edde74dfce42f76d507d74fabf8555209106a6cf6835d60010262006c22565b620029f560006001028262001d01565b50565b600080600080600062002a2e7f9a41d87efab0cc27782b615da93830a718cef13deaef96d471626a31bc8fd1c560010262005e69565b62002a5c7f83728831cbe135a745eed85073fc558befbea13a19d4b9770fbee58287534bdd60010262005e69565b62002a8a7fc3e2b999117295b9bea137cbb921b04192f0066fbf1fd2c9d79ed9b0727eb57760010262005e69565b600060a86000888152602001908152602001600020905062002acf7f4e2b16b1b0644f6bc3a47b05ab1e8597b115c2a72699bdc20fad556b9cccc4fe60010262005e69565b62002afd7fb166f02045665ffa2ad499d796c42e71b1b8174bac0c60c1db73500d1a05cce160010262005e69565b806000015481600101548260020160009054906101000a900473ffffffffffffffffffffffffffffffffffffffff1683600301548460040154955095509550955095505091939590929450565b50565b60008062002b7e7fa2403f20be91a7804397e7ab7bc81e5fc9bc0618a4fcced4ff51fa86c96e979460010262001cfe565b62002bac7f01f1db6c9eaeeed975bc08895d49484d16b7fafc9293c2abec87618c7b0847b660010262001cfe565b62002bda7fb552db9bdb93afb63a00691fb07e94c940edec38a20f346152b9611a90c325e160010262001cfe565b600060e06000858152602001908152602001600020905062002c1f7f9ae4b6334e7aec4e0e41059fc0ac9236c05d76dc68dbd077b1c40d29966471b360010262001cfe565b62002c4d7fe4e823fd9ceebedc9d0b8b348c80a7414b6f0e165a02fabd9cd5a8e36d48819960010262001cfe565b60df600082600184805490500381548110151562002c6757fe5b9060005260206000209060029182820401919006600c029054906101000a90046bffffffffffffffffffffffff166bffffffffffffffffffffffff16815260200190815260200160002060020154915062002ce57fe252ba52da0f2b20c29f245fb298abc21c8250b67427122e5966ad8a5dbe66fc60010262001cfe565b62002d137fa8ed851e73668854f81601270ea988891ee70db828dc8a984e387c9e57d6234060010262001cfe565b60df600082600081548110151562002d2757fe5b9060005260206000209060029182820401919006600c029054906101000a90046bffffffffffffffffffffffff166bffffffffffffffffffffffff16815260200190815260200160002060010154925050915091565b6000806000806000806000606062002db87fef0ee839a87e09beff700b1545467b1e7edec5145e69a952185625b7febbbeaf60010262006c22565b62002de67fbdf835ee0fe59519e68e959a2766d368864459c142b651dc6d6cc62e98a4928760010262006c22565b62002e147fd14e8c1d0c70855f3f901075500965984cbea219b1fa4a42db605c475f4bbee460010262006c22565b62002e427fbe47793fa43a6c9d58b424bbf96d50fa4160ae78cfe3c5dd4bc34ba1ea72138660010262006c22565b62002e5662002e50620075d5565b620026ea565b151562002ecb576040517f08c379a00000000000000000000000000000000000000000000000000000000081526004018080602001828103825260188152602001807f5265737472696374656420746f204f70657261746f72732e000000000000000081525060200191505060405180910390fd5b62002ef97f241ba548cc8253817305eb6cbd99b145edfcecbfaeaba1576d256fce484d5ab260010262006c22565b62002f277fc0aad2c1f4c71d0d45099bfc691c3cd5b001f96af75e9e3b342f389f86c2614760010262006c22565b62002f557f70d77b68c0a367a957414181dfb514e69157ff1db22c0868714ad171691f7d6e600102620026e7565b62002f837f12d4cf75664f5eb5efa3d611f4a633fe7e6eb16309f57f7861084a1d347873b6600102620026e7565b62002fb17fc1698c6bcb9d0697d99b1c75d4d7c8e96a26211a618077f3d71c63d08eb2d437600102620026e7565b62002fbc8962007ee2565b97509750975097509750975097509750919395975091939597565b50565b620030087fb10bf9abe0342730296765bd2cd0c9a5ea98992024bec04a1e36f58f5212602760010262006c22565b620030367f13cdd538e624b7d3380c6e79d8ae423ccc25837f48aea5f0afebdca7d08c9e2160010262006c22565b620030647feffda485d19a3eece6b6ab860484e848f4781862b85aaf4178964fcf82bb3e1f60010262006c22565b600062003070620075d5565b9050620030a07fd305479b9236377cf73a5d394ccf7d8ebb342e79057de6f3af2c3b15863e347660010262006c22565b620030ce7f54e2adec838f13b8c41b63532dfb234d73146cef7c6d4dc56417ec750b152bc860010262006c22565b620030de60006001028262001f19565b6200310c7f10d7e6b9abf0c13960f1fcdef995a1a8debb8dbc4ed163ef221a165b3d59468360010262006c22565b6200313a7f0e8361c658bbe95bda7c8ac89921bb11b3eed534bab0829cfc58c24e0c0450b360010262006c22565b6200317b60405180807f4f50455241544f52000000000000000000000000000000000000000000000000815250600801905060405180910390208262001f19565b50565b6000620031ae7fef0ee839a87e09beff700b1545467b1e7edec5145e69a952185625b7febbbeaf60010262006c22565b620031dc7fbdf835ee0fe59519e68e959a2766d368864459c142b651dc6d6cc62e98a4928760010262006c22565b6200320a7fd14e8c1d0c70855f3f901075500965984cbea219b1fa4a42db605c475f4bbee460010262006c22565b620032387fbe47793fa43a6c9d58b424bbf96d50fa4160ae78cfe3c5dd4bc34ba1ea72138660010262006c22565b6200324c62003246620075d5565b620026ea565b1515620032c1576040517f08c379a00000000000000000000000000000000000000000000000000000000081526004018080602001828103825260188152602001807f5265737472696374656420746f204f70657261746f72732e000000000000000081525060200191505060405180910390fd5b620032ef7f241ba548cc8253817305eb6cbd99b145edfcecbfaeaba1576d256fce484d5ab260010262006c22565b6200331d7fc0aad2c1f4c71d0d45099bfc691c3cd5b001f96af75e9e3b342f389f86c2614760010262006c22565b6200334b7ff9a7814f3e2128b273ffcdfa81637e379c2a1981df4c6e59fec9b6245d47c9e0600102620026e7565b620033797f1e2aaf62b6281a97b18530cb213bda0601371660f3ccd5e7650ba7a2a2dc290e600102620026e7565b620033a77f79944a3a0ce64be580f5c2533f6224bb4c8f6e55ab08c38311bc3b0de15147ce600102620026e7565b620033d57f84142ada7d54f8294d982d77e84c506e4ebf71a6e6a8929dc6468cdca254b20d600102620026e7565b60e7600083815260200190815260200160002060009054906101000a900460ff1615151562003492576040517f08c379a00000000000000000000000000000000000000000000000000000000081526004018080602001828103825260308152602001807f476c7577615072697a654c696e6b65644163636f756e743a205072697a65206881526020017f6173206265656e2070616964206f75740000000000000000000000000000000081525060400191505060405180910390fd5b620034c07fdd2e85517e667d030ccb809dc02f3543108e2a5e70dd927f77c9a8a594e91b10600102620026e7565b620034ee7fa31b1a46fe654b8214ce8780cb04e88051018ff49ed0d929639c54af16d37a03600102620026e7565b6200351c7f6b1d3517277c6dae7c17baff232a77586dc13e733d24d39144b09aff7ecff630600102620026e7565b6000620035298362006c25565b9050620035597fb55f637aec5ea17df8d730c46751dbfa10f5154ff466b43dac32633057596736600102620026e7565b620035877f8f43cc292f22eccf19fb0e91fd36c4e31d3a3ea377ca734b6268c612006c6c0c600102620026e7565b60006200360b60a460049054906101000a900463ffffffff1663ffffffff16620035fc60a460009054906101000a900463ffffffff1663ffffffff16620035ed60e660008a81526020019081526020016000205460de546200812890919063ffffffff16565b620081b390919063ffffffff16565b6200828490919063ffffffff16565b90506200363b7f1699edaedc9a0279b78810e72027cdfd7548ce0ba68adcab7134bc7a2924de71600102620026e7565b620036697ffbb2231a60b23c47f6efeb95679d935eb66f00ee07b920f2b12efafb0b77bfcc600102620026e7565b600160e7600086815260200190815260200160002060006101000a81548160ff021916908315150217905550620036c37fc99db7348e08c2dce72ee319f4479aa75684efefd9d0d1b65a7c7624a979a7a8600102620026e7565b620036f17fdffdb994ba241c0319ac950942effbd59462326ed703faabd0e960b73b1a4c3d600102620026e7565b600073ffffffffffffffffffffffffffffffffffffffff168273ffffffffffffffffffffffffffffffffffffffff161415156200382b57620037567fa337749e228df36ace39ec8cca41156db675ecdaa278a7102af22533d9cead65600102620026e7565b620037847f773ce85b7115cef543d21a7e35b7e56f5bfeb18b7606af9f40cf94f7e5a004f4600102620026e7565b620037b27f8086c418f96dadbd3afe651200481727a02fee8e48a091362c121f36917961b3600102620026e7565b600060de81905550620037e87f64c8445c55b7a04f7a329da3dfe0bdf4e69bccdcf81f17eea6cbc1cdb1156661600102620026e7565b620038167f5ebd6d88fb36938184f1410d949c16a4bc91cb13d0f07cb98645fab8352643c8600102620026e7565b6200382482826001620075dd565b50620038c6565b620038597f5e8f52e2588f032fb0401ec72f140df28676aa3e443604207fb07411f4970485600102620026e7565b620038877f756d4697b99f9470f2788e3d48f1981b182d2f71a8abffb308cfa8bc5140abc9600102620026e7565b620038b57f27fd17f8241eb741602bcbf29405d1096a5a1e5ba53cb986b997c65dfbce6bac600102620026e7565b8060de600082825401925050819055505b620038f47f2b542bfe75d9773d4aa5b87ce095933ae3dae71347b73449f5da958e6aa9c6e6600102620026e7565b620039227f4e5d758321caddaa3eccdfa5f9696124b9bca2a340cc5db0b7f8832cc8528a3a600102620026e7565b7f75060f9e79552df167b73353fee6237a75bb5ba8ea022f77224e32f152138bcb8282604051808373ffffffffffffffffffffffffffffffffffffffff1673ffffffffffffffffffffffffffffffffffffffff1681526020018281526020019250505060405180910390a1620039bb7f4363280b0a384857f09298a15e7386e37bdd16a30ec1ad29a81042957a4eacc3600102620026e7565b620039e97f2241b8f0ff18451fb7bff58b2e558fb4fdca50e58953697a16cf8228d0443a2d600102620026e7565b600192505050919050565b600062003a247fc538a949ad73d85fa871d4fe7b7caf55c98db10decb79e8201e5b229bf49f8d960010262002fd7565b62003a527f35ef7fe8d6d02844d6863bb6c55f0d1e296384393834f2824348a5a3fe583ff960010262002fd7565b62003a807fe3926445fba9229f612ea4ab3450183300047551d9413fe24bf861e541ee22b460010262002fd7565b62003aaa8260336000868152602001908152602001600020600001620082d090919063ffffffff16565b905092915050565b600062003ae27ffc62441d050a63d198d2f97f5a25bb420519fd407e5d50f08312815303d5dd2160010262002fd7565b62003b107fd64e96f3e91efc239c01bf30d1d8ff0775b4d6b65061ba43ed41ed007d27623960010262002fd7565b62003b3e7f8ef3a2c3240e4fed75685458a30e1852c1e366c8a3b897910fa24f0e9c12a39360010262002fd7565b62003b6882603360008681526020019081526020016000206000016200837790919063ffffffff16565b905092915050565b62003b9e7fa0a2fde32d4e52005b78eac14a1ab6ae68b38ec56c08824fdb8abe489653882d60010262006c22565b62003bcc7f1879b1107adb408f8af76f8f45ac4e99c6f1bcc9102431bca363de52c073b1dd60010262006c22565b62003bfa7fd7067e1fc31ce2497d1aad67288494aad7eff15e9ad64f38f62ac1f19443069160010262006c22565b62003c287f789ba8c5ad5c32a80dfff31774c44fcc100d45bdb016459c014ebdcb9ac2422260010262006c22565b62003c3c62003c36620075d5565b62001add565b151562003cb1576040517f08c379a00000000000000000000000000000000000000000000000000000000081526004018080602001828103825260158152602001807f5265737472696374656420746f2041646d696e732e000000000000000000000081525060200191505060405180910390fd5b62003cdf7f02ecd88ec5aa7f79e1b04fa2d5196f70633b82efea766ec554a5367eb186c0ed60010262006c22565b62003d0d7ffd7e2637835a60722c80d268652d57225b15dde47b888629fcd49b6f443284bc60010262006c22565b62003d3b7ff44ed11abb9d946c2a432fbe662d20f04907a2376ad219db63c38ca689de88f660010262006c22565b62003d697fa3b8cd17878a18b96beb23c675e90566c628339c690cc02fef2e6714e599336b60010262006c22565b62003d977fd043dcbf206250dd68a1ab9b20e9de58383ca14921d02cd31d12f14d0bb0283160010262006c22565b62003dd860405180807f4f50455241544f52000000000000000000000000000000000000000000000000815250600801905060405180910390208262001d01565b50565b6000806000806000806000606062003e167f041147629463f6e0c13e8ca4166a2b5a8b446ac5719c470051757b4feb502f1f60010262005e69565b62003e447f3fd7aa65e03ed2344eb3fa764176d1b28a4ca40d8010176ce7b36e7532250c6e60010262005e69565b62003e727f17b6405cea1f8b1c87f130fefc195e5fa52bc3b4580a0f3bba8cc7fda027501460010262005e69565b62003e8662003e80620075d5565b62007ee2565b975097509750975097509750975097509091929394959697565b600060010281565b600062003ed87fef0ee839a87e09beff700b1545467b1e7edec5145e69a952185625b7febbbeaf60010262006c22565b62003f067fbdf835ee0fe59519e68e959a2766d368864459c142b651dc6d6cc62e98a4928760010262006c22565b62003f347fd14e8c1d0c70855f3f901075500965984cbea219b1fa4a42db605c475f4bbee460010262006c22565b62003f627fbe47793fa43a6c9d58b424bbf96d50fa4160ae78cfe3c5dd4bc34ba1ea72138660010262006c22565b62003f7662003f70620075d5565b620026ea565b151562003feb576040517f08c379a00000000000000000000000000000000000000000000000000000000081526004018080602001828103825260188152602001807f5265737472696374656420746f204f70657261746f72732e000000000000000081525060200191505060405180910390fd5b620040197f241ba548cc8253817305eb6cbd99b145edfcecbfaeaba1576d256fce484d5ab260010262006c22565b620040477fc0aad2c1f4c71d0d45099bfc691c3cd5b001f96af75e9e3b342f389f86c2614760010262006c22565b620040757fb7508c6281d862d12653a99825badeae87d838dd53954057ac5d16f47dc4086560010262002b4a565b620040a37f9005074dc6b291cf2c7bc4021ba9c656db0c7bfb600e58ea700541afd42f739260010262002b4a565b620040d17f13b239aafe4c1ff3a6949aa4788605026ae088dae2f505c10bcf9a26b1ea9fbe60010262002b4a565b8160e5600085815260200190815260200160002081905550620041177f7c6f8eb2bd481dca6e059f52afb4924d8e41afc6ee328b9cee362177018a987960010262002b4a565b620041457fa08cd861dda6f1547b7e15c829ee8b99207e026f6baec4f3d05fc5d7b7d1dc6960010262002b4a565b81905092915050565b6200417c7fef0ee839a87e09beff700b1545467b1e7edec5145e69a952185625b7febbbeaf60010262006c22565b620041aa7fbdf835ee0fe59519e68e959a2766d368864459c142b651dc6d6cc62e98a4928760010262006c22565b620041d87fd14e8c1d0c70855f3f901075500965984cbea219b1fa4a42db605c475f4bbee460010262006c22565b620042067fbe47793fa43a6c9d58b424bbf96d50fa4160ae78cfe3c5dd4bc34ba1ea72138660010262006c22565b6200421a62004214620075d5565b620026ea565b15156200428f576040517f08c379a00000000000000000000000000000000000000000000000000000000081526004018080602001828103825260188152602001807f5265737472696374656420746f204f70657261746f72732e000000000000000081525060200191505060405180910390fd5b620042bd7f241ba548cc8253817305eb6cbd99b145edfcecbfaeaba1576d256fce484d5ab260010262006c22565b620042eb7fc0aad2c1f4c71d0d45099bfc691c3cd5b001f96af75e9e3b342f389f86c2614760010262006c22565b620043197f9dcd3ebaba0908df6d509a8936302919db871e4c97aa6312946dc657a9c89054600102620026e7565b620043477fd57f88ee5146d6830a52ac20e721981b7fbb0e436ec5bb53169956ce95d623ea600102620026e7565b620043757fb30f1aac961533c92f334952ad3dccdf2b7404ab6092303bb4ff696323eee4d7600102620026e7565b8561011a60026101000a81548161ffff021916908361ffff160217905550620043c17fb186dff979fb354ec642140fe42b22543fe813bc664637b7332104df9357586a600102620026e7565b620043ef7fe33882350298b6bc21fd5ea0c72c79c7e8f19b7c967fd373451dd5da795b7e6a600102620026e7565b8261011a60046101000a81548163ffffffff021916908363ffffffff1602179055506200443f7f61a7325aadee7f6db4af5c033fe235e9845b8534b7faa31efacc22d4887cb423600102620026e7565b6200446d7ffd117a1522bed51dda690b0dc63ef5933cff3947c5e606a451f9cd0f803f049a600102620026e7565b8061011a60006101000a81548160ff021916908360ff160217905550620044b77f1e2e90becb699706d1ad2d7e7f2ff80c1f143c6a5bda7e7a15df70ba7c4e24f2600102620026e7565b620044e57fc3a9dcf2d9043ee650f3682952b97f8ecce045e1342d09a7150d78033d052f8c600102620026e7565b620044f38a8a8a8a62008433565b620045217f8d628599c60912b332cc244d14014752d620afc5574db91e1ac09b8a11944340600102620026e7565b6200454f7f5cf4bc71d9c12238d7f4577f202d7eb3d73b4e40efdf95d8bdcbb3c98fbc324a600102620026e7565b6200455c85858462008627565b50505050505050505050565b6000620045987f87da49d6dbf3dc25f33a5da747ad282ca057a11d49c7125c9b65c311ddbf0761600102620026e7565b620045c67f2089262ab22a06f75537005f33d6e3979ed545185716e3c3df9434ede6e19376600102620026e7565b620045f47f2b4f10e66d2f86ef4895608718a6169b57957d9b6d8a1c94aef3885c8bab856b600102620026e7565b60de54905090565b6200462a7fa0a2fde32d4e52005b78eac14a1ab6ae68b38ec56c08824fdb8abe489653882d60010262006c22565b620046587f1879b1107adb408f8af76f8f45ac4e99c6f1bcc9102431bca363de52c073b1dd60010262006c22565b620046867fd7067e1fc31ce2497d1aad67288494aad7eff15e9ad64f38f62ac1f19443069160010262006c22565b620046b47f789ba8c5ad5c32a80dfff31774c44fcc100d45bdb016459c014ebdcb9ac2422260010262006c22565b620046c8620046c2620075d5565b62001add565b15156200473d576040517f08c379a00000000000000000000000000000000000000000000000000000000081526004018080602001828103825260158152602001807f5265737472696374656420746f2041646d696e732e000000000000000000000081525060200191505060405180910390fd5b6200476b7f02ecd88ec5aa7f79e1b04fa2d5196f70633b82efea766ec554a5367eb186c0ed60010262006c22565b620047997ffd7e2637835a60722c80d268652d57225b15dde47b888629fcd49b6f443284bc60010262006c22565b620047c77f0ccac8621a40ca7b127c6496eeb6b54e74cc4e17a98af94873762388c2e983e660010262006c22565b620047f57f538432c19549aadca9e46abd21c2247ce49f9f0f49908507b517e89a1ba9fef260010262006c22565b620048237f3bd31538f2a58cfe062227505d07a18feb1647396af308980226ca2806c11fb560010262006c22565b6200486460405180807f4f50455241544f5200000000000000000000000000000000000000000000000081525060080190506040518091039020826200640e565b50565b600060019054906101000a900460ff16806200488957506200488862008885565b5b80620048a157506000809054906101000a900460ff16155b15156200493c576040517f08c379a000000000000000000000000000000000000000000000000000000000815260040180806020018281038252602e8152602001807f436f6e747261637420696e7374616e63652068617320616c726561647920626581526020017f656e20696e697469616c697a656400000000000000000000000000000000000081525060400191505060405180910390fd5b60008060019054906101000a900460ff1615905080156200498d576001600060016101000a81548160ff02191690831515021790555060016000806101000a81548160ff0219169083151502179055505b620049bb7f38aa1305f603f4ec08f0e4e11f69069f63ae3318a871bba30db256cdc9701874600102620026e7565b620049e97f3cfc783a768408811455978caa9bf7d2f198eebdd422fd62ea3537cc5c7f4533600102620026e7565b62004a177f87139bea7643af40218a01fa7ade30f3ec6fe61ce26abba96facd71ebea4e5b7600102620026e7565b62004a228c6200889c565b62004a507fa24ff5d5ddf6b0e988cd3145ba25ea07c21af6331d64ae60062e8b3bf2c71ca0600102620026e7565b62004a7d7eae86eb8a82d9d303ee81cecbaa16974e0f4469c91181b35f6455d7f42c1b22600102620026e7565b62004a8b8b8b8b8b62008bc0565b62004ab97fd72a66890c40fefe30f927585bdeeb15194b75a4d128f72fbfb3f6c1d557a38d600102620026e7565b62004ae77ffd59fab6f8cd36f5f943b422c5fbd96eb2b33de9ecaca34851022949376930fc600102620026e7565b62004af486868562009073565b62004b227f8036142f2efb1cbc647271efa76af1b3bf51bcd65d01a63b2fe6018b72819d47600102620026e7565b62004b507fe926403e836de734cafa7b0650b0d63c278a1c386a5fedad274480384076c590600102620026e7565b8361011a60046101000a81548163ffffffff021916908363ffffffff16021790555062004ba07f368099d1d25419c5f165811893069d50b1bef4a52e6fb1473e5347f2da054c1b600102620026e7565b62004bce7f718e552333072fe9f0e280503446b85db4d397dcbbd7da5534687e68eb4ab046600102620026e7565b60a660009054906101000a900473ffffffffffffffffffffffffffffffffffffffff1673ffffffffffffffffffffffffffffffffffffffff1663313ce5676040518163ffffffff167c010000000000000000000000000000000000000000000000000000000002815260040160206040518083038186803b15801562004c5357600080fd5b505afa15801562004c68573d6000803e3d6000fd5b505050506040513d602081101562004c7f57600080fd5b810190808051906020019092919050505061011a60016101000a81548160ff021916908360ff16021790555062004cd97fe567cdfe173eb10f1bee6c3048ad125eea33fb649703b5d955d49a30030c1fda600102620026e7565b62004d077f2b20609d45adc11ac7cc8aede05ca1affe0d5abb1a348923d89737fa82a62666600102620026e7565b8661011a60026101000a81548161ffff021916908361ffff16021790555062004d537f729930684f397b559dde247f5e52caff319c923c621ba0382ade087b79641324600102620026e7565b62004d817f08647ebbc4d563afe348610b41eebd13565e1f301848af7da8ccbeed59ef98bd600102620026e7565b8161011a60006101000a81548160ff021916908360ff160217905550801562004dbf5760008060016101000a81548160ff0219169083151502179055505b505050505050505050505050565b600062004dfd7f79c71ca22ffb61c2c72e4170a9b068447cbcb91e3747b1e362391715cd8d94cb600102620026e7565b62004e2b7f8a16c72f3d08964d4b71e36810ab99653e2f46d2a9bf826bd1cd8478aba4ccdf600102620026e7565b62004e597f4c5a6d99af1d45b4628e99e4b269c0176ad4768b1613c46f64919d4f12c5b500600102620026e7565b600062004e897f9abe30724f1c1e411ce654e9058954211a49ab0e32f5e13424885f9897054210600102620026e7565b62004eb77f87ab8e0fce645dd5495297a7416c7077ce2f4d6c38f22b9b86c55bc452159993600102620026e7565b60008090505b609b80549050811015620054295762004ef97f3016d6c65356c6bd6072f49bf42e8a5a55948337998dc23426da3360cf2578ed600102620026e7565b62004f277f63690ab96e941ffb1f96dfb7a8fcf5c5b8710583e7cb9e1cc190cc5a7dee6578600102620026e7565b600060e260008681526020019081526020016000206000609b8481548110151562004f4e57fe5b9060005260206000200160009054906101000a900473ffffffffffffffffffffffffffffffffffffffff1673ffffffffffffffffffffffffffffffffffffffff1673ffffffffffffffffffffffffffffffffffffffff16815260200190815260200160002080549050148015620050415750600060a76000609b8481548110151562004fd657fe5b9060005260206000200160009054906101000a900473ffffffffffffffffffffffffffffffffffffffff1673ffffffffffffffffffffffffffffffffffffffff1673ffffffffffffffffffffffffffffffffffffffff16815260200190815260200160002060040154115b8015620050ef5750600160048111156200505757fe5b60a76000609b848154811015156200506b57fe5b9060005260206000200160009054906101000a900473ffffffffffffffffffffffffffffffffffffffff1673ffffffffffffffffffffffffffffffffffffffff1673ffffffffffffffffffffffffffffffffffffffff16815260200190815260200160002060060160009054906101000a900460ff166004811115620050ed57fe5b145b15620053ec57620051237f5a6933ab24684a28b8245d9e8f5de430c12f8739fc19593243d1dcfbd07f32aa600102620026e7565b620051517f20cca562ee167233012a43d4054b1386074f09acb3ca01b39fb39ef8615d4a9d600102620026e7565b6200517f7f1d5c2fc305a56d3933adc82453ebbf4709053dacad61e77b46885b557845fdb2600102620026e7565b620052c9609b828154811015156200519357fe5b9060005260206000200160009054906101000a900473ffffffffffffffffffffffffffffffffffffffff168560a76000609b86815481101515620051d357fe5b9060005260206000200160009054906101000a900473ffffffffffffffffffffffffffffffffffffffff1673ffffffffffffffffffffffffffffffffffffffff1673ffffffffffffffffffffffffffffffffffffffff16815260200190815260200160002060040154620052c360a76000609b888154811015156200525457fe5b9060005260206000200160009054906101000a900473ffffffffffffffffffffffffffffffffffffffff1673ffffffffffffffffffffffffffffffffffffffff1673ffffffffffffffffffffffffffffffffffffffff168152602001908152602001600020600401546200941a565b620094e7565b50620052f87f97967807be6d59c3069d8adefa9d23201decd26da8cb1b79524f45d5e766e33c600102620026e7565b81806001019250506200532e7fb42a73083c1befee3c06cea8ca58d55bf5f0c4fe40bbdf9e078a6c1cafcfc002600102620026e7565b6200535c7f86da3b46068b1b4eef8dae5b202d50a68d300e07f61dd1cdd8d8938a9638e692600102620026e7565b61011a60049054906101000a900463ffffffff1663ffffffff168263ffffffff161115620053b857620053b27f13ea2cdaa440f6fff8cadc87063b2dd45cf0519f18e3ebc8c0ffe1715d6db4bd600102620026e7565b62005429565b620053e67f656401ae8e12b08b6194a3767491f65e90ce406531175a631237523fb0536f0a600102620026e7565b6200541b565b6200541a7f0d0494f3813a25cd964f7c272cdf7778e5ebe34f82c85fa900174a4ec414bb79600102620026e7565b5b808060010191505062004ebd565b50620054587f20c8a1a4e166c098a418f14ca157f928aa778528e3a57712569ec38b5249043e600102620026e7565b620054857e15b3931a5cbcfdb94468d8463d57e10b927ff3f5dec27f29fed6582db46123600102620026e7565b8063ffffffff16915050919050565b6000620054c47fef0ee839a87e09beff700b1545467b1e7edec5145e69a952185625b7febbbeaf60010262006c22565b620054f27fbdf835ee0fe59519e68e959a2766d368864459c142b651dc6d6cc62e98a4928760010262006c22565b620055207fd14e8c1d0c70855f3f901075500965984cbea219b1fa4a42db605c475f4bbee460010262006c22565b6200554e7fbe47793fa43a6c9d58b424bbf96d50fa4160ae78cfe3c5dd4bc34ba1ea72138660010262006c22565b620055626200555c620075d5565b620026ea565b1515620055d7576040517f08c379a00000000000000000000000000000000000000000000000000000000081526004018080602001828103825260188152602001807f5265737472696374656420746f204f70657261746f72732e000000000000000081525060200191505060405180910390fd5b620056057f241ba548cc8253817305eb6cbd99b145edfcecbfaeaba1576d256fce484d5ab260010262006c22565b620056337fc0aad2c1f4c71d0d45099bfc691c3cd5b001f96af75e9e3b342f389f86c2614760010262006c22565b620056617f9f47ee9737d89ff0242a68b7cfa5ae2dd49bb41a6f3a6ca42c5abffd6dbe6418600102620026e7565b6200568f7f7f59b1297d5b740655dc346f6341fdbc5ee407f25bbc5b9059255776fafc833c600102620026e7565b620056bd7f539ea9aec3adda5610bcee799e95f29b7a763087820d1100cbecea8a188275ea600102620026e7565b620056eb7f66b25eafbb57a9ed591bc2b2c8e13aaacb06ebb42cfa37a2944522c8bb08f132600102620026e7565b600073ffffffffffffffffffffffffffffffffffffffff168373ffffffffffffffffffffffffffffffffffffffff1614151515620057dd576040517f08c379a00000000000000000000000000000000000000000000000000000000081526004018080602001828103825260498152602001807f476c7577615072697a654c696e6b65644163636f756e743a205265636970696581526020017f6e74206164647265737320666f7220696e766573746d656e74206d757374206281526020017f6520646566696e6564000000000000000000000000000000000000000000000081525060600191505060405180910390fd5b6200580b7fcfec50d7da70a40a1c7bfad3aca4f1c73301a21d76f6921425ed20df12b15822600102620026e7565b620058397f04b0fe784a4f0f8284cbbb6b00b8736fad4b5e4b08045485932d0cdb6f64a3c6600102620026e7565b620058677fecd17d05735ae2a73f9b454e17709beb8e565eb859b471feea1e44f760f48fcc600102620026e7565b600060a660009054906101000a900473ffffffffffffffffffffffffffffffffffffffff1673ffffffffffffffffffffffffffffffffffffffff166370a08231306040518263ffffffff167c0100000000000000000000000000000000000000000000000000000000028152600401808273ffffffffffffffffffffffffffffffffffffffff1673ffffffffffffffffffffffffffffffffffffffff16815260200191505060206040518083038186803b1580156200592557600080fd5b505afa1580156200593a573d6000803e3d6000fd5b505050506040513d60208110156200595157600080fd5b81019080805190602001909291905050509050620059927f295c46218e620c5daa8d5dbdf215266d8734914a6e39fd167b64877d28d6e93a600102620026e7565b620059c07fd1cabf672aa44b4f1e7cf44aeae91874a3a9e3f430a0cb08ae7f562aace9debe600102620026e7565b620059ee7f9e71d6f95db452fd7ef52a04a444dbe6e7214372dc13c9c9d1e3f328ee6e4c4f600102620026e7565b62005a2b606462005a1c61011a60009054906101000a900460ff1660ff1684620081b390919063ffffffff16565b6200828490919063ffffffff16565b8382031015151562005b17576040517f08c379a000000000000000000000000000000000000000000000000000000000815260040180806020018281038252606b8152602001807f476c7577615072697a654c696e6b65644163636f756e743a2074686520696e7681526020017f6573746d656e7420616d6f756e742077696c6c206d616b652074686520746f7481526020017f616c2062616c616e6365206c6f776572207468616e2074686520626f74746f6d81526020017f207468726573686f6c642e00000000000000000000000000000000000000000081525060800191505060405180910390fd5b62005b457f291f76be806fc84ecd30794a1607931972db0f478acbf3f21afa996ee913648d600102620026e7565b62005b737fd9cbf58cab23258ee4b30affef65e399568676bfcab6fcde67983f7592df679f600102620026e7565b62005ba17f5bd917ccd4c942e0ae31ef82a31d9df1ddbdb554dfde2f720cff995c4ae17b26600102620026e7565b60a660009054906101000a900473ffffffffffffffffffffffffffffffffffffffff1673ffffffffffffffffffffffffffffffffffffffff1663a9059cbb85856040518363ffffffff167c0100000000000000000000000000000000000000000000000000000000028152600401808373ffffffffffffffffffffffffffffffffffffffff1673ffffffffffffffffffffffffffffffffffffffff16815260200182815260200192505050602060405180830381600087803b15801562005c6757600080fd5b505af115801562005c7c573d6000803e3d6000fd5b505050506040513d602081101562005c9357600080fd5b81019080805190602001909291905050505062005cd37fb9985cae29f5fb206a28fec9e4ddbd970bbb961cedcb0547cd4abe5fa8a7c87f600102620026e7565b62005d017f41e3925319947507f9485fc0981244fae56b0ab33235976fb8700db2e33706dc600102620026e7565b8373ffffffffffffffffffffffffffffffffffffffff167fc3f75dfc78f6efac88ad5abb5e606276b903647d97b2a62a1ef89840a658bbc3846040518082815260200191505060405180910390a262005d7d7f89c9a80d067154a3dd9ba8d2b69aeb97535b9b1a5331f955574ee713f8831ac7600102620026e7565b62005dab7fa41caa0bd5533d31a05edfc35789e455b9408d5dab9281a02839d594556a7f97600102620026e7565b600191505092915050565b600062005de67f9b2d7cec472af26dd1bd892afafe2be066b09e44a7474e6389d058285c4b959860010262002fd7565b62005e147f050340438b0b1f0f74eb1ff71edc211936f7fbfc40a7bf8e9ffa724dc49364f460010262002fd7565b62005e427fb74ad924ba00500175ccb9c922e90ece5516bede925bc063783bc6086080a70560010262002fd7565b62005e626033600084815260200190815260200160002060000162009e57565b9050919050565b50565b600062005e9c7fef0ee839a87e09beff700b1545467b1e7edec5145e69a952185625b7febbbeaf60010262006c22565b62005eca7fbdf835ee0fe59519e68e959a2766d368864459c142b651dc6d6cc62e98a4928760010262006c22565b62005ef87fd14e8c1d0c70855f3f901075500965984cbea219b1fa4a42db605c475f4bbee460010262006c22565b62005f267fbe47793fa43a6c9d58b424bbf96d50fa4160ae78cfe3c5dd4bc34ba1ea72138660010262006c22565b62005f3a62005f34620075d5565b620026ea565b151562005faf576040517f08c379a00000000000000000000000000000000000000000000000000000000081526004018080602001828103825260188152602001807f5265737472696374656420746f204f70657261746f72732e000000000000000081525060200191505060405180910390fd5b62005fdd7f241ba548cc8253817305eb6cbd99b145edfcecbfaeaba1576d256fce484d5ab260010262006c22565b6200600b7fc0aad2c1f4c71d0d45099bfc691c3cd5b001f96af75e9e3b342f389f86c2614760010262006c22565b620060397f4e3531303908a3189c7f0c3bbc5878a0da9aa30e41e04bc676e1bda022c01191600102620026e7565b620060677ff57a04441cd24e12f268de4011c4d0e7188523cd33e0f5997a4f057a72665cc7600102620026e7565b620060957f5f4824ce5e5993ca3f8fea6cdb43a0953dc1a377f6a582625aa6c84529c72849600102620026e7565b620060c37fd7d8455cb9b21ba155eab791736846eef2bfa1af713b85b64f3f879e266a13d6600102620026e7565b60a660009054906101000a900473ffffffffffffffffffffffffffffffffffffffff1673ffffffffffffffffffffffffffffffffffffffff166323b872dd8630876040518463ffffffff167c0100000000000000000000000000000000000000000000000000000000028152600401808473ffffffffffffffffffffffffffffffffffffffff1673ffffffffffffffffffffffffffffffffffffffff1681526020018373ffffffffffffffffffffffffffffffffffffffff1673ffffffffffffffffffffffffffffffffffffffff1681526020018281526020019350505050602060405180830381600087803b158015620061bd57600080fd5b505af1158015620061d2573d6000803e3d6000fd5b505050506040513d6020811015620061e957600080fd5b81019080805190602001909291905050501515620062bb576040517f08c379a000000000000000000000000000000000000000000000000000000000815260040180806020018281038252604d8152602001807f476c7577615072697a654c696e6b65644163636f756e743a20556e61626c652081526020017f746f2073656e6420616d6f756e7420746f206465706f73697420746f2061205381526020017f6176696e67204163636f756e740000000000000000000000000000000000000081525060600191505060405180910390fd5b620062e97fa885dbad3c273ca78cd1b5c51dfaf16f58ff56e3f355f4bc00906de13d98fc40600102620026e7565b620063177fa6e2e0fac632267809c1730876d0dd4dcb34e78490ca525e7fb6b8dfebf51e75600102620026e7565b620063457f2e791255a86b134d317ce1fd6d8593fc0619586385cc0169603ffb6e216963b1600102620026e7565b60006200639986864287878080601f016020809104026020016040519081016040528093929190818152602001838380828437600081840152601f19601f8201169050808301925050505050505062009ef8565b915050620063ca7f1c18fbe36c0bf21be8d23b67c95aa51d2dbeab294df7b1c0881a159f1af3ecff600102620026e7565b620063f87f01f98095bdb4871bd3cd472191fd2a3fffdc20a06d2c780c8e6682291d944467600102620026e7565b62006403816200af30565b915050949350505050565b6200643c7fd93c5a94a5b1886c0bb5575c3cca63b6410bf5cc633908251d561210acc14eaa60010262002fd7565b6200646a7f52b73aa8f50ab99b6810012a79aa4f25995f134e8c54dbcb5d80e568f5fdfbe760010262002fd7565b620064987f4de32a619436a15decb84a173b4469efaa235be2016b7657229d7bb4d915f16760010262002fd7565b620064c67fd8479504df472c40b9d2d46578fc0bad271dba561f3c3bfae8432ee4398cd9a860010262002fd7565b620064f16033600084815260200190815260200160002060020154620064eb620075d5565b62003ab2565b15156200658c576040517f08c379a00000000000000000000000000000000000000000000000000000000081526004018080602001828103825260308152602001807f416363657373436f6e74726f6c3a2073656e646572206d75737420626520616e81526020017f2061646d696e20746f207265766f6b650000000000000000000000000000000081525060400191505060405180910390fd5b620065ba7f056ca1d611325f492ec9a258615105c0c61c1935da3efbb61fbb153378d318dd60010262002fd7565b620065e87fb300cb213a808a8d25947dc127c3188ce2125091b485b407bb84a476fe38d0dc60010262002fd7565b620066167f7b5ca71ff0c3170626af9f1558f947e9704f6758fabb43f6074fe812966bce5660010262002fd7565b62006622828262007d01565b5050565b6060806000806200665a7fef6872b7cf5d5832d4404b57ead5c04c8db8431a90e4d9116f19c8bf3a05746460010262001cfe565b620066887f3bb4e67bac736895eaa7306b4ab726b9f1bc1022cd4634d239c351872fb4815760010262001cfe565b620066b67fb17422e971aa319c7d2165e56d3d9119609a26165a0a81fc2bed1ef19cbee9e960010262001cfe565b60e460008681526020019081526020016000208054806020026020016040519081016040528092919081815260200182805480156200674b57602002820191906000526020600020905b8160009054906101000a900473ffffffffffffffffffffffffffffffffffffffff1673ffffffffffffffffffffffffffffffffffffffff168152602001906001019080831162006700575b50505050509350620067807f7b73c3431c4ecc6d804b871693db956d30c583fd6afcaf6acef89e3bb75f6a1260010262001cfe565b620067ae7f4d016b50f801cbffa53cb3472a30dbf4311837400fbf71afaf9f17bc2bf6596060010262001cfe565b60e060008681526020019081526020016000208054806020026020016040519081016040528092919081815260200182805480156200684957602002820191906000526020600020906000905b82829054906101000a90046bffffffffffffffffffffffff166bffffffffffffffffffffffff16815260200190600c0190602082600b01049283019260010382029150808411620067fb5790505b505050505092506200687e7f152ac04a8ef050c89b86c08b744390c877da56cd3eef2f221696cfae74f2419c60010262001cfe565b620068ac7f05d8020ed77dd35974d85bb5dd9b137908a0d9c891535590811ce5a1bbbf352760010262001cfe565b60e56000868152602001908152602001600020549150620068f07f084d64cd933c61699f199bec00ba95f01c2cc72a58c8a946d9bdbbcb90263c4060010262001cfe565b6200691e7f7b9e4e2a27fd6da51f60883e7d09f7cf7664306c2c8dbe94b0bbefa3975ff6eb60010262001cfe565b60e660008681526020019081526020016000205490509193509193565b6000806000806200696f7f79df2ff67365d5391160ae5a2893e3380c8de315e2fcb57a03899bec46c5c0a4600102620026e7565b6200699d7fda47d1efda292bc1a50f6da0bc9bf1840289692ce433d83a3bf6d1ba426c6425600102620026e7565b620069cb7f902af90d001c6b1c4c8b19ae65e63a8f22f702b5ff2c1fbc3c84be450ac13a0d600102620026e7565b620069d6856200b3d6565b93509350935093509193509193565b600062006a157fef0ee839a87e09beff700b1545467b1e7edec5145e69a952185625b7febbbeaf60010262006c22565b62006a437fbdf835ee0fe59519e68e959a2766d368864459c142b651dc6d6cc62e98a4928760010262006c22565b62006a717fd14e8c1d0c70855f3f901075500965984cbea219b1fa4a42db605c475f4bbee460010262006c22565b62006a9f7fbe47793fa43a6c9d58b424bbf96d50fa4160ae78cfe3c5dd4bc34ba1ea72138660010262006c22565b62006ab362006aad620075d5565b620026ea565b151562006b28576040517f08c379a00000000000000000000000000000000000000000000000000000000081526004018080602001828103825260188152602001807f5265737472696374656420746f204f70657261746f72732e000000000000000081525060200191505060405180910390fd5b62006b567f241ba548cc8253817305eb6cbd99b145edfcecbfaeaba1576d256fce484d5ab260010262006c22565b62006b847fc0aad2c1f4c71d0d45099bfc691c3cd5b001f96af75e9e3b342f389f86c2614760010262006c22565b62006bb27f3a61ce631acefc061885100fa00827cc97b5c93817dbb40c3c277a766f34cf71600102620026e7565b62006be07f04d34a11a149fd12dcc7da00db4db2c6c5b46f8d538990fe8181738b95ade60e600102620026e7565b62006c0e7f6f2a40a642b8505b64d55c106502289b831617a327f48a5304fbf5ac6ecb2068600102620026e7565b62006c1a8383620076ec565b905092915050565b50565b600062006c557fde18cf5ff95ccd1fd548003d8652c920736f51b1ef72a3544b6c54e1967e87f060010262001cfe565b62006c837fd0a5d6fb8d3ba4582907d740423226a5ac609292ed08b7d22ddcd50ed81ba42760010262001cfe565b62006cb17f737c0350da452b140ec187f625132fc2adc8b4e7ac5f772b090ed53242722a3060010262001cfe565b62006cdf7f3db1f9df08495ff9779dcadf3469052982dee809a63210fc0a11af1ba6ab17e460010262001cfe565b600060e560008481526020019081526020016000205411151562006d91576040517f08c379a000000000000000000000000000000000000000000000000000000000815260040180806020018281038252602a8152602001807f476c7577615072697a65447261773a20746865206472617720686173206e6f7481526020017f206265656e206d6164650000000000000000000000000000000000000000000081525060400191505060405180910390fd5b62006dbf7f4cd22882db7ad884c875dd9d60e1b0768bbbf57983d0393f2325021caf21309360010262001cfe565b62006ded7f0c3c84103e404c1b7f6705f0a11716125b0224172505cf4a2d0220b8380c498b60010262001cfe565b62006e1b7fc1f7c2bc9d20c10a46c0a69b7cc3fca16df0bcc2b0c134a565dd212f0a51de1960010262001cfe565b60008090505b60e06000848152602001908152602001600020805490508110156200722a5762006e6e7f61598326d5dc820024203b0435f8334bea3a09162570c025950f889074dd314860010262001cfe565b62006e9c7f1f70bd4cac199a1a80d7f4c6aa9dc4ee340d4363387d17599d0b0b27a260b18160010262001cfe565b60df600060e060008681526020019081526020016000208381548110151562006ec157fe5b9060005260206000209060029182820401919006600c029054906101000a90046bffffffffffffffffffffffff166bffffffffffffffffffffffff1681526020019081526020016000206001015460df600060e060008781526020019081526020016000208481548110151562006f3457fe5b9060005260206000209060029182820401919006600c029054906101000a90046bffffffffffffffffffffffff166bffffffffffffffffffffffff1681526020019081526020016000206002015411801562007015575060e560008481526020019081526020016000205460df600060e060008781526020019081526020016000208481548110151562006fc457fe5b9060005260206000209060029182820401919006600c029054906101000a90046bffffffffffffffffffffffff166bffffffffffffffffffffffff1681526020019081526020016000206002015410155b8015620070a7575060e560008481526020019081526020016000205460df600060e06000878152602001908152602001600020848154811015156200705657fe5b9060005260206000209060029182820401919006600c029054906101000a90046bffffffffffffffffffffffff166bffffffffffffffffffffffff1681526020019081526020016000206001015411155b15620071ee57620070db7ff5a4c0a6d4a3f9492098267d5e32872c51c79f88fd16476c7295a97c5552075860010262001cfe565b620071097f71b20f107e51adb64d252d185ee8589d53ecca82cf606677146ca03e2cfb996f60010262001cfe565b620071377f30509abadea3ecbfece548aca0a5db4e1bc9eb408990a38aa30459bda86888bf60010262001cfe565b620071b460df600060e06000878152602001908152602001600020848154811015156200716057fe5b9060005260206000209060029182820401919006600c029054906101000a90046bffffffffffffffffffffffff166bffffffffffffffffffffffff168152602001908152602001600020600001546200b5be565b905080925050620071e87f13e32c69eefc85a4883862d1a3d2318caeafa040750f19364160931e0456ad8960010262001cfe565b6200722a565b6200721c7f9dc9f4d4a314cf286c0e776a7a57a05e751e6ec80021ac7d4d064ea41df30bdd60010262001cfe565b808060010191505062006e21565b50919050565b6000620072607fef0ee839a87e09beff700b1545467b1e7edec5145e69a952185625b7febbbeaf60010262006c22565b6200728e7fbdf835ee0fe59519e68e959a2766d368864459c142b651dc6d6cc62e98a4928760010262006c22565b620072bc7fd14e8c1d0c70855f3f901075500965984cbea219b1fa4a42db605c475f4bbee460010262006c22565b620072ea7fbe47793fa43a6c9d58b424bbf96d50fa4160ae78cfe3c5dd4bc34ba1ea72138660010262006c22565b620072fe620072f8620075d5565b620026ea565b151562007373576040517f08c379a00000000000000000000000000000000000000000000000000000000081526004018080602001828103825260188152602001807f5265737472696374656420746f204f70657261746f72732e000000000000000081525060200191505060405180910390fd5b620073a17f241ba548cc8253817305eb6cbd99b145edfcecbfaeaba1576d256fce484d5ab260010262006c22565b620073cf7fc0aad2c1f4c71d0d45099bfc691c3cd5b001f96af75e9e3b342f389f86c2614760010262006c22565b620073fd7ffcc889693a5b83904f5d13ea2ed7fa6f4b4f84378fd6722ecb979cb08ea76a14600102620026e7565b6200742b7f3b312b1c0f831ff0c7d73ce9e3e66bbc18a2348cc21dfc1cecf5b9f1c5511bf4600102620026e7565b620074597f436deb28efa5fffefaca023fe9a7e1ffd1c16c71b96713096f781c8587eba6ac600102620026e7565b606060206040519080825280601f01601f191660200182016040528015620074905781602001600182028038833980820191505090505b509050620074c17fa91511c6d9e8e969329fbc5d9c4a649bb0f904837aeaaeb24c88c91f5783268d600102620026e7565b620074ef7f0281ff50570d64fcc22a7cffad36a108b8a0f25c30b76aebcca33bfaabe15871600102620026e7565b6000309050620075227fcebb769236023ea5c6071130f4c3794bdf788492b01addde15682ebb38f76388600102620026e7565b8084186020830152620075587fc1fa9d0fd449d79b354856f4dc1acc6425102fd39cb1c92cab69582c5337b55f600102620026e7565b620075867f7bb0efe6dc690972b240a85d6d69cf1dbabd00dbc9c4d1a2e642bd830853645a600102620026e7565b6200759285836200b6bd565b9250505092915050565b60405180807f4f50455241544f520000000000000000000000000000000000000000000000008152506008019050604051809103902081565b600033905090565b60006200760d7fc06f9ab0a42067a3032004a1a614e8eb2400747d61d289999b531b49d72db4b2600102620026e7565b6200763b7ffc1a22c806fb858100e543a0113f5030549cf1d5e9914e9ff96548df49587702600102620026e7565b620076697f652e117f8199b91a755823b95c9a7ccbe183fafb662283f460b330e5ba66a30a600102620026e7565b600062007679858542866200b9bf565b9050620076a97f04ac96bf3f7bedf438d92468329e5048138da52c598656dd27de0b9a97675886600102620026e7565b620076d77fb92dbc1cac19b913178a237a11f0087dfc4f8ddcb0b81ce1296c9792a388d4fb600102620026e7565b620076e2816200af30565b9150509392505050565b60006200771c7f1c936b58a780d6df8d6a36740e9567a53ef3006cd36cc151c47b660b9dec5769600102620026e7565b6200774a7f8b0fb230919a0097f501a69a260dc5174fa7a8fe3cdc0b0132d393f7d63f610e600102620026e7565b620077787fe840861fbc2f535c5b7cc529c24d08ec62f6c96e1fa479ba6e3b0be1ec59e4cf600102620026e7565b60006200778684846200c37f565b9050620077b67fb3d658da1354ab726d481db487cfbb93449a1e4a1ac798753b6dc10dbf7f2c82600102620026e7565b620077e47fb295d8042ea636432b0d6b8fae098d9e074905ab5e0ffb12bdf403f66f098513600102620026e7565b6000620077f1826200941a565b9050620078217f37e7a2243cb9b60fae59f298ac5e410b9ee3da01b60e269df0d473f1ade8afee600102620026e7565b6200784f7fc6480e821c688e22d3e82c2b7b940c0be7c61e0e315527b0e86e1601ca34c8ea600102620026e7565b60006200785c426200c88b565b90506200788c7ff47c8889674a7e52abd5b06ec4f424727cbd8fd9929afc2a2af32a02cd648aef600102620026e7565b620078ba7ff04088cbabb8d585b26f68b6092b512dca2cb2c5493f12ed2f9fab549554adc8600102620026e7565b60006201518082039050620078f27f2890737e77a3cc17df7a02c65a270a3f309255caef5f82ee5dab772d9a1790c8600102620026e7565b620079207fbe6762beacc210dc33f9fc38f75c42cb5d2fdbddd15b058626d0defde3c9dc14600102620026e7565b6200792e878388866200d4d3565b506200795d7fc06cdeb9de0bdff0bc7beaa12503083930fc0ea7ad5e61a11b9b24bca695cbd2600102620026e7565b6200798b7fbc4d0e511e71c00c44404d1e70c6cffe8be46b17fdc24ef16897be3881199236600102620026e7565b600060e2600083815260200190815260200160002060008973ffffffffffffffffffffffffffffffffffffffff1673ffffffffffffffffffffffffffffffffffffffff16815260200190815260200160002080549050111562007a875762007a167f055d1a4cac8420fe2f0ef9125ad984bd62db843ef1bb2ac099b5cd8c7c7cda16600102620026e7565b62007a447fa6fcc05efcef1c8d7f5e40a4ec55c6223d0dc4681bd293e43bbec8c230464e4a600102620026e7565b62007a727ff5f75558e4fc864ab2178ef2f497edd527acad1bff1060fefc6dd41afbcea26b600102620026e7565b62007a80878288866200d4d3565b5062007ab6565b62007ab57fc5a5b2fe6449602cfdfd593c921b094a06d3e15840ad3f2d5dbb67794b38cc54600102620026e7565b5b62007ae47f27709734daa1fa3965ca025f974860583ff8fed1c0cb907f6f902bc60c3904cf600102620026e7565b62007b127ffe87d3712ed22cc2ee45b38688206d2f3f0caec5b6c6d55e1840b6e5161ec995600102620026e7565b600194505050505092915050565b62007b4e7fe61146cafdbd435fd1a44f216470c1c771b447cea185fd63a791eedb5de9a63360010262002fd7565b62007b7c7f5574652d96785064c2df2826f0e7f7e329e984e6292358773864c6cc71ea7a0760010262002fd7565b62007baa7f89299f8a83d41798f187ab3c16a70e02bdf5aa620db00df7f88c09b4627ffa5560010262002fd7565b62007bd481603360008581526020019081526020016000206000016200e17490919063ffffffff16565b1562007cce5762007c087fbfdadd76f305d8adf092ee65907cc86e4f224d2c66f9af5c0b3cdfcc1f3e8fc260010262002fd7565b62007c367fcedeb60ed9b0b45ad4375b68166468c8488c71bf3878d408ea58b70a4df19c8260010262002fd7565b62007c647f1ec6cce1ca0f17106fd0dac964533ee10f89f102e5bae6dbc54b66910cc6919060010262002fd7565b62007c6e620075d5565b73ffffffffffffffffffffffffffffffffffffffff168173ffffffffffffffffffffffffffffffffffffffff16837f2f8788117e7eff1d82e926ec794901d17c78024a50270940304540a733656f0d60405160405180910390a462007cfd565b62007cfc7fa423d3155a2779de3b70eb057d48003daeb03c8d3bb306efff5033bc719fc2fc60010262002fd7565b5b5050565b62007d2f7f45d238e764e3ea305d63d3fecf831285bf4eeaa1602f8de3df539857efac6c6e60010262002fd7565b62007d5d7fd00292ef3da039d8d5902c68958a6f7752a2ffe2226bd360d69710be605255e660010262002fd7565b62007d8b7fed1ced23b5805fee7e1c4e215ebaeac2f4a0616598ef298fcbadac346ab2d79a60010262002fd7565b62007db581603360008581526020019081526020016000206000016200e23090919063ffffffff16565b1562007eaf5762007de97f826526b9616b034266aa27340c33caeb270bdeadf7b8b0cde8ae08641dc91f3760010262002fd7565b62007e177f226565b49fb47c4504f044f0dcd11986fe7dc0b5e42f1a509860c276c7fae30d60010262002fd7565b62007e457fd9f428e21258c7d2b12bdfe6699679598dafb5e658e8bef5d9afd4c2018cf3ea60010262002fd7565b62007e4f620075d5565b73ffffffffffffffffffffffffffffffffffffffff168173ffffffffffffffffffffffffffffffffffffffff16837ff6391f5c32d9c69d2a47ea670b442974b53935d1edc7fd64eb21e047a839171b60405160405180910390a462007ede565b62007edd7f1cac82cfced3a405bd841fcf2c172c803008784d1a7415be41fe798cb3dd498060010262002fd7565b5b5050565b6000806000806000806000606062007f1d7fba7a3f687c5ae1aaa5f691e8acfcb9803f3ef694369f5a01311767eee489b3d160010262005e69565b62007f4b7fbbe611060714f972353adf43ebc7841f7c51d4d2e87b95822fa5e43804fdf49b60010262005e69565b62007f797fd9aa07dc2fdf21ff6d9dc6035d294b67f7ea05f7a7dd392f0abfa9f67bb0707e60010262005e69565b600060a760008b73ffffffffffffffffffffffffffffffffffffffff1673ffffffffffffffffffffffffffffffffffffffff168152602001908152602001600020905062007fea7fe6d8e582b5ccead73f67eb90099d5f256656f549eea1c09bc3c6a7e73e07cc7460010262005e69565b620080187f75916e65316b56c0aa0ba683d2eeb9ff63a9874c7c81211acbef5d5a0447246660010262005e69565b806000015481600101548260020160009054906101000a900473ffffffffffffffffffffffffffffffffffffffff168360030154846004015485600501548660060160009054906101000a900460ff1687600701808054600181600116156101000203166002900480601f016020809104026020016040519081016040528092919081815260200182805460018160011615610100020316600290048015620081055780601f10620080d95761010080835404028352916020019162008105565b820191906000526020600020905b815481529060010190602001808311620080e757829003601f168201915b505050505090509850985098509850985098509850985050919395975091939597565b6000808284019050838110151515620081a9576040517f08c379a000000000000000000000000000000000000000000000000000000000815260040180806020018281038252601b8152602001807f536166654d6174683a206164646974696f6e206f766572666c6f77000000000081525060200191505060405180910390fd5b8091505092915050565b600080831415620081c857600090506200827e565b60008284029050828482811515620081dc57fe5b0414151562008279576040517f08c379a00000000000000000000000000000000000000000000000000000000081526004018080602001828103825260218152602001807f536166654d6174683a206d756c7469706c69636174696f6e206f766572666c6f81526020017f770000000000000000000000000000000000000000000000000000000000000081525060400191505060405180910390fd5b809150505b92915050565b6000620082c883836040805190810160405280601a81526020017f536166654d6174683a206469766973696f6e206279207a65726f0000000000008152506200e2ec565b905092915050565b6000620083007fce6780c9791539d4b535110e5f37ac673065f4323db660d106ca02aa1d285fa46001026200e3bb565b6200832e7ffbb9bcdc37fee55342a6e5f3b0cdbb752548768d55279e4aa36e439eddd3c2f26001026200e3bb565b6200835c7fa4f2a0d467db387349dc6ef5b5b84f1f806887ff1d40b65e1320c6d722ee9f136001026200e3bb565b6200836b83600001836200e3be565b60019004905092915050565b6000620083a77f676774ccb1be05ce8a1fe3012d02b51ed6e18267ffa29aa002ff672c33d32ee96001026200e3bb565b620083d57fd863485f4fc7f6d5d8aa55308bee6b8486345b0154e2c013f988cdd9179492f76001026200e3bb565b620084037f73150ee5ee22f81cc4cbb0207d32b0cf721faf35271afc42fb2a2f9de941f5216001026200e3bb565b6200842b836000018373ffffffffffffffffffffffffffffffffffffffff166001026200e5cc565b905092915050565b620084617ff596d1a6f0772af6c466fed707b4e9734fbdf5e5b5edbbe099fcf5ab9626735160010262005e69565b6200848f7f9bbe506d4f58d6e53706d9b7e6fbe2b29d13bdc4726cf37884e0e370f95b890a60010262005e69565b620084bd7fdb823fd1da46a045a211a85879519a0d75311b5ef509bf55dcdc8683fd930ddf60010262005e69565b8360a460006101000a81548163ffffffff021916908363ffffffff1602179055506200850c7f2529bdde98c9b78f428a10c08256182524e41237063c6e9c9e3b2b9707388c1b60010262005e69565b6200853a7f82117200b3726a8989140611fafbd994593734d8aa02e00525f2c91561e51bfc60010262005e69565b8260a460046101000a81548163ffffffff021916908363ffffffff160217905550620085897f7c822fe57019f1ddab380712e45737f3b941eb06a2e01e1bd4357c27219421db60010262005e69565b620085b77fd963eaa061d2c26000c8411bfe6de368fe23daa31134884b56135afc5b19093160010262005e69565b81609881905550620085ec7fea2278caad5c45006f9174489c6dac16e4f7035ac5c7a6fc280c184fb250dc7360010262005e69565b6200861a7fbb4668e5685b83a58de07049c94d3888887ef33663f06f8dd384ffa75dff9d7660010262005e69565b8060998190555050505050565b620086557f1c29f5bfdefb542bb506b84b7c74430c6e9f3a3bb9e2a8ae6c272fff65c56e2060010262001cfe565b620086837fe170a50cf1cc82b7a8b8b710d9580fc7fe6191971a8675a4910011b44b0e7eb660010262001cfe565b620086b17f203a00e7114c711bf1e80ab3dbf084357a497ed70ca3424640b7d1488ff6950a60010262001cfe565b8260dd60016101000a81548160ff021916908360ff160217905550620086fa7fa303f98cc6ce1685bf6e989f8a0f8f49483b345121b408ad42b01dd5afb2321360010262001cfe565b620087287f26467551d1eb7046f688248f652d228c1bf6806be3899b7f4e90791b2a6d1a7060010262001cfe565b8160dd60026101000a81548160ff021916908360ff160217905550620087717f11d8ce75fe5c00ee2f34c37514086193c9a3600f53beb978aa57bb82141627cc60010262001cfe565b6200879f7fdae38433414487548a7bda5d73b7548dbd3ad7cd576556c1d1a83b89af7f04b860010262001cfe565b8060dd60036101000a8154816fffffffffffffffffffffffffffffffff02191690836fffffffffffffffffffffffffffffffff160217905550620088067f1a7558312e1162d125dc230586cf1dd39edfac64ccc12c9ea8747bb6ba6c734260010262001cfe565b620088347f2b0227bd0ac303a265db3d5d5aed277f7958ad37889d78eb0fbc207f7ef072a360010262001cfe565b602060405190810160405280600166ffffffffffffff1681525060dc60008201518160000160006101000a81548166ffffffffffffff021916908366ffffffffffffff160217905550905050505050565b6000803090506000813b9050600081149250505090565b600060019054906101000a900460ff1680620088be5750620088bd62008885565b5b80620088d657506000809054906101000a900460ff16155b151562008971576040517f08c379a000000000000000000000000000000000000000000000000000000000815260040180806020018281038252602e8152602001807f436f6e747261637420696e7374616e63652068617320616c726561647920626581526020017f656e20696e697469616c697a656400000000000000000000000000000000000081525060400191505060405180910390fd5b60008060019054906101000a900460ff161590508015620089c2576001600060016101000a81548160ff02191690831515021790555060016000806101000a81548160ff0219169083151502179055505b620089f07f6c875126be1726ab2fc657648964c34d167c9eea09e982826bf5fe2b9ca2d32460010262006c22565b62008a1e7f62099aa8d5be0c25cfa94c8b816435976ac44df70e57c0cd61c9aa5a6e8ea50760010262006c22565b62008a4c7f453557595d5569438781ff2bffda3521e47a9e00825bc9def362d351cf3e1c7460010262006c22565b62008a9160405180807f4f50455241544f520000000000000000000000000000000000000000000000008152506008019050604051809103902060006001026200e67a565b62008abf7f36164c6dee9768d45bd325d105734bbcb52f53401478cd02c4ecad63c18b8e6860010262006c22565b62008aed7fc2ac55851c10e49d80d29047d52eddd577a7571d2b2f4dad9e5fcaa5c07a9bb260010262006c22565b62008afd6000600102836200e723565b62008b2b7fb725922c818f0782603dba098ae6ebcd63326dfb07c08fa6ef52bb86e381fb3660010262006c22565b62008b597f269b98238e7be55b5d7a3db79f2a96a0e9fa4e47593a6bb52d82c25d08facd7e60010262006c22565b62008b9a60405180807f4f50455241544f5200000000000000000000000000000000000000000000000081525060080190506040518091039020836200e723565b801562008bbc5760008060016101000a81548160ff0219169083151502179055505b5050565b600060019054906101000a900460ff168062008be2575062008be162008885565b5b8062008bfa57506000809054906101000a900460ff16155b151562008c95576040517f08c379a000000000000000000000000000000000000000000000000000000000815260040180806020018281038252602e8152602001807f436f6e747261637420696e7374616e63652068617320616c726561647920626581526020017f656e20696e697469616c697a656400000000000000000000000000000000000081525060400191505060405180910390fd5b60008060019054906101000a900460ff16159050801562008ce6576001600060016101000a81548160ff02191690831515021790555060016000806101000a81548160ff0219169083151502179055505b62008d147f17dbf3d109c4f5d7ee89824e05bc22e46bd7f238a4dfc214449033acb896da3060010262005e69565b62008d427f37a00f29333ede6a62aec24c5b155256e73103af619aa0f5a06132d988720b0460010262005e69565b62008d707f405881ad965423ccb1eb50f817a1127c7bab9d456ab47c5ca3de30284eaaa7a160010262005e69565b8460a660006101000a81548173ffffffffffffffffffffffffffffffffffffffff021916908373ffffffffffffffffffffffffffffffffffffffff16021790555062008ddf7f5f3b59e3c916b2543b8fffcf8da92609dd25f2f134ed297e6a84cdfbccce8cb360010262005e69565b62008e0d7fd49dfa9318ba827faf2d1e1e62ca914df5a65d57a8f0593975e869ed153645da60010262005e69565b8360a460006101000a81548163ffffffff021916908363ffffffff16021790555062008e5c7fad03c7523c09ddff4260081fca66e652656eecf7eaa3631f3a87756d6a51850960010262005e69565b62008e8a7f96b7243fbf7e39b4dbafba3bea40cf65b2a8a2981e4d691f45fbe8051b4c176860010262005e69565b8260a460046101000a81548163ffffffff021916908363ffffffff16021790555062008ed97f3d79eb7efb2ac22f905fa98d8077cf7a5288b224bce8b661262d0341c1c0215760010262005e69565b62008f077f9d61ecf923815bcd30b35fff050fb785d71a81e57129e1e62a28b4d244cfe30f60010262005e69565b8160988190555062008f3c7f4d1da28b6ff493badbc82631932ee6faaa25c42646bf1875efa2b7b47d4eb2ae60010262005e69565b62008f6a7f77bc20e82f623d7791695aa51b5575507239779965e590de6f295de80778e8a060010262005e69565b60606040519081016040528060018152602001600181526020016000815250609c60008201518160010155602082015181600201556040820151816003015590505062008fda7f56ca7feaf246e3771784b54fb54b9b6ee10514bd64de526aa51dbeefc9deb43960010262005e69565b620090087f2a0d22da8e991b89711d6308a38079ef47c8c8603cf616f9dca6f6b10f70d74560010262005e69565b6060604051908101604052806001815260200160018152602001600081525060a060008201518160010155602082015181600201556040820151816003015590505080156200906c5760008060016101000a81548160ff0219169083151502179055505b5050505050565b600060019054906101000a900460ff16806200909557506200909462008885565b5b80620090ad57506000809054906101000a900460ff16155b151562009148576040517f08c379a000000000000000000000000000000000000000000000000000000000815260040180806020018281038252602e8152602001807f436f6e747261637420696e7374616e63652068617320616c726561647920626581526020017f656e20696e697469616c697a656400000000000000000000000000000000000081525060400191505060405180910390fd5b60008060019054906101000a900460ff16159050801562009199576001600060016101000a81548160ff02191690831515021790555060016000806101000a81548160ff0219169083151502179055505b620091c77f5f0265a64dc0d1e44ed8fcf4b17443ea6b2dfbc5a7483c9de2803bd47128c3e760010262001cfe565b620091f57f1e90f0808128ed6295f3929f0c3e9b6d2fefbfab02b0616f39d405a446233e5860010262001cfe565b620092237f8d364e20c86888a49fb0a5c225316faafc62d30ef272ae7d5e4e91bf193c157b60010262001cfe565b8360dd60016101000a81548160ff021916908360ff1602179055506200926c7f443a104b7a2abc0ce9ff9d40bb5aba80939c9751fe15f5117433748460aac9f560010262001cfe565b6200929a7f4e4eb1fb865a8202c21707fc5704c30fe63e71ebc3d363465a5f1fe4c0072f2260010262001cfe565b8260dd60026101000a81548160ff021916908360ff160217905550620092e37f761edc98fee140249b69aba460e9f328cc70c96d2a0b4b079d086b41598494bb60010262001cfe565b620093117fab52b31eb252d025a5c78869fd14218565b055d33d0c368e86f259e860b3e87660010262001cfe565b8160dd60036101000a8154816fffffffffffffffffffffffffffffffff02191690836fffffffffffffffffffffffffffffffff160217905550620093787fa1cbe202d4979dbc1803e8224f63637cd8300a19910f5d37c061af72d6ac1aca60010262001cfe565b620093a67fe5af1bfd7fbbbe21eb81a7414fd0a0a8c4e360a1323ff7e51ab859bddb66973d60010262001cfe565b602060405190810160405280600166ffffffffffffff1681525060dc60008201518160000160006101000a81548166ffffffffffffff021916908366ffffffffffffff1602179055509050508015620094145760008060016101000a81548160ff0219169083151502179055505b50505050565b60006200944a7f06da2979439f848af7278d004f2f6f3c78aa696877984cdbbbba4a7bc489a531600102620026e7565b620094787f591bba838a957c9eae52cd278289638b1cbaffb28d4f0e2e3f02906ff6d14529600102620026e7565b620094a67f548ad73e78a72a1f172ccc5cb47debddfb89542ec1a61a821db15afd182a9fd2600102620026e7565b61011a60019054906101000a900460ff1660ff16600a0a61011a60029054906101000a900461ffff1661ffff168302811515620094df57fe5b049050919050565b6000620095177f073e147acc3d18fc219e164c20766a065a5acad263b4651f7781989ce235759660010262001cfe565b620095457f78090439c7bf2e1293da69fc94da1fc52cf54f5f72aa4760cc25bf22de11185360010262001cfe565b620095737f53d430737d556e4e55940f9eed7c24e195849be348358070060337100750704060010262001cfe565b600060dc60000160009054906101000a900466ffffffffffffff1666ffffffffffffff169050620095c77f5da47253ec3c3274e2ab7298d503a555d02c7232c501dcd08134ad2771f8ba1060010262001cfe565b620095f57f5439116f482646a7d52d71066ec257f2baab37e8cb33e66e4f9bc70682cce03760010262001cfe565b60008673ffffffffffffffffffffffffffffffffffffffff1690506200963e7f13f6c725b8f9eebc3e3b1f11af3f6436381c10d460a256e370a0097ffc234d0460010262001cfe565b6200966c7fc4c96cf46eeba2873e9ca10840c8f682bf3cf4105689f517332f6e5d1d8040a660010262001cfe565b60a0826bffffffffffffffffffffffff169060020a0281179050620096b47f7d1abfce3f4cdd03f44ae6cf0f8b5ddb772995bd692bb263f3c23339b515135c60010262001cfe565b620096e27f081b29c9b5d9e4920545d94197af44ad21881b03f6f5e10e461d18cb9fd078dc60010262001cfe565b600060e160008881526020019081526020016000205460dd60039054906101000a90046fffffffffffffffffffffffffffffffff166fffffffffffffffffffffffffffffffff160190506200975a7f0969465ef6c5ea50e8d3fd9a540cc241fb18b46edf5daab89808dff32f5201e160010262001cfe565b620097887f0671443b48b8db258579dcba632918e8affbd05437db35fe8da4eae40266f0ed60010262001cfe565b60008582019050620097bd7f76e9c5df0eb03553c01aa0bc5b1875e59946e72a4831e122dd929fa71e53b18860010262001cfe565b620097eb7fd78789dcc5df825e09b94ecb8425a5c8355ac6677c2b5a6e7a6652342d1c118860010262001cfe565b6060604051908101604052808481526020018381526020018281525060df6000866bffffffffffffffffffffffff168152602001908152602001600020600082015181600001556020820151816001015560408201518160020155905050620098777fa14fcbcab4a892575ad23caa397f375fff3d33ee46c48ea6c92114c7c9ce5e6360010262001cfe565b620098a57fc035af89a7a7fdab8d5b2c3923781b6f849dc4b22ec49186aeab341196e0ade360010262001cfe565b8660e660008a815260200190815260200160002060008282540192505081905550620098f47f0c9b38d7c3a65c3cc43fd5ad7ae3993a6d93fd697e31957f51397f60e47de36260010262001cfe565b620099227f381080a9f8721aa0664b32dddbd723e4c698f38e9df2cbc323c6ccbdf1c53cea60010262001cfe565b8660e360008a815260200190815260200160002060008b73ffffffffffffffffffffffffffffffffffffffff1673ffffffffffffffffffffffffffffffffffffffff16815260200190815260200160002060008282540192505081905550620099ae7fc80f4cece3c2167176cd3daee7a2b9c69961deb2c488b1339fb5808b0c50ac8460010262001cfe565b620099dc7f62084f7b105f12b0759924635bb5bfbf4b8f468bf9e9602362155b834648465560010262001cfe565b60e460008981526020019081526020016000208990806001815401808255809150509060018203906000526020600020016000909192909190916101000a81548173ffffffffffffffffffffffffffffffffffffffff021916908373ffffffffffffffffffffffffffffffffffffffff1602179055505062009a817fc6b5058ad1548c6ca49bb1d28ecae089997f2bece577e784c81db0684e31d95060010262001cfe565b62009aaf7fa17398b5bd6815cbf87da4f9a9c0705dfd0842fa79935314fcc95cf49a7181b460010262001cfe565b60e2600089815260200190815260200160002060008a73ffffffffffffffffffffffffffffffffffffffff1673ffffffffffffffffffffffffffffffffffffffff16815260200190815260200160002060dc60000160009054906101000a900466ffffffffffffff16908060018154018082558091505090600182039060005260206000209060029182820401919006600c0290919266ffffffffffffff16909190916101000a8154816bffffffffffffffffffffffff02191690836bffffffffffffffffffffffff1602179055505062009bad7fb814d31f5d4c16fb9afbfdd58f41820fd86d8a1f15872a35ece725947e6bf4d060010262001cfe565b62009bdb7fb366b138fa3b2adb812947f61c94100618afa37db197508b8bc40683754cb89660010262001cfe565b60e0600089815260200190815260200160002084908060018154018082558091505090600182039060005260206000209060029182820401919006600c02909192909190916101000a8154816bffffffffffffffffffffffff02191690836bffffffffffffffffffffffff1602179055505062009c7b7f2c41579efb91bede4cde39628a81b8e32f557a06b6a2e1e7e121d84b6935505360010262001cfe565b62009ca97f179cb88c29a4b8ef41997ec0d7013f70bf371f9254f4fc8351fc8d98c9695c7d60010262001cfe565b8060e160008a81526020019081526020016000208190555062009cef7f6c7fc01b48bd284ce0b708c4bb14c0d3ef0955adf8f22f727b72044b96d5944060010262001cfe565b62009d1d7f6a37003f399b3b8ef4dc441edc721a30f889c4fb9c4cbbb411ae1d88df98721560010262001cfe565b8873ffffffffffffffffffffffffffffffffffffffff16846bffffffffffffffffffffffff16897fa0f62cfa805b8a221820e6091364400400ec918a02277ac3d0438e98369eadb68585604051808381526020018281526020019250505060405180910390a462009db17f45641ea4c00559d21e8cdd2ed7525771e18a1aeacc30943b2506118eae0ab95460010262001cfe565b62009ddf7f3e03a58b2484027ab7b8b05310478a420c2720e93ea7d5c30abfa77b1113b83760010262001cfe565b62009deb60dc6200e7bd565b62009e197f5610aad962748451d4f25aded5abd4545aefbdf10ff310b6d2bf9eb0121dfec060010262001cfe565b62009e477f0a21e934f356f99579396bfb18e15bdd9ee136e2bdb0c1588f7ac2d546fe340060010262001cfe565b6001945050505050949350505050565b600062009e877f5fd0ab04ce135edde569c47a2d29797cbed89dc380006990af6c8eae49d7a9f46001026200e3bb565b62009eb57f3e19fe6e6efb02a1ebef6a267fad15b53c4d11a170170627b9e55aa49eddd2666001026200e3bb565b62009ee37f3671881e88505942ef207df95d6f463068dfac0620aa98df7cc09463129ea9926001026200e3bb565b62009ef1826000016200e862565b9050919050565b60008062009f297ff4b56094aaf5ac2cb270e6c04b80589fb528196f00ddb9d25f4bea209e89cd1d60010262005e69565b62009f577fe2064ecda43658bce43fbf2e4a4650e0b2419dd87d1c429c69e406fa1d96cb2260010262005e69565b62009f857f47037449925b55103db30c98d27d8ca0b7885ab667b5b16d296ae241e8ac9ff160010262005e69565b62009f90856200e8fd565b62009fbe7fb1984e31da7081381a9af027766a1299f9dd9601711d4803eda543fe2a4b9c1760010262005e69565b62009fec7f8520bbdc1065c48f0f20efc1f79dd197d8ca4e1eccca4a47e190ce4a84b9b18960010262005e69565b6200a01a7fda5a49efd6a9275f6de973b1973d9652d06f46ebce2a10ac9f6b0d32187fd89660010262005e69565b600073ffffffffffffffffffffffffffffffffffffffff168673ffffffffffffffffffffffffffffffffffffffff16141515156200a0e6576040517f08c379a00000000000000000000000000000000000000000000000000000000081526004018080602001828103825260388152602001807f476c757761536176696e674163636f756e743a20536176696e67206f776e657281526020017f2061646472657373206d75737420626520646566696e6564000000000000000081525060400191505060405180910390fd5b6200a1147f6311c1acba6ba6a0ac8ef65fbb928cf10b9a8c602290410b2b2f9a2732c6f99060010262005e69565b6200a1427f29f579870e139648b7a4dab6da4a649a60074ddd1a90f31bc8e9755a0207163a60010262005e69565b6200a1707f4eb49c94e8eb0a6e62e632a2704874592daa97ddf77837ff3be43f1d3863c1e460010262005e69565b6200a19e7f0a44630ebdb1427c3229ac6c5f57a4a4edafdceea23d811259a9fb17c8b92b1b60010262005e69565b600060a760008873ffffffffffffffffffffffffffffffffffffffff1673ffffffffffffffffffffffffffffffffffffffff168152602001908152602001600020600301541415156200a2a5576040517f08c379a00000000000000000000000000000000000000000000000000000000081526004018080602001828103825260478152602001807f476c757761536176696e674163636f756e743a2045616368206164647265737381526020017f2073686f756c642068617665206f6e6c79203120536176696e67206163636f7581526020017f6e74206f6e6c790000000000000000000000000000000000000000000000000081525060600191505060405180910390fd5b6200a2d37ffb2ef150308673efcfec895ad27adddb42399e62d460c309faf8660c51aed8a560010262005e69565b6200a3017f678cbef0a8f5b00b9167a77b638210e4263a477281a3bfb60be794624493b7a660010262005e69565b6200a32f7fd4db1d6afaad34c1c6f662aac9db2390c4631d478c522cf973cff17a04eb805160010262005e69565b6200a35d7fdd87886c8f8c5b4a561f66f9ec48c4acb3f5e7b3c02ae5a1bd4ede447edb2fd860010262005e69565b6000151560a9846040518082805190602001908083835b6020831015156200a39b57805182526020820191506020810190506020830392506200a374565b6001836020036101000a038019825116818451168082178552505050505050905001915050908152602001604051809103902060009054906101000a900460ff1615151415156200a47a576040517f08c379a00000000000000000000000000000000000000000000000000000000081526004018080602001828103825260318152602001807f476c757761536176696e674163636f756e743a204964656e746974792068617381526020017f6820697320616c7265616479207573656400000000000000000000000000000081525060400191505060405180910390fd5b6200a4a87f1bec6e70f80774a59e8920f85e6096fee2a3ccc9c1479adbee383a62e8bf40e660010262005e69565b6200a4d67f09ff8cc7c7ada2ed620b18b5faa8174ed9e7f22bb687c70c5d5e5b6dabe461dc60010262005e69565b6200a5047f97cd7f30a09b43cd7d7a9f14aee34c151599c75b5144e6d674cb460f5446801160010262005e69565b600073__$8ad4cadfbfab443c6ed09b45690dcdfb0d$__6384cefce086308a6040518463ffffffff167c0100000000000000000000000000000000000000000000000000000000028152600401808481526020018373ffffffffffffffffffffffffffffffffffffffff1673ffffffffffffffffffffffffffffffffffffffff1681526020018273ffffffffffffffffffffffffffffffffffffffff1673ffffffffffffffffffffffffffffffffffffffff168152602001935050505060206040518083038186803b1580156200a5da57600080fd5b505af41580156200a5ef573d6000803e3d6000fd5b505050506040513d60208110156200a60657600080fd5b810190808051906020019092919050505090506200a6477fffce348fe537e0cd9e0b52731bef05907ec42731a536db750a3c4f13c7e3b47260010262005e69565b6200a6757fdb06ad4b8d8a2c29c57272e7083b68d2a85839309e07e256c76b304dea8a290760010262005e69565b600073__$8ad4cadfbfab443c6ed09b45690dcdfb0d$__63fd96809e609c6002015489308c6040518563ffffffff167c0100000000000000000000000000000000000000000000000000000000028152600401808581526020018481526020018373ffffffffffffffffffffffffffffffffffffffff1673ffffffffffffffffffffffffffffffffffffffff1681526020018273ffffffffffffffffffffffffffffffffffffffff1673ffffffffffffffffffffffffffffffffffffffff16815260200194505050505060206040518083038186803b1580156200a75857600080fd5b505af41580156200a76d573d6000803e3d6000fd5b505050506040513d60208110156200a78457600080fd5b810190808051906020019092919050505090506200a7c57f226a159d817af4cb8d5037d5500dc8941f5825535dc69bcd5223303a2c4627c060010262005e69565b6200a7f37f39f16de9bebcb6aa77e1655e284a5b56ac70a2fcee02d102fd7f1edd63b7c70860010262005e69565b61010060405190810160405280609c6002015481526020018381526020018973ffffffffffffffffffffffffffffffffffffffff16815260200187815260200188815260200160008152602001600160048111156200a84e57fe5b81526020018681525060a760008a73ffffffffffffffffffffffffffffffffffffffff1673ffffffffffffffffffffffffffffffffffffffff168152602001908152602001600020600082015181600001556020820151816001015560408201518160020160006101000a81548173ffffffffffffffffffffffffffffffffffffffff021916908373ffffffffffffffffffffffffffffffffffffffff160217905550606082015181600301556080820151816004015560a0820151816005015560c08201518160060160006101000a81548160ff021916908360048111156200a93457fe5b021790555060e08201518160070190805190602001906200a95792919062010cae565b509050506200a9897f5e764c4e90e7ed8761088ee9d398f4ea3c6625b44e345ffcdc2d294c29b15eaa60010262005e69565b6200a9b77fadd59be1989bbc100ed9d826c4fb988b57613ef4a2cfcf4d6866da76fadb438160010262005e69565b60a06040519081016040528060a0600201548152602001609c6002015481526020018973ffffffffffffffffffffffffffffffffffffffff1681526020018781526020018881525060a86000838152602001908152602001600020600082015181600001556020820151816001015560408201518160020160006101000a81548173ffffffffffffffffffffffffffffffffffffffff021916908373ffffffffffffffffffffffffffffffffffffffff16021790555060608201518160030155608082015181600401559050506200aab27f97f860c0d84a24afae27959165d108e05ce63a833dfaab91558b0840a03689c260010262005e69565b6200aae07fdc23ffba0b8755c6d937af1ab11038c9c4a0fb577c7fdd698a90779864ffa26460010262005e69565b600160a9866040518082805190602001908083835b6020831015156200ab1c57805182526020820191506020810190506020830392506200aaf5565b6001836020036101000a038019825116818451168082178552505050505050905001915050908152602001604051809103902060006101000a81548160ff0219169083151502179055506200ab947fc8b09d5f08318382233330a17c6e8f45168ffb1c2ec23b8d892a7949cf706ef860010262005e69565b6200abc27ffbd63849cd7cdbabcaf8c5c58488d84a00e9d9ce6a392a18547fc854301f1a6c60010262005e69565b6200abd882609c6200eaf890919063ffffffff16565b6200ac067fec86d0b9e3adb27e547bfe6982a49162382f32d9e0a321f344a5cd9e58a47b8760010262005e69565b6200ac347f407cf8a87c8b060d5069571ffb92713debcd25c6fff93e020e7cce034cc4609060010262005e69565b6200ac4a8160a06200eaf890919063ffffffff16565b6200ac787f890a96b98cc050681de7722af516aa2ed7b59f86d1b4523d26e5dfd288f6840d60010262005e69565b6200aca67ff26286e08f13ffacf5d0b8945f5ad8ee66623b92e91e9b9e6e2ae2685174bf2d60010262005e69565b609b8890806001815401808255809150509060018203906000526020600020016000909192909190916101000a81548173ffffffffffffffffffffffffffffffffffffffff021916908373ffffffffffffffffffffffffffffffffffffffff160217905550506200ad3a7f7bb9c928c3ead4140e18eeda64293a79758d0c6862d6d2bb7fbb9163369bca9e60010262005e69565b6200ad687ff6789f38822f0f7709e73fe18d4d4a826de151b932f5e3121a7a2526895b9a9e60010262005e69565b8660a5600082825401925050819055506200ada67f9a31c02245f9b13d91f0a10f92916673be02a3e9f06985c3d3060627f1e7b51660010262005e69565b6200add47f0dbb3f1c1696d9e69fee9d2bfab3db72a558cb6b5bd131112970592f1124772c60010262005e69565b8773ffffffffffffffffffffffffffffffffffffffff16827fd61caa23c7e60d69f689a83965592bc26f0dee75c1e247864bb07bbb6fdafe4760405160405180910390a36200ae467f5123be82fcef626c66b2d27c4912c3197183b004d83422a5bdf859b93b1ee81a60010262005e69565b6200ae747f8e5f5ca891d9b6bcaff16283e9830710c818cea7371a1f9bae8e914c0246cfc260010262005e69565b8773ffffffffffffffffffffffffffffffffffffffff16817f2fc7f61216f4b9da63724a7ccba484452205b7cf651334640e3cd11201786006896040518082815260200191505060405180910390a36200aef17f6da6846f465b43ddab256cc640e6369b76ad635e7879878dc95505bcb595b45260010262005e69565b6200af1f7feec062d9b9710d0d119fdcd231962bd726210ffe0eeb4727b085520f3aca274060010262005e69565b818193509350505094509492505050565b60006200af607fef0ee839a87e09beff700b1545467b1e7edec5145e69a952185625b7febbbeaf60010262006c22565b6200af8e7fbdf835ee0fe59519e68e959a2766d368864459c142b651dc6d6cc62e98a4928760010262006c22565b6200afbc7fd14e8c1d0c70855f3f901075500965984cbea219b1fa4a42db605c475f4bbee460010262006c22565b6200afea7fbe47793fa43a6c9d58b424bbf96d50fa4160ae78cfe3c5dd4bc34ba1ea72138660010262006c22565b6200affe6200aff8620075d5565b620026ea565b15156200b073576040517f08c379a00000000000000000000000000000000000000000000000000000000081526004018080602001828103825260188152602001807f5265737472696374656420746f204f70657261746f72732e000000000000000081525060200191505060405180910390fd5b6200b0a17f241ba548cc8253817305eb6cbd99b145edfcecbfaeaba1576d256fce484d5ab260010262006c22565b6200b0cf7fc0aad2c1f4c71d0d45099bfc691c3cd5b001f96af75e9e3b342f389f86c2614760010262006c22565b6200b0fd7f833f3b4341ff58a0e7be1edbb5dfc0dc374fc9896a676dbbe733866d03cf74d5600102620026e7565b6200b12b7f3a04ad7e9e78a5c1fc6cff605b009e257dee910e66faa994e8afe9c7316045a2600102620026e7565b6200b1597fccce1dbaba59abcf83396e478aed4d6e0fcfd31a26264a2061cb7b2ad61cb5f2600102620026e7565b600060a8600084815260200190815260200160002090506200b19e7f512a38d588d989eed3acc08f88955428d188aadc8593fb741862cf90b8356c85600102620026e7565b6200b1cc7f8b5e26a03f614d839bdc62629e23f3c30eba9ca7b6ad37da29bef6d8a8e7771d600102620026e7565b6200b1fa7fb49c4d7fb7335fbab90abc81be91735bfbe8f5f537a47adb184cb91ddcb7da70600102620026e7565b600081600301541115156200b29d576040517f08c379a00000000000000000000000000000000000000000000000000000000081526004018080602001828103825260318152602001807f476c7577615072697a654c696e6b65644163636f756e743a205468652064657081526020017f6f736974206973206e6f7420666f756e6400000000000000000000000000000081525060400191505060405180910390fd5b6200b2cb7f4814b78bb01bb05a028be0034e2074d2ba2cb9eed22d35e3b0cf009bca8e2499600102620026e7565b6200b2f97fb0e66bbb244f9bc55435dead616fe6369d956e1056c2551f375c7ac583dad7d4600102620026e7565b6200b3277fecc66ef73617483bf11170cfc64ebf960a85e9f36829325d0d9826e0192e1f79600102620026e7565b6200b36f8160020160009054906101000a900473ffffffffffffffffffffffffffffffffffffffff16826003015483600401546200b36985600401546200941a565b6200ec28565b506200b39e7f75b90450686dc5909ec7bd91f9d9039a8235470207c73cf2577011bfeb11df53600102620026e7565b6200b3cc7f5c3662514b5af44deb909ab72f898700a46799266c1d08e11f48e236aed8a641600102620026e7565b6001915050919050565b6000806000806200b40a7fee6f04d8903c6b975227c7950dc7e18945464e5271c84c489f529cf63f2a9b2b60010262001cfe565b6200b4387f5b13ecfe45c00bb754ec25a2fd7654dd81c9999f91657f2e34069d2199ecac4a60010262001cfe565b6200b4667f1906b4099c4ff18ae8645fecee6f5c2d21335fb4a8562eee149855221076c78260010262001cfe565b600060df600087815260200190815260200160002090506200b4ab7f2a6b08f6b3d399cff480c7a89510f70c1886f224a158c7576c1240c9ac2e18a760010262001cfe565b6200b4d97f0ea3092967f864d98a57f68060467397dcc8e36dffa08c8112d09734ca87780760010262001cfe565b6200b4e881600001546200b5be565b80955081965050506200b51e7f7c36b0bd26f5b34abdc80b983f14a3b49aea03dfb469ac6617f36f321471601160010262001cfe565b6200b54c7f57992dc55ae2bd2bc00a1edba37970d7078af38a12bfd8216fe95a828d3371e560010262001cfe565b806001015492506200b5817f73cdd953316863f7c9f49d53db46b3f0c6b3b6a056ca2661cef2136875064a9160010262001cfe565b6200b5af7f9ba21e4aec720ae0cdb3661d106d7b3c28070fbb50cb84e88bd961d62b076fd060010262001cfe565b80600201549150509193509193565b6000806200b5ef7f30d70e9297c991dbec33d213f5b005ad6b02e6fd0a439021e89f50f6d8c11d4d60010262001cfe565b6200b61d7f48774ebfebefa3ea0f6e15f3f370e30b2f771d11102a8f636cd63f58a7f7f87e60010262001cfe565b6200b64a7e7ada6c75b75c88ab670ea9835039b78d0bc9aceda545dd93c6b6fb7c68a55660010262001cfe565b8290506200b67b7f051748605349ac2a39b449d75ef8bb2cecc1e3a5e450552dc6cd33208527e6f660010262001cfe565b6200b6a97f4dce12d33aa2e960503b93d9fc9657890c5f4c093cec9eb9b025f54b6c2dfab060010262001cfe565b60a083908060020a82049150509150915091565b60006200b6ed7f95ac37976cf8eea6b2e66f76c444faef359f36c0f00f6451f8ee99c798a037af60010262001cfe565b6200b71b7f851ad9bd447ea81c76294dcb4633912eacfdcca67053064cc12a711b1de8654c60010262001cfe565b6200b7497fc9cb45d0bf10e6af1b5b19854bc22abb12a6ce6d2f3d6d17a3458b6e3007cfb160010262001cfe565b6200b7777f64ae18e454d090e2f0263f7cbb36a4aa2890c5c054c6af5cc79042ee0d3cd4b160010262001cfe565b600060e56000858152602001908152602001600020541415156200b829576040517f08c379a00000000000000000000000000000000000000000000000000000000081526004018080602001828103825260268152602001807f476c7577615072697a65447261773a207468652064726177206861732062656581526020017f6e206d616465000000000000000000000000000000000000000000000000000081525060400191505060405180910390fd5b6200b8577f48fd48f1275171a2aaecc142b245052ba266fe62db5c3296f7d23ce69b3c4b7860010262001cfe565b6200b8857f2ccee3d41399f5665297836297dc0c1d8362ffe4dd10655e490f0f49cb4fb40d60010262001cfe565b6200b8b37fe754df3550e5545428fc407a1853bad83cca4e56618ac32c7055a60c6127cf5c60010262001cfe565b6000806200b8c18562002b4d565b915091506200b8f37f1bbbeb94f2a61126e73393d5f85f8485bc8d3b5853c466de733c3c6036d1e71360010262001cfe565b6200b9217ffc04913b10b04ac933a570b99d226578fe349719e87f25cde948923a84202b9760010262001cfe565b6200b92e8282866200ecd6565b60e56000878152602001908152602001600020819055506200b9737ff97f446a33eadc03c55b69b1b4fa0a437c7a0c3130507ba6398bf6630cd70c5d60010262001cfe565b6200b9a17f632148f02c13fd87a4a30c099eb3e7a00d553aa4d23bcdd382b1a08ad0daa40660010262001cfe565b60e56000868152602001908152602001600020549250505092915050565b60006200b9ef7f131210454d8d5d25dbea0d2156a9399cd9f367e741b110e1720aad6b95ce11b160010262005e69565b6200ba1d7f0afb8d2a042420390505ba73febdcad46b51fbc5787f299b0a46383a3b57742160010262005e69565b6200ba4b7f9c8850ecad6c2fa7acfe211222b48237be0d9bcbad3e60452d68d3be6469c68060010262005e69565b6200ba797f275b31574706d124196f93de6704fb1603f6b53479a24265557836230159acab60010262005e69565b6098548460a55401111515156200bb1e576040517f08c379a00000000000000000000000000000000000000000000000000000000081526004018080602001828103825260268152602001807f476c757761536176696e674163636f756e743a2042756467657420697320657881526020017f636565646564000000000000000000000000000000000000000000000000000081525060400191505060405180910390fd5b6200bb4c7f4a4b478c226922878711c7d3d5dbba490fcbb641caca51c4fbf828b8c180916960010262005e69565b6200bb7a7f12709aa023c7c1437d0f428fb874dd62cfefa6a94160a9856ea7be02ead17d7e60010262005e69565b6200bba87f78d63f3dc0fcd461746a4538a7215ae972ade77c664b0c370d1c0e5b3e89e9ee60010262005e69565b600060a760008773ffffffffffffffffffffffffffffffffffffffff1673ffffffffffffffffffffffffffffffffffffffff16815260200190815260200160002090506200bc197f7eef7889d9f5095cb7e9a72d488afd4982f8a107a26a57d4132fc1138564e9a260010262005e69565b6200bc477f137d930a46031d795d8f9aa019aecef5a4cf0f4848fefcb283021777f36112e560010262005e69565b6200bc757f71fe26de4629c37a91f07e0109231e3f5d5f40c733a94ba80f216582feb5f57f60010262005e69565b600081600301541115156200bd18576040517f08c379a00000000000000000000000000000000000000000000000000000000081526004018080602001828103825260258152602001807f476c757761536176696e674163636f756e743a204163636f756e74206e6f742081526020017f666f756e6400000000000000000000000000000000000000000000000000000081525060400191505060405180910390fd5b6200bd467f2be1e9e413be5f87fb4bcd889371137221512ffc62a817e7a77831f7c5e1ef3360010262005e69565b6200bd747f039a6ecff32526bdd163d41cb48a1505d8dc141b5e20faaceee4620ecf87ae0160010262005e69565b6200bda27fbbe5dde346889c369e578f8cdc186d6f451c6f33b7b578637b6d0f06c789206860010262005e69565b8481600401600082825401925050819055506200bde27f66aba0f96d1f6792b608ae8d44fd94aa6faa338f3af52ab1d2e642911c3b3ae360010262005e69565b6200be107f9fc883e07a34a6af8ee1d8f10a216208ce6670a8e9c002d2ec0cb85ec87cfc8060010262005e69565b82156200beb9576200be457f8d7b241c685f0f33634fa18a1c4d71dcc2cee767c48cc12540bdb18e9b25fa8060010262005e69565b6200be737f1669a514ac2f181652dcef1cb8fca3764afbcfbb250d37d2ad92a5ab5db0836260010262005e69565b6200bea17f3aee7774f03b22ab36fa3dd1cc41b17b2017c3bb5f2c3b82dc195c9dd7a3175960010262005e69565b8481600501600082825401925050819055506200bee8565b6200bee77f87a4f3ad8a6c6df74e5096e6ae54b083ea4b142c7efc42d6e46556132a9ecaf560010262005e69565b5b6200bf167fe6fa6493778d9eb8ac420addc23646359bb9ded8df6dcb8dc545c8ea8f010a2760010262005e69565b6200bf447f26e1bab5fcfcdb48c3cf3321e63d31a3d0cc71de6dd1d2749d4a5104f097896360010262005e69565b8460a5600082825401925050819055506200bf827f549678919587eecbb3738c39ce427a024dca603d97dc926e6dae1f5c009a31d160010262005e69565b6200bfb07f5d96cc8aefe6b902e1213d2fdbe6ce704d6f8f3afaa08ef5a85b5d71b7d3292360010262005e69565b600073__$8ad4cadfbfab443c6ed09b45690dcdfb0d$__63fd96809e836000015488308b6040518563ffffffff167c0100000000000000000000000000000000000000000000000000000000028152600401808581526020018481526020018373ffffffffffffffffffffffffffffffffffffffff1673ffffffffffffffffffffffffffffffffffffffff1681526020018273ffffffffffffffffffffffffffffffffffffffff1673ffffffffffffffffffffffffffffffffffffffff16815260200194505050505060206040518083038186803b1580156200c09257600080fd5b505af41580156200c0a7573d6000803e3d6000fd5b505050506040513d60208110156200c0be57600080fd5b810190808051906020019092919050505090506200c0ff7f29e10f06f32355d2e8b458d3934535f2dc9995b7a5744376568fabc1d34b795360010262005e69565b6200c12d7ffe68b720a9443a5a2c983292cc9bbfe8f430da69cca5eb30ab5e4f1014ee97b160010262005e69565b60a06040519081016040528060a0600201548152602001836000015481526020018873ffffffffffffffffffffffffffffffffffffffff1681526020018681526020018781525060a86000838152602001908152602001600020600082015181600001556020820151816001015560408201518160020160006101000a81548173ffffffffffffffffffffffffffffffffffffffff021916908373ffffffffffffffffffffffffffffffffffffffff16021790555060608201518160030155608082015181600401559050506200c2277f6d29a18058793c267023de1e500297a1b49839905f46fd7558628aa161970a6c60010262005e69565b6200c2557f1e48659a37d90012034ce0504abf94c687d1cde48eae1d34c8ecf6f1da685f7260010262005e69565b6200c26b8160a06200eaf890919063ffffffff16565b6200c2997f970ea2430ac8c7129fc8eaf4f7c2f09dc3460b605ba5397bea49e71e9b74f91360010262005e69565b6200c2c77f32ff90641404ad09eea1cd00e3bb039b4789c6b58017ea094d7e1750d00e945d60010262005e69565b8673ffffffffffffffffffffffffffffffffffffffff16817f2fc7f61216f4b9da63724a7ccba484452205b7cf651334640e3cd11201786006886040518082815260200191505060405180910390a36200c3447f15c6a063f9b01120a1bdb44338ffe9ad683bb9e5d0841ad21e8a6a1706a6304960010262005e69565b6200c3727fa8ad17f714c474602870daac8b065e6e20d7dd6bc40d773bba4a1d9820c4c3c160010262005e69565b8092505050949350505050565b60006200c3af7f41eee1c77d949007184c46444bc026aebd5dd923f0afcf6514b8d64de14bcb7460010262005e69565b6200c3dd7fc1054bf4c62b8334811e3e63ec2e99f18396684dd6e5256ec1ff73276070659c60010262005e69565b6200c40b7fc82241adfb74a23d91a327ab0893a9f1287553d6616b14dd2c828a2c2adfe9ca60010262005e69565b600060a760008573ffffffffffffffffffffffffffffffffffffffff1673ffffffffffffffffffffffffffffffffffffffff16815260200190815260200160002090506200c47c7f30fbc8688988fc240a9fc1c2a1e3c2a43c849c45e86515212e6a5d9bb26a572960010262005e69565b6200c4aa7f4e49c2ccbabec259aec2ec8da81945dad6b263a6ece7af5dd40e7a6435a2d5cc60010262005e69565b6200c4d87ff020a85bf3c444398da3b5e692275b36c2f73df41ee8abb71eb2aa6763e477eb60010262005e69565b828160040154101515156200c57b576040517f08c379a000000000000000000000000000000000000000000000000000000000815260040180806020018281038252603c8152602001807f476c757761536176696e674163636f756e743a205769746864726177616c206181526020017f6d6f756e7420697320686967686572207468616e206465706f7369740000000081525060400191505060405180910390fd5b6200c5a97f295d7cc9613a35bfc18cd0c00a28b299814364a6d1e975c6d52c9215e6b0dce160010262005e69565b6200c5d77faf646100ef7cea788bc31925539542be76919e1c20b75bee53adda3278c6ab9b60010262005e69565b6200c6057f4809e4c5bbee64d565bce34b7be27581d0c606f40716a84a2a4d90f079e2478860010262005e69565b8281600401600082825403925050819055506200c6457f8b177a8c52978e3be2e0c1e866cf5a08705f204fe91c7c0c4ed8cda8f785994a60010262005e69565b6200c6737fe4a5bd5803a029419c876c375b9e5f824f46c7fce5e01c37a0d004a6547762b660010262005e69565b60a660009054906101000a900473ffffffffffffffffffffffffffffffffffffffff1673ffffffffffffffffffffffffffffffffffffffff1663a9059cbb85856040518363ffffffff167c0100000000000000000000000000000000000000000000000000000000028152600401808373ffffffffffffffffffffffffffffffffffffffff1673ffffffffffffffffffffffffffffffffffffffff16815260200182815260200192505050602060405180830381600087803b1580156200c73957600080fd5b505af11580156200c74e573d6000803e3d6000fd5b505050506040513d60208110156200c76557600080fd5b8101908080519060200190929190505050506200c7a57fec4ae7188cbd48a81c3ef973adfc3d60726642d39b3f613816c1dbc8438b92fd60010262005e69565b6200c7d37f7d806b11ed7aa8a8004d5bf6069d3c493eb9e5fc0d41b953fcd9ccfe7996a72b60010262005e69565b8373ffffffffffffffffffffffffffffffffffffffff167f7084f5476618d8e60b11ef0d7d3f06914655adb8793e28ff7f018d4c76d505d5846040518082815260200191505060405180910390a26200c84f7f667bfe2cd3599f95f95acc9b487b7c6bf79d4be81e953aee2a3ef3af81d994c460010262005e69565b6200c87d7fc72a0c558a46349161888d2b06fb31e1b14b10bc5f3a8a56cf573c58890fce4960010262005e69565b806004015491505092915050565b60006200c8bb7f9e707761d3604260ef6f47581b90d70ce40a92cdbef03b831b3dd9922bc74b9060010262001cfe565b6200c8e97fc927a18d37dc75cf332c7685e5080ca9ac5a10ac851837688c2d7096876ff89560010262001cfe565b6200c9177fbb87e89a28a7709f2ab3b65896323c89a208d86ece2f4dec9cc4c1f047a9c49c60010262001cfe565b6200c92162010d35565b6200c92c836200ee8b565b90506200c95c7f9d648b024e5e21ebcd30c48ee4a741dae2a0ff26bb7b3c40ea3763758bbc026260010262001cfe565b6200c98a7fea35e25c4e40db311fadfa03ce797daf24cafaed701ef9945af48107d0fd330d60010262001cfe565b6000600290506200c9be7f4839e995c9a1c145235ebd664f167575798bda02639b8af21cd3c9f826cc6d2560010262001cfe565b6200c9ec7fc8e0e414452696100803d052a534cec965c83cd24910cd3aa98530910b9c406660010262001cfe565b60dd60019054906101000a900460ff1660ff16826060015160ff1610806200ca52575060dd60019054906101000a900460ff1660ff16826060015160ff161480156200ca51575060dd60029054906101000a900460ff1660ff16826080015160ff1611155b5b156200caec576200ca867f189ab8eaa74c2615c2857ac5bb53a506349ed7538b5d79470312a75f13f5074e60010262001cfe565b6200cab47f297c5cf319c225c9574e70354f6700d43fb78d2d74a05d3a7b25d0b5cd16a7e060010262001cfe565b6200cae27f597e009babec2198b8fb6e057ce187221d0fce8d2df989ee6af50601b0794d4660010262001cfe565b600190506200cb1b565b6200cb1a7f6961a5cd3fbf3f221c23b06fce2f8c03a5a0699e444c3bb1d6e30ead8031b8d260010262001cfe565b5b6200cb497f8ccc878bf9d982269fa37694a4ff183c7446c1e8265f9ff2511a714e59f34d8a60010262001cfe565b6200cb777fb63b2007fab96a7f8f7bcd67a8e6209f3a8efd6d255d25d3c2d265a489d8c61660010262001cfe565b600073__$05084330c9bf728fdd5577c5afe72a471f$__6389807474846020015185600001516040518363ffffffff167c0100000000000000000000000000000000000000000000000000000000028152600401808360ff1660ff1681526020018261ffff1681526020019250505060206040518083038186803b1580156200cbff57600080fd5b505af41580156200cc14573d6000803e3d6000fd5b505050506040513d60208110156200cc2b57600080fd5b810190808051906020019092919050505090506200cc6c7f299e8cb5f707bdf46eb37fc86b1fe66ca486f6beb2e6a39d29526ac81168795460010262001cfe565b6200cc9a7f4e3526a5ec0d2e2ef17b28b3f7760461efb7c77b5e3dd33f20cabd152109e61960010262001cfe565b8060ff168360400151830160ff1611156200cf85576200ccdd7fbda5cdd89e443f8c167f2074cb4688f5d8a3f2b7d9e859c46347d960754330db60010262001cfe565b6200cd0b7f345c2c9cdd53c54cbe3edfc685d106face6af589b5ab00043fe3c1356e0d821c60010262001cfe565b6200cd397f6886b35900fd1cf66053283b81765768704b0f280e386ed95023149d8c32b76360010262001cfe565b600c836020015160ff161415156200cdf4576200cd797fc82257c75446b8c65f5bcc626f18f0939ab33ff65a3c14da2a5623e5a053e9f360010262001cfe565b6200cda77f6fa94063b270e56af575007f5ca76d745f51fac3ad447ab1666fcdeab9604ed960010262001cfe565b6200cdd57ff7dafe165a358cf339b6e6d4ab621ba1d958c3447939e7c0c2a125c0a1f2ce3660010262001cfe565b6001836020018181510191509060ff16908160ff16815250506200cf09565b6200ce227ffb63bfece7fe46ba1648904756652835c0b7c283c004b3961e56bc9397ae768e60010262001cfe565b6200ce507f37addd99122e5219ab0853ea21d2bb16772d9e2676a0e57a5160a33acf3ddf2a60010262001cfe565b6200ce7e7fa64edbafb6923bfbeea1b79e0e0495e0d8ec12b1d59eea08c98663de41db370e60010262001cfe565b6001836000018181510191509061ffff16908161ffff16815250506200cec77fa3571bc3c95b7ad0e1d25788496010aa99a5aa662f9009ff66287f75c43c087560010262001cfe565b6200cef57ffa0cc2e526f71ec9e643cf9b66913b3b3d3db9be295e0473fb8a5581bd56927360010262001cfe565b6001836020019060ff16908160ff16815250505b6200cf377f6b212456cf3c223f60a3b9baa512854625eb50105257f039da3ad0a1c75517e160010262001cfe565b6200cf657f1dc42d98ee31a0cca0fbc3396ec55aa52ba0ced40848fc660c278909f19f75ad60010262001cfe565b808360400151830103836040019060ff16908160ff16815250506200d028565b6200cfb37f6b773ee8d48c2106f48f9133d52489f779cffa6376fe5390dc17399dda9f84bf60010262001cfe565b6200cfe17f962d3342e5d109a8ef3fea38bc40c408b4160e40ebf4d076ef5b6e30f2be0cac60010262001cfe565b6200d00f7f69c65038951286b56563e73c06fc646d6a81ca63740333718b0b93568e3eaee860010262001cfe565b82604001518201836040019060ff16908160ff16815250505b6200d0567f4401730427e0bfb946676d7db89eb51003b36e3cbfe4a86f912b9468064d3b5d60010262001cfe565b6200d0847f402c6890a1d6b644eb43eb24b3fbfa2b79dafc1655cab205fff6a54fe109c22660010262001cfe565b603b60dd60029054906101000a900460ff1660ff1614156200d1c3576200d0ce7f4b59407c6e37dfc49370a0600e64a796da6ef9935da4843b749b693d284bc1dc60010262001cfe565b6200d0fc7f6dbaac72e5931ffc0521e18f413f0560174ef699bf81d9669e6f9eab5e70752d60010262001cfe565b6200d12a7f8a597bfa422359afb7df4b20be57f0f3a7472a72657ffd0543122dfb9117137160010262001cfe565b600160dd60019054906101000a900460ff1601836060019060ff16908160ff16815250506200d17c7fb15d6a0ce916fda79dc96183431d470a90e4c6e1b85b78083a6c4cfa8e8f34ef60010262001cfe565b6200d1aa7fece50ea5963433263fa32d9703f6573c3f912ad680c4dfe29f992b69ad42b59b60010262001cfe565b6000836080019060ff16908160ff16815250506200d2ef565b6200d1f17ff10d90047a04633f36e67fe16e2c916c5446ee5eb946f50eba90d92b09b2025860010262001cfe565b6200d21f7fc94dad16fdf5e0f678371132eb140bd47cdb3b925e684c24eaaf282fa646050860010262001cfe565b6200d24d7fb64d30a2732f86a7fadb7a5ef2b2f4f78625b296d266813d7fd676605077cb4060010262001cfe565b60dd60019054906101000a900460ff16836060019060ff16908160ff16815250506200d29c7ffdd89320185995bfc90bd2f435a9e7d12cff2e212aae18da6f0c108a2fefca4f60010262001cfe565b6200d2ca7fdbc8a71c599f71825cdc422cf59f398f8a51348d18be2d4257eab9c208d7587b60010262001cfe565b600160dd60029054906101000a900460ff1601836080019060ff16908160ff16815250505b6200d31d7fc5b503a3cde8ae5bf7e248fa24ec9a90f4b2c81090d36d4d2aca1fbc4bc22b9260010262001cfe565b6200d34b7fef3003f0129bbc70afd32f619ac0b9e9e53ed070a15d073afbfeca0f18b09bad60010262001cfe565b60008360a0019060ff16908160ff16815250506200d38c7fe9ccc8f3b1a0e88304e9986a4a95212986391b5760dbfd02de12dc7a06c04b5260010262001cfe565b6200d3ba7f9320883c9245d2acdf532a3a29eb3ddefbac50f535da86ece2d53fd81c7aedfa60010262001cfe565b73__$05084330c9bf728fdd5577c5afe72a471f$__630a37f14b846000015185602001518660400151876060015188608001518960a001516040518763ffffffff167c0100000000000000000000000000000000000000000000000000000000028152600401808761ffff1661ffff1681526020018660ff1660ff1681526020018560ff1660ff1681526020018460ff1660ff1681526020018360ff1660ff1681526020018260ff1660ff168152602001965050505050505060206040518083038186803b1580156200d48c57600080fd5b505af41580156200d4a1573d6000803e3d6000fd5b505050506040513d60208110156200d4b857600080fd5b81019080805190602001909291905050509350505050919050565b60006200d5037fc6267d462683b71d4858e3ab60fa8ace6c774ae5e50c1d96e7288d2e2554844960010262001cfe565b6200d5317f9933d74d097aff5df0d107d697a6911d45cc5277246ed94c4d6d83e1050cf70d60010262001cfe565b6200d55f7f5475417452ad8c3e75fcd672ba0b0f3721d7d82c4c566c6d66b92c45d227dc5460010262001cfe565b600060e2600086815260200190815260200160002060008773ffffffffffffffffffffffffffffffffffffffff1673ffffffffffffffffffffffffffffffffffffffff1681526020019081526020016000208054905011156200e0dd576200d5ea7f5951fe4093bbbc465837b768a2390c8a9fbcb98c3b6805420845158ea62870cd60010262001cfe565b6200d6187f2c92c6449cfade96ebc3008b98864af7fe05e77faedb12b95eb18ca6d2390aed60010262001cfe565b6200d6467fa24e08921b6c19c081a279f7fd80a189e7ddfdbc3dde71f091c006e1e40d5e8960010262001cfe565b60006200d6767fb9706918c83c962b761f65db4348f28a1aaa5344e33ce0c8a8dbad711fe3030760010262001cfe565b6200d6a47fb7dbeff4a59c271b7ce0e0f67340b40771e439922a468388c671ac42eb370d8360010262001cfe565b60008090505b60e2600087815260200190815260200160002060008873ffffffffffffffffffffffffffffffffffffffff1673ffffffffffffffffffffffffffffffffffffffff168152602001908152602001600020805490508110156200dd07576200d7347fb4180a0cc81b1ba340fab952368844081afdafd580cf128a21e27c3f5809c33660010262001cfe565b6200d7627fb2b98fae8a7bade14ba8d9eaa64606b9ab04a73ffad5ddf1f553ba02e96fb12a60010262001cfe565b60df600060e2600089815260200190815260200160002060008a73ffffffffffffffffffffffffffffffffffffffff1673ffffffffffffffffffffffffffffffffffffffff168152602001908152602001600020838154811015156200d7c457fe5b9060005260206000209060029182820401919006600c029054906101000a90046bffffffffffffffffffffffff166bffffffffffffffffffffffff1681526020019081526020016000206001015460df600060e260008a815260200190815260200160002060008b73ffffffffffffffffffffffffffffffffffffffff1673ffffffffffffffffffffffffffffffffffffffff168152602001908152602001600020848154811015156200d87457fe5b9060005260206000209060029182820401919006600c029054906101000a90046bffffffffffffffffffffffff166bffffffffffffffffffffffff168152602001908152602001600020600201540391506200d8f37ff5153cdbe8366d96a58b2151ccacdc80510685a5e0f2f031a257580bf654f74a60010262001cfe565b6200d9217fb415912d3fea91b5f4c17ee3a8ac7667da4901e870c5dfb509e141d8342dd6d360010262001cfe565b818411156200db7e576200d9587fd3fafa6762968c1bc7df1988142b74a15252d3b157ba4c57dfa893d812e668c860010262001cfe565b6200d9867f97367abec8482e9e3592b8ef912f0e5b6d9fbe32ef94d8edfa4adf37aad37efa60010262001cfe565b6200d9b47f5de32c9473ec55f83bf246d78f12fd508ebbac96154f5362de89998f6df41abf60010262001cfe565b81840393506200d9e77fab6fd99882dc99305c9e7aa3df4bc3415d6278b1209971241c7d679570c5932a60010262001cfe565b6200da157ff9c6b849998a785aa1b465d2b5bf81a3bc769b62f790010dd5be5685906f166460010262001cfe565b60df600060e2600089815260200190815260200160002060008a73ffffffffffffffffffffffffffffffffffffffff1673ffffffffffffffffffffffffffffffffffffffff168152602001908152602001600020838154811015156200da7757fe5b9060005260206000209060029182820401919006600c029054906101000a90046bffffffffffffffffffffffff166bffffffffffffffffffffffff1681526020019081526020016000206001015460df600060e260008a815260200190815260200160002060008b73ffffffffffffffffffffffffffffffffffffffff1673ffffffffffffffffffffffffffffffffffffffff168152602001908152602001600020848154811015156200db2757fe5b9060005260206000209060029182820401919006600c029054906101000a90046bffffffffffffffffffffffff166bffffffffffffffffffffffff168152602001908152602001600020600201819055506200dcf9565b6200dbac7f656925be81ad07f711fb2853f2d96882edd15b630070f5c55b9dfddd111def1860010262001cfe565b6200dbda7f3bd8fdbe6606aebfa1a5081203b96bad66837cb3a411f1c5e80eada525d9dcd760010262001cfe565b6200dc087fdb123ab0412f314d23ae0d9f90f89f2e10a6e41033d4eeb7606482be127dd0d860010262001cfe565b8360df600060e260008a815260200190815260200160002060008b73ffffffffffffffffffffffffffffffffffffffff1673ffffffffffffffffffffffffffffffffffffffff168152602001908152602001600020848154811015156200dc6b57fe5b9060005260206000209060029182820401919006600c029054906101000a90046bffffffffffffffffffffffff166bffffffffffffffffffffffff168152602001908152602001600020600201600082825403925050819055506200dcf37f9f5fe2723276cdcdef377295aec0c8c49e37e9e7bbb68690a4aa2dbebb6cafd760010262001cfe565b6200dd07565b80806001019150506200d6aa565b506200dd367f3f5f81676e5f5ee30fcde939ff01b915edc3ea103aa9d270ffb09a2b7784a3be60010262001cfe565b6200dd647fc47483b50fffcdbc077fcfb6da84b9b011b79f95d813fbc6529d027f58dfa5d060010262001cfe565b60e3600086815260200190815260200160002060008773ffffffffffffffffffffffffffffffffffffffff1673ffffffffffffffffffffffffffffffffffffffff168152602001908152602001600020548411156200df70576200ddeb7fcbfc3d9075fed53ed752549af9f9c792cd822a108e157857ad73c097403e249960010262001cfe565b6200de197f11957a4468cda2850e8275efbbcafec715df25669241cca53d605f7ca52bd23860010262001cfe565b6200de477f6d94e0b2ed13a9c52db7bddd9bbd1c479a4ffd01ade8bded8f11991eee5b546560010262001cfe565b600060e3600087815260200190815260200160002060008873ffffffffffffffffffffffffffffffffffffffff1673ffffffffffffffffffffffffffffffffffffffff168152602001908152602001600020819055506200decb7fdede6b286c1629a1780a72f861df93564d8c27f9a5decd928f33b7c1282c0e0560010262001cfe565b6200def97f3155d3f0fbcdb604e7ed1c06c1a6985d70c5b46a107c68f130b32bf58b18d40a60010262001cfe565b60e3600086815260200190815260200160002060008773ffffffffffffffffffffffffffffffffffffffff1673ffffffffffffffffffffffffffffffffffffffff1681526020019081526020016000205460e66000878152602001908152602001600020600082825403925050819055506200e0d6565b6200df9e7f40a8e73bbcb01d47b5671c52a9b29a286fe71eab24c4e624650536ff6451345860010262001cfe565b6200dfcc7f38ff2d211281870e6fb6c4b4f1680b0a20528644ce5b213aae44cdff98eee96660010262001cfe565b6200dffa7f67054dac490c85ee27cb348f7947c8206bd638d1118776530f41b8124abd49d760010262001cfe565b8360e3600087815260200190815260200160002060008873ffffffffffffffffffffffffffffffffffffffff1673ffffffffffffffffffffffffffffffffffffffff168152602001908152602001600020600082825403925050819055506200e0867f6c9c951c9424fc2ae46c3da0a2da7810a85785eb78ddcce261b4a62598bfce8d60010262001cfe565b6200e0b47f2d3b99769cfbf74e4b559baead6ec327f44984377c96a4a7c735877e1751bf3060010262001cfe565b8360e66000878152602001908152602001600020600082825403925050819055505b506200e10c565b6200e10b7f752b614dcd43b64a7299e0f86075c6d21cedbd89eba1631abf2743b7b946af4760010262001cfe565b5b6200e13a7fbaa6dad4bf9fc1b0239fa23cbdfb6c0e927c3523ee2275d7b861051d256dfc8360010262001cfe565b6200e1687fea25679998979202b0b4b107f89054f2794bb3bdd9a1c4d768a97a844758a78060010262001cfe565b60019050949350505050565b60006200e1a47f8b9337500c7386ca8a4084f42b2d40b9be1af142fb7b663118e6df4ae84c617a6001026200e3bb565b6200e1d27f2d10932486833c7b94206e0ae6f4a561123119dc1d8256f3e1dffa1f209828416001026200e3bb565b6200e2007f3fbb6c237d91889d2b85197067a6867564519756a4b142dce99503390a61e0da6001026200e3bb565b6200e228836000018373ffffffffffffffffffffffffffffffffffffffff166001026200f836565b905092915050565b60006200e2607ff0ca5118ce57dbc469380946ed7733bfee6956d8894b68924b77265267d985a86001026200e3bb565b6200e28e7f4e24753963ccd879d590789fd3106e2074905aede5539b4162644af54b7f58fe6001026200e3bb565b6200e2bc7f459e278c0a981f356992f93db68199e1525e444b60a1aa9f415242edaa90bbd36001026200e3bb565b6200e2e4836000018373ffffffffffffffffffffffffffffffffffffffff166001026200fb05565b905092915050565b6000808311829015156200e39e576040517f08c379a00000000000000000000000000000000000000000000000000000000081526004018080602001828103825283818151815260200191508051906020019080838360005b838110156200e3625780820151818401526020810190506200e345565b50505050905090810190601f1680156200e3905780820380516001836020036101000a031916815260200191505b509250505060405180910390fd5b50600083858115156200e3ad57fe5b049050809150509392505050565b50565b60006200e3ee7f1e389c3a59451a90cc38a462ab78e585703d049faa682b547afe962dd782d9fb6001026200e3bb565b6200e41c7f91294d2a3cd14ca48c2829d94278cbbc8da604b303f69291b78cc7a96433fb6b6001026200e3bb565b6200e44a7fed54bc75583d419ab275e8111912b68693321933fc327bb4bcf80928ad8b8b496001026200e3bb565b6200e4787f3daffd0a9dce28b482d01a551215671bf4393bb2c14e29701cf4960e2f2b12926001026200e3bb565b8183600001805490501115156200e51d576040517f08c379a00000000000000000000000000000000000000000000000000000000081526004018080602001828103825260228152602001807f456e756d657261626c655365743a20696e646578206f7574206f6620626f756e81526020017f647300000000000000000000000000000000000000000000000000000000000081525060400191505060405180910390fd5b6200e54b7f40aa26a0e9be8d065cf56c5a97ee7ecf2d6f7f27a85e81ebb85bf92a3fb598c86001026200e3bb565b6200e5797fe7416d2a3843e619b1224850d86b591b72a1e287cf0e1b4b38a8e263ea5326976001026200e3bb565b6200e5a77f3f6e9522e1ea2955cabc1c679f64bf976068c841a9611123dcede6de73ec4fcd6001026200e3bb565b82600001828154811015156200e5b957fe5b9060005260206000200154905092915050565b60006200e5fc7f02a432993c4332c426e42b943b3b019f4f8176664138a13b7aefd4766c8779426001026200e3bb565b6200e62a7f4106100c6ddc9e9685bfafb2331061f66fe0bdf557d61e86d3a9e77f415df1c06001026200e3bb565b6200e6587f74042fd2ce01d2d4e5b83168db3daaa0ada16dcc55033ff01c774f8d3b09d26b6001026200e3bb565b6000836001016000848152602001908152602001600020541415905092915050565b6200e6a87ff646bf7a647c7eede6638809cfb9c3301764e40ef49c153dd68e18ef90812a4060010262002fd7565b6200e6d67f6fa7faf9721d6feef12eef2be7cb46f54c37eb46b0da7acac7b4fe0f1b3f544260010262002fd7565b6200e7047f8151549efc9ed0302e535d39e83479798ffab5156bdffc64026f549fa008bc6d60010262002fd7565b8060336000848152602001908152602001600020600201819055505050565b6200e7517f9dccac468e58953be22b97f316f61593d0626c019b44f72d0fae41962f2372db60010262002fd7565b6200e77f7f431977193dba4d85d3d1072d0ba5e1cdccca8cddfd8c4aff4d7ac2ea98d3d4ee60010262002fd7565b6200e7ad7f28a965b98d8b942f56696427d3c721e5310563fbc5164dca87cf5cf13ea2a9ed60010262002fd7565b6200e7b9828262007b20565b5050565b6200e7eb7ffff5d955ac9fed568b78130768dde7eeda28dfcf1805375a196488105b18829a6001026201004b565b6200e8197f4e62bb0dfcaaf152aba4bc8f9322afa4e1b6646b851b528f4e354fbb6aa148996001026201004b565b80600001600081819054906101000a900466ffffffffffffff168092919060010191906101000a81548166ffffffffffffff021916908366ffffffffffffff1602179055505050565b60006200e8927ff5b89a497746cc14694c9f1ed1aeaef6a21f81b1a91b334ac822cb679c327c546001026200e3bb565b6200e8c07f3d2a328b4224524dd5bf276581f8c7e30b93161a3146a223de54a8178318570d6001026200e3bb565b6200e8ee7fa53b31889d5006b4901ceb793559ba11b86794ec37414fd5e2572de69058b50b6001026200e3bb565b81600001805490509050919050565b6200e92b7fd1c72c9bdc3ca9a4257e4ddf645a869b391e970ffd9bff34df0d0528a3ac412360010262005e69565b6200e9597f8f4f7dba546226f7539a16ab9066c75e7e81e9673b6f68728d46fe1f3a61887c60010262005e69565b6200e9877fcd170f4119e3aca60e7724267684566dd2041c7d5aa444acd028429d3f748feb60010262005e69565b6200e9b57f6a63989ee14a10486b835350903bf45415c808a528500885e6619c5399aefc4260010262005e69565b60995481101580156200e9e057506098546200e9dd60a554836200812890919063ffffffff16565b11155b15156200eac7576040517f08c379a00000000000000000000000000000000000000000000000000000000081526004018080602001828103825260698152602001807f476c757761636f696e536176696e673a20746865206465706f736974206d757381526020017f74206265203e3d206d696e206465706f73697420262063616e6e6f74206d616b81526020017f652074686520746f74616c2062616c616e6365203e2074686520696e7665737481526020017f6d656e74206361702e000000000000000000000000000000000000000000000081525060800191505060405180910390fd5b6200eaf57f90cf296771fd961654f91d9695f3942bb368f3b2cfa1c69ea5c14349e4e93dad60010262005e69565b50565b6200eb267f798fe46ec32f58e3194f374472330189acaec5f63d210e36fa29ada91b80bf1e6001026201004e565b6200eb547f6ecb170396c14317883540b3964eba795d943aa663dcf5280b5b00c297de636e6001026201004e565b6200eb827f72e61608aae04601bbd1239fdc2e820a3a4dba42d659e34ccfbb6a7ec5d8a6c56001026201004e565b8082600001600084600201548152602001908152602001600020819055506200ebce7f944f5e572c497f4711f22b6c2f51c651e69e05a4515fd336928d95d3f6dd90bd6001026201004e565b81600201600081548092919060010191905055506200ec107f450ad1fd970b03f3c1c2c548c27672e7ee85e6c8e7540b27ee63babb3021f0ac6001026201004e565b81600301600081548092919060010191905055505050565b60006200ec587ff89fb822d335b9dc601a9556cc5e96ac1e4c2e7dc0e0ae35cbb7a4b8810f116a60010262001cfe565b6200ec867f537eb45c1ef919b66c047975f45174e60e410ff842f4d66c056e79d83dfe664c60010262001cfe565b6200ecb47f656ad3b4f3c2a307d171ab15abb22494d1c9c629f1eb6f2d37f3dd5b1ee2471360010262001cfe565b6200eccc856200ecc4866200c88b565b8585620094e7565b9050949350505050565b60006200ed067f2459bffe89119e7f765dba0c69d9f56e9c5a84cf114d713c55cc1d6103944cad60010262001cfe565b6200ed347f6a1eba7c98dedf3c83fbdd13f534dfae6e1555b1abc3827f08a9dc7d0bcb4a6d60010262001cfe565b6200ed627fedbf2e8ec86acd3317cbe2e59954608482107869daad39317d29bb832ec566b560010262001cfe565b6000846001868603014285434042448a8c6040516020018088815260200187805190602001908083835b6020831015156200edb357805182526020820191506020810190506020830392506200ed8c565b6001836020036101000a03801982511681845116808217855250505050505090500186815260200185815260200184815260200183815260200182815260200197505050505050505060405160208183030381529060405280519060200120600190048115156200ee2057fe5b060190506200ee527f1e4c5363833c25365820aa63a423b8fe47c99d9a4612ad17829d7daf3df8876560010262001cfe565b6200ee807f648787b6c7dff445e5877e30c431ead9dd6aa76466c6f6011f5f0c4c2cdac2b860010262001cfe565b809150509392505050565b6200ee9562010d35565b6200eec37f65c3cf497d2e456bc55bea799cb8dc0d51a2bab00d432c198f7f3f3b0405928960010262010051565b6200eef17f6a67a4fb3b94133a63de1451dcd85e5c5cda55768ec0988438d9e929ada6a21760010262010051565b6200ef1f7f9522db35201a625d03047e0a83e405abaf708c2f21c844b40412aab518f9212660010262010051565b6200ef2a8262010054565b816000019061ffff16908161ffff16815250506200ef6b7fb6f1e4f1ee721eef05777a511afc53d357b3ae4fa3d5ff1f17674b0c1ec0757160010262010051565b6200ef997f4bc272dac49c832dcb7fb4035ab3b3f110a9f43623381a480a7246bc0bf718f660010262010051565b60006200efac6107b261ffff16620104c9565b6200efbf836000015161ffff16620104c9565b0361ffff1690506200eff47f75fed6daba885d0578445ab7b7a66b57b2282cfc36ec37c07ee2794172677fb560010262010051565b6200f0227fb6f7287c6473a50e1b38b41f83e2246d4e8d12b888c2946ca04ed94d67b8ff6560010262010051565b6000816301e2850002826107b285600001510361ffff16036301e13380020190506200f0717fe82fa837660b9fe78ef08c9641a9b9a03fdf575d220322c04f0291003060741460010262010051565b6200f09f7ff9f7984bfed3c0802cbc69cbea94f0d61a4713b938ef0b6c9636ce0a2b99027b60010262010051565b60006200f0cf7f806c13d853d4c035d109dc0270a6db1c75bb1568248619867fa569f4f48105e360010262010051565b6200f0fd7fc099bb14d589016a9243cb70c21e09a5618fd9bc114078866329a6321a0008d760010262010051565b60006200f12d7fa8c153fbff1e26f9d2c92821d7f6f66b060a48f93beb3714c37b0b54e0c9c30860010262010051565b6200f15b7f3fbd1670a45e3319798a4ccb23b60ed01d05e0eee1957336f68b71104e75fc0360010262010051565b60006200f18b7f9ffe33813370748665e6754a45c7b9a2c8a54ff021bf53c80ae4a141841e704c60010262010051565b6200f1b97ff05dc18d17043d62fc1e765561be51de7e18c1c3277872abdcb32fad0cb6632b60010262010051565b600190505b600c8160ff161115156200f479576200f1fa7f7c233dad1f6a192553947a6d7ed76b62b4f60d9a4c56eeb17f871d055bb4542f60010262010051565b6200f2287fe24e95afe2b1b86be04e04f8936c3d0b17b7e70bddd237271db5c52fbf84e3b760010262010051565b6200f23c81876000015161ffff16620105eb565b91506200f26c7fe86a405280771711451be0b334aa76ce095a3ff4971daee704b0207c035f9bf660010262010051565b6200f29a7f123af6654288920957bed7acbd33b8c89704966fa0a4ab95492c96874c98b84460010262010051565b8160ff16620151800292506200f2d37ff82784811d350e107c487ed23190e7f92019191e729a1b53249be70b34fcf9e260010262010051565b6200f3017fc16afb265ab91b6c1205c88dcc624bf2874ee09e9b66e1a0ba241871fb4d412660010262010051565b8684840111156200f3dc576200f33a7f3188a408f43491dd6c23e72f71657348f6e51fb478d0afdba7f562b408e26dfe60010262010051565b6200f3687f2a6cdafdb8911e44434b68183eab43752f32c4d2b08120dcb06db38f724dc93460010262010051565b6200f3967f572ea494e893c2dd97e26de0a8cfc31f887d291a8823fb9ec8758a569640103b60010262010051565b80866020019060ff16908160ff16815250506200f3d67f7e2c8734b00f104076ef6a23c664fb3f90888db583e8096e4cc5c8852d3fd66960010262010051565b6200f479565b6200f40a7ffeab6427bf51e972eda648d3eb6d482ad5850bcc5655fc88271ec789e10460d360010262010051565b6200f4387f46244ec7fa678ed3f30faf4a9033444dc3168e60b98cd680f8dbcaffcd26bf4760010262010051565b6200f4667f256c99a2fc0f0a860a4330f973fd96bd84da087798a86b746f8d2d86151676bd60010262010051565b828401935080806001019150506200f1be565b6200f4a77f5f21e22de5f3f92f2c1d283827b94b347e1098b87b2d012bb7175fdc2668f0f860010262010051565b6200f4d57f50b662ecbc0a369719a389b0d7b8656be8db9487ba4bdb484ee14c780dcf91fd60010262010051565b600190505b8160ff168160ff161115156200f6c4576200f5187f6a5ea1c27edf78adb18ffe7c502c3ea753abac5ada22f584f0ce3774e2ae352560010262010051565b6200f5467fc9052f7d8f77e1d46e13e88e424686638bea10f2142d0c4ce704c382af84e26160010262010051565b8684620151800111156200f624576200f5827f7e1f5d91663ead1864ef52ec5cb592444ad33cd66493bd7e97cc4b028bfebbe260010262010051565b6200f5b07fb6ac75779ebd95d710ba8ff863f971e2cbb727099fdac0de6671db3d99e284a660010262010051565b6200f5de7f57059e354f5d8f83342699811e06f3932046bb0898077b7bb58911cf5e78759260010262010051565b80866040019060ff16908160ff16815250506200f61e7f509e1093fcae8976f27b921fd34f5a734984bab933b349bf6f169910c0f60dd660010262010051565b6200f6c4565b6200f6527f2396debca5be8803b6ba608c2cd07c3901e31868d93e1d75269f5bc9ea1ff33160010262010051565b6200f6807f496897ebded4144c69dd0c31e326ce1cd614da28d571d4f7875b5da9ff820b3c60010262010051565b6200f6ae7f2fb721c69cfc95b025af6ad6df50656213df9a88c2adf8724fce203cee5414ba60010262010051565b620151808401935080806001019150506200f4da565b6200f6f27f54e1dbac27b563299a9ed79ba7855092de351a6bee6767f5030132ef2b7b0de260010262010051565b6200f7207fba957646f319d8de0d0018f494ecfc856d85d8065a6f2be692434c8298d4ad4d60010262010051565b6200f72b87620109d8565b866060019060ff16908160ff16815250506200f76a7f570c1ee08df3c5b9f66371440dac0f24737c6879087319eed0f5d746fc04280c60010262010051565b6200f7987f95644a2755f5f46f0e59ff4b6dd7fab321b7afd6d45fe5db32fffe03193f58ce60010262010051565b6200f7a38762010a87565b866080019060ff16908160ff16815250506200f7e27f42df97d9384e7a4fecee7306add3297fe97fb04def3e6810a3d97a0e34214b3160010262010051565b6200f8107fc430bea8c5c884859950fb6f46358b3b76b86661a4167f041d2b6b9ac715476460010262010051565b6200f81b8762010b34565b8660a0019060ff16908160ff16815250505050505050919050565b60006200f8667fce3c0267f6afecccc16fb1df160b30bad8dd9e6470f2c250c65f5d16f55953836001026200e3bb565b6200f8947f1428e26d804ec500abd0e9390b2940e16e23c588838979a643dc197ecc45d3146001026200e3bb565b6200f8c27f0b321acd305614c64bd3b03df9b54fda13512f699793d352dda406f5377d654a6001026200e3bb565b6200f8ce83836200e5cc565b15156200fa70576200f9037f7a5ecc9f91718277f21ffe36d4008cfb52c45cb4a3d02c8d3ad7b368266b527d6001026200e3bb565b6200f9317f594e731be2305a9bbd344870cf0633f896cf7c8a552149ac8c3887f5939fa2cc6001026200e3bb565b6200f95f7fce845126564f88320d57ac15815dc9da8f604bbea797690ee5dd29256f4490ef6001026200e3bb565b826000018290806001815401808255809150509060018203906000526020600020016000909192909190915055506200f9bb7f8de4d4b62709fb9aa3764ecad70f3f67ded177953e8d0b3fa69eb7270f7a72b86001026200e3bb565b6200f9e97feef1a22ab497f0a0b5773c261963d43f0abced69475a8f361c4c09940a2e0f116001026200e3bb565b8260000180549050836001016000848152602001908152602001600020819055506200fa387fd3ffd1de8410e1a5342524eadcc24cec3d13da46f520a8ff3842159d8ac513816001026200e3bb565b6200fa667fd29f0954420e0dacdaf662725b7670ca376b5ecb1467eea88f3ed07b3cef9b2b6001026200e3bb565b600190506200faff565b6200fa9e7f416543475b2a4ac207e92b54c5a89b0283eb8a6898f17e8a422c8a2b3bdfe4dd6001026200e3bb565b6200facc7f53e6da82d3cb4b8c67410d9eef4d4d2578dc84336caa8505c50feddb82e7c74e6001026200e3bb565b6200fafa7f9985aa50040fc25f597dd3c0a0ef9e1794881ab1e07bd05e1686a5c7731277186001026200e3bb565b600090505b92915050565b60006200fb357f924e66bc6d3998d3584ee5dec8380db18c7801386c9813e9c519c714f9cf05b46001026200e3bb565b6200fb637f0464100dfed97956c95ac0853f67804ec637520949c0ddf43963e7218712c4ee6001026200e3bb565b6200fb917f31239a0e5e1877005aeaa2cf67ecd4f26333ff91ac415b7b58467f96b928e4706001026200e3bb565b60008360010160008481526020019081526020016000205490506200fbd97f0e8690e5eba3bc911cbe19ecc595ae9d5a7041f8b723ff9c12a4707e72d1d7096001026200e3bb565b6200fc077f187fa4fe781f8142b1e1da8868034ad381d767259bb390adb2ffa112cc52f2726001026200e3bb565b6000811415156200ffb5576200fc407f9edf3971b67091da233f4cee6fc830f48fc8dae83e1acedbee273f8618720ca86001026200e3bb565b6200fc6e7faa77a760e845cf44dffa170ad08e7782cf1bbc412ad237c88b0c772676e915086001026200e3bb565b6200fc9c7f91a387f2c534fe2d9593060ddb58e0e80cbd7962a699db2183f7fd9ac7bf071e6001026200e3bb565b60006001820390506200fcd27f5273e3157ed309e995284bc9a0977b5e190f596e6d0a7d6a98f63c6c2e9d2cf56001026200e3bb565b6200fd007f6d6ed45f9faffdfa6efb315d613b5cf6f6203c948a1d42a6be8e892393847bf56001026200e3bb565b6000600186600001805490500390506200fd3d7f9c908650b18c4d06afe6e22d13e282f9f484d9b002a6121d345881d9d8d830926001026200e3bb565b6200fd6b7fd1882d1c724fb038c1a118718cfe41c240fcbb742f29604cb573449c428371b76001026200e3bb565b600086600001828154811015156200fd7f57fe5b906000526020600020015490506200fdba7fc7f15540aa2b0ce236d481f7560d15ffafee2f2e30cac9beab7e15a266dfe9a76001026200e3bb565b6200fde87fd59aa80060ea20a1bee9535659b672619a59eb9abf365dafefcb942c2613c7f26001026200e3bb565b8087600001848154811015156200fdfb57fe5b90600052602060002001819055506200fe377f510cdbe5cda3c6cfdb8e3b071d5f7c35ea460dd72c7be1c916a1934f864dea146001026200e3bb565b6200fe657f69556792cf99684702e25e6dffc56bf298f3be73f828931c796488097d672b3c6001026200e3bb565b60018301876001016000838152602001908152602001600020819055506200feb07fe7dbbe65769452c853cae620146590604b6b716ac01fb8b203f1ba9fc91fc2246001026200e3bb565b6200fede7f0210cac0db58119dced257e99daceaaac77667d292149865bf117b7ca9eb4bce6001026200e3bb565b8660000180548015156200feee57fe5b600190038181906000526020600020016000905590556200ff327fbb32f6a0da519ded942950a6895a2c4b30863d395a47575812ea09df9c76aeef6001026200e3bb565b866001016000878152602001908152602001600020600090556200ff797f2d7ec9f89494f43c00f58c9ac42d6c4126f5ad30efc6a67b48204435b90bdbe16001026200e3bb565b6200ffa77f808fe5bd45f46ab8ff1cb9aa9c9a30377ea23be0941c4795446d41d254aae5c46001026200e3bb565b600194505050505062010045565b6200ffe37f556bfe46c39f16f279635b09a7f3e6cb0df504be781b0931db8a40bab702a7976001026200e3bb565b620100117f5852ae1c75c424755782c3fdffd26401e1354b9b177513f37690d594b1ebc8ac6001026200e3bb565b6201003f7ff852b790830032d89971e2c521d42063f93f9915f774b150a71f19bed01505fa6001026200e3bb565b60009150505b92915050565b50565b50565b50565b6000620100847f3831d2f46af76e575f65fd9ebffccfe8f17e118a92c6265ff792c3fdcb555a7960010262010051565b620100b27f3e93a3758d1da71b45b1a9fc01c8011db23a18c98a24061d6e3aa8602da8247e60010262010051565b620100e07f603f8c0b01d48857d77b539a8e655e56c07b3c48fd7e9ec719459cc8f2dd36cc60010262010051565b60006301e1338083811515620100f257fe5b046107b261ffff160190506201012b7f6e46492d3df9309fcb22ad59e97be4a0b069b31f67d27fb48f6a34363dfa162b60010262010051565b620101597ff155b17cc897643b41df67d3561cc347f9bef4a466b3df72a02f1d326f96e3ec60010262010051565b60006201016c6107b261ffff16620104c9565b6201017783620104c9565b0361ffff169050620101ac7fbcd6f205b1d394b650b54511aca8b4e9d42ae52409dfae8b84bf10b3ce084a0460010262010051565b620101da7fe0d2cb0b4b54776f7c09b0b36f7ff6de0e2f4385a9cf7c33799b791b5dda635060010262010051565b6000816301e2850002826107b261ffff168503036301e1338002019050620102257f1e9259b08c5dc9653126ea6fce79b6f72e0dd454c90c0cbf400d543ae59f7adf60010262010051565b620102537f94c55045a4ec3af02cec0a1fb9ea26f4ebd96e1d9fb84bc225c402e0a603af6060010262010051565b5b8481111562010462576201028b7fd162d092a0721c0063aa29dd083713e6957b2c87c7b44a0a8ff66cb07fdf303b60010262010051565b620102b97fcbae63fa06e6039f9c7f4ebaede7eb6aacf5468defd4888d5e8445c1bc9cca5b60010262010051565b620102c76001840362010bd5565b156201036657620102fb7f5144054db1d58dbe626c516d675ab9e9455e65461e6162f87854014dfb8b021760010262010051565b620103297fce34780398d4a6d72cbbbb4d13a62cda7954f54ab95b8b90f1810060679b4e8360010262010051565b620103577f51e4d4712bf2ea774012502a24a8ba7762dd3d4d2b7ae816b41d57aa64e07d5160010262010051565b6301e2850081039050620103fa565b620103947f966599230b2efe1217cf9a88ea1a477ee4707204861232319b6c946d000d830860010262010051565b620103c27f6b283944c5f6af131447249ba3ee43ff2718d04e712b34fd445d2f93045ed4d960010262010051565b620103f07faf744b6260b93deb033e632509d37e335b0846c424a549984680a439b124952a60010262010051565b6301e13380810390505b620104287fbbc6e5f05e60723a2fd98775070cdb71d4d05117e72768fc24d09ceb3b54ceee60010262010051565b620104567fbd8714a14ded21c1f0ef248834bf451f5f001d2e258588d47f591017749d7cde60010262010051565b60018303925062010254565b620104907f7ff2a0a65e08d801c71d32e5fa6d21c7c14daa7b9b52e6911951e61d2dee5ece60010262010051565b620104be7fc400fa2f19d96d670b5cd553118c3dcc839d1ca01643f3f2aadbb964e66cd58260010262010051565b829350505050919050565b6000620104f97ff007e8ce052e12f2d9bf15fe86b6823999a3c41af914f5f26d038a66674422af60010262010051565b620105277f9f24d204f8e8b55dda232ace5da3fe70f2008525f5cb8e874eb1ea6a4fe7e88260010262010051565b620105557fa8f5f468d40e0ee31e441b11ee194e32890c772b4f58e9af8b5b41d398fe187260010262010051565b600182039150620105897f66affc12d63b8855820aa906e9a4b08c2feb4edb8a116a91f556979f3ab99ced60010262010051565b620105b77f3bb09d0037b739d50b6349daabc35de9ddb93a013c8fcbff0af23e099adcbb0460010262010051565b606482811515620105c457fe5b0461019083811515620105d357fe5b04600484811515620105e157fe5b0401039050919050565b60006201061b7fb4c0a2f66d83d32038e7162b3ad28e2705331fb983cfb3cb064b37501889ea5360010262010051565b620106497fc5100a56dce49bf964aa99b54f102a3f0a3f6a803d69972b999aee261a9a86da60010262010051565b620106777f3940530a99f4099b8f4d07dc32f531b54295567a330c81801a6ef5040028a23c60010262010051565b60028360ff1614156201081957620106b27f69bd8442c820eb767dab3ea1cbde489b75622373364717d027596fcb6b43393760010262010051565b620106e07fc1cde02925920c3dd289f9c937a9ce3ae53fce4f82996d43e6461729014076d660010262010051565b6201070e7f9b897a64bbfff882530d264b969ff02abff2819b3ebd5a7d0ee1d9f5d1a0b19360010262010051565b620107198262010bd5565b1562010785576201074d7f1bc45735d4e64373353e1d3b278bd6c7cdd83cf891971c65ff92433c8a9f078560010262010051565b6201077b7fd907228da083e86c4a94974b84b50f80ed66b5dfb58276fcb209c6cfe56df5b260010262010051565b601d9050620109d2565b620107b37fb1cb616ec0506f2ecfd084b6e3b54e8a6d2d1bc23112f172081f64ad47bd978e60010262010051565b620107e17fc53b73c047fd53baa01f9f93b941aeb2fed3930f8ccacde5e4b031f6d034a97a60010262010051565b6201080f7f44ffb8ba1c424d23b5cf0490a0229b72ced587f226aeb184b14de4140a724b0860010262010051565b601c9050620109d2565b620108477f504a8ec7857f77f0f05b9e1fa4ba5073fb694e2771756c23a9c9532dade4d4f860010262010051565b620108757f903e5899356adf169cc3d09a553e3b95613b37b8b2c8192fcec99a21cf72b5fc60010262010051565b60048360ff1614806201088b575060068360ff16145b806201089a575060098360ff16145b80620108a95750600b8360ff16145b156201094357620108dd7fe5b363119b7f9ef45484423cb8ff0353b064ab8ff3ed4ef958fb4e841ec7aa1b60010262010051565b6201090b7fbb3a674b09336dbb76a30f85820f5fc5fea400803f83148dd166d65b077761e460010262010051565b620109397f251fb80cc25a2f96ff3c65f2ee513e802271dfa26e68bc2b8620d6b53d34c17260010262010051565b601e9050620109d2565b620109717f0685935c6ba4dd53ff0b8540217e29a80271148233eb7d9a6deb49106a09961460010262010051565b6201099f7f34f29fb6bec7bdee0f975b3b46a51f8a3a974bb47978e8b49ff7983cc11b11e560010262010051565b620109cd7fe4adfb0cbab84cf8fcf523d90533da057bec4887975b727ad4ee0ef78a58e0f360010262010051565b601f90505b92915050565b600062010a087f659ee24f2f90a92fd4407919378438d34ff08398b5df93e04aa4ee37bf43283660010262010051565b62010a367fa58a1f34a2d54c93d5914a5ff8ac0cdd6f43092a957880c1b1b5a2be7c744aa660010262010051565b62010a647ff60d4be4c0422d3ef58f4bfaa0489889a2787df5de7f3164daaa008cfd10659560010262010051565b6018610e108381151562010a7457fe5b0481151562010a7f57fe5b069050919050565b600062010ab77f284015969d16865a2ca6a6ec89e8f10c2383cb0ca47b0e8f7ac26a66b601a7f160010262010051565b62010ae57fde3638b8dda946d63a69803a80ae6fa235c42d959fd33f80cb0e4247396f0fd560010262010051565b62010b137f11601f329febf3ba37d8935fe5019c24e5b604cf1a795e7e2be3082bff4702c060010262010051565b603c808381151562010b2157fe5b0481151562010b2c57fe5b069050919050565b600062010b647fd5b956881580de96c71d2be72473aec96e179f8f03f16b9cad8cfb0ad738c6ed60010262010051565b62010b927f22d5429e11b7a4b4ea253ae8dcffb6690765e732754c73f283de0a558b92c5fc60010262010051565b62010bc07f1d09cfc393507225f20c9f3d242cf56b5ca01b206913fca93693b9bfca9a3a8760010262010051565b603c8281151562010bcd57fe5b069050919050565b600062010c057f6f95896d861a1cf4ef23bc40c92abfbca3affb80257f517f2c007562da81a80260010262010051565b62010c337fb12ad78b1876d14abaa37416671bd07bed080a6ce64b371bdfd7e2d69d89da6e60010262010051565b62010c617f6c06717daf4584869deb27237b0c27fb71b4bf54141f6fb6817c9a7083688aba60010262010051565b60006101908381151562010c7157fe5b06148062010ca75750600060048381151562010c8957fe5b0614801562010ca65750600060648381151562010ca257fe5b0614155b5b9050919050565b828054600181600116156101000203166002900490600052602060002090601f016020900481019282601f1062010cf157805160ff191683800117855562010d22565b8280016001018555821562010d22579182015b8281111562010d2157825182559160200191906001019062010d04565b5b50905062010d31919062010d7f565b5090565b60c060405190810160405280600061ffff168152602001600060ff168152602001600060ff168152602001600060ff168152602001600060ff168152602001600060ff1681525090565b62010da491905b8082111562010da057600081600090555060010162010d86565b5090565b9056fea165627a7a72305820bbe1b3ab0257fcde76a6e26a77e27000133125a98e5b297e5a72e7b78dfc50ab0029",
  "linkReferences": {
    "contracts/libs/DateTimeModel.sol": {
      "DateTimeModel": [
        {
          "length": 20,
          "start": 52112
        },
        {
          "length": 20,
          "start": 54225
        }
      ]
    },
    "contracts/libs/GluwaAccountModel.sol": {
      "GluwaAccountModel": [
        {
          "length": 20,
          "start": 42269
        },
        {
          "length": 20,
          "start": 42638
        },
        {
          "length": 20,
          "start": 49097
        }
      ]
    }
  },
  "deployedLinkReferences": {
    "contracts/libs/DateTimeModel.sol": {
      "DateTimeModel": [
        {
          "length": 20,
          "start": 52091
        },
        {
          "length": 20,
          "start": 54204
        }
      ]
    },
    "contracts/libs/GluwaAccountModel.sol": {
      "GluwaAccountModel": [
        {
          "length": 20,
          "start": 42248
        },
        {
          "length": 20,
          "start": 42617
        },
        {
          "length": 20,
          "start": 49076
        }
      ]
    }
  }
}