{
  "_format": "hh-sol-artifact-1",
  "contractName": "SandboxPrizeLinkedAccountVault",
  "sourceName": "contracts/mocks/SandboxPrizeLinkedAccountVault.sol",
  "abi": [
    {
      "constant": false,
      "inputs": [
        {
          "name": "owner",
          "type": "address"
        },
        {
          "name": "amount",
          "type": "uint256"
        }
      ],
      "name": "depositPrizedLinkAccount",
      "outputs": [
        {
          "name": "",
          "type": "bool"
        }
      ],
      "payable": false,
      "stateMutability": "nonpayable",
      "type": "function"
    },
    {
      "constant": true,
      "inputs": [
        {
          "name": "role",
          "type": "bytes32"
        }
      ],
      "name": "getRoleAdmin",
      "outputs": [
        {
          "name": "",
          "type": "bytes32"
        }
      ],
      "payable": false,
      "stateMutability": "view",
      "type": "function"
    },
    {
      "constant": true,
      "inputs": [
        {
          "name": "account",
          "type": "address"
        }
      ],
      "name": "isAdmin",
      "outputs": [
        {
          "name": "",
          "type": "bool"
        }
      ],
      "payable": false,
      "stateMutability": "view",
      "type": "function"
    },
    {
      "constant": false,
      "inputs": [],
      "name": "renounceOperator",
      "outputs": [],
      "payable": false,
      "stateMutability": "nonpayable",
      "type": "function"
    },
    {
      "constant": false,
      "inputs": [
        {
          "name": "amount",
          "type": "uint256"
        }
      ],
      "name": "withdraw",
      "outputs": [
        {
          "name": "",
          "type": "bool"
        }
      ],
      "payable": false,
      "stateMutability": "nonpayable",
      "type": "function"
    },
    {
      "constant": true,
      "inputs": [
        {
          "name": "c__0x42d91d40",
          "type": "bytes32"
        }
      ],
      "name": "c_0x42d91d40",
      "outputs": [],
      "payable": false,
      "stateMutability": "pure",
      "type": "function"
    },
    {
      "constant": false,
      "inputs": [
        {
          "name": "role",
          "type": "bytes32"
        },
        {
          "name": "account",
          "type": "address"
        }
      ],
      "name": "grantRole",
      "outputs": [],
      "payable": false,
      "stateMutability": "nonpayable",
      "type": "function"
    },
    {
      "constant": false,
      "inputs": [
        {
          "name": "role",
          "type": "bytes32"
        },
        {
          "name": "account",
          "type": "address"
        }
      ],
      "name": "renounceRole",
      "outputs": [],
      "payable": false,
      "stateMutability": "nonpayable",
      "type": "function"
    },
    {
      "constant": true,
      "inputs": [
        {
          "name": "drawTimeStamp",
          "type": "uint256"
        }
      ],
      "name": "getEligibleAddressPendingAddedToDraw",
      "outputs": [
        {
          "name": "result",
          "type": "address[]"
        }
      ],
      "payable": false,
      "stateMutability": "view",
      "type": "function"
    },
    {
      "constant": true,
      "inputs": [],
      "name": "getCurrentbalance",
      "outputs": [
        {
          "name": "",
          "type": "uint256"
        }
      ],
      "payable": false,
      "stateMutability": "view",
      "type": "function"
    },
    {
      "constant": true,
      "inputs": [],
      "name": "getSavingSettings",
      "outputs": [
        {
          "name": "",
          "type": "uint64"
        },
        {
          "name": "",
          "type": "uint32"
        },
        {
          "name": "",
          "type": "uint32"
        },
        {
          "name": "",
          "type": "uint256"
        },
        {
          "name": "",
          "type": "uint256"
        },
        {
          "name": "",
          "type": "address"
        }
      ],
      "payable": false,
      "stateMutability": "view",
      "type": "function"
    },
    {
      "constant": true,
      "inputs": [
        {
          "name": "c__0x48731749",
          "type": "bytes32"
        }
      ],
      "name": "c_0x48731749",
      "outputs": [],
      "payable": false,
      "stateMutability": "pure",
      "type": "function"
    },
    {
      "constant": true,
      "inputs": [
        {
          "name": "account",
          "type": "address"
        }
      ],
      "name": "isOperator",
      "outputs": [
        {
          "name": "",
          "type": "bool"
        }
      ],
      "payable": false,
      "stateMutability": "view",
      "type": "function"
    },
    {
      "constant": false,
      "inputs": [
        {
          "name": "account",
          "type": "address"
        }
      ],
      "name": "addAdmin",
      "outputs": [],
      "payable": false,
      "stateMutability": "nonpayable",
      "type": "function"
    },
    {
      "constant": true,
      "inputs": [
        {
          "name": "depositHash",
          "type": "bytes32"
        }
      ],
      "name": "getDeposit",
      "outputs": [
        {
          "name": "",
          "type": "uint256"
        },
        {
          "name": "",
          "type": "uint256"
        },
        {
          "name": "",
          "type": "address"
        },
        {
          "name": "",
          "type": "uint256"
        },
        {
          "name": "",
          "type": "uint256"
        }
      ],
      "payable": false,
      "stateMutability": "view",
      "type": "function"
    },
    {
      "constant": true,
      "inputs": [
        {
          "name": "c__0xd27cb329",
          "type": "bytes32"
        }
      ],
      "name": "c_0xd27cb329",
      "outputs": [],
      "payable": false,
      "stateMutability": "pure",
      "type": "function"
    },
    {
      "constant": true,
      "inputs": [
        {
          "name": "drawTimeStamp",
          "type": "uint256"
        }
      ],
      "name": "findMinMaxForDraw",
      "outputs": [
        {
          "name": "min",
          "type": "uint256"
        },
        {
          "name": "max",
          "type": "uint256"
        }
      ],
      "payable": false,
      "stateMutability": "view",
      "type": "function"
    },
    {
      "constant": true,
      "inputs": [
        {
          "name": "owner",
          "type": "address"
        }
      ],
      "name": "getSavingAcountFor",
      "outputs": [
        {
          "name": "",
          "type": "uint256"
        },
        {
          "name": "",
          "type": "bytes32"
        },
        {
          "name": "",
          "type": "address"
        },
        {
          "name": "",
          "type": "uint256"
        },
        {
          "name": "",
          "type": "uint256"
        },
        {
          "name": "",
          "type": "uint256"
        },
        {
          "name": "",
          "type": "uint8"
        },
        {
          "name": "",
          "type": "bytes"
        }
      ],
      "payable": false,
      "stateMutability": "view",
      "type": "function"
    },
    {
      "constant": true,
      "inputs": [
        {
          "name": "c__0xfd3e751c",
          "type": "bytes32"
        }
      ],
      "name": "c_0xfd3e751c",
      "outputs": [],
      "payable": false,
      "stateMutability": "pure",
      "type": "function"
    },
    {
      "constant": false,
      "inputs": [],
      "name": "renounceAdmin",
      "outputs": [],
      "payable": false,
      "stateMutability": "nonpayable",
      "type": "function"
    },
    {
      "constant": false,
      "inputs": [
        {
          "name": "drawTimeStamp",
          "type": "uint256"
        }
      ],
      "name": "awardWinnerV1",
      "outputs": [
        {
          "name": "",
          "type": "bool"
        }
      ],
      "payable": false,
      "stateMutability": "nonpayable",
      "type": "function"
    },
    {
      "constant": true,
      "inputs": [
        {
          "name": "role",
          "type": "bytes32"
        },
        {
          "name": "index",
          "type": "uint256"
        }
      ],
      "name": "getRoleMember",
      "outputs": [
        {
          "name": "",
          "type": "address"
        }
      ],
      "payable": false,
      "stateMutability": "view",
      "type": "function"
    },
    {
      "constant": true,
      "inputs": [
        {
          "name": "role",
          "type": "bytes32"
        },
        {
          "name": "account",
          "type": "address"
        }
      ],
      "name": "hasRole",
      "outputs": [
        {
          "name": "",
          "type": "bool"
        }
      ],
      "payable": false,
      "stateMutability": "view",
      "type": "function"
    },
    {
      "constant": false,
      "inputs": [
        {
          "name": "account",
          "type": "address"
        }
      ],
      "name": "addOperator",
      "outputs": [],
      "payable": false,
      "stateMutability": "nonpayable",
      "type": "function"
    },
    {
      "constant": true,
      "inputs": [],
      "name": "getSavingAcount",
      "outputs": [
        {
          "name": "",
          "type": "uint256"
        },
        {
          "name": "",
          "type": "bytes32"
        },
        {
          "name": "",
          "type": "address"
        },
        {
          "name": "",
          "type": "uint256"
        },
        {
          "name": "",
          "type": "uint256"
        },
        {
          "name": "",
          "type": "uint256"
        },
        {
          "name": "",
          "type": "uint8"
        },
        {
          "name": "",
          "type": "bytes"
        }
      ],
      "payable": false,
      "stateMutability": "view",
      "type": "function"
    },
    {
      "constant": true,
      "inputs": [],
      "name": "DEFAULT_ADMIN_ROLE",
      "outputs": [
        {
          "name": "",
          "type": "bytes32"
        }
      ],
      "payable": false,
      "stateMutability": "view",
      "type": "function"
    },
    {
      "constant": false,
      "inputs": [
        {
          "name": "account",
          "type": "address"
        }
      ],
      "name": "removeOperator",
      "outputs": [],
      "payable": false,
      "stateMutability": "nonpayable",
      "type": "function"
    },
    {
      "constant": false,
      "inputs": [
        {
          "name": "drawTimeStamp",
          "type": "uint256"
        }
      ],
      "name": "regenerateTicketForNextDraw",
      "outputs": [
        {
          "name": "",
          "type": "uint256"
        }
      ],
      "payable": false,
      "stateMutability": "nonpayable",
      "type": "function"
    },
    {
      "constant": true,
      "inputs": [
        {
          "name": "owner",
          "type": "address"
        }
      ],
      "name": "test",
      "outputs": [
        {
          "name": "",
          "type": "uint256"
        },
        {
          "name": "",
          "type": "uint256"
        }
      ],
      "payable": false,
      "stateMutability": "pure",
      "type": "function"
    },
    {
      "constant": true,
      "inputs": [
        {
          "name": "role",
          "type": "bytes32"
        }
      ],
      "name": "getRoleMemberCount",
      "outputs": [
        {
          "name": "",
          "type": "uint256"
        }
      ],
      "payable": false,
      "stateMutability": "view",
      "type": "function"
    },
    {
      "constant": true,
      "inputs": [
        {
          "name": "c__0x90feacde",
          "type": "bytes32"
        }
      ],
      "name": "c_0x90feacde",
      "outputs": [],
      "payable": false,
      "stateMutability": "pure",
      "type": "function"
    },
    {
      "constant": false,
      "inputs": [
        {
          "name": "owner",
          "type": "address"
        },
        {
          "name": "amount",
          "type": "uint256"
        },
        {
          "name": "securityHash",
          "type": "bytes"
        }
      ],
      "name": "createPrizedLinkAccount",
      "outputs": [
        {
          "name": "",
          "type": "bool"
        }
      ],
      "payable": false,
      "stateMutability": "nonpayable",
      "type": "function"
    },
    {
      "constant": false,
      "inputs": [
        {
          "name": "role",
          "type": "bytes32"
        },
        {
          "name": "account",
          "type": "address"
        }
      ],
      "name": "revokeRole",
      "outputs": [],
      "payable": false,
      "stateMutability": "nonpayable",
      "type": "function"
    },
    {
      "constant": true,
      "inputs": [
        {
          "name": "drawTimeStamp",
          "type": "uint256"
        }
      ],
      "name": "getDrawDetails",
      "outputs": [
        {
          "name": "participants",
          "type": "address[]"
        },
        {
          "name": "ticketIds",
          "type": "uint96[]"
        },
        {
          "name": "winningTicket",
          "type": "uint256"
        },
        {
          "name": "balanceEachDraw",
          "type": "uint256"
        }
      ],
      "payable": false,
      "stateMutability": "view",
      "type": "function"
    },
    {
      "constant": true,
      "inputs": [
        {
          "name": "idx",
          "type": "uint256"
        }
      ],
      "name": "getTicketRangeById",
      "outputs": [
        {
          "name": "",
          "type": "uint96"
        },
        {
          "name": "",
          "type": "address"
        },
        {
          "name": "",
          "type": "uint256"
        },
        {
          "name": "",
          "type": "uint256"
        }
      ],
      "payable": false,
      "stateMutability": "view",
      "type": "function"
    },
    {
      "constant": false,
      "inputs": [
        {
          "name": "owner",
          "type": "address"
        },
        {
          "name": "amount",
          "type": "uint256"
        }
      ],
      "name": "withdrawFor",
      "outputs": [
        {
          "name": "",
          "type": "bool"
        }
      ],
      "payable": false,
      "stateMutability": "nonpayable",
      "type": "function"
    },
    {
      "constant": false,
      "inputs": [
        {
          "name": "admin",
          "type": "address"
        },
        {
          "name": "tokenAddress",
          "type": "address"
        },
        {
          "name": "standardInterestRate",
          "type": "uint32"
        },
        {
          "name": "standardInterestRatePercentageBase",
          "type": "uint32"
        },
        {
          "name": "standardMaturityTerm",
          "type": "uint64"
        },
        {
          "name": "budget",
          "type": "uint256"
        },
        {
          "name": "tokenPerTicket",
          "type": "uint16"
        },
        {
          "name": "cutOffHour",
          "type": "uint8"
        },
        {
          "name": "cutOffMinute",
          "type": "uint8"
        },
        {
          "name": "processingCap",
          "type": "uint32"
        },
        {
          "name": "ticketRangeFactor",
          "type": "uint128"
        }
      ],
      "name": "initialize",
      "outputs": [],
      "payable": false,
      "stateMutability": "nonpayable",
      "type": "function"
    },
    {
      "constant": true,
      "inputs": [
        {
          "name": "c__0x3cfa3e8e",
          "type": "bytes32"
        }
      ],
      "name": "c_0x3cfa3e8e",
      "outputs": [],
      "payable": false,
      "stateMutability": "pure",
      "type": "function"
    },
    {
      "constant": true,
      "inputs": [
        {
          "name": "drawTimeStamp",
          "type": "uint256"
        }
      ],
      "name": "getDrawWinner",
      "outputs": [
        {
          "name": "result",
          "type": "address"
        }
      ],
      "payable": false,
      "stateMutability": "view",
      "type": "function"
    },
    {
      "constant": false,
      "inputs": [
        {
          "name": "drawTimeStamp",
          "type": "uint256"
        },
        {
          "name": "seed",
          "type": "uint256"
        }
      ],
      "name": "makeDrawV1",
      "outputs": [
        {
          "name": "",
          "type": "uint256"
        }
      ],
      "payable": false,
      "stateMutability": "nonpayable",
      "type": "function"
    },
    {
      "constant": true,
      "inputs": [],
      "name": "OPERATOR_ROLE",
      "outputs": [
        {
          "name": "",
          "type": "bytes32"
        }
      ],
      "payable": false,
      "stateMutability": "view",
      "type": "function"
    },
    {
      "anonymous": false,
      "inputs": [
        {
          "indexed": false,
          "name": "winner",
          "type": "address"
        },
        {
          "indexed": false,
          "name": "ticket",
          "type": "uint256"
        },
        {
          "indexed": false,
          "name": "reward",
          "type": "uint256"
        }
      ],
      "name": "Winner",
      "type": "event"
    },
    {
      "anonymous": false,
      "inputs": [
        {
          "indexed": true,
          "name": "drawTimeStamp",
          "type": "uint256"
        },
        {
          "indexed": true,
          "name": "ticketId",
          "type": "uint256"
        },
        {
          "indexed": true,
          "name": "owner",
          "type": "address"
        },
        {
          "indexed": false,
          "name": "upper",
          "type": "uint256"
        },
        {
          "indexed": false,
          "name": "lower",
          "type": "uint256"
        }
      ],
      "name": "CreateTicket",
      "type": "event"
    },
    {
      "anonymous": false,
      "inputs": [
        {
          "indexed": true,
          "name": "accountHash",
          "type": "bytes32"
        },
        {
          "indexed": true,
          "name": "owner",
          "type": "address"
        }
      ],
      "name": "CreateAccount",
      "type": "event"
    },
    {
      "anonymous": false,
      "inputs": [
        {
          "indexed": true,
          "name": "depositHash",
          "type": "bytes32"
        },
        {
          "indexed": true,
          "name": "owner",
          "type": "address"
        },
        {
          "indexed": false,
          "name": "deposit",
          "type": "uint256"
        }
      ],
      "name": "CreateDeposit",
      "type": "event"
    },
    {
      "anonymous": false,
      "inputs": [
        {
          "indexed": true,
          "name": "owner",
          "type": "address"
        },
        {
          "indexed": false,
          "name": "amount",
          "type": "uint256"
        }
      ],
      "name": "Withdraw",
      "type": "event"
    },
    {
      "anonymous": false,
      "inputs": [
        {
          "indexed": true,
          "name": "role",
          "type": "bytes32"
        },
        {
          "indexed": true,
          "name": "account",
          "type": "address"
        },
        {
          "indexed": true,
          "name": "sender",
          "type": "address"
        }
      ],
      "name": "RoleGranted",
      "type": "event"
    },
    {
      "anonymous": false,
      "inputs": [
        {
          "indexed": true,
          "name": "role",
          "type": "bytes32"
        },
        {
          "indexed": true,
          "name": "account",
          "type": "address"
        },
        {
          "indexed": true,
          "name": "sender",
          "type": "address"
        }
      ],
      "name": "RoleRevoked",
      "type": "event"
    }
  ],
  "bytecode": "0x608060405261f32280620000146000396000f3fe6080604052600436106101f9576000357c0100000000000000000000000000000000000000000000000000000000900463ffffffff168063033d086d146101fe578063248a9ca31461027157806324d7806c146102c05780632ab6f8db146103295780632e1a7d4d146103405780632eda6f87146103935780632f2ff15d146103ce57806336568abe146104295780634218774b14610484578063515336c714610514578063529298b81461053f578063669ec8b7146105e55780636d70f7ae1461062057806370480275146106895780637a86983f146106da5780637f538d54146107715780638067e002146107ac57806382133e381461080257806386f8474c146109375780638bad0c0a146109725780638be30657146109895780639010d07c146109dc57806391d1485414610a615780639870d7fe14610ad45780639964476f14610b25578063a217fddf14610c20578063ac8a584a14610c4b578063b58d3ff314610c9c578063bb29998e14610ceb578063ca15c87314610d57578063cc26450214610da6578063cf123e3014610de1578063d547741f14610ea9578063d5a962e414610f04578063d93e81a714610fea578063db518db214611096578063e8b95f7514611109578063ed5c04911461120d578063ee37fb4c14611248578063ee5bf65f146112c3578063f5b541a61461131c575b600080fd5b34801561020a57600080fd5b506102576004803603604081101561022157600080fd5b81019080803573ffffffffffffffffffffffffffffffffffffffff16906020019092919080359060200190929190505050611347565b604051808215151515815260200191505060405180910390f35b34801561027d57600080fd5b506102aa6004803603602081101561029457600080fd5b810190808035906020019092919050505061180f565b6040518082815260200191505060405180910390f35b3480156102cc57600080fd5b5061030f600480360360208110156102e357600080fd5b81019080803573ffffffffffffffffffffffffffffffffffffffff1690602001909291905050506118b3565b604051808215151515815260200191505060405180910390f35b34801561033557600080fd5b5061033e61194e565b005b34801561034c57600080fd5b506103796004803603602081101561036357600080fd5b8101908080359060200190929190505050611a1a565b604051808215151515815260200191505060405180910390f35b34801561039f57600080fd5b506103cc600480360360208110156103b657600080fd5b8101908080359060200190929190505050611ab8565b005b3480156103da57600080fd5b50610427600480360360408110156103f157600080fd5b8101908080359060200190929190803573ffffffffffffffffffffffffffffffffffffffff169060200190929190505050611abb565b005b34801561043557600080fd5b506104826004803603604081101561044c57600080fd5b8101908080359060200190929190803573ffffffffffffffffffffffffffffffffffffffff169060200190929190505050611cbe565b005b34801561049057600080fd5b506104bd600480360360208110156104a757600080fd5b8101908080359060200190929190505050611ed0565b6040518080602001828103825283818151815260200191508051906020019060200280838360005b838110156105005780820151818401526020810190506104e5565b505050509050019250505060405180910390f35b34801561052057600080fd5b50610529612363565b6040518082815260200191505060405180910390f35b34801561054b57600080fd5b506105546123f1565b604051808767ffffffffffffffff1667ffffffffffffffff1681526020018663ffffffff1663ffffffff1681526020018563ffffffff1663ffffffff1681526020018481526020018381526020018273ffffffffffffffffffffffffffffffffffffffff1673ffffffffffffffffffffffffffffffffffffffff168152602001965050505050505060405180910390f35b3480156105f157600080fd5b5061061e6004803603602081101561060857600080fd5b81019080803590602001909291905050506124f8565b005b34801561062c57600080fd5b5061066f6004803603602081101561064357600080fd5b81019080803573ffffffffffffffffffffffffffffffffffffffff1690602001909291905050506124fb565b604051808215151515815260200191505060405180910390f35b34801561069557600080fd5b506106d8600480360360208110156106ac57600080fd5b81019080803573ffffffffffffffffffffffffffffffffffffffff1690602001909291905050506125c7565b005b3480156106e657600080fd5b50610713600480360360208110156106fd57600080fd5b81019080803590602001909291905050506127e8565b604051808681526020018581526020018473ffffffffffffffffffffffffffffffffffffffff1673ffffffffffffffffffffffffffffffffffffffff1681526020018381526020018281526020019550505050505060405180910390f35b34801561077d57600080fd5b506107aa6004803603602081101561079457600080fd5b8101908080359060200190929190505050612930565b005b3480156107b857600080fd5b506107e5600480360360208110156107cf57600080fd5b8101908080359060200190929190505050612933565b604051808381526020018281526020019250505060405180910390f35b34801561080e57600080fd5b506108516004803603602081101561082557600080fd5b81019080803573ffffffffffffffffffffffffffffffffffffffff169060200190929190505050612f74565b604051808981526020018881526020018773ffffffffffffffffffffffffffffffffffffffff1673ffffffffffffffffffffffffffffffffffffffff1681526020018681526020018581526020018481526020018360048111156108b157fe5b60ff16815260200180602001828103825283818151815260200191508051906020019080838360005b838110156108f55780820151818401526020810190506108da565b50505050905090810190601f1680156109225780820380516001836020036101000a031916815260200191505b50995050505050505050505060405180910390f35b34801561094357600080fd5b506109706004803603602081101561095a57600080fd5b81019080803590602001909291905050506131b5565b005b34801561097e57600080fd5b506109876131b8565b005b34801561099557600080fd5b506109c2600480360360208110156109ac57600080fd5b8101908080359060200190929190505050613348565b604051808215151515815260200191505060405180910390f35b3480156109e857600080fd5b50610a1f600480360360408110156109ff57600080fd5b810190808035906020019092919080359060200190929190505050613aa9565b604051808273ffffffffffffffffffffffffffffffffffffffff1673ffffffffffffffffffffffffffffffffffffffff16815260200191505060405180910390f35b348015610a6d57600080fd5b50610aba60048036036040811015610a8457600080fd5b8101908080359060200190929190803573ffffffffffffffffffffffffffffffffffffffff169060200190929190505050613b5f565b604051808215151515815260200191505060405180910390f35b348015610ae057600080fd5b50610b2360048036036020811015610af757600080fd5b81019080803573ffffffffffffffffffffffffffffffffffffffff169060200190929190505050613c15565b005b348015610b3157600080fd5b50610b3a613e67565b604051808981526020018881526020018773ffffffffffffffffffffffffffffffffffffffff1673ffffffffffffffffffffffffffffffffffffffff168152602001868152602001858152602001848152602001836004811115610b9a57fe5b60ff16815260200180602001828103825283818151815260200191508051906020019080838360005b83811015610bde578082015181840152602081019050610bc3565b50505050905090810190601f168015610c0b5780820380516001836020036101000a031916815260200191505b50995050505050505050505060405180910390f35b348015610c2c57600080fd5b50610c35613f22565b6040518082815260200191505060405180910390f35b348015610c5757600080fd5b50610c9a60048036036020811015610c6e57600080fd5b81019080803573ffffffffffffffffffffffffffffffffffffffff169060200190929190505050613f2a565b005b348015610ca857600080fd5b50610cd560048036036020811015610cbf57600080fd5b810190808035906020019092919050505061417c565b6040518082815260200191505060405180910390f35b348015610cf757600080fd5b50610d3a60048036036020811015610d0e57600080fd5b81019080803573ffffffffffffffffffffffffffffffffffffffff16906020019092919050505061480a565b604051808381526020018281526020019250505060405180910390f35b348015610d6357600080fd5b50610d9060048036036020811015610d7a57600080fd5b81019080803590602001909291905050506148cf565b6040518082815260200191505060405180910390f35b348015610db257600080fd5b50610ddf60048036036020811015610dc957600080fd5b810190808035906020019092919050505061497a565b005b348015610ded57600080fd5b50610e8f60048036036060811015610e0457600080fd5b81019080803573ffffffffffffffffffffffffffffffffffffffff1690602001909291908035906020019092919080359060200190640100000000811115610e4b57600080fd5b820183602082011115610e5d57600080fd5b80359060200191846001830284011164010000000083111715610e7f57600080fd5b909192939192939050505061497d565b604051808215151515815260200191505060405180910390f35b348015610eb557600080fd5b50610f0260048036036040811015610ecc57600080fd5b8101908080359060200190929190803573ffffffffffffffffffffffffffffffffffffffff169060200190929190505050614ef4565b005b348015610f1057600080fd5b50610f3d60048036036020811015610f2757600080fd5b81019080803590602001909291905050506150f7565b604051808060200180602001858152602001848152602001838103835287818151815260200191508051906020019060200280838360005b83811015610f90578082015181840152602081019050610f75565b50505050905001838103825286818151815260200191508051906020019060200280838360005b83811015610fd2578082015181840152602081019050610fb7565b50505050905001965050505050505060405180910390f35b348015610ff657600080fd5b506110236004803603602081101561100d57600080fd5b81019080803590602001909291905050506153f5565b60405180856bffffffffffffffffffffffff166bffffffffffffffffffffffff1681526020018473ffffffffffffffffffffffffffffffffffffffff1673ffffffffffffffffffffffffffffffffffffffff16815260200183815260200182815260200194505050505060405180910390f35b3480156110a257600080fd5b506110ef600480360360408110156110b957600080fd5b81019080803573ffffffffffffffffffffffffffffffffffffffff16906020019092919080359060200190929190505050615497565b604051808215151515815260200191505060405180910390f35b34801561111557600080fd5b5061120b600480360361016081101561112d57600080fd5b81019080803573ffffffffffffffffffffffffffffffffffffffff169060200190929190803573ffffffffffffffffffffffffffffffffffffffff169060200190929190803563ffffffff169060200190929190803563ffffffff169060200190929190803567ffffffffffffffff16906020019092919080359060200190929190803561ffff169060200190929190803560ff169060200190929190803560ff169060200190929190803563ffffffff16906020019092919080356fffffffffffffffffffffffffffffffff1690602001909291905050506156bb565b005b34801561121957600080fd5b506112466004803603602081101561123057600080fd5b8101908080359060200190929190505050615b7e565b005b34801561125457600080fd5b506112816004803603602081101561126b57600080fd5b8101908080359060200190929190505050615b81565b604051808273ffffffffffffffffffffffffffffffffffffffff1673ffffffffffffffffffffffffffffffffffffffff16815260200191505060405180910390f35b3480156112cf57600080fd5b50611306600480360360408110156112e657600080fd5b810190808035906020019092919080359060200190929190505050616162565b6040518082815260200191505060405180910390f35b34801561132857600080fd5b506113316164aa565b6040518082815260200191505060405180910390f35b60006113757faaf351134d2239ae83e11d26c9067378253c609eb570f8ae74c28ed36c050dbc600102615b7e565b6113a17f6c875126be1726ab2fc657648964c34d167c9eea09e982826bf5fe2b9ca2d324600102615b7e565b6113cd7f62099aa8d5be0c25cfa94c8b816435976ac44df70e57c0cd61c9aa5a6e8ea507600102615b7e565b6113f97f453557595d5569438781ff2bffda3521e47a9e00825bc9def362d351cf3e1c74600102615b7e565b6114096114046164e3565b6124fb565b151561147d576040517f08c379a00000000000000000000000000000000000000000000000000000000081526004018080602001828103825260188152602001807f5265737472696374656420746f204f70657261746f72732e000000000000000081525060200191505060405180910390fd5b6114a97f36164c6dee9768d45bd325d105734bbcb52f53401478cd02c4ecad63c18b8e68600102615b7e565b6114d57fc2ac55851c10e49d80d29047d52eddd577a7571d2b2f4dad9e5fcaa5c07a9bb2600102615b7e565b6115017f8b5e26a03f614d839bdc62629e23f3c30eba9ca7b6ad37da29bef6d8a8e7771d6001026124f8565b61152d7fb49c4d7fb7335fbab90abc81be91735bfbe8f5f537a47adb184cb91ddcb7da706001026124f8565b6115597f4814b78bb01bb05a028be0034e2074d2ba2cb9eed22d35e3b0cf009bca8e24996001026124f8565b6115857fb0e66bbb244f9bc55435dead616fe6369d956e1056c2551f375c7ac583dad7d46001026124f8565b607560009054906101000a900473ffffffffffffffffffffffffffffffffffffffff1673ffffffffffffffffffffffffffffffffffffffff166323b872dd8430856040518463ffffffff167c0100000000000000000000000000000000000000000000000000000000028152600401808473ffffffffffffffffffffffffffffffffffffffff1673ffffffffffffffffffffffffffffffffffffffff1681526020018373ffffffffffffffffffffffffffffffffffffffff1673ffffffffffffffffffffffffffffffffffffffff1681526020018281526020019350505050602060405180830381600087803b15801561167e57600080fd5b505af1158015611692573d6000803e3d6000fd5b505050506040513d60208110156116a857600080fd5b81019080805190602001909291905050501515611779576040517f08c379a000000000000000000000000000000000000000000000000000000000815260040180806020018281038252604d8152602001807f476c7577615072697a654c696e6b65644163636f756e743a20556e61626c652081526020017f746f2073656e6420616d6f756e7420746f206465706f73697420746f2061205381526020017f6176696e67204163636f756e740000000000000000000000000000000000000081525060600191505060405180910390fd5b6117a57fecc66ef73617483bf11170cfc64ebf960a85e9f36829325d0d9826e0192e1f796001026124f8565b6117d17f75b90450686dc5909ec7bd91f9d9039a8235470207c73cf2577011bfeb11df536001026124f8565b6117fd7f5c3662514b5af44deb909ab72f898700a46799266c1d08e11f48e236aed8a6416001026124f8565b61180783836164eb565b905092915050565b600061183d7f9890401fd59cad5dec194d56f8e1f971f8f878bef0e4ff70e116fd19483f56626001026131b5565b6118697f66ef1e06f668d8e0c0d4f82edeefadbe8c80204e2512f9d3541f84665b1015fa6001026131b5565b6118957fea6f68aaa4e23e70c3a5d466be2b66373b71c8e3a915c17e44d497696e9a338e6001026131b5565b60336000838152602001908152602001600020600201549050919050565b60006118e17fb725922c818f0782603dba098ae6ebcd63326dfb07c08fa6ef52bb86e381fb36600102615b7e565b61190d7f269b98238e7be55b5d7a3db79f2a96a0e9fa4e47593a6bb52d82c25d08facd7e600102615b7e565b6119397fa0a2fde32d4e52005b78eac14a1ab6ae68b38ec56c08824fdb8abe489653882d600102615b7e565b611947600060010283613b5f565b9050919050565b61197a7f5303ee691770746a94c441c3c1db6f6814117793a7840e90eb05ab2e64931063600102615b7e565b6119a67ff44ed11abb9d946c2a432fbe662d20f04907a2376ad219db63c38ca689de88f6600102615b7e565b6119d27fa3b8cd17878a18b96beb23c675e90566c628339c690cc02fef2e6714e599336b600102615b7e565b611a1860405180807f4f50455241544f5200000000000000000000000000000000000000000000000081525060080190506040518091039020611a136164e3565b611cbe565b565b6000611a487f055d1a4cac8420fe2f0ef9125ad984bd62db843ef1bb2ac099b5cd8c7c7cda166001026124f8565b611a747fa6fcc05efcef1c8d7f5e40a4ec55c6223d0dc4681bd293e43bbec8c230464e4a6001026124f8565b611aa07ff5f75558e4fc864ab2178ef2f497edd527acad1bff1060fefc6dd41afbcea26b6001026124f8565b611ab1611aab6164e3565b836165ea565b9050919050565b50565b611ae77f7c8a75d871e37bb3adbbbea0732c29f9ce19596157638c44ae73c5d9909177a46001026131b5565b611b137f5c8f19add2d84aca7a8087815504b380c1919c10d917dfe0e6f34264806269256001026131b5565b611b3f7ffc62441d050a63d198d2f97f5a25bb420519fd407e5d50f08312815303d5dd216001026131b5565b611b6b7fd64e96f3e91efc239c01bf30d1d8ff0775b4d6b65061ba43ed41ed007d2762396001026131b5565b611b926033600084815260200190815260200160002060020154611b8d6164e3565b613b5f565b1515611c2c576040517f08c379a000000000000000000000000000000000000000000000000000000000815260040180806020018281038252602f8152602001807f416363657373436f6e74726f6c3a2073656e646572206d75737420626520616e81526020017f2061646d696e20746f206772616e74000000000000000000000000000000000081525060400191505060405180910390fd5b611c587f8ef3a2c3240e4fed75685458a30e1852c1e366c8a3b897910fa24f0e9c12a3936001026131b5565b611c847f9b2d7cec472af26dd1bd892afafe2be066b09e44a7474e6389d058285c4b95986001026131b5565b611cb07f050340438b0b1f0f74eb1ff71edc211936f7fbfc40a7bf8e9ffa724dc49364f46001026131b5565b611cba82826169ec565b5050565b611cea7f97749d5907af942f23e24dab2e4d9d9f86169e20828b78fbb02c7397aba20dec6001026131b5565b611d167f6071ae2abfff4312103bd8739211263b643becbb57462f9074353c4b638bc8fb6001026131b5565b611d427f78c9d2effdd2cf4ffcfc49a15eb93d30fb2345626d55331fafe2577c454929456001026131b5565b611d6e7f0f8d5525ab20fc25e211108856f9e9c2d7686d4bca86323a95f73b4befbd19056001026131b5565b611d766164e3565b73ffffffffffffffffffffffffffffffffffffffff168173ffffffffffffffffffffffffffffffffffffffff16141515611e3e576040517f08c379a000000000000000000000000000000000000000000000000000000000815260040180806020018281038252602f8152602001807f416363657373436f6e74726f6c3a2063616e206f6e6c792072656e6f756e636581526020017f20726f6c657320666f722073656c66000000000000000000000000000000000081525060400191505060405180910390fd5b611e6a7f552f1538fdf5aa57eed1a65a84465e26b2dee3a349b98af5bdc70923de8885ca6001026131b5565b611e967f903d39f78d0f26f99c6bc1e1496c2b3cde0bbb39f25ad445a102acb1d1decd816001026131b5565b611ec27f76891968bc09ecbef03a36911e5ee6272955d16b1c067ee7f7047de6127eb41c6001026131b5565b611ecc8282616bb8565b5050565b6060611efe7f87ab8e0fce645dd5495297a7416c7077ce2f4d6c38f22b9b86c55bc4521599936001026124f8565b611f2a7f3016d6c65356c6bd6072f49bf42e8a5a55948337998dc23426da3360cf2578ed6001026124f8565b611f567f63690ab96e941ffb1f96dfb7a8fcf5c5b8710583e7cb9e1cc190cc5a7dee65786001026124f8565b6000611f847f5a6933ab24684a28b8245d9e8f5de430c12f8739fc19593243d1dcfbd07f32aa6001026124f8565b611fb07f20cca562ee167233012a43d4054b1386074f09acb3ca01b39fb39ef8615d4a9d6001026124f8565b60008090505b60698054905081101561235c57611fef7f1d5c2fc305a56d3933adc82453ebbf4709053dacad61e77b46885b557845fdb26001026124f8565b61201b7f97967807be6d59c3069d8adefa9d23201decd26da8cb1b79524f45d5e766e33c6001026124f8565b6000607f6000868152602001908152602001600020600060698481548110151561204157fe5b9060005260206000200160009054906101000a900473ffffffffffffffffffffffffffffffffffffffff1673ffffffffffffffffffffffffffffffffffffffff1673ffffffffffffffffffffffffffffffffffffffff1681526020019081526020016000208054905014801561213257506000607660006069848154811015156120c757fe5b9060005260206000200160009054906101000a900473ffffffffffffffffffffffffffffffffffffffff1673ffffffffffffffffffffffffffffffffffffffff1673ffffffffffffffffffffffffffffffffffffffff16815260200190815260200160002060040154115b80156121dc57506001600481111561214657fe5b6076600060698481548110151561215957fe5b9060005260206000200160009054906101000a900473ffffffffffffffffffffffffffffffffffffffff1673ffffffffffffffffffffffffffffffffffffffff1673ffffffffffffffffffffffffffffffffffffffff16815260200190815260200160002060060160009054906101000a900460ff1660048111156121da57fe5b145b156123225761220d7fb42a73083c1befee3c06cea8ca58d55bf5f0c4fe40bbdf9e078a6c1cafcfc0026001026124f8565b6122397f86da3b46068b1b4eef8dae5b202d50a68d300e07f61dd1cdd8d8938a9638e6926001026124f8565b6122657f13ea2cdaa440f6fff8cadc87063b2dd45cf0519f18e3ebc8c0ffe1715d6db4bd6001026124f8565b60698181548110151561227457fe5b9060005260206000200160009054906101000a900473ffffffffffffffffffffffffffffffffffffffff1683838151811015156122ad57fe5b9060200190602002019073ffffffffffffffffffffffffffffffffffffffff16908173ffffffffffffffffffffffffffffffffffffffff16815250506123157f656401ae8e12b08b6194a3767491f65e90ce406531175a631237523fb0536f0a6001026124f8565b818060010192505061234f565b61234e7f0d0494f3813a25cd964f7c272cdf7778e5ebe34f82c85fa900174a4ec414bb796001026124f8565b5b8080600101915050611fb6565b5050919050565b60006123917f1e48659a37d90012034ce0504abf94c687d1cde48eae1d34c8ecf6f1da685f7260010261497a565b6123bd7f970ea2430ac8c7129fc8eaf4f7c2f09dc3460b605ba5397bea49e71e9b74f91360010261497a565b6123e97f32ff90641404ad09eea1cd00e3bb039b4789c6b58017ea094d7e1750d00e945d60010261497a565b607354905090565b6000806000806000806124267f3fd7aa65e03ed2344eb3fa764176d1b28a4ca40d8010176ce7b36e7532250c6e60010261497a565b6124527f17b6405cea1f8b1c87f130fefc195e5fa52bc3b4580a0f3bba8cc7fda027501460010261497a565b61247e7fb8d6fe4d206a56650f24d72f070f71bdbd4efc05528abdcbdf6afc84c501f49f60010261497a565b606560009054906101000a900467ffffffffffffffff16607260009054906101000a900463ffffffff16607260049054906101000a900463ffffffff16606654606754607560009054906101000a900473ffffffffffffffffffffffffffffffffffffffff16955095509550955095509550909192939495565b50565b60006125297f02ecd88ec5aa7f79e1b04fa2d5196f70633b82efea766ec554a5367eb186c0ed600102615b7e565b6125557ffd7e2637835a60722c80d268652d57225b15dde47b888629fcd49b6f443284bc600102615b7e565b6125817fef0ee839a87e09beff700b1545467b1e7edec5145e69a952185625b7febbbeaf600102615b7e565b6125c060405180807f4f50455241544f520000000000000000000000000000000000000000000000008152506008019050604051809103902083613b5f565b9050919050565b6125f37f150c1f904fe0c1d2f7a31162f5217d4d07c87854ee9f1013b84b4a0201d3e1fb600102615b7e565b61261f7f3a927a1908dff92aaf343f9a9dfd70ce943abc4aa14bc384662aea3b37a017f0600102615b7e565b61264b7f2269e0bd13e5cbaefe2045e6d1c22c909b9219f2bd4b7672480604fb38c98aff600102615b7e565b6126777fa6df09688a4556c7d0ddda638cdc6c4be3f54a1562b6556c704a1151a59f51b3600102615b7e565b6126876126826164e3565b6118b3565b15156126fb576040517f08c379a00000000000000000000000000000000000000000000000000000000081526004018080602001828103825260158152602001807f5265737472696374656420746f2041646d696e732e000000000000000000000081525060200191505060405180910390fd5b6127277f9c9fbfd717d8dd01b6f6d343c06d5831407925d9079391b9c4b46f28be3049a7600102615b7e565b6127537fab54a3e2ff4e656505e71fbbf5f7f72002a6ea83477a899d8ce6e776e6750197600102615b7e565b61277f7f1879b1107adb408f8af76f8f45ac4e99c6f1bcc9102431bca363de52c073b1dd600102615b7e565b6127ab7fd7067e1fc31ce2497d1aad67288494aad7eff15e9ad64f38f62ac1f194430691600102615b7e565b6127d77f789ba8c5ad5c32a80dfff31774c44fcc100d45bdb016459c014ebdcb9ac24222600102615b7e565b6127e5600060010282611abb565b50565b600080600080600061281c7f15c6a063f9b01120a1bdb44338ffe9ad683bb9e5d0841ad21e8a6a1706a6304960010261497a565b6128487fa8ad17f714c474602870daac8b065e6e20d7dd6bc40d773bba4a1d9820c4c3c160010261497a565b6128747f9a41d87efab0cc27782b615da93830a718cef13deaef96d471626a31bc8fd1c560010261497a565b60006077600088815260200190815260200160002090506128b77f83728831cbe135a745eed85073fc558befbea13a19d4b9770fbee58287534bdd60010261497a565b6128e37fc3e2b999117295b9bea137cbb921b04192f0066fbf1fd2c9d79ed9b0727eb57760010261497a565b806000015481600101548260020160009054906101000a900473ffffffffffffffffffffffffffffffffffffffff1683600301548460040154955095509550955095505091939590929450565b50565b6000806129627f5f0265a64dc0d1e44ed8fcf4b17443ea6b2dfbc5a7483c9de2803bd47128c3e7600102611ab8565b61298e7f1e90f0808128ed6295f3929f0c3e9b6d2fefbfab02b0616f39d405a446233e58600102611ab8565b6129ba7f8d364e20c86888a49fb0a5c225316faafc62d30ef272ae7d5e4e91bf193c157b600102611ab8565b6000607d600085815260200190815260200160002090506129fd7f443a104b7a2abc0ce9ff9d40bb5aba80939c9751fe15f5117433748460aac9f5600102611ab8565b612a297f4e4eb1fb865a8202c21707fc5704c30fe63e71ebc3d363465a5f1fe4c0072f22600102611ab8565b607c6000826000815481101515612a3c57fe5b9060005260206000209060029182820401919006600c029054906101000a90046bffffffffffffffffffffffff166bffffffffffffffffffffffff168152602001908152602001600020600201549150612ab87f761edc98fee140249b69aba460e9f328cc70c96d2a0b4b079d086b41598494bb600102611ab8565b612ae47fab52b31eb252d025a5c78869fd14218565b055d33d0c368e86f259e860b3e876600102611ab8565b607c6000826000815481101515612af757fe5b9060005260206000209060029182820401919006600c029054906101000a90046bffffffffffffffffffffffff166bffffffffffffffffffffffff168152602001908152602001600020600101549250612b737fa1cbe202d4979dbc1803e8224f63637cd8300a19910f5d37c061af72d6ac1aca600102611ab8565b612b9f7fe5af1bfd7fbbbe21eb81a7414fd0a0a8c4e360a1323ff7e51ab859bddb66973d600102611ab8565b6000600190505b8180549050811015612f6d57612bde7f1c29f5bfdefb542bb506b84b7c74430c6e9f3a3bb9e2a8ae6c272fff65c56e20600102611ab8565b612c0a7fe170a50cf1cc82b7a8b8b710d9580fc7fe6191971a8675a4910011b44b0e7eb6600102611ab8565b82607c60008484815481101515612c1d57fe5b9060005260206000209060029182820401919006600c029054906101000a90046bffffffffffffffffffffffff166bffffffffffffffffffffffff168152602001908152602001600020600201541115612d5c57612c9d7f203a00e7114c711bf1e80ab3dbf084357a497ed70ca3424640b7d1488ff6950a600102611ab8565b612cc97fa303f98cc6ce1685bf6e989f8a0f8f49483b345121b408ad42b01dd5afb23213600102611ab8565b612cf57f26467551d1eb7046f688248f652d228c1bf6806be3899b7f4e90791b2a6d1a70600102611ab8565b607c60008383815481101515612d0757fe5b9060005260206000209060029182820401919006600c029054906101000a90046bffffffffffffffffffffffff166bffffffffffffffffffffffff168152602001908152602001600020600201549250612d89565b612d887f11d8ce75fe5c00ee2f34c37514086193c9a3600f53beb978aa57bb82141627cc600102611ab8565b5b612db57fdae38433414487548a7bda5d73b7548dbd3ad7cd576556c1d1a83b89af7f04b8600102611ab8565b612de17f1a7558312e1162d125dc230586cf1dd39edfac64ccc12c9ea8747bb6ba6c7342600102611ab8565b83607c60008484815481101515612df457fe5b9060005260206000209060029182820401919006600c029054906101000a90046bffffffffffffffffffffffff166bffffffffffffffffffffffff168152602001908152602001600020600101541015612f3357612e747f2b0227bd0ac303a265db3d5d5aed277f7958ad37889d78eb0fbc207f7ef072a3600102611ab8565b612ea07f2459bffe89119e7f765dba0c69d9f56e9c5a84cf114d713c55cc1d6103944cad600102611ab8565b612ecc7f6a1eba7c98dedf3c83fbdd13f534dfae6e1555b1abc3827f08a9dc7d0bcb4a6d600102611ab8565b607c60008383815481101515612ede57fe5b9060005260206000209060029182820401919006600c029054906101000a90046bffffffffffffffffffffffff166bffffffffffffffffffffffff168152602001908152602001600020600101549350612f60565b612f5f7fedbf2e8ec86acd3317cbe2e59954608482107869daad39317d29bb832ec566b5600102611ab8565b5b8080600101915050612ba6565b5050915091565b60008060008060008060006060612fad7faaf351134d2239ae83e11d26c9067378253c609eb570f8ae74c28ed36c050dbc600102615b7e565b612fd97f6c875126be1726ab2fc657648964c34d167c9eea09e982826bf5fe2b9ca2d324600102615b7e565b6130057f62099aa8d5be0c25cfa94c8b816435976ac44df70e57c0cd61c9aa5a6e8ea507600102615b7e565b6130317f453557595d5569438781ff2bffda3521e47a9e00825bc9def362d351cf3e1c74600102615b7e565b61304161303c6164e3565b6124fb565b15156130b5576040517f08c379a00000000000000000000000000000000000000000000000000000000081526004018080602001828103825260188152602001807f5265737472696374656420746f204f70657261746f72732e000000000000000081525060200191505060405180910390fd5b6130e17f36164c6dee9768d45bd325d105734bbcb52f53401478cd02c4ecad63c18b8e68600102615b7e565b61310d7fc2ac55851c10e49d80d29047d52eddd577a7571d2b2f4dad9e5fcaa5c07a9bb2600102615b7e565b6131397fa41caa0bd5533d31a05edfc35789e455b9408d5dab9281a02839d594556a7f976001026124f8565b6131657f9dcd3ebaba0908df6d509a8936302919db871e4c97aa6312946dc657a9c890546001026124f8565b6131917fd57f88ee5146d6830a52ac20e721981b7fbb0e436ec5bb53169956ce95d623ea6001026124f8565b61319a89616d85565b97509750975097509750975097509750919395975091939597565b50565b6131e47f34882e832c710efee608a8c31c6b4f81a2882df9495d9d914960835bc5ed3a6f600102615b7e565b6132107fab863da377c52c8f6067472a5ca8df2a2ce6a6f299e205cd7a166b6a8ee31916600102615b7e565b61323c7fc04152ee14431e8518d6e1e3408bae4047950f36986878ba23f2b59e8842f0de600102615b7e565b60006132466164e3565b90506132747f601f3a50cc2b63877d5d7c9ae87face277a00a3ba6a3868f835b1048a156698f600102615b7e565b6132a07f6b6789300eb743a8447edde74dfce42f76d507d74fabf8555209106a6cf6835d600102615b7e565b6132ae600060010282611cbe565b6132da7fe963ba32f3b2b2511f3b61c6a1cf8ec3b8865be585223e913dad37234ec3dba7600102615b7e565b6133067f4b1da260cff4143833d6e35ffde5e36b26a94146d2f068d1b4ae37ca6d0e9440600102615b7e565b61334560405180807f4f50455241544f520000000000000000000000000000000000000000000000008152506008019050604051809103902082611cbe565b50565b60006133767faaf351134d2239ae83e11d26c9067378253c609eb570f8ae74c28ed36c050dbc600102615b7e565b6133a27f6c875126be1726ab2fc657648964c34d167c9eea09e982826bf5fe2b9ca2d324600102615b7e565b6133ce7f62099aa8d5be0c25cfa94c8b816435976ac44df70e57c0cd61c9aa5a6e8ea507600102615b7e565b6133fa7f453557595d5569438781ff2bffda3521e47a9e00825bc9def362d351cf3e1c74600102615b7e565b61340a6134056164e3565b6124fb565b151561347e576040517f08c379a00000000000000000000000000000000000000000000000000000000081526004018080602001828103825260188152602001807f5265737472696374656420746f204f70657261746f72732e000000000000000081525060200191505060405180910390fd5b6134aa7f36164c6dee9768d45bd325d105734bbcb52f53401478cd02c4ecad63c18b8e68600102615b7e565b6134d67fc2ac55851c10e49d80d29047d52eddd577a7571d2b2f4dad9e5fcaa5c07a9bb2600102615b7e565b6135027f5e8f52e2588f032fb0401ec72f140df28676aa3e443604207fb07411f49704856001026124f8565b61352e7f756d4697b99f9470f2788e3d48f1981b182d2f71a8abffb308cfa8bc5140abc96001026124f8565b61355a7f27fd17f8241eb741602bcbf29405d1096a5a1e5ba53cb986b997c65dfbce6bac6001026124f8565b6135867f2b542bfe75d9773d4aa5b87ce095933ae3dae71347b73449f5da958e6aa9c6e66001026124f8565b6085600083815260200190815260200160002060009054906101000a900460ff16151515613642576040517f08c379a00000000000000000000000000000000000000000000000000000000081526004018080602001828103825260308152602001807f476c7577615072697a654c696e6b65644163636f756e743a205072697a65206881526020017f6173206265656e2070616964206f75740000000000000000000000000000000081525060400191505060405180910390fd5b61366e7f4e5d758321caddaa3eccdfa5f9696124b9bca2a340cc5db0b7f8832cc8528a3a6001026124f8565b61369a7f4363280b0a384857f09298a15e7386e37bdd16a30ec1ad29a81042957a4eacc36001026124f8565b6136c67f2241b8f0ff18451fb7bff58b2e558fb4fdca50e58953697a16cf8228d0443a2d6001026124f8565b60006136d183615b81565b90506136ff7ffcc889693a5b83904f5d13ea2ed7fa6f4b4f84378fd6722ecb979cb08ea76a146001026124f8565b61372b7f3b312b1c0f831ff0c7d73ce9e3e66bbc18a2348cc21dfc1cecf5b9f1c5511bf46001026124f8565b60006137a9607260049054906101000a900463ffffffff1663ffffffff1661379b607260009054906101000a900463ffffffff1663ffffffff1661378d608360008a815260200190815260200160002054607b54616fbd90919063ffffffff16565b61704790919063ffffffff16565b61711490919063ffffffff16565b90506137d77f436deb28efa5fffefaca023fe9a7e1ffd1c16c71b96713096f781c8587eba6ac6001026124f8565b6138037fa91511c6d9e8e969329fbc5d9c4a649bb0f904837aeaaeb24c88c91f5783268d6001026124f8565b60016085600086815260200190815260200160002060006101000a81548160ff02191690831515021790555061385b7f0281ff50570d64fcc22a7cffad36a108b8a0f25c30b76aebcca33bfaabe158716001026124f8565b6138877fcebb769236023ea5c6071130f4c3794bdf788492b01addde15682ebb38f763886001026124f8565b600073ffffffffffffffffffffffffffffffffffffffff168273ffffffffffffffffffffffffffffffffffffffff161415156139b1576138e97fc1fa9d0fd449d79b354856f4dc1acc6425102fd39cb1c92cab69582c5337b55f6001026124f8565b6139157f7bb0efe6dc690972b240a85d6d69cf1dbabd00dbc9c4d1a2e642bd830853645a6001026124f8565b6139417f4e3531303908a3189c7f0c3bbc5878a0da9aa30e41e04bc676e1bda022c011916001026124f8565b6000607b819055506139757ff57a04441cd24e12f268de4011c4d0e7188523cd33e0f5997a4f057a72665cc76001026124f8565b6139a17f5f4824ce5e5993ca3f8fea6cdb43a0953dc1a377f6a582625aa6c84529c728496001026124f8565b6139ab82826164eb565b50613a46565b6139dd7fd7d8455cb9b21ba155eab791736846eef2bfa1af713b85b64f3f879e266a13d66001026124f8565b613a097fa885dbad3c273ca78cd1b5c51dfaf16f58ff56e3f355f4bc00906de13d98fc406001026124f8565b613a357fa6e2e0fac632267809c1730876d0dd4dcb34e78490ca525e7fb6b8dfebf51e756001026124f8565b80607b600082825401925050819055505b613a727f2e791255a86b134d317ce1fd6d8593fc0619586385cc0169603ffb6e216963b16001026124f8565b613a9e7f1c18fbe36c0bf21be8d23b67c95aa51d2dbeab294df7b1c0881a159f1af3ecff6001026124f8565b600192505050919050565b6000613ad77f433294070be26091e7d86a9df5bd4244f369eb92740f08f2b9f5dee15dae218c6001026131b5565b613b037f9907d011a40ed9cb525bc9703c302f3d71ee5b67daac1b37a8ef10b968f4f2686001026131b5565b613b2f7f986fc817075028f0f7a6cb089481ce6acf40cfa9302d016869b03d52c9d08c886001026131b5565b613b57826033600086815260200190815260200160002060000161715e90919063ffffffff16565b905092915050565b6000613b8d7fc5051e054086deec6c7ce99762d4f39637ad216385e8d81a88af053129a5dead6001026131b5565b613bb97f9bca38d46f8380efa4a25230fbef4066e19ab09fe512066359f31c8e5016dd9f6001026131b5565b613be57f305a98b4dcb9deaeb4ad6d585a3ddd50284c504959838879128fb9d44da89a4f6001026131b5565b613c0d82603360008681526020019081526020016000206000016171fd90919063ffffffff16565b905092915050565b613c417f150c1f904fe0c1d2f7a31162f5217d4d07c87854ee9f1013b84b4a0201d3e1fb600102615b7e565b613c6d7f3a927a1908dff92aaf343f9a9dfd70ce943abc4aa14bc384662aea3b37a017f0600102615b7e565b613c997f2269e0bd13e5cbaefe2045e6d1c22c909b9219f2bd4b7672480604fb38c98aff600102615b7e565b613cc57fa6df09688a4556c7d0ddda638cdc6c4be3f54a1562b6556c704a1151a59f51b3600102615b7e565b613cd5613cd06164e3565b6118b3565b1515613d49576040517f08c379a00000000000000000000000000000000000000000000000000000000081526004018080602001828103825260158152602001807f5265737472696374656420746f2041646d696e732e000000000000000000000081525060200191505060405180910390fd5b613d757f9c9fbfd717d8dd01b6f6d343c06d5831407925d9079391b9c4b46f28be3049a7600102615b7e565b613da17fab54a3e2ff4e656505e71fbbf5f7f72002a6ea83477a899d8ce6e776e6750197600102615b7e565b613dcd7fbdf835ee0fe59519e68e959a2766d368864459c142b651dc6d6cc62e98a49287600102615b7e565b613df97fd14e8c1d0c70855f3f901075500965984cbea219b1fa4a42db605c475f4bbee4600102615b7e565b613e257fbe47793fa43a6c9d58b424bbf96d50fa4160ae78cfe3c5dd4bc34ba1ea721386600102615b7e565b613e6460405180807f4f50455241544f520000000000000000000000000000000000000000000000008152506008019050604051809103902082611abb565b50565b60008060008060008060006060613ea07f4e2b16b1b0644f6bc3a47b05ab1e8597b115c2a72699bdc20fad556b9cccc4fe60010261497a565b613ecc7fb166f02045665ffa2ad499d796c42e71b1b8174bac0c60c1db73500d1a05cce160010261497a565b613ef87f041147629463f6e0c13e8ca4166a2b5a8b446ac5719c470051757b4feb502f1f60010261497a565b613f08613f036164e3565b616d85565b975097509750975097509750975097509091929394959697565b600060010281565b613f567f150c1f904fe0c1d2f7a31162f5217d4d07c87854ee9f1013b84b4a0201d3e1fb600102615b7e565b613f827f3a927a1908dff92aaf343f9a9dfd70ce943abc4aa14bc384662aea3b37a017f0600102615b7e565b613fae7f2269e0bd13e5cbaefe2045e6d1c22c909b9219f2bd4b7672480604fb38c98aff600102615b7e565b613fda7fa6df09688a4556c7d0ddda638cdc6c4be3f54a1562b6556c704a1151a59f51b3600102615b7e565b613fea613fe56164e3565b6118b3565b151561405e576040517f08c379a00000000000000000000000000000000000000000000000000000000081526004018080602001828103825260158152602001807f5265737472696374656420746f2041646d696e732e000000000000000000000081525060200191505060405180910390fd5b61408a7f9c9fbfd717d8dd01b6f6d343c06d5831407925d9079391b9c4b46f28be3049a7600102615b7e565b6140b67fab54a3e2ff4e656505e71fbbf5f7f72002a6ea83477a899d8ce6e776e6750197600102615b7e565b6140e27f241ba548cc8253817305eb6cbd99b145edfcecbfaeaba1576d256fce484d5ab2600102615b7e565b61410e7fc0aad2c1f4c71d0d45099bfc691c3cd5b001f96af75e9e3b342f389f86c26147600102615b7e565b61413a7f86524858a643a3d44641956918739c1a8adbfa262f51365867258a74777ab6e8600102615b7e565b61417960405180807f4f50455241544f520000000000000000000000000000000000000000000000008152506008019050604051809103902082614ef4565b50565b60006141aa7f20c8a1a4e166c098a418f14ca157f928aa778528e3a57712569ec38b5249043e6001026124f8565b6141d57e15b3931a5cbcfdb94468d8463d57e10b927ff3f5dec27f29fed6582db461236001026124f8565b6142017f9f47ee9737d89ff0242a68b7cfa5ae2dd49bb41a6f3a6ca42c5abffd6dbe64186001026124f8565b600061422f7f7f59b1297d5b740655dc346f6341fdbc5ee407f25bbc5b9059255776fafc833c6001026124f8565b61425b7f539ea9aec3adda5610bcee799e95f29b7a763087820d1100cbecea8a188275ea6001026124f8565b60008090505b6069805490508110156147a25761429a7f66b25eafbb57a9ed591bc2b2c8e13aaacb06ebb42cfa37a2944522c8bb08f1326001026124f8565b6142c67fcfec50d7da70a40a1c7bfad3aca4f1c73301a21d76f6921425ed20df12b158226001026124f8565b6000607f600086815260200190815260200160002060006069848154811015156142ec57fe5b9060005260206000200160009054906101000a900473ffffffffffffffffffffffffffffffffffffffff1673ffffffffffffffffffffffffffffffffffffffff1673ffffffffffffffffffffffffffffffffffffffff168152602001908152602001600020805490501480156143dd575060006076600060698481548110151561437257fe5b9060005260206000200160009054906101000a900473ffffffffffffffffffffffffffffffffffffffff1673ffffffffffffffffffffffffffffffffffffffff1673ffffffffffffffffffffffffffffffffffffffff16815260200190815260200160002060040154115b80156144875750600160048111156143f157fe5b6076600060698481548110151561440457fe5b9060005260206000200160009054906101000a900473ffffffffffffffffffffffffffffffffffffffff1673ffffffffffffffffffffffffffffffffffffffff1673ffffffffffffffffffffffffffffffffffffffff16815260200190815260200160002060060160009054906101000a900460ff16600481111561448557fe5b145b15614768576144b87f04b0fe784a4f0f8284cbbb6b00b8736fad4b5e4b08045485932d0cdb6f64a3c66001026124f8565b6144e47fecd17d05735ae2a73f9b454e17709beb8e565eb859b471feea1e44f760f48fcc6001026124f8565b6145107f295c46218e620c5daa8d5dbdf215266d8734914a6e39fd167b64877d28d6e93a6001026124f8565b61465360698281548110151561452257fe5b9060005260206000200160009054906101000a900473ffffffffffffffffffffffffffffffffffffffff16856076600060698681548110151561456157fe5b9060005260206000200160009054906101000a900473ffffffffffffffffffffffffffffffffffffffff1673ffffffffffffffffffffffffffffffffffffffff1673ffffffffffffffffffffffffffffffffffffffff1681526020019081526020016000206004015461464e607660006069888154811015156145e057fe5b9060005260206000200160009054906101000a900473ffffffffffffffffffffffffffffffffffffffff1673ffffffffffffffffffffffffffffffffffffffff1673ffffffffffffffffffffffffffffffffffffffff168152602001908152602001600020600401546172b1565b617375565b506146807fd1cabf672aa44b4f1e7cf44aeae91874a3a9e3f430a0cb08ae7f562aace9debe6001026124f8565b81806001019250506146b47f9e71d6f95db452fd7ef52a04a444dbe6e7214372dc13c9c9d1e3f328ee6e4c4f6001026124f8565b6146e07f291f76be806fc84ecd30794a1607931972db0f478acbf3f21afa996ee913648d6001026124f8565b608660039054906101000a900463ffffffff1663ffffffff168263ffffffff161115614737576147327fd9cbf58cab23258ee4b30affef65e399568676bfcab6fcde67983f7592df679f6001026124f8565b6147a2565b6147637f5bd917ccd4c942e0ae31ef82a31d9df1ddbdb554dfde2f720cff995c4ae17b266001026124f8565b614795565b6147947fb9985cae29f5fb206a28fec9e4ddbd970bbb961cedcb0547cd4abe5fa8a7c87f6001026124f8565b5b8080600101915050614261565b506147cf7f41e3925319947507f9485fc0981244fae56b0ab33235976fb8700db2e33706dc6001026124f8565b6147fb7f89c9a80d067154a3dd9ba8d2b69aeb97535b9b1a5331f955574ee713f8831ac76001026124f8565b8063ffffffff16915050919050565b6000806148397f6ec3bd51b109b04bd4fad4fc87969f5f0c0977d7b7a3c1a1852fc8f7d59486cc600102612930565b6148657fee2150133aeb5c13ba66a960a23a8d782e1773f1c85b122475d81f4a2923eb1e600102612930565b6148917f0582e571790f213b9db61ebac7c1034d82e5568014ea5e9a4c48da61d7a54e2d600102612930565b8273ffffffffffffffffffffffffffffffffffffffff1660608473ffffffffffffffffffffffffffffffffffffffff169060020a0291509150915091565b60006148fd7f44f06d40964298ea22079cda36046dcfd121686bb49a0c1b80a0eae08ce559456001026131b5565b6149297f72cd481b3bb07d020fc3b7cda33c4c2d3e2e7f9553bac348bcde8f231dc4fc186001026131b5565b6149557f6eb98de5cc4982251f208140de22f6b8311bb14ab13aced174eddba3a1a904be6001026131b5565b61497360336000848152602001908152602001600020600001617ca5565b9050919050565b50565b60006149ab7faaf351134d2239ae83e11d26c9067378253c609eb570f8ae74c28ed36c050dbc600102615b7e565b6149d77f6c875126be1726ab2fc657648964c34d167c9eea09e982826bf5fe2b9ca2d324600102615b7e565b614a037f62099aa8d5be0c25cfa94c8b816435976ac44df70e57c0cd61c9aa5a6e8ea507600102615b7e565b614a2f7f453557595d5569438781ff2bffda3521e47a9e00825bc9def362d351cf3e1c74600102615b7e565b614a3f614a3a6164e3565b6124fb565b1515614ab3576040517f08c379a00000000000000000000000000000000000000000000000000000000081526004018080602001828103825260188152602001807f5265737472696374656420746f204f70657261746f72732e000000000000000081525060200191505060405180910390fd5b614adf7f36164c6dee9768d45bd325d105734bbcb52f53401478cd02c4ecad63c18b8e68600102615b7e565b614b0b7fc2ac55851c10e49d80d29047d52eddd577a7571d2b2f4dad9e5fcaa5c07a9bb2600102615b7e565b614b377fc06f9ab0a42067a3032004a1a614e8eb2400747d61d289999b531b49d72db4b26001026124f8565b614b637ffc1a22c806fb858100e543a0113f5030549cf1d5e9914e9ff96548df495877026001026124f8565b614b8f7f652e117f8199b91a755823b95c9a7ccbe183fafb662283f460b330e5ba66a30a6001026124f8565b614bbb7f04ac96bf3f7bedf438d92468329e5048138da52c598656dd27de0b9a976758866001026124f8565b607560009054906101000a900473ffffffffffffffffffffffffffffffffffffffff1673ffffffffffffffffffffffffffffffffffffffff166323b872dd8630876040518463ffffffff167c0100000000000000000000000000000000000000000000000000000000028152600401808473ffffffffffffffffffffffffffffffffffffffff1673ffffffffffffffffffffffffffffffffffffffff1681526020018373ffffffffffffffffffffffffffffffffffffffff1673ffffffffffffffffffffffffffffffffffffffff1681526020018281526020019350505050602060405180830381600087803b158015614cb457600080fd5b505af1158015614cc8573d6000803e3d6000fd5b505050506040513d6020811015614cde57600080fd5b81019080805190602001909291905050501515614daf576040517f08c379a000000000000000000000000000000000000000000000000000000000815260040180806020018281038252604d8152602001807f476c7577615072697a654c696e6b65644163636f756e743a20556e61626c652081526020017f746f2073656e6420616d6f756e7420746f206465706f73697420746f2061205381526020017f6176696e67204163636f756e740000000000000000000000000000000000000081525060600191505060405180910390fd5b614ddb7fb92dbc1cac19b913178a237a11f0087dfc4f8ddcb0b81ce1296c9792a388d4fb6001026124f8565b614e077f833f3b4341ff58a0e7be1edbb5dfc0dc374fc9896a676dbbe733866d03cf74d56001026124f8565b614e337f3a04ad7e9e78a5c1fc6cff605b009e257dee910e66faa994e8afe9c7316045a26001026124f8565b6000614e8586864287878080601f016020809104026020016040519081016040528093929190818152602001838380828437600081840152601f19601f82011690508083019250505050505050617d3e565b915050614eb47fccce1dbaba59abcf83396e478aed4d6e0fcfd31a26264a2061cb7b2ad61cb5f26001026124f8565b614ee07f512a38d588d989eed3acc08f88955428d188aadc8593fb741862cf90b8356c856001026124f8565b614ee981618e6c565b915050949350505050565b614f207fb74ad924ba00500175ccb9c922e90ece5516bede925bc063783bc6086080a7056001026131b5565b614f4c7fc538a949ad73d85fa871d4fe7b7caf55c98db10decb79e8201e5b229bf49f8d96001026131b5565b614f787f35ef7fe8d6d02844d6863bb6c55f0d1e296384393834f2824348a5a3fe583ff96001026131b5565b614fa47fe3926445fba9229f612ea4ab3450183300047551d9413fe24bf861e541ee22b46001026131b5565b614fcb6033600084815260200190815260200160002060020154614fc66164e3565b613b5f565b1515615065576040517f08c379a00000000000000000000000000000000000000000000000000000000081526004018080602001828103825260308152602001807f416363657373436f6e74726f6c3a2073656e646572206d75737420626520616e81526020017f2061646d696e20746f207265766f6b650000000000000000000000000000000081525060400191505060405180910390fd5b6150917f178ba80f02f74abd0ff251d2ea78ec810b40bec9630b6a70cdfbec8d0795e1426001026131b5565b6150bd7fec551c3ea353e36cbba2586629cb6098113180911ee1a321937b05ae2a2752b66001026131b5565b6150e97f84fcfc621d3e05319f4172e0bac43d08f99c5f386a82d921c479c6bf1caa5b9e6001026131b5565b6150f38282616bb8565b5050565b6060806000806151297f7c36b0bd26f5b34abdc80b983f14a3b49aea03dfb469ac6617f36f3214716011600102611ab8565b6151557f57992dc55ae2bd2bc00a1edba37970d7078af38a12bfd8216fe95a828d3371e5600102611ab8565b6151817f73cdd953316863f7c9f49d53db46b3f0c6b3b6a056ca2661cef2136875064a91600102611ab8565b6081600086815260200190815260200160002080548060200260200160405190810160405280929190818152602001828054801561521457602002820191906000526020600020905b8160009054906101000a900473ffffffffffffffffffffffffffffffffffffffff1673ffffffffffffffffffffffffffffffffffffffff16815260200190600101908083116151ca575b505050505093506152477f9ba21e4aec720ae0cdb3661d106d7b3c28070fbb50cb84e88bd961d62b076fd0600102611ab8565b6152737f30d70e9297c991dbec33d213f5b005ad6b02e6fd0a439021e89f50f6d8c11d4d600102611ab8565b607d600086815260200190815260200160002080548060200260200160405190810160405280929190818152602001828054801561530c57602002820191906000526020600020906000905b82829054906101000a90046bffffffffffffffffffffffff166bffffffffffffffffffffffff16815260200190600c0190602082600b010492830192600103820291508084116152bf5790505b5050505050925061533f7f48774ebfebefa3ea0f6e15f3f370e30b2f771d11102a8f636cd63f58a7f7f87e600102611ab8565b61536a7e7ada6c75b75c88ab670ea9835039b78d0bc9aceda545dd93c6b6fb7c68a556600102611ab8565b608260008681526020019081526020016000205491506153ac7f051748605349ac2a39b449d75ef8bb2cecc1e3a5e450552dc6cd33208527e6f6600102611ab8565b6153d87f4dce12d33aa2e960503b93d9fc9657890c5f4c093cec9eb9b025f54b6c2dfab0600102611ab8565b608360008681526020019081526020016000205490509193509193565b6000806000806154277fb30f1aac961533c92f334952ad3dccdf2b7404ab6092303bb4ff696323eee4d76001026124f8565b6154537fb186dff979fb354ec642140fe42b22543fe813bc664637b7332104df9357586a6001026124f8565b61547f7fe33882350298b6bc21fd5ea0c72c79c7e8f19b7c967fd373451dd5da795b7e6a6001026124f8565b615488856192e6565b93509350935093509193509193565b60006154c57faaf351134d2239ae83e11d26c9067378253c609eb570f8ae74c28ed36c050dbc600102615b7e565b6154f17f6c875126be1726ab2fc657648964c34d167c9eea09e982826bf5fe2b9ca2d324600102615b7e565b61551d7f62099aa8d5be0c25cfa94c8b816435976ac44df70e57c0cd61c9aa5a6e8ea507600102615b7e565b6155497f453557595d5569438781ff2bffda3521e47a9e00825bc9def362d351cf3e1c74600102615b7e565b6155596155546164e3565b6124fb565b15156155cd576040517f08c379a00000000000000000000000000000000000000000000000000000000081526004018080602001828103825260188152602001807f5265737472696374656420746f204f70657261746f72732e000000000000000081525060200191505060405180910390fd5b6155f97f36164c6dee9768d45bd325d105734bbcb52f53401478cd02c4ecad63c18b8e68600102615b7e565b6156257fc2ac55851c10e49d80d29047d52eddd577a7571d2b2f4dad9e5fcaa5c07a9bb2600102615b7e565b6156517fbe6762beacc210dc33f9fc38f75c42cb5d2fdbddd15b058626d0defde3c9dc146001026124f8565b61567d7fc06cdeb9de0bdff0bc7beaa12503083930fc0ea7ad5e61a11b9b24bca695cbd26001026124f8565b6156a97fbc4d0e511e71c00c44404d1e70c6cffe8be46b17fdc24ef16897be38811992366001026124f8565b6156b383836165ea565b905092915050565b600060019054906101000a900460ff16806156da57506156d96194ba565b5b806156f157506000809054906101000a900460ff16155b151561578b576040517f08c379a000000000000000000000000000000000000000000000000000000000815260040180806020018281038252602e8152602001807f436f6e747261637420696e7374616e63652068617320616c726561647920626581526020017f656e20696e697469616c697a656400000000000000000000000000000000000081525060400191505060405180910390fd5b60008060019054906101000a900460ff1615905080156157db576001600060016101000a81548160ff02191690831515021790555060016000806101000a81548160ff0219169083151502179055505b6158077fa31b1a46fe654b8214ce8780cb04e88051018ff49ed0d929639c54af16d37a036001026124f8565b6158337f6b1d3517277c6dae7c17baff232a77586dc13e733d24d39144b09aff7ecff6306001026124f8565b61585f7fb55f637aec5ea17df8d730c46751dbfa10f5154ff466b43dac326330575967366001026124f8565b6158688c6194d1565b6158947f8f43cc292f22eccf19fb0e91fd36c4e31d3a3ea377ca734b6268c612006c6c0c6001026124f8565b6158c07f1699edaedc9a0279b78810e72027cdfd7548ce0ba68adcab7134bc7a2924de716001026124f8565b6158cd8b8b8b8b8b6197da565b6158f97ffbb2231a60b23c47f6efeb95679d935eb66f00ee07b920f2b12efafb0b77bfcc6001026124f8565b6159257fc99db7348e08c2dce72ee319f4479aa75684efefd9d0d1b65a7c7624a979a7a86001026124f8565b615930858584619cee565b61595c7fdffdb994ba241c0319ac950942effbd59462326ed703faabd0e960b73b1a4c3d6001026124f8565b6159887fa337749e228df36ace39ec8cca41156db675ecdaa278a7102af22533d9cead656001026124f8565b82608660036101000a81548163ffffffff021916908363ffffffff1602179055506159d57f773ce85b7115cef543d21a7e35b7e56f5bfeb18b7606af9f40cf94f7e5a004f46001026124f8565b615a017f8086c418f96dadbd3afe651200481727a02fee8e48a091362c121f36917961b36001026124f8565b607560009054906101000a900473ffffffffffffffffffffffffffffffffffffffff1673ffffffffffffffffffffffffffffffffffffffff1663313ce5676040518163ffffffff167c010000000000000000000000000000000000000000000000000000000002815260040160206040518083038186803b158015615a8557600080fd5b505afa158015615a99573d6000803e3d6000fd5b505050506040513d6020811015615aaf57600080fd5b8101908080519060200190929190505050608660006101000a81548160ff021916908360ff160217905550615b067f64c8445c55b7a04f7a329da3dfe0bdf4e69bccdcf81f17eea6cbc1cdb11566616001026124f8565b615b327f5ebd6d88fb36938184f1410d949c16a4bc91cb13d0f07cb98645fab8352643c86001026124f8565b85608660016101000a81548161ffff021916908361ffff1602179055508015615b705760008060016101000a81548160ff0219169083151502179055505b505050505050505050505050565b50565b6000615baf7fc9cb45d0bf10e6af1b5b19854bc22abb12a6ce6d2f3d6d17a3458b6e3007cfb1600102611ab8565b615bdb7f64ae18e454d090e2f0263f7cbb36a4aa2890c5c054c6af5cc79042ee0d3cd4b1600102611ab8565b615c077f48fd48f1275171a2aaecc142b245052ba266fe62db5c3296f7d23ce69b3c4b78600102611ab8565b615c337f2ccee3d41399f5665297836297dc0c1d8362ffe4dd10655e490f0f49cb4fb40d600102611ab8565b60006082600084815260200190815260200160002054111515615ce4576040517f08c379a000000000000000000000000000000000000000000000000000000000815260040180806020018281038252602a8152602001807f476c7577615072697a65447261773a20746865206472617720686173206e6f7481526020017f206265656e206d6164650000000000000000000000000000000000000000000081525060400191505060405180910390fd5b615d107fe754df3550e5545428fc407a1853bad83cca4e56618ac32c7055a60c6127cf5c600102611ab8565b615d3c7f1bbbeb94f2a61126e73393d5f85f8485bc8d3b5853c466de733c3c6036d1e713600102611ab8565b615d687ffc04913b10b04ac933a570b99d226578fe349719e87f25cde948923a84202b97600102611ab8565b60008090505b607d60008481526020019081526020016000208054905081101561615c57615db87ff97f446a33eadc03c55b69b1b4fa0a437c7a0c3130507ba6398bf6630cd70c5d600102611ab8565b615de47f632148f02c13fd87a4a30c099eb3e7a00d553aa4d23bcdd382b1a08ad0daa406600102611ab8565b607c6000607d600086815260200190815260200160002083815481101515615e0857fe5b9060005260206000209060029182820401919006600c029054906101000a90046bffffffffffffffffffffffff166bffffffffffffffffffffffff16815260200190815260200160002060010154607c6000607d600087815260200190815260200160002084815481101515615e7a57fe5b9060005260206000209060029182820401919006600c029054906101000a90046bffffffffffffffffffffffff166bffffffffffffffffffffffff16815260200190815260200160002060020154118015615f5957506082600084815260200190815260200160002054607c6000607d600087815260200190815260200160002084815481101515615f0857fe5b9060005260206000209060029182820401919006600c029054906101000a90046bffffffffffffffffffffffff166bffffffffffffffffffffffff1681526020019081526020016000206002015410155b8015615fe957506082600084815260200190815260200160002054607c6000607d600087815260200190815260200160002084815481101515615f9857fe5b9060005260206000209060029182820401919006600c029054906101000a90046bffffffffffffffffffffffff166bffffffffffffffffffffffff1681526020019081526020016000206001015411155b156161235761601a7fde18cf5ff95ccd1fd548003d8652c920736f51b1ef72a3544b6c54e1967e87f0600102611ab8565b6160467fd0a5d6fb8d3ba4582907d740423226a5ac609292ed08b7d22ddcd50ed81ba427600102611ab8565b6160727f737c0350da452b140ec187f625132fc2adc8b4e7ac5f772b090ed53242722a30600102611ab8565b6160ec607c6000607d60008781526020019081526020016000208481548110151561609957fe5b9060005260206000209060029182820401919006600c029054906101000a90046bffffffffffffffffffffffff166bffffffffffffffffffffffff1681526020019081526020016000206000015461a07c565b90508092505061611e7f3db1f9df08495ff9779dcadf3469052982dee809a63210fc0a11af1ba6ab17e4600102611ab8565b61615c565b61614f7f4cd22882db7ad884c875dd9d60e1b0768bbbf57983d0393f2325021caf213093600102611ab8565b8080600101915050615d6e565b50919050565b60006161907faaf351134d2239ae83e11d26c9067378253c609eb570f8ae74c28ed36c050dbc600102615b7e565b6161bc7f6c875126be1726ab2fc657648964c34d167c9eea09e982826bf5fe2b9ca2d324600102615b7e565b6161e87f62099aa8d5be0c25cfa94c8b816435976ac44df70e57c0cd61c9aa5a6e8ea507600102615b7e565b6162147f453557595d5569438781ff2bffda3521e47a9e00825bc9def362d351cf3e1c74600102615b7e565b61622461621f6164e3565b6124fb565b1515616298576040517f08c379a00000000000000000000000000000000000000000000000000000000081526004018080602001828103825260188152602001807f5265737472696374656420746f204f70657261746f72732e000000000000000081525060200191505060405180910390fd5b6162c47f36164c6dee9768d45bd325d105734bbcb52f53401478cd02c4ecad63c18b8e68600102615b7e565b6162f07fc2ac55851c10e49d80d29047d52eddd577a7571d2b2f4dad9e5fcaa5c07a9bb2600102615b7e565b61631c7f01f98095bdb4871bd3cd472191fd2a3fffdc20a06d2c780c8e6682291d9444676001026124f8565b6163487fee0809b58aeeed26c30fc6ba6d875b96116194bedc82363fc1cff54182bdce126001026124f8565b6163747f0c3e9f168ebfb4977cf472feeaa28e1f043f0a2f2b7739c3a79275d5177cb43c6001026124f8565b606060206040519080825280601f01601f1916602001820160405280156163aa5781602001600182028038833980820191505090505b5090506163d97fcf946496a68af8ab72dc0833344b0ca929f3401b5463d4651add61d4a119b11e6001026124f8565b6164057f4055094ee938ac478c67721fa04da3c5e6130172fcf7895af3203ad5d70324056001026124f8565b60003090506164367f55fb64c4d4d6cf94ce8a413d66cc411b6dca416c50fa2be261047c4c5e507a7f6001026124f8565b808418602083015261646a7fd436c8654e955acd1211f29a5aa18846bedb3f78d5ce3cc2fa9636ad9194a72e6001026124f8565b6164967fa1ce5180c6ab847e296c90ab909d21b74a90bd346200740c09675152f17d324f6001026124f8565b6164a0858361a172565b9250505092915050565b60405180807f4f50455241544f520000000000000000000000000000000000000000000000008152506008019050604051809103902081565b600033905090565b60006165197f3a61ce631acefc061885100fa00827cc97b5c93817dbb40c3c277a766f34cf716001026124f8565b6165457f04d34a11a149fd12dcc7da00db4db2c6c5b46f8d538990fe8181738b95ade60e6001026124f8565b6165717f6f2a40a642b8505b64d55c106502289b831617a327f48a5304fbf5ac6ecb20686001026124f8565b600061657e84844261a459565b90506165ac7f8500a9e4fc4b9b3b89306ac2352ef2e779b3117b09ed076a56e5023356ba26fb6001026124f8565b6165d87f8d699fbb555089289b574a77f3e959dac58459f1256ce603371095a6431dea2c6001026124f8565b6165e181618e6c565b91505092915050565b60006166187fc5a5b2fe6449602cfdfd593c921b094a06d3e15840ad3f2d5dbb67794b38cc546001026124f8565b6166447f27709734daa1fa3965ca025f974860583ff8fed1c0cb907f6f902bc60c3904cf6001026124f8565b6166707ffe87d3712ed22cc2ee45b38688206d2f3f0caec5b6c6d55e1840b6e5161ec9956001026124f8565b600061667c848461ad13565b90506166aa7f06da2979439f848af7278d004f2f6f3c78aa696877984cdbbbba4a7bc489a5316001026124f8565b6166d67f591bba838a957c9eae52cd278289638b1cbaffb28d4f0e2e3f02906ff6d145296001026124f8565b60006166e1826172b1565b905061670f7f548ad73e78a72a1f172ccc5cb47debddfb89542ec1a61a821db15afd182a9fd26001026124f8565b61673b7f3bfca3da8a738e97b8d886da18a71c0cf0181e5451dd251db086ded623a858c36001026124f8565b60006167464261b265565b90506167747f87c7f9574e9f862bb7bf3b9ab9305e831b38f1da0ed3d427966be43fa0f4b2f46001026124f8565b6167a07f293cc16895c033ce2f757f7593eac138ff75c77899c8072dab9b48949ff7809c6001026124f8565b600062015180820390506167d67feadf27bffebf2c2d2002a7d7539979d6420915a24d053060d9f36bba807057ac6001026124f8565b6168027fb35829b702072203f709e0748491c3f1b289b2aae4713cfc8360dbe699b8a9646001026124f8565b61680e8783888661be3b565b5061683b7f635141b229dc79ffa55ded2a64ea2b76683daa859141926eb8f581ca170114e16001026124f8565b6168677fb196c774e48dbc0b072c431372a3db70bdaf6e5afd2490fd4ba14732699646506001026124f8565b6000607f600083815260200190815260200160002060008973ffffffffffffffffffffffffffffffffffffffff1673ffffffffffffffffffffffffffffffffffffffff168152602001908152602001600020805490501115616959576168ef7fc67660cf410419900083eb1200a11fb544ab29325f82f01a3cbdb8b6ddf7116c6001026124f8565b61691b7fda196891401d4a117d4158caba9e18b0eb05950b8249b583e45ea05c3681bacf6001026124f8565b6169477fc062c3862d8b40cba4e6844b040853a31c3eb30841289529fa726d8c6956cebe6001026124f8565b6169538782888661be3b565b50616986565b6169857f25c9d0ffdc168da5ca5a9edfe4529e7b902a78a5f6c9647ce9cb177f02a8ac3e6001026124f8565b5b6169b27f30be0bc5f9b6350dfe8facb2ea36a5912023737f69cd70a479e75f62f92514176001026124f8565b6169de7f79c71ca22ffb61c2c72e4170a9b068447cbcb91e3747b1e362391715cd8d94cb6001026124f8565b600194505050505092915050565b616a187f7b5ca71ff0c3170626af9f1558f947e9704f6758fabb43f6074fe812966bce566001026131b5565b616a447f811d9b367083ade010308c3df46e6c1a758d0a4e066263174dfb6043b644e1736001026131b5565b616a707fdb6ee36fa74bfce73b4d7febf4feaf4bdebc1210aab6f5b8693bd4a1f8853a266001026131b5565b616a98816033600085815260200190815260200160002060000161ca8690919063ffffffff16565b15616b8857616ac97f85d239db3b4d1b9cced29486f7c80ccb652aafd8e8eae3f7452473f2cc89b51a6001026131b5565b616af57fedea06ed59008997c5743a16db8568bab5dd9f9c34ed04b0f769daf451feb4796001026131b5565b616b217fef1f4435b8ae57ba06f31930b3fb8c9cc004c60b2991c9854f356fda1be49d1b6001026131b5565b616b296164e3565b73ffffffffffffffffffffffffffffffffffffffff168173ffffffffffffffffffffffffffffffffffffffff16837f2f8788117e7eff1d82e926ec794901d17c78024a50270940304540a733656f0d60405160405180910390a4616bb4565b616bb37e8e26e72734111ca057d72127912f0212f88739a7285da44b27658c44d821cd6001026131b5565b5b5050565b616be47f84b91bc6cd4d63b8761ad13257c7207720ef3cd77d61117e543c387736916e5e6001026131b5565b616c107f9dccac468e58953be22b97f316f61593d0626c019b44f72d0fae41962f2372db6001026131b5565b616c3c7f431977193dba4d85d3d1072d0ba5e1cdccca8cddfd8c4aff4d7ac2ea98d3d4ee6001026131b5565b616c64816033600085815260200190815260200160002060000161cb3a90919063ffffffff16565b15616d5457616c957f28a965b98d8b942f56696427d3c721e5310563fbc5164dca87cf5cf13ea2a9ed6001026131b5565b616cc17ff646bf7a647c7eede6638809cfb9c3301764e40ef49c153dd68e18ef90812a406001026131b5565b616ced7f6fa7faf9721d6feef12eef2be7cb46f54c37eb46b0da7acac7b4fe0f1b3f54426001026131b5565b616cf56164e3565b73ffffffffffffffffffffffffffffffffffffffff168173ffffffffffffffffffffffffffffffffffffffff16837ff6391f5c32d9c69d2a47ea670b442974b53935d1edc7fd64eb21e047a839171b60405160405180910390a4616d81565b616d807f8151549efc9ed0302e535d39e83479798ffab5156bdffc64026f549fa008bc6d6001026131b5565b5b5050565b60008060008060008060006060616dbe7f96b7243fbf7e39b4dbafba3bea40cf65b2a8a2981e4d691f45fbe8051b4c176860010261497a565b616dea7f3d79eb7efb2ac22f905fa98d8077cf7a5288b224bce8b661262d0341c1c0215760010261497a565b616e167f9d61ecf923815bcd30b35fff050fb785d71a81e57129e1e62a28b4d244cfe30f60010261497a565b6000607660008b73ffffffffffffffffffffffffffffffffffffffff1673ffffffffffffffffffffffffffffffffffffffff1681526020019081526020016000209050616e857f4d1da28b6ff493badbc82631932ee6faaa25c42646bf1875efa2b7b47d4eb2ae60010261497a565b616eb17f77bc20e82f623d7791695aa51b5575507239779965e590de6f295de80778e8a060010261497a565b806000015481600101548260020160009054906101000a900473ffffffffffffffffffffffffffffffffffffffff168360030154846004015485600501548660060160009054906101000a900460ff1687600701808054600181600116156101000203166002900480601f016020809104026020016040519081016040528092919081815260200182805460018160011615610100020316600290048015616f9a5780601f10616f6f57610100808354040283529160200191616f9a565b820191906000526020600020905b815481529060010190602001808311616f7d57829003601f168201915b505050505090509850985098509850985098509850985050919395975091939597565b600080828401905083811015151561703d576040517f08c379a000000000000000000000000000000000000000000000000000000000815260040180806020018281038252601b8152602001807f536166654d6174683a206164646974696f6e206f766572666c6f77000000000081525060200191505060405180910390fd5b8091505092915050565b60008083141561705a576000905061710e565b6000828402905082848281151561706d57fe5b04141515617109576040517f08c379a00000000000000000000000000000000000000000000000000000000081526004018080602001828103825260218152602001807f536166654d6174683a206d756c7469706c69636174696f6e206f766572666c6f81526020017f770000000000000000000000000000000000000000000000000000000000000081525060400191505060405180910390fd5b809150505b92915050565b600061715683836040805190810160405280601a81526020017f536166654d6174683a206469766973696f6e206279207a65726f00000000000081525061cbee565b905092915050565b600061718c7fe7416d2a3843e619b1224850d86b591b72a1e287cf0e1b4b38a8e263ea53269760010261ccb8565b6171b87f3f6e9522e1ea2955cabc1c679f64bf976068c841a9611123dcede6de73ec4fcd60010261ccb8565b6171e47f8b9337500c7386ca8a4084f42b2d40b9be1af142fb7b663118e6df4ae84c617a60010261ccb8565b6171f1836000018361ccbb565b60019004905092915050565b600061722b7fa53b31889d5006b4901ceb793559ba11b86794ec37414fd5e2572de69058b50b60010261ccb8565b6172577f1e389c3a59451a90cc38a462ab78e585703d049faa682b547afe962dd782d9fb60010261ccb8565b6172837f91294d2a3cd14ca48c2829d94278cbbc8da604b303f69291b78cc7a96433fb6b60010261ccb8565b6172a9836000018373ffffffffffffffffffffffffffffffffffffffff1660010261ceb9565b905092915050565b60006172df7f8a16c72f3d08964d4b71e36810ab99653e2f46d2a9bf826bd1cd8478aba4ccdf6001026124f8565b61730b7f4c5a6d99af1d45b4628e99e4b269c0176ad4768b1613c46f64919d4f12c5b5006001026124f8565b6173377f9abe30724f1c1e411ce654e9058954211a49ab0e32f5e13424885f98970542106001026124f8565b608660009054906101000a900460ff1660ff16600a0a608660019054906101000a900461ffff1661ffff16830281151561736d57fe5b049050919050565b60006173a37ffdd89320185995bfc90bd2f435a9e7d12cff2e212aae18da6f0c108a2fefca4f600102611ab8565b6173cf7fdbc8a71c599f71825cdc422cf59f398f8a51348d18be2d4257eab9c208d7587b600102611ab8565b6173fb7fc5b503a3cde8ae5bf7e248fa24ec9a90f4b2c81090d36d4d2aca1fbc4bc22b92600102611ab8565b6000607960000160009054906101000a900466ffffffffffffff1666ffffffffffffff16905061744d7fef3003f0129bbc70afd32f619ac0b9e9e53ed070a15d073afbfeca0f18b09bad600102611ab8565b6174797fe9ccc8f3b1a0e88304e9986a4a95212986391b5760dbfd02de12dc7a06c04b52600102611ab8565b60008673ffffffffffffffffffffffffffffffffffffffff1690506174c07f9320883c9245d2acdf532a3a29eb3ddefbac50f535da86ece2d53fd81c7aedfa600102611ab8565b6174ec7ff89fb822d335b9dc601a9556cc5e96ac1e4c2e7dc0e0ae35cbb7a4b8810f116a600102611ab8565b60a0826bffffffffffffffffffffffff169060020a02811790506175327f537eb45c1ef919b66c047975f45174e60e410ff842f4d66c056e79d83dfe664c600102611ab8565b61755e7f656ad3b4f3c2a307d171ab15abb22494d1c9c629f1eb6f2d37f3dd5b1ee24713600102611ab8565b6000607e600088815260200190815260200160002054607a60039054906101000a90046fffffffffffffffffffffffffffffffff166fffffffffffffffffffffffffffffffff160190506175d47f073e147acc3d18fc219e164c20766a065a5acad263b4651f7781989ce2357596600102611ab8565b6176007f78090439c7bf2e1293da69fc94da1fc52cf54f5f72aa4760cc25bf22de111853600102611ab8565b600085820190506176337f53d430737d556e4e55940f9eed7c24e195849be3483580700603371007507040600102611ab8565b61765f7f5da47253ec3c3274e2ab7298d503a555d02c7232c501dcd08134ad2771f8ba10600102611ab8565b60606040519081016040528084815260200183815260200182815250607c6000866bffffffffffffffffffffffff1681526020019081526020016000206000820151816000015560208201518160010155604082015181600201559050506176e97f5439116f482646a7d52d71066ec257f2baab37e8cb33e66e4f9bc70682cce037600102611ab8565b6177157f13f6c725b8f9eebc3e3b1f11af3f6436381c10d460a256e370a0097ffc234d04600102611ab8565b86608360008a8152602001908152602001600020600082825401925050819055506177627fc4c96cf46eeba2873e9ca10840c8f682bf3cf4105689f517332f6e5d1d8040a6600102611ab8565b61778e7f7d1abfce3f4cdd03f44ae6cf0f8b5ddb772995bd692bb263f3c23339b515135c600102611ab8565b86608060008a815260200190815260200160002060008b73ffffffffffffffffffffffffffffffffffffffff1673ffffffffffffffffffffffffffffffffffffffff168152602001908152602001600020600082825401925050819055506178187f081b29c9b5d9e4920545d94197af44ad21881b03f6f5e10e461d18cb9fd078dc600102611ab8565b6178447f0969465ef6c5ea50e8d3fd9a540cc241fb18b46edf5daab89808dff32f5201e1600102611ab8565b608160008981526020019081526020016000208990806001815401808255809150509060018203906000526020600020016000909192909190916101000a81548173ffffffffffffffffffffffffffffffffffffffff021916908373ffffffffffffffffffffffffffffffffffffffff160217905550506178e77f0671443b48b8db258579dcba632918e8affbd05437db35fe8da4eae40266f0ed600102611ab8565b6179137f76e9c5df0eb03553c01aa0bc5b1875e59946e72a4831e122dd929fa71e53b188600102611ab8565b607f600089815260200190815260200160002060008a73ffffffffffffffffffffffffffffffffffffffff1673ffffffffffffffffffffffffffffffffffffffff168152602001908152602001600020607960000160009054906101000a900466ffffffffffffff16908060018154018082558091505090600182039060005260206000209060029182820401919006600c0290919266ffffffffffffff16909190916101000a8154816bffffffffffffffffffffffff02191690836bffffffffffffffffffffffff16021790555050617a0f7fd78789dcc5df825e09b94ecb8425a5c8355ac6677c2b5a6e7a6652342d1c1188600102611ab8565b617a3b7fa14fcbcab4a892575ad23caa397f375fff3d33ee46c48ea6c92114c7c9ce5e63600102611ab8565b607d600089815260200190815260200160002084908060018154018082558091505090600182039060005260206000209060029182820401919006600c02909192909190916101000a8154816bffffffffffffffffffffffff02191690836bffffffffffffffffffffffff16021790555050617ad97fc035af89a7a7fdab8d5b2c3923781b6f849dc4b22ec49186aeab341196e0ade3600102611ab8565b617b057f0c9b38d7c3a65c3cc43fd5ad7ae3993a6d93fd697e31957f51397f60e47de362600102611ab8565b80607e60008a815260200190815260200160002081905550617b497f381080a9f8721aa0664b32dddbd723e4c698f38e9df2cbc323c6ccbdf1c53cea600102611ab8565b617b757fc80f4cece3c2167176cd3daee7a2b9c69961deb2c488b1339fb5808b0c50ac84600102611ab8565b8873ffffffffffffffffffffffffffffffffffffffff16846bffffffffffffffffffffffff16897f7ef38c92f7959fa67fe5cd29a3986c48d410d61218c99b6901c9cc81d246cfec8585604051808381526020018281526020019250505060405180910390a4617c077f62084f7b105f12b0759924635bb5bfbf4b8f468bf9e9602362155b8346484655600102611ab8565b617c337fc6b5058ad1548c6ca49bb1d28ecae089997f2bece577e784c81db0684e31d950600102611ab8565b617c3d607961cf61565b617c697fa17398b5bd6815cbf87da4f9a9c0705dfd0842fa79935314fcc95cf49a7181b4600102611ab8565b617c957fb814d31f5d4c16fb9afbfdd58f41820fd86d8a1f15872a35ece725947e6bf4d0600102611ab8565b6001945050505050949350505050565b6000617cd37fed54bc75583d419ab275e8111912b68693321933fc327bb4bcf80928ad8b8b4960010261ccb8565b617cff7f3daffd0a9dce28b482d01a551215671bf4393bb2c14e29701cf4960e2f2b129260010261ccb8565b617d2b7f40aa26a0e9be8d065cf56c5a97ee7ecf2d6f7f27a85e81ebb85bf92a3fb598c860010261ccb8565b617d378260000161d002565b9050919050565b600080617d6d7f56ca7feaf246e3771784b54fb54b9b6ee10514bd64de526aa51dbeefc9deb43960010261497a565b617d997f2a0d22da8e991b89711d6308a38079ef47c8c8603cf616f9dca6f6b10f70d74560010261497a565b617dc57fba7a3f687c5ae1aaa5f691e8acfcb9803f3ef694369f5a01311767eee489b3d160010261497a565b617df17fbbe611060714f972353adf43ebc7841f7c51d4d2e87b95822fa5e43804fdf49b60010261497a565b606654856074540111151515617e95576040517f08c379a00000000000000000000000000000000000000000000000000000000081526004018080602001828103825260268152602001807f476c757761536176696e674163636f756e743a2042756467657420697320657881526020017f636565646564000000000000000000000000000000000000000000000000000081525060400191505060405180910390fd5b617ec17fd9aa07dc2fdf21ff6d9dc6035d294b67f7ea05f7a7dd392f0abfa9f67bb0707e60010261497a565b617eed7fe6d8e582b5ccead73f67eb90099d5f256656f549eea1c09bc3c6a7e73e07cc7460010261497a565b617f197f75916e65316b56c0aa0ba683d2eeb9ff63a9874c7c81211acbef5d5a0447246660010261497a565b617f457ff4b56094aaf5ac2cb270e6c04b80589fb528196f00ddb9d25f4bea209e89cd1d60010261497a565b600073ffffffffffffffffffffffffffffffffffffffff168673ffffffffffffffffffffffffffffffffffffffff1614151515618010576040517f08c379a00000000000000000000000000000000000000000000000000000000081526004018080602001828103825260388152602001807f476c757761536176696e674163636f756e743a20536176696e67206f776e657281526020017f2061646472657373206d75737420626520646566696e6564000000000000000081525060400191505060405180910390fd5b61803c7fe2064ecda43658bce43fbf2e4a4650e0b2419dd87d1c429c69e406fa1d96cb2260010261497a565b6180687f47037449925b55103db30c98d27d8ca0b7885ab667b5b16d296ae241e8ac9ff160010261497a565b6180947fb1984e31da7081381a9af027766a1299f9dd9601711d4803eda543fe2a4b9c1760010261497a565b6180c07f8520bbdc1065c48f0f20efc1f79dd197d8ca4e1eccca4a47e190ce4a84b9b18960010261497a565b6000607660008873ffffffffffffffffffffffffffffffffffffffff1673ffffffffffffffffffffffffffffffffffffffff168152602001908152602001600020600301541415156181c6576040517f08c379a00000000000000000000000000000000000000000000000000000000081526004018080602001828103825260478152602001807f476c757761536176696e674163636f756e743a2045616368206164647265737381526020017f2073686f756c642068617665206f6e6c79203120536176696e67206163636f7581526020017f6e74206f6e6c790000000000000000000000000000000000000000000000000081525060600191505060405180910390fd5b6181f27fda5a49efd6a9275f6de973b1973d9652d06f46ebce2a10ac9f6b0d32187fd89660010261497a565b61821e7f6311c1acba6ba6a0ac8ef65fbb928cf10b9a8c602290410b2b2f9a2732c6f99060010261497a565b61824a7f29f579870e139648b7a4dab6da4a649a60074ddd1a90f31bc8e9755a0207163a60010261497a565b6182767f4eb49c94e8eb0a6e62e632a2704874592daa97ddf77837ff3be43f1d3863c1e460010261497a565b600015156078846040518082805190602001908083835b6020831015156182b2578051825260208201915060208101905060208303925061828d565b6001836020036101000a038019825116818451168082178552505050505050905001915050908152602001604051809103902060009054906101000a900460ff161515141515618390576040517f08c379a00000000000000000000000000000000000000000000000000000000081526004018080602001828103825260318152602001807f476c757761536176696e674163636f756e743a204964656e746974792068617381526020017f6820697320616c7265616479207573656400000000000000000000000000000081525060400191505060405180910390fd5b6183bc7f0a44630ebdb1427c3229ac6c5f57a4a4edafdceea23d811259a9fb17c8b92b1b60010261497a565b6183e87ffb2ef150308673efcfec895ad27adddb42399e62d460c309faf8660c51aed8a560010261497a565b6184147f678cbef0a8f5b00b9167a77b638210e4263a477281a3bfb60be794624493b7a660010261497a565b600073__$8ad4cadfbfab443c6ed09b45690dcdfb0d$__6384cefce086308a6040518463ffffffff167c0100000000000000000000000000000000000000000000000000000000028152600401808481526020018373ffffffffffffffffffffffffffffffffffffffff1673ffffffffffffffffffffffffffffffffffffffff1681526020018273ffffffffffffffffffffffffffffffffffffffff1673ffffffffffffffffffffffffffffffffffffffff168152602001935050505060206040518083038186803b1580156184e957600080fd5b505af41580156184fd573d6000803e3d6000fd5b505050506040513d602081101561851357600080fd5b810190808051906020019092919050505090506185527fd4db1d6afaad34c1c6f662aac9db2390c4631d478c522cf973cff17a04eb805160010261497a565b61857e7fdd87886c8f8c5b4a561f66f9ec48c4acb3f5e7b3c02ae5a1bd4ede447edb2fd860010261497a565b600073__$8ad4cadfbfab443c6ed09b45690dcdfb0d$__63fd96809e606a6002015489308c6040518563ffffffff167c0100000000000000000000000000000000000000000000000000000000028152600401808581526020018481526020018373ffffffffffffffffffffffffffffffffffffffff1673ffffffffffffffffffffffffffffffffffffffff1681526020018273ffffffffffffffffffffffffffffffffffffffff1673ffffffffffffffffffffffffffffffffffffffff16815260200194505050505060206040518083038186803b15801561866057600080fd5b505af4158015618674573d6000803e3d6000fd5b505050506040513d602081101561868a57600080fd5b810190808051906020019092919050505090506186c97f1bec6e70f80774a59e8920f85e6096fee2a3ccc9c1479adbee383a62e8bf40e660010261497a565b6186f57f09ff8cc7c7ada2ed620b18b5faa8174ed9e7f22bb687c70c5d5e5b6dabe461dc60010261497a565b61010060405190810160405280606a6002015481526020018381526020018973ffffffffffffffffffffffffffffffffffffffff168152602001878152602001888152602001600081526020016001600481111561874f57fe5b815260200186815250607660008a73ffffffffffffffffffffffffffffffffffffffff1673ffffffffffffffffffffffffffffffffffffffff168152602001908152602001600020600082015181600001556020820151816001015560408201518160020160006101000a81548173ffffffffffffffffffffffffffffffffffffffff021916908373ffffffffffffffffffffffffffffffffffffffff160217905550606082015181600301556080820151816004015560a0820151816005015560c08201518160060160006101000a81548160ff0219169083600481111561883457fe5b021790555060e082015181600701908051906020019061885592919061f207565b509050506188857f97cd7f30a09b43cd7d7a9f14aee34c151599c75b5144e6d674cb460f5446801160010261497a565b6188b17fffce348fe537e0cd9e0b52731bef05907ec42731a536db750a3c4f13c7e3b47260010261497a565b60a060405190810160405280606e600201548152602001606a6002015481526020018973ffffffffffffffffffffffffffffffffffffffff1681526020018781526020018881525060776000838152602001908152602001600020600082015181600001556020820151816001015560408201518160020160006101000a81548173ffffffffffffffffffffffffffffffffffffffff021916908373ffffffffffffffffffffffffffffffffffffffff16021790555060608201518160030155608082015181600401559050506189aa7fdb06ad4b8d8a2c29c57272e7083b68d2a85839309e07e256c76b304dea8a290760010261497a565b6189d67f226a159d817af4cb8d5037d5500dc8941f5825535dc69bcd5223303a2c4627c060010261497a565b60016078866040518082805190602001908083835b602083101515618a1057805182526020820191506020810190506020830392506189eb565b6001836020036101000a038019825116818451168082178552505050505050905001915050908152602001604051809103902060006101000a81548160ff021916908315150217905550618a867f39f16de9bebcb6aa77e1655e284a5b56ac70a2fcee02d102fd7f1edd63b7c70860010261497a565b618ab27f5e764c4e90e7ed8761088ee9d398f4ea3c6625b44e345ffcdc2d294c29b15eaa60010261497a565b618ac682606a61d09790919063ffffffff16565b618af27fadd59be1989bbc100ed9d826c4fb988b57613ef4a2cfcf4d6866da76fadb438160010261497a565b618b1e7f97f860c0d84a24afae27959165d108e05ce63a833dfaab91558b0840a03689c260010261497a565b618b3281606e61d09790919063ffffffff16565b618b5e7fdc23ffba0b8755c6d937af1ab11038c9c4a0fb577c7fdd698a90779864ffa26460010261497a565b618b8a7fc8b09d5f08318382233330a17c6e8f45168ffb1c2ec23b8d892a7949cf706ef860010261497a565b60698890806001815401808255809150509060018203906000526020600020016000909192909190916101000a81548173ffffffffffffffffffffffffffffffffffffffff021916908373ffffffffffffffffffffffffffffffffffffffff16021790555050618c1c7ffbd63849cd7cdbabcaf8c5c58488d84a00e9d9ce6a392a18547fc854301f1a6c60010261497a565b618c487fec86d0b9e3adb27e547bfe6982a49162382f32d9e0a321f344a5cd9e58a47b8760010261497a565b86607360008282540192505081905550618c847f407cf8a87c8b060d5069571ffb92713debcd25c6fff93e020e7cce034cc4609060010261497a565b618cb07f890a96b98cc050681de7722af516aa2ed7b59f86d1b4523d26e5dfd288f6840d60010261497a565b86607460008282540192505081905550618cec7ff26286e08f13ffacf5d0b8945f5ad8ee66623b92e91e9b9e6e2ae2685174bf2d60010261497a565b618d187f7bb9c928c3ead4140e18eeda64293a79758d0c6862d6d2bb7fbb9163369bca9e60010261497a565b8773ffffffffffffffffffffffffffffffffffffffff16827fae420988b408fa1c16c342c73f56ece9307da09db1ac6b36fc8d9ff61acaa9a260405160405180910390a3618d887ff6789f38822f0f7709e73fe18d4d4a826de151b932f5e3121a7a2526895b9a9e60010261497a565b618db47f9a31c02245f9b13d91f0a10f92916673be02a3e9f06985c3d3060627f1e7b51660010261497a565b8773ffffffffffffffffffffffffffffffffffffffff16817f2e2791fe9306933f4d6468aab16a0195b3ab2b342887b2e1be4aa35f56832297896040518082815260200191505060405180910390a3618e2f7f0dbb3f1c1696d9e69fee9d2bfab3db72a558cb6b5bd131112970592f1124772c60010261497a565b618e5b7f5123be82fcef626c66b2d27c4912c3197183b004d83422a5bdf859b93b1ee81a60010261497a565b818193509350505094509492505050565b6000618e9a7faaf351134d2239ae83e11d26c9067378253c609eb570f8ae74c28ed36c050dbc600102615b7e565b618ec67f6c875126be1726ab2fc657648964c34d167c9eea09e982826bf5fe2b9ca2d324600102615b7e565b618ef27f62099aa8d5be0c25cfa94c8b816435976ac44df70e57c0cd61c9aa5a6e8ea507600102615b7e565b618f1e7f453557595d5569438781ff2bffda3521e47a9e00825bc9def362d351cf3e1c74600102615b7e565b618f2e618f296164e3565b6124fb565b1515618fa2576040517f08c379a00000000000000000000000000000000000000000000000000000000081526004018080602001828103825260188152602001807f5265737472696374656420746f204f70657261746f72732e000000000000000081525060200191505060405180910390fd5b618fce7f36164c6dee9768d45bd325d105734bbcb52f53401478cd02c4ecad63c18b8e68600102615b7e565b618ffa7fc2ac55851c10e49d80d29047d52eddd577a7571d2b2f4dad9e5fcaa5c07a9bb2600102615b7e565b6190267f43a6edab168f6163758215350d38ecba2318dc3dfe37f21554317bc9fde29c636001026124f8565b6190527f1c936b58a780d6df8d6a36740e9567a53ef3006cd36cc151c47b660b9dec57696001026124f8565b61907e7f8b0fb230919a0097f501a69a260dc5174fa7a8fe3cdc0b0132d393f7d63f610e6001026124f8565b60006077600084815260200190815260200160002090506190c17fe840861fbc2f535c5b7cc529c24d08ec62f6c96e1fa479ba6e3b0be1ec59e4cf6001026124f8565b6190ed7fb3d658da1354ab726d481db487cfbb93449a1e4a1ac798753b6dc10dbf7f2c826001026124f8565b6191197fb295d8042ea636432b0d6b8fae098d9e074905ab5e0ffb12bdf403f66f0985136001026124f8565b600081600301541115156191bb576040517f08c379a00000000000000000000000000000000000000000000000000000000081526004018080602001828103825260318152602001807f476c7577615072697a654c696e6b65644163636f756e743a205468652064657081526020017f6f736974206973206e6f7420666f756e6400000000000000000000000000000081525060400191505060405180910390fd5b6191e77f37e7a2243cb9b60fae59f298ac5e410b9ee3da01b60e269df0d473f1ade8afee6001026124f8565b6192137fc6480e821c688e22d3e82c2b7b940c0be7c61e0e315527b0e86e1601ca34c8ea6001026124f8565b61923f7ff47c8889674a7e52abd5b06ec4f424727cbd8fd9929afc2a2af32a02cd648aef6001026124f8565b6192838160020160009054906101000a900473ffffffffffffffffffffffffffffffffffffffff168260030154836004015461927e85600401546172b1565b61d1bd565b506192b07ff04088cbabb8d585b26f68b6092b512dca2cb2c5493f12ed2f9fab549554adc86001026124f8565b6192dc7f2890737e77a3cc17df7a02c65a270a3f309255caef5f82ee5dab772d9a1790c86001026124f8565b6001915050919050565b6000806000806193187f3155d3f0fbcdb604e7ed1c06c1a6985d70c5b46a107c68f130b32bf58b18d40a600102611ab8565b6193447f40a8e73bbcb01d47b5671c52a9b29a286fe71eab24c4e624650536ff64513458600102611ab8565b6193707f38ff2d211281870e6fb6c4b4f1680b0a20528644ce5b213aae44cdff98eee966600102611ab8565b6000607c600087815260200190815260200160002090506193b37f67054dac490c85ee27cb348f7947c8206bd638d1118776530f41b8124abd49d7600102611ab8565b6193df7f6c9c951c9424fc2ae46c3da0a2da7810a85785eb78ddcce261b4a62598bfce8d600102611ab8565b6193ec816000015461a07c565b80955081965050506194207f2d3b99769cfbf74e4b559baead6ec327f44984377c96a4a7c735877e1751bf30600102611ab8565b61944c7f752b614dcd43b64a7299e0f86075c6d21cedbd89eba1631abf2743b7b946af47600102611ab8565b8060010154925061947f7fbaa6dad4bf9fc1b0239fa23cbdfb6c0e927c3523ee2275d7b861051d256dfc83600102611ab8565b6194ab7fea25679998979202b0b4b107f89054f2794bb3bdd9a1c4d768a97a844758a780600102611ab8565b80600201549150509193509193565b6000803090506000813b9050600081149250505090565b600060019054906101000a900460ff16806194f057506194ef6194ba565b5b8061950757506000809054906101000a900460ff16155b15156195a1576040517f08c379a000000000000000000000000000000000000000000000000000000000815260040180806020018281038252602e8152602001807f436f6e747261637420696e7374616e63652068617320616c726561647920626581526020017f656e20696e697469616c697a656400000000000000000000000000000000000081525060400191505060405180910390fd5b60008060019054906101000a900460ff1615905080156195f1576001600060016101000a81548160ff02191690831515021790555060016000806101000a81548160ff0219169083151502179055505b61961d7f66c7989d461c7892192c9d43ba8e5c17cf7cdb6479a45459c88b67afa2c3bf15600102615b7e565b6196497fbc1ce8df131d361404ea3515090ceb64893332f100e2a78b56e25ac01e598386600102615b7e565b6196757fb40052489e624be3584cada070d1288d3b59af32bcb85d79069b199ae0c8ef86600102615b7e565b6196b860405180807f4f50455241544f5200000000000000000000000000000000000000000000000081525060080190506040518091039020600060010261d261565b6196e47f93b13d67ca93e2d6d0e85250e2f37af0ea71414315423037e0f7e98439861d02600102615b7e565b6197107ff7dbf51cbcdfc272109df29ce8ee589e577d32bca64f317f28ffa27f8e239509600102615b7e565b61971e60006001028361d304565b61974a7fb9c4645ec4363ca07ddaefab6c56e3b97595d05b0f9b7b78604b442092cd001b600102615b7e565b6197767f12e3f6e826708ec13cb8e33d9dfa2eedf412e4d21685208575c9080bbdcdf474600102615b7e565b6197b560405180807f4f50455241544f52000000000000000000000000000000000000000000000000815250600801905060405180910390208361d304565b80156197d65760008060016101000a81548160ff0219169083151502179055505b5050565b600060019054906101000a900460ff16806197f957506197f86194ba565b5b8061981057506000809054906101000a900460ff16155b15156198aa576040517f08c379a000000000000000000000000000000000000000000000000000000000815260040180806020018281038252602e8152602001807f436f6e747261637420696e7374616e63652068617320616c726561647920626581526020017f656e20696e697469616c697a656400000000000000000000000000000000000081525060400191505060405180910390fd5b60008060019054906101000a900460ff1615905080156198fa576001600060016101000a81548160ff02191690831515021790555060016000806101000a81548160ff0219169083151502179055505b6199267fafd7098ad09f2210cd7a5ae85e81f0bd54af277d7be2bba45f0466aefba833b360010261497a565b6199527f0e3ec2e408e459836d63daab9ac577d2058a0767bc7baf8cd396fad52443e3b060010261497a565b61997e7f37387acd809d352641b7569dfef82f701acfd5f0d72a16ba1141107c83490eb960010261497a565b85607560006101000a81548173ffffffffffffffffffffffffffffffffffffffff021916908373ffffffffffffffffffffffffffffffffffffffff1602179055506199eb7ff68b4c19b4501e8a26375f56e966ffb7df406897060027268132d0e0b44afcf960010261497a565b619a177fed2d60428ae4063c172f0be69d04d8d995e8d42e9262a17f39b8521592077fdd60010261497a565b84607260006101000a81548163ffffffff021916908363ffffffff160217905550619a647fa51966f4ef61298486064feec37b41261c7cde60fbf2a31ed4fc6d6588af4e4260010261497a565b619a907fff205bcb141cdd325d7b666a79cbd9127daf9157a3cc276e1f5106bb351b8b0b60010261497a565b83607260046101000a81548163ffffffff021916908363ffffffff160217905550619add7f857e220351d8aa1b0197bfa0267a4faf808a6de710d463f2709778a3b185038760010261497a565b619b097fa1f109cc1be943e64b1a6e0848a9ac5778d51f2fd66393d5d48e25bf315f7c0560010261497a565b82606560006101000a81548167ffffffffffffffff021916908367ffffffffffffffff160217905550619b5e7f17dbf3d109c4f5d7ee89824e05bc22e46bd7f238a4dfc214449033acb896da3060010261497a565b619b8a7f37a00f29333ede6a62aec24c5b155256e73103af619aa0f5a06132d988720b0460010261497a565b81606681905550619bbd7f405881ad965423ccb1eb50f817a1127c7bab9d456ab47c5ca3de30284eaaa7a160010261497a565b619be97f5f3b59e3c916b2543b8fffcf8da92609dd25f2f134ed297e6a84cdfbccce8cb360010261497a565b60606040519081016040528060018152602001600181526020016000815250606a600082015181600101556020820151816002015560408201518160030155905050619c577fd49dfa9318ba827faf2d1e1e62ca914df5a65d57a8f0593975e869ed153645da60010261497a565b619c837fad03c7523c09ddff4260081fca66e652656eecf7eaa3631f3a87756d6a51850960010261497a565b60606040519081016040528060018152602001600181526020016000815250606e6000820151816001015560208201518160020155604082015181600301559050508015619ce65760008060016101000a81548160ff0219169083151502179055505b505050505050565b600060019054906101000a900460ff1680619d0d5750619d0c6194ba565b5b80619d2457506000809054906101000a900460ff16155b1515619dbe576040517f08c379a000000000000000000000000000000000000000000000000000000000815260040180806020018281038252602e8152602001807f436f6e747261637420696e7374616e63652068617320616c726561647920626581526020017f656e20696e697469616c697a656400000000000000000000000000000000000081525060400191505060405180910390fd5b60008060019054906101000a900460ff161590508015619e0e576001600060016101000a81548160ff02191690831515021790555060016000806101000a81548160ff0219169083151502179055505b619e3a7fe6a1d6b495bc012bee9149e848c1849ef375513e748396fed21fd64e834e036a600102611ab8565b619e667f55b13f8f1b1aa68754a7c043413c84a1b850af16f6172b3f291081105ccb3c83600102611ab8565b619e927fa9885a6b3e90a9a1714a653ded44880bc78d10ddf2e88d1a1bb8b35dfcad7027600102611ab8565b83607a60016101000a81548160ff021916908360ff160217905550619ed97fc7ae554b93ac90e901f133990f86ae8233d552ee1a5bec052f5703435a313a26600102611ab8565b619f057f63c1755e7549db88526cda16eb8580d55aa2cc44b10d0f803ba36f0b3bb58acf600102611ab8565b82607a60026101000a81548160ff021916908360ff160217905550619f4c7f2017fc10d7dc299cfc816e02f729aee770380b9468e264d122778cf99ceef0a3600102611ab8565b619f787f159087414106394e32055ef33ac14134ef0c11ae6e385c9c0a8396c2b5475adc600102611ab8565b81607a60036101000a8154816fffffffffffffffffffffffffffffffff02191690836fffffffffffffffffffffffffffffffff160217905550619fdd7fd3c6c27b56653c691642f8f2003a6939ff6266835992a532b420dc4a769565b8600102611ab8565b61a0097f7976e804e76d0d9efc3b78fe72fb9e4a8578504d2975157c3250fb603e3ba381600102611ab8565b602060405190810160405280600166ffffffffffffff16815250607960008201518160000160006101000a81548166ffffffffffffff021916908366ffffffffffffff160217905550905050801561a0765760008060016101000a81548160ff0219169083151502179055505b50505050565b60008061a0ab7fee6f04d8903c6b975227c7950dc7e18945464e5271c84c489f529cf63f2a9b2b600102611ab8565b61a0d77f5b13ecfe45c00bb754ec25a2fd7654dd81c9999f91657f2e34069d2199ecac4a600102611ab8565b61a1037f1906b4099c4ff18ae8645fecee6f5c2d21335fb4a8562eee149855221076c782600102611ab8565b82905061a1327f2a6b08f6b3d399cff480c7a89510f70c1886f224a158c7576c1240c9ac2e18a7600102611ab8565b61a15e7f0ea3092967f864d98a57f68060467397dcc8e36dffa08c8112d09734ca877807600102611ab8565b60a083908060020a82049150509150915091565b600061a1a07f1e4c5363833c25365820aa63a423b8fe47c99d9a4612ad17829d7daf3df88765600102611ab8565b61a1cc7f648787b6c7dff445e5877e30c431ead9dd6aa76466c6f6011f5f0c4c2cdac2b8600102611ab8565b61a1f87fa2403f20be91a7804397e7ab7bc81e5fc9bc0618a4fcced4ff51fa86c96e9794600102611ab8565b61a2247f01f1db6c9eaeeed975bc08895d49484d16b7fafc9293c2abec87618c7b0847b6600102611ab8565b6000608260008581526020019081526020016000205414151561a2d5576040517f08c379a00000000000000000000000000000000000000000000000000000000081526004018080602001828103825260268152602001807f476c7577615072697a65447261773a207468652064726177206861732062656581526020017f6e206d616465000000000000000000000000000000000000000000000000000081525060400191505060405180910390fd5b61a3017fb552db9bdb93afb63a00691fb07e94c940edec38a20f346152b9611a90c325e1600102611ab8565b61a32d7f9ae4b6334e7aec4e0e41059fc0ac9236c05d76dc68dbd077b1c40d29966471b3600102611ab8565b61a3597fe4e823fd9ceebedc9d0b8b348c80a7414b6f0e165a02fabd9cd5a8e36d488199600102611ab8565b60008061a36585612933565b9150915061a3957fe252ba52da0f2b20c29f245fb298abc21c8250b67427122e5966ad8a5dbe66fc600102611ab8565b61a3c17fa8ed851e73668854f81601270ea988891ee70db828dc8a984e387c9e57d62340600102611ab8565b61a3cc82828661d396565b608260008781526020019081526020016000208190555061a40f7f95ac37976cf8eea6b2e66f76c444faef359f36c0f00f6451f8ee99c798a037af600102611ab8565b61a43b7f851ad9bd447ea81c76294dcb4633912eacfdcca67053064cc12a711b1de8654c600102611ab8565b60826000868152602001908152602001600020549250505092915050565b600061a4877fc72a0c558a46349161888d2b06fb31e1b14b10bc5f3a8a56cf573c58890fce4960010261497a565b61a4b37f131210454d8d5d25dbea0d2156a9399cd9f367e741b110e1720aad6b95ce11b160010261497a565b61a4df7f0afb8d2a042420390505ba73febdcad46b51fbc5787f299b0a46383a3b57742160010261497a565b61a50b7f9c8850ecad6c2fa7acfe211222b48237be0d9bcbad3e60452d68d3be6469c68060010261497a565b60665483607454011115151561a5af576040517f08c379a00000000000000000000000000000000000000000000000000000000081526004018080602001828103825260268152602001807f476c757761536176696e674163636f756e743a2042756467657420697320657881526020017f636565646564000000000000000000000000000000000000000000000000000081525060400191505060405180910390fd5b61a5db7f275b31574706d124196f93de6704fb1603f6b53479a24265557836230159acab60010261497a565b61a6077f4a4b478c226922878711c7d3d5dbba490fcbb641caca51c4fbf828b8c180916960010261497a565b61a6337f12709aa023c7c1437d0f428fb874dd62cfefa6a94160a9856ea7be02ead17d7e60010261497a565b6000607660008673ffffffffffffffffffffffffffffffffffffffff1673ffffffffffffffffffffffffffffffffffffffff168152602001908152602001600020905061a6a27f78d63f3dc0fcd461746a4538a7215ae972ade77c664b0c370d1c0e5b3e89e9ee60010261497a565b61a6ce7f7eef7889d9f5095cb7e9a72d488afd4982f8a107a26a57d4132fc1138564e9a260010261497a565b61a6fa7f137d930a46031d795d8f9aa019aecef5a4cf0f4848fefcb283021777f36112e560010261497a565b6000816003015411151561a79c576040517f08c379a00000000000000000000000000000000000000000000000000000000081526004018080602001828103825260258152602001807f476c757761536176696e674163636f756e743a204163636f756e74206e6f742081526020017f666f756e6400000000000000000000000000000000000000000000000000000081525060400191505060405180910390fd5b61a7c87f71fe26de4629c37a91f07e0109231e3f5d5f40c733a94ba80f216582feb5f57f60010261497a565b61a7f47f2be1e9e413be5f87fb4bcd889371137221512ffc62a817e7a77831f7c5e1ef3360010261497a565b61a8207f039a6ecff32526bdd163d41cb48a1505d8dc141b5e20faaceee4620ecf87ae0160010261497a565b83816004016000828254019250508190555061a85e7fbbe5dde346889c369e578f8cdc186d6f451c6f33b7b578637b6d0f06c789206860010261497a565b61a88a7f66aba0f96d1f6792b608ae8d44fd94aa6faa338f3af52ab1d2e642911c3b3ae360010261497a565b8360736000828254019250508190555061a8c67f9fc883e07a34a6af8ee1d8f10a216208ce6670a8e9c002d2ec0cb85ec87cfc8060010261497a565b61a8f27f8d7b241c685f0f33634fa18a1c4d71dcc2cee767c48cc12540bdb18e9b25fa8060010261497a565b8360746000828254019250508190555061a92e7f1669a514ac2f181652dcef1cb8fca3764afbcfbb250d37d2ad92a5ab5db0836260010261497a565b61a95a7f3aee7774f03b22ab36fa3dd1cc41b17b2017c3bb5f2c3b82dc195c9dd7a3175960010261497a565b600073__$8ad4cadfbfab443c6ed09b45690dcdfb0d$__63fd96809e836000015487308a6040518563ffffffff167c0100000000000000000000000000000000000000000000000000000000028152600401808581526020018481526020018373ffffffffffffffffffffffffffffffffffffffff1673ffffffffffffffffffffffffffffffffffffffff1681526020018273ffffffffffffffffffffffffffffffffffffffff1673ffffffffffffffffffffffffffffffffffffffff16815260200194505050505060206040518083038186803b15801561aa3b57600080fd5b505af415801561aa4f573d6000803e3d6000fd5b505050506040513d602081101561aa6557600080fd5b8101908080519060200190929190505050905061aaa47f87a4f3ad8a6c6df74e5096e6ae54b083ea4b142c7efc42d6e46556132a9ecaf560010261497a565b61aad07fe6fa6493778d9eb8ac420addc23646359bb9ded8df6dcb8dc545c8ea8f010a2760010261497a565b60a060405190810160405280606e600201548152602001836000015481526020018773ffffffffffffffffffffffffffffffffffffffff1681526020018581526020018681525060776000838152602001908152602001600020600082015181600001556020820151816001015560408201518160020160006101000a81548173ffffffffffffffffffffffffffffffffffffffff021916908373ffffffffffffffffffffffffffffffffffffffff160217905550606082015181600301556080820151816004015590505061abc87f26e1bab5fcfcdb48c3cf3321e63d31a3d0cc71de6dd1d2749d4a5104f097896360010261497a565b61abf47f549678919587eecbb3738c39ce427a024dca603d97dc926e6dae1f5c009a31d160010261497a565b61ac0881606e61d09790919063ffffffff16565b61ac347f5d96cc8aefe6b902e1213d2fdbe6ce704d6f8f3afaa08ef5a85b5d71b7d3292360010261497a565b61ac607f29e10f06f32355d2e8b458d3934535f2dc9995b7a5744376568fabc1d34b795360010261497a565b8573ffffffffffffffffffffffffffffffffffffffff16817f2e2791fe9306933f4d6468aab16a0195b3ab2b342887b2e1be4aa35f56832297876040518082815260200191505060405180910390a361acdb7ffe68b720a9443a5a2c983292cc9bbfe8f430da69cca5eb30ab5e4f1014ee97b160010261497a565b61ad077f6d29a18058793c267023de1e500297a1b49839905f46fd7558628aa161970a6c60010261497a565b80925050509392505050565b600061ad417f8e5f5ca891d9b6bcaff16283e9830710c818cea7371a1f9bae8e914c0246cfc260010261497a565b61ad6d7f6da6846f465b43ddab256cc640e6369b76ad635e7879878dc95505bcb595b45260010261497a565b61ad997feec062d9b9710d0d119fdcd231962bd726210ffe0eeb4727b085520f3aca274060010261497a565b6000607660008573ffffffffffffffffffffffffffffffffffffffff1673ffffffffffffffffffffffffffffffffffffffff168152602001908152602001600020905061ae087f41eee1c77d949007184c46444bc026aebd5dd923f0afcf6514b8d64de14bcb7460010261497a565b61ae347fc1054bf4c62b8334811e3e63ec2e99f18396684dd6e5256ec1ff73276070659c60010261497a565b61ae607fc82241adfb74a23d91a327ab0893a9f1287553d6616b14dd2c828a2c2adfe9ca60010261497a565b8281600401541015151561af02576040517f08c379a000000000000000000000000000000000000000000000000000000000815260040180806020018281038252603c8152602001807f476c757761536176696e674163636f756e743a205769746864726177616c206181526020017f6d6f756e7420697320686967686572207468616e206465706f7369740000000081525060400191505060405180910390fd5b61af2e7f30fbc8688988fc240a9fc1c2a1e3c2a43c849c45e86515212e6a5d9bb26a572960010261497a565b61af5a7f4e49c2ccbabec259aec2ec8da81945dad6b263a6ece7af5dd40e7a6435a2d5cc60010261497a565b61af867ff020a85bf3c444398da3b5e692275b36c2f73df41ee8abb71eb2aa6763e477eb60010261497a565b82816004016000828254039250508190555061afc47f295d7cc9613a35bfc18cd0c00a28b299814364a6d1e975c6d52c9215e6b0dce160010261497a565b61aff07faf646100ef7cea788bc31925539542be76919e1c20b75bee53adda3278c6ab9b60010261497a565b8260736000828254039250508190555061b02c7f4809e4c5bbee64d565bce34b7be27581d0c606f40716a84a2a4d90f079e2478860010261497a565b61b0587f8b177a8c52978e3be2e0c1e866cf5a08705f204fe91c7c0c4ed8cda8f785994a60010261497a565b607560009054906101000a900473ffffffffffffffffffffffffffffffffffffffff1673ffffffffffffffffffffffffffffffffffffffff1663a9059cbb85856040518363ffffffff167c0100000000000000000000000000000000000000000000000000000000028152600401808373ffffffffffffffffffffffffffffffffffffffff1673ffffffffffffffffffffffffffffffffffffffff16815260200182815260200192505050602060405180830381600087803b15801561b11d57600080fd5b505af115801561b131573d6000803e3d6000fd5b505050506040513d602081101561b14757600080fd5b81019080805190602001909291905050505061b1857fe4a5bd5803a029419c876c375b9e5f824f46c7fce5e01c37a0d004a6547762b660010261497a565b61b1b17fec4ae7188cbd48a81c3ef973adfc3d60726642d39b3f613816c1dbc8438b92fd60010261497a565b8373ffffffffffffffffffffffffffffffffffffffff167f884edad9ce6fa2440d8a54cc123490eb96d2768479d49ff9c7366125a9424364846040518082815260200191505060405180910390a261b22b7f7d806b11ed7aa8a8004d5bf6069d3c493eb9e5fc0d41b953fcd9ccfe7996a72b60010261497a565b61b2577f667bfe2cd3599f95f95acc9b487b7c6bf79d4be81e953aee2a3ef3af81d994c460010261497a565b806004015491505092915050565b600061b2937f0c3c84103e404c1b7f6705f0a11716125b0224172505cf4a2d0220b8380c498b600102611ab8565b61b2bf7fc1f7c2bc9d20c10a46c0a69b7cc3fca16df0bcc2b0c134a565dd212f0a51de19600102611ab8565b61b2eb7f61598326d5dc820024203b0435f8334bea3a09162570c025950f889074dd3148600102611ab8565b61b2f361f287565b61b2fc8361d53e565b905061b32a7f1f70bd4cac199a1a80d7f4c6aa9dc4ee340d4363387d17599d0b0b27a260b181600102611ab8565b61b3567ff5a4c0a6d4a3f9492098267d5e32872c51c79f88fd16476c7295a97c55520758600102611ab8565b60006002905061b3887f71b20f107e51adb64d252d185ee8589d53ecca82cf606677146ca03e2cfb996f600102611ab8565b61b3b47f30509abadea3ecbfece548aca0a5db4e1bc9eb408990a38aa30459bda86888bf600102611ab8565b607a60019054906101000a900460ff1660ff16826060015160ff16108061b4185750607a60019054906101000a900460ff1660ff16826060015160ff1614801561b4175750607a60029054906101000a900460ff1660ff16826080015160ff1611155b5b1561b4aa5761b4497f13e32c69eefc85a4883862d1a3d2318caeafa040750f19364160931e0456ad89600102611ab8565b61b4757f9dc9f4d4a314cf286c0e776a7a57a05e751e6ec80021ac7d4d064ea41df30bdd600102611ab8565b61b4a17f9e707761d3604260ef6f47581b90d70ce40a92cdbef03b831b3dd9922bc74b90600102611ab8565b6001905061b4d7565b61b4d67fc927a18d37dc75cf332c7685e5080ca9ac5a10ac851837688c2d7096876ff895600102611ab8565b5b61b5037fbb87e89a28a7709f2ab3b65896323c89a208d86ece2f4dec9cc4c1f047a9c49c600102611ab8565b61b52f7f9d648b024e5e21ebcd30c48ee4a741dae2a0ff26bb7b3c40ea3763758bbc0262600102611ab8565b600073__$05084330c9bf728fdd5577c5afe72a471f$__6389807474846020015185600001516040518363ffffffff167c0100000000000000000000000000000000000000000000000000000000028152600401808360ff1660ff1681526020018261ffff1681526020019250505060206040518083038186803b15801561b5b657600080fd5b505af415801561b5ca573d6000803e3d6000fd5b505050506040513d602081101561b5e057600080fd5b8101908080519060200190929190505050905061b61f7fea35e25c4e40db311fadfa03ce797daf24cafaed701ef9945af48107d0fd330d600102611ab8565b61b64b7f4839e995c9a1c145235ebd664f167575798bda02639b8af21cd3c9f826cc6d25600102611ab8565b8060ff168360400151830160ff16111561b9185761b68b7fc8e0e414452696100803d052a534cec965c83cd24910cd3aa98530910b9c4066600102611ab8565b61b6b77f189ab8eaa74c2615c2857ac5bb53a506349ed7538b5d79470312a75f13f5074e600102611ab8565b61b6e37f297c5cf319c225c9574e70354f6700d43fb78d2d74a05d3a7b25d0b5cd16a7e0600102611ab8565b600c836020015160ff1614151561b7965761b7207f597e009babec2198b8fb6e057ce187221d0fce8d2df989ee6af50601b0794d46600102611ab8565b61b74c7f6961a5cd3fbf3f221c23b06fce2f8c03a5a0699e444c3bb1d6e30ead8031b8d2600102611ab8565b61b7787f8ccc878bf9d982269fa37694a4ff183c7446c1e8265f9ff2511a714e59f34d8a600102611ab8565b6001836020018181510191509060ff16908160ff168152505061b8a1565b61b7c27fb63b2007fab96a7f8f7bcd67a8e6209f3a8efd6d255d25d3c2d265a489d8c616600102611ab8565b61b7ee7f299e8cb5f707bdf46eb37fc86b1fe66ca486f6beb2e6a39d29526ac811687954600102611ab8565b61b81a7f4e3526a5ec0d2e2ef17b28b3f7760461efb7c77b5e3dd33f20cabd152109e619600102611ab8565b6001836000018181510191509061ffff16908161ffff168152505061b8617fbda5cdd89e443f8c167f2074cb4688f5d8a3f2b7d9e859c46347d960754330db600102611ab8565b61b88d7f345c2c9cdd53c54cbe3edfc685d106face6af589b5ab00043fe3c1356e0d821c600102611ab8565b6001836020019060ff16908160ff16815250505b61b8cd7f6886b35900fd1cf66053283b81765768704b0f280e386ed95023149d8c32b763600102611ab8565b61b8f97fc82257c75446b8c65f5bcc626f18f0939ab33ff65a3c14da2a5623e5a053e9f3600102611ab8565b808360400151830103836040019060ff16908160ff168152505061b9b5565b61b9447f6fa94063b270e56af575007f5ca76d745f51fac3ad447ab1666fcdeab9604ed9600102611ab8565b61b9707ff7dafe165a358cf339b6e6d4ab621ba1d958c3447939e7c0c2a125c0a1f2ce36600102611ab8565b61b99c7ffb63bfece7fe46ba1648904756652835c0b7c283c004b3961e56bc9397ae768e600102611ab8565b82604001518201836040019060ff16908160ff16815250505b61b9e17f37addd99122e5219ab0853ea21d2bb16772d9e2676a0e57a5160a33acf3ddf2a600102611ab8565b61ba0d7fa64edbafb6923bfbeea1b79e0e0495e0d8ec12b1d59eea08c98663de41db370e600102611ab8565b603b607a60029054906101000a900460ff1660ff16141561bb405761ba547fa3571bc3c95b7ad0e1d25788496010aa99a5aa662f9009ff66287f75c43c0875600102611ab8565b61ba807ffa0cc2e526f71ec9e643cf9b66913b3b3d3db9be295e0473fb8a5581bd569273600102611ab8565b61baac7f6b212456cf3c223f60a3b9baa512854625eb50105257f039da3ad0a1c75517e1600102611ab8565b6001607a60019054906101000a900460ff1601836060019060ff16908160ff168152505061bafc7f1dc42d98ee31a0cca0fbc3396ec55aa52ba0ced40848fc660c278909f19f75ad600102611ab8565b61bb287f6b773ee8d48c2106f48f9133d52489f779cffa6376fe5390dc17399dda9f84bf600102611ab8565b6000836080019060ff16908160ff168152505061bc62565b61bb6c7f962d3342e5d109a8ef3fea38bc40c408b4160e40ebf4d076ef5b6e30f2be0cac600102611ab8565b61bb987f69c65038951286b56563e73c06fc646d6a81ca63740333718b0b93568e3eaee8600102611ab8565b61bbc47f4401730427e0bfb946676d7db89eb51003b36e3cbfe4a86f912b9468064d3b5d600102611ab8565b607a60019054906101000a900460ff16836060019060ff16908160ff168152505061bc117f402c6890a1d6b644eb43eb24b3fbfa2b79dafc1655cab205fff6a54fe109c226600102611ab8565b61bc3d7f4b59407c6e37dfc49370a0600e64a796da6ef9935da4843b749b693d284bc1dc600102611ab8565b6001607a60029054906101000a900460ff1601836080019060ff16908160ff16815250505b61bc8e7f6dbaac72e5931ffc0521e18f413f0560174ef699bf81d9669e6f9eab5e70752d600102611ab8565b61bcba7f8a597bfa422359afb7df4b20be57f0f3a7472a72657ffd0543122dfb91171371600102611ab8565b60008360a0019060ff16908160ff168152505061bcf97fb15d6a0ce916fda79dc96183431d470a90e4c6e1b85b78083a6c4cfa8e8f34ef600102611ab8565b61bd257fece50ea5963433263fa32d9703f6573c3f912ad680c4dfe29f992b69ad42b59b600102611ab8565b73__$05084330c9bf728fdd5577c5afe72a471f$__630a37f14b846000015185602001518660400151876060015188608001518960a001516040518763ffffffff167c0100000000000000000000000000000000000000000000000000000000028152600401808761ffff1661ffff1681526020018660ff1660ff1681526020018560ff1660ff1681526020018460ff1660ff1681526020018360ff1660ff1681526020018260ff1660ff168152602001965050505050505060206040518083038186803b15801561bdf657600080fd5b505af415801561be0a573d6000803e3d6000fd5b505050506040513d602081101561be2057600080fd5b81019080805190602001909291905050509350505050919050565b600061be697fb366b138fa3b2adb812947f61c94100618afa37db197508b8bc40683754cb896600102611ab8565b61be957f2c41579efb91bede4cde39628a81b8e32f557a06b6a2e1e7e121d84b69355053600102611ab8565b61bec17f179cb88c29a4b8ef41997ec0d7013f70bf371f9254f4fc8351fc8d98c9695c7d600102611ab8565b6000607f600086815260200190815260200160002060008773ffffffffffffffffffffffffffffffffffffffff1673ffffffffffffffffffffffffffffffffffffffff16815260200190815260200160002080549050111561c9f55761bf497f6c7fc01b48bd284ce0b708c4bb14c0d3ef0955adf8f22f727b72044b96d59440600102611ab8565b61bf757f6a37003f399b3b8ef4dc441edc721a30f889c4fb9c4cbbb411ae1d88df987215600102611ab8565b61bfa17f45641ea4c00559d21e8cdd2ed7525771e18a1aeacc30943b2506118eae0ab954600102611ab8565b600061bfcf7f3e03a58b2484027ab7b8b05310478a420c2720e93ea7d5c30abfa77b1113b837600102611ab8565b61bffb7f5610aad962748451d4f25aded5abd4545aefbdf10ff310b6d2bf9eb0121dfec0600102611ab8565b60008090505b607f600087815260200190815260200160002060008873ffffffffffffffffffffffffffffffffffffffff1673ffffffffffffffffffffffffffffffffffffffff1681526020019081526020016000208054905081101561c63a5761c0887f0a21e934f356f99579396bfb18e15bdd9ee136e2bdb0c1588f7ac2d546fe3400600102611ab8565b61c0b47fc6267d462683b71d4858e3ab60fa8ace6c774ae5e50c1d96e7288d2e25548449600102611ab8565b607c6000607f600089815260200190815260200160002060008a73ffffffffffffffffffffffffffffffffffffffff1673ffffffffffffffffffffffffffffffffffffffff1681526020019081526020016000208381548110151561c11557fe5b9060005260206000209060029182820401919006600c029054906101000a90046bffffffffffffffffffffffff166bffffffffffffffffffffffff16815260200190815260200160002060010154607c6000607f60008a815260200190815260200160002060008b73ffffffffffffffffffffffffffffffffffffffff1673ffffffffffffffffffffffffffffffffffffffff1681526020019081526020016000208481548110151561c1c457fe5b9060005260206000209060029182820401919006600c029054906101000a90046bffffffffffffffffffffffff166bffffffffffffffffffffffff1681526020019081526020016000206002015403915061c2417f9933d74d097aff5df0d107d697a6911d45cc5277246ed94c4d6d83e1050cf70d600102611ab8565b61c26d7f5475417452ad8c3e75fcd672ba0b0f3721d7d82c4c566c6d66b92c45d227dc54600102611ab8565b8184111561c4bc5761c2a17f5951fe4093bbbc465837b768a2390c8a9fbcb98c3b6805420845158ea62870cd600102611ab8565b61c2cd7f2c92c6449cfade96ebc3008b98864af7fe05e77faedb12b95eb18ca6d2390aed600102611ab8565b61c2f97fa24e08921b6c19c081a279f7fd80a189e7ddfdbc3dde71f091c006e1e40d5e89600102611ab8565b818403935061c32a7fb9706918c83c962b761f65db4348f28a1aaa5344e33ce0c8a8dbad711fe30307600102611ab8565b61c3567fb7dbeff4a59c271b7ce0e0f67340b40771e439922a468388c671ac42eb370d83600102611ab8565b607c6000607f600089815260200190815260200160002060008a73ffffffffffffffffffffffffffffffffffffffff1673ffffffffffffffffffffffffffffffffffffffff1681526020019081526020016000208381548110151561c3b757fe5b9060005260206000209060029182820401919006600c029054906101000a90046bffffffffffffffffffffffff166bffffffffffffffffffffffff16815260200190815260200160002060010154607c6000607f60008a815260200190815260200160002060008b73ffffffffffffffffffffffffffffffffffffffff1673ffffffffffffffffffffffffffffffffffffffff1681526020019081526020016000208481548110151561c46657fe5b9060005260206000209060029182820401919006600c029054906101000a90046bffffffffffffffffffffffff166bffffffffffffffffffffffff1681526020019081526020016000206002018190555061c62d565b61c4e87fb4180a0cc81b1ba340fab952368844081afdafd580cf128a21e27c3f5809c336600102611ab8565b61c5147fb2b98fae8a7bade14ba8d9eaa64606b9ab04a73ffad5ddf1f553ba02e96fb12a600102611ab8565b61c5407ff5153cdbe8366d96a58b2151ccacdc80510685a5e0f2f031a257580bf654f74a600102611ab8565b83607c6000607f60008a815260200190815260200160002060008b73ffffffffffffffffffffffffffffffffffffffff1673ffffffffffffffffffffffffffffffffffffffff1681526020019081526020016000208481548110151561c5a257fe5b9060005260206000209060029182820401919006600c029054906101000a90046bffffffffffffffffffffffff166bffffffffffffffffffffffff1681526020019081526020016000206002016000828254039250508190555061c6287fb415912d3fea91b5f4c17ee3a8ac7667da4901e870c5dfb509e141d8342dd6d3600102611ab8565b61c63a565b808060010191505061c001565b5061c6677fd3fafa6762968c1bc7df1988142b74a15252d3b157ba4c57dfa893d812e668c8600102611ab8565b61c6937f97367abec8482e9e3592b8ef912f0e5b6d9fbe32ef94d8edfa4adf37aad37efa600102611ab8565b6080600086815260200190815260200160002060008773ffffffffffffffffffffffffffffffffffffffff1673ffffffffffffffffffffffffffffffffffffffff1681526020019081526020016000205484111561c8935761c7177f5de32c9473ec55f83bf246d78f12fd508ebbac96154f5362de89998f6df41abf600102611ab8565b61c7437fab6fd99882dc99305c9e7aa3df4bc3415d6278b1209971241c7d679570c5932a600102611ab8565b61c76f7ff9c6b849998a785aa1b465d2b5bf81a3bc769b62f790010dd5be5685906f1664600102611ab8565b60006080600087815260200190815260200160002060008873ffffffffffffffffffffffffffffffffffffffff1673ffffffffffffffffffffffffffffffffffffffff1681526020019081526020016000208190555061c7f17f656925be81ad07f711fb2853f2d96882edd15b630070f5c55b9dfddd111def18600102611ab8565b61c81d7f3bd8fdbe6606aebfa1a5081203b96bad66837cb3a411f1c5e80eada525d9dcd7600102611ab8565b6080600086815260200190815260200160002060008773ffffffffffffffffffffffffffffffffffffffff1673ffffffffffffffffffffffffffffffffffffffff16815260200190815260200160002054608360008781526020019081526020016000206000828254039250508190555061c9ef565b61c8bf7fdb123ab0412f314d23ae0d9f90f89f2e10a6e41033d4eeb7606482be127dd0d8600102611ab8565b61c8eb7f9f5fe2723276cdcdef377295aec0c8c49e37e9e7bbb68690a4aa2dbebb6cafd7600102611ab8565b61c9177f3f5f81676e5f5ee30fcde939ff01b915edc3ea103aa9d270ffb09a2b7784a3be600102611ab8565b836080600087815260200190815260200160002060008873ffffffffffffffffffffffffffffffffffffffff1673ffffffffffffffffffffffffffffffffffffffff1681526020019081526020016000206000828254039250508190555061c9a17fc47483b50fffcdbc077fcfb6da84b9b011b79f95d813fbc6529d027f58dfa5d0600102611ab8565b61c9cd7fcbfc3d9075fed53ed752549af9f9c792cd822a108e157857ad73c097403e2499600102611ab8565b8360836000878152602001908152602001600020600082825403925050819055505b5061ca22565b61ca217f11957a4468cda2850e8275efbbcafec715df25669241cca53d605f7ca52bd238600102611ab8565b5b61ca4e7f6d94e0b2ed13a9c52db7bddd9bbd1c479a4ffd01ade8bded8f11991eee5b5465600102611ab8565b61ca7a7fdede6b286c1629a1780a72f861df93564d8c27f9a5decd928f33b7c1282c0e05600102611ab8565b60019050949350505050565b600061cab47ff852b790830032d89971e2c521d42063f93f9915f774b150a71f19bed01505fa60010261ccb8565b61cae07f02a432993c4332c426e42b943b3b019f4f8176664138a13b7aefd4766c87794260010261ccb8565b61cb0c7f4106100c6ddc9e9685bfafb2331061f66fe0bdf557d61e86d3a9e77f415df1c060010261ccb8565b61cb32836000018373ffffffffffffffffffffffffffffffffffffffff1660010261de77565b905092915050565b600061cb687f74042fd2ce01d2d4e5b83168db3daaa0ada16dcc55033ff01c774f8d3b09d26b60010261ccb8565b61cb947ff5b89a497746cc14694c9f1ed1aeaef6a21f81b1a91b334ac822cb679c327c5460010261ccb8565b61cbc07f3d2a328b4224524dd5bf276581f8c7e30b93161a3146a223de54a8178318570d60010261ccb8565b61cbe6836000018373ffffffffffffffffffffffffffffffffffffffff1660010261e128565b905092915050565b60008083118290151561cc9c576040517f08c379a00000000000000000000000000000000000000000000000000000000081526004018080602001828103825283818151815260200191508051906020019080838360005b8381101561cc6157808201518184015260208101905061cc46565b50505050905090810190601f16801561cc8e5780820380516001836020036101000a031916815260200191505b509250505060405180910390fd5b506000838581151561ccaa57fe5b049050809150509392505050565b50565b600061cce97fe7dbbe65769452c853cae620146590604b6b716ac01fb8b203f1ba9fc91fc22460010261ccb8565b61cd157f0210cac0db58119dced257e99daceaaac77667d292149865bf117b7ca9eb4bce60010261ccb8565b61cd417fbb32f6a0da519ded942950a6895a2c4b30863d395a47575812ea09df9c76aeef60010261ccb8565b61cd6d7f2d7ec9f89494f43c00f58c9ac42d6c4126f5ad30efc6a67b48204435b90bdbe160010261ccb8565b81836000018054905011151561ce11576040517f08c379a00000000000000000000000000000000000000000000000000000000081526004018080602001828103825260228152602001807f456e756d657261626c655365743a20696e646578206f7574206f6620626f756e81526020017f647300000000000000000000000000000000000000000000000000000000000081525060400191505060405180910390fd5b61ce3d7f808fe5bd45f46ab8ff1cb9aa9c9a30377ea23be0941c4795446d41d254aae5c460010261ccb8565b61ce697f556bfe46c39f16f279635b09a7f3e6cb0df504be781b0931db8a40bab702a79760010261ccb8565b61ce957f5852ae1c75c424755782c3fdffd26401e1354b9b177513f37690d594b1ebc8ac60010261ccb8565b826000018281548110151561cea657fe5b9060005260206000200154905092915050565b600061cee77f9c908650b18c4d06afe6e22d13e282f9f484d9b002a6121d345881d9d8d8309260010261ccb8565b61cf137fd1882d1c724fb038c1a118718cfe41c240fcbb742f29604cb573449c428371b760010261ccb8565b61cf3f7fc7f15540aa2b0ce236d481f7560d15ffafee2f2e30cac9beab7e15a266dfe9a760010261ccb8565b6000836001016000848152602001908152602001600020541415905092915050565b61cf8d7fb8febddd1220278487bb7dcb0daf7b78b7fba9088454a2d7f37c40747884b0cb60010261e639565b61cfb97f73d8330d87f869b8b199d393ae093ac68571cfafdb760e32af59f314d2a2fdba60010261e639565b80600001600081819054906101000a900466ffffffffffffff168092919060010191906101000a81548166ffffffffffffff021916908366ffffffffffffff1602179055505050565b600061d0307fd59aa80060ea20a1bee9535659b672619a59eb9abf365dafefcb942c2613c7f260010261ccb8565b61d05c7f510cdbe5cda3c6cfdb8e3b071d5f7c35ea460dd72c7be1c916a1934f864dea1460010261ccb8565b61d0887f69556792cf99684702e25e6dffc56bf298f3be73f828931c796488097d672b3c60010261ccb8565b81600001805490509050919050565b61d0c37f8802c2e59f387b4c53a4ab996982fc37411153349ff8e02ff10fc302cd49c7de60010261e63c565b61d0ef7f9828b856885723da47125c444a9aeaa675ab0879f6d3357781bf031ca6a1e80960010261e63c565b61d11b7f4e72e32fa722c881c8899f3ed8cfd7735fa33af120c80aa4c5ec17dfad7aac1c60010261e63c565b80826000016000846002015481526020019081526020016000208190555061d1657fbdf6f2958d49981605a7b5c02ffba7f3349abfd1f9936129412c3530fe4d88cb60010261e63c565b816002016000815480929190600101919050555061d1a57f9ebf2a2d138a3c371ecf3ec2ea359fe7db62ff633a2d3e56388591dd95ed9f3a60010261e63c565b81600301600081548092919060010191905055505050565b600061d1eb7ff10d90047a04633f36e67fe16e2c916c5446ee5eb946f50eba90d92b09b20258600102611ab8565b61d2177fc94dad16fdf5e0f678371132eb140bd47cdb3b925e684c24eaaf282fa6460508600102611ab8565b61d2437fb64d30a2732f86a7fadb7a5ef2b2f4f78625b296d266813d7fd676605077cb40600102611ab8565b61d2578561d2508661b265565b8585617375565b9050949350505050565b61d28d7fd8479504df472c40b9d2d46578fc0bad271dba561f3c3bfae8432ee4398cd9a86001026131b5565b61d2b97f056ca1d611325f492ec9a258615105c0c61c1935da3efbb61fbb153378d318dd6001026131b5565b61d2e57fb300cb213a808a8d25947dc127c3188ce2125091b485b407bb84a476fe38d0dc6001026131b5565b8060336000848152602001908152602001600020600201819055505050565b61d3307fd93c5a94a5b1886c0bb5575c3cca63b6410bf5cc633908251d561210acc14eaa6001026131b5565b61d35c7f52b73aa8f50ab99b6810012a79aa4f25995f134e8c54dbcb5d80e568f5fdfbe76001026131b5565b61d3887f4de32a619436a15decb84a173b4469efaa235be2016b7657229d7bb4d915f1676001026131b5565b61d39282826169ec565b5050565b600061d3c47f039a8b299bcbe089210efb1b4a0d0e048d33c88b8efd452d6f6e1025a5c94740600102611ab8565b61d3f07f0b561b54004f278cce7a6cb4173ee6ab43db623c35fd055bb14dbff80fc019b4600102611ab8565b61d41c7ffa3f09a7e4593084651f29ea8461b3387030a4159e8a40eef148b8f6e3e09f38600102611ab8565b6000846001868603014285434042448a8c6040516020018088815260200187805190602001908083835b60208310151561d46b578051825260208201915060208101905060208303925061d446565b6001836020036101000a038019825116818451168082178552505050505050905001868152602001858152602001848152602001838152602001828152602001975050505050505050604051602081830303815290604052805190602001206001900481151561d4d757fe5b0601905061d5077ff089dbfa7364bad466cdb8497bb5a8b5b834c2756a722111d07fcb1ff09e8418600102611ab8565b61d5337faa964b1b324db9406b36cdf6a982b534d3f86c22a8248271de2c7454cf41e2f5600102611ab8565b809150509392505050565b61d54661f287565b61d5727f433cfe3e6dea4586d7a3800408d6f553afa3ec576ddc2aac9b700d04bf2256f460010261e63f565b61d59e7fb90747d0b5406f852ebe8cac9cdd09489b62d563e539ba8eb58008e421402b5c60010261e63f565b61d5ca7f65d938d4a7e2e32f175a79b7b358a43f7fc693f7ef766d0575fce72da5b45abd60010261e63f565b61d5d38261e642565b816000019061ffff16908161ffff168152505061d6127f87586a1933beb38d4cf9d4d4e5c167d394261c4b7da389f1df23e45686ce9a5f60010261e63f565b61d63e7f348b78a3457a35224f49ce38125bc8793674a3a47de24e81723302728d90f02b60010261e63f565b600061d64f6107b261ffff1661ea82565b61d660836000015161ffff1661ea82565b0361ffff16905061d6937f9f773027feae5c0bf78aaf5f5ddc55f20cf706d28a55dcdfa14c8c3c870b70f860010261e63f565b61d6bf7f54ce18acaf574a16e8c07c87a7ac274ed948f410dea69b17f94ec31b037dbff760010261e63f565b6000816301e2850002826107b285600001510361ffff16036301e133800201905061d70c7fbeb1c88f1ae596c518fecdf2969afbcd18309ab1ba07bdd0515795aa5e5d7bca60010261e63f565b61d7387f8207724107452dc74ed129d680b010da484b3250915c6b3b80e39fbd0746732560010261e63f565b600061d7667fcee2cb85dacdafd19ff63bbcbd543c631167b6f5b3a5530da0121fdae154ad7360010261e63f565b61d7927fa76698c6a56b758a87fc1e9813a5cb387256044cb14c2afadf111db4c9fc0ca660010261e63f565b600061d7c07f410af78408da8ec31182f9ecd5b8ea2bbb7197ea2216d3259075870623b707ec60010261e63f565b61d7ec7f6a01c63fd740b45b38ba38232e43a51e3a35dcf9de0d19fe4b8bfa26b140fa7060010261e63f565b600061d81a7fa189d66169d98e4af2300e21fdad4e0cc9ef8d463eb772d04fc5c981301d755d60010261e63f565b61d8467f65c3cf497d2e456bc55bea799cb8dc0d51a2bab00d432c198f7f3f3b0405928960010261e63f565b600190505b600c8160ff1611151561dae65761d8847f6a67a4fb3b94133a63de1451dcd85e5c5cda55768ec0988438d9e929ada6a21760010261e63f565b61d8b07f9522db35201a625d03047e0a83e405abaf708c2f21c844b40412aab518f9212660010261e63f565b61d8c281876000015161ffff1661eb97565b915061d8f07fb6f1e4f1ee721eef05777a511afc53d357b3ae4fa3d5ff1f17674b0c1ec0757160010261e63f565b61d91c7f4bc272dac49c832dcb7fb4035ab3b3f110a9f43623381a480a7246bc0bf718f660010261e63f565b8160ff166201518002925061d9537f75fed6daba885d0578445ab7b7a66b57b2282cfc36ec37c07ee2794172677fb560010261e63f565b61d97f7fb6f7287c6473a50e1b38b41f83e2246d4e8d12b888c2946ca04ed94d67b8ff6560010261e63f565b86848401111561da505761d9b57fe82fa837660b9fe78ef08c9641a9b9a03fdf575d220322c04f0291003060741460010261e63f565b61d9e17ff9f7984bfed3c0802cbc69cbea94f0d61a4713b938ef0b6c9636ce0a2b99027b60010261e63f565b61da0d7f806c13d853d4c035d109dc0270a6db1c75bb1568248619867fa569f4f48105e360010261e63f565b80866020019060ff16908160ff168152505061da4b7fc099bb14d589016a9243cb70c21e09a5618fd9bc114078866329a6321a0008d760010261e63f565b61dae6565b61da7c7fa8c153fbff1e26f9d2c92821d7f6f66b060a48f93beb3714c37b0b54e0c9c30860010261e63f565b61daa87f3fbd1670a45e3319798a4ccb23b60ed01d05e0eee1957336f68b71104e75fc0360010261e63f565b61dad47f9ffe33813370748665e6754a45c7b9a2c8a54ff021bf53c80ae4a141841e704c60010261e63f565b8284019350808060010191505061d84b565b61db127ff05dc18d17043d62fc1e765561be51de7e18c1c3277872abdcb32fad0cb6632b60010261e63f565b61db3e7f7c233dad1f6a192553947a6d7ed76b62b4f60d9a4c56eeb17f871d055bb4542f60010261e63f565b600190505b8160ff168160ff1611151561dd175761db7e7fe24e95afe2b1b86be04e04f8936c3d0b17b7e70bddd237271db5c52fbf84e3b760010261e63f565b61dbaa7fe86a405280771711451be0b334aa76ce095a3ff4971daee704b0207c035f9bf660010261e63f565b86846201518001111561dc7e5761dbe37f123af6654288920957bed7acbd33b8c89704966fa0a4ab95492c96874c98b84460010261e63f565b61dc0f7ff82784811d350e107c487ed23190e7f92019191e729a1b53249be70b34fcf9e260010261e63f565b61dc3b7fc16afb265ab91b6c1205c88dcc624bf2874ee09e9b66e1a0ba241871fb4d412660010261e63f565b80866040019060ff16908160ff168152505061dc797f3188a408f43491dd6c23e72f71657348f6e51fb478d0afdba7f562b408e26dfe60010261e63f565b61dd17565b61dcaa7f2a6cdafdb8911e44434b68183eab43752f32c4d2b08120dcb06db38f724dc93460010261e63f565b61dcd67f572ea494e893c2dd97e26de0a8cfc31f887d291a8823fb9ec8758a569640103b60010261e63f565b61dd027f7e2c8734b00f104076ef6a23c664fb3f90888db583e8096e4cc5c8852d3fd66960010261e63f565b6201518084019350808060010191505061db43565b61dd437ffeab6427bf51e972eda648d3eb6d482ad5850bcc5655fc88271ec789e10460d360010261e63f565b61dd6f7f46244ec7fa678ed3f30faf4a9033444dc3168e60b98cd680f8dbcaffcd26bf4760010261e63f565b61dd788761ef53565b866060019060ff16908160ff168152505061ddb57f256c99a2fc0f0a860a4330f973fd96bd84da087798a86b746f8d2d86151676bd60010261e63f565b61dde17f5f21e22de5f3f92f2c1d283827b94b347e1098b87b2d012bb7175fdc2668f0f860010261e63f565b61ddea8761effa565b866080019060ff16908160ff168152505061de277f50b662ecbc0a369719a389b0d7b8656be8db9487ba4bdb484ee14c780dcf91fd60010261e63f565b61de537f6a5ea1c27edf78adb18ffe7c502c3ea753abac5ada22f584f0ce3774e2ae352560010261e63f565b61de5c8761f09f565b8660a0019060ff16908160ff16815250505050505050919050565b600061dea57f8202084254906f7199aff05a1e12a8bc5defcb3bd0dd0722312d025f1cdf925260010261ccb8565b61ded17fb1802c0bd1c50eb7a5ea2c418efaeada5280ab5a1302759ddbec40a8207c23e460010261ccb8565b61defd7fe8b3e427236d7f428acc3936ce49ad58e9149853bdab6138eb2c98e2af6cb86960010261ccb8565b61df07838361ceb9565b151561e0995761df397f404abcfd453eafceb908f0c5b1ee91f99c24e35dcdaf36ffd32647ed81f4a0b760010261ccb8565b61df657f662751195cdb0b90cb1e17966da929da7653f6859a1b7a31c850c33339479f0360010261ccb8565b61df917f8f5f086f1efcb1d2f720c6fc80a66f22d2d0a09419c86a81cbda07ae56d460e760010261ccb8565b8260000182908060018154018082558091505090600182039060005260206000200160009091929091909150555061dfeb7ff12fe73b3f923129741602084dd63137d28cd61a51b82df1b5afc7fe5713cac560010261ccb8565b61e0177f411725b9e6b16644ba52449ec4d36b92dea2b1bd54b0f03c783a20b7890d00eb60010261ccb8565b82600001805490508360010160008481526020019081526020016000208190555061e0647f9bd634b5b92fd3e06f26a52ec2939a4a0a84952a011ea5514bc62a4c5373a55c60010261ccb8565b61e0907fea4ca516a6106cab84a6a4e89be0f7002b5d6eb029ffab4c054b7ee765fc3c2e60010261ccb8565b6001905061e122565b61e0c57fb46577be114288cc2048caa1c7c40b09dc718696d9a09f0499a1547eb16451a960010261ccb8565b61e0f17f699f127f4fce6e368acc157cac121779c534d2aa962d0533bfdaaae1d69ca05f60010261ccb8565b61e11d7f521bb0fe62e6b7fd3853af763e653963a8408ffb348ef253e2d2f6e4ce4cd22160010261ccb8565b600090505b92915050565b600061e1567f9b482a5f51b8ea016ff5ab73974f6b85a6fd2a1eb01a8ee81de32df7a2a8da3560010261ccb8565b61e1827fce3c0267f6afecccc16fb1df160b30bad8dd9e6470f2c250c65f5d16f559538360010261ccb8565b61e1ae7f1428e26d804ec500abd0e9390b2940e16e23c588838979a643dc197ecc45d31460010261ccb8565b600083600101600084815260200190815260200160002054905061e1f47f0b321acd305614c64bd3b03df9b54fda13512f699793d352dda406f5377d654a60010261ccb8565b61e2207f7a5ecc9f91718277f21ffe36d4008cfb52c45cb4a3d02c8d3ad7b368266b527d60010261ccb8565b60008114151561e5a95761e2567f594e731be2305a9bbd344870cf0633f896cf7c8a552149ac8c3887f5939fa2cc60010261ccb8565b61e2827fce845126564f88320d57ac15815dc9da8f604bbea797690ee5dd29256f4490ef60010261ccb8565b61e2ae7f8de4d4b62709fb9aa3764ecad70f3f67ded177953e8d0b3fa69eb7270f7a72b860010261ccb8565b600060018203905061e2e27feef1a22ab497f0a0b5773c261963d43f0abced69475a8f361c4c09940a2e0f1160010261ccb8565b61e30e7fd3ffd1de8410e1a5342524eadcc24cec3d13da46f520a8ff3842159d8ac5138160010261ccb8565b60006001866000018054905003905061e3497fd29f0954420e0dacdaf662725b7670ca376b5ecb1467eea88f3ed07b3cef9b2b60010261ccb8565b61e3757f416543475b2a4ac207e92b54c5a89b0283eb8a6898f17e8a422c8a2b3bdfe4dd60010261ccb8565b6000866000018281548110151561e38857fe5b9060005260206000200154905061e3c17f53e6da82d3cb4b8c67410d9eef4d4d2578dc84336caa8505c50feddb82e7c74e60010261ccb8565b61e3ed7f9985aa50040fc25f597dd3c0a0ef9e1794881ab1e07bd05e1686a5c77312771860010261ccb8565b80876000018481548110151561e3ff57fe5b906000526020600020018190555061e4397f924e66bc6d3998d3584ee5dec8380db18c7801386c9813e9c519c714f9cf05b460010261ccb8565b61e4657f0464100dfed97956c95ac0853f67804ec637520949c0ddf43963e7218712c4ee60010261ccb8565b600183018760010160008381526020019081526020016000208190555061e4ae7f31239a0e5e1877005aeaa2cf67ecd4f26333ff91ac415b7b58467f96b928e47060010261ccb8565b61e4da7f0e8690e5eba3bc911cbe19ecc595ae9d5a7041f8b723ff9c12a4707e72d1d70960010261ccb8565b86600001805480151561e4e957fe5b6001900381819060005260206000200160009055905561e52b7f187fa4fe781f8142b1e1da8868034ad381d767259bb390adb2ffa112cc52f27260010261ccb8565b8660010160008781526020019081526020016000206000905561e5707f9edf3971b67091da233f4cee6fc830f48fc8dae83e1acedbee273f8618720ca860010261ccb8565b61e59c7faa77a760e845cf44dffa170ad08e7782cf1bbc412ad237c88b0c772676e9150860010261ccb8565b600194505050505061e633565b61e5d57f91a387f2c534fe2d9593060ddb58e0e80cbd7962a699db2183f7fd9ac7bf071e60010261ccb8565b61e6017f5273e3157ed309e995284bc9a0977b5e190f596e6d0a7d6a98f63c6c2e9d2cf560010261ccb8565b61e62d7f6d6ed45f9faffdfa6efb315d613b5cf6f6203c948a1d42a6be8e892393847bf560010261ccb8565b60009150505b92915050565b50565b50565b50565b600061e6707ff7c4ae06e9c845650bb52508c732a5f72303c3037b635ecc1215a3c2d079039060010261e63f565b61e69c7f89aa6a64363802e5a6464cd1452522ffcf12e9811c943e8178722d312f1dac5660010261e63f565b61e6c87f8fd1d551816c5ce457c6fcb88fe17cfef05bd0ff60b2f921fe4ae5168cbe2e6b60010261e63f565b60006301e133808381151561e6d957fe5b046107b261ffff1601905061e7107fbed93439f285e4f9ccd9a830a4b1df97cf1548246074aba6d87013d06321877660010261e63f565b61e73c7fd9f53f917a8b8e0eee460e30756ef4eaff78b0a3b90b4b451feb9e1863390ada60010261e63f565b600061e74d6107b261ffff1661ea82565b61e7568361ea82565b0361ffff16905061e7897fe952482a9f34e37dcdb0077c226887bf334f24027405859080e4bc049d8b9a9660010261e63f565b61e7b57f6f95896d861a1cf4ef23bc40c92abfbca3affb80257f517f2c007562da81a80260010261e63f565b6000816301e2850002826107b261ffff168503036301e133800201905061e7fe7fb12ad78b1876d14abaa37416671bd07bed080a6ce64b371bdfd7e2d69d89da6e60010261e63f565b61e82a7f6c06717daf4584869deb27237b0c27fb71b4bf54141f6fb6817c9a7083688aba60010261e63f565b5b8481111561ea1f5761e85f7ff007e8ce052e12f2d9bf15fe86b6823999a3c41af914f5f26d038a66674422af60010261e63f565b61e88b7f9f24d204f8e8b55dda232ace5da3fe70f2008525f5cb8e874eb1ea6a4fe7e88260010261e63f565b61e8976001840361f139565b1561e92e5761e8c87fa8f5f468d40e0ee31e441b11ee194e32890c772b4f58e9af8b5b41d398fe187260010261e63f565b61e8f47f66affc12d63b8855820aa906e9a4b08c2feb4edb8a116a91f556979f3ab99ced60010261e63f565b61e9207f3bb09d0037b739d50b6349daabc35de9ddb93a013c8fcbff0af23e099adcbb0460010261e63f565b6301e285008103905061e9bc565b61e95a7f3831d2f46af76e575f65fd9ebffccfe8f17e118a92c6265ff792c3fdcb555a7960010261e63f565b61e9867f3e93a3758d1da71b45b1a9fc01c8011db23a18c98a24061d6e3aa8602da8247e60010261e63f565b61e9b27f603f8c0b01d48857d77b539a8e655e56c07b3c48fd7e9ec719459cc8f2dd36cc60010261e63f565b6301e13380810390505b61e9e87f6e46492d3df9309fcb22ad59e97be4a0b069b31f67d27fb48f6a34363dfa162b60010261e63f565b61ea147ff155b17cc897643b41df67d3561cc347f9bef4a466b3df72a02f1d326f96e3ec60010261e63f565b60018303925061e82b565b61ea4b7fbcd6f205b1d394b650b54511aca8b4e9d42ae52409dfae8b84bf10b3ce084a0460010261e63f565b61ea777fe0d2cb0b4b54776f7c09b0b36f7ff6de0e2f4385a9cf7c33799b791b5dda635060010261e63f565b829350505050919050565b600061eab07f3ce19f0cb55fd9d26a5690034daa5960ec3d70233479e48142b74a81d61a93f260010261e63f565b61eadc7faf4443ae613587d882d11745ab34f55a30281431abaa2dd27b3673a727377c7c60010261e63f565b61eb087faa9905fa9d8dc7935eec32bbe03cafe873aaf6f15ab453dcd56b2ce57e3eeca460010261e63f565b60018203915061eb3a7f663bf67fa87f2ad913453b848f353b7c87e0bba601f750e90217d95cd184018760010261e63f565b61eb667f0d5466fd149bf6f66bf44e1ce69c5b9b646b7858ee530f6fe4b44c1399b130cf60010261e63f565b60648281151561eb7257fe5b046101908381151561eb8057fe5b0460048481151561eb8d57fe5b0401039050919050565b600061ebc57f1e9259b08c5dc9653126ea6fce79b6f72e0dd454c90c0cbf400d543ae59f7adf60010261e63f565b61ebf17f94c55045a4ec3af02cec0a1fb9ea26f4ebd96e1d9fb84bc225c402e0a603af6060010261e63f565b61ec1d7fd162d092a0721c0063aa29dd083713e6957b2c87c7b44a0a8ff66cb07fdf303b60010261e63f565b60028360ff16141561eda95761ec557fcbae63fa06e6039f9c7f4ebaede7eb6aacf5468defd4888d5e8445c1bc9cca5b60010261e63f565b61ec817f5144054db1d58dbe626c516d675ab9e9455e65461e6162f87854014dfb8b021760010261e63f565b61ecad7fce34780398d4a6d72cbbbb4d13a62cda7954f54ab95b8b90f1810060679b4e8360010261e63f565b61ecb68261f139565b1561ed1c5761ece77f51e4d4712bf2ea774012502a24a8ba7762dd3d4d2b7ae816b41d57aa64e07d5160010261e63f565b61ed137f966599230b2efe1217cf9a88ea1a477ee4707204861232319b6c946d000d830860010261e63f565b601d905061ef4d565b61ed487f6b283944c5f6af131447249ba3ee43ff2718d04e712b34fd445d2f93045ed4d960010261e63f565b61ed747faf744b6260b93deb033e632509d37e335b0846c424a549984680a439b124952a60010261e63f565b61eda07fbbc6e5f05e60723a2fd98775070cdb71d4d05117e72768fc24d09ceb3b54ceee60010261e63f565b601c905061ef4d565b61edd57fbd8714a14ded21c1f0ef248834bf451f5f001d2e258588d47f591017749d7cde60010261e63f565b61ee017f7ff2a0a65e08d801c71d32e5fa6d21c7c14daa7b9b52e6911951e61d2dee5ece60010261e63f565b60048360ff16148061ee16575060068360ff16145b8061ee24575060098360ff16145b8061ee325750600b8360ff16145b1561eec45761ee637fc400fa2f19d96d670b5cd553118c3dcc839d1ca01643f3f2aadbb964e66cd58260010261e63f565b61ee8f7fb4c0a2f66d83d32038e7162b3ad28e2705331fb983cfb3cb064b37501889ea5360010261e63f565b61eebb7fc5100a56dce49bf964aa99b54f102a3f0a3f6a803d69972b999aee261a9a86da60010261e63f565b601e905061ef4d565b61eef07f3940530a99f4099b8f4d07dc32f531b54295567a330c81801a6ef5040028a23c60010261e63f565b61ef1c7f69bd8442c820eb767dab3ea1cbde489b75622373364717d027596fcb6b43393760010261e63f565b61ef487fc1cde02925920c3dd289f9c937a9ce3ae53fce4f82996d43e6461729014076d660010261e63f565b601f90505b92915050565b600061ef817f9b897a64bbfff882530d264b969ff02abff2819b3ebd5a7d0ee1d9f5d1a0b19360010261e63f565b61efad7f1bc45735d4e64373353e1d3b278bd6c7cdd83cf891971c65ff92433c8a9f078560010261e63f565b61efd97fd907228da083e86c4a94974b84b50f80ed66b5dfb58276fcb209c6cfe56df5b260010261e63f565b6018610e108381151561efe857fe5b0481151561eff257fe5b069050919050565b600061f0287fb1cb616ec0506f2ecfd084b6e3b54e8a6d2d1bc23112f172081f64ad47bd978e60010261e63f565b61f0547fc53b73c047fd53baa01f9f93b941aeb2fed3930f8ccacde5e4b031f6d034a97a60010261e63f565b61f0807f44ffb8ba1c424d23b5cf0490a0229b72ced587f226aeb184b14de4140a724b0860010261e63f565b603c808381151561f08d57fe5b0481151561f09757fe5b069050919050565b600061f0cd7f504a8ec7857f77f0f05b9e1fa4ba5073fb694e2771756c23a9c9532dade4d4f860010261e63f565b61f0f97f903e5899356adf169cc3d09a553e3b95613b37b8b2c8192fcec99a21cf72b5fc60010261e63f565b61f1257fe5b363119b7f9ef45484423cb8ff0353b064ab8ff3ed4ef958fb4e841ec7aa1b60010261e63f565b603c8281151561f13157fe5b069050919050565b600061f1677feb2c7cdb50b2572a4c5d5569522ab919e041cea5eccc88ecf1546003a2c80d4a60010261e63f565b61f1937f574f903a883c79acde209c41bf37780354bcb02dc6063e732eea9b82645d2c0b60010261e63f565b61f1bf7ffffcc7bf361fe5c0588eb02e2e40f85a1074d0ffab37811ee2954c1493445a6860010261e63f565b60006101908381151561f1ce57fe5b06148061f2005750600060048381151561f1e457fe5b0614801561f1ff5750600060648381151561f1fb57fe5b0614155b5b9050919050565b828054600181600116156101000203166002900490600052602060002090601f016020900481019282601f1061f24857805160ff191683800117855561f276565b8280016001018555821561f276579182015b8281111561f27557825182559160200191906001019061f25a565b5b50905061f283919061f2d1565b5090565b60c060405190810160405280600061ffff168152602001600060ff168152602001600060ff168152602001600060ff168152602001600060ff168152602001600060ff1681525090565b61f2f391905b8082111561f2ef57600081600090555060010161f2d7565b5090565b9056fea165627a7a7230582079ced52102eef10636135ef9eda9ba1085a38d6772503cba1b18431f45bc10da0029",
  "linkReferences": {
    "contracts/libs/DateTimeModel.sol": {
      "DateTimeModel": [
        {
          "length": 20,
          "start": 46407
        },
        {
          "length": 20,
          "start": 48443
        }
      ]
    },
    "contracts/libs/GluwaAccountModel.sol": {
      "GluwaAccountModel": [
        {
          "length": 20,
          "start": 33836
        },
        {
          "length": 20,
          "start": 34198
        },
        {
          "length": 20,
          "start": 43378
        }
      ]
    }
  },
  "deployedLinkReferences": {
    "contracts/libs/DateTimeModel.sol": {
      "DateTimeModel": [
        {
          "length": 20,
          "start": 46387
        },
        {
          "length": 20,
          "start": 48423
        }
      ]
    },
    "contracts/libs/GluwaAccountModel.sol": {
      "GluwaAccountModel": [
        {
          "length": 20,
          "start": 33816
        },
        {
          "length": 20,
          "start": 34178
        },
        {
          "length": 20,
          "start": 43358
        }
      ]
    }
  }
}