{
  "_format": "hh-sol-artifact-1",
  "contractName": "SandboxPrizeLinkedAccountVault",
  "sourceName": "contracts/mocks/SandboxPrizeLinkedAccountVault.sol",
  "abi": [
    {
      "constant": false,
      "inputs": [
        {
          "name": "owner",
          "type": "address"
        },
        {
          "name": "amount",
          "type": "uint256"
        }
      ],
      "name": "depositPrizedLinkAccount",
      "outputs": [
        {
          "name": "",
          "type": "bool"
        }
      ],
      "payable": false,
      "stateMutability": "nonpayable",
      "type": "function"
    },
    {
      "constant": true,
      "inputs": [
        {
          "name": "role",
          "type": "bytes32"
        }
      ],
      "name": "getRoleAdmin",
      "outputs": [
        {
          "name": "",
          "type": "bytes32"
        }
      ],
      "payable": false,
      "stateMutability": "view",
      "type": "function"
    },
    {
      "constant": true,
      "inputs": [
        {
          "name": "account",
          "type": "address"
        }
      ],
      "name": "isAdmin",
      "outputs": [
        {
          "name": "",
          "type": "bool"
        }
      ],
      "payable": false,
      "stateMutability": "view",
      "type": "function"
    },
    {
      "constant": true,
      "inputs": [],
      "name": "getPrizeLinkedAccountSettings",
      "outputs": [
        {
          "name": "standardInterestRate",
          "type": "uint32"
        },
        {
          "name": "standardInterestRatePercentageBase",
          "type": "uint32"
        },
        {
          "name": "budget",
          "type": "uint256"
        },
        {
          "name": "minimumDeposit",
          "type": "uint256"
        },
        {
          "name": "token",
          "type": "address"
        },
        {
          "name": "ticketPerToken",
          "type": "uint16"
        },
        {
          "name": "cutOffHour",
          "type": "uint8"
        },
        {
          "name": "cutOffMinute",
          "type": "uint8"
        },
        {
          "name": "processingCap",
          "type": "uint32"
        },
        {
          "name": "ticketRangeFactor",
          "type": "uint128"
        },
        {
          "name": "lowerLimitPercentage",
          "type": "uint8"
        }
      ],
      "payable": false,
      "stateMutability": "view",
      "type": "function"
    },
    {
      "constant": false,
      "inputs": [],
      "name": "renounceOperator",
      "outputs": [],
      "payable": false,
      "stateMutability": "nonpayable",
      "type": "function"
    },
    {
      "constant": false,
      "inputs": [
        {
          "name": "amount",
          "type": "uint256"
        }
      ],
      "name": "withdraw",
      "outputs": [
        {
          "name": "",
          "type": "bool"
        }
      ],
      "payable": false,
      "stateMutability": "nonpayable",
      "type": "function"
    },
    {
      "constant": true,
      "inputs": [
        {
          "name": "c__0x42d91d40",
          "type": "bytes32"
        }
      ],
      "name": "c_0x42d91d40",
      "outputs": [],
      "payable": false,
      "stateMutability": "pure",
      "type": "function"
    },
    {
      "constant": false,
      "inputs": [
        {
          "name": "role",
          "type": "bytes32"
        },
        {
          "name": "account",
          "type": "address"
        }
      ],
      "name": "grantRole",
      "outputs": [],
      "payable": false,
      "stateMutability": "nonpayable",
      "type": "function"
    },
    {
      "constant": false,
      "inputs": [
        {
          "name": "owner",
          "type": "address"
        },
        {
          "name": "amount",
          "type": "uint256"
        },
        {
          "name": "dateTime",
          "type": "uint256"
        }
      ],
      "name": "depositPrizedLinkAccount",
      "outputs": [
        {
          "name": "",
          "type": "bool"
        }
      ],
      "payable": false,
      "stateMutability": "nonpayable",
      "type": "function"
    },
    {
      "constant": false,
      "inputs": [
        {
          "name": "role",
          "type": "bytes32"
        },
        {
          "name": "account",
          "type": "address"
        }
      ],
      "name": "renounceRole",
      "outputs": [],
      "payable": false,
      "stateMutability": "nonpayable",
      "type": "function"
    },
    {
      "constant": true,
      "inputs": [
        {
          "name": "drawTimeStamp",
          "type": "uint256"
        }
      ],
      "name": "getEligibleAddressPendingAddedToDraw",
      "outputs": [
        {
          "name": "result",
          "type": "address[]"
        }
      ],
      "payable": false,
      "stateMutability": "view",
      "type": "function"
    },
    {
      "constant": true,
      "inputs": [],
      "name": "getSavingSettings",
      "outputs": [
        {
          "name": "",
          "type": "uint32"
        },
        {
          "name": "",
          "type": "uint32"
        },
        {
          "name": "",
          "type": "uint256"
        },
        {
          "name": "",
          "type": "uint256"
        },
        {
          "name": "",
          "type": "address"
        }
      ],
      "payable": false,
      "stateMutability": "view",
      "type": "function"
    },
    {
      "constant": false,
      "inputs": [
        {
          "name": "owner",
          "type": "address"
        },
        {
          "name": "recipient",
          "type": "address"
        }
      ],
      "name": "withdrawUnclaimedAccount",
      "outputs": [
        {
          "name": "",
          "type": "bool"
        }
      ],
      "payable": false,
      "stateMutability": "nonpayable",
      "type": "function"
    },
    {
      "constant": true,
      "inputs": [
        {
          "name": "c__0x48731749",
          "type": "bytes32"
        }
      ],
      "name": "c_0x48731749",
      "outputs": [],
      "payable": false,
      "stateMutability": "pure",
      "type": "function"
    },
    {
      "constant": true,
      "inputs": [
        {
          "name": "drawTimeStamp",
          "type": "uint256"
        }
      ],
      "name": "getTickerIdsByOwnerAndDraw",
      "outputs": [
        {
          "name": "",
          "type": "uint96[]"
        }
      ],
      "payable": false,
      "stateMutability": "view",
      "type": "function"
    },
    {
      "constant": true,
      "inputs": [
        {
          "name": "account",
          "type": "address"
        }
      ],
      "name": "isOperator",
      "outputs": [
        {
          "name": "",
          "type": "bool"
        }
      ],
      "payable": false,
      "stateMutability": "view",
      "type": "function"
    },
    {
      "constant": false,
      "inputs": [
        {
          "name": "account",
          "type": "address"
        }
      ],
      "name": "addAdmin",
      "outputs": [],
      "payable": false,
      "stateMutability": "nonpayable",
      "type": "function"
    },
    {
      "constant": true,
      "inputs": [
        {
          "name": "depositHash",
          "type": "bytes32"
        }
      ],
      "name": "getDeposit",
      "outputs": [
        {
          "name": "",
          "type": "uint256"
        },
        {
          "name": "",
          "type": "uint256"
        },
        {
          "name": "",
          "type": "address"
        },
        {
          "name": "",
          "type": "uint256"
        },
        {
          "name": "",
          "type": "uint256"
        }
      ],
      "payable": false,
      "stateMutability": "view",
      "type": "function"
    },
    {
      "constant": false,
      "inputs": [
        {
          "name": "owner",
          "type": "address"
        },
        {
          "name": "amount",
          "type": "uint256"
        },
        {
          "name": "dateTime",
          "type": "uint256"
        },
        {
          "name": "securityHash",
          "type": "bytes"
        }
      ],
      "name": "createPrizedLinkAccount",
      "outputs": [
        {
          "name": "",
          "type": "bool"
        }
      ],
      "payable": false,
      "stateMutability": "nonpayable",
      "type": "function"
    },
    {
      "constant": true,
      "inputs": [
        {
          "name": "c__0xd27cb329",
          "type": "bytes32"
        }
      ],
      "name": "c_0xd27cb329",
      "outputs": [],
      "payable": false,
      "stateMutability": "pure",
      "type": "function"
    },
    {
      "constant": true,
      "inputs": [
        {
          "name": "drawTimeStamp",
          "type": "uint256"
        }
      ],
      "name": "findMinMaxForDraw",
      "outputs": [
        {
          "name": "min",
          "type": "uint256"
        },
        {
          "name": "max",
          "type": "uint256"
        }
      ],
      "payable": false,
      "stateMutability": "view",
      "type": "function"
    },
    {
      "constant": true,
      "inputs": [
        {
          "name": "owner",
          "type": "address"
        }
      ],
      "name": "getSavingAcountFor",
      "outputs": [
        {
          "name": "",
          "type": "uint256"
        },
        {
          "name": "",
          "type": "bytes32"
        },
        {
          "name": "",
          "type": "address"
        },
        {
          "name": "",
          "type": "uint256"
        },
        {
          "name": "",
          "type": "uint256"
        },
        {
          "name": "",
          "type": "uint256"
        },
        {
          "name": "",
          "type": "uint8"
        },
        {
          "name": "",
          "type": "bytes"
        }
      ],
      "payable": false,
      "stateMutability": "view",
      "type": "function"
    },
    {
      "constant": true,
      "inputs": [
        {
          "name": "c__0xfd3e751c",
          "type": "bytes32"
        }
      ],
      "name": "c_0xfd3e751c",
      "outputs": [],
      "payable": false,
      "stateMutability": "pure",
      "type": "function"
    },
    {
      "constant": false,
      "inputs": [],
      "name": "renounceAdmin",
      "outputs": [],
      "payable": false,
      "stateMutability": "nonpayable",
      "type": "function"
    },
    {
      "constant": false,
      "inputs": [
        {
          "name": "drawTimeStamp",
          "type": "uint256"
        }
      ],
      "name": "awardWinnerV1",
      "outputs": [
        {
          "name": "",
          "type": "bool"
        }
      ],
      "payable": false,
      "stateMutability": "nonpayable",
      "type": "function"
    },
    {
      "constant": true,
      "inputs": [
        {
          "name": "role",
          "type": "bytes32"
        },
        {
          "name": "index",
          "type": "uint256"
        }
      ],
      "name": "getRoleMember",
      "outputs": [
        {
          "name": "",
          "type": "address"
        }
      ],
      "payable": false,
      "stateMutability": "view",
      "type": "function"
    },
    {
      "constant": true,
      "inputs": [
        {
          "name": "role",
          "type": "bytes32"
        },
        {
          "name": "account",
          "type": "address"
        }
      ],
      "name": "hasRole",
      "outputs": [
        {
          "name": "",
          "type": "bool"
        }
      ],
      "payable": false,
      "stateMutability": "view",
      "type": "function"
    },
    {
      "constant": false,
      "inputs": [
        {
          "name": "account",
          "type": "address"
        }
      ],
      "name": "addOperator",
      "outputs": [],
      "payable": false,
      "stateMutability": "nonpayable",
      "type": "function"
    },
    {
      "constant": true,
      "inputs": [],
      "name": "getSavingAcount",
      "outputs": [
        {
          "name": "",
          "type": "uint256"
        },
        {
          "name": "",
          "type": "bytes32"
        },
        {
          "name": "",
          "type": "address"
        },
        {
          "name": "",
          "type": "uint256"
        },
        {
          "name": "",
          "type": "uint256"
        },
        {
          "name": "",
          "type": "uint256"
        },
        {
          "name": "",
          "type": "uint8"
        },
        {
          "name": "",
          "type": "bytes"
        }
      ],
      "payable": false,
      "stateMutability": "view",
      "type": "function"
    },
    {
      "constant": true,
      "inputs": [],
      "name": "DEFAULT_ADMIN_ROLE",
      "outputs": [
        {
          "name": "",
          "type": "bytes32"
        }
      ],
      "payable": false,
      "stateMutability": "view",
      "type": "function"
    },
    {
      "constant": false,
      "inputs": [
        {
          "name": "drawTimeStamp",
          "type": "uint256"
        },
        {
          "name": "seed",
          "type": "uint256"
        }
      ],
      "name": "makeDrawV1_Dummy",
      "outputs": [
        {
          "name": "",
          "type": "uint256"
        }
      ],
      "payable": false,
      "stateMutability": "nonpayable",
      "type": "function"
    },
    {
      "constant": false,
      "inputs": [
        {
          "name": "standardInterestRate",
          "type": "uint32"
        },
        {
          "name": "standardInterestRatePercentageBase",
          "type": "uint32"
        },
        {
          "name": "budget",
          "type": "uint256"
        },
        {
          "name": "minimumDeposit",
          "type": "uint256"
        },
        {
          "name": "ticketPerToken",
          "type": "uint16"
        },
        {
          "name": "cutOffHour",
          "type": "uint8"
        },
        {
          "name": "cutOffMinute",
          "type": "uint8"
        },
        {
          "name": "processingCap",
          "type": "uint32"
        },
        {
          "name": "ticketRangeFactor",
          "type": "uint128"
        },
        {
          "name": "lowerLimitPercentage",
          "type": "uint8"
        }
      ],
      "name": "setPrizeLinkedAccountSettings",
      "outputs": [],
      "payable": false,
      "stateMutability": "nonpayable",
      "type": "function"
    },
    {
      "constant": true,
      "inputs": [],
      "name": "getAmountBroughtToNextDraw",
      "outputs": [
        {
          "name": "",
          "type": "uint256"
        }
      ],
      "payable": false,
      "stateMutability": "view",
      "type": "function"
    },
    {
      "constant": false,
      "inputs": [
        {
          "name": "account",
          "type": "address"
        }
      ],
      "name": "removeOperator",
      "outputs": [],
      "payable": false,
      "stateMutability": "nonpayable",
      "type": "function"
    },
    {
      "constant": false,
      "inputs": [
        {
          "name": "admin",
          "type": "address"
        },
        {
          "name": "tokenAddress",
          "type": "address"
        },
        {
          "name": "standardInterestRate",
          "type": "uint32"
        },
        {
          "name": "standardInterestRatePercentageBase",
          "type": "uint32"
        },
        {
          "name": "budget",
          "type": "uint256"
        },
        {
          "name": "ticketPerToken",
          "type": "uint16"
        },
        {
          "name": "cutOffHour",
          "type": "uint8"
        },
        {
          "name": "cutOffMinute",
          "type": "uint8"
        },
        {
          "name": "processingCap",
          "type": "uint32"
        },
        {
          "name": "ticketRangeFactor",
          "type": "uint128"
        },
        {
          "name": "lowerLimitPercentage",
          "type": "uint8"
        }
      ],
      "name": "initialize",
      "outputs": [],
      "payable": false,
      "stateMutability": "nonpayable",
      "type": "function"
    },
    {
      "constant": false,
      "inputs": [
        {
          "name": "drawTimeStamp",
          "type": "uint256"
        }
      ],
      "name": "regenerateTicketForNextDraw",
      "outputs": [
        {
          "name": "",
          "type": "uint256"
        }
      ],
      "payable": false,
      "stateMutability": "nonpayable",
      "type": "function"
    },
    {
      "constant": false,
      "inputs": [
        {
          "name": "recipient",
          "type": "address"
        },
        {
          "name": "amount",
          "type": "uint256"
        }
      ],
      "name": "invest",
      "outputs": [
        {
          "name": "",
          "type": "bool"
        }
      ],
      "payable": false,
      "stateMutability": "nonpayable",
      "type": "function"
    },
    {
      "constant": true,
      "inputs": [
        {
          "name": "role",
          "type": "bytes32"
        }
      ],
      "name": "getRoleMemberCount",
      "outputs": [
        {
          "name": "",
          "type": "uint256"
        }
      ],
      "payable": false,
      "stateMutability": "view",
      "type": "function"
    },
    {
      "constant": true,
      "inputs": [
        {
          "name": "c__0x90feacde",
          "type": "bytes32"
        }
      ],
      "name": "c_0x90feacde",
      "outputs": [],
      "payable": false,
      "stateMutability": "pure",
      "type": "function"
    },
    {
      "constant": false,
      "inputs": [
        {
          "name": "owner",
          "type": "address"
        },
        {
          "name": "amount",
          "type": "uint256"
        },
        {
          "name": "securityHash",
          "type": "bytes"
        }
      ],
      "name": "createPrizedLinkAccount",
      "outputs": [
        {
          "name": "",
          "type": "bool"
        }
      ],
      "payable": false,
      "stateMutability": "nonpayable",
      "type": "function"
    },
    {
      "constant": false,
      "inputs": [
        {
          "name": "role",
          "type": "bytes32"
        },
        {
          "name": "account",
          "type": "address"
        }
      ],
      "name": "revokeRole",
      "outputs": [],
      "payable": false,
      "stateMutability": "nonpayable",
      "type": "function"
    },
    {
      "constant": true,
      "inputs": [
        {
          "name": "drawTimeStamp",
          "type": "uint256"
        }
      ],
      "name": "getDrawDetails",
      "outputs": [
        {
          "name": "participants",
          "type": "address[]"
        },
        {
          "name": "ticketIds",
          "type": "uint96[]"
        },
        {
          "name": "winningTicket",
          "type": "uint256"
        },
        {
          "name": "balanceEachDraw",
          "type": "uint256"
        }
      ],
      "payable": false,
      "stateMutability": "view",
      "type": "function"
    },
    {
      "constant": true,
      "inputs": [
        {
          "name": "idx",
          "type": "uint256"
        }
      ],
      "name": "getTicketRangeById",
      "outputs": [
        {
          "name": "",
          "type": "uint96"
        },
        {
          "name": "",
          "type": "address"
        },
        {
          "name": "",
          "type": "uint256"
        },
        {
          "name": "",
          "type": "uint256"
        }
      ],
      "payable": false,
      "stateMutability": "view",
      "type": "function"
    },
    {
      "constant": false,
      "inputs": [
        {
          "name": "owner",
          "type": "address"
        },
        {
          "name": "amount",
          "type": "uint256"
        }
      ],
      "name": "withdrawFor",
      "outputs": [
        {
          "name": "",
          "type": "bool"
        }
      ],
      "payable": false,
      "stateMutability": "nonpayable",
      "type": "function"
    },
    {
      "constant": true,
      "inputs": [
        {
          "name": "drawTimeStamp",
          "type": "uint256"
        },
        {
          "name": "owner",
          "type": "address"
        }
      ],
      "name": "getTickerIdsByOwnerAndDrawFor",
      "outputs": [
        {
          "name": "",
          "type": "uint96[]"
        }
      ],
      "payable": false,
      "stateMutability": "view",
      "type": "function"
    },
    {
      "constant": true,
      "inputs": [
        {
          "name": "c__0x3cfa3e8e",
          "type": "bytes32"
        }
      ],
      "name": "c_0x3cfa3e8e",
      "outputs": [],
      "payable": false,
      "stateMutability": "pure",
      "type": "function"
    },
    {
      "constant": true,
      "inputs": [
        {
          "name": "drawTimeStamp",
          "type": "uint256"
        }
      ],
      "name": "getDrawWinner",
      "outputs": [
        {
          "name": "result",
          "type": "address"
        }
      ],
      "payable": false,
      "stateMutability": "view",
      "type": "function"
    },
    {
      "constant": false,
      "inputs": [
        {
          "name": "drawTimeStamp",
          "type": "uint256"
        },
        {
          "name": "seed",
          "type": "uint256"
        }
      ],
      "name": "makeDrawV1",
      "outputs": [
        {
          "name": "",
          "type": "uint256"
        }
      ],
      "payable": false,
      "stateMutability": "nonpayable",
      "type": "function"
    },
    {
      "constant": true,
      "inputs": [],
      "name": "OPERATOR_ROLE",
      "outputs": [
        {
          "name": "",
          "type": "bytes32"
        }
      ],
      "payable": false,
      "stateMutability": "view",
      "type": "function"
    },
    {
      "anonymous": false,
      "inputs": [
        {
          "indexed": false,
          "name": "winner",
          "type": "address"
        },
        {
          "indexed": false,
          "name": "reward",
          "type": "uint256"
        }
      ],
      "name": "WinnerSelected",
      "type": "event"
    },
    {
      "anonymous": false,
      "inputs": [
        {
          "indexed": true,
          "name": "recipient",
          "type": "address"
        },
        {
          "indexed": false,
          "name": "amount",
          "type": "uint256"
        }
      ],
      "name": "Invested",
      "type": "event"
    },
    {
      "anonymous": false,
      "inputs": [
        {
          "indexed": true,
          "name": "drawTimeStamp",
          "type": "uint256"
        },
        {
          "indexed": true,
          "name": "ticketId",
          "type": "uint256"
        },
        {
          "indexed": true,
          "name": "owner",
          "type": "address"
        },
        {
          "indexed": false,
          "name": "upper",
          "type": "uint256"
        },
        {
          "indexed": false,
          "name": "lower",
          "type": "uint256"
        }
      ],
      "name": "TicketCreated",
      "type": "event"
    },
    {
      "anonymous": false,
      "inputs": [
        {
          "indexed": true,
          "name": "accountHash",
          "type": "bytes32"
        },
        {
          "indexed": true,
          "name": "owner",
          "type": "address"
        }
      ],
      "name": "AccountCreated",
      "type": "event"
    },
    {
      "anonymous": false,
      "inputs": [
        {
          "indexed": true,
          "name": "depositHash",
          "type": "bytes32"
        },
        {
          "indexed": true,
          "name": "owner",
          "type": "address"
        },
        {
          "indexed": false,
          "name": "deposit",
          "type": "uint256"
        }
      ],
      "name": "DepositCreated",
      "type": "event"
    },
    {
      "anonymous": false,
      "inputs": [
        {
          "indexed": true,
          "name": "owner",
          "type": "address"
        },
        {
          "indexed": true,
          "name": "recipient",
          "type": "address"
        },
        {
          "indexed": false,
          "name": "amount",
          "type": "uint256"
        }
      ],
      "name": "Withdrawn",
      "type": "event"
    },
    {
      "anonymous": false,
      "inputs": [
        {
          "indexed": true,
          "name": "role",
          "type": "bytes32"
        },
        {
          "indexed": true,
          "name": "account",
          "type": "address"
        },
        {
          "indexed": true,
          "name": "sender",
          "type": "address"
        }
      ],
      "name": "RoleGranted",
      "type": "event"
    },
    {
      "anonymous": false,
      "inputs": [
        {
          "indexed": true,
          "name": "role",
          "type": "bytes32"
        },
        {
          "indexed": true,
          "name": "account",
          "type": "address"
        },
        {
          "indexed": true,
          "name": "sender",
          "type": "address"
        }
      ],
      "name": "RoleRevoked",
      "type": "event"
    }
  ],
  "bytecode": "0x60806040526201260a80620000156000396000f3fe60806040526004361062000283576000357c0100000000000000000000000000000000000000000000000000000000900463ffffffff168063033d086d1462000288578063248a9ca314620002ff57806324d7806c1462000352578063294eefaa14620003bf5780632ab6f8db14620004c15780632e1a7d4d14620004db5780632eda6f8714620005325780632f2ff15d146200057157806332a38f5b14620005d057806336568abe14620006515780634218774b14620006b0578063529298b81462000746578063560b6ed414620007d4578063669ec8b714620008615780636d42555014620008a05780636d70f7ae14620009365780637048027514620009a35780637a86983f14620009f85780637cf85be11462000a935780637f538d541462000b6c5780638067e0021462000bab57806382133e381462000c0557806386f8474c1462000d425780638bad0c0a1462000d815780638be306571462000d9b5780639010d07c1462000df257806391d148541462000e7b5780639870d7fe1462000ef25780639964476f1462000f47578063a217fddf1462001049578063a6e894821462001077578063a8cb733114620010d4578063a9576694146200119f578063ac8a584a14620011cd578063ad395d921462001222578063b58d3ff31462001323578063b9b8c2461462001376578063ca15c87314620013ed578063cc2645021462001440578063cf123e30146200147f578063d547741f146200154e578063d5a962e414620015ad578063d93e81a7146200169b578063db518db2146200174b578063dbd6f1c414620017c2578063ed5c04911462001878578063ee37fb4c14620018b7578063ee5bf65f1462001936578063f5b541a61462001993575b600080fd5b3480156200029557600080fd5b50620002e560048036036040811015620002ae57600080fd5b81019080803573ffffffffffffffffffffffffffffffffffffffff16906020019092919080359060200190929190505050620019c1565b604051808215151515815260200191505060405180910390f35b3480156200030c57600080fd5b506200033c600480360360208110156200032557600080fd5b810190808035906020019092919050505062001eb1565b6040518082815260200191505060405180910390f35b3480156200035f57600080fd5b50620003a5600480360360208110156200037857600080fd5b81019080803573ffffffffffffffffffffffffffffffffffffffff16906020019092919050505062001f5b565b604051808215151515815260200191505060405180910390f35b348015620003cc57600080fd5b50620003d762001ffe565b604051808c63ffffffff1663ffffffff1681526020018b63ffffffff1663ffffffff1681526020018a81526020018981526020018873ffffffffffffffffffffffffffffffffffffffff1673ffffffffffffffffffffffffffffffffffffffff1681526020018761ffff1661ffff1681526020018660ff1660ff1681526020018560ff1660ff1681526020018463ffffffff1663ffffffff168152602001836fffffffffffffffffffffffffffffffff166fffffffffffffffffffffffffffffffff1681526020018260ff1660ff1681526020019b50505050505050505050505060405180910390f35b348015620004ce57600080fd5b50620004d962002287565b005b348015620004e857600080fd5b5062000518600480360360208110156200050157600080fd5b81019080803590602001909291905050506200235d565b604051808215151515815260200191505060405180910390f35b3480156200053f57600080fd5b506200056f600480360360208110156200055857600080fd5b81019080803590602001909291905050506200240f565b005b3480156200057e57600080fd5b50620005ce600480360360408110156200059757600080fd5b8101908080359060200190929190803573ffffffffffffffffffffffffffffffffffffffff16906020019092919050505062002412565b005b348015620005dd57600080fd5b506200063760048036036060811015620005f657600080fd5b81019080803573ffffffffffffffffffffffffffffffffffffffff16906020019092919080359060200190929190803590602001909291905050506200262a565b604051808215151515815260200191505060405180910390f35b3480156200065e57600080fd5b50620006ae600480360360408110156200067757600080fd5b8101908080359060200190929190803573ffffffffffffffffffffffffffffffffffffffff16906020019092919050505062002b1b565b005b348015620006bd57600080fd5b50620006ed60048036036020811015620006d657600080fd5b810190808035906020019092919050505062002d40565b6040518080602001828103825283818151815260200191508051906020019060200280838360005b838110156200073257808201518184015260208101905062000715565b505050509050019250505060405180910390f35b3480156200075357600080fd5b506200075e620031f8565b604051808663ffffffff1663ffffffff1681526020018563ffffffff1663ffffffff1681526020018481526020018381526020018273ffffffffffffffffffffffffffffffffffffffff1673ffffffffffffffffffffffffffffffffffffffff1681526020019550505050505060405180910390f35b348015620007e157600080fd5b506200084760048036036040811015620007fa57600080fd5b81019080803573ffffffffffffffffffffffffffffffffffffffff169060200190929190803573ffffffffffffffffffffffffffffffffffffffff169060200190929190505050620032ea565b604051808215151515815260200191505060405180910390f35b3480156200086e57600080fd5b506200089e600480360360208110156200088757600080fd5b81019080803590602001909291905050506200356a565b005b348015620008ad57600080fd5b50620008dd60048036036020811015620008c657600080fd5b81019080803590602001909291905050506200356d565b6040518080602001828103825283818151815260200191508051906020019060200280838360005b838110156200092257808201518184015260208101905062000905565b505050509050019250505060405180910390f35b3480156200094357600080fd5b5062000989600480360360208110156200095c57600080fd5b81019080803573ffffffffffffffffffffffffffffffffffffffff16906020019092919050505062003614565b604051808215151515815260200191505060405180910390f35b348015620009b057600080fd5b50620009f660048036036020811015620009c957600080fd5b81019080803573ffffffffffffffffffffffffffffffffffffffff169060200190929190505050620036e8565b005b34801562000a0557600080fd5b5062000a356004803603602081101562000a1e57600080fd5b810190808035906020019092919050505062003922565b604051808681526020018581526020018473ffffffffffffffffffffffffffffffffffffffff1673ffffffffffffffffffffffffffffffffffffffff1681526020018381526020018281526020019550505050505060405180910390f35b34801562000aa057600080fd5b5062000b526004803603608081101562000ab957600080fd5b81019080803573ffffffffffffffffffffffffffffffffffffffff16906020019092919080359060200190929190803590602001909291908035906020019064010000000081111562000b0b57600080fd5b82018360208201111562000b1e57600080fd5b8035906020019184600183028401116401000000008311171562000b4157600080fd5b909192939192939050505062003a74565b604051808215151515815260200191505060405180910390f35b34801562000b7957600080fd5b5062000ba96004803603602081101562000b9257600080fd5b810190808035906020019092919050505062004017565b005b34801562000bb857600080fd5b5062000be86004803603602081101562000bd157600080fd5b81019080803590602001909291905050506200401a565b604051808381526020018281526020019250505060405180910390f35b34801562000c1257600080fd5b5062000c586004803603602081101562000c2b57600080fd5b81019080803573ffffffffffffffffffffffffffffffffffffffff1690602001909291905050506200424a565b604051808981526020018881526020018773ffffffffffffffffffffffffffffffffffffffff1673ffffffffffffffffffffffffffffffffffffffff16815260200186815260200185815260200184815260200183600481111562000cb957fe5b60ff16815260200180602001828103825283818151815260200191508051906020019080838360005b8381101562000cff57808201518184015260208101905062000ce2565b50505050905090810190601f16801562000d2d5780820380516001836020036101000a031916815260200191505b50995050505050505050505060405180910390f35b34801562000d4f57600080fd5b5062000d7f6004803603602081101562000d6857600080fd5b8101908080359060200190929190505050620044a4565b005b34801562000d8e57600080fd5b5062000d99620044a7565b005b34801562000da857600080fd5b5062000dd86004803603602081101562000dc157600080fd5b81019080803590602001909291905050506200464b565b604051808215151515815260200191505060405180910390f35b34801562000dff57600080fd5b5062000e396004803603604081101562000e1857600080fd5b81019080803590602001909291908035906020019092919050505062004ec2565b604051808273ffffffffffffffffffffffffffffffffffffffff1673ffffffffffffffffffffffffffffffffffffffff16815260200191505060405180910390f35b34801562000e8857600080fd5b5062000ed86004803603604081101562000ea157600080fd5b8101908080359060200190929190803573ffffffffffffffffffffffffffffffffffffffff16906020019092919050505062004f80565b604051808215151515815260200191505060405180910390f35b34801562000eff57600080fd5b5062000f456004803603602081101562000f1857600080fd5b81019080803573ffffffffffffffffffffffffffffffffffffffff1690602001909291905050506200503e565b005b34801562000f5457600080fd5b5062000f5f620052a9565b604051808981526020018881526020018773ffffffffffffffffffffffffffffffffffffffff1673ffffffffffffffffffffffffffffffffffffffff16815260200186815260200185815260200184815260200183600481111562000fc057fe5b60ff16815260200180602001828103825283818151815260200191508051906020019080838360005b838110156200100657808201518184015260208101905062000fe9565b50505050905090810190601f168015620010345780820380516001836020036101000a031916815260200191505b50995050505050505050505060405180910390f35b3480156200105657600080fd5b50620010616200536e565b6040518082815260200191505060405180910390f35b3480156200108457600080fd5b50620010be600480360360408110156200109d57600080fd5b81019080803590602001909291908035906020019092919050505062005376565b6040518082815260200191505060405180910390f35b348015620010e157600080fd5b506200119d6004803603610140811015620010fb57600080fd5b81019080803563ffffffff169060200190929190803563ffffffff1690602001909291908035906020019092919080359060200190929190803561ffff169060200190929190803560ff169060200190929190803560ff169060200190929190803563ffffffff16906020019092919080356fffffffffffffffffffffffffffffffff169060200190929190803560ff1690602001909291905050506200561c565b005b348015620011ac57600080fd5b50620011b762005a36565b6040518082815260200191505060405180910390f35b348015620011da57600080fd5b506200122060048036036020811015620011f357600080fd5b81019080803573ffffffffffffffffffffffffffffffffffffffff16906020019092919050505062005aca565b005b3480156200122f57600080fd5b506200132160048036036101608110156200124957600080fd5b81019080803573ffffffffffffffffffffffffffffffffffffffff169060200190929190803573ffffffffffffffffffffffffffffffffffffffff169060200190929190803563ffffffff169060200190929190803563ffffffff16906020019092919080359060200190929190803561ffff169060200190929190803560ff169060200190929190803560ff169060200190929190803563ffffffff16906020019092919080356fffffffffffffffffffffffffffffffff169060200190929190803560ff16906020019092919050505062005d35565b005b3480156200133057600080fd5b5062001360600480360360208110156200134957600080fd5b81019080803590602001909291905050506200629c565b6040518082815260200191505060405180910390f35b3480156200138357600080fd5b50620013d3600480360360408110156200139c57600080fd5b81019080803573ffffffffffffffffffffffffffffffffffffffff1690602001909291908035906020019092919050505062006964565b604051808215151515815260200191505060405180910390f35b348015620013fa57600080fd5b506200142a600480360360208110156200141357600080fd5b810190808035906020019092919050505062007286565b6040518082815260200191505060405180910390f35b3480156200144d57600080fd5b506200147d600480360360208110156200146657600080fd5b810190808035906020019092919050505062007339565b005b3480156200148c57600080fd5b506200153460048036036060811015620014a557600080fd5b81019080803573ffffffffffffffffffffffffffffffffffffffff1690602001909291908035906020019092919080359060200190640100000000811115620014ed57600080fd5b8201836020820111156200150057600080fd5b803590602001918460018302840111640100000000831117156200152357600080fd5b90919293919293905050506200733c565b604051808215151515815260200191505060405180910390f35b3480156200155b57600080fd5b50620015ab600480360360408110156200157457600080fd5b8101908080359060200190929190803573ffffffffffffffffffffffffffffffffffffffff169060200190929190505050620078dd565b005b348015620015ba57600080fd5b50620015ea60048036036020811015620015d357600080fd5b810190808035906020019092919050505062007af5565b604051808060200180602001858152602001848152602001838103835287818151815260200191508051906020019060200280838360005b838110156200163f57808201518184015260208101905062001622565b50505050905001838103825286818151815260200191508051906020019060200280838360005b838110156200168357808201518184015260208101905062001666565b50505050905001965050505050505060405180910390f35b348015620016a857600080fd5b50620016d860048036036020811015620016c157600080fd5b810190808035906020019092919050505062007e09565b60405180856bffffffffffffffffffffffff166bffffffffffffffffffffffff1681526020018473ffffffffffffffffffffffffffffffffffffffff1673ffffffffffffffffffffffffffffffffffffffff16815260200183815260200182815260200194505050505060405180910390f35b3480156200175857600080fd5b50620017a8600480360360408110156200177157600080fd5b81019080803573ffffffffffffffffffffffffffffffffffffffff1690602001909291908035906020019092919050505062007eb3565b604051808215151515815260200191505060405180910390f35b348015620017cf57600080fd5b506200181f60048036036040811015620017e857600080fd5b8101908080359060200190929190803573ffffffffffffffffffffffffffffffffffffffff169060200190929190505050620080f1565b6040518080602001828103825283818151815260200191508051906020019060200280838360005b838110156200186457808201518184015260208101905062001847565b505050509050019250505060405180910390f35b3480156200188557600080fd5b50620018b5600480360360208110156200189e57600080fd5b81019080803590602001909291905050506200832e565b005b348015620018c457600080fd5b50620018f460048036036020811015620018dd57600080fd5b810190808035906020019092919050505062008331565b604051808273ffffffffffffffffffffffffffffffffffffffff1673ffffffffffffffffffffffffffffffffffffffff16815260200191505060405180910390f35b3480156200194357600080fd5b506200197d600480360360408110156200195c57600080fd5b8101908080359060200190929190803590602001909291905050506200893c565b6040518082815260200191505060405180910390f35b348015620019a057600080fd5b50620019ab62008ca8565b6040518082815260200191505060405180910390f35b6000620019f17f269b98238e7be55b5d7a3db79f2a96a0e9fa4e47593a6bb52d82c25d08facd7e6001026200832e565b62001a1f7fa0a2fde32d4e52005b78eac14a1ab6ae68b38ec56c08824fdb8abe489653882d6001026200832e565b62001a4d7f1879b1107adb408f8af76f8f45ac4e99c6f1bcc9102431bca363de52c073b1dd6001026200832e565b62001a7b7fd7067e1fc31ce2497d1aad67288494aad7eff15e9ad64f38f62ac1f1944306916001026200832e565b62001a8f62001a8962008ce1565b62003614565b151562001b04576040517f08c379a00000000000000000000000000000000000000000000000000000000081526004018080602001828103825260188152602001807f5265737472696374656420746f204f70657261746f72732e000000000000000081525060200191505060405180910390fd5b62001b327f789ba8c5ad5c32a80dfff31774c44fcc100d45bdb016459c014ebdcb9ac242226001026200832e565b62001b607f02ecd88ec5aa7f79e1b04fa2d5196f70633b82efea766ec554a5367eb186c0ed6001026200832e565b62001b8e7f368099d1d25419c5f165811893069d50b1bef4a52e6fb1473e5347f2da054c1b6001026200356a565b62001bbc7f718e552333072fe9f0e280503446b85db4d397dcbbd7da5534687e68eb4ab0466001026200356a565b62001bea7fe567cdfe173eb10f1bee6c3048ad125eea33fb649703b5d955d49a30030c1fda6001026200356a565b62001c187f2b20609d45adc11ac7cc8aede05ca1affe0d5abb1a348923d89737fa82a626666001026200356a565b60a660009054906101000a900473ffffffffffffffffffffffffffffffffffffffff1673ffffffffffffffffffffffffffffffffffffffff166323b872dd8430856040518463ffffffff167c0100000000000000000000000000000000000000000000000000000000028152600401808473ffffffffffffffffffffffffffffffffffffffff1673ffffffffffffffffffffffffffffffffffffffff1681526020018373ffffffffffffffffffffffffffffffffffffffff1673ffffffffffffffffffffffffffffffffffffffff1681526020018281526020019350505050602060405180830381600087803b15801562001d1257600080fd5b505af115801562001d27573d6000803e3d6000fd5b505050506040513d602081101562001d3e57600080fd5b8101908080519060200190929190505050151562001e10576040517f08c379a000000000000000000000000000000000000000000000000000000000815260040180806020018281038252604d8152602001807f476c7577615072697a654c696e6b65644163636f756e743a20556e61626c652081526020017f746f2073656e6420616d6f756e7420746f206465706f73697420746f2061205381526020017f6176696e67204163636f756e740000000000000000000000000000000000000081525060600191505060405180910390fd5b62001e3e7f729930684f397b559dde247f5e52caff319c923c621ba0382ade087b796413246001026200356a565b62001e6c7f08647ebbc4d563afe348610b41eebd13565e1f301848af7da8ccbeed59ef98bd6001026200356a565b62001e9a7f87da49d6dbf3dc25f33a5da747ad282ca057a11d49c7125c9b65c311ddbf07616001026200356a565b62001ea9838342600062008ce9565b905092915050565b600062001ee17f8ef3a2c3240e4fed75685458a30e1852c1e366c8a3b897910fa24f0e9c12a393600102620044a4565b62001f0f7f9b2d7cec472af26dd1bd892afafe2be066b09e44a7474e6389d058285c4b9598600102620044a4565b62001f3d7f050340438b0b1f0f74eb1ff71edc211936f7fbfc40a7bf8e9ffa724dc49364f4600102620044a4565b60336000838152602001908152602001600020600201549050919050565b600062001f8b7ffd7e2637835a60722c80d268652d57225b15dde47b888629fcd49b6f443284bc6001026200832e565b62001fb97fef0ee839a87e09beff700b1545467b1e7edec5145e69a952185625b7febbbeaf6001026200832e565b62001fe77fbdf835ee0fe59519e68e959a2766d368864459c142b651dc6d6cc62e98a492876001026200832e565b62001ff760006001028362004f80565b9050919050565b60008060008060008060008060008060006200203d7f25c9d0ffdc168da5ca5a9edfe4529e7b902a78a5f6c9647ce9cb177f02a8ac3e6001026200356a565b6200206b7f30be0bc5f9b6350dfe8facb2ea36a5912023737f69cd70a479e75f62f92514176001026200356a565b620020997f79c71ca22ffb61c2c72e4170a9b068447cbcb91e3747b1e362391715cd8d94cb6001026200356a565b61011a60029054906101000a900461ffff169550620020db7f8a16c72f3d08964d4b71e36810ab99653e2f46d2a9bf826bd1cd8478aba4ccdf6001026200356a565b620021097f4c5a6d99af1d45b4628e99e4b269c0176ad4768b1613c46f64919d4f12c5b5006001026200356a565b61011a60049054906101000a900463ffffffff1692506200214d7f9abe30724f1c1e411ce654e9058954211a49ab0e32f5e13424885f98970542106001026200356a565b6200217b7f87ab8e0fce645dd5495297a7416c7077ce2f4d6c38f22b9b86c55bc4521599936001026200356a565b61011a60009054906101000a900460ff169050620021bc7f3016d6c65356c6bd6072f49bf42e8a5a55948337998dc23426da3360cf2578ed6001026200356a565b620021ea7f63690ab96e941ffb1f96dfb7a8fcf5c5b8710583e7cb9e1cc190cc5a7dee65786001026200356a565b620021f4620031f8565b809b50819c50829d50839e50849f505050505050620022367f5a6933ab24684a28b8245d9e8f5de430c12f8739fc19593243d1dcfbd07f32aa6001026200356a565b620022647f20cca562ee167233012a43d4054b1386074f09acb3ca01b39fb39ef8615d4a9d6001026200356a565b6200226e62008df9565b809450819650829750505050909192939495969798999a565b620022b57fb10bf9abe0342730296765bd2cd0c9a5ea98992024bec04a1e36f58f521260276001026200832e565b620022e37f13cdd538e624b7d3380c6e79d8ae423ccc25837f48aea5f0afebdca7d08c9e216001026200832e565b620023117feffda485d19a3eece6b6ab860484e848f4781862b85aaf4178964fcf82bb3e1f6001026200832e565b6200235b60405180807f4f50455241544f52000000000000000000000000000000000000000000000000815250600801905060405180910390206200235562008ce1565b62002b1b565b565b60006200238d7f5ebd6d88fb36938184f1410d949c16a4bc91cb13d0f07cb98645fab8352643c86001026200356a565b620023bb7f5e8f52e2588f032fb0401ec72f140df28676aa3e443604207fb07411f49704856001026200356a565b620023e97f756d4697b99f9470f2788e3d48f1981b182d2f71a8abffb308cfa8bc5140abc96001026200356a565b62002408620023f762008ce1565b6200240162008ce1565b8462008ed2565b9050919050565b50565b620024407fb74ad924ba00500175ccb9c922e90ece5516bede925bc063783bc6086080a705600102620044a4565b6200246e7fc538a949ad73d85fa871d4fe7b7caf55c98db10decb79e8201e5b229bf49f8d9600102620044a4565b6200249c7f35ef7fe8d6d02844d6863bb6c55f0d1e296384393834f2824348a5a3fe583ff9600102620044a4565b620024ca7fe3926445fba9229f612ea4ab3450183300047551d9413fe24bf861e541ee22b4600102620044a4565b620024f56033600084815260200190815260200160002060020154620024ef62008ce1565b62004f80565b151562002590576040517f08c379a000000000000000000000000000000000000000000000000000000000815260040180806020018281038252602f8152602001807f416363657373436f6e74726f6c3a2073656e646572206d75737420626520616e81526020017f2061646d696e20746f206772616e74000000000000000000000000000000000081525060400191505060405180910390fd5b620025be7f178ba80f02f74abd0ff251d2ea78ec810b40bec9630b6a70cdfbec8d0795e142600102620044a4565b620025ec7fec551c3ea353e36cbba2586629cb6098113180911ee1a321937b05ae2a2752b6600102620044a4565b6200261a7f84fcfc621d3e05319f4172e0bac43d08f99c5f386a82d921c479c6bf1caa5b9e600102620044a4565b62002626828262009308565b5050565b60006200265a7f269b98238e7be55b5d7a3db79f2a96a0e9fa4e47593a6bb52d82c25d08facd7e6001026200832e565b620026887fa0a2fde32d4e52005b78eac14a1ab6ae68b38ec56c08824fdb8abe489653882d6001026200832e565b620026b67f1879b1107adb408f8af76f8f45ac4e99c6f1bcc9102431bca363de52c073b1dd6001026200832e565b620026e47fd7067e1fc31ce2497d1aad67288494aad7eff15e9ad64f38f62ac1f1944306916001026200832e565b620026f8620026f262008ce1565b62003614565b15156200276d576040517f08c379a00000000000000000000000000000000000000000000000000000000081526004018080602001828103825260188152602001807f5265737472696374656420746f204f70657261746f72732e000000000000000081525060200191505060405180910390fd5b6200279b7f789ba8c5ad5c32a80dfff31774c44fcc100d45bdb016459c014ebdcb9ac242226001026200832e565b620027c97f02ecd88ec5aa7f79e1b04fa2d5196f70633b82efea766ec554a5367eb186c0ed6001026200832e565b620027f77f1da074cd209bb98cb1ed92e10f84c0bd0905d7895e1a90abbc0ec55f552c55c560010262004017565b620028257f05557c268049632223725ac5fbcac96be613f1f39ebb0c66b2a5ce1fef6766f360010262004017565b620028537f38c27c1ab8f0361d751c7a7d31af7108bf74b972b354f3e87d2947dfb234f7ee60010262004017565b620028817f4d1386019cdc91c32c15cbc29ec10cf26e357cd99a352a844a455e20203b5de960010262004017565b60a660009054906101000a900473ffffffffffffffffffffffffffffffffffffffff1673ffffffffffffffffffffffffffffffffffffffff166323b872dd8530866040518463ffffffff167c0100000000000000000000000000000000000000000000000000000000028152600401808473ffffffffffffffffffffffffffffffffffffffff1673ffffffffffffffffffffffffffffffffffffffff1681526020018373ffffffffffffffffffffffffffffffffffffffff1673ffffffffffffffffffffffffffffffffffffffff1681526020018281526020019350505050602060405180830381600087803b1580156200297b57600080fd5b505af115801562002990573d6000803e3d6000fd5b505050506040513d6020811015620029a757600080fd5b8101908080519060200190929190505050151562002a79576040517f08c379a000000000000000000000000000000000000000000000000000000000815260040180806020018281038252604d8152602001807f476c7577615072697a654c696e6b65644163636f756e743a20556e61626c652081526020017f746f2073656e6420616d6f756e7420746f206465706f73697420746f2061205381526020017f6176696e67204163636f756e740000000000000000000000000000000000000081525060600191505060405180910390fd5b62002aa77f4627239672f918d845fbfcfdeefcad47d8c224d774212adb9d571401ab2e333960010262004017565b62002ad57ff92afa7ef1cf507487250a8a26924a819929595cfbe8a3e64f955a2e28e95d5460010262004017565b62002b037f58ded34fa6ef5f8fc7bc7a3bcb1e9d553491b7c8f90393d1eb3150ca0b1243bc60010262004017565b62002b12848484600062008ce9565b90509392505050565b62002b497fd93c5a94a5b1886c0bb5575c3cca63b6410bf5cc633908251d561210acc14eaa600102620044a4565b62002b777f52b73aa8f50ab99b6810012a79aa4f25995f134e8c54dbcb5d80e568f5fdfbe7600102620044a4565b62002ba57f4de32a619436a15decb84a173b4469efaa235be2016b7657229d7bb4d915f167600102620044a4565b62002bd37fd8479504df472c40b9d2d46578fc0bad271dba561f3c3bfae8432ee4398cd9a8600102620044a4565b62002bdd62008ce1565b73ffffffffffffffffffffffffffffffffffffffff168173ffffffffffffffffffffffffffffffffffffffff1614151562002ca6576040517f08c379a000000000000000000000000000000000000000000000000000000000815260040180806020018281038252602f8152602001807f416363657373436f6e74726f6c3a2063616e206f6e6c792072656e6f756e636581526020017f20726f6c657320666f722073656c66000000000000000000000000000000000081525060400191505060405180910390fd5b62002cd47f056ca1d611325f492ec9a258615105c0c61c1935da3efbb61fbb153378d318dd600102620044a4565b62002d027fb300cb213a808a8d25947dc127c3188ce2125091b485b407bb84a476fe38d0dc600102620044a4565b62002d307f7b5ca71ff0c3170626af9f1558f947e9704f6758fabb43f6074fe812966bce56600102620044a4565b62002d3c8282620094e9565b5050565b606062002d707f4055094ee938ac478c67721fa04da3c5e6130172fcf7895af3203ad5d70324056001026200356a565b62002d9e7f55fb64c4d4d6cf94ce8a413d66cc411b6dca416c50fa2be261047c4c5e507a7f6001026200356a565b62002dcc7fd436c8654e955acd1211f29a5aa18846bedb3f78d5ce3cc2fa9636ad9194a72e6001026200356a565b600062002dfc7fa1ce5180c6ab847e296c90ab909d21b74a90bd346200740c09675152f17d324f6001026200356a565b62002e2a7fc06f9ab0a42067a3032004a1a614e8eb2400747d61d289999b531b49d72db4b26001026200356a565b60008090505b609b80549050811015620031f15762002e6c7ffc1a22c806fb858100e543a0113f5030549cf1d5e9914e9ff96548df495877026001026200356a565b62002e9a7f652e117f8199b91a755823b95c9a7ccbe183fafb662283f460b330e5ba66a30a6001026200356a565b600060e260008681526020019081526020016000206000609b8481548110151562002ec157fe5b9060005260206000200160009054906101000a900473ffffffffffffffffffffffffffffffffffffffff1673ffffffffffffffffffffffffffffffffffffffff1673ffffffffffffffffffffffffffffffffffffffff1681526020019081526020016000208054905014801562002fb45750600060a76000609b8481548110151562002f4957fe5b9060005260206000200160009054906101000a900473ffffffffffffffffffffffffffffffffffffffff1673ffffffffffffffffffffffffffffffffffffffff1673ffffffffffffffffffffffffffffffffffffffff16815260200190815260200160002060040154115b80156200306257506001600481111562002fca57fe5b60a76000609b8481548110151562002fde57fe5b9060005260206000200160009054906101000a900473ffffffffffffffffffffffffffffffffffffffff1673ffffffffffffffffffffffffffffffffffffffff1673ffffffffffffffffffffffffffffffffffffffff16815260200190815260200160002060060160009054906101000a900460ff1660048111156200306057fe5b145b15620031b457620030967f04ac96bf3f7bedf438d92468329e5048138da52c598656dd27de0b9a976758866001026200356a565b620030c47fb92dbc1cac19b913178a237a11f0087dfc4f8ddcb0b81ce1296c9792a388d4fb6001026200356a565b620030f27f833f3b4341ff58a0e7be1edbb5dfc0dc374fc9896a676dbbe733866d03cf74d56001026200356a565b609b818154811015156200310257fe5b9060005260206000200160009054906101000a900473ffffffffffffffffffffffffffffffffffffffff1683838151811015156200313c57fe5b9060200190602002019073ffffffffffffffffffffffffffffffffffffffff16908173ffffffffffffffffffffffffffffffffffffffff1681525050620031a67f3a04ad7e9e78a5c1fc6cff605b009e257dee910e66faa994e8afe9c7316045a26001026200356a565b8180600101925050620031e3565b620031e27fccce1dbaba59abcf83396e478aed4d6e0fcfd31a26264a2061cb7b2ad61cb5f26001026200356a565b5b808060010191505062002e30565b5050919050565b60008060008060006200322e7fb8d6fe4d206a56650f24d72f070f71bdbd4efc05528abdcbdf6afc84c501f49f60010262007339565b6200325c7fb99a31350ae3897b0324900b09a8f7d7bb6fa19f90c71b319f378a95557fb7a560010262007339565b6200328a7f4ca501c0cb561651c33ae36670e607a28c9eb1fb76b011947bd0e9074831149b60010262007339565b60a460009054906101000a900463ffffffff1660a460049054906101000a900463ffffffff1660985460995460a660009054906101000a900473ffffffffffffffffffffffffffffffffffffffff16945094509450945094509091929394565b60006200331a7f6c875126be1726ab2fc657648964c34d167c9eea09e982826bf5fe2b9ca2d3246001026200832e565b620033487f62099aa8d5be0c25cfa94c8b816435976ac44df70e57c0cd61c9aa5a6e8ea5076001026200832e565b620033767f453557595d5569438781ff2bffda3521e47a9e00825bc9def362d351cf3e1c746001026200832e565b620033a47f36164c6dee9768d45bd325d105734bbcb52f53401478cd02c4ecad63c18b8e686001026200832e565b620033b8620033b262008ce1565b62001f5b565b15156200342d576040517f08c379a00000000000000000000000000000000000000000000000000000000081526004018080602001828103825260158152602001807f5265737472696374656420746f2041646d696e732e000000000000000000000081525060200191505060405180910390fd5b6200345b7fc2ac55851c10e49d80d29047d52eddd577a7571d2b2f4dad9e5fcaa5c07a9bb26001026200832e565b620034897fb725922c818f0782603dba098ae6ebcd63326dfb07c08fa6ef52bb86e381fb366001026200832e565b620034b77f27fd17f8241eb741602bcbf29405d1096a5a1e5ba53cb986b997c65dfbce6bac6001026200356a565b620034e57f2b542bfe75d9773d4aa5b87ce095933ae3dae71347b73449f5da958e6aa9c6e66001026200356a565b620035137f4e5d758321caddaa3eccdfa5f9696124b9bca2a340cc5db0b7f8832cc8528a3a6001026200356a565b62003562838360a760008773ffffffffffffffffffffffffffffffffffffffff1673ffffffffffffffffffffffffffffffffffffffff1681526020019081526020016000206004015462008ed2565b905092915050565b50565b60606200359d7f0d0494f3813a25cd964f7c272cdf7778e5ebe34f82c85fa900174a4ec414bb796001026200356a565b620035cb7f20c8a1a4e166c098a418f14ca157f928aa778528e3a57712569ec38b5249043e6001026200356a565b620035f87e15b3931a5cbcfdb94468d8463d57e10b927ff3f5dec27f29fed6582db461236001026200356a565b6200360d826200360762008ce1565b620096ca565b9050919050565b6000620036447fc0aad2c1f4c71d0d45099bfc691c3cd5b001f96af75e9e3b342f389f86c261476001026200832e565b620036727f86524858a643a3d44641956918739c1a8adbfa262f51365867258a74777ab6e86001026200832e565b620036a07f34882e832c710efee608a8c31c6b4f81a2882df9495d9d914960835bc5ed3a6f6001026200832e565b620036e160405180807f4f50455241544f52000000000000000000000000000000000000000000000000815250600801905060405180910390208362004f80565b9050919050565b620037167f6c875126be1726ab2fc657648964c34d167c9eea09e982826bf5fe2b9ca2d3246001026200832e565b620037447f62099aa8d5be0c25cfa94c8b816435976ac44df70e57c0cd61c9aa5a6e8ea5076001026200832e565b620037727f453557595d5569438781ff2bffda3521e47a9e00825bc9def362d351cf3e1c746001026200832e565b620037a07f36164c6dee9768d45bd325d105734bbcb52f53401478cd02c4ecad63c18b8e686001026200832e565b620037b4620037ae62008ce1565b62001f5b565b151562003829576040517f08c379a00000000000000000000000000000000000000000000000000000000081526004018080602001828103825260158152602001807f5265737472696374656420746f2041646d696e732e000000000000000000000081525060200191505060405180910390fd5b620038577fc2ac55851c10e49d80d29047d52eddd577a7571d2b2f4dad9e5fcaa5c07a9bb26001026200832e565b620038857fb725922c818f0782603dba098ae6ebcd63326dfb07c08fa6ef52bb86e381fb366001026200832e565b620038b37fd14e8c1d0c70855f3f901075500965984cbea219b1fa4a42db605c475f4bbee46001026200832e565b620038e17fbe47793fa43a6c9d58b424bbf96d50fa4160ae78cfe3c5dd4bc34ba1ea7213866001026200832e565b6200390f7f241ba548cc8253817305eb6cbd99b145edfcecbfaeaba1576d256fce484d5ab26001026200832e565b6200391f60006001028262002412565b50565b6000806000806000620039587f9a41d87efab0cc27782b615da93830a718cef13deaef96d471626a31bc8fd1c560010262007339565b620039867f83728831cbe135a745eed85073fc558befbea13a19d4b9770fbee58287534bdd60010262007339565b620039b47fc3e2b999117295b9bea137cbb921b04192f0066fbf1fd2c9d79ed9b0727eb57760010262007339565b600060a860008881526020019081526020016000209050620039f97f4e2b16b1b0644f6bc3a47b05ab1e8597b115c2a72699bdc20fad556b9cccc4fe60010262007339565b62003a277fb166f02045665ffa2ad499d796c42e71b1b8174bac0c60c1db73500d1a05cce160010262007339565b806000015481600101548260020160009054906101000a900473ffffffffffffffffffffffffffffffffffffffff1683600301548460040154955095509550955095505091939590929450565b600062003aa47f269b98238e7be55b5d7a3db79f2a96a0e9fa4e47593a6bb52d82c25d08facd7e6001026200832e565b62003ad27fa0a2fde32d4e52005b78eac14a1ab6ae68b38ec56c08824fdb8abe489653882d6001026200832e565b62003b007f1879b1107adb408f8af76f8f45ac4e99c6f1bcc9102431bca363de52c073b1dd6001026200832e565b62003b2e7fd7067e1fc31ce2497d1aad67288494aad7eff15e9ad64f38f62ac1f1944306916001026200832e565b62003b4262003b3c62008ce1565b62003614565b151562003bb7576040517f08c379a00000000000000000000000000000000000000000000000000000000081526004018080602001828103825260188152602001807f5265737472696374656420746f204f70657261746f72732e000000000000000081525060200191505060405180910390fd5b62003be57f789ba8c5ad5c32a80dfff31774c44fcc100d45bdb016459c014ebdcb9ac242226001026200832e565b62003c137f02ecd88ec5aa7f79e1b04fa2d5196f70633b82efea766ec554a5367eb186c0ed6001026200832e565b62003c417fc19f0b4a4e916d3aab5ee6a67cf4082301740aeb4deac8a10b8ec8e86e04c08f60010262004017565b62003c6f7f35fe757fe753d53c073be40ad54175ad1066d95d6e90b289c2f5449b4b5b517060010262004017565b62003c9d7f75df866b282cc89013550820baaff04c8e0bc7769196200566023aa2cb0fd38560010262004017565b62003ccb7f8796c50e5da3cead10bef3810e70abb282859911cbf2af4e592255be56c31ad260010262004017565b60a660009054906101000a900473ffffffffffffffffffffffffffffffffffffffff1673ffffffffffffffffffffffffffffffffffffffff166323b872dd8730886040518463ffffffff167c0100000000000000000000000000000000000000000000000000000000028152600401808473ffffffffffffffffffffffffffffffffffffffff1673ffffffffffffffffffffffffffffffffffffffff1681526020018373ffffffffffffffffffffffffffffffffffffffff1673ffffffffffffffffffffffffffffffffffffffff1681526020018281526020019350505050602060405180830381600087803b15801562003dc557600080fd5b505af115801562003dda573d6000803e3d6000fd5b505050506040513d602081101562003df157600080fd5b8101908080519060200190929190505050151562003ec3576040517f08c379a000000000000000000000000000000000000000000000000000000000815260040180806020018281038252604d8152602001807f476c7577615072697a654c696e6b65644163636f756e743a20556e61626c652081526020017f746f2073656e6420616d6f756e7420746f206465706f73697420746f2061205381526020017f6176696e67204163636f756e740000000000000000000000000000000000000081525060600191505060405180910390fd5b62003ef17f40240b5b56eaedb1a369ef4f20202534ffe6730995ec547da08747df2c2e680b60010262004017565b62003f1f7fbf5d23f0b6cacfe03f7facb43897158350b03f9fa277c1c5c2971e3ea0737d2a60010262004017565b62003f4d7f6ec3bd51b109b04bd4fad4fc87969f5f0c0977d7b7a3c1a1852fc8f7d59486cc60010262004017565b600062003fa187878787878080601f016020809104026020016040519081016040528093929190818152602001838380828437600081840152601f19601f820116905080830192505050505050506200983b565b91505062003fd27fee2150133aeb5c13ba66a960a23a8d782e1773f1c85b122475d81f4a2923eb1e60010262004017565b620040007f0582e571790f213b9db61ebac7c1034d82e5568014ea5e9a4c48da61d7a54e2d60010262004017565b6200400b816200a873565b91505095945050505050565b50565b6000806200404b7f2b0227bd0ac303a265db3d5d5aed277f7958ad37889d78eb0fbc207f7ef072a36001026200240f565b620040797f2459bffe89119e7f765dba0c69d9f56e9c5a84cf114d713c55cc1d6103944cad6001026200240f565b620040a77f6a1eba7c98dedf3c83fbdd13f534dfae6e1555b1abc3827f08a9dc7d0bcb4a6d6001026200240f565b600060e060008581526020019081526020016000209050620040ec7fedbf2e8ec86acd3317cbe2e59954608482107869daad39317d29bb832ec566b56001026200240f565b6200411a7f1e4c5363833c25365820aa63a423b8fe47c99d9a4612ad17829d7daf3df887656001026200240f565b60df60008260018480549050038154811015156200413457fe5b9060005260206000209060029182820401919006600c029054906101000a90046bffffffffffffffffffffffff166bffffffffffffffffffffffff168152602001908152602001600020600201549150620041b27f648787b6c7dff445e5877e30c431ead9dd6aa76466c6f6011f5f0c4c2cdac2b86001026200240f565b620041e07fa2403f20be91a7804397e7ab7bc81e5fc9bc0618a4fcced4ff51fa86c96e97946001026200240f565b60df6000826000815481101515620041f457fe5b9060005260206000209060029182820401919006600c029054906101000a90046bffffffffffffffffffffffff166bffffffffffffffffffffffff16815260200190815260200160002060010154925050915091565b60008060008060008060006060620042857f269b98238e7be55b5d7a3db79f2a96a0e9fa4e47593a6bb52d82c25d08facd7e6001026200832e565b620042b37fa0a2fde32d4e52005b78eac14a1ab6ae68b38ec56c08824fdb8abe489653882d6001026200832e565b620042e17f1879b1107adb408f8af76f8f45ac4e99c6f1bcc9102431bca363de52c073b1dd6001026200832e565b6200430f7fd7067e1fc31ce2497d1aad67288494aad7eff15e9ad64f38f62ac1f1944306916001026200832e565b620043236200431d62008ce1565b62003614565b151562004398576040517f08c379a00000000000000000000000000000000000000000000000000000000081526004018080602001828103825260188152602001807f5265737472696374656420746f204f70657261746f72732e000000000000000081525060200191505060405180910390fd5b620043c67f789ba8c5ad5c32a80dfff31774c44fcc100d45bdb016459c014ebdcb9ac242226001026200832e565b620043f47f02ecd88ec5aa7f79e1b04fa2d5196f70633b82efea766ec554a5367eb186c0ed6001026200832e565b620044227f1d5c2fc305a56d3933adc82453ebbf4709053dacad61e77b46885b557845fdb26001026200356a565b620044507f97967807be6d59c3069d8adefa9d23201decd26da8cb1b79524f45d5e766e33c6001026200356a565b6200447e7fb42a73083c1befee3c06cea8ca58d55bf5f0c4fe40bbdf9e078a6c1cafcfc0026001026200356a565b62004489896200ad19565b97509750975097509750975097509750919395975091939597565b50565b620044d57f5303ee691770746a94c441c3c1db6f6814117793a7840e90eb05ab2e649310636001026200832e565b620045037ff44ed11abb9d946c2a432fbe662d20f04907a2376ad219db63c38ca689de88f66001026200832e565b620045317fa3b8cd17878a18b96beb23c675e90566c628339c690cc02fef2e6714e599336b6001026200832e565b60006200453d62008ce1565b90506200456d7fd043dcbf206250dd68a1ab9b20e9de58383ca14921d02cd31d12f14d0bb028316001026200832e565b6200459b7f0ccac8621a40ca7b127c6496eeb6b54e74cc4e17a98af94873762388c2e983e66001026200832e565b620045ab60006001028262002b1b565b620045d97f538432c19549aadca9e46abd21c2247ce49f9f0f49908507b517e89a1ba9fef26001026200832e565b620046077f3bd31538f2a58cfe062227505d07a18feb1647396af308980226ca2806c11fb56001026200832e565b6200464860405180807f4f50455241544f52000000000000000000000000000000000000000000000000815250600801905060405180910390208262002b1b565b50565b60006200467b7f269b98238e7be55b5d7a3db79f2a96a0e9fa4e47593a6bb52d82c25d08facd7e6001026200832e565b620046a97fa0a2fde32d4e52005b78eac14a1ab6ae68b38ec56c08824fdb8abe489653882d6001026200832e565b620046d77f1879b1107adb408f8af76f8f45ac4e99c6f1bcc9102431bca363de52c073b1dd6001026200832e565b620047057fd7067e1fc31ce2497d1aad67288494aad7eff15e9ad64f38f62ac1f1944306916001026200832e565b620047196200471362008ce1565b62003614565b15156200478e576040517f08c379a00000000000000000000000000000000000000000000000000000000081526004018080602001828103825260188152602001807f5265737472696374656420746f204f70657261746f72732e000000000000000081525060200191505060405180910390fd5b620047bc7f789ba8c5ad5c32a80dfff31774c44fcc100d45bdb016459c014ebdcb9ac242226001026200832e565b620047ea7f02ecd88ec5aa7f79e1b04fa2d5196f70633b82efea766ec554a5367eb186c0ed6001026200832e565b620048187ffafaffeadd993c648db4b781b053ee5e8ca2f53885373743c8fb971094627ad26001026200356a565b620048467f93584fdf9d5e544d69a8221c69ec482c8c3667b7ae1724010969ba0fdc8d996d6001026200356a565b620048747f4a03727d09a1821a501647ddf08dea17ed400d63548ee729a05c9c10dc02d3466001026200356a565b620048a27f80c23ce64761eed81be3734f6da2c49dc08231268cfa33a7f056f199eb74a5166001026200356a565b60e7600083815260200190815260200160002060009054906101000a900460ff161515156200495f576040517f08c379a00000000000000000000000000000000000000000000000000000000081526004018080602001828103825260308152602001807f476c7577615072697a654c696e6b65644163636f756e743a205072697a65206881526020017f6173206265656e2070616964206f75740000000000000000000000000000000081525060400191505060405180910390fd5b6200498d7fae31ef27c010bdb7b93eab4adfb0bd419e64933c7b95fc9f2d9c0adc71127d476001026200356a565b620049bb7f0e7d38f1012f17da05ff676dbab6f7f9d6828f3e16662e2a90b67d399284e7206001026200356a565b620049e97f6618da1549452f2429f5049afdcabd953cc8529c07af36c8393904efcd8b02fa6001026200356a565b6000620049f68362008331565b905062004a267f3321fcafae141c78c8bb00723976f89387f71987edf018ef8208223d6b1109556001026200356a565b62004a547f2311c06027e584c9d8cdbe3d329b9d354b9393553854c36848867c306fc8a8fc6001026200356a565b600062004ad860a460049054906101000a900463ffffffff1663ffffffff1662004ac960a460009054906101000a900463ffffffff1663ffffffff1662004aba60e660008a81526020019081526020016000205460de546200af5f90919063ffffffff16565b6200afea90919063ffffffff16565b6200b0bb90919063ffffffff16565b905062004b087f25902f04a75a5ca4ebb7d349d7127eb9d6859f77a6e94d2a0413914b596df0f16001026200356a565b62004b367fe9bf8cfe91b012c845e69a39fcab1cf9b0fb2770489d7f405beb7b8109b98fb56001026200356a565b600160e7600086815260200190815260200160002060006101000a81548160ff02191690831515021790555062004b907f87dbf1010380f7b5d2388eebe2966c0739ebf2aa832718fc7c3a3683bcda98276001026200356a565b62004bbe7f763b98737e2bf792ba27dfce63d5d0975a454d5a1c9796e35a680f4b2c3293b46001026200356a565b600073ffffffffffffffffffffffffffffffffffffffff168273ffffffffffffffffffffffffffffffffffffffff1614151562004cf95762004c237f8315f6f6504d1011564193c317eb313ac9f2f24d44a9e1869f345f6c6049802c6001026200356a565b62004c517fbdaf048c4f4e51c8514a5c8018f5d5429d8b7d251fa95a2ad237aeffb72a69196001026200356a565b62004c7f7f79b17ab831c01453e79aab9b7e1824b33f87227851e40719f6c448349f386c576001026200356a565b600060de8190555062004cb57fdcf861aa81927803f5331de1bbb53778150e98b9a9eb6fe55492298ed19220286001026200356a565b62004ce37f0d636332acf1d11537a5ee7d7c99a3368bf8edfc1daad2fd0987a5dcce0943656001026200356a565b62004cf2828242600162008ce9565b5062004d94565b62004d277fe5bc9bb8b2a5e1f0c06350d0a202628a44b1d86efa8cab093a1d242485bfc7f06001026200356a565b62004d557f9d10e79755750cd7fd4123974725a16cafda5ec332f217435cb749f4441aac4a6001026200356a565b62004d837f1f0e5cfe644d431901b4e062ee04b2372427816318a24e034b53035e98b5176d6001026200356a565b8060de600082825401925050819055505b62004dc27fa2d9ca12a105c1b9c9f984bd35b67fcd1d8c42191c8d0f49ec7eeacd77a037cf6001026200356a565b62004df07f85367af417a8f9c4dc00bfa5762d3faf5d344b9145eb9f45e3453645be1893c76001026200356a565b7f75060f9e79552df167b73353fee6237a75bb5ba8ea022f77224e32f152138bcb8282604051808373ffffffffffffffffffffffffffffffffffffffff1673ffffffffffffffffffffffffffffffffffffffff1681526020018281526020019250505060405180910390a162004e897f2b1b587d61a5f2df047f2a25fbc53db0a1df00fe71f16a632ce69eee7052572c6001026200356a565b62004eb77f45ceb8a47ea04af4e0ca7cb320450c339331c16832eba036dbddd703621f9d396001026200356a565b600192505050919050565b600062004ef27f5c8f19add2d84aca7a8087815504b380c1919c10d917dfe0e6f3426480626925600102620044a4565b62004f207ffc62441d050a63d198d2f97f5a25bb420519fd407e5d50f08312815303d5dd21600102620044a4565b62004f4e7fd64e96f3e91efc239c01bf30d1d8ff0775b4d6b65061ba43ed41ed007d276239600102620044a4565b62004f7882603360008681526020019081526020016000206000016200b10790919063ffffffff16565b905092915050565b600062004fb07f9907d011a40ed9cb525bc9703c302f3d71ee5b67daac1b37a8ef10b968f4f268600102620044a4565b62004fde7f986fc817075028f0f7a6cb089481ce6acf40cfa9302d016869b03d52c9d08c88600102620044a4565b6200500c7f9890401fd59cad5dec194d56f8e1f971f8f878bef0e4ff70e116fd19483f5662600102620044a4565b6200503682603360008681526020019081526020016000206000016200b1ae90919063ffffffff16565b905092915050565b6200506c7f6c875126be1726ab2fc657648964c34d167c9eea09e982826bf5fe2b9ca2d3246001026200832e565b6200509a7f62099aa8d5be0c25cfa94c8b816435976ac44df70e57c0cd61c9aa5a6e8ea5076001026200832e565b620050c87f453557595d5569438781ff2bffda3521e47a9e00825bc9def362d351cf3e1c746001026200832e565b620050f67f36164c6dee9768d45bd325d105734bbcb52f53401478cd02c4ecad63c18b8e686001026200832e565b6200510a6200510462008ce1565b62001f5b565b15156200517f576040517f08c379a00000000000000000000000000000000000000000000000000000000081526004018080602001828103825260158152602001807f5265737472696374656420746f2041646d696e732e000000000000000000000081525060200191505060405180910390fd5b620051ad7fc2ac55851c10e49d80d29047d52eddd577a7571d2b2f4dad9e5fcaa5c07a9bb26001026200832e565b620051db7fb725922c818f0782603dba098ae6ebcd63326dfb07c08fa6ef52bb86e381fb366001026200832e565b620052097fab863da377c52c8f6067472a5ca8df2a2ce6a6f299e205cd7a166b6a8ee319166001026200832e565b620052377fc04152ee14431e8518d6e1e3408bae4047950f36986878ba23f2b59e8842f0de6001026200832e565b620052657f601f3a50cc2b63877d5d7c9ae87face277a00a3ba6a3868f835b1048a156698f6001026200832e565b620052a660405180807f4f50455241544f52000000000000000000000000000000000000000000000000815250600801905060405180910390208262002412565b50565b60008060008060008060006060620052e47f041147629463f6e0c13e8ca4166a2b5a8b446ac5719c470051757b4feb502f1f60010262007339565b620053127f3fd7aa65e03ed2344eb3fa764176d1b28a4ca40d8010176ce7b36e7532250c6e60010262007339565b620053407f17b6405cea1f8b1c87f130fefc195e5fa52bc3b4580a0f3bba8cc7fda027501460010262007339565b620053546200534e62008ce1565b6200ad19565b975097509750975097509750975097509091929394959697565b600060010281565b6000620053a67f269b98238e7be55b5d7a3db79f2a96a0e9fa4e47593a6bb52d82c25d08facd7e6001026200832e565b620053d47fa0a2fde32d4e52005b78eac14a1ab6ae68b38ec56c08824fdb8abe489653882d6001026200832e565b620054027f1879b1107adb408f8af76f8f45ac4e99c6f1bcc9102431bca363de52c073b1dd6001026200832e565b620054307fd7067e1fc31ce2497d1aad67288494aad7eff15e9ad64f38f62ac1f1944306916001026200832e565b620054446200543e62008ce1565b62003614565b1515620054b9576040517f08c379a00000000000000000000000000000000000000000000000000000000081526004018080602001828103825260188152602001807f5265737472696374656420746f204f70657261746f72732e000000000000000081525060200191505060405180910390fd5b620054e77f789ba8c5ad5c32a80dfff31774c44fcc100d45bdb016459c014ebdcb9ac242226001026200832e565b620055157f02ecd88ec5aa7f79e1b04fa2d5196f70633b82efea766ec554a5367eb186c0ed6001026200832e565b620055437fe1633e7c3fc7291154254773c4d17ae2d4c6cdca4acb173c408eb97759281de660010262004017565b620055717fec1d2dd324ce8b20f5e63c6b2e7e569af3e984db7198b65a4e5dd0297526899c60010262004017565b6200559f7ffe5ba6a042c32282c2d40cb08b50e7272f21c41cfafbeaa8d47d83837a9dd22660010262004017565b8160e5600085815260200190815260200160002081905550620055e57f99f7476be0dd70678dd278e7ebe497f5f744fd25a5e1fdca2649007b916b252860010262004017565b620056137f2691f6ddcfa30a6d261a199a174c6e0e1dc3ad14349f200b83bc8d09c45c5a6460010262004017565b81905092915050565b6200564a7f269b98238e7be55b5d7a3db79f2a96a0e9fa4e47593a6bb52d82c25d08facd7e6001026200832e565b620056787fa0a2fde32d4e52005b78eac14a1ab6ae68b38ec56c08824fdb8abe489653882d6001026200832e565b620056a67f1879b1107adb408f8af76f8f45ac4e99c6f1bcc9102431bca363de52c073b1dd6001026200832e565b620056d47fd7067e1fc31ce2497d1aad67288494aad7eff15e9ad64f38f62ac1f1944306916001026200832e565b620056e8620056e262008ce1565b62003614565b15156200575d576040517f08c379a00000000000000000000000000000000000000000000000000000000081526004018080602001828103825260188152602001807f5265737472696374656420746f204f70657261746f72732e000000000000000081525060200191505060405180910390fd5b6200578b7f789ba8c5ad5c32a80dfff31774c44fcc100d45bdb016459c014ebdcb9ac242226001026200832e565b620057b97f02ecd88ec5aa7f79e1b04fa2d5196f70633b82efea766ec554a5367eb186c0ed6001026200832e565b620057e77f548ad73e78a72a1f172ccc5cb47debddfb89542ec1a61a821db15afd182a9fd26001026200356a565b620058157f3bfca3da8a738e97b8d886da18a71c0cf0181e5451dd251db086ded623a858c36001026200356a565b620058437f87c7f9574e9f862bb7bf3b9ab9305e831b38f1da0ed3d427966be43fa0f4b2f46001026200356a565b8561011a60026101000a81548161ffff021916908361ffff1602179055506200588f7f293cc16895c033ce2f757f7593eac138ff75c77899c8072dab9b48949ff7809c6001026200356a565b620058bd7feadf27bffebf2c2d2002a7d7539979d6420915a24d053060d9f36bba807057ac6001026200356a565b8261011a60046101000a81548163ffffffff021916908363ffffffff1602179055506200590d7fb35829b702072203f709e0748491c3f1b289b2aae4713cfc8360dbe699b8a9646001026200356a565b6200593b7f635141b229dc79ffa55ded2a64ea2b76683daa859141926eb8f581ca170114e16001026200356a565b8061011a60006101000a81548160ff021916908360ff160217905550620059857fb196c774e48dbc0b072c431372a3db70bdaf6e5afd2490fd4ba14732699646506001026200356a565b620059b37fc67660cf410419900083eb1200a11fb544ab29325f82f01a3cbdb8b6ddf7116c6001026200356a565b620059c18a8a8a8a6200b26a565b620059ef7fda196891401d4a117d4158caba9e18b0eb05950b8249b583e45ea05c3681bacf6001026200356a565b62005a1d7fc062c3862d8b40cba4e6844b040853a31c3eb30841289529fa726d8c6956cebe6001026200356a565b62005a2a8585846200b45e565b50505050505050505050565b600062005a667f05d8020ed77dd35974d85bb5dd9b137908a0d9c891535590811ce5a1bbbf35276001026200240f565b62005a947f084d64cd933c61699f199bec00ba95f01c2cc72a58c8a946d9bdbbcb90263c406001026200240f565b62005ac27f7b9e4e2a27fd6da51f60883e7d09f7cf7664306c2c8dbe94b0bbefa3975ff6eb6001026200240f565b60de54905090565b62005af87f6c875126be1726ab2fc657648964c34d167c9eea09e982826bf5fe2b9ca2d3246001026200832e565b62005b267f62099aa8d5be0c25cfa94c8b816435976ac44df70e57c0cd61c9aa5a6e8ea5076001026200832e565b62005b547f453557595d5569438781ff2bffda3521e47a9e00825bc9def362d351cf3e1c746001026200832e565b62005b827f36164c6dee9768d45bd325d105734bbcb52f53401478cd02c4ecad63c18b8e686001026200832e565b62005b9662005b9062008ce1565b62001f5b565b151562005c0b576040517f08c379a00000000000000000000000000000000000000000000000000000000081526004018080602001828103825260158152602001807f5265737472696374656420746f2041646d696e732e000000000000000000000081525060200191505060405180910390fd5b62005c397fc2ac55851c10e49d80d29047d52eddd577a7571d2b2f4dad9e5fcaa5c07a9bb26001026200832e565b62005c677fb725922c818f0782603dba098ae6ebcd63326dfb07c08fa6ef52bb86e381fb366001026200832e565b62005c957f6b6789300eb743a8447edde74dfce42f76d507d74fabf8555209106a6cf6835d6001026200832e565b62005cc37fe963ba32f3b2b2511f3b61c6a1cf8ec3b8865be585223e913dad37234ec3dba76001026200832e565b62005cf17f4b1da260cff4143833d6e35ffde5e36b26a94146d2f068d1b4ae37ca6d0e94406001026200832e565b62005d3260405180807f4f50455241544f520000000000000000000000000000000000000000000000008152506008019050604051809103902082620078dd565b50565b600060019054906101000a900460ff168062005d57575062005d566200b614565b5b8062005d6f57506000809054906101000a900460ff16155b151562005e0a576040517f08c379a000000000000000000000000000000000000000000000000000000000815260040180806020018281038252602e8152602001807f436f6e747261637420696e7374616e63652068617320616c726561647920626581526020017f656e20696e697469616c697a656400000000000000000000000000000000000081525060400191505060405180910390fd5b60008060019054906101000a900460ff16159050801562005e5b576001600060016101000a81548160ff02191690831515021790555060016000806101000a81548160ff0219169083151502179055505b62005e897f393022c6513958094ae9695f8d67933c6544d29a4ea523a13eba68980c401f7d6001026200356a565b62005eb77f76fbf70f9e37cdbf0abbe0b052a8d0212d3d304102429f6acbd2bcd8c5df008f6001026200356a565b62005ee57fdb8e2acf1312570e3a61227f445eda3c98b271468bb53c9bed0bd65becacf9496001026200356a565b62005ef08c6200b62b565b62005f1e7fa1a19fb1247825d95283606016916ec6ec8e37c5f2ad5fdced0750a6cc08e57a6001026200356a565b62005f4c7f5d5de7d5f9639742fed66be9d198287fa8755b17827142fc3d66ad0bb510bf4e6001026200356a565b62005f5a8b8b8b8b6200b94f565b62005f887f194b306f275cb9c1c17191e85ee3ade9928110f6e9bec83c43976ac0c3729ea46001026200356a565b62005fb67fad845ad02235c3b3e73e0d72bfeebf383f5ac095ee75531788e098c71499d0ee6001026200356a565b62005fc38686856200be66565b62005ff17fc51de4b7ba2151e1aa21273f9b1f3edc5c7a946ce7d9fb6795c0b3003d84108d6001026200356a565b6200601f7fd6a9ad90b71477901b771c1f629ad703f4f8f0b1928ab3a32a4dd15a7592dae96001026200356a565b8361011a60046101000a81548163ffffffff021916908363ffffffff1602179055506200606f7f8d98dc0f3e19494991d32006e39a7135ac93b681ab5683157918cb6a5928587e6001026200356a565b6200609d7faf13df779c474736e086dfc488ab3b4c502a3579e73f3ae763df86a1ab6a566d6001026200356a565b60a660009054906101000a900473ffffffffffffffffffffffffffffffffffffffff1673ffffffffffffffffffffffffffffffffffffffff1663313ce5676040518163ffffffff167c010000000000000000000000000000000000000000000000000000000002815260040160206040518083038186803b1580156200612257600080fd5b505afa15801562006137573d6000803e3d6000fd5b505050506040513d60208110156200614e57600080fd5b810190808051906020019092919050505061011a60016101000a81548160ff021916908360ff160217905550620061a87f20078841711e64a5b98ec3944a4bdecdb85ab4ef8e503e6ab6e7173392a3a1c66001026200356a565b620061d67f925e994d23ade63b0e96f7965750618c971274254410983cecd8b9e0f98e75976001026200356a565b8661011a60026101000a81548161ffff021916908361ffff160217905550620062227f2388c2d1bfe708a9a3af24f79efe0edf00ee584e18ea9e849840429773a481686001026200356a565b620062507f77f28736636aaf386597976e1af058e10e5fa7a34ea98cf8a06b1e86c06cb8b76001026200356a565b8161011a60006101000a81548160ff021916908360ff16021790555080156200628e5760008060016101000a81548160ff0219169083151502179055505b505050505050505050505050565b6000620062cc7f512a38d588d989eed3acc08f88955428d188aadc8593fb741862cf90b8356c856001026200356a565b620062fa7f8b5e26a03f614d839bdc62629e23f3c30eba9ca7b6ad37da29bef6d8a8e7771d6001026200356a565b620063287fb49c4d7fb7335fbab90abc81be91735bfbe8f5f537a47adb184cb91ddcb7da706001026200356a565b6000620063587f4814b78bb01bb05a028be0034e2074d2ba2cb9eed22d35e3b0cf009bca8e24996001026200356a565b620063867fb0e66bbb244f9bc55435dead616fe6369d956e1056c2551f375c7ac583dad7d46001026200356a565b60008090505b609b80549050811015620068f857620063c87fecc66ef73617483bf11170cfc64ebf960a85e9f36829325d0d9826e0192e1f796001026200356a565b620063f67f75b90450686dc5909ec7bd91f9d9039a8235470207c73cf2577011bfeb11df536001026200356a565b600060e260008681526020019081526020016000206000609b848154811015156200641d57fe5b9060005260206000200160009054906101000a900473ffffffffffffffffffffffffffffffffffffffff1673ffffffffffffffffffffffffffffffffffffffff1673ffffffffffffffffffffffffffffffffffffffff16815260200190815260200160002080549050148015620065105750600060a76000609b84815481101515620064a557fe5b9060005260206000200160009054906101000a900473ffffffffffffffffffffffffffffffffffffffff1673ffffffffffffffffffffffffffffffffffffffff1673ffffffffffffffffffffffffffffffffffffffff16815260200190815260200160002060040154115b8015620065be5750600160048111156200652657fe5b60a76000609b848154811015156200653a57fe5b9060005260206000200160009054906101000a900473ffffffffffffffffffffffffffffffffffffffff1673ffffffffffffffffffffffffffffffffffffffff1673ffffffffffffffffffffffffffffffffffffffff16815260200190815260200160002060060160009054906101000a900460ff166004811115620065bc57fe5b145b15620068bb57620065f27f5c3662514b5af44deb909ab72f898700a46799266c1d08e11f48e236aed8a6416001026200356a565b620066207f3a61ce631acefc061885100fa00827cc97b5c93817dbb40c3c277a766f34cf716001026200356a565b6200664e7f04d34a11a149fd12dcc7da00db4db2c6c5b46f8d538990fe8181738b95ade60e6001026200356a565b62006798609b828154811015156200666257fe5b9060005260206000200160009054906101000a900473ffffffffffffffffffffffffffffffffffffffff168560a76000609b86815481101515620066a257fe5b9060005260206000200160009054906101000a900473ffffffffffffffffffffffffffffffffffffffff1673ffffffffffffffffffffffffffffffffffffffff1673ffffffffffffffffffffffffffffffffffffffff168152602001908152602001600020600401546200679260a76000609b888154811015156200672357fe5b9060005260206000200160009054906101000a900473ffffffffffffffffffffffffffffffffffffffff1673ffffffffffffffffffffffffffffffffffffffff1673ffffffffffffffffffffffffffffffffffffffff168152602001908152602001600020600401546200c20d565b6200c2da565b50620067c77f6f2a40a642b8505b64d55c106502289b831617a327f48a5304fbf5ac6ecb20686001026200356a565b8180600101925050620067fd7f8500a9e4fc4b9b3b89306ac2352ef2e779b3117b09ed076a56e5023356ba26fb6001026200356a565b6200682b7f8d699fbb555089289b574a77f3e959dac58459f1256ce603371095a6431dea2c6001026200356a565b61011a60049054906101000a900463ffffffff1663ffffffff168263ffffffff1611156200688757620068817f43a6edab168f6163758215350d38ecba2318dc3dfe37f21554317bc9fde29c636001026200356a565b620068f8565b620068b57f1c936b58a780d6df8d6a36740e9567a53ef3006cd36cc151c47b660b9dec57696001026200356a565b620068ea565b620068e97f8b0fb230919a0097f501a69a260dc5174fa7a8fe3cdc0b0132d393f7d63f610e6001026200356a565b5b80806001019150506200638c565b50620069277fe840861fbc2f535c5b7cc529c24d08ec62f6c96e1fa479ba6e3b0be1ec59e4cf6001026200356a565b620069557fb3d658da1354ab726d481db487cfbb93449a1e4a1ac798753b6dc10dbf7f2c826001026200356a565b8063ffffffff16915050919050565b6000620069947f269b98238e7be55b5d7a3db79f2a96a0e9fa4e47593a6bb52d82c25d08facd7e6001026200832e565b620069c27fa0a2fde32d4e52005b78eac14a1ab6ae68b38ec56c08824fdb8abe489653882d6001026200832e565b620069f07f1879b1107adb408f8af76f8f45ac4e99c6f1bcc9102431bca363de52c073b1dd6001026200832e565b62006a1e7fd7067e1fc31ce2497d1aad67288494aad7eff15e9ad64f38f62ac1f1944306916001026200832e565b62006a3262006a2c62008ce1565b62003614565b151562006aa7576040517f08c379a00000000000000000000000000000000000000000000000000000000081526004018080602001828103825260188152602001807f5265737472696374656420746f204f70657261746f72732e000000000000000081525060200191505060405180910390fd5b62006ad57f789ba8c5ad5c32a80dfff31774c44fcc100d45bdb016459c014ebdcb9ac242226001026200832e565b62006b037f02ecd88ec5aa7f79e1b04fa2d5196f70633b82efea766ec554a5367eb186c0ed6001026200832e565b62006b317fb295d8042ea636432b0d6b8fae098d9e074905ab5e0ffb12bdf403f66f0985136001026200356a565b62006b5f7f37e7a2243cb9b60fae59f298ac5e410b9ee3da01b60e269df0d473f1ade8afee6001026200356a565b62006b8d7fc6480e821c688e22d3e82c2b7b940c0be7c61e0e315527b0e86e1601ca34c8ea6001026200356a565b62006bbb7ff47c8889674a7e52abd5b06ec4f424727cbd8fd9929afc2a2af32a02cd648aef6001026200356a565b600073ffffffffffffffffffffffffffffffffffffffff168373ffffffffffffffffffffffffffffffffffffffff161415151562006cad576040517f08c379a00000000000000000000000000000000000000000000000000000000081526004018080602001828103825260498152602001807f476c7577615072697a654c696e6b65644163636f756e743a205265636970696581526020017f6e74206164647265737320666f7220696e766573746d656e74206d757374206281526020017f6520646566696e6564000000000000000000000000000000000000000000000081525060600191505060405180910390fd5b62006cdb7ff04088cbabb8d585b26f68b6092b512dca2cb2c5493f12ed2f9fab549554adc86001026200356a565b62006d097f2890737e77a3cc17df7a02c65a270a3f309255caef5f82ee5dab772d9a1790c86001026200356a565b62006d377fbe6762beacc210dc33f9fc38f75c42cb5d2fdbddd15b058626d0defde3c9dc146001026200356a565b600060a660009054906101000a900473ffffffffffffffffffffffffffffffffffffffff1673ffffffffffffffffffffffffffffffffffffffff166370a08231306040518263ffffffff167c0100000000000000000000000000000000000000000000000000000000028152600401808273ffffffffffffffffffffffffffffffffffffffff1673ffffffffffffffffffffffffffffffffffffffff16815260200191505060206040518083038186803b15801562006df557600080fd5b505afa15801562006e0a573d6000803e3d6000fd5b505050506040513d602081101562006e2157600080fd5b8101908080519060200190929190505050905062006e627fc06cdeb9de0bdff0bc7beaa12503083930fc0ea7ad5e61a11b9b24bca695cbd26001026200356a565b62006e907fbc4d0e511e71c00c44404d1e70c6cffe8be46b17fdc24ef16897be38811992366001026200356a565b62006ebe7f055d1a4cac8420fe2f0ef9125ad984bd62db843ef1bb2ac099b5cd8c7c7cda166001026200356a565b62006efb606462006eec61011a60009054906101000a900460ff1660ff16846200afea90919063ffffffff16565b6200b0bb90919063ffffffff16565b8382031015151562006fe7576040517f08c379a000000000000000000000000000000000000000000000000000000000815260040180806020018281038252606b8152602001807f476c7577615072697a654c696e6b65644163636f756e743a2074686520696e7681526020017f6573746d656e7420616d6f756e742077696c6c206d616b652074686520746f7481526020017f616c2062616c616e6365206c6f776572207468616e2074686520626f74746f6d81526020017f207468726573686f6c642e00000000000000000000000000000000000000000081525060800191505060405180910390fd5b620070157fa6fcc05efcef1c8d7f5e40a4ec55c6223d0dc4681bd293e43bbec8c230464e4a6001026200356a565b620070437ff5f75558e4fc864ab2178ef2f497edd527acad1bff1060fefc6dd41afbcea26b6001026200356a565b620070717fc5a5b2fe6449602cfdfd593c921b094a06d3e15840ad3f2d5dbb67794b38cc546001026200356a565b60a660009054906101000a900473ffffffffffffffffffffffffffffffffffffffff1673ffffffffffffffffffffffffffffffffffffffff1663a9059cbb85856040518363ffffffff167c0100000000000000000000000000000000000000000000000000000000028152600401808373ffffffffffffffffffffffffffffffffffffffff1673ffffffffffffffffffffffffffffffffffffffff16815260200182815260200192505050602060405180830381600087803b1580156200713757600080fd5b505af11580156200714c573d6000803e3d6000fd5b505050506040513d60208110156200716357600080fd5b810190808051906020019092919050505050620071a37f27709734daa1fa3965ca025f974860583ff8fed1c0cb907f6f902bc60c3904cf6001026200356a565b620071d17ffe87d3712ed22cc2ee45b38688206d2f3f0caec5b6c6d55e1840b6e5161ec9956001026200356a565b8373ffffffffffffffffffffffffffffffffffffffff167fc3f75dfc78f6efac88ad5abb5e606276b903647d97b2a62a1ef89840a658bbc3846040518082815260200191505060405180910390a26200724d7f06da2979439f848af7278d004f2f6f3c78aa696877984cdbbbba4a7bc489a5316001026200356a565b6200727b7f591bba838a957c9eae52cd278289638b1cbaffb28d4f0e2e3f02906ff6d145296001026200356a565b600191505092915050565b6000620072b67f66ef1e06f668d8e0c0d4f82edeefadbe8c80204e2512f9d3541f84665b1015fa600102620044a4565b620072e47fea6f68aaa4e23e70c3a5d466be2b66373b71c8e3a915c17e44d497696e9a338e600102620044a4565b620073127f7c8a75d871e37bb3adbbbea0732c29f9ce19596157638c44ae73c5d9909177a4600102620044a4565b62007332603360008481526020019081526020016000206000016200cc4a565b9050919050565b50565b60006200736c7f269b98238e7be55b5d7a3db79f2a96a0e9fa4e47593a6bb52d82c25d08facd7e6001026200832e565b6200739a7fa0a2fde32d4e52005b78eac14a1ab6ae68b38ec56c08824fdb8abe489653882d6001026200832e565b620073c87f1879b1107adb408f8af76f8f45ac4e99c6f1bcc9102431bca363de52c073b1dd6001026200832e565b620073f67fd7067e1fc31ce2497d1aad67288494aad7eff15e9ad64f38f62ac1f1944306916001026200832e565b6200740a6200740462008ce1565b62003614565b15156200747f576040517f08c379a00000000000000000000000000000000000000000000000000000000081526004018080602001828103825260188152602001807f5265737472696374656420746f204f70657261746f72732e000000000000000081525060200191505060405180910390fd5b620074ad7f789ba8c5ad5c32a80dfff31774c44fcc100d45bdb016459c014ebdcb9ac242226001026200832e565b620074db7f02ecd88ec5aa7f79e1b04fa2d5196f70633b82efea766ec554a5367eb186c0ed6001026200832e565b620075097f38aa1305f603f4ec08f0e4e11f69069f63ae3318a871bba30db256cdc97018746001026200356a565b620075377f3cfc783a768408811455978caa9bf7d2f198eebdd422fd62ea3537cc5c7f45336001026200356a565b620075657f87139bea7643af40218a01fa7ade30f3ec6fe61ce26abba96facd71ebea4e5b76001026200356a565b620075937fa24ff5d5ddf6b0e988cd3145ba25ea07c21af6331d64ae60062e8b3bf2c71ca06001026200356a565b60a660009054906101000a900473ffffffffffffffffffffffffffffffffffffffff1673ffffffffffffffffffffffffffffffffffffffff166323b872dd8630876040518463ffffffff167c0100000000000000000000000000000000000000000000000000000000028152600401808473ffffffffffffffffffffffffffffffffffffffff1673ffffffffffffffffffffffffffffffffffffffff1681526020018373ffffffffffffffffffffffffffffffffffffffff1673ffffffffffffffffffffffffffffffffffffffff1681526020018281526020019350505050602060405180830381600087803b1580156200768d57600080fd5b505af1158015620076a2573d6000803e3d6000fd5b505050506040513d6020811015620076b957600080fd5b810190808051906020019092919050505015156200778b576040517f08c379a000000000000000000000000000000000000000000000000000000000815260040180806020018281038252604d8152602001807f476c7577615072697a654c696e6b65644163636f756e743a20556e61626c652081526020017f746f2073656e6420616d6f756e7420746f206465706f73697420746f2061205381526020017f6176696e67204163636f756e740000000000000000000000000000000000000081525060600191505060405180910390fd5b620077b87eae86eb8a82d9d303ee81cecbaa16974e0f4469c91181b35f6455d7f42c1b226001026200356a565b620077e67fd72a66890c40fefe30f927585bdeeb15194b75a4d128f72fbfb3f6c1d557a38d6001026200356a565b620078147ffd59fab6f8cd36f5f943b422c5fbd96eb2b33de9ecaca34851022949376930fc6001026200356a565b60006200786886864287878080601f016020809104026020016040519081016040528093929190818152602001838380828437600081840152601f19601f820116905080830192505050505050506200983b565b915050620078997f8036142f2efb1cbc647271efa76af1b3bf51bcd65d01a63b2fe6018b72819d476001026200356a565b620078c77fe926403e836de734cafa7b0650b0d63c278a1c386a5fedad274480384076c5906001026200356a565b620078d2816200a873565b915050949350505050565b6200790b7f97749d5907af942f23e24dab2e4d9d9f86169e20828b78fbb02c7397aba20dec600102620044a4565b620079397f6071ae2abfff4312103bd8739211263b643becbb57462f9074353c4b638bc8fb600102620044a4565b620079677f78c9d2effdd2cf4ffcfc49a15eb93d30fb2345626d55331fafe2577c45492945600102620044a4565b620079957f0f8d5525ab20fc25e211108856f9e9c2d7686d4bca86323a95f73b4befbd1905600102620044a4565b620079c06033600084815260200190815260200160002060020154620079ba62008ce1565b62004f80565b151562007a5b576040517f08c379a00000000000000000000000000000000000000000000000000000000081526004018080602001828103825260308152602001807f416363657373436f6e74726f6c3a2073656e646572206d75737420626520616e81526020017f2061646d696e20746f207265766f6b650000000000000000000000000000000081525060400191505060405180910390fd5b62007a897f552f1538fdf5aa57eed1a65a84465e26b2dee3a349b98af5bdc70923de8885ca600102620044a4565b62007ab77f903d39f78d0f26f99c6bc1e1496c2b3cde0bbb39f25ad445a102acb1d1decd81600102620044a4565b62007ae57f76891968bc09ecbef03a36911e5ee6272955d16b1c067ee7f7047de6127eb41c600102620044a4565b62007af18282620094e9565b5050565b60608060008062007b287e7ada6c75b75c88ab670ea9835039b78d0bc9aceda545dd93c6b6fb7c68a5566001026200240f565b62007b567f051748605349ac2a39b449d75ef8bb2cecc1e3a5e450552dc6cd33208527e6f66001026200240f565b62007b847f4dce12d33aa2e960503b93d9fc9657890c5f4c093cec9eb9b025f54b6c2dfab06001026200240f565b60e4600086815260200190815260200160002080548060200260200160405190810160405280929190818152602001828054801562007c1957602002820191906000526020600020905b8160009054906101000a900473ffffffffffffffffffffffffffffffffffffffff1673ffffffffffffffffffffffffffffffffffffffff168152602001906001019080831162007bce575b5050505050935062007c4e7fef6872b7cf5d5832d4404b57ead5c04c8db8431a90e4d9116f19c8bf3a0574646001026200240f565b62007c7c7f3bb4e67bac736895eaa7306b4ab726b9f1bc1022cd4634d239c351872fb481576001026200240f565b60e0600086815260200190815260200160002080548060200260200160405190810160405280929190818152602001828054801562007d1757602002820191906000526020600020906000905b82829054906101000a90046bffffffffffffffffffffffff166bffffffffffffffffffffffff16815260200190600c0190602082600b0104928301926001038202915080841162007cc95790505b5050505050925062007d4c7fb17422e971aa319c7d2165e56d3d9119609a26165a0a81fc2bed1ef19cbee9e96001026200240f565b62007d7a7f7b73c3431c4ecc6d804b871693db956d30c583fd6afcaf6acef89e3bb75f6a126001026200240f565b60e5600086815260200190815260200160002054915062007dbe7f4d016b50f801cbffa53cb3472a30dbf4311837400fbf71afaf9f17bc2bf659606001026200240f565b62007dec7f152ac04a8ef050c89b86c08b744390c877da56cd3eef2f221696cfae74f2419c6001026200240f565b60e660008681526020019081526020016000205490509193509193565b60008060008062007e3d7f86da3b46068b1b4eef8dae5b202d50a68d300e07f61dd1cdd8d8938a9638e6926001026200356a565b62007e6b7f13ea2cdaa440f6fff8cadc87063b2dd45cf0519f18e3ebc8c0ffe1715d6db4bd6001026200356a565b62007e997f656401ae8e12b08b6194a3767491f65e90ce406531175a631237523fb0536f0a6001026200356a565b62007ea4856200cceb565b93509350935093509193509193565b600062007ee37f269b98238e7be55b5d7a3db79f2a96a0e9fa4e47593a6bb52d82c25d08facd7e6001026200832e565b62007f117fa0a2fde32d4e52005b78eac14a1ab6ae68b38ec56c08824fdb8abe489653882d6001026200832e565b62007f3f7f1879b1107adb408f8af76f8f45ac4e99c6f1bcc9102431bca363de52c073b1dd6001026200832e565b62007f6d7fd7067e1fc31ce2497d1aad67288494aad7eff15e9ad64f38f62ac1f1944306916001026200832e565b62007f8162007f7b62008ce1565b62003614565b151562007ff6576040517f08c379a00000000000000000000000000000000000000000000000000000000081526004018080602001828103825260188152602001807f5265737472696374656420746f204f70657261746f72732e000000000000000081525060200191505060405180910390fd5b620080247f789ba8c5ad5c32a80dfff31774c44fcc100d45bdb016459c014ebdcb9ac242226001026200832e565b620080527f02ecd88ec5aa7f79e1b04fa2d5196f70633b82efea766ec554a5367eb186c0ed6001026200832e565b620080807f773ce85b7115cef543d21a7e35b7e56f5bfeb18b7606af9f40cf94f7e5a004f46001026200356a565b620080ae7f8086c418f96dadbd3afe651200481727a02fee8e48a091362c121f36917961b36001026200356a565b620080dc7f64c8445c55b7a04f7a329da3dfe0bdf4e69bccdcf81f17eea6cbc1cdb11566616001026200356a565b620080e983848462008ed2565b905092915050565b6060620081217f269b98238e7be55b5d7a3db79f2a96a0e9fa4e47593a6bb52d82c25d08facd7e6001026200832e565b6200814f7fa0a2fde32d4e52005b78eac14a1ab6ae68b38ec56c08824fdb8abe489653882d6001026200832e565b6200817d7f1879b1107adb408f8af76f8f45ac4e99c6f1bcc9102431bca363de52c073b1dd6001026200832e565b620081ab7fd7067e1fc31ce2497d1aad67288494aad7eff15e9ad64f38f62ac1f1944306916001026200832e565b620081bf620081b962008ce1565b62003614565b151562008234576040517f08c379a00000000000000000000000000000000000000000000000000000000081526004018080602001828103825260188152602001807f5265737472696374656420746f204f70657261746f72732e000000000000000081525060200191505060405180910390fd5b620082627f789ba8c5ad5c32a80dfff31774c44fcc100d45bdb016459c014ebdcb9ac242226001026200832e565b620082907f02ecd88ec5aa7f79e1b04fa2d5196f70633b82efea766ec554a5367eb186c0ed6001026200832e565b620082be7f9f47ee9737d89ff0242a68b7cfa5ae2dd49bb41a6f3a6ca42c5abffd6dbe64186001026200356a565b620082ec7f7f59b1297d5b740655dc346f6341fdbc5ee407f25bbc5b9059255776fafc833c6001026200356a565b6200831a7f539ea9aec3adda5610bcee799e95f29b7a763087820d1100cbecea8a188275ea6001026200356a565b620083268383620096ca565b905092915050565b50565b6000620083617f2ccee3d41399f5665297836297dc0c1d8362ffe4dd10655e490f0f49cb4fb40d6001026200240f565b6200838f7fe754df3550e5545428fc407a1853bad83cca4e56618ac32c7055a60c6127cf5c6001026200240f565b620083bd7f1bbbeb94f2a61126e73393d5f85f8485bc8d3b5853c466de733c3c6036d1e7136001026200240f565b620083eb7ffc04913b10b04ac933a570b99d226578fe349719e87f25cde948923a84202b976001026200240f565b600060e56000848152602001908152602001600020541115156200849d576040517f08c379a000000000000000000000000000000000000000000000000000000000815260040180806020018281038252602a8152602001807f476c7577615072697a65447261773a20746865206472617720686173206e6f7481526020017f206265656e206d6164650000000000000000000000000000000000000000000081525060400191505060405180910390fd5b620084cb7ff97f446a33eadc03c55b69b1b4fa0a437c7a0c3130507ba6398bf6630cd70c5d6001026200240f565b620084f97f632148f02c13fd87a4a30c099eb3e7a00d553aa4d23bcdd382b1a08ad0daa4066001026200240f565b620085277fde18cf5ff95ccd1fd548003d8652c920736f51b1ef72a3544b6c54e1967e87f06001026200240f565b60008090505b60e060008481526020019081526020016000208054905081101562008936576200857a7fd0a5d6fb8d3ba4582907d740423226a5ac609292ed08b7d22ddcd50ed81ba4276001026200240f565b620085a87f737c0350da452b140ec187f625132fc2adc8b4e7ac5f772b090ed53242722a306001026200240f565b60df600060e0600086815260200190815260200160002083815481101515620085cd57fe5b9060005260206000209060029182820401919006600c029054906101000a90046bffffffffffffffffffffffff166bffffffffffffffffffffffff1681526020019081526020016000206001015460df600060e06000878152602001908152602001600020848154811015156200864057fe5b9060005260206000209060029182820401919006600c029054906101000a90046bffffffffffffffffffffffff166bffffffffffffffffffffffff1681526020019081526020016000206002015411801562008721575060e560008481526020019081526020016000205460df600060e0600087815260200190815260200160002084815481101515620086d057fe5b9060005260206000209060029182820401919006600c029054906101000a90046bffffffffffffffffffffffff166bffffffffffffffffffffffff1681526020019081526020016000206002015410155b8015620087b3575060e560008481526020019081526020016000205460df600060e06000878152602001908152602001600020848154811015156200876257fe5b9060005260206000209060029182820401919006600c029054906101000a90046bffffffffffffffffffffffff166bffffffffffffffffffffffff1681526020019081526020016000206001015411155b15620088fa57620087e77f3db1f9df08495ff9779dcadf3469052982dee809a63210fc0a11af1ba6ab17e46001026200240f565b620088157f4cd22882db7ad884c875dd9d60e1b0768bbbf57983d0393f2325021caf2130936001026200240f565b620088437f0c3c84103e404c1b7f6705f0a11716125b0224172505cf4a2d0220b8380c498b6001026200240f565b620088c060df600060e06000878152602001908152602001600020848154811015156200886c57fe5b9060005260206000209060029182820401919006600c029054906101000a90046bffffffffffffffffffffffff166bffffffffffffffffffffffff168152602001908152602001600020600001546200ced3565b905080925050620088f47fc1f7c2bc9d20c10a46c0a69b7cc3fca16df0bcc2b0c134a565dd212f0a51de196001026200240f565b62008936565b620089287f61598326d5dc820024203b0435f8334bea3a09162570c025950f889074dd31486001026200240f565b80806001019150506200852d565b50919050565b60006200896c7f269b98238e7be55b5d7a3db79f2a96a0e9fa4e47593a6bb52d82c25d08facd7e6001026200832e565b6200899a7fa0a2fde32d4e52005b78eac14a1ab6ae68b38ec56c08824fdb8abe489653882d6001026200832e565b620089c87f1879b1107adb408f8af76f8f45ac4e99c6f1bcc9102431bca363de52c073b1dd6001026200832e565b620089f67fd7067e1fc31ce2497d1aad67288494aad7eff15e9ad64f38f62ac1f1944306916001026200832e565b62008a0a62008a0462008ce1565b62003614565b151562008a7f576040517f08c379a00000000000000000000000000000000000000000000000000000000081526004018080602001828103825260188152602001807f5265737472696374656420746f204f70657261746f72732e000000000000000081525060200191505060405180910390fd5b62008aad7f789ba8c5ad5c32a80dfff31774c44fcc100d45bdb016459c014ebdcb9ac242226001026200832e565b62008adb7f02ecd88ec5aa7f79e1b04fa2d5196f70633b82efea766ec554a5367eb186c0ed6001026200832e565b62008b097f1e53edecec3efe95ecf1131741894817b545a50a5eba913c61672920b6381d8360010262004017565b62008b377fb44d7fb53ed4f0fe022d7fadffe7e7288f5bcf0d69817e68c692decd561bff4960010262004017565b62008b657fc5d91619a074a4971d68f419027aa8d77c2ae5b04d8d2c76a104d15dfeda3e5760010262004017565b606060206040519080825280601f01601f19166020018201604052801562008b9c5781602001600182028038833980820191505090505b50905062008bcd7f66069037d48f2519bdcc38d3b2a9f7d728a2b44e7cd155ff4d524ecb21b35c0060010262004017565b62008bfb7f67978119c6e6996790d99ca81b4659b653d887018683a75f0518e2ae2da36a9a60010262004017565b600030905062008c2e7f4f57e804ed9cfe52000381da1c14560c4d4c2d82c10d95a88630820bef521e0860010262004017565b808418602083015262008c647f768a7d2f7c8a84341473fc1b753f5f39b728cd9e2aad12b7b72c060c947f602260010262004017565b62008c927f662398b3b07277c4728da8b4cac9f402f95c0157ba2a61a28e8f575674ed416f60010262004017565b62008c9e85836200cfd3565b9250505092915050565b60405180807f4f50455241544f520000000000000000000000000000000000000000000000008152506008019050604051809103902081565b600033905090565b600062008d197f2089262ab22a06f75537005f33d6e3979ed545185716e3c3df9434ede6e193766001026200356a565b62008d477f2b4f10e66d2f86ef4895608718a6169b57957d9b6d8a1c94aef3885c8bab856b6001026200356a565b62008d757ff9a7814f3e2128b273ffcdfa81637e379c2a1981df4c6e59fec9b6245d47c9e06001026200356a565b600062008d85868686866200d2d5565b905062008db57f1e2aaf62b6281a97b18530cb213bda0601371660f3ccd5e7650ba7a2a2dc290e6001026200356a565b62008de37f79944a3a0ce64be580f5c2533f6224bb4c8f6e55ab08c38311bc3b0de15147ce6001026200356a565b62008dee816200a873565b915050949350505050565b600080600062008e2c7f1c29f5bfdefb542bb506b84b7c74430c6e9f3a3bb9e2a8ae6c272fff65c56e206001026200240f565b62008e5a7fe170a50cf1cc82b7a8b8b710d9580fc7fe6191971a8675a4910011b44b0e7eb66001026200240f565b62008e887f203a00e7114c711bf1e80ab3dbf084357a497ed70ca3424640b7d1488ff6950a6001026200240f565b60dd60009054906101000a900460ff1660dd60019054906101000a900460ff1660dd60029054906101000a90046fffffffffffffffffffffffffffffffff16925092509250909192565b600062008f027f4363280b0a384857f09298a15e7386e37bdd16a30ec1ad29a81042957a4eacc36001026200356a565b62008f307f2241b8f0ff18451fb7bff58b2e558fb4fdca50e58953697a16cf8228d0443a2d6001026200356a565b62008f5e7ffcc889693a5b83904f5d13ea2ed7fa6f4b4f84378fd6722ecb979cb08ea76a146001026200356a565b600062008f6d8585856200db9f565b905062008f9d7f3b312b1c0f831ff0c7d73ce9e3e66bbc18a2348cc21dfc1cecf5b9f1c5511bf46001026200356a565b62008fcb7f436deb28efa5fffefaca023fe9a7e1ffd1c16c71b96713096f781c8587eba6ac6001026200356a565b600062008fd8826200c20d565b9050620090087fa91511c6d9e8e969329fbc5d9c4a649bb0f904837aeaaeb24c88c91f5783268d6001026200356a565b620090367f0281ff50570d64fcc22a7cffad36a108b8a0f25c30b76aebcca33bfaabe158716001026200356a565b600062009043426200e0c3565b9050620090737fcebb769236023ea5c6071130f4c3794bdf788492b01addde15682ebb38f763886001026200356a565b620090a17fc1fa9d0fd449d79b354856f4dc1acc6425102fd39cb1c92cab69582c5337b55f6001026200356a565b60006201518082039050620090d97f7bb0efe6dc690972b240a85d6d69cf1dbabd00dbc9c4d1a2e642bd830853645a6001026200356a565b620091077f4e3531303908a3189c7f0c3bbc5878a0da9aa30e41e04bc676e1bda022c011916001026200356a565b62009115888388866200ed0b565b50620091447ff57a04441cd24e12f268de4011c4d0e7188523cd33e0f5997a4f057a72665cc76001026200356a565b620091727f5f4824ce5e5993ca3f8fea6cdb43a0953dc1a377f6a582625aa6c84529c728496001026200356a565b600060e2600083815260200190815260200160002060008a73ffffffffffffffffffffffffffffffffffffffff1673ffffffffffffffffffffffffffffffffffffffff1681526020019081526020016000208054905011156200926e57620091fd7fd7d8455cb9b21ba155eab791736846eef2bfa1af713b85b64f3f879e266a13d66001026200356a565b6200922b7fa885dbad3c273ca78cd1b5c51dfaf16f58ff56e3f355f4bc00906de13d98fc406001026200356a565b620092597fa6e2e0fac632267809c1730876d0dd4dcb34e78490ca525e7fb6b8dfebf51e756001026200356a565b62009267888288866200ed0b565b506200929d565b6200929c7f2e791255a86b134d317ce1fd6d8593fc0619586385cc0169603ffb6e216963b16001026200356a565b5b620092cb7f1c18fbe36c0bf21be8d23b67c95aa51d2dbeab294df7b1c0881a159f1af3ecff6001026200356a565b620092f97f01f98095bdb4871bd3cd472191fd2a3fffdc20a06d2c780c8e6682291d9444676001026200356a565b60019450505050509392505050565b620093367f84b91bc6cd4d63b8761ad13257c7207720ef3cd77d61117e543c387736916e5e600102620044a4565b620093647f9dccac468e58953be22b97f316f61593d0626c019b44f72d0fae41962f2372db600102620044a4565b620093927f431977193dba4d85d3d1072d0ba5e1cdccca8cddfd8c4aff4d7ac2ea98d3d4ee600102620044a4565b620093bc81603360008581526020019081526020016000206000016200f9ac90919063ffffffff16565b15620094b657620093f07f28a965b98d8b942f56696427d3c721e5310563fbc5164dca87cf5cf13ea2a9ed600102620044a4565b6200941e7ff646bf7a647c7eede6638809cfb9c3301764e40ef49c153dd68e18ef90812a40600102620044a4565b6200944c7f6fa7faf9721d6feef12eef2be7cb46f54c37eb46b0da7acac7b4fe0f1b3f5442600102620044a4565b6200945662008ce1565b73ffffffffffffffffffffffffffffffffffffffff168173ffffffffffffffffffffffffffffffffffffffff16837f2f8788117e7eff1d82e926ec794901d17c78024a50270940304540a733656f0d60405160405180910390a4620094e5565b620094e47f8151549efc9ed0302e535d39e83479798ffab5156bdffc64026f549fa008bc6d600102620044a4565b5b5050565b620095177fe61146cafdbd435fd1a44f216470c1c771b447cea185fd63a791eedb5de9a633600102620044a4565b620095457f5574652d96785064c2df2826f0e7f7e329e984e6292358773864c6cc71ea7a07600102620044a4565b620095737f89299f8a83d41798f187ab3c16a70e02bdf5aa620db00df7f88c09b4627ffa55600102620044a4565b6200959d81603360008581526020019081526020016000206000016200fa6890919063ffffffff16565b156200969757620095d17fbfdadd76f305d8adf092ee65907cc86e4f224d2c66f9af5c0b3cdfcc1f3e8fc2600102620044a4565b620095ff7fcedeb60ed9b0b45ad4375b68166468c8488c71bf3878d408ea58b70a4df19c82600102620044a4565b6200962d7f1ec6cce1ca0f17106fd0dac964533ee10f89f102e5bae6dbc54b66910cc69190600102620044a4565b6200963762008ce1565b73ffffffffffffffffffffffffffffffffffffffff168173ffffffffffffffffffffffffffffffffffffffff16837ff6391f5c32d9c69d2a47ea670b442974b53935d1edc7fd64eb21e047a839171b60405160405180910390a4620096c6565b620096c57fa423d3155a2779de3b70eb057d48003daeb03c8d3bb306efff5033bc719fc2fc600102620044a4565b5b5050565b6060620096fa7f9ba21e4aec720ae0cdb3661d106d7b3c28070fbb50cb84e88bd961d62b076fd06001026200240f565b620097287f30d70e9297c991dbec33d213f5b005ad6b02e6fd0a439021e89f50f6d8c11d4d6001026200240f565b620097567f48774ebfebefa3ea0f6e15f3f370e30b2f771d11102a8f636cd63f58a7f7f87e6001026200240f565b60e2600084815260200190815260200160002060008373ffffffffffffffffffffffffffffffffffffffff1673ffffffffffffffffffffffffffffffffffffffff1681526020019081526020016000208054806020026020016040519081016040528092919081815260200182805480156200982e57602002820191906000526020600020906000905b82829054906101000a90046bffffffffffffffffffffffff166bffffffffffffffffffffffff16815260200190600c0190602082600b01049283019260010382029150808411620097e05790505b5050505050905092915050565b6000806200986c7f47037449925b55103db30c98d27d8ca0b7885ab667b5b16d296ae241e8ac9ff160010262007339565b6200989a7fb1984e31da7081381a9af027766a1299f9dd9601711d4803eda543fe2a4b9c1760010262007339565b620098c87f8520bbdc1065c48f0f20efc1f79dd197d8ca4e1eccca4a47e190ce4a84b9b18960010262007339565b620098d3856200fb24565b620099017fda5a49efd6a9275f6de973b1973d9652d06f46ebce2a10ac9f6b0d32187fd89660010262007339565b6200992f7f6311c1acba6ba6a0ac8ef65fbb928cf10b9a8c602290410b2b2f9a2732c6f99060010262007339565b6200995d7f29f579870e139648b7a4dab6da4a649a60074ddd1a90f31bc8e9755a0207163a60010262007339565b600073ffffffffffffffffffffffffffffffffffffffff168673ffffffffffffffffffffffffffffffffffffffff161415151562009a29576040517f08c379a00000000000000000000000000000000000000000000000000000000081526004018080602001828103825260388152602001807f476c757761536176696e674163636f756e743a20536176696e67206f776e657281526020017f2061646472657373206d75737420626520646566696e6564000000000000000081525060400191505060405180910390fd5b62009a577f4eb49c94e8eb0a6e62e632a2704874592daa97ddf77837ff3be43f1d3863c1e460010262007339565b62009a857f0a44630ebdb1427c3229ac6c5f57a4a4edafdceea23d811259a9fb17c8b92b1b60010262007339565b62009ab37ffb2ef150308673efcfec895ad27adddb42399e62d460c309faf8660c51aed8a560010262007339565b62009ae17f678cbef0a8f5b00b9167a77b638210e4263a477281a3bfb60be794624493b7a660010262007339565b600060a760008873ffffffffffffffffffffffffffffffffffffffff1673ffffffffffffffffffffffffffffffffffffffff1681526020019081526020016000206003015414151562009be8576040517f08c379a00000000000000000000000000000000000000000000000000000000081526004018080602001828103825260478152602001807f476c757761536176696e674163636f756e743a2045616368206164647265737381526020017f2073686f756c642068617665206f6e6c79203120536176696e67206163636f7581526020017f6e74206f6e6c790000000000000000000000000000000000000000000000000081525060600191505060405180910390fd5b62009c167fd4db1d6afaad34c1c6f662aac9db2390c4631d478c522cf973cff17a04eb805160010262007339565b62009c447fdd87886c8f8c5b4a561f66f9ec48c4acb3f5e7b3c02ae5a1bd4ede447edb2fd860010262007339565b62009c727f1bec6e70f80774a59e8920f85e6096fee2a3ccc9c1479adbee383a62e8bf40e660010262007339565b62009ca07f09ff8cc7c7ada2ed620b18b5faa8174ed9e7f22bb687c70c5d5e5b6dabe461dc60010262007339565b6000151560a9846040518082805190602001908083835b60208310151562009cde578051825260208201915060208101905060208303925062009cb7565b6001836020036101000a038019825116818451168082178552505050505050905001915050908152602001604051809103902060009054906101000a900460ff16151514151562009dbd576040517f08c379a00000000000000000000000000000000000000000000000000000000081526004018080602001828103825260318152602001807f476c757761536176696e674163636f756e743a204964656e746974792068617381526020017f6820697320616c7265616479207573656400000000000000000000000000000081525060400191505060405180910390fd5b62009deb7f97cd7f30a09b43cd7d7a9f14aee34c151599c75b5144e6d674cb460f5446801160010262007339565b62009e197fffce348fe537e0cd9e0b52731bef05907ec42731a536db750a3c4f13c7e3b47260010262007339565b62009e477fdb06ad4b8d8a2c29c57272e7083b68d2a85839309e07e256c76b304dea8a290760010262007339565b600073__$8ad4cadfbfab443c6ed09b45690dcdfb0d$__6384cefce086308a6040518463ffffffff167c0100000000000000000000000000000000000000000000000000000000028152600401808481526020018373ffffffffffffffffffffffffffffffffffffffff1673ffffffffffffffffffffffffffffffffffffffff1681526020018273ffffffffffffffffffffffffffffffffffffffff1673ffffffffffffffffffffffffffffffffffffffff168152602001935050505060206040518083038186803b15801562009f1d57600080fd5b505af415801562009f32573d6000803e3d6000fd5b505050506040513d602081101562009f4957600080fd5b8101908080519060200190929190505050905062009f8a7f226a159d817af4cb8d5037d5500dc8941f5825535dc69bcd5223303a2c4627c060010262007339565b62009fb87f39f16de9bebcb6aa77e1655e284a5b56ac70a2fcee02d102fd7f1edd63b7c70860010262007339565b600073__$8ad4cadfbfab443c6ed09b45690dcdfb0d$__63fd96809e609c6002015489308c6040518563ffffffff167c0100000000000000000000000000000000000000000000000000000000028152600401808581526020018481526020018373ffffffffffffffffffffffffffffffffffffffff1673ffffffffffffffffffffffffffffffffffffffff1681526020018273ffffffffffffffffffffffffffffffffffffffff1673ffffffffffffffffffffffffffffffffffffffff16815260200194505050505060206040518083038186803b1580156200a09b57600080fd5b505af41580156200a0b0573d6000803e3d6000fd5b505050506040513d60208110156200a0c757600080fd5b810190808051906020019092919050505090506200a1087f5e764c4e90e7ed8761088ee9d398f4ea3c6625b44e345ffcdc2d294c29b15eaa60010262007339565b6200a1367fadd59be1989bbc100ed9d826c4fb988b57613ef4a2cfcf4d6866da76fadb438160010262007339565b61010060405190810160405280609c6002015481526020018381526020018973ffffffffffffffffffffffffffffffffffffffff16815260200187815260200188815260200160008152602001600160048111156200a19157fe5b81526020018681525060a760008a73ffffffffffffffffffffffffffffffffffffffff1673ffffffffffffffffffffffffffffffffffffffff168152602001908152602001600020600082015181600001556020820151816001015560408201518160020160006101000a81548173ffffffffffffffffffffffffffffffffffffffff021916908373ffffffffffffffffffffffffffffffffffffffff160217905550606082015181600301556080820151816004015560a0820151816005015560c08201518160060160006101000a81548160ff021916908360048111156200a27757fe5b021790555060e08201518160070190805190602001906200a29a929190620124e5565b509050506200a2cc7f97f860c0d84a24afae27959165d108e05ce63a833dfaab91558b0840a03689c260010262007339565b6200a2fa7fdc23ffba0b8755c6d937af1ab11038c9c4a0fb577c7fdd698a90779864ffa26460010262007339565b60a06040519081016040528060a0600201548152602001609c6002015481526020018973ffffffffffffffffffffffffffffffffffffffff1681526020018781526020018881525060a86000838152602001908152602001600020600082015181600001556020820151816001015560408201518160020160006101000a81548173ffffffffffffffffffffffffffffffffffffffff021916908373ffffffffffffffffffffffffffffffffffffffff16021790555060608201518160030155608082015181600401559050506200a3f57fc8b09d5f08318382233330a17c6e8f45168ffb1c2ec23b8d892a7949cf706ef860010262007339565b6200a4237ffbd63849cd7cdbabcaf8c5c58488d84a00e9d9ce6a392a18547fc854301f1a6c60010262007339565b600160a9866040518082805190602001908083835b6020831015156200a45f57805182526020820191506020810190506020830392506200a438565b6001836020036101000a038019825116818451168082178552505050505050905001915050908152602001604051809103902060006101000a81548160ff0219169083151502179055506200a4d77fec86d0b9e3adb27e547bfe6982a49162382f32d9e0a321f344a5cd9e58a47b8760010262007339565b6200a5057f407cf8a87c8b060d5069571ffb92713debcd25c6fff93e020e7cce034cc4609060010262007339565b6200a51b82609c6200fd1f90919063ffffffff16565b6200a5497f890a96b98cc050681de7722af516aa2ed7b59f86d1b4523d26e5dfd288f6840d60010262007339565b6200a5777ff26286e08f13ffacf5d0b8945f5ad8ee66623b92e91e9b9e6e2ae2685174bf2d60010262007339565b6200a58d8160a06200fd1f90919063ffffffff16565b6200a5bb7f7bb9c928c3ead4140e18eeda64293a79758d0c6862d6d2bb7fbb9163369bca9e60010262007339565b6200a5e97ff6789f38822f0f7709e73fe18d4d4a826de151b932f5e3121a7a2526895b9a9e60010262007339565b609b8890806001815401808255809150509060018203906000526020600020016000909192909190916101000a81548173ffffffffffffffffffffffffffffffffffffffff021916908373ffffffffffffffffffffffffffffffffffffffff160217905550506200a67d7f9a31c02245f9b13d91f0a10f92916673be02a3e9f06985c3d3060627f1e7b51660010262007339565b6200a6ab7f0dbb3f1c1696d9e69fee9d2bfab3db72a558cb6b5bd131112970592f1124772c60010262007339565b8660a5600082825401925050819055506200a6e97f5123be82fcef626c66b2d27c4912c3197183b004d83422a5bdf859b93b1ee81a60010262007339565b6200a7177f8e5f5ca891d9b6bcaff16283e9830710c818cea7371a1f9bae8e914c0246cfc260010262007339565b8773ffffffffffffffffffffffffffffffffffffffff16827fd61caa23c7e60d69f689a83965592bc26f0dee75c1e247864bb07bbb6fdafe4760405160405180910390a36200a7897f6da6846f465b43ddab256cc640e6369b76ad635e7879878dc95505bcb595b45260010262007339565b6200a7b77feec062d9b9710d0d119fdcd231962bd726210ffe0eeb4727b085520f3aca274060010262007339565b8773ffffffffffffffffffffffffffffffffffffffff16817f2fc7f61216f4b9da63724a7ccba484452205b7cf651334640e3cd11201786006896040518082815260200191505060405180910390a36200a8347f41eee1c77d949007184c46444bc026aebd5dd923f0afcf6514b8d64de14bcb7460010262007339565b6200a8627fc1054bf4c62b8334811e3e63ec2e99f18396684dd6e5256ec1ff73276070659c60010262007339565b818193509350505094509492505050565b60006200a8a37f269b98238e7be55b5d7a3db79f2a96a0e9fa4e47593a6bb52d82c25d08facd7e6001026200832e565b6200a8d17fa0a2fde32d4e52005b78eac14a1ab6ae68b38ec56c08824fdb8abe489653882d6001026200832e565b6200a8ff7f1879b1107adb408f8af76f8f45ac4e99c6f1bcc9102431bca363de52c073b1dd6001026200832e565b6200a92d7fd7067e1fc31ce2497d1aad67288494aad7eff15e9ad64f38f62ac1f1944306916001026200832e565b6200a9416200a93b62008ce1565b62003614565b15156200a9b6576040517f08c379a00000000000000000000000000000000000000000000000000000000081526004018080602001828103825260188152602001807f5265737472696374656420746f204f70657261746f72732e000000000000000081525060200191505060405180910390fd5b6200a9e47f789ba8c5ad5c32a80dfff31774c44fcc100d45bdb016459c014ebdcb9ac242226001026200832e565b6200aa127f02ecd88ec5aa7f79e1b04fa2d5196f70633b82efea766ec554a5367eb186c0ed6001026200832e565b6200aa407f84142ada7d54f8294d982d77e84c506e4ebf71a6e6a8929dc6468cdca254b20d6001026200356a565b6200aa6e7fdd2e85517e667d030ccb809dc02f3543108e2a5e70dd927f77c9a8a594e91b106001026200356a565b6200aa9c7fa31b1a46fe654b8214ce8780cb04e88051018ff49ed0d929639c54af16d37a036001026200356a565b600060a8600084815260200190815260200160002090506200aae17f6b1d3517277c6dae7c17baff232a77586dc13e733d24d39144b09aff7ecff6306001026200356a565b6200ab0f7fb55f637aec5ea17df8d730c46751dbfa10f5154ff466b43dac326330575967366001026200356a565b6200ab3d7f8f43cc292f22eccf19fb0e91fd36c4e31d3a3ea377ca734b6268c612006c6c0c6001026200356a565b600081600301541115156200abe0576040517f08c379a00000000000000000000000000000000000000000000000000000000081526004018080602001828103825260318152602001807f476c7577615072697a654c696e6b65644163636f756e743a205468652064657081526020017f6f736974206973206e6f7420666f756e6400000000000000000000000000000081525060400191505060405180910390fd5b6200ac0e7f1699edaedc9a0279b78810e72027cdfd7548ce0ba68adcab7134bc7a2924de716001026200356a565b6200ac3c7ffbb2231a60b23c47f6efeb95679d935eb66f00ee07b920f2b12efafb0b77bfcc6001026200356a565b6200ac6a7fc99db7348e08c2dce72ee319f4479aa75684efefd9d0d1b65a7c7624a979a7a86001026200356a565b6200acb28160020160009054906101000a900473ffffffffffffffffffffffffffffffffffffffff16826003015483600401546200acac85600401546200c20d565b6200fe4f565b506200ace17fdffdb994ba241c0319ac950942effbd59462326ed703faabd0e960b73b1a4c3d6001026200356a565b6200ad0f7fa337749e228df36ace39ec8cca41156db675ecdaa278a7102af22533d9cead656001026200356a565b6001915050919050565b600080600080600080600060606200ad547fd9aa07dc2fdf21ff6d9dc6035d294b67f7ea05f7a7dd392f0abfa9f67bb0707e60010262007339565b6200ad827fe6d8e582b5ccead73f67eb90099d5f256656f549eea1c09bc3c6a7e73e07cc7460010262007339565b6200adb07f75916e65316b56c0aa0ba683d2eeb9ff63a9874c7c81211acbef5d5a0447246660010262007339565b600060a760008b73ffffffffffffffffffffffffffffffffffffffff1673ffffffffffffffffffffffffffffffffffffffff16815260200190815260200160002090506200ae217ff4b56094aaf5ac2cb270e6c04b80589fb528196f00ddb9d25f4bea209e89cd1d60010262007339565b6200ae4f7fe2064ecda43658bce43fbf2e4a4650e0b2419dd87d1c429c69e406fa1d96cb2260010262007339565b806000015481600101548260020160009054906101000a900473ffffffffffffffffffffffffffffffffffffffff168360030154846004015485600501548660060160009054906101000a900460ff1687600701808054600181600116156101000203166002900480601f0160208091040260200160405190810160405280929190818152602001828054600181600116156101000203166002900480156200af3c5780601f106200af10576101008083540402835291602001916200af3c565b820191906000526020600020905b8154815290600101906020018083116200af1e57829003601f168201915b505050505090509850985098509850985098509850985050919395975091939597565b60008082840190508381101515156200afe0576040517f08c379a000000000000000000000000000000000000000000000000000000000815260040180806020018281038252601b8152602001807f536166654d6174683a206164646974696f6e206f766572666c6f77000000000081525060200191505060405180910390fd5b8091505092915050565b6000808314156200afff57600090506200b0b5565b600082840290508284828115156200b01357fe5b041415156200b0b0576040517f08c379a00000000000000000000000000000000000000000000000000000000081526004018080602001828103825260218152602001807f536166654d6174683a206d756c7469706c69636174696f6e206f766572666c6f81526020017f770000000000000000000000000000000000000000000000000000000000000081525060400191505060405180910390fd5b809150505b92915050565b60006200b0ff83836040805190810160405280601a81526020017f536166654d6174683a206469766973696f6e206279207a65726f0000000000008152506200fefd565b905092915050565b60006200b1377f459e278c0a981f356992f93db68199e1525e444b60a1aa9f415242edaa90bbd36001026200ffcc565b6200b1657f676774ccb1be05ce8a1fe3012d02b51ed6e18267ffa29aa002ff672c33d32ee96001026200ffcc565b6200b1937fd863485f4fc7f6d5d8aa55308bee6b8486345b0154e2c013f988cdd9179492f76001026200ffcc565b6200b1a283600001836200ffcf565b60019004905092915050565b60006200b1de7f3f6e9522e1ea2955cabc1c679f64bf976068c841a9611123dcede6de73ec4fcd6001026200ffcc565b6200b20c7f8b9337500c7386ca8a4084f42b2d40b9be1af142fb7b663118e6df4ae84c617a6001026200ffcc565b6200b23a7f2d10932486833c7b94206e0ae6f4a561123119dc1d8256f3e1dffa1f209828416001026200ffcc565b6200b262836000018373ffffffffffffffffffffffffffffffffffffffff16600102620101dd565b905092915050565b6200b2987ff596d1a6f0772af6c466fed707b4e9734fbdf5e5b5edbbe099fcf5ab9626735160010262007339565b6200b2c67f9bbe506d4f58d6e53706d9b7e6fbe2b29d13bdc4726cf37884e0e370f95b890a60010262007339565b6200b2f47fdb823fd1da46a045a211a85879519a0d75311b5ef509bf55dcdc8683fd930ddf60010262007339565b8360a460006101000a81548163ffffffff021916908363ffffffff1602179055506200b3437f2529bdde98c9b78f428a10c08256182524e41237063c6e9c9e3b2b9707388c1b60010262007339565b6200b3717f82117200b3726a8989140611fafbd994593734d8aa02e00525f2c91561e51bfc60010262007339565b8260a460046101000a81548163ffffffff021916908363ffffffff1602179055506200b3c07f7c822fe57019f1ddab380712e45737f3b941eb06a2e01e1bd4357c27219421db60010262007339565b6200b3ee7fd963eaa061d2c26000c8411bfe6de368fe23daa31134884b56135afc5b19093160010262007339565b816098819055506200b4237fea2278caad5c45006f9174489c6dac16e4f7035ac5c7a6fc280c184fb250dc7360010262007339565b6200b4517fbb4668e5685b83a58de07049c94d3888887ef33663f06f8dd384ffa75dff9d7660010262007339565b8060998190555050505050565b6200b48c7f8d364e20c86888a49fb0a5c225316faafc62d30ef272ae7d5e4e91bf193c157b6001026200240f565b6200b4ba7f443a104b7a2abc0ce9ff9d40bb5aba80939c9751fe15f5117433748460aac9f56001026200240f565b6200b4e87f4e4eb1fb865a8202c21707fc5704c30fe63e71ebc3d363465a5f1fe4c0072f226001026200240f565b8260dd60006101000a81548160ff021916908360ff1602179055506200b5317f761edc98fee140249b69aba460e9f328cc70c96d2a0b4b079d086b41598494bb6001026200240f565b6200b55f7fab52b31eb252d025a5c78869fd14218565b055d33d0c368e86f259e860b3e8766001026200240f565b8160dd60016101000a81548160ff021916908360ff1602179055506200b5a87fa1cbe202d4979dbc1803e8224f63637cd8300a19910f5d37c061af72d6ac1aca6001026200240f565b6200b5d67fe5af1bfd7fbbbe21eb81a7414fd0a0a8c4e360a1323ff7e51ab859bddb66973d6001026200240f565b8060dd60026101000a8154816fffffffffffffffffffffffffffffffff02191690836fffffffffffffffffffffffffffffffff160217905550505050565b6000803090506000813b9050600081149250505090565b600060019054906101000a900460ff16806200b64d57506200b64c6200b614565b5b806200b66557506000809054906101000a900460ff16155b15156200b700576040517f08c379a000000000000000000000000000000000000000000000000000000000815260040180806020018281038252602e8152602001807f436f6e747261637420696e7374616e63652068617320616c726561647920626581526020017f656e20696e697469616c697a656400000000000000000000000000000000000081525060400191505060405180910390fd5b60008060019054906101000a900460ff1615905080156200b751576001600060016101000a81548160ff02191690831515021790555060016000806101000a81548160ff0219169083151502179055505b6200b77f7f150c1f904fe0c1d2f7a31162f5217d4d07c87854ee9f1013b84b4a0201d3e1fb6001026200832e565b6200b7ad7f3a927a1908dff92aaf343f9a9dfd70ce943abc4aa14bc384662aea3b37a017f06001026200832e565b6200b7db7f2269e0bd13e5cbaefe2045e6d1c22c909b9219f2bd4b7672480604fb38c98aff6001026200832e565b6200b82060405180807f4f50455241544f520000000000000000000000000000000000000000000000008152506008019050604051809103902060006001026201028b565b6200b84e7fa6df09688a4556c7d0ddda638cdc6c4be3f54a1562b6556c704a1151a59f51b36001026200832e565b6200b87c7f9c9fbfd717d8dd01b6f6d343c06d5831407925d9079391b9c4b46f28be3049a76001026200832e565b6200b88c60006001028362010333565b6200b8ba7fab54a3e2ff4e656505e71fbbf5f7f72002a6ea83477a899d8ce6e776e67501976001026200832e565b6200b8e87faaf351134d2239ae83e11d26c9067378253c609eb570f8ae74c28ed36c050dbc6001026200832e565b6200b92960405180807f4f50455241544f52000000000000000000000000000000000000000000000000815250600801905060405180910390208362010333565b80156200b94b5760008060016101000a81548160ff0219169083151502179055505b5050565b600060019054906101000a900460ff16806200b97157506200b9706200b614565b5b806200b98957506000809054906101000a900460ff16155b15156200ba24576040517f08c379a000000000000000000000000000000000000000000000000000000000815260040180806020018281038252602e8152602001807f436f6e747261637420696e7374616e63652068617320616c726561647920626581526020017f656e20696e697469616c697a656400000000000000000000000000000000000081525060400191505060405180910390fd5b60008060019054906101000a900460ff1615905080156200ba75576001600060016101000a81548160ff02191690831515021790555060016000806101000a81548160ff0219169083151502179055505b6200baa37f17dbf3d109c4f5d7ee89824e05bc22e46bd7f238a4dfc214449033acb896da3060010262007339565b6200bad17f37a00f29333ede6a62aec24c5b155256e73103af619aa0f5a06132d988720b0460010262007339565b6200baff7f405881ad965423ccb1eb50f817a1127c7bab9d456ab47c5ca3de30284eaaa7a160010262007339565b8460a660006101000a81548173ffffffffffffffffffffffffffffffffffffffff021916908373ffffffffffffffffffffffffffffffffffffffff1602179055506200bb6e7f5f3b59e3c916b2543b8fffcf8da92609dd25f2f134ed297e6a84cdfbccce8cb360010262007339565b6200bb9c7fd49dfa9318ba827faf2d1e1e62ca914df5a65d57a8f0593975e869ed153645da60010262007339565b8360a460006101000a81548163ffffffff021916908363ffffffff1602179055506200bbeb7fad03c7523c09ddff4260081fca66e652656eecf7eaa3631f3a87756d6a51850960010262007339565b6200bc197f96b7243fbf7e39b4dbafba3bea40cf65b2a8a2981e4d691f45fbe8051b4c176860010262007339565b8260a460046101000a81548163ffffffff021916908363ffffffff1602179055506200bc687f3d79eb7efb2ac22f905fa98d8077cf7a5288b224bce8b661262d0341c1c0215760010262007339565b6200bc967f9d61ecf923815bcd30b35fff050fb785d71a81e57129e1e62a28b4d244cfe30f60010262007339565b816098819055506200bccb7f4d1da28b6ff493badbc82631932ee6faaa25c42646bf1875efa2b7b47d4eb2ae60010262007339565b6200bcf97f77bc20e82f623d7791695aa51b5575507239779965e590de6f295de80778e8a060010262007339565b60016099819055506200bd2f7f56ca7feaf246e3771784b54fb54b9b6ee10514bd64de526aa51dbeefc9deb43960010262007339565b6200bd5d7f2a0d22da8e991b89711d6308a38079ef47c8c8603cf616f9dca6f6b10f70d74560010262007339565b60606040519081016040528060018152602001600181526020016000815250609c6000820151816001015560208201518160020155604082015181600301559050506200bdcd7fba7a3f687c5ae1aaa5f691e8acfcb9803f3ef694369f5a01311767eee489b3d160010262007339565b6200bdfb7fbbe611060714f972353adf43ebc7841f7c51d4d2e87b95822fa5e43804fdf49b60010262007339565b6060604051908101604052806001815260200160018152602001600081525060a060008201518160010155602082015181600201556040820151816003015590505080156200be5f5760008060016101000a81548160ff0219169083151502179055505b5050505050565b600060019054906101000a900460ff16806200be8857506200be876200b614565b5b806200bea057506000809054906101000a900460ff16155b15156200bf3b576040517f08c379a000000000000000000000000000000000000000000000000000000000815260040180806020018281038252602e8152602001807f436f6e747261637420696e7374616e63652068617320616c726561647920626581526020017f656e20696e697469616c697a656400000000000000000000000000000000000081525060400191505060405180910390fd5b60008060019054906101000a900460ff1615905080156200bf8c576001600060016101000a81548160ff02191690831515021790555060016000806101000a81548160ff0219169083151502179055505b6200bfba7fd3c6c27b56653c691642f8f2003a6939ff6266835992a532b420dc4a769565b86001026200240f565b6200bfe87f7976e804e76d0d9efc3b78fe72fb9e4a8578504d2975157c3250fb603e3ba3816001026200240f565b6200c0167f039a8b299bcbe089210efb1b4a0d0e048d33c88b8efd452d6f6e1025a5c947406001026200240f565b8360dd60006101000a81548160ff021916908360ff1602179055506200c05f7f0b561b54004f278cce7a6cb4173ee6ab43db623c35fd055bb14dbff80fc019b46001026200240f565b6200c08d7ffa3f09a7e4593084651f29ea8461b3387030a4159e8a40eef148b8f6e3e09f386001026200240f565b8260dd60016101000a81548160ff021916908360ff1602179055506200c0d67ff089dbfa7364bad466cdb8497bb5a8b5b834c2756a722111d07fcb1ff09e84186001026200240f565b6200c1047faa964b1b324db9406b36cdf6a982b534d3f86c22a8248271de2c7454cf41e2f56001026200240f565b8160dd60026101000a8154816fffffffffffffffffffffffffffffffff02191690836fffffffffffffffffffffffffffffffff1602179055506200c16b7f5f0265a64dc0d1e44ed8fcf4b17443ea6b2dfbc5a7483c9de2803bd47128c3e76001026200240f565b6200c1997f1e90f0808128ed6295f3929f0c3e9b6d2fefbfab02b0616f39d405a446233e586001026200240f565b602060405190810160405280600166ffffffffffffff1681525060dc60008201518160000160006101000a81548166ffffffffffffff021916908366ffffffffffffff16021790555090505080156200c2075760008060016101000a81548160ff0219169083151502179055505b50505050565b60006200c23d7fee0809b58aeeed26c30fc6ba6d875b96116194bedc82363fc1cff54182bdce126001026200356a565b6200c26b7f0c3e9f168ebfb4977cf472feeaa28e1f043f0a2f2b7739c3a79275d5177cb43c6001026200356a565b6200c2997fcf946496a68af8ab72dc0833344b0ca929f3401b5463d4651add61d4a119b11e6001026200356a565b61011a60019054906101000a900460ff1660ff16600a0a61011a60029054906101000a900461ffff1661ffff1683028115156200c2d257fe5b049050919050565b60006200c30a7fef3003f0129bbc70afd32f619ac0b9e9e53ed070a15d073afbfeca0f18b09bad6001026200240f565b6200c3387fe9ccc8f3b1a0e88304e9986a4a95212986391b5760dbfd02de12dc7a06c04b526001026200240f565b6200c3667f9320883c9245d2acdf532a3a29eb3ddefbac50f535da86ece2d53fd81c7aedfa6001026200240f565b600060dc60000160009054906101000a900466ffffffffffffff1666ffffffffffffff1690506200c3ba7ff89fb822d335b9dc601a9556cc5e96ac1e4c2e7dc0e0ae35cbb7a4b8810f116a6001026200240f565b6200c3e87f537eb45c1ef919b66c047975f45174e60e410ff842f4d66c056e79d83dfe664c6001026200240f565b60008673ffffffffffffffffffffffffffffffffffffffff1690506200c4317f656ad3b4f3c2a307d171ab15abb22494d1c9c629f1eb6f2d37f3dd5b1ee247136001026200240f565b6200c45f7f073e147acc3d18fc219e164c20766a065a5acad263b4651f7781989ce23575966001026200240f565b60a0826bffffffffffffffffffffffff169060020a02811790506200c4a77f78090439c7bf2e1293da69fc94da1fc52cf54f5f72aa4760cc25bf22de1118536001026200240f565b6200c4d57f53d430737d556e4e55940f9eed7c24e195849be34835807006033710075070406001026200240f565b600060e160008881526020019081526020016000205460dd60029054906101000a90046fffffffffffffffffffffffffffffffff166fffffffffffffffffffffffffffffffff160190506200c54d7f5da47253ec3c3274e2ab7298d503a555d02c7232c501dcd08134ad2771f8ba106001026200240f565b6200c57b7f5439116f482646a7d52d71066ec257f2baab37e8cb33e66e4f9bc70682cce0376001026200240f565b600085820190506200c5b07f13f6c725b8f9eebc3e3b1f11af3f6436381c10d460a256e370a0097ffc234d046001026200240f565b6200c5de7fc4c96cf46eeba2873e9ca10840c8f682bf3cf4105689f517332f6e5d1d8040a66001026200240f565b6060604051908101604052808481526020018381526020018281525060df6000866bffffffffffffffffffffffff1681526020019081526020016000206000820151816000015560208201518160010155604082015181600201559050506200c66a7f7d1abfce3f4cdd03f44ae6cf0f8b5ddb772995bd692bb263f3c23339b515135c6001026200240f565b6200c6987f081b29c9b5d9e4920545d94197af44ad21881b03f6f5e10e461d18cb9fd078dc6001026200240f565b8660e660008a8152602001908152602001600020600082825401925050819055506200c6e77f0969465ef6c5ea50e8d3fd9a540cc241fb18b46edf5daab89808dff32f5201e16001026200240f565b6200c7157f0671443b48b8db258579dcba632918e8affbd05437db35fe8da4eae40266f0ed6001026200240f565b8660e360008a815260200190815260200160002060008b73ffffffffffffffffffffffffffffffffffffffff1673ffffffffffffffffffffffffffffffffffffffff168152602001908152602001600020600082825401925050819055506200c7a17f76e9c5df0eb03553c01aa0bc5b1875e59946e72a4831e122dd929fa71e53b1886001026200240f565b6200c7cf7fd78789dcc5df825e09b94ecb8425a5c8355ac6677c2b5a6e7a6652342d1c11886001026200240f565b60e460008981526020019081526020016000208990806001815401808255809150509060018203906000526020600020016000909192909190916101000a81548173ffffffffffffffffffffffffffffffffffffffff021916908373ffffffffffffffffffffffffffffffffffffffff160217905550506200c8747fa14fcbcab4a892575ad23caa397f375fff3d33ee46c48ea6c92114c7c9ce5e636001026200240f565b6200c8a27fc035af89a7a7fdab8d5b2c3923781b6f849dc4b22ec49186aeab341196e0ade36001026200240f565b60e2600089815260200190815260200160002060008a73ffffffffffffffffffffffffffffffffffffffff1673ffffffffffffffffffffffffffffffffffffffff16815260200190815260200160002060dc60000160009054906101000a900466ffffffffffffff16908060018154018082558091505090600182039060005260206000209060029182820401919006600c0290919266ffffffffffffff16909190916101000a8154816bffffffffffffffffffffffff02191690836bffffffffffffffffffffffff160217905550506200c9a07f0c9b38d7c3a65c3cc43fd5ad7ae3993a6d93fd697e31957f51397f60e47de3626001026200240f565b6200c9ce7f381080a9f8721aa0664b32dddbd723e4c698f38e9df2cbc323c6ccbdf1c53cea6001026200240f565b60e0600089815260200190815260200160002084908060018154018082558091505090600182039060005260206000209060029182820401919006600c02909192909190916101000a8154816bffffffffffffffffffffffff02191690836bffffffffffffffffffffffff160217905550506200ca6e7fc80f4cece3c2167176cd3daee7a2b9c69961deb2c488b1339fb5808b0c50ac846001026200240f565b6200ca9c7f62084f7b105f12b0759924635bb5bfbf4b8f468bf9e9602362155b83464846556001026200240f565b8060e160008a8152602001908152602001600020819055506200cae27fc6b5058ad1548c6ca49bb1d28ecae089997f2bece577e784c81db0684e31d9506001026200240f565b6200cb107fa17398b5bd6815cbf87da4f9a9c0705dfd0842fa79935314fcc95cf49a7181b46001026200240f565b8873ffffffffffffffffffffffffffffffffffffffff16846bffffffffffffffffffffffff16897fa0f62cfa805b8a221820e6091364400400ec918a02277ac3d0438e98369eadb68585604051808381526020018281526020019250505060405180910390a46200cba47fb814d31f5d4c16fb9afbfdd58f41820fd86d8a1f15872a35ece725947e6bf4d06001026200240f565b6200cbd27fb366b138fa3b2adb812947f61c94100618afa37db197508b8bc40683754cb8966001026200240f565b6200cbde60dc620103cd565b6200cc0c7f2c41579efb91bede4cde39628a81b8e32f557a06b6a2e1e7e121d84b693550536001026200240f565b6200cc3a7f179cb88c29a4b8ef41997ec0d7013f70bf371f9254f4fc8351fc8d98c9695c7d6001026200240f565b6001945050505050949350505050565b60006200cc7a7f3fbb6c237d91889d2b85197067a6867564519756a4b142dce99503390a61e0da6001026200ffcc565b6200cca87ff0ca5118ce57dbc469380946ed7733bfee6956d8894b68924b77265267d985a86001026200ffcc565b6200ccd67f4e24753963ccd879d590789fd3106e2074905aede5539b4162644af54b7f58fe6001026200ffcc565b6200cce48260000162010472565b9050919050565b6000806000806200cd1f7f67054dac490c85ee27cb348f7947c8206bd638d1118776530f41b8124abd49d76001026200240f565b6200cd4d7f6c9c951c9424fc2ae46c3da0a2da7810a85785eb78ddcce261b4a62598bfce8d6001026200240f565b6200cd7b7f2d3b99769cfbf74e4b559baead6ec327f44984377c96a4a7c735877e1751bf306001026200240f565b600060df600087815260200190815260200160002090506200cdc07f752b614dcd43b64a7299e0f86075c6d21cedbd89eba1631abf2743b7b946af476001026200240f565b6200cdee7fbaa6dad4bf9fc1b0239fa23cbdfb6c0e927c3523ee2275d7b861051d256dfc836001026200240f565b6200cdfd81600001546200ced3565b80955081965050506200ce337fea25679998979202b0b4b107f89054f2794bb3bdd9a1c4d768a97a844758a7806001026200240f565b6200ce617fee6f04d8903c6b975227c7950dc7e18945464e5271c84c489f529cf63f2a9b2b6001026200240f565b806001015492506200ce967f5b13ecfe45c00bb754ec25a2fd7654dd81c9999f91657f2e34069d2199ecac4a6001026200240f565b6200cec47f1906b4099c4ff18ae8645fecee6f5c2d21335fb4a8562eee149855221076c7826001026200240f565b80600201549150509193509193565b6000806200cf047f2a6b08f6b3d399cff480c7a89510f70c1886f224a158c7576c1240c9ac2e18a76001026200240f565b6200cf327f0ea3092967f864d98a57f68060467397dcc8e36dffa08c8112d09734ca8778076001026200240f565b6200cf607f7c36b0bd26f5b34abdc80b983f14a3b49aea03dfb469ac6617f36f32147160116001026200240f565b8290506200cf917f57992dc55ae2bd2bc00a1edba37970d7078af38a12bfd8216fe95a828d3371e56001026200240f565b6200cfbf7f73cdd953316863f7c9f49d53db46b3f0c6b3b6a056ca2661cef2136875064a916001026200240f565b60a083908060020a82049150509150915091565b60006200d0037f01f1db6c9eaeeed975bc08895d49484d16b7fafc9293c2abec87618c7b0847b66001026200240f565b6200d0317fb552db9bdb93afb63a00691fb07e94c940edec38a20f346152b9611a90c325e16001026200240f565b6200d05f7f9ae4b6334e7aec4e0e41059fc0ac9236c05d76dc68dbd077b1c40d29966471b36001026200240f565b6200d08d7fe4e823fd9ceebedc9d0b8b348c80a7414b6f0e165a02fabd9cd5a8e36d4881996001026200240f565b600060e56000858152602001908152602001600020541415156200d13f576040517f08c379a00000000000000000000000000000000000000000000000000000000081526004018080602001828103825260268152602001807f476c7577615072697a65447261773a207468652064726177206861732062656581526020017f6e206d616465000000000000000000000000000000000000000000000000000081525060400191505060405180910390fd5b6200d16d7fe252ba52da0f2b20c29f245fb298abc21c8250b67427122e5966ad8a5dbe66fc6001026200240f565b6200d19b7fa8ed851e73668854f81601270ea988891ee70db828dc8a984e387c9e57d623406001026200240f565b6200d1c97f95ac37976cf8eea6b2e66f76c444faef359f36c0f00f6451f8ee99c798a037af6001026200240f565b6000806200d1d7856200401a565b915091506200d2097f851ad9bd447ea81c76294dcb4633912eacfdcca67053064cc12a711b1de8654c6001026200240f565b6200d2377fc9cb45d0bf10e6af1b5b19854bc22abb12a6ce6d2f3d6d17a3458b6e3007cfb16001026200240f565b6200d2448282866201050d565b60e56000878152602001908152602001600020819055506200d2897f64ae18e454d090e2f0263f7cbb36a4aa2890c5c054c6af5cc79042ee0d3cd4b16001026200240f565b6200d2b77f48fd48f1275171a2aaecc142b245052ba266fe62db5c3296f7d23ce69b3c4b786001026200240f565b60e56000868152602001908152602001600020549250505092915050565b60006200d3057f9c8850ecad6c2fa7acfe211222b48237be0d9bcbad3e60452d68d3be6469c68060010262007339565b6200d3337f275b31574706d124196f93de6704fb1603f6b53479a24265557836230159acab60010262007339565b6200d3617f4a4b478c226922878711c7d3d5dbba490fcbb641caca51c4fbf828b8c180916960010262007339565b6200d36c846200fb24565b6200d39a7f12709aa023c7c1437d0f428fb874dd62cfefa6a94160a9856ea7be02ead17d7e60010262007339565b6200d3c87f78d63f3dc0fcd461746a4538a7215ae972ade77c664b0c370d1c0e5b3e89e9ee60010262007339565b600060a760008773ffffffffffffffffffffffffffffffffffffffff1673ffffffffffffffffffffffffffffffffffffffff16815260200190815260200160002090506200d4397f7eef7889d9f5095cb7e9a72d488afd4982f8a107a26a57d4132fc1138564e9a260010262007339565b6200d4677f137d930a46031d795d8f9aa019aecef5a4cf0f4848fefcb283021777f36112e560010262007339565b6200d4957f71fe26de4629c37a91f07e0109231e3f5d5f40c733a94ba80f216582feb5f57f60010262007339565b600081600301541115156200d538576040517f08c379a00000000000000000000000000000000000000000000000000000000081526004018080602001828103825260258152602001807f476c757761536176696e674163636f756e743a204163636f756e74206e6f742081526020017f666f756e6400000000000000000000000000000000000000000000000000000081525060400191505060405180910390fd5b6200d5667f2be1e9e413be5f87fb4bcd889371137221512ffc62a817e7a77831f7c5e1ef3360010262007339565b6200d5947f039a6ecff32526bdd163d41cb48a1505d8dc141b5e20faaceee4620ecf87ae0160010262007339565b6200d5c27fbbe5dde346889c369e578f8cdc186d6f451c6f33b7b578637b6d0f06c789206860010262007339565b8481600401600082825401925050819055506200d6027f66aba0f96d1f6792b608ae8d44fd94aa6faa338f3af52ab1d2e642911c3b3ae360010262007339565b6200d6307f9fc883e07a34a6af8ee1d8f10a216208ce6670a8e9c002d2ec0cb85ec87cfc8060010262007339565b82156200d6d9576200d6657f8d7b241c685f0f33634fa18a1c4d71dcc2cee767c48cc12540bdb18e9b25fa8060010262007339565b6200d6937f1669a514ac2f181652dcef1cb8fca3764afbcfbb250d37d2ad92a5ab5db0836260010262007339565b6200d6c17f3aee7774f03b22ab36fa3dd1cc41b17b2017c3bb5f2c3b82dc195c9dd7a3175960010262007339565b8481600501600082825401925050819055506200d708565b6200d7077f87a4f3ad8a6c6df74e5096e6ae54b083ea4b142c7efc42d6e46556132a9ecaf560010262007339565b5b6200d7367fe6fa6493778d9eb8ac420addc23646359bb9ded8df6dcb8dc545c8ea8f010a2760010262007339565b6200d7647f26e1bab5fcfcdb48c3cf3321e63d31a3d0cc71de6dd1d2749d4a5104f097896360010262007339565b8460a5600082825401925050819055506200d7a27f549678919587eecbb3738c39ce427a024dca603d97dc926e6dae1f5c009a31d160010262007339565b6200d7d07f5d96cc8aefe6b902e1213d2fdbe6ce704d6f8f3afaa08ef5a85b5d71b7d3292360010262007339565b600073__$8ad4cadfbfab443c6ed09b45690dcdfb0d$__63fd96809e836000015488308b6040518563ffffffff167c0100000000000000000000000000000000000000000000000000000000028152600401808581526020018481526020018373ffffffffffffffffffffffffffffffffffffffff1673ffffffffffffffffffffffffffffffffffffffff1681526020018273ffffffffffffffffffffffffffffffffffffffff1673ffffffffffffffffffffffffffffffffffffffff16815260200194505050505060206040518083038186803b1580156200d8b257600080fd5b505af41580156200d8c7573d6000803e3d6000fd5b505050506040513d60208110156200d8de57600080fd5b810190808051906020019092919050505090506200d91f7f29e10f06f32355d2e8b458d3934535f2dc9995b7a5744376568fabc1d34b795360010262007339565b6200d94d7ffe68b720a9443a5a2c983292cc9bbfe8f430da69cca5eb30ab5e4f1014ee97b160010262007339565b60a06040519081016040528060a0600201548152602001836000015481526020018873ffffffffffffffffffffffffffffffffffffffff1681526020018681526020018781525060a86000838152602001908152602001600020600082015181600001556020820151816001015560408201518160020160006101000a81548173ffffffffffffffffffffffffffffffffffffffff021916908373ffffffffffffffffffffffffffffffffffffffff16021790555060608201518160030155608082015181600401559050506200da477f6d29a18058793c267023de1e500297a1b49839905f46fd7558628aa161970a6c60010262007339565b6200da757f1e48659a37d90012034ce0504abf94c687d1cde48eae1d34c8ecf6f1da685f7260010262007339565b6200da8b8160a06200fd1f90919063ffffffff16565b6200dab97f970ea2430ac8c7129fc8eaf4f7c2f09dc3460b605ba5397bea49e71e9b74f91360010262007339565b6200dae77f32ff90641404ad09eea1cd00e3bb039b4789c6b58017ea094d7e1750d00e945d60010262007339565b8673ffffffffffffffffffffffffffffffffffffffff16817f2fc7f61216f4b9da63724a7ccba484452205b7cf651334640e3cd11201786006886040518082815260200191505060405180910390a36200db647f15c6a063f9b01120a1bdb44338ffe9ad683bb9e5d0841ad21e8a6a1706a6304960010262007339565b6200db927fa8ad17f714c474602870daac8b065e6e20d7dd6bc40d773bba4a1d9820c4c3c160010262007339565b8092505050949350505050565b60006200dbcf7fc82241adfb74a23d91a327ab0893a9f1287553d6616b14dd2c828a2c2adfe9ca60010262007339565b6200dbfd7f30fbc8688988fc240a9fc1c2a1e3c2a43c849c45e86515212e6a5d9bb26a572960010262007339565b6200dc2b7f4e49c2ccbabec259aec2ec8da81945dad6b263a6ece7af5dd40e7a6435a2d5cc60010262007339565b600060a760008673ffffffffffffffffffffffffffffffffffffffff1673ffffffffffffffffffffffffffffffffffffffff16815260200190815260200160002090506200dc9c7ff020a85bf3c444398da3b5e692275b36c2f73df41ee8abb71eb2aa6763e477eb60010262007339565b6200dcca7f295d7cc9613a35bfc18cd0c00a28b299814364a6d1e975c6d52c9215e6b0dce160010262007339565b6200dcf87faf646100ef7cea788bc31925539542be76919e1c20b75bee53adda3278c6ab9b60010262007339565b828160040154101515156200dd9b576040517f08c379a000000000000000000000000000000000000000000000000000000000815260040180806020018281038252603c8152602001807f476c757761536176696e674163636f756e743a205769746864726177616c206181526020017f6d6f756e7420697320686967686572207468616e206465706f7369740000000081525060400191505060405180910390fd5b6200ddc97f4809e4c5bbee64d565bce34b7be27581d0c606f40716a84a2a4d90f079e2478860010262007339565b6200ddf77f8b177a8c52978e3be2e0c1e866cf5a08705f204fe91c7c0c4ed8cda8f785994a60010262007339565b6200de257fe4a5bd5803a029419c876c375b9e5f824f46c7fce5e01c37a0d004a6547762b660010262007339565b8281600401600082825403925050819055506200de657fec4ae7188cbd48a81c3ef973adfc3d60726642d39b3f613816c1dbc8438b92fd60010262007339565b6200de937f7d806b11ed7aa8a8004d5bf6069d3c493eb9e5fc0d41b953fcd9ccfe7996a72b60010262007339565b60a660009054906101000a900473ffffffffffffffffffffffffffffffffffffffff1673ffffffffffffffffffffffffffffffffffffffff1663a9059cbb85856040518363ffffffff167c0100000000000000000000000000000000000000000000000000000000028152600401808373ffffffffffffffffffffffffffffffffffffffff1673ffffffffffffffffffffffffffffffffffffffff16815260200182815260200192505050602060405180830381600087803b1580156200df5957600080fd5b505af11580156200df6e573d6000803e3d6000fd5b505050506040513d60208110156200df8557600080fd5b8101908080519060200190929190505050506200dfc57f667bfe2cd3599f95f95acc9b487b7c6bf79d4be81e953aee2a3ef3af81d994c460010262007339565b6200dff37fc72a0c558a46349161888d2b06fb31e1b14b10bc5f3a8a56cf573c58890fce4960010262007339565b8373ffffffffffffffffffffffffffffffffffffffff168573ffffffffffffffffffffffffffffffffffffffff167fd1c19fbcd4551a5edfb66d43d2e337c04837afda3482b42bdf569a8fccdae5fb856040518082815260200191505060405180910390a36200e0867f131210454d8d5d25dbea0d2156a9399cd9f367e741b110e1720aad6b95ce11b160010262007339565b6200e0b47f0afb8d2a042420390505ba73febdcad46b51fbc5787f299b0a46383a3b57742160010262007339565b80600401549150509392505050565b60006200e0f37f1f70bd4cac199a1a80d7f4c6aa9dc4ee340d4363387d17599d0b0b27a260b1816001026200240f565b6200e1217ff5a4c0a6d4a3f9492098267d5e32872c51c79f88fd16476c7295a97c555207586001026200240f565b6200e14f7f71b20f107e51adb64d252d185ee8589d53ecca82cf606677146ca03e2cfb996f6001026200240f565b6200e1596201256c565b6200e16483620106c2565b90506200e1947f30509abadea3ecbfece548aca0a5db4e1bc9eb408990a38aa30459bda86888bf6001026200240f565b6200e1c27f13e32c69eefc85a4883862d1a3d2318caeafa040750f19364160931e0456ad896001026200240f565b6000600290506200e1f67f9dc9f4d4a314cf286c0e776a7a57a05e751e6ec80021ac7d4d064ea41df30bdd6001026200240f565b6200e2247f9e707761d3604260ef6f47581b90d70ce40a92cdbef03b831b3dd9922bc74b906001026200240f565b60dd60009054906101000a900460ff1660ff16826060015160ff1610806200e28a575060dd60009054906101000a900460ff1660ff16826060015160ff161480156200e289575060dd60019054906101000a900460ff1660ff16826080015160ff1611155b5b156200e324576200e2be7fc927a18d37dc75cf332c7685e5080ca9ac5a10ac851837688c2d7096876ff8956001026200240f565b6200e2ec7fbb87e89a28a7709f2ab3b65896323c89a208d86ece2f4dec9cc4c1f047a9c49c6001026200240f565b6200e31a7f9d648b024e5e21ebcd30c48ee4a741dae2a0ff26bb7b3c40ea3763758bbc02626001026200240f565b600190506200e353565b6200e3527fea35e25c4e40db311fadfa03ce797daf24cafaed701ef9945af48107d0fd330d6001026200240f565b5b6200e3817f4839e995c9a1c145235ebd664f167575798bda02639b8af21cd3c9f826cc6d256001026200240f565b6200e3af7fc8e0e414452696100803d052a534cec965c83cd24910cd3aa98530910b9c40666001026200240f565b600073__$05084330c9bf728fdd5577c5afe72a471f$__6389807474846020015185600001516040518363ffffffff167c0100000000000000000000000000000000000000000000000000000000028152600401808360ff1660ff1681526020018261ffff1681526020019250505060206040518083038186803b1580156200e43757600080fd5b505af41580156200e44c573d6000803e3d6000fd5b505050506040513d60208110156200e46357600080fd5b810190808051906020019092919050505090506200e4a47f189ab8eaa74c2615c2857ac5bb53a506349ed7538b5d79470312a75f13f5074e6001026200240f565b6200e4d27f297c5cf319c225c9574e70354f6700d43fb78d2d74a05d3a7b25d0b5cd16a7e06001026200240f565b8060ff168360400151830160ff1611156200e7bd576200e5157f597e009babec2198b8fb6e057ce187221d0fce8d2df989ee6af50601b0794d466001026200240f565b6200e5437f6961a5cd3fbf3f221c23b06fce2f8c03a5a0699e444c3bb1d6e30ead8031b8d26001026200240f565b6200e5717f8ccc878bf9d982269fa37694a4ff183c7446c1e8265f9ff2511a714e59f34d8a6001026200240f565b600c836020015160ff161415156200e62c576200e5b17fb63b2007fab96a7f8f7bcd67a8e6209f3a8efd6d255d25d3c2d265a489d8c6166001026200240f565b6200e5df7f299e8cb5f707bdf46eb37fc86b1fe66ca486f6beb2e6a39d29526ac8116879546001026200240f565b6200e60d7f4e3526a5ec0d2e2ef17b28b3f7760461efb7c77b5e3dd33f20cabd152109e6196001026200240f565b6001836020018181510191509060ff16908160ff16815250506200e741565b6200e65a7fbda5cdd89e443f8c167f2074cb4688f5d8a3f2b7d9e859c46347d960754330db6001026200240f565b6200e6887f345c2c9cdd53c54cbe3edfc685d106face6af589b5ab00043fe3c1356e0d821c6001026200240f565b6200e6b67f6886b35900fd1cf66053283b81765768704b0f280e386ed95023149d8c32b7636001026200240f565b6001836000018181510191509061ffff16908161ffff16815250506200e6ff7fc82257c75446b8c65f5bcc626f18f0939ab33ff65a3c14da2a5623e5a053e9f36001026200240f565b6200e72d7f6fa94063b270e56af575007f5ca76d745f51fac3ad447ab1666fcdeab9604ed96001026200240f565b6001836020019060ff16908160ff16815250505b6200e76f7ff7dafe165a358cf339b6e6d4ab621ba1d958c3447939e7c0c2a125c0a1f2ce366001026200240f565b6200e79d7ffb63bfece7fe46ba1648904756652835c0b7c283c004b3961e56bc9397ae768e6001026200240f565b808360400151830103836040019060ff16908160ff16815250506200e860565b6200e7eb7f37addd99122e5219ab0853ea21d2bb16772d9e2676a0e57a5160a33acf3ddf2a6001026200240f565b6200e8197fa64edbafb6923bfbeea1b79e0e0495e0d8ec12b1d59eea08c98663de41db370e6001026200240f565b6200e8477fa3571bc3c95b7ad0e1d25788496010aa99a5aa662f9009ff66287f75c43c08756001026200240f565b82604001518201836040019060ff16908160ff16815250505b6200e88e7ffa0cc2e526f71ec9e643cf9b66913b3b3d3db9be295e0473fb8a5581bd5692736001026200240f565b6200e8bc7f6b212456cf3c223f60a3b9baa512854625eb50105257f039da3ad0a1c75517e16001026200240f565b603b60dd60019054906101000a900460ff1660ff1614156200e9fb576200e9067f1dc42d98ee31a0cca0fbc3396ec55aa52ba0ced40848fc660c278909f19f75ad6001026200240f565b6200e9347f6b773ee8d48c2106f48f9133d52489f779cffa6376fe5390dc17399dda9f84bf6001026200240f565b6200e9627f962d3342e5d109a8ef3fea38bc40c408b4160e40ebf4d076ef5b6e30f2be0cac6001026200240f565b600160dd60009054906101000a900460ff1601836060019060ff16908160ff16815250506200e9b47f69c65038951286b56563e73c06fc646d6a81ca63740333718b0b93568e3eaee86001026200240f565b6200e9e27f4401730427e0bfb946676d7db89eb51003b36e3cbfe4a86f912b9468064d3b5d6001026200240f565b6000836080019060ff16908160ff16815250506200eb27565b6200ea297f402c6890a1d6b644eb43eb24b3fbfa2b79dafc1655cab205fff6a54fe109c2266001026200240f565b6200ea577f4b59407c6e37dfc49370a0600e64a796da6ef9935da4843b749b693d284bc1dc6001026200240f565b6200ea857f6dbaac72e5931ffc0521e18f413f0560174ef699bf81d9669e6f9eab5e70752d6001026200240f565b60dd60009054906101000a900460ff16836060019060ff16908160ff16815250506200ead47f8a597bfa422359afb7df4b20be57f0f3a7472a72657ffd0543122dfb911713716001026200240f565b6200eb027fb15d6a0ce916fda79dc96183431d470a90e4c6e1b85b78083a6c4cfa8e8f34ef6001026200240f565b600160dd60019054906101000a900460ff1601836080019060ff16908160ff16815250505b6200eb557fece50ea5963433263fa32d9703f6573c3f912ad680c4dfe29f992b69ad42b59b6001026200240f565b6200eb837ff10d90047a04633f36e67fe16e2c916c5446ee5eb946f50eba90d92b09b202586001026200240f565b60008360a0019060ff16908160ff16815250506200ebc47fc94dad16fdf5e0f678371132eb140bd47cdb3b925e684c24eaaf282fa64605086001026200240f565b6200ebf27fb64d30a2732f86a7fadb7a5ef2b2f4f78625b296d266813d7fd676605077cb406001026200240f565b73__$05084330c9bf728fdd5577c5afe72a471f$__630a37f14b846000015185602001518660400151876060015188608001518960a001516040518763ffffffff167c0100000000000000000000000000000000000000000000000000000000028152600401808761ffff1661ffff1681526020018660ff1660ff1681526020018560ff1660ff1681526020018460ff1660ff1681526020018360ff1660ff1681526020018260ff1660ff168152602001965050505050505060206040518083038186803b1580156200ecc457600080fd5b505af41580156200ecd9573d6000803e3d6000fd5b505050506040513d60208110156200ecf057600080fd5b81019080805190602001909291905050509350505050919050565b60006200ed3b7f6c7fc01b48bd284ce0b708c4bb14c0d3ef0955adf8f22f727b72044b96d594406001026200240f565b6200ed697f6a37003f399b3b8ef4dc441edc721a30f889c4fb9c4cbbb411ae1d88df9872156001026200240f565b6200ed977f45641ea4c00559d21e8cdd2ed7525771e18a1aeacc30943b2506118eae0ab9546001026200240f565b600060e2600086815260200190815260200160002060008773ffffffffffffffffffffffffffffffffffffffff1673ffffffffffffffffffffffffffffffffffffffff1681526020019081526020016000208054905011156200f915576200ee227f3e03a58b2484027ab7b8b05310478a420c2720e93ea7d5c30abfa77b1113b8376001026200240f565b6200ee507f5610aad962748451d4f25aded5abd4545aefbdf10ff310b6d2bf9eb0121dfec06001026200240f565b6200ee7e7f0a21e934f356f99579396bfb18e15bdd9ee136e2bdb0c1588f7ac2d546fe34006001026200240f565b60006200eeae7fc6267d462683b71d4858e3ab60fa8ace6c774ae5e50c1d96e7288d2e255484496001026200240f565b6200eedc7f9933d74d097aff5df0d107d697a6911d45cc5277246ed94c4d6d83e1050cf70d6001026200240f565b60008090505b60e2600087815260200190815260200160002060008873ffffffffffffffffffffffffffffffffffffffff1673ffffffffffffffffffffffffffffffffffffffff168152602001908152602001600020805490508110156200f53f576200ef6c7f5475417452ad8c3e75fcd672ba0b0f3721d7d82c4c566c6d66b92c45d227dc546001026200240f565b6200ef9a7f5951fe4093bbbc465837b768a2390c8a9fbcb98c3b6805420845158ea62870cd6001026200240f565b60df600060e2600089815260200190815260200160002060008a73ffffffffffffffffffffffffffffffffffffffff1673ffffffffffffffffffffffffffffffffffffffff168152602001908152602001600020838154811015156200effc57fe5b9060005260206000209060029182820401919006600c029054906101000a90046bffffffffffffffffffffffff166bffffffffffffffffffffffff1681526020019081526020016000206001015460df600060e260008a815260200190815260200160002060008b73ffffffffffffffffffffffffffffffffffffffff1673ffffffffffffffffffffffffffffffffffffffff168152602001908152602001600020848154811015156200f0ac57fe5b9060005260206000209060029182820401919006600c029054906101000a90046bffffffffffffffffffffffff166bffffffffffffffffffffffff168152602001908152602001600020600201540391506200f12b7f2c92c6449cfade96ebc3008b98864af7fe05e77faedb12b95eb18ca6d2390aed6001026200240f565b6200f1597fa24e08921b6c19c081a279f7fd80a189e7ddfdbc3dde71f091c006e1e40d5e896001026200240f565b818411156200f3b6576200f1907fb9706918c83c962b761f65db4348f28a1aaa5344e33ce0c8a8dbad711fe303076001026200240f565b6200f1be7fb7dbeff4a59c271b7ce0e0f67340b40771e439922a468388c671ac42eb370d836001026200240f565b6200f1ec7fb4180a0cc81b1ba340fab952368844081afdafd580cf128a21e27c3f5809c3366001026200240f565b81840393506200f21f7fb2b98fae8a7bade14ba8d9eaa64606b9ab04a73ffad5ddf1f553ba02e96fb12a6001026200240f565b6200f24d7ff5153cdbe8366d96a58b2151ccacdc80510685a5e0f2f031a257580bf654f74a6001026200240f565b60df600060e2600089815260200190815260200160002060008a73ffffffffffffffffffffffffffffffffffffffff1673ffffffffffffffffffffffffffffffffffffffff168152602001908152602001600020838154811015156200f2af57fe5b9060005260206000209060029182820401919006600c029054906101000a90046bffffffffffffffffffffffff166bffffffffffffffffffffffff1681526020019081526020016000206001015460df600060e260008a815260200190815260200160002060008b73ffffffffffffffffffffffffffffffffffffffff1673ffffffffffffffffffffffffffffffffffffffff168152602001908152602001600020848154811015156200f35f57fe5b9060005260206000209060029182820401919006600c029054906101000a90046bffffffffffffffffffffffff166bffffffffffffffffffffffff168152602001908152602001600020600201819055506200f531565b6200f3e47fb415912d3fea91b5f4c17ee3a8ac7667da4901e870c5dfb509e141d8342dd6d36001026200240f565b6200f4127fd3fafa6762968c1bc7df1988142b74a15252d3b157ba4c57dfa893d812e668c86001026200240f565b6200f4407f97367abec8482e9e3592b8ef912f0e5b6d9fbe32ef94d8edfa4adf37aad37efa6001026200240f565b8360df600060e260008a815260200190815260200160002060008b73ffffffffffffffffffffffffffffffffffffffff1673ffffffffffffffffffffffffffffffffffffffff168152602001908152602001600020848154811015156200f4a357fe5b9060005260206000209060029182820401919006600c029054906101000a90046bffffffffffffffffffffffff166bffffffffffffffffffffffff168152602001908152602001600020600201600082825403925050819055506200f52b7f5de32c9473ec55f83bf246d78f12fd508ebbac96154f5362de89998f6df41abf6001026200240f565b6200f53f565b80806001019150506200eee2565b506200f56e7fab6fd99882dc99305c9e7aa3df4bc3415d6278b1209971241c7d679570c5932a6001026200240f565b6200f59c7ff9c6b849998a785aa1b465d2b5bf81a3bc769b62f790010dd5be5685906f16646001026200240f565b60e3600086815260200190815260200160002060008773ffffffffffffffffffffffffffffffffffffffff1673ffffffffffffffffffffffffffffffffffffffff168152602001908152602001600020548411156200f7a8576200f6237f656925be81ad07f711fb2853f2d96882edd15b630070f5c55b9dfddd111def186001026200240f565b6200f6517f3bd8fdbe6606aebfa1a5081203b96bad66837cb3a411f1c5e80eada525d9dcd76001026200240f565b6200f67f7fdb123ab0412f314d23ae0d9f90f89f2e10a6e41033d4eeb7606482be127dd0d86001026200240f565b600060e3600087815260200190815260200160002060008873ffffffffffffffffffffffffffffffffffffffff1673ffffffffffffffffffffffffffffffffffffffff168152602001908152602001600020819055506200f7037f9f5fe2723276cdcdef377295aec0c8c49e37e9e7bbb68690a4aa2dbebb6cafd76001026200240f565b6200f7317f3f5f81676e5f5ee30fcde939ff01b915edc3ea103aa9d270ffb09a2b7784a3be6001026200240f565b60e3600086815260200190815260200160002060008773ffffffffffffffffffffffffffffffffffffffff1673ffffffffffffffffffffffffffffffffffffffff1681526020019081526020016000205460e66000878152602001908152602001600020600082825403925050819055506200f90e565b6200f7d67fc47483b50fffcdbc077fcfb6da84b9b011b79f95d813fbc6529d027f58dfa5d06001026200240f565b6200f8047fcbfc3d9075fed53ed752549af9f9c792cd822a108e157857ad73c097403e24996001026200240f565b6200f8327f11957a4468cda2850e8275efbbcafec715df25669241cca53d605f7ca52bd2386001026200240f565b8360e3600087815260200190815260200160002060008873ffffffffffffffffffffffffffffffffffffffff1673ffffffffffffffffffffffffffffffffffffffff168152602001908152602001600020600082825403925050819055506200f8be7f6d94e0b2ed13a9c52db7bddd9bbd1c479a4ffd01ade8bded8f11991eee5b54656001026200240f565b6200f8ec7fdede6b286c1629a1780a72f861df93564d8c27f9a5decd928f33b7c1282c0e056001026200240f565b8360e66000878152602001908152602001600020600082825403925050819055505b506200f944565b6200f9437f3155d3f0fbcdb604e7ed1c06c1a6985d70c5b46a107c68f130b32bf58b18d40a6001026200240f565b5b6200f9727f40a8e73bbcb01d47b5671c52a9b29a286fe71eab24c4e624650536ff645134586001026200240f565b6200f9a07f38ff2d211281870e6fb6c4b4f1680b0a20528644ce5b213aae44cdff98eee9666001026200240f565b60019050949350505050565b60006200f9dc7f1e389c3a59451a90cc38a462ab78e585703d049faa682b547afe962dd782d9fb6001026200ffcc565b6200fa0a7f91294d2a3cd14ca48c2829d94278cbbc8da604b303f69291b78cc7a96433fb6b6001026200ffcc565b6200fa387fed54bc75583d419ab275e8111912b68693321933fc327bb4bcf80928ad8b8b496001026200ffcc565b6200fa60836000018373ffffffffffffffffffffffffffffffffffffffff166001026201106d565b905092915050565b60006200fa987f3daffd0a9dce28b482d01a551215671bf4393bb2c14e29701cf4960e2f2b12926001026200ffcc565b6200fac67f40aa26a0e9be8d065cf56c5a97ee7ecf2d6f7f27a85e81ebb85bf92a3fb598c86001026200ffcc565b6200faf47fe7416d2a3843e619b1224850d86b591b72a1e287cf0e1b4b38a8e263ea5326976001026200ffcc565b6200fb1c836000018373ffffffffffffffffffffffffffffffffffffffff166001026201133c565b905092915050565b6200fb527fd1c72c9bdc3ca9a4257e4ddf645a869b391e970ffd9bff34df0d0528a3ac412360010262007339565b6200fb807f8f4f7dba546226f7539a16ab9066c75e7e81e9673b6f68728d46fe1f3a61887c60010262007339565b6200fbae7fcd170f4119e3aca60e7724267684566dd2041c7d5aa444acd028429d3f748feb60010262007339565b6200fbdc7f6a63989ee14a10486b835350903bf45415c808a528500885e6619c5399aefc4260010262007339565b60995481101580156200fc0757506098546200fc0460a554836200af5f90919063ffffffff16565b11155b15156200fcee576040517f08c379a00000000000000000000000000000000000000000000000000000000081526004018080602001828103825260618152602001807f476c757761636f696e536176696e673a20746865206465706f736974206d757381526020017f74206265203e3d206d696e206465706f73697420262063616e6e6f74206d616b81526020017f652074686520746f74616c2062616c616e6365203e207468652062756467657481526020017f2e0000000000000000000000000000000000000000000000000000000000000081525060800191505060405180910390fd5b6200fd1c7f90cf296771fd961654f91d9695f3942bb368f3b2cfa1c69ea5c14349e4e93dad60010262007339565b50565b6200fd4d7fbcaebb551cb10307d679206507663caa4acbba9b1b0353b620af65584aa4ab0160010262011882565b6200fd7b7fb8323b93377b581c7c9273470d53db6e200bf56d99657b15faf5e75bdb3a657260010262011882565b6200fda97fd92758d4ee4f58f25dc81e5be4b43b107c89734475cef12b6b66d6acaf18d52260010262011882565b8082600001600084600201548152602001908152602001600020819055506200fdf57f94dab526c4ba7bc55388dd3395376d48cd4eb32ab536ae2b4f6aae6ef9b4c8be60010262011882565b81600201600081548092919060010191905055506200fe377fd5f8dffb3859ad22d5ac650aa7d815132960535083211d846becb96b4481c6b260010262011882565b81600301600081548092919060010191905055505050565b60006200fe7f7ffdd89320185995bfc90bd2f435a9e7d12cff2e212aae18da6f0c108a2fefca4f6001026200240f565b6200fead7fdbc8a71c599f71825cdc422cf59f398f8a51348d18be2d4257eab9c208d7587b6001026200240f565b6200fedb7fc5b503a3cde8ae5bf7e248fa24ec9a90f4b2c81090d36d4d2aca1fbc4bc22b926001026200240f565b6200fef3856200feeb866200e0c3565b85856200c2da565b9050949350505050565b6000808311829015156200ffaf576040517f08c379a00000000000000000000000000000000000000000000000000000000081526004018080602001828103825283818151815260200191508051906020019080838360005b838110156200ff735780820151818401526020810190506200ff56565b50505050905090810190601f1680156200ffa15780820380516001836020036101000a031916815260200191505b509250505060405180910390fd5b50600083858115156200ffbe57fe5b049050809150509392505050565b50565b60006200ffff7ff852b790830032d89971e2c521d42063f93f9915f774b150a71f19bed01505fa6001026200ffcc565b6201002d7f02a432993c4332c426e42b943b3b019f4f8176664138a13b7aefd4766c8779426001026200ffcc565b6201005b7f4106100c6ddc9e9685bfafb2331061f66fe0bdf557d61e86d3a9e77f415df1c06001026200ffcc565b620100897f74042fd2ce01d2d4e5b83168db3daaa0ada16dcc55033ff01c774f8d3b09d26b6001026200ffcc565b8183600001805490501115156201012e576040517f08c379a00000000000000000000000000000000000000000000000000000000081526004018080602001828103825260228152602001807f456e756d657261626c655365743a20696e646578206f7574206f6620626f756e81526020017f647300000000000000000000000000000000000000000000000000000000000081525060400191505060405180910390fd5b6201015c7ff5b89a497746cc14694c9f1ed1aeaef6a21f81b1a91b334ac822cb679c327c546001026200ffcc565b6201018a7f3d2a328b4224524dd5bf276581f8c7e30b93161a3146a223de54a8178318570d6001026200ffcc565b620101b87fa53b31889d5006b4901ceb793559ba11b86794ec37414fd5e2572de69058b50b6001026200ffcc565b8260000182815481101515620101ca57fe5b9060005260206000200154905092915050565b60006201020d7f0210cac0db58119dced257e99daceaaac77667d292149865bf117b7ca9eb4bce6001026200ffcc565b6201023b7fbb32f6a0da519ded942950a6895a2c4b30863d395a47575812ea09df9c76aeef6001026200ffcc565b620102697f2d7ec9f89494f43c00f58c9ac42d6c4126f5ad30efc6a67b48204435b90bdbe16001026200ffcc565b6000836001016000848152602001908152602001600020541415905092915050565b620102b97fedea06ed59008997c5743a16db8568bab5dd9f9c34ed04b0f769daf451feb479600102620044a4565b620102e77fef1f4435b8ae57ba06f31930b3fb8c9cc004c60b2991c9854f356fda1be49d1b600102620044a4565b620103147e8e26e72734111ca057d72127912f0212f88739a7285da44b27658c44d821cd600102620044a4565b8060336000848152602001908152602001600020600201819055505050565b620103617f811d9b367083ade010308c3df46e6c1a758d0a4e066263174dfb6043b644e173600102620044a4565b6201038f7fdb6ee36fa74bfce73b4d7febf4feaf4bdebc1210aab6f5b8693bd4a1f8853a26600102620044a4565b620103bd7f85d239db3b4d1b9cced29486f7c80ccb652aafd8e8eae3f7452473f2cc89b51a600102620044a4565b620103c9828262009308565b5050565b620103fb7f7e529621f6492303071346598b2c2ab4383f67827f174c4fc45f55a7486fbb2060010262011885565b620104297f3ace7cb34156435273cfaca2e8be94d1c855160569772711a5181bff3e7d870960010262011885565b80600001600081819054906101000a900466ffffffffffffff168092919060010191906101000a81548166ffffffffffffff021916908366ffffffffffffff1602179055505050565b6000620104a27f808fe5bd45f46ab8ff1cb9aa9c9a30377ea23be0941c4795446d41d254aae5c46001026200ffcc565b620104d07f556bfe46c39f16f279635b09a7f3e6cb0df504be781b0931db8a40bab702a7976001026200ffcc565b620104fe7f5852ae1c75c424755782c3fdffd26401e1354b9b177513f37690d594b1ebc8ac6001026200ffcc565b81600001805490509050919050565b60006201053d7fa303f98cc6ce1685bf6e989f8a0f8f49483b345121b408ad42b01dd5afb232136001026200240f565b6201056b7f26467551d1eb7046f688248f652d228c1bf6806be3899b7f4e90791b2a6d1a706001026200240f565b620105997f11d8ce75fe5c00ee2f34c37514086193c9a3600f53beb978aa57bb82141627cc6001026200240f565b6000846001868603014285434042448a8c6040516020018088815260200187805190602001908083835b602083101515620105ea5780518252602082019150602081019050602083039250620105c3565b6001836020036101000a03801982511681845116808217855250505050505090500186815260200185815260200184815260200183815260200182815260200197505050505050505060405160208183030381529060405280519060200120600190048115156201065757fe5b06019050620106897fdae38433414487548a7bda5d73b7548dbd3ad7cd576556c1d1a83b89af7f04b86001026200240f565b620106b77f1a7558312e1162d125dc230586cf1dd39edfac64ccc12c9ea8747bb6ba6c73426001026200240f565b809150509392505050565b620106cc6201256c565b620106fa7fbeb1c88f1ae596c518fecdf2969afbcd18309ab1ba07bdd0515795aa5e5d7bca60010262011888565b620107287f8207724107452dc74ed129d680b010da484b3250915c6b3b80e39fbd0746732560010262011888565b620107567fcee2cb85dacdafd19ff63bbcbd543c631167b6f5b3a5530da0121fdae154ad7360010262011888565b62010761826201188b565b816000019061ffff16908161ffff1681525050620107a27fa76698c6a56b758a87fc1e9813a5cb387256044cb14c2afadf111db4c9fc0ca660010262011888565b620107d07f410af78408da8ec31182f9ecd5b8ea2bbb7197ea2216d3259075870623b707ec60010262011888565b6000620107e36107b261ffff1662011d00565b620107f6836000015161ffff1662011d00565b0361ffff1690506201082b7f6a01c63fd740b45b38ba38232e43a51e3a35dcf9de0d19fe4b8bfa26b140fa7060010262011888565b620108597fa189d66169d98e4af2300e21fdad4e0cc9ef8d463eb772d04fc5c981301d755d60010262011888565b6000816301e2850002826107b285600001510361ffff16036301e1338002019050620108a87f65c3cf497d2e456bc55bea799cb8dc0d51a2bab00d432c198f7f3f3b0405928960010262011888565b620108d67f6a67a4fb3b94133a63de1451dcd85e5c5cda55768ec0988438d9e929ada6a21760010262011888565b6000620109067f9522db35201a625d03047e0a83e405abaf708c2f21c844b40412aab518f9212660010262011888565b620109347fb6f1e4f1ee721eef05777a511afc53d357b3ae4fa3d5ff1f17674b0c1ec0757160010262011888565b6000620109647f4bc272dac49c832dcb7fb4035ab3b3f110a9f43623381a480a7246bc0bf718f660010262011888565b620109927f75fed6daba885d0578445ab7b7a66b57b2282cfc36ec37c07ee2794172677fb560010262011888565b6000620109c27fb6f7287c6473a50e1b38b41f83e2246d4e8d12b888c2946ca04ed94d67b8ff6560010262011888565b620109f07fe82fa837660b9fe78ef08c9641a9b9a03fdf575d220322c04f0291003060741460010262011888565b600190505b600c8160ff1611151562010cb05762010a317ff9f7984bfed3c0802cbc69cbea94f0d61a4713b938ef0b6c9636ce0a2b99027b60010262011888565b62010a5f7f806c13d853d4c035d109dc0270a6db1c75bb1568248619867fa569f4f48105e360010262011888565b62010a7381876000015161ffff1662011e22565b915062010aa37fc099bb14d589016a9243cb70c21e09a5618fd9bc114078866329a6321a0008d760010262011888565b62010ad17fa8c153fbff1e26f9d2c92821d7f6f66b060a48f93beb3714c37b0b54e0c9c30860010262011888565b8160ff166201518002925062010b0a7f3fbd1670a45e3319798a4ccb23b60ed01d05e0eee1957336f68b71104e75fc0360010262011888565b62010b387f9ffe33813370748665e6754a45c7b9a2c8a54ff021bf53c80ae4a141841e704c60010262011888565b86848401111562010c135762010b717ff05dc18d17043d62fc1e765561be51de7e18c1c3277872abdcb32fad0cb6632b60010262011888565b62010b9f7f7c233dad1f6a192553947a6d7ed76b62b4f60d9a4c56eeb17f871d055bb4542f60010262011888565b62010bcd7fe24e95afe2b1b86be04e04f8936c3d0b17b7e70bddd237271db5c52fbf84e3b760010262011888565b80866020019060ff16908160ff168152505062010c0d7fe86a405280771711451be0b334aa76ce095a3ff4971daee704b0207c035f9bf660010262011888565b62010cb0565b62010c417f123af6654288920957bed7acbd33b8c89704966fa0a4ab95492c96874c98b84460010262011888565b62010c6f7ff82784811d350e107c487ed23190e7f92019191e729a1b53249be70b34fcf9e260010262011888565b62010c9d7fc16afb265ab91b6c1205c88dcc624bf2874ee09e9b66e1a0ba241871fb4d412660010262011888565b82840193508080600101915050620109f5565b62010cde7f3188a408f43491dd6c23e72f71657348f6e51fb478d0afdba7f562b408e26dfe60010262011888565b62010d0c7f2a6cdafdb8911e44434b68183eab43752f32c4d2b08120dcb06db38f724dc93460010262011888565b600190505b8160ff168160ff1611151562010efb5762010d4f7f572ea494e893c2dd97e26de0a8cfc31f887d291a8823fb9ec8758a569640103b60010262011888565b62010d7d7f7e2c8734b00f104076ef6a23c664fb3f90888db583e8096e4cc5c8852d3fd66960010262011888565b86846201518001111562010e5b5762010db97ffeab6427bf51e972eda648d3eb6d482ad5850bcc5655fc88271ec789e10460d360010262011888565b62010de77f46244ec7fa678ed3f30faf4a9033444dc3168e60b98cd680f8dbcaffcd26bf4760010262011888565b62010e157f256c99a2fc0f0a860a4330f973fd96bd84da087798a86b746f8d2d86151676bd60010262011888565b80866040019060ff16908160ff168152505062010e557f5f21e22de5f3f92f2c1d283827b94b347e1098b87b2d012bb7175fdc2668f0f860010262011888565b62010efb565b62010e897f50b662ecbc0a369719a389b0d7b8656be8db9487ba4bdb484ee14c780dcf91fd60010262011888565b62010eb77f6a5ea1c27edf78adb18ffe7c502c3ea753abac5ada22f584f0ce3774e2ae352560010262011888565b62010ee57fc9052f7d8f77e1d46e13e88e424686638bea10f2142d0c4ce704c382af84e26160010262011888565b6201518084019350808060010191505062010d11565b62010f297f7e1f5d91663ead1864ef52ec5cb592444ad33cd66493bd7e97cc4b028bfebbe260010262011888565b62010f577fb6ac75779ebd95d710ba8ff863f971e2cbb727099fdac0de6671db3d99e284a660010262011888565b62010f62876201220f565b866060019060ff16908160ff168152505062010fa17f57059e354f5d8f83342699811e06f3932046bb0898077b7bb58911cf5e78759260010262011888565b62010fcf7f509e1093fcae8976f27b921fd34f5a734984bab933b349bf6f169910c0f60dd660010262011888565b62010fda87620122be565b866080019060ff16908160ff1681525050620110197f2396debca5be8803b6ba608c2cd07c3901e31868d93e1d75269f5bc9ea1ff33160010262011888565b620110477f496897ebded4144c69dd0c31e326ce1cd614da28d571d4f7875b5da9ff820b3c60010262011888565b62011052876201236b565b8660a0019060ff16908160ff16815250505050505050919050565b60006201109d7f411725b9e6b16644ba52449ec4d36b92dea2b1bd54b0f03c783a20b7890d00eb6001026200ffcc565b620110cb7f9bd634b5b92fd3e06f26a52ec2939a4a0a84952a011ea5514bc62a4c5373a55c6001026200ffcc565b620110f97fea4ca516a6106cab84a6a4e89be0f7002b5d6eb029ffab4c054b7ee765fc3c2e6001026200ffcc565b620111058383620101dd565b1515620112a7576201113a7fb46577be114288cc2048caa1c7c40b09dc718696d9a09f0499a1547eb16451a96001026200ffcc565b620111687f699f127f4fce6e368acc157cac121779c534d2aa962d0533bfdaaae1d69ca05f6001026200ffcc565b620111967f521bb0fe62e6b7fd3853af763e653963a8408ffb348ef253e2d2f6e4ce4cd2216001026200ffcc565b82600001829080600181540180825580915050906001820390600052602060002001600090919290919091505550620111f27f9b482a5f51b8ea016ff5ab73974f6b85a6fd2a1eb01a8ee81de32df7a2a8da356001026200ffcc565b620112207fce3c0267f6afecccc16fb1df160b30bad8dd9e6470f2c250c65f5d16f55953836001026200ffcc565b8260000180549050836001016000848152602001908152602001600020819055506201126f7f1428e26d804ec500abd0e9390b2940e16e23c588838979a643dc197ecc45d3146001026200ffcc565b6201129d7f0b321acd305614c64bd3b03df9b54fda13512f699793d352dda406f5377d654a6001026200ffcc565b6001905062011336565b620112d57f7a5ecc9f91718277f21ffe36d4008cfb52c45cb4a3d02c8d3ad7b368266b527d6001026200ffcc565b620113037f594e731be2305a9bbd344870cf0633f896cf7c8a552149ac8c3887f5939fa2cc6001026200ffcc565b620113317fce845126564f88320d57ac15815dc9da8f604bbea797690ee5dd29256f4490ef6001026200ffcc565b600090505b92915050565b60006201136c7f8de4d4b62709fb9aa3764ecad70f3f67ded177953e8d0b3fa69eb7270f7a72b86001026200ffcc565b6201139a7feef1a22ab497f0a0b5773c261963d43f0abced69475a8f361c4c09940a2e0f116001026200ffcc565b620113c87fd3ffd1de8410e1a5342524eadcc24cec3d13da46f520a8ff3842159d8ac513816001026200ffcc565b6000836001016000848152602001908152602001600020549050620114107fd29f0954420e0dacdaf662725b7670ca376b5ecb1467eea88f3ed07b3cef9b2b6001026200ffcc565b6201143e7f416543475b2a4ac207e92b54c5a89b0283eb8a6898f17e8a422c8a2b3bdfe4dd6001026200ffcc565b600081141515620117ec57620114777f53e6da82d3cb4b8c67410d9eef4d4d2578dc84336caa8505c50feddb82e7c74e6001026200ffcc565b620114a57f9985aa50040fc25f597dd3c0a0ef9e1794881ab1e07bd05e1686a5c7731277186001026200ffcc565b620114d37f924e66bc6d3998d3584ee5dec8380db18c7801386c9813e9c519c714f9cf05b46001026200ffcc565b6000600182039050620115097f0464100dfed97956c95ac0853f67804ec637520949c0ddf43963e7218712c4ee6001026200ffcc565b620115377f31239a0e5e1877005aeaa2cf67ecd4f26333ff91ac415b7b58467f96b928e4706001026200ffcc565b600060018660000180549050039050620115747f0e8690e5eba3bc911cbe19ecc595ae9d5a7041f8b723ff9c12a4707e72d1d7096001026200ffcc565b620115a27f187fa4fe781f8142b1e1da8868034ad381d767259bb390adb2ffa112cc52f2726001026200ffcc565b60008660000182815481101515620115b657fe5b90600052602060002001549050620115f17f9edf3971b67091da233f4cee6fc830f48fc8dae83e1acedbee273f8618720ca86001026200ffcc565b6201161f7faa77a760e845cf44dffa170ad08e7782cf1bbc412ad237c88b0c772676e915086001026200ffcc565b8087600001848154811015156201163257fe5b90600052602060002001819055506201166e7f91a387f2c534fe2d9593060ddb58e0e80cbd7962a699db2183f7fd9ac7bf071e6001026200ffcc565b6201169c7f5273e3157ed309e995284bc9a0977b5e190f596e6d0a7d6a98f63c6c2e9d2cf56001026200ffcc565b6001830187600101600083815260200190815260200160002081905550620116e77f6d6ed45f9faffdfa6efb315d613b5cf6f6203c948a1d42a6be8e892393847bf56001026200ffcc565b620117157f9c908650b18c4d06afe6e22d13e282f9f484d9b002a6121d345881d9d8d830926001026200ffcc565b8660000180548015156201172557fe5b60019003818190600052602060002001600090559055620117697fd1882d1c724fb038c1a118718cfe41c240fcbb742f29604cb573449c428371b76001026200ffcc565b86600101600087815260200190815260200160002060009055620117b07fc7f15540aa2b0ce236d481f7560d15ffafee2f2e30cac9beab7e15a266dfe9a76001026200ffcc565b620117de7fd59aa80060ea20a1bee9535659b672619a59eb9abf365dafefcb942c2613c7f26001026200ffcc565b60019450505050506201187c565b6201181a7f510cdbe5cda3c6cfdb8e3b071d5f7c35ea460dd72c7be1c916a1934f864dea146001026200ffcc565b620118487f69556792cf99684702e25e6dffc56bf298f3be73f828931c796488097d672b3c6001026200ffcc565b620118767fe7dbbe65769452c853cae620146590604b6b716ac01fb8b203f1ba9fc91fc2246001026200ffcc565b60009150505b92915050565b50565b50565b50565b6000620118bb7fb12ad78b1876d14abaa37416671bd07bed080a6ce64b371bdfd7e2d69d89da6e60010262011888565b620118e97f6c06717daf4584869deb27237b0c27fb71b4bf54141f6fb6817c9a7083688aba60010262011888565b620119177ff007e8ce052e12f2d9bf15fe86b6823999a3c41af914f5f26d038a66674422af60010262011888565b60006301e13380838115156201192957fe5b046107b261ffff16019050620119627f9f24d204f8e8b55dda232ace5da3fe70f2008525f5cb8e874eb1ea6a4fe7e88260010262011888565b620119907fa8f5f468d40e0ee31e441b11ee194e32890c772b4f58e9af8b5b41d398fe187260010262011888565b6000620119a36107b261ffff1662011d00565b620119ae8362011d00565b0361ffff169050620119e37f66affc12d63b8855820aa906e9a4b08c2feb4edb8a116a91f556979f3ab99ced60010262011888565b62011a117f3bb09d0037b739d50b6349daabc35de9ddb93a013c8fcbff0af23e099adcbb0460010262011888565b6000816301e2850002826107b261ffff168503036301e133800201905062011a5c7f3831d2f46af76e575f65fd9ebffccfe8f17e118a92c6265ff792c3fdcb555a7960010262011888565b62011a8a7f3e93a3758d1da71b45b1a9fc01c8011db23a18c98a24061d6e3aa8602da8247e60010262011888565b5b8481111562011c995762011ac27f603f8c0b01d48857d77b539a8e655e56c07b3c48fd7e9ec719459cc8f2dd36cc60010262011888565b62011af07f6e46492d3df9309fcb22ad59e97be4a0b069b31f67d27fb48f6a34363dfa162b60010262011888565b62011afe600184036201240c565b1562011b9d5762011b327ff155b17cc897643b41df67d3561cc347f9bef4a466b3df72a02f1d326f96e3ec60010262011888565b62011b607fbcd6f205b1d394b650b54511aca8b4e9d42ae52409dfae8b84bf10b3ce084a0460010262011888565b62011b8e7fe0d2cb0b4b54776f7c09b0b36f7ff6de0e2f4385a9cf7c33799b791b5dda635060010262011888565b6301e285008103905062011c31565b62011bcb7f1e9259b08c5dc9653126ea6fce79b6f72e0dd454c90c0cbf400d543ae59f7adf60010262011888565b62011bf97f94c55045a4ec3af02cec0a1fb9ea26f4ebd96e1d9fb84bc225c402e0a603af6060010262011888565b62011c277fd162d092a0721c0063aa29dd083713e6957b2c87c7b44a0a8ff66cb07fdf303b60010262011888565b6301e13380810390505b62011c5f7fcbae63fa06e6039f9c7f4ebaede7eb6aacf5468defd4888d5e8445c1bc9cca5b60010262011888565b62011c8d7f5144054db1d58dbe626c516d675ab9e9455e65461e6162f87854014dfb8b021760010262011888565b60018303925062011a8b565b62011cc77fce34780398d4a6d72cbbbb4d13a62cda7954f54ab95b8b90f1810060679b4e8360010262011888565b62011cf57f51e4d4712bf2ea774012502a24a8ba7762dd3d4d2b7ae816b41d57aa64e07d5160010262011888565b829350505050919050565b600062011d307f8fd1d551816c5ce457c6fcb88fe17cfef05bd0ff60b2f921fe4ae5168cbe2e6b60010262011888565b62011d5e7fbed93439f285e4f9ccd9a830a4b1df97cf1548246074aba6d87013d06321877660010262011888565b62011d8c7fd9f53f917a8b8e0eee460e30756ef4eaff78b0a3b90b4b451feb9e1863390ada60010262011888565b60018203915062011dc07fe952482a9f34e37dcdb0077c226887bf334f24027405859080e4bc049d8b9a9660010262011888565b62011dee7f6f95896d861a1cf4ef23bc40c92abfbca3affb80257f517f2c007562da81a80260010262011888565b60648281151562011dfb57fe5b046101908381151562011e0a57fe5b0460048481151562011e1857fe5b0401039050919050565b600062011e527f966599230b2efe1217cf9a88ea1a477ee4707204861232319b6c946d000d830860010262011888565b62011e807f6b283944c5f6af131447249ba3ee43ff2718d04e712b34fd445d2f93045ed4d960010262011888565b62011eae7faf744b6260b93deb033e632509d37e335b0846c424a549984680a439b124952a60010262011888565b60028360ff161415620120505762011ee97fbbc6e5f05e60723a2fd98775070cdb71d4d05117e72768fc24d09ceb3b54ceee60010262011888565b62011f177fbd8714a14ded21c1f0ef248834bf451f5f001d2e258588d47f591017749d7cde60010262011888565b62011f457f7ff2a0a65e08d801c71d32e5fa6d21c7c14daa7b9b52e6911951e61d2dee5ece60010262011888565b62011f50826201240c565b1562011fbc5762011f847fc400fa2f19d96d670b5cd553118c3dcc839d1ca01643f3f2aadbb964e66cd58260010262011888565b62011fb27fb4c0a2f66d83d32038e7162b3ad28e2705331fb983cfb3cb064b37501889ea5360010262011888565b601d905062012209565b62011fea7fc5100a56dce49bf964aa99b54f102a3f0a3f6a803d69972b999aee261a9a86da60010262011888565b620120187f3940530a99f4099b8f4d07dc32f531b54295567a330c81801a6ef5040028a23c60010262011888565b620120467f69bd8442c820eb767dab3ea1cbde489b75622373364717d027596fcb6b43393760010262011888565b601c905062012209565b6201207e7fc1cde02925920c3dd289f9c937a9ce3ae53fce4f82996d43e6461729014076d660010262011888565b620120ac7f9b897a64bbfff882530d264b969ff02abff2819b3ebd5a7d0ee1d9f5d1a0b19360010262011888565b60048360ff161480620120c2575060068360ff16145b80620120d1575060098360ff16145b80620120e05750600b8360ff16145b156201217a57620121147f1bc45735d4e64373353e1d3b278bd6c7cdd83cf891971c65ff92433c8a9f078560010262011888565b620121427fd907228da083e86c4a94974b84b50f80ed66b5dfb58276fcb209c6cfe56df5b260010262011888565b620121707fb1cb616ec0506f2ecfd084b6e3b54e8a6d2d1bc23112f172081f64ad47bd978e60010262011888565b601e905062012209565b620121a87fc53b73c047fd53baa01f9f93b941aeb2fed3930f8ccacde5e4b031f6d034a97a60010262011888565b620121d67f44ffb8ba1c424d23b5cf0490a0229b72ced587f226aeb184b14de4140a724b0860010262011888565b620122047f504a8ec7857f77f0f05b9e1fa4ba5073fb694e2771756c23a9c9532dade4d4f860010262011888565b601f90505b92915050565b60006201223f7f903e5899356adf169cc3d09a553e3b95613b37b8b2c8192fcec99a21cf72b5fc60010262011888565b6201226d7fe5b363119b7f9ef45484423cb8ff0353b064ab8ff3ed4ef958fb4e841ec7aa1b60010262011888565b6201229b7fbb3a674b09336dbb76a30f85820f5fc5fea400803f83148dd166d65b077761e460010262011888565b6018610e1083811515620122ab57fe5b04811515620122b657fe5b069050919050565b6000620122ee7f251fb80cc25a2f96ff3c65f2ee513e802271dfa26e68bc2b8620d6b53d34c17260010262011888565b6201231c7f0685935c6ba4dd53ff0b8540217e29a80271148233eb7d9a6deb49106a09961460010262011888565b6201234a7f34f29fb6bec7bdee0f975b3b46a51f8a3a974bb47978e8b49ff7983cc11b11e560010262011888565b603c80838115156201235857fe5b048115156201236357fe5b069050919050565b60006201239b7fe4adfb0cbab84cf8fcf523d90533da057bec4887975b727ad4ee0ef78a58e0f360010262011888565b620123c97f659ee24f2f90a92fd4407919378438d34ff08398b5df93e04aa4ee37bf43283660010262011888565b620123f77fa58a1f34a2d54c93d5914a5ff8ac0cdd6f43092a957880c1b1b5a2be7c744aa660010262011888565b603c828115156201240457fe5b069050919050565b60006201243c7f0d5466fd149bf6f66bf44e1ce69c5b9b646b7858ee530f6fe4b44c1399b130cf60010262011888565b6201246a7ff7c4ae06e9c845650bb52508c732a5f72303c3037b635ecc1215a3c2d079039060010262011888565b620124987f89aa6a64363802e5a6464cd1452522ffcf12e9811c943e8178722d312f1dac5660010262011888565b600061019083811515620124a857fe5b061480620124de57506000600483811515620124c057fe5b06148015620124dd57506000606483811515620124d957fe5b0614155b5b9050919050565b828054600181600116156101000203166002900490600052602060002090601f016020900481019282601f106201252857805160ff191683800117855562012559565b8280016001018555821562012559579182015b82811115620125585782518255916020019190600101906201253b565b5b509050620125689190620125b6565b5090565b60c060405190810160405280600061ffff168152602001600060ff168152602001600060ff168152602001600060ff168152602001600060ff168152602001600060ff1681525090565b620125db91905b80821115620125d7576000816000905550600101620125bd565b5090565b9056fea165627a7a72305820550e7518dc9dd5d042a1a95234b9bc57fe3f54ba9aa65b00c68ad8e703cc82e90029",
  "linkReferences": {
    "contracts/libs/DateTimeModel.sol": {
      "DateTimeModel": [
        {
          "length": 20,
          "start": 58312
        },
        {
          "length": 20,
          "start": 60425
        }
      ]
    },
    "contracts/libs/GluwaAccountModel.sol": {
      "GluwaAccountModel": [
        {
          "length": 20,
          "start": 40544
        },
        {
          "length": 20,
          "start": 40913
        },
        {
          "length": 20,
          "start": 55273
        }
      ]
    }
  },
  "deployedLinkReferences": {
    "contracts/libs/DateTimeModel.sol": {
      "DateTimeModel": [
        {
          "length": 20,
          "start": 58291
        },
        {
          "length": 20,
          "start": 60404
        }
      ]
    },
    "contracts/libs/GluwaAccountModel.sol": {
      "GluwaAccountModel": [
        {
          "length": 20,
          "start": 40523
        },
        {
          "length": 20,
          "start": 40892
        },
        {
          "length": 20,
          "start": 55252
        }
      ]
    }
  }
}