{
  "_format": "hh-sol-artifact-1",
  "contractName": "Address",
  "sourceName": "contracts/libs/Address.sol",
  "abi": [
    {
      "constant": true,
      "inputs": [
        {
          "name": "c__0x7d569daf",
          "type": "bytes32"
        }
      ],
      "name": "c_0x7d569daf",
      "outputs": [],
      "payable": false,
      "stateMutability": "pure",
      "type": "function"
    }
  ],
  "bytecode": "0x60b561002f600b82828239805160001a6073146000811461001f57610021565bfe5b5030600052607381538281f3fe73000000000000000000000000000000000000000030146080604052600436106056576000357c0100000000000000000000000000000000000000000000000000000000900463ffffffff16806375185a8014605b575b600080fd5b608460048036036020811015606f57600080fd5b81019080803590602001909291905050506086565b005b5056fea165627a7a723058201f999e5106e99c95987fd26f3157e014c33ede31803c7e1c702804d6d51eeae90029",
  "linkReferences": {},
  "deployedLinkReferences": {}
}